{
  "_format": "hh-sol-artifact-1",
  "contractName": "CanvasCollection",
  "sourceName": "contracts/CanvasCollection.sol",
  "abi": [
    {
      "inputs": [
        {
          "internalType": "address",
          "name": "pixelmapAddress",
          "type": "address"
        }
      ],
      "stateMutability": "nonpayable",
      "type": "constructor"
    },
    {
      "inputs": [],
      "name": "ApprovalCallerNotOwnerNorApproved",
      "type": "error"
    },
    {
      "inputs": [],
      "name": "ApprovalQueryForNonexistentToken",
      "type": "error"
    },
    {
      "inputs": [],
      "name": "BalanceQueryForZeroAddress",
      "type": "error"
    },
    {
      "inputs": [],
      "name": "MintERC2309QuantityExceedsLimit",
      "type": "error"
    },
    {
      "inputs": [],
      "name": "MintToZeroAddress",
      "type": "error"
    },
    {
      "inputs": [],
      "name": "MintZeroQuantity",
      "type": "error"
    },
    {
      "inputs": [
        {
          "internalType": "address",
          "name": "owner",
          "type": "address"
        }
      ],
      "name": "OwnableInvalidOwner",
      "type": "error"
    },
    {
      "inputs": [
        {
          "internalType": "address",
          "name": "account",
          "type": "address"
        }
      ],
      "name": "OwnableUnauthorizedAccount",
      "type": "error"
    },
    {
      "inputs": [],
      "name": "OwnerQueryForNonexistentToken",
      "type": "error"
    },
    {
      "inputs": [],
      "name": "OwnershipNotInitializedForExtraData",
      "type": "error"
    },
    {
      "inputs": [],
      "name": "TransferCallerNotOwnerNorApproved",
      "type": "error"
    },
    {
      "inputs": [],
      "name": "TransferFromIncorrectOwner",
      "type": "error"
    },
    {
      "inputs": [],
      "name": "TransferToNonERC721ReceiverImplementer",
      "type": "error"
    },
    {
      "inputs": [],
      "name": "TransferToZeroAddress",
      "type": "error"
    },
    {
      "inputs": [],
      "name": "URIQueryForNonexistentToken",
      "type": "error"
    },
    {
      "anonymous": false,
      "inputs": [
        {
          "indexed": true,
          "internalType": "address",
          "name": "owner",
          "type": "address"
        },
        {
          "indexed": true,
          "internalType": "address",
          "name": "approved",
          "type": "address"
        },
        {
          "indexed": true,
          "internalType": "uint256",
          "name": "tokenId",
          "type": "uint256"
        }
      ],
      "name": "Approval",
      "type": "event"
    },
    {
      "anonymous": false,
      "inputs": [
        {
          "indexed": true,
          "internalType": "address",
          "name": "owner",
          "type": "address"
        },
        {
          "indexed": true,
          "internalType": "address",
          "name": "operator",
          "type": "address"
        },
        {
          "indexed": false,
          "internalType": "bool",
          "name": "approved",
          "type": "bool"
        }
      ],
      "name": "ApprovalForAll",
      "type": "event"
    },
    {
      "anonymous": false,
      "inputs": [
        {
          "indexed": true,
          "internalType": "uint256",
          "name": "fromTokenId",
          "type": "uint256"
        },
        {
          "indexed": false,
          "internalType": "uint256",
          "name": "toTokenId",
          "type": "uint256"
        },
        {
          "indexed": true,
          "internalType": "address",
          "name": "from",
          "type": "address"
        },
        {
          "indexed": true,
          "internalType": "address",
          "name": "to",
          "type": "address"
        }
      ],
      "name": "ConsecutiveTransfer",
      "type": "event"
    },
    {
      "anonymous": false,
      "inputs": [
        {
          "indexed": true,
          "internalType": "address",
          "name": "previousOwner",
          "type": "address"
        },
        {
          "indexed": true,
          "internalType": "address",
          "name": "newOwner",
          "type": "address"
        }
      ],
      "name": "OwnershipTransferred",
      "type": "event"
    },
    {
      "anonymous": false,
      "inputs": [
        {
          "indexed": true,
          "internalType": "address",
          "name": "from",
          "type": "address"
        },
        {
          "indexed": true,
          "internalType": "address",
          "name": "to",
          "type": "address"
        },
        {
          "indexed": true,
          "internalType": "uint256",
          "name": "tokenId",
          "type": "uint256"
        }
      ],
      "name": "Transfer",
      "type": "event"
    },
    {
      "inputs": [
        {
          "internalType": "address",
          "name": "to",
          "type": "address"
        },
        {
          "internalType": "uint256",
          "name": "tokenId",
          "type": "uint256"
        }
      ],
      "name": "approve",
      "outputs": [],
      "stateMutability": "payable",
      "type": "function"
    },
    {
      "inputs": [
        {
          "internalType": "address",
          "name": "owner",
          "type": "address"
        }
      ],
      "name": "balanceOf",
      "outputs": [
        {
          "internalType": "uint256",
          "name": "",
          "type": "uint256"
        }
      ],
      "stateMutability": "view",
      "type": "function"
    },
    {
      "inputs": [
        {
          "internalType": "uint256",
          "name": "tokenId",
          "type": "uint256"
        }
      ],
      "name": "getApproved",
      "outputs": [
        {
          "internalType": "address",
          "name": "",
          "type": "address"
        }
      ],
      "stateMutability": "view",
      "type": "function"
    },
    {
      "inputs": [
        {
          "internalType": "address",
          "name": "owner",
          "type": "address"
        },
        {
          "internalType": "address",
          "name": "operator",
          "type": "address"
        }
      ],
      "name": "isApprovedForAll",
      "outputs": [
        {
          "internalType": "bool",
          "name": "",
          "type": "bool"
        }
      ],
      "stateMutability": "view",
      "type": "function"
    },
    {
      "inputs": [
        {
          "internalType": "address",
          "name": "to",
          "type": "address"
        }
      ],
      "name": "mint",
      "outputs": [],
      "stateMutability": "nonpayable",
      "type": "function"
    },
    {
      "inputs": [],
      "name": "name",
      "outputs": [
        {
          "internalType": "string",
          "name": "",
          "type": "string"
        }
      ],
      "stateMutability": "view",
      "type": "function"
    },
    {
      "inputs": [],
      "name": "owner",
      "outputs": [
        {
          "internalType": "address",
          "name": "",
          "type": "address"
        }
      ],
      "stateMutability": "view",
      "type": "function"
    },
    {
      "inputs": [
        {
          "internalType": "uint256",
          "name": "tokenId",
          "type": "uint256"
        }
      ],
      "name": "ownerOf",
      "outputs": [
        {
          "internalType": "address",
          "name": "",
          "type": "address"
        }
      ],
      "stateMutability": "view",
      "type": "function"
    },
    {
      "inputs": [],
      "name": "pixelmapContract",
      "outputs": [
        {
          "internalType": "contract Pixelmap",
          "name": "",
          "type": "address"
        }
      ],
      "stateMutability": "view",
      "type": "function"
    },
    {
      "inputs": [],
      "name": "renounceOwnership",
      "outputs": [],
      "stateMutability": "nonpayable",
      "type": "function"
    },
    {
      "inputs": [
        {
          "internalType": "address",
          "name": "from",
          "type": "address"
        },
        {
          "internalType": "address",
          "name": "to",
          "type": "address"
        },
        {
          "internalType": "uint256",
          "name": "tokenId",
          "type": "uint256"
        }
      ],
      "name": "safeTransferFrom",
      "outputs": [],
      "stateMutability": "payable",
      "type": "function"
    },
    {
      "inputs": [
        {
          "internalType": "address",
          "name": "from",
          "type": "address"
        },
        {
          "internalType": "address",
          "name": "to",
          "type": "address"
        },
        {
          "internalType": "uint256",
          "name": "tokenId",
          "type": "uint256"
        },
        {
          "internalType": "bytes",
          "name": "_data",
          "type": "bytes"
        }
      ],
      "name": "safeTransferFrom",
      "outputs": [],
      "stateMutability": "payable",
      "type": "function"
    },
    {
      "inputs": [
        {
          "internalType": "address",
          "name": "operator",
          "type": "address"
        },
        {
          "internalType": "bool",
          "name": "approved",
          "type": "bool"
        }
      ],
      "name": "setApprovalForAll",
      "outputs": [],
      "stateMutability": "nonpayable",
      "type": "function"
    },
    {
      "inputs": [
        {
          "internalType": "address",
          "name": "pixelmapAddress",
          "type": "address"
        }
      ],
      "name": "setPixelmapContract",
      "outputs": [],
      "stateMutability": "nonpayable",
      "type": "function"
    },
    {
      "inputs": [
        {
          "internalType": "bytes4",
          "name": "interfaceId",
          "type": "bytes4"
        }
      ],
      "name": "supportsInterface",
      "outputs": [
        {
          "internalType": "bool",
          "name": "",
          "type": "bool"
        }
      ],
      "stateMutability": "view",
      "type": "function"
    },
    {
      "inputs": [],
      "name": "symbol",
      "outputs": [
        {
          "internalType": "string",
          "name": "",
          "type": "string"
        }
      ],
      "stateMutability": "view",
      "type": "function"
    },
    {
      "inputs": [
        {
          "internalType": "uint256",
          "name": "tokenId",
          "type": "uint256"
        }
      ],
      "name": "tokenURI",
      "outputs": [
        {
          "internalType": "string",
          "name": "",
          "type": "string"
        }
      ],
      "stateMutability": "view",
      "type": "function"
    },
    {
      "inputs": [],
      "name": "totalSupply",
      "outputs": [
        {
          "internalType": "uint256",
          "name": "",
          "type": "uint256"
        }
      ],
      "stateMutability": "view",
      "type": "function"
    },
    {
      "inputs": [
        {
          "internalType": "address",
          "name": "from",
          "type": "address"
        },
        {
          "internalType": "address",
          "name": "to",
          "type": "address"
        },
        {
          "internalType": "uint256",
          "name": "tokenId",
          "type": "uint256"
        }
      ],
      "name": "transferFrom",
      "outputs": [],
      "stateMutability": "payable",
      "type": "function"
    },
    {
      "inputs": [
        {
          "internalType": "address",
          "name": "newOwner",
          "type": "address"
        }
      ],
      "name": "transferOwnership",
      "outputs": [],
      "stateMutability": "nonpayable",
      "type": "function"
    }
  ],
  "bytecode": "0x608034620003cf576001600160401b0390601f1990601f9062001be0388190038381018516830186811184821017620003d457839282916040528339602092839181010312620003cf57516001600160a01b03948582169491859003620003cf576200006a620003ea565b601181527021b0b73b30b99021b7b63632b1ba34b7b760791b8482015262000091620003ea565b9460049586815263434e565360e01b868201528251848111620003ba57600254936001948581811c91168015620003af575b898210146200039a5790818584931162000343575b508890858311600114620002dd57600092620002d1575b5050600019600383901b1c191690841b176002555b8051938411620002bc5760039586548481811c91168015620002b1575b828210146200029c5783811162000251575b5080928511600114620001e9575083945090839291600094620001dd575b50501b9160001990841b1c19161790555b600080553315620001c5575060088054336001600160a01b03198083168217909355604051949091167f8be0079c531659141344cd1fd0a4f28419497f9722a3daafe3b4186f6b6457e0600080a360095416176009556117d590816200040b8239f35b602490600060405191631e4fbdf760e01b8352820152fd5b01519250388062000151565b9294849081168760005284600020946000905b888383106200023657505050106200021d575b505050811b01905562000162565b015160001983861b60f8161c191690553880806200020f565b858701518855909601959485019487935090810190620001fc565b87600052816000208480880160051c82019284891062000292575b0160051c019085905b8281106200028557505062000133565b6000815501859062000275565b925081926200026c565b602289634e487b7160e01b6000525260246000fd5b90607f169062000121565b604187634e487b7160e01b6000525260246000fd5b015190503880620000ef565b90888794169160026000528a6000209260005b8c8282106200032c575050841162000312575b505050811b0160025562000104565b015160001960f88460031b161c1916905538808062000303565b8385015186558a97909501949384019301620002f0565b9091506002600052886000208580850160051c8201928b861062000390575b918891869594930160051c01915b82811062000380575050620000d8565b6000815585945088910162000370565b9250819262000362565b60228a634e487b7160e01b6000525260246000fd5b90607f1690620000c3565b604188634e487b7160e01b6000525260246000fd5b600080fd5b634e487b7160e01b600052604160045260246000fd5b60408051919082016001600160401b03811183821017620003d45760405256fe6080604052600436101561001257600080fd5b60003560e01c806301ffc9a71461015757806303d18e071461015257806306fdde031461014d578063081812fc14610148578063095ea7b31461014357806318160ddd1461013e57806323b872dd1461013957806342842e0e146101345780636352211e1461012f5780636a6278421461012a57806370a0823114610125578063715018a6146101205780638da5cb5b1461011b57806395d89b4114610116578063a22cb46514610111578063acd7cbab1461010c578063b88d4fde14610107578063c87b56dd14610102578063e985e9c5146100fd5763f2fde38b146100f857600080fd5b610a96565b610a39565b610911565b61088e565b6107d9565b61074b565b6106a7565b61067e565b610620565b6105c5565b61053b565b61050c565b6104e9565b6104d5565b61047d565b6103c6565b610346565b610266565b6101e1565b610173565b6001600160e01b031981160361016e57565b600080fd5b3461016e57602036600319011261016e5760206004356101928161015c565b63ffffffff60e01b166301ffc9a760e01b81149081156101d0575b81156101bf575b506040519015158152f35b635b5e139f60e01b149050386101b4565b6380ac58cd60e01b811491506101ad565b3461016e57600036600319011261016e576009546040516001600160a01b039091168152602090f35b60005b83811061021d5750506000910152565b818101518382015260200161020d565b906020916102468151809281855285808601910161020a565b601f01601f1916010190565b90602061026392818152019061022d565b90565b3461016e57600080600319360112610343576040518160025461028881610b4a565b8084529060019081811690811561031b57506001146102c2575b6102be846102b281880382610852565b60405191829182610252565b0390f35b60028352602094507f405787fa12a823e0f2b7631cc41b3ba8828b3321ca811111fa75cd3aa3bb5ace5b82841061030857505050816102be936102b292820101936102a2565b80548585018701529285019281016102ec565b6102be96506102b29450602092508593915060ff191682840152151560051b820101936102a2565b80fd5b3461016e57602036600319011261016e5760043561036381611399565b15610388576000526006602052602060018060a01b0360406000205416604051908152f35b6040516333d1c03960e21b8152600490fd5b600435906001600160a01b038216820361016e57565b602435906001600160a01b038216820361016e57565b604036600319011261016e576103da61039a565b6024356001600160a01b03806103ef8361132a565b169081330361044a575b600083815260066020526040812080546001600160a01b0319166001600160a01b0387161790559316907f8c5be1e5ebec7d5bd14f71427d1e84f3dd0314c0f7b2291e5b200ac8c7c3b9258480a480f35b600082815260076020908152604080832033845290915290205460ff166103f9576040516367d9dca160e11b8152600490fd5b3461016e57600036600319011261016e5760206000546001549003604051908152f35b606090600319011261016e576001600160a01b0390600435828116810361016e5791602435908116810361016e579060443590565b6104e76104e1366104a0565b916113c2565b005b6104e76104f5366104a0565b906040519261050384610832565b60008452611594565b3461016e57602036600319011261016e5760206001600160a01b0361053260043561132a565b16604051908152f35b3461016e57602036600319011261016e5761055461039a565b6009546001600160a01b03163303610580576104e79061057b6000546001549003916116f7565b610ca6565b60405162461bcd60e51b815260206004820152601f60248201527f4f6e6c7920506978656c6d617020636f6e74726163742063616e206d696e74006044820152606490fd5b3461016e57602036600319011261016e576001600160a01b036105e661039a565b16801561060e57600052600560205260206001600160401b0360406000205416604051908152f35b6040516323d3ad8160e21b8152600490fd5b3461016e576000806003193601126103435761063a610b1e565b600880546001600160a01b0319811690915581906001600160a01b03167f8be0079c531659141344cd1fd0a4f28419497f9722a3daafe3b4186f6b6457e08280a380f35b3461016e57600036600319011261016e576008546040516001600160a01b039091168152602090f35b3461016e5760008060031936011261034357604051816003546106c981610b4a565b8084529060019081811690811561031b57506001146106f2576102be846102b281880382610852565b60038352602094507fc2575a0e9e593c00f959f8c92f12db2869c3395a3b0502d05e2516446f71f85b5b82841061073857505050816102be936102b292820101936102a2565b805485850187015292850192810161071c565b3461016e57604036600319011261016e5761076461039a565b6024359081151580920361016e573360009081526007602090815260408083206001600160a01b0385168452909152902060ff1981541660ff841617905560405191825260018060a01b0316907f17307eab39ab6107e8899845ad3d59bd9653f200f220920489ca2b5937696c3160203392a3005b3461016e57602036600319011261016e576107f261039a565b6107fa610b1e565b600980546001600160a01b0319166001600160a01b0392909216919091179055005b634e487b7160e01b600052604160045260246000fd5b602081019081106001600160401b0382111761084d57604052565b61081c565b90601f801991011681019081106001600160401b0382111761084d57604052565b6001600160401b03811161084d57601f01601f191660200190565b608036600319011261016e576108a261039a565b6108aa6103b0565b606435916001600160401b03831161016e573660238401121561016e578260040135916108d683610873565b926108e46040519485610852565b808452366024828701011161016e5760208160009260246104e79801838801378501015260443591611594565b3461016e5760208060031936011261016e576004359061093082611399565b156109dd576000918252600a81526040822090604051918381549061095482610b4a565b808652926001928084169081156109b9575060011461097e575b6102be866102b2818a0382610852565b9080949650528483205b8284106109a657505050816102be936102b29282010193388061096e565b8054858501870152928501928101610988565b60ff19168787015250505050151560051b82010191506102b2816102be388061096e565b6084906040519062461bcd60e51b82526004820152602f60248201527f4552433732314d657461646174613a2055524920717565727920666f72206e6f60448201526e3732bc34b9ba32b73a103a37b5b2b760891b6064820152fd5b3461016e57604036600319011261016e57602060ff610a8a610a5961039a565b610a616103b0565b6001600160a01b0391821660009081526007865260408082209290931681526020919091522090565b54166040519015158152f35b3461016e57602036600319011261016e57610aaf61039a565b610ab7610b1e565b6001600160a01b03908116908115610b0557600880546001600160a01b031981168417909155167f8be0079c531659141344cd1fd0a4f28419497f9722a3daafe3b4186f6b6457e0600080a3005b604051631e4fbdf760e01b815260006004820152602490fd5b6008546001600160a01b03163303610b3257565b60405163118cdaa760e01b8152336004820152602490fd5b90600182811c92168015610b7a575b6020831014610b6457565b634e487b7160e01b600052602260045260246000fd5b91607f1691610b59565b90601f8111610b9257505050565b600091825260208220906020601f850160051c83019410610bce575b601f0160051c01915b828110610bc357505050565b818155600101610bb7565b9092508290610bae565b91909182516001600160401b03811161084d57610bff81610bf98454610b4a565b84610b84565b602080601f8311600114610c3b575081929394600092610c30575b50508160011b916000199060031b1c1916179055565b015190503880610c1a565b90601f19831695610c5185600052602060002090565b926000905b888210610c8e57505083600195969710610c75575b505050811b019055565b015160001960f88460031b161c19169055388080610c6b565b80600185968294968601518155019501930190610c56565b610caf81611399565b15610fc557600090808072184f03e93ff9f4daa797ed6e38ed64bf6a1f0160401b80821015610fb7575b506d04ee2d6d415b85acef810000000080831015610fa8575b50662386f26fc1000080831015610f99575b506305f5e10080831015610f8a575b5061271080831015610f7b575b506064821015610f6b575b600a80921015610f61575b600190816021610d478288016110f9565b96870101905b610f2b575b50505050610f24610f0891610f14610dcc610ed3610f2996610eba610ead610ea0610d7b611206565b610dc6610e8a610e15610dda6040519a8b99610dc6610da560208d01600190607b60f81b81520190565b74226e616d65223a2022506978656c2043616e76617360581b815260150190565b9061101f565b61088b60f21b815260020190565b7f2265787465726e616c5f75726c223a2268747470733a2f2f7777772e676f6f678152681b194b9e1e5e8bc88b60ba1b602082015260290190565b7f226465736372697074696f6e223a202243726561746564206279206120636f6d81527f756e697479206f6620617274697374732c206275696c646572732c207669736960208201527f6f6e61726965732c20696e766573746f727320616e6420646567656e732e222c604082015260600190565b691134b6b0b3b2911d101160b11b8152600a0190565b601160f91b815260010190565b607d60f81b815260010190565b0391610ece601f1993848101835282610852565b61112b565b6040517f646174613a6170706c69636174696f6e2f6a736f6e3b6261736536342c0000006020820152958691603d8301610dc6565b03908101855284610852565b600052600a602052604060002090565b610bd8565b565b600019019083906f181899199a1a9b1b9c1cb0b131b232b360811b8282061a835304918215610f5c57919082610d4d565b610d52565b9260010192610d36565b9290606460029104910192610d2b565b60049194920491019238610d20565b60089194920491019238610d13565b60109194920491019238610d04565b60209194920491019238610cf2565b604094508304915038610cd9565b60405162461bcd60e51b815260206004820152602c60248201527f4552433732314d657461646174613a2055524920736574206f66206e6f6e657860448201526b34b9ba32b73a103a37b5b2b760a11b6064820152608490fd5b906110326020928281519485920161020a565b0190565b6040519061104382610832565b60008252565b60405190606082018281106001600160401b0382111761084d57604052604082527f6768696a6b6c6d6e6f707172737475767778797a303132333435363738392b2f6040837f4142434445464748494a4b4c4d4e4f505152535455565758595a61626364656660208201520152565b634e487b7160e01b600052601160045260246000fd5b90600282018092116110dc57565b6110b8565b600281901b91906001600160fe1b038116036110dc57565b9061110382610873565b6111106040519182610852565b8281528092611121601f1991610873565b0190602036910137565b8051156111fd5761113a611049565b61115e61115961115461114d85516110ce565b6003900490565b6110e1565b6110f9565b9160208301918182518301915b8282106111ab575050506003905106806001146111985760021461118d575090565b603d90600019015390565b50603d9081600019820153600119015390565b9091936004906003809401938451600190603f9082828260121c16880101518553828282600c1c16880101518386015382828260061c168801015160028601531685010151908201530193919061116b565b50610263611036565b6009546040516356b88f4f60e11b81526000918290829060049082906001600160a01b03165afa91821561131e57809261128f575b505061026361124c6112819261112b565b6040517f646174613a696d6167652f7376672b786d6c3b6261736536342c0000000000006020820152928391603a8301610dc6565b03601f198101835282610852565b9091503d8082843e6112a18184610852565b820191602081840312611316578051906001600160401b03821161131a570182601f82011215611316578051916112d783610873565b936112e56040519586610852565b8385526020848401011161034357508261130f6102639361124c936020806112819801910161020a565b925061123b565b5080fd5b8280fd5b604051903d90823e3d90fd5b8060009081548110611349575b604051636f96cda160e11b8152600490fd5b81526004906020918083526040928383205494600160e01b86161561137057505050611337565b93929190935b851561138457505050505090565b60001901808352818552838320549550611376565b600054811090816113a8575090565b90506000526004602052600160e01b604060002054161590565b906113cc8361132a565b6001600160a01b0383811692828216849003611583576000868152600660205260409020805490926114116001600160a01b03881633908114908414171590565b1590565b611528575b821695861561151657611469936114479261150c575b506001600160a01b0316600090815260056020526040902090565b80546000190190556001600160a01b0316600090815260056020526040902090565b80546001019055600160e11b804260a01b851717611491866000526004602052604060002090565b558116156114c2575b507fddf252ad1be2c89b69c2b068fc378daa952ba7f163c4a11628f55a4df523b3ef600080a4565b600184016114da816000526004602052604060002090565b54156114e7575b5061149a565b60005481146114e157611504906000526004602052604060002090565b5538806114e1565b600090553861142c565b604051633a954ecd60e21b8152600490fd5b61156c61140d6115653361154e8b60018060a01b03166000526007602052604060002090565b9060018060a01b0316600052602052604060002090565b5460ff1690565b1561141657604051632ce44b5f60e11b8152600490fd5b60405162a1148160e81b8152600490fd5b9291906115a28282866113c2565b803b6115af575b50505050565b6115b89361164e565b156115c657388080806115a9565b6040516368d2bf6b60e11b8152600490fd5b9081602091031261016e57516102638161015c565b6001600160a01b0391821681529116602082015260408101919091526080606082018190526102639291019061022d565b3d15611649573d9061162f82610873565b9161163d6040519384610852565b82523d6000602084013e565b606090565b92602091611677936000604051809681958294630a85bd0160e11b9a8b855233600486016115ed565b03926001600160a01b03165af1600091816116c7575b506116b95761169a61161e565b805190816116b4576040516368d2bf6b60e11b8152600490fd5b602001fd5b6001600160e01b0319161490565b6116e991925060203d81116116f0575b6116e18183610852565b8101906115d8565b903861168d565b503d6116d7565b600080546001600160a01b039290921680825260056020908152604080842080546801000000000000000101905584845260049091528220600160e11b4260a01b83171790556001808401937fddf252ad1be2c89b69c2b068fc378daa952ba7f163c4a11628f55a4df523b3ef908385838180a4845b858103611790575050501561177f5755565b604051622e076360e81b8152600490fd5b8083918587858180a40161176d56fea264697066735822122060c2519a23a75bdbee0a8dc8ecc4c23df6d5ad41196ae40de315165f78774a1664736f6c63430008140033",
  "linkReferences": {},
  "deployedLinkReferences": {}
}