{"contracts/Pixelmap.sol":{"Pixelmap":{"abi":[{"inputs":[],"stateMutability":"nonpayable","type":"constructor"},{"inputs":[],"name":"ReentrancyGuardReentrantCall","type":"error"},{"anonymous":false,"inputs":[{"indexed":false,"internalType":"uint256","name":"tokenID","type":"uint256"},{"indexed":false,"internalType":"address","name":"bidder","type":"address"},{"indexed":false,"internalType":"uint256","name":"bid","type":"uint256"}],"name":"AuctionEnded","type":"event"},{"anonymous":false,"inputs":[{"indexed":false,"internalType":"uint256","name":"tokenID","type":"uint256"},{"indexed":false,"internalType":"address","name":"bidder","type":"address"},{"indexed":false,"internalType":"uint256","name":"bid","type":"uint256"}],"name":"BidPlace","type":"event"},{"anonymous":false,"inputs":[{"indexed":false,"internalType":"uint256","name":"tokenID","type":"uint256"},{"indexed":false,"internalType":"address","name":"bidder","type":"address"},{"indexed":false,"internalType":"uint256","name":"bid","type":"uint256"}],"name":"BidWithdrawn","type":"event"},{"anonymous":false,"inputs":[{"indexed":false,"internalType":"uint256","name":"cycle","type":"uint256"}],"name":"NFTMinted","type":"event"},{"anonymous":false,"inputs":[{"indexed":true,"internalType":"uint256","name":"x","type":"uint256"},{"indexed":true,"internalType":"uint256","name":"y","type":"uint256"}],"name":"PixelBought","type":"event"},{"anonymous":false,"inputs":[{"indexed":true,"internalType":"uint256","name":"x","type":"uint256"},{"indexed":true,"internalType":"uint256","name":"y","type":"uint256"}],"name":"PixelFilled","type":"event"},{"anonymous":false,"inputs":[{"indexed":true,"internalType":"uint256","name":"x","type":"uint256"},{"indexed":true,"internalType":"uint256","name":"y","type":"uint256"}],"name":"PixelValueSet","type":"event"},{"anonymous":false,"inputs":[{"indexed":true,"internalType":"uint256","name":"x","type":"uint256"},{"indexed":true,"internalType":"uint256","name":"y","type":"uint256"}],"name":"RoyaltiesPaid","type":"event"},{"anonymous":false,"inputs":[{"indexed":true,"internalType":"address","name":"owner","type":"address"}],"name":"VoteCasted","type":"event"},{"inputs":[],"name":"ARTISTIC_PERIOD","outputs":[{"internalType":"uint256","name":"","type":"uint256"}],"stateMutability":"view","type":"function"},{"inputs":[],"name":"AUCTION_DURATION","outputs":[{"internalType":"uint256","name":"","type":"uint256"}],"stateMutability":"view","type":"function"},{"inputs":[],"name":"CYCLE_PERIOD","outputs":[{"internalType":"uint256","name":"","type":"uint256"}],"stateMutability":"view","type":"function"},{"inputs":[],"name":"VOTING_PERIOD","outputs":[{"internalType":"uint256","name":"","type":"uint256"}],"stateMutability":"view","type":"function"},{"inputs":[{"internalType":"uint256","name":"","type":"uint256"},{"internalType":"address","name":"","type":"address"}],"name":"auctionClaims","outputs":[{"internalType":"uint256","name":"","type":"uint256"}],"stateMutability":"view","type":"function"},{"inputs":[{"internalType":"uint256","name":"","type":"uint256"},{"internalType":"address","name":"","type":"address"}],"name":"auctionClaimsFlag","outputs":[{"internalType":"bool","name":"","type":"bool"}],"stateMutability":"view","type":"function"},{"inputs":[{"internalType":"address","name":"","type":"address"}],"name":"balanceOf","outputs":[{"internalType":"uint256","name":"","type":"uint256"}],"stateMutability":"view","type":"function"},{"inputs":[{"internalType":"uint8[]","name":"xValues","type":"uint8[]"},{"internalType":"uint8[]","name":"yValues","type":"uint8[]"}],"name":"buyPixel","outputs":[],"stateMutability":"nonpayable","type":"function"},{"inputs":[{"internalType":"uint8","name":"x","type":"uint8"},{"internalType":"uint8","name":"y","type":"uint8"}],"name":"calculateRoyalties","outputs":[{"internalType":"uint256","name":"","type":"uint256"}],"stateMutability":"view","type":"function"},{"inputs":[],"name":"canvasCreation","outputs":[{"internalType":"uint256","name":"","type":"uint256"}],"stateMutability":"view","type":"function"},{"inputs":[{"internalType":"bool","name":"vote","type":"bool"}],"name":"castVote","outputs":[],"stateMutability":"nonpayable","type":"function"},{"inputs":[{"internalType":"uint8[]","name":"xValues","type":"uint8[]"},{"internalType":"uint8[]","name":"yValues","type":"uint8[]"}],"name":"checkMultiplePixel","outputs":[{"components":[{"internalType":"address","name":"owner","type":"address"},{"internalType":"uint8","name":"shapeID","type":"uint8"},{"internalType":"uint256","name":"price","type":"uint256"},{"internalType":"string","name":"color","type":"string"},{"internalType":"uint256","name":"royaltyLastPaid","type":"uint256"},{"internalType":"bool","name":"askedToPayRoyalties","type":"bool"},{"internalType":"uint256","name":"royaltyAskDate","type":"uint256"}],"internalType":"struct Pixelmap.Pixel[]","name":"","type":"tuple[]"}],"stateMutability":"view","type":"function"},{"inputs":[{"internalType":"uint8","name":"x","type":"uint8"},{"internalType":"uint8","name":"y","type":"uint8"}],"name":"checkPixel","outputs":[{"components":[{"internalType":"address","name":"owner","type":"address"},{"internalType":"uint8","name":"shapeID","type":"uint8"},{"internalType":"uint256","name":"price","type":"uint256"},{"internalType":"string","name":"color","type":"string"},{"internalType":"uint256","name":"royaltyLastPaid","type":"uint256"},{"internalType":"bool","name":"askedToPayRoyalties","type":"bool"},{"internalType":"uint256","name":"royaltyAskDate","type":"uint256"}],"internalType":"struct Pixelmap.Pixel","name":"","type":"tuple"}],"stateMutability":"view","type":"function"},{"inputs":[{"internalType":"uint256","name":"_cycle","type":"uint256"}],"name":"checkVoteOutcome","outputs":[],"stateMutability":"nonpayable","type":"function"},{"inputs":[{"internalType":"uint256","name":"_tokenID","type":"uint256"}],"name":"closeAuction","outputs":[],"stateMutability":"nonpayable","type":"function"},{"inputs":[{"internalType":"bytes[]","name":"_pixels","type":"bytes[]"}],"name":"fillPixel","outputs":[],"stateMutability":"nonpayable","type":"function"},{"inputs":[],"name":"generateMerkle","outputs":[{"internalType":"bytes32","name":"","type":"bytes32"}],"stateMutability":"view","type":"function"},{"inputs":[],"name":"generateSVG","outputs":[{"internalType":"string","name":"","type":"string"}],"stateMutability":"view","type":"function"},{"inputs":[{"internalType":"uint256","name":"tokenID","type":"uint256"},{"internalType":"address","name":"user","type":"address"}],"name":"getAuctionClaimFlag","outputs":[{"internalType":"bool","name":"","type":"bool"}],"stateMutability":"view","type":"function"},{"inputs":[{"internalType":"uint256","name":"tokenID","type":"uint256"},{"internalType":"address","name":"user","type":"address"}],"name":"getAuctionClaims","outputs":[{"internalType":"uint256","name":"","type":"uint256"}],"stateMutability":"view","type":"function"},{"inputs":[{"internalType":"address","name":"_owner","type":"address"}],"name":"getBalance","outputs":[{"internalType":"uint256","name":"","type":"uint256"}],"stateMutability":"view","type":"function"},{"inputs":[],"name":"getCurrentCycle","outputs":[{"internalType":"uint256","name":"","type":"uint256"}],"stateMutability":"view","type":"function"},{"inputs":[{"internalType":"uint256","name":"_tokenID","type":"uint256"}],"name":"getMintDate","outputs":[{"internalType":"uint256","name":"","type":"uint256"}],"stateMutability":"view","type":"function"},{"inputs":[{"internalType":"address","name":"_owner","type":"address"}],"name":"hasVoted","outputs":[{"internalType":"bool","name":"","type":"bool"}],"stateMutability":"view","type":"function"},{"inputs":[],"name":"isInArtisticPeriod","outputs":[{"internalType":"bool","name":"","type":"bool"}],"stateMutability":"view","type":"function"},{"inputs":[],"name":"isInVotingPeriod","outputs":[{"internalType":"bool","name":"","type":"bool"}],"stateMutability":"view","type":"function"},{"inputs":[],"name":"manager","outputs":[{"internalType":"address","name":"","type":"address"}],"stateMutability":"view","type":"function"},{"inputs":[],"name":"maxHeight","outputs":[{"internalType":"uint8","name":"","type":"uint8"}],"stateMutability":"view","type":"function"},{"inputs":[],"name":"maxWidth","outputs":[{"internalType":"uint8","name":"","type":"uint8"}],"stateMutability":"view","type":"function"},{"inputs":[{"internalType":"uint256","name":"","type":"uint256"}],"name":"mintDates","outputs":[{"internalType":"uint256","name":"","type":"uint256"}],"stateMutability":"view","type":"function"},{"inputs":[{"internalType":"uint256","name":"","type":"uint256"}],"name":"nftAuctions","outputs":[{"internalType":"address","name":"winningAddr","type":"address"},{"internalType":"uint256","name":"winningBid","type":"uint256"},{"internalType":"uint256","name":"auctionStart","type":"uint256"},{"internalType":"uint256","name":"auctionEnd","type":"uint256"},{"internalType":"bool","name":"auctionEnded","type":"bool"}],"stateMutability":"view","type":"function"},{"inputs":[],"name":"nftContract","outputs":[{"internalType":"contract CanvasCollection","name":"","type":"address"}],"stateMutability":"view","type":"function"},{"inputs":[{"internalType":"uint8[]","name":"xValues","type":"uint8[]"},{"internalType":"uint8[]","name":"yValues","type":"uint8[]"}],"name":"payRoyalties","outputs":[],"stateMutability":"nonpayable","type":"function"},{"inputs":[{"internalType":"uint256","name":"","type":"uint256"}],"name":"pixelSVGs","outputs":[{"internalType":"string","name":"","type":"string"}],"stateMutability":"view","type":"function"},{"inputs":[{"internalType":"uint256","name":"_tokenID","type":"uint256"}],"name":"placeBid","outputs":[],"stateMutability":"payable","type":"function"},{"inputs":[{"internalType":"uint256","name":"","type":"uint256"}],"name":"rowSVGs","outputs":[{"internalType":"string","name":"","type":"string"}],"stateMutability":"view","type":"function"},{"inputs":[],"name":"royaltyAskPeriod","outputs":[{"internalType":"uint256","name":"","type":"uint256"}],"stateMutability":"view","type":"function"},{"inputs":[],"name":"royaltyDenominator","outputs":[{"internalType":"uint256","name":"","type":"uint256"}],"stateMutability":"view","type":"function"},{"inputs":[],"name":"royaltyRate","outputs":[{"internalType":"uint8","name":"","type":"uint8"}],"stateMutability":"view","type":"function"},{"inputs":[{"internalType":"uint8","name":"x","type":"uint8"},{"internalType":"uint8","name":"y","type":"uint8"},{"internalType":"uint256","name":"_price","type":"uint256"}],"name":"seekRoyaltyPayment","outputs":[],"stateMutability":"nonpayable","type":"function"},{"inputs":[{"internalType":"address","name":"_nftContract","type":"address"}],"name":"setNFTContract","outputs":[],"stateMutability":"nonpayable","type":"function"},{"inputs":[{"internalType":"uint8[]","name":"xValues","type":"uint8[]"},{"internalType":"uint8[]","name":"yValues","type":"uint8[]"},{"internalType":"uint256[]","name":"priceValues","type":"uint256[]"}],"name":"setPixelValue","outputs":[],"stateMutability":"nonpayable","type":"function"},{"inputs":[{"internalType":"address","name":"_newToken","type":"address"}],"name":"updateCurrency","outputs":[],"stateMutability":"nonpayable","type":"function"},{"inputs":[{"internalType":"uint256","name":"","type":"uint256"}],"name":"voteRegister","outputs":[{"internalType":"uint256","name":"yesVotes","type":"uint256"},{"internalType":"uint256","name":"noVotes","type":"uint256"}],"stateMutability":"view","type":"function"},{"inputs":[{"internalType":"uint8","name":"","type":"uint8"},{"internalType":"uint8","name":"","type":"uint8"}],"name":"window","outputs":[{"internalType":"address","name":"owner","type":"address"},{"internalType":"uint8","name":"shapeID","type":"uint8"},{"internalType":"uint256","name":"price","type":"uint256"},{"internalType":"string","name":"color","type":"string"},{"internalType":"uint256","name":"royaltyLastPaid","type":"uint256"},{"internalType":"bool","name":"askedToPayRoyalties","type":"bool"},{"internalType":"uint256","name":"royaltyAskDate","type":"uint256"}],"stateMutability":"view","type":"function"},{"inputs":[{"internalType":"uint256","name":"_tokenID","type":"uint256"}],"name":"withdrawPixelProceeds","outputs":[],"stateMutability":"nonpayable","type":"function"}],"evm":{"bytecode":{"linkReferences":{},"object":"60808060405234620000cb5760016000556002805460ff60a01b1916601960a11b179055600480546001600160a01b031990811673c02aaa39b223fe8d0a0e5c4f27ead9083c756cc217909155906107b08082016001600160401b03811183821017620000b557829162003fab833903906000f08015620000a95760018060a01b03168160055416176005553390600254161760025542600355604051613eda9081620000d18239f35b6040513d6000823e3d90fd5b634e487b7160e01b600052604160045260246000fd5b600080fdfe6080604052600436101561001257600080fd5b6000803560e01c806302d13f02146126e65780630734d144146125dc57806309eef43e14612581578063113bc99914612563578063166db0081461251f578063236ed8f3146121ad57806330b5d6d3146121785780633123a62b1461215a5780633323a706146119035780633bdb693e14611c4857806344d6b6d214611c01578063481c6a7514611bd85780634882a7ea14611ba75780635c8c6407146119555780635e0276011461190d5780636006ecc81461190857806363aa5ce2146119085780636e70fcc6146119035780637000c3e814610b0357806370a082311461025457806374d3e777146118d45780637ace48e7146116da578063907e99591461144d57806393cde51a146113e95780639979ef4514611221578063a271e52514611204578063a52f27b514611087578063a7ccabdf1461103f578063ad711e9e14610ea8578063aeeacbeb14610df6578063b1610d7e14610dd8578063b3a1ddf414610da6578063bc5bc2fb14610d4f578063be26ed7f14610d7a578063c4323fc114610d4f578063c4d1510d14610d2b578063c4e4b90c14610cfc578063ccba361714610b78578063d56d229d14610b4f578063d7638d8014610b03578063d84cd45014610ac1578063e124590014610a7a578063ec18fb5f1461028e578063f8b2cb4f14610254578063fd8d7ed3146102375763ff188dca1461021757600080fd5b346102345780600319360112610234576020600354604051908152f35b80fd5b503461023457806003193601126102345760206040516103e88152f35b5034610234576020366003190112610234576020906040906001600160a01b0361027c612968565b16815261104983522054604051908152f35b50346102345761029d36612877565b90916102aa828214612cd2565b845b8181106102b7578580f35b6102e16102cd6102c8838589612cb4565b612cc4565b6102db6102c8848789612cb4565b9061344a565b610a3c5760ff6102f56102c8838589612cb4565b16865260086020526040862060ff6103116102c8848789612cb4565b1660005260205260018060a01b0360406000205416156000146103f55760ff61033e6102c8838589612cb4565b16865260086020526040862060ff61035a6102c8848789612cb4565b1660005260205260406000203360018060a01b031982541617905533865261104960205260408620805490600182018092116103e157556001905b6103a36102c8828589612cb4565b60ff806103b46102c885898b612cb4565b1691167fee0e9a85d097f632450e6ac08750207c8f039246ee437b10eaf708b397d00ad88980a3016102ac565b634e487b7160e01b88526011600452602488fd5b61041a6104066102c8838589612cb4565b6104146102c8848789612cb4565b9061347c565b60ff61042a6102c884868a612cb4565b16875260086020526040872060ff6104466102c885888a612cb4565b1660005260205280600160406000200154116000146108735760ff61046f6102c884868a612cb4565b16875260086020526040872060ff61048b6102c885888a612cb4565b166000526020526104a4816001604060002001546132c1565b600480546040516370a0823160e01b815233928101929092526001600160a01b0316929190602081602481875afa8a8115610827578881898d8a968e9596610833575b509560ff93604061051694866105076102c8866102c89861052c9e612cb4565b16815260086020522095612cb4565b1660005260205260016040600020015410613211565b604051636eb1769f60e11b815233600482015230602482015292602084604481845afa8a8115610827578881898d8d958b95906107d8575b6106019a509360408460ff6105c16102c88a8860209f9e9d9c986105bc869d8f886105cf9f6102c89f888f8f6105a694866105076102c8866102c8988f612cb4565b1660005260205260018a60002001541115613269565b612cb4565b16815260088b522095612cb4565b16600052835260018060a01b03604060002054168b6040518097819582946323b872dd60e01b84523360048501612d4a565b03925af19081156107cd57610650926020926107b0575b50600480546002546040516323b872dd60e01b81529586946001600160a01b039384169486948f948694939291169033908501612d4a565b03925af180156107a557610776575b5060ff6106706102c8838589612cb4565b16865260086020526040862060ff61068c6102c8848789612cb4565b1660005260205260018060a01b0360406000205416865261104980602052604087208054906000198201918211610762575533875260205260408620805490600182018092116103e1575560019060ff6106ea6102c883868a612cb4565b16875260086020526040872060ff6107066102c884888a612cb4565b16600052602052604060002033838060a01b031982541617905560ff6107306102c883868a612cb4565b16875260086020526040872060ff61074c6102c884888a612cb4565b1660005260205242600360406000200155610395565b634e487b7160e01b89526011600452602489fd5b6107979060203d60201161079e575b61078f8183612a5e565b810190612d32565b503861065f565b503d610785565b6040513d89823e3d90fd5b6107c690833d851161079e5761078f8183612a5e565b5038610618565b6040513d8a823e3d90fd5b5050505050505092906020823d60201161081f575b816107fa60209383612a5e565b8101031261081a57905161060193908890869089908d908a908e90610564565b600080fd5b3d91506107ed565b604051903d90823e3d90fd5b96505050505050506020813d60201161086b575b8161085460209383612a5e565b8101031261081a5751849088888c898d60ff6104e7565b3d9150610847565b50600480546040516370a0823160e01b815233928101929092526001600160a01b031690602081602481855afa80156107cd578890610a08575b6108de915060ff6108c26102c886888c612cb4565b16895260086020526040892060ff6105166102c8878a8c612cb4565b604051636eb1769f60e11b8152336004820152306024820152602081604481855afa90888215610827578681878b8b958995976109c8575b506102c8856020989560406106509b999660ff61093e6102c86109629c839a61094c9a612cb4565b16815260088c522095612cb4565b1660005284526001604060002001541115613269565b6002546001600160a01b03169060ff61097f6102c887898d612cb4565b168a526008835260408a2060ff61099a6102c8888b8d612cb4565b166000528352600160406000200154918a6040518096819582946323b872dd60e01b84523360048501612d4a565b96505050505050506020813d602011610a00575b816109e960209383612a5e565b8101031261081a57518583868a878b6102c8610916565b3d91506109dc565b506020813d602011610a34575b81610a2260209383612a5e565b8101031261081a576108de90516108ad565b3d9150610a15565b60405162461bcd60e51b8152602060048201526016602482015275706978656c206973206f7574206f6620626f756e647360501b6044820152606490fd5b50346102345760203660031901126102345760043590604082101561023457610abd610aa98361100901612a7f565b6040519182916020835260208301906128e4565b0390f35b503461023457604036600319011261023457610abd610aef610ae1612819565b610ae9612829565b90613367565b604051918291602083526020830190612909565b5034610234576040366003190112610234576040610b1f61297e565b9160043581526007602052209060018060a01b0316600052602052602060ff604060002054166040519015158152f35b50346102345780600319360112610234576001546040516001600160a01b039091168152602090f35b503461023457602080600319360112610cf857600435610b966135ac565b808352600782526040832033600052825260ff60406000205416610ca75780835261104c8252610be16001604085200154600684526040852033600052845260406000205490613469565b600c1c908115610c6857838080938193825260078652604082203360005286526040600020600160ff19825416179055335af1610c1c61357c565b5015610c2a57506001815580f35b6064906040519062461bcd60e51b8252600482015260176024820152764661696c656420746f2073656e642070726f636565647360481b6044820152fd5b60405162461bcd60e51b81526004810184905260176024820152764e6f2070726f636565647320746f20776974686472617760481b6044820152606490fd5b60405162461bcd60e51b8152600481018390526024808201527f616c726561647920636c61696d65642070726f636565647320666f72207468696044820152631cc8125160e21b6064820152608490fd5b5080fd5b5034610234576020366003190112610234576004359061100082101561023457610abd610aa983600901612a7f565b5034610234578060031936011261023457602060ff60025460a01c16604051908152f35b5034610234576020366003190112610234576040602091600435815261104b83522054604051908152f35b5034610234578060031936011261023457602062054600610d9d600354426132c1565b04604051908152f35b503461023457806003193601126102345760206203f48062054600610dcd600354426132c1565b061015604051908152f35b50346102345780600319360112610234576020604051620151808152f35b50346102345760403660031901126102345760ff6040610e14612819565b9282610e1e612829565b94168152600860205220911660005260205260ff60406000208054906001810154610e4b60028301612a7f565b91610e926003820154936005876004850154169301549360405197889760018060a01b038116895260a01c166020880152604087015260e0606087015260e08601906128e4565b926080850152151560a084015260c08301520390f35b5034610234578060031936011261023457604051608081018181106001600160401b0382111761102957604052605781526020907f3c7376672077696474683d2236303022206865696768743d2236303022207669828201527f6577426f783d2230203020363030203630302220786d6c6e733d22687474703a6040820152761797bbbbbb973b999737b933979918181817b9bb33911f60491b606082015291805b604060ff831610610fa5575050610f91602660405184610f7382965180928780860191016128c1565b8101651e17b9bb339f60d11b85820152036006810185520183612a5e565b610abd6040519282849384528301906128e4565b9092604084101561101557610feb8391610fdd6040519382610fd086945180928480880191016128c1565b8301018761100901613d33565b03601f198101835282612a5e565b9260ff8091169081146110015760010190610f4a565b634e487b7160e01b82526011600452602482fd5b634e487b7160e01b82526032600452602482fd5b634e487b7160e01b600052604160045260246000fd5b503461023457602036600319011261023457611059612968565b6002546001600160a01b03919061107390831633146132ce565b1660018060a01b0319600154161760015580f35b5034610234578060031936011261023457604051906202002082018281106001600160401b03821117611029576040526110008252602091828082019162020000368437835b6040811061117a575060018060a01b03600554166040519384926317046b0160e11b8452602484019085600486015251809152604484019190875b8181106111615750505082809103915afa918215610827578092611131575b5050604051908152f35b9091508282813d831161115a575b6111498183612a5e565b810103126102345750513880611127565b503d61113f565b8251845289968896509384019390920191600101611108565b90929150835b604081106111955750600101918491926110cd565b6001600160fa1b03821682036111f0576001906111b58360061b82612994565b60ff8083168852600889526040882090851660005288526111e96001600160601b031960406000205460601b169187612c8a565b5201611180565b634e487b7160e01b85526011600452602485fd5b5034610234578060031936011261023457602060405161fd208152f35b50602080600319360112610cf8576004359061123b6135ac565b81835261104c9081815261125960ff600460408720015416156134e8565b82845281815261127160026040862001544211613530565b82845281815242600360408620015411156113a95782845281815260016040852001543411156113655782845281815283808080604081206001808060a01b03825416910154905af16112c261357c565b501561132a57828452526040808320346001820181905581546001600160a01b0319163390811790925582519384526020840191909152908201527f8108a40c809d4e4f749358511f7baa90a1259a19024e438f728276ccd4c9368690606090a16001815580f35b6064906040519062461bcd60e51b8252600482015260146024820152732330b4b632b2103a379039b2b7321022ba3432b960611b6044820152fd5b6064906040519062461bcd60e51b82526004820152601b60248201527f6869676865722062696420616c7265616479206578697374696e6700000000006044820152fd5b6064906040519062461bcd60e51b825260048201526019602482015278185d58dd1a5bdb881a185cc8185b1c9958591e48195b991959603a1b6044820152fd5b503461023457602036600319011261023457604060a091600435815261104c60205220600180831b0381541690600181015490600281015460ff60046003840154930154169260405194855260208501526040840152606083015215156080820152f35b5034610234576060366003190112610234576001600160401b0390600435828111610cf857611480903690600401612847565b60249081358581116116d65761149a903690600401612847565b919060449687359081116116d2576114b6903690600401612847565b949097848414806116c9575b1561167657875b848110611582575050506114df83828488612d6c565b855b8281106114ec578680f35b6114f781868a612cb4565b359060ff8061150a6102c884888c612cb4565b16895260206008815260408a2090826115276102c8868b8a612cb4565b166000525260019283604060002001556115456102c883878b612cb4565b90806115556102c8858a89612cb4565b1691167f1c362b7fc7c4865e1e7ede89f240549bbd8b5ee43b51383c9c0392687d6d10ec8a80a3016114e1565b6115a16115936102c883888c612cb4565b6102db6102c8848a89612cb4565b6116385760ff806115b66102c884898d612cb4565b168a526020906008825260408b20906115d36102c8858b8a612cb4565b1660005281523360018060a01b0360406000205416036115f657506001016114c9565b6064907f6f6e6c79206f776e65722063616e2073657420706978656c2076616c7565000084601e876040519462461bcd60e51b86526004860152840152820152fd5b60405162461bcd60e51b815260206004820152601881850152774120706978656c206973206f7574206f6620626f756e647360401b81840152606490fd5b907f696e70757420617272617973206d757374206265206f66207468652073616d6560849260276040519362461bcd60e51b85526020600486015284015282015266040d8cadccee8d60cb1b6064820152fd5b508584146114c2565b8680fd5b8480fd5b503461023457602080600319360112610cf85760043580151581036118d05760035462054600906203f4808261171083426132c1565b061061188f573385526110498452604085205490811561183a578261173582426132c1565b04865261104a938486526002604088200133600052865260ff6040600020541661180557839190156117dc575061176e600354426132c1565b04855282845261178360408620918254612994565b90555b611792600354426132c1565b0483528152600260408320019033600052526040600020600160ff19825416179055337f7ce969a18bb6b0fba42c6d9746e7d08eeca4c661809659c91d276456e3153ac08280a280f35b6117e690426132c1565b0485528284526117fe60016040872001918254612994565b9055611786565b60405162461bcd60e51b815260048101879052600d60248201526c185b1c9958591e481d9bdd1959609a1b6044820152606490fd5b60405162461bcd60e51b815260048101869052602760248201527f6e6f20706978656c73206f776e6564203d206e6f20766f74657320746f2062656044820152660818d85cdd195960ca1b6064820152608490fd5b60405162461bcd60e51b81526004810185905260196024820152782b37ba34b7339031bab93932b73a363c903737ba1037b832b760391b6044820152606490fd5b8280fd5b50346102345760403660031901126102345760206118fb6118f3612819565b610414612829565b604051908152f35b6129a1565b6129bf565b503461023457602036600319011261023457611927612968565b6002546001600160a01b03919061194190831633146132ce565b1660018060a01b0319600454161760045580f35b503461023457602080600319360112610cf857600435906205460061197c600354426132c1565b04821015611b445781835261104a8082526119a1604085206001815491015490612994565b908115611b0f57838552825260408420549060011c106119bf578280f35b6001546001600160a01b03929084908416803b15610cf8578180916024604051809481936335313c2160e11b83523060048401525af18015611b0457611aec575b50506004927fd9dc24857f317ed9abbbb42e920ede0104231eb1d3d70236a74887ffaf159868838093604051908152a160015416604051938480926318160ddd60e01b82525afa918215611ae1578392611ab2575b506000198201918211611a9e5781835261104b815242604084205561104c9081815242600260408620015561fd204201928342116111f057845252600360408320015538808280f35b634e487b7160e01b83526011600452602483fd5b9080925081813d8311611ada575b611aca8183612a5e565b8101031261081a57519038611a55565b503d611ac0565b6040513d85823e3d90fd5b611af590612a15565b611b00578338611a00565b8380fd5b6040513d84823e3d90fd5b60405162461bcd60e51b815260048101849052600d60248201526c139bc81d9bdd195cc818d85cdd609a1b6044820152606490fd5b6084906040519062461bcd60e51b82526004820152603660248201527f636865636b20766f7465206f7574636f6d6573206f6e6c7920706f737369626c6044820152756520666f7220636f6e636c75646564206379636c657360501b6064820152fd5b503461023457806003193601126102345760206203f48062054600611bce600354426132c1565b0610604051908152f35b50346102345780600319360112610234576002546040516001600160a01b039091168152602090f35b5034610234576040366003190112610234576040611c1d61297e565b9160043581526006602052209060018060a01b03166000526020526020604060002054604051908152f35b50346102345760209081600319360112610234576001600160401b03916004358381116118d057611c7d903690600401612847565b90936203f48062054600611c93600354426132c1565b06101561210a576040519461082086018681108382111761102957604052604086526108003685880137845b838110611dcb5750505050815b60ff908181166040811015611dc757611ce59086612c8a565b51611cf4575b60010116611ccc565b604051611d0081612a43565b848152613fc08260061b16806040019081604011611db357905b808210611d585750506040821015611d445790611d3d6001928261100901612b66565b9050611ceb565b634e487b7160e01b85526032600452602485fd5b9091611000831015611d9f5785611d93611d9992610fdd6040519382611d8786945180928480880191016128c1565b83010187600901613d33565b92612b3c565b90611d1a565b634e487b7160e01b87526032600452602487fd5b634e487b7160e01b87526011600452602487fd5b8480f35b8060051b820135601e19833603018112156116d2578201803590848211612106578681019180360383136121025781018781019260809183900382136120fe57611e1490612839565b611e2060408401612839565b92611e2d60608201612839565b92810135908882116120f6570184603f820112156120fa578981013590611e5382612b4b565b95611e616040519788612a5e565b828752604083830101116120f657818c9260408d93018389013786010152611e89838261344a565b610a3c5760ff600a81841610156120b85780821693848c52600891828c5260408d209681831697886000528d52816004604060002001541661205b57868e52838d526040808f2060008a8152908f5220548e908e906001600160a01b03163314611f06575b50505050505050505050611f0190612b3c565b611cbf565b90856040928a83528181528383208c6000528152611f2b600295868660002001612b66565b8a835252206000898152908e5260409020805460ff60a01b191660a097881b60ff60a01b1617905560c0600684901b90811690613fc016810361204557870190828211612045578d8f8480809516998b8352888452604083208d6000528452604060002054901c1697611f9d90612c75565b95611fa790612c75565b968a8252825260409020908a60005252604060002001611fc690612a7f565b93169116611fd3936135cf565b9061100081101561203157611f0194939291611ff191600901612b66565b6001611ffd838c612c8a565b527fa9a418da632d42c446a125f10b007831ba0e348168b6b2474a2383ac5df4c2808980a390388080808080808d8d611eee565b634e487b7160e01b8a52603260045260248afd5b634e487b7160e01b600052601160045260246000fd5b60405162461bcd60e51b8152600481018e9052602f60248201527f6f776e6572207761732061736b656420746f20666972737420736574746c652060448201526e1c9bde585b1d1e481c185e5b595b9d608a1b6064820152608490fd5b60405162461bcd60e51b8152600481018b905260166024820152757368617065204944206e6f7420617661696c61626c6560501b6044820152606490fd5b8b80fd5b8a80fd5b8980fd5b8880fd5b8780fd5b60405162461bcd60e51b815260048101849052602260248201527f417274697374696320706572696f642063757272656e746c79206e6f74206f7060448201526132b760f11b6064820152608490fd5b50346102345761217561216c36612877565b92919091612d6c565b80f35b50346102345760203660031901126102345760408091600435815261104a602052206001815491015482519182526020820152f35b5034610234576020908160031936011261023457600435906121cd6135ac565b81815261104c9182845260ff926121ed84600460408620015416156134e8565b81835280855261220560026040852001544211613530565b81835280855242600360408520015410156124e2578183528085526040832080546001600160a01b039491908516908161242857505090604051603f8088830183612270334442859160549391835260208301526001600160601b03199060601b1660408201520190565b0393612284601f1995868101835282612a5e565b51902016916040516122ca8a820192826122be334442889160549391835260208301526001600160601b03199060601b1660408201520190565b03908101835282612a5e565b5190201691848452875260046040842001600160ff19825416179055846001541681845260088852604084208360005288528560406000205416813b156116d6578561233092869283604051809681958294632142170760e11b84523060048501612d4a565b03925af1801561241d57908491612409575b505260088652604082209060005285527fd2aa34a4fdbbc6dff6a3e56f46e0f3ae2a31d7785ff3487aa5c95c642acea501606084604060002054166040519085825288820152836040820152a15b80945b84861693604085101561240157825b86811660408110156123f057868552600884526040808620600092835285528082205484168087526110498652818720548888526006875282882091845290865291205560010186166123a2565b505093509460018591011694612393565b826001815580f35b61241290612a15565b6118d0578238612342565b6040513d86823e3d90fd5b600401600160ff19825416179055846001541690813b156118d0578461246892849283604051809681958294632142170760e11b84523060048501612d4a565b03925af18015611b04576124d3575b508281529085526040808220805460019091015482518581529186166001600160a01b03166020830152918101919091527fd2aa34a4fdbbc6dff6a3e56f46e0f3ae2a31d7785ff3487aa5c95c642acea50190606090a1612390565b6124dc90612a15565b38612477565b60405162461bcd60e51b8152600481018690526015602482015274185d58dd1a5bdb881b9bdd08195b991959081e595d605a1b6044820152606490fd5b503461023457604036600319011261023457604060209161253e61297e565b6004358252600684528282206001600160a01b03909116825283522054604051908152f35b50346102345780600319360112610234576020604051620546008152f35b50346102345760203660031901126102345760ff60406020926125a2612968565b620546006125b2600354426132c1565b04825261104a85528282206001600160a01b03909116825260020184522054604051911615158152f35b5034610234576125eb36612877565b6125f88184959414612cd2565b61260184612b25565b9361260f6040519586612a5e565b808552601f1961261e82612b25565b01865b8181106126cf575050855b8181106126915760408051602080825288518183018190528a93600582901b8401810192808c01929185015b8287106126655785850386f35b909192938280612681600193603f198a82030186528851612909565b9601920196019592919092612658565b806126b36126a56102c8600194868a612cb4565b610ae96102c884888a612cb4565b6126bd8289612c8a565b526126c88188612c8a565b500161262c565b6020906126da61332f565b82828a01015201612621565b503461023457606036600319011261023457612700612819565b60ff61270a612829565b9161272060018060a01b036002541633146132ce565b16808352600860209181835260ff60408620941693848652835260ff600460408720015416806127d9575b156127a05780855281835260408520848652835260443560016040872001558085528183526040852084865283526004604086200160ff19815416905584528152604083209183525280600560408220015580f35b80855281835260408520848652835260046040862001600160ff1982541617905584528152604083209183525242600560408320015580f35b5080855281835260408520848652835260056040862001546203f480810180911161280557421161274b565b634e487b7160e01b86526011600452602486fd5b6004359060ff8216820361081a57565b6024359060ff8216820361081a57565b359060ff8216820361081a57565b9181601f8401121561081a578235916001600160401b03831161081a576020808501948460051b01011161081a57565b604060031982011261081a576001600160401b039160043583811161081a57826128a391600401612847565b9390939260243591821161081a576128bd91600401612847565b9091565b60005b8381106128d45750506000910152565b81810151838201526020016128c4565b906020916128fd815180928185528580860191016128c1565b601f01601f1916010190565b9060018060a01b03825116815260ff60208301511660208201526040820151604082015260c080612949606085015160e0606086015260e08501906128e4565b936080810151608085015260a0810151151560a0850152015191015290565b600435906001600160a01b038216820361081a57565b602435906001600160a01b038216820361081a57565b9190820180921161204557565b3461081a57600036600319011261081a5760206040516203f4808152f35b3461081a57600036600319011261081a57602060405160408152f35b90600182811c92168015612a0b575b60208310146129f557565b634e487b7160e01b600052602260045260246000fd5b91607f16916129ea565b6001600160401b03811161102957604052565b60e081019081106001600160401b0382111761102957604052565b602081019081106001600160401b0382111761102957604052565b90601f801991011681019081106001600160401b0382111761102957604052565b9060405191826000825492612a93846129db565b908184526001948581169081600014612b025750600114612abf575b5050612abd92500383612a5e565b565b9093915060005260209081600020936000915b818310612aea575050612abd93508201013880612aaf565b85548884018501529485019487945091830191612ad2565b915050612abd94506020925060ff191682840152151560051b8201013880612aaf565b6001600160401b0381116110295760051b60200190565b60001981146120455760010190565b6001600160401b03811161102957601f01601f191660200190565b91909182516001600160401b03811161102957612b8382546129db565b601f8111612c2d575b50602080601f8311600114612bc9575081929394600092612bbe575b50508160011b916000199060031b1c1916179055565b015190503880612ba8565b90601f198316958460005282600020926000905b888210612c1557505083600195969710612bfc575b505050811b019055565b015160001960f88460031b161c19169055388080612bf2565b80600185968294968601518155019501930190612bdd565b600083815260208120601f840160051c81019260208510612c6b575b601f0160051c01915b828110612c60575050612b8c565b818155600101612c52565b9092508290612c49565b60ff60099116029060ff821691820361204557565b8051821015612c9e5760209160051b010190565b634e487b7160e01b600052603260045260246000fd5b9190811015612c9e5760051b0190565b3560ff8116810361081a5790565b15612cd957565b60405162461bcd60e51b815260206004820152602b60248201527f7820616e64207920696e7075742061727261797320617265206f66207661726960448201526a6f7573206c656e6774687360a81b6064820152608490fd5b9081602091031261081a5751801515810361081a5790565b6001600160a01b03918216815291166020820152604081019190915260600190565b919091612d7a848414612cd2565b60005b838110612d8b575050505050565b612daa612d9c6102c8838786612cb4565b6102db6102c8848988612cb4565b610a3c5760ff80612dbf6102c8848887612cb4565b166000526008602081815260408060002084612ddf6102c8888d8c612cb4565b16600052825260018060a01b03913383836000205416036131c45784612e096102c8888c8b612cb4565b166000528381528985612e246102c88986600020948d612cb4565b1660005281526003888b8b8a428588600020015403612e56575b50505050505050505050612e5190612b3c565b612d7d565b8a612e769493612e706102c883610414966102c896612cb4565b94612cb4565b600494808654169085516370a0823160e01b8152338882015260249086818381875afa90811561313857908591600091613194575b5010613143578651636eb1769f60e11b8152338982019081523060208201528790829081906040010381875afa90811561313857908591600091613108575b50106130b75750918491612f1a9360025416600088518096819582946323b872dd60e01b84528d33908501612d4a565b03925af180156130ac57968b8a8a8f8e96859b9a999896612e519e9d61308f575b5085612f4b6102c8858888612cb4565b166000528a87528860002086612f656102c886868d612cb4565b166000528752429089600020015584612f826102c8848787612cb4565b166000528986528760002085612f9c6102c885858c612cb4565b16600052865284898960002001541661300e575b5095509250925050612fc794506102c89350612cb4565b9080612fd76102c8858b8a612cb4565b1691167fe61af2269c9afbdb69efce2b15f2a464f8ee6237f105b3d4024f2e824a9f0af3600080a3903880808080888b8b8a612e3e565b898561306a6102c8858860009f9860059f8f8f8f896130789f6102c89f898f6102c892856130436102c885613054988f612cb4565b166000528652600088902096612cb4565b16600052526000200160ff198154169055612cb4565b168b528652878a2096612cb4565b16855252822001553880808781858b8a898f612fb0565b6130a590883d8a1161079e5761078f8183612a5e565b5038612f3b565b84513d6000823e3d90fd5b876027608492888a519362461bcd60e51b85528401528201527f696e73756666696369656e7420616c6c6f77616e636520746f2070617920726f60448201526679616c7469657360c81b6064820152fd5b91508782813d8311613131575b61311f8183612a5e565b81010312610234575084905138612eea565b503d613115565b88513d6000823e3d90fd5b876027608492888a519362461bcd60e51b85528401528201527f6e6f742073756666696369656e742062616c616e636520746f2070617920726f60448201526679616c7469657360c81b6064820152fd5b91508782813d83116131bd575b6131ab8183612a5e565b81010312610234575084905138612eab565b503d6131a1565b608491519062461bcd60e51b82526004820152602260248201527f6f6e6c7920706978656c206f776e65722063616e2070617920726f79616c7469604482015261657360f01b6064820152fd5b1561321857565b60405162461bcd60e51b815260206004820152602360248201527f6e6f742073756666696369656e742062616c616e636520746f206275792070696044820152621e195b60ea1b6064820152608490fd5b1561327057565b60405162461bcd60e51b815260206004820152602360248201527f696e73756666696369656e7420616c6c6f77616e636520746f206275792070696044820152621e195b60ea1b6064820152608490fd5b9190820391821161204557565b156132d557565b60405162461bcd60e51b815260206004820152602c60248201527f6f776e65722063757272656e74206d616e616765722063616e2063616c6c207460448201526b3434b990333ab731ba34b7b760a11b6064820152608490fd5b6040519061333c82612a28565b8160c06000918281528260208201528260408201526060808201528260808201528260a08201520152565b60ff9061337261332f565b5016906040918281108061343e575b1561340457600052600860205260ff8260002091166000526020526005816000208251926133ae84612a28565b81546001600160a01b038116855260a01c60ff1660208501526001820154908401526133dc60028201612a7f565b60608401526003810154608084015260ff600482015416151560a0840152015460c082015290565b825162461bcd60e51b8152602060048201526013602482015272706978656c206f7574206f6620626f756e647360681b6044820152606490fd5b508260ff831610613381565b60ff60409116109081159161345d575090565b6040915060ff16101590565b8181029291811591840414171561204557565b6134d564073df16000926001604060ff6134e4951692600090848252600860205260ff8383209116908183526020526134bb60038484200154426132c1565b948252600860205282822090825260205220015490613469565b60ff60025460a01c1690613469565b0490565b156134ef57565b60405162461bcd60e51b815260206004820152601960248201527861756374696f6e2068617320656e64656420616c726561647960381b6044820152606490fd5b1561353757565b60405162461bcd60e51b815260206004820152601b60248201527f61756374696f6e20686173206e6f7420737461727465642079657400000000006044820152606490fd5b3d156135a7573d9061358d82612b4b565b9161359b6040519384612a5e565b82523d6000602084013e565b606090565b6002600054146135bd576002600055565b604051633ee5aeb560e01b8152600490fd5b60ff9093919316918215613c775760018314613ba85760028314613b7e5760038314613b2257600492838114613ace5760058114613971576006811461391f57600781146138b857600881146137d55760091461363d575050505060405161363681612a43565b6000815290565b61364684613db6565b9061365081613db6565b600886018087116137c05761366490613db6565b94600883018093116137ab57509161378c826137a8969461369961369361368d60499997613db6565b9a613db6565b92613db6565b91604051998a97602a6136c98a602099693c7061746820643d224d60b01b8b8301528a81519485930191016128c1565b890193600160fd1b9485602a8201526136eb825180938b602b850191016128c1565b016b010209c101c101810181018960a51b602b820152613714825180938a6037850191016128c1565b0183603782015261372e82518093896038850191016128c1565b0161081360f21b603882015261374d8251809388603a850191016128c1565b0190603a8201526137678251809386603b850191016128c1565b019169102d11103334b6361e9160b11b603b84015283519384916045850191016128c1565b01631110179f60e11b6045820152036029810184520182612a5e565b90565b601190634e487b7160e01b6000525260246000fd5b601186634e487b7160e01b6000525260246000fd5b509260088101938482116138a3576137ec85613db6565b916137ff6137f983613db6565b91613db6565b94600883018093116137ab57509161378c826137a8969461382861369361368d60499997613db6565b91604051998a97602a6138588a602099693c7061746820643d224d60b01b8b8301528a81519485930191016128c1565b890193600160fd1b9485602a82015261387a825180938b602b850191016128c1565b016b010209c101c101810181018160a51b602b820152613714825180938a6037850191016128c1565b601184634e487b7160e01b6000525260246000fd5b506138c284613db6565b906138cc81613db6565b6008860180961161390a576138e086613db6565b9460088301908184116137ab5750604994926137a896949261382861369361368d61378c95613db6565b601185634e487b7160e01b6000525260246000fd5b5061392984613db6565b906008810180821161390a5761393e90613db6565b9360088601908187116137ab57509161378c604994926139616137a89795613db6565b9461382861369361368d84613db6565b509261397c81613db6565b90600885019081861161390a5761399282613db6565b906139a561399f82613db6565b97613db6565b95600882018092116137ab5750603f94926137a89694926139cb613693613ab294613db6565b91604051998a97602a6139fb8a602099693c7061746820643d224d60b01b8b8301528a81519485930191016128c1565b890193600160fd1b9485602a820152613a1d825180938b602b850191016128c1565b019161081360f21b9283602b820152613a3f825180938b602d850191016128c1565b0184602d820152613a59825180938a602e850191016128c1565b0190602e820152613a7382518093886030850191016128c1565b01906030820152613a8d82518093866031850191016128c1565b019169103d11103334b6361e9160b11b60318401528351938491603b850191016128c1565b01631110179f60e11b603b82015203601f810184520182612a5e565b50929160088301908184116137ab57613ae682613db6565b9160088601918287116137ab575091613ab2826137a896946139cb61369361399f613b1c613b16603f9b99613db6565b94613db6565b9b613db6565b9150613b2d83613db6565b92613b3783613db6565b916008820180921161204557613b4c82613db6565b94613b5f613b5986613db6565b93613db6565b9460088101809111612045576137a895603f956139cb613ab293613db6565b9150613b8983613db6565b92613b9383613db6565b916008820180831161204557613b4c90613db6565b9150916004810180911161204557613bbf90613db6565b9060048101809111612045576137a891613bda604492613db6565b936040519485926b1e31b4b931b6329031bc1e9160a11b6020850152613c0a815180926020602c880191016128c1565b830165111031bc9e9160d11b602c820152613c2f8251809360206032850191016128c1565b016d1110391e911a11103334b6361e9160911b6032820152613c5b8251809360206040850191016128c1565b01631110179f60e11b6040820152036024810184520182612a5e565b6137a89250613c8b6137f9604f9395613db6565b93604051948592681e3932b1ba103c1e9160b91b6020850152613cb88151809260206029880191016128c1565b83016411103c9e9160d91b6029820152613cdc825180936020602e850191016128c1565b017f222077696474683d223822206865696768743d2238222066696c6c3d22000000602e820152613d17825180936020604b850191016128c1565b01631110179f60e11b604b82015203602f810184520182612a5e565b600092918154613d42816129db565b92600191808316908115613d9b5750600114613d5f575b50505050565b90919293945060005260209081600020906000915b858310613d8a5750505050019038808080613d59565b805485840152918301918101613d74565b60ff1916845250505081151590910201915038808080613d59565b8015613e765780816000925b613e62575080613dd183612b4b565b92613ddf6040519485612a5e565b808452601f19613dee82612b4b565b01366020860137915b613e0057505090565b6000198201918083116120455782600a908184049382850292858404148515171561204557613e3260ff9384926132c1565b166030019182116120455785511115612c9e5760f81b6001600160f81b03191660001a908401601f015380613df7565b91613e6e600a91612b3c565b920480613dc2565b50604051604081018181106001600160401b038211176110295760405260018152600360fc1b60208201529056fea26469706673582212206053c1ed8a669095460c86e1ab3922b1b09b00d357b6b9aac97ce6c5cc60478b64736f6c634300081400336080806040523461001657610794908161001c8239f35b600080fdfe6080604052600436101561001257600080fd5b6000803560e01c9081632e08d6021461007a5750806358161a4214610075578063b861619514610070578063cf06c7b71461006b578063dd1d2599146100665763e27d51531461006157600080fd5b6103f7565b6103d6565b6103b0565b6102bb565b61020d565b346101515760203660031901126101515760043567ffffffffffffffff811161014d576100ab9036906004016101ad565b600180825111156100fc57805b6100de575b6100da6100c98361045a565b516040519081529081906020820190565b0390f35b80825111156100f7576100f18192610511565b916100b8565b6100bd565b60405162461bcd60e51b815260206004820152602360248201527f776f6e27742067656e657261746520726f6f7420666f722073696e676c65206c60448201526232b0b360e91b6064820152608490fd5b5080fd5b80fd5b634e487b7160e01b600052604160045260246000fd5b6040519190601f01601f1916820167ffffffffffffffff81118382101761019057604052565b610154565b67ffffffffffffffff81116101905760051b60200190565b9080601f83011215610208578135906101cd6101c883610195565b61016a565b9182938184526020808095019260051b820101928311610208578301905b8282106101f9575050505090565b813581529083019083016101eb565b600080fd5b346102085760603660031901126102085760243567ffffffffffffffff81116102085761023e9036906004016101ad565b60443581516000925b81841061025d5760405160043584148152602090f35b909161027660019161026f868561047d565b5190610437565b9301929190610247565b6020908160408183019282815285518094520193019160005b8281106102a7575050505090565b835185529381019392810192600101610299565b346102085760403660031901126102085760043567ffffffffffffffff8111610208576102ec9036906004016101ad565b602435906001906102ff82825111610491565b61031161030c8251610632565b6104e9565b92600080845b61032a575b604051806100da8882610280565b8351858111156103aa578584939261036f92828080981614600014610379575061035860001986018861047d565b51610363828b61047d565b525b0192841c94610511565b9392919091610317565b85830190810361039557508361038f828b61047d565b52610365565b61039f908861047d565b5161038f828b61047d565b5061031c565b346102085760203660031901126102085760206103ce600435610632565b604051908152f35b346102085760403660031901126102085760206103ce602435600435610437565b3461020857602036600319011261020857600435806000815b61042a576020925060405191806001811901161490038152f35b600192831c920182610410565b8181101561044e576000526020525b604060002090565b90600052602052610446565b8051156104675760200190565b634e487b7160e01b600052603260045260246000fd5b80518210156104675760209160051b010190565b1561049857565b60405162461bcd60e51b8152602060048201526024808201527f776f6e27742067656e65726174652070726f6f6620666f722073696e676c65206044820152633632b0b360e11b6064820152608490fd5b906104f66101c883610195565b8281528092610507601f1991610195565b0190602036910137565b90815160019081808216146000146105a9576105308282811c016104e9565b916000196105408382018761047d565b516000805260205261055a6040600020918551018561047d565b525b600019909101906000805b8382106105775750929450505050565b82600291610595610588858b61047d565b5161026f8487018c61047d565b61059f828961047d565b5201910190610567565b6105b481831c6104e9565b9161055c565b90604082018092116105c857565b634e487b7160e01b600052601160045260246000fd5b90602082018092116105c857565b90601082018092116105c857565b90600882018092116105c857565b90600482018092116105c857565b90600282018092116105c857565b90600182018092116105c857565b60018111156107585760009080600160801b81101561074d575b600290600160401b81101561073a575b640100000000811015610727575b62010000811015610714575b610100811015610701575b60108110156106ee575b60048110156106dc575b10156106cc575b806106a78119610624565b1614806106c3575b156106b75790565b6106c090610624565b90565b508015156106af565b906106d690610624565b9061069c565b6106e890821c93610616565b92610695565b6106fb9060041c93610608565b9261068b565b61070e9060081c936105fa565b92610681565b6107219060101c936105ec565b92610676565b6107349060201c936105de565b9261066a565b6107479060401c936105ba565b9261065c565b60809250821c61064c565b5060009056fea264697066735822122029596db90313b4fb257efd2fbf9ba954b5a2054bf304a0aa15f5e78439e12f4364736f6c63430008140033","opcodes":"PUSH1 0x80 DUP1 PUSH1 0x40 MSTORE CALLVALUE PUSH3 0xCB JUMPI PUSH1 0x1 PUSH1 0x0 SSTORE PUSH1 0x2 DUP1 SLOAD PUSH1 0xFF PUSH1 0xA0 SHL NOT AND PUSH1 0x19 PUSH1 0xA1 SHL OR SWAP1 SSTORE PUSH1 0x4 DUP1 SLOAD PUSH1 0x1 PUSH1 0x1 PUSH1 0xA0 SHL SUB NOT SWAP1 DUP2 AND PUSH20 0xC02AAA39B223FE8D0A0E5C4F27EAD9083C756CC2 OR SWAP1 SWAP2 SSTORE SWAP1 PUSH2 0x7B0 DUP1 DUP3 ADD PUSH1 0x1 PUSH1 0x1 PUSH1 0x40 SHL SUB DUP2 GT DUP4 DUP3 LT OR PUSH3 0xB5 JUMPI DUP3 SWAP2 PUSH3 0x3FAB DUP4 CODECOPY SUB SWAP1 PUSH1 0x0 CREATE DUP1 ISZERO PUSH3 0xA9 JUMPI PUSH1 0x1 DUP1 PUSH1 0xA0 SHL SUB AND DUP2 PUSH1 0x5 SLOAD AND OR PUSH1 0x5 SSTORE CALLER SWAP1 PUSH1 0x2 SLOAD AND OR PUSH1 0x2 SSTORE TIMESTAMP PUSH1 0x3 SSTORE PUSH1 0x40 MLOAD PUSH2 0x3EDA SWAP1 DUP2 PUSH3 0xD1 DUP3 CODECOPY RETURN JUMPDEST PUSH1 0x40 MLOAD RETURNDATASIZE PUSH1 0x0 DUP3 RETURNDATACOPY RETURNDATASIZE SWAP1 REVERT JUMPDEST PUSH4 0x4E487B71 PUSH1 0xE0 SHL PUSH1 0x0 MSTORE PUSH1 0x41 PUSH1 0x4 MSTORE PUSH1 0x24 PUSH1 0x0 REVERT JUMPDEST PUSH1 0x0 DUP1 REVERT INVALID PUSH1 0x80 PUSH1 0x40 MSTORE PUSH1 0x4 CALLDATASIZE LT ISZERO PUSH2 0x12 JUMPI PUSH1 0x0 DUP1 REVERT JUMPDEST PUSH1 0x0 DUP1 CALLDATALOAD PUSH1 0xE0 SHR DUP1 PUSH4 0x2D13F02 EQ PUSH2 0x26E6 JUMPI DUP1 PUSH4 0x734D144 EQ PUSH2 0x25DC JUMPI DUP1 PUSH4 0x9EEF43E EQ PUSH2 0x2581 JUMPI DUP1 PUSH4 0x113BC999 EQ PUSH2 0x2563 JUMPI DUP1 PUSH4 0x166DB008 EQ PUSH2 0x251F JUMPI DUP1 PUSH4 0x236ED8F3 EQ PUSH2 0x21AD JUMPI DUP1 PUSH4 0x30B5D6D3 EQ PUSH2 0x2178 JUMPI DUP1 PUSH4 0x3123A62B EQ PUSH2 0x215A JUMPI DUP1 PUSH4 0x3323A706 EQ PUSH2 0x1903 JUMPI DUP1 PUSH4 0x3BDB693E EQ PUSH2 0x1C48 JUMPI DUP1 PUSH4 0x44D6B6D2 EQ PUSH2 0x1C01 JUMPI DUP1 PUSH4 0x481C6A75 EQ PUSH2 0x1BD8 JUMPI DUP1 PUSH4 0x4882A7EA EQ PUSH2 0x1BA7 JUMPI DUP1 PUSH4 0x5C8C6407 EQ PUSH2 0x1955 JUMPI DUP1 PUSH4 0x5E027601 EQ PUSH2 0x190D JUMPI DUP1 PUSH4 0x6006ECC8 EQ PUSH2 0x1908 JUMPI DUP1 PUSH4 0x63AA5CE2 EQ PUSH2 0x1908 JUMPI DUP1 PUSH4 0x6E70FCC6 EQ PUSH2 0x1903 JUMPI DUP1 PUSH4 0x7000C3E8 EQ PUSH2 0xB03 JUMPI DUP1 PUSH4 0x70A08231 EQ PUSH2 0x254 JUMPI DUP1 PUSH4 0x74D3E777 EQ PUSH2 0x18D4 JUMPI DUP1 PUSH4 0x7ACE48E7 EQ PUSH2 0x16DA JUMPI DUP1 PUSH4 0x907E9959 EQ PUSH2 0x144D JUMPI DUP1 PUSH4 0x93CDE51A EQ PUSH2 0x13E9 JUMPI DUP1 PUSH4 0x9979EF45 EQ PUSH2 0x1221 JUMPI DUP1 PUSH4 0xA271E525 EQ PUSH2 0x1204 JUMPI DUP1 PUSH4 0xA52F27B5 EQ PUSH2 0x1087 JUMPI DUP1 PUSH4 0xA7CCABDF EQ PUSH2 0x103F JUMPI DUP1 PUSH4 0xAD711E9E EQ PUSH2 0xEA8 JUMPI DUP1 PUSH4 0xAEEACBEB EQ PUSH2 0xDF6 JUMPI DUP1 PUSH4 0xB1610D7E EQ PUSH2 0xDD8 JUMPI DUP1 PUSH4 0xB3A1DDF4 EQ PUSH2 0xDA6 JUMPI DUP1 PUSH4 0xBC5BC2FB EQ PUSH2 0xD4F JUMPI DUP1 PUSH4 0xBE26ED7F EQ PUSH2 0xD7A JUMPI DUP1 PUSH4 0xC4323FC1 EQ PUSH2 0xD4F JUMPI DUP1 PUSH4 0xC4D1510D EQ PUSH2 0xD2B JUMPI DUP1 PUSH4 0xC4E4B90C EQ PUSH2 0xCFC JUMPI DUP1 PUSH4 0xCCBA3617 EQ PUSH2 0xB78 JUMPI DUP1 PUSH4 0xD56D229D EQ PUSH2 0xB4F JUMPI DUP1 PUSH4 0xD7638D80 EQ PUSH2 0xB03 JUMPI DUP1 PUSH4 0xD84CD450 EQ PUSH2 0xAC1 JUMPI DUP1 PUSH4 0xE1245900 EQ PUSH2 0xA7A JUMPI DUP1 PUSH4 0xEC18FB5F EQ PUSH2 0x28E JUMPI DUP1 PUSH4 0xF8B2CB4F EQ PUSH2 0x254 JUMPI DUP1 PUSH4 0xFD8D7ED3 EQ PUSH2 0x237 JUMPI PUSH4 0xFF188DCA EQ PUSH2 0x217 JUMPI PUSH1 0x0 DUP1 REVERT JUMPDEST CALLVALUE PUSH2 0x234 JUMPI DUP1 PUSH1 0x3 NOT CALLDATASIZE ADD SLT PUSH2 0x234 JUMPI PUSH1 0x20 PUSH1 0x3 SLOAD PUSH1 0x40 MLOAD SWAP1 DUP2 MSTORE RETURN JUMPDEST DUP1 REVERT JUMPDEST POP CALLVALUE PUSH2 0x234 JUMPI DUP1 PUSH1 0x3 NOT CALLDATASIZE ADD SLT PUSH2 0x234 JUMPI PUSH1 0x20 PUSH1 0x40 MLOAD PUSH2 0x3E8 DUP2 MSTORE RETURN JUMPDEST POP CALLVALUE PUSH2 0x234 JUMPI PUSH1 0x20 CALLDATASIZE PUSH1 0x3 NOT ADD SLT PUSH2 0x234 JUMPI PUSH1 0x20 SWAP1 PUSH1 0x40 SWAP1 PUSH1 0x1 PUSH1 0x1 PUSH1 0xA0 SHL SUB PUSH2 0x27C PUSH2 0x2968 JUMP JUMPDEST AND DUP2 MSTORE PUSH2 0x1049 DUP4 MSTORE KECCAK256 SLOAD PUSH1 0x40 MLOAD SWAP1 DUP2 MSTORE RETURN JUMPDEST POP CALLVALUE PUSH2 0x234 JUMPI PUSH2 0x29D CALLDATASIZE PUSH2 0x2877 JUMP JUMPDEST SWAP1 SWAP2 PUSH2 0x2AA DUP3 DUP3 EQ PUSH2 0x2CD2 JUMP JUMPDEST DUP5 JUMPDEST DUP2 DUP2 LT PUSH2 0x2B7 JUMPI DUP6 DUP1 RETURN JUMPDEST PUSH2 0x2E1 PUSH2 0x2CD PUSH2 0x2C8 DUP4 DUP6 DUP10 PUSH2 0x2CB4 JUMP JUMPDEST PUSH2 0x2CC4 JUMP JUMPDEST PUSH2 0x2DB PUSH2 0x2C8 DUP5 DUP8 DUP10 PUSH2 0x2CB4 JUMP JUMPDEST SWAP1 PUSH2 0x344A JUMP JUMPDEST PUSH2 0xA3C JUMPI PUSH1 0xFF PUSH2 0x2F5 PUSH2 0x2C8 DUP4 DUP6 DUP10 PUSH2 0x2CB4 JUMP JUMPDEST AND DUP7 MSTORE PUSH1 0x8 PUSH1 0x20 MSTORE PUSH1 0x40 DUP7 KECCAK256 PUSH1 0xFF PUSH2 0x311 PUSH2 0x2C8 DUP5 DUP8 DUP10 PUSH2 0x2CB4 JUMP JUMPDEST AND PUSH1 0x0 MSTORE PUSH1 0x20 MSTORE PUSH1 0x1 DUP1 PUSH1 0xA0 SHL SUB PUSH1 0x40 PUSH1 0x0 KECCAK256 SLOAD AND ISZERO PUSH1 0x0 EQ PUSH2 0x3F5 JUMPI PUSH1 0xFF PUSH2 0x33E PUSH2 0x2C8 DUP4 DUP6 DUP10 PUSH2 0x2CB4 JUMP JUMPDEST AND DUP7 MSTORE PUSH1 0x8 PUSH1 0x20 MSTORE PUSH1 0x40 DUP7 KECCAK256 PUSH1 0xFF PUSH2 0x35A PUSH2 0x2C8 DUP5 DUP8 DUP10 PUSH2 0x2CB4 JUMP JUMPDEST AND PUSH1 0x0 MSTORE PUSH1 0x20 MSTORE PUSH1 0x40 PUSH1 0x0 KECCAK256 CALLER PUSH1 0x1 DUP1 PUSH1 0xA0 SHL SUB NOT DUP3 SLOAD AND OR SWAP1 SSTORE CALLER DUP7 MSTORE PUSH2 0x1049 PUSH1 0x20 MSTORE PUSH1 0x40 DUP7 KECCAK256 DUP1 SLOAD SWAP1 PUSH1 0x1 DUP3 ADD DUP1 SWAP3 GT PUSH2 0x3E1 JUMPI SSTORE PUSH1 0x1 SWAP1 JUMPDEST PUSH2 0x3A3 PUSH2 0x2C8 DUP3 DUP6 DUP10 PUSH2 0x2CB4 JUMP JUMPDEST PUSH1 0xFF DUP1 PUSH2 0x3B4 PUSH2 0x2C8 DUP6 DUP10 DUP12 PUSH2 0x2CB4 JUMP JUMPDEST AND SWAP2 AND PUSH32 0xEE0E9A85D097F632450E6AC08750207C8F039246EE437B10EAF708B397D00AD8 DUP10 DUP1 LOG3 ADD PUSH2 0x2AC JUMP JUMPDEST PUSH4 0x4E487B71 PUSH1 0xE0 SHL DUP9 MSTORE PUSH1 0x11 PUSH1 0x4 MSTORE PUSH1 0x24 DUP9 REVERT JUMPDEST PUSH2 0x41A PUSH2 0x406 PUSH2 0x2C8 DUP4 DUP6 DUP10 PUSH2 0x2CB4 JUMP JUMPDEST PUSH2 0x414 PUSH2 0x2C8 DUP5 DUP8 DUP10 PUSH2 0x2CB4 JUMP JUMPDEST SWAP1 PUSH2 0x347C JUMP JUMPDEST PUSH1 0xFF PUSH2 0x42A PUSH2 0x2C8 DUP5 DUP7 DUP11 PUSH2 0x2CB4 JUMP JUMPDEST AND DUP8 MSTORE PUSH1 0x8 PUSH1 0x20 MSTORE PUSH1 0x40 DUP8 KECCAK256 PUSH1 0xFF PUSH2 0x446 PUSH2 0x2C8 DUP6 DUP9 DUP11 PUSH2 0x2CB4 JUMP JUMPDEST AND PUSH1 0x0 MSTORE PUSH1 0x20 MSTORE DUP1 PUSH1 0x1 PUSH1 0x40 PUSH1 0x0 KECCAK256 ADD SLOAD GT PUSH1 0x0 EQ PUSH2 0x873 JUMPI PUSH1 0xFF PUSH2 0x46F PUSH2 0x2C8 DUP5 DUP7 DUP11 PUSH2 0x2CB4 JUMP JUMPDEST AND DUP8 MSTORE PUSH1 0x8 PUSH1 0x20 MSTORE PUSH1 0x40 DUP8 KECCAK256 PUSH1 0xFF PUSH2 0x48B PUSH2 0x2C8 DUP6 DUP9 DUP11 PUSH2 0x2CB4 JUMP JUMPDEST AND PUSH1 0x0 MSTORE PUSH1 0x20 MSTORE PUSH2 0x4A4 DUP2 PUSH1 0x1 PUSH1 0x40 PUSH1 0x0 KECCAK256 ADD SLOAD PUSH2 0x32C1 JUMP JUMPDEST PUSH1 0x4 DUP1 SLOAD PUSH1 0x40 MLOAD PUSH4 0x70A08231 PUSH1 0xE0 SHL DUP2 MSTORE CALLER SWAP3 DUP2 ADD SWAP3 SWAP1 SWAP3 MSTORE PUSH1 0x1 PUSH1 0x1 PUSH1 0xA0 SHL SUB AND SWAP3 SWAP2 SWAP1 PUSH1 0x20 DUP2 PUSH1 0x24 DUP2 DUP8 GAS STATICCALL DUP11 DUP2 ISZERO PUSH2 0x827 JUMPI DUP9 DUP2 DUP10 DUP14 DUP11 SWAP7 DUP15 SWAP6 SWAP7 PUSH2 0x833 JUMPI JUMPDEST POP SWAP6 PUSH1 0xFF SWAP4 PUSH1 0x40 PUSH2 0x516 SWAP5 DUP7 PUSH2 0x507 PUSH2 0x2C8 DUP7 PUSH2 0x2C8 SWAP9 PUSH2 0x52C SWAP15 PUSH2 0x2CB4 JUMP JUMPDEST AND DUP2 MSTORE PUSH1 0x8 PUSH1 0x20 MSTORE KECCAK256 SWAP6 PUSH2 0x2CB4 JUMP JUMPDEST AND PUSH1 0x0 MSTORE PUSH1 0x20 MSTORE PUSH1 0x1 PUSH1 0x40 PUSH1 0x0 KECCAK256 ADD SLOAD LT PUSH2 0x3211 JUMP JUMPDEST PUSH1 0x40 MLOAD PUSH4 0x6EB1769F PUSH1 0xE1 SHL DUP2 MSTORE CALLER PUSH1 0x4 DUP3 ADD MSTORE ADDRESS PUSH1 0x24 DUP3 ADD MSTORE SWAP3 PUSH1 0x20 DUP5 PUSH1 0x44 DUP2 DUP5 GAS STATICCALL DUP11 DUP2 ISZERO PUSH2 0x827 JUMPI DUP9 DUP2 DUP10 DUP14 DUP14 SWAP6 DUP12 SWAP6 SWAP1 PUSH2 0x7D8 JUMPI JUMPDEST PUSH2 0x601 SWAP11 POP SWAP4 PUSH1 0x40 DUP5 PUSH1 0xFF PUSH2 0x5C1 PUSH2 0x2C8 DUP11 DUP9 PUSH1 0x20 SWAP16 SWAP15 SWAP14 SWAP13 SWAP9 PUSH2 0x5BC DUP7 SWAP14 DUP16 DUP9 PUSH2 0x5CF SWAP16 PUSH2 0x2C8 SWAP16 DUP9 DUP16 DUP16 PUSH2 0x5A6 SWAP5 DUP7 PUSH2 0x507 PUSH2 0x2C8 DUP7 PUSH2 0x2C8 SWAP9 DUP16 PUSH2 0x2CB4 JUMP JUMPDEST AND PUSH1 0x0 MSTORE PUSH1 0x20 MSTORE PUSH1 0x1 DUP11 PUSH1 0x0 KECCAK256 ADD SLOAD GT ISZERO PUSH2 0x3269 JUMP JUMPDEST PUSH2 0x2CB4 JUMP JUMPDEST AND DUP2 MSTORE PUSH1 0x8 DUP12 MSTORE KECCAK256 SWAP6 PUSH2 0x2CB4 JUMP JUMPDEST AND PUSH1 0x0 MSTORE DUP4 MSTORE PUSH1 0x1 DUP1 PUSH1 0xA0 SHL SUB PUSH1 0x40 PUSH1 0x0 KECCAK256 SLOAD AND DUP12 PUSH1 0x40 MLOAD DUP1 SWAP8 DUP2 SWAP6 DUP3 SWAP5 PUSH4 0x23B872DD PUSH1 0xE0 SHL DUP5 MSTORE CALLER PUSH1 0x4 DUP6 ADD PUSH2 0x2D4A JUMP JUMPDEST SUB SWAP3 GAS CALL SWAP1 DUP2 ISZERO PUSH2 0x7CD JUMPI PUSH2 0x650 SWAP3 PUSH1 0x20 SWAP3 PUSH2 0x7B0 JUMPI JUMPDEST POP PUSH1 0x4 DUP1 SLOAD PUSH1 0x2 SLOAD PUSH1 0x40 MLOAD PUSH4 0x23B872DD PUSH1 0xE0 SHL DUP2 MSTORE SWAP6 DUP7 SWAP5 PUSH1 0x1 PUSH1 0x1 PUSH1 0xA0 SHL SUB SWAP4 DUP5 AND SWAP5 DUP7 SWAP5 DUP16 SWAP5 DUP7 SWAP5 SWAP4 SWAP3 SWAP2 AND SWAP1 CALLER SWAP1 DUP6 ADD PUSH2 0x2D4A JUMP JUMPDEST SUB SWAP3 GAS CALL DUP1 ISZERO PUSH2 0x7A5 JUMPI PUSH2 0x776 JUMPI JUMPDEST POP PUSH1 0xFF PUSH2 0x670 PUSH2 0x2C8 DUP4 DUP6 DUP10 PUSH2 0x2CB4 JUMP JUMPDEST AND DUP7 MSTORE PUSH1 0x8 PUSH1 0x20 MSTORE PUSH1 0x40 DUP7 KECCAK256 PUSH1 0xFF PUSH2 0x68C PUSH2 0x2C8 DUP5 DUP8 DUP10 PUSH2 0x2CB4 JUMP JUMPDEST AND PUSH1 0x0 MSTORE PUSH1 0x20 MSTORE PUSH1 0x1 DUP1 PUSH1 0xA0 SHL SUB PUSH1 0x40 PUSH1 0x0 KECCAK256 SLOAD AND DUP7 MSTORE PUSH2 0x1049 DUP1 PUSH1 0x20 MSTORE PUSH1 0x40 DUP8 KECCAK256 DUP1 SLOAD SWAP1 PUSH1 0x0 NOT DUP3 ADD SWAP2 DUP3 GT PUSH2 0x762 JUMPI SSTORE CALLER DUP8 MSTORE PUSH1 0x20 MSTORE PUSH1 0x40 DUP7 KECCAK256 DUP1 SLOAD SWAP1 PUSH1 0x1 DUP3 ADD DUP1 SWAP3 GT PUSH2 0x3E1 JUMPI SSTORE PUSH1 0x1 SWAP1 PUSH1 0xFF PUSH2 0x6EA PUSH2 0x2C8 DUP4 DUP7 DUP11 PUSH2 0x2CB4 JUMP JUMPDEST AND DUP8 MSTORE PUSH1 0x8 PUSH1 0x20 MSTORE PUSH1 0x40 DUP8 KECCAK256 PUSH1 0xFF PUSH2 0x706 PUSH2 0x2C8 DUP5 DUP9 DUP11 PUSH2 0x2CB4 JUMP JUMPDEST AND PUSH1 0x0 MSTORE PUSH1 0x20 MSTORE PUSH1 0x40 PUSH1 0x0 KECCAK256 CALLER DUP4 DUP1 PUSH1 0xA0 SHL SUB NOT DUP3 SLOAD AND OR SWAP1 SSTORE PUSH1 0xFF PUSH2 0x730 PUSH2 0x2C8 DUP4 DUP7 DUP11 PUSH2 0x2CB4 JUMP JUMPDEST AND DUP8 MSTORE PUSH1 0x8 PUSH1 0x20 MSTORE PUSH1 0x40 DUP8 KECCAK256 PUSH1 0xFF PUSH2 0x74C PUSH2 0x2C8 DUP5 DUP9 DUP11 PUSH2 0x2CB4 JUMP JUMPDEST AND PUSH1 0x0 MSTORE PUSH1 0x20 MSTORE TIMESTAMP PUSH1 0x3 PUSH1 0x40 PUSH1 0x0 KECCAK256 ADD SSTORE PUSH2 0x395 JUMP JUMPDEST PUSH4 0x4E487B71 PUSH1 0xE0 SHL DUP10 MSTORE PUSH1 0x11 PUSH1 0x4 MSTORE PUSH1 0x24 DUP10 REVERT JUMPDEST PUSH2 0x797 SWAP1 PUSH1 0x20 RETURNDATASIZE PUSH1 0x20 GT PUSH2 0x79E JUMPI JUMPDEST PUSH2 0x78F DUP2 DUP4 PUSH2 0x2A5E JUMP JUMPDEST DUP2 ADD SWAP1 PUSH2 0x2D32 JUMP JUMPDEST POP CODESIZE PUSH2 0x65F JUMP JUMPDEST POP RETURNDATASIZE PUSH2 0x785 JUMP JUMPDEST PUSH1 0x40 MLOAD RETURNDATASIZE DUP10 DUP3 RETURNDATACOPY RETURNDATASIZE SWAP1 REVERT JUMPDEST PUSH2 0x7C6 SWAP1 DUP4 RETURNDATASIZE DUP6 GT PUSH2 0x79E JUMPI PUSH2 0x78F DUP2 DUP4 PUSH2 0x2A5E JUMP JUMPDEST POP CODESIZE PUSH2 0x618 JUMP JUMPDEST PUSH1 0x40 MLOAD RETURNDATASIZE DUP11 DUP3 RETURNDATACOPY RETURNDATASIZE SWAP1 REVERT JUMPDEST POP POP POP POP POP POP POP SWAP3 SWAP1 PUSH1 0x20 DUP3 RETURNDATASIZE PUSH1 0x20 GT PUSH2 0x81F JUMPI JUMPDEST DUP2 PUSH2 0x7FA PUSH1 0x20 SWAP4 DUP4 PUSH2 0x2A5E JUMP JUMPDEST DUP2 ADD SUB SLT PUSH2 0x81A JUMPI SWAP1 MLOAD PUSH2 0x601 SWAP4 SWAP1 DUP9 SWAP1 DUP7 SWAP1 DUP10 SWAP1 DUP14 SWAP1 DUP11 SWAP1 DUP15 SWAP1 PUSH2 0x564 JUMP JUMPDEST PUSH1 0x0 DUP1 REVERT JUMPDEST RETURNDATASIZE SWAP2 POP PUSH2 0x7ED JUMP JUMPDEST PUSH1 0x40 MLOAD SWAP1 RETURNDATASIZE SWAP1 DUP3 RETURNDATACOPY RETURNDATASIZE SWAP1 REVERT JUMPDEST SWAP7 POP POP POP POP POP POP POP PUSH1 0x20 DUP2 RETURNDATASIZE PUSH1 0x20 GT PUSH2 0x86B JUMPI JUMPDEST DUP2 PUSH2 0x854 PUSH1 0x20 SWAP4 DUP4 PUSH2 0x2A5E JUMP JUMPDEST DUP2 ADD SUB SLT PUSH2 0x81A JUMPI MLOAD DUP5 SWAP1 DUP9 DUP9 DUP13 DUP10 DUP14 PUSH1 0xFF PUSH2 0x4E7 JUMP JUMPDEST RETURNDATASIZE SWAP2 POP PUSH2 0x847 JUMP JUMPDEST POP PUSH1 0x4 DUP1 SLOAD PUSH1 0x40 MLOAD PUSH4 0x70A08231 PUSH1 0xE0 SHL DUP2 MSTORE CALLER SWAP3 DUP2 ADD SWAP3 SWAP1 SWAP3 MSTORE PUSH1 0x1 PUSH1 0x1 PUSH1 0xA0 SHL SUB AND SWAP1 PUSH1 0x20 DUP2 PUSH1 0x24 DUP2 DUP6 GAS STATICCALL DUP1 ISZERO PUSH2 0x7CD JUMPI DUP9 SWAP1 PUSH2 0xA08 JUMPI JUMPDEST PUSH2 0x8DE SWAP2 POP PUSH1 0xFF PUSH2 0x8C2 PUSH2 0x2C8 DUP7 DUP9 DUP13 PUSH2 0x2CB4 JUMP JUMPDEST AND DUP10 MSTORE PUSH1 0x8 PUSH1 0x20 MSTORE PUSH1 0x40 DUP10 KECCAK256 PUSH1 0xFF PUSH2 0x516 PUSH2 0x2C8 DUP8 DUP11 DUP13 PUSH2 0x2CB4 JUMP JUMPDEST PUSH1 0x40 MLOAD PUSH4 0x6EB1769F PUSH1 0xE1 SHL DUP2 MSTORE CALLER PUSH1 0x4 DUP3 ADD MSTORE ADDRESS PUSH1 0x24 DUP3 ADD MSTORE PUSH1 0x20 DUP2 PUSH1 0x44 DUP2 DUP6 GAS STATICCALL SWAP1 DUP9 DUP3 ISZERO PUSH2 0x827 JUMPI DUP7 DUP2 DUP8 DUP12 DUP12 SWAP6 DUP10 SWAP6 SWAP8 PUSH2 0x9C8 JUMPI JUMPDEST POP PUSH2 0x2C8 DUP6 PUSH1 0x20 SWAP9 SWAP6 PUSH1 0x40 PUSH2 0x650 SWAP12 SWAP10 SWAP7 PUSH1 0xFF PUSH2 0x93E PUSH2 0x2C8 PUSH2 0x962 SWAP13 DUP4 SWAP11 PUSH2 0x94C SWAP11 PUSH2 0x2CB4 JUMP JUMPDEST AND DUP2 MSTORE PUSH1 0x8 DUP13 MSTORE KECCAK256 SWAP6 PUSH2 0x2CB4 JUMP JUMPDEST AND PUSH1 0x0 MSTORE DUP5 MSTORE PUSH1 0x1 PUSH1 0x40 PUSH1 0x0 KECCAK256 ADD SLOAD GT ISZERO PUSH2 0x3269 JUMP JUMPDEST PUSH1 0x2 SLOAD PUSH1 0x1 PUSH1 0x1 PUSH1 0xA0 SHL SUB AND SWAP1 PUSH1 0xFF PUSH2 0x97F PUSH2 0x2C8 DUP8 DUP10 DUP14 PUSH2 0x2CB4 JUMP JUMPDEST AND DUP11 MSTORE PUSH1 0x8 DUP4 MSTORE PUSH1 0x40 DUP11 KECCAK256 PUSH1 0xFF PUSH2 0x99A PUSH2 0x2C8 DUP9 DUP12 DUP14 PUSH2 0x2CB4 JUMP JUMPDEST AND PUSH1 0x0 MSTORE DUP4 MSTORE PUSH1 0x1 PUSH1 0x40 PUSH1 0x0 KECCAK256 ADD SLOAD SWAP2 DUP11 PUSH1 0x40 MLOAD DUP1 SWAP7 DUP2 SWAP6 DUP3 SWAP5 PUSH4 0x23B872DD PUSH1 0xE0 SHL DUP5 MSTORE CALLER PUSH1 0x4 DUP6 ADD PUSH2 0x2D4A JUMP JUMPDEST SWAP7 POP POP POP POP POP POP POP PUSH1 0x20 DUP2 RETURNDATASIZE PUSH1 0x20 GT PUSH2 0xA00 JUMPI JUMPDEST DUP2 PUSH2 0x9E9 PUSH1 0x20 SWAP4 DUP4 PUSH2 0x2A5E JUMP JUMPDEST DUP2 ADD SUB SLT PUSH2 0x81A JUMPI MLOAD DUP6 DUP4 DUP7 DUP11 DUP8 DUP12 PUSH2 0x2C8 PUSH2 0x916 JUMP JUMPDEST RETURNDATASIZE SWAP2 POP PUSH2 0x9DC JUMP JUMPDEST POP PUSH1 0x20 DUP2 RETURNDATASIZE PUSH1 0x20 GT PUSH2 0xA34 JUMPI JUMPDEST DUP2 PUSH2 0xA22 PUSH1 0x20 SWAP4 DUP4 PUSH2 0x2A5E JUMP JUMPDEST DUP2 ADD SUB SLT PUSH2 0x81A JUMPI PUSH2 0x8DE SWAP1 MLOAD PUSH2 0x8AD JUMP JUMPDEST RETURNDATASIZE SWAP2 POP PUSH2 0xA15 JUMP JUMPDEST PUSH1 0x40 MLOAD PUSH3 0x461BCD PUSH1 0xE5 SHL DUP2 MSTORE PUSH1 0x20 PUSH1 0x4 DUP3 ADD MSTORE PUSH1 0x16 PUSH1 0x24 DUP3 ADD MSTORE PUSH22 0x706978656C206973206F7574206F6620626F756E6473 PUSH1 0x50 SHL PUSH1 0x44 DUP3 ADD MSTORE PUSH1 0x64 SWAP1 REVERT JUMPDEST POP CALLVALUE PUSH2 0x234 JUMPI PUSH1 0x20 CALLDATASIZE PUSH1 0x3 NOT ADD SLT PUSH2 0x234 JUMPI PUSH1 0x4 CALLDATALOAD SWAP1 PUSH1 0x40 DUP3 LT ISZERO PUSH2 0x234 JUMPI PUSH2 0xABD PUSH2 0xAA9 DUP4 PUSH2 0x1009 ADD PUSH2 0x2A7F JUMP JUMPDEST PUSH1 0x40 MLOAD SWAP2 DUP3 SWAP2 PUSH1 0x20 DUP4 MSTORE PUSH1 0x20 DUP4 ADD SWAP1 PUSH2 0x28E4 JUMP JUMPDEST SUB SWAP1 RETURN JUMPDEST POP CALLVALUE PUSH2 0x234 JUMPI PUSH1 0x40 CALLDATASIZE PUSH1 0x3 NOT ADD SLT PUSH2 0x234 JUMPI PUSH2 0xABD PUSH2 0xAEF PUSH2 0xAE1 PUSH2 0x2819 JUMP JUMPDEST PUSH2 0xAE9 PUSH2 0x2829 JUMP JUMPDEST SWAP1 PUSH2 0x3367 JUMP JUMPDEST PUSH1 0x40 MLOAD SWAP2 DUP3 SWAP2 PUSH1 0x20 DUP4 MSTORE PUSH1 0x20 DUP4 ADD SWAP1 PUSH2 0x2909 JUMP JUMPDEST POP CALLVALUE PUSH2 0x234 JUMPI PUSH1 0x40 CALLDATASIZE PUSH1 0x3 NOT ADD SLT PUSH2 0x234 JUMPI PUSH1 0x40 PUSH2 0xB1F PUSH2 0x297E JUMP JUMPDEST SWAP2 PUSH1 0x4 CALLDATALOAD DUP2 MSTORE PUSH1 0x7 PUSH1 0x20 MSTORE KECCAK256 SWAP1 PUSH1 0x1 DUP1 PUSH1 0xA0 SHL SUB AND PUSH1 0x0 MSTORE PUSH1 0x20 MSTORE PUSH1 0x20 PUSH1 0xFF PUSH1 0x40 PUSH1 0x0 KECCAK256 SLOAD AND PUSH1 0x40 MLOAD SWAP1 ISZERO ISZERO DUP2 MSTORE RETURN JUMPDEST POP CALLVALUE PUSH2 0x234 JUMPI DUP1 PUSH1 0x3 NOT CALLDATASIZE ADD SLT PUSH2 0x234 JUMPI PUSH1 0x1 SLOAD PUSH1 0x40 MLOAD PUSH1 0x1 PUSH1 0x1 PUSH1 0xA0 SHL SUB SWAP1 SWAP2 AND DUP2 MSTORE PUSH1 0x20 SWAP1 RETURN JUMPDEST POP CALLVALUE PUSH2 0x234 JUMPI PUSH1 0x20 DUP1 PUSH1 0x3 NOT CALLDATASIZE ADD SLT PUSH2 0xCF8 JUMPI PUSH1 0x4 CALLDATALOAD PUSH2 0xB96 PUSH2 0x35AC JUMP JUMPDEST DUP1 DUP4 MSTORE PUSH1 0x7 DUP3 MSTORE PUSH1 0x40 DUP4 KECCAK256 CALLER PUSH1 0x0 MSTORE DUP3 MSTORE PUSH1 0xFF PUSH1 0x40 PUSH1 0x0 KECCAK256 SLOAD AND PUSH2 0xCA7 JUMPI DUP1 DUP4 MSTORE PUSH2 0x104C DUP3 MSTORE PUSH2 0xBE1 PUSH1 0x1 PUSH1 0x40 DUP6 KECCAK256 ADD SLOAD PUSH1 0x6 DUP5 MSTORE PUSH1 0x40 DUP6 KECCAK256 CALLER PUSH1 0x0 MSTORE DUP5 MSTORE PUSH1 0x40 PUSH1 0x0 KECCAK256 SLOAD SWAP1 PUSH2 0x3469 JUMP JUMPDEST PUSH1 0xC SHR SWAP1 DUP2 ISZERO PUSH2 0xC68 JUMPI DUP4 DUP1 DUP1 SWAP4 DUP2 SWAP4 DUP3 MSTORE PUSH1 0x7 DUP7 MSTORE PUSH1 0x40 DUP3 KECCAK256 CALLER PUSH1 0x0 MSTORE DUP7 MSTORE PUSH1 0x40 PUSH1 0x0 KECCAK256 PUSH1 0x1 PUSH1 0xFF NOT DUP3 SLOAD AND OR SWAP1 SSTORE CALLER GAS CALL PUSH2 0xC1C PUSH2 0x357C JUMP JUMPDEST POP ISZERO PUSH2 0xC2A JUMPI POP PUSH1 0x1 DUP2 SSTORE DUP1 RETURN JUMPDEST PUSH1 0x64 SWAP1 PUSH1 0x40 MLOAD SWAP1 PUSH3 0x461BCD PUSH1 0xE5 SHL DUP3 MSTORE PUSH1 0x4 DUP3 ADD MSTORE PUSH1 0x17 PUSH1 0x24 DUP3 ADD MSTORE PUSH23 0x4661696C656420746F2073656E642070726F6365656473 PUSH1 0x48 SHL PUSH1 0x44 DUP3 ADD MSTORE REVERT JUMPDEST PUSH1 0x40 MLOAD PUSH3 0x461BCD PUSH1 0xE5 SHL DUP2 MSTORE PUSH1 0x4 DUP2 ADD DUP5 SWAP1 MSTORE PUSH1 0x17 PUSH1 0x24 DUP3 ADD MSTORE PUSH23 0x4E6F2070726F636565647320746F207769746864726177 PUSH1 0x48 SHL PUSH1 0x44 DUP3 ADD MSTORE PUSH1 0x64 SWAP1 REVERT JUMPDEST PUSH1 0x40 MLOAD PUSH3 0x461BCD PUSH1 0xE5 SHL DUP2 MSTORE PUSH1 0x4 DUP2 ADD DUP4 SWAP1 MSTORE PUSH1 0x24 DUP1 DUP3 ADD MSTORE PUSH32 0x616C726561647920636C61696D65642070726F636565647320666F7220746869 PUSH1 0x44 DUP3 ADD MSTORE PUSH4 0x1CC81251 PUSH1 0xE2 SHL PUSH1 0x64 DUP3 ADD MSTORE PUSH1 0x84 SWAP1 REVERT JUMPDEST POP DUP1 REVERT JUMPDEST POP CALLVALUE PUSH2 0x234 JUMPI PUSH1 0x20 CALLDATASIZE PUSH1 0x3 NOT ADD SLT PUSH2 0x234 JUMPI PUSH1 0x4 CALLDATALOAD SWAP1 PUSH2 0x1000 DUP3 LT ISZERO PUSH2 0x234 JUMPI PUSH2 0xABD PUSH2 0xAA9 DUP4 PUSH1 0x9 ADD PUSH2 0x2A7F JUMP JUMPDEST POP CALLVALUE PUSH2 0x234 JUMPI DUP1 PUSH1 0x3 NOT CALLDATASIZE ADD SLT PUSH2 0x234 JUMPI PUSH1 0x20 PUSH1 0xFF PUSH1 0x2 SLOAD PUSH1 0xA0 SHR AND PUSH1 0x40 MLOAD SWAP1 DUP2 MSTORE RETURN JUMPDEST POP CALLVALUE PUSH2 0x234 JUMPI PUSH1 0x20 CALLDATASIZE PUSH1 0x3 NOT ADD SLT PUSH2 0x234 JUMPI PUSH1 0x40 PUSH1 0x20 SWAP2 PUSH1 0x4 CALLDATALOAD DUP2 MSTORE PUSH2 0x104B DUP4 MSTORE KECCAK256 SLOAD PUSH1 0x40 MLOAD SWAP1 DUP2 MSTORE RETURN JUMPDEST POP CALLVALUE PUSH2 0x234 JUMPI DUP1 PUSH1 0x3 NOT CALLDATASIZE ADD SLT PUSH2 0x234 JUMPI PUSH1 0x20 PUSH3 0x54600 PUSH2 0xD9D PUSH1 0x3 SLOAD TIMESTAMP PUSH2 0x32C1 JUMP JUMPDEST DIV PUSH1 0x40 MLOAD SWAP1 DUP2 MSTORE RETURN JUMPDEST POP CALLVALUE PUSH2 0x234 JUMPI DUP1 PUSH1 0x3 NOT CALLDATASIZE ADD SLT PUSH2 0x234 JUMPI PUSH1 0x20 PUSH3 0x3F480 PUSH3 0x54600 PUSH2 0xDCD PUSH1 0x3 SLOAD TIMESTAMP PUSH2 0x32C1 JUMP JUMPDEST MOD LT ISZERO PUSH1 0x40 MLOAD SWAP1 DUP2 MSTORE RETURN JUMPDEST POP CALLVALUE PUSH2 0x234 JUMPI DUP1 PUSH1 0x3 NOT CALLDATASIZE ADD SLT PUSH2 0x234 JUMPI PUSH1 0x20 PUSH1 0x40 MLOAD PUSH3 0x15180 DUP2 MSTORE RETURN JUMPDEST POP CALLVALUE PUSH2 0x234 JUMPI PUSH1 0x40 CALLDATASIZE PUSH1 0x3 NOT ADD SLT PUSH2 0x234 JUMPI PUSH1 0xFF PUSH1 0x40 PUSH2 0xE14 PUSH2 0x2819 JUMP JUMPDEST SWAP3 DUP3 PUSH2 0xE1E PUSH2 0x2829 JUMP JUMPDEST SWAP5 AND DUP2 MSTORE PUSH1 0x8 PUSH1 0x20 MSTORE KECCAK256 SWAP2 AND PUSH1 0x0 MSTORE PUSH1 0x20 MSTORE PUSH1 0xFF PUSH1 0x40 PUSH1 0x0 KECCAK256 DUP1 SLOAD SWAP1 PUSH1 0x1 DUP2 ADD SLOAD PUSH2 0xE4B PUSH1 0x2 DUP4 ADD PUSH2 0x2A7F JUMP JUMPDEST SWAP2 PUSH2 0xE92 PUSH1 0x3 DUP3 ADD SLOAD SWAP4 PUSH1 0x5 DUP8 PUSH1 0x4 DUP6 ADD SLOAD AND SWAP4 ADD SLOAD SWAP4 PUSH1 0x40 MLOAD SWAP8 DUP9 SWAP8 PUSH1 0x1 DUP1 PUSH1 0xA0 SHL SUB DUP2 AND DUP10 MSTORE PUSH1 0xA0 SHR AND PUSH1 0x20 DUP9 ADD MSTORE PUSH1 0x40 DUP8 ADD MSTORE PUSH1 0xE0 PUSH1 0x60 DUP8 ADD MSTORE PUSH1 0xE0 DUP7 ADD SWAP1 PUSH2 0x28E4 JUMP JUMPDEST SWAP3 PUSH1 0x80 DUP6 ADD MSTORE ISZERO ISZERO PUSH1 0xA0 DUP5 ADD MSTORE PUSH1 0xC0 DUP4 ADD MSTORE SUB SWAP1 RETURN JUMPDEST POP CALLVALUE PUSH2 0x234 JUMPI DUP1 PUSH1 0x3 NOT CALLDATASIZE ADD SLT PUSH2 0x234 JUMPI PUSH1 0x40 MLOAD PUSH1 0x80 DUP2 ADD DUP2 DUP2 LT PUSH1 0x1 PUSH1 0x1 PUSH1 0x40 SHL SUB DUP3 GT OR PUSH2 0x1029 JUMPI PUSH1 0x40 MSTORE PUSH1 0x57 DUP2 MSTORE PUSH1 0x20 SWAP1 PUSH32 0x3C7376672077696474683D2236303022206865696768743D2236303022207669 DUP3 DUP3 ADD MSTORE PUSH32 0x6577426F783D2230203020363030203630302220786D6C6E733D22687474703A PUSH1 0x40 DUP3 ADD MSTORE PUSH23 0x1797BBBBBB973B999737B933979918181817B9BB33911F PUSH1 0x49 SHL PUSH1 0x60 DUP3 ADD MSTORE SWAP2 DUP1 JUMPDEST PUSH1 0x40 PUSH1 0xFF DUP4 AND LT PUSH2 0xFA5 JUMPI POP POP PUSH2 0xF91 PUSH1 0x26 PUSH1 0x40 MLOAD DUP5 PUSH2 0xF73 DUP3 SWAP7 MLOAD DUP1 SWAP3 DUP8 DUP1 DUP7 ADD SWAP2 ADD PUSH2 0x28C1 JUMP JUMPDEST DUP2 ADD PUSH6 0x1E17B9BB339F PUSH1 0xD1 SHL DUP6 DUP3 ADD MSTORE SUB PUSH1 0x6 DUP2 ADD DUP6 MSTORE ADD DUP4 PUSH2 0x2A5E JUMP JUMPDEST PUSH2 0xABD PUSH1 0x40 MLOAD SWAP3 DUP3 DUP5 SWAP4 DUP5 MSTORE DUP4 ADD SWAP1 PUSH2 0x28E4 JUMP JUMPDEST SWAP1 SWAP3 PUSH1 0x40 DUP5 LT ISZERO PUSH2 0x1015 JUMPI PUSH2 0xFEB DUP4 SWAP2 PUSH2 0xFDD PUSH1 0x40 MLOAD SWAP4 DUP3 PUSH2 0xFD0 DUP7 SWAP5 MLOAD DUP1 SWAP3 DUP5 DUP1 DUP9 ADD SWAP2 ADD PUSH2 0x28C1 JUMP JUMPDEST DUP4 ADD ADD DUP8 PUSH2 0x1009 ADD PUSH2 0x3D33 JUMP JUMPDEST SUB PUSH1 0x1F NOT DUP2 ADD DUP4 MSTORE DUP3 PUSH2 0x2A5E JUMP JUMPDEST SWAP3 PUSH1 0xFF DUP1 SWAP2 AND SWAP1 DUP2 EQ PUSH2 0x1001 JUMPI PUSH1 0x1 ADD SWAP1 PUSH2 0xF4A JUMP JUMPDEST PUSH4 0x4E487B71 PUSH1 0xE0 SHL DUP3 MSTORE PUSH1 0x11 PUSH1 0x4 MSTORE PUSH1 0x24 DUP3 REVERT JUMPDEST PUSH4 0x4E487B71 PUSH1 0xE0 SHL DUP3 MSTORE PUSH1 0x32 PUSH1 0x4 MSTORE PUSH1 0x24 DUP3 REVERT JUMPDEST PUSH4 0x4E487B71 PUSH1 0xE0 SHL PUSH1 0x0 MSTORE PUSH1 0x41 PUSH1 0x4 MSTORE PUSH1 0x24 PUSH1 0x0 REVERT JUMPDEST POP CALLVALUE PUSH2 0x234 JUMPI PUSH1 0x20 CALLDATASIZE PUSH1 0x3 NOT ADD SLT PUSH2 0x234 JUMPI PUSH2 0x1059 PUSH2 0x2968 JUMP JUMPDEST PUSH1 0x2 SLOAD PUSH1 0x1 PUSH1 0x1 PUSH1 0xA0 SHL SUB SWAP2 SWAP1 PUSH2 0x1073 SWAP1 DUP4 AND CALLER EQ PUSH2 0x32CE JUMP JUMPDEST AND PUSH1 0x1 DUP1 PUSH1 0xA0 SHL SUB NOT PUSH1 0x1 SLOAD AND OR PUSH1 0x1 SSTORE DUP1 RETURN JUMPDEST POP CALLVALUE PUSH2 0x234 JUMPI DUP1 PUSH1 0x3 NOT CALLDATASIZE ADD SLT PUSH2 0x234 JUMPI PUSH1 0x40 MLOAD SWAP1 PUSH3 0x20020 DUP3 ADD DUP3 DUP2 LT PUSH1 0x1 PUSH1 0x1 PUSH1 0x40 SHL SUB DUP3 GT OR PUSH2 0x1029 JUMPI PUSH1 0x40 MSTORE PUSH2 0x1000 DUP3 MSTORE PUSH1 0x20 SWAP2 DUP3 DUP1 DUP3 ADD SWAP2 PUSH3 0x20000 CALLDATASIZE DUP5 CALLDATACOPY DUP4 JUMPDEST PUSH1 0x40 DUP2 LT PUSH2 0x117A JUMPI POP PUSH1 0x1 DUP1 PUSH1 0xA0 SHL SUB PUSH1 0x5 SLOAD AND PUSH1 0x40 MLOAD SWAP4 DUP5 SWAP3 PUSH4 0x17046B01 PUSH1 0xE1 SHL DUP5 MSTORE PUSH1 0x24 DUP5 ADD SWAP1 DUP6 PUSH1 0x4 DUP7 ADD MSTORE MLOAD DUP1 SWAP2 MSTORE PUSH1 0x44 DUP5 ADD SWAP2 SWAP1 DUP8 JUMPDEST DUP2 DUP2 LT PUSH2 0x1161 JUMPI POP POP POP DUP3 DUP1 SWAP2 SUB SWAP2 GAS STATICCALL SWAP2 DUP3 ISZERO PUSH2 0x827 JUMPI DUP1 SWAP3 PUSH2 0x1131 JUMPI JUMPDEST POP POP PUSH1 0x40 MLOAD SWAP1 DUP2 MSTORE RETURN JUMPDEST SWAP1 SWAP2 POP DUP3 DUP3 DUP2 RETURNDATASIZE DUP4 GT PUSH2 0x115A JUMPI JUMPDEST PUSH2 0x1149 DUP2 DUP4 PUSH2 0x2A5E JUMP JUMPDEST DUP2 ADD SUB SLT PUSH2 0x234 JUMPI POP MLOAD CODESIZE DUP1 PUSH2 0x1127 JUMP JUMPDEST POP RETURNDATASIZE PUSH2 0x113F JUMP JUMPDEST DUP3 MLOAD DUP5 MSTORE DUP10 SWAP7 DUP9 SWAP7 POP SWAP4 DUP5 ADD SWAP4 SWAP1 SWAP3 ADD SWAP2 PUSH1 0x1 ADD PUSH2 0x1108 JUMP JUMPDEST SWAP1 SWAP3 SWAP2 POP DUP4 JUMPDEST PUSH1 0x40 DUP2 LT PUSH2 0x1195 JUMPI POP PUSH1 0x1 ADD SWAP2 DUP5 SWAP2 SWAP3 PUSH2 0x10CD JUMP JUMPDEST PUSH1 0x1 PUSH1 0x1 PUSH1 0xFA SHL SUB DUP3 AND DUP3 SUB PUSH2 0x11F0 JUMPI PUSH1 0x1 SWAP1 PUSH2 0x11B5 DUP4 PUSH1 0x6 SHL DUP3 PUSH2 0x2994 JUMP JUMPDEST PUSH1 0xFF DUP1 DUP4 AND DUP9 MSTORE PUSH1 0x8 DUP10 MSTORE PUSH1 0x40 DUP9 KECCAK256 SWAP1 DUP6 AND PUSH1 0x0 MSTORE DUP9 MSTORE PUSH2 0x11E9 PUSH1 0x1 PUSH1 0x1 PUSH1 0x60 SHL SUB NOT PUSH1 0x40 PUSH1 0x0 KECCAK256 SLOAD PUSH1 0x60 SHL AND SWAP2 DUP8 PUSH2 0x2C8A JUMP JUMPDEST MSTORE ADD PUSH2 0x1180 JUMP JUMPDEST PUSH4 0x4E487B71 PUSH1 0xE0 SHL DUP6 MSTORE PUSH1 0x11 PUSH1 0x4 MSTORE PUSH1 0x24 DUP6 REVERT JUMPDEST POP CALLVALUE PUSH2 0x234 JUMPI DUP1 PUSH1 0x3 NOT CALLDATASIZE ADD SLT PUSH2 0x234 JUMPI PUSH1 0x20 PUSH1 0x40 MLOAD PUSH2 0xFD20 DUP2 MSTORE RETURN JUMPDEST POP PUSH1 0x20 DUP1 PUSH1 0x3 NOT CALLDATASIZE ADD SLT PUSH2 0xCF8 JUMPI PUSH1 0x4 CALLDATALOAD SWAP1 PUSH2 0x123B PUSH2 0x35AC JUMP JUMPDEST DUP2 DUP4 MSTORE PUSH2 0x104C SWAP1 DUP2 DUP2 MSTORE PUSH2 0x1259 PUSH1 0xFF PUSH1 0x4 PUSH1 0x40 DUP8 KECCAK256 ADD SLOAD AND ISZERO PUSH2 0x34E8 JUMP JUMPDEST DUP3 DUP5 MSTORE DUP2 DUP2 MSTORE PUSH2 0x1271 PUSH1 0x2 PUSH1 0x40 DUP7 KECCAK256 ADD SLOAD TIMESTAMP GT PUSH2 0x3530 JUMP JUMPDEST DUP3 DUP5 MSTORE DUP2 DUP2 MSTORE TIMESTAMP PUSH1 0x3 PUSH1 0x40 DUP7 KECCAK256 ADD SLOAD GT ISZERO PUSH2 0x13A9 JUMPI DUP3 DUP5 MSTORE DUP2 DUP2 MSTORE PUSH1 0x1 PUSH1 0x40 DUP6 KECCAK256 ADD SLOAD CALLVALUE GT ISZERO PUSH2 0x1365 JUMPI DUP3 DUP5 MSTORE DUP2 DUP2 MSTORE DUP4 DUP1 DUP1 DUP1 PUSH1 0x40 DUP2 KECCAK256 PUSH1 0x1 DUP1 DUP1 PUSH1 0xA0 SHL SUB DUP3 SLOAD AND SWAP2 ADD SLOAD SWAP1 GAS CALL PUSH2 0x12C2 PUSH2 0x357C JUMP JUMPDEST POP ISZERO PUSH2 0x132A JUMPI DUP3 DUP5 MSTORE MSTORE PUSH1 0x40 DUP1 DUP4 KECCAK256 CALLVALUE PUSH1 0x1 DUP3 ADD DUP2 SWAP1 SSTORE DUP2 SLOAD PUSH1 0x1 PUSH1 0x1 PUSH1 0xA0 SHL SUB NOT AND CALLER SWAP1 DUP2 OR SWAP1 SWAP3 SSTORE DUP3 MLOAD SWAP4 DUP5 MSTORE PUSH1 0x20 DUP5 ADD SWAP2 SWAP1 SWAP2 MSTORE SWAP1 DUP3 ADD MSTORE PUSH32 0x8108A40C809D4E4F749358511F7BAA90A1259A19024E438F728276CCD4C93686 SWAP1 PUSH1 0x60 SWAP1 LOG1 PUSH1 0x1 DUP2 SSTORE DUP1 RETURN JUMPDEST PUSH1 0x64 SWAP1 PUSH1 0x40 MLOAD SWAP1 PUSH3 0x461BCD PUSH1 0xE5 SHL DUP3 MSTORE PUSH1 0x4 DUP3 ADD MSTORE PUSH1 0x14 PUSH1 0x24 DUP3 ADD MSTORE PUSH20 0x2330B4B632B2103A379039B2B7321022BA3432B9 PUSH1 0x61 SHL PUSH1 0x44 DUP3 ADD MSTORE REVERT JUMPDEST PUSH1 0x64 SWAP1 PUSH1 0x40 MLOAD SWAP1 PUSH3 0x461BCD PUSH1 0xE5 SHL DUP3 MSTORE PUSH1 0x4 DUP3 ADD MSTORE PUSH1 0x1B PUSH1 0x24 DUP3 ADD MSTORE PUSH32 0x6869676865722062696420616C7265616479206578697374696E670000000000 PUSH1 0x44 DUP3 ADD MSTORE REVERT JUMPDEST PUSH1 0x64 SWAP1 PUSH1 0x40 MLOAD SWAP1 PUSH3 0x461BCD PUSH1 0xE5 SHL DUP3 MSTORE PUSH1 0x4 DUP3 ADD MSTORE PUSH1 0x19 PUSH1 0x24 DUP3 ADD MSTORE PUSH25 0x185D58DD1A5BDB881A185CC8185B1C9958591E48195B991959 PUSH1 0x3A SHL PUSH1 0x44 DUP3 ADD MSTORE REVERT JUMPDEST POP CALLVALUE PUSH2 0x234 JUMPI PUSH1 0x20 CALLDATASIZE PUSH1 0x3 NOT ADD SLT PUSH2 0x234 JUMPI PUSH1 0x40 PUSH1 0xA0 SWAP2 PUSH1 0x4 CALLDATALOAD DUP2 MSTORE PUSH2 0x104C PUSH1 0x20 MSTORE KECCAK256 PUSH1 0x1 DUP1 DUP4 SHL SUB DUP2 SLOAD AND SWAP1 PUSH1 0x1 DUP2 ADD SLOAD SWAP1 PUSH1 0x2 DUP2 ADD SLOAD PUSH1 0xFF PUSH1 0x4 PUSH1 0x3 DUP5 ADD SLOAD SWAP4 ADD SLOAD AND SWAP3 PUSH1 0x40 MLOAD SWAP5 DUP6 MSTORE PUSH1 0x20 DUP6 ADD MSTORE PUSH1 0x40 DUP5 ADD MSTORE PUSH1 0x60 DUP4 ADD MSTORE ISZERO ISZERO PUSH1 0x80 DUP3 ADD MSTORE RETURN JUMPDEST POP CALLVALUE PUSH2 0x234 JUMPI PUSH1 0x60 CALLDATASIZE PUSH1 0x3 NOT ADD SLT PUSH2 0x234 JUMPI PUSH1 0x1 PUSH1 0x1 PUSH1 0x40 SHL SUB SWAP1 PUSH1 0x4 CALLDATALOAD DUP3 DUP2 GT PUSH2 0xCF8 JUMPI PUSH2 0x1480 SWAP1 CALLDATASIZE SWAP1 PUSH1 0x4 ADD PUSH2 0x2847 JUMP JUMPDEST PUSH1 0x24 SWAP1 DUP2 CALLDATALOAD DUP6 DUP2 GT PUSH2 0x16D6 JUMPI PUSH2 0x149A SWAP1 CALLDATASIZE SWAP1 PUSH1 0x4 ADD PUSH2 0x2847 JUMP JUMPDEST SWAP2 SWAP1 PUSH1 0x44 SWAP7 DUP8 CALLDATALOAD SWAP1 DUP2 GT PUSH2 0x16D2 JUMPI PUSH2 0x14B6 SWAP1 CALLDATASIZE SWAP1 PUSH1 0x4 ADD PUSH2 0x2847 JUMP JUMPDEST SWAP5 SWAP1 SWAP8 DUP5 DUP5 EQ DUP1 PUSH2 0x16C9 JUMPI JUMPDEST ISZERO PUSH2 0x1676 JUMPI DUP8 JUMPDEST DUP5 DUP2 LT PUSH2 0x1582 JUMPI POP POP POP PUSH2 0x14DF DUP4 DUP3 DUP5 DUP9 PUSH2 0x2D6C JUMP JUMPDEST DUP6 JUMPDEST DUP3 DUP2 LT PUSH2 0x14EC JUMPI DUP7 DUP1 RETURN JUMPDEST PUSH2 0x14F7 DUP2 DUP7 DUP11 PUSH2 0x2CB4 JUMP JUMPDEST CALLDATALOAD SWAP1 PUSH1 0xFF DUP1 PUSH2 0x150A PUSH2 0x2C8 DUP5 DUP9 DUP13 PUSH2 0x2CB4 JUMP JUMPDEST AND DUP10 MSTORE PUSH1 0x20 PUSH1 0x8 DUP2 MSTORE PUSH1 0x40 DUP11 KECCAK256 SWAP1 DUP3 PUSH2 0x1527 PUSH2 0x2C8 DUP7 DUP12 DUP11 PUSH2 0x2CB4 JUMP JUMPDEST AND PUSH1 0x0 MSTORE MSTORE PUSH1 0x1 SWAP3 DUP4 PUSH1 0x40 PUSH1 0x0 KECCAK256 ADD SSTORE PUSH2 0x1545 PUSH2 0x2C8 DUP4 DUP8 DUP12 PUSH2 0x2CB4 JUMP JUMPDEST SWAP1 DUP1 PUSH2 0x1555 PUSH2 0x2C8 DUP6 DUP11 DUP10 PUSH2 0x2CB4 JUMP JUMPDEST AND SWAP2 AND PUSH32 0x1C362B7FC7C4865E1E7EDE89F240549BBD8B5EE43B51383C9C0392687D6D10EC DUP11 DUP1 LOG3 ADD PUSH2 0x14E1 JUMP JUMPDEST PUSH2 0x15A1 PUSH2 0x1593 PUSH2 0x2C8 DUP4 DUP9 DUP13 PUSH2 0x2CB4 JUMP JUMPDEST PUSH2 0x2DB PUSH2 0x2C8 DUP5 DUP11 DUP10 PUSH2 0x2CB4 JUMP JUMPDEST PUSH2 0x1638 JUMPI PUSH1 0xFF DUP1 PUSH2 0x15B6 PUSH2 0x2C8 DUP5 DUP10 DUP14 PUSH2 0x2CB4 JUMP JUMPDEST AND DUP11 MSTORE PUSH1 0x20 SWAP1 PUSH1 0x8 DUP3 MSTORE PUSH1 0x40 DUP12 KECCAK256 SWAP1 PUSH2 0x15D3 PUSH2 0x2C8 DUP6 DUP12 DUP11 PUSH2 0x2CB4 JUMP JUMPDEST AND PUSH1 0x0 MSTORE DUP2 MSTORE CALLER PUSH1 0x1 DUP1 PUSH1 0xA0 SHL SUB PUSH1 0x40 PUSH1 0x0 KECCAK256 SLOAD AND SUB PUSH2 0x15F6 JUMPI POP PUSH1 0x1 ADD PUSH2 0x14C9 JUMP JUMPDEST PUSH1 0x64 SWAP1 PUSH32 0x6F6E6C79206F776E65722063616E2073657420706978656C2076616C75650000 DUP5 PUSH1 0x1E DUP8 PUSH1 0x40 MLOAD SWAP5 PUSH3 0x461BCD PUSH1 0xE5 SHL DUP7 MSTORE PUSH1 0x4 DUP7 ADD MSTORE DUP5 ADD MSTORE DUP3 ADD MSTORE REVERT JUMPDEST PUSH1 0x40 MLOAD PUSH3 0x461BCD PUSH1 0xE5 SHL DUP2 MSTORE PUSH1 0x20 PUSH1 0x4 DUP3 ADD MSTORE PUSH1 0x18 DUP2 DUP6 ADD MSTORE PUSH24 0x4120706978656C206973206F7574206F6620626F756E6473 PUSH1 0x40 SHL DUP2 DUP5 ADD MSTORE PUSH1 0x64 SWAP1 REVERT JUMPDEST SWAP1 PUSH32 0x696E70757420617272617973206D757374206265206F66207468652073616D65 PUSH1 0x84 SWAP3 PUSH1 0x27 PUSH1 0x40 MLOAD SWAP4 PUSH3 0x461BCD PUSH1 0xE5 SHL DUP6 MSTORE PUSH1 0x20 PUSH1 0x4 DUP7 ADD MSTORE DUP5 ADD MSTORE DUP3 ADD MSTORE PUSH7 0x40D8CADCCEE8D PUSH1 0xCB SHL PUSH1 0x64 DUP3 ADD MSTORE REVERT JUMPDEST POP DUP6 DUP5 EQ PUSH2 0x14C2 JUMP JUMPDEST DUP7 DUP1 REVERT JUMPDEST DUP5 DUP1 REVERT JUMPDEST POP CALLVALUE PUSH2 0x234 JUMPI PUSH1 0x20 DUP1 PUSH1 0x3 NOT CALLDATASIZE ADD SLT PUSH2 0xCF8 JUMPI PUSH1 0x4 CALLDATALOAD DUP1 ISZERO ISZERO DUP2 SUB PUSH2 0x18D0 JUMPI PUSH1 0x3 SLOAD PUSH3 0x54600 SWAP1 PUSH3 0x3F480 DUP3 PUSH2 0x1710 DUP4 TIMESTAMP PUSH2 0x32C1 JUMP JUMPDEST MOD LT PUSH2 0x188F JUMPI CALLER DUP6 MSTORE PUSH2 0x1049 DUP5 MSTORE PUSH1 0x40 DUP6 KECCAK256 SLOAD SWAP1 DUP2 ISZERO PUSH2 0x183A JUMPI DUP3 PUSH2 0x1735 DUP3 TIMESTAMP PUSH2 0x32C1 JUMP JUMPDEST DIV DUP7 MSTORE PUSH2 0x104A SWAP4 DUP5 DUP7 MSTORE PUSH1 0x2 PUSH1 0x40 DUP9 KECCAK256 ADD CALLER PUSH1 0x0 MSTORE DUP7 MSTORE PUSH1 0xFF PUSH1 0x40 PUSH1 0x0 KECCAK256 SLOAD AND PUSH2 0x1805 JUMPI DUP4 SWAP2 SWAP1 ISZERO PUSH2 0x17DC JUMPI POP PUSH2 0x176E PUSH1 0x3 SLOAD TIMESTAMP PUSH2 0x32C1 JUMP JUMPDEST DIV DUP6 MSTORE DUP3 DUP5 MSTORE PUSH2 0x1783 PUSH1 0x40 DUP7 KECCAK256 SWAP2 DUP3 SLOAD PUSH2 0x2994 JUMP JUMPDEST SWAP1 SSTORE JUMPDEST PUSH2 0x1792 PUSH1 0x3 SLOAD TIMESTAMP PUSH2 0x32C1 JUMP JUMPDEST DIV DUP4 MSTORE DUP2 MSTORE PUSH1 0x2 PUSH1 0x40 DUP4 KECCAK256 ADD SWAP1 CALLER PUSH1 0x0 MSTORE MSTORE PUSH1 0x40 PUSH1 0x0 KECCAK256 PUSH1 0x1 PUSH1 0xFF NOT DUP3 SLOAD AND OR SWAP1 SSTORE CALLER PUSH32 0x7CE969A18BB6B0FBA42C6D9746E7D08EECA4C661809659C91D276456E3153AC0 DUP3 DUP1 LOG2 DUP1 RETURN JUMPDEST PUSH2 0x17E6 SWAP1 TIMESTAMP PUSH2 0x32C1 JUMP JUMPDEST DIV DUP6 MSTORE DUP3 DUP5 MSTORE PUSH2 0x17FE PUSH1 0x1 PUSH1 0x40 DUP8 KECCAK256 ADD SWAP2 DUP3 SLOAD PUSH2 0x2994 JUMP JUMPDEST SWAP1 SSTORE PUSH2 0x1786 JUMP JUMPDEST PUSH1 0x40 MLOAD PUSH3 0x461BCD PUSH1 0xE5 SHL DUP2 MSTORE PUSH1 0x4 DUP2 ADD DUP8 SWAP1 MSTORE PUSH1 0xD PUSH1 0x24 DUP3 ADD MSTORE PUSH13 0x185B1C9958591E481D9BDD1959 PUSH1 0x9A SHL PUSH1 0x44 DUP3 ADD MSTORE PUSH1 0x64 SWAP1 REVERT JUMPDEST PUSH1 0x40 MLOAD PUSH3 0x461BCD PUSH1 0xE5 SHL DUP2 MSTORE PUSH1 0x4 DUP2 ADD DUP7 SWAP1 MSTORE PUSH1 0x27 PUSH1 0x24 DUP3 ADD MSTORE PUSH32 0x6E6F20706978656C73206F776E6564203D206E6F20766F74657320746F206265 PUSH1 0x44 DUP3 ADD MSTORE PUSH7 0x818D85CDD1959 PUSH1 0xCA SHL PUSH1 0x64 DUP3 ADD MSTORE PUSH1 0x84 SWAP1 REVERT JUMPDEST PUSH1 0x40 MLOAD PUSH3 0x461BCD PUSH1 0xE5 SHL DUP2 MSTORE PUSH1 0x4 DUP2 ADD DUP6 SWAP1 MSTORE PUSH1 0x19 PUSH1 0x24 DUP3 ADD MSTORE PUSH25 0x2B37BA34B7339031BAB93932B73A363C903737BA1037B832B7 PUSH1 0x39 SHL PUSH1 0x44 DUP3 ADD MSTORE PUSH1 0x64 SWAP1 REVERT JUMPDEST DUP3 DUP1 REVERT JUMPDEST POP CALLVALUE PUSH2 0x234 JUMPI PUSH1 0x40 CALLDATASIZE PUSH1 0x3 NOT ADD SLT PUSH2 0x234 JUMPI PUSH1 0x20 PUSH2 0x18FB PUSH2 0x18F3 PUSH2 0x2819 JUMP JUMPDEST PUSH2 0x414 PUSH2 0x2829 JUMP JUMPDEST PUSH1 0x40 MLOAD SWAP1 DUP2 MSTORE RETURN JUMPDEST PUSH2 0x29A1 JUMP JUMPDEST PUSH2 0x29BF JUMP JUMPDEST POP CALLVALUE PUSH2 0x234 JUMPI PUSH1 0x20 CALLDATASIZE PUSH1 0x3 NOT ADD SLT PUSH2 0x234 JUMPI PUSH2 0x1927 PUSH2 0x2968 JUMP JUMPDEST PUSH1 0x2 SLOAD PUSH1 0x1 PUSH1 0x1 PUSH1 0xA0 SHL SUB SWAP2 SWAP1 PUSH2 0x1941 SWAP1 DUP4 AND CALLER EQ PUSH2 0x32CE JUMP JUMPDEST AND PUSH1 0x1 DUP1 PUSH1 0xA0 SHL SUB NOT PUSH1 0x4 SLOAD AND OR PUSH1 0x4 SSTORE DUP1 RETURN JUMPDEST POP CALLVALUE PUSH2 0x234 JUMPI PUSH1 0x20 DUP1 PUSH1 0x3 NOT CALLDATASIZE ADD SLT PUSH2 0xCF8 JUMPI PUSH1 0x4 CALLDATALOAD SWAP1 PUSH3 0x54600 PUSH2 0x197C PUSH1 0x3 SLOAD TIMESTAMP PUSH2 0x32C1 JUMP JUMPDEST DIV DUP3 LT ISZERO PUSH2 0x1B44 JUMPI DUP2 DUP4 MSTORE PUSH2 0x104A DUP1 DUP3 MSTORE PUSH2 0x19A1 PUSH1 0x40 DUP6 KECCAK256 PUSH1 0x1 DUP2 SLOAD SWAP2 ADD SLOAD SWAP1 PUSH2 0x2994 JUMP JUMPDEST SWAP1 DUP2 ISZERO PUSH2 0x1B0F JUMPI DUP4 DUP6 MSTORE DUP3 MSTORE PUSH1 0x40 DUP5 KECCAK256 SLOAD SWAP1 PUSH1 0x1 SHR LT PUSH2 0x19BF JUMPI DUP3 DUP1 RETURN JUMPDEST PUSH1 0x1 SLOAD PUSH1 0x1 PUSH1 0x1 PUSH1 0xA0 SHL SUB SWAP3 SWAP1 DUP5 SWAP1 DUP5 AND DUP1 EXTCODESIZE ISZERO PUSH2 0xCF8 JUMPI DUP2 DUP1 SWAP2 PUSH1 0x24 PUSH1 0x40 MLOAD DUP1 SWAP5 DUP2 SWAP4 PUSH4 0x35313C21 PUSH1 0xE1 SHL DUP4 MSTORE ADDRESS PUSH1 0x4 DUP5 ADD MSTORE GAS CALL DUP1 ISZERO PUSH2 0x1B04 JUMPI PUSH2 0x1AEC JUMPI JUMPDEST POP POP PUSH1 0x4 SWAP3 PUSH32 0xD9DC24857F317ED9ABBBB42E920EDE0104231EB1D3D70236A74887FFAF159868 DUP4 DUP1 SWAP4 PUSH1 0x40 MLOAD SWAP1 DUP2 MSTORE LOG1 PUSH1 0x1 SLOAD AND PUSH1 0x40 MLOAD SWAP4 DUP5 DUP1 SWAP3 PUSH4 0x18160DDD PUSH1 0xE0 SHL DUP3 MSTORE GAS STATICCALL SWAP2 DUP3 ISZERO PUSH2 0x1AE1 JUMPI DUP4 SWAP3 PUSH2 0x1AB2 JUMPI JUMPDEST POP PUSH1 0x0 NOT DUP3 ADD SWAP2 DUP3 GT PUSH2 0x1A9E JUMPI DUP2 DUP4 MSTORE PUSH2 0x104B DUP2 MSTORE TIMESTAMP PUSH1 0x40 DUP5 KECCAK256 SSTORE PUSH2 0x104C SWAP1 DUP2 DUP2 MSTORE TIMESTAMP PUSH1 0x2 PUSH1 0x40 DUP7 KECCAK256 ADD SSTORE PUSH2 0xFD20 TIMESTAMP ADD SWAP3 DUP4 TIMESTAMP GT PUSH2 0x11F0 JUMPI DUP5 MSTORE MSTORE PUSH1 0x3 PUSH1 0x40 DUP4 KECCAK256 ADD SSTORE CODESIZE DUP1 DUP3 DUP1 RETURN JUMPDEST PUSH4 0x4E487B71 PUSH1 0xE0 SHL DUP4 MSTORE PUSH1 0x11 PUSH1 0x4 MSTORE PUSH1 0x24 DUP4 REVERT JUMPDEST SWAP1 DUP1 SWAP3 POP DUP2 DUP2 RETURNDATASIZE DUP4 GT PUSH2 0x1ADA JUMPI JUMPDEST PUSH2 0x1ACA DUP2 DUP4 PUSH2 0x2A5E JUMP JUMPDEST DUP2 ADD SUB SLT PUSH2 0x81A JUMPI MLOAD SWAP1 CODESIZE PUSH2 0x1A55 JUMP JUMPDEST POP RETURNDATASIZE PUSH2 0x1AC0 JUMP JUMPDEST PUSH1 0x40 MLOAD RETURNDATASIZE DUP6 DUP3 RETURNDATACOPY RETURNDATASIZE SWAP1 REVERT JUMPDEST PUSH2 0x1AF5 SWAP1 PUSH2 0x2A15 JUMP JUMPDEST PUSH2 0x1B00 JUMPI DUP4 CODESIZE PUSH2 0x1A00 JUMP JUMPDEST DUP4 DUP1 REVERT JUMPDEST PUSH1 0x40 MLOAD RETURNDATASIZE DUP5 DUP3 RETURNDATACOPY RETURNDATASIZE SWAP1 REVERT JUMPDEST PUSH1 0x40 MLOAD PUSH3 0x461BCD PUSH1 0xE5 SHL DUP2 MSTORE PUSH1 0x4 DUP2 ADD DUP5 SWAP1 MSTORE PUSH1 0xD PUSH1 0x24 DUP3 ADD MSTORE PUSH13 0x139BC81D9BDD195CC818D85CDD PUSH1 0x9A SHL PUSH1 0x44 DUP3 ADD MSTORE PUSH1 0x64 SWAP1 REVERT JUMPDEST PUSH1 0x84 SWAP1 PUSH1 0x40 MLOAD SWAP1 PUSH3 0x461BCD PUSH1 0xE5 SHL DUP3 MSTORE PUSH1 0x4 DUP3 ADD MSTORE PUSH1 0x36 PUSH1 0x24 DUP3 ADD MSTORE PUSH32 0x636865636B20766F7465206F7574636F6D6573206F6E6C7920706F737369626C PUSH1 0x44 DUP3 ADD MSTORE PUSH22 0x6520666F7220636F6E636C75646564206379636C6573 PUSH1 0x50 SHL PUSH1 0x64 DUP3 ADD MSTORE REVERT JUMPDEST POP CALLVALUE PUSH2 0x234 JUMPI DUP1 PUSH1 0x3 NOT CALLDATASIZE ADD SLT PUSH2 0x234 JUMPI PUSH1 0x20 PUSH3 0x3F480 PUSH3 0x54600 PUSH2 0x1BCE PUSH1 0x3 SLOAD TIMESTAMP PUSH2 0x32C1 JUMP JUMPDEST MOD LT PUSH1 0x40 MLOAD SWAP1 DUP2 MSTORE RETURN JUMPDEST POP CALLVALUE PUSH2 0x234 JUMPI DUP1 PUSH1 0x3 NOT CALLDATASIZE ADD SLT PUSH2 0x234 JUMPI PUSH1 0x2 SLOAD PUSH1 0x40 MLOAD PUSH1 0x1 PUSH1 0x1 PUSH1 0xA0 SHL SUB SWAP1 SWAP2 AND DUP2 MSTORE PUSH1 0x20 SWAP1 RETURN JUMPDEST POP CALLVALUE PUSH2 0x234 JUMPI PUSH1 0x40 CALLDATASIZE PUSH1 0x3 NOT ADD SLT PUSH2 0x234 JUMPI PUSH1 0x40 PUSH2 0x1C1D PUSH2 0x297E JUMP JUMPDEST SWAP2 PUSH1 0x4 CALLDATALOAD DUP2 MSTORE PUSH1 0x6 PUSH1 0x20 MSTORE KECCAK256 SWAP1 PUSH1 0x1 DUP1 PUSH1 0xA0 SHL SUB AND PUSH1 0x0 MSTORE PUSH1 0x20 MSTORE PUSH1 0x20 PUSH1 0x40 PUSH1 0x0 KECCAK256 SLOAD PUSH1 0x40 MLOAD SWAP1 DUP2 MSTORE RETURN JUMPDEST POP CALLVALUE PUSH2 0x234 JUMPI PUSH1 0x20 SWAP1 DUP2 PUSH1 0x3 NOT CALLDATASIZE ADD SLT PUSH2 0x234 JUMPI PUSH1 0x1 PUSH1 0x1 PUSH1 0x40 SHL SUB SWAP2 PUSH1 0x4 CALLDATALOAD DUP4 DUP2 GT PUSH2 0x18D0 JUMPI PUSH2 0x1C7D SWAP1 CALLDATASIZE SWAP1 PUSH1 0x4 ADD PUSH2 0x2847 JUMP JUMPDEST SWAP1 SWAP4 PUSH3 0x3F480 PUSH3 0x54600 PUSH2 0x1C93 PUSH1 0x3 SLOAD TIMESTAMP PUSH2 0x32C1 JUMP JUMPDEST MOD LT ISZERO PUSH2 0x210A JUMPI PUSH1 0x40 MLOAD SWAP5 PUSH2 0x820 DUP7 ADD DUP7 DUP2 LT DUP4 DUP3 GT OR PUSH2 0x1029 JUMPI PUSH1 0x40 MSTORE PUSH1 0x40 DUP7 MSTORE PUSH2 0x800 CALLDATASIZE DUP6 DUP9 ADD CALLDATACOPY DUP5 JUMPDEST DUP4 DUP2 LT PUSH2 0x1DCB JUMPI POP POP POP POP DUP2 JUMPDEST PUSH1 0xFF SWAP1 DUP2 DUP2 AND PUSH1 0x40 DUP2 LT ISZERO PUSH2 0x1DC7 JUMPI PUSH2 0x1CE5 SWAP1 DUP7 PUSH2 0x2C8A JUMP JUMPDEST MLOAD PUSH2 0x1CF4 JUMPI JUMPDEST PUSH1 0x1 ADD AND PUSH2 0x1CCC JUMP JUMPDEST PUSH1 0x40 MLOAD PUSH2 0x1D00 DUP2 PUSH2 0x2A43 JUMP JUMPDEST DUP5 DUP2 MSTORE PUSH2 0x3FC0 DUP3 PUSH1 0x6 SHL AND DUP1 PUSH1 0x40 ADD SWAP1 DUP2 PUSH1 0x40 GT PUSH2 0x1DB3 JUMPI SWAP1 JUMPDEST DUP1 DUP3 LT PUSH2 0x1D58 JUMPI POP POP PUSH1 0x40 DUP3 LT ISZERO PUSH2 0x1D44 JUMPI SWAP1 PUSH2 0x1D3D PUSH1 0x1 SWAP3 DUP3 PUSH2 0x1009 ADD PUSH2 0x2B66 JUMP JUMPDEST SWAP1 POP PUSH2 0x1CEB JUMP JUMPDEST PUSH4 0x4E487B71 PUSH1 0xE0 SHL DUP6 MSTORE PUSH1 0x32 PUSH1 0x4 MSTORE PUSH1 0x24 DUP6 REVERT JUMPDEST SWAP1 SWAP2 PUSH2 0x1000 DUP4 LT ISZERO PUSH2 0x1D9F JUMPI DUP6 PUSH2 0x1D93 PUSH2 0x1D99 SWAP3 PUSH2 0xFDD PUSH1 0x40 MLOAD SWAP4 DUP3 PUSH2 0x1D87 DUP7 SWAP5 MLOAD DUP1 SWAP3 DUP5 DUP1 DUP9 ADD SWAP2 ADD PUSH2 0x28C1 JUMP JUMPDEST DUP4 ADD ADD DUP8 PUSH1 0x9 ADD PUSH2 0x3D33 JUMP JUMPDEST SWAP3 PUSH2 0x2B3C JUMP JUMPDEST SWAP1 PUSH2 0x1D1A JUMP JUMPDEST PUSH4 0x4E487B71 PUSH1 0xE0 SHL DUP8 MSTORE PUSH1 0x32 PUSH1 0x4 MSTORE PUSH1 0x24 DUP8 REVERT JUMPDEST PUSH4 0x4E487B71 PUSH1 0xE0 SHL DUP8 MSTORE PUSH1 0x11 PUSH1 0x4 MSTORE PUSH1 0x24 DUP8 REVERT JUMPDEST DUP5 DUP1 RETURN JUMPDEST DUP1 PUSH1 0x5 SHL DUP3 ADD CALLDATALOAD PUSH1 0x1E NOT DUP4 CALLDATASIZE SUB ADD DUP2 SLT ISZERO PUSH2 0x16D2 JUMPI DUP3 ADD DUP1 CALLDATALOAD SWAP1 DUP5 DUP3 GT PUSH2 0x2106 JUMPI DUP7 DUP2 ADD SWAP2 DUP1 CALLDATASIZE SUB DUP4 SGT PUSH2 0x2102 JUMPI DUP2 ADD DUP8 DUP2 ADD SWAP3 PUSH1 0x80 SWAP2 DUP4 SWAP1 SUB DUP3 SGT PUSH2 0x20FE JUMPI PUSH2 0x1E14 SWAP1 PUSH2 0x2839 JUMP JUMPDEST PUSH2 0x1E20 PUSH1 0x40 DUP5 ADD PUSH2 0x2839 JUMP JUMPDEST SWAP3 PUSH2 0x1E2D PUSH1 0x60 DUP3 ADD PUSH2 0x2839 JUMP JUMPDEST SWAP3 DUP2 ADD CALLDATALOAD SWAP1 DUP9 DUP3 GT PUSH2 0x20F6 JUMPI ADD DUP5 PUSH1 0x3F DUP3 ADD SLT ISZERO PUSH2 0x20FA JUMPI DUP10 DUP2 ADD CALLDATALOAD SWAP1 PUSH2 0x1E53 DUP3 PUSH2 0x2B4B JUMP JUMPDEST SWAP6 PUSH2 0x1E61 PUSH1 0x40 MLOAD SWAP8 DUP9 PUSH2 0x2A5E JUMP JUMPDEST DUP3 DUP8 MSTORE PUSH1 0x40 DUP4 DUP4 ADD ADD GT PUSH2 0x20F6 JUMPI DUP2 DUP13 SWAP3 PUSH1 0x40 DUP14 SWAP4 ADD DUP4 DUP10 ADD CALLDATACOPY DUP7 ADD ADD MSTORE PUSH2 0x1E89 DUP4 DUP3 PUSH2 0x344A JUMP JUMPDEST PUSH2 0xA3C JUMPI PUSH1 0xFF PUSH1 0xA DUP2 DUP5 AND LT ISZERO PUSH2 0x20B8 JUMPI DUP1 DUP3 AND SWAP4 DUP5 DUP13 MSTORE PUSH1 0x8 SWAP2 DUP3 DUP13 MSTORE PUSH1 0x40 DUP14 KECCAK256 SWAP7 DUP2 DUP4 AND SWAP8 DUP9 PUSH1 0x0 MSTORE DUP14 MSTORE DUP2 PUSH1 0x4 PUSH1 0x40 PUSH1 0x0 KECCAK256 ADD SLOAD AND PUSH2 0x205B JUMPI DUP7 DUP15 MSTORE DUP4 DUP14 MSTORE PUSH1 0x40 DUP1 DUP16 KECCAK256 PUSH1 0x0 DUP11 DUP2 MSTORE SWAP1 DUP16 MSTORE KECCAK256 SLOAD DUP15 SWAP1 DUP15 SWAP1 PUSH1 0x1 PUSH1 0x1 PUSH1 0xA0 SHL SUB AND CALLER EQ PUSH2 0x1F06 JUMPI JUMPDEST POP POP POP POP POP POP POP POP POP POP PUSH2 0x1F01 SWAP1 PUSH2 0x2B3C JUMP JUMPDEST PUSH2 0x1CBF JUMP JUMPDEST SWAP1 DUP6 PUSH1 0x40 SWAP3 DUP11 DUP4 MSTORE DUP2 DUP2 MSTORE DUP4 DUP4 KECCAK256 DUP13 PUSH1 0x0 MSTORE DUP2 MSTORE PUSH2 0x1F2B PUSH1 0x2 SWAP6 DUP7 DUP7 PUSH1 0x0 KECCAK256 ADD PUSH2 0x2B66 JUMP JUMPDEST DUP11 DUP4 MSTORE MSTORE KECCAK256 PUSH1 0x0 DUP10 DUP2 MSTORE SWAP1 DUP15 MSTORE PUSH1 0x40 SWAP1 KECCAK256 DUP1 SLOAD PUSH1 0xFF PUSH1 0xA0 SHL NOT AND PUSH1 0xA0 SWAP8 DUP9 SHL PUSH1 0xFF PUSH1 0xA0 SHL AND OR SWAP1 SSTORE PUSH1 0xC0 PUSH1 0x6 DUP5 SWAP1 SHL SWAP1 DUP2 AND SWAP1 PUSH2 0x3FC0 AND DUP2 SUB PUSH2 0x2045 JUMPI DUP8 ADD SWAP1 DUP3 DUP3 GT PUSH2 0x2045 JUMPI DUP14 DUP16 DUP5 DUP1 DUP1 SWAP6 AND SWAP10 DUP12 DUP4 MSTORE DUP9 DUP5 MSTORE PUSH1 0x40 DUP4 KECCAK256 DUP14 PUSH1 0x0 MSTORE DUP5 MSTORE PUSH1 0x40 PUSH1 0x0 KECCAK256 SLOAD SWAP1 SHR AND SWAP8 PUSH2 0x1F9D SWAP1 PUSH2 0x2C75 JUMP JUMPDEST SWAP6 PUSH2 0x1FA7 SWAP1 PUSH2 0x2C75 JUMP JUMPDEST SWAP7 DUP11 DUP3 MSTORE DUP3 MSTORE PUSH1 0x40 SWAP1 KECCAK256 SWAP1 DUP11 PUSH1 0x0 MSTORE MSTORE PUSH1 0x40 PUSH1 0x0 KECCAK256 ADD PUSH2 0x1FC6 SWAP1 PUSH2 0x2A7F JUMP JUMPDEST SWAP4 AND SWAP2 AND PUSH2 0x1FD3 SWAP4 PUSH2 0x35CF JUMP JUMPDEST SWAP1 PUSH2 0x1000 DUP2 LT ISZERO PUSH2 0x2031 JUMPI PUSH2 0x1F01 SWAP5 SWAP4 SWAP3 SWAP2 PUSH2 0x1FF1 SWAP2 PUSH1 0x9 ADD PUSH2 0x2B66 JUMP JUMPDEST PUSH1 0x1 PUSH2 0x1FFD DUP4 DUP13 PUSH2 0x2C8A JUMP JUMPDEST MSTORE PUSH32 0xA9A418DA632D42C446A125F10B007831BA0E348168B6B2474A2383AC5DF4C280 DUP10 DUP1 LOG3 SWAP1 CODESIZE DUP1 DUP1 DUP1 DUP1 DUP1 DUP1 DUP14 DUP14 PUSH2 0x1EEE JUMP JUMPDEST PUSH4 0x4E487B71 PUSH1 0xE0 SHL DUP11 MSTORE PUSH1 0x32 PUSH1 0x4 MSTORE PUSH1 0x24 DUP11 REVERT JUMPDEST PUSH4 0x4E487B71 PUSH1 0xE0 SHL PUSH1 0x0 MSTORE PUSH1 0x11 PUSH1 0x4 MSTORE PUSH1 0x24 PUSH1 0x0 REVERT JUMPDEST PUSH1 0x40 MLOAD PUSH3 0x461BCD PUSH1 0xE5 SHL DUP2 MSTORE PUSH1 0x4 DUP2 ADD DUP15 SWAP1 MSTORE PUSH1 0x2F PUSH1 0x24 DUP3 ADD MSTORE PUSH32 0x6F776E6572207761732061736B656420746F20666972737420736574746C6520 PUSH1 0x44 DUP3 ADD MSTORE PUSH15 0x1C9BDE585B1D1E481C185E5B595B9D PUSH1 0x8A SHL PUSH1 0x64 DUP3 ADD MSTORE PUSH1 0x84 SWAP1 REVERT JUMPDEST PUSH1 0x40 MLOAD PUSH3 0x461BCD PUSH1 0xE5 SHL DUP2 MSTORE PUSH1 0x4 DUP2 ADD DUP12 SWAP1 MSTORE PUSH1 0x16 PUSH1 0x24 DUP3 ADD MSTORE PUSH22 0x7368617065204944206E6F7420617661696C61626C65 PUSH1 0x50 SHL PUSH1 0x44 DUP3 ADD MSTORE PUSH1 0x64 SWAP1 REVERT JUMPDEST DUP12 DUP1 REVERT JUMPDEST DUP11 DUP1 REVERT JUMPDEST DUP10 DUP1 REVERT JUMPDEST DUP9 DUP1 REVERT JUMPDEST DUP8 DUP1 REVERT JUMPDEST PUSH1 0x40 MLOAD PUSH3 0x461BCD PUSH1 0xE5 SHL DUP2 MSTORE PUSH1 0x4 DUP2 ADD DUP5 SWAP1 MSTORE PUSH1 0x22 PUSH1 0x24 DUP3 ADD MSTORE PUSH32 0x417274697374696320706572696F642063757272656E746C79206E6F74206F70 PUSH1 0x44 DUP3 ADD MSTORE PUSH2 0x32B7 PUSH1 0xF1 SHL PUSH1 0x64 DUP3 ADD MSTORE PUSH1 0x84 SWAP1 REVERT JUMPDEST POP CALLVALUE PUSH2 0x234 JUMPI PUSH2 0x2175 PUSH2 0x216C CALLDATASIZE PUSH2 0x2877 JUMP JUMPDEST SWAP3 SWAP2 SWAP1 SWAP2 PUSH2 0x2D6C JUMP JUMPDEST DUP1 RETURN JUMPDEST POP CALLVALUE PUSH2 0x234 JUMPI PUSH1 0x20 CALLDATASIZE PUSH1 0x3 NOT ADD SLT PUSH2 0x234 JUMPI PUSH1 0x40 DUP1 SWAP2 PUSH1 0x4 CALLDATALOAD DUP2 MSTORE PUSH2 0x104A PUSH1 0x20 MSTORE KECCAK256 PUSH1 0x1 DUP2 SLOAD SWAP2 ADD SLOAD DUP3 MLOAD SWAP2 DUP3 MSTORE PUSH1 0x20 DUP3 ADD MSTORE RETURN JUMPDEST POP CALLVALUE PUSH2 0x234 JUMPI PUSH1 0x20 SWAP1 DUP2 PUSH1 0x3 NOT CALLDATASIZE ADD SLT PUSH2 0x234 JUMPI PUSH1 0x4 CALLDATALOAD SWAP1 PUSH2 0x21CD PUSH2 0x35AC JUMP JUMPDEST DUP2 DUP2 MSTORE PUSH2 0x104C SWAP2 DUP3 DUP5 MSTORE PUSH1 0xFF SWAP3 PUSH2 0x21ED DUP5 PUSH1 0x4 PUSH1 0x40 DUP7 KECCAK256 ADD SLOAD AND ISZERO PUSH2 0x34E8 JUMP JUMPDEST DUP2 DUP4 MSTORE DUP1 DUP6 MSTORE PUSH2 0x2205 PUSH1 0x2 PUSH1 0x40 DUP6 KECCAK256 ADD SLOAD TIMESTAMP GT PUSH2 0x3530 JUMP JUMPDEST DUP2 DUP4 MSTORE DUP1 DUP6 MSTORE TIMESTAMP PUSH1 0x3 PUSH1 0x40 DUP6 KECCAK256 ADD SLOAD LT ISZERO PUSH2 0x24E2 JUMPI DUP2 DUP4 MSTORE DUP1 DUP6 MSTORE PUSH1 0x40 DUP4 KECCAK256 DUP1 SLOAD PUSH1 0x1 PUSH1 0x1 PUSH1 0xA0 SHL SUB SWAP5 SWAP2 SWAP1 DUP6 AND SWAP1 DUP2 PUSH2 0x2428 JUMPI POP POP SWAP1 PUSH1 0x40 MLOAD PUSH1 0x3F DUP1 DUP9 DUP4 ADD DUP4 PUSH2 0x2270 CALLER PREVRANDAO TIMESTAMP DUP6 SWAP2 PUSH1 0x54 SWAP4 SWAP2 DUP4 MSTORE PUSH1 0x20 DUP4 ADD MSTORE PUSH1 0x1 PUSH1 0x1 PUSH1 0x60 SHL SUB NOT SWAP1 PUSH1 0x60 SHL AND PUSH1 0x40 DUP3 ADD MSTORE ADD SWAP1 JUMP JUMPDEST SUB SWAP4 PUSH2 0x2284 PUSH1 0x1F NOT SWAP6 DUP7 DUP2 ADD DUP4 MSTORE DUP3 PUSH2 0x2A5E JUMP JUMPDEST MLOAD SWAP1 KECCAK256 AND SWAP2 PUSH1 0x40 MLOAD PUSH2 0x22CA DUP11 DUP3 ADD SWAP3 DUP3 PUSH2 0x22BE CALLER PREVRANDAO TIMESTAMP DUP9 SWAP2 PUSH1 0x54 SWAP4 SWAP2 DUP4 MSTORE PUSH1 0x20 DUP4 ADD MSTORE PUSH1 0x1 PUSH1 0x1 PUSH1 0x60 SHL SUB NOT SWAP1 PUSH1 0x60 SHL AND PUSH1 0x40 DUP3 ADD MSTORE ADD SWAP1 JUMP JUMPDEST SUB SWAP1 DUP2 ADD DUP4 MSTORE DUP3 PUSH2 0x2A5E JUMP JUMPDEST MLOAD SWAP1 KECCAK256 AND SWAP2 DUP5 DUP5 MSTORE DUP8 MSTORE PUSH1 0x4 PUSH1 0x40 DUP5 KECCAK256 ADD PUSH1 0x1 PUSH1 0xFF NOT DUP3 SLOAD AND OR SWAP1 SSTORE DUP5 PUSH1 0x1 SLOAD AND DUP2 DUP5 MSTORE PUSH1 0x8 DUP9 MSTORE PUSH1 0x40 DUP5 KECCAK256 DUP4 PUSH1 0x0 MSTORE DUP9 MSTORE DUP6 PUSH1 0x40 PUSH1 0x0 KECCAK256 SLOAD AND DUP2 EXTCODESIZE ISZERO PUSH2 0x16D6 JUMPI DUP6 PUSH2 0x2330 SWAP3 DUP7 SWAP3 DUP4 PUSH1 0x40 MLOAD DUP1 SWAP7 DUP2 SWAP6 DUP3 SWAP5 PUSH4 0x21421707 PUSH1 0xE1 SHL DUP5 MSTORE ADDRESS PUSH1 0x4 DUP6 ADD PUSH2 0x2D4A JUMP JUMPDEST SUB SWAP3 GAS CALL DUP1 ISZERO PUSH2 0x241D JUMPI SWAP1 DUP5 SWAP2 PUSH2 0x2409 JUMPI JUMPDEST POP MSTORE PUSH1 0x8 DUP7 MSTORE PUSH1 0x40 DUP3 KECCAK256 SWAP1 PUSH1 0x0 MSTORE DUP6 MSTORE PUSH32 0xD2AA34A4FDBBC6DFF6A3E56F46E0F3AE2A31D7785FF3487AA5C95C642ACEA501 PUSH1 0x60 DUP5 PUSH1 0x40 PUSH1 0x0 KECCAK256 SLOAD AND PUSH1 0x40 MLOAD SWAP1 DUP6 DUP3 MSTORE DUP9 DUP3 ADD MSTORE DUP4 PUSH1 0x40 DUP3 ADD MSTORE LOG1 JUMPDEST DUP1 SWAP5 JUMPDEST DUP5 DUP7 AND SWAP4 PUSH1 0x40 DUP6 LT ISZERO PUSH2 0x2401 JUMPI DUP3 JUMPDEST DUP7 DUP2 AND PUSH1 0x40 DUP2 LT ISZERO PUSH2 0x23F0 JUMPI DUP7 DUP6 MSTORE PUSH1 0x8 DUP5 MSTORE PUSH1 0x40 DUP1 DUP7 KECCAK256 PUSH1 0x0 SWAP3 DUP4 MSTORE DUP6 MSTORE DUP1 DUP3 KECCAK256 SLOAD DUP5 AND DUP1 DUP8 MSTORE PUSH2 0x1049 DUP7 MSTORE DUP2 DUP8 KECCAK256 SLOAD DUP9 DUP9 MSTORE PUSH1 0x6 DUP8 MSTORE DUP3 DUP9 KECCAK256 SWAP2 DUP5 MSTORE SWAP1 DUP7 MSTORE SWAP2 KECCAK256 SSTORE PUSH1 0x1 ADD DUP7 AND PUSH2 0x23A2 JUMP JUMPDEST POP POP SWAP4 POP SWAP5 PUSH1 0x1 DUP6 SWAP2 ADD AND SWAP5 PUSH2 0x2393 JUMP JUMPDEST DUP3 PUSH1 0x1 DUP2 SSTORE DUP1 RETURN JUMPDEST PUSH2 0x2412 SWAP1 PUSH2 0x2A15 JUMP JUMPDEST PUSH2 0x18D0 JUMPI DUP3 CODESIZE PUSH2 0x2342 JUMP JUMPDEST PUSH1 0x40 MLOAD RETURNDATASIZE DUP7 DUP3 RETURNDATACOPY RETURNDATASIZE SWAP1 REVERT JUMPDEST PUSH1 0x4 ADD PUSH1 0x1 PUSH1 0xFF NOT DUP3 SLOAD AND OR SWAP1 SSTORE DUP5 PUSH1 0x1 SLOAD AND SWAP1 DUP2 EXTCODESIZE ISZERO PUSH2 0x18D0 JUMPI DUP5 PUSH2 0x2468 SWAP3 DUP5 SWAP3 DUP4 PUSH1 0x40 MLOAD DUP1 SWAP7 DUP2 SWAP6 DUP3 SWAP5 PUSH4 0x21421707 PUSH1 0xE1 SHL DUP5 MSTORE ADDRESS PUSH1 0x4 DUP6 ADD PUSH2 0x2D4A JUMP JUMPDEST SUB SWAP3 GAS CALL DUP1 ISZERO PUSH2 0x1B04 JUMPI PUSH2 0x24D3 JUMPI JUMPDEST POP DUP3 DUP2 MSTORE SWAP1 DUP6 MSTORE PUSH1 0x40 DUP1 DUP3 KECCAK256 DUP1 SLOAD PUSH1 0x1 SWAP1 SWAP2 ADD SLOAD DUP3 MLOAD DUP6 DUP2 MSTORE SWAP2 DUP7 AND PUSH1 0x1 PUSH1 0x1 PUSH1 0xA0 SHL SUB AND PUSH1 0x20 DUP4 ADD MSTORE SWAP2 DUP2 ADD SWAP2 SWAP1 SWAP2 MSTORE PUSH32 0xD2AA34A4FDBBC6DFF6A3E56F46E0F3AE2A31D7785FF3487AA5C95C642ACEA501 SWAP1 PUSH1 0x60 SWAP1 LOG1 PUSH2 0x2390 JUMP JUMPDEST PUSH2 0x24DC SWAP1 PUSH2 0x2A15 JUMP JUMPDEST CODESIZE PUSH2 0x2477 JUMP JUMPDEST PUSH1 0x40 MLOAD PUSH3 0x461BCD PUSH1 0xE5 SHL DUP2 MSTORE PUSH1 0x4 DUP2 ADD DUP7 SWAP1 MSTORE PUSH1 0x15 PUSH1 0x24 DUP3 ADD MSTORE PUSH21 0x185D58DD1A5BDB881B9BDD08195B991959081E595D PUSH1 0x5A SHL PUSH1 0x44 DUP3 ADD MSTORE PUSH1 0x64 SWAP1 REVERT JUMPDEST POP CALLVALUE PUSH2 0x234 JUMPI PUSH1 0x40 CALLDATASIZE PUSH1 0x3 NOT ADD SLT PUSH2 0x234 JUMPI PUSH1 0x40 PUSH1 0x20 SWAP2 PUSH2 0x253E PUSH2 0x297E JUMP JUMPDEST PUSH1 0x4 CALLDATALOAD DUP3 MSTORE PUSH1 0x6 DUP5 MSTORE DUP3 DUP3 KECCAK256 PUSH1 0x1 PUSH1 0x1 PUSH1 0xA0 SHL SUB SWAP1 SWAP2 AND DUP3 MSTORE DUP4 MSTORE KECCAK256 SLOAD PUSH1 0x40 MLOAD SWAP1 DUP2 MSTORE RETURN JUMPDEST POP CALLVALUE PUSH2 0x234 JUMPI DUP1 PUSH1 0x3 NOT CALLDATASIZE ADD SLT PUSH2 0x234 JUMPI PUSH1 0x20 PUSH1 0x40 MLOAD PUSH3 0x54600 DUP2 MSTORE RETURN JUMPDEST POP CALLVALUE PUSH2 0x234 JUMPI PUSH1 0x20 CALLDATASIZE PUSH1 0x3 NOT ADD SLT PUSH2 0x234 JUMPI PUSH1 0xFF PUSH1 0x40 PUSH1 0x20 SWAP3 PUSH2 0x25A2 PUSH2 0x2968 JUMP JUMPDEST PUSH3 0x54600 PUSH2 0x25B2 PUSH1 0x3 SLOAD TIMESTAMP PUSH2 0x32C1 JUMP JUMPDEST DIV DUP3 MSTORE PUSH2 0x104A DUP6 MSTORE DUP3 DUP3 KECCAK256 PUSH1 0x1 PUSH1 0x1 PUSH1 0xA0 SHL SUB SWAP1 SWAP2 AND DUP3 MSTORE PUSH1 0x2 ADD DUP5 MSTORE KECCAK256 SLOAD PUSH1 0x40 MLOAD SWAP2 AND ISZERO ISZERO DUP2 MSTORE RETURN JUMPDEST POP CALLVALUE PUSH2 0x234 JUMPI PUSH2 0x25EB CALLDATASIZE PUSH2 0x2877 JUMP JUMPDEST PUSH2 0x25F8 DUP2 DUP5 SWAP6 SWAP5 EQ PUSH2 0x2CD2 JUMP JUMPDEST PUSH2 0x2601 DUP5 PUSH2 0x2B25 JUMP JUMPDEST SWAP4 PUSH2 0x260F PUSH1 0x40 MLOAD SWAP6 DUP7 PUSH2 0x2A5E JUMP JUMPDEST DUP1 DUP6 MSTORE PUSH1 0x1F NOT PUSH2 0x261E DUP3 PUSH2 0x2B25 JUMP JUMPDEST ADD DUP7 JUMPDEST DUP2 DUP2 LT PUSH2 0x26CF JUMPI POP POP DUP6 JUMPDEST DUP2 DUP2 LT PUSH2 0x2691 JUMPI PUSH1 0x40 DUP1 MLOAD PUSH1 0x20 DUP1 DUP3 MSTORE DUP9 MLOAD DUP2 DUP4 ADD DUP2 SWAP1 MSTORE DUP11 SWAP4 PUSH1 0x5 DUP3 SWAP1 SHL DUP5 ADD DUP2 ADD SWAP3 DUP1 DUP13 ADD SWAP3 SWAP2 DUP6 ADD JUMPDEST DUP3 DUP8 LT PUSH2 0x2665 JUMPI DUP6 DUP6 SUB DUP7 RETURN JUMPDEST SWAP1 SWAP2 SWAP3 SWAP4 DUP3 DUP1 PUSH2 0x2681 PUSH1 0x1 SWAP4 PUSH1 0x3F NOT DUP11 DUP3 SUB ADD DUP7 MSTORE DUP9 MLOAD PUSH2 0x2909 JUMP JUMPDEST SWAP7 ADD SWAP3 ADD SWAP7 ADD SWAP6 SWAP3 SWAP2 SWAP1 SWAP3 PUSH2 0x2658 JUMP JUMPDEST DUP1 PUSH2 0x26B3 PUSH2 0x26A5 PUSH2 0x2C8 PUSH1 0x1 SWAP5 DUP7 DUP11 PUSH2 0x2CB4 JUMP JUMPDEST PUSH2 0xAE9 PUSH2 0x2C8 DUP5 DUP9 DUP11 PUSH2 0x2CB4 JUMP JUMPDEST PUSH2 0x26BD DUP3 DUP10 PUSH2 0x2C8A JUMP JUMPDEST MSTORE PUSH2 0x26C8 DUP2 DUP9 PUSH2 0x2C8A JUMP JUMPDEST POP ADD PUSH2 0x262C JUMP JUMPDEST PUSH1 0x20 SWAP1 PUSH2 0x26DA PUSH2 0x332F JUMP JUMPDEST DUP3 DUP3 DUP11 ADD ADD MSTORE ADD PUSH2 0x2621 JUMP JUMPDEST POP CALLVALUE PUSH2 0x234 JUMPI PUSH1 0x60 CALLDATASIZE PUSH1 0x3 NOT ADD SLT PUSH2 0x234 JUMPI PUSH2 0x2700 PUSH2 0x2819 JUMP JUMPDEST PUSH1 0xFF PUSH2 0x270A PUSH2 0x2829 JUMP JUMPDEST SWAP2 PUSH2 0x2720 PUSH1 0x1 DUP1 PUSH1 0xA0 SHL SUB PUSH1 0x2 SLOAD AND CALLER EQ PUSH2 0x32CE JUMP JUMPDEST AND DUP1 DUP4 MSTORE PUSH1 0x8 PUSH1 0x20 SWAP2 DUP2 DUP4 MSTORE PUSH1 0xFF PUSH1 0x40 DUP7 KECCAK256 SWAP5 AND SWAP4 DUP5 DUP7 MSTORE DUP4 MSTORE PUSH1 0xFF PUSH1 0x4 PUSH1 0x40 DUP8 KECCAK256 ADD SLOAD AND DUP1 PUSH2 0x27D9 JUMPI JUMPDEST ISZERO PUSH2 0x27A0 JUMPI DUP1 DUP6 MSTORE DUP2 DUP4 MSTORE PUSH1 0x40 DUP6 KECCAK256 DUP5 DUP7 MSTORE DUP4 MSTORE PUSH1 0x44 CALLDATALOAD PUSH1 0x1 PUSH1 0x40 DUP8 KECCAK256 ADD SSTORE DUP1 DUP6 MSTORE DUP2 DUP4 MSTORE PUSH1 0x40 DUP6 KECCAK256 DUP5 DUP7 MSTORE DUP4 MSTORE PUSH1 0x4 PUSH1 0x40 DUP7 KECCAK256 ADD PUSH1 0xFF NOT DUP2 SLOAD AND SWAP1 SSTORE DUP5 MSTORE DUP2 MSTORE PUSH1 0x40 DUP4 KECCAK256 SWAP2 DUP4 MSTORE MSTORE DUP1 PUSH1 0x5 PUSH1 0x40 DUP3 KECCAK256 ADD SSTORE DUP1 RETURN JUMPDEST DUP1 DUP6 MSTORE DUP2 DUP4 MSTORE PUSH1 0x40 DUP6 KECCAK256 DUP5 DUP7 MSTORE DUP4 MSTORE PUSH1 0x4 PUSH1 0x40 DUP7 KECCAK256 ADD PUSH1 0x1 PUSH1 0xFF NOT DUP3 SLOAD AND OR SWAP1 SSTORE DUP5 MSTORE DUP2 MSTORE PUSH1 0x40 DUP4 KECCAK256 SWAP2 DUP4 MSTORE MSTORE TIMESTAMP PUSH1 0x5 PUSH1 0x40 DUP4 KECCAK256 ADD SSTORE DUP1 RETURN JUMPDEST POP DUP1 DUP6 MSTORE DUP2 DUP4 MSTORE PUSH1 0x40 DUP6 KECCAK256 DUP5 DUP7 MSTORE DUP4 MSTORE PUSH1 0x5 PUSH1 0x40 DUP7 KECCAK256 ADD SLOAD PUSH3 0x3F480 DUP2 ADD DUP1 SWAP2 GT PUSH2 0x2805 JUMPI TIMESTAMP GT PUSH2 0x274B JUMP JUMPDEST PUSH4 0x4E487B71 PUSH1 0xE0 SHL DUP7 MSTORE PUSH1 0x11 PUSH1 0x4 MSTORE PUSH1 0x24 DUP7 REVERT JUMPDEST PUSH1 0x4 CALLDATALOAD SWAP1 PUSH1 0xFF DUP3 AND DUP3 SUB PUSH2 0x81A JUMPI JUMP JUMPDEST PUSH1 0x24 CALLDATALOAD SWAP1 PUSH1 0xFF DUP3 AND DUP3 SUB PUSH2 0x81A JUMPI JUMP JUMPDEST CALLDATALOAD SWAP1 PUSH1 0xFF DUP3 AND DUP3 SUB PUSH2 0x81A JUMPI JUMP JUMPDEST SWAP2 DUP2 PUSH1 0x1F DUP5 ADD SLT ISZERO PUSH2 0x81A JUMPI DUP3 CALLDATALOAD SWAP2 PUSH1 0x1 PUSH1 0x1 PUSH1 0x40 SHL SUB DUP4 GT PUSH2 0x81A JUMPI PUSH1 0x20 DUP1 DUP6 ADD SWAP5 DUP5 PUSH1 0x5 SHL ADD ADD GT PUSH2 0x81A JUMPI JUMP JUMPDEST PUSH1 0x40 PUSH1 0x3 NOT DUP3 ADD SLT PUSH2 0x81A JUMPI PUSH1 0x1 PUSH1 0x1 PUSH1 0x40 SHL SUB SWAP2 PUSH1 0x4 CALLDATALOAD DUP4 DUP2 GT PUSH2 0x81A JUMPI DUP3 PUSH2 0x28A3 SWAP2 PUSH1 0x4 ADD PUSH2 0x2847 JUMP JUMPDEST SWAP4 SWAP1 SWAP4 SWAP3 PUSH1 0x24 CALLDATALOAD SWAP2 DUP3 GT PUSH2 0x81A JUMPI PUSH2 0x28BD SWAP2 PUSH1 0x4 ADD PUSH2 0x2847 JUMP JUMPDEST SWAP1 SWAP2 JUMP JUMPDEST PUSH1 0x0 JUMPDEST DUP4 DUP2 LT PUSH2 0x28D4 JUMPI POP POP PUSH1 0x0 SWAP2 ADD MSTORE JUMP JUMPDEST DUP2 DUP2 ADD MLOAD DUP4 DUP3 ADD MSTORE PUSH1 0x20 ADD PUSH2 0x28C4 JUMP JUMPDEST SWAP1 PUSH1 0x20 SWAP2 PUSH2 0x28FD DUP2 MLOAD DUP1 SWAP3 DUP2 DUP6 MSTORE DUP6 DUP1 DUP7 ADD SWAP2 ADD PUSH2 0x28C1 JUMP JUMPDEST PUSH1 0x1F ADD PUSH1 0x1F NOT AND ADD ADD SWAP1 JUMP JUMPDEST SWAP1 PUSH1 0x1 DUP1 PUSH1 0xA0 SHL SUB DUP3 MLOAD AND DUP2 MSTORE PUSH1 0xFF PUSH1 0x20 DUP4 ADD MLOAD AND PUSH1 0x20 DUP3 ADD MSTORE PUSH1 0x40 DUP3 ADD MLOAD PUSH1 0x40 DUP3 ADD MSTORE PUSH1 0xC0 DUP1 PUSH2 0x2949 PUSH1 0x60 DUP6 ADD MLOAD PUSH1 0xE0 PUSH1 0x60 DUP7 ADD MSTORE PUSH1 0xE0 DUP6 ADD SWAP1 PUSH2 0x28E4 JUMP JUMPDEST SWAP4 PUSH1 0x80 DUP2 ADD MLOAD PUSH1 0x80 DUP6 ADD MSTORE PUSH1 0xA0 DUP2 ADD MLOAD ISZERO ISZERO PUSH1 0xA0 DUP6 ADD MSTORE ADD MLOAD SWAP2 ADD MSTORE SWAP1 JUMP JUMPDEST PUSH1 0x4 CALLDATALOAD SWAP1 PUSH1 0x1 PUSH1 0x1 PUSH1 0xA0 SHL SUB DUP3 AND DUP3 SUB PUSH2 0x81A JUMPI JUMP JUMPDEST PUSH1 0x24 CALLDATALOAD SWAP1 PUSH1 0x1 PUSH1 0x1 PUSH1 0xA0 SHL SUB DUP3 AND DUP3 SUB PUSH2 0x81A JUMPI JUMP JUMPDEST SWAP2 SWAP1 DUP3 ADD DUP1 SWAP3 GT PUSH2 0x2045 JUMPI JUMP JUMPDEST CALLVALUE PUSH2 0x81A JUMPI PUSH1 0x0 CALLDATASIZE PUSH1 0x3 NOT ADD SLT PUSH2 0x81A JUMPI PUSH1 0x20 PUSH1 0x40 MLOAD PUSH3 0x3F480 DUP2 MSTORE RETURN JUMPDEST CALLVALUE PUSH2 0x81A JUMPI PUSH1 0x0 CALLDATASIZE PUSH1 0x3 NOT ADD SLT PUSH2 0x81A JUMPI PUSH1 0x20 PUSH1 0x40 MLOAD PUSH1 0x40 DUP2 MSTORE RETURN JUMPDEST SWAP1 PUSH1 0x1 DUP3 DUP2 SHR SWAP3 AND DUP1 ISZERO PUSH2 0x2A0B JUMPI JUMPDEST PUSH1 0x20 DUP4 LT EQ PUSH2 0x29F5 JUMPI JUMP JUMPDEST PUSH4 0x4E487B71 PUSH1 0xE0 SHL PUSH1 0x0 MSTORE PUSH1 0x22 PUSH1 0x4 MSTORE PUSH1 0x24 PUSH1 0x0 REVERT JUMPDEST SWAP2 PUSH1 0x7F AND SWAP2 PUSH2 0x29EA JUMP JUMPDEST PUSH1 0x1 PUSH1 0x1 PUSH1 0x40 SHL SUB DUP2 GT PUSH2 0x1029 JUMPI PUSH1 0x40 MSTORE JUMP JUMPDEST PUSH1 0xE0 DUP2 ADD SWAP1 DUP2 LT PUSH1 0x1 PUSH1 0x1 PUSH1 0x40 SHL SUB DUP3 GT OR PUSH2 0x1029 JUMPI PUSH1 0x40 MSTORE JUMP JUMPDEST PUSH1 0x20 DUP2 ADD SWAP1 DUP2 LT PUSH1 0x1 PUSH1 0x1 PUSH1 0x40 SHL SUB DUP3 GT OR PUSH2 0x1029 JUMPI PUSH1 0x40 MSTORE JUMP JUMPDEST SWAP1 PUSH1 0x1F DUP1 NOT SWAP2 ADD AND DUP2 ADD SWAP1 DUP2 LT PUSH1 0x1 PUSH1 0x1 PUSH1 0x40 SHL SUB DUP3 GT OR PUSH2 0x1029 JUMPI PUSH1 0x40 MSTORE JUMP JUMPDEST SWAP1 PUSH1 0x40 MLOAD SWAP2 DUP3 PUSH1 0x0 DUP3 SLOAD SWAP3 PUSH2 0x2A93 DUP5 PUSH2 0x29DB JUMP JUMPDEST SWAP1 DUP2 DUP5 MSTORE PUSH1 0x1 SWAP5 DUP6 DUP2 AND SWAP1 DUP2 PUSH1 0x0 EQ PUSH2 0x2B02 JUMPI POP PUSH1 0x1 EQ PUSH2 0x2ABF JUMPI JUMPDEST POP POP PUSH2 0x2ABD SWAP3 POP SUB DUP4 PUSH2 0x2A5E JUMP JUMPDEST JUMP JUMPDEST SWAP1 SWAP4 SWAP2 POP PUSH1 0x0 MSTORE PUSH1 0x20 SWAP1 DUP2 PUSH1 0x0 KECCAK256 SWAP4 PUSH1 0x0 SWAP2 JUMPDEST DUP2 DUP4 LT PUSH2 0x2AEA JUMPI POP POP PUSH2 0x2ABD SWAP4 POP DUP3 ADD ADD CODESIZE DUP1 PUSH2 0x2AAF JUMP JUMPDEST DUP6 SLOAD DUP9 DUP5 ADD DUP6 ADD MSTORE SWAP5 DUP6 ADD SWAP5 DUP8 SWAP5 POP SWAP2 DUP4 ADD SWAP2 PUSH2 0x2AD2 JUMP JUMPDEST SWAP2 POP POP PUSH2 0x2ABD SWAP5 POP PUSH1 0x20 SWAP3 POP PUSH1 0xFF NOT AND DUP3 DUP5 ADD MSTORE ISZERO ISZERO PUSH1 0x5 SHL DUP3 ADD ADD CODESIZE DUP1 PUSH2 0x2AAF JUMP JUMPDEST PUSH1 0x1 PUSH1 0x1 PUSH1 0x40 SHL SUB DUP2 GT PUSH2 0x1029 JUMPI PUSH1 0x5 SHL PUSH1 0x20 ADD SWAP1 JUMP JUMPDEST PUSH1 0x0 NOT DUP2 EQ PUSH2 0x2045 JUMPI PUSH1 0x1 ADD SWAP1 JUMP JUMPDEST PUSH1 0x1 PUSH1 0x1 PUSH1 0x40 SHL SUB DUP2 GT PUSH2 0x1029 JUMPI PUSH1 0x1F ADD PUSH1 0x1F NOT AND PUSH1 0x20 ADD SWAP1 JUMP JUMPDEST SWAP2 SWAP1 SWAP2 DUP3 MLOAD PUSH1 0x1 PUSH1 0x1 PUSH1 0x40 SHL SUB DUP2 GT PUSH2 0x1029 JUMPI PUSH2 0x2B83 DUP3 SLOAD PUSH2 0x29DB JUMP JUMPDEST PUSH1 0x1F DUP2 GT PUSH2 0x2C2D JUMPI JUMPDEST POP PUSH1 0x20 DUP1 PUSH1 0x1F DUP4 GT PUSH1 0x1 EQ PUSH2 0x2BC9 JUMPI POP DUP2 SWAP3 SWAP4 SWAP5 PUSH1 0x0 SWAP3 PUSH2 0x2BBE JUMPI JUMPDEST POP POP DUP2 PUSH1 0x1 SHL SWAP2 PUSH1 0x0 NOT SWAP1 PUSH1 0x3 SHL SHR NOT AND OR SWAP1 SSTORE JUMP JUMPDEST ADD MLOAD SWAP1 POP CODESIZE DUP1 PUSH2 0x2BA8 JUMP JUMPDEST SWAP1 PUSH1 0x1F NOT DUP4 AND SWAP6 DUP5 PUSH1 0x0 MSTORE DUP3 PUSH1 0x0 KECCAK256 SWAP3 PUSH1 0x0 SWAP1 JUMPDEST DUP9 DUP3 LT PUSH2 0x2C15 JUMPI POP POP DUP4 PUSH1 0x1 SWAP6 SWAP7 SWAP8 LT PUSH2 0x2BFC JUMPI JUMPDEST POP POP POP DUP2 SHL ADD SWAP1 SSTORE JUMP JUMPDEST ADD MLOAD PUSH1 0x0 NOT PUSH1 0xF8 DUP5 PUSH1 0x3 SHL AND SHR NOT AND SWAP1 SSTORE CODESIZE DUP1 DUP1 PUSH2 0x2BF2 JUMP JUMPDEST DUP1 PUSH1 0x1 DUP6 SWAP7 DUP3 SWAP5 SWAP7 DUP7 ADD MLOAD DUP2 SSTORE ADD SWAP6 ADD SWAP4 ADD SWAP1 PUSH2 0x2BDD JUMP JUMPDEST PUSH1 0x0 DUP4 DUP2 MSTORE PUSH1 0x20 DUP2 KECCAK256 PUSH1 0x1F DUP5 ADD PUSH1 0x5 SHR DUP2 ADD SWAP3 PUSH1 0x20 DUP6 LT PUSH2 0x2C6B JUMPI JUMPDEST PUSH1 0x1F ADD PUSH1 0x5 SHR ADD SWAP2 JUMPDEST DUP3 DUP2 LT PUSH2 0x2C60 JUMPI POP POP PUSH2 0x2B8C JUMP JUMPDEST DUP2 DUP2 SSTORE PUSH1 0x1 ADD PUSH2 0x2C52 JUMP JUMPDEST SWAP1 SWAP3 POP DUP3 SWAP1 PUSH2 0x2C49 JUMP JUMPDEST PUSH1 0xFF PUSH1 0x9 SWAP2 AND MUL SWAP1 PUSH1 0xFF DUP3 AND SWAP2 DUP3 SUB PUSH2 0x2045 JUMPI JUMP JUMPDEST DUP1 MLOAD DUP3 LT ISZERO PUSH2 0x2C9E JUMPI PUSH1 0x20 SWAP2 PUSH1 0x5 SHL ADD ADD SWAP1 JUMP JUMPDEST PUSH4 0x4E487B71 PUSH1 0xE0 SHL PUSH1 0x0 MSTORE PUSH1 0x32 PUSH1 0x4 MSTORE PUSH1 0x24 PUSH1 0x0 REVERT JUMPDEST SWAP2 SWAP1 DUP2 LT ISZERO PUSH2 0x2C9E JUMPI PUSH1 0x5 SHL ADD SWAP1 JUMP JUMPDEST CALLDATALOAD PUSH1 0xFF DUP2 AND DUP2 SUB PUSH2 0x81A JUMPI SWAP1 JUMP JUMPDEST ISZERO PUSH2 0x2CD9 JUMPI JUMP JUMPDEST PUSH1 0x40 MLOAD PUSH3 0x461BCD PUSH1 0xE5 SHL DUP2 MSTORE PUSH1 0x20 PUSH1 0x4 DUP3 ADD MSTORE PUSH1 0x2B PUSH1 0x24 DUP3 ADD MSTORE PUSH32 0x7820616E64207920696E7075742061727261797320617265206F662076617269 PUSH1 0x44 DUP3 ADD MSTORE PUSH11 0x6F7573206C656E67746873 PUSH1 0xA8 SHL PUSH1 0x64 DUP3 ADD MSTORE PUSH1 0x84 SWAP1 REVERT JUMPDEST SWAP1 DUP2 PUSH1 0x20 SWAP2 SUB SLT PUSH2 0x81A JUMPI MLOAD DUP1 ISZERO ISZERO DUP2 SUB PUSH2 0x81A JUMPI SWAP1 JUMP JUMPDEST PUSH1 0x1 PUSH1 0x1 PUSH1 0xA0 SHL SUB SWAP2 DUP3 AND DUP2 MSTORE SWAP2 AND PUSH1 0x20 DUP3 ADD MSTORE PUSH1 0x40 DUP2 ADD SWAP2 SWAP1 SWAP2 MSTORE PUSH1 0x60 ADD SWAP1 JUMP JUMPDEST SWAP2 SWAP1 SWAP2 PUSH2 0x2D7A DUP5 DUP5 EQ PUSH2 0x2CD2 JUMP JUMPDEST PUSH1 0x0 JUMPDEST DUP4 DUP2 LT PUSH2 0x2D8B JUMPI POP POP POP POP POP JUMP JUMPDEST PUSH2 0x2DAA PUSH2 0x2D9C PUSH2 0x2C8 DUP4 DUP8 DUP7 PUSH2 0x2CB4 JUMP JUMPDEST PUSH2 0x2DB PUSH2 0x2C8 DUP5 DUP10 DUP9 PUSH2 0x2CB4 JUMP JUMPDEST PUSH2 0xA3C JUMPI PUSH1 0xFF DUP1 PUSH2 0x2DBF PUSH2 0x2C8 DUP5 DUP9 DUP8 PUSH2 0x2CB4 JUMP JUMPDEST AND PUSH1 0x0 MSTORE PUSH1 0x8 PUSH1 0x20 DUP2 DUP2 MSTORE PUSH1 0x40 DUP1 PUSH1 0x0 KECCAK256 DUP5 PUSH2 0x2DDF PUSH2 0x2C8 DUP9 DUP14 DUP13 PUSH2 0x2CB4 JUMP JUMPDEST AND PUSH1 0x0 MSTORE DUP3 MSTORE PUSH1 0x1 DUP1 PUSH1 0xA0 SHL SUB SWAP2 CALLER DUP4 DUP4 PUSH1 0x0 KECCAK256 SLOAD AND SUB PUSH2 0x31C4 JUMPI DUP5 PUSH2 0x2E09 PUSH2 0x2C8 DUP9 DUP13 DUP12 PUSH2 0x2CB4 JUMP JUMPDEST AND PUSH1 0x0 MSTORE DUP4 DUP2 MSTORE DUP10 DUP6 PUSH2 0x2E24 PUSH2 0x2C8 DUP10 DUP7 PUSH1 0x0 KECCAK256 SWAP5 DUP14 PUSH2 0x2CB4 JUMP JUMPDEST AND PUSH1 0x0 MSTORE DUP2 MSTORE PUSH1 0x3 DUP9 DUP12 DUP12 DUP11 TIMESTAMP DUP6 DUP9 PUSH1 0x0 KECCAK256 ADD SLOAD SUB PUSH2 0x2E56 JUMPI JUMPDEST POP POP POP POP POP POP POP POP POP POP PUSH2 0x2E51 SWAP1 PUSH2 0x2B3C JUMP JUMPDEST PUSH2 0x2D7D JUMP JUMPDEST DUP11 PUSH2 0x2E76 SWAP5 SWAP4 PUSH2 0x2E70 PUSH2 0x2C8 DUP4 PUSH2 0x414 SWAP7 PUSH2 0x2C8 SWAP7 PUSH2 0x2CB4 JUMP JUMPDEST SWAP5 PUSH2 0x2CB4 JUMP JUMPDEST PUSH1 0x4 SWAP5 DUP1 DUP7 SLOAD AND SWAP1 DUP6 MLOAD PUSH4 0x70A08231 PUSH1 0xE0 SHL DUP2 MSTORE CALLER DUP9 DUP3 ADD MSTORE PUSH1 0x24 SWAP1 DUP7 DUP2 DUP4 DUP2 DUP8 GAS STATICCALL SWAP1 DUP2 ISZERO PUSH2 0x3138 JUMPI SWAP1 DUP6 SWAP2 PUSH1 0x0 SWAP2 PUSH2 0x3194 JUMPI JUMPDEST POP LT PUSH2 0x3143 JUMPI DUP7 MLOAD PUSH4 0x6EB1769F PUSH1 0xE1 SHL DUP2 MSTORE CALLER DUP10 DUP3 ADD SWAP1 DUP2 MSTORE ADDRESS PUSH1 0x20 DUP3 ADD MSTORE DUP8 SWAP1 DUP3 SWAP1 DUP2 SWAP1 PUSH1 0x40 ADD SUB DUP2 DUP8 GAS STATICCALL SWAP1 DUP2 ISZERO PUSH2 0x3138 JUMPI SWAP1 DUP6 SWAP2 PUSH1 0x0 SWAP2 PUSH2 0x3108 JUMPI JUMPDEST POP LT PUSH2 0x30B7 JUMPI POP SWAP2 DUP5 SWAP2 PUSH2 0x2F1A SWAP4 PUSH1 0x2 SLOAD AND PUSH1 0x0 DUP9 MLOAD DUP1 SWAP7 DUP2 SWAP6 DUP3 SWAP5 PUSH4 0x23B872DD PUSH1 0xE0 SHL DUP5 MSTORE DUP14 CALLER SWAP1 DUP6 ADD PUSH2 0x2D4A JUMP JUMPDEST SUB SWAP3 GAS CALL DUP1 ISZERO PUSH2 0x30AC JUMPI SWAP7 DUP12 DUP11 DUP11 DUP16 DUP15 SWAP7 DUP6 SWAP12 SWAP11 SWAP10 SWAP9 SWAP7 PUSH2 0x2E51 SWAP15 SWAP14 PUSH2 0x308F JUMPI JUMPDEST POP DUP6 PUSH2 0x2F4B PUSH2 0x2C8 DUP6 DUP9 DUP9 PUSH2 0x2CB4 JUMP JUMPDEST AND PUSH1 0x0 MSTORE DUP11 DUP8 MSTORE DUP9 PUSH1 0x0 KECCAK256 DUP7 PUSH2 0x2F65 PUSH2 0x2C8 DUP7 DUP7 DUP14 PUSH2 0x2CB4 JUMP JUMPDEST AND PUSH1 0x0 MSTORE DUP8 MSTORE TIMESTAMP SWAP1 DUP10 PUSH1 0x0 KECCAK256 ADD SSTORE DUP5 PUSH2 0x2F82 PUSH2 0x2C8 DUP5 DUP8 DUP8 PUSH2 0x2CB4 JUMP JUMPDEST AND PUSH1 0x0 MSTORE DUP10 DUP7 MSTORE DUP8 PUSH1 0x0 KECCAK256 DUP6 PUSH2 0x2F9C PUSH2 0x2C8 DUP6 DUP6 DUP13 PUSH2 0x2CB4 JUMP JUMPDEST AND PUSH1 0x0 MSTORE DUP7 MSTORE DUP5 DUP10 DUP10 PUSH1 0x0 KECCAK256 ADD SLOAD AND PUSH2 0x300E JUMPI JUMPDEST POP SWAP6 POP SWAP3 POP SWAP3 POP POP PUSH2 0x2FC7 SWAP5 POP PUSH2 0x2C8 SWAP4 POP PUSH2 0x2CB4 JUMP JUMPDEST SWAP1 DUP1 PUSH2 0x2FD7 PUSH2 0x2C8 DUP6 DUP12 DUP11 PUSH2 0x2CB4 JUMP JUMPDEST AND SWAP2 AND PUSH32 0xE61AF2269C9AFBDB69EFCE2B15F2A464F8EE6237F105B3D4024F2E824A9F0AF3 PUSH1 0x0 DUP1 LOG3 SWAP1 CODESIZE DUP1 DUP1 DUP1 DUP1 DUP9 DUP12 DUP12 DUP11 PUSH2 0x2E3E JUMP JUMPDEST DUP10 DUP6 PUSH2 0x306A PUSH2 0x2C8 DUP6 DUP9 PUSH1 0x0 SWAP16 SWAP9 PUSH1 0x5 SWAP16 DUP16 DUP16 DUP16 DUP10 PUSH2 0x3078 SWAP16 PUSH2 0x2C8 SWAP16 DUP10 DUP16 PUSH2 0x2C8 SWAP3 DUP6 PUSH2 0x3043 PUSH2 0x2C8 DUP6 PUSH2 0x3054 SWAP9 DUP16 PUSH2 0x2CB4 JUMP JUMPDEST AND PUSH1 0x0 MSTORE DUP7 MSTORE PUSH1 0x0 DUP9 SWAP1 KECCAK256 SWAP7 PUSH2 0x2CB4 JUMP JUMPDEST AND PUSH1 0x0 MSTORE MSTORE PUSH1 0x0 KECCAK256 ADD PUSH1 0xFF NOT DUP2 SLOAD AND SWAP1 SSTORE PUSH2 0x2CB4 JUMP JUMPDEST AND DUP12 MSTORE DUP7 MSTORE DUP8 DUP11 KECCAK256 SWAP7 PUSH2 0x2CB4 JUMP JUMPDEST AND DUP6 MSTORE MSTORE DUP3 KECCAK256 ADD SSTORE CODESIZE DUP1 DUP1 DUP8 DUP2 DUP6 DUP12 DUP11 DUP10 DUP16 PUSH2 0x2FB0 JUMP JUMPDEST PUSH2 0x30A5 SWAP1 DUP9 RETURNDATASIZE DUP11 GT PUSH2 0x79E JUMPI PUSH2 0x78F DUP2 DUP4 PUSH2 0x2A5E JUMP JUMPDEST POP CODESIZE PUSH2 0x2F3B JUMP JUMPDEST DUP5 MLOAD RETURNDATASIZE PUSH1 0x0 DUP3 RETURNDATACOPY RETURNDATASIZE SWAP1 REVERT JUMPDEST DUP8 PUSH1 0x27 PUSH1 0x84 SWAP3 DUP9 DUP11 MLOAD SWAP4 PUSH3 0x461BCD PUSH1 0xE5 SHL DUP6 MSTORE DUP5 ADD MSTORE DUP3 ADD MSTORE PUSH32 0x696E73756666696369656E7420616C6C6F77616E636520746F2070617920726F PUSH1 0x44 DUP3 ADD MSTORE PUSH7 0x79616C74696573 PUSH1 0xC8 SHL PUSH1 0x64 DUP3 ADD MSTORE REVERT JUMPDEST SWAP2 POP DUP8 DUP3 DUP2 RETURNDATASIZE DUP4 GT PUSH2 0x3131 JUMPI JUMPDEST PUSH2 0x311F DUP2 DUP4 PUSH2 0x2A5E JUMP JUMPDEST DUP2 ADD SUB SLT PUSH2 0x234 JUMPI POP DUP5 SWAP1 MLOAD CODESIZE PUSH2 0x2EEA JUMP JUMPDEST POP RETURNDATASIZE PUSH2 0x3115 JUMP JUMPDEST DUP9 MLOAD RETURNDATASIZE PUSH1 0x0 DUP3 RETURNDATACOPY RETURNDATASIZE SWAP1 REVERT JUMPDEST DUP8 PUSH1 0x27 PUSH1 0x84 SWAP3 DUP9 DUP11 MLOAD SWAP4 PUSH3 0x461BCD PUSH1 0xE5 SHL DUP6 MSTORE DUP5 ADD MSTORE DUP3 ADD MSTORE PUSH32 0x6E6F742073756666696369656E742062616C616E636520746F2070617920726F PUSH1 0x44 DUP3 ADD MSTORE PUSH7 0x79616C74696573 PUSH1 0xC8 SHL PUSH1 0x64 DUP3 ADD MSTORE REVERT JUMPDEST SWAP2 POP DUP8 DUP3 DUP2 RETURNDATASIZE DUP4 GT PUSH2 0x31BD JUMPI JUMPDEST PUSH2 0x31AB DUP2 DUP4 PUSH2 0x2A5E JUMP JUMPDEST DUP2 ADD SUB SLT PUSH2 0x234 JUMPI POP DUP5 SWAP1 MLOAD CODESIZE PUSH2 0x2EAB JUMP JUMPDEST POP RETURNDATASIZE PUSH2 0x31A1 JUMP JUMPDEST PUSH1 0x84 SWAP2 MLOAD SWAP1 PUSH3 0x461BCD PUSH1 0xE5 SHL DUP3 MSTORE PUSH1 0x4 DUP3 ADD MSTORE PUSH1 0x22 PUSH1 0x24 DUP3 ADD MSTORE PUSH32 0x6F6E6C7920706978656C206F776E65722063616E2070617920726F79616C7469 PUSH1 0x44 DUP3 ADD MSTORE PUSH2 0x6573 PUSH1 0xF0 SHL PUSH1 0x64 DUP3 ADD MSTORE REVERT JUMPDEST ISZERO PUSH2 0x3218 JUMPI JUMP JUMPDEST PUSH1 0x40 MLOAD PUSH3 0x461BCD PUSH1 0xE5 SHL DUP2 MSTORE PUSH1 0x20 PUSH1 0x4 DUP3 ADD MSTORE PUSH1 0x23 PUSH1 0x24 DUP3 ADD MSTORE PUSH32 0x6E6F742073756666696369656E742062616C616E636520746F20627579207069 PUSH1 0x44 DUP3 ADD MSTORE PUSH3 0x1E195B PUSH1 0xEA SHL PUSH1 0x64 DUP3 ADD MSTORE PUSH1 0x84 SWAP1 REVERT JUMPDEST ISZERO PUSH2 0x3270 JUMPI JUMP JUMPDEST PUSH1 0x40 MLOAD PUSH3 0x461BCD PUSH1 0xE5 SHL DUP2 MSTORE PUSH1 0x20 PUSH1 0x4 DUP3 ADD MSTORE PUSH1 0x23 PUSH1 0x24 DUP3 ADD MSTORE PUSH32 0x696E73756666696369656E7420616C6C6F77616E636520746F20627579207069 PUSH1 0x44 DUP3 ADD MSTORE PUSH3 0x1E195B PUSH1 0xEA SHL PUSH1 0x64 DUP3 ADD MSTORE PUSH1 0x84 SWAP1 REVERT JUMPDEST SWAP2 SWAP1 DUP3 SUB SWAP2 DUP3 GT PUSH2 0x2045 JUMPI JUMP JUMPDEST ISZERO PUSH2 0x32D5 JUMPI JUMP JUMPDEST PUSH1 0x40 MLOAD PUSH3 0x461BCD PUSH1 0xE5 SHL DUP2 MSTORE PUSH1 0x20 PUSH1 0x4 DUP3 ADD MSTORE PUSH1 0x2C PUSH1 0x24 DUP3 ADD MSTORE PUSH32 0x6F776E65722063757272656E74206D616E616765722063616E2063616C6C2074 PUSH1 0x44 DUP3 ADD MSTORE PUSH12 0x3434B990333AB731BA34B7B7 PUSH1 0xA1 SHL PUSH1 0x64 DUP3 ADD MSTORE PUSH1 0x84 SWAP1 REVERT JUMPDEST PUSH1 0x40 MLOAD SWAP1 PUSH2 0x333C DUP3 PUSH2 0x2A28 JUMP JUMPDEST DUP2 PUSH1 0xC0 PUSH1 0x0 SWAP2 DUP3 DUP2 MSTORE DUP3 PUSH1 0x20 DUP3 ADD MSTORE DUP3 PUSH1 0x40 DUP3 ADD MSTORE PUSH1 0x60 DUP1 DUP3 ADD MSTORE DUP3 PUSH1 0x80 DUP3 ADD MSTORE DUP3 PUSH1 0xA0 DUP3 ADD MSTORE ADD MSTORE JUMP JUMPDEST PUSH1 0xFF SWAP1 PUSH2 0x3372 PUSH2 0x332F JUMP JUMPDEST POP AND SWAP1 PUSH1 0x40 SWAP2 DUP3 DUP2 LT DUP1 PUSH2 0x343E JUMPI JUMPDEST ISZERO PUSH2 0x3404 JUMPI PUSH1 0x0 MSTORE PUSH1 0x8 PUSH1 0x20 MSTORE PUSH1 0xFF DUP3 PUSH1 0x0 KECCAK256 SWAP2 AND PUSH1 0x0 MSTORE PUSH1 0x20 MSTORE PUSH1 0x5 DUP2 PUSH1 0x0 KECCAK256 DUP3 MLOAD SWAP3 PUSH2 0x33AE DUP5 PUSH2 0x2A28 JUMP JUMPDEST DUP2 SLOAD PUSH1 0x1 PUSH1 0x1 PUSH1 0xA0 SHL SUB DUP2 AND DUP6 MSTORE PUSH1 0xA0 SHR PUSH1 0xFF AND PUSH1 0x20 DUP6 ADD MSTORE PUSH1 0x1 DUP3 ADD SLOAD SWAP1 DUP5 ADD MSTORE PUSH2 0x33DC PUSH1 0x2 DUP3 ADD PUSH2 0x2A7F JUMP JUMPDEST PUSH1 0x60 DUP5 ADD MSTORE PUSH1 0x3 DUP2 ADD SLOAD PUSH1 0x80 DUP5 ADD MSTORE PUSH1 0xFF PUSH1 0x4 DUP3 ADD SLOAD AND ISZERO ISZERO PUSH1 0xA0 DUP5 ADD MSTORE ADD SLOAD PUSH1 0xC0 DUP3 ADD MSTORE SWAP1 JUMP JUMPDEST DUP3 MLOAD PUSH3 0x461BCD PUSH1 0xE5 SHL DUP2 MSTORE PUSH1 0x20 PUSH1 0x4 DUP3 ADD MSTORE PUSH1 0x13 PUSH1 0x24 DUP3 ADD MSTORE PUSH19 0x706978656C206F7574206F6620626F756E6473 PUSH1 0x68 SHL PUSH1 0x44 DUP3 ADD MSTORE PUSH1 0x64 SWAP1 REVERT JUMPDEST POP DUP3 PUSH1 0xFF DUP4 AND LT PUSH2 0x3381 JUMP JUMPDEST PUSH1 0xFF PUSH1 0x40 SWAP2 AND LT SWAP1 DUP2 ISZERO SWAP2 PUSH2 0x345D JUMPI POP SWAP1 JUMP JUMPDEST PUSH1 0x40 SWAP2 POP PUSH1 0xFF AND LT ISZERO SWAP1 JUMP JUMPDEST DUP2 DUP2 MUL SWAP3 SWAP2 DUP2 ISZERO SWAP2 DUP5 DIV EQ OR ISZERO PUSH2 0x2045 JUMPI JUMP JUMPDEST PUSH2 0x34D5 PUSH5 0x73DF16000 SWAP3 PUSH1 0x1 PUSH1 0x40 PUSH1 0xFF PUSH2 0x34E4 SWAP6 AND SWAP3 PUSH1 0x0 SWAP1 DUP5 DUP3 MSTORE PUSH1 0x8 PUSH1 0x20 MSTORE PUSH1 0xFF DUP4 DUP4 KECCAK256 SWAP2 AND SWAP1 DUP2 DUP4 MSTORE PUSH1 0x20 MSTORE PUSH2 0x34BB PUSH1 0x3 DUP5 DUP5 KECCAK256 ADD SLOAD TIMESTAMP PUSH2 0x32C1 JUMP JUMPDEST SWAP5 DUP3 MSTORE PUSH1 0x8 PUSH1 0x20 MSTORE DUP3 DUP3 KECCAK256 SWAP1 DUP3 MSTORE PUSH1 0x20 MSTORE KECCAK256 ADD SLOAD SWAP1 PUSH2 0x3469 JUMP JUMPDEST PUSH1 0xFF PUSH1 0x2 SLOAD PUSH1 0xA0 SHR AND SWAP1 PUSH2 0x3469 JUMP JUMPDEST DIV SWAP1 JUMP JUMPDEST ISZERO PUSH2 0x34EF JUMPI JUMP JUMPDEST PUSH1 0x40 MLOAD PUSH3 0x461BCD PUSH1 0xE5 SHL DUP2 MSTORE PUSH1 0x20 PUSH1 0x4 DUP3 ADD MSTORE PUSH1 0x19 PUSH1 0x24 DUP3 ADD MSTORE PUSH25 0x61756374696F6E2068617320656E64656420616C7265616479 PUSH1 0x38 SHL PUSH1 0x44 DUP3 ADD MSTORE PUSH1 0x64 SWAP1 REVERT JUMPDEST ISZERO PUSH2 0x3537 JUMPI JUMP JUMPDEST PUSH1 0x40 MLOAD PUSH3 0x461BCD PUSH1 0xE5 SHL DUP2 MSTORE PUSH1 0x20 PUSH1 0x4 DUP3 ADD MSTORE PUSH1 0x1B PUSH1 0x24 DUP3 ADD MSTORE PUSH32 0x61756374696F6E20686173206E6F742073746172746564207965740000000000 PUSH1 0x44 DUP3 ADD MSTORE PUSH1 0x64 SWAP1 REVERT JUMPDEST RETURNDATASIZE ISZERO PUSH2 0x35A7 JUMPI RETURNDATASIZE SWAP1 PUSH2 0x358D DUP3 PUSH2 0x2B4B JUMP JUMPDEST SWAP2 PUSH2 0x359B PUSH1 0x40 MLOAD SWAP4 DUP5 PUSH2 0x2A5E JUMP JUMPDEST DUP3 MSTORE RETURNDATASIZE PUSH1 0x0 PUSH1 0x20 DUP5 ADD RETURNDATACOPY JUMP JUMPDEST PUSH1 0x60 SWAP1 JUMP JUMPDEST PUSH1 0x2 PUSH1 0x0 SLOAD EQ PUSH2 0x35BD JUMPI PUSH1 0x2 PUSH1 0x0 SSTORE JUMP JUMPDEST PUSH1 0x40 MLOAD PUSH4 0x3EE5AEB5 PUSH1 0xE0 SHL DUP2 MSTORE PUSH1 0x4 SWAP1 REVERT JUMPDEST PUSH1 0xFF SWAP1 SWAP4 SWAP2 SWAP4 AND SWAP2 DUP3 ISZERO PUSH2 0x3C77 JUMPI PUSH1 0x1 DUP4 EQ PUSH2 0x3BA8 JUMPI PUSH1 0x2 DUP4 EQ PUSH2 0x3B7E JUMPI PUSH1 0x3 DUP4 EQ PUSH2 0x3B22 JUMPI PUSH1 0x4 SWAP3 DUP4 DUP2 EQ PUSH2 0x3ACE JUMPI PUSH1 0x5 DUP2 EQ PUSH2 0x3971 JUMPI PUSH1 0x6 DUP2 EQ PUSH2 0x391F JUMPI PUSH1 0x7 DUP2 EQ PUSH2 0x38B8 JUMPI PUSH1 0x8 DUP2 EQ PUSH2 0x37D5 JUMPI PUSH1 0x9 EQ PUSH2 0x363D JUMPI POP POP POP POP PUSH1 0x40 MLOAD PUSH2 0x3636 DUP2 PUSH2 0x2A43 JUMP JUMPDEST PUSH1 0x0 DUP2 MSTORE SWAP1 JUMP JUMPDEST PUSH2 0x3646 DUP5 PUSH2 0x3DB6 JUMP JUMPDEST SWAP1 PUSH2 0x3650 DUP2 PUSH2 0x3DB6 JUMP JUMPDEST PUSH1 0x8 DUP7 ADD DUP1 DUP8 GT PUSH2 0x37C0 JUMPI PUSH2 0x3664 SWAP1 PUSH2 0x3DB6 JUMP JUMPDEST SWAP5 PUSH1 0x8 DUP4 ADD DUP1 SWAP4 GT PUSH2 0x37AB JUMPI POP SWAP2 PUSH2 0x378C DUP3 PUSH2 0x37A8 SWAP7 SWAP5 PUSH2 0x3699 PUSH2 0x3693 PUSH2 0x368D PUSH1 0x49 SWAP10 SWAP8 PUSH2 0x3DB6 JUMP JUMPDEST SWAP11 PUSH2 0x3DB6 JUMP JUMPDEST SWAP3 PUSH2 0x3DB6 JUMP JUMPDEST SWAP2 PUSH1 0x40 MLOAD SWAP10 DUP11 SWAP8 PUSH1 0x2A PUSH2 0x36C9 DUP11 PUSH1 0x20 SWAP10 PUSH10 0x3C7061746820643D224D PUSH1 0xB0 SHL DUP12 DUP4 ADD MSTORE DUP11 DUP2 MLOAD SWAP5 DUP6 SWAP4 ADD SWAP2 ADD PUSH2 0x28C1 JUMP JUMPDEST DUP10 ADD SWAP4 PUSH1 0x1 PUSH1 0xFD SHL SWAP5 DUP6 PUSH1 0x2A DUP3 ADD MSTORE PUSH2 0x36EB DUP3 MLOAD DUP1 SWAP4 DUP12 PUSH1 0x2B DUP6 ADD SWAP2 ADD PUSH2 0x28C1 JUMP JUMPDEST ADD PUSH12 0x10209C101C1018101810189 PUSH1 0xA5 SHL PUSH1 0x2B DUP3 ADD MSTORE PUSH2 0x3714 DUP3 MLOAD DUP1 SWAP4 DUP11 PUSH1 0x37 DUP6 ADD SWAP2 ADD PUSH2 0x28C1 JUMP JUMPDEST ADD DUP4 PUSH1 0x37 DUP3 ADD MSTORE PUSH2 0x372E DUP3 MLOAD DUP1 SWAP4 DUP10 PUSH1 0x38 DUP6 ADD SWAP2 ADD PUSH2 0x28C1 JUMP JUMPDEST ADD PUSH2 0x813 PUSH1 0xF2 SHL PUSH1 0x38 DUP3 ADD MSTORE PUSH2 0x374D DUP3 MLOAD DUP1 SWAP4 DUP9 PUSH1 0x3A DUP6 ADD SWAP2 ADD PUSH2 0x28C1 JUMP JUMPDEST ADD SWAP1 PUSH1 0x3A DUP3 ADD MSTORE PUSH2 0x3767 DUP3 MLOAD DUP1 SWAP4 DUP7 PUSH1 0x3B DUP6 ADD SWAP2 ADD PUSH2 0x28C1 JUMP JUMPDEST ADD SWAP2 PUSH10 0x102D11103334B6361E91 PUSH1 0xB1 SHL PUSH1 0x3B DUP5 ADD MSTORE DUP4 MLOAD SWAP4 DUP5 SWAP2 PUSH1 0x45 DUP6 ADD SWAP2 ADD PUSH2 0x28C1 JUMP JUMPDEST ADD PUSH4 0x1110179F PUSH1 0xE1 SHL PUSH1 0x45 DUP3 ADD MSTORE SUB PUSH1 0x29 DUP2 ADD DUP5 MSTORE ADD DUP3 PUSH2 0x2A5E JUMP JUMPDEST SWAP1 JUMP JUMPDEST PUSH1 0x11 SWAP1 PUSH4 0x4E487B71 PUSH1 0xE0 SHL PUSH1 0x0 MSTORE MSTORE PUSH1 0x24 PUSH1 0x0 REVERT JUMPDEST PUSH1 0x11 DUP7 PUSH4 0x4E487B71 PUSH1 0xE0 SHL PUSH1 0x0 MSTORE MSTORE PUSH1 0x24 PUSH1 0x0 REVERT JUMPDEST POP SWAP3 PUSH1 0x8 DUP2 ADD SWAP4 DUP5 DUP3 GT PUSH2 0x38A3 JUMPI PUSH2 0x37EC DUP6 PUSH2 0x3DB6 JUMP JUMPDEST SWAP2 PUSH2 0x37FF PUSH2 0x37F9 DUP4 PUSH2 0x3DB6 JUMP JUMPDEST SWAP2 PUSH2 0x3DB6 JUMP JUMPDEST SWAP5 PUSH1 0x8 DUP4 ADD DUP1 SWAP4 GT PUSH2 0x37AB JUMPI POP SWAP2 PUSH2 0x378C DUP3 PUSH2 0x37A8 SWAP7 SWAP5 PUSH2 0x3828 PUSH2 0x3693 PUSH2 0x368D PUSH1 0x49 SWAP10 SWAP8 PUSH2 0x3DB6 JUMP JUMPDEST SWAP2 PUSH1 0x40 MLOAD SWAP10 DUP11 SWAP8 PUSH1 0x2A PUSH2 0x3858 DUP11 PUSH1 0x20 SWAP10 PUSH10 0x3C7061746820643D224D PUSH1 0xB0 SHL DUP12 DUP4 ADD MSTORE DUP11 DUP2 MLOAD SWAP5 DUP6 SWAP4 ADD SWAP2 ADD PUSH2 0x28C1 JUMP JUMPDEST DUP10 ADD SWAP4 PUSH1 0x1 PUSH1 0xFD SHL SWAP5 DUP6 PUSH1 0x2A DUP3 ADD MSTORE PUSH2 0x387A DUP3 MLOAD DUP1 SWAP4 DUP12 PUSH1 0x2B DUP6 ADD SWAP2 ADD PUSH2 0x28C1 JUMP JUMPDEST ADD PUSH12 0x10209C101C1018101810181 PUSH1 0xA5 SHL PUSH1 0x2B DUP3 ADD MSTORE PUSH2 0x3714 DUP3 MLOAD DUP1 SWAP4 DUP11 PUSH1 0x37 DUP6 ADD SWAP2 ADD PUSH2 0x28C1 JUMP JUMPDEST PUSH1 0x11 DUP5 PUSH4 0x4E487B71 PUSH1 0xE0 SHL PUSH1 0x0 MSTORE MSTORE PUSH1 0x24 PUSH1 0x0 REVERT JUMPDEST POP PUSH2 0x38C2 DUP5 PUSH2 0x3DB6 JUMP JUMPDEST SWAP1 PUSH2 0x38CC DUP2 PUSH2 0x3DB6 JUMP JUMPDEST PUSH1 0x8 DUP7 ADD DUP1 SWAP7 GT PUSH2 0x390A JUMPI PUSH2 0x38E0 DUP7 PUSH2 0x3DB6 JUMP JUMPDEST SWAP5 PUSH1 0x8 DUP4 ADD SWAP1 DUP2 DUP5 GT PUSH2 0x37AB JUMPI POP PUSH1 0x49 SWAP5 SWAP3 PUSH2 0x37A8 SWAP7 SWAP5 SWAP3 PUSH2 0x3828 PUSH2 0x3693 PUSH2 0x368D PUSH2 0x378C SWAP6 PUSH2 0x3DB6 JUMP JUMPDEST PUSH1 0x11 DUP6 PUSH4 0x4E487B71 PUSH1 0xE0 SHL PUSH1 0x0 MSTORE MSTORE PUSH1 0x24 PUSH1 0x0 REVERT JUMPDEST POP PUSH2 0x3929 DUP5 PUSH2 0x3DB6 JUMP JUMPDEST SWAP1 PUSH1 0x8 DUP2 ADD DUP1 DUP3 GT PUSH2 0x390A JUMPI PUSH2 0x393E SWAP1 PUSH2 0x3DB6 JUMP JUMPDEST SWAP4 PUSH1 0x8 DUP7 ADD SWAP1 DUP2 DUP8 GT PUSH2 0x37AB JUMPI POP SWAP2 PUSH2 0x378C PUSH1 0x49 SWAP5 SWAP3 PUSH2 0x3961 PUSH2 0x37A8 SWAP8 SWAP6 PUSH2 0x3DB6 JUMP JUMPDEST SWAP5 PUSH2 0x3828 PUSH2 0x3693 PUSH2 0x368D DUP5 PUSH2 0x3DB6 JUMP JUMPDEST POP SWAP3 PUSH2 0x397C DUP2 PUSH2 0x3DB6 JUMP JUMPDEST SWAP1 PUSH1 0x8 DUP6 ADD SWAP1 DUP2 DUP7 GT PUSH2 0x390A JUMPI PUSH2 0x3992 DUP3 PUSH2 0x3DB6 JUMP JUMPDEST SWAP1 PUSH2 0x39A5 PUSH2 0x399F DUP3 PUSH2 0x3DB6 JUMP JUMPDEST SWAP8 PUSH2 0x3DB6 JUMP JUMPDEST SWAP6 PUSH1 0x8 DUP3 ADD DUP1 SWAP3 GT PUSH2 0x37AB JUMPI POP PUSH1 0x3F SWAP5 SWAP3 PUSH2 0x37A8 SWAP7 SWAP5 SWAP3 PUSH2 0x39CB PUSH2 0x3693 PUSH2 0x3AB2 SWAP5 PUSH2 0x3DB6 JUMP JUMPDEST SWAP2 PUSH1 0x40 MLOAD SWAP10 DUP11 SWAP8 PUSH1 0x2A PUSH2 0x39FB DUP11 PUSH1 0x20 SWAP10 PUSH10 0x3C7061746820643D224D PUSH1 0xB0 SHL DUP12 DUP4 ADD MSTORE DUP11 DUP2 MLOAD SWAP5 DUP6 SWAP4 ADD SWAP2 ADD PUSH2 0x28C1 JUMP JUMPDEST DUP10 ADD SWAP4 PUSH1 0x1 PUSH1 0xFD SHL SWAP5 DUP6 PUSH1 0x2A DUP3 ADD MSTORE PUSH2 0x3A1D DUP3 MLOAD DUP1 SWAP4 DUP12 PUSH1 0x2B DUP6 ADD SWAP2 ADD PUSH2 0x28C1 JUMP JUMPDEST ADD SWAP2 PUSH2 0x813 PUSH1 0xF2 SHL SWAP3 DUP4 PUSH1 0x2B DUP3 ADD MSTORE PUSH2 0x3A3F DUP3 MLOAD DUP1 SWAP4 DUP12 PUSH1 0x2D DUP6 ADD SWAP2 ADD PUSH2 0x28C1 JUMP JUMPDEST ADD DUP5 PUSH1 0x2D DUP3 ADD MSTORE PUSH2 0x3A59 DUP3 MLOAD DUP1 SWAP4 DUP11 PUSH1 0x2E DUP6 ADD SWAP2 ADD PUSH2 0x28C1 JUMP JUMPDEST ADD SWAP1 PUSH1 0x2E DUP3 ADD MSTORE PUSH2 0x3A73 DUP3 MLOAD DUP1 SWAP4 DUP9 PUSH1 0x30 DUP6 ADD SWAP2 ADD PUSH2 0x28C1 JUMP JUMPDEST ADD SWAP1 PUSH1 0x30 DUP3 ADD MSTORE PUSH2 0x3A8D DUP3 MLOAD DUP1 SWAP4 DUP7 PUSH1 0x31 DUP6 ADD SWAP2 ADD PUSH2 0x28C1 JUMP JUMPDEST ADD SWAP2 PUSH10 0x103D11103334B6361E91 PUSH1 0xB1 SHL PUSH1 0x31 DUP5 ADD MSTORE DUP4 MLOAD SWAP4 DUP5 SWAP2 PUSH1 0x3B DUP6 ADD SWAP2 ADD PUSH2 0x28C1 JUMP JUMPDEST ADD PUSH4 0x1110179F PUSH1 0xE1 SHL PUSH1 0x3B DUP3 ADD MSTORE SUB PUSH1 0x1F DUP2 ADD DUP5 MSTORE ADD DUP3 PUSH2 0x2A5E JUMP JUMPDEST POP SWAP3 SWAP2 PUSH1 0x8 DUP4 ADD SWAP1 DUP2 DUP5 GT PUSH2 0x37AB JUMPI PUSH2 0x3AE6 DUP3 PUSH2 0x3DB6 JUMP JUMPDEST SWAP2 PUSH1 0x8 DUP7 ADD SWAP2 DUP3 DUP8 GT PUSH2 0x37AB JUMPI POP SWAP2 PUSH2 0x3AB2 DUP3 PUSH2 0x37A8 SWAP7 SWAP5 PUSH2 0x39CB PUSH2 0x3693 PUSH2 0x399F PUSH2 0x3B1C PUSH2 0x3B16 PUSH1 0x3F SWAP12 SWAP10 PUSH2 0x3DB6 JUMP JUMPDEST SWAP5 PUSH2 0x3DB6 JUMP JUMPDEST SWAP12 PUSH2 0x3DB6 JUMP JUMPDEST SWAP2 POP PUSH2 0x3B2D DUP4 PUSH2 0x3DB6 JUMP JUMPDEST SWAP3 PUSH2 0x3B37 DUP4 PUSH2 0x3DB6 JUMP JUMPDEST SWAP2 PUSH1 0x8 DUP3 ADD DUP1 SWAP3 GT PUSH2 0x2045 JUMPI PUSH2 0x3B4C DUP3 PUSH2 0x3DB6 JUMP JUMPDEST SWAP5 PUSH2 0x3B5F PUSH2 0x3B59 DUP7 PUSH2 0x3DB6 JUMP JUMPDEST SWAP4 PUSH2 0x3DB6 JUMP JUMPDEST SWAP5 PUSH1 0x8 DUP2 ADD DUP1 SWAP2 GT PUSH2 0x2045 JUMPI PUSH2 0x37A8 SWAP6 PUSH1 0x3F SWAP6 PUSH2 0x39CB PUSH2 0x3AB2 SWAP4 PUSH2 0x3DB6 JUMP JUMPDEST SWAP2 POP PUSH2 0x3B89 DUP4 PUSH2 0x3DB6 JUMP JUMPDEST SWAP3 PUSH2 0x3B93 DUP4 PUSH2 0x3DB6 JUMP JUMPDEST SWAP2 PUSH1 0x8 DUP3 ADD DUP1 DUP4 GT PUSH2 0x2045 JUMPI PUSH2 0x3B4C SWAP1 PUSH2 0x3DB6 JUMP JUMPDEST SWAP2 POP SWAP2 PUSH1 0x4 DUP2 ADD DUP1 SWAP2 GT PUSH2 0x2045 JUMPI PUSH2 0x3BBF SWAP1 PUSH2 0x3DB6 JUMP JUMPDEST SWAP1 PUSH1 0x4 DUP2 ADD DUP1 SWAP2 GT PUSH2 0x2045 JUMPI PUSH2 0x37A8 SWAP2 PUSH2 0x3BDA PUSH1 0x44 SWAP3 PUSH2 0x3DB6 JUMP JUMPDEST SWAP4 PUSH1 0x40 MLOAD SWAP5 DUP6 SWAP3 PUSH12 0x1E31B4B931B6329031BC1E91 PUSH1 0xA1 SHL PUSH1 0x20 DUP6 ADD MSTORE PUSH2 0x3C0A DUP2 MLOAD DUP1 SWAP3 PUSH1 0x20 PUSH1 0x2C DUP9 ADD SWAP2 ADD PUSH2 0x28C1 JUMP JUMPDEST DUP4 ADD PUSH6 0x111031BC9E91 PUSH1 0xD1 SHL PUSH1 0x2C DUP3 ADD MSTORE PUSH2 0x3C2F DUP3 MLOAD DUP1 SWAP4 PUSH1 0x20 PUSH1 0x32 DUP6 ADD SWAP2 ADD PUSH2 0x28C1 JUMP JUMPDEST ADD PUSH14 0x1110391E911A11103334B6361E91 PUSH1 0x91 SHL PUSH1 0x32 DUP3 ADD MSTORE PUSH2 0x3C5B DUP3 MLOAD DUP1 SWAP4 PUSH1 0x20 PUSH1 0x40 DUP6 ADD SWAP2 ADD PUSH2 0x28C1 JUMP JUMPDEST ADD PUSH4 0x1110179F PUSH1 0xE1 SHL PUSH1 0x40 DUP3 ADD MSTORE SUB PUSH1 0x24 DUP2 ADD DUP5 MSTORE ADD DUP3 PUSH2 0x2A5E JUMP JUMPDEST PUSH2 0x37A8 SWAP3 POP PUSH2 0x3C8B PUSH2 0x37F9 PUSH1 0x4F SWAP4 SWAP6 PUSH2 0x3DB6 JUMP JUMPDEST SWAP4 PUSH1 0x40 MLOAD SWAP5 DUP6 SWAP3 PUSH9 0x1E3932B1BA103C1E91 PUSH1 0xB9 SHL PUSH1 0x20 DUP6 ADD MSTORE PUSH2 0x3CB8 DUP2 MLOAD DUP1 SWAP3 PUSH1 0x20 PUSH1 0x29 DUP9 ADD SWAP2 ADD PUSH2 0x28C1 JUMP JUMPDEST DUP4 ADD PUSH5 0x11103C9E91 PUSH1 0xD9 SHL PUSH1 0x29 DUP3 ADD MSTORE PUSH2 0x3CDC DUP3 MLOAD DUP1 SWAP4 PUSH1 0x20 PUSH1 0x2E DUP6 ADD SWAP2 ADD PUSH2 0x28C1 JUMP JUMPDEST ADD PUSH32 0x222077696474683D223822206865696768743D2238222066696C6C3D22000000 PUSH1 0x2E DUP3 ADD MSTORE PUSH2 0x3D17 DUP3 MLOAD DUP1 SWAP4 PUSH1 0x20 PUSH1 0x4B DUP6 ADD SWAP2 ADD PUSH2 0x28C1 JUMP JUMPDEST ADD PUSH4 0x1110179F PUSH1 0xE1 SHL PUSH1 0x4B DUP3 ADD MSTORE SUB PUSH1 0x2F DUP2 ADD DUP5 MSTORE ADD DUP3 PUSH2 0x2A5E JUMP JUMPDEST PUSH1 0x0 SWAP3 SWAP2 DUP2 SLOAD PUSH2 0x3D42 DUP2 PUSH2 0x29DB JUMP JUMPDEST SWAP3 PUSH1 0x1 SWAP2 DUP1 DUP4 AND SWAP1 DUP2 ISZERO PUSH2 0x3D9B JUMPI POP PUSH1 0x1 EQ PUSH2 0x3D5F JUMPI JUMPDEST POP POP POP POP JUMP JUMPDEST SWAP1 SWAP2 SWAP3 SWAP4 SWAP5 POP PUSH1 0x0 MSTORE PUSH1 0x20 SWAP1 DUP2 PUSH1 0x0 KECCAK256 SWAP1 PUSH1 0x0 SWAP2 JUMPDEST DUP6 DUP4 LT PUSH2 0x3D8A JUMPI POP POP POP POP ADD SWAP1 CODESIZE DUP1 DUP1 DUP1 PUSH2 0x3D59 JUMP JUMPDEST DUP1 SLOAD DUP6 DUP5 ADD MSTORE SWAP2 DUP4 ADD SWAP2 DUP2 ADD PUSH2 0x3D74 JUMP JUMPDEST PUSH1 0xFF NOT AND DUP5 MSTORE POP POP POP DUP2 ISZERO ISZERO SWAP1 SWAP2 MUL ADD SWAP2 POP CODESIZE DUP1 DUP1 DUP1 PUSH2 0x3D59 JUMP JUMPDEST DUP1 ISZERO PUSH2 0x3E76 JUMPI DUP1 DUP2 PUSH1 0x0 SWAP3 JUMPDEST PUSH2 0x3E62 JUMPI POP DUP1 PUSH2 0x3DD1 DUP4 PUSH2 0x2B4B JUMP JUMPDEST SWAP3 PUSH2 0x3DDF PUSH1 0x40 MLOAD SWAP5 DUP6 PUSH2 0x2A5E JUMP JUMPDEST DUP1 DUP5 MSTORE PUSH1 0x1F NOT PUSH2 0x3DEE DUP3 PUSH2 0x2B4B JUMP JUMPDEST ADD CALLDATASIZE PUSH1 0x20 DUP7 ADD CALLDATACOPY SWAP2 JUMPDEST PUSH2 0x3E00 JUMPI POP POP SWAP1 JUMP JUMPDEST PUSH1 0x0 NOT DUP3 ADD SWAP2 DUP1 DUP4 GT PUSH2 0x2045 JUMPI DUP3 PUSH1 0xA SWAP1 DUP2 DUP5 DIV SWAP4 DUP3 DUP6 MUL SWAP3 DUP6 DUP5 DIV EQ DUP6 ISZERO OR ISZERO PUSH2 0x2045 JUMPI PUSH2 0x3E32 PUSH1 0xFF SWAP4 DUP5 SWAP3 PUSH2 0x32C1 JUMP JUMPDEST AND PUSH1 0x30 ADD SWAP2 DUP3 GT PUSH2 0x2045 JUMPI DUP6 MLOAD GT ISZERO PUSH2 0x2C9E JUMPI PUSH1 0xF8 SHL PUSH1 0x1 PUSH1 0x1 PUSH1 0xF8 SHL SUB NOT AND PUSH1 0x0 BYTE SWAP1 DUP5 ADD PUSH1 0x1F ADD MSTORE8 DUP1 PUSH2 0x3DF7 JUMP JUMPDEST SWAP2 PUSH2 0x3E6E PUSH1 0xA SWAP2 PUSH2 0x2B3C JUMP JUMPDEST SWAP3 DIV DUP1 PUSH2 0x3DC2 JUMP JUMPDEST POP PUSH1 0x40 MLOAD PUSH1 0x40 DUP2 ADD DUP2 DUP2 LT PUSH1 0x1 PUSH1 0x1 PUSH1 0x40 SHL SUB DUP3 GT OR PUSH2 0x1029 JUMPI PUSH1 0x40 MSTORE PUSH1 0x1 DUP2 MSTORE PUSH1 0x3 PUSH1 0xFC SHL PUSH1 0x20 DUP3 ADD MSTORE SWAP1 JUMP INVALID LOG2 PUSH5 0x6970667358 0x22 SLT KECCAK256 PUSH1 0x53 0xC1 0xED DUP11 PUSH7 0x9095460C86E1AB CODECOPY 0x22 0xB1 0xB0 SWAP12 STOP 0xD3 JUMPI 0xB6 0xB9 0xAA 0xC9 PUSH29 0xE6C5CC60478B64736F6C63430008140033608080604052346100165761 SMOD SWAP5 SWAP1 DUP2 PUSH2 0x1C DUP3 CODECOPY RETURN JUMPDEST PUSH1 0x0 DUP1 REVERT INVALID PUSH1 0x80 PUSH1 0x40 MSTORE PUSH1 0x4 CALLDATASIZE LT ISZERO PUSH2 0x12 JUMPI PUSH1 0x0 DUP1 REVERT JUMPDEST PUSH1 0x0 DUP1 CALLDATALOAD PUSH1 0xE0 SHR SWAP1 DUP2 PUSH4 0x2E08D602 EQ PUSH2 0x7A JUMPI POP DUP1 PUSH4 0x58161A42 EQ PUSH2 0x75 JUMPI DUP1 PUSH4 0xB8616195 EQ PUSH2 0x70 JUMPI DUP1 PUSH4 0xCF06C7B7 EQ PUSH2 0x6B JUMPI DUP1 PUSH4 0xDD1D2599 EQ PUSH2 0x66 JUMPI PUSH4 0xE27D5153 EQ PUSH2 0x61 JUMPI PUSH1 0x0 DUP1 REVERT JUMPDEST PUSH2 0x3F7 JUMP JUMPDEST PUSH2 0x3D6 JUMP JUMPDEST PUSH2 0x3B0 JUMP JUMPDEST PUSH2 0x2BB JUMP JUMPDEST PUSH2 0x20D JUMP JUMPDEST CALLVALUE PUSH2 0x151 JUMPI PUSH1 0x20 CALLDATASIZE PUSH1 0x3 NOT ADD SLT PUSH2 0x151 JUMPI PUSH1 0x4 CALLDATALOAD PUSH8 0xFFFFFFFFFFFFFFFF DUP2 GT PUSH2 0x14D JUMPI PUSH2 0xAB SWAP1 CALLDATASIZE SWAP1 PUSH1 0x4 ADD PUSH2 0x1AD JUMP JUMPDEST PUSH1 0x1 DUP1 DUP3 MLOAD GT ISZERO PUSH2 0xFC JUMPI DUP1 JUMPDEST PUSH2 0xDE JUMPI JUMPDEST PUSH2 0xDA PUSH2 0xC9 DUP4 PUSH2 0x45A JUMP JUMPDEST MLOAD PUSH1 0x40 MLOAD SWAP1 DUP2 MSTORE SWAP1 DUP2 SWAP1 PUSH1 0x20 DUP3 ADD SWAP1 JUMP JUMPDEST SUB SWAP1 RETURN JUMPDEST DUP1 DUP3 MLOAD GT ISZERO PUSH2 0xF7 JUMPI PUSH2 0xF1 DUP2 SWAP3 PUSH2 0x511 JUMP JUMPDEST SWAP2 PUSH2 0xB8 JUMP JUMPDEST PUSH2 0xBD JUMP JUMPDEST PUSH1 0x40 MLOAD PUSH3 0x461BCD PUSH1 0xE5 SHL DUP2 MSTORE PUSH1 0x20 PUSH1 0x4 DUP3 ADD MSTORE PUSH1 0x23 PUSH1 0x24 DUP3 ADD MSTORE PUSH32 0x776F6E27742067656E657261746520726F6F7420666F722073696E676C65206C PUSH1 0x44 DUP3 ADD MSTORE PUSH3 0x32B0B3 PUSH1 0xE9 SHL PUSH1 0x64 DUP3 ADD MSTORE PUSH1 0x84 SWAP1 REVERT JUMPDEST POP DUP1 REVERT JUMPDEST DUP1 REVERT JUMPDEST PUSH4 0x4E487B71 PUSH1 0xE0 SHL PUSH1 0x0 MSTORE PUSH1 0x41 PUSH1 0x4 MSTORE PUSH1 0x24 PUSH1 0x0 REVERT JUMPDEST PUSH1 0x40 MLOAD SWAP2 SWAP1 PUSH1 0x1F ADD PUSH1 0x1F NOT AND DUP3 ADD PUSH8 0xFFFFFFFFFFFFFFFF DUP2 GT DUP4 DUP3 LT OR PUSH2 0x190 JUMPI PUSH1 0x40 MSTORE JUMP JUMPDEST PUSH2 0x154 JUMP JUMPDEST PUSH8 0xFFFFFFFFFFFFFFFF DUP2 GT PUSH2 0x190 JUMPI PUSH1 0x5 SHL PUSH1 0x20 ADD SWAP1 JUMP JUMPDEST SWAP1 DUP1 PUSH1 0x1F DUP4 ADD SLT ISZERO PUSH2 0x208 JUMPI DUP2 CALLDATALOAD SWAP1 PUSH2 0x1CD PUSH2 0x1C8 DUP4 PUSH2 0x195 JUMP JUMPDEST PUSH2 0x16A JUMP JUMPDEST SWAP2 DUP3 SWAP4 DUP2 DUP5 MSTORE PUSH1 0x20 DUP1 DUP1 SWAP6 ADD SWAP3 PUSH1 0x5 SHL DUP3 ADD ADD SWAP3 DUP4 GT PUSH2 0x208 JUMPI DUP4 ADD SWAP1 JUMPDEST DUP3 DUP3 LT PUSH2 0x1F9 JUMPI POP POP POP POP SWAP1 JUMP JUMPDEST DUP2 CALLDATALOAD DUP2 MSTORE SWAP1 DUP4 ADD SWAP1 DUP4 ADD PUSH2 0x1EB JUMP JUMPDEST PUSH1 0x0 DUP1 REVERT JUMPDEST CALLVALUE PUSH2 0x208 JUMPI PUSH1 0x60 CALLDATASIZE PUSH1 0x3 NOT ADD SLT PUSH2 0x208 JUMPI PUSH1 0x24 CALLDATALOAD PUSH8 0xFFFFFFFFFFFFFFFF DUP2 GT PUSH2 0x208 JUMPI PUSH2 0x23E SWAP1 CALLDATASIZE SWAP1 PUSH1 0x4 ADD PUSH2 0x1AD JUMP JUMPDEST PUSH1 0x44 CALLDATALOAD DUP2 MLOAD PUSH1 0x0 SWAP3 JUMPDEST DUP2 DUP5 LT PUSH2 0x25D JUMPI PUSH1 0x40 MLOAD PUSH1 0x4 CALLDATALOAD DUP5 EQ DUP2 MSTORE PUSH1 0x20 SWAP1 RETURN JUMPDEST SWAP1 SWAP2 PUSH2 0x276 PUSH1 0x1 SWAP2 PUSH2 0x26F DUP7 DUP6 PUSH2 0x47D JUMP JUMPDEST MLOAD SWAP1 PUSH2 0x437 JUMP JUMPDEST SWAP4 ADD SWAP3 SWAP2 SWAP1 PUSH2 0x247 JUMP JUMPDEST PUSH1 0x20 SWAP1 DUP2 PUSH1 0x40 DUP2 DUP4 ADD SWAP3 DUP3 DUP2 MSTORE DUP6 MLOAD DUP1 SWAP5 MSTORE ADD SWAP4 ADD SWAP2 PUSH1 0x0 JUMPDEST DUP3 DUP2 LT PUSH2 0x2A7 JUMPI POP POP POP POP SWAP1 JUMP JUMPDEST DUP4 MLOAD DUP6 MSTORE SWAP4 DUP2 ADD SWAP4 SWAP3 DUP2 ADD SWAP3 PUSH1 0x1 ADD PUSH2 0x299 JUMP JUMPDEST CALLVALUE PUSH2 0x208 JUMPI PUSH1 0x40 CALLDATASIZE PUSH1 0x3 NOT ADD SLT PUSH2 0x208 JUMPI PUSH1 0x4 CALLDATALOAD PUSH8 0xFFFFFFFFFFFFFFFF DUP2 GT PUSH2 0x208 JUMPI PUSH2 0x2EC SWAP1 CALLDATASIZE SWAP1 PUSH1 0x4 ADD PUSH2 0x1AD JUMP JUMPDEST PUSH1 0x24 CALLDATALOAD SWAP1 PUSH1 0x1 SWAP1 PUSH2 0x2FF DUP3 DUP3 MLOAD GT PUSH2 0x491 JUMP JUMPDEST PUSH2 0x311 PUSH2 0x30C DUP3 MLOAD PUSH2 0x632 JUMP JUMPDEST PUSH2 0x4E9 JUMP JUMPDEST SWAP3 PUSH1 0x0 DUP1 DUP5 JUMPDEST PUSH2 0x32A JUMPI JUMPDEST PUSH1 0x40 MLOAD DUP1 PUSH2 0xDA DUP9 DUP3 PUSH2 0x280 JUMP JUMPDEST DUP4 MLOAD DUP6 DUP2 GT ISZERO PUSH2 0x3AA JUMPI DUP6 DUP5 SWAP4 SWAP3 PUSH2 0x36F SWAP3 DUP3 DUP1 DUP1 SWAP9 AND EQ PUSH1 0x0 EQ PUSH2 0x379 JUMPI POP PUSH2 0x358 PUSH1 0x0 NOT DUP7 ADD DUP9 PUSH2 0x47D JUMP JUMPDEST MLOAD PUSH2 0x363 DUP3 DUP12 PUSH2 0x47D JUMP JUMPDEST MSTORE JUMPDEST ADD SWAP3 DUP5 SHR SWAP5 PUSH2 0x511 JUMP JUMPDEST SWAP4 SWAP3 SWAP2 SWAP1 SWAP2 PUSH2 0x317 JUMP JUMPDEST DUP6 DUP4 ADD SWAP1 DUP2 SUB PUSH2 0x395 JUMPI POP DUP4 PUSH2 0x38F DUP3 DUP12 PUSH2 0x47D JUMP JUMPDEST MSTORE PUSH2 0x365 JUMP JUMPDEST PUSH2 0x39F SWAP1 DUP9 PUSH2 0x47D JUMP JUMPDEST MLOAD PUSH2 0x38F DUP3 DUP12 PUSH2 0x47D JUMP JUMPDEST POP PUSH2 0x31C JUMP JUMPDEST CALLVALUE PUSH2 0x208 JUMPI PUSH1 0x20 CALLDATASIZE PUSH1 0x3 NOT ADD SLT PUSH2 0x208 JUMPI PUSH1 0x20 PUSH2 0x3CE PUSH1 0x4 CALLDATALOAD PUSH2 0x632 JUMP JUMPDEST PUSH1 0x40 MLOAD SWAP1 DUP2 MSTORE RETURN JUMPDEST CALLVALUE PUSH2 0x208 JUMPI PUSH1 0x40 CALLDATASIZE PUSH1 0x3 NOT ADD SLT PUSH2 0x208 JUMPI PUSH1 0x20 PUSH2 0x3CE PUSH1 0x24 CALLDATALOAD PUSH1 0x4 CALLDATALOAD PUSH2 0x437 JUMP JUMPDEST CALLVALUE PUSH2 0x208 JUMPI PUSH1 0x20 CALLDATASIZE PUSH1 0x3 NOT ADD SLT PUSH2 0x208 JUMPI PUSH1 0x4 CALLDATALOAD DUP1 PUSH1 0x0 DUP2 JUMPDEST PUSH2 0x42A JUMPI PUSH1 0x20 SWAP3 POP PUSH1 0x40 MLOAD SWAP2 DUP1 PUSH1 0x1 DUP2 NOT ADD AND EQ SWAP1 SUB DUP2 MSTORE RETURN JUMPDEST PUSH1 0x1 SWAP3 DUP4 SHR SWAP3 ADD DUP3 PUSH2 0x410 JUMP JUMPDEST DUP2 DUP2 LT ISZERO PUSH2 0x44E JUMPI PUSH1 0x0 MSTORE PUSH1 0x20 MSTORE JUMPDEST PUSH1 0x40 PUSH1 0x0 KECCAK256 SWAP1 JUMP JUMPDEST SWAP1 PUSH1 0x0 MSTORE PUSH1 0x20 MSTORE PUSH2 0x446 JUMP JUMPDEST DUP1 MLOAD ISZERO PUSH2 0x467 JUMPI PUSH1 0x20 ADD SWAP1 JUMP JUMPDEST PUSH4 0x4E487B71 PUSH1 0xE0 SHL PUSH1 0x0 MSTORE PUSH1 0x32 PUSH1 0x4 MSTORE PUSH1 0x24 PUSH1 0x0 REVERT JUMPDEST DUP1 MLOAD DUP3 LT ISZERO PUSH2 0x467 JUMPI PUSH1 0x20 SWAP2 PUSH1 0x5 SHL ADD ADD SWAP1 JUMP JUMPDEST ISZERO PUSH2 0x498 JUMPI JUMP JUMPDEST PUSH1 0x40 MLOAD PUSH3 0x461BCD PUSH1 0xE5 SHL DUP2 MSTORE PUSH1 0x20 PUSH1 0x4 DUP3 ADD MSTORE PUSH1 0x24 DUP1 DUP3 ADD MSTORE PUSH32 0x776F6E27742067656E65726174652070726F6F6620666F722073696E676C6520 PUSH1 0x44 DUP3 ADD MSTORE PUSH4 0x3632B0B3 PUSH1 0xE1 SHL PUSH1 0x64 DUP3 ADD MSTORE PUSH1 0x84 SWAP1 REVERT JUMPDEST SWAP1 PUSH2 0x4F6 PUSH2 0x1C8 DUP4 PUSH2 0x195 JUMP JUMPDEST DUP3 DUP2 MSTORE DUP1 SWAP3 PUSH2 0x507 PUSH1 0x1F NOT SWAP2 PUSH2 0x195 JUMP JUMPDEST ADD SWAP1 PUSH1 0x20 CALLDATASIZE SWAP2 ADD CALLDATACOPY JUMP JUMPDEST SWAP1 DUP2 MLOAD PUSH1 0x1 SWAP1 DUP2 DUP1 DUP3 AND EQ PUSH1 0x0 EQ PUSH2 0x5A9 JUMPI PUSH2 0x530 DUP3 DUP3 DUP2 SHR ADD PUSH2 0x4E9 JUMP JUMPDEST SWAP2 PUSH1 0x0 NOT PUSH2 0x540 DUP4 DUP3 ADD DUP8 PUSH2 0x47D JUMP JUMPDEST MLOAD PUSH1 0x0 DUP1 MSTORE PUSH1 0x20 MSTORE PUSH2 0x55A PUSH1 0x40 PUSH1 0x0 KECCAK256 SWAP2 DUP6 MLOAD ADD DUP6 PUSH2 0x47D JUMP JUMPDEST MSTORE JUMPDEST PUSH1 0x0 NOT SWAP1 SWAP2 ADD SWAP1 PUSH1 0x0 DUP1 JUMPDEST DUP4 DUP3 LT PUSH2 0x577 JUMPI POP SWAP3 SWAP5 POP POP POP POP JUMP JUMPDEST DUP3 PUSH1 0x2 SWAP2 PUSH2 0x595 PUSH2 0x588 DUP6 DUP12 PUSH2 0x47D JUMP JUMPDEST MLOAD PUSH2 0x26F DUP5 DUP8 ADD DUP13 PUSH2 0x47D JUMP JUMPDEST PUSH2 0x59F DUP3 DUP10 PUSH2 0x47D JUMP JUMPDEST MSTORE ADD SWAP2 ADD SWAP1 PUSH2 0x567 JUMP JUMPDEST PUSH2 0x5B4 DUP2 DUP4 SHR PUSH2 0x4E9 JUMP JUMPDEST SWAP2 PUSH2 0x55C JUMP JUMPDEST SWAP1 PUSH1 0x40 DUP3 ADD DUP1 SWAP3 GT PUSH2 0x5C8 JUMPI JUMP JUMPDEST PUSH4 0x4E487B71 PUSH1 0xE0 SHL PUSH1 0x0 MSTORE PUSH1 0x11 PUSH1 0x4 MSTORE PUSH1 0x24 PUSH1 0x0 REVERT JUMPDEST SWAP1 PUSH1 0x20 DUP3 ADD DUP1 SWAP3 GT PUSH2 0x5C8 JUMPI JUMP JUMPDEST SWAP1 PUSH1 0x10 DUP3 ADD DUP1 SWAP3 GT PUSH2 0x5C8 JUMPI JUMP JUMPDEST SWAP1 PUSH1 0x8 DUP3 ADD DUP1 SWAP3 GT PUSH2 0x5C8 JUMPI JUMP JUMPDEST SWAP1 PUSH1 0x4 DUP3 ADD DUP1 SWAP3 GT PUSH2 0x5C8 JUMPI JUMP JUMPDEST SWAP1 PUSH1 0x2 DUP3 ADD DUP1 SWAP3 GT PUSH2 0x5C8 JUMPI JUMP JUMPDEST SWAP1 PUSH1 0x1 DUP3 ADD DUP1 SWAP3 GT PUSH2 0x5C8 JUMPI JUMP JUMPDEST PUSH1 0x1 DUP2 GT ISZERO PUSH2 0x758 JUMPI PUSH1 0x0 SWAP1 DUP1 PUSH1 0x1 PUSH1 0x80 SHL DUP2 LT ISZERO PUSH2 0x74D JUMPI JUMPDEST PUSH1 0x2 SWAP1 PUSH1 0x1 PUSH1 0x40 SHL DUP2 LT ISZERO PUSH2 0x73A JUMPI JUMPDEST PUSH5 0x100000000 DUP2 LT ISZERO PUSH2 0x727 JUMPI JUMPDEST PUSH3 0x10000 DUP2 LT ISZERO PUSH2 0x714 JUMPI JUMPDEST PUSH2 0x100 DUP2 LT ISZERO PUSH2 0x701 JUMPI JUMPDEST PUSH1 0x10 DUP2 LT ISZERO PUSH2 0x6EE JUMPI JUMPDEST PUSH1 0x4 DUP2 LT ISZERO PUSH2 0x6DC JUMPI JUMPDEST LT ISZERO PUSH2 0x6CC JUMPI JUMPDEST DUP1 PUSH2 0x6A7 DUP2 NOT PUSH2 0x624 JUMP JUMPDEST AND EQ DUP1 PUSH2 0x6C3 JUMPI JUMPDEST ISZERO PUSH2 0x6B7 JUMPI SWAP1 JUMP JUMPDEST PUSH2 0x6C0 SWAP1 PUSH2 0x624 JUMP JUMPDEST SWAP1 JUMP JUMPDEST POP DUP1 ISZERO ISZERO PUSH2 0x6AF JUMP JUMPDEST SWAP1 PUSH2 0x6D6 SWAP1 PUSH2 0x624 JUMP JUMPDEST SWAP1 PUSH2 0x69C JUMP JUMPDEST PUSH2 0x6E8 SWAP1 DUP3 SHR SWAP4 PUSH2 0x616 JUMP JUMPDEST SWAP3 PUSH2 0x695 JUMP JUMPDEST PUSH2 0x6FB SWAP1 PUSH1 0x4 SHR SWAP4 PUSH2 0x608 JUMP JUMPDEST SWAP3 PUSH2 0x68B JUMP JUMPDEST PUSH2 0x70E SWAP1 PUSH1 0x8 SHR SWAP4 PUSH2 0x5FA JUMP JUMPDEST SWAP3 PUSH2 0x681 JUMP JUMPDEST PUSH2 0x721 SWAP1 PUSH1 0x10 SHR SWAP4 PUSH2 0x5EC JUMP JUMPDEST SWAP3 PUSH2 0x676 JUMP JUMPDEST PUSH2 0x734 SWAP1 PUSH1 0x20 SHR SWAP4 PUSH2 0x5DE JUMP JUMPDEST SWAP3 PUSH2 0x66A JUMP JUMPDEST PUSH2 0x747 SWAP1 PUSH1 0x40 SHR SWAP4 PUSH2 0x5BA JUMP JUMPDEST SWAP3 PUSH2 0x65C JUMP JUMPDEST PUSH1 0x80 SWAP3 POP DUP3 SHR PUSH2 0x64C JUMP JUMPDEST POP PUSH1 0x0 SWAP1 JUMP INVALID LOG2 PUSH5 0x6970667358 0x22 SLT KECCAK256 0x29 MSIZE PUSH14 0xB90313B4FB257EFD2FBF9BA954B5 LOG2 SDIV 0x4B RETURN DIV LOG0 0xAA ISZERO CREATE2 0xE7 DUP5 CODECOPY 0xE1 0x2F NUMBER PUSH5 0x736F6C6343 STOP ADDMOD EQ STOP CALLER "},"methodIdentifiers":{"ARTISTIC_PERIOD()":"3323a706","AUCTION_DURATION()":"a271e525","CYCLE_PERIOD()":"113bc999","VOTING_PERIOD()":"b1610d7e","auctionClaims(uint256,address)":"44d6b6d2","auctionClaimsFlag(uint256,address)":"7000c3e8","balanceOf(address)":"70a08231","buyPixel(uint8[],uint8[])":"ec18fb5f","calculateRoyalties(uint8,uint8)":"74d3e777","canvasCreation()":"ff188dca","castVote(bool)":"7ace48e7","checkMultiplePixel(uint8[],uint8[])":"0734d144","checkPixel(uint8,uint8)":"d84cd450","checkVoteOutcome(uint256)":"5c8c6407","closeAuction(uint256)":"236ed8f3","fillPixel(bytes[])":"3bdb693e","generateMerkle()":"a52f27b5","generateSVG()":"ad711e9e","getAuctionClaimFlag(uint256,address)":"d7638d80","getAuctionClaims(uint256,address)":"166db008","getBalance(address)":"f8b2cb4f","getCurrentCycle()":"be26ed7f","getMintDate(uint256)":"bc5bc2fb","hasVoted(address)":"09eef43e","isInArtisticPeriod()":"4882a7ea","isInVotingPeriod()":"b3a1ddf4","manager()":"481c6a75","maxHeight()":"63aa5ce2","maxWidth()":"6006ecc8","mintDates(uint256)":"c4323fc1","nftAuctions(uint256)":"93cde51a","nftContract()":"d56d229d","payRoyalties(uint8[],uint8[])":"3123a62b","pixelSVGs(uint256)":"c4e4b90c","placeBid(uint256)":"9979ef45","rowSVGs(uint256)":"e1245900","royaltyAskPeriod()":"6e70fcc6","royaltyDenominator()":"fd8d7ed3","royaltyRate()":"c4d1510d","seekRoyaltyPayment(uint8,uint8,uint256)":"02d13f02","setNFTContract(address)":"a7ccabdf","setPixelValue(uint8[],uint8[],uint256[])":"907e9959","updateCurrency(address)":"5e027601","voteRegister(uint256)":"30b5d6d3","window(uint8,uint8)":"aeeacbeb","withdrawPixelProceeds(uint256)":"ccba3617"}}}}}