{"contracts/Pixelmap.sol":{"Pixelmap":{"abi":[{"inputs":[],"stateMutability":"nonpayable","type":"constructor"},{"inputs":[],"name":"ReentrancyGuardReentrantCall","type":"error"},{"anonymous":false,"inputs":[{"indexed":false,"internalType":"uint256","name":"tokenID","type":"uint256"},{"indexed":false,"internalType":"address","name":"bidder","type":"address"},{"indexed":false,"internalType":"uint256","name":"bid","type":"uint256"}],"name":"AuctionEnded","type":"event"},{"anonymous":false,"inputs":[{"indexed":false,"internalType":"uint256","name":"tokenID","type":"uint256"},{"indexed":false,"internalType":"address","name":"bidder","type":"address"},{"indexed":false,"internalType":"uint256","name":"bid","type":"uint256"}],"name":"BidPlace","type":"event"},{"anonymous":false,"inputs":[{"indexed":false,"internalType":"uint256","name":"tokenID","type":"uint256"},{"indexed":false,"internalType":"address","name":"bidder","type":"address"},{"indexed":false,"internalType":"uint256","name":"bid","type":"uint256"}],"name":"BidWithdrawn","type":"event"},{"anonymous":false,"inputs":[{"indexed":false,"internalType":"uint256","name":"cycle","type":"uint256"}],"name":"NFTMinted","type":"event"},{"anonymous":false,"inputs":[{"indexed":true,"internalType":"uint256","name":"x","type":"uint256"},{"indexed":true,"internalType":"uint256","name":"y","type":"uint256"}],"name":"PixelBought","type":"event"},{"anonymous":false,"inputs":[{"indexed":true,"internalType":"uint256","name":"x","type":"uint256"},{"indexed":true,"internalType":"uint256","name":"y","type":"uint256"}],"name":"PixelFilled","type":"event"},{"anonymous":false,"inputs":[{"indexed":true,"internalType":"uint256","name":"x","type":"uint256"},{"indexed":true,"internalType":"uint256","name":"y","type":"uint256"}],"name":"PixelValueSet","type":"event"},{"anonymous":false,"inputs":[{"indexed":true,"internalType":"uint256","name":"x","type":"uint256"},{"indexed":true,"internalType":"uint256","name":"y","type":"uint256"}],"name":"RoyaltiesPaid","type":"event"},{"anonymous":false,"inputs":[{"indexed":true,"internalType":"address","name":"owner","type":"address"}],"name":"VoteCasted","type":"event"},{"inputs":[],"name":"ARTISTIC_PERIOD","outputs":[{"internalType":"uint256","name":"","type":"uint256"}],"stateMutability":"view","type":"function"},{"inputs":[],"name":"AUCTION_DURATION","outputs":[{"internalType":"uint256","name":"","type":"uint256"}],"stateMutability":"view","type":"function"},{"inputs":[],"name":"CYCLE_PERIOD","outputs":[{"internalType":"uint256","name":"","type":"uint256"}],"stateMutability":"view","type":"function"},{"inputs":[],"name":"VOTING_PERIOD","outputs":[{"internalType":"uint256","name":"","type":"uint256"}],"stateMutability":"view","type":"function"},{"inputs":[{"internalType":"uint256","name":"","type":"uint256"},{"internalType":"address","name":"","type":"address"}],"name":"auctionClaims","outputs":[{"internalType":"uint256","name":"","type":"uint256"}],"stateMutability":"view","type":"function"},{"inputs":[{"internalType":"uint256","name":"","type":"uint256"},{"internalType":"address","name":"","type":"address"}],"name":"auctionClaimsFlag","outputs":[{"internalType":"bool","name":"","type":"bool"}],"stateMutability":"view","type":"function"},{"inputs":[{"internalType":"address","name":"","type":"address"}],"name":"balanceOf","outputs":[{"internalType":"uint256","name":"","type":"uint256"}],"stateMutability":"view","type":"function"},{"inputs":[{"internalType":"uint256[]","name":"xValues","type":"uint256[]"},{"internalType":"uint256[]","name":"yValues","type":"uint256[]"}],"name":"buyPixel","outputs":[],"stateMutability":"nonpayable","type":"function"},{"inputs":[{"internalType":"uint256","name":"x","type":"uint256"},{"internalType":"uint256","name":"y","type":"uint256"}],"name":"calculateRoyalties","outputs":[{"internalType":"uint256","name":"","type":"uint256"}],"stateMutability":"view","type":"function"},{"inputs":[],"name":"canvasCreation","outputs":[{"internalType":"uint256","name":"","type":"uint256"}],"stateMutability":"view","type":"function"},{"inputs":[{"internalType":"bool","name":"vote","type":"bool"}],"name":"castVote","outputs":[],"stateMutability":"nonpayable","type":"function"},{"inputs":[{"internalType":"uint256[]","name":"xValues","type":"uint256[]"},{"internalType":"uint256[]","name":"yValues","type":"uint256[]"}],"name":"checkMultiplePixel","outputs":[{"components":[{"internalType":"address","name":"owner","type":"address"},{"internalType":"uint256","name":"shapeID","type":"uint256"},{"internalType":"uint256","name":"price","type":"uint256"},{"internalType":"string","name":"color","type":"string"},{"internalType":"uint256","name":"royaltyLastPaid","type":"uint256"},{"internalType":"bool","name":"askedToPayRoyalties","type":"bool"},{"internalType":"uint256","name":"royaltyAskDate","type":"uint256"}],"internalType":"struct Pixelmap.Pixel[]","name":"","type":"tuple[]"}],"stateMutability":"view","type":"function"},{"inputs":[{"internalType":"uint256","name":"x","type":"uint256"},{"internalType":"uint256","name":"y","type":"uint256"}],"name":"checkPixel","outputs":[{"components":[{"internalType":"address","name":"owner","type":"address"},{"internalType":"uint256","name":"shapeID","type":"uint256"},{"internalType":"uint256","name":"price","type":"uint256"},{"internalType":"string","name":"color","type":"string"},{"internalType":"uint256","name":"royaltyLastPaid","type":"uint256"},{"internalType":"bool","name":"askedToPayRoyalties","type":"bool"},{"internalType":"uint256","name":"royaltyAskDate","type":"uint256"}],"internalType":"struct Pixelmap.Pixel","name":"","type":"tuple"}],"stateMutability":"view","type":"function"},{"inputs":[{"internalType":"uint256","name":"_cycle","type":"uint256"}],"name":"checkVoteOutcome","outputs":[],"stateMutability":"nonpayable","type":"function"},{"inputs":[{"internalType":"uint256","name":"_tokenID","type":"uint256"}],"name":"closeAuction","outputs":[],"stateMutability":"nonpayable","type":"function"},{"inputs":[{"internalType":"bytes[]","name":"_pixels","type":"bytes[]"}],"name":"fillPixel","outputs":[],"stateMutability":"nonpayable","type":"function"},{"inputs":[],"name":"generateMerkle","outputs":[{"internalType":"bytes32","name":"","type":"bytes32"}],"stateMutability":"view","type":"function"},{"inputs":[],"name":"generateSVG","outputs":[{"internalType":"string","name":"","type":"string"}],"stateMutability":"view","type":"function"},{"inputs":[{"internalType":"uint256","name":"tokenID","type":"uint256"}],"name":"getAuctionClaims","outputs":[{"internalType":"uint256","name":"","type":"uint256"}],"stateMutability":"view","type":"function"},{"inputs":[{"internalType":"address","name":"_owner","type":"address"}],"name":"getBalance","outputs":[{"internalType":"uint256","name":"","type":"uint256"}],"stateMutability":"view","type":"function"},{"inputs":[],"name":"getCurrentCycle","outputs":[{"internalType":"uint256","name":"","type":"uint256"}],"stateMutability":"view","type":"function"},{"inputs":[{"internalType":"uint256","name":"_tokenID","type":"uint256"}],"name":"getMintDate","outputs":[{"internalType":"uint256","name":"","type":"uint256"}],"stateMutability":"view","type":"function"},{"inputs":[{"internalType":"address","name":"_owner","type":"address"}],"name":"hasVoted","outputs":[{"internalType":"bool","name":"","type":"bool"}],"stateMutability":"view","type":"function"},{"inputs":[],"name":"isInArtisticPeriod","outputs":[{"internalType":"bool","name":"","type":"bool"}],"stateMutability":"view","type":"function"},{"inputs":[],"name":"isInVotingPeriod","outputs":[{"internalType":"bool","name":"","type":"bool"}],"stateMutability":"view","type":"function"},{"inputs":[],"name":"manager","outputs":[{"internalType":"address","name":"","type":"address"}],"stateMutability":"view","type":"function"},{"inputs":[],"name":"maxHeight","outputs":[{"internalType":"uint256","name":"","type":"uint256"}],"stateMutability":"view","type":"function"},{"inputs":[],"name":"maxWidth","outputs":[{"internalType":"uint256","name":"","type":"uint256"}],"stateMutability":"view","type":"function"},{"inputs":[{"internalType":"uint256","name":"","type":"uint256"}],"name":"mintDates","outputs":[{"internalType":"uint256","name":"","type":"uint256"}],"stateMutability":"view","type":"function"},{"inputs":[{"internalType":"uint256","name":"","type":"uint256"}],"name":"nftAuctions","outputs":[{"internalType":"address","name":"winningAddr","type":"address"},{"internalType":"uint256","name":"winningBid","type":"uint256"},{"internalType":"uint256","name":"auctionStart","type":"uint256"},{"internalType":"uint256","name":"auctionEnd","type":"uint256"},{"internalType":"bool","name":"auctionEnded","type":"bool"}],"stateMutability":"view","type":"function"},{"inputs":[],"name":"nftContract","outputs":[{"internalType":"contract CanvasCollection","name":"","type":"address"}],"stateMutability":"view","type":"function"},{"inputs":[{"internalType":"uint256[]","name":"xValues","type":"uint256[]"},{"internalType":"uint256[]","name":"yValues","type":"uint256[]"}],"name":"payRoyalties","outputs":[],"stateMutability":"nonpayable","type":"function"},{"inputs":[{"internalType":"uint256","name":"","type":"uint256"}],"name":"pixelSVGs","outputs":[{"internalType":"string","name":"","type":"string"}],"stateMutability":"view","type":"function"},{"inputs":[{"internalType":"uint256","name":"_tokenID","type":"uint256"}],"name":"placeBid","outputs":[],"stateMutability":"payable","type":"function"},{"inputs":[{"internalType":"uint256","name":"","type":"uint256"}],"name":"rowSVGs","outputs":[{"internalType":"string","name":"","type":"string"}],"stateMutability":"view","type":"function"},{"inputs":[],"name":"royaltyAskPeriod","outputs":[{"internalType":"uint256","name":"","type":"uint256"}],"stateMutability":"view","type":"function"},{"inputs":[],"name":"royaltyDenominator","outputs":[{"internalType":"uint256","name":"","type":"uint256"}],"stateMutability":"view","type":"function"},{"inputs":[],"name":"royaltyRate","outputs":[{"internalType":"uint256","name":"","type":"uint256"}],"stateMutability":"view","type":"function"},{"inputs":[{"internalType":"uint256","name":"x","type":"uint256"},{"internalType":"uint256","name":"y","type":"uint256"},{"internalType":"uint256","name":"_price","type":"uint256"}],"name":"seekRoyaltyPayment","outputs":[],"stateMutability":"nonpayable","type":"function"},{"inputs":[{"internalType":"address","name":"_nftContract","type":"address"}],"name":"setNFTContract","outputs":[],"stateMutability":"nonpayable","type":"function"},{"inputs":[{"internalType":"uint256[]","name":"xValues","type":"uint256[]"},{"internalType":"uint256[]","name":"yValues","type":"uint256[]"},{"internalType":"uint256[]","name":"priceValues","type":"uint256[]"}],"name":"setPixelValue","outputs":[],"stateMutability":"nonpayable","type":"function"},{"inputs":[{"internalType":"address","name":"_newToken","type":"address"}],"name":"updateCurrency","outputs":[],"stateMutability":"nonpayable","type":"function"},{"inputs":[{"internalType":"uint256","name":"","type":"uint256"}],"name":"voteRegister","outputs":[{"internalType":"uint256","name":"yesVotes","type":"uint256"},{"internalType":"uint256","name":"noVotes","type":"uint256"}],"stateMutability":"view","type":"function"},{"inputs":[{"internalType":"uint256","name":"","type":"uint256"},{"internalType":"uint256","name":"","type":"uint256"}],"name":"window","outputs":[{"internalType":"address","name":"owner","type":"address"},{"internalType":"uint256","name":"shapeID","type":"uint256"},{"internalType":"uint256","name":"price","type":"uint256"},{"internalType":"string","name":"color","type":"string"},{"internalType":"uint256","name":"royaltyLastPaid","type":"uint256"},{"internalType":"bool","name":"askedToPayRoyalties","type":"bool"},{"internalType":"uint256","name":"royaltyAskDate","type":"uint256"}],"stateMutability":"view","type":"function"},{"inputs":[{"internalType":"uint256","name":"_tokenID","type":"uint256"}],"name":"withdrawPixelProceeds","outputs":[],"stateMutability":"nonpayable","type":"function"}],"evm":{"bytecode":{"linkReferences":{},"object":"60808060405234620000bd5760016000556032600355600580546001600160a01b031990811673c02aaa39b223fe8d0a0e5c4f27ead9083c756cc217909155906107b08082016001600160401b03811183821017620000a757829162003e6f833903906000f080156200009b5760018060a01b03168160065416176006553390600254161760025542600455604051613dac9081620000c38239f35b6040513d6000823e3d90fd5b634e487b7160e01b600052604160045260246000fd5b600080fdfe6080604052600436101561001257600080fd5b6000803560e01c8063040cdfd81461272257806309eef43e146126c7578063113bc999146126a9578063236ed8f31461235257806330b5d6d31461231d5780633323a70614611ade5780633bdb693e14611e2357806344d6b6d214611ddc578063481c6a7514611db35780634882a7ea14611d825780635c8c640714611b305780635e02760114611ae85780636006ecc814611ae357806363aa5ce214611ae35780636e70fcc614611ade5780636ed958f1146112d85780637000c3e81461128c57806370a08231146102495780637a43a920146112555780637ace48e71461105f5780638232b56214610dd857806385a9473d14610cb757806393cde51a14610c535780639979ef4514610a8b578063a271e52514610a6e578063a52f27b5146108ed578063a7ccabdf146108a5578063ad711e9e1461074d578063b1610d7e1461072f578063b3a1ddf4146106fd578063bc5bc2fb146106a6578063be26ed7f146106d1578063c4323fc1146106a6578063c4d1510d14610688578063c4e4b90c14610659578063c730e65d146105c3578063c7eab2ec146104b7578063ccba361714610333578063d08629c114610311578063d56d229d146102e8578063e1245900146102a1578063e50eb5da14610283578063f8b2cb4f14610249578063fd8d7ed31461022c5763ff188dca1461020c57600080fd5b346102295780600319360112610229576020600454604051908152f35b80fd5b503461022957806003193601126102295760206040516103e88152f35b5034610229576020366003190112610229576020906040906001600160a01b0361027161280b565b16815261104a83522054604051908152f35b50346102295761029e610295366128c4565b92919091612cc0565b80f35b503461022957602036600319011261022957600435906040821015610229576102e46102d08361100a016129b2565b60405191829160208352602083019061278a565b0390f35b50346102295780600319360112610229576001546040516001600160a01b039091168152602090f35b503461022957602061032b61032536612751565b90613361565b604051908152f35b5034610229576020806003193601126104b357600435610351613482565b808352600882526040832033600052825260ff604060002054166104625780835261104d825261039c6001604085200154600784526040852033600052845260406000205490612bd9565b600c1c90811561042357838080938193825260088652604082203360005286526040600020600160ff19825416179055335af16103d7613452565b50156103e557506001815580f35b6064906040519062461bcd60e51b8252600482015260176024820152764661696c656420746f2073656e642070726f636565647360481b6044820152fd5b60405162461bcd60e51b81526004810184905260176024820152764e6f2070726f636565647320746f20776974686472617760481b6044820152606490fd5b60405162461bcd60e51b8152600481018390526024808201527f616c726561647920636c61696d65642070726f636565647320666f72207468696044820152631cc8125160e21b6064820152608490fd5b5080fd5b5034610229576104c6366128c4565b6104d38184959414612c26565b6104dc84612a58565b936104ea6040519586612991565b808552601f196104f982612a58565b01865b8181106105ac575050855b81811061056c5760408051602080825288518183018190528a93600582901b8401810192808c01929185015b8287106105405785850386f35b90919293828061055c600193603f198a820301865288516127af565b9601920196019592919092610533565b8061059061057d6001938589612c16565b35610589838789612c16565b359061328a565b61059a8289612bec565b526105a58188612bec565b5001610507565b6020906105b7613252565b82828a010152016104fc565b5034610229576040906105d536612751565b90825260096020528282209082526020522060018060a01b038154166001820154916002810154610608600383016129b2565b91610643600482015493600660ff6005850154169301549360405197889788526020880152604087015260e0606087015260e086019061278a565b926080850152151560a084015260c08301520390f35b50346102295760203660031901126102295760043590611000821015610229576102e46102d083600a016129b2565b50346102295780600319360112610229576020600354604051908152f35b5034610229576020366003190112610229576040602091600435815261104c83522054604051908152f35b50346102295780600319360112610229576020620546006106f4600454426131e4565b04604051908152f35b503461022957806003193601126102295760206203f48062054600610724600454426131e4565b061015604051908152f35b50346102295780600319360112610229576020604051620151808152f35b5034610229578060031936011261022957604051608081018181106001600160401b0382111761088f57604052605781526020907f3c7376672077696474683d2236303022206865696768743d2236303022207669828201527f6577426f783d2230203020363030203630302220786d6c6e733d22687474703a6040820152761797bbbbbb973b999737b933979918181817b9bb33911f60491b6060820152915b6040811061084557506108316026604051846108138296518092878086019101612767565b8101651e17b9bb339f60d11b85820152036006810185520183612991565b6102e460405192828493845283019061278a565b918161088461088a9261087660405193826108698694518092848088019101612767565b8301018761100a01613c05565b03601f198101835282612991565b92612a6f565b6107ee565b634e487b7160e01b600052604160045260246000fd5b5034610229576020366003190112610229576108bf61280b565b6002546001600160a01b0391906108d990831633146131f1565b1660018060a01b0319600154161760015580f35b5034610229578060031936011261022957604051906202002082018281106001600160401b0382111761088f576040526110008252602091828082019162020000368437835b604081106109ec575060018060a01b03600654166040519384926317046b0160e11b8452602484019085600486015251809152604484019190875b8181106109d35750505082809103915afa9182156109c7578092610997575b5050604051908152f35b9091508282813d83116109c0575b6109af8183612991565b81010312610229575051388061098d565b503d6109a5565b604051903d90823e3d90fd5b825184528996889650938401939092019160010161096e565b90929150835b60408110610a07575060010191849192610933565b6001600160fa1b0382168203610a5a57600190610a278360061b82612837565b81875260098852604087208488528852610a536001600160601b0319604089205460601b169187612bec565b52016109f2565b634e487b7160e01b85526011600452602485fd5b5034610229578060031936011261022957602060405161fd208152f35b506020806003193601126104b35760043590610aa5613482565b81835261104d90818152610ac360ff600460408720015416156133be565b828452818152610adb60026040862001544211613406565b8284528181524260036040862001541115610c13578284528181526001604085200154341115610bcf5782845281815283808080604081206001808060a01b03825416910154905af1610b2c613452565b5015610b9457828452526040808320346001820181905581546001600160a01b0319163390811790925582519384526020840191909152908201527f8108a40c809d4e4f749358511f7baa90a1259a19024e438f728276ccd4c9368690606090a16001815580f35b6064906040519062461bcd60e51b8252600482015260146024820152732330b4b632b2103a379039b2b7321022ba3432b960611b6044820152fd5b6064906040519062461bcd60e51b82526004820152601b60248201527f6869676865722062696420616c7265616479206578697374696e6700000000006044820152fd5b6064906040519062461bcd60e51b825260048201526019602482015278185d58dd1a5bdb881a185cc8185b1c9958591e48195b991959603a1b6044820152fd5b503461022957602036600319011261022957604060a091600435815261104d60205220600180831b0381541690600181015490600281015460ff60046003840154930154169260405194855260208501526040840152606083015215156080820152f35b50346102295760603660031901126102295760043560243590610ce560018060a01b036002541633146131f1565b808352600960209181835260408520848652835260ff60056040872001541680610d98575b15610d5f5780855281835260408520848652835260443560026040872001558085528183526040852084865283526005604086200160ff19815416905584528152604083209183525280600660408220015580f35b80855281835260408520848652835260056040862001600160ff1982541617905584528152604083209183525242600660408320015580f35b5080855281835260408520848652835260066040862001546203f4808101809111610dc4574211610d0a565b634e487b7160e01b86526011600452602486fd5b5034610229576060366003190112610229576001600160401b0360043581811161105b57610e0a903690600401612878565b90602491823584811161105757610e25903690600401612878565b929093604495863590811161105357610e42903690600401612878565b9190968585148061104a575b15610ff757885b858110610efa57505050610e6b84868585612cc0565b865b838110610e78578780f35b80610e86600192848a612c16565b35610e92828787612c16565b358a5260206009815260408b2090610eab848a8c612c16565b358c5252600260408b200155610ec2818686612c16565b35610ece82888a612c16565b35907f1c362b7fc7c4865e1e7ede89f240549bbd8b5ee43b51383c9c0392687d6d10ec8b80a301610e6d565b610f05818787612c16565b356040610f13838a8c612c16565b35911090811591610feb575b50610fad57610f2f818787612c16565b358a5260206009815260408b20610f47838a8c612c16565b358c52815260408b2054336001600160a01b0390911603610f6b5750600101610e55565b6064907f6f6e6c79206f776e65722063616e2073657420706978656c2076616c7565000084601e876040519462461bcd60e51b86526004860152840152820152fd5b60405162461bcd60e51b815260206004820152601881850152774120706978656c206973206f7574206f6620626f756e647360401b81840152606490fd5b60409150101538610f1f565b907f696e70757420617272617973206d757374206265206f66207468652073616d6560849260276040519362461bcd60e51b85526020600486015284015282015266040d8cadccee8d60cb1b6064820152fd5b50828514610e4e565b8780fd5b8580fd5b8280fd5b5034610229576020806003193601126104b357600435801515810361105b5760045462054600906203f4808261109583426131e4565b06106112145733855261104a845260408520549081156111bf57826110ba82426131e4565b04865261104b938486526002604088200133600052865260ff6040600020541661118a578391901561116157506110f3600454426131e4565b04855282845261110860408620918254612837565b90555b611117600454426131e4565b0483528152600260408320019033600052526040600020600160ff19825416179055337f7ce969a18bb6b0fba42c6d9746e7d08eeca4c661809659c91d276456e3153ac08280a280f35b61116b90426131e4565b04855282845261118360016040872001918254612837565b905561110b565b60405162461bcd60e51b815260048101879052600d60248201526c185b1c9958591e481d9bdd1959609a1b6044820152606490fd5b60405162461bcd60e51b815260048101869052602760248201527f6e6f20706978656c73206f776e6564203d206e6f20766f74657320746f2062656044820152660818d85cdd195960ca1b6064820152608490fd5b60405162461bcd60e51b81526004810185905260196024820152782b37ba34b7339031bab93932b73a363c903737ba1037b832b760391b6044820152606490fd5b5034610229576020366003190112610229576040906004358152600760205220336000526020526020604060002054604051908152f35b50346102295760403660031901126102295760406112a8612821565b9160043581526008602052209060018060a01b0316600052602052602060ff604060002054166040519015158152f35b5034610229576112e7366128c4565b92916112f4848214612c26565b845b818110611301578580f35b61130c818386612c16565b35604061131a838887612c16565b35911090811591611ad2575b50611ab557611336818386612c16565b35865260096020526040862061134d828786612c16565b35875260205260408620546001600160a01b031661141757611370818386612c16565b358652600960205260408620611387828786612c16565b358752602052604086203360018060a01b031982541617905533865261104a602052604086208054906001820180921161140357556001905b6113cb818487612c16565b356113d7828887612c16565b35907fee0e9a85d097f632450e6ac08750207c8f039246ee437b10eaf708b397d00ad88980a3016112f6565b634e487b7160e01b88526011600452602488fd5b611438611425828487612c16565b35611431838887612c16565b3590613361565b611443828487612c16565b35875260096020526040872061145a838887612c16565b358852602052806002604089200154116000146118345761147c828487612c16565b358752600960205260408720611493838887612c16565b3588526020526114aa81600260408a2001546131e4565b9060018060a01b03600554166040516370a0823160e01b8152336004820152602081602481855afa8015611829578a906117f5575b61151a91506114ef86888b612c16565b358b52600960205260408b20611506878c8b612c16565b358c52602052600260408c20015410613134565b604051636eb1769f60e11b815233600482015230602482015289602082604481865afa9182156117e857868b898c8c94869761179d575b509461159294611583856002956115736115e89e9b9860409760209e9c612c16565b35855260098c5285852093612c16565b3582528852200154111561318c565b61159d86888b612c16565b358b526009835260408b206115b3878c8b612c16565b358c5283526040808c205490516323b872dd60e01b815295869384928e92849290916001600160a01b03163360048501612c9e565b03925af19081156117925761163792602092611775575b506005546002546040516323b872dd60e01b81529485936001600160a01b039384169385938e93859390929091163360048501612c9e565b03925af1801561176a5761173b575b50611652818386612c16565b358652600960205260408620611669828786612c16565b35875260209081526040808820546001600160a01b0316885261104a91829052872080546000198101919082116117275755338752602052604086208054906001820180921161140357556001906116c2818487612c16565b3587526009602052604087206116d9828887612c16565b3588526020526040872033838060a01b03198254161790556116fc818487612c16565b358752600960205260408720611713828887612c16565b3588526020524260046040892001556113c0565b634e487b7160e01b89526011600452602489fd5b61175c9060203d602011611763575b6117548183612991565b810190612c86565b5038611646565b503d61174a565b6040513d89823e3d90fd5b61178b90833d8511611763576117548183612991565b50386115ff565b6040513d8a823e3d90fd5b979996505050505050506020823d6020116117e0575b816117c060209383612991565b810103126117db5790519092908987868b898c611592611551565b600080fd5b3d91506117b3565b50604051903d90823e3d90fd5b506020813d602011611821575b8161180f60209383612991565b810103126117db5761151a90516114df565b3d9150611802565b6040513d8c823e3d90fd5b506005546040516370a0823160e01b81523360048201526024916001600160a01b0316906020818481855afa8015611a76578990611a81575b6118a8915061187d85878a612c16565b358a52600960205260408a20611894868b8a612c16565b358b52602052600260408b20015410613134565b604051636eb1769f60e11b8152336004820152306024820152602081604481855afa908115611a76578991611a42575b50611972916119186020926118ee87898c612c16565b358c526009845260408c20611904888d8c612c16565b358d528452600260408d200154111561318c565b6002546001600160a01b03169061193086888b612c16565b358b526009835260408b20611946878c8b612c16565b358c528352600260408c200154918b6040518096819582946323b872dd60e01b84523360048501612c9e565b03925af1801561179257611a23575b5061198d828487612c16565b3587526009602052604087206119a4838887612c16565b35885260209081526040808920546001600160a01b0316895261104a9182905288208054600019810191908211611a10575533885260205260408720805491600183018093116119fe5750556001906116c2818487612c16565b634e487b7160e01b8952601160045288fd5b634e487b7160e01b8a526011600452838afd5b611a3b9060203d602011611763576117548183612991565b5038611981565b90506020813d602011611a6e575b81611a5d60209383612991565b810103126117db57516119726118d8565b3d9150611a50565b6040513d8b823e3d90fd5b506020813d602011611aad575b81611a9b60209383612991565b810103126117db576118a8905161186d565b3d9150611a8e565b60405162461bcd60e51b815280611ace60048201612a99565b0390fd5b60409150101538611326565b61285a565b6128a8565b503461022957602036600319011261022957611b0261280b565b6002546001600160a01b039190611b1c90831633146131f1565b1660018060a01b0319600554161760055580f35b5034610229576020806003193601126104b3576004359062054600611b57600454426131e4565b04821015611d1f5781835261104b808252611b7c604085206001815491015490612837565b908115611cea57838552825260408420549060011c10611b9a578280f35b6001546001600160a01b03929084908416803b156104b3578180916024604051809481936335313c2160e11b83523060048401525af18015611cdf57611cc7575b50506004927fd9dc24857f317ed9abbbb42e920ede0104231eb1d3d70236a74887ffaf159868838093604051908152a160015416604051938480926318160ddd60e01b82525afa918215611cbc578392611c8d575b506000198201918211611c795781835261104c815242604084205561104d9081815242600260408620015561fd20420192834211610a5a57845252600360408320015538808280f35b634e487b7160e01b83526011600452602483fd5b9080925081813d8311611cb5575b611ca58183612991565b810103126117db57519038611c30565b503d611c9b565b6040513d85823e3d90fd5b611cd090612948565b611cdb578338611bdb565b8380fd5b6040513d84823e3d90fd5b60405162461bcd60e51b815260048101849052600d60248201526c139bc81d9bdd195cc818d85cdd609a1b6044820152606490fd5b6084906040519062461bcd60e51b82526004820152603660248201527f636865636b20766f7465206f7574636f6d6573206f6e6c7920706f737369626c6044820152756520666f7220636f6e636c75646564206379636c657360501b6064820152fd5b503461022957806003193601126102295760206203f48062054600611da9600454426131e4565b0610604051908152f35b50346102295780600319360112610229576002546040516001600160a01b039091168152602090f35b5034610229576040366003190112610229576040611df8612821565b9160043581526007602052209060018060a01b03166000526020526020604060002054604051908152f35b5034610229576020366003190112610229576004356001600160401b0381116104b357611e54903690600401612878565b6203f48062054600611e68600454426131e4565b0610156122cd576040519161082083018381106001600160401b0382111761088f5760405260408352610800366020850137835b828110611f7657505050815b60408110611eb4578280f35b611ebe8183612bec565b51611ecc575b600101611ea8565b604051611ed881612976565b838152600682901b6001600160fa1b0383168303610a5a57806040019081604011610dc457905b808210611f2057505090611f196001928261100a01612aca565b9050611ec4565b9091611000831015611f62576020610884611f5c926108766040519382611f508694518092848088019101612767565b83010187600a01613c05565b90611eff565b634e487b7160e01b86526032600452602486fd5b600581811b830135601e19843603018112156122c957830180356001600160401b03811161105357602082019281360384136122c55782918201906020820191608093849103126122c157896060850135938501356001600160401b0381116104b357850183603f820112156104b3576020810135611ff481612a7e565b946120026040519687612991565b8186526040828401011161105b5780604060209301838701378401015260408535108015906122b3575b611ab557600a8310156122755760ff9085358b52600960205260408b2060408601358c5260205260408b200154166122185783358952600960209081526040808b20858201358c529091528920546001600160a01b0316331461209c575b5050505061209790612a6f565b611e9c565b6120c39084358a52600960205260408a2060408501358b52602052600360408b2001612aca565b82358852600960209081526040808a2084820135808c5292528920600101919091556001600160fa1b038116900361220457612107604082013560061b8335612837565b8235885260096020526040882060408301358952602052600160408920015483356009853502046009148435151715611727576040830135600980820282900414901517156117275761218f9084358a52600960205260408a2060408501358b5260205261217a600360408c20016129b2565b906009604086013502906009873502906134a5565b906110008110156121f057916121af604092612097969594600a01612aca565b60016121be838301358a612bec565b52013590357fa9a418da632d42c446a125f10b007831ba0e348168b6b2474a2383ac5df4c2808880a39038808061208a565b634e487b7160e01b89526032600452602489fd5b634e487b7160e01b87526011600452602487fd5b60405162461bcd60e51b815260206004820152602f60248201527f6f776e6572207761732061736b656420746f20666972737420736574746c652060448201526e1c9bde585b1d1e481c185e5b595b9d608a1b6064820152608490fd5b60405162461bcd60e51b81526020600482015260166024820152757368617065204944206e6f7420617661696c61626c6560501b6044820152606490fd5b50604080850135101561202c565b8980fd5b8880fd5b8680fd5b60405162461bcd60e51b815260206004820152602260248201527f417274697374696320706572696f642063757272656e746c79206e6f74206f7060448201526132b760f11b6064820152608490fd5b50346102295760203660031901126102295760408091600435815261104b602052206001815491015482519182526020820152f35b5034610229576020806003193601126104b357600435612370613482565b80835261104d9081835261238e60ff600460408720015416156133be565b8084528183526123a660026040862001544211613406565b808452818352426003604086200154101561266c578084528183526040842080546001600160a01b03939190841690816125a4575050604051603f8086830183612410334442859160549391835260208301526001600160601b03199060601b1660408201520190565b0393612424601f1995868101835282612991565b519020169160405161246a888201928261245e334442889160549391835260208301526001600160601b03199060601b1660408201520190565b03908101835282612991565b5190201691838752855260046040872001600160ff19825416179055858460015416828252600987526040822084835287528560408320541690803b1561105b578583916124d09383604051809681958294632142170760e11b84523060048501612c9e565b03925af18015611cdf57612590575b5052600984526040852090855283527fd2aa34a4fdbbc6dff6a3e56f46e0f3ae2a31d7785ff3487aa5c95c642acea5016060836040872054166040519084825286820152866040820152a15b835b6040811061253d57846001815580f35b845b60408110612550575060010161252d565b818652600985526040808720828852865280872054851680885261104a87528188205485895260078852828920600092835288529190205560010161253f565b61259990612948565b6110575785386124df565b600401600160ff1982541617905585846001541691823b156104b3576125e492859183604051809681958294632142170760e11b84523060048501612c9e565b03925af180156126615761264e575b5081855283526040808520805460019091015482518481529185166001600160a01b03166020830152918101919091527fd2aa34a4fdbbc6dff6a3e56f46e0f3ae2a31d7785ff3487aa5c95c642acea50190606090a161252b565b61265a90959195612948565b93386125f3565b6040513d88823e3d90fd5b60405162461bcd60e51b8152600481018490526015602482015274185d58dd1a5bdb881b9bdd08195b991959081e595d605a1b6044820152606490fd5b50346102295780600319360112610229576020604051620546008152f35b50346102295760203660031901126102295760ff60406020926126e861280b565b620546006126f8600454426131e4565b04825261104b85528282206001600160a01b03909116825260020184522054604051911615158152f35b5034610229576102e461273d61273736612751565b9061328a565b6040519182916020835260208301906127af565b60409060031901126117db576004359060243590565b60005b83811061277a5750506000910152565b818101518382015260200161276a565b906020916127a381518092818552858086019101612767565b601f01601f1916010190565b9060018060a01b038251168152602082015160208201526040820151604082015260c0806127ec606085015160e0606086015260e085019061278a565b936080810151608085015260a0810151151560a0850152015191015290565b600435906001600160a01b03821682036117db57565b602435906001600160a01b03821682036117db57565b9190820180921161284457565b634e487b7160e01b600052601160045260246000fd5b346117db5760003660031901126117db5760206040516203f4808152f35b9181601f840112156117db578235916001600160401b0383116117db576020808501948460051b0101116117db57565b346117db5760003660031901126117db57602060405160408152f35b60406003198201126117db576001600160401b03916004358381116117db57826128f091600401612878565b939093926024359182116117db5761290a91600401612878565b9091565b90600182811c9216801561293e575b602083101461292857565b634e487b7160e01b600052602260045260246000fd5b91607f169161291d565b6001600160401b03811161088f57604052565b60e081019081106001600160401b0382111761088f57604052565b602081019081106001600160401b0382111761088f57604052565b90601f801991011681019081106001600160401b0382111761088f57604052565b90604051918260008254926129c68461290e565b908184526001948581169081600014612a3557506001146129f2575b50506129f092500383612991565b565b9093915060005260209081600020936000915b818310612a1d5750506129f0935082010138806129e2565b85548884018501529485019487945091830191612a05565b9150506129f094506020925060ff191682840152151560051b82010138806129e2565b6001600160401b03811161088f5760051b60200190565b60001981146128445760010190565b6001600160401b03811161088f57601f01601f191660200190565b606090602081526016602082015275706978656c206973206f7574206f6620626f756e647360501b60408201520190565b91909182516001600160401b03811161088f57612ae7825461290e565b601f8111612b91575b50602080601f8311600114612b2d575081929394600092612b22575b50508160011b916000199060031b1c1916179055565b015190503880612b0c565b90601f198316958460005282600020926000905b888210612b7957505083600195969710612b60575b505050811b019055565b015160001960f88460031b161c19169055388080612b56565b80600185968294968601518155019501930190612b41565b600083815260208120601f840160051c81019260208510612bcf575b601f0160051c01915b828110612bc4575050612af0565b818155600101612bb6565b9092508290612bad565b8181029291811591840414171561284457565b8051821015612c005760209160051b010190565b634e487b7160e01b600052603260045260246000fd5b9190811015612c005760051b0190565b15612c2d57565b60405162461bcd60e51b815260206004820152602b60248201527f7820616e64207920696e7075742061727261797320617265206f66207661726960448201526a6f7573206c656e6774687360a81b6064820152608490fd5b908160209103126117db575180151581036117db5790565b6001600160a01b03918216815291166020820152604081019190915260600190565b92919091612ccf818414612c26565b60005b838110612ce0575050505050565b612ceb818587612c16565b35612cf7828486612c16565b3560408080931091821592613129575b505061311257612d18828688612c16565b35600052600960209080825282600020612d33858789612c16565b35600052825260018060a01b033381856000205416036130c357612d5885898b612c16565b3560005281835283600020612d6e86888a612c16565b3560005283526004428186600020015403612d97575b5050505050612d9290612a6f565b612cd2565b612db1612da5878b8d612c16565b35611431888a8c612c16565b600592808454169087516370a0823160e01b8152338582015260249088818381875afa90811561303757908591600091613093575b5010613042578851636eb1769f60e11b8152338682019081523060208201528990829081906040010381875afa90811561303757908591600091613007575b5010612fb65750918691612e54936002541660008a518096819582946323b872dd60e01b8452338b8501612c9e565b03925af18015612fab5792612eae888c8e829a97968e612e9b8f9e612d929f869d9a829f9c612f8e575b50612e8a828888612c16565b356000528a8c528c60002093612c16565b3560005288524290896000200155612c16565b3560005281835283600020612ec4878b8d612c16565b3560005283528b60ff8286600020015416612f27575b92505050612eea93929150612c16565b35612ef6828587612c16565b35907fe61af2269c9afbdb69efce2b15f2a464f8ee6237f105b3d4024f2e824a9f0af3600080a39038808080612d84565b600096600696612f3692612c16565b358652818352838620612f4a888b8d612c16565b358752835283862001805460ff19169055612f66868b8d612c16565b358552815281842090612f7a86898b612c16565b35855252822001558085388080808b612eda565b612fa4908d803d10611763576117548183612991565b5038612e7e565b86513d6000823e3d90fd5b8460276084928a8c519362461bcd60e51b85528401528201527f696e73756666696369656e7420616c6c6f77616e636520746f2070617920726f60448201526679616c7469657360c81b6064820152fd5b91508982813d8311613030575b61301e8183612991565b81010312610229575084905138612e25565b503d613014565b8a513d6000823e3d90fd5b8460276084928a8c519362461bcd60e51b85528401528201527f6e6f742073756666696369656e742062616c616e636520746f2070617920726f60448201526679616c7469657360c81b6064820152fd5b91508982813d83116130bc575b6130aa8183612991565b81010312610229575084905138612de6565b503d6130a0565b835162461bcd60e51b815260048101849052602260248201527f6f6e6c7920706978656c206f776e65722063616e2070617920726f79616c7469604482015261657360f01b6064820152608490fd5b5162461bcd60e51b815280611ace60048201612a99565b101590508138612d07565b1561313b57565b60405162461bcd60e51b815260206004820152602360248201527f6e6f742073756666696369656e742062616c616e636520746f206275792070696044820152621e195b60ea1b6064820152608490fd5b1561319357565b60405162461bcd60e51b815260206004820152602360248201527f696e73756666696369656e7420616c6c6f77616e636520746f206275792070696044820152621e195b60ea1b6064820152608490fd5b9190820391821161284457565b156131f857565b60405162461bcd60e51b815260206004820152602c60248201527f6f776e65722063757272656e74206d616e616765722063616e2063616c6c207460448201526b3434b990333ab731ba34b7b760a11b6064820152608490fd5b6040519061325f8261295b565b8160c06000918281528260208201528260408201526060808201528260808201528260a08201520152565b90613293613252565b5060409182811080613358575b1561331e57600052600960205281600020906000526020526006816000208251926132ca8461295b565b81546001600160a01b03168452600182015460208501526002820154908401526132f6600382016129b2565b60608401526004810154608084015260ff600582015416151560a0840152015460c082015290565b825162461bcd60e51b8152602060048201526013602482015272706978656c206f7574206f6620626f756e647360681b6044820152606490fd5b508282106132a0565b6133b16133ba916002604064073df1600095600090848252600960205282822081835260205261339760048484200154426131e4565b948252600960205282822090825260205220015490612bd9565b60035490612bd9565b0490565b156133c557565b60405162461bcd60e51b815260206004820152601960248201527861756374696f6e2068617320656e64656420616c726561647960381b6044820152606490fd5b1561340d57565b60405162461bcd60e51b815260206004820152601b60248201527f61756374696f6e20686173206e6f7420737461727465642079657400000000006044820152606490fd5b3d1561347d573d9061346382612a7e565b916134716040519384612991565b82523d6000602084013e565b606090565b600260005414613493576002600055565b604051633ee5aeb560e01b8152600490fd5b919290928215613b495760018314613a7a5760028314613a5057600383146139f4576004928381146139a0576005811461384357600681146137f1576007811461378a57600881146136a75760091461350f575050505060405161350881612976565b6000815290565b61351884613c88565b9061352281613c88565b600886018087116136925761353690613c88565b946008830180931161367d57509161365e8261367a969461356b61356561355f60499997613c88565b9a613c88565b92613c88565b91604051998a97602a61359b8a602099693c7061746820643d224d60b01b8b8301528a8151948593019101612767565b890193600160fd1b9485602a8201526135bd825180938b602b85019101612767565b016b010209c101c101810181018960a51b602b8201526135e6825180938a603785019101612767565b018360378201526136008251809389603885019101612767565b0161081360f21b603882015261361f8251809388603a85019101612767565b0190603a8201526136398251809386603b85019101612767565b019169102d11103334b6361e9160b11b603b8401528351938491604585019101612767565b01631110179f60e11b6045820152036029810184520182612991565b90565b601190634e487b7160e01b6000525260246000fd5b601186634e487b7160e01b6000525260246000fd5b50926008810193848211613775576136be85613c88565b916136d16136cb83613c88565b91613c88565b946008830180931161367d57509161365e8261367a96946136fa61356561355f60499997613c88565b91604051998a97602a61372a8a602099693c7061746820643d224d60b01b8b8301528a8151948593019101612767565b890193600160fd1b9485602a82015261374c825180938b602b85019101612767565b016b010209c101c101810181018160a51b602b8201526135e6825180938a603785019101612767565b601184634e487b7160e01b6000525260246000fd5b5061379484613c88565b9061379e81613c88565b600886018096116137dc576137b286613c88565b94600883019081841161367d57506049949261367a9694926136fa61356561355f61365e95613c88565b601185634e487b7160e01b6000525260246000fd5b506137fb84613c88565b90600881018082116137dc5761381090613c88565b93600886019081871161367d57509161365e6049949261383361367a9795613c88565b946136fa61356561355f84613c88565b509261384e81613c88565b9060088501908186116137dc5761386482613c88565b9061387761387182613c88565b97613c88565b956008820180921161367d5750603f949261367a96949261389d61356561398494613c88565b91604051998a97602a6138cd8a602099693c7061746820643d224d60b01b8b8301528a8151948593019101612767565b890193600160fd1b9485602a8201526138ef825180938b602b85019101612767565b019161081360f21b9283602b820152613911825180938b602d85019101612767565b0184602d82015261392b825180938a602e85019101612767565b0190602e8201526139458251809388603085019101612767565b0190603082015261395f8251809386603185019101612767565b019169103d11103334b6361e9160b11b60318401528351938491603b85019101612767565b01631110179f60e11b603b82015203601f810184520182612991565b509291600883019081841161367d576139b882613c88565b91600886019182871161367d5750916139848261367a969461389d6135656138716139ee6139e8603f9b99613c88565b94613c88565b9b613c88565b91506139ff83613c88565b92613a0983613c88565b916008820180921161284457613a1e82613c88565b94613a31613a2b86613c88565b93613c88565b94600881018091116128445761367a95603f9561389d61398493613c88565b9150613a5b83613c88565b92613a6583613c88565b916008820180831161284457613a1e90613c88565b9150916004810180911161284457613a9190613c88565b90600481018091116128445761367a91613aac604492613c88565b936040519485926b1e31b4b931b6329031bc1e9160a11b6020850152613adc815180926020602c88019101612767565b830165111031bc9e9160d11b602c820152613b01825180936020603285019101612767565b016d1110391e911a11103334b6361e9160911b6032820152613b2d825180936020604085019101612767565b01631110179f60e11b6040820152036024810184520182612991565b61367a9250613b5d6136cb604f9395613c88565b93604051948592681e3932b1ba103c1e9160b91b6020850152613b8a815180926020602988019101612767565b83016411103c9e9160d91b6029820152613bae825180936020602e85019101612767565b017f222077696474683d223822206865696768743d2238222066696c6c3d22000000602e820152613be9825180936020604b85019101612767565b01631110179f60e11b604b82015203602f810184520182612991565b600092918154613c148161290e565b92600191808316908115613c6d5750600114613c31575b50505050565b90919293945060005260209081600020906000915b858310613c5c5750505050019038808080613c2b565b805485840152918301918101613c46565b60ff1916845250505081151590910201915038808080613c2b565b8015613d485780816000925b613d34575080613ca383612a7e565b92613cb16040519485612991565b808452601f19613cc082612a7e565b01366020860137915b613cd257505090565b6000198201918083116128445782600a908184049382850292858404148515171561284457613d0460ff9384926131e4565b166030019182116128445785511115612c005760f81b6001600160f81b03191660001a908401601f015380613cc9565b91613d40600a91612a6f565b920480613c94565b50604051604081018181106001600160401b0382111761088f5760405260018152600360fc1b60208201529056fea2646970667358221220af0805cbb9d160aea71f3c11afd7c644b9082cb3e0c74c4848503652ace0c7cb64736f6c634300081400336080806040523461001657610794908161001c8239f35b600080fdfe6080604052600436101561001257600080fd5b6000803560e01c9081632e08d6021461007a5750806358161a4214610075578063b861619514610070578063cf06c7b71461006b578063dd1d2599146100665763e27d51531461006157600080fd5b6103f7565b6103d6565b6103b0565b6102bb565b61020d565b346101515760203660031901126101515760043567ffffffffffffffff811161014d576100ab9036906004016101ad565b600180825111156100fc57805b6100de575b6100da6100c98361045a565b516040519081529081906020820190565b0390f35b80825111156100f7576100f18192610511565b916100b8565b6100bd565b60405162461bcd60e51b815260206004820152602360248201527f776f6e27742067656e657261746520726f6f7420666f722073696e676c65206c60448201526232b0b360e91b6064820152608490fd5b5080fd5b80fd5b634e487b7160e01b600052604160045260246000fd5b6040519190601f01601f1916820167ffffffffffffffff81118382101761019057604052565b610154565b67ffffffffffffffff81116101905760051b60200190565b9080601f83011215610208578135906101cd6101c883610195565b61016a565b9182938184526020808095019260051b820101928311610208578301905b8282106101f9575050505090565b813581529083019083016101eb565b600080fd5b346102085760603660031901126102085760243567ffffffffffffffff81116102085761023e9036906004016101ad565b60443581516000925b81841061025d5760405160043584148152602090f35b909161027660019161026f868561047d565b5190610437565b9301929190610247565b6020908160408183019282815285518094520193019160005b8281106102a7575050505090565b835185529381019392810192600101610299565b346102085760403660031901126102085760043567ffffffffffffffff8111610208576102ec9036906004016101ad565b602435906001906102ff82825111610491565b61031161030c8251610632565b6104e9565b92600080845b61032a575b604051806100da8882610280565b8351858111156103aa578584939261036f92828080981614600014610379575061035860001986018861047d565b51610363828b61047d565b525b0192841c94610511565b9392919091610317565b85830190810361039557508361038f828b61047d565b52610365565b61039f908861047d565b5161038f828b61047d565b5061031c565b346102085760203660031901126102085760206103ce600435610632565b604051908152f35b346102085760403660031901126102085760206103ce602435600435610437565b3461020857602036600319011261020857600435806000815b61042a576020925060405191806001811901161490038152f35b600192831c920182610410565b8181101561044e576000526020525b604060002090565b90600052602052610446565b8051156104675760200190565b634e487b7160e01b600052603260045260246000fd5b80518210156104675760209160051b010190565b1561049857565b60405162461bcd60e51b8152602060048201526024808201527f776f6e27742067656e65726174652070726f6f6620666f722073696e676c65206044820152633632b0b360e11b6064820152608490fd5b906104f66101c883610195565b8281528092610507601f1991610195565b0190602036910137565b90815160019081808216146000146105a9576105308282811c016104e9565b916000196105408382018761047d565b516000805260205261055a6040600020918551018561047d565b525b600019909101906000805b8382106105775750929450505050565b82600291610595610588858b61047d565b5161026f8487018c61047d565b61059f828961047d565b5201910190610567565b6105b481831c6104e9565b9161055c565b90604082018092116105c857565b634e487b7160e01b600052601160045260246000fd5b90602082018092116105c857565b90601082018092116105c857565b90600882018092116105c857565b90600482018092116105c857565b90600282018092116105c857565b90600182018092116105c857565b60018111156107585760009080600160801b81101561074d575b600290600160401b81101561073a575b640100000000811015610727575b62010000811015610714575b610100811015610701575b60108110156106ee575b60048110156106dc575b10156106cc575b806106a78119610624565b1614806106c3575b156106b75790565b6106c090610624565b90565b508015156106af565b906106d690610624565b9061069c565b6106e890821c93610616565b92610695565b6106fb9060041c93610608565b9261068b565b61070e9060081c936105fa565b92610681565b6107219060101c936105ec565b92610676565b6107349060201c936105de565b9261066a565b6107479060401c936105ba565b9261065c565b60809250821c61064c565b5060009056fea264697066735822122029596db90313b4fb257efd2fbf9ba954b5a2054bf304a0aa15f5e78439e12f4364736f6c63430008140033","opcodes":"PUSH1 0x80 DUP1 PUSH1 0x40 MSTORE CALLVALUE PUSH3 0xBD JUMPI PUSH1 0x1 PUSH1 0x0 SSTORE PUSH1 0x32 PUSH1 0x3 SSTORE PUSH1 0x5 DUP1 SLOAD PUSH1 0x1 PUSH1 0x1 PUSH1 0xA0 SHL SUB NOT SWAP1 DUP2 AND PUSH20 0xC02AAA39B223FE8D0A0E5C4F27EAD9083C756CC2 OR SWAP1 SWAP2 SSTORE SWAP1 PUSH2 0x7B0 DUP1 DUP3 ADD PUSH1 0x1 PUSH1 0x1 PUSH1 0x40 SHL SUB DUP2 GT DUP4 DUP3 LT OR PUSH3 0xA7 JUMPI DUP3 SWAP2 PUSH3 0x3E6F DUP4 CODECOPY SUB SWAP1 PUSH1 0x0 CREATE DUP1 ISZERO PUSH3 0x9B JUMPI PUSH1 0x1 DUP1 PUSH1 0xA0 SHL SUB AND DUP2 PUSH1 0x6 SLOAD AND OR PUSH1 0x6 SSTORE CALLER SWAP1 PUSH1 0x2 SLOAD AND OR PUSH1 0x2 SSTORE TIMESTAMP PUSH1 0x4 SSTORE PUSH1 0x40 MLOAD PUSH2 0x3DAC SWAP1 DUP2 PUSH3 0xC3 DUP3 CODECOPY RETURN JUMPDEST PUSH1 0x40 MLOAD RETURNDATASIZE PUSH1 0x0 DUP3 RETURNDATACOPY RETURNDATASIZE SWAP1 REVERT JUMPDEST PUSH4 0x4E487B71 PUSH1 0xE0 SHL PUSH1 0x0 MSTORE PUSH1 0x41 PUSH1 0x4 MSTORE PUSH1 0x24 PUSH1 0x0 REVERT JUMPDEST PUSH1 0x0 DUP1 REVERT INVALID PUSH1 0x80 PUSH1 0x40 MSTORE PUSH1 0x4 CALLDATASIZE LT ISZERO PUSH2 0x12 JUMPI PUSH1 0x0 DUP1 REVERT JUMPDEST PUSH1 0x0 DUP1 CALLDATALOAD PUSH1 0xE0 SHR DUP1 PUSH4 0x40CDFD8 EQ PUSH2 0x2722 JUMPI DUP1 PUSH4 0x9EEF43E EQ PUSH2 0x26C7 JUMPI DUP1 PUSH4 0x113BC999 EQ PUSH2 0x26A9 JUMPI DUP1 PUSH4 0x236ED8F3 EQ PUSH2 0x2352 JUMPI DUP1 PUSH4 0x30B5D6D3 EQ PUSH2 0x231D JUMPI DUP1 PUSH4 0x3323A706 EQ PUSH2 0x1ADE JUMPI DUP1 PUSH4 0x3BDB693E EQ PUSH2 0x1E23 JUMPI DUP1 PUSH4 0x44D6B6D2 EQ PUSH2 0x1DDC JUMPI DUP1 PUSH4 0x481C6A75 EQ PUSH2 0x1DB3 JUMPI DUP1 PUSH4 0x4882A7EA EQ PUSH2 0x1D82 JUMPI DUP1 PUSH4 0x5C8C6407 EQ PUSH2 0x1B30 JUMPI DUP1 PUSH4 0x5E027601 EQ PUSH2 0x1AE8 JUMPI DUP1 PUSH4 0x6006ECC8 EQ PUSH2 0x1AE3 JUMPI DUP1 PUSH4 0x63AA5CE2 EQ PUSH2 0x1AE3 JUMPI DUP1 PUSH4 0x6E70FCC6 EQ PUSH2 0x1ADE JUMPI DUP1 PUSH4 0x6ED958F1 EQ PUSH2 0x12D8 JUMPI DUP1 PUSH4 0x7000C3E8 EQ PUSH2 0x128C JUMPI DUP1 PUSH4 0x70A08231 EQ PUSH2 0x249 JUMPI DUP1 PUSH4 0x7A43A920 EQ PUSH2 0x1255 JUMPI DUP1 PUSH4 0x7ACE48E7 EQ PUSH2 0x105F JUMPI DUP1 PUSH4 0x8232B562 EQ PUSH2 0xDD8 JUMPI DUP1 PUSH4 0x85A9473D EQ PUSH2 0xCB7 JUMPI DUP1 PUSH4 0x93CDE51A EQ PUSH2 0xC53 JUMPI DUP1 PUSH4 0x9979EF45 EQ PUSH2 0xA8B JUMPI DUP1 PUSH4 0xA271E525 EQ PUSH2 0xA6E JUMPI DUP1 PUSH4 0xA52F27B5 EQ PUSH2 0x8ED JUMPI DUP1 PUSH4 0xA7CCABDF EQ PUSH2 0x8A5 JUMPI DUP1 PUSH4 0xAD711E9E EQ PUSH2 0x74D JUMPI DUP1 PUSH4 0xB1610D7E EQ PUSH2 0x72F JUMPI DUP1 PUSH4 0xB3A1DDF4 EQ PUSH2 0x6FD JUMPI DUP1 PUSH4 0xBC5BC2FB EQ PUSH2 0x6A6 JUMPI DUP1 PUSH4 0xBE26ED7F EQ PUSH2 0x6D1 JUMPI DUP1 PUSH4 0xC4323FC1 EQ PUSH2 0x6A6 JUMPI DUP1 PUSH4 0xC4D1510D EQ PUSH2 0x688 JUMPI DUP1 PUSH4 0xC4E4B90C EQ PUSH2 0x659 JUMPI DUP1 PUSH4 0xC730E65D EQ PUSH2 0x5C3 JUMPI DUP1 PUSH4 0xC7EAB2EC EQ PUSH2 0x4B7 JUMPI DUP1 PUSH4 0xCCBA3617 EQ PUSH2 0x333 JUMPI DUP1 PUSH4 0xD08629C1 EQ PUSH2 0x311 JUMPI DUP1 PUSH4 0xD56D229D EQ PUSH2 0x2E8 JUMPI DUP1 PUSH4 0xE1245900 EQ PUSH2 0x2A1 JUMPI DUP1 PUSH4 0xE50EB5DA EQ PUSH2 0x283 JUMPI DUP1 PUSH4 0xF8B2CB4F EQ PUSH2 0x249 JUMPI DUP1 PUSH4 0xFD8D7ED3 EQ PUSH2 0x22C JUMPI PUSH4 0xFF188DCA EQ PUSH2 0x20C JUMPI PUSH1 0x0 DUP1 REVERT JUMPDEST CALLVALUE PUSH2 0x229 JUMPI DUP1 PUSH1 0x3 NOT CALLDATASIZE ADD SLT PUSH2 0x229 JUMPI PUSH1 0x20 PUSH1 0x4 SLOAD PUSH1 0x40 MLOAD SWAP1 DUP2 MSTORE RETURN JUMPDEST DUP1 REVERT JUMPDEST POP CALLVALUE PUSH2 0x229 JUMPI DUP1 PUSH1 0x3 NOT CALLDATASIZE ADD SLT PUSH2 0x229 JUMPI PUSH1 0x20 PUSH1 0x40 MLOAD PUSH2 0x3E8 DUP2 MSTORE RETURN JUMPDEST POP CALLVALUE PUSH2 0x229 JUMPI PUSH1 0x20 CALLDATASIZE PUSH1 0x3 NOT ADD SLT PUSH2 0x229 JUMPI PUSH1 0x20 SWAP1 PUSH1 0x40 SWAP1 PUSH1 0x1 PUSH1 0x1 PUSH1 0xA0 SHL SUB PUSH2 0x271 PUSH2 0x280B JUMP JUMPDEST AND DUP2 MSTORE PUSH2 0x104A DUP4 MSTORE KECCAK256 SLOAD PUSH1 0x40 MLOAD SWAP1 DUP2 MSTORE RETURN JUMPDEST POP CALLVALUE PUSH2 0x229 JUMPI PUSH2 0x29E PUSH2 0x295 CALLDATASIZE PUSH2 0x28C4 JUMP JUMPDEST SWAP3 SWAP2 SWAP1 SWAP2 PUSH2 0x2CC0 JUMP JUMPDEST DUP1 RETURN JUMPDEST POP CALLVALUE PUSH2 0x229 JUMPI PUSH1 0x20 CALLDATASIZE PUSH1 0x3 NOT ADD SLT PUSH2 0x229 JUMPI PUSH1 0x4 CALLDATALOAD SWAP1 PUSH1 0x40 DUP3 LT ISZERO PUSH2 0x229 JUMPI PUSH2 0x2E4 PUSH2 0x2D0 DUP4 PUSH2 0x100A ADD PUSH2 0x29B2 JUMP JUMPDEST PUSH1 0x40 MLOAD SWAP2 DUP3 SWAP2 PUSH1 0x20 DUP4 MSTORE PUSH1 0x20 DUP4 ADD SWAP1 PUSH2 0x278A JUMP JUMPDEST SUB SWAP1 RETURN JUMPDEST POP CALLVALUE PUSH2 0x229 JUMPI DUP1 PUSH1 0x3 NOT CALLDATASIZE ADD SLT PUSH2 0x229 JUMPI PUSH1 0x1 SLOAD PUSH1 0x40 MLOAD PUSH1 0x1 PUSH1 0x1 PUSH1 0xA0 SHL SUB SWAP1 SWAP2 AND DUP2 MSTORE PUSH1 0x20 SWAP1 RETURN JUMPDEST POP CALLVALUE PUSH2 0x229 JUMPI PUSH1 0x20 PUSH2 0x32B PUSH2 0x325 CALLDATASIZE PUSH2 0x2751 JUMP JUMPDEST SWAP1 PUSH2 0x3361 JUMP JUMPDEST PUSH1 0x40 MLOAD SWAP1 DUP2 MSTORE RETURN JUMPDEST POP CALLVALUE PUSH2 0x229 JUMPI PUSH1 0x20 DUP1 PUSH1 0x3 NOT CALLDATASIZE ADD SLT PUSH2 0x4B3 JUMPI PUSH1 0x4 CALLDATALOAD PUSH2 0x351 PUSH2 0x3482 JUMP JUMPDEST DUP1 DUP4 MSTORE PUSH1 0x8 DUP3 MSTORE PUSH1 0x40 DUP4 KECCAK256 CALLER PUSH1 0x0 MSTORE DUP3 MSTORE PUSH1 0xFF PUSH1 0x40 PUSH1 0x0 KECCAK256 SLOAD AND PUSH2 0x462 JUMPI DUP1 DUP4 MSTORE PUSH2 0x104D DUP3 MSTORE PUSH2 0x39C PUSH1 0x1 PUSH1 0x40 DUP6 KECCAK256 ADD SLOAD PUSH1 0x7 DUP5 MSTORE PUSH1 0x40 DUP6 KECCAK256 CALLER PUSH1 0x0 MSTORE DUP5 MSTORE PUSH1 0x40 PUSH1 0x0 KECCAK256 SLOAD SWAP1 PUSH2 0x2BD9 JUMP JUMPDEST PUSH1 0xC SHR SWAP1 DUP2 ISZERO PUSH2 0x423 JUMPI DUP4 DUP1 DUP1 SWAP4 DUP2 SWAP4 DUP3 MSTORE PUSH1 0x8 DUP7 MSTORE PUSH1 0x40 DUP3 KECCAK256 CALLER PUSH1 0x0 MSTORE DUP7 MSTORE PUSH1 0x40 PUSH1 0x0 KECCAK256 PUSH1 0x1 PUSH1 0xFF NOT DUP3 SLOAD AND OR SWAP1 SSTORE CALLER GAS CALL PUSH2 0x3D7 PUSH2 0x3452 JUMP JUMPDEST POP ISZERO PUSH2 0x3E5 JUMPI POP PUSH1 0x1 DUP2 SSTORE DUP1 RETURN JUMPDEST PUSH1 0x64 SWAP1 PUSH1 0x40 MLOAD SWAP1 PUSH3 0x461BCD PUSH1 0xE5 SHL DUP3 MSTORE PUSH1 0x4 DUP3 ADD MSTORE PUSH1 0x17 PUSH1 0x24 DUP3 ADD MSTORE PUSH23 0x4661696C656420746F2073656E642070726F6365656473 PUSH1 0x48 SHL PUSH1 0x44 DUP3 ADD MSTORE REVERT JUMPDEST PUSH1 0x40 MLOAD PUSH3 0x461BCD PUSH1 0xE5 SHL DUP2 MSTORE PUSH1 0x4 DUP2 ADD DUP5 SWAP1 MSTORE PUSH1 0x17 PUSH1 0x24 DUP3 ADD MSTORE PUSH23 0x4E6F2070726F636565647320746F207769746864726177 PUSH1 0x48 SHL PUSH1 0x44 DUP3 ADD MSTORE PUSH1 0x64 SWAP1 REVERT JUMPDEST PUSH1 0x40 MLOAD PUSH3 0x461BCD PUSH1 0xE5 SHL DUP2 MSTORE PUSH1 0x4 DUP2 ADD DUP4 SWAP1 MSTORE PUSH1 0x24 DUP1 DUP3 ADD MSTORE PUSH32 0x616C726561647920636C61696D65642070726F636565647320666F7220746869 PUSH1 0x44 DUP3 ADD MSTORE PUSH4 0x1CC81251 PUSH1 0xE2 SHL PUSH1 0x64 DUP3 ADD MSTORE PUSH1 0x84 SWAP1 REVERT JUMPDEST POP DUP1 REVERT JUMPDEST POP CALLVALUE PUSH2 0x229 JUMPI PUSH2 0x4C6 CALLDATASIZE PUSH2 0x28C4 JUMP JUMPDEST PUSH2 0x4D3 DUP2 DUP5 SWAP6 SWAP5 EQ PUSH2 0x2C26 JUMP JUMPDEST PUSH2 0x4DC DUP5 PUSH2 0x2A58 JUMP JUMPDEST SWAP4 PUSH2 0x4EA PUSH1 0x40 MLOAD SWAP6 DUP7 PUSH2 0x2991 JUMP JUMPDEST DUP1 DUP6 MSTORE PUSH1 0x1F NOT PUSH2 0x4F9 DUP3 PUSH2 0x2A58 JUMP JUMPDEST ADD DUP7 JUMPDEST DUP2 DUP2 LT PUSH2 0x5AC JUMPI POP POP DUP6 JUMPDEST DUP2 DUP2 LT PUSH2 0x56C JUMPI PUSH1 0x40 DUP1 MLOAD PUSH1 0x20 DUP1 DUP3 MSTORE DUP9 MLOAD DUP2 DUP4 ADD DUP2 SWAP1 MSTORE DUP11 SWAP4 PUSH1 0x5 DUP3 SWAP1 SHL DUP5 ADD DUP2 ADD SWAP3 DUP1 DUP13 ADD SWAP3 SWAP2 DUP6 ADD JUMPDEST DUP3 DUP8 LT PUSH2 0x540 JUMPI DUP6 DUP6 SUB DUP7 RETURN JUMPDEST SWAP1 SWAP2 SWAP3 SWAP4 DUP3 DUP1 PUSH2 0x55C PUSH1 0x1 SWAP4 PUSH1 0x3F NOT DUP11 DUP3 SUB ADD DUP7 MSTORE DUP9 MLOAD PUSH2 0x27AF JUMP JUMPDEST SWAP7 ADD SWAP3 ADD SWAP7 ADD SWAP6 SWAP3 SWAP2 SWAP1 SWAP3 PUSH2 0x533 JUMP JUMPDEST DUP1 PUSH2 0x590 PUSH2 0x57D PUSH1 0x1 SWAP4 DUP6 DUP10 PUSH2 0x2C16 JUMP JUMPDEST CALLDATALOAD PUSH2 0x589 DUP4 DUP8 DUP10 PUSH2 0x2C16 JUMP JUMPDEST CALLDATALOAD SWAP1 PUSH2 0x328A JUMP JUMPDEST PUSH2 0x59A DUP3 DUP10 PUSH2 0x2BEC JUMP JUMPDEST MSTORE PUSH2 0x5A5 DUP2 DUP9 PUSH2 0x2BEC JUMP JUMPDEST POP ADD PUSH2 0x507 JUMP JUMPDEST PUSH1 0x20 SWAP1 PUSH2 0x5B7 PUSH2 0x3252 JUMP JUMPDEST DUP3 DUP3 DUP11 ADD ADD MSTORE ADD PUSH2 0x4FC JUMP JUMPDEST POP CALLVALUE PUSH2 0x229 JUMPI PUSH1 0x40 SWAP1 PUSH2 0x5D5 CALLDATASIZE PUSH2 0x2751 JUMP JUMPDEST SWAP1 DUP3 MSTORE PUSH1 0x9 PUSH1 0x20 MSTORE DUP3 DUP3 KECCAK256 SWAP1 DUP3 MSTORE PUSH1 0x20 MSTORE KECCAK256 PUSH1 0x1 DUP1 PUSH1 0xA0 SHL SUB DUP2 SLOAD AND PUSH1 0x1 DUP3 ADD SLOAD SWAP2 PUSH1 0x2 DUP2 ADD SLOAD PUSH2 0x608 PUSH1 0x3 DUP4 ADD PUSH2 0x29B2 JUMP JUMPDEST SWAP2 PUSH2 0x643 PUSH1 0x4 DUP3 ADD SLOAD SWAP4 PUSH1 0x6 PUSH1 0xFF PUSH1 0x5 DUP6 ADD SLOAD AND SWAP4 ADD SLOAD SWAP4 PUSH1 0x40 MLOAD SWAP8 DUP9 SWAP8 DUP9 MSTORE PUSH1 0x20 DUP9 ADD MSTORE PUSH1 0x40 DUP8 ADD MSTORE PUSH1 0xE0 PUSH1 0x60 DUP8 ADD MSTORE PUSH1 0xE0 DUP7 ADD SWAP1 PUSH2 0x278A JUMP JUMPDEST SWAP3 PUSH1 0x80 DUP6 ADD MSTORE ISZERO ISZERO PUSH1 0xA0 DUP5 ADD MSTORE PUSH1 0xC0 DUP4 ADD MSTORE SUB SWAP1 RETURN JUMPDEST POP CALLVALUE PUSH2 0x229 JUMPI PUSH1 0x20 CALLDATASIZE PUSH1 0x3 NOT ADD SLT PUSH2 0x229 JUMPI PUSH1 0x4 CALLDATALOAD SWAP1 PUSH2 0x1000 DUP3 LT ISZERO PUSH2 0x229 JUMPI PUSH2 0x2E4 PUSH2 0x2D0 DUP4 PUSH1 0xA ADD PUSH2 0x29B2 JUMP JUMPDEST POP CALLVALUE PUSH2 0x229 JUMPI DUP1 PUSH1 0x3 NOT CALLDATASIZE ADD SLT PUSH2 0x229 JUMPI PUSH1 0x20 PUSH1 0x3 SLOAD PUSH1 0x40 MLOAD SWAP1 DUP2 MSTORE RETURN JUMPDEST POP CALLVALUE PUSH2 0x229 JUMPI PUSH1 0x20 CALLDATASIZE PUSH1 0x3 NOT ADD SLT PUSH2 0x229 JUMPI PUSH1 0x40 PUSH1 0x20 SWAP2 PUSH1 0x4 CALLDATALOAD DUP2 MSTORE PUSH2 0x104C DUP4 MSTORE KECCAK256 SLOAD PUSH1 0x40 MLOAD SWAP1 DUP2 MSTORE RETURN JUMPDEST POP CALLVALUE PUSH2 0x229 JUMPI DUP1 PUSH1 0x3 NOT CALLDATASIZE ADD SLT PUSH2 0x229 JUMPI PUSH1 0x20 PUSH3 0x54600 PUSH2 0x6F4 PUSH1 0x4 SLOAD TIMESTAMP PUSH2 0x31E4 JUMP JUMPDEST DIV PUSH1 0x40 MLOAD SWAP1 DUP2 MSTORE RETURN JUMPDEST POP CALLVALUE PUSH2 0x229 JUMPI DUP1 PUSH1 0x3 NOT CALLDATASIZE ADD SLT PUSH2 0x229 JUMPI PUSH1 0x20 PUSH3 0x3F480 PUSH3 0x54600 PUSH2 0x724 PUSH1 0x4 SLOAD TIMESTAMP PUSH2 0x31E4 JUMP JUMPDEST MOD LT ISZERO PUSH1 0x40 MLOAD SWAP1 DUP2 MSTORE RETURN JUMPDEST POP CALLVALUE PUSH2 0x229 JUMPI DUP1 PUSH1 0x3 NOT CALLDATASIZE ADD SLT PUSH2 0x229 JUMPI PUSH1 0x20 PUSH1 0x40 MLOAD PUSH3 0x15180 DUP2 MSTORE RETURN JUMPDEST POP CALLVALUE PUSH2 0x229 JUMPI DUP1 PUSH1 0x3 NOT CALLDATASIZE ADD SLT PUSH2 0x229 JUMPI PUSH1 0x40 MLOAD PUSH1 0x80 DUP2 ADD DUP2 DUP2 LT PUSH1 0x1 PUSH1 0x1 PUSH1 0x40 SHL SUB DUP3 GT OR PUSH2 0x88F JUMPI PUSH1 0x40 MSTORE PUSH1 0x57 DUP2 MSTORE PUSH1 0x20 SWAP1 PUSH32 0x3C7376672077696474683D2236303022206865696768743D2236303022207669 DUP3 DUP3 ADD MSTORE PUSH32 0x6577426F783D2230203020363030203630302220786D6C6E733D22687474703A PUSH1 0x40 DUP3 ADD MSTORE PUSH23 0x1797BBBBBB973B999737B933979918181817B9BB33911F PUSH1 0x49 SHL PUSH1 0x60 DUP3 ADD MSTORE SWAP2 JUMPDEST PUSH1 0x40 DUP2 LT PUSH2 0x845 JUMPI POP PUSH2 0x831 PUSH1 0x26 PUSH1 0x40 MLOAD DUP5 PUSH2 0x813 DUP3 SWAP7 MLOAD DUP1 SWAP3 DUP8 DUP1 DUP7 ADD SWAP2 ADD PUSH2 0x2767 JUMP JUMPDEST DUP2 ADD PUSH6 0x1E17B9BB339F PUSH1 0xD1 SHL DUP6 DUP3 ADD MSTORE SUB PUSH1 0x6 DUP2 ADD DUP6 MSTORE ADD DUP4 PUSH2 0x2991 JUMP JUMPDEST PUSH2 0x2E4 PUSH1 0x40 MLOAD SWAP3 DUP3 DUP5 SWAP4 DUP5 MSTORE DUP4 ADD SWAP1 PUSH2 0x278A JUMP JUMPDEST SWAP2 DUP2 PUSH2 0x884 PUSH2 0x88A SWAP3 PUSH2 0x876 PUSH1 0x40 MLOAD SWAP4 DUP3 PUSH2 0x869 DUP7 SWAP5 MLOAD DUP1 SWAP3 DUP5 DUP1 DUP9 ADD SWAP2 ADD PUSH2 0x2767 JUMP JUMPDEST DUP4 ADD ADD DUP8 PUSH2 0x100A ADD PUSH2 0x3C05 JUMP JUMPDEST SUB PUSH1 0x1F NOT DUP2 ADD DUP4 MSTORE DUP3 PUSH2 0x2991 JUMP JUMPDEST SWAP3 PUSH2 0x2A6F JUMP JUMPDEST PUSH2 0x7EE JUMP JUMPDEST PUSH4 0x4E487B71 PUSH1 0xE0 SHL PUSH1 0x0 MSTORE PUSH1 0x41 PUSH1 0x4 MSTORE PUSH1 0x24 PUSH1 0x0 REVERT JUMPDEST POP CALLVALUE PUSH2 0x229 JUMPI PUSH1 0x20 CALLDATASIZE PUSH1 0x3 NOT ADD SLT PUSH2 0x229 JUMPI PUSH2 0x8BF PUSH2 0x280B JUMP JUMPDEST PUSH1 0x2 SLOAD PUSH1 0x1 PUSH1 0x1 PUSH1 0xA0 SHL SUB SWAP2 SWAP1 PUSH2 0x8D9 SWAP1 DUP4 AND CALLER EQ PUSH2 0x31F1 JUMP JUMPDEST AND PUSH1 0x1 DUP1 PUSH1 0xA0 SHL SUB NOT PUSH1 0x1 SLOAD AND OR PUSH1 0x1 SSTORE DUP1 RETURN JUMPDEST POP CALLVALUE PUSH2 0x229 JUMPI DUP1 PUSH1 0x3 NOT CALLDATASIZE ADD SLT PUSH2 0x229 JUMPI PUSH1 0x40 MLOAD SWAP1 PUSH3 0x20020 DUP3 ADD DUP3 DUP2 LT PUSH1 0x1 PUSH1 0x1 PUSH1 0x40 SHL SUB DUP3 GT OR PUSH2 0x88F JUMPI PUSH1 0x40 MSTORE PUSH2 0x1000 DUP3 MSTORE PUSH1 0x20 SWAP2 DUP3 DUP1 DUP3 ADD SWAP2 PUSH3 0x20000 CALLDATASIZE DUP5 CALLDATACOPY DUP4 JUMPDEST PUSH1 0x40 DUP2 LT PUSH2 0x9EC JUMPI POP PUSH1 0x1 DUP1 PUSH1 0xA0 SHL SUB PUSH1 0x6 SLOAD AND PUSH1 0x40 MLOAD SWAP4 DUP5 SWAP3 PUSH4 0x17046B01 PUSH1 0xE1 SHL DUP5 MSTORE PUSH1 0x24 DUP5 ADD SWAP1 DUP6 PUSH1 0x4 DUP7 ADD MSTORE MLOAD DUP1 SWAP2 MSTORE PUSH1 0x44 DUP5 ADD SWAP2 SWAP1 DUP8 JUMPDEST DUP2 DUP2 LT PUSH2 0x9D3 JUMPI POP POP POP DUP3 DUP1 SWAP2 SUB SWAP2 GAS STATICCALL SWAP2 DUP3 ISZERO PUSH2 0x9C7 JUMPI DUP1 SWAP3 PUSH2 0x997 JUMPI JUMPDEST POP POP PUSH1 0x40 MLOAD SWAP1 DUP2 MSTORE RETURN JUMPDEST SWAP1 SWAP2 POP DUP3 DUP3 DUP2 RETURNDATASIZE DUP4 GT PUSH2 0x9C0 JUMPI JUMPDEST PUSH2 0x9AF DUP2 DUP4 PUSH2 0x2991 JUMP JUMPDEST DUP2 ADD SUB SLT PUSH2 0x229 JUMPI POP MLOAD CODESIZE DUP1 PUSH2 0x98D JUMP JUMPDEST POP RETURNDATASIZE PUSH2 0x9A5 JUMP JUMPDEST PUSH1 0x40 MLOAD SWAP1 RETURNDATASIZE SWAP1 DUP3 RETURNDATACOPY RETURNDATASIZE SWAP1 REVERT JUMPDEST DUP3 MLOAD DUP5 MSTORE DUP10 SWAP7 DUP9 SWAP7 POP SWAP4 DUP5 ADD SWAP4 SWAP1 SWAP3 ADD SWAP2 PUSH1 0x1 ADD PUSH2 0x96E JUMP JUMPDEST SWAP1 SWAP3 SWAP2 POP DUP4 JUMPDEST PUSH1 0x40 DUP2 LT PUSH2 0xA07 JUMPI POP PUSH1 0x1 ADD SWAP2 DUP5 SWAP2 SWAP3 PUSH2 0x933 JUMP JUMPDEST PUSH1 0x1 PUSH1 0x1 PUSH1 0xFA SHL SUB DUP3 AND DUP3 SUB PUSH2 0xA5A JUMPI PUSH1 0x1 SWAP1 PUSH2 0xA27 DUP4 PUSH1 0x6 SHL DUP3 PUSH2 0x2837 JUMP JUMPDEST DUP2 DUP8 MSTORE PUSH1 0x9 DUP9 MSTORE PUSH1 0x40 DUP8 KECCAK256 DUP5 DUP9 MSTORE DUP9 MSTORE PUSH2 0xA53 PUSH1 0x1 PUSH1 0x1 PUSH1 0x60 SHL SUB NOT PUSH1 0x40 DUP10 KECCAK256 SLOAD PUSH1 0x60 SHL AND SWAP2 DUP8 PUSH2 0x2BEC JUMP JUMPDEST MSTORE ADD PUSH2 0x9F2 JUMP JUMPDEST PUSH4 0x4E487B71 PUSH1 0xE0 SHL DUP6 MSTORE PUSH1 0x11 PUSH1 0x4 MSTORE PUSH1 0x24 DUP6 REVERT JUMPDEST POP CALLVALUE PUSH2 0x229 JUMPI DUP1 PUSH1 0x3 NOT CALLDATASIZE ADD SLT PUSH2 0x229 JUMPI PUSH1 0x20 PUSH1 0x40 MLOAD PUSH2 0xFD20 DUP2 MSTORE RETURN JUMPDEST POP PUSH1 0x20 DUP1 PUSH1 0x3 NOT CALLDATASIZE ADD SLT PUSH2 0x4B3 JUMPI PUSH1 0x4 CALLDATALOAD SWAP1 PUSH2 0xAA5 PUSH2 0x3482 JUMP JUMPDEST DUP2 DUP4 MSTORE PUSH2 0x104D SWAP1 DUP2 DUP2 MSTORE PUSH2 0xAC3 PUSH1 0xFF PUSH1 0x4 PUSH1 0x40 DUP8 KECCAK256 ADD SLOAD AND ISZERO PUSH2 0x33BE JUMP JUMPDEST DUP3 DUP5 MSTORE DUP2 DUP2 MSTORE PUSH2 0xADB PUSH1 0x2 PUSH1 0x40 DUP7 KECCAK256 ADD SLOAD TIMESTAMP GT PUSH2 0x3406 JUMP JUMPDEST DUP3 DUP5 MSTORE DUP2 DUP2 MSTORE TIMESTAMP PUSH1 0x3 PUSH1 0x40 DUP7 KECCAK256 ADD SLOAD GT ISZERO PUSH2 0xC13 JUMPI DUP3 DUP5 MSTORE DUP2 DUP2 MSTORE PUSH1 0x1 PUSH1 0x40 DUP6 KECCAK256 ADD SLOAD CALLVALUE GT ISZERO PUSH2 0xBCF JUMPI DUP3 DUP5 MSTORE DUP2 DUP2 MSTORE DUP4 DUP1 DUP1 DUP1 PUSH1 0x40 DUP2 KECCAK256 PUSH1 0x1 DUP1 DUP1 PUSH1 0xA0 SHL SUB DUP3 SLOAD AND SWAP2 ADD SLOAD SWAP1 GAS CALL PUSH2 0xB2C PUSH2 0x3452 JUMP JUMPDEST POP ISZERO PUSH2 0xB94 JUMPI DUP3 DUP5 MSTORE MSTORE PUSH1 0x40 DUP1 DUP4 KECCAK256 CALLVALUE PUSH1 0x1 DUP3 ADD DUP2 SWAP1 SSTORE DUP2 SLOAD PUSH1 0x1 PUSH1 0x1 PUSH1 0xA0 SHL SUB NOT AND CALLER SWAP1 DUP2 OR SWAP1 SWAP3 SSTORE DUP3 MLOAD SWAP4 DUP5 MSTORE PUSH1 0x20 DUP5 ADD SWAP2 SWAP1 SWAP2 MSTORE SWAP1 DUP3 ADD MSTORE PUSH32 0x8108A40C809D4E4F749358511F7BAA90A1259A19024E438F728276CCD4C93686 SWAP1 PUSH1 0x60 SWAP1 LOG1 PUSH1 0x1 DUP2 SSTORE DUP1 RETURN JUMPDEST PUSH1 0x64 SWAP1 PUSH1 0x40 MLOAD SWAP1 PUSH3 0x461BCD PUSH1 0xE5 SHL DUP3 MSTORE PUSH1 0x4 DUP3 ADD MSTORE PUSH1 0x14 PUSH1 0x24 DUP3 ADD MSTORE PUSH20 0x2330B4B632B2103A379039B2B7321022BA3432B9 PUSH1 0x61 SHL PUSH1 0x44 DUP3 ADD MSTORE REVERT JUMPDEST PUSH1 0x64 SWAP1 PUSH1 0x40 MLOAD SWAP1 PUSH3 0x461BCD PUSH1 0xE5 SHL DUP3 MSTORE PUSH1 0x4 DUP3 ADD MSTORE PUSH1 0x1B PUSH1 0x24 DUP3 ADD MSTORE PUSH32 0x6869676865722062696420616C7265616479206578697374696E670000000000 PUSH1 0x44 DUP3 ADD MSTORE REVERT JUMPDEST PUSH1 0x64 SWAP1 PUSH1 0x40 MLOAD SWAP1 PUSH3 0x461BCD PUSH1 0xE5 SHL DUP3 MSTORE PUSH1 0x4 DUP3 ADD MSTORE PUSH1 0x19 PUSH1 0x24 DUP3 ADD MSTORE PUSH25 0x185D58DD1A5BDB881A185CC8185B1C9958591E48195B991959 PUSH1 0x3A SHL PUSH1 0x44 DUP3 ADD MSTORE REVERT JUMPDEST POP CALLVALUE PUSH2 0x229 JUMPI PUSH1 0x20 CALLDATASIZE PUSH1 0x3 NOT ADD SLT PUSH2 0x229 JUMPI PUSH1 0x40 PUSH1 0xA0 SWAP2 PUSH1 0x4 CALLDATALOAD DUP2 MSTORE PUSH2 0x104D PUSH1 0x20 MSTORE KECCAK256 PUSH1 0x1 DUP1 DUP4 SHL SUB DUP2 SLOAD AND SWAP1 PUSH1 0x1 DUP2 ADD SLOAD SWAP1 PUSH1 0x2 DUP2 ADD SLOAD PUSH1 0xFF PUSH1 0x4 PUSH1 0x3 DUP5 ADD SLOAD SWAP4 ADD SLOAD AND SWAP3 PUSH1 0x40 MLOAD SWAP5 DUP6 MSTORE PUSH1 0x20 DUP6 ADD MSTORE PUSH1 0x40 DUP5 ADD MSTORE PUSH1 0x60 DUP4 ADD MSTORE ISZERO ISZERO PUSH1 0x80 DUP3 ADD MSTORE RETURN JUMPDEST POP CALLVALUE PUSH2 0x229 JUMPI PUSH1 0x60 CALLDATASIZE PUSH1 0x3 NOT ADD SLT PUSH2 0x229 JUMPI PUSH1 0x4 CALLDATALOAD PUSH1 0x24 CALLDATALOAD SWAP1 PUSH2 0xCE5 PUSH1 0x1 DUP1 PUSH1 0xA0 SHL SUB PUSH1 0x2 SLOAD AND CALLER EQ PUSH2 0x31F1 JUMP JUMPDEST DUP1 DUP4 MSTORE PUSH1 0x9 PUSH1 0x20 SWAP2 DUP2 DUP4 MSTORE PUSH1 0x40 DUP6 KECCAK256 DUP5 DUP7 MSTORE DUP4 MSTORE PUSH1 0xFF PUSH1 0x5 PUSH1 0x40 DUP8 KECCAK256 ADD SLOAD AND DUP1 PUSH2 0xD98 JUMPI JUMPDEST ISZERO PUSH2 0xD5F JUMPI DUP1 DUP6 MSTORE DUP2 DUP4 MSTORE PUSH1 0x40 DUP6 KECCAK256 DUP5 DUP7 MSTORE DUP4 MSTORE PUSH1 0x44 CALLDATALOAD PUSH1 0x2 PUSH1 0x40 DUP8 KECCAK256 ADD SSTORE DUP1 DUP6 MSTORE DUP2 DUP4 MSTORE PUSH1 0x40 DUP6 KECCAK256 DUP5 DUP7 MSTORE DUP4 MSTORE PUSH1 0x5 PUSH1 0x40 DUP7 KECCAK256 ADD PUSH1 0xFF NOT DUP2 SLOAD AND SWAP1 SSTORE DUP5 MSTORE DUP2 MSTORE PUSH1 0x40 DUP4 KECCAK256 SWAP2 DUP4 MSTORE MSTORE DUP1 PUSH1 0x6 PUSH1 0x40 DUP3 KECCAK256 ADD SSTORE DUP1 RETURN JUMPDEST DUP1 DUP6 MSTORE DUP2 DUP4 MSTORE PUSH1 0x40 DUP6 KECCAK256 DUP5 DUP7 MSTORE DUP4 MSTORE PUSH1 0x5 PUSH1 0x40 DUP7 KECCAK256 ADD PUSH1 0x1 PUSH1 0xFF NOT DUP3 SLOAD AND OR SWAP1 SSTORE DUP5 MSTORE DUP2 MSTORE PUSH1 0x40 DUP4 KECCAK256 SWAP2 DUP4 MSTORE MSTORE TIMESTAMP PUSH1 0x6 PUSH1 0x40 DUP4 KECCAK256 ADD SSTORE DUP1 RETURN JUMPDEST POP DUP1 DUP6 MSTORE DUP2 DUP4 MSTORE PUSH1 0x40 DUP6 KECCAK256 DUP5 DUP7 MSTORE DUP4 MSTORE PUSH1 0x6 PUSH1 0x40 DUP7 KECCAK256 ADD SLOAD PUSH3 0x3F480 DUP2 ADD DUP1 SWAP2 GT PUSH2 0xDC4 JUMPI TIMESTAMP GT PUSH2 0xD0A JUMP JUMPDEST PUSH4 0x4E487B71 PUSH1 0xE0 SHL DUP7 MSTORE PUSH1 0x11 PUSH1 0x4 MSTORE PUSH1 0x24 DUP7 REVERT JUMPDEST POP CALLVALUE PUSH2 0x229 JUMPI PUSH1 0x60 CALLDATASIZE PUSH1 0x3 NOT ADD SLT PUSH2 0x229 JUMPI PUSH1 0x1 PUSH1 0x1 PUSH1 0x40 SHL SUB PUSH1 0x4 CALLDATALOAD DUP2 DUP2 GT PUSH2 0x105B JUMPI PUSH2 0xE0A SWAP1 CALLDATASIZE SWAP1 PUSH1 0x4 ADD PUSH2 0x2878 JUMP JUMPDEST SWAP1 PUSH1 0x24 SWAP2 DUP3 CALLDATALOAD DUP5 DUP2 GT PUSH2 0x1057 JUMPI PUSH2 0xE25 SWAP1 CALLDATASIZE SWAP1 PUSH1 0x4 ADD PUSH2 0x2878 JUMP JUMPDEST SWAP3 SWAP1 SWAP4 PUSH1 0x44 SWAP6 DUP7 CALLDATALOAD SWAP1 DUP2 GT PUSH2 0x1053 JUMPI PUSH2 0xE42 SWAP1 CALLDATASIZE SWAP1 PUSH1 0x4 ADD PUSH2 0x2878 JUMP JUMPDEST SWAP2 SWAP1 SWAP7 DUP6 DUP6 EQ DUP1 PUSH2 0x104A JUMPI JUMPDEST ISZERO PUSH2 0xFF7 JUMPI DUP9 JUMPDEST DUP6 DUP2 LT PUSH2 0xEFA JUMPI POP POP POP PUSH2 0xE6B DUP5 DUP7 DUP6 DUP6 PUSH2 0x2CC0 JUMP JUMPDEST DUP7 JUMPDEST DUP4 DUP2 LT PUSH2 0xE78 JUMPI DUP8 DUP1 RETURN JUMPDEST DUP1 PUSH2 0xE86 PUSH1 0x1 SWAP3 DUP5 DUP11 PUSH2 0x2C16 JUMP JUMPDEST CALLDATALOAD PUSH2 0xE92 DUP3 DUP8 DUP8 PUSH2 0x2C16 JUMP JUMPDEST CALLDATALOAD DUP11 MSTORE PUSH1 0x20 PUSH1 0x9 DUP2 MSTORE PUSH1 0x40 DUP12 KECCAK256 SWAP1 PUSH2 0xEAB DUP5 DUP11 DUP13 PUSH2 0x2C16 JUMP JUMPDEST CALLDATALOAD DUP13 MSTORE MSTORE PUSH1 0x2 PUSH1 0x40 DUP12 KECCAK256 ADD SSTORE PUSH2 0xEC2 DUP2 DUP7 DUP7 PUSH2 0x2C16 JUMP JUMPDEST CALLDATALOAD PUSH2 0xECE DUP3 DUP9 DUP11 PUSH2 0x2C16 JUMP JUMPDEST CALLDATALOAD SWAP1 PUSH32 0x1C362B7FC7C4865E1E7EDE89F240549BBD8B5EE43B51383C9C0392687D6D10EC DUP12 DUP1 LOG3 ADD PUSH2 0xE6D JUMP JUMPDEST PUSH2 0xF05 DUP2 DUP8 DUP8 PUSH2 0x2C16 JUMP JUMPDEST CALLDATALOAD PUSH1 0x40 PUSH2 0xF13 DUP4 DUP11 DUP13 PUSH2 0x2C16 JUMP JUMPDEST CALLDATALOAD SWAP2 LT SWAP1 DUP2 ISZERO SWAP2 PUSH2 0xFEB JUMPI JUMPDEST POP PUSH2 0xFAD JUMPI PUSH2 0xF2F DUP2 DUP8 DUP8 PUSH2 0x2C16 JUMP JUMPDEST CALLDATALOAD DUP11 MSTORE PUSH1 0x20 PUSH1 0x9 DUP2 MSTORE PUSH1 0x40 DUP12 KECCAK256 PUSH2 0xF47 DUP4 DUP11 DUP13 PUSH2 0x2C16 JUMP JUMPDEST CALLDATALOAD DUP13 MSTORE DUP2 MSTORE PUSH1 0x40 DUP12 KECCAK256 SLOAD CALLER PUSH1 0x1 PUSH1 0x1 PUSH1 0xA0 SHL SUB SWAP1 SWAP2 AND SUB PUSH2 0xF6B JUMPI POP PUSH1 0x1 ADD PUSH2 0xE55 JUMP JUMPDEST PUSH1 0x64 SWAP1 PUSH32 0x6F6E6C79206F776E65722063616E2073657420706978656C2076616C75650000 DUP5 PUSH1 0x1E DUP8 PUSH1 0x40 MLOAD SWAP5 PUSH3 0x461BCD PUSH1 0xE5 SHL DUP7 MSTORE PUSH1 0x4 DUP7 ADD MSTORE DUP5 ADD MSTORE DUP3 ADD MSTORE REVERT JUMPDEST PUSH1 0x40 MLOAD PUSH3 0x461BCD PUSH1 0xE5 SHL DUP2 MSTORE PUSH1 0x20 PUSH1 0x4 DUP3 ADD MSTORE PUSH1 0x18 DUP2 DUP6 ADD MSTORE PUSH24 0x4120706978656C206973206F7574206F6620626F756E6473 PUSH1 0x40 SHL DUP2 DUP5 ADD MSTORE PUSH1 0x64 SWAP1 REVERT JUMPDEST PUSH1 0x40 SWAP2 POP LT ISZERO CODESIZE PUSH2 0xF1F JUMP JUMPDEST SWAP1 PUSH32 0x696E70757420617272617973206D757374206265206F66207468652073616D65 PUSH1 0x84 SWAP3 PUSH1 0x27 PUSH1 0x40 MLOAD SWAP4 PUSH3 0x461BCD PUSH1 0xE5 SHL DUP6 MSTORE PUSH1 0x20 PUSH1 0x4 DUP7 ADD MSTORE DUP5 ADD MSTORE DUP3 ADD MSTORE PUSH7 0x40D8CADCCEE8D PUSH1 0xCB SHL PUSH1 0x64 DUP3 ADD MSTORE REVERT JUMPDEST POP DUP3 DUP6 EQ PUSH2 0xE4E JUMP JUMPDEST DUP8 DUP1 REVERT JUMPDEST DUP6 DUP1 REVERT JUMPDEST DUP3 DUP1 REVERT JUMPDEST POP CALLVALUE PUSH2 0x229 JUMPI PUSH1 0x20 DUP1 PUSH1 0x3 NOT CALLDATASIZE ADD SLT PUSH2 0x4B3 JUMPI PUSH1 0x4 CALLDATALOAD DUP1 ISZERO ISZERO DUP2 SUB PUSH2 0x105B JUMPI PUSH1 0x4 SLOAD PUSH3 0x54600 SWAP1 PUSH3 0x3F480 DUP3 PUSH2 0x1095 DUP4 TIMESTAMP PUSH2 0x31E4 JUMP JUMPDEST MOD LT PUSH2 0x1214 JUMPI CALLER DUP6 MSTORE PUSH2 0x104A DUP5 MSTORE PUSH1 0x40 DUP6 KECCAK256 SLOAD SWAP1 DUP2 ISZERO PUSH2 0x11BF JUMPI DUP3 PUSH2 0x10BA DUP3 TIMESTAMP PUSH2 0x31E4 JUMP JUMPDEST DIV DUP7 MSTORE PUSH2 0x104B SWAP4 DUP5 DUP7 MSTORE PUSH1 0x2 PUSH1 0x40 DUP9 KECCAK256 ADD CALLER PUSH1 0x0 MSTORE DUP7 MSTORE PUSH1 0xFF PUSH1 0x40 PUSH1 0x0 KECCAK256 SLOAD AND PUSH2 0x118A JUMPI DUP4 SWAP2 SWAP1 ISZERO PUSH2 0x1161 JUMPI POP PUSH2 0x10F3 PUSH1 0x4 SLOAD TIMESTAMP PUSH2 0x31E4 JUMP JUMPDEST DIV DUP6 MSTORE DUP3 DUP5 MSTORE PUSH2 0x1108 PUSH1 0x40 DUP7 KECCAK256 SWAP2 DUP3 SLOAD PUSH2 0x2837 JUMP JUMPDEST SWAP1 SSTORE JUMPDEST PUSH2 0x1117 PUSH1 0x4 SLOAD TIMESTAMP PUSH2 0x31E4 JUMP JUMPDEST DIV DUP4 MSTORE DUP2 MSTORE PUSH1 0x2 PUSH1 0x40 DUP4 KECCAK256 ADD SWAP1 CALLER PUSH1 0x0 MSTORE MSTORE PUSH1 0x40 PUSH1 0x0 KECCAK256 PUSH1 0x1 PUSH1 0xFF NOT DUP3 SLOAD AND OR SWAP1 SSTORE CALLER PUSH32 0x7CE969A18BB6B0FBA42C6D9746E7D08EECA4C661809659C91D276456E3153AC0 DUP3 DUP1 LOG2 DUP1 RETURN JUMPDEST PUSH2 0x116B SWAP1 TIMESTAMP PUSH2 0x31E4 JUMP JUMPDEST DIV DUP6 MSTORE DUP3 DUP5 MSTORE PUSH2 0x1183 PUSH1 0x1 PUSH1 0x40 DUP8 KECCAK256 ADD SWAP2 DUP3 SLOAD PUSH2 0x2837 JUMP JUMPDEST SWAP1 SSTORE PUSH2 0x110B JUMP JUMPDEST PUSH1 0x40 MLOAD PUSH3 0x461BCD PUSH1 0xE5 SHL DUP2 MSTORE PUSH1 0x4 DUP2 ADD DUP8 SWAP1 MSTORE PUSH1 0xD PUSH1 0x24 DUP3 ADD MSTORE PUSH13 0x185B1C9958591E481D9BDD1959 PUSH1 0x9A SHL PUSH1 0x44 DUP3 ADD MSTORE PUSH1 0x64 SWAP1 REVERT JUMPDEST PUSH1 0x40 MLOAD PUSH3 0x461BCD PUSH1 0xE5 SHL DUP2 MSTORE PUSH1 0x4 DUP2 ADD DUP7 SWAP1 MSTORE PUSH1 0x27 PUSH1 0x24 DUP3 ADD MSTORE PUSH32 0x6E6F20706978656C73206F776E6564203D206E6F20766F74657320746F206265 PUSH1 0x44 DUP3 ADD MSTORE PUSH7 0x818D85CDD1959 PUSH1 0xCA SHL PUSH1 0x64 DUP3 ADD MSTORE PUSH1 0x84 SWAP1 REVERT JUMPDEST PUSH1 0x40 MLOAD PUSH3 0x461BCD PUSH1 0xE5 SHL DUP2 MSTORE PUSH1 0x4 DUP2 ADD DUP6 SWAP1 MSTORE PUSH1 0x19 PUSH1 0x24 DUP3 ADD MSTORE PUSH25 0x2B37BA34B7339031BAB93932B73A363C903737BA1037B832B7 PUSH1 0x39 SHL PUSH1 0x44 DUP3 ADD MSTORE PUSH1 0x64 SWAP1 REVERT JUMPDEST POP CALLVALUE PUSH2 0x229 JUMPI PUSH1 0x20 CALLDATASIZE PUSH1 0x3 NOT ADD SLT PUSH2 0x229 JUMPI PUSH1 0x40 SWAP1 PUSH1 0x4 CALLDATALOAD DUP2 MSTORE PUSH1 0x7 PUSH1 0x20 MSTORE KECCAK256 CALLER PUSH1 0x0 MSTORE PUSH1 0x20 MSTORE PUSH1 0x20 PUSH1 0x40 PUSH1 0x0 KECCAK256 SLOAD PUSH1 0x40 MLOAD SWAP1 DUP2 MSTORE RETURN JUMPDEST POP CALLVALUE PUSH2 0x229 JUMPI PUSH1 0x40 CALLDATASIZE PUSH1 0x3 NOT ADD SLT PUSH2 0x229 JUMPI PUSH1 0x40 PUSH2 0x12A8 PUSH2 0x2821 JUMP JUMPDEST SWAP2 PUSH1 0x4 CALLDATALOAD DUP2 MSTORE PUSH1 0x8 PUSH1 0x20 MSTORE KECCAK256 SWAP1 PUSH1 0x1 DUP1 PUSH1 0xA0 SHL SUB AND PUSH1 0x0 MSTORE PUSH1 0x20 MSTORE PUSH1 0x20 PUSH1 0xFF PUSH1 0x40 PUSH1 0x0 KECCAK256 SLOAD AND PUSH1 0x40 MLOAD SWAP1 ISZERO ISZERO DUP2 MSTORE RETURN JUMPDEST POP CALLVALUE PUSH2 0x229 JUMPI PUSH2 0x12E7 CALLDATASIZE PUSH2 0x28C4 JUMP JUMPDEST SWAP3 SWAP2 PUSH2 0x12F4 DUP5 DUP3 EQ PUSH2 0x2C26 JUMP JUMPDEST DUP5 JUMPDEST DUP2 DUP2 LT PUSH2 0x1301 JUMPI DUP6 DUP1 RETURN JUMPDEST PUSH2 0x130C DUP2 DUP4 DUP7 PUSH2 0x2C16 JUMP JUMPDEST CALLDATALOAD PUSH1 0x40 PUSH2 0x131A DUP4 DUP9 DUP8 PUSH2 0x2C16 JUMP JUMPDEST CALLDATALOAD SWAP2 LT SWAP1 DUP2 ISZERO SWAP2 PUSH2 0x1AD2 JUMPI JUMPDEST POP PUSH2 0x1AB5 JUMPI PUSH2 0x1336 DUP2 DUP4 DUP7 PUSH2 0x2C16 JUMP JUMPDEST CALLDATALOAD DUP7 MSTORE PUSH1 0x9 PUSH1 0x20 MSTORE PUSH1 0x40 DUP7 KECCAK256 PUSH2 0x134D DUP3 DUP8 DUP7 PUSH2 0x2C16 JUMP JUMPDEST CALLDATALOAD DUP8 MSTORE PUSH1 0x20 MSTORE PUSH1 0x40 DUP7 KECCAK256 SLOAD PUSH1 0x1 PUSH1 0x1 PUSH1 0xA0 SHL SUB AND PUSH2 0x1417 JUMPI PUSH2 0x1370 DUP2 DUP4 DUP7 PUSH2 0x2C16 JUMP JUMPDEST CALLDATALOAD DUP7 MSTORE PUSH1 0x9 PUSH1 0x20 MSTORE PUSH1 0x40 DUP7 KECCAK256 PUSH2 0x1387 DUP3 DUP8 DUP7 PUSH2 0x2C16 JUMP JUMPDEST CALLDATALOAD DUP8 MSTORE PUSH1 0x20 MSTORE PUSH1 0x40 DUP7 KECCAK256 CALLER PUSH1 0x1 DUP1 PUSH1 0xA0 SHL SUB NOT DUP3 SLOAD AND OR SWAP1 SSTORE CALLER DUP7 MSTORE PUSH2 0x104A PUSH1 0x20 MSTORE PUSH1 0x40 DUP7 KECCAK256 DUP1 SLOAD SWAP1 PUSH1 0x1 DUP3 ADD DUP1 SWAP3 GT PUSH2 0x1403 JUMPI SSTORE PUSH1 0x1 SWAP1 JUMPDEST PUSH2 0x13CB DUP2 DUP5 DUP8 PUSH2 0x2C16 JUMP JUMPDEST CALLDATALOAD PUSH2 0x13D7 DUP3 DUP9 DUP8 PUSH2 0x2C16 JUMP JUMPDEST CALLDATALOAD SWAP1 PUSH32 0xEE0E9A85D097F632450E6AC08750207C8F039246EE437B10EAF708B397D00AD8 DUP10 DUP1 LOG3 ADD PUSH2 0x12F6 JUMP JUMPDEST PUSH4 0x4E487B71 PUSH1 0xE0 SHL DUP9 MSTORE PUSH1 0x11 PUSH1 0x4 MSTORE PUSH1 0x24 DUP9 REVERT JUMPDEST PUSH2 0x1438 PUSH2 0x1425 DUP3 DUP5 DUP8 PUSH2 0x2C16 JUMP JUMPDEST CALLDATALOAD PUSH2 0x1431 DUP4 DUP9 DUP8 PUSH2 0x2C16 JUMP JUMPDEST CALLDATALOAD SWAP1 PUSH2 0x3361 JUMP JUMPDEST PUSH2 0x1443 DUP3 DUP5 DUP8 PUSH2 0x2C16 JUMP JUMPDEST CALLDATALOAD DUP8 MSTORE PUSH1 0x9 PUSH1 0x20 MSTORE PUSH1 0x40 DUP8 KECCAK256 PUSH2 0x145A DUP4 DUP9 DUP8 PUSH2 0x2C16 JUMP JUMPDEST CALLDATALOAD DUP9 MSTORE PUSH1 0x20 MSTORE DUP1 PUSH1 0x2 PUSH1 0x40 DUP10 KECCAK256 ADD SLOAD GT PUSH1 0x0 EQ PUSH2 0x1834 JUMPI PUSH2 0x147C DUP3 DUP5 DUP8 PUSH2 0x2C16 JUMP JUMPDEST CALLDATALOAD DUP8 MSTORE PUSH1 0x9 PUSH1 0x20 MSTORE PUSH1 0x40 DUP8 KECCAK256 PUSH2 0x1493 DUP4 DUP9 DUP8 PUSH2 0x2C16 JUMP JUMPDEST CALLDATALOAD DUP9 MSTORE PUSH1 0x20 MSTORE PUSH2 0x14AA DUP2 PUSH1 0x2 PUSH1 0x40 DUP11 KECCAK256 ADD SLOAD PUSH2 0x31E4 JUMP JUMPDEST SWAP1 PUSH1 0x1 DUP1 PUSH1 0xA0 SHL SUB PUSH1 0x5 SLOAD AND PUSH1 0x40 MLOAD PUSH4 0x70A08231 PUSH1 0xE0 SHL DUP2 MSTORE CALLER PUSH1 0x4 DUP3 ADD MSTORE PUSH1 0x20 DUP2 PUSH1 0x24 DUP2 DUP6 GAS STATICCALL DUP1 ISZERO PUSH2 0x1829 JUMPI DUP11 SWAP1 PUSH2 0x17F5 JUMPI JUMPDEST PUSH2 0x151A SWAP2 POP PUSH2 0x14EF DUP7 DUP9 DUP12 PUSH2 0x2C16 JUMP JUMPDEST CALLDATALOAD DUP12 MSTORE PUSH1 0x9 PUSH1 0x20 MSTORE PUSH1 0x40 DUP12 KECCAK256 PUSH2 0x1506 DUP8 DUP13 DUP12 PUSH2 0x2C16 JUMP JUMPDEST CALLDATALOAD DUP13 MSTORE PUSH1 0x20 MSTORE PUSH1 0x2 PUSH1 0x40 DUP13 KECCAK256 ADD SLOAD LT PUSH2 0x3134 JUMP JUMPDEST PUSH1 0x40 MLOAD PUSH4 0x6EB1769F PUSH1 0xE1 SHL DUP2 MSTORE CALLER PUSH1 0x4 DUP3 ADD MSTORE ADDRESS PUSH1 0x24 DUP3 ADD MSTORE DUP10 PUSH1 0x20 DUP3 PUSH1 0x44 DUP2 DUP7 GAS STATICCALL SWAP2 DUP3 ISZERO PUSH2 0x17E8 JUMPI DUP7 DUP12 DUP10 DUP13 DUP13 SWAP5 DUP7 SWAP8 PUSH2 0x179D JUMPI JUMPDEST POP SWAP5 PUSH2 0x1592 SWAP5 PUSH2 0x1583 DUP6 PUSH1 0x2 SWAP6 PUSH2 0x1573 PUSH2 0x15E8 SWAP15 SWAP12 SWAP9 PUSH1 0x40 SWAP8 PUSH1 0x20 SWAP15 SWAP13 PUSH2 0x2C16 JUMP JUMPDEST CALLDATALOAD DUP6 MSTORE PUSH1 0x9 DUP13 MSTORE DUP6 DUP6 KECCAK256 SWAP4 PUSH2 0x2C16 JUMP JUMPDEST CALLDATALOAD DUP3 MSTORE DUP9 MSTORE KECCAK256 ADD SLOAD GT ISZERO PUSH2 0x318C JUMP JUMPDEST PUSH2 0x159D DUP7 DUP9 DUP12 PUSH2 0x2C16 JUMP JUMPDEST CALLDATALOAD DUP12 MSTORE PUSH1 0x9 DUP4 MSTORE PUSH1 0x40 DUP12 KECCAK256 PUSH2 0x15B3 DUP8 DUP13 DUP12 PUSH2 0x2C16 JUMP JUMPDEST CALLDATALOAD DUP13 MSTORE DUP4 MSTORE PUSH1 0x40 DUP1 DUP13 KECCAK256 SLOAD SWAP1 MLOAD PUSH4 0x23B872DD PUSH1 0xE0 SHL DUP2 MSTORE SWAP6 DUP7 SWAP4 DUP5 SWAP3 DUP15 SWAP3 DUP5 SWAP3 SWAP1 SWAP2 PUSH1 0x1 PUSH1 0x1 PUSH1 0xA0 SHL SUB AND CALLER PUSH1 0x4 DUP6 ADD PUSH2 0x2C9E JUMP JUMPDEST SUB SWAP3 GAS CALL SWAP1 DUP2 ISZERO PUSH2 0x1792 JUMPI PUSH2 0x1637 SWAP3 PUSH1 0x20 SWAP3 PUSH2 0x1775 JUMPI JUMPDEST POP PUSH1 0x5 SLOAD PUSH1 0x2 SLOAD PUSH1 0x40 MLOAD PUSH4 0x23B872DD PUSH1 0xE0 SHL DUP2 MSTORE SWAP5 DUP6 SWAP4 PUSH1 0x1 PUSH1 0x1 PUSH1 0xA0 SHL SUB SWAP4 DUP5 AND SWAP4 DUP6 SWAP4 DUP15 SWAP4 DUP6 SWAP4 SWAP1 SWAP3 SWAP1 SWAP2 AND CALLER PUSH1 0x4 DUP6 ADD PUSH2 0x2C9E JUMP JUMPDEST SUB SWAP3 GAS CALL DUP1 ISZERO PUSH2 0x176A JUMPI PUSH2 0x173B JUMPI JUMPDEST POP PUSH2 0x1652 DUP2 DUP4 DUP7 PUSH2 0x2C16 JUMP JUMPDEST CALLDATALOAD DUP7 MSTORE PUSH1 0x9 PUSH1 0x20 MSTORE PUSH1 0x40 DUP7 KECCAK256 PUSH2 0x1669 DUP3 DUP8 DUP7 PUSH2 0x2C16 JUMP JUMPDEST CALLDATALOAD DUP8 MSTORE PUSH1 0x20 SWAP1 DUP2 MSTORE PUSH1 0x40 DUP1 DUP9 KECCAK256 SLOAD PUSH1 0x1 PUSH1 0x1 PUSH1 0xA0 SHL SUB AND DUP9 MSTORE PUSH2 0x104A SWAP2 DUP3 SWAP1 MSTORE DUP8 KECCAK256 DUP1 SLOAD PUSH1 0x0 NOT DUP2 ADD SWAP2 SWAP1 DUP3 GT PUSH2 0x1727 JUMPI SSTORE CALLER DUP8 MSTORE PUSH1 0x20 MSTORE PUSH1 0x40 DUP7 KECCAK256 DUP1 SLOAD SWAP1 PUSH1 0x1 DUP3 ADD DUP1 SWAP3 GT PUSH2 0x1403 JUMPI SSTORE PUSH1 0x1 SWAP1 PUSH2 0x16C2 DUP2 DUP5 DUP8 PUSH2 0x2C16 JUMP JUMPDEST CALLDATALOAD DUP8 MSTORE PUSH1 0x9 PUSH1 0x20 MSTORE PUSH1 0x40 DUP8 KECCAK256 PUSH2 0x16D9 DUP3 DUP9 DUP8 PUSH2 0x2C16 JUMP JUMPDEST CALLDATALOAD DUP9 MSTORE PUSH1 0x20 MSTORE PUSH1 0x40 DUP8 KECCAK256 CALLER DUP4 DUP1 PUSH1 0xA0 SHL SUB NOT DUP3 SLOAD AND OR SWAP1 SSTORE PUSH2 0x16FC DUP2 DUP5 DUP8 PUSH2 0x2C16 JUMP JUMPDEST CALLDATALOAD DUP8 MSTORE PUSH1 0x9 PUSH1 0x20 MSTORE PUSH1 0x40 DUP8 KECCAK256 PUSH2 0x1713 DUP3 DUP9 DUP8 PUSH2 0x2C16 JUMP JUMPDEST CALLDATALOAD DUP9 MSTORE PUSH1 0x20 MSTORE TIMESTAMP PUSH1 0x4 PUSH1 0x40 DUP10 KECCAK256 ADD SSTORE PUSH2 0x13C0 JUMP JUMPDEST PUSH4 0x4E487B71 PUSH1 0xE0 SHL DUP10 MSTORE PUSH1 0x11 PUSH1 0x4 MSTORE PUSH1 0x24 DUP10 REVERT JUMPDEST PUSH2 0x175C SWAP1 PUSH1 0x20 RETURNDATASIZE PUSH1 0x20 GT PUSH2 0x1763 JUMPI JUMPDEST PUSH2 0x1754 DUP2 DUP4 PUSH2 0x2991 JUMP JUMPDEST DUP2 ADD SWAP1 PUSH2 0x2C86 JUMP JUMPDEST POP CODESIZE PUSH2 0x1646 JUMP JUMPDEST POP RETURNDATASIZE PUSH2 0x174A JUMP JUMPDEST PUSH1 0x40 MLOAD RETURNDATASIZE DUP10 DUP3 RETURNDATACOPY RETURNDATASIZE SWAP1 REVERT JUMPDEST PUSH2 0x178B SWAP1 DUP4 RETURNDATASIZE DUP6 GT PUSH2 0x1763 JUMPI PUSH2 0x1754 DUP2 DUP4 PUSH2 0x2991 JUMP JUMPDEST POP CODESIZE PUSH2 0x15FF JUMP JUMPDEST PUSH1 0x40 MLOAD RETURNDATASIZE DUP11 DUP3 RETURNDATACOPY RETURNDATASIZE SWAP1 REVERT JUMPDEST SWAP8 SWAP10 SWAP7 POP POP POP POP POP POP POP PUSH1 0x20 DUP3 RETURNDATASIZE PUSH1 0x20 GT PUSH2 0x17E0 JUMPI JUMPDEST DUP2 PUSH2 0x17C0 PUSH1 0x20 SWAP4 DUP4 PUSH2 0x2991 JUMP JUMPDEST DUP2 ADD SUB SLT PUSH2 0x17DB JUMPI SWAP1 MLOAD SWAP1 SWAP3 SWAP1 DUP10 DUP8 DUP7 DUP12 DUP10 DUP13 PUSH2 0x1592 PUSH2 0x1551 JUMP JUMPDEST PUSH1 0x0 DUP1 REVERT JUMPDEST RETURNDATASIZE SWAP2 POP PUSH2 0x17B3 JUMP JUMPDEST POP PUSH1 0x40 MLOAD SWAP1 RETURNDATASIZE SWAP1 DUP3 RETURNDATACOPY RETURNDATASIZE SWAP1 REVERT JUMPDEST POP PUSH1 0x20 DUP2 RETURNDATASIZE PUSH1 0x20 GT PUSH2 0x1821 JUMPI JUMPDEST DUP2 PUSH2 0x180F PUSH1 0x20 SWAP4 DUP4 PUSH2 0x2991 JUMP JUMPDEST DUP2 ADD SUB SLT PUSH2 0x17DB JUMPI PUSH2 0x151A SWAP1 MLOAD PUSH2 0x14DF JUMP JUMPDEST RETURNDATASIZE SWAP2 POP PUSH2 0x1802 JUMP JUMPDEST PUSH1 0x40 MLOAD RETURNDATASIZE DUP13 DUP3 RETURNDATACOPY RETURNDATASIZE SWAP1 REVERT JUMPDEST POP PUSH1 0x5 SLOAD PUSH1 0x40 MLOAD PUSH4 0x70A08231 PUSH1 0xE0 SHL DUP2 MSTORE CALLER PUSH1 0x4 DUP3 ADD MSTORE PUSH1 0x24 SWAP2 PUSH1 0x1 PUSH1 0x1 PUSH1 0xA0 SHL SUB AND SWAP1 PUSH1 0x20 DUP2 DUP5 DUP2 DUP6 GAS STATICCALL DUP1 ISZERO PUSH2 0x1A76 JUMPI DUP10 SWAP1 PUSH2 0x1A81 JUMPI JUMPDEST PUSH2 0x18A8 SWAP2 POP PUSH2 0x187D DUP6 DUP8 DUP11 PUSH2 0x2C16 JUMP JUMPDEST CALLDATALOAD DUP11 MSTORE PUSH1 0x9 PUSH1 0x20 MSTORE PUSH1 0x40 DUP11 KECCAK256 PUSH2 0x1894 DUP7 DUP12 DUP11 PUSH2 0x2C16 JUMP JUMPDEST CALLDATALOAD DUP12 MSTORE PUSH1 0x20 MSTORE PUSH1 0x2 PUSH1 0x40 DUP12 KECCAK256 ADD SLOAD LT PUSH2 0x3134 JUMP JUMPDEST PUSH1 0x40 MLOAD PUSH4 0x6EB1769F PUSH1 0xE1 SHL DUP2 MSTORE CALLER PUSH1 0x4 DUP3 ADD MSTORE ADDRESS PUSH1 0x24 DUP3 ADD MSTORE PUSH1 0x20 DUP2 PUSH1 0x44 DUP2 DUP6 GAS STATICCALL SWAP1 DUP2 ISZERO PUSH2 0x1A76 JUMPI DUP10 SWAP2 PUSH2 0x1A42 JUMPI JUMPDEST POP PUSH2 0x1972 SWAP2 PUSH2 0x1918 PUSH1 0x20 SWAP3 PUSH2 0x18EE DUP8 DUP10 DUP13 PUSH2 0x2C16 JUMP JUMPDEST CALLDATALOAD DUP13 MSTORE PUSH1 0x9 DUP5 MSTORE PUSH1 0x40 DUP13 KECCAK256 PUSH2 0x1904 DUP9 DUP14 DUP13 PUSH2 0x2C16 JUMP JUMPDEST CALLDATALOAD DUP14 MSTORE DUP5 MSTORE PUSH1 0x2 PUSH1 0x40 DUP14 KECCAK256 ADD SLOAD GT ISZERO PUSH2 0x318C JUMP JUMPDEST PUSH1 0x2 SLOAD PUSH1 0x1 PUSH1 0x1 PUSH1 0xA0 SHL SUB AND SWAP1 PUSH2 0x1930 DUP7 DUP9 DUP12 PUSH2 0x2C16 JUMP JUMPDEST CALLDATALOAD DUP12 MSTORE PUSH1 0x9 DUP4 MSTORE PUSH1 0x40 DUP12 KECCAK256 PUSH2 0x1946 DUP8 DUP13 DUP12 PUSH2 0x2C16 JUMP JUMPDEST CALLDATALOAD DUP13 MSTORE DUP4 MSTORE PUSH1 0x2 PUSH1 0x40 DUP13 KECCAK256 ADD SLOAD SWAP2 DUP12 PUSH1 0x40 MLOAD DUP1 SWAP7 DUP2 SWAP6 DUP3 SWAP5 PUSH4 0x23B872DD PUSH1 0xE0 SHL DUP5 MSTORE CALLER PUSH1 0x4 DUP6 ADD PUSH2 0x2C9E JUMP JUMPDEST SUB SWAP3 GAS CALL DUP1 ISZERO PUSH2 0x1792 JUMPI PUSH2 0x1A23 JUMPI JUMPDEST POP PUSH2 0x198D DUP3 DUP5 DUP8 PUSH2 0x2C16 JUMP JUMPDEST CALLDATALOAD DUP8 MSTORE PUSH1 0x9 PUSH1 0x20 MSTORE PUSH1 0x40 DUP8 KECCAK256 PUSH2 0x19A4 DUP4 DUP9 DUP8 PUSH2 0x2C16 JUMP JUMPDEST CALLDATALOAD DUP9 MSTORE PUSH1 0x20 SWAP1 DUP2 MSTORE PUSH1 0x40 DUP1 DUP10 KECCAK256 SLOAD PUSH1 0x1 PUSH1 0x1 PUSH1 0xA0 SHL SUB AND DUP10 MSTORE PUSH2 0x104A SWAP2 DUP3 SWAP1 MSTORE DUP9 KECCAK256 DUP1 SLOAD PUSH1 0x0 NOT DUP2 ADD SWAP2 SWAP1 DUP3 GT PUSH2 0x1A10 JUMPI SSTORE CALLER DUP9 MSTORE PUSH1 0x20 MSTORE PUSH1 0x40 DUP8 KECCAK256 DUP1 SLOAD SWAP2 PUSH1 0x1 DUP4 ADD DUP1 SWAP4 GT PUSH2 0x19FE JUMPI POP SSTORE PUSH1 0x1 SWAP1 PUSH2 0x16C2 DUP2 DUP5 DUP8 PUSH2 0x2C16 JUMP JUMPDEST PUSH4 0x4E487B71 PUSH1 0xE0 SHL DUP10 MSTORE PUSH1 0x11 PUSH1 0x4 MSTORE DUP9 REVERT JUMPDEST PUSH4 0x4E487B71 PUSH1 0xE0 SHL DUP11 MSTORE PUSH1 0x11 PUSH1 0x4 MSTORE DUP4 DUP11 REVERT JUMPDEST PUSH2 0x1A3B SWAP1 PUSH1 0x20 RETURNDATASIZE PUSH1 0x20 GT PUSH2 0x1763 JUMPI PUSH2 0x1754 DUP2 DUP4 PUSH2 0x2991 JUMP JUMPDEST POP CODESIZE PUSH2 0x1981 JUMP JUMPDEST SWAP1 POP PUSH1 0x20 DUP2 RETURNDATASIZE PUSH1 0x20 GT PUSH2 0x1A6E JUMPI JUMPDEST DUP2 PUSH2 0x1A5D PUSH1 0x20 SWAP4 DUP4 PUSH2 0x2991 JUMP JUMPDEST DUP2 ADD SUB SLT PUSH2 0x17DB JUMPI MLOAD PUSH2 0x1972 PUSH2 0x18D8 JUMP JUMPDEST RETURNDATASIZE SWAP2 POP PUSH2 0x1A50 JUMP JUMPDEST PUSH1 0x40 MLOAD RETURNDATASIZE DUP12 DUP3 RETURNDATACOPY RETURNDATASIZE SWAP1 REVERT JUMPDEST POP PUSH1 0x20 DUP2 RETURNDATASIZE PUSH1 0x20 GT PUSH2 0x1AAD JUMPI JUMPDEST DUP2 PUSH2 0x1A9B PUSH1 0x20 SWAP4 DUP4 PUSH2 0x2991 JUMP JUMPDEST DUP2 ADD SUB SLT PUSH2 0x17DB JUMPI PUSH2 0x18A8 SWAP1 MLOAD PUSH2 0x186D JUMP JUMPDEST RETURNDATASIZE SWAP2 POP PUSH2 0x1A8E JUMP JUMPDEST PUSH1 0x40 MLOAD PUSH3 0x461BCD PUSH1 0xE5 SHL DUP2 MSTORE DUP1 PUSH2 0x1ACE PUSH1 0x4 DUP3 ADD PUSH2 0x2A99 JUMP JUMPDEST SUB SWAP1 REVERT JUMPDEST PUSH1 0x40 SWAP2 POP LT ISZERO CODESIZE PUSH2 0x1326 JUMP JUMPDEST PUSH2 0x285A JUMP JUMPDEST PUSH2 0x28A8 JUMP JUMPDEST POP CALLVALUE PUSH2 0x229 JUMPI PUSH1 0x20 CALLDATASIZE PUSH1 0x3 NOT ADD SLT PUSH2 0x229 JUMPI PUSH2 0x1B02 PUSH2 0x280B JUMP JUMPDEST PUSH1 0x2 SLOAD PUSH1 0x1 PUSH1 0x1 PUSH1 0xA0 SHL SUB SWAP2 SWAP1 PUSH2 0x1B1C SWAP1 DUP4 AND CALLER EQ PUSH2 0x31F1 JUMP JUMPDEST AND PUSH1 0x1 DUP1 PUSH1 0xA0 SHL SUB NOT PUSH1 0x5 SLOAD AND OR PUSH1 0x5 SSTORE DUP1 RETURN JUMPDEST POP CALLVALUE PUSH2 0x229 JUMPI PUSH1 0x20 DUP1 PUSH1 0x3 NOT CALLDATASIZE ADD SLT PUSH2 0x4B3 JUMPI PUSH1 0x4 CALLDATALOAD SWAP1 PUSH3 0x54600 PUSH2 0x1B57 PUSH1 0x4 SLOAD TIMESTAMP PUSH2 0x31E4 JUMP JUMPDEST DIV DUP3 LT ISZERO PUSH2 0x1D1F JUMPI DUP2 DUP4 MSTORE PUSH2 0x104B DUP1 DUP3 MSTORE PUSH2 0x1B7C PUSH1 0x40 DUP6 KECCAK256 PUSH1 0x1 DUP2 SLOAD SWAP2 ADD SLOAD SWAP1 PUSH2 0x2837 JUMP JUMPDEST SWAP1 DUP2 ISZERO PUSH2 0x1CEA JUMPI DUP4 DUP6 MSTORE DUP3 MSTORE PUSH1 0x40 DUP5 KECCAK256 SLOAD SWAP1 PUSH1 0x1 SHR LT PUSH2 0x1B9A JUMPI DUP3 DUP1 RETURN JUMPDEST PUSH1 0x1 SLOAD PUSH1 0x1 PUSH1 0x1 PUSH1 0xA0 SHL SUB SWAP3 SWAP1 DUP5 SWAP1 DUP5 AND DUP1 EXTCODESIZE ISZERO PUSH2 0x4B3 JUMPI DUP2 DUP1 SWAP2 PUSH1 0x24 PUSH1 0x40 MLOAD DUP1 SWAP5 DUP2 SWAP4 PUSH4 0x35313C21 PUSH1 0xE1 SHL DUP4 MSTORE ADDRESS PUSH1 0x4 DUP5 ADD MSTORE GAS CALL DUP1 ISZERO PUSH2 0x1CDF JUMPI PUSH2 0x1CC7 JUMPI JUMPDEST POP POP PUSH1 0x4 SWAP3 PUSH32 0xD9DC24857F317ED9ABBBB42E920EDE0104231EB1D3D70236A74887FFAF159868 DUP4 DUP1 SWAP4 PUSH1 0x40 MLOAD SWAP1 DUP2 MSTORE LOG1 PUSH1 0x1 SLOAD AND PUSH1 0x40 MLOAD SWAP4 DUP5 DUP1 SWAP3 PUSH4 0x18160DDD PUSH1 0xE0 SHL DUP3 MSTORE GAS STATICCALL SWAP2 DUP3 ISZERO PUSH2 0x1CBC JUMPI DUP4 SWAP3 PUSH2 0x1C8D JUMPI JUMPDEST POP PUSH1 0x0 NOT DUP3 ADD SWAP2 DUP3 GT PUSH2 0x1C79 JUMPI DUP2 DUP4 MSTORE PUSH2 0x104C DUP2 MSTORE TIMESTAMP PUSH1 0x40 DUP5 KECCAK256 SSTORE PUSH2 0x104D SWAP1 DUP2 DUP2 MSTORE TIMESTAMP PUSH1 0x2 PUSH1 0x40 DUP7 KECCAK256 ADD SSTORE PUSH2 0xFD20 TIMESTAMP ADD SWAP3 DUP4 TIMESTAMP GT PUSH2 0xA5A JUMPI DUP5 MSTORE MSTORE PUSH1 0x3 PUSH1 0x40 DUP4 KECCAK256 ADD SSTORE CODESIZE DUP1 DUP3 DUP1 RETURN JUMPDEST PUSH4 0x4E487B71 PUSH1 0xE0 SHL DUP4 MSTORE PUSH1 0x11 PUSH1 0x4 MSTORE PUSH1 0x24 DUP4 REVERT JUMPDEST SWAP1 DUP1 SWAP3 POP DUP2 DUP2 RETURNDATASIZE DUP4 GT PUSH2 0x1CB5 JUMPI JUMPDEST PUSH2 0x1CA5 DUP2 DUP4 PUSH2 0x2991 JUMP JUMPDEST DUP2 ADD SUB SLT PUSH2 0x17DB JUMPI MLOAD SWAP1 CODESIZE PUSH2 0x1C30 JUMP JUMPDEST POP RETURNDATASIZE PUSH2 0x1C9B JUMP JUMPDEST PUSH1 0x40 MLOAD RETURNDATASIZE DUP6 DUP3 RETURNDATACOPY RETURNDATASIZE SWAP1 REVERT JUMPDEST PUSH2 0x1CD0 SWAP1 PUSH2 0x2948 JUMP JUMPDEST PUSH2 0x1CDB JUMPI DUP4 CODESIZE PUSH2 0x1BDB JUMP JUMPDEST DUP4 DUP1 REVERT JUMPDEST PUSH1 0x40 MLOAD RETURNDATASIZE DUP5 DUP3 RETURNDATACOPY RETURNDATASIZE SWAP1 REVERT JUMPDEST PUSH1 0x40 MLOAD PUSH3 0x461BCD PUSH1 0xE5 SHL DUP2 MSTORE PUSH1 0x4 DUP2 ADD DUP5 SWAP1 MSTORE PUSH1 0xD PUSH1 0x24 DUP3 ADD MSTORE PUSH13 0x139BC81D9BDD195CC818D85CDD PUSH1 0x9A SHL PUSH1 0x44 DUP3 ADD MSTORE PUSH1 0x64 SWAP1 REVERT JUMPDEST PUSH1 0x84 SWAP1 PUSH1 0x40 MLOAD SWAP1 PUSH3 0x461BCD PUSH1 0xE5 SHL DUP3 MSTORE PUSH1 0x4 DUP3 ADD MSTORE PUSH1 0x36 PUSH1 0x24 DUP3 ADD MSTORE PUSH32 0x636865636B20766F7465206F7574636F6D6573206F6E6C7920706F737369626C PUSH1 0x44 DUP3 ADD MSTORE PUSH22 0x6520666F7220636F6E636C75646564206379636C6573 PUSH1 0x50 SHL PUSH1 0x64 DUP3 ADD MSTORE REVERT JUMPDEST POP CALLVALUE PUSH2 0x229 JUMPI DUP1 PUSH1 0x3 NOT CALLDATASIZE ADD SLT PUSH2 0x229 JUMPI PUSH1 0x20 PUSH3 0x3F480 PUSH3 0x54600 PUSH2 0x1DA9 PUSH1 0x4 SLOAD TIMESTAMP PUSH2 0x31E4 JUMP JUMPDEST MOD LT PUSH1 0x40 MLOAD SWAP1 DUP2 MSTORE RETURN JUMPDEST POP CALLVALUE PUSH2 0x229 JUMPI DUP1 PUSH1 0x3 NOT CALLDATASIZE ADD SLT PUSH2 0x229 JUMPI PUSH1 0x2 SLOAD PUSH1 0x40 MLOAD PUSH1 0x1 PUSH1 0x1 PUSH1 0xA0 SHL SUB SWAP1 SWAP2 AND DUP2 MSTORE PUSH1 0x20 SWAP1 RETURN JUMPDEST POP CALLVALUE PUSH2 0x229 JUMPI PUSH1 0x40 CALLDATASIZE PUSH1 0x3 NOT ADD SLT PUSH2 0x229 JUMPI PUSH1 0x40 PUSH2 0x1DF8 PUSH2 0x2821 JUMP JUMPDEST SWAP2 PUSH1 0x4 CALLDATALOAD DUP2 MSTORE PUSH1 0x7 PUSH1 0x20 MSTORE KECCAK256 SWAP1 PUSH1 0x1 DUP1 PUSH1 0xA0 SHL SUB AND PUSH1 0x0 MSTORE PUSH1 0x20 MSTORE PUSH1 0x20 PUSH1 0x40 PUSH1 0x0 KECCAK256 SLOAD PUSH1 0x40 MLOAD SWAP1 DUP2 MSTORE RETURN JUMPDEST POP CALLVALUE PUSH2 0x229 JUMPI PUSH1 0x20 CALLDATASIZE PUSH1 0x3 NOT ADD SLT PUSH2 0x229 JUMPI PUSH1 0x4 CALLDATALOAD PUSH1 0x1 PUSH1 0x1 PUSH1 0x40 SHL SUB DUP2 GT PUSH2 0x4B3 JUMPI PUSH2 0x1E54 SWAP1 CALLDATASIZE SWAP1 PUSH1 0x4 ADD PUSH2 0x2878 JUMP JUMPDEST PUSH3 0x3F480 PUSH3 0x54600 PUSH2 0x1E68 PUSH1 0x4 SLOAD TIMESTAMP PUSH2 0x31E4 JUMP JUMPDEST MOD LT ISZERO PUSH2 0x22CD JUMPI PUSH1 0x40 MLOAD SWAP2 PUSH2 0x820 DUP4 ADD DUP4 DUP2 LT PUSH1 0x1 PUSH1 0x1 PUSH1 0x40 SHL SUB DUP3 GT OR PUSH2 0x88F JUMPI PUSH1 0x40 MSTORE PUSH1 0x40 DUP4 MSTORE PUSH2 0x800 CALLDATASIZE PUSH1 0x20 DUP6 ADD CALLDATACOPY DUP4 JUMPDEST DUP3 DUP2 LT PUSH2 0x1F76 JUMPI POP POP POP DUP2 JUMPDEST PUSH1 0x40 DUP2 LT PUSH2 0x1EB4 JUMPI DUP3 DUP1 RETURN JUMPDEST PUSH2 0x1EBE DUP2 DUP4 PUSH2 0x2BEC JUMP JUMPDEST MLOAD PUSH2 0x1ECC JUMPI JUMPDEST PUSH1 0x1 ADD PUSH2 0x1EA8 JUMP JUMPDEST PUSH1 0x40 MLOAD PUSH2 0x1ED8 DUP2 PUSH2 0x2976 JUMP JUMPDEST DUP4 DUP2 MSTORE PUSH1 0x6 DUP3 SWAP1 SHL PUSH1 0x1 PUSH1 0x1 PUSH1 0xFA SHL SUB DUP4 AND DUP4 SUB PUSH2 0xA5A JUMPI DUP1 PUSH1 0x40 ADD SWAP1 DUP2 PUSH1 0x40 GT PUSH2 0xDC4 JUMPI SWAP1 JUMPDEST DUP1 DUP3 LT PUSH2 0x1F20 JUMPI POP POP SWAP1 PUSH2 0x1F19 PUSH1 0x1 SWAP3 DUP3 PUSH2 0x100A ADD PUSH2 0x2ACA JUMP JUMPDEST SWAP1 POP PUSH2 0x1EC4 JUMP JUMPDEST SWAP1 SWAP2 PUSH2 0x1000 DUP4 LT ISZERO PUSH2 0x1F62 JUMPI PUSH1 0x20 PUSH2 0x884 PUSH2 0x1F5C SWAP3 PUSH2 0x876 PUSH1 0x40 MLOAD SWAP4 DUP3 PUSH2 0x1F50 DUP7 SWAP5 MLOAD DUP1 SWAP3 DUP5 DUP1 DUP9 ADD SWAP2 ADD PUSH2 0x2767 JUMP JUMPDEST DUP4 ADD ADD DUP8 PUSH1 0xA ADD PUSH2 0x3C05 JUMP JUMPDEST SWAP1 PUSH2 0x1EFF JUMP JUMPDEST PUSH4 0x4E487B71 PUSH1 0xE0 SHL DUP7 MSTORE PUSH1 0x32 PUSH1 0x4 MSTORE PUSH1 0x24 DUP7 REVERT JUMPDEST PUSH1 0x5 DUP2 DUP2 SHL DUP4 ADD CALLDATALOAD PUSH1 0x1E NOT DUP5 CALLDATASIZE SUB ADD DUP2 SLT ISZERO PUSH2 0x22C9 JUMPI DUP4 ADD DUP1 CALLDATALOAD PUSH1 0x1 PUSH1 0x1 PUSH1 0x40 SHL SUB DUP2 GT PUSH2 0x1053 JUMPI PUSH1 0x20 DUP3 ADD SWAP3 DUP2 CALLDATASIZE SUB DUP5 SGT PUSH2 0x22C5 JUMPI DUP3 SWAP2 DUP3 ADD SWAP1 PUSH1 0x20 DUP3 ADD SWAP2 PUSH1 0x80 SWAP4 DUP5 SWAP2 SUB SLT PUSH2 0x22C1 JUMPI DUP10 PUSH1 0x60 DUP6 ADD CALLDATALOAD SWAP4 DUP6 ADD CALLDATALOAD PUSH1 0x1 PUSH1 0x1 PUSH1 0x40 SHL SUB DUP2 GT PUSH2 0x4B3 JUMPI DUP6 ADD DUP4 PUSH1 0x3F DUP3 ADD SLT ISZERO PUSH2 0x4B3 JUMPI PUSH1 0x20 DUP2 ADD CALLDATALOAD PUSH2 0x1FF4 DUP2 PUSH2 0x2A7E JUMP JUMPDEST SWAP5 PUSH2 0x2002 PUSH1 0x40 MLOAD SWAP7 DUP8 PUSH2 0x2991 JUMP JUMPDEST DUP2 DUP7 MSTORE PUSH1 0x40 DUP3 DUP5 ADD ADD GT PUSH2 0x105B JUMPI DUP1 PUSH1 0x40 PUSH1 0x20 SWAP4 ADD DUP4 DUP8 ADD CALLDATACOPY DUP5 ADD ADD MSTORE PUSH1 0x40 DUP6 CALLDATALOAD LT DUP1 ISZERO SWAP1 PUSH2 0x22B3 JUMPI JUMPDEST PUSH2 0x1AB5 JUMPI PUSH1 0xA DUP4 LT ISZERO PUSH2 0x2275 JUMPI PUSH1 0xFF SWAP1 DUP6 CALLDATALOAD DUP12 MSTORE PUSH1 0x9 PUSH1 0x20 MSTORE PUSH1 0x40 DUP12 KECCAK256 PUSH1 0x40 DUP7 ADD CALLDATALOAD DUP13 MSTORE PUSH1 0x20 MSTORE PUSH1 0x40 DUP12 KECCAK256 ADD SLOAD AND PUSH2 0x2218 JUMPI DUP4 CALLDATALOAD DUP10 MSTORE PUSH1 0x9 PUSH1 0x20 SWAP1 DUP2 MSTORE PUSH1 0x40 DUP1 DUP12 KECCAK256 DUP6 DUP3 ADD CALLDATALOAD DUP13 MSTORE SWAP1 SWAP2 MSTORE DUP10 KECCAK256 SLOAD PUSH1 0x1 PUSH1 0x1 PUSH1 0xA0 SHL SUB AND CALLER EQ PUSH2 0x209C JUMPI JUMPDEST POP POP POP POP PUSH2 0x2097 SWAP1 PUSH2 0x2A6F JUMP JUMPDEST PUSH2 0x1E9C JUMP JUMPDEST PUSH2 0x20C3 SWAP1 DUP5 CALLDATALOAD DUP11 MSTORE PUSH1 0x9 PUSH1 0x20 MSTORE PUSH1 0x40 DUP11 KECCAK256 PUSH1 0x40 DUP6 ADD CALLDATALOAD DUP12 MSTORE PUSH1 0x20 MSTORE PUSH1 0x3 PUSH1 0x40 DUP12 KECCAK256 ADD PUSH2 0x2ACA JUMP JUMPDEST DUP3 CALLDATALOAD DUP9 MSTORE PUSH1 0x9 PUSH1 0x20 SWAP1 DUP2 MSTORE PUSH1 0x40 DUP1 DUP11 KECCAK256 DUP5 DUP3 ADD CALLDATALOAD DUP1 DUP13 MSTORE SWAP3 MSTORE DUP10 KECCAK256 PUSH1 0x1 ADD SWAP2 SWAP1 SWAP2 SSTORE PUSH1 0x1 PUSH1 0x1 PUSH1 0xFA SHL SUB DUP2 AND SWAP1 SUB PUSH2 0x2204 JUMPI PUSH2 0x2107 PUSH1 0x40 DUP3 ADD CALLDATALOAD PUSH1 0x6 SHL DUP4 CALLDATALOAD PUSH2 0x2837 JUMP JUMPDEST DUP3 CALLDATALOAD DUP9 MSTORE PUSH1 0x9 PUSH1 0x20 MSTORE PUSH1 0x40 DUP9 KECCAK256 PUSH1 0x40 DUP4 ADD CALLDATALOAD DUP10 MSTORE PUSH1 0x20 MSTORE PUSH1 0x1 PUSH1 0x40 DUP10 KECCAK256 ADD SLOAD DUP4 CALLDATALOAD PUSH1 0x9 DUP6 CALLDATALOAD MUL DIV PUSH1 0x9 EQ DUP5 CALLDATALOAD ISZERO OR ISZERO PUSH2 0x1727 JUMPI PUSH1 0x40 DUP4 ADD CALLDATALOAD PUSH1 0x9 DUP1 DUP3 MUL DUP3 SWAP1 DIV EQ SWAP1 ISZERO OR ISZERO PUSH2 0x1727 JUMPI PUSH2 0x218F SWAP1 DUP5 CALLDATALOAD DUP11 MSTORE PUSH1 0x9 PUSH1 0x20 MSTORE PUSH1 0x40 DUP11 KECCAK256 PUSH1 0x40 DUP6 ADD CALLDATALOAD DUP12 MSTORE PUSH1 0x20 MSTORE PUSH2 0x217A PUSH1 0x3 PUSH1 0x40 DUP13 KECCAK256 ADD PUSH2 0x29B2 JUMP JUMPDEST SWAP1 PUSH1 0x9 PUSH1 0x40 DUP7 ADD CALLDATALOAD MUL SWAP1 PUSH1 0x9 DUP8 CALLDATALOAD MUL SWAP1 PUSH2 0x34A5 JUMP JUMPDEST SWAP1 PUSH2 0x1000 DUP2 LT ISZERO PUSH2 0x21F0 JUMPI SWAP2 PUSH2 0x21AF PUSH1 0x40 SWAP3 PUSH2 0x2097 SWAP7 SWAP6 SWAP5 PUSH1 0xA ADD PUSH2 0x2ACA JUMP JUMPDEST PUSH1 0x1 PUSH2 0x21BE DUP4 DUP4 ADD CALLDATALOAD DUP11 PUSH2 0x2BEC JUMP JUMPDEST MSTORE ADD CALLDATALOAD SWAP1 CALLDATALOAD PUSH32 0xA9A418DA632D42C446A125F10B007831BA0E348168B6B2474A2383AC5DF4C280 DUP9 DUP1 LOG3 SWAP1 CODESIZE DUP1 DUP1 PUSH2 0x208A JUMP JUMPDEST PUSH4 0x4E487B71 PUSH1 0xE0 SHL DUP10 MSTORE PUSH1 0x32 PUSH1 0x4 MSTORE PUSH1 0x24 DUP10 REVERT JUMPDEST PUSH4 0x4E487B71 PUSH1 0xE0 SHL DUP8 MSTORE PUSH1 0x11 PUSH1 0x4 MSTORE PUSH1 0x24 DUP8 REVERT JUMPDEST PUSH1 0x40 MLOAD PUSH3 0x461BCD PUSH1 0xE5 SHL DUP2 MSTORE PUSH1 0x20 PUSH1 0x4 DUP3 ADD MSTORE PUSH1 0x2F PUSH1 0x24 DUP3 ADD MSTORE PUSH32 0x6F776E6572207761732061736B656420746F20666972737420736574746C6520 PUSH1 0x44 DUP3 ADD MSTORE PUSH15 0x1C9BDE585B1D1E481C185E5B595B9D PUSH1 0x8A SHL PUSH1 0x64 DUP3 ADD MSTORE PUSH1 0x84 SWAP1 REVERT JUMPDEST PUSH1 0x40 MLOAD PUSH3 0x461BCD PUSH1 0xE5 SHL DUP2 MSTORE PUSH1 0x20 PUSH1 0x4 DUP3 ADD MSTORE PUSH1 0x16 PUSH1 0x24 DUP3 ADD MSTORE PUSH22 0x7368617065204944206E6F7420617661696C61626C65 PUSH1 0x50 SHL PUSH1 0x44 DUP3 ADD MSTORE PUSH1 0x64 SWAP1 REVERT JUMPDEST POP PUSH1 0x40 DUP1 DUP6 ADD CALLDATALOAD LT ISZERO PUSH2 0x202C JUMP JUMPDEST DUP10 DUP1 REVERT JUMPDEST DUP9 DUP1 REVERT JUMPDEST DUP7 DUP1 REVERT JUMPDEST PUSH1 0x40 MLOAD PUSH3 0x461BCD PUSH1 0xE5 SHL DUP2 MSTORE PUSH1 0x20 PUSH1 0x4 DUP3 ADD MSTORE PUSH1 0x22 PUSH1 0x24 DUP3 ADD MSTORE PUSH32 0x417274697374696320706572696F642063757272656E746C79206E6F74206F70 PUSH1 0x44 DUP3 ADD MSTORE PUSH2 0x32B7 PUSH1 0xF1 SHL PUSH1 0x64 DUP3 ADD MSTORE PUSH1 0x84 SWAP1 REVERT JUMPDEST POP CALLVALUE PUSH2 0x229 JUMPI PUSH1 0x20 CALLDATASIZE PUSH1 0x3 NOT ADD SLT PUSH2 0x229 JUMPI PUSH1 0x40 DUP1 SWAP2 PUSH1 0x4 CALLDATALOAD DUP2 MSTORE PUSH2 0x104B PUSH1 0x20 MSTORE KECCAK256 PUSH1 0x1 DUP2 SLOAD SWAP2 ADD SLOAD DUP3 MLOAD SWAP2 DUP3 MSTORE PUSH1 0x20 DUP3 ADD MSTORE RETURN JUMPDEST POP CALLVALUE PUSH2 0x229 JUMPI PUSH1 0x20 DUP1 PUSH1 0x3 NOT CALLDATASIZE ADD SLT PUSH2 0x4B3 JUMPI PUSH1 0x4 CALLDATALOAD PUSH2 0x2370 PUSH2 0x3482 JUMP JUMPDEST DUP1 DUP4 MSTORE PUSH2 0x104D SWAP1 DUP2 DUP4 MSTORE PUSH2 0x238E PUSH1 0xFF PUSH1 0x4 PUSH1 0x40 DUP8 KECCAK256 ADD SLOAD AND ISZERO PUSH2 0x33BE JUMP JUMPDEST DUP1 DUP5 MSTORE DUP2 DUP4 MSTORE PUSH2 0x23A6 PUSH1 0x2 PUSH1 0x40 DUP7 KECCAK256 ADD SLOAD TIMESTAMP GT PUSH2 0x3406 JUMP JUMPDEST DUP1 DUP5 MSTORE DUP2 DUP4 MSTORE TIMESTAMP PUSH1 0x3 PUSH1 0x40 DUP7 KECCAK256 ADD SLOAD LT ISZERO PUSH2 0x266C JUMPI DUP1 DUP5 MSTORE DUP2 DUP4 MSTORE PUSH1 0x40 DUP5 KECCAK256 DUP1 SLOAD PUSH1 0x1 PUSH1 0x1 PUSH1 0xA0 SHL SUB SWAP4 SWAP2 SWAP1 DUP5 AND SWAP1 DUP2 PUSH2 0x25A4 JUMPI POP POP PUSH1 0x40 MLOAD PUSH1 0x3F DUP1 DUP7 DUP4 ADD DUP4 PUSH2 0x2410 CALLER PREVRANDAO TIMESTAMP DUP6 SWAP2 PUSH1 0x54 SWAP4 SWAP2 DUP4 MSTORE PUSH1 0x20 DUP4 ADD MSTORE PUSH1 0x1 PUSH1 0x1 PUSH1 0x60 SHL SUB NOT SWAP1 PUSH1 0x60 SHL AND PUSH1 0x40 DUP3 ADD MSTORE ADD SWAP1 JUMP JUMPDEST SUB SWAP4 PUSH2 0x2424 PUSH1 0x1F NOT SWAP6 DUP7 DUP2 ADD DUP4 MSTORE DUP3 PUSH2 0x2991 JUMP JUMPDEST MLOAD SWAP1 KECCAK256 AND SWAP2 PUSH1 0x40 MLOAD PUSH2 0x246A DUP9 DUP3 ADD SWAP3 DUP3 PUSH2 0x245E CALLER PREVRANDAO TIMESTAMP DUP9 SWAP2 PUSH1 0x54 SWAP4 SWAP2 DUP4 MSTORE PUSH1 0x20 DUP4 ADD MSTORE PUSH1 0x1 PUSH1 0x1 PUSH1 0x60 SHL SUB NOT SWAP1 PUSH1 0x60 SHL AND PUSH1 0x40 DUP3 ADD MSTORE ADD SWAP1 JUMP JUMPDEST SUB SWAP1 DUP2 ADD DUP4 MSTORE DUP3 PUSH2 0x2991 JUMP JUMPDEST MLOAD SWAP1 KECCAK256 AND SWAP2 DUP4 DUP8 MSTORE DUP6 MSTORE PUSH1 0x4 PUSH1 0x40 DUP8 KECCAK256 ADD PUSH1 0x1 PUSH1 0xFF NOT DUP3 SLOAD AND OR SWAP1 SSTORE DUP6 DUP5 PUSH1 0x1 SLOAD AND DUP3 DUP3 MSTORE PUSH1 0x9 DUP8 MSTORE PUSH1 0x40 DUP3 KECCAK256 DUP5 DUP4 MSTORE DUP8 MSTORE DUP6 PUSH1 0x40 DUP4 KECCAK256 SLOAD AND SWAP1 DUP1 EXTCODESIZE ISZERO PUSH2 0x105B JUMPI DUP6 DUP4 SWAP2 PUSH2 0x24D0 SWAP4 DUP4 PUSH1 0x40 MLOAD DUP1 SWAP7 DUP2 SWAP6 DUP3 SWAP5 PUSH4 0x21421707 PUSH1 0xE1 SHL DUP5 MSTORE ADDRESS PUSH1 0x4 DUP6 ADD PUSH2 0x2C9E JUMP JUMPDEST SUB SWAP3 GAS CALL DUP1 ISZERO PUSH2 0x1CDF JUMPI PUSH2 0x2590 JUMPI JUMPDEST POP MSTORE PUSH1 0x9 DUP5 MSTORE PUSH1 0x40 DUP6 KECCAK256 SWAP1 DUP6 MSTORE DUP4 MSTORE PUSH32 0xD2AA34A4FDBBC6DFF6A3E56F46E0F3AE2A31D7785FF3487AA5C95C642ACEA501 PUSH1 0x60 DUP4 PUSH1 0x40 DUP8 KECCAK256 SLOAD AND PUSH1 0x40 MLOAD SWAP1 DUP5 DUP3 MSTORE DUP7 DUP3 ADD MSTORE DUP7 PUSH1 0x40 DUP3 ADD MSTORE LOG1 JUMPDEST DUP4 JUMPDEST PUSH1 0x40 DUP2 LT PUSH2 0x253D JUMPI DUP5 PUSH1 0x1 DUP2 SSTORE DUP1 RETURN JUMPDEST DUP5 JUMPDEST PUSH1 0x40 DUP2 LT PUSH2 0x2550 JUMPI POP PUSH1 0x1 ADD PUSH2 0x252D JUMP JUMPDEST DUP2 DUP7 MSTORE PUSH1 0x9 DUP6 MSTORE PUSH1 0x40 DUP1 DUP8 KECCAK256 DUP3 DUP9 MSTORE DUP7 MSTORE DUP1 DUP8 KECCAK256 SLOAD DUP6 AND DUP1 DUP9 MSTORE PUSH2 0x104A DUP8 MSTORE DUP2 DUP9 KECCAK256 SLOAD DUP6 DUP10 MSTORE PUSH1 0x7 DUP9 MSTORE DUP3 DUP10 KECCAK256 PUSH1 0x0 SWAP3 DUP4 MSTORE DUP9 MSTORE SWAP2 SWAP1 KECCAK256 SSTORE PUSH1 0x1 ADD PUSH2 0x253F JUMP JUMPDEST PUSH2 0x2599 SWAP1 PUSH2 0x2948 JUMP JUMPDEST PUSH2 0x1057 JUMPI DUP6 CODESIZE PUSH2 0x24DF JUMP JUMPDEST PUSH1 0x4 ADD PUSH1 0x1 PUSH1 0xFF NOT DUP3 SLOAD AND OR SWAP1 SSTORE DUP6 DUP5 PUSH1 0x1 SLOAD AND SWAP2 DUP3 EXTCODESIZE ISZERO PUSH2 0x4B3 JUMPI PUSH2 0x25E4 SWAP3 DUP6 SWAP2 DUP4 PUSH1 0x40 MLOAD DUP1 SWAP7 DUP2 SWAP6 DUP3 SWAP5 PUSH4 0x21421707 PUSH1 0xE1 SHL DUP5 MSTORE ADDRESS PUSH1 0x4 DUP6 ADD PUSH2 0x2C9E JUMP JUMPDEST SUB SWAP3 GAS CALL DUP1 ISZERO PUSH2 0x2661 JUMPI PUSH2 0x264E JUMPI JUMPDEST POP DUP2 DUP6 MSTORE DUP4 MSTORE PUSH1 0x40 DUP1 DUP6 KECCAK256 DUP1 SLOAD PUSH1 0x1 SWAP1 SWAP2 ADD SLOAD DUP3 MLOAD DUP5 DUP2 MSTORE SWAP2 DUP6 AND PUSH1 0x1 PUSH1 0x1 PUSH1 0xA0 SHL SUB AND PUSH1 0x20 DUP4 ADD MSTORE SWAP2 DUP2 ADD SWAP2 SWAP1 SWAP2 MSTORE PUSH32 0xD2AA34A4FDBBC6DFF6A3E56F46E0F3AE2A31D7785FF3487AA5C95C642ACEA501 SWAP1 PUSH1 0x60 SWAP1 LOG1 PUSH2 0x252B JUMP JUMPDEST PUSH2 0x265A SWAP1 SWAP6 SWAP2 SWAP6 PUSH2 0x2948 JUMP JUMPDEST SWAP4 CODESIZE PUSH2 0x25F3 JUMP JUMPDEST PUSH1 0x40 MLOAD RETURNDATASIZE DUP9 DUP3 RETURNDATACOPY RETURNDATASIZE SWAP1 REVERT JUMPDEST PUSH1 0x40 MLOAD PUSH3 0x461BCD PUSH1 0xE5 SHL DUP2 MSTORE PUSH1 0x4 DUP2 ADD DUP5 SWAP1 MSTORE PUSH1 0x15 PUSH1 0x24 DUP3 ADD MSTORE PUSH21 0x185D58DD1A5BDB881B9BDD08195B991959081E595D PUSH1 0x5A SHL PUSH1 0x44 DUP3 ADD MSTORE PUSH1 0x64 SWAP1 REVERT JUMPDEST POP CALLVALUE PUSH2 0x229 JUMPI DUP1 PUSH1 0x3 NOT CALLDATASIZE ADD SLT PUSH2 0x229 JUMPI PUSH1 0x20 PUSH1 0x40 MLOAD PUSH3 0x54600 DUP2 MSTORE RETURN JUMPDEST POP CALLVALUE PUSH2 0x229 JUMPI PUSH1 0x20 CALLDATASIZE PUSH1 0x3 NOT ADD SLT PUSH2 0x229 JUMPI PUSH1 0xFF PUSH1 0x40 PUSH1 0x20 SWAP3 PUSH2 0x26E8 PUSH2 0x280B JUMP JUMPDEST PUSH3 0x54600 PUSH2 0x26F8 PUSH1 0x4 SLOAD TIMESTAMP PUSH2 0x31E4 JUMP JUMPDEST DIV DUP3 MSTORE PUSH2 0x104B DUP6 MSTORE DUP3 DUP3 KECCAK256 PUSH1 0x1 PUSH1 0x1 PUSH1 0xA0 SHL SUB SWAP1 SWAP2 AND DUP3 MSTORE PUSH1 0x2 ADD DUP5 MSTORE KECCAK256 SLOAD PUSH1 0x40 MLOAD SWAP2 AND ISZERO ISZERO DUP2 MSTORE RETURN JUMPDEST POP CALLVALUE PUSH2 0x229 JUMPI PUSH2 0x2E4 PUSH2 0x273D PUSH2 0x2737 CALLDATASIZE PUSH2 0x2751 JUMP JUMPDEST SWAP1 PUSH2 0x328A JUMP JUMPDEST PUSH1 0x40 MLOAD SWAP2 DUP3 SWAP2 PUSH1 0x20 DUP4 MSTORE PUSH1 0x20 DUP4 ADD SWAP1 PUSH2 0x27AF JUMP JUMPDEST PUSH1 0x40 SWAP1 PUSH1 0x3 NOT ADD SLT PUSH2 0x17DB JUMPI PUSH1 0x4 CALLDATALOAD SWAP1 PUSH1 0x24 CALLDATALOAD SWAP1 JUMP JUMPDEST PUSH1 0x0 JUMPDEST DUP4 DUP2 LT PUSH2 0x277A JUMPI POP POP PUSH1 0x0 SWAP2 ADD MSTORE JUMP JUMPDEST DUP2 DUP2 ADD MLOAD DUP4 DUP3 ADD MSTORE PUSH1 0x20 ADD PUSH2 0x276A JUMP JUMPDEST SWAP1 PUSH1 0x20 SWAP2 PUSH2 0x27A3 DUP2 MLOAD DUP1 SWAP3 DUP2 DUP6 MSTORE DUP6 DUP1 DUP7 ADD SWAP2 ADD PUSH2 0x2767 JUMP JUMPDEST PUSH1 0x1F ADD PUSH1 0x1F NOT AND ADD ADD SWAP1 JUMP JUMPDEST SWAP1 PUSH1 0x1 DUP1 PUSH1 0xA0 SHL SUB DUP3 MLOAD AND DUP2 MSTORE PUSH1 0x20 DUP3 ADD MLOAD PUSH1 0x20 DUP3 ADD MSTORE PUSH1 0x40 DUP3 ADD MLOAD PUSH1 0x40 DUP3 ADD MSTORE PUSH1 0xC0 DUP1 PUSH2 0x27EC PUSH1 0x60 DUP6 ADD MLOAD PUSH1 0xE0 PUSH1 0x60 DUP7 ADD MSTORE PUSH1 0xE0 DUP6 ADD SWAP1 PUSH2 0x278A JUMP JUMPDEST SWAP4 PUSH1 0x80 DUP2 ADD MLOAD PUSH1 0x80 DUP6 ADD MSTORE PUSH1 0xA0 DUP2 ADD MLOAD ISZERO ISZERO PUSH1 0xA0 DUP6 ADD MSTORE ADD MLOAD SWAP2 ADD MSTORE SWAP1 JUMP JUMPDEST PUSH1 0x4 CALLDATALOAD SWAP1 PUSH1 0x1 PUSH1 0x1 PUSH1 0xA0 SHL SUB DUP3 AND DUP3 SUB PUSH2 0x17DB JUMPI JUMP JUMPDEST PUSH1 0x24 CALLDATALOAD SWAP1 PUSH1 0x1 PUSH1 0x1 PUSH1 0xA0 SHL SUB DUP3 AND DUP3 SUB PUSH2 0x17DB JUMPI JUMP JUMPDEST SWAP2 SWAP1 DUP3 ADD DUP1 SWAP3 GT PUSH2 0x2844 JUMPI JUMP JUMPDEST PUSH4 0x4E487B71 PUSH1 0xE0 SHL PUSH1 0x0 MSTORE PUSH1 0x11 PUSH1 0x4 MSTORE PUSH1 0x24 PUSH1 0x0 REVERT JUMPDEST CALLVALUE PUSH2 0x17DB JUMPI PUSH1 0x0 CALLDATASIZE PUSH1 0x3 NOT ADD SLT PUSH2 0x17DB JUMPI PUSH1 0x20 PUSH1 0x40 MLOAD PUSH3 0x3F480 DUP2 MSTORE RETURN JUMPDEST SWAP2 DUP2 PUSH1 0x1F DUP5 ADD SLT ISZERO PUSH2 0x17DB JUMPI DUP3 CALLDATALOAD SWAP2 PUSH1 0x1 PUSH1 0x1 PUSH1 0x40 SHL SUB DUP4 GT PUSH2 0x17DB JUMPI PUSH1 0x20 DUP1 DUP6 ADD SWAP5 DUP5 PUSH1 0x5 SHL ADD ADD GT PUSH2 0x17DB JUMPI JUMP JUMPDEST CALLVALUE PUSH2 0x17DB JUMPI PUSH1 0x0 CALLDATASIZE PUSH1 0x3 NOT ADD SLT PUSH2 0x17DB JUMPI PUSH1 0x20 PUSH1 0x40 MLOAD PUSH1 0x40 DUP2 MSTORE RETURN JUMPDEST PUSH1 0x40 PUSH1 0x3 NOT DUP3 ADD SLT PUSH2 0x17DB JUMPI PUSH1 0x1 PUSH1 0x1 PUSH1 0x40 SHL SUB SWAP2 PUSH1 0x4 CALLDATALOAD DUP4 DUP2 GT PUSH2 0x17DB JUMPI DUP3 PUSH2 0x28F0 SWAP2 PUSH1 0x4 ADD PUSH2 0x2878 JUMP JUMPDEST SWAP4 SWAP1 SWAP4 SWAP3 PUSH1 0x24 CALLDATALOAD SWAP2 DUP3 GT PUSH2 0x17DB JUMPI PUSH2 0x290A SWAP2 PUSH1 0x4 ADD PUSH2 0x2878 JUMP JUMPDEST SWAP1 SWAP2 JUMP JUMPDEST SWAP1 PUSH1 0x1 DUP3 DUP2 SHR SWAP3 AND DUP1 ISZERO PUSH2 0x293E JUMPI JUMPDEST PUSH1 0x20 DUP4 LT EQ PUSH2 0x2928 JUMPI JUMP JUMPDEST PUSH4 0x4E487B71 PUSH1 0xE0 SHL PUSH1 0x0 MSTORE PUSH1 0x22 PUSH1 0x4 MSTORE PUSH1 0x24 PUSH1 0x0 REVERT JUMPDEST SWAP2 PUSH1 0x7F AND SWAP2 PUSH2 0x291D JUMP JUMPDEST PUSH1 0x1 PUSH1 0x1 PUSH1 0x40 SHL SUB DUP2 GT PUSH2 0x88F JUMPI PUSH1 0x40 MSTORE JUMP JUMPDEST PUSH1 0xE0 DUP2 ADD SWAP1 DUP2 LT PUSH1 0x1 PUSH1 0x1 PUSH1 0x40 SHL SUB DUP3 GT OR PUSH2 0x88F JUMPI PUSH1 0x40 MSTORE JUMP JUMPDEST PUSH1 0x20 DUP2 ADD SWAP1 DUP2 LT PUSH1 0x1 PUSH1 0x1 PUSH1 0x40 SHL SUB DUP3 GT OR PUSH2 0x88F JUMPI PUSH1 0x40 MSTORE JUMP JUMPDEST SWAP1 PUSH1 0x1F DUP1 NOT SWAP2 ADD AND DUP2 ADD SWAP1 DUP2 LT PUSH1 0x1 PUSH1 0x1 PUSH1 0x40 SHL SUB DUP3 GT OR PUSH2 0x88F JUMPI PUSH1 0x40 MSTORE JUMP JUMPDEST SWAP1 PUSH1 0x40 MLOAD SWAP2 DUP3 PUSH1 0x0 DUP3 SLOAD SWAP3 PUSH2 0x29C6 DUP5 PUSH2 0x290E JUMP JUMPDEST SWAP1 DUP2 DUP5 MSTORE PUSH1 0x1 SWAP5 DUP6 DUP2 AND SWAP1 DUP2 PUSH1 0x0 EQ PUSH2 0x2A35 JUMPI POP PUSH1 0x1 EQ PUSH2 0x29F2 JUMPI JUMPDEST POP POP PUSH2 0x29F0 SWAP3 POP SUB DUP4 PUSH2 0x2991 JUMP JUMPDEST JUMP JUMPDEST SWAP1 SWAP4 SWAP2 POP PUSH1 0x0 MSTORE PUSH1 0x20 SWAP1 DUP2 PUSH1 0x0 KECCAK256 SWAP4 PUSH1 0x0 SWAP2 JUMPDEST DUP2 DUP4 LT PUSH2 0x2A1D JUMPI POP POP PUSH2 0x29F0 SWAP4 POP DUP3 ADD ADD CODESIZE DUP1 PUSH2 0x29E2 JUMP JUMPDEST DUP6 SLOAD DUP9 DUP5 ADD DUP6 ADD MSTORE SWAP5 DUP6 ADD SWAP5 DUP8 SWAP5 POP SWAP2 DUP4 ADD SWAP2 PUSH2 0x2A05 JUMP JUMPDEST SWAP2 POP POP PUSH2 0x29F0 SWAP5 POP PUSH1 0x20 SWAP3 POP PUSH1 0xFF NOT AND DUP3 DUP5 ADD MSTORE ISZERO ISZERO PUSH1 0x5 SHL DUP3 ADD ADD CODESIZE DUP1 PUSH2 0x29E2 JUMP JUMPDEST PUSH1 0x1 PUSH1 0x1 PUSH1 0x40 SHL SUB DUP2 GT PUSH2 0x88F JUMPI PUSH1 0x5 SHL PUSH1 0x20 ADD SWAP1 JUMP JUMPDEST PUSH1 0x0 NOT DUP2 EQ PUSH2 0x2844 JUMPI PUSH1 0x1 ADD SWAP1 JUMP JUMPDEST PUSH1 0x1 PUSH1 0x1 PUSH1 0x40 SHL SUB DUP2 GT PUSH2 0x88F JUMPI PUSH1 0x1F ADD PUSH1 0x1F NOT AND PUSH1 0x20 ADD SWAP1 JUMP JUMPDEST PUSH1 0x60 SWAP1 PUSH1 0x20 DUP2 MSTORE PUSH1 0x16 PUSH1 0x20 DUP3 ADD MSTORE PUSH22 0x706978656C206973206F7574206F6620626F756E6473 PUSH1 0x50 SHL PUSH1 0x40 DUP3 ADD MSTORE ADD SWAP1 JUMP JUMPDEST SWAP2 SWAP1 SWAP2 DUP3 MLOAD PUSH1 0x1 PUSH1 0x1 PUSH1 0x40 SHL SUB DUP2 GT PUSH2 0x88F JUMPI PUSH2 0x2AE7 DUP3 SLOAD PUSH2 0x290E JUMP JUMPDEST PUSH1 0x1F DUP2 GT PUSH2 0x2B91 JUMPI JUMPDEST POP PUSH1 0x20 DUP1 PUSH1 0x1F DUP4 GT PUSH1 0x1 EQ PUSH2 0x2B2D JUMPI POP DUP2 SWAP3 SWAP4 SWAP5 PUSH1 0x0 SWAP3 PUSH2 0x2B22 JUMPI JUMPDEST POP POP DUP2 PUSH1 0x1 SHL SWAP2 PUSH1 0x0 NOT SWAP1 PUSH1 0x3 SHL SHR NOT AND OR SWAP1 SSTORE JUMP JUMPDEST ADD MLOAD SWAP1 POP CODESIZE DUP1 PUSH2 0x2B0C JUMP JUMPDEST SWAP1 PUSH1 0x1F NOT DUP4 AND SWAP6 DUP5 PUSH1 0x0 MSTORE DUP3 PUSH1 0x0 KECCAK256 SWAP3 PUSH1 0x0 SWAP1 JUMPDEST DUP9 DUP3 LT PUSH2 0x2B79 JUMPI POP POP DUP4 PUSH1 0x1 SWAP6 SWAP7 SWAP8 LT PUSH2 0x2B60 JUMPI JUMPDEST POP POP POP DUP2 SHL ADD SWAP1 SSTORE JUMP JUMPDEST ADD MLOAD PUSH1 0x0 NOT PUSH1 0xF8 DUP5 PUSH1 0x3 SHL AND SHR NOT AND SWAP1 SSTORE CODESIZE DUP1 DUP1 PUSH2 0x2B56 JUMP JUMPDEST DUP1 PUSH1 0x1 DUP6 SWAP7 DUP3 SWAP5 SWAP7 DUP7 ADD MLOAD DUP2 SSTORE ADD SWAP6 ADD SWAP4 ADD SWAP1 PUSH2 0x2B41 JUMP JUMPDEST PUSH1 0x0 DUP4 DUP2 MSTORE PUSH1 0x20 DUP2 KECCAK256 PUSH1 0x1F DUP5 ADD PUSH1 0x5 SHR DUP2 ADD SWAP3 PUSH1 0x20 DUP6 LT PUSH2 0x2BCF JUMPI JUMPDEST PUSH1 0x1F ADD PUSH1 0x5 SHR ADD SWAP2 JUMPDEST DUP3 DUP2 LT PUSH2 0x2BC4 JUMPI POP POP PUSH2 0x2AF0 JUMP JUMPDEST DUP2 DUP2 SSTORE PUSH1 0x1 ADD PUSH2 0x2BB6 JUMP JUMPDEST SWAP1 SWAP3 POP DUP3 SWAP1 PUSH2 0x2BAD JUMP JUMPDEST DUP2 DUP2 MUL SWAP3 SWAP2 DUP2 ISZERO SWAP2 DUP5 DIV EQ OR ISZERO PUSH2 0x2844 JUMPI JUMP JUMPDEST DUP1 MLOAD DUP3 LT ISZERO PUSH2 0x2C00 JUMPI PUSH1 0x20 SWAP2 PUSH1 0x5 SHL ADD ADD SWAP1 JUMP JUMPDEST PUSH4 0x4E487B71 PUSH1 0xE0 SHL PUSH1 0x0 MSTORE PUSH1 0x32 PUSH1 0x4 MSTORE PUSH1 0x24 PUSH1 0x0 REVERT JUMPDEST SWAP2 SWAP1 DUP2 LT ISZERO PUSH2 0x2C00 JUMPI PUSH1 0x5 SHL ADD SWAP1 JUMP JUMPDEST ISZERO PUSH2 0x2C2D JUMPI JUMP JUMPDEST PUSH1 0x40 MLOAD PUSH3 0x461BCD PUSH1 0xE5 SHL DUP2 MSTORE PUSH1 0x20 PUSH1 0x4 DUP3 ADD MSTORE PUSH1 0x2B PUSH1 0x24 DUP3 ADD MSTORE PUSH32 0x7820616E64207920696E7075742061727261797320617265206F662076617269 PUSH1 0x44 DUP3 ADD MSTORE PUSH11 0x6F7573206C656E67746873 PUSH1 0xA8 SHL PUSH1 0x64 DUP3 ADD MSTORE PUSH1 0x84 SWAP1 REVERT JUMPDEST SWAP1 DUP2 PUSH1 0x20 SWAP2 SUB SLT PUSH2 0x17DB JUMPI MLOAD DUP1 ISZERO ISZERO DUP2 SUB PUSH2 0x17DB JUMPI SWAP1 JUMP JUMPDEST PUSH1 0x1 PUSH1 0x1 PUSH1 0xA0 SHL SUB SWAP2 DUP3 AND DUP2 MSTORE SWAP2 AND PUSH1 0x20 DUP3 ADD MSTORE PUSH1 0x40 DUP2 ADD SWAP2 SWAP1 SWAP2 MSTORE PUSH1 0x60 ADD SWAP1 JUMP JUMPDEST SWAP3 SWAP2 SWAP1 SWAP2 PUSH2 0x2CCF DUP2 DUP5 EQ PUSH2 0x2C26 JUMP JUMPDEST PUSH1 0x0 JUMPDEST DUP4 DUP2 LT PUSH2 0x2CE0 JUMPI POP POP POP POP POP JUMP JUMPDEST PUSH2 0x2CEB DUP2 DUP6 DUP8 PUSH2 0x2C16 JUMP JUMPDEST CALLDATALOAD PUSH2 0x2CF7 DUP3 DUP5 DUP7 PUSH2 0x2C16 JUMP JUMPDEST CALLDATALOAD PUSH1 0x40 DUP1 DUP1 SWAP4 LT SWAP2 DUP3 ISZERO SWAP3 PUSH2 0x3129 JUMPI JUMPDEST POP POP PUSH2 0x3112 JUMPI PUSH2 0x2D18 DUP3 DUP7 DUP9 PUSH2 0x2C16 JUMP JUMPDEST CALLDATALOAD PUSH1 0x0 MSTORE PUSH1 0x9 PUSH1 0x20 SWAP1 DUP1 DUP3 MSTORE DUP3 PUSH1 0x0 KECCAK256 PUSH2 0x2D33 DUP6 DUP8 DUP10 PUSH2 0x2C16 JUMP JUMPDEST CALLDATALOAD PUSH1 0x0 MSTORE DUP3 MSTORE PUSH1 0x1 DUP1 PUSH1 0xA0 SHL SUB CALLER DUP2 DUP6 PUSH1 0x0 KECCAK256 SLOAD AND SUB PUSH2 0x30C3 JUMPI PUSH2 0x2D58 DUP6 DUP10 DUP12 PUSH2 0x2C16 JUMP JUMPDEST CALLDATALOAD PUSH1 0x0 MSTORE DUP2 DUP4 MSTORE DUP4 PUSH1 0x0 KECCAK256 PUSH2 0x2D6E DUP7 DUP9 DUP11 PUSH2 0x2C16 JUMP JUMPDEST CALLDATALOAD PUSH1 0x0 MSTORE DUP4 MSTORE PUSH1 0x4 TIMESTAMP DUP2 DUP7 PUSH1 0x0 KECCAK256 ADD SLOAD SUB PUSH2 0x2D97 JUMPI JUMPDEST POP POP POP POP POP PUSH2 0x2D92 SWAP1 PUSH2 0x2A6F JUMP JUMPDEST PUSH2 0x2CD2 JUMP JUMPDEST PUSH2 0x2DB1 PUSH2 0x2DA5 DUP8 DUP12 DUP14 PUSH2 0x2C16 JUMP JUMPDEST CALLDATALOAD PUSH2 0x1431 DUP9 DUP11 DUP13 PUSH2 0x2C16 JUMP JUMPDEST PUSH1 0x5 SWAP3 DUP1 DUP5 SLOAD AND SWAP1 DUP8 MLOAD PUSH4 0x70A08231 PUSH1 0xE0 SHL DUP2 MSTORE CALLER DUP6 DUP3 ADD MSTORE PUSH1 0x24 SWAP1 DUP9 DUP2 DUP4 DUP2 DUP8 GAS STATICCALL SWAP1 DUP2 ISZERO PUSH2 0x3037 JUMPI SWAP1 DUP6 SWAP2 PUSH1 0x0 SWAP2 PUSH2 0x3093 JUMPI JUMPDEST POP LT PUSH2 0x3042 JUMPI DUP9 MLOAD PUSH4 0x6EB1769F PUSH1 0xE1 SHL DUP2 MSTORE CALLER DUP7 DUP3 ADD SWAP1 DUP2 MSTORE ADDRESS PUSH1 0x20 DUP3 ADD MSTORE DUP10 SWAP1 DUP3 SWAP1 DUP2 SWAP1 PUSH1 0x40 ADD SUB DUP2 DUP8 GAS STATICCALL SWAP1 DUP2 ISZERO PUSH2 0x3037 JUMPI SWAP1 DUP6 SWAP2 PUSH1 0x0 SWAP2 PUSH2 0x3007 JUMPI JUMPDEST POP LT PUSH2 0x2FB6 JUMPI POP SWAP2 DUP7 SWAP2 PUSH2 0x2E54 SWAP4 PUSH1 0x2 SLOAD AND PUSH1 0x0 DUP11 MLOAD DUP1 SWAP7 DUP2 SWAP6 DUP3 SWAP5 PUSH4 0x23B872DD PUSH1 0xE0 SHL DUP5 MSTORE CALLER DUP12 DUP6 ADD PUSH2 0x2C9E JUMP JUMPDEST SUB SWAP3 GAS CALL DUP1 ISZERO PUSH2 0x2FAB JUMPI SWAP3 PUSH2 0x2EAE DUP9 DUP13 DUP15 DUP3 SWAP11 SWAP8 SWAP7 DUP15 PUSH2 0x2E9B DUP16 SWAP15 PUSH2 0x2D92 SWAP16 DUP7 SWAP14 SWAP11 DUP3 SWAP16 SWAP13 PUSH2 0x2F8E JUMPI JUMPDEST POP PUSH2 0x2E8A DUP3 DUP9 DUP9 PUSH2 0x2C16 JUMP JUMPDEST CALLDATALOAD PUSH1 0x0 MSTORE DUP11 DUP13 MSTORE DUP13 PUSH1 0x0 KECCAK256 SWAP4 PUSH2 0x2C16 JUMP JUMPDEST CALLDATALOAD PUSH1 0x0 MSTORE DUP9 MSTORE TIMESTAMP SWAP1 DUP10 PUSH1 0x0 KECCAK256 ADD SSTORE PUSH2 0x2C16 JUMP JUMPDEST CALLDATALOAD PUSH1 0x0 MSTORE DUP2 DUP4 MSTORE DUP4 PUSH1 0x0 KECCAK256 PUSH2 0x2EC4 DUP8 DUP12 DUP14 PUSH2 0x2C16 JUMP JUMPDEST CALLDATALOAD PUSH1 0x0 MSTORE DUP4 MSTORE DUP12 PUSH1 0xFF DUP3 DUP7 PUSH1 0x0 KECCAK256 ADD SLOAD AND PUSH2 0x2F27 JUMPI JUMPDEST SWAP3 POP POP POP PUSH2 0x2EEA SWAP4 SWAP3 SWAP2 POP PUSH2 0x2C16 JUMP JUMPDEST CALLDATALOAD PUSH2 0x2EF6 DUP3 DUP6 DUP8 PUSH2 0x2C16 JUMP JUMPDEST CALLDATALOAD SWAP1 PUSH32 0xE61AF2269C9AFBDB69EFCE2B15F2A464F8EE6237F105B3D4024F2E824A9F0AF3 PUSH1 0x0 DUP1 LOG3 SWAP1 CODESIZE DUP1 DUP1 DUP1 PUSH2 0x2D84 JUMP JUMPDEST PUSH1 0x0 SWAP7 PUSH1 0x6 SWAP7 PUSH2 0x2F36 SWAP3 PUSH2 0x2C16 JUMP JUMPDEST CALLDATALOAD DUP7 MSTORE DUP2 DUP4 MSTORE DUP4 DUP7 KECCAK256 PUSH2 0x2F4A DUP9 DUP12 DUP14 PUSH2 0x2C16 JUMP JUMPDEST CALLDATALOAD DUP8 MSTORE DUP4 MSTORE DUP4 DUP7 KECCAK256 ADD DUP1 SLOAD PUSH1 0xFF NOT AND SWAP1 SSTORE PUSH2 0x2F66 DUP7 DUP12 DUP14 PUSH2 0x2C16 JUMP JUMPDEST CALLDATALOAD DUP6 MSTORE DUP2 MSTORE DUP2 DUP5 KECCAK256 SWAP1 PUSH2 0x2F7A DUP7 DUP10 DUP12 PUSH2 0x2C16 JUMP JUMPDEST CALLDATALOAD DUP6 MSTORE MSTORE DUP3 KECCAK256 ADD SSTORE DUP1 DUP6 CODESIZE DUP1 DUP1 DUP1 DUP12 PUSH2 0x2EDA JUMP JUMPDEST PUSH2 0x2FA4 SWAP1 DUP14 DUP1 RETURNDATASIZE LT PUSH2 0x1763 JUMPI PUSH2 0x1754 DUP2 DUP4 PUSH2 0x2991 JUMP JUMPDEST POP CODESIZE PUSH2 0x2E7E JUMP JUMPDEST DUP7 MLOAD RETURNDATASIZE PUSH1 0x0 DUP3 RETURNDATACOPY RETURNDATASIZE SWAP1 REVERT JUMPDEST DUP5 PUSH1 0x27 PUSH1 0x84 SWAP3 DUP11 DUP13 MLOAD SWAP4 PUSH3 0x461BCD PUSH1 0xE5 SHL DUP6 MSTORE DUP5 ADD MSTORE DUP3 ADD MSTORE PUSH32 0x696E73756666696369656E7420616C6C6F77616E636520746F2070617920726F PUSH1 0x44 DUP3 ADD MSTORE PUSH7 0x79616C74696573 PUSH1 0xC8 SHL PUSH1 0x64 DUP3 ADD MSTORE REVERT JUMPDEST SWAP2 POP DUP10 DUP3 DUP2 RETURNDATASIZE DUP4 GT PUSH2 0x3030 JUMPI JUMPDEST PUSH2 0x301E DUP2 DUP4 PUSH2 0x2991 JUMP JUMPDEST DUP2 ADD SUB SLT PUSH2 0x229 JUMPI POP DUP5 SWAP1 MLOAD CODESIZE PUSH2 0x2E25 JUMP JUMPDEST POP RETURNDATASIZE PUSH2 0x3014 JUMP JUMPDEST DUP11 MLOAD RETURNDATASIZE PUSH1 0x0 DUP3 RETURNDATACOPY RETURNDATASIZE SWAP1 REVERT JUMPDEST DUP5 PUSH1 0x27 PUSH1 0x84 SWAP3 DUP11 DUP13 MLOAD SWAP4 PUSH3 0x461BCD PUSH1 0xE5 SHL DUP6 MSTORE DUP5 ADD MSTORE DUP3 ADD MSTORE PUSH32 0x6E6F742073756666696369656E742062616C616E636520746F2070617920726F PUSH1 0x44 DUP3 ADD MSTORE PUSH7 0x79616C74696573 PUSH1 0xC8 SHL PUSH1 0x64 DUP3 ADD MSTORE REVERT JUMPDEST SWAP2 POP DUP10 DUP3 DUP2 RETURNDATASIZE DUP4 GT PUSH2 0x30BC JUMPI JUMPDEST PUSH2 0x30AA DUP2 DUP4 PUSH2 0x2991 JUMP JUMPDEST DUP2 ADD SUB SLT PUSH2 0x229 JUMPI POP DUP5 SWAP1 MLOAD CODESIZE PUSH2 0x2DE6 JUMP JUMPDEST POP RETURNDATASIZE PUSH2 0x30A0 JUMP JUMPDEST DUP4 MLOAD PUSH3 0x461BCD PUSH1 0xE5 SHL DUP2 MSTORE PUSH1 0x4 DUP2 ADD DUP5 SWAP1 MSTORE PUSH1 0x22 PUSH1 0x24 DUP3 ADD MSTORE PUSH32 0x6F6E6C7920706978656C206F776E65722063616E2070617920726F79616C7469 PUSH1 0x44 DUP3 ADD MSTORE PUSH2 0x6573 PUSH1 0xF0 SHL PUSH1 0x64 DUP3 ADD MSTORE PUSH1 0x84 SWAP1 REVERT JUMPDEST MLOAD PUSH3 0x461BCD PUSH1 0xE5 SHL DUP2 MSTORE DUP1 PUSH2 0x1ACE PUSH1 0x4 DUP3 ADD PUSH2 0x2A99 JUMP JUMPDEST LT ISZERO SWAP1 POP DUP2 CODESIZE PUSH2 0x2D07 JUMP JUMPDEST ISZERO PUSH2 0x313B JUMPI JUMP JUMPDEST PUSH1 0x40 MLOAD PUSH3 0x461BCD PUSH1 0xE5 SHL DUP2 MSTORE PUSH1 0x20 PUSH1 0x4 DUP3 ADD MSTORE PUSH1 0x23 PUSH1 0x24 DUP3 ADD MSTORE PUSH32 0x6E6F742073756666696369656E742062616C616E636520746F20627579207069 PUSH1 0x44 DUP3 ADD MSTORE PUSH3 0x1E195B PUSH1 0xEA SHL PUSH1 0x64 DUP3 ADD MSTORE PUSH1 0x84 SWAP1 REVERT JUMPDEST ISZERO PUSH2 0x3193 JUMPI JUMP JUMPDEST PUSH1 0x40 MLOAD PUSH3 0x461BCD PUSH1 0xE5 SHL DUP2 MSTORE PUSH1 0x20 PUSH1 0x4 DUP3 ADD MSTORE PUSH1 0x23 PUSH1 0x24 DUP3 ADD MSTORE PUSH32 0x696E73756666696369656E7420616C6C6F77616E636520746F20627579207069 PUSH1 0x44 DUP3 ADD MSTORE PUSH3 0x1E195B PUSH1 0xEA SHL PUSH1 0x64 DUP3 ADD MSTORE PUSH1 0x84 SWAP1 REVERT JUMPDEST SWAP2 SWAP1 DUP3 SUB SWAP2 DUP3 GT PUSH2 0x2844 JUMPI JUMP JUMPDEST ISZERO PUSH2 0x31F8 JUMPI JUMP JUMPDEST PUSH1 0x40 MLOAD PUSH3 0x461BCD PUSH1 0xE5 SHL DUP2 MSTORE PUSH1 0x20 PUSH1 0x4 DUP3 ADD MSTORE PUSH1 0x2C PUSH1 0x24 DUP3 ADD MSTORE PUSH32 0x6F776E65722063757272656E74206D616E616765722063616E2063616C6C2074 PUSH1 0x44 DUP3 ADD MSTORE PUSH12 0x3434B990333AB731BA34B7B7 PUSH1 0xA1 SHL PUSH1 0x64 DUP3 ADD MSTORE PUSH1 0x84 SWAP1 REVERT JUMPDEST PUSH1 0x40 MLOAD SWAP1 PUSH2 0x325F DUP3 PUSH2 0x295B JUMP JUMPDEST DUP2 PUSH1 0xC0 PUSH1 0x0 SWAP2 DUP3 DUP2 MSTORE DUP3 PUSH1 0x20 DUP3 ADD MSTORE DUP3 PUSH1 0x40 DUP3 ADD MSTORE PUSH1 0x60 DUP1 DUP3 ADD MSTORE DUP3 PUSH1 0x80 DUP3 ADD MSTORE DUP3 PUSH1 0xA0 DUP3 ADD MSTORE ADD MSTORE JUMP JUMPDEST SWAP1 PUSH2 0x3293 PUSH2 0x3252 JUMP JUMPDEST POP PUSH1 0x40 SWAP2 DUP3 DUP2 LT DUP1 PUSH2 0x3358 JUMPI JUMPDEST ISZERO PUSH2 0x331E JUMPI PUSH1 0x0 MSTORE PUSH1 0x9 PUSH1 0x20 MSTORE DUP2 PUSH1 0x0 KECCAK256 SWAP1 PUSH1 0x0 MSTORE PUSH1 0x20 MSTORE PUSH1 0x6 DUP2 PUSH1 0x0 KECCAK256 DUP3 MLOAD SWAP3 PUSH2 0x32CA DUP5 PUSH2 0x295B JUMP JUMPDEST DUP2 SLOAD PUSH1 0x1 PUSH1 0x1 PUSH1 0xA0 SHL SUB AND DUP5 MSTORE PUSH1 0x1 DUP3 ADD SLOAD PUSH1 0x20 DUP6 ADD MSTORE PUSH1 0x2 DUP3 ADD SLOAD SWAP1 DUP5 ADD MSTORE PUSH2 0x32F6 PUSH1 0x3 DUP3 ADD PUSH2 0x29B2 JUMP JUMPDEST PUSH1 0x60 DUP5 ADD MSTORE PUSH1 0x4 DUP2 ADD SLOAD PUSH1 0x80 DUP5 ADD MSTORE PUSH1 0xFF PUSH1 0x5 DUP3 ADD SLOAD AND ISZERO ISZERO PUSH1 0xA0 DUP5 ADD MSTORE ADD SLOAD PUSH1 0xC0 DUP3 ADD MSTORE SWAP1 JUMP JUMPDEST DUP3 MLOAD PUSH3 0x461BCD PUSH1 0xE5 SHL DUP2 MSTORE PUSH1 0x20 PUSH1 0x4 DUP3 ADD MSTORE PUSH1 0x13 PUSH1 0x24 DUP3 ADD MSTORE PUSH19 0x706978656C206F7574206F6620626F756E6473 PUSH1 0x68 SHL PUSH1 0x44 DUP3 ADD MSTORE PUSH1 0x64 SWAP1 REVERT JUMPDEST POP DUP3 DUP3 LT PUSH2 0x32A0 JUMP JUMPDEST PUSH2 0x33B1 PUSH2 0x33BA SWAP2 PUSH1 0x2 PUSH1 0x40 PUSH5 0x73DF16000 SWAP6 PUSH1 0x0 SWAP1 DUP5 DUP3 MSTORE PUSH1 0x9 PUSH1 0x20 MSTORE DUP3 DUP3 KECCAK256 DUP2 DUP4 MSTORE PUSH1 0x20 MSTORE PUSH2 0x3397 PUSH1 0x4 DUP5 DUP5 KECCAK256 ADD SLOAD TIMESTAMP PUSH2 0x31E4 JUMP JUMPDEST SWAP5 DUP3 MSTORE PUSH1 0x9 PUSH1 0x20 MSTORE DUP3 DUP3 KECCAK256 SWAP1 DUP3 MSTORE PUSH1 0x20 MSTORE KECCAK256 ADD SLOAD SWAP1 PUSH2 0x2BD9 JUMP JUMPDEST PUSH1 0x3 SLOAD SWAP1 PUSH2 0x2BD9 JUMP JUMPDEST DIV SWAP1 JUMP JUMPDEST ISZERO PUSH2 0x33C5 JUMPI JUMP JUMPDEST PUSH1 0x40 MLOAD PUSH3 0x461BCD PUSH1 0xE5 SHL DUP2 MSTORE PUSH1 0x20 PUSH1 0x4 DUP3 ADD MSTORE PUSH1 0x19 PUSH1 0x24 DUP3 ADD MSTORE PUSH25 0x61756374696F6E2068617320656E64656420616C7265616479 PUSH1 0x38 SHL PUSH1 0x44 DUP3 ADD MSTORE PUSH1 0x64 SWAP1 REVERT JUMPDEST ISZERO PUSH2 0x340D JUMPI JUMP JUMPDEST PUSH1 0x40 MLOAD PUSH3 0x461BCD PUSH1 0xE5 SHL DUP2 MSTORE PUSH1 0x20 PUSH1 0x4 DUP3 ADD MSTORE PUSH1 0x1B PUSH1 0x24 DUP3 ADD MSTORE PUSH32 0x61756374696F6E20686173206E6F742073746172746564207965740000000000 PUSH1 0x44 DUP3 ADD MSTORE PUSH1 0x64 SWAP1 REVERT JUMPDEST RETURNDATASIZE ISZERO PUSH2 0x347D JUMPI RETURNDATASIZE SWAP1 PUSH2 0x3463 DUP3 PUSH2 0x2A7E JUMP JUMPDEST SWAP2 PUSH2 0x3471 PUSH1 0x40 MLOAD SWAP4 DUP5 PUSH2 0x2991 JUMP JUMPDEST DUP3 MSTORE RETURNDATASIZE PUSH1 0x0 PUSH1 0x20 DUP5 ADD RETURNDATACOPY JUMP JUMPDEST PUSH1 0x60 SWAP1 JUMP JUMPDEST PUSH1 0x2 PUSH1 0x0 SLOAD EQ PUSH2 0x3493 JUMPI PUSH1 0x2 PUSH1 0x0 SSTORE JUMP JUMPDEST PUSH1 0x40 MLOAD PUSH4 0x3EE5AEB5 PUSH1 0xE0 SHL DUP2 MSTORE PUSH1 0x4 SWAP1 REVERT JUMPDEST SWAP2 SWAP3 SWAP1 SWAP3 DUP3 ISZERO PUSH2 0x3B49 JUMPI PUSH1 0x1 DUP4 EQ PUSH2 0x3A7A JUMPI PUSH1 0x2 DUP4 EQ PUSH2 0x3A50 JUMPI PUSH1 0x3 DUP4 EQ PUSH2 0x39F4 JUMPI PUSH1 0x4 SWAP3 DUP4 DUP2 EQ PUSH2 0x39A0 JUMPI PUSH1 0x5 DUP2 EQ PUSH2 0x3843 JUMPI PUSH1 0x6 DUP2 EQ PUSH2 0x37F1 JUMPI PUSH1 0x7 DUP2 EQ PUSH2 0x378A JUMPI PUSH1 0x8 DUP2 EQ PUSH2 0x36A7 JUMPI PUSH1 0x9 EQ PUSH2 0x350F JUMPI POP POP POP POP PUSH1 0x40 MLOAD PUSH2 0x3508 DUP2 PUSH2 0x2976 JUMP JUMPDEST PUSH1 0x0 DUP2 MSTORE SWAP1 JUMP JUMPDEST PUSH2 0x3518 DUP5 PUSH2 0x3C88 JUMP JUMPDEST SWAP1 PUSH2 0x3522 DUP2 PUSH2 0x3C88 JUMP JUMPDEST PUSH1 0x8 DUP7 ADD DUP1 DUP8 GT PUSH2 0x3692 JUMPI PUSH2 0x3536 SWAP1 PUSH2 0x3C88 JUMP JUMPDEST SWAP5 PUSH1 0x8 DUP4 ADD DUP1 SWAP4 GT PUSH2 0x367D JUMPI POP SWAP2 PUSH2 0x365E DUP3 PUSH2 0x367A SWAP7 SWAP5 PUSH2 0x356B PUSH2 0x3565 PUSH2 0x355F PUSH1 0x49 SWAP10 SWAP8 PUSH2 0x3C88 JUMP JUMPDEST SWAP11 PUSH2 0x3C88 JUMP JUMPDEST SWAP3 PUSH2 0x3C88 JUMP JUMPDEST SWAP2 PUSH1 0x40 MLOAD SWAP10 DUP11 SWAP8 PUSH1 0x2A PUSH2 0x359B DUP11 PUSH1 0x20 SWAP10 PUSH10 0x3C7061746820643D224D PUSH1 0xB0 SHL DUP12 DUP4 ADD MSTORE DUP11 DUP2 MLOAD SWAP5 DUP6 SWAP4 ADD SWAP2 ADD PUSH2 0x2767 JUMP JUMPDEST DUP10 ADD SWAP4 PUSH1 0x1 PUSH1 0xFD SHL SWAP5 DUP6 PUSH1 0x2A DUP3 ADD MSTORE PUSH2 0x35BD DUP3 MLOAD DUP1 SWAP4 DUP12 PUSH1 0x2B DUP6 ADD SWAP2 ADD PUSH2 0x2767 JUMP JUMPDEST ADD PUSH12 0x10209C101C1018101810189 PUSH1 0xA5 SHL PUSH1 0x2B DUP3 ADD MSTORE PUSH2 0x35E6 DUP3 MLOAD DUP1 SWAP4 DUP11 PUSH1 0x37 DUP6 ADD SWAP2 ADD PUSH2 0x2767 JUMP JUMPDEST ADD DUP4 PUSH1 0x37 DUP3 ADD MSTORE PUSH2 0x3600 DUP3 MLOAD DUP1 SWAP4 DUP10 PUSH1 0x38 DUP6 ADD SWAP2 ADD PUSH2 0x2767 JUMP JUMPDEST ADD PUSH2 0x813 PUSH1 0xF2 SHL PUSH1 0x38 DUP3 ADD MSTORE PUSH2 0x361F DUP3 MLOAD DUP1 SWAP4 DUP9 PUSH1 0x3A DUP6 ADD SWAP2 ADD PUSH2 0x2767 JUMP JUMPDEST ADD SWAP1 PUSH1 0x3A DUP3 ADD MSTORE PUSH2 0x3639 DUP3 MLOAD DUP1 SWAP4 DUP7 PUSH1 0x3B DUP6 ADD SWAP2 ADD PUSH2 0x2767 JUMP JUMPDEST ADD SWAP2 PUSH10 0x102D11103334B6361E91 PUSH1 0xB1 SHL PUSH1 0x3B DUP5 ADD MSTORE DUP4 MLOAD SWAP4 DUP5 SWAP2 PUSH1 0x45 DUP6 ADD SWAP2 ADD PUSH2 0x2767 JUMP JUMPDEST ADD PUSH4 0x1110179F PUSH1 0xE1 SHL PUSH1 0x45 DUP3 ADD MSTORE SUB PUSH1 0x29 DUP2 ADD DUP5 MSTORE ADD DUP3 PUSH2 0x2991 JUMP JUMPDEST SWAP1 JUMP JUMPDEST PUSH1 0x11 SWAP1 PUSH4 0x4E487B71 PUSH1 0xE0 SHL PUSH1 0x0 MSTORE MSTORE PUSH1 0x24 PUSH1 0x0 REVERT JUMPDEST PUSH1 0x11 DUP7 PUSH4 0x4E487B71 PUSH1 0xE0 SHL PUSH1 0x0 MSTORE MSTORE PUSH1 0x24 PUSH1 0x0 REVERT JUMPDEST POP SWAP3 PUSH1 0x8 DUP2 ADD SWAP4 DUP5 DUP3 GT PUSH2 0x3775 JUMPI PUSH2 0x36BE DUP6 PUSH2 0x3C88 JUMP JUMPDEST SWAP2 PUSH2 0x36D1 PUSH2 0x36CB DUP4 PUSH2 0x3C88 JUMP JUMPDEST SWAP2 PUSH2 0x3C88 JUMP JUMPDEST SWAP5 PUSH1 0x8 DUP4 ADD DUP1 SWAP4 GT PUSH2 0x367D JUMPI POP SWAP2 PUSH2 0x365E DUP3 PUSH2 0x367A SWAP7 SWAP5 PUSH2 0x36FA PUSH2 0x3565 PUSH2 0x355F PUSH1 0x49 SWAP10 SWAP8 PUSH2 0x3C88 JUMP JUMPDEST SWAP2 PUSH1 0x40 MLOAD SWAP10 DUP11 SWAP8 PUSH1 0x2A PUSH2 0x372A DUP11 PUSH1 0x20 SWAP10 PUSH10 0x3C7061746820643D224D PUSH1 0xB0 SHL DUP12 DUP4 ADD MSTORE DUP11 DUP2 MLOAD SWAP5 DUP6 SWAP4 ADD SWAP2 ADD PUSH2 0x2767 JUMP JUMPDEST DUP10 ADD SWAP4 PUSH1 0x1 PUSH1 0xFD SHL SWAP5 DUP6 PUSH1 0x2A DUP3 ADD MSTORE PUSH2 0x374C DUP3 MLOAD DUP1 SWAP4 DUP12 PUSH1 0x2B DUP6 ADD SWAP2 ADD PUSH2 0x2767 JUMP JUMPDEST ADD PUSH12 0x10209C101C1018101810181 PUSH1 0xA5 SHL PUSH1 0x2B DUP3 ADD MSTORE PUSH2 0x35E6 DUP3 MLOAD DUP1 SWAP4 DUP11 PUSH1 0x37 DUP6 ADD SWAP2 ADD PUSH2 0x2767 JUMP JUMPDEST PUSH1 0x11 DUP5 PUSH4 0x4E487B71 PUSH1 0xE0 SHL PUSH1 0x0 MSTORE MSTORE PUSH1 0x24 PUSH1 0x0 REVERT JUMPDEST POP PUSH2 0x3794 DUP5 PUSH2 0x3C88 JUMP JUMPDEST SWAP1 PUSH2 0x379E DUP2 PUSH2 0x3C88 JUMP JUMPDEST PUSH1 0x8 DUP7 ADD DUP1 SWAP7 GT PUSH2 0x37DC JUMPI PUSH2 0x37B2 DUP7 PUSH2 0x3C88 JUMP JUMPDEST SWAP5 PUSH1 0x8 DUP4 ADD SWAP1 DUP2 DUP5 GT PUSH2 0x367D JUMPI POP PUSH1 0x49 SWAP5 SWAP3 PUSH2 0x367A SWAP7 SWAP5 SWAP3 PUSH2 0x36FA PUSH2 0x3565 PUSH2 0x355F PUSH2 0x365E SWAP6 PUSH2 0x3C88 JUMP JUMPDEST PUSH1 0x11 DUP6 PUSH4 0x4E487B71 PUSH1 0xE0 SHL PUSH1 0x0 MSTORE MSTORE PUSH1 0x24 PUSH1 0x0 REVERT JUMPDEST POP PUSH2 0x37FB DUP5 PUSH2 0x3C88 JUMP JUMPDEST SWAP1 PUSH1 0x8 DUP2 ADD DUP1 DUP3 GT PUSH2 0x37DC JUMPI PUSH2 0x3810 SWAP1 PUSH2 0x3C88 JUMP JUMPDEST SWAP4 PUSH1 0x8 DUP7 ADD SWAP1 DUP2 DUP8 GT PUSH2 0x367D JUMPI POP SWAP2 PUSH2 0x365E PUSH1 0x49 SWAP5 SWAP3 PUSH2 0x3833 PUSH2 0x367A SWAP8 SWAP6 PUSH2 0x3C88 JUMP JUMPDEST SWAP5 PUSH2 0x36FA PUSH2 0x3565 PUSH2 0x355F DUP5 PUSH2 0x3C88 JUMP JUMPDEST POP SWAP3 PUSH2 0x384E DUP2 PUSH2 0x3C88 JUMP JUMPDEST SWAP1 PUSH1 0x8 DUP6 ADD SWAP1 DUP2 DUP7 GT PUSH2 0x37DC JUMPI PUSH2 0x3864 DUP3 PUSH2 0x3C88 JUMP JUMPDEST SWAP1 PUSH2 0x3877 PUSH2 0x3871 DUP3 PUSH2 0x3C88 JUMP JUMPDEST SWAP8 PUSH2 0x3C88 JUMP JUMPDEST SWAP6 PUSH1 0x8 DUP3 ADD DUP1 SWAP3 GT PUSH2 0x367D JUMPI POP PUSH1 0x3F SWAP5 SWAP3 PUSH2 0x367A SWAP7 SWAP5 SWAP3 PUSH2 0x389D PUSH2 0x3565 PUSH2 0x3984 SWAP5 PUSH2 0x3C88 JUMP JUMPDEST SWAP2 PUSH1 0x40 MLOAD SWAP10 DUP11 SWAP8 PUSH1 0x2A PUSH2 0x38CD DUP11 PUSH1 0x20 SWAP10 PUSH10 0x3C7061746820643D224D PUSH1 0xB0 SHL DUP12 DUP4 ADD MSTORE DUP11 DUP2 MLOAD SWAP5 DUP6 SWAP4 ADD SWAP2 ADD PUSH2 0x2767 JUMP JUMPDEST DUP10 ADD SWAP4 PUSH1 0x1 PUSH1 0xFD SHL SWAP5 DUP6 PUSH1 0x2A DUP3 ADD MSTORE PUSH2 0x38EF DUP3 MLOAD DUP1 SWAP4 DUP12 PUSH1 0x2B DUP6 ADD SWAP2 ADD PUSH2 0x2767 JUMP JUMPDEST ADD SWAP2 PUSH2 0x813 PUSH1 0xF2 SHL SWAP3 DUP4 PUSH1 0x2B DUP3 ADD MSTORE PUSH2 0x3911 DUP3 MLOAD DUP1 SWAP4 DUP12 PUSH1 0x2D DUP6 ADD SWAP2 ADD PUSH2 0x2767 JUMP JUMPDEST ADD DUP5 PUSH1 0x2D DUP3 ADD MSTORE PUSH2 0x392B DUP3 MLOAD DUP1 SWAP4 DUP11 PUSH1 0x2E DUP6 ADD SWAP2 ADD PUSH2 0x2767 JUMP JUMPDEST ADD SWAP1 PUSH1 0x2E DUP3 ADD MSTORE PUSH2 0x3945 DUP3 MLOAD DUP1 SWAP4 DUP9 PUSH1 0x30 DUP6 ADD SWAP2 ADD PUSH2 0x2767 JUMP JUMPDEST ADD SWAP1 PUSH1 0x30 DUP3 ADD MSTORE PUSH2 0x395F DUP3 MLOAD DUP1 SWAP4 DUP7 PUSH1 0x31 DUP6 ADD SWAP2 ADD PUSH2 0x2767 JUMP JUMPDEST ADD SWAP2 PUSH10 0x103D11103334B6361E91 PUSH1 0xB1 SHL PUSH1 0x31 DUP5 ADD MSTORE DUP4 MLOAD SWAP4 DUP5 SWAP2 PUSH1 0x3B DUP6 ADD SWAP2 ADD PUSH2 0x2767 JUMP JUMPDEST ADD PUSH4 0x1110179F PUSH1 0xE1 SHL PUSH1 0x3B DUP3 ADD MSTORE SUB PUSH1 0x1F DUP2 ADD DUP5 MSTORE ADD DUP3 PUSH2 0x2991 JUMP JUMPDEST POP SWAP3 SWAP2 PUSH1 0x8 DUP4 ADD SWAP1 DUP2 DUP5 GT PUSH2 0x367D JUMPI PUSH2 0x39B8 DUP3 PUSH2 0x3C88 JUMP JUMPDEST SWAP2 PUSH1 0x8 DUP7 ADD SWAP2 DUP3 DUP8 GT PUSH2 0x367D JUMPI POP SWAP2 PUSH2 0x3984 DUP3 PUSH2 0x367A SWAP7 SWAP5 PUSH2 0x389D PUSH2 0x3565 PUSH2 0x3871 PUSH2 0x39EE PUSH2 0x39E8 PUSH1 0x3F SWAP12 SWAP10 PUSH2 0x3C88 JUMP JUMPDEST SWAP5 PUSH2 0x3C88 JUMP JUMPDEST SWAP12 PUSH2 0x3C88 JUMP JUMPDEST SWAP2 POP PUSH2 0x39FF DUP4 PUSH2 0x3C88 JUMP JUMPDEST SWAP3 PUSH2 0x3A09 DUP4 PUSH2 0x3C88 JUMP JUMPDEST SWAP2 PUSH1 0x8 DUP3 ADD DUP1 SWAP3 GT PUSH2 0x2844 JUMPI PUSH2 0x3A1E DUP3 PUSH2 0x3C88 JUMP JUMPDEST SWAP5 PUSH2 0x3A31 PUSH2 0x3A2B DUP7 PUSH2 0x3C88 JUMP JUMPDEST SWAP4 PUSH2 0x3C88 JUMP JUMPDEST SWAP5 PUSH1 0x8 DUP2 ADD DUP1 SWAP2 GT PUSH2 0x2844 JUMPI PUSH2 0x367A SWAP6 PUSH1 0x3F SWAP6 PUSH2 0x389D PUSH2 0x3984 SWAP4 PUSH2 0x3C88 JUMP JUMPDEST SWAP2 POP PUSH2 0x3A5B DUP4 PUSH2 0x3C88 JUMP JUMPDEST SWAP3 PUSH2 0x3A65 DUP4 PUSH2 0x3C88 JUMP JUMPDEST SWAP2 PUSH1 0x8 DUP3 ADD DUP1 DUP4 GT PUSH2 0x2844 JUMPI PUSH2 0x3A1E SWAP1 PUSH2 0x3C88 JUMP JUMPDEST SWAP2 POP SWAP2 PUSH1 0x4 DUP2 ADD DUP1 SWAP2 GT PUSH2 0x2844 JUMPI PUSH2 0x3A91 SWAP1 PUSH2 0x3C88 JUMP JUMPDEST SWAP1 PUSH1 0x4 DUP2 ADD DUP1 SWAP2 GT PUSH2 0x2844 JUMPI PUSH2 0x367A SWAP2 PUSH2 0x3AAC PUSH1 0x44 SWAP3 PUSH2 0x3C88 JUMP JUMPDEST SWAP4 PUSH1 0x40 MLOAD SWAP5 DUP6 SWAP3 PUSH12 0x1E31B4B931B6329031BC1E91 PUSH1 0xA1 SHL PUSH1 0x20 DUP6 ADD MSTORE PUSH2 0x3ADC DUP2 MLOAD DUP1 SWAP3 PUSH1 0x20 PUSH1 0x2C DUP9 ADD SWAP2 ADD PUSH2 0x2767 JUMP JUMPDEST DUP4 ADD PUSH6 0x111031BC9E91 PUSH1 0xD1 SHL PUSH1 0x2C DUP3 ADD MSTORE PUSH2 0x3B01 DUP3 MLOAD DUP1 SWAP4 PUSH1 0x20 PUSH1 0x32 DUP6 ADD SWAP2 ADD PUSH2 0x2767 JUMP JUMPDEST ADD PUSH14 0x1110391E911A11103334B6361E91 PUSH1 0x91 SHL PUSH1 0x32 DUP3 ADD MSTORE PUSH2 0x3B2D DUP3 MLOAD DUP1 SWAP4 PUSH1 0x20 PUSH1 0x40 DUP6 ADD SWAP2 ADD PUSH2 0x2767 JUMP JUMPDEST ADD PUSH4 0x1110179F PUSH1 0xE1 SHL PUSH1 0x40 DUP3 ADD MSTORE SUB PUSH1 0x24 DUP2 ADD DUP5 MSTORE ADD DUP3 PUSH2 0x2991 JUMP JUMPDEST PUSH2 0x367A SWAP3 POP PUSH2 0x3B5D PUSH2 0x36CB PUSH1 0x4F SWAP4 SWAP6 PUSH2 0x3C88 JUMP JUMPDEST SWAP4 PUSH1 0x40 MLOAD SWAP5 DUP6 SWAP3 PUSH9 0x1E3932B1BA103C1E91 PUSH1 0xB9 SHL PUSH1 0x20 DUP6 ADD MSTORE PUSH2 0x3B8A DUP2 MLOAD DUP1 SWAP3 PUSH1 0x20 PUSH1 0x29 DUP9 ADD SWAP2 ADD PUSH2 0x2767 JUMP JUMPDEST DUP4 ADD PUSH5 0x11103C9E91 PUSH1 0xD9 SHL PUSH1 0x29 DUP3 ADD MSTORE PUSH2 0x3BAE DUP3 MLOAD DUP1 SWAP4 PUSH1 0x20 PUSH1 0x2E DUP6 ADD SWAP2 ADD PUSH2 0x2767 JUMP JUMPDEST ADD PUSH32 0x222077696474683D223822206865696768743D2238222066696C6C3D22000000 PUSH1 0x2E DUP3 ADD MSTORE PUSH2 0x3BE9 DUP3 MLOAD DUP1 SWAP4 PUSH1 0x20 PUSH1 0x4B DUP6 ADD SWAP2 ADD PUSH2 0x2767 JUMP JUMPDEST ADD PUSH4 0x1110179F PUSH1 0xE1 SHL PUSH1 0x4B DUP3 ADD MSTORE SUB PUSH1 0x2F DUP2 ADD DUP5 MSTORE ADD DUP3 PUSH2 0x2991 JUMP JUMPDEST PUSH1 0x0 SWAP3 SWAP2 DUP2 SLOAD PUSH2 0x3C14 DUP2 PUSH2 0x290E JUMP JUMPDEST SWAP3 PUSH1 0x1 SWAP2 DUP1 DUP4 AND SWAP1 DUP2 ISZERO PUSH2 0x3C6D JUMPI POP PUSH1 0x1 EQ PUSH2 0x3C31 JUMPI JUMPDEST POP POP POP POP JUMP JUMPDEST SWAP1 SWAP2 SWAP3 SWAP4 SWAP5 POP PUSH1 0x0 MSTORE PUSH1 0x20 SWAP1 DUP2 PUSH1 0x0 KECCAK256 SWAP1 PUSH1 0x0 SWAP2 JUMPDEST DUP6 DUP4 LT PUSH2 0x3C5C JUMPI POP POP POP POP ADD SWAP1 CODESIZE DUP1 DUP1 DUP1 PUSH2 0x3C2B JUMP JUMPDEST DUP1 SLOAD DUP6 DUP5 ADD MSTORE SWAP2 DUP4 ADD SWAP2 DUP2 ADD PUSH2 0x3C46 JUMP JUMPDEST PUSH1 0xFF NOT AND DUP5 MSTORE POP POP POP DUP2 ISZERO ISZERO SWAP1 SWAP2 MUL ADD SWAP2 POP CODESIZE DUP1 DUP1 DUP1 PUSH2 0x3C2B JUMP JUMPDEST DUP1 ISZERO PUSH2 0x3D48 JUMPI DUP1 DUP2 PUSH1 0x0 SWAP3 JUMPDEST PUSH2 0x3D34 JUMPI POP DUP1 PUSH2 0x3CA3 DUP4 PUSH2 0x2A7E JUMP JUMPDEST SWAP3 PUSH2 0x3CB1 PUSH1 0x40 MLOAD SWAP5 DUP6 PUSH2 0x2991 JUMP JUMPDEST DUP1 DUP5 MSTORE PUSH1 0x1F NOT PUSH2 0x3CC0 DUP3 PUSH2 0x2A7E JUMP JUMPDEST ADD CALLDATASIZE PUSH1 0x20 DUP7 ADD CALLDATACOPY SWAP2 JUMPDEST PUSH2 0x3CD2 JUMPI POP POP SWAP1 JUMP JUMPDEST PUSH1 0x0 NOT DUP3 ADD SWAP2 DUP1 DUP4 GT PUSH2 0x2844 JUMPI DUP3 PUSH1 0xA SWAP1 DUP2 DUP5 DIV SWAP4 DUP3 DUP6 MUL SWAP3 DUP6 DUP5 DIV EQ DUP6 ISZERO OR ISZERO PUSH2 0x2844 JUMPI PUSH2 0x3D04 PUSH1 0xFF SWAP4 DUP5 SWAP3 PUSH2 0x31E4 JUMP JUMPDEST AND PUSH1 0x30 ADD SWAP2 DUP3 GT PUSH2 0x2844 JUMPI DUP6 MLOAD GT ISZERO PUSH2 0x2C00 JUMPI PUSH1 0xF8 SHL PUSH1 0x1 PUSH1 0x1 PUSH1 0xF8 SHL SUB NOT AND PUSH1 0x0 BYTE SWAP1 DUP5 ADD PUSH1 0x1F ADD MSTORE8 DUP1 PUSH2 0x3CC9 JUMP JUMPDEST SWAP2 PUSH2 0x3D40 PUSH1 0xA SWAP2 PUSH2 0x2A6F JUMP JUMPDEST SWAP3 DIV DUP1 PUSH2 0x3C94 JUMP JUMPDEST POP PUSH1 0x40 MLOAD PUSH1 0x40 DUP2 ADD DUP2 DUP2 LT PUSH1 0x1 PUSH1 0x1 PUSH1 0x40 SHL SUB DUP3 GT OR PUSH2 0x88F JUMPI PUSH1 0x40 MSTORE PUSH1 0x1 DUP2 MSTORE PUSH1 0x3 PUSH1 0xFC SHL PUSH1 0x20 DUP3 ADD MSTORE SWAP1 JUMP INVALID LOG2 PUSH5 0x6970667358 0x22 SLT KECCAK256 0xAF ADDMOD SDIV 0xCB 0xB9 0xD1 PUSH1 0xAE 0xA7 0x1F EXTCODECOPY GT 0xAF 0xD7 0xC6 PREVRANDAO 0xB9 ADDMOD 0x2C 0xB3 0xE0 0xC7 0x4C BASEFEE BASEFEE POP CALLDATASIZE MSTORE 0xAC 0xE0 0xC7 0xCB PUSH5 0x736F6C6343 STOP ADDMOD EQ STOP CALLER PUSH1 0x80 DUP1 PUSH1 0x40 MSTORE CALLVALUE PUSH2 0x16 JUMPI PUSH2 0x794 SWAP1 DUP2 PUSH2 0x1C DUP3 CODECOPY RETURN JUMPDEST PUSH1 0x0 DUP1 REVERT INVALID PUSH1 0x80 PUSH1 0x40 MSTORE PUSH1 0x4 CALLDATASIZE LT ISZERO PUSH2 0x12 JUMPI PUSH1 0x0 DUP1 REVERT JUMPDEST PUSH1 0x0 DUP1 CALLDATALOAD PUSH1 0xE0 SHR SWAP1 DUP2 PUSH4 0x2E08D602 EQ PUSH2 0x7A JUMPI POP DUP1 PUSH4 0x58161A42 EQ PUSH2 0x75 JUMPI DUP1 PUSH4 0xB8616195 EQ PUSH2 0x70 JUMPI DUP1 PUSH4 0xCF06C7B7 EQ PUSH2 0x6B JUMPI DUP1 PUSH4 0xDD1D2599 EQ PUSH2 0x66 JUMPI PUSH4 0xE27D5153 EQ PUSH2 0x61 JUMPI PUSH1 0x0 DUP1 REVERT JUMPDEST PUSH2 0x3F7 JUMP JUMPDEST PUSH2 0x3D6 JUMP JUMPDEST PUSH2 0x3B0 JUMP JUMPDEST PUSH2 0x2BB JUMP JUMPDEST PUSH2 0x20D JUMP JUMPDEST CALLVALUE PUSH2 0x151 JUMPI PUSH1 0x20 CALLDATASIZE PUSH1 0x3 NOT ADD SLT PUSH2 0x151 JUMPI PUSH1 0x4 CALLDATALOAD PUSH8 0xFFFFFFFFFFFFFFFF DUP2 GT PUSH2 0x14D JUMPI PUSH2 0xAB SWAP1 CALLDATASIZE SWAP1 PUSH1 0x4 ADD PUSH2 0x1AD JUMP JUMPDEST PUSH1 0x1 DUP1 DUP3 MLOAD GT ISZERO PUSH2 0xFC JUMPI DUP1 JUMPDEST PUSH2 0xDE JUMPI JUMPDEST PUSH2 0xDA PUSH2 0xC9 DUP4 PUSH2 0x45A JUMP JUMPDEST MLOAD PUSH1 0x40 MLOAD SWAP1 DUP2 MSTORE SWAP1 DUP2 SWAP1 PUSH1 0x20 DUP3 ADD SWAP1 JUMP JUMPDEST SUB SWAP1 RETURN JUMPDEST DUP1 DUP3 MLOAD GT ISZERO PUSH2 0xF7 JUMPI PUSH2 0xF1 DUP2 SWAP3 PUSH2 0x511 JUMP JUMPDEST SWAP2 PUSH2 0xB8 JUMP JUMPDEST PUSH2 0xBD JUMP JUMPDEST PUSH1 0x40 MLOAD PUSH3 0x461BCD PUSH1 0xE5 SHL DUP2 MSTORE PUSH1 0x20 PUSH1 0x4 DUP3 ADD MSTORE PUSH1 0x23 PUSH1 0x24 DUP3 ADD MSTORE PUSH32 0x776F6E27742067656E657261746520726F6F7420666F722073696E676C65206C PUSH1 0x44 DUP3 ADD MSTORE PUSH3 0x32B0B3 PUSH1 0xE9 SHL PUSH1 0x64 DUP3 ADD MSTORE PUSH1 0x84 SWAP1 REVERT JUMPDEST POP DUP1 REVERT JUMPDEST DUP1 REVERT JUMPDEST PUSH4 0x4E487B71 PUSH1 0xE0 SHL PUSH1 0x0 MSTORE PUSH1 0x41 PUSH1 0x4 MSTORE PUSH1 0x24 PUSH1 0x0 REVERT JUMPDEST PUSH1 0x40 MLOAD SWAP2 SWAP1 PUSH1 0x1F ADD PUSH1 0x1F NOT AND DUP3 ADD PUSH8 0xFFFFFFFFFFFFFFFF DUP2 GT DUP4 DUP3 LT OR PUSH2 0x190 JUMPI PUSH1 0x40 MSTORE JUMP JUMPDEST PUSH2 0x154 JUMP JUMPDEST PUSH8 0xFFFFFFFFFFFFFFFF DUP2 GT PUSH2 0x190 JUMPI PUSH1 0x5 SHL PUSH1 0x20 ADD SWAP1 JUMP JUMPDEST SWAP1 DUP1 PUSH1 0x1F DUP4 ADD SLT ISZERO PUSH2 0x208 JUMPI DUP2 CALLDATALOAD SWAP1 PUSH2 0x1CD PUSH2 0x1C8 DUP4 PUSH2 0x195 JUMP JUMPDEST PUSH2 0x16A JUMP JUMPDEST SWAP2 DUP3 SWAP4 DUP2 DUP5 MSTORE PUSH1 0x20 DUP1 DUP1 SWAP6 ADD SWAP3 PUSH1 0x5 SHL DUP3 ADD ADD SWAP3 DUP4 GT PUSH2 0x208 JUMPI DUP4 ADD SWAP1 JUMPDEST DUP3 DUP3 LT PUSH2 0x1F9 JUMPI POP POP POP POP SWAP1 JUMP JUMPDEST DUP2 CALLDATALOAD DUP2 MSTORE SWAP1 DUP4 ADD SWAP1 DUP4 ADD PUSH2 0x1EB JUMP JUMPDEST PUSH1 0x0 DUP1 REVERT JUMPDEST CALLVALUE PUSH2 0x208 JUMPI PUSH1 0x60 CALLDATASIZE PUSH1 0x3 NOT ADD SLT PUSH2 0x208 JUMPI PUSH1 0x24 CALLDATALOAD PUSH8 0xFFFFFFFFFFFFFFFF DUP2 GT PUSH2 0x208 JUMPI PUSH2 0x23E SWAP1 CALLDATASIZE SWAP1 PUSH1 0x4 ADD PUSH2 0x1AD JUMP JUMPDEST PUSH1 0x44 CALLDATALOAD DUP2 MLOAD PUSH1 0x0 SWAP3 JUMPDEST DUP2 DUP5 LT PUSH2 0x25D JUMPI PUSH1 0x40 MLOAD PUSH1 0x4 CALLDATALOAD DUP5 EQ DUP2 MSTORE PUSH1 0x20 SWAP1 RETURN JUMPDEST SWAP1 SWAP2 PUSH2 0x276 PUSH1 0x1 SWAP2 PUSH2 0x26F DUP7 DUP6 PUSH2 0x47D JUMP JUMPDEST MLOAD SWAP1 PUSH2 0x437 JUMP JUMPDEST SWAP4 ADD SWAP3 SWAP2 SWAP1 PUSH2 0x247 JUMP JUMPDEST PUSH1 0x20 SWAP1 DUP2 PUSH1 0x40 DUP2 DUP4 ADD SWAP3 DUP3 DUP2 MSTORE DUP6 MLOAD DUP1 SWAP5 MSTORE ADD SWAP4 ADD SWAP2 PUSH1 0x0 JUMPDEST DUP3 DUP2 LT PUSH2 0x2A7 JUMPI POP POP POP POP SWAP1 JUMP JUMPDEST DUP4 MLOAD DUP6 MSTORE SWAP4 DUP2 ADD SWAP4 SWAP3 DUP2 ADD SWAP3 PUSH1 0x1 ADD PUSH2 0x299 JUMP JUMPDEST CALLVALUE PUSH2 0x208 JUMPI PUSH1 0x40 CALLDATASIZE PUSH1 0x3 NOT ADD SLT PUSH2 0x208 JUMPI PUSH1 0x4 CALLDATALOAD PUSH8 0xFFFFFFFFFFFFFFFF DUP2 GT PUSH2 0x208 JUMPI PUSH2 0x2EC SWAP1 CALLDATASIZE SWAP1 PUSH1 0x4 ADD PUSH2 0x1AD JUMP JUMPDEST PUSH1 0x24 CALLDATALOAD SWAP1 PUSH1 0x1 SWAP1 PUSH2 0x2FF DUP3 DUP3 MLOAD GT PUSH2 0x491 JUMP JUMPDEST PUSH2 0x311 PUSH2 0x30C DUP3 MLOAD PUSH2 0x632 JUMP JUMPDEST PUSH2 0x4E9 JUMP JUMPDEST SWAP3 PUSH1 0x0 DUP1 DUP5 JUMPDEST PUSH2 0x32A JUMPI JUMPDEST PUSH1 0x40 MLOAD DUP1 PUSH2 0xDA DUP9 DUP3 PUSH2 0x280 JUMP JUMPDEST DUP4 MLOAD DUP6 DUP2 GT ISZERO PUSH2 0x3AA JUMPI DUP6 DUP5 SWAP4 SWAP3 PUSH2 0x36F SWAP3 DUP3 DUP1 DUP1 SWAP9 AND EQ PUSH1 0x0 EQ PUSH2 0x379 JUMPI POP PUSH2 0x358 PUSH1 0x0 NOT DUP7 ADD DUP9 PUSH2 0x47D JUMP JUMPDEST MLOAD PUSH2 0x363 DUP3 DUP12 PUSH2 0x47D JUMP JUMPDEST MSTORE JUMPDEST ADD SWAP3 DUP5 SHR SWAP5 PUSH2 0x511 JUMP JUMPDEST SWAP4 SWAP3 SWAP2 SWAP1 SWAP2 PUSH2 0x317 JUMP JUMPDEST DUP6 DUP4 ADD SWAP1 DUP2 SUB PUSH2 0x395 JUMPI POP DUP4 PUSH2 0x38F DUP3 DUP12 PUSH2 0x47D JUMP JUMPDEST MSTORE PUSH2 0x365 JUMP JUMPDEST PUSH2 0x39F SWAP1 DUP9 PUSH2 0x47D JUMP JUMPDEST MLOAD PUSH2 0x38F DUP3 DUP12 PUSH2 0x47D JUMP JUMPDEST POP PUSH2 0x31C JUMP JUMPDEST CALLVALUE PUSH2 0x208 JUMPI PUSH1 0x20 CALLDATASIZE PUSH1 0x3 NOT ADD SLT PUSH2 0x208 JUMPI PUSH1 0x20 PUSH2 0x3CE PUSH1 0x4 CALLDATALOAD PUSH2 0x632 JUMP JUMPDEST PUSH1 0x40 MLOAD SWAP1 DUP2 MSTORE RETURN JUMPDEST CALLVALUE PUSH2 0x208 JUMPI PUSH1 0x40 CALLDATASIZE PUSH1 0x3 NOT ADD SLT PUSH2 0x208 JUMPI PUSH1 0x20 PUSH2 0x3CE PUSH1 0x24 CALLDATALOAD PUSH1 0x4 CALLDATALOAD PUSH2 0x437 JUMP JUMPDEST CALLVALUE PUSH2 0x208 JUMPI PUSH1 0x20 CALLDATASIZE PUSH1 0x3 NOT ADD SLT PUSH2 0x208 JUMPI PUSH1 0x4 CALLDATALOAD DUP1 PUSH1 0x0 DUP2 JUMPDEST PUSH2 0x42A JUMPI PUSH1 0x20 SWAP3 POP PUSH1 0x40 MLOAD SWAP2 DUP1 PUSH1 0x1 DUP2 NOT ADD AND EQ SWAP1 SUB DUP2 MSTORE RETURN JUMPDEST PUSH1 0x1 SWAP3 DUP4 SHR SWAP3 ADD DUP3 PUSH2 0x410 JUMP JUMPDEST DUP2 DUP2 LT ISZERO PUSH2 0x44E JUMPI PUSH1 0x0 MSTORE PUSH1 0x20 MSTORE JUMPDEST PUSH1 0x40 PUSH1 0x0 KECCAK256 SWAP1 JUMP JUMPDEST SWAP1 PUSH1 0x0 MSTORE PUSH1 0x20 MSTORE PUSH2 0x446 JUMP JUMPDEST DUP1 MLOAD ISZERO PUSH2 0x467 JUMPI PUSH1 0x20 ADD SWAP1 JUMP JUMPDEST PUSH4 0x4E487B71 PUSH1 0xE0 SHL PUSH1 0x0 MSTORE PUSH1 0x32 PUSH1 0x4 MSTORE PUSH1 0x24 PUSH1 0x0 REVERT JUMPDEST DUP1 MLOAD DUP3 LT ISZERO PUSH2 0x467 JUMPI PUSH1 0x20 SWAP2 PUSH1 0x5 SHL ADD ADD SWAP1 JUMP JUMPDEST ISZERO PUSH2 0x498 JUMPI JUMP JUMPDEST PUSH1 0x40 MLOAD PUSH3 0x461BCD PUSH1 0xE5 SHL DUP2 MSTORE PUSH1 0x20 PUSH1 0x4 DUP3 ADD MSTORE PUSH1 0x24 DUP1 DUP3 ADD MSTORE PUSH32 0x776F6E27742067656E65726174652070726F6F6620666F722073696E676C6520 PUSH1 0x44 DUP3 ADD MSTORE PUSH4 0x3632B0B3 PUSH1 0xE1 SHL PUSH1 0x64 DUP3 ADD MSTORE PUSH1 0x84 SWAP1 REVERT JUMPDEST SWAP1 PUSH2 0x4F6 PUSH2 0x1C8 DUP4 PUSH2 0x195 JUMP JUMPDEST DUP3 DUP2 MSTORE DUP1 SWAP3 PUSH2 0x507 PUSH1 0x1F NOT SWAP2 PUSH2 0x195 JUMP JUMPDEST ADD SWAP1 PUSH1 0x20 CALLDATASIZE SWAP2 ADD CALLDATACOPY JUMP JUMPDEST SWAP1 DUP2 MLOAD PUSH1 0x1 SWAP1 DUP2 DUP1 DUP3 AND EQ PUSH1 0x0 EQ PUSH2 0x5A9 JUMPI PUSH2 0x530 DUP3 DUP3 DUP2 SHR ADD PUSH2 0x4E9 JUMP JUMPDEST SWAP2 PUSH1 0x0 NOT PUSH2 0x540 DUP4 DUP3 ADD DUP8 PUSH2 0x47D JUMP JUMPDEST MLOAD PUSH1 0x0 DUP1 MSTORE PUSH1 0x20 MSTORE PUSH2 0x55A PUSH1 0x40 PUSH1 0x0 KECCAK256 SWAP2 DUP6 MLOAD ADD DUP6 PUSH2 0x47D JUMP JUMPDEST MSTORE JUMPDEST PUSH1 0x0 NOT SWAP1 SWAP2 ADD SWAP1 PUSH1 0x0 DUP1 JUMPDEST DUP4 DUP3 LT PUSH2 0x577 JUMPI POP SWAP3 SWAP5 POP POP POP POP JUMP JUMPDEST DUP3 PUSH1 0x2 SWAP2 PUSH2 0x595 PUSH2 0x588 DUP6 DUP12 PUSH2 0x47D JUMP JUMPDEST MLOAD PUSH2 0x26F DUP5 DUP8 ADD DUP13 PUSH2 0x47D JUMP JUMPDEST PUSH2 0x59F DUP3 DUP10 PUSH2 0x47D JUMP JUMPDEST MSTORE ADD SWAP2 ADD SWAP1 PUSH2 0x567 JUMP JUMPDEST PUSH2 0x5B4 DUP2 DUP4 SHR PUSH2 0x4E9 JUMP JUMPDEST SWAP2 PUSH2 0x55C JUMP JUMPDEST SWAP1 PUSH1 0x40 DUP3 ADD DUP1 SWAP3 GT PUSH2 0x5C8 JUMPI JUMP JUMPDEST PUSH4 0x4E487B71 PUSH1 0xE0 SHL PUSH1 0x0 MSTORE PUSH1 0x11 PUSH1 0x4 MSTORE PUSH1 0x24 PUSH1 0x0 REVERT JUMPDEST SWAP1 PUSH1 0x20 DUP3 ADD DUP1 SWAP3 GT PUSH2 0x5C8 JUMPI JUMP JUMPDEST SWAP1 PUSH1 0x10 DUP3 ADD DUP1 SWAP3 GT PUSH2 0x5C8 JUMPI JUMP JUMPDEST SWAP1 PUSH1 0x8 DUP3 ADD DUP1 SWAP3 GT PUSH2 0x5C8 JUMPI JUMP JUMPDEST SWAP1 PUSH1 0x4 DUP3 ADD DUP1 SWAP3 GT PUSH2 0x5C8 JUMPI JUMP JUMPDEST SWAP1 PUSH1 0x2 DUP3 ADD DUP1 SWAP3 GT PUSH2 0x5C8 JUMPI JUMP JUMPDEST SWAP1 PUSH1 0x1 DUP3 ADD DUP1 SWAP3 GT PUSH2 0x5C8 JUMPI JUMP JUMPDEST PUSH1 0x1 DUP2 GT ISZERO PUSH2 0x758 JUMPI PUSH1 0x0 SWAP1 DUP1 PUSH1 0x1 PUSH1 0x80 SHL DUP2 LT ISZERO PUSH2 0x74D JUMPI JUMPDEST PUSH1 0x2 SWAP1 PUSH1 0x1 PUSH1 0x40 SHL DUP2 LT ISZERO PUSH2 0x73A JUMPI JUMPDEST PUSH5 0x100000000 DUP2 LT ISZERO PUSH2 0x727 JUMPI JUMPDEST PUSH3 0x10000 DUP2 LT ISZERO PUSH2 0x714 JUMPI JUMPDEST PUSH2 0x100 DUP2 LT ISZERO PUSH2 0x701 JUMPI JUMPDEST PUSH1 0x10 DUP2 LT ISZERO PUSH2 0x6EE JUMPI JUMPDEST PUSH1 0x4 DUP2 LT ISZERO PUSH2 0x6DC JUMPI JUMPDEST LT ISZERO PUSH2 0x6CC JUMPI JUMPDEST DUP1 PUSH2 0x6A7 DUP2 NOT PUSH2 0x624 JUMP JUMPDEST AND EQ DUP1 PUSH2 0x6C3 JUMPI JUMPDEST ISZERO PUSH2 0x6B7 JUMPI SWAP1 JUMP JUMPDEST PUSH2 0x6C0 SWAP1 PUSH2 0x624 JUMP JUMPDEST SWAP1 JUMP JUMPDEST POP DUP1 ISZERO ISZERO PUSH2 0x6AF JUMP JUMPDEST SWAP1 PUSH2 0x6D6 SWAP1 PUSH2 0x624 JUMP JUMPDEST SWAP1 PUSH2 0x69C JUMP JUMPDEST PUSH2 0x6E8 SWAP1 DUP3 SHR SWAP4 PUSH2 0x616 JUMP JUMPDEST SWAP3 PUSH2 0x695 JUMP JUMPDEST PUSH2 0x6FB SWAP1 PUSH1 0x4 SHR SWAP4 PUSH2 0x608 JUMP JUMPDEST SWAP3 PUSH2 0x68B JUMP JUMPDEST PUSH2 0x70E SWAP1 PUSH1 0x8 SHR SWAP4 PUSH2 0x5FA JUMP JUMPDEST SWAP3 PUSH2 0x681 JUMP JUMPDEST PUSH2 0x721 SWAP1 PUSH1 0x10 SHR SWAP4 PUSH2 0x5EC JUMP JUMPDEST SWAP3 PUSH2 0x676 JUMP JUMPDEST PUSH2 0x734 SWAP1 PUSH1 0x20 SHR SWAP4 PUSH2 0x5DE JUMP JUMPDEST SWAP3 PUSH2 0x66A JUMP JUMPDEST PUSH2 0x747 SWAP1 PUSH1 0x40 SHR SWAP4 PUSH2 0x5BA JUMP JUMPDEST SWAP3 PUSH2 0x65C JUMP JUMPDEST PUSH1 0x80 SWAP3 POP DUP3 SHR PUSH2 0x64C JUMP JUMPDEST POP PUSH1 0x0 SWAP1 JUMP INVALID LOG2 PUSH5 0x6970667358 0x22 SLT KECCAK256 0x29 MSIZE PUSH14 0xB90313B4FB257EFD2FBF9BA954B5 LOG2 SDIV 0x4B RETURN DIV LOG0 0xAA ISZERO CREATE2 0xE7 DUP5 CODECOPY 0xE1 0x2F NUMBER PUSH5 0x736F6C6343 STOP ADDMOD EQ STOP CALLER "},"methodIdentifiers":{"ARTISTIC_PERIOD()":"3323a706","AUCTION_DURATION()":"a271e525","CYCLE_PERIOD()":"113bc999","VOTING_PERIOD()":"b1610d7e","auctionClaims(uint256,address)":"44d6b6d2","auctionClaimsFlag(uint256,address)":"7000c3e8","balanceOf(address)":"70a08231","buyPixel(uint256[],uint256[])":"6ed958f1","calculateRoyalties(uint256,uint256)":"d08629c1","canvasCreation()":"ff188dca","castVote(bool)":"7ace48e7","checkMultiplePixel(uint256[],uint256[])":"c7eab2ec","checkPixel(uint256,uint256)":"040cdfd8","checkVoteOutcome(uint256)":"5c8c6407","closeAuction(uint256)":"236ed8f3","fillPixel(bytes[])":"3bdb693e","generateMerkle()":"a52f27b5","generateSVG()":"ad711e9e","getAuctionClaims(uint256)":"7a43a920","getBalance(address)":"f8b2cb4f","getCurrentCycle()":"be26ed7f","getMintDate(uint256)":"bc5bc2fb","hasVoted(address)":"09eef43e","isInArtisticPeriod()":"4882a7ea","isInVotingPeriod()":"b3a1ddf4","manager()":"481c6a75","maxHeight()":"63aa5ce2","maxWidth()":"6006ecc8","mintDates(uint256)":"c4323fc1","nftAuctions(uint256)":"93cde51a","nftContract()":"d56d229d","payRoyalties(uint256[],uint256[])":"e50eb5da","pixelSVGs(uint256)":"c4e4b90c","placeBid(uint256)":"9979ef45","rowSVGs(uint256)":"e1245900","royaltyAskPeriod()":"6e70fcc6","royaltyDenominator()":"fd8d7ed3","royaltyRate()":"c4d1510d","seekRoyaltyPayment(uint256,uint256,uint256)":"85a9473d","setNFTContract(address)":"a7ccabdf","setPixelValue(uint256[],uint256[],uint256[])":"8232b562","updateCurrency(address)":"5e027601","voteRegister(uint256)":"30b5d6d3","window(uint256,uint256)":"c730e65d","withdrawPixelProceeds(uint256)":"ccba3617"}}}}}