{"contracts/CanvasCollection.sol":{"CanvasCollection":{"abi":[{"inputs":[{"internalType":"address","name":"pixelmapAddress","type":"address"}],"stateMutability":"nonpayable","type":"constructor"},{"inputs":[],"name":"ApprovalCallerNotOwnerNorApproved","type":"error"},{"inputs":[],"name":"ApprovalQueryForNonexistentToken","type":"error"},{"inputs":[],"name":"BalanceQueryForZeroAddress","type":"error"},{"inputs":[],"name":"MintERC2309QuantityExceedsLimit","type":"error"},{"inputs":[],"name":"MintToZeroAddress","type":"error"},{"inputs":[],"name":"MintZeroQuantity","type":"error"},{"inputs":[{"internalType":"address","name":"owner","type":"address"}],"name":"OwnableInvalidOwner","type":"error"},{"inputs":[{"internalType":"address","name":"account","type":"address"}],"name":"OwnableUnauthorizedAccount","type":"error"},{"inputs":[],"name":"OwnerQueryForNonexistentToken","type":"error"},{"inputs":[],"name":"OwnershipNotInitializedForExtraData","type":"error"},{"inputs":[],"name":"TransferCallerNotOwnerNorApproved","type":"error"},{"inputs":[],"name":"TransferFromIncorrectOwner","type":"error"},{"inputs":[],"name":"TransferToNonERC721ReceiverImplementer","type":"error"},{"inputs":[],"name":"TransferToZeroAddress","type":"error"},{"inputs":[],"name":"URIQueryForNonexistentToken","type":"error"},{"anonymous":false,"inputs":[{"indexed":true,"internalType":"address","name":"owner","type":"address"},{"indexed":true,"internalType":"address","name":"approved","type":"address"},{"indexed":true,"internalType":"uint256","name":"tokenId","type":"uint256"}],"name":"Approval","type":"event"},{"anonymous":false,"inputs":[{"indexed":true,"internalType":"address","name":"owner","type":"address"},{"indexed":true,"internalType":"address","name":"operator","type":"address"},{"indexed":false,"internalType":"bool","name":"approved","type":"bool"}],"name":"ApprovalForAll","type":"event"},{"anonymous":false,"inputs":[{"indexed":true,"internalType":"uint256","name":"fromTokenId","type":"uint256"},{"indexed":false,"internalType":"uint256","name":"toTokenId","type":"uint256"},{"indexed":true,"internalType":"address","name":"from","type":"address"},{"indexed":true,"internalType":"address","name":"to","type":"address"}],"name":"ConsecutiveTransfer","type":"event"},{"anonymous":false,"inputs":[{"indexed":true,"internalType":"address","name":"previousOwner","type":"address"},{"indexed":true,"internalType":"address","name":"newOwner","type":"address"}],"name":"OwnershipTransferred","type":"event"},{"anonymous":false,"inputs":[{"indexed":true,"internalType":"address","name":"from","type":"address"},{"indexed":true,"internalType":"address","name":"to","type":"address"},{"indexed":true,"internalType":"uint256","name":"tokenId","type":"uint256"}],"name":"Transfer","type":"event"},{"inputs":[{"internalType":"address","name":"to","type":"address"},{"internalType":"uint256","name":"tokenId","type":"uint256"}],"name":"approve","outputs":[],"stateMutability":"payable","type":"function"},{"inputs":[{"internalType":"address","name":"owner","type":"address"}],"name":"balanceOf","outputs":[{"internalType":"uint256","name":"","type":"uint256"}],"stateMutability":"view","type":"function"},{"inputs":[],"name":"generateImage","outputs":[{"internalType":"string","name":"","type":"string"}],"stateMutability":"view","type":"function"},{"inputs":[{"internalType":"uint256","name":"tokenId","type":"uint256"}],"name":"getApproved","outputs":[{"internalType":"address","name":"","type":"address"}],"stateMutability":"view","type":"function"},{"inputs":[{"internalType":"uint256","name":"tokenId","type":"uint256"}],"name":"getTokenURI","outputs":[{"internalType":"string","name":"","type":"string"}],"stateMutability":"view","type":"function"},{"inputs":[{"internalType":"address","name":"owner","type":"address"},{"internalType":"address","name":"operator","type":"address"}],"name":"isApprovedForAll","outputs":[{"internalType":"bool","name":"","type":"bool"}],"stateMutability":"view","type":"function"},{"inputs":[{"internalType":"address","name":"to","type":"address"}],"name":"mint","outputs":[],"stateMutability":"nonpayable","type":"function"},{"inputs":[],"name":"name","outputs":[{"internalType":"string","name":"","type":"string"}],"stateMutability":"view","type":"function"},{"inputs":[],"name":"owner","outputs":[{"internalType":"address","name":"","type":"address"}],"stateMutability":"view","type":"function"},{"inputs":[{"internalType":"uint256","name":"tokenId","type":"uint256"}],"name":"ownerOf","outputs":[{"internalType":"address","name":"","type":"address"}],"stateMutability":"view","type":"function"},{"inputs":[],"name":"pixelmapContract","outputs":[{"internalType":"contract Pixelmap","name":"","type":"address"}],"stateMutability":"view","type":"function"},{"inputs":[],"name":"renounceOwnership","outputs":[],"stateMutability":"nonpayable","type":"function"},{"inputs":[{"internalType":"address","name":"from","type":"address"},{"internalType":"address","name":"to","type":"address"},{"internalType":"uint256","name":"tokenId","type":"uint256"}],"name":"safeTransferFrom","outputs":[],"stateMutability":"payable","type":"function"},{"inputs":[{"internalType":"address","name":"from","type":"address"},{"internalType":"address","name":"to","type":"address"},{"internalType":"uint256","name":"tokenId","type":"uint256"},{"internalType":"bytes","name":"_data","type":"bytes"}],"name":"safeTransferFrom","outputs":[],"stateMutability":"payable","type":"function"},{"inputs":[{"internalType":"address","name":"operator","type":"address"},{"internalType":"bool","name":"approved","type":"bool"}],"name":"setApprovalForAll","outputs":[],"stateMutability":"nonpayable","type":"function"},{"inputs":[{"internalType":"address","name":"pixelmapAddress","type":"address"}],"name":"setPixelmapContract","outputs":[],"stateMutability":"nonpayable","type":"function"},{"inputs":[{"internalType":"bytes4","name":"interfaceId","type":"bytes4"}],"name":"supportsInterface","outputs":[{"internalType":"bool","name":"","type":"bool"}],"stateMutability":"view","type":"function"},{"inputs":[],"name":"symbol","outputs":[{"internalType":"string","name":"","type":"string"}],"stateMutability":"view","type":"function"},{"inputs":[{"internalType":"uint256","name":"tokenId","type":"uint256"}],"name":"tokenURI","outputs":[{"internalType":"string","name":"","type":"string"}],"stateMutability":"view","type":"function"},{"inputs":[],"name":"totalSupply","outputs":[{"internalType":"uint256","name":"","type":"uint256"}],"stateMutability":"view","type":"function"},{"inputs":[{"internalType":"address","name":"from","type":"address"},{"internalType":"address","name":"to","type":"address"},{"internalType":"uint256","name":"tokenId","type":"uint256"}],"name":"transferFrom","outputs":[],"stateMutability":"payable","type":"function"},{"inputs":[{"internalType":"address","name":"newOwner","type":"address"}],"name":"transferOwnership","outputs":[],"stateMutability":"nonpayable","type":"function"}],"evm":{"bytecode":{"linkReferences":{},"object":"608034620003cf576001600160401b0390601f1990601f9062001c44388190038381018516830186811184821017620003d457839282916040528339602092839181010312620003cf57516001600160a01b03948582169491859003620003cf576200006a620003ea565b601181527021b0b73b30b99021b7b63632b1ba34b7b760791b8482015262000091620003ea565b9460049586815263434e565360e01b868201528251848111620003ba57600254936001948581811c91168015620003af575b898210146200039a5790818584931162000343575b508890858311600114620002dd57600092620002d1575b5050600019600383901b1c191690841b176002555b8051938411620002bc5760039586548481811c91168015620002b1575b828210146200029c5783811162000251575b5080928511600114620001e9575083945090839291600094620001dd575b50501b9160001990841b1c19161790555b600080553315620001c5575060088054336001600160a01b03198083168217909355604051949091167f8be0079c531659141344cd1fd0a4f28419497f9722a3daafe3b4186f6b6457e0600080a3600954161760095561183990816200040b8239f35b602490600060405191631e4fbdf760e01b8352820152fd5b01519250388062000151565b9294849081168760005284600020946000905b888383106200023657505050106200021d575b505050811b01905562000162565b015160001983861b60f8161c191690553880806200020f565b858701518855909601959485019487935090810190620001fc565b87600052816000208480880160051c82019284891062000292575b0160051c019085905b8281106200028557505062000133565b6000815501859062000275565b925081926200026c565b602289634e487b7160e01b6000525260246000fd5b90607f169062000121565b604187634e487b7160e01b6000525260246000fd5b015190503880620000ef565b90888794169160026000528a6000209260005b8c8282106200032c575050841162000312575b505050811b0160025562000104565b015160001960f88460031b161c1916905538808062000303565b8385015186558a97909501949384019301620002f0565b9091506002600052886000208580850160051c8201928b861062000390575b918891869594930160051c01915b82811062000380575050620000d8565b6000815585945088910162000370565b9250819262000362565b60228a634e487b7160e01b6000525260246000fd5b90607f1690620000c3565b604188634e487b7160e01b6000525260246000fd5b600080fd5b634e487b7160e01b600052604160045260246000fd5b60408051919082016001600160401b03811183821017620003d45760405256fe6080604052600436101561001257600080fd5b60003560e01c806301ffc9a71461017757806303d18e071461017257806306fdde031461016d578063081812fc14610168578063095ea7b31461016357806318160ddd1461015e57806323b872dd146101595780633bb3a24d1461015457806342842e0e1461014f5780636352211e1461014a5780636a6278421461014557806370a0823114610140578063715018a61461013b5780638da5cb5b1461013657806395d89b4114610131578063a22cb4651461012c578063a755257614610127578063acd7cbab14610122578063b88d4fde1461011d578063c87b56dd14610118578063e985e9c5146101135763f2fde38b1461010e57600080fd5b610b05565b610aa8565b610980565b6108fd565b610848565b61082c565b61079e565b6106fa565b6106d1565b610673565b610618565b61058e565b61055f565b61053c565b610509565b6104f5565b61049d565b6103e6565b610366565b610286565b610201565b610193565b6001600160e01b031981160361018e57565b600080fd5b3461018e57602036600319011261018e5760206004356101b28161017c565b63ffffffff60e01b166301ffc9a760e01b81149081156101f0575b81156101df575b506040519015158152f35b635b5e139f60e01b149050386101d4565b6380ac58cd60e01b811491506101cd565b3461018e57600036600319011261018e576009546040516001600160a01b039091168152602090f35b60005b83811061023d5750506000910152565b818101518382015260200161022d565b906020916102668151809281855285808601910161022a565b601f01601f1916010190565b90602061028392818152019061024d565b90565b3461018e5760008060031936011261036357604051816002546102a881610bb9565b8084529060019081811690811561033b57506001146102e2575b6102de846102d2818803826108c1565b60405191829182610272565b0390f35b60028352602094507f405787fa12a823e0f2b7631cc41b3ba8828b3321ca811111fa75cd3aa3bb5ace5b82841061032857505050816102de936102d292820101936102c2565b805485850187015292850192810161030c565b6102de96506102d29450602092508593915060ff191682840152151560051b820101936102c2565b80fd5b3461018e57602036600319011261018e57600435610383816113fd565b156103a8576000526006602052602060018060a01b0360406000205416604051908152f35b6040516333d1c03960e21b8152600490fd5b600435906001600160a01b038216820361018e57565b602435906001600160a01b038216820361018e57565b604036600319011261018e576103fa6103ba565b6024356001600160a01b038061040f8361138e565b169081330361046a575b600083815260066020526040812080546001600160a01b0319166001600160a01b0387161790559316907f8c5be1e5ebec7d5bd14f71427d1e84f3dd0314c0f7b2291e5b200ac8c7c3b9258480a480f35b600082815260076020908152604080832033845290915290205460ff16610419576040516367d9dca160e11b8152600490fd5b3461018e57600036600319011261018e5760206000546001549003604051908152f35b606090600319011261018e576001600160a01b0390600435828116810361018e5791602435908116810361018e579060443590565b610507610501366104c0565b91611426565b005b3461018e57602036600319011261018e576102de6105286004356110a0565b60405191829160208352602083019061024d565b610507610548366104c0565b9060405192610556846108a1565b600084526115f8565b3461018e57602036600319011261018e5760206001600160a01b0361058560043561138e565b16604051908152f35b3461018e57602036600319011261018e576105a76103ba565b6009546001600160a01b031633036105d357610507906105ce60005460015490039161175b565b610c47565b60405162461bcd60e51b815260206004820152601f60248201527f4f6e6c7920506978656c6d617020636f6e74726163742063616e206d696e74006044820152606490fd5b3461018e57602036600319011261018e576001600160a01b036106396103ba565b16801561066157600052600560205260206001600160401b0360406000205416604051908152f35b6040516323d3ad8160e21b8152600490fd5b3461018e576000806003193601126103635761068d610b8d565b600880546001600160a01b0319811690915581906001600160a01b03167f8be0079c531659141344cd1fd0a4f28419497f9722a3daafe3b4186f6b6457e08280a380f35b3461018e57600036600319011261018e576008546040516001600160a01b039091168152602090f35b3461018e57600080600319360112610363576040518160035461071c81610bb9565b8084529060019081811690811561033b5750600114610745576102de846102d2818803826108c1565b60038352602094507fc2575a0e9e593c00f959f8c92f12db2869c3395a3b0502d05e2516446f71f85b5b82841061078b57505050816102de936102d292820101936102c2565b805485850187015292850192810161076f565b3461018e57604036600319011261018e576107b76103ba565b6024359081151580920361018e573360009081526007602090815260408083206001600160a01b0385168452909152902060ff1981541660ff841617905560405191825260018060a01b0316907f17307eab39ab6107e8899845ad3d59bd9653f200f220920489ca2b5937696c3160203392a3005b3461018e57600036600319011261018e576102de610528610daa565b3461018e57602036600319011261018e576108616103ba565b610869610b8d565b600980546001600160a01b0319166001600160a01b0392909216919091179055005b634e487b7160e01b600052604160045260246000fd5b602081019081106001600160401b038211176108bc57604052565b61088b565b90601f801991011681019081106001600160401b038211176108bc57604052565b6001600160401b0381116108bc57601f01601f191660200190565b608036600319011261018e576109116103ba565b6109196103d0565b606435916001600160401b03831161018e573660238401121561018e57826004013591610945836108e2565b9261095360405194856108c1565b808452366024828701011161018e57602081600092602461050798018388013785010152604435916115f8565b3461018e5760208060031936011261018e576004359061099f826113fd565b15610a4c576000918252600a8152604082209060405191838154906109c382610bb9565b80865292600192808416908115610a2857506001146109ed575b6102de866102d2818a03826108c1565b9080949650528483205b828410610a1557505050816102de936102d2928201019338806109dd565b80548585018701529285019281016109f7565b60ff19168787015250505050151560051b82010191506102d2816102de38806109dd565b6084906040519062461bcd60e51b82526004820152602f60248201527f4552433732314d657461646174613a2055524920717565727920666f72206e6f60448201526e3732bc34b9ba32b73a103a37b5b2b760891b6064820152fd5b3461018e57604036600319011261018e57602060ff610af9610ac86103ba565b610ad06103d0565b6001600160a01b0391821660009081526007865260408082209290931681526020919091522090565b54166040519015158152f35b3461018e57602036600319011261018e57610b1e6103ba565b610b26610b8d565b6001600160a01b03908116908115610b7457600880546001600160a01b031981168417909155167f8be0079c531659141344cd1fd0a4f28419497f9722a3daafe3b4186f6b6457e0600080a3005b604051631e4fbdf760e01b815260006004820152602490fd5b6008546001600160a01b03163303610ba157565b60405163118cdaa760e01b8152336004820152602490fd5b90600182811c92168015610be9575b6020831014610bd357565b634e487b7160e01b600052602260045260246000fd5b91607f1691610bc8565b90601f8111610c0157505050565b600091825260208220906020601f850160051c83019410610c3d575b601f0160051c01915b828110610c3257505050565b818155600101610c26565b9092508290610c1d565b90610c51826113fd565b15610d3957610c5f826110a0565b916000526020600a81526040600020908351906001600160401b0382116108bc57610c9482610c8e8554610bb9565b85610bf3565b80601f8311600114610cce575081929394600092610cc3575b50508160011b916000199060031b1c1916179055565b015190503880610cad565b90601f19831695610ce485600052602060002090565b926000905b888210610d2157505083600195969710610d08575b505050811b019055565b015160001960f88460031b161c19169055388080610cfe565b80600185968294968601518155019501930190610ce9565b60405162461bcd60e51b815260206004820152602c60248201527f4552433732314d657461646174613a2055524920736574206f66206e6f6e657860448201526b34b9ba32b73a103a37b5b2b760a11b6064820152608490fd5b90610da66020928281519485920161022a565b0190565b6009546040516356b88f4f60e11b81526000918290829060049082906001600160a01b03165afa918215610ec4578092610e35575b5050610283610df0610e2792610fc5565b6040517f646174613a696d6167652f7376672b786d6c3b6261736536342c0000000000006020820152928391603a83015b90610d93565b03601f1981018352826108c1565b9091503d8082843e610e4781846108c1565b820191602081840312610ebc578051906001600160401b038211610ec0570182601f82011215610ebc57805191610e7d836108e2565b93610e8b60405195866108c1565b83855260208484010111610363575082610eb561028393610df093602080610e279801910161022a565b9250610ddf565b5080fd5b8280fd5b604051903d90823e3d90fd5b60405190610edd826108a1565b60008252565b60405190606082018281106001600160401b038211176108bc57604052604082527f6768696a6b6c6d6e6f707172737475767778797a303132333435363738392b2f6040837f4142434445464748494a4b4c4d4e4f505152535455565758595a61626364656660208201520152565b634e487b7160e01b600052601160045260246000fd5b9060028201809211610f7657565b610f52565b600281901b91906001600160fe1b03811603610f7657565b90610f9d826108e2565b610faa60405191826108c1565b8281528092610fbb601f19916108e2565b0190602036910137565b80511561109757610fd4610ee3565b610ff8610ff3610fee610fe78551610f68565b6003900490565b610f7b565b610f93565b9160208301918182518301915b8282106110455750505060039051068060011461103257600214611027575090565b603d90600019015390565b50603d9081600019820153600119015390565b9091936004906003809401938451600190603f9082828260121c16880101518553828282600c1c16880101518386015382828260061c1688010151600286015316850101519082015301939190611005565b50610283610ed0565b6000908072184f03e93ff9f4daa797ed6e38ed64bf6a1f0160401b8181811015611380575b50506d04ee2d6d415b85acef810000000080831015611371575b50662386f26fc1000080831015611362575b506305f5e10080831015611353575b5061271080831015611344575b506064821015611334575b600a8092101561132a575b600190816021611134828701610f93565b95860101905b6112f4575b505050506102836111ac6112b36112e89361129a61128d611280611161610daa565b610e2161126a6111f56111ba6040519a8b99610e2161118b60208d01600190607b60f81b81520190565b74226e616d65223a2022506978656c2043616e76617360581b815260150190565b61088b60f21b815260020190565b7f2265787465726e616c5f75726c223a2268747470733a2f2f7777772e676f6f678152681b194b9e1e5e8bc88b60ba1b602082015260290190565b7f226465736372697074696f6e223a202243726561746564206279206120636f6d81527f756e697479206f6620617274697374732c206275696c646572732c207669736960208201527f6f6e61726965732c20696e766573746f727320616e6420646567656e732e222c604082015260600190565b691134b6b0b3b2911d101160b11b8152600a0190565b601160f91b815260010190565b607d60f81b815260010190565b03916112ae601f19938481018352826108c1565b610fc5565b6040517f646174613a6170706c69636174696f6e2f6a736f6e3b6261736536342c0000006020820152938491603d8301610e21565b039081018352826108c1565b600019019083906f181899199a1a9b1b9c1cb0b131b232b360811b8282061a8353049182156113255791908261113a565b61113f565b9160010191611123565b9190606460029104910191611118565b6004919392049101913861110d565b60089193920491019138611100565b601091939204910191386110f1565b602091939204910191386110df565b6040945004915038806110c5565b80600090815481106113ad575b604051636f96cda160e11b8152600490fd5b81526004906020918083526040928383205494600160e01b8616156113d45750505061139b565b93929190935b85156113e857505050505090565b600019018083528185528383205495506113da565b6000548110908161140c575090565b90506000526004602052600160e01b604060002054161590565b906114308361138e565b6001600160a01b03838116928282168490036115e7576000868152600660205260409020805490926114756001600160a01b03881633908114908414171590565b1590565b61158c575b821695861561157a576114cd936114ab92611570575b506001600160a01b0316600090815260056020526040902090565b80546000190190556001600160a01b0316600090815260056020526040902090565b80546001019055600160e11b804260a01b8517176114f5866000526004602052604060002090565b55811615611526575b507fddf252ad1be2c89b69c2b068fc378daa952ba7f163c4a11628f55a4df523b3ef600080a4565b6001840161153e816000526004602052604060002090565b541561154b575b506114fe565b600054811461154557611568906000526004602052604060002090565b553880611545565b6000905538611490565b604051633a954ecd60e21b8152600490fd5b6115d06114716115c9336115b28b60018060a01b03166000526007602052604060002090565b9060018060a01b0316600052602052604060002090565b5460ff1690565b1561147a57604051632ce44b5f60e11b8152600490fd5b60405162a1148160e81b8152600490fd5b929190611606828286611426565b803b611613575b50505050565b61161c936116b2565b1561162a573880808061160d565b6040516368d2bf6b60e11b8152600490fd5b9081602091031261018e57516102838161017c565b6001600160a01b0391821681529116602082015260408101919091526080606082018190526102839291019061024d565b3d156116ad573d90611693826108e2565b916116a160405193846108c1565b82523d6000602084013e565b606090565b926020916116db936000604051809681958294630a85bd0160e11b9a8b85523360048601611651565b03926001600160a01b03165af16000918161172b575b5061171d576116fe611682565b80519081611718576040516368d2bf6b60e11b8152600490fd5b602001fd5b6001600160e01b0319161490565b61174d91925060203d8111611754575b61174581836108c1565b81019061163c565b90386116f1565b503d61173b565b600080546001600160a01b039290921680825260056020908152604080842080546801000000000000000101905584845260049091528220600160e11b4260a01b83171790556001808401937fddf252ad1be2c89b69c2b068fc378daa952ba7f163c4a11628f55a4df523b3ef908385838180a4845b8581036117f457505050156117e35755565b604051622e076360e81b8152600490fd5b8083918587858180a4016117d156fea2646970667358221220e6d9fa5f82ca89cb25cefc6f0523eeaae853af58cb3c306db23a0cdfbb5a3a4364736f6c63430008140033","opcodes":"PUSH1 0x80 CALLVALUE PUSH3 0x3CF JUMPI PUSH1 0x1 PUSH1 0x1 PUSH1 0x40 SHL SUB SWAP1 PUSH1 0x1F NOT SWAP1 PUSH1 0x1F SWAP1 PUSH3 0x1C44 CODESIZE DUP2 SWAP1 SUB DUP4 DUP2 ADD DUP6 AND DUP4 ADD DUP7 DUP2 GT DUP5 DUP3 LT OR PUSH3 0x3D4 JUMPI DUP4 SWAP3 DUP3 SWAP2 PUSH1 0x40 MSTORE DUP4 CODECOPY PUSH1 0x20 SWAP3 DUP4 SWAP2 DUP2 ADD SUB SLT PUSH3 0x3CF JUMPI MLOAD PUSH1 0x1 PUSH1 0x1 PUSH1 0xA0 SHL SUB SWAP5 DUP6 DUP3 AND SWAP5 SWAP2 DUP6 SWAP1 SUB PUSH3 0x3CF JUMPI PUSH3 0x6A PUSH3 0x3EA JUMP JUMPDEST PUSH1 0x11 DUP2 MSTORE PUSH17 0x21B0B73B30B99021B7B63632B1BA34B7B7 PUSH1 0x79 SHL DUP5 DUP3 ADD MSTORE PUSH3 0x91 PUSH3 0x3EA JUMP JUMPDEST SWAP5 PUSH1 0x4 SWAP6 DUP7 DUP2 MSTORE PUSH4 0x434E5653 PUSH1 0xE0 SHL DUP7 DUP3 ADD MSTORE DUP3 MLOAD DUP5 DUP2 GT PUSH3 0x3BA JUMPI PUSH1 0x2 SLOAD SWAP4 PUSH1 0x1 SWAP5 DUP6 DUP2 DUP2 SHR SWAP2 AND DUP1 ISZERO PUSH3 0x3AF JUMPI JUMPDEST DUP10 DUP3 LT EQ PUSH3 0x39A JUMPI SWAP1 DUP2 DUP6 DUP5 SWAP4 GT PUSH3 0x343 JUMPI JUMPDEST POP DUP9 SWAP1 DUP6 DUP4 GT PUSH1 0x1 EQ PUSH3 0x2DD JUMPI PUSH1 0x0 SWAP3 PUSH3 0x2D1 JUMPI JUMPDEST POP POP PUSH1 0x0 NOT PUSH1 0x3 DUP4 SWAP1 SHL SHR NOT AND SWAP1 DUP5 SHL OR PUSH1 0x2 SSTORE JUMPDEST DUP1 MLOAD SWAP4 DUP5 GT PUSH3 0x2BC JUMPI PUSH1 0x3 SWAP6 DUP7 SLOAD DUP5 DUP2 DUP2 SHR SWAP2 AND DUP1 ISZERO PUSH3 0x2B1 JUMPI JUMPDEST DUP3 DUP3 LT EQ PUSH3 0x29C JUMPI DUP4 DUP2 GT PUSH3 0x251 JUMPI JUMPDEST POP DUP1 SWAP3 DUP6 GT PUSH1 0x1 EQ PUSH3 0x1E9 JUMPI POP DUP4 SWAP5 POP SWAP1 DUP4 SWAP3 SWAP2 PUSH1 0x0 SWAP5 PUSH3 0x1DD JUMPI JUMPDEST POP POP SHL SWAP2 PUSH1 0x0 NOT SWAP1 DUP5 SHL SHR NOT AND OR SWAP1 SSTORE JUMPDEST PUSH1 0x0 DUP1 SSTORE CALLER ISZERO PUSH3 0x1C5 JUMPI POP PUSH1 0x8 DUP1 SLOAD CALLER PUSH1 0x1 PUSH1 0x1 PUSH1 0xA0 SHL SUB NOT DUP1 DUP4 AND DUP3 OR SWAP1 SWAP4 SSTORE PUSH1 0x40 MLOAD SWAP5 SWAP1 SWAP2 AND PUSH32 0x8BE0079C531659141344CD1FD0A4F28419497F9722A3DAAFE3B4186F6B6457E0 PUSH1 0x0 DUP1 LOG3 PUSH1 0x9 SLOAD AND OR PUSH1 0x9 SSTORE PUSH2 0x1839 SWAP1 DUP2 PUSH3 0x40B DUP3 CODECOPY RETURN JUMPDEST PUSH1 0x24 SWAP1 PUSH1 0x0 PUSH1 0x40 MLOAD SWAP2 PUSH4 0x1E4FBDF7 PUSH1 0xE0 SHL DUP4 MSTORE DUP3 ADD MSTORE REVERT JUMPDEST ADD MLOAD SWAP3 POP CODESIZE DUP1 PUSH3 0x151 JUMP JUMPDEST SWAP3 SWAP5 DUP5 SWAP1 DUP2 AND DUP8 PUSH1 0x0 MSTORE DUP5 PUSH1 0x0 KECCAK256 SWAP5 PUSH1 0x0 SWAP1 JUMPDEST DUP9 DUP4 DUP4 LT PUSH3 0x236 JUMPI POP POP POP LT PUSH3 0x21D JUMPI JUMPDEST POP POP POP DUP2 SHL ADD SWAP1 SSTORE PUSH3 0x162 JUMP JUMPDEST ADD MLOAD PUSH1 0x0 NOT DUP4 DUP7 SHL PUSH1 0xF8 AND SHR NOT AND SWAP1 SSTORE CODESIZE DUP1 DUP1 PUSH3 0x20F JUMP JUMPDEST DUP6 DUP8 ADD MLOAD DUP9 SSTORE SWAP1 SWAP7 ADD SWAP6 SWAP5 DUP6 ADD SWAP5 DUP8 SWAP4 POP SWAP1 DUP2 ADD SWAP1 PUSH3 0x1FC JUMP JUMPDEST DUP8 PUSH1 0x0 MSTORE DUP2 PUSH1 0x0 KECCAK256 DUP5 DUP1 DUP9 ADD PUSH1 0x5 SHR DUP3 ADD SWAP3 DUP5 DUP10 LT PUSH3 0x292 JUMPI JUMPDEST ADD PUSH1 0x5 SHR ADD SWAP1 DUP6 SWAP1 JUMPDEST DUP3 DUP2 LT PUSH3 0x285 JUMPI POP POP PUSH3 0x133 JUMP JUMPDEST PUSH1 0x0 DUP2 SSTORE ADD DUP6 SWAP1 PUSH3 0x275 JUMP JUMPDEST SWAP3 POP DUP2 SWAP3 PUSH3 0x26C JUMP JUMPDEST PUSH1 0x22 DUP10 PUSH4 0x4E487B71 PUSH1 0xE0 SHL PUSH1 0x0 MSTORE MSTORE PUSH1 0x24 PUSH1 0x0 REVERT JUMPDEST SWAP1 PUSH1 0x7F AND SWAP1 PUSH3 0x121 JUMP JUMPDEST PUSH1 0x41 DUP8 PUSH4 0x4E487B71 PUSH1 0xE0 SHL PUSH1 0x0 MSTORE MSTORE PUSH1 0x24 PUSH1 0x0 REVERT JUMPDEST ADD MLOAD SWAP1 POP CODESIZE DUP1 PUSH3 0xEF JUMP JUMPDEST SWAP1 DUP9 DUP8 SWAP5 AND SWAP2 PUSH1 0x2 PUSH1 0x0 MSTORE DUP11 PUSH1 0x0 KECCAK256 SWAP3 PUSH1 0x0 JUMPDEST DUP13 DUP3 DUP3 LT PUSH3 0x32C JUMPI POP POP DUP5 GT PUSH3 0x312 JUMPI JUMPDEST POP POP POP DUP2 SHL ADD PUSH1 0x2 SSTORE PUSH3 0x104 JUMP JUMPDEST ADD MLOAD PUSH1 0x0 NOT PUSH1 0xF8 DUP5 PUSH1 0x3 SHL AND SHR NOT AND SWAP1 SSTORE CODESIZE DUP1 DUP1 PUSH3 0x303 JUMP JUMPDEST DUP4 DUP6 ADD MLOAD DUP7 SSTORE DUP11 SWAP8 SWAP1 SWAP6 ADD SWAP5 SWAP4 DUP5 ADD SWAP4 ADD PUSH3 0x2F0 JUMP JUMPDEST SWAP1 SWAP2 POP PUSH1 0x2 PUSH1 0x0 MSTORE DUP9 PUSH1 0x0 KECCAK256 DUP6 DUP1 DUP6 ADD PUSH1 0x5 SHR DUP3 ADD SWAP3 DUP12 DUP7 LT PUSH3 0x390 JUMPI JUMPDEST SWAP2 DUP9 SWAP2 DUP7 SWAP6 SWAP5 SWAP4 ADD PUSH1 0x5 SHR ADD SWAP2 JUMPDEST DUP3 DUP2 LT PUSH3 0x380 JUMPI POP POP PUSH3 0xD8 JUMP JUMPDEST PUSH1 0x0 DUP2 SSTORE DUP6 SWAP5 POP DUP9 SWAP2 ADD PUSH3 0x370 JUMP JUMPDEST SWAP3 POP DUP2 SWAP3 PUSH3 0x362 JUMP JUMPDEST PUSH1 0x22 DUP11 PUSH4 0x4E487B71 PUSH1 0xE0 SHL PUSH1 0x0 MSTORE MSTORE PUSH1 0x24 PUSH1 0x0 REVERT JUMPDEST SWAP1 PUSH1 0x7F AND SWAP1 PUSH3 0xC3 JUMP JUMPDEST PUSH1 0x41 DUP9 PUSH4 0x4E487B71 PUSH1 0xE0 SHL PUSH1 0x0 MSTORE MSTORE PUSH1 0x24 PUSH1 0x0 REVERT JUMPDEST PUSH1 0x0 DUP1 REVERT JUMPDEST PUSH4 0x4E487B71 PUSH1 0xE0 SHL PUSH1 0x0 MSTORE PUSH1 0x41 PUSH1 0x4 MSTORE PUSH1 0x24 PUSH1 0x0 REVERT JUMPDEST PUSH1 0x40 DUP1 MLOAD SWAP2 SWAP1 DUP3 ADD PUSH1 0x1 PUSH1 0x1 PUSH1 0x40 SHL SUB DUP2 GT DUP4 DUP3 LT OR PUSH3 0x3D4 JUMPI PUSH1 0x40 MSTORE JUMP INVALID PUSH1 0x80 PUSH1 0x40 MSTORE PUSH1 0x4 CALLDATASIZE LT ISZERO PUSH2 0x12 JUMPI PUSH1 0x0 DUP1 REVERT JUMPDEST PUSH1 0x0 CALLDATALOAD PUSH1 0xE0 SHR DUP1 PUSH4 0x1FFC9A7 EQ PUSH2 0x177 JUMPI DUP1 PUSH4 0x3D18E07 EQ PUSH2 0x172 JUMPI DUP1 PUSH4 0x6FDDE03 EQ PUSH2 0x16D JUMPI DUP1 PUSH4 0x81812FC EQ PUSH2 0x168 JUMPI DUP1 PUSH4 0x95EA7B3 EQ PUSH2 0x163 JUMPI DUP1 PUSH4 0x18160DDD EQ PUSH2 0x15E JUMPI DUP1 PUSH4 0x23B872DD EQ PUSH2 0x159 JUMPI DUP1 PUSH4 0x3BB3A24D EQ PUSH2 0x154 JUMPI DUP1 PUSH4 0x42842E0E EQ PUSH2 0x14F JUMPI DUP1 PUSH4 0x6352211E EQ PUSH2 0x14A JUMPI DUP1 PUSH4 0x6A627842 EQ PUSH2 0x145 JUMPI DUP1 PUSH4 0x70A08231 EQ PUSH2 0x140 JUMPI DUP1 PUSH4 0x715018A6 EQ PUSH2 0x13B JUMPI DUP1 PUSH4 0x8DA5CB5B EQ PUSH2 0x136 JUMPI DUP1 PUSH4 0x95D89B41 EQ PUSH2 0x131 JUMPI DUP1 PUSH4 0xA22CB465 EQ PUSH2 0x12C JUMPI DUP1 PUSH4 0xA7552576 EQ PUSH2 0x127 JUMPI DUP1 PUSH4 0xACD7CBAB EQ PUSH2 0x122 JUMPI DUP1 PUSH4 0xB88D4FDE EQ PUSH2 0x11D JUMPI DUP1 PUSH4 0xC87B56DD EQ PUSH2 0x118 JUMPI DUP1 PUSH4 0xE985E9C5 EQ PUSH2 0x113 JUMPI PUSH4 0xF2FDE38B EQ PUSH2 0x10E JUMPI PUSH1 0x0 DUP1 REVERT JUMPDEST PUSH2 0xB05 JUMP JUMPDEST PUSH2 0xAA8 JUMP JUMPDEST PUSH2 0x980 JUMP JUMPDEST PUSH2 0x8FD JUMP JUMPDEST PUSH2 0x848 JUMP JUMPDEST PUSH2 0x82C JUMP JUMPDEST PUSH2 0x79E JUMP JUMPDEST PUSH2 0x6FA JUMP JUMPDEST PUSH2 0x6D1 JUMP JUMPDEST PUSH2 0x673 JUMP JUMPDEST PUSH2 0x618 JUMP JUMPDEST PUSH2 0x58E JUMP JUMPDEST PUSH2 0x55F JUMP JUMPDEST PUSH2 0x53C JUMP JUMPDEST PUSH2 0x509 JUMP JUMPDEST PUSH2 0x4F5 JUMP JUMPDEST PUSH2 0x49D JUMP JUMPDEST PUSH2 0x3E6 JUMP JUMPDEST PUSH2 0x366 JUMP JUMPDEST PUSH2 0x286 JUMP JUMPDEST PUSH2 0x201 JUMP JUMPDEST PUSH2 0x193 JUMP JUMPDEST PUSH1 0x1 PUSH1 0x1 PUSH1 0xE0 SHL SUB NOT DUP2 AND SUB PUSH2 0x18E JUMPI JUMP JUMPDEST PUSH1 0x0 DUP1 REVERT JUMPDEST CALLVALUE PUSH2 0x18E JUMPI PUSH1 0x20 CALLDATASIZE PUSH1 0x3 NOT ADD SLT PUSH2 0x18E JUMPI PUSH1 0x20 PUSH1 0x4 CALLDATALOAD PUSH2 0x1B2 DUP2 PUSH2 0x17C JUMP JUMPDEST PUSH4 0xFFFFFFFF PUSH1 0xE0 SHL AND PUSH4 0x1FFC9A7 PUSH1 0xE0 SHL DUP2 EQ SWAP1 DUP2 ISZERO PUSH2 0x1F0 JUMPI JUMPDEST DUP2 ISZERO PUSH2 0x1DF JUMPI JUMPDEST POP PUSH1 0x40 MLOAD SWAP1 ISZERO ISZERO DUP2 MSTORE RETURN JUMPDEST PUSH4 0x5B5E139F PUSH1 0xE0 SHL EQ SWAP1 POP CODESIZE PUSH2 0x1D4 JUMP JUMPDEST PUSH4 0x80AC58CD PUSH1 0xE0 SHL DUP2 EQ SWAP2 POP PUSH2 0x1CD JUMP JUMPDEST CALLVALUE PUSH2 0x18E JUMPI PUSH1 0x0 CALLDATASIZE PUSH1 0x3 NOT ADD SLT PUSH2 0x18E JUMPI PUSH1 0x9 SLOAD PUSH1 0x40 MLOAD PUSH1 0x1 PUSH1 0x1 PUSH1 0xA0 SHL SUB SWAP1 SWAP2 AND DUP2 MSTORE PUSH1 0x20 SWAP1 RETURN JUMPDEST PUSH1 0x0 JUMPDEST DUP4 DUP2 LT PUSH2 0x23D JUMPI POP POP PUSH1 0x0 SWAP2 ADD MSTORE JUMP JUMPDEST DUP2 DUP2 ADD MLOAD DUP4 DUP3 ADD MSTORE PUSH1 0x20 ADD PUSH2 0x22D JUMP JUMPDEST SWAP1 PUSH1 0x20 SWAP2 PUSH2 0x266 DUP2 MLOAD DUP1 SWAP3 DUP2 DUP6 MSTORE DUP6 DUP1 DUP7 ADD SWAP2 ADD PUSH2 0x22A JUMP JUMPDEST PUSH1 0x1F ADD PUSH1 0x1F NOT AND ADD ADD SWAP1 JUMP JUMPDEST SWAP1 PUSH1 0x20 PUSH2 0x283 SWAP3 DUP2 DUP2 MSTORE ADD SWAP1 PUSH2 0x24D JUMP JUMPDEST SWAP1 JUMP JUMPDEST CALLVALUE PUSH2 0x18E JUMPI PUSH1 0x0 DUP1 PUSH1 0x3 NOT CALLDATASIZE ADD SLT PUSH2 0x363 JUMPI PUSH1 0x40 MLOAD DUP2 PUSH1 0x2 SLOAD PUSH2 0x2A8 DUP2 PUSH2 0xBB9 JUMP JUMPDEST DUP1 DUP5 MSTORE SWAP1 PUSH1 0x1 SWAP1 DUP2 DUP2 AND SWAP1 DUP2 ISZERO PUSH2 0x33B JUMPI POP PUSH1 0x1 EQ PUSH2 0x2E2 JUMPI JUMPDEST PUSH2 0x2DE DUP5 PUSH2 0x2D2 DUP2 DUP9 SUB DUP3 PUSH2 0x8C1 JUMP JUMPDEST PUSH1 0x40 MLOAD SWAP2 DUP3 SWAP2 DUP3 PUSH2 0x272 JUMP JUMPDEST SUB SWAP1 RETURN JUMPDEST PUSH1 0x2 DUP4 MSTORE PUSH1 0x20 SWAP5 POP PUSH32 0x405787FA12A823E0F2B7631CC41B3BA8828B3321CA811111FA75CD3AA3BB5ACE JUMPDEST DUP3 DUP5 LT PUSH2 0x328 JUMPI POP POP POP DUP2 PUSH2 0x2DE SWAP4 PUSH2 0x2D2 SWAP3 DUP3 ADD ADD SWAP4 PUSH2 0x2C2 JUMP JUMPDEST DUP1 SLOAD DUP6 DUP6 ADD DUP8 ADD MSTORE SWAP3 DUP6 ADD SWAP3 DUP2 ADD PUSH2 0x30C JUMP JUMPDEST PUSH2 0x2DE SWAP7 POP PUSH2 0x2D2 SWAP5 POP PUSH1 0x20 SWAP3 POP DUP6 SWAP4 SWAP2 POP PUSH1 0xFF NOT AND DUP3 DUP5 ADD MSTORE ISZERO ISZERO PUSH1 0x5 SHL DUP3 ADD ADD SWAP4 PUSH2 0x2C2 JUMP JUMPDEST DUP1 REVERT JUMPDEST CALLVALUE PUSH2 0x18E JUMPI PUSH1 0x20 CALLDATASIZE PUSH1 0x3 NOT ADD SLT PUSH2 0x18E JUMPI PUSH1 0x4 CALLDATALOAD PUSH2 0x383 DUP2 PUSH2 0x13FD JUMP JUMPDEST ISZERO PUSH2 0x3A8 JUMPI PUSH1 0x0 MSTORE PUSH1 0x6 PUSH1 0x20 MSTORE PUSH1 0x20 PUSH1 0x1 DUP1 PUSH1 0xA0 SHL SUB PUSH1 0x40 PUSH1 0x0 KECCAK256 SLOAD AND PUSH1 0x40 MLOAD SWAP1 DUP2 MSTORE RETURN JUMPDEST PUSH1 0x40 MLOAD PUSH4 0x33D1C039 PUSH1 0xE2 SHL DUP2 MSTORE PUSH1 0x4 SWAP1 REVERT JUMPDEST PUSH1 0x4 CALLDATALOAD SWAP1 PUSH1 0x1 PUSH1 0x1 PUSH1 0xA0 SHL SUB DUP3 AND DUP3 SUB PUSH2 0x18E JUMPI JUMP JUMPDEST PUSH1 0x24 CALLDATALOAD SWAP1 PUSH1 0x1 PUSH1 0x1 PUSH1 0xA0 SHL SUB DUP3 AND DUP3 SUB PUSH2 0x18E JUMPI JUMP JUMPDEST PUSH1 0x40 CALLDATASIZE PUSH1 0x3 NOT ADD SLT PUSH2 0x18E JUMPI PUSH2 0x3FA PUSH2 0x3BA JUMP JUMPDEST PUSH1 0x24 CALLDATALOAD PUSH1 0x1 PUSH1 0x1 PUSH1 0xA0 SHL SUB DUP1 PUSH2 0x40F DUP4 PUSH2 0x138E JUMP JUMPDEST AND SWAP1 DUP2 CALLER SUB PUSH2 0x46A JUMPI JUMPDEST PUSH1 0x0 DUP4 DUP2 MSTORE PUSH1 0x6 PUSH1 0x20 MSTORE PUSH1 0x40 DUP2 KECCAK256 DUP1 SLOAD PUSH1 0x1 PUSH1 0x1 PUSH1 0xA0 SHL SUB NOT AND PUSH1 0x1 PUSH1 0x1 PUSH1 0xA0 SHL SUB DUP8 AND OR SWAP1 SSTORE SWAP4 AND SWAP1 PUSH32 0x8C5BE1E5EBEC7D5BD14F71427D1E84F3DD0314C0F7B2291E5B200AC8C7C3B925 DUP5 DUP1 LOG4 DUP1 RETURN JUMPDEST PUSH1 0x0 DUP3 DUP2 MSTORE PUSH1 0x7 PUSH1 0x20 SWAP1 DUP2 MSTORE PUSH1 0x40 DUP1 DUP4 KECCAK256 CALLER DUP5 MSTORE SWAP1 SWAP2 MSTORE SWAP1 KECCAK256 SLOAD PUSH1 0xFF AND PUSH2 0x419 JUMPI PUSH1 0x40 MLOAD PUSH4 0x67D9DCA1 PUSH1 0xE1 SHL DUP2 MSTORE PUSH1 0x4 SWAP1 REVERT JUMPDEST CALLVALUE PUSH2 0x18E JUMPI PUSH1 0x0 CALLDATASIZE PUSH1 0x3 NOT ADD SLT PUSH2 0x18E JUMPI PUSH1 0x20 PUSH1 0x0 SLOAD PUSH1 0x1 SLOAD SWAP1 SUB PUSH1 0x40 MLOAD SWAP1 DUP2 MSTORE RETURN JUMPDEST PUSH1 0x60 SWAP1 PUSH1 0x3 NOT ADD SLT PUSH2 0x18E JUMPI PUSH1 0x1 PUSH1 0x1 PUSH1 0xA0 SHL SUB SWAP1 PUSH1 0x4 CALLDATALOAD DUP3 DUP2 AND DUP2 SUB PUSH2 0x18E JUMPI SWAP2 PUSH1 0x24 CALLDATALOAD SWAP1 DUP2 AND DUP2 SUB PUSH2 0x18E JUMPI SWAP1 PUSH1 0x44 CALLDATALOAD SWAP1 JUMP JUMPDEST PUSH2 0x507 PUSH2 0x501 CALLDATASIZE PUSH2 0x4C0 JUMP JUMPDEST SWAP2 PUSH2 0x1426 JUMP JUMPDEST STOP JUMPDEST CALLVALUE PUSH2 0x18E JUMPI PUSH1 0x20 CALLDATASIZE PUSH1 0x3 NOT ADD SLT PUSH2 0x18E JUMPI PUSH2 0x2DE PUSH2 0x528 PUSH1 0x4 CALLDATALOAD PUSH2 0x10A0 JUMP JUMPDEST PUSH1 0x40 MLOAD SWAP2 DUP3 SWAP2 PUSH1 0x20 DUP4 MSTORE PUSH1 0x20 DUP4 ADD SWAP1 PUSH2 0x24D JUMP JUMPDEST PUSH2 0x507 PUSH2 0x548 CALLDATASIZE PUSH2 0x4C0 JUMP JUMPDEST SWAP1 PUSH1 0x40 MLOAD SWAP3 PUSH2 0x556 DUP5 PUSH2 0x8A1 JUMP JUMPDEST PUSH1 0x0 DUP5 MSTORE PUSH2 0x15F8 JUMP JUMPDEST CALLVALUE PUSH2 0x18E JUMPI PUSH1 0x20 CALLDATASIZE PUSH1 0x3 NOT ADD SLT PUSH2 0x18E JUMPI PUSH1 0x20 PUSH1 0x1 PUSH1 0x1 PUSH1 0xA0 SHL SUB PUSH2 0x585 PUSH1 0x4 CALLDATALOAD PUSH2 0x138E JUMP JUMPDEST AND PUSH1 0x40 MLOAD SWAP1 DUP2 MSTORE RETURN JUMPDEST CALLVALUE PUSH2 0x18E JUMPI PUSH1 0x20 CALLDATASIZE PUSH1 0x3 NOT ADD SLT PUSH2 0x18E JUMPI PUSH2 0x5A7 PUSH2 0x3BA JUMP JUMPDEST PUSH1 0x9 SLOAD PUSH1 0x1 PUSH1 0x1 PUSH1 0xA0 SHL SUB AND CALLER SUB PUSH2 0x5D3 JUMPI PUSH2 0x507 SWAP1 PUSH2 0x5CE PUSH1 0x0 SLOAD PUSH1 0x1 SLOAD SWAP1 SUB SWAP2 PUSH2 0x175B JUMP JUMPDEST PUSH2 0xC47 JUMP JUMPDEST PUSH1 0x40 MLOAD PUSH3 0x461BCD PUSH1 0xE5 SHL DUP2 MSTORE PUSH1 0x20 PUSH1 0x4 DUP3 ADD MSTORE PUSH1 0x1F PUSH1 0x24 DUP3 ADD MSTORE PUSH32 0x4F6E6C7920506978656C6D617020636F6E74726163742063616E206D696E7400 PUSH1 0x44 DUP3 ADD MSTORE PUSH1 0x64 SWAP1 REVERT JUMPDEST CALLVALUE PUSH2 0x18E JUMPI PUSH1 0x20 CALLDATASIZE PUSH1 0x3 NOT ADD SLT PUSH2 0x18E JUMPI PUSH1 0x1 PUSH1 0x1 PUSH1 0xA0 SHL SUB PUSH2 0x639 PUSH2 0x3BA JUMP JUMPDEST AND DUP1 ISZERO PUSH2 0x661 JUMPI PUSH1 0x0 MSTORE PUSH1 0x5 PUSH1 0x20 MSTORE PUSH1 0x20 PUSH1 0x1 PUSH1 0x1 PUSH1 0x40 SHL SUB PUSH1 0x40 PUSH1 0x0 KECCAK256 SLOAD AND PUSH1 0x40 MLOAD SWAP1 DUP2 MSTORE RETURN JUMPDEST PUSH1 0x40 MLOAD PUSH4 0x23D3AD81 PUSH1 0xE2 SHL DUP2 MSTORE PUSH1 0x4 SWAP1 REVERT JUMPDEST CALLVALUE PUSH2 0x18E JUMPI PUSH1 0x0 DUP1 PUSH1 0x3 NOT CALLDATASIZE ADD SLT PUSH2 0x363 JUMPI PUSH2 0x68D PUSH2 0xB8D JUMP JUMPDEST PUSH1 0x8 DUP1 SLOAD PUSH1 0x1 PUSH1 0x1 PUSH1 0xA0 SHL SUB NOT DUP2 AND SWAP1 SWAP2 SSTORE DUP2 SWAP1 PUSH1 0x1 PUSH1 0x1 PUSH1 0xA0 SHL SUB AND PUSH32 0x8BE0079C531659141344CD1FD0A4F28419497F9722A3DAAFE3B4186F6B6457E0 DUP3 DUP1 LOG3 DUP1 RETURN JUMPDEST CALLVALUE PUSH2 0x18E JUMPI PUSH1 0x0 CALLDATASIZE PUSH1 0x3 NOT ADD SLT PUSH2 0x18E JUMPI PUSH1 0x8 SLOAD PUSH1 0x40 MLOAD PUSH1 0x1 PUSH1 0x1 PUSH1 0xA0 SHL SUB SWAP1 SWAP2 AND DUP2 MSTORE PUSH1 0x20 SWAP1 RETURN JUMPDEST CALLVALUE PUSH2 0x18E JUMPI PUSH1 0x0 DUP1 PUSH1 0x3 NOT CALLDATASIZE ADD SLT PUSH2 0x363 JUMPI PUSH1 0x40 MLOAD DUP2 PUSH1 0x3 SLOAD PUSH2 0x71C DUP2 PUSH2 0xBB9 JUMP JUMPDEST DUP1 DUP5 MSTORE SWAP1 PUSH1 0x1 SWAP1 DUP2 DUP2 AND SWAP1 DUP2 ISZERO PUSH2 0x33B JUMPI POP PUSH1 0x1 EQ PUSH2 0x745 JUMPI PUSH2 0x2DE DUP5 PUSH2 0x2D2 DUP2 DUP9 SUB DUP3 PUSH2 0x8C1 JUMP JUMPDEST PUSH1 0x3 DUP4 MSTORE PUSH1 0x20 SWAP5 POP PUSH32 0xC2575A0E9E593C00F959F8C92F12DB2869C3395A3B0502D05E2516446F71F85B JUMPDEST DUP3 DUP5 LT PUSH2 0x78B JUMPI POP POP POP DUP2 PUSH2 0x2DE SWAP4 PUSH2 0x2D2 SWAP3 DUP3 ADD ADD SWAP4 PUSH2 0x2C2 JUMP JUMPDEST DUP1 SLOAD DUP6 DUP6 ADD DUP8 ADD MSTORE SWAP3 DUP6 ADD SWAP3 DUP2 ADD PUSH2 0x76F JUMP JUMPDEST CALLVALUE PUSH2 0x18E JUMPI PUSH1 0x40 CALLDATASIZE PUSH1 0x3 NOT ADD SLT PUSH2 0x18E JUMPI PUSH2 0x7B7 PUSH2 0x3BA JUMP JUMPDEST PUSH1 0x24 CALLDATALOAD SWAP1 DUP2 ISZERO ISZERO DUP1 SWAP3 SUB PUSH2 0x18E JUMPI CALLER PUSH1 0x0 SWAP1 DUP2 MSTORE PUSH1 0x7 PUSH1 0x20 SWAP1 DUP2 MSTORE PUSH1 0x40 DUP1 DUP4 KECCAK256 PUSH1 0x1 PUSH1 0x1 PUSH1 0xA0 SHL SUB DUP6 AND DUP5 MSTORE SWAP1 SWAP2 MSTORE SWAP1 KECCAK256 PUSH1 0xFF NOT DUP2 SLOAD AND PUSH1 0xFF DUP5 AND OR SWAP1 SSTORE PUSH1 0x40 MLOAD SWAP2 DUP3 MSTORE PUSH1 0x1 DUP1 PUSH1 0xA0 SHL SUB AND SWAP1 PUSH32 0x17307EAB39AB6107E8899845AD3D59BD9653F200F220920489CA2B5937696C31 PUSH1 0x20 CALLER SWAP3 LOG3 STOP JUMPDEST CALLVALUE PUSH2 0x18E JUMPI PUSH1 0x0 CALLDATASIZE PUSH1 0x3 NOT ADD SLT PUSH2 0x18E JUMPI PUSH2 0x2DE PUSH2 0x528 PUSH2 0xDAA JUMP JUMPDEST CALLVALUE PUSH2 0x18E JUMPI PUSH1 0x20 CALLDATASIZE PUSH1 0x3 NOT ADD SLT PUSH2 0x18E JUMPI PUSH2 0x861 PUSH2 0x3BA JUMP JUMPDEST PUSH2 0x869 PUSH2 0xB8D JUMP JUMPDEST PUSH1 0x9 DUP1 SLOAD PUSH1 0x1 PUSH1 0x1 PUSH1 0xA0 SHL SUB NOT AND PUSH1 0x1 PUSH1 0x1 PUSH1 0xA0 SHL SUB SWAP3 SWAP1 SWAP3 AND SWAP2 SWAP1 SWAP2 OR SWAP1 SSTORE STOP JUMPDEST PUSH4 0x4E487B71 PUSH1 0xE0 SHL PUSH1 0x0 MSTORE PUSH1 0x41 PUSH1 0x4 MSTORE PUSH1 0x24 PUSH1 0x0 REVERT JUMPDEST PUSH1 0x20 DUP2 ADD SWAP1 DUP2 LT PUSH1 0x1 PUSH1 0x1 PUSH1 0x40 SHL SUB DUP3 GT OR PUSH2 0x8BC JUMPI PUSH1 0x40 MSTORE JUMP JUMPDEST PUSH2 0x88B JUMP JUMPDEST SWAP1 PUSH1 0x1F DUP1 NOT SWAP2 ADD AND DUP2 ADD SWAP1 DUP2 LT PUSH1 0x1 PUSH1 0x1 PUSH1 0x40 SHL SUB DUP3 GT OR PUSH2 0x8BC JUMPI PUSH1 0x40 MSTORE JUMP JUMPDEST PUSH1 0x1 PUSH1 0x1 PUSH1 0x40 SHL SUB DUP2 GT PUSH2 0x8BC JUMPI PUSH1 0x1F ADD PUSH1 0x1F NOT AND PUSH1 0x20 ADD SWAP1 JUMP JUMPDEST PUSH1 0x80 CALLDATASIZE PUSH1 0x3 NOT ADD SLT PUSH2 0x18E JUMPI PUSH2 0x911 PUSH2 0x3BA JUMP JUMPDEST PUSH2 0x919 PUSH2 0x3D0 JUMP JUMPDEST PUSH1 0x64 CALLDATALOAD SWAP2 PUSH1 0x1 PUSH1 0x1 PUSH1 0x40 SHL SUB DUP4 GT PUSH2 0x18E JUMPI CALLDATASIZE PUSH1 0x23 DUP5 ADD SLT ISZERO PUSH2 0x18E JUMPI DUP3 PUSH1 0x4 ADD CALLDATALOAD SWAP2 PUSH2 0x945 DUP4 PUSH2 0x8E2 JUMP JUMPDEST SWAP3 PUSH2 0x953 PUSH1 0x40 MLOAD SWAP5 DUP6 PUSH2 0x8C1 JUMP JUMPDEST DUP1 DUP5 MSTORE CALLDATASIZE PUSH1 0x24 DUP3 DUP8 ADD ADD GT PUSH2 0x18E JUMPI PUSH1 0x20 DUP2 PUSH1 0x0 SWAP3 PUSH1 0x24 PUSH2 0x507 SWAP9 ADD DUP4 DUP9 ADD CALLDATACOPY DUP6 ADD ADD MSTORE PUSH1 0x44 CALLDATALOAD SWAP2 PUSH2 0x15F8 JUMP JUMPDEST CALLVALUE PUSH2 0x18E JUMPI PUSH1 0x20 DUP1 PUSH1 0x3 NOT CALLDATASIZE ADD SLT PUSH2 0x18E JUMPI PUSH1 0x4 CALLDATALOAD SWAP1 PUSH2 0x99F DUP3 PUSH2 0x13FD JUMP JUMPDEST ISZERO PUSH2 0xA4C JUMPI PUSH1 0x0 SWAP2 DUP3 MSTORE PUSH1 0xA DUP2 MSTORE PUSH1 0x40 DUP3 KECCAK256 SWAP1 PUSH1 0x40 MLOAD SWAP2 DUP4 DUP2 SLOAD SWAP1 PUSH2 0x9C3 DUP3 PUSH2 0xBB9 JUMP JUMPDEST DUP1 DUP7 MSTORE SWAP3 PUSH1 0x1 SWAP3 DUP1 DUP5 AND SWAP1 DUP2 ISZERO PUSH2 0xA28 JUMPI POP PUSH1 0x1 EQ PUSH2 0x9ED JUMPI JUMPDEST PUSH2 0x2DE DUP7 PUSH2 0x2D2 DUP2 DUP11 SUB DUP3 PUSH2 0x8C1 JUMP JUMPDEST SWAP1 DUP1 SWAP5 SWAP7 POP MSTORE DUP5 DUP4 KECCAK256 JUMPDEST DUP3 DUP5 LT PUSH2 0xA15 JUMPI POP POP POP DUP2 PUSH2 0x2DE SWAP4 PUSH2 0x2D2 SWAP3 DUP3 ADD ADD SWAP4 CODESIZE DUP1 PUSH2 0x9DD JUMP JUMPDEST DUP1 SLOAD DUP6 DUP6 ADD DUP8 ADD MSTORE SWAP3 DUP6 ADD SWAP3 DUP2 ADD PUSH2 0x9F7 JUMP JUMPDEST PUSH1 0xFF NOT AND DUP8 DUP8 ADD MSTORE POP POP POP POP ISZERO ISZERO PUSH1 0x5 SHL DUP3 ADD ADD SWAP2 POP PUSH2 0x2D2 DUP2 PUSH2 0x2DE CODESIZE DUP1 PUSH2 0x9DD JUMP JUMPDEST PUSH1 0x84 SWAP1 PUSH1 0x40 MLOAD SWAP1 PUSH3 0x461BCD PUSH1 0xE5 SHL DUP3 MSTORE PUSH1 0x4 DUP3 ADD MSTORE PUSH1 0x2F PUSH1 0x24 DUP3 ADD MSTORE PUSH32 0x4552433732314D657461646174613A2055524920717565727920666F72206E6F PUSH1 0x44 DUP3 ADD MSTORE PUSH15 0x3732BC34B9BA32B73A103A37B5B2B7 PUSH1 0x89 SHL PUSH1 0x64 DUP3 ADD MSTORE REVERT JUMPDEST CALLVALUE PUSH2 0x18E JUMPI PUSH1 0x40 CALLDATASIZE PUSH1 0x3 NOT ADD SLT PUSH2 0x18E JUMPI PUSH1 0x20 PUSH1 0xFF PUSH2 0xAF9 PUSH2 0xAC8 PUSH2 0x3BA JUMP JUMPDEST PUSH2 0xAD0 PUSH2 0x3D0 JUMP JUMPDEST PUSH1 0x1 PUSH1 0x1 PUSH1 0xA0 SHL SUB SWAP2 DUP3 AND PUSH1 0x0 SWAP1 DUP2 MSTORE PUSH1 0x7 DUP7 MSTORE PUSH1 0x40 DUP1 DUP3 KECCAK256 SWAP3 SWAP1 SWAP4 AND DUP2 MSTORE PUSH1 0x20 SWAP2 SWAP1 SWAP2 MSTORE KECCAK256 SWAP1 JUMP JUMPDEST SLOAD AND PUSH1 0x40 MLOAD SWAP1 ISZERO ISZERO DUP2 MSTORE RETURN JUMPDEST CALLVALUE PUSH2 0x18E JUMPI PUSH1 0x20 CALLDATASIZE PUSH1 0x3 NOT ADD SLT PUSH2 0x18E JUMPI PUSH2 0xB1E PUSH2 0x3BA JUMP JUMPDEST PUSH2 0xB26 PUSH2 0xB8D JUMP JUMPDEST PUSH1 0x1 PUSH1 0x1 PUSH1 0xA0 SHL SUB SWAP1 DUP2 AND SWAP1 DUP2 ISZERO PUSH2 0xB74 JUMPI PUSH1 0x8 DUP1 SLOAD PUSH1 0x1 PUSH1 0x1 PUSH1 0xA0 SHL SUB NOT DUP2 AND DUP5 OR SWAP1 SWAP2 SSTORE AND PUSH32 0x8BE0079C531659141344CD1FD0A4F28419497F9722A3DAAFE3B4186F6B6457E0 PUSH1 0x0 DUP1 LOG3 STOP JUMPDEST PUSH1 0x40 MLOAD PUSH4 0x1E4FBDF7 PUSH1 0xE0 SHL DUP2 MSTORE PUSH1 0x0 PUSH1 0x4 DUP3 ADD MSTORE PUSH1 0x24 SWAP1 REVERT JUMPDEST PUSH1 0x8 SLOAD PUSH1 0x1 PUSH1 0x1 PUSH1 0xA0 SHL SUB AND CALLER SUB PUSH2 0xBA1 JUMPI JUMP JUMPDEST PUSH1 0x40 MLOAD PUSH4 0x118CDAA7 PUSH1 0xE0 SHL DUP2 MSTORE CALLER PUSH1 0x4 DUP3 ADD MSTORE PUSH1 0x24 SWAP1 REVERT JUMPDEST SWAP1 PUSH1 0x1 DUP3 DUP2 SHR SWAP3 AND DUP1 ISZERO PUSH2 0xBE9 JUMPI JUMPDEST PUSH1 0x20 DUP4 LT EQ PUSH2 0xBD3 JUMPI JUMP JUMPDEST PUSH4 0x4E487B71 PUSH1 0xE0 SHL PUSH1 0x0 MSTORE PUSH1 0x22 PUSH1 0x4 MSTORE PUSH1 0x24 PUSH1 0x0 REVERT JUMPDEST SWAP2 PUSH1 0x7F AND SWAP2 PUSH2 0xBC8 JUMP JUMPDEST SWAP1 PUSH1 0x1F DUP2 GT PUSH2 0xC01 JUMPI POP POP POP JUMP JUMPDEST PUSH1 0x0 SWAP2 DUP3 MSTORE PUSH1 0x20 DUP3 KECCAK256 SWAP1 PUSH1 0x20 PUSH1 0x1F DUP6 ADD PUSH1 0x5 SHR DUP4 ADD SWAP5 LT PUSH2 0xC3D JUMPI JUMPDEST PUSH1 0x1F ADD PUSH1 0x5 SHR ADD SWAP2 JUMPDEST DUP3 DUP2 LT PUSH2 0xC32 JUMPI POP POP POP JUMP JUMPDEST DUP2 DUP2 SSTORE PUSH1 0x1 ADD PUSH2 0xC26 JUMP JUMPDEST SWAP1 SWAP3 POP DUP3 SWAP1 PUSH2 0xC1D JUMP JUMPDEST SWAP1 PUSH2 0xC51 DUP3 PUSH2 0x13FD JUMP JUMPDEST ISZERO PUSH2 0xD39 JUMPI PUSH2 0xC5F DUP3 PUSH2 0x10A0 JUMP JUMPDEST SWAP2 PUSH1 0x0 MSTORE PUSH1 0x20 PUSH1 0xA DUP2 MSTORE PUSH1 0x40 PUSH1 0x0 KECCAK256 SWAP1 DUP4 MLOAD SWAP1 PUSH1 0x1 PUSH1 0x1 PUSH1 0x40 SHL SUB DUP3 GT PUSH2 0x8BC JUMPI PUSH2 0xC94 DUP3 PUSH2 0xC8E DUP6 SLOAD PUSH2 0xBB9 JUMP JUMPDEST DUP6 PUSH2 0xBF3 JUMP JUMPDEST DUP1 PUSH1 0x1F DUP4 GT PUSH1 0x1 EQ PUSH2 0xCCE JUMPI POP DUP2 SWAP3 SWAP4 SWAP5 PUSH1 0x0 SWAP3 PUSH2 0xCC3 JUMPI JUMPDEST POP POP DUP2 PUSH1 0x1 SHL SWAP2 PUSH1 0x0 NOT SWAP1 PUSH1 0x3 SHL SHR NOT AND OR SWAP1 SSTORE JUMP JUMPDEST ADD MLOAD SWAP1 POP CODESIZE DUP1 PUSH2 0xCAD JUMP JUMPDEST SWAP1 PUSH1 0x1F NOT DUP4 AND SWAP6 PUSH2 0xCE4 DUP6 PUSH1 0x0 MSTORE PUSH1 0x20 PUSH1 0x0 KECCAK256 SWAP1 JUMP JUMPDEST SWAP3 PUSH1 0x0 SWAP1 JUMPDEST DUP9 DUP3 LT PUSH2 0xD21 JUMPI POP POP DUP4 PUSH1 0x1 SWAP6 SWAP7 SWAP8 LT PUSH2 0xD08 JUMPI JUMPDEST POP POP POP DUP2 SHL ADD SWAP1 SSTORE JUMP JUMPDEST ADD MLOAD PUSH1 0x0 NOT PUSH1 0xF8 DUP5 PUSH1 0x3 SHL AND SHR NOT AND SWAP1 SSTORE CODESIZE DUP1 DUP1 PUSH2 0xCFE JUMP JUMPDEST DUP1 PUSH1 0x1 DUP6 SWAP7 DUP3 SWAP5 SWAP7 DUP7 ADD MLOAD DUP2 SSTORE ADD SWAP6 ADD SWAP4 ADD SWAP1 PUSH2 0xCE9 JUMP JUMPDEST PUSH1 0x40 MLOAD PUSH3 0x461BCD PUSH1 0xE5 SHL DUP2 MSTORE PUSH1 0x20 PUSH1 0x4 DUP3 ADD MSTORE PUSH1 0x2C PUSH1 0x24 DUP3 ADD MSTORE PUSH32 0x4552433732314D657461646174613A2055524920736574206F66206E6F6E6578 PUSH1 0x44 DUP3 ADD MSTORE PUSH12 0x34B9BA32B73A103A37B5B2B7 PUSH1 0xA1 SHL PUSH1 0x64 DUP3 ADD MSTORE PUSH1 0x84 SWAP1 REVERT JUMPDEST SWAP1 PUSH2 0xDA6 PUSH1 0x20 SWAP3 DUP3 DUP2 MLOAD SWAP5 DUP6 SWAP3 ADD PUSH2 0x22A JUMP JUMPDEST ADD SWAP1 JUMP JUMPDEST PUSH1 0x9 SLOAD PUSH1 0x40 MLOAD PUSH4 0x56B88F4F PUSH1 0xE1 SHL DUP2 MSTORE PUSH1 0x0 SWAP2 DUP3 SWAP1 DUP3 SWAP1 PUSH1 0x4 SWAP1 DUP3 SWAP1 PUSH1 0x1 PUSH1 0x1 PUSH1 0xA0 SHL SUB AND GAS STATICCALL SWAP2 DUP3 ISZERO PUSH2 0xEC4 JUMPI DUP1 SWAP3 PUSH2 0xE35 JUMPI JUMPDEST POP POP PUSH2 0x283 PUSH2 0xDF0 PUSH2 0xE27 SWAP3 PUSH2 0xFC5 JUMP JUMPDEST PUSH1 0x40 MLOAD PUSH32 0x646174613A696D6167652F7376672B786D6C3B6261736536342C000000000000 PUSH1 0x20 DUP3 ADD MSTORE SWAP3 DUP4 SWAP2 PUSH1 0x3A DUP4 ADD JUMPDEST SWAP1 PUSH2 0xD93 JUMP JUMPDEST SUB PUSH1 0x1F NOT DUP2 ADD DUP4 MSTORE DUP3 PUSH2 0x8C1 JUMP JUMPDEST SWAP1 SWAP2 POP RETURNDATASIZE DUP1 DUP3 DUP5 RETURNDATACOPY PUSH2 0xE47 DUP2 DUP5 PUSH2 0x8C1 JUMP JUMPDEST DUP3 ADD SWAP2 PUSH1 0x20 DUP2 DUP5 SUB SLT PUSH2 0xEBC JUMPI DUP1 MLOAD SWAP1 PUSH1 0x1 PUSH1 0x1 PUSH1 0x40 SHL SUB DUP3 GT PUSH2 0xEC0 JUMPI ADD DUP3 PUSH1 0x1F DUP3 ADD SLT ISZERO PUSH2 0xEBC JUMPI DUP1 MLOAD SWAP2 PUSH2 0xE7D DUP4 PUSH2 0x8E2 JUMP JUMPDEST SWAP4 PUSH2 0xE8B PUSH1 0x40 MLOAD SWAP6 DUP7 PUSH2 0x8C1 JUMP JUMPDEST DUP4 DUP6 MSTORE PUSH1 0x20 DUP5 DUP5 ADD ADD GT PUSH2 0x363 JUMPI POP DUP3 PUSH2 0xEB5 PUSH2 0x283 SWAP4 PUSH2 0xDF0 SWAP4 PUSH1 0x20 DUP1 PUSH2 0xE27 SWAP9 ADD SWAP2 ADD PUSH2 0x22A JUMP JUMPDEST SWAP3 POP PUSH2 0xDDF JUMP JUMPDEST POP DUP1 REVERT JUMPDEST DUP3 DUP1 REVERT JUMPDEST PUSH1 0x40 MLOAD SWAP1 RETURNDATASIZE SWAP1 DUP3 RETURNDATACOPY RETURNDATASIZE SWAP1 REVERT JUMPDEST PUSH1 0x40 MLOAD SWAP1 PUSH2 0xEDD DUP3 PUSH2 0x8A1 JUMP JUMPDEST PUSH1 0x0 DUP3 MSTORE JUMP JUMPDEST PUSH1 0x40 MLOAD SWAP1 PUSH1 0x60 DUP3 ADD DUP3 DUP2 LT PUSH1 0x1 PUSH1 0x1 PUSH1 0x40 SHL SUB DUP3 GT OR PUSH2 0x8BC JUMPI PUSH1 0x40 MSTORE PUSH1 0x40 DUP3 MSTORE PUSH32 0x6768696A6B6C6D6E6F707172737475767778797A303132333435363738392B2F PUSH1 0x40 DUP4 PUSH32 0x4142434445464748494A4B4C4D4E4F505152535455565758595A616263646566 PUSH1 0x20 DUP3 ADD MSTORE ADD MSTORE JUMP JUMPDEST PUSH4 0x4E487B71 PUSH1 0xE0 SHL PUSH1 0x0 MSTORE PUSH1 0x11 PUSH1 0x4 MSTORE PUSH1 0x24 PUSH1 0x0 REVERT JUMPDEST SWAP1 PUSH1 0x2 DUP3 ADD DUP1 SWAP3 GT PUSH2 0xF76 JUMPI JUMP JUMPDEST PUSH2 0xF52 JUMP JUMPDEST PUSH1 0x2 DUP2 SWAP1 SHL SWAP2 SWAP1 PUSH1 0x1 PUSH1 0x1 PUSH1 0xFE SHL SUB DUP2 AND SUB PUSH2 0xF76 JUMPI JUMP JUMPDEST SWAP1 PUSH2 0xF9D DUP3 PUSH2 0x8E2 JUMP JUMPDEST PUSH2 0xFAA PUSH1 0x40 MLOAD SWAP2 DUP3 PUSH2 0x8C1 JUMP JUMPDEST DUP3 DUP2 MSTORE DUP1 SWAP3 PUSH2 0xFBB PUSH1 0x1F NOT SWAP2 PUSH2 0x8E2 JUMP JUMPDEST ADD SWAP1 PUSH1 0x20 CALLDATASIZE SWAP2 ADD CALLDATACOPY JUMP JUMPDEST DUP1 MLOAD ISZERO PUSH2 0x1097 JUMPI PUSH2 0xFD4 PUSH2 0xEE3 JUMP JUMPDEST PUSH2 0xFF8 PUSH2 0xFF3 PUSH2 0xFEE PUSH2 0xFE7 DUP6 MLOAD PUSH2 0xF68 JUMP JUMPDEST PUSH1 0x3 SWAP1 DIV SWAP1 JUMP JUMPDEST PUSH2 0xF7B JUMP JUMPDEST PUSH2 0xF93 JUMP JUMPDEST SWAP2 PUSH1 0x20 DUP4 ADD SWAP2 DUP2 DUP3 MLOAD DUP4 ADD SWAP2 JUMPDEST DUP3 DUP3 LT PUSH2 0x1045 JUMPI POP POP POP PUSH1 0x3 SWAP1 MLOAD MOD DUP1 PUSH1 0x1 EQ PUSH2 0x1032 JUMPI PUSH1 0x2 EQ PUSH2 0x1027 JUMPI POP SWAP1 JUMP JUMPDEST PUSH1 0x3D SWAP1 PUSH1 0x0 NOT ADD MSTORE8 SWAP1 JUMP JUMPDEST POP PUSH1 0x3D SWAP1 DUP2 PUSH1 0x0 NOT DUP3 ADD MSTORE8 PUSH1 0x1 NOT ADD MSTORE8 SWAP1 JUMP JUMPDEST SWAP1 SWAP2 SWAP4 PUSH1 0x4 SWAP1 PUSH1 0x3 DUP1 SWAP5 ADD SWAP4 DUP5 MLOAD PUSH1 0x1 SWAP1 PUSH1 0x3F SWAP1 DUP3 DUP3 DUP3 PUSH1 0x12 SHR AND DUP9 ADD ADD MLOAD DUP6 MSTORE8 DUP3 DUP3 DUP3 PUSH1 0xC SHR AND DUP9 ADD ADD MLOAD DUP4 DUP7 ADD MSTORE8 DUP3 DUP3 DUP3 PUSH1 0x6 SHR AND DUP9 ADD ADD MLOAD PUSH1 0x2 DUP7 ADD MSTORE8 AND DUP6 ADD ADD MLOAD SWAP1 DUP3 ADD MSTORE8 ADD SWAP4 SWAP2 SWAP1 PUSH2 0x1005 JUMP JUMPDEST POP PUSH2 0x283 PUSH2 0xED0 JUMP JUMPDEST PUSH1 0x0 SWAP1 DUP1 PUSH19 0x184F03E93FF9F4DAA797ED6E38ED64BF6A1F01 PUSH1 0x40 SHL DUP2 DUP2 DUP2 LT ISZERO PUSH2 0x1380 JUMPI JUMPDEST POP POP PUSH14 0x4EE2D6D415B85ACEF8100000000 DUP1 DUP4 LT ISZERO PUSH2 0x1371 JUMPI JUMPDEST POP PUSH7 0x2386F26FC10000 DUP1 DUP4 LT ISZERO PUSH2 0x1362 JUMPI JUMPDEST POP PUSH4 0x5F5E100 DUP1 DUP4 LT ISZERO PUSH2 0x1353 JUMPI JUMPDEST POP PUSH2 0x2710 DUP1 DUP4 LT ISZERO PUSH2 0x1344 JUMPI JUMPDEST POP PUSH1 0x64 DUP3 LT ISZERO PUSH2 0x1334 JUMPI JUMPDEST PUSH1 0xA DUP1 SWAP3 LT ISZERO PUSH2 0x132A JUMPI JUMPDEST PUSH1 0x1 SWAP1 DUP2 PUSH1 0x21 PUSH2 0x1134 DUP3 DUP8 ADD PUSH2 0xF93 JUMP JUMPDEST SWAP6 DUP7 ADD ADD SWAP1 JUMPDEST PUSH2 0x12F4 JUMPI JUMPDEST POP POP POP POP PUSH2 0x283 PUSH2 0x11AC PUSH2 0x12B3 PUSH2 0x12E8 SWAP4 PUSH2 0x129A PUSH2 0x128D PUSH2 0x1280 PUSH2 0x1161 PUSH2 0xDAA JUMP JUMPDEST PUSH2 0xE21 PUSH2 0x126A PUSH2 0x11F5 PUSH2 0x11BA PUSH1 0x40 MLOAD SWAP11 DUP12 SWAP10 PUSH2 0xE21 PUSH2 0x118B PUSH1 0x20 DUP14 ADD PUSH1 0x1 SWAP1 PUSH1 0x7B PUSH1 0xF8 SHL DUP2 MSTORE ADD SWAP1 JUMP JUMPDEST PUSH21 0x226E616D65223A2022506978656C2043616E766173 PUSH1 0x58 SHL DUP2 MSTORE PUSH1 0x15 ADD SWAP1 JUMP JUMPDEST PUSH2 0x88B PUSH1 0xF2 SHL DUP2 MSTORE PUSH1 0x2 ADD SWAP1 JUMP JUMPDEST PUSH32 0x2265787465726E616C5F75726C223A2268747470733A2F2F7777772E676F6F67 DUP2 MSTORE PUSH9 0x1B194B9E1E5E8BC88B PUSH1 0xBA SHL PUSH1 0x20 DUP3 ADD MSTORE PUSH1 0x29 ADD SWAP1 JUMP JUMPDEST PUSH32 0x226465736372697074696F6E223A202243726561746564206279206120636F6D DUP2 MSTORE PUSH32 0x756E697479206F6620617274697374732C206275696C646572732C2076697369 PUSH1 0x20 DUP3 ADD MSTORE PUSH32 0x6F6E61726965732C20696E766573746F727320616E6420646567656E732E222C PUSH1 0x40 DUP3 ADD MSTORE PUSH1 0x60 ADD SWAP1 JUMP JUMPDEST PUSH10 0x1134B6B0B3B2911D1011 PUSH1 0xB1 SHL DUP2 MSTORE PUSH1 0xA ADD SWAP1 JUMP JUMPDEST PUSH1 0x11 PUSH1 0xF9 SHL DUP2 MSTORE PUSH1 0x1 ADD SWAP1 JUMP JUMPDEST PUSH1 0x7D PUSH1 0xF8 SHL DUP2 MSTORE PUSH1 0x1 ADD SWAP1 JUMP JUMPDEST SUB SWAP2 PUSH2 0x12AE PUSH1 0x1F NOT SWAP4 DUP5 DUP2 ADD DUP4 MSTORE DUP3 PUSH2 0x8C1 JUMP JUMPDEST PUSH2 0xFC5 JUMP JUMPDEST PUSH1 0x40 MLOAD PUSH32 0x646174613A6170706C69636174696F6E2F6A736F6E3B6261736536342C000000 PUSH1 0x20 DUP3 ADD MSTORE SWAP4 DUP5 SWAP2 PUSH1 0x3D DUP4 ADD PUSH2 0xE21 JUMP JUMPDEST SUB SWAP1 DUP2 ADD DUP4 MSTORE DUP3 PUSH2 0x8C1 JUMP JUMPDEST PUSH1 0x0 NOT ADD SWAP1 DUP4 SWAP1 PUSH16 0x181899199A1A9B1B9C1CB0B131B232B3 PUSH1 0x81 SHL DUP3 DUP3 MOD BYTE DUP4 MSTORE8 DIV SWAP2 DUP3 ISZERO PUSH2 0x1325 JUMPI SWAP2 SWAP1 DUP3 PUSH2 0x113A JUMP JUMPDEST PUSH2 0x113F JUMP JUMPDEST SWAP2 PUSH1 0x1 ADD SWAP2 PUSH2 0x1123 JUMP JUMPDEST SWAP2 SWAP1 PUSH1 0x64 PUSH1 0x2 SWAP2 DIV SWAP2 ADD SWAP2 PUSH2 0x1118 JUMP JUMPDEST PUSH1 0x4 SWAP2 SWAP4 SWAP3 DIV SWAP2 ADD SWAP2 CODESIZE PUSH2 0x110D JUMP JUMPDEST PUSH1 0x8 SWAP2 SWAP4 SWAP3 DIV SWAP2 ADD SWAP2 CODESIZE PUSH2 0x1100 JUMP JUMPDEST PUSH1 0x10 SWAP2 SWAP4 SWAP3 DIV SWAP2 ADD SWAP2 CODESIZE PUSH2 0x10F1 JUMP JUMPDEST PUSH1 0x20 SWAP2 SWAP4 SWAP3 DIV SWAP2 ADD SWAP2 CODESIZE PUSH2 0x10DF JUMP JUMPDEST PUSH1 0x40 SWAP5 POP DIV SWAP2 POP CODESIZE DUP1 PUSH2 0x10C5 JUMP JUMPDEST DUP1 PUSH1 0x0 SWAP1 DUP2 SLOAD DUP2 LT PUSH2 0x13AD JUMPI JUMPDEST PUSH1 0x40 MLOAD PUSH4 0x6F96CDA1 PUSH1 0xE1 SHL DUP2 MSTORE PUSH1 0x4 SWAP1 REVERT JUMPDEST DUP2 MSTORE PUSH1 0x4 SWAP1 PUSH1 0x20 SWAP2 DUP1 DUP4 MSTORE PUSH1 0x40 SWAP3 DUP4 DUP4 KECCAK256 SLOAD SWAP5 PUSH1 0x1 PUSH1 0xE0 SHL DUP7 AND ISZERO PUSH2 0x13D4 JUMPI POP POP POP PUSH2 0x139B JUMP JUMPDEST SWAP4 SWAP3 SWAP2 SWAP1 SWAP4 JUMPDEST DUP6 ISZERO PUSH2 0x13E8 JUMPI POP POP POP POP POP SWAP1 JUMP JUMPDEST PUSH1 0x0 NOT ADD DUP1 DUP4 MSTORE DUP2 DUP6 MSTORE DUP4 DUP4 KECCAK256 SLOAD SWAP6 POP PUSH2 0x13DA JUMP JUMPDEST PUSH1 0x0 SLOAD DUP2 LT SWAP1 DUP2 PUSH2 0x140C JUMPI POP SWAP1 JUMP JUMPDEST SWAP1 POP PUSH1 0x0 MSTORE PUSH1 0x4 PUSH1 0x20 MSTORE PUSH1 0x1 PUSH1 0xE0 SHL PUSH1 0x40 PUSH1 0x0 KECCAK256 SLOAD AND ISZERO SWAP1 JUMP JUMPDEST SWAP1 PUSH2 0x1430 DUP4 PUSH2 0x138E JUMP JUMPDEST PUSH1 0x1 PUSH1 0x1 PUSH1 0xA0 SHL SUB DUP4 DUP2 AND SWAP3 DUP3 DUP3 AND DUP5 SWAP1 SUB PUSH2 0x15E7 JUMPI PUSH1 0x0 DUP7 DUP2 MSTORE PUSH1 0x6 PUSH1 0x20 MSTORE PUSH1 0x40 SWAP1 KECCAK256 DUP1 SLOAD SWAP1 SWAP3 PUSH2 0x1475 PUSH1 0x1 PUSH1 0x1 PUSH1 0xA0 SHL SUB DUP9 AND CALLER SWAP1 DUP2 EQ SWAP1 DUP5 EQ OR ISZERO SWAP1 JUMP JUMPDEST ISZERO SWAP1 JUMP JUMPDEST PUSH2 0x158C JUMPI JUMPDEST DUP3 AND SWAP6 DUP7 ISZERO PUSH2 0x157A JUMPI PUSH2 0x14CD SWAP4 PUSH2 0x14AB SWAP3 PUSH2 0x1570 JUMPI JUMPDEST POP PUSH1 0x1 PUSH1 0x1 PUSH1 0xA0 SHL SUB AND PUSH1 0x0 SWAP1 DUP2 MSTORE PUSH1 0x5 PUSH1 0x20 MSTORE PUSH1 0x40 SWAP1 KECCAK256 SWAP1 JUMP JUMPDEST DUP1 SLOAD PUSH1 0x0 NOT ADD SWAP1 SSTORE PUSH1 0x1 PUSH1 0x1 PUSH1 0xA0 SHL SUB AND PUSH1 0x0 SWAP1 DUP2 MSTORE PUSH1 0x5 PUSH1 0x20 MSTORE PUSH1 0x40 SWAP1 KECCAK256 SWAP1 JUMP JUMPDEST DUP1 SLOAD PUSH1 0x1 ADD SWAP1 SSTORE PUSH1 0x1 PUSH1 0xE1 SHL DUP1 TIMESTAMP PUSH1 0xA0 SHL DUP6 OR OR PUSH2 0x14F5 DUP7 PUSH1 0x0 MSTORE PUSH1 0x4 PUSH1 0x20 MSTORE PUSH1 0x40 PUSH1 0x0 KECCAK256 SWAP1 JUMP JUMPDEST SSTORE DUP2 AND ISZERO PUSH2 0x1526 JUMPI JUMPDEST POP PUSH32 0xDDF252AD1BE2C89B69C2B068FC378DAA952BA7F163C4A11628F55A4DF523B3EF PUSH1 0x0 DUP1 LOG4 JUMP JUMPDEST PUSH1 0x1 DUP5 ADD PUSH2 0x153E DUP2 PUSH1 0x0 MSTORE PUSH1 0x4 PUSH1 0x20 MSTORE PUSH1 0x40 PUSH1 0x0 KECCAK256 SWAP1 JUMP JUMPDEST SLOAD ISZERO PUSH2 0x154B JUMPI JUMPDEST POP PUSH2 0x14FE JUMP JUMPDEST PUSH1 0x0 SLOAD DUP2 EQ PUSH2 0x1545 JUMPI PUSH2 0x1568 SWAP1 PUSH1 0x0 MSTORE PUSH1 0x4 PUSH1 0x20 MSTORE PUSH1 0x40 PUSH1 0x0 KECCAK256 SWAP1 JUMP JUMPDEST SSTORE CODESIZE DUP1 PUSH2 0x1545 JUMP JUMPDEST PUSH1 0x0 SWAP1 SSTORE CODESIZE PUSH2 0x1490 JUMP JUMPDEST PUSH1 0x40 MLOAD PUSH4 0x3A954ECD PUSH1 0xE2 SHL DUP2 MSTORE PUSH1 0x4 SWAP1 REVERT JUMPDEST PUSH2 0x15D0 PUSH2 0x1471 PUSH2 0x15C9 CALLER PUSH2 0x15B2 DUP12 PUSH1 0x1 DUP1 PUSH1 0xA0 SHL SUB AND PUSH1 0x0 MSTORE PUSH1 0x7 PUSH1 0x20 MSTORE PUSH1 0x40 PUSH1 0x0 KECCAK256 SWAP1 JUMP JUMPDEST SWAP1 PUSH1 0x1 DUP1 PUSH1 0xA0 SHL SUB AND PUSH1 0x0 MSTORE PUSH1 0x20 MSTORE PUSH1 0x40 PUSH1 0x0 KECCAK256 SWAP1 JUMP JUMPDEST SLOAD PUSH1 0xFF AND SWAP1 JUMP JUMPDEST ISZERO PUSH2 0x147A JUMPI PUSH1 0x40 MLOAD PUSH4 0x2CE44B5F PUSH1 0xE1 SHL DUP2 MSTORE PUSH1 0x4 SWAP1 REVERT JUMPDEST PUSH1 0x40 MLOAD PUSH3 0xA11481 PUSH1 0xE8 SHL DUP2 MSTORE PUSH1 0x4 SWAP1 REVERT JUMPDEST SWAP3 SWAP2 SWAP1 PUSH2 0x1606 DUP3 DUP3 DUP7 PUSH2 0x1426 JUMP JUMPDEST DUP1 EXTCODESIZE PUSH2 0x1613 JUMPI JUMPDEST POP POP POP POP JUMP JUMPDEST PUSH2 0x161C SWAP4 PUSH2 0x16B2 JUMP JUMPDEST ISZERO PUSH2 0x162A JUMPI CODESIZE DUP1 DUP1 DUP1 PUSH2 0x160D JUMP JUMPDEST PUSH1 0x40 MLOAD PUSH4 0x68D2BF6B PUSH1 0xE1 SHL DUP2 MSTORE PUSH1 0x4 SWAP1 REVERT JUMPDEST SWAP1 DUP2 PUSH1 0x20 SWAP2 SUB SLT PUSH2 0x18E JUMPI MLOAD PUSH2 0x283 DUP2 PUSH2 0x17C JUMP JUMPDEST PUSH1 0x1 PUSH1 0x1 PUSH1 0xA0 SHL SUB SWAP2 DUP3 AND DUP2 MSTORE SWAP2 AND PUSH1 0x20 DUP3 ADD MSTORE PUSH1 0x40 DUP2 ADD SWAP2 SWAP1 SWAP2 MSTORE PUSH1 0x80 PUSH1 0x60 DUP3 ADD DUP2 SWAP1 MSTORE PUSH2 0x283 SWAP3 SWAP2 ADD SWAP1 PUSH2 0x24D JUMP JUMPDEST RETURNDATASIZE ISZERO PUSH2 0x16AD JUMPI RETURNDATASIZE SWAP1 PUSH2 0x1693 DUP3 PUSH2 0x8E2 JUMP JUMPDEST SWAP2 PUSH2 0x16A1 PUSH1 0x40 MLOAD SWAP4 DUP5 PUSH2 0x8C1 JUMP JUMPDEST DUP3 MSTORE RETURNDATASIZE PUSH1 0x0 PUSH1 0x20 DUP5 ADD RETURNDATACOPY JUMP JUMPDEST PUSH1 0x60 SWAP1 JUMP JUMPDEST SWAP3 PUSH1 0x20 SWAP2 PUSH2 0x16DB SWAP4 PUSH1 0x0 PUSH1 0x40 MLOAD DUP1 SWAP7 DUP2 SWAP6 DUP3 SWAP5 PUSH4 0xA85BD01 PUSH1 0xE1 SHL SWAP11 DUP12 DUP6 MSTORE CALLER PUSH1 0x4 DUP7 ADD PUSH2 0x1651 JUMP JUMPDEST SUB SWAP3 PUSH1 0x1 PUSH1 0x1 PUSH1 0xA0 SHL SUB AND GAS CALL PUSH1 0x0 SWAP2 DUP2 PUSH2 0x172B JUMPI JUMPDEST POP PUSH2 0x171D JUMPI PUSH2 0x16FE PUSH2 0x1682 JUMP JUMPDEST DUP1 MLOAD SWAP1 DUP2 PUSH2 0x1718 JUMPI PUSH1 0x40 MLOAD PUSH4 0x68D2BF6B PUSH1 0xE1 SHL DUP2 MSTORE PUSH1 0x4 SWAP1 REVERT JUMPDEST PUSH1 0x20 ADD REVERT JUMPDEST PUSH1 0x1 PUSH1 0x1 PUSH1 0xE0 SHL SUB NOT AND EQ SWAP1 JUMP JUMPDEST PUSH2 0x174D SWAP2 SWAP3 POP PUSH1 0x20 RETURNDATASIZE DUP2 GT PUSH2 0x1754 JUMPI JUMPDEST PUSH2 0x1745 DUP2 DUP4 PUSH2 0x8C1 JUMP JUMPDEST DUP2 ADD SWAP1 PUSH2 0x163C JUMP JUMPDEST SWAP1 CODESIZE PUSH2 0x16F1 JUMP JUMPDEST POP RETURNDATASIZE PUSH2 0x173B JUMP JUMPDEST PUSH1 0x0 DUP1 SLOAD PUSH1 0x1 PUSH1 0x1 PUSH1 0xA0 SHL SUB SWAP3 SWAP1 SWAP3 AND DUP1 DUP3 MSTORE PUSH1 0x5 PUSH1 0x20 SWAP1 DUP2 MSTORE PUSH1 0x40 DUP1 DUP5 KECCAK256 DUP1 SLOAD PUSH9 0x10000000000000001 ADD SWAP1 SSTORE DUP5 DUP5 MSTORE PUSH1 0x4 SWAP1 SWAP2 MSTORE DUP3 KECCAK256 PUSH1 0x1 PUSH1 0xE1 SHL TIMESTAMP PUSH1 0xA0 SHL DUP4 OR OR SWAP1 SSTORE PUSH1 0x1 DUP1 DUP5 ADD SWAP4 PUSH32 0xDDF252AD1BE2C89B69C2B068FC378DAA952BA7F163C4A11628F55A4DF523B3EF SWAP1 DUP4 DUP6 DUP4 DUP2 DUP1 LOG4 DUP5 JUMPDEST DUP6 DUP2 SUB PUSH2 0x17F4 JUMPI POP POP POP ISZERO PUSH2 0x17E3 JUMPI SSTORE JUMP JUMPDEST PUSH1 0x40 MLOAD PUSH3 0x2E0763 PUSH1 0xE8 SHL DUP2 MSTORE PUSH1 0x4 SWAP1 REVERT JUMPDEST DUP1 DUP4 SWAP2 DUP6 DUP8 DUP6 DUP2 DUP1 LOG4 ADD PUSH2 0x17D1 JUMP INVALID LOG2 PUSH5 0x6970667358 0x22 SLT KECCAK256 0xE6 0xD9 STATICCALL PUSH0 DUP3 0xCA DUP10 0xCB 0x25 0xCE 0xFC PUSH16 0x523EEAAE853AF58CB3C306DB23A0CDF 0xBB GAS GASPRICE NUMBER PUSH5 0x736F6C6343 STOP ADDMOD EQ STOP CALLER "},"methodIdentifiers":{"approve(address,uint256)":"095ea7b3","balanceOf(address)":"70a08231","generateImage()":"a7552576","getApproved(uint256)":"081812fc","getTokenURI(uint256)":"3bb3a24d","isApprovedForAll(address,address)":"e985e9c5","mint(address)":"6a627842","name()":"06fdde03","owner()":"8da5cb5b","ownerOf(uint256)":"6352211e","pixelmapContract()":"03d18e07","renounceOwnership()":"715018a6","safeTransferFrom(address,address,uint256)":"42842e0e","safeTransferFrom(address,address,uint256,bytes)":"b88d4fde","setApprovalForAll(address,bool)":"a22cb465","setPixelmapContract(address)":"acd7cbab","supportsInterface(bytes4)":"01ffc9a7","symbol()":"95d89b41","tokenURI(uint256)":"c87b56dd","totalSupply()":"18160ddd","transferFrom(address,address,uint256)":"23b872dd","transferOwnership(address)":"f2fde38b"}}}}}