{"contracts/Pixelmap.sol":{"Pixelmap":{"abi":[{"inputs":[],"stateMutability":"nonpayable","type":"constructor"},{"anonymous":false,"inputs":[{"indexed":true,"internalType":"uint256","name":"x","type":"uint256"},{"indexed":true,"internalType":"uint256","name":"y","type":"uint256"}],"name":"PixelBought","type":"event"},{"anonymous":false,"inputs":[{"indexed":true,"internalType":"uint256","name":"x","type":"uint256"},{"indexed":true,"internalType":"uint256","name":"y","type":"uint256"}],"name":"PixelFilled","type":"event"},{"anonymous":false,"inputs":[{"indexed":true,"internalType":"uint256","name":"x","type":"uint256"},{"indexed":true,"internalType":"uint256","name":"y","type":"uint256"}],"name":"PixelValueSet","type":"event"},{"anonymous":false,"inputs":[{"indexed":true,"internalType":"uint256","name":"x","type":"uint256"},{"indexed":true,"internalType":"uint256","name":"y","type":"uint256"}],"name":"RoyaltiesPaid","type":"event"},{"anonymous":false,"inputs":[{"indexed":true,"internalType":"address","name":"owner","type":"address"}],"name":"VoteCasted","type":"event"},{"inputs":[],"name":"ARTISTIC_PERIOD","outputs":[{"internalType":"uint256","name":"","type":"uint256"}],"stateMutability":"view","type":"function"},{"inputs":[],"name":"CYCLE_PERIOD","outputs":[{"internalType":"uint256","name":"","type":"uint256"}],"stateMutability":"view","type":"function"},{"inputs":[],"name":"VOTING_PERIOD","outputs":[{"internalType":"uint256","name":"","type":"uint256"}],"stateMutability":"view","type":"function"},{"inputs":[{"internalType":"address","name":"","type":"address"}],"name":"balanceOf","outputs":[{"internalType":"uint256","name":"","type":"uint256"}],"stateMutability":"view","type":"function"},{"inputs":[{"internalType":"uint256[]","name":"xValues","type":"uint256[]"},{"internalType":"uint256[]","name":"yValues","type":"uint256[]"}],"name":"buyPixel","outputs":[],"stateMutability":"nonpayable","type":"function"},{"inputs":[{"internalType":"uint256","name":"x","type":"uint256"},{"internalType":"uint256","name":"y","type":"uint256"}],"name":"calculateRoyalties","outputs":[{"internalType":"uint256","name":"","type":"uint256"}],"stateMutability":"view","type":"function"},{"inputs":[],"name":"canvasCreation","outputs":[{"internalType":"uint256","name":"","type":"uint256"}],"stateMutability":"view","type":"function"},{"inputs":[{"internalType":"bool","name":"vote","type":"bool"}],"name":"castVote","outputs":[],"stateMutability":"nonpayable","type":"function"},{"inputs":[{"internalType":"uint256[]","name":"xValues","type":"uint256[]"},{"internalType":"uint256[]","name":"yValues","type":"uint256[]"}],"name":"checkMultiplePixel","outputs":[{"components":[{"internalType":"address","name":"owner","type":"address"},{"internalType":"uint256","name":"shapeID","type":"uint256"},{"internalType":"uint256","name":"price","type":"uint256"},{"internalType":"string","name":"color","type":"string"},{"internalType":"uint256","name":"royaltyLastPaid","type":"uint256"},{"internalType":"bool","name":"askedToPayRoyalties","type":"bool"},{"internalType":"uint256","name":"royaltyAskDate","type":"uint256"}],"internalType":"struct Pixelmap.Pixel[]","name":"","type":"tuple[]"}],"stateMutability":"view","type":"function"},{"inputs":[{"internalType":"uint256","name":"x","type":"uint256"},{"internalType":"uint256","name":"y","type":"uint256"}],"name":"checkPixel","outputs":[{"components":[{"internalType":"address","name":"owner","type":"address"},{"internalType":"uint256","name":"shapeID","type":"uint256"},{"internalType":"uint256","name":"price","type":"uint256"},{"internalType":"string","name":"color","type":"string"},{"internalType":"uint256","name":"royaltyLastPaid","type":"uint256"},{"internalType":"bool","name":"askedToPayRoyalties","type":"bool"},{"internalType":"uint256","name":"royaltyAskDate","type":"uint256"}],"internalType":"struct Pixelmap.Pixel","name":"","type":"tuple"}],"stateMutability":"view","type":"function"},{"inputs":[],"name":"checkVoteOutcome","outputs":[{"internalType":"bool","name":"","type":"bool"}],"stateMutability":"nonpayable","type":"function"},{"inputs":[{"internalType":"bytes[]","name":"_pixels","type":"bytes[]"}],"name":"fillPixel","outputs":[],"stateMutability":"nonpayable","type":"function"},{"inputs":[],"name":"generateSVG","outputs":[{"internalType":"string","name":"","type":"string"}],"stateMutability":"view","type":"function"},{"inputs":[{"internalType":"address","name":"_owner","type":"address"}],"name":"getBalance","outputs":[{"internalType":"uint256","name":"","type":"uint256"}],"stateMutability":"view","type":"function"},{"inputs":[],"name":"getCurrentCycle","outputs":[{"internalType":"uint256","name":"","type":"uint256"}],"stateMutability":"view","type":"function"},{"inputs":[{"internalType":"address","name":"_owner","type":"address"}],"name":"hasVoted","outputs":[{"internalType":"bool","name":"","type":"bool"}],"stateMutability":"view","type":"function"},{"inputs":[],"name":"isInArtisticPeriod","outputs":[{"internalType":"bool","name":"","type":"bool"}],"stateMutability":"view","type":"function"},{"inputs":[],"name":"isInVotingPeriod","outputs":[{"internalType":"bool","name":"","type":"bool"}],"stateMutability":"view","type":"function"},{"inputs":[],"name":"manager","outputs":[{"internalType":"address","name":"","type":"address"}],"stateMutability":"view","type":"function"},{"inputs":[],"name":"maxHeight","outputs":[{"internalType":"uint256","name":"","type":"uint256"}],"stateMutability":"view","type":"function"},{"inputs":[],"name":"maxWidth","outputs":[{"internalType":"uint256","name":"","type":"uint256"}],"stateMutability":"view","type":"function"},{"inputs":[],"name":"nftContract","outputs":[{"internalType":"contract NFTContract","name":"","type":"address"}],"stateMutability":"view","type":"function"},{"inputs":[{"internalType":"uint256[]","name":"xValues","type":"uint256[]"},{"internalType":"uint256[]","name":"yValues","type":"uint256[]"}],"name":"payRoyalties","outputs":[],"stateMutability":"nonpayable","type":"function"},{"inputs":[{"internalType":"uint256","name":"","type":"uint256"}],"name":"pixelSVGs","outputs":[{"internalType":"string","name":"","type":"string"}],"stateMutability":"view","type":"function"},{"inputs":[{"internalType":"uint256","name":"","type":"uint256"}],"name":"rowSVGs","outputs":[{"internalType":"string","name":"","type":"string"}],"stateMutability":"view","type":"function"},{"inputs":[],"name":"royaltyAskPeriod","outputs":[{"internalType":"uint256","name":"","type":"uint256"}],"stateMutability":"view","type":"function"},{"inputs":[],"name":"royaltyDenominator","outputs":[{"internalType":"uint256","name":"","type":"uint256"}],"stateMutability":"view","type":"function"},{"inputs":[],"name":"royaltyRate","outputs":[{"internalType":"uint256","name":"","type":"uint256"}],"stateMutability":"view","type":"function"},{"inputs":[{"internalType":"uint256","name":"x","type":"uint256"},{"internalType":"uint256","name":"y","type":"uint256"},{"internalType":"uint256","name":"_price","type":"uint256"}],"name":"seekRoyaltyPayment","outputs":[],"stateMutability":"nonpayable","type":"function"},{"inputs":[{"internalType":"address","name":"_nftContract","type":"address"}],"name":"setNFTContract","outputs":[],"stateMutability":"nonpayable","type":"function"},{"inputs":[{"internalType":"uint256[]","name":"xValues","type":"uint256[]"},{"internalType":"uint256[]","name":"yValues","type":"uint256[]"},{"internalType":"uint256[]","name":"priceValues","type":"uint256[]"}],"name":"setPixelValue","outputs":[],"stateMutability":"nonpayable","type":"function"},{"inputs":[{"internalType":"address","name":"_newToken","type":"address"}],"name":"updateCurrency","outputs":[],"stateMutability":"nonpayable","type":"function"},{"inputs":[{"internalType":"uint256","name":"","type":"uint256"}],"name":"voteRegister","outputs":[{"internalType":"uint256","name":"yesVotes","type":"uint256"},{"internalType":"uint256","name":"noVotes","type":"uint256"}],"stateMutability":"view","type":"function"},{"inputs":[{"internalType":"uint256","name":"","type":"uint256"},{"internalType":"uint256","name":"","type":"uint256"}],"name":"window","outputs":[{"internalType":"address","name":"owner","type":"address"},{"internalType":"uint256","name":"shapeID","type":"uint256"},{"internalType":"uint256","name":"price","type":"uint256"},{"internalType":"string","name":"color","type":"string"},{"internalType":"uint256","name":"royaltyLastPaid","type":"uint256"},{"internalType":"bool","name":"askedToPayRoyalties","type":"bool"},{"internalType":"uint256","name":"royaltyAskDate","type":"uint256"}],"stateMutability":"view","type":"function"}],"evm":{"bytecode":{"linkReferences":{},"object":"6080806040523461004f57603260025560018060a01b031973c02aaa39b223fe8d0a0e5c4f27ead9083c756cc2816004541617600455339060015416176001554260035561317490816100558239f35b600080fdfe6080604052600436101561001257600080fd5b6000803560e01c8063040cdfd814611be957806309eef43e14611b8a578063113bc99914611b6c57806330b5d6d314611b375780633323a706146115135780633bdb693e146115c5578063481c6a751461159c5780634882a7ea1461156b5780635e0276011461151d5780636006ecc81461151857806363aa5ce2146115185780636e70fcc6146115135780636ed958f114610d9357806370a082311461030e5780637ace48e714610ba15780638232b5621461092457806385a9473d14610806578063a7ccabdf146107bd578063ad711e9e14610667578063b1610d7e14610649578063b3a1ddf414610617578063be26ed7f146105eb578063c4d1510d146105cd578063c4e4b90c1461059e578063c730e65d14610508578063c7eab2ec146103fb578063d08629c1146103d9578063d56d229d146103b2578063e12459001461036b578063e50eb5da14610350578063f8b2cb4f1461030e578063fd8d7ed3146102f1578063fe91f6eb146101b35763ff188dca1461019357600080fd5b346101b057806003193601126101b0576020600354604051908152f35b80fd5b50346101b057806003193601126101b0576003546205460090816101d782426120e3565b04835261020a6110479182602052836101f5604087205492426120e3565b04855282602052600160408620015490611cd7565b9182156102bc57835460015485916001600160a01b039182169116803b156102b8576024839260405194859384926335313c2160e11b845260048401525af180156102ad5761027b575b5092604091602094610268600354426120e3565b048252845220546040519160011c108152f35b6001600160401b038193929311610299576040908152909190610254565b634e487b7160e01b85526041600452602485fd5b6040513d87823e3d90fd5b8280fd5b60405162461bcd60e51b815260206004820152600d60248201526c139bc81d9bdd195cc818d85cdd609a1b6044820152606490fd5b50346101b057806003193601126101b05760206040516103e88152f35b50346101b05760203660031901126101b0576004356001600160a01b0381169081900361034c57816040916020935261104683522054604051908152f35b5080fd5b50346101b05761036861036236611e31565b9061218a565b80f35b50346101b05760203660031901126101b0576004359060408210156101b0576103ae61039a8361100601611eb1565b604051918291602083526020830190611c56565b0390f35b50346101b057806003193601126101b057546040516001600160a01b039091168152602090f35b50346101b05760206103f36103ed36611c18565b90612811565b604051908152f35b50346101b05761040a36611e31565b61041782518251146120f0565b81519061042382611d85565b926104316040519485611d64565b828452601f1961044084611d85565b01855b8181106104f1575050845b8381106104b35760408051602080825287518183018190528993600582901b8401810192808b01929185015b8287106104875785850386f35b9091929382806104a3600193603f198a82030186528851611c7b565b960192019601959291909261047a565b806104d56104c360019385611f66565b516104ce8387611f66565b519061273a565b6104df8288611f66565b526104ea8187611f66565b500161044e565b6020906104fc612702565b82828901015201610443565b50346101b05760409061051a36611c18565b90825260056020528282209082526020522060018060a01b03815416600182015491600281015461054d60038301611eb1565b91610588600482015493600660ff6005850154169301549360405197889788526020880152604087015260e0606087015260e0860190611c56565b926080850152151560a084015260c08301520390f35b50346101b05760203660031901126101b057600435906110008210156101b0576103ae61039a83600601611eb1565b50346101b057806003193601126101b0576020600254604051908152f35b50346101b057806003193601126101b05760206205460061060e600354426120e3565b04604051908152f35b50346101b057806003193601126101b05760206203f4806205460061063e600354426120e3565b061015604051908152f35b50346101b057806003193601126101b0576020604051620151808152f35b50346101b057806003193601126101b057604051608081018181106001600160401b038211176107a957604052605781526020907f3c7376672077696474683d2236303022206865696768743d2236303022207669828201527f6577426f783d2230203020363030203630302220786d6c6e733d22687474703a6040820152761797bbbbbb973b999737b933979918181817b9bb33911f60491b6060820152915b6040811061075f575061074b60266040518461072d8296518092878086019101611c33565b8101651e17b9bb339f60d11b85820152036006810185520183611d64565b6103ae604051928284938452830190611c56565b918161079e6107a49261079060405193826107838694518092848088019101611c33565b8301018761100601612fcb565b03601f198101835282611d64565b92611f57565b610708565b634e487b7160e01b83526041600452602483fd5b50346101b05760203660031901126101b0576004356001600160a01b03818116918290036102b8576107f4906001541633146126a1565b81546001600160a01b03191617815580f35b50346101b05760603660031901126101b0576004356024359061083460018060a01b036001541633146126a1565b808352600560209181835260408520848652835260ff8260408720015416806108e4575b156108ac57808552818352604085208486528352604435600260408720015580855281835260408520848652835281604086200160ff19815416905584528152604083209183525280600660408220015580f35b808552818352604085208486528352816040862001600160ff1982541617905584528152604083209183525242600660408320015580f35b5080855281835260408520848652835260066040862001546203f4808101809111610910574211610858565b634e487b7160e01b86526011600452602486fd5b50346101b05760603660031901126101b0576001600160401b036004358181116102b857610956903690600401611dd3565b6024908135838111610b9d57610970903690600401611dd3565b916044938435908111610b995761098b903690600401611dd3565b908251845181149081610b8e575b5015610b3b57825194865b868110610a42575050506109b8838361218a565b845b8481106109c5578580f35b806109d260019284611f66565b516109dd8286611f66565b51885260206005815260408920906109f58489611f66565b518a52526002604089200155610a0b8185611f66565b51610a168287611f66565b51907f1c362b7fc7c4865e1e7ede89f240549bbd8b5ee43b51383c9c0392687d6d10ec8980a3016109ba565b610a4c8186611f66565b516040610a598389611f66565b51911090811591610b2f575b50610af157610a748186611f66565b51885260206005815260408920610a8b8389611f66565b518a5281526040892054336001600160a01b0390911603610aaf57506001016109a4565b6064907f6f6e6c79206f776e65722063616e2073657420706978656c2076616c7565000084601e876040519462461bcd60e51b86526004860152840152820152fd5b60405162461bcd60e51b815260206004820152601881850152774120706978656c206973206f7574206f6620626f756e647360401b81840152606490fd5b60409150101538610a65565b6084907f696e70757420617272617973206d757374206265206f66207468652073616d658660276040519362461bcd60e51b85526020600486015284015282015266040d8cadccee8d60cb1b6064820152fd5b905082511438610999565b8580fd5b8480fd5b50346101b05760208060031936011261034c5760043580151581036102b85760035462054600906203f48082610bd783426120e3565b0610610d525733855261104684526040852054908115610cfd5782610bfc82426120e3565b0486526110479384865260026040882001338852865260ff604088205416610cc85783919015610c9f5750610c33600354426120e3565b048552828452610c4860408620918254611cd7565b90555b610c57600354426120e3565b048352815260026040832001903383525260408120600160ff19825416179055337f7ce969a18bb6b0fba42c6d9746e7d08eeca4c661809659c91d276456e3153ac08280a280f35b610ca990426120e3565b048552828452610cc160016040872001918254611cd7565b9055610c4b565b60405162461bcd60e51b815260048101879052600d60248201526c185b1c9958591e481d9bdd1959609a1b6044820152606490fd5b60405162461bcd60e51b815260048101869052602760248201527f6e6f20706978656c73206f776e6564203d206e6f20766f74657320746f2062656044820152660818d85cdd195960ca1b6064820152608490fd5b60405162461bcd60e51b81526004810185905260196024820152782b37ba34b7339031bab93932b73a363c903737ba1037b832b760391b6044820152606490fd5b50346101b057610da236611e31565b610daf82518251146120f0565b815190835b828110610dbf578480f35b610dc98185611f66565b516040610dd68385611f66565b51911090811591611507575b506114ea57610df18185611f66565b518552600560209080825260408720610e0a8486611f66565b518852825260408720546001600160a01b03908116610ece57509061104691610e338488611f66565b518852815260408720610e468486611f66565b5188528152604087203360018060a01b0319825416179055338752526040852080549060018201809211610eba57556001905b610e838186611f66565b51610e8e8285611f66565b51907fee0e9a85d097f632450e6ac08750207c8f039246ee437b10eaf708b397d00ad88880a301610db4565b634e487b7160e01b87526011600452602487fd5b610eed610edb8589611f66565b51610ee68688611f66565b5190612811565b90610ef88589611f66565b51895282845260408920610f0c8688611f66565b518a52845281600260408b2001541160001461128e57610f2c8589611f66565b51895282845260408920610f408688611f66565b518a52845288610f578360026040842001546120e3565b9282600454166040516370a0823160e01b81523360048201528781602481855afa801561124f578c8a92869261125a575b50610fbd92610f9691611f66565b51855287895260408520610faa8b8d611f66565b51865289526002604086200154106125f1565b604051636eb1769f60e11b8152336004820152306024820152908782604481845afa801561124f578c8a918c8b958892611210575b509161103384926110389461100b611078989785611f66565b518b528d895261101f8560408d2092611f66565b518b528852600260408b2001541115612649565b611f66565b5185528783526040852061104c8b8d611f66565b518652835285604086205416966040519586809481936323b872dd60e01b9b8c84523360048501612168565b03925af1908115611205576110b39287926111e8575b5083600454166001958d86885416916040519687958694859384523360048501612168565b03925af180156111dd576111b0575b506110cd8589611f66565b518952828452604089206110e18688611f66565b518a528452604089205416885261104680845260408920805490600019820191821161119c575533895283526040882080549182018092116111885755600192919061112d8388611f66565b518852808252604088206111418487611f66565b51895282526040882033858060a01b03198254161790556111628388611f66565b518852815260408720906111768386611f66565b51885252426004604088200155610e79565b634e487b7160e01b89526011600452602489fd5b634e487b7160e01b8b52601160045260248bfd5b6111cf90853d87116111d6575b6111c78183611d64565b810190612150565b50386110c2565b503d6111bd565b6040513d8c823e3d90fd5b6111fe90833d85116111d6576111c78183611d64565b503861108e565b6040513d8d823e3d90fd5b9495935050505081813d8311611248575b61122b8183611d64565b81010312611244575187919089908d908c611033610ff2565b8380fd5b503d611221565b6040513d86823e3d90fd5b925050508781813d8311611287575b6112738183611d64565b81010312611244575188908c610fbd610f88565b503d611269565b8098979695949392915060045416604051986370a0823160e01b8a523360048b015260249984818c81865afa80156111dd578a906114bb575b6112fd91506112d6878b611f66565b518b5284865260408b206112ea888a611f66565b518c528652600260408c200154106125f1565b604051636eb1769f60e11b8152336004820152306024820152918483604481845afa9283156111dd57898b93928792859661147e575b5061136f6113be9495966113478b85611f66565b5188528885526040882061135b8c8e611f66565b518952855260026040892001541115612649565b600260406001976113848c898b541696611f66565b5181528986528181206113978d8f611f66565b5182528652200154918d6040518096819582946323b872dd60e01b84523360048501612168565b03925af180156111dd57611461575b506113d88589611f66565b518952828452604089206113ec8688611f66565b518a528452604089205416885261104680845260408920805490600019820191821161144e5755338952835260408820805491820180921161143b5760019596979899505561112d8388611f66565b634e487b7160e01b895260116004528989fd5b634e487b7160e01b8b5260116004528b8bfd5b61147790853d87116111d6576111c78183611d64565b50386113cd565b93955093505081813d83116114b4575b6114988183611d64565b810103126114b0575191899185908a9061136f611333565b8980fd5b503d61148e565b508481813d83116114e3575b6114d18183611d64565b810103126114b0576112fd90516112c7565b503d6114c7565b60405162461bcd60e51b81528061150360048201611f90565b0390fd5b60409150101538610de2565b611cfa565b611db7565b50346101b05760203660031901126101b0576004356001600160a01b03818116918290036102b857611554906001541633146126a1565b600480546001600160a01b03191691909117905580f35b50346101b057806003193601126101b05760206203f48062054600611592600354426120e3565b0610604051908152f35b50346101b057806003193601126101b0576001546040516001600160a01b039091168152602090f35b50346101b05760203660031901126101b0576004356001600160401b03811161034c573660238201121561034c5780600401359061160282611d85565b916116106040519384611d64565b8083526024602084019160051b83010191368311610b9d5760248101915b838310611acc5785856203f4806205460061164b600354426120e3565b061015611a7c578051906040519061082082018281106001600160401b038211176102995760405260408252610800366020840137835b838110611764578483815b60408110611699578280f35b6116a38183611f66565b516116b1575b60010161168d565b6040516116bd81611d49565b838152600682811b6001600160fa1b038416840361091057806040019081604011610eba5791905b80831061170757505050906117006001928261100601611fc1565b90506116a9565b9091926110008410156117505760206117436117499261079060405193826117388694518092848088019101611c33565b830101888801612fcb565b93611f57565b91906116e5565b634e487b7160e01b87526032600452602487fd5b61176e8183611f66565b518051810181602082019160809182910312611a7857602083015191604084015193606081015192810151906001600160401b038211611a74570181603f820112156114b05760208101516117c281611d9c565b926117d06040519485611d64565b81845260408284010111611a74576117ef916040602085019101611c33565b60408310801590611a69575b6114ea57600a821015611a2b57828952600560205260408920848a5260205260ff600560408b200154166119ce57828952600560209081526040808b20868c529091528920546001600160a01b03163314611863575b5050505061185e90611f57565b611682565b61188590838a52600560205260408a20858b52602052600360408b2001611fc1565b8188526005602052604088208389526020526001604089200155808261197a575b8188526005602052604088208389526020526001604089200154600980840284810482148515171561119c5781860291868304148615171561119c579061190e9291611908600360408e89815260056020528181208b82526020522001611eb1565b9261286e565b906110008110156119665761185e9493929161192c91600601611fc1565b60016119388388611f66565b527fa9a418da632d42c446a125f10b007831ba0e348168b6b2474a2383ac5df4c2808880a390868080611851565b634e487b7160e01b89526032600452602489fd5b5061198582826120d0565b6040828103116119ba57826000198101116119ba576119b5906119af6000198501846040036120d0565b90611cd7565b6118a6565b634e487b7160e01b88526011600452602488fd5b60405162461bcd60e51b815260206004820152602f60248201527f6f776e6572207761732061736b656420746f20666972737420736574746c652060448201526e1c9bde585b1d1e481c185e5b595b9d608a1b6064820152608490fd5b60405162461bcd60e51b81526020600482015260166024820152757368617065204944206e6f7420617661696c61626c6560501b6044820152606490fd5b5060408410156117fb565b8a80fd5b8780fd5b60405162461bcd60e51b815260206004820152602260248201527f417274697374696320706572696f642063757272656e746c79206e6f74206f7060448201526132b760f11b6064820152608490fd5b82356001600160401b038111611b3357820136604382011215611b3357602481013591611af883611d9c565b611b056040519182611d64565b8381528860443681878701011161034c5785602096879692879301838601378301015281520192019161162e565b8680fd5b50346101b05760203660031901126101b057604080916004358152611047602052206001815491015482519182526020820152f35b50346101b057806003193601126101b0576020604051620546008152f35b50346101b05760203660031901126101b0576004356001600160a01b0381169081900361034c57604060209260ff9262054600611bc9600354426120e3565b048252611047855260028383200190825284522054166040519015158152f35b50346101b0576103ae611c04611bfe36611c18565b9061273a565b604051918291602083526020830190611c7b565b6040906003190112611c2e576004359060243590565b600080fd5b60005b838110611c465750506000910152565b8181015183820152602001611c36565b90602091611c6f81518092818552858086019101611c33565b601f01601f1916010190565b9060018060a01b038251168152602082015160208201526040820151604082015260c080611cb8606085015160e0606086015260e0850190611c56565b936080810151608085015260a0810151151560a0850152015191015290565b91908201809211611ce457565b634e487b7160e01b600052601160045260246000fd5b34611c2e576000366003190112611c2e5760206040516203f4808152f35b60e081019081106001600160401b03821117611d3357604052565b634e487b7160e01b600052604160045260246000fd5b602081019081106001600160401b03821117611d3357604052565b90601f801991011681019081106001600160401b03821117611d3357604052565b6001600160401b038111611d335760051b60200190565b6001600160401b038111611d3357601f01601f191660200190565b34611c2e576000366003190112611c2e57602060405160408152f35b81601f82011215611c2e57803591611dea83611d85565b92611df86040519485611d64565b808452602092838086019260051b820101928311611c2e578301905b828210611e22575050505090565b81358152908301908301611e14565b906040600319830112611c2e576001600160401b03600435818111611c2e5783611e5d91600401611dd3565b92602435918211611c2e57611e7491600401611dd3565b90565b90600182811c92168015611ea7575b6020831014611e9157565b634e487b7160e01b600052602260045260246000fd5b91607f1691611e86565b9060405191826000825492611ec584611e77565b908184526001948581169081600014611f345750600114611ef1575b5050611eef92500383611d64565b565b9093915060005260209081600020936000915b818310611f1c575050611eef93508201013880611ee1565b85548884018501529485019487945091830191611f04565b915050611eef94506020925060ff191682840152151560051b8201013880611ee1565b6000198114611ce45760010190565b8051821015611f7a5760209160051b010190565b634e487b7160e01b600052603260045260246000fd5b606090602081526016602082015275706978656c206973206f7574206f6620626f756e647360501b60408201520190565b91909182516001600160401b038111611d3357611fde8254611e77565b601f8111612088575b50602080601f8311600114612024575081929394600092612019575b50508160011b916000199060031b1c1916179055565b015190503880612003565b90601f198316958460005282600020926000905b88821061207057505083600195969710612057575b505050811b019055565b015160001960f88460031b161c1916905538808061204d565b80600185968294968601518155019501930190612038565b600083815260208120601f840160051c810192602085106120c6575b601f0160051c01915b8281106120bb575050611fe7565b8181556001016120ad565b90925082906120a4565b81810292918115918404141715611ce457565b91908203918211611ce457565b156120f757565b60405162461bcd60e51b815260206004820152602b60248201527f7820616e64207920696e7075742061727261797320617265206f66207661726960448201526a6f7573206c656e6774687360a81b6064820152608490fd5b90816020910312611c2e57518015158103611c2e5790565b6001600160a01b03918216815291166020820152604081019190915260600190565b91909161219a81518451146120f0565b80516000935b8185106121ae575050509050565b6121b88584611f66565b51946121c48183611f66565b51604080809810918215926125e6575b50506125ce576121e48185611f66565b516000526005602090808252876000206121fe8486611f66565b51600052825260018060a01b0397338982600020541603612580576122238488611f66565b51600052818352806000206122388587611f66565b5160005283526004428183600020015403612269575b50505050612260919293949550611f57565b939291906121a0565b612281612276868a611f66565b51610ee68789611f66565b99808254169083516370a0823160e01b8152338482015260249087818381875afa9081156124f457908e91600091612550575b50106124ff578451636eb1769f60e11b8152338582019081523060208201528890829081906040010381875afa9081156124f457908e916000916124c4575b50106124735750859161232391600154169c600086519e8f94859384926323b872dd60e01b8452338a8501612168565b03925af1998a1561246857612260969798999a61244b575b50612346858a611f66565b516000528284528160002061235b8689611f66565b51600052845242908260002001556123738489611f66565b51600052818352806000206123888588611f66565b51600052835260ff82826000200154166123e9575b5050506123aa8186611f66565b516123b58285611f66565b51907fe61af2269c9afbdb69efce2b15f2a464f8ee6237f105b3d4024f2e824a9f0af3600080a3859493929138808061224e565b6000926006926123f9868b611f66565b51855280825282852061240c878a611f66565b51865282528285208101805460ff19169055612428868b611f66565b51855281528184209061243b8689611f66565b518552528220015538808061239d565b61246190853d87116111d6576111c78183611d64565b503861233b565b82513d6000823e3d90fd5b8360276084928988519362461bcd60e51b85528401528201527f696e73756666696369656e7420616c6c6f77616e636520746f2070617920726f60448201526679616c7469657360c81b6064820152fd5b91508882813d83116124ed575b6124db8183611d64565b810103126101b057508d9051386122f3565b503d6124d1565b86513d6000823e3d90fd5b8360276084928988519362461bcd60e51b85528401528201527f6e6f742073756666696369656e742062616c616e636520746f2070617920726f60448201526679616c7469657360c81b6064820152fd5b91508882813d8311612579575b6125678183611d64565b810103126101b057508d9051386122b4565b503d61255d565b5162461bcd60e51b815260048101839052602260248201527f6f6e6c7920706978656c206f776e65722063616e2070617920726f79616c7469604482015261657360f01b6064820152608490fd5b855162461bcd60e51b81528061150360048201611f90565b1015905086386121d4565b156125f857565b60405162461bcd60e51b815260206004820152602360248201527f6e6f742073756666696369656e742062616c616e636520746f206275792070696044820152621e195b60ea1b6064820152608490fd5b1561265057565b60405162461bcd60e51b815260206004820152602360248201527f696e73756666696369656e7420616c6c6f77616e636520746f206275792070696044820152621e195b60ea1b6064820152608490fd5b156126a857565b60405162461bcd60e51b815260206004820152602c60248201527f6f776e65722063757272656e74206d616e616765722063616e2063616c6c207460448201526b3434b990333ab731ba34b7b760a11b6064820152608490fd5b6040519061270f82611d18565b8160c06000918281528260208201528260408201526060808201528260808201528260a08201520152565b90612743612702565b5060409182811080612808575b156127ce576000526005602052816000209060005260205260068160002082519261277a84611d18565b81546001600160a01b03168452600182015460208501526002820154908401526127a660038201611eb1565b60608401526004810154608084015260ff600582015416151560a0840152015460c082015290565b825162461bcd60e51b8152602060048201526013602482015272706978656c206f7574206f6620626f756e647360681b6044820152606490fd5b50828210612750565b61286161286a916002604064073df1600095600090848252600560205282822081835260205261284760048484200154426120e3565b9482526005602052828220908252602052200154906120d0565b600254906120d0565b0490565b919290928215612f0f5760018314612e405760028314612e165760038314612dba57600492838114612d665760058114612c095760068114612bb75760078114612b505760088114612a6d576009146128d857505050506040516128d181611d49565b6000815290565b6128e18461304e565b906128eb8161304e565b60088601808711612a58576128ff9061304e565b9460088301809311612a43575091612a2782611e74969461293461292e6129286049999761304e565b9a61304e565b9261304e565b91604051998a97602a6129648a602099693c7061746820643d224d60b01b8b8301528a8151948593019101611c33565b890193600160fd1b9485602a820152612986825180938b602b85019101611c33565b016b010209c101c101810181018960a51b602b8201526129af825180938a603785019101611c33565b018360378201526129c98251809389603885019101611c33565b0161081360f21b60388201526129e88251809388603a85019101611c33565b0190603a820152612a028251809386603b85019101611c33565b019169102d11103334b6361e9160b11b603b8401528351938491604585019101611c33565b01631110179f60e11b6045820152036029810184520182611d64565b601190634e487b7160e01b6000525260246000fd5b601186634e487b7160e01b6000525260246000fd5b50926008810193848211612b3b57612a848561304e565b91612a97612a918361304e565b9161304e565b9460088301809311612a43575091612a2782611e749694612ac061292e6129286049999761304e565b91604051998a97602a612af08a602099693c7061746820643d224d60b01b8b8301528a8151948593019101611c33565b890193600160fd1b9485602a820152612b12825180938b602b85019101611c33565b016b010209c101c101810181018160a51b602b8201526129af825180938a603785019101611c33565b601184634e487b7160e01b6000525260246000fd5b50612b5a8461304e565b90612b648161304e565b60088601809611612ba257612b788661304e565b946008830190818411612a43575060499492611e74969492612ac061292e612928612a279561304e565b601185634e487b7160e01b6000525260246000fd5b50612bc18461304e565b9060088101808211612ba257612bd69061304e565b936008860190818711612a43575091612a2760499492612bf9611e74979561304e565b94612ac061292e6129288461304e565b5092612c148161304e565b906008850190818611612ba257612c2a8261304e565b90612c3d612c378261304e565b9761304e565b9560088201809211612a435750603f9492611e74969492612c6361292e612d4a9461304e565b91604051998a97602a612c938a602099693c7061746820643d224d60b01b8b8301528a8151948593019101611c33565b890193600160fd1b9485602a820152612cb5825180938b602b85019101611c33565b019161081360f21b9283602b820152612cd7825180938b602d85019101611c33565b0184602d820152612cf1825180938a602e85019101611c33565b0190602e820152612d0b8251809388603085019101611c33565b01906030820152612d258251809386603185019101611c33565b019169103d11103334b6361e9160b11b60318401528351938491603b85019101611c33565b01631110179f60e11b603b82015203601f810184520182611d64565b5092916008830190818411612a4357612d7e8261304e565b916008860191828711612a43575091612d4a82611e749694612c6361292e612c37612db4612dae603f9b9961304e565b9461304e565b9b61304e565b9150612dc58361304e565b92612dcf8361304e565b9160088201809211611ce457612de48261304e565b94612df7612df18661304e565b9361304e565b9460088101809111611ce457611e7495603f95612c63612d4a9361304e565b9150612e218361304e565b92612e2b8361304e565b9160088201808311611ce457612de49061304e565b91509160048101809111611ce457612e579061304e565b9060048101809111611ce457611e7491612e7260449261304e565b936040519485926b1e31b4b931b6329031bc1e9160a11b6020850152612ea2815180926020602c88019101611c33565b830165111031bc9e9160d11b602c820152612ec7825180936020603285019101611c33565b016d1110391e911a11103334b6361e9160911b6032820152612ef3825180936020604085019101611c33565b01631110179f60e11b6040820152036024810184520182611d64565b611e749250612f23612a91604f939561304e565b93604051948592681e3932b1ba103c1e9160b91b6020850152612f50815180926020602988019101611c33565b83016411103c9e9160d91b6029820152612f74825180936020602e85019101611c33565b017f222077696474683d223822206865696768743d2238222066696c6c3d22000000602e820152612faf825180936020604b85019101611c33565b01631110179f60e11b604b82015203602f810184520182611d64565b600092918154612fda81611e77565b926001918083169081156130335750600114612ff7575b50505050565b90919293945060005260209081600020906000915b8583106130225750505050019038808080612ff1565b80548584015291830191810161300c565b60ff1916845250505081151590910201915038808080612ff1565b80156131105780816000925b6130fc575061306882611d9c565b916130766040519384611d64565b80835281601f1961308683611d9c565b01916020923684870137925b61309c5750505090565b6000198301928311611ce45782600a80830492818402918483041484151715611ce4576130cc60ff9283926120e3565b16603001908111611ce4578551821015611f7a5760f81b6001600160f81b03191660001a90850183015380613092565b91613108600a91611f57565b92048061305a565b50604051604081018181106001600160401b03821117611d335760405260018152600360fc1b60208201529056fea264697066735822122051bee8d2e36666b5f3f55b5d9a044d38090ab69f105eb6a8b78055191c49635664736f6c63430008140033","opcodes":"PUSH1 0x80 DUP1 PUSH1 0x40 MSTORE CALLVALUE PUSH2 0x4F JUMPI PUSH1 0x32 PUSH1 0x2 SSTORE PUSH1 0x1 DUP1 PUSH1 0xA0 SHL SUB NOT PUSH20 0xC02AAA39B223FE8D0A0E5C4F27EAD9083C756CC2 DUP2 PUSH1 0x4 SLOAD AND OR PUSH1 0x4 SSTORE CALLER SWAP1 PUSH1 0x1 SLOAD AND OR PUSH1 0x1 SSTORE TIMESTAMP PUSH1 0x3 SSTORE PUSH2 0x3174 SWAP1 DUP2 PUSH2 0x55 DUP3 CODECOPY RETURN JUMPDEST PUSH1 0x0 DUP1 REVERT INVALID PUSH1 0x80 PUSH1 0x40 MSTORE PUSH1 0x4 CALLDATASIZE LT ISZERO PUSH2 0x12 JUMPI PUSH1 0x0 DUP1 REVERT JUMPDEST PUSH1 0x0 DUP1 CALLDATALOAD PUSH1 0xE0 SHR DUP1 PUSH4 0x40CDFD8 EQ PUSH2 0x1BE9 JUMPI DUP1 PUSH4 0x9EEF43E EQ PUSH2 0x1B8A JUMPI DUP1 PUSH4 0x113BC999 EQ PUSH2 0x1B6C JUMPI DUP1 PUSH4 0x30B5D6D3 EQ PUSH2 0x1B37 JUMPI DUP1 PUSH4 0x3323A706 EQ PUSH2 0x1513 JUMPI DUP1 PUSH4 0x3BDB693E EQ PUSH2 0x15C5 JUMPI DUP1 PUSH4 0x481C6A75 EQ PUSH2 0x159C JUMPI DUP1 PUSH4 0x4882A7EA EQ PUSH2 0x156B JUMPI DUP1 PUSH4 0x5E027601 EQ PUSH2 0x151D JUMPI DUP1 PUSH4 0x6006ECC8 EQ PUSH2 0x1518 JUMPI DUP1 PUSH4 0x63AA5CE2 EQ PUSH2 0x1518 JUMPI DUP1 PUSH4 0x6E70FCC6 EQ PUSH2 0x1513 JUMPI DUP1 PUSH4 0x6ED958F1 EQ PUSH2 0xD93 JUMPI DUP1 PUSH4 0x70A08231 EQ PUSH2 0x30E JUMPI DUP1 PUSH4 0x7ACE48E7 EQ PUSH2 0xBA1 JUMPI DUP1 PUSH4 0x8232B562 EQ PUSH2 0x924 JUMPI DUP1 PUSH4 0x85A9473D EQ PUSH2 0x806 JUMPI DUP1 PUSH4 0xA7CCABDF EQ PUSH2 0x7BD JUMPI DUP1 PUSH4 0xAD711E9E EQ PUSH2 0x667 JUMPI DUP1 PUSH4 0xB1610D7E EQ PUSH2 0x649 JUMPI DUP1 PUSH4 0xB3A1DDF4 EQ PUSH2 0x617 JUMPI DUP1 PUSH4 0xBE26ED7F EQ PUSH2 0x5EB JUMPI DUP1 PUSH4 0xC4D1510D EQ PUSH2 0x5CD JUMPI DUP1 PUSH4 0xC4E4B90C EQ PUSH2 0x59E JUMPI DUP1 PUSH4 0xC730E65D EQ PUSH2 0x508 JUMPI DUP1 PUSH4 0xC7EAB2EC EQ PUSH2 0x3FB JUMPI DUP1 PUSH4 0xD08629C1 EQ PUSH2 0x3D9 JUMPI DUP1 PUSH4 0xD56D229D EQ PUSH2 0x3B2 JUMPI DUP1 PUSH4 0xE1245900 EQ PUSH2 0x36B JUMPI DUP1 PUSH4 0xE50EB5DA EQ PUSH2 0x350 JUMPI DUP1 PUSH4 0xF8B2CB4F EQ PUSH2 0x30E JUMPI DUP1 PUSH4 0xFD8D7ED3 EQ PUSH2 0x2F1 JUMPI DUP1 PUSH4 0xFE91F6EB EQ PUSH2 0x1B3 JUMPI PUSH4 0xFF188DCA EQ PUSH2 0x193 JUMPI PUSH1 0x0 DUP1 REVERT JUMPDEST CALLVALUE PUSH2 0x1B0 JUMPI DUP1 PUSH1 0x3 NOT CALLDATASIZE ADD SLT PUSH2 0x1B0 JUMPI PUSH1 0x20 PUSH1 0x3 SLOAD PUSH1 0x40 MLOAD SWAP1 DUP2 MSTORE RETURN JUMPDEST DUP1 REVERT JUMPDEST POP CALLVALUE PUSH2 0x1B0 JUMPI DUP1 PUSH1 0x3 NOT CALLDATASIZE ADD SLT PUSH2 0x1B0 JUMPI PUSH1 0x3 SLOAD PUSH3 0x54600 SWAP1 DUP2 PUSH2 0x1D7 DUP3 TIMESTAMP PUSH2 0x20E3 JUMP JUMPDEST DIV DUP4 MSTORE PUSH2 0x20A PUSH2 0x1047 SWAP2 DUP3 PUSH1 0x20 MSTORE DUP4 PUSH2 0x1F5 PUSH1 0x40 DUP8 KECCAK256 SLOAD SWAP3 TIMESTAMP PUSH2 0x20E3 JUMP JUMPDEST DIV DUP6 MSTORE DUP3 PUSH1 0x20 MSTORE PUSH1 0x1 PUSH1 0x40 DUP7 KECCAK256 ADD SLOAD SWAP1 PUSH2 0x1CD7 JUMP JUMPDEST SWAP2 DUP3 ISZERO PUSH2 0x2BC JUMPI DUP4 SLOAD PUSH1 0x1 SLOAD DUP6 SWAP2 PUSH1 0x1 PUSH1 0x1 PUSH1 0xA0 SHL SUB SWAP2 DUP3 AND SWAP2 AND DUP1 EXTCODESIZE ISZERO PUSH2 0x2B8 JUMPI PUSH1 0x24 DUP4 SWAP3 PUSH1 0x40 MLOAD SWAP5 DUP6 SWAP4 DUP5 SWAP3 PUSH4 0x35313C21 PUSH1 0xE1 SHL DUP5 MSTORE PUSH1 0x4 DUP5 ADD MSTORE GAS CALL DUP1 ISZERO PUSH2 0x2AD JUMPI PUSH2 0x27B JUMPI JUMPDEST POP SWAP3 PUSH1 0x40 SWAP2 PUSH1 0x20 SWAP5 PUSH2 0x268 PUSH1 0x3 SLOAD TIMESTAMP PUSH2 0x20E3 JUMP JUMPDEST DIV DUP3 MSTORE DUP5 MSTORE KECCAK256 SLOAD PUSH1 0x40 MLOAD SWAP2 PUSH1 0x1 SHR LT DUP2 MSTORE RETURN JUMPDEST PUSH1 0x1 PUSH1 0x1 PUSH1 0x40 SHL SUB DUP2 SWAP4 SWAP3 SWAP4 GT PUSH2 0x299 JUMPI PUSH1 0x40 SWAP1 DUP2 MSTORE SWAP1 SWAP2 SWAP1 PUSH2 0x254 JUMP JUMPDEST PUSH4 0x4E487B71 PUSH1 0xE0 SHL DUP6 MSTORE PUSH1 0x41 PUSH1 0x4 MSTORE PUSH1 0x24 DUP6 REVERT JUMPDEST PUSH1 0x40 MLOAD RETURNDATASIZE DUP8 DUP3 RETURNDATACOPY RETURNDATASIZE SWAP1 REVERT JUMPDEST DUP3 DUP1 REVERT JUMPDEST PUSH1 0x40 MLOAD PUSH3 0x461BCD PUSH1 0xE5 SHL DUP2 MSTORE PUSH1 0x20 PUSH1 0x4 DUP3 ADD MSTORE PUSH1 0xD PUSH1 0x24 DUP3 ADD MSTORE PUSH13 0x139BC81D9BDD195CC818D85CDD PUSH1 0x9A SHL PUSH1 0x44 DUP3 ADD MSTORE PUSH1 0x64 SWAP1 REVERT JUMPDEST POP CALLVALUE PUSH2 0x1B0 JUMPI DUP1 PUSH1 0x3 NOT CALLDATASIZE ADD SLT PUSH2 0x1B0 JUMPI PUSH1 0x20 PUSH1 0x40 MLOAD PUSH2 0x3E8 DUP2 MSTORE RETURN JUMPDEST POP CALLVALUE PUSH2 0x1B0 JUMPI PUSH1 0x20 CALLDATASIZE PUSH1 0x3 NOT ADD SLT PUSH2 0x1B0 JUMPI PUSH1 0x4 CALLDATALOAD PUSH1 0x1 PUSH1 0x1 PUSH1 0xA0 SHL SUB DUP2 AND SWAP1 DUP2 SWAP1 SUB PUSH2 0x34C JUMPI DUP2 PUSH1 0x40 SWAP2 PUSH1 0x20 SWAP4 MSTORE PUSH2 0x1046 DUP4 MSTORE KECCAK256 SLOAD PUSH1 0x40 MLOAD SWAP1 DUP2 MSTORE RETURN JUMPDEST POP DUP1 REVERT JUMPDEST POP CALLVALUE PUSH2 0x1B0 JUMPI PUSH2 0x368 PUSH2 0x362 CALLDATASIZE PUSH2 0x1E31 JUMP JUMPDEST SWAP1 PUSH2 0x218A JUMP JUMPDEST DUP1 RETURN JUMPDEST POP CALLVALUE PUSH2 0x1B0 JUMPI PUSH1 0x20 CALLDATASIZE PUSH1 0x3 NOT ADD SLT PUSH2 0x1B0 JUMPI PUSH1 0x4 CALLDATALOAD SWAP1 PUSH1 0x40 DUP3 LT ISZERO PUSH2 0x1B0 JUMPI PUSH2 0x3AE PUSH2 0x39A DUP4 PUSH2 0x1006 ADD PUSH2 0x1EB1 JUMP JUMPDEST PUSH1 0x40 MLOAD SWAP2 DUP3 SWAP2 PUSH1 0x20 DUP4 MSTORE PUSH1 0x20 DUP4 ADD SWAP1 PUSH2 0x1C56 JUMP JUMPDEST SUB SWAP1 RETURN JUMPDEST POP CALLVALUE PUSH2 0x1B0 JUMPI DUP1 PUSH1 0x3 NOT CALLDATASIZE ADD SLT PUSH2 0x1B0 JUMPI SLOAD PUSH1 0x40 MLOAD PUSH1 0x1 PUSH1 0x1 PUSH1 0xA0 SHL SUB SWAP1 SWAP2 AND DUP2 MSTORE PUSH1 0x20 SWAP1 RETURN JUMPDEST POP CALLVALUE PUSH2 0x1B0 JUMPI PUSH1 0x20 PUSH2 0x3F3 PUSH2 0x3ED CALLDATASIZE PUSH2 0x1C18 JUMP JUMPDEST SWAP1 PUSH2 0x2811 JUMP JUMPDEST PUSH1 0x40 MLOAD SWAP1 DUP2 MSTORE RETURN JUMPDEST POP CALLVALUE PUSH2 0x1B0 JUMPI PUSH2 0x40A CALLDATASIZE PUSH2 0x1E31 JUMP JUMPDEST PUSH2 0x417 DUP3 MLOAD DUP3 MLOAD EQ PUSH2 0x20F0 JUMP JUMPDEST DUP2 MLOAD SWAP1 PUSH2 0x423 DUP3 PUSH2 0x1D85 JUMP JUMPDEST SWAP3 PUSH2 0x431 PUSH1 0x40 MLOAD SWAP5 DUP6 PUSH2 0x1D64 JUMP JUMPDEST DUP3 DUP5 MSTORE PUSH1 0x1F NOT PUSH2 0x440 DUP5 PUSH2 0x1D85 JUMP JUMPDEST ADD DUP6 JUMPDEST DUP2 DUP2 LT PUSH2 0x4F1 JUMPI POP POP DUP5 JUMPDEST DUP4 DUP2 LT PUSH2 0x4B3 JUMPI PUSH1 0x40 DUP1 MLOAD PUSH1 0x20 DUP1 DUP3 MSTORE DUP8 MLOAD DUP2 DUP4 ADD DUP2 SWAP1 MSTORE DUP10 SWAP4 PUSH1 0x5 DUP3 SWAP1 SHL DUP5 ADD DUP2 ADD SWAP3 DUP1 DUP12 ADD SWAP3 SWAP2 DUP6 ADD JUMPDEST DUP3 DUP8 LT PUSH2 0x487 JUMPI DUP6 DUP6 SUB DUP7 RETURN JUMPDEST SWAP1 SWAP2 SWAP3 SWAP4 DUP3 DUP1 PUSH2 0x4A3 PUSH1 0x1 SWAP4 PUSH1 0x3F NOT DUP11 DUP3 SUB ADD DUP7 MSTORE DUP9 MLOAD PUSH2 0x1C7B JUMP JUMPDEST SWAP7 ADD SWAP3 ADD SWAP7 ADD SWAP6 SWAP3 SWAP2 SWAP1 SWAP3 PUSH2 0x47A JUMP JUMPDEST DUP1 PUSH2 0x4D5 PUSH2 0x4C3 PUSH1 0x1 SWAP4 DUP6 PUSH2 0x1F66 JUMP JUMPDEST MLOAD PUSH2 0x4CE DUP4 DUP8 PUSH2 0x1F66 JUMP JUMPDEST MLOAD SWAP1 PUSH2 0x273A JUMP JUMPDEST PUSH2 0x4DF DUP3 DUP9 PUSH2 0x1F66 JUMP JUMPDEST MSTORE PUSH2 0x4EA DUP2 DUP8 PUSH2 0x1F66 JUMP JUMPDEST POP ADD PUSH2 0x44E JUMP JUMPDEST PUSH1 0x20 SWAP1 PUSH2 0x4FC PUSH2 0x2702 JUMP JUMPDEST DUP3 DUP3 DUP10 ADD ADD MSTORE ADD PUSH2 0x443 JUMP JUMPDEST POP CALLVALUE PUSH2 0x1B0 JUMPI PUSH1 0x40 SWAP1 PUSH2 0x51A CALLDATASIZE PUSH2 0x1C18 JUMP JUMPDEST SWAP1 DUP3 MSTORE PUSH1 0x5 PUSH1 0x20 MSTORE DUP3 DUP3 KECCAK256 SWAP1 DUP3 MSTORE PUSH1 0x20 MSTORE KECCAK256 PUSH1 0x1 DUP1 PUSH1 0xA0 SHL SUB DUP2 SLOAD AND PUSH1 0x1 DUP3 ADD SLOAD SWAP2 PUSH1 0x2 DUP2 ADD SLOAD PUSH2 0x54D PUSH1 0x3 DUP4 ADD PUSH2 0x1EB1 JUMP JUMPDEST SWAP2 PUSH2 0x588 PUSH1 0x4 DUP3 ADD SLOAD SWAP4 PUSH1 0x6 PUSH1 0xFF PUSH1 0x5 DUP6 ADD SLOAD AND SWAP4 ADD SLOAD SWAP4 PUSH1 0x40 MLOAD SWAP8 DUP9 SWAP8 DUP9 MSTORE PUSH1 0x20 DUP9 ADD MSTORE PUSH1 0x40 DUP8 ADD MSTORE PUSH1 0xE0 PUSH1 0x60 DUP8 ADD MSTORE PUSH1 0xE0 DUP7 ADD SWAP1 PUSH2 0x1C56 JUMP JUMPDEST SWAP3 PUSH1 0x80 DUP6 ADD MSTORE ISZERO ISZERO PUSH1 0xA0 DUP5 ADD MSTORE PUSH1 0xC0 DUP4 ADD MSTORE SUB SWAP1 RETURN JUMPDEST POP CALLVALUE PUSH2 0x1B0 JUMPI PUSH1 0x20 CALLDATASIZE PUSH1 0x3 NOT ADD SLT PUSH2 0x1B0 JUMPI PUSH1 0x4 CALLDATALOAD SWAP1 PUSH2 0x1000 DUP3 LT ISZERO PUSH2 0x1B0 JUMPI PUSH2 0x3AE PUSH2 0x39A DUP4 PUSH1 0x6 ADD PUSH2 0x1EB1 JUMP JUMPDEST POP CALLVALUE PUSH2 0x1B0 JUMPI DUP1 PUSH1 0x3 NOT CALLDATASIZE ADD SLT PUSH2 0x1B0 JUMPI PUSH1 0x20 PUSH1 0x2 SLOAD PUSH1 0x40 MLOAD SWAP1 DUP2 MSTORE RETURN JUMPDEST POP CALLVALUE PUSH2 0x1B0 JUMPI DUP1 PUSH1 0x3 NOT CALLDATASIZE ADD SLT PUSH2 0x1B0 JUMPI PUSH1 0x20 PUSH3 0x54600 PUSH2 0x60E PUSH1 0x3 SLOAD TIMESTAMP PUSH2 0x20E3 JUMP JUMPDEST DIV PUSH1 0x40 MLOAD SWAP1 DUP2 MSTORE RETURN JUMPDEST POP CALLVALUE PUSH2 0x1B0 JUMPI DUP1 PUSH1 0x3 NOT CALLDATASIZE ADD SLT PUSH2 0x1B0 JUMPI PUSH1 0x20 PUSH3 0x3F480 PUSH3 0x54600 PUSH2 0x63E PUSH1 0x3 SLOAD TIMESTAMP PUSH2 0x20E3 JUMP JUMPDEST MOD LT ISZERO PUSH1 0x40 MLOAD SWAP1 DUP2 MSTORE RETURN JUMPDEST POP CALLVALUE PUSH2 0x1B0 JUMPI DUP1 PUSH1 0x3 NOT CALLDATASIZE ADD SLT PUSH2 0x1B0 JUMPI PUSH1 0x20 PUSH1 0x40 MLOAD PUSH3 0x15180 DUP2 MSTORE RETURN JUMPDEST POP CALLVALUE PUSH2 0x1B0 JUMPI DUP1 PUSH1 0x3 NOT CALLDATASIZE ADD SLT PUSH2 0x1B0 JUMPI PUSH1 0x40 MLOAD PUSH1 0x80 DUP2 ADD DUP2 DUP2 LT PUSH1 0x1 PUSH1 0x1 PUSH1 0x40 SHL SUB DUP3 GT OR PUSH2 0x7A9 JUMPI PUSH1 0x40 MSTORE PUSH1 0x57 DUP2 MSTORE PUSH1 0x20 SWAP1 PUSH32 0x3C7376672077696474683D2236303022206865696768743D2236303022207669 DUP3 DUP3 ADD MSTORE PUSH32 0x6577426F783D2230203020363030203630302220786D6C6E733D22687474703A PUSH1 0x40 DUP3 ADD MSTORE PUSH23 0x1797BBBBBB973B999737B933979918181817B9BB33911F PUSH1 0x49 SHL PUSH1 0x60 DUP3 ADD MSTORE SWAP2 JUMPDEST PUSH1 0x40 DUP2 LT PUSH2 0x75F JUMPI POP PUSH2 0x74B PUSH1 0x26 PUSH1 0x40 MLOAD DUP5 PUSH2 0x72D DUP3 SWAP7 MLOAD DUP1 SWAP3 DUP8 DUP1 DUP7 ADD SWAP2 ADD PUSH2 0x1C33 JUMP JUMPDEST DUP2 ADD PUSH6 0x1E17B9BB339F PUSH1 0xD1 SHL DUP6 DUP3 ADD MSTORE SUB PUSH1 0x6 DUP2 ADD DUP6 MSTORE ADD DUP4 PUSH2 0x1D64 JUMP JUMPDEST PUSH2 0x3AE PUSH1 0x40 MLOAD SWAP3 DUP3 DUP5 SWAP4 DUP5 MSTORE DUP4 ADD SWAP1 PUSH2 0x1C56 JUMP JUMPDEST SWAP2 DUP2 PUSH2 0x79E PUSH2 0x7A4 SWAP3 PUSH2 0x790 PUSH1 0x40 MLOAD SWAP4 DUP3 PUSH2 0x783 DUP7 SWAP5 MLOAD DUP1 SWAP3 DUP5 DUP1 DUP9 ADD SWAP2 ADD PUSH2 0x1C33 JUMP JUMPDEST DUP4 ADD ADD DUP8 PUSH2 0x1006 ADD PUSH2 0x2FCB JUMP JUMPDEST SUB PUSH1 0x1F NOT DUP2 ADD DUP4 MSTORE DUP3 PUSH2 0x1D64 JUMP JUMPDEST SWAP3 PUSH2 0x1F57 JUMP JUMPDEST PUSH2 0x708 JUMP JUMPDEST PUSH4 0x4E487B71 PUSH1 0xE0 SHL DUP4 MSTORE PUSH1 0x41 PUSH1 0x4 MSTORE PUSH1 0x24 DUP4 REVERT JUMPDEST POP CALLVALUE PUSH2 0x1B0 JUMPI PUSH1 0x20 CALLDATASIZE PUSH1 0x3 NOT ADD SLT PUSH2 0x1B0 JUMPI PUSH1 0x4 CALLDATALOAD PUSH1 0x1 PUSH1 0x1 PUSH1 0xA0 SHL SUB DUP2 DUP2 AND SWAP2 DUP3 SWAP1 SUB PUSH2 0x2B8 JUMPI PUSH2 0x7F4 SWAP1 PUSH1 0x1 SLOAD AND CALLER EQ PUSH2 0x26A1 JUMP JUMPDEST DUP2 SLOAD PUSH1 0x1 PUSH1 0x1 PUSH1 0xA0 SHL SUB NOT AND OR DUP2 SSTORE DUP1 RETURN JUMPDEST POP CALLVALUE PUSH2 0x1B0 JUMPI PUSH1 0x60 CALLDATASIZE PUSH1 0x3 NOT ADD SLT PUSH2 0x1B0 JUMPI PUSH1 0x4 CALLDATALOAD PUSH1 0x24 CALLDATALOAD SWAP1 PUSH2 0x834 PUSH1 0x1 DUP1 PUSH1 0xA0 SHL SUB PUSH1 0x1 SLOAD AND CALLER EQ PUSH2 0x26A1 JUMP JUMPDEST DUP1 DUP4 MSTORE PUSH1 0x5 PUSH1 0x20 SWAP2 DUP2 DUP4 MSTORE PUSH1 0x40 DUP6 KECCAK256 DUP5 DUP7 MSTORE DUP4 MSTORE PUSH1 0xFF DUP3 PUSH1 0x40 DUP8 KECCAK256 ADD SLOAD AND DUP1 PUSH2 0x8E4 JUMPI JUMPDEST ISZERO PUSH2 0x8AC JUMPI DUP1 DUP6 MSTORE DUP2 DUP4 MSTORE PUSH1 0x40 DUP6 KECCAK256 DUP5 DUP7 MSTORE DUP4 MSTORE PUSH1 0x44 CALLDATALOAD PUSH1 0x2 PUSH1 0x40 DUP8 KECCAK256 ADD SSTORE DUP1 DUP6 MSTORE DUP2 DUP4 MSTORE PUSH1 0x40 DUP6 KECCAK256 DUP5 DUP7 MSTORE DUP4 MSTORE DUP2 PUSH1 0x40 DUP7 KECCAK256 ADD PUSH1 0xFF NOT DUP2 SLOAD AND SWAP1 SSTORE DUP5 MSTORE DUP2 MSTORE PUSH1 0x40 DUP4 KECCAK256 SWAP2 DUP4 MSTORE MSTORE DUP1 PUSH1 0x6 PUSH1 0x40 DUP3 KECCAK256 ADD SSTORE DUP1 RETURN JUMPDEST DUP1 DUP6 MSTORE DUP2 DUP4 MSTORE PUSH1 0x40 DUP6 KECCAK256 DUP5 DUP7 MSTORE DUP4 MSTORE DUP2 PUSH1 0x40 DUP7 KECCAK256 ADD PUSH1 0x1 PUSH1 0xFF NOT DUP3 SLOAD AND OR SWAP1 SSTORE DUP5 MSTORE DUP2 MSTORE PUSH1 0x40 DUP4 KECCAK256 SWAP2 DUP4 MSTORE MSTORE TIMESTAMP PUSH1 0x6 PUSH1 0x40 DUP4 KECCAK256 ADD SSTORE DUP1 RETURN JUMPDEST POP DUP1 DUP6 MSTORE DUP2 DUP4 MSTORE PUSH1 0x40 DUP6 KECCAK256 DUP5 DUP7 MSTORE DUP4 MSTORE PUSH1 0x6 PUSH1 0x40 DUP7 KECCAK256 ADD SLOAD PUSH3 0x3F480 DUP2 ADD DUP1 SWAP2 GT PUSH2 0x910 JUMPI TIMESTAMP GT PUSH2 0x858 JUMP JUMPDEST PUSH4 0x4E487B71 PUSH1 0xE0 SHL DUP7 MSTORE PUSH1 0x11 PUSH1 0x4 MSTORE PUSH1 0x24 DUP7 REVERT JUMPDEST POP CALLVALUE PUSH2 0x1B0 JUMPI PUSH1 0x60 CALLDATASIZE PUSH1 0x3 NOT ADD SLT PUSH2 0x1B0 JUMPI PUSH1 0x1 PUSH1 0x1 PUSH1 0x40 SHL SUB PUSH1 0x4 CALLDATALOAD DUP2 DUP2 GT PUSH2 0x2B8 JUMPI PUSH2 0x956 SWAP1 CALLDATASIZE SWAP1 PUSH1 0x4 ADD PUSH2 0x1DD3 JUMP JUMPDEST PUSH1 0x24 SWAP1 DUP2 CALLDATALOAD DUP4 DUP2 GT PUSH2 0xB9D JUMPI PUSH2 0x970 SWAP1 CALLDATASIZE SWAP1 PUSH1 0x4 ADD PUSH2 0x1DD3 JUMP JUMPDEST SWAP2 PUSH1 0x44 SWAP4 DUP5 CALLDATALOAD SWAP1 DUP2 GT PUSH2 0xB99 JUMPI PUSH2 0x98B SWAP1 CALLDATASIZE SWAP1 PUSH1 0x4 ADD PUSH2 0x1DD3 JUMP JUMPDEST SWAP1 DUP3 MLOAD DUP5 MLOAD DUP2 EQ SWAP1 DUP2 PUSH2 0xB8E JUMPI JUMPDEST POP ISZERO PUSH2 0xB3B JUMPI DUP3 MLOAD SWAP5 DUP7 JUMPDEST DUP7 DUP2 LT PUSH2 0xA42 JUMPI POP POP POP PUSH2 0x9B8 DUP4 DUP4 PUSH2 0x218A JUMP JUMPDEST DUP5 JUMPDEST DUP5 DUP2 LT PUSH2 0x9C5 JUMPI DUP6 DUP1 RETURN JUMPDEST DUP1 PUSH2 0x9D2 PUSH1 0x1 SWAP3 DUP5 PUSH2 0x1F66 JUMP JUMPDEST MLOAD PUSH2 0x9DD DUP3 DUP7 PUSH2 0x1F66 JUMP JUMPDEST MLOAD DUP9 MSTORE PUSH1 0x20 PUSH1 0x5 DUP2 MSTORE PUSH1 0x40 DUP10 KECCAK256 SWAP1 PUSH2 0x9F5 DUP5 DUP10 PUSH2 0x1F66 JUMP JUMPDEST MLOAD DUP11 MSTORE MSTORE PUSH1 0x2 PUSH1 0x40 DUP10 KECCAK256 ADD SSTORE PUSH2 0xA0B DUP2 DUP6 PUSH2 0x1F66 JUMP JUMPDEST MLOAD PUSH2 0xA16 DUP3 DUP8 PUSH2 0x1F66 JUMP JUMPDEST MLOAD SWAP1 PUSH32 0x1C362B7FC7C4865E1E7EDE89F240549BBD8B5EE43B51383C9C0392687D6D10EC DUP10 DUP1 LOG3 ADD PUSH2 0x9BA JUMP JUMPDEST PUSH2 0xA4C DUP2 DUP7 PUSH2 0x1F66 JUMP JUMPDEST MLOAD PUSH1 0x40 PUSH2 0xA59 DUP4 DUP10 PUSH2 0x1F66 JUMP JUMPDEST MLOAD SWAP2 LT SWAP1 DUP2 ISZERO SWAP2 PUSH2 0xB2F JUMPI JUMPDEST POP PUSH2 0xAF1 JUMPI PUSH2 0xA74 DUP2 DUP7 PUSH2 0x1F66 JUMP JUMPDEST MLOAD DUP9 MSTORE PUSH1 0x20 PUSH1 0x5 DUP2 MSTORE PUSH1 0x40 DUP10 KECCAK256 PUSH2 0xA8B DUP4 DUP10 PUSH2 0x1F66 JUMP JUMPDEST MLOAD DUP11 MSTORE DUP2 MSTORE PUSH1 0x40 DUP10 KECCAK256 SLOAD CALLER PUSH1 0x1 PUSH1 0x1 PUSH1 0xA0 SHL SUB SWAP1 SWAP2 AND SUB PUSH2 0xAAF JUMPI POP PUSH1 0x1 ADD PUSH2 0x9A4 JUMP JUMPDEST PUSH1 0x64 SWAP1 PUSH32 0x6F6E6C79206F776E65722063616E2073657420706978656C2076616C75650000 DUP5 PUSH1 0x1E DUP8 PUSH1 0x40 MLOAD SWAP5 PUSH3 0x461BCD PUSH1 0xE5 SHL DUP7 MSTORE PUSH1 0x4 DUP7 ADD MSTORE DUP5 ADD MSTORE DUP3 ADD MSTORE REVERT JUMPDEST PUSH1 0x40 MLOAD PUSH3 0x461BCD PUSH1 0xE5 SHL DUP2 MSTORE PUSH1 0x20 PUSH1 0x4 DUP3 ADD MSTORE PUSH1 0x18 DUP2 DUP6 ADD MSTORE PUSH24 0x4120706978656C206973206F7574206F6620626F756E6473 PUSH1 0x40 SHL DUP2 DUP5 ADD MSTORE PUSH1 0x64 SWAP1 REVERT JUMPDEST PUSH1 0x40 SWAP2 POP LT ISZERO CODESIZE PUSH2 0xA65 JUMP JUMPDEST PUSH1 0x84 SWAP1 PUSH32 0x696E70757420617272617973206D757374206265206F66207468652073616D65 DUP7 PUSH1 0x27 PUSH1 0x40 MLOAD SWAP4 PUSH3 0x461BCD PUSH1 0xE5 SHL DUP6 MSTORE PUSH1 0x20 PUSH1 0x4 DUP7 ADD MSTORE DUP5 ADD MSTORE DUP3 ADD MSTORE PUSH7 0x40D8CADCCEE8D PUSH1 0xCB SHL PUSH1 0x64 DUP3 ADD MSTORE REVERT JUMPDEST SWAP1 POP DUP3 MLOAD EQ CODESIZE PUSH2 0x999 JUMP JUMPDEST DUP6 DUP1 REVERT JUMPDEST DUP5 DUP1 REVERT JUMPDEST POP CALLVALUE PUSH2 0x1B0 JUMPI PUSH1 0x20 DUP1 PUSH1 0x3 NOT CALLDATASIZE ADD SLT PUSH2 0x34C JUMPI PUSH1 0x4 CALLDATALOAD DUP1 ISZERO ISZERO DUP2 SUB PUSH2 0x2B8 JUMPI PUSH1 0x3 SLOAD PUSH3 0x54600 SWAP1 PUSH3 0x3F480 DUP3 PUSH2 0xBD7 DUP4 TIMESTAMP PUSH2 0x20E3 JUMP JUMPDEST MOD LT PUSH2 0xD52 JUMPI CALLER DUP6 MSTORE PUSH2 0x1046 DUP5 MSTORE PUSH1 0x40 DUP6 KECCAK256 SLOAD SWAP1 DUP2 ISZERO PUSH2 0xCFD JUMPI DUP3 PUSH2 0xBFC DUP3 TIMESTAMP PUSH2 0x20E3 JUMP JUMPDEST DIV DUP7 MSTORE PUSH2 0x1047 SWAP4 DUP5 DUP7 MSTORE PUSH1 0x2 PUSH1 0x40 DUP9 KECCAK256 ADD CALLER DUP9 MSTORE DUP7 MSTORE PUSH1 0xFF PUSH1 0x40 DUP9 KECCAK256 SLOAD AND PUSH2 0xCC8 JUMPI DUP4 SWAP2 SWAP1 ISZERO PUSH2 0xC9F JUMPI POP PUSH2 0xC33 PUSH1 0x3 SLOAD TIMESTAMP PUSH2 0x20E3 JUMP JUMPDEST DIV DUP6 MSTORE DUP3 DUP5 MSTORE PUSH2 0xC48 PUSH1 0x40 DUP7 KECCAK256 SWAP2 DUP3 SLOAD PUSH2 0x1CD7 JUMP JUMPDEST SWAP1 SSTORE JUMPDEST PUSH2 0xC57 PUSH1 0x3 SLOAD TIMESTAMP PUSH2 0x20E3 JUMP JUMPDEST DIV DUP4 MSTORE DUP2 MSTORE PUSH1 0x2 PUSH1 0x40 DUP4 KECCAK256 ADD SWAP1 CALLER DUP4 MSTORE MSTORE PUSH1 0x40 DUP2 KECCAK256 PUSH1 0x1 PUSH1 0xFF NOT DUP3 SLOAD AND OR SWAP1 SSTORE CALLER PUSH32 0x7CE969A18BB6B0FBA42C6D9746E7D08EECA4C661809659C91D276456E3153AC0 DUP3 DUP1 LOG2 DUP1 RETURN JUMPDEST PUSH2 0xCA9 SWAP1 TIMESTAMP PUSH2 0x20E3 JUMP JUMPDEST DIV DUP6 MSTORE DUP3 DUP5 MSTORE PUSH2 0xCC1 PUSH1 0x1 PUSH1 0x40 DUP8 KECCAK256 ADD SWAP2 DUP3 SLOAD PUSH2 0x1CD7 JUMP JUMPDEST SWAP1 SSTORE PUSH2 0xC4B JUMP JUMPDEST PUSH1 0x40 MLOAD PUSH3 0x461BCD PUSH1 0xE5 SHL DUP2 MSTORE PUSH1 0x4 DUP2 ADD DUP8 SWAP1 MSTORE PUSH1 0xD PUSH1 0x24 DUP3 ADD MSTORE PUSH13 0x185B1C9958591E481D9BDD1959 PUSH1 0x9A SHL PUSH1 0x44 DUP3 ADD MSTORE PUSH1 0x64 SWAP1 REVERT JUMPDEST PUSH1 0x40 MLOAD PUSH3 0x461BCD PUSH1 0xE5 SHL DUP2 MSTORE PUSH1 0x4 DUP2 ADD DUP7 SWAP1 MSTORE PUSH1 0x27 PUSH1 0x24 DUP3 ADD MSTORE PUSH32 0x6E6F20706978656C73206F776E6564203D206E6F20766F74657320746F206265 PUSH1 0x44 DUP3 ADD MSTORE PUSH7 0x818D85CDD1959 PUSH1 0xCA SHL PUSH1 0x64 DUP3 ADD MSTORE PUSH1 0x84 SWAP1 REVERT JUMPDEST PUSH1 0x40 MLOAD PUSH3 0x461BCD PUSH1 0xE5 SHL DUP2 MSTORE PUSH1 0x4 DUP2 ADD DUP6 SWAP1 MSTORE PUSH1 0x19 PUSH1 0x24 DUP3 ADD MSTORE PUSH25 0x2B37BA34B7339031BAB93932B73A363C903737BA1037B832B7 PUSH1 0x39 SHL PUSH1 0x44 DUP3 ADD MSTORE PUSH1 0x64 SWAP1 REVERT JUMPDEST POP CALLVALUE PUSH2 0x1B0 JUMPI PUSH2 0xDA2 CALLDATASIZE PUSH2 0x1E31 JUMP JUMPDEST PUSH2 0xDAF DUP3 MLOAD DUP3 MLOAD EQ PUSH2 0x20F0 JUMP JUMPDEST DUP2 MLOAD SWAP1 DUP4 JUMPDEST DUP3 DUP2 LT PUSH2 0xDBF JUMPI DUP5 DUP1 RETURN JUMPDEST PUSH2 0xDC9 DUP2 DUP6 PUSH2 0x1F66 JUMP JUMPDEST MLOAD PUSH1 0x40 PUSH2 0xDD6 DUP4 DUP6 PUSH2 0x1F66 JUMP JUMPDEST MLOAD SWAP2 LT SWAP1 DUP2 ISZERO SWAP2 PUSH2 0x1507 JUMPI JUMPDEST POP PUSH2 0x14EA JUMPI PUSH2 0xDF1 DUP2 DUP6 PUSH2 0x1F66 JUMP JUMPDEST MLOAD DUP6 MSTORE PUSH1 0x5 PUSH1 0x20 SWAP1 DUP1 DUP3 MSTORE PUSH1 0x40 DUP8 KECCAK256 PUSH2 0xE0A DUP5 DUP7 PUSH2 0x1F66 JUMP JUMPDEST MLOAD DUP9 MSTORE DUP3 MSTORE PUSH1 0x40 DUP8 KECCAK256 SLOAD PUSH1 0x1 PUSH1 0x1 PUSH1 0xA0 SHL SUB SWAP1 DUP2 AND PUSH2 0xECE JUMPI POP SWAP1 PUSH2 0x1046 SWAP2 PUSH2 0xE33 DUP5 DUP9 PUSH2 0x1F66 JUMP JUMPDEST MLOAD DUP9 MSTORE DUP2 MSTORE PUSH1 0x40 DUP8 KECCAK256 PUSH2 0xE46 DUP5 DUP7 PUSH2 0x1F66 JUMP JUMPDEST MLOAD DUP9 MSTORE DUP2 MSTORE PUSH1 0x40 DUP8 KECCAK256 CALLER PUSH1 0x1 DUP1 PUSH1 0xA0 SHL SUB NOT DUP3 SLOAD AND OR SWAP1 SSTORE CALLER DUP8 MSTORE MSTORE PUSH1 0x40 DUP6 KECCAK256 DUP1 SLOAD SWAP1 PUSH1 0x1 DUP3 ADD DUP1 SWAP3 GT PUSH2 0xEBA JUMPI SSTORE PUSH1 0x1 SWAP1 JUMPDEST PUSH2 0xE83 DUP2 DUP7 PUSH2 0x1F66 JUMP JUMPDEST MLOAD PUSH2 0xE8E DUP3 DUP6 PUSH2 0x1F66 JUMP JUMPDEST MLOAD SWAP1 PUSH32 0xEE0E9A85D097F632450E6AC08750207C8F039246EE437B10EAF708B397D00AD8 DUP9 DUP1 LOG3 ADD PUSH2 0xDB4 JUMP JUMPDEST PUSH4 0x4E487B71 PUSH1 0xE0 SHL DUP8 MSTORE PUSH1 0x11 PUSH1 0x4 MSTORE PUSH1 0x24 DUP8 REVERT JUMPDEST PUSH2 0xEED PUSH2 0xEDB DUP6 DUP10 PUSH2 0x1F66 JUMP JUMPDEST MLOAD PUSH2 0xEE6 DUP7 DUP9 PUSH2 0x1F66 JUMP JUMPDEST MLOAD SWAP1 PUSH2 0x2811 JUMP JUMPDEST SWAP1 PUSH2 0xEF8 DUP6 DUP10 PUSH2 0x1F66 JUMP JUMPDEST MLOAD DUP10 MSTORE DUP3 DUP5 MSTORE PUSH1 0x40 DUP10 KECCAK256 PUSH2 0xF0C DUP7 DUP9 PUSH2 0x1F66 JUMP JUMPDEST MLOAD DUP11 MSTORE DUP5 MSTORE DUP2 PUSH1 0x2 PUSH1 0x40 DUP12 KECCAK256 ADD SLOAD GT PUSH1 0x0 EQ PUSH2 0x128E JUMPI PUSH2 0xF2C DUP6 DUP10 PUSH2 0x1F66 JUMP JUMPDEST MLOAD DUP10 MSTORE DUP3 DUP5 MSTORE PUSH1 0x40 DUP10 KECCAK256 PUSH2 0xF40 DUP7 DUP9 PUSH2 0x1F66 JUMP JUMPDEST MLOAD DUP11 MSTORE DUP5 MSTORE DUP9 PUSH2 0xF57 DUP4 PUSH1 0x2 PUSH1 0x40 DUP5 KECCAK256 ADD SLOAD PUSH2 0x20E3 JUMP JUMPDEST SWAP3 DUP3 PUSH1 0x4 SLOAD AND PUSH1 0x40 MLOAD PUSH4 0x70A08231 PUSH1 0xE0 SHL DUP2 MSTORE CALLER PUSH1 0x4 DUP3 ADD MSTORE DUP8 DUP2 PUSH1 0x24 DUP2 DUP6 GAS STATICCALL DUP1 ISZERO PUSH2 0x124F JUMPI DUP13 DUP11 SWAP3 DUP7 SWAP3 PUSH2 0x125A JUMPI JUMPDEST POP PUSH2 0xFBD SWAP3 PUSH2 0xF96 SWAP2 PUSH2 0x1F66 JUMP JUMPDEST MLOAD DUP6 MSTORE DUP8 DUP10 MSTORE PUSH1 0x40 DUP6 KECCAK256 PUSH2 0xFAA DUP12 DUP14 PUSH2 0x1F66 JUMP JUMPDEST MLOAD DUP7 MSTORE DUP10 MSTORE PUSH1 0x2 PUSH1 0x40 DUP7 KECCAK256 ADD SLOAD LT PUSH2 0x25F1 JUMP JUMPDEST PUSH1 0x40 MLOAD PUSH4 0x6EB1769F PUSH1 0xE1 SHL DUP2 MSTORE CALLER PUSH1 0x4 DUP3 ADD MSTORE ADDRESS PUSH1 0x24 DUP3 ADD MSTORE SWAP1 DUP8 DUP3 PUSH1 0x44 DUP2 DUP5 GAS STATICCALL DUP1 ISZERO PUSH2 0x124F JUMPI DUP13 DUP11 SWAP2 DUP13 DUP12 SWAP6 DUP9 SWAP3 PUSH2 0x1210 JUMPI JUMPDEST POP SWAP2 PUSH2 0x1033 DUP5 SWAP3 PUSH2 0x1038 SWAP5 PUSH2 0x100B PUSH2 0x1078 SWAP9 SWAP8 DUP6 PUSH2 0x1F66 JUMP JUMPDEST MLOAD DUP12 MSTORE DUP14 DUP10 MSTORE PUSH2 0x101F DUP6 PUSH1 0x40 DUP14 KECCAK256 SWAP3 PUSH2 0x1F66 JUMP JUMPDEST MLOAD DUP12 MSTORE DUP9 MSTORE PUSH1 0x2 PUSH1 0x40 DUP12 KECCAK256 ADD SLOAD GT ISZERO PUSH2 0x2649 JUMP JUMPDEST PUSH2 0x1F66 JUMP JUMPDEST MLOAD DUP6 MSTORE DUP8 DUP4 MSTORE PUSH1 0x40 DUP6 KECCAK256 PUSH2 0x104C DUP12 DUP14 PUSH2 0x1F66 JUMP JUMPDEST MLOAD DUP7 MSTORE DUP4 MSTORE DUP6 PUSH1 0x40 DUP7 KECCAK256 SLOAD AND SWAP7 PUSH1 0x40 MLOAD SWAP6 DUP7 DUP1 SWAP5 DUP2 SWAP4 PUSH4 0x23B872DD PUSH1 0xE0 SHL SWAP12 DUP13 DUP5 MSTORE CALLER PUSH1 0x4 DUP6 ADD PUSH2 0x2168 JUMP JUMPDEST SUB SWAP3 GAS CALL SWAP1 DUP2 ISZERO PUSH2 0x1205 JUMPI PUSH2 0x10B3 SWAP3 DUP8 SWAP3 PUSH2 0x11E8 JUMPI JUMPDEST POP DUP4 PUSH1 0x4 SLOAD AND PUSH1 0x1 SWAP6 DUP14 DUP7 DUP9 SLOAD AND SWAP2 PUSH1 0x40 MLOAD SWAP7 DUP8 SWAP6 DUP7 SWAP5 DUP6 SWAP4 DUP5 MSTORE CALLER PUSH1 0x4 DUP6 ADD PUSH2 0x2168 JUMP JUMPDEST SUB SWAP3 GAS CALL DUP1 ISZERO PUSH2 0x11DD JUMPI PUSH2 0x11B0 JUMPI JUMPDEST POP PUSH2 0x10CD DUP6 DUP10 PUSH2 0x1F66 JUMP JUMPDEST MLOAD DUP10 MSTORE DUP3 DUP5 MSTORE PUSH1 0x40 DUP10 KECCAK256 PUSH2 0x10E1 DUP7 DUP9 PUSH2 0x1F66 JUMP JUMPDEST MLOAD DUP11 MSTORE DUP5 MSTORE PUSH1 0x40 DUP10 KECCAK256 SLOAD AND DUP9 MSTORE PUSH2 0x1046 DUP1 DUP5 MSTORE PUSH1 0x40 DUP10 KECCAK256 DUP1 SLOAD SWAP1 PUSH1 0x0 NOT DUP3 ADD SWAP2 DUP3 GT PUSH2 0x119C JUMPI SSTORE CALLER DUP10 MSTORE DUP4 MSTORE PUSH1 0x40 DUP9 KECCAK256 DUP1 SLOAD SWAP2 DUP3 ADD DUP1 SWAP3 GT PUSH2 0x1188 JUMPI SSTORE PUSH1 0x1 SWAP3 SWAP2 SWAP1 PUSH2 0x112D DUP4 DUP9 PUSH2 0x1F66 JUMP JUMPDEST MLOAD DUP9 MSTORE DUP1 DUP3 MSTORE PUSH1 0x40 DUP9 KECCAK256 PUSH2 0x1141 DUP5 DUP8 PUSH2 0x1F66 JUMP JUMPDEST MLOAD DUP10 MSTORE DUP3 MSTORE PUSH1 0x40 DUP9 KECCAK256 CALLER DUP6 DUP1 PUSH1 0xA0 SHL SUB NOT DUP3 SLOAD AND OR SWAP1 SSTORE PUSH2 0x1162 DUP4 DUP9 PUSH2 0x1F66 JUMP JUMPDEST MLOAD DUP9 MSTORE DUP2 MSTORE PUSH1 0x40 DUP8 KECCAK256 SWAP1 PUSH2 0x1176 DUP4 DUP7 PUSH2 0x1F66 JUMP JUMPDEST MLOAD DUP9 MSTORE MSTORE TIMESTAMP PUSH1 0x4 PUSH1 0x40 DUP9 KECCAK256 ADD SSTORE PUSH2 0xE79 JUMP JUMPDEST PUSH4 0x4E487B71 PUSH1 0xE0 SHL DUP10 MSTORE PUSH1 0x11 PUSH1 0x4 MSTORE PUSH1 0x24 DUP10 REVERT JUMPDEST PUSH4 0x4E487B71 PUSH1 0xE0 SHL DUP12 MSTORE PUSH1 0x11 PUSH1 0x4 MSTORE PUSH1 0x24 DUP12 REVERT JUMPDEST PUSH2 0x11CF SWAP1 DUP6 RETURNDATASIZE DUP8 GT PUSH2 0x11D6 JUMPI JUMPDEST PUSH2 0x11C7 DUP2 DUP4 PUSH2 0x1D64 JUMP JUMPDEST DUP2 ADD SWAP1 PUSH2 0x2150 JUMP JUMPDEST POP CODESIZE PUSH2 0x10C2 JUMP JUMPDEST POP RETURNDATASIZE PUSH2 0x11BD JUMP JUMPDEST PUSH1 0x40 MLOAD RETURNDATASIZE DUP13 DUP3 RETURNDATACOPY RETURNDATASIZE SWAP1 REVERT JUMPDEST PUSH2 0x11FE SWAP1 DUP4 RETURNDATASIZE DUP6 GT PUSH2 0x11D6 JUMPI PUSH2 0x11C7 DUP2 DUP4 PUSH2 0x1D64 JUMP JUMPDEST POP CODESIZE PUSH2 0x108E JUMP JUMPDEST PUSH1 0x40 MLOAD RETURNDATASIZE DUP14 DUP3 RETURNDATACOPY RETURNDATASIZE SWAP1 REVERT JUMPDEST SWAP5 SWAP6 SWAP4 POP POP POP POP DUP2 DUP2 RETURNDATASIZE DUP4 GT PUSH2 0x1248 JUMPI JUMPDEST PUSH2 0x122B DUP2 DUP4 PUSH2 0x1D64 JUMP JUMPDEST DUP2 ADD SUB SLT PUSH2 0x1244 JUMPI MLOAD DUP8 SWAP2 SWAP1 DUP10 SWAP1 DUP14 SWAP1 DUP13 PUSH2 0x1033 PUSH2 0xFF2 JUMP JUMPDEST DUP4 DUP1 REVERT JUMPDEST POP RETURNDATASIZE PUSH2 0x1221 JUMP JUMPDEST PUSH1 0x40 MLOAD RETURNDATASIZE DUP7 DUP3 RETURNDATACOPY RETURNDATASIZE SWAP1 REVERT JUMPDEST SWAP3 POP POP POP DUP8 DUP2 DUP2 RETURNDATASIZE DUP4 GT PUSH2 0x1287 JUMPI JUMPDEST PUSH2 0x1273 DUP2 DUP4 PUSH2 0x1D64 JUMP JUMPDEST DUP2 ADD SUB SLT PUSH2 0x1244 JUMPI MLOAD DUP9 SWAP1 DUP13 PUSH2 0xFBD PUSH2 0xF88 JUMP JUMPDEST POP RETURNDATASIZE PUSH2 0x1269 JUMP JUMPDEST DUP1 SWAP9 SWAP8 SWAP7 SWAP6 SWAP5 SWAP4 SWAP3 SWAP2 POP PUSH1 0x4 SLOAD AND PUSH1 0x40 MLOAD SWAP9 PUSH4 0x70A08231 PUSH1 0xE0 SHL DUP11 MSTORE CALLER PUSH1 0x4 DUP12 ADD MSTORE PUSH1 0x24 SWAP10 DUP5 DUP2 DUP13 DUP2 DUP7 GAS STATICCALL DUP1 ISZERO PUSH2 0x11DD JUMPI DUP11 SWAP1 PUSH2 0x14BB JUMPI JUMPDEST PUSH2 0x12FD SWAP2 POP PUSH2 0x12D6 DUP8 DUP12 PUSH2 0x1F66 JUMP JUMPDEST MLOAD DUP12 MSTORE DUP5 DUP7 MSTORE PUSH1 0x40 DUP12 KECCAK256 PUSH2 0x12EA DUP9 DUP11 PUSH2 0x1F66 JUMP JUMPDEST MLOAD DUP13 MSTORE DUP7 MSTORE PUSH1 0x2 PUSH1 0x40 DUP13 KECCAK256 ADD SLOAD LT PUSH2 0x25F1 JUMP JUMPDEST PUSH1 0x40 MLOAD PUSH4 0x6EB1769F PUSH1 0xE1 SHL DUP2 MSTORE CALLER PUSH1 0x4 DUP3 ADD MSTORE ADDRESS PUSH1 0x24 DUP3 ADD MSTORE SWAP2 DUP5 DUP4 PUSH1 0x44 DUP2 DUP5 GAS STATICCALL SWAP3 DUP4 ISZERO PUSH2 0x11DD JUMPI DUP10 DUP12 SWAP4 SWAP3 DUP8 SWAP3 DUP6 SWAP7 PUSH2 0x147E JUMPI JUMPDEST POP PUSH2 0x136F PUSH2 0x13BE SWAP5 SWAP6 SWAP7 PUSH2 0x1347 DUP12 DUP6 PUSH2 0x1F66 JUMP JUMPDEST MLOAD DUP9 MSTORE DUP9 DUP6 MSTORE PUSH1 0x40 DUP9 KECCAK256 PUSH2 0x135B DUP13 DUP15 PUSH2 0x1F66 JUMP JUMPDEST MLOAD DUP10 MSTORE DUP6 MSTORE PUSH1 0x2 PUSH1 0x40 DUP10 KECCAK256 ADD SLOAD GT ISZERO PUSH2 0x2649 JUMP JUMPDEST PUSH1 0x2 PUSH1 0x40 PUSH1 0x1 SWAP8 PUSH2 0x1384 DUP13 DUP10 DUP12 SLOAD AND SWAP7 PUSH2 0x1F66 JUMP JUMPDEST MLOAD DUP2 MSTORE DUP10 DUP7 MSTORE DUP2 DUP2 KECCAK256 PUSH2 0x1397 DUP14 DUP16 PUSH2 0x1F66 JUMP JUMPDEST MLOAD DUP3 MSTORE DUP7 MSTORE KECCAK256 ADD SLOAD SWAP2 DUP14 PUSH1 0x40 MLOAD DUP1 SWAP7 DUP2 SWAP6 DUP3 SWAP5 PUSH4 0x23B872DD PUSH1 0xE0 SHL DUP5 MSTORE CALLER PUSH1 0x4 DUP6 ADD PUSH2 0x2168 JUMP JUMPDEST SUB SWAP3 GAS CALL DUP1 ISZERO PUSH2 0x11DD JUMPI PUSH2 0x1461 JUMPI JUMPDEST POP PUSH2 0x13D8 DUP6 DUP10 PUSH2 0x1F66 JUMP JUMPDEST MLOAD DUP10 MSTORE DUP3 DUP5 MSTORE PUSH1 0x40 DUP10 KECCAK256 PUSH2 0x13EC DUP7 DUP9 PUSH2 0x1F66 JUMP JUMPDEST MLOAD DUP11 MSTORE DUP5 MSTORE PUSH1 0x40 DUP10 KECCAK256 SLOAD AND DUP9 MSTORE PUSH2 0x1046 DUP1 DUP5 MSTORE PUSH1 0x40 DUP10 KECCAK256 DUP1 SLOAD SWAP1 PUSH1 0x0 NOT DUP3 ADD SWAP2 DUP3 GT PUSH2 0x144E JUMPI SSTORE CALLER DUP10 MSTORE DUP4 MSTORE PUSH1 0x40 DUP9 KECCAK256 DUP1 SLOAD SWAP2 DUP3 ADD DUP1 SWAP3 GT PUSH2 0x143B JUMPI PUSH1 0x1 SWAP6 SWAP7 SWAP8 SWAP9 SWAP10 POP SSTORE PUSH2 0x112D DUP4 DUP9 PUSH2 0x1F66 JUMP JUMPDEST PUSH4 0x4E487B71 PUSH1 0xE0 SHL DUP10 MSTORE PUSH1 0x11 PUSH1 0x4 MSTORE DUP10 DUP10 REVERT JUMPDEST PUSH4 0x4E487B71 PUSH1 0xE0 SHL DUP12 MSTORE PUSH1 0x11 PUSH1 0x4 MSTORE DUP12 DUP12 REVERT JUMPDEST PUSH2 0x1477 SWAP1 DUP6 RETURNDATASIZE DUP8 GT PUSH2 0x11D6 JUMPI PUSH2 0x11C7 DUP2 DUP4 PUSH2 0x1D64 JUMP JUMPDEST POP CODESIZE PUSH2 0x13CD JUMP JUMPDEST SWAP4 SWAP6 POP SWAP4 POP POP DUP2 DUP2 RETURNDATASIZE DUP4 GT PUSH2 0x14B4 JUMPI JUMPDEST PUSH2 0x1498 DUP2 DUP4 PUSH2 0x1D64 JUMP JUMPDEST DUP2 ADD SUB SLT PUSH2 0x14B0 JUMPI MLOAD SWAP2 DUP10 SWAP2 DUP6 SWAP1 DUP11 SWAP1 PUSH2 0x136F PUSH2 0x1333 JUMP JUMPDEST DUP10 DUP1 REVERT JUMPDEST POP RETURNDATASIZE PUSH2 0x148E JUMP JUMPDEST POP DUP5 DUP2 DUP2 RETURNDATASIZE DUP4 GT PUSH2 0x14E3 JUMPI JUMPDEST PUSH2 0x14D1 DUP2 DUP4 PUSH2 0x1D64 JUMP JUMPDEST DUP2 ADD SUB SLT PUSH2 0x14B0 JUMPI PUSH2 0x12FD SWAP1 MLOAD PUSH2 0x12C7 JUMP JUMPDEST POP RETURNDATASIZE PUSH2 0x14C7 JUMP JUMPDEST PUSH1 0x40 MLOAD PUSH3 0x461BCD PUSH1 0xE5 SHL DUP2 MSTORE DUP1 PUSH2 0x1503 PUSH1 0x4 DUP3 ADD PUSH2 0x1F90 JUMP JUMPDEST SUB SWAP1 REVERT JUMPDEST PUSH1 0x40 SWAP2 POP LT ISZERO CODESIZE PUSH2 0xDE2 JUMP JUMPDEST PUSH2 0x1CFA JUMP JUMPDEST PUSH2 0x1DB7 JUMP JUMPDEST POP CALLVALUE PUSH2 0x1B0 JUMPI PUSH1 0x20 CALLDATASIZE PUSH1 0x3 NOT ADD SLT PUSH2 0x1B0 JUMPI PUSH1 0x4 CALLDATALOAD PUSH1 0x1 PUSH1 0x1 PUSH1 0xA0 SHL SUB DUP2 DUP2 AND SWAP2 DUP3 SWAP1 SUB PUSH2 0x2B8 JUMPI PUSH2 0x1554 SWAP1 PUSH1 0x1 SLOAD AND CALLER EQ PUSH2 0x26A1 JUMP JUMPDEST PUSH1 0x4 DUP1 SLOAD PUSH1 0x1 PUSH1 0x1 PUSH1 0xA0 SHL SUB NOT AND SWAP2 SWAP1 SWAP2 OR SWAP1 SSTORE DUP1 RETURN JUMPDEST POP CALLVALUE PUSH2 0x1B0 JUMPI DUP1 PUSH1 0x3 NOT CALLDATASIZE ADD SLT PUSH2 0x1B0 JUMPI PUSH1 0x20 PUSH3 0x3F480 PUSH3 0x54600 PUSH2 0x1592 PUSH1 0x3 SLOAD TIMESTAMP PUSH2 0x20E3 JUMP JUMPDEST MOD LT PUSH1 0x40 MLOAD SWAP1 DUP2 MSTORE RETURN JUMPDEST POP CALLVALUE PUSH2 0x1B0 JUMPI DUP1 PUSH1 0x3 NOT CALLDATASIZE ADD SLT PUSH2 0x1B0 JUMPI PUSH1 0x1 SLOAD PUSH1 0x40 MLOAD PUSH1 0x1 PUSH1 0x1 PUSH1 0xA0 SHL SUB SWAP1 SWAP2 AND DUP2 MSTORE PUSH1 0x20 SWAP1 RETURN JUMPDEST POP CALLVALUE PUSH2 0x1B0 JUMPI PUSH1 0x20 CALLDATASIZE PUSH1 0x3 NOT ADD SLT PUSH2 0x1B0 JUMPI PUSH1 0x4 CALLDATALOAD PUSH1 0x1 PUSH1 0x1 PUSH1 0x40 SHL SUB DUP2 GT PUSH2 0x34C JUMPI CALLDATASIZE PUSH1 0x23 DUP3 ADD SLT ISZERO PUSH2 0x34C JUMPI DUP1 PUSH1 0x4 ADD CALLDATALOAD SWAP1 PUSH2 0x1602 DUP3 PUSH2 0x1D85 JUMP JUMPDEST SWAP2 PUSH2 0x1610 PUSH1 0x40 MLOAD SWAP4 DUP5 PUSH2 0x1D64 JUMP JUMPDEST DUP1 DUP4 MSTORE PUSH1 0x24 PUSH1 0x20 DUP5 ADD SWAP2 PUSH1 0x5 SHL DUP4 ADD ADD SWAP2 CALLDATASIZE DUP4 GT PUSH2 0xB9D JUMPI PUSH1 0x24 DUP2 ADD SWAP2 JUMPDEST DUP4 DUP4 LT PUSH2 0x1ACC JUMPI DUP6 DUP6 PUSH3 0x3F480 PUSH3 0x54600 PUSH2 0x164B PUSH1 0x3 SLOAD TIMESTAMP PUSH2 0x20E3 JUMP JUMPDEST MOD LT ISZERO PUSH2 0x1A7C JUMPI DUP1 MLOAD SWAP1 PUSH1 0x40 MLOAD SWAP1 PUSH2 0x820 DUP3 ADD DUP3 DUP2 LT PUSH1 0x1 PUSH1 0x1 PUSH1 0x40 SHL SUB DUP3 GT OR PUSH2 0x299 JUMPI PUSH1 0x40 MSTORE PUSH1 0x40 DUP3 MSTORE PUSH2 0x800 CALLDATASIZE PUSH1 0x20 DUP5 ADD CALLDATACOPY DUP4 JUMPDEST DUP4 DUP2 LT PUSH2 0x1764 JUMPI DUP5 DUP4 DUP2 JUMPDEST PUSH1 0x40 DUP2 LT PUSH2 0x1699 JUMPI DUP3 DUP1 RETURN JUMPDEST PUSH2 0x16A3 DUP2 DUP4 PUSH2 0x1F66 JUMP JUMPDEST MLOAD PUSH2 0x16B1 JUMPI JUMPDEST PUSH1 0x1 ADD PUSH2 0x168D JUMP JUMPDEST PUSH1 0x40 MLOAD PUSH2 0x16BD DUP2 PUSH2 0x1D49 JUMP JUMPDEST DUP4 DUP2 MSTORE PUSH1 0x6 DUP3 DUP2 SHL PUSH1 0x1 PUSH1 0x1 PUSH1 0xFA SHL SUB DUP5 AND DUP5 SUB PUSH2 0x910 JUMPI DUP1 PUSH1 0x40 ADD SWAP1 DUP2 PUSH1 0x40 GT PUSH2 0xEBA JUMPI SWAP2 SWAP1 JUMPDEST DUP1 DUP4 LT PUSH2 0x1707 JUMPI POP POP POP SWAP1 PUSH2 0x1700 PUSH1 0x1 SWAP3 DUP3 PUSH2 0x1006 ADD PUSH2 0x1FC1 JUMP JUMPDEST SWAP1 POP PUSH2 0x16A9 JUMP JUMPDEST SWAP1 SWAP2 SWAP3 PUSH2 0x1000 DUP5 LT ISZERO PUSH2 0x1750 JUMPI PUSH1 0x20 PUSH2 0x1743 PUSH2 0x1749 SWAP3 PUSH2 0x790 PUSH1 0x40 MLOAD SWAP4 DUP3 PUSH2 0x1738 DUP7 SWAP5 MLOAD DUP1 SWAP3 DUP5 DUP1 DUP9 ADD SWAP2 ADD PUSH2 0x1C33 JUMP JUMPDEST DUP4 ADD ADD DUP9 DUP9 ADD PUSH2 0x2FCB JUMP JUMPDEST SWAP4 PUSH2 0x1F57 JUMP JUMPDEST SWAP2 SWAP1 PUSH2 0x16E5 JUMP JUMPDEST PUSH4 0x4E487B71 PUSH1 0xE0 SHL DUP8 MSTORE PUSH1 0x32 PUSH1 0x4 MSTORE PUSH1 0x24 DUP8 REVERT JUMPDEST PUSH2 0x176E DUP2 DUP4 PUSH2 0x1F66 JUMP JUMPDEST MLOAD DUP1 MLOAD DUP2 ADD DUP2 PUSH1 0x20 DUP3 ADD SWAP2 PUSH1 0x80 SWAP2 DUP3 SWAP2 SUB SLT PUSH2 0x1A78 JUMPI PUSH1 0x20 DUP4 ADD MLOAD SWAP2 PUSH1 0x40 DUP5 ADD MLOAD SWAP4 PUSH1 0x60 DUP2 ADD MLOAD SWAP3 DUP2 ADD MLOAD SWAP1 PUSH1 0x1 PUSH1 0x1 PUSH1 0x40 SHL SUB DUP3 GT PUSH2 0x1A74 JUMPI ADD DUP2 PUSH1 0x3F DUP3 ADD SLT ISZERO PUSH2 0x14B0 JUMPI PUSH1 0x20 DUP2 ADD MLOAD PUSH2 0x17C2 DUP2 PUSH2 0x1D9C JUMP JUMPDEST SWAP3 PUSH2 0x17D0 PUSH1 0x40 MLOAD SWAP5 DUP6 PUSH2 0x1D64 JUMP JUMPDEST DUP2 DUP5 MSTORE PUSH1 0x40 DUP3 DUP5 ADD ADD GT PUSH2 0x1A74 JUMPI PUSH2 0x17EF SWAP2 PUSH1 0x40 PUSH1 0x20 DUP6 ADD SWAP2 ADD PUSH2 0x1C33 JUMP JUMPDEST PUSH1 0x40 DUP4 LT DUP1 ISZERO SWAP1 PUSH2 0x1A69 JUMPI JUMPDEST PUSH2 0x14EA JUMPI PUSH1 0xA DUP3 LT ISZERO PUSH2 0x1A2B JUMPI DUP3 DUP10 MSTORE PUSH1 0x5 PUSH1 0x20 MSTORE PUSH1 0x40 DUP10 KECCAK256 DUP5 DUP11 MSTORE PUSH1 0x20 MSTORE PUSH1 0xFF PUSH1 0x5 PUSH1 0x40 DUP12 KECCAK256 ADD SLOAD AND PUSH2 0x19CE JUMPI DUP3 DUP10 MSTORE PUSH1 0x5 PUSH1 0x20 SWAP1 DUP2 MSTORE PUSH1 0x40 DUP1 DUP12 KECCAK256 DUP7 DUP13 MSTORE SWAP1 SWAP2 MSTORE DUP10 KECCAK256 SLOAD PUSH1 0x1 PUSH1 0x1 PUSH1 0xA0 SHL SUB AND CALLER EQ PUSH2 0x1863 JUMPI JUMPDEST POP POP POP POP PUSH2 0x185E SWAP1 PUSH2 0x1F57 JUMP JUMPDEST PUSH2 0x1682 JUMP JUMPDEST PUSH2 0x1885 SWAP1 DUP4 DUP11 MSTORE PUSH1 0x5 PUSH1 0x20 MSTORE PUSH1 0x40 DUP11 KECCAK256 DUP6 DUP12 MSTORE PUSH1 0x20 MSTORE PUSH1 0x3 PUSH1 0x40 DUP12 KECCAK256 ADD PUSH2 0x1FC1 JUMP JUMPDEST DUP2 DUP9 MSTORE PUSH1 0x5 PUSH1 0x20 MSTORE PUSH1 0x40 DUP9 KECCAK256 DUP4 DUP10 MSTORE PUSH1 0x20 MSTORE PUSH1 0x1 PUSH1 0x40 DUP10 KECCAK256 ADD SSTORE DUP1 DUP3 PUSH2 0x197A JUMPI JUMPDEST DUP2 DUP9 MSTORE PUSH1 0x5 PUSH1 0x20 MSTORE PUSH1 0x40 DUP9 KECCAK256 DUP4 DUP10 MSTORE PUSH1 0x20 MSTORE PUSH1 0x1 PUSH1 0x40 DUP10 KECCAK256 ADD SLOAD PUSH1 0x9 DUP1 DUP5 MUL DUP5 DUP2 DIV DUP3 EQ DUP6 ISZERO OR ISZERO PUSH2 0x119C JUMPI DUP2 DUP7 MUL SWAP2 DUP7 DUP4 DIV EQ DUP7 ISZERO OR ISZERO PUSH2 0x119C JUMPI SWAP1 PUSH2 0x190E SWAP3 SWAP2 PUSH2 0x1908 PUSH1 0x3 PUSH1 0x40 DUP15 DUP10 DUP2 MSTORE PUSH1 0x5 PUSH1 0x20 MSTORE DUP2 DUP2 KECCAK256 DUP12 DUP3 MSTORE PUSH1 0x20 MSTORE KECCAK256 ADD PUSH2 0x1EB1 JUMP JUMPDEST SWAP3 PUSH2 0x286E JUMP JUMPDEST SWAP1 PUSH2 0x1000 DUP2 LT ISZERO PUSH2 0x1966 JUMPI PUSH2 0x185E SWAP5 SWAP4 SWAP3 SWAP2 PUSH2 0x192C SWAP2 PUSH1 0x6 ADD PUSH2 0x1FC1 JUMP JUMPDEST PUSH1 0x1 PUSH2 0x1938 DUP4 DUP9 PUSH2 0x1F66 JUMP JUMPDEST MSTORE PUSH32 0xA9A418DA632D42C446A125F10B007831BA0E348168B6B2474A2383AC5DF4C280 DUP9 DUP1 LOG3 SWAP1 DUP7 DUP1 DUP1 PUSH2 0x1851 JUMP JUMPDEST PUSH4 0x4E487B71 PUSH1 0xE0 SHL DUP10 MSTORE PUSH1 0x32 PUSH1 0x4 MSTORE PUSH1 0x24 DUP10 REVERT JUMPDEST POP PUSH2 0x1985 DUP3 DUP3 PUSH2 0x20D0 JUMP JUMPDEST PUSH1 0x40 DUP3 DUP2 SUB GT PUSH2 0x19BA JUMPI DUP3 PUSH1 0x0 NOT DUP2 ADD GT PUSH2 0x19BA JUMPI PUSH2 0x19B5 SWAP1 PUSH2 0x19AF PUSH1 0x0 NOT DUP6 ADD DUP5 PUSH1 0x40 SUB PUSH2 0x20D0 JUMP JUMPDEST SWAP1 PUSH2 0x1CD7 JUMP JUMPDEST PUSH2 0x18A6 JUMP JUMPDEST PUSH4 0x4E487B71 PUSH1 0xE0 SHL DUP9 MSTORE PUSH1 0x11 PUSH1 0x4 MSTORE PUSH1 0x24 DUP9 REVERT JUMPDEST PUSH1 0x40 MLOAD PUSH3 0x461BCD PUSH1 0xE5 SHL DUP2 MSTORE PUSH1 0x20 PUSH1 0x4 DUP3 ADD MSTORE PUSH1 0x2F PUSH1 0x24 DUP3 ADD MSTORE PUSH32 0x6F776E6572207761732061736B656420746F20666972737420736574746C6520 PUSH1 0x44 DUP3 ADD MSTORE PUSH15 0x1C9BDE585B1D1E481C185E5B595B9D PUSH1 0x8A SHL PUSH1 0x64 DUP3 ADD MSTORE PUSH1 0x84 SWAP1 REVERT JUMPDEST PUSH1 0x40 MLOAD PUSH3 0x461BCD PUSH1 0xE5 SHL DUP2 MSTORE PUSH1 0x20 PUSH1 0x4 DUP3 ADD MSTORE PUSH1 0x16 PUSH1 0x24 DUP3 ADD MSTORE PUSH22 0x7368617065204944206E6F7420617661696C61626C65 PUSH1 0x50 SHL PUSH1 0x44 DUP3 ADD MSTORE PUSH1 0x64 SWAP1 REVERT JUMPDEST POP PUSH1 0x40 DUP5 LT ISZERO PUSH2 0x17FB JUMP JUMPDEST DUP11 DUP1 REVERT JUMPDEST DUP8 DUP1 REVERT JUMPDEST PUSH1 0x40 MLOAD PUSH3 0x461BCD PUSH1 0xE5 SHL DUP2 MSTORE PUSH1 0x20 PUSH1 0x4 DUP3 ADD MSTORE PUSH1 0x22 PUSH1 0x24 DUP3 ADD MSTORE PUSH32 0x417274697374696320706572696F642063757272656E746C79206E6F74206F70 PUSH1 0x44 DUP3 ADD MSTORE PUSH2 0x32B7 PUSH1 0xF1 SHL PUSH1 0x64 DUP3 ADD MSTORE PUSH1 0x84 SWAP1 REVERT JUMPDEST DUP3 CALLDATALOAD PUSH1 0x1 PUSH1 0x1 PUSH1 0x40 SHL SUB DUP2 GT PUSH2 0x1B33 JUMPI DUP3 ADD CALLDATASIZE PUSH1 0x43 DUP3 ADD SLT ISZERO PUSH2 0x1B33 JUMPI PUSH1 0x24 DUP2 ADD CALLDATALOAD SWAP2 PUSH2 0x1AF8 DUP4 PUSH2 0x1D9C JUMP JUMPDEST PUSH2 0x1B05 PUSH1 0x40 MLOAD SWAP2 DUP3 PUSH2 0x1D64 JUMP JUMPDEST DUP4 DUP2 MSTORE DUP9 PUSH1 0x44 CALLDATASIZE DUP2 DUP8 DUP8 ADD ADD GT PUSH2 0x34C JUMPI DUP6 PUSH1 0x20 SWAP7 DUP8 SWAP7 SWAP3 DUP8 SWAP4 ADD DUP4 DUP7 ADD CALLDATACOPY DUP4 ADD ADD MSTORE DUP2 MSTORE ADD SWAP3 ADD SWAP2 PUSH2 0x162E JUMP JUMPDEST DUP7 DUP1 REVERT JUMPDEST POP CALLVALUE PUSH2 0x1B0 JUMPI PUSH1 0x20 CALLDATASIZE PUSH1 0x3 NOT ADD SLT PUSH2 0x1B0 JUMPI PUSH1 0x40 DUP1 SWAP2 PUSH1 0x4 CALLDATALOAD DUP2 MSTORE PUSH2 0x1047 PUSH1 0x20 MSTORE KECCAK256 PUSH1 0x1 DUP2 SLOAD SWAP2 ADD SLOAD DUP3 MLOAD SWAP2 DUP3 MSTORE PUSH1 0x20 DUP3 ADD MSTORE RETURN JUMPDEST POP CALLVALUE PUSH2 0x1B0 JUMPI DUP1 PUSH1 0x3 NOT CALLDATASIZE ADD SLT PUSH2 0x1B0 JUMPI PUSH1 0x20 PUSH1 0x40 MLOAD PUSH3 0x54600 DUP2 MSTORE RETURN JUMPDEST POP CALLVALUE PUSH2 0x1B0 JUMPI PUSH1 0x20 CALLDATASIZE PUSH1 0x3 NOT ADD SLT PUSH2 0x1B0 JUMPI PUSH1 0x4 CALLDATALOAD PUSH1 0x1 PUSH1 0x1 PUSH1 0xA0 SHL SUB DUP2 AND SWAP1 DUP2 SWAP1 SUB PUSH2 0x34C JUMPI PUSH1 0x40 PUSH1 0x20 SWAP3 PUSH1 0xFF SWAP3 PUSH3 0x54600 PUSH2 0x1BC9 PUSH1 0x3 SLOAD TIMESTAMP PUSH2 0x20E3 JUMP JUMPDEST DIV DUP3 MSTORE PUSH2 0x1047 DUP6 MSTORE PUSH1 0x2 DUP4 DUP4 KECCAK256 ADD SWAP1 DUP3 MSTORE DUP5 MSTORE KECCAK256 SLOAD AND PUSH1 0x40 MLOAD SWAP1 ISZERO ISZERO DUP2 MSTORE RETURN JUMPDEST POP CALLVALUE PUSH2 0x1B0 JUMPI PUSH2 0x3AE PUSH2 0x1C04 PUSH2 0x1BFE CALLDATASIZE PUSH2 0x1C18 JUMP JUMPDEST SWAP1 PUSH2 0x273A JUMP JUMPDEST PUSH1 0x40 MLOAD SWAP2 DUP3 SWAP2 PUSH1 0x20 DUP4 MSTORE PUSH1 0x20 DUP4 ADD SWAP1 PUSH2 0x1C7B JUMP JUMPDEST PUSH1 0x40 SWAP1 PUSH1 0x3 NOT ADD SLT PUSH2 0x1C2E JUMPI PUSH1 0x4 CALLDATALOAD SWAP1 PUSH1 0x24 CALLDATALOAD SWAP1 JUMP JUMPDEST PUSH1 0x0 DUP1 REVERT JUMPDEST PUSH1 0x0 JUMPDEST DUP4 DUP2 LT PUSH2 0x1C46 JUMPI POP POP PUSH1 0x0 SWAP2 ADD MSTORE JUMP JUMPDEST DUP2 DUP2 ADD MLOAD DUP4 DUP3 ADD MSTORE PUSH1 0x20 ADD PUSH2 0x1C36 JUMP JUMPDEST SWAP1 PUSH1 0x20 SWAP2 PUSH2 0x1C6F DUP2 MLOAD DUP1 SWAP3 DUP2 DUP6 MSTORE DUP6 DUP1 DUP7 ADD SWAP2 ADD PUSH2 0x1C33 JUMP JUMPDEST PUSH1 0x1F ADD PUSH1 0x1F NOT AND ADD ADD SWAP1 JUMP JUMPDEST SWAP1 PUSH1 0x1 DUP1 PUSH1 0xA0 SHL SUB DUP3 MLOAD AND DUP2 MSTORE PUSH1 0x20 DUP3 ADD MLOAD PUSH1 0x20 DUP3 ADD MSTORE PUSH1 0x40 DUP3 ADD MLOAD PUSH1 0x40 DUP3 ADD MSTORE PUSH1 0xC0 DUP1 PUSH2 0x1CB8 PUSH1 0x60 DUP6 ADD MLOAD PUSH1 0xE0 PUSH1 0x60 DUP7 ADD MSTORE PUSH1 0xE0 DUP6 ADD SWAP1 PUSH2 0x1C56 JUMP JUMPDEST SWAP4 PUSH1 0x80 DUP2 ADD MLOAD PUSH1 0x80 DUP6 ADD MSTORE PUSH1 0xA0 DUP2 ADD MLOAD ISZERO ISZERO PUSH1 0xA0 DUP6 ADD MSTORE ADD MLOAD SWAP2 ADD MSTORE SWAP1 JUMP JUMPDEST SWAP2 SWAP1 DUP3 ADD DUP1 SWAP3 GT PUSH2 0x1CE4 JUMPI JUMP JUMPDEST PUSH4 0x4E487B71 PUSH1 0xE0 SHL PUSH1 0x0 MSTORE PUSH1 0x11 PUSH1 0x4 MSTORE PUSH1 0x24 PUSH1 0x0 REVERT JUMPDEST CALLVALUE PUSH2 0x1C2E JUMPI PUSH1 0x0 CALLDATASIZE PUSH1 0x3 NOT ADD SLT PUSH2 0x1C2E JUMPI PUSH1 0x20 PUSH1 0x40 MLOAD PUSH3 0x3F480 DUP2 MSTORE RETURN JUMPDEST PUSH1 0xE0 DUP2 ADD SWAP1 DUP2 LT PUSH1 0x1 PUSH1 0x1 PUSH1 0x40 SHL SUB DUP3 GT OR PUSH2 0x1D33 JUMPI PUSH1 0x40 MSTORE JUMP JUMPDEST PUSH4 0x4E487B71 PUSH1 0xE0 SHL PUSH1 0x0 MSTORE PUSH1 0x41 PUSH1 0x4 MSTORE PUSH1 0x24 PUSH1 0x0 REVERT JUMPDEST PUSH1 0x20 DUP2 ADD SWAP1 DUP2 LT PUSH1 0x1 PUSH1 0x1 PUSH1 0x40 SHL SUB DUP3 GT OR PUSH2 0x1D33 JUMPI PUSH1 0x40 MSTORE JUMP JUMPDEST SWAP1 PUSH1 0x1F DUP1 NOT SWAP2 ADD AND DUP2 ADD SWAP1 DUP2 LT PUSH1 0x1 PUSH1 0x1 PUSH1 0x40 SHL SUB DUP3 GT OR PUSH2 0x1D33 JUMPI PUSH1 0x40 MSTORE JUMP JUMPDEST PUSH1 0x1 PUSH1 0x1 PUSH1 0x40 SHL SUB DUP2 GT PUSH2 0x1D33 JUMPI PUSH1 0x5 SHL PUSH1 0x20 ADD SWAP1 JUMP JUMPDEST PUSH1 0x1 PUSH1 0x1 PUSH1 0x40 SHL SUB DUP2 GT PUSH2 0x1D33 JUMPI PUSH1 0x1F ADD PUSH1 0x1F NOT AND PUSH1 0x20 ADD SWAP1 JUMP JUMPDEST CALLVALUE PUSH2 0x1C2E JUMPI PUSH1 0x0 CALLDATASIZE PUSH1 0x3 NOT ADD SLT PUSH2 0x1C2E JUMPI PUSH1 0x20 PUSH1 0x40 MLOAD PUSH1 0x40 DUP2 MSTORE RETURN JUMPDEST DUP2 PUSH1 0x1F DUP3 ADD SLT ISZERO PUSH2 0x1C2E JUMPI DUP1 CALLDATALOAD SWAP2 PUSH2 0x1DEA DUP4 PUSH2 0x1D85 JUMP JUMPDEST SWAP3 PUSH2 0x1DF8 PUSH1 0x40 MLOAD SWAP5 DUP6 PUSH2 0x1D64 JUMP JUMPDEST DUP1 DUP5 MSTORE PUSH1 0x20 SWAP3 DUP4 DUP1 DUP7 ADD SWAP3 PUSH1 0x5 SHL DUP3 ADD ADD SWAP3 DUP4 GT PUSH2 0x1C2E JUMPI DUP4 ADD SWAP1 JUMPDEST DUP3 DUP3 LT PUSH2 0x1E22 JUMPI POP POP POP POP SWAP1 JUMP JUMPDEST DUP2 CALLDATALOAD DUP2 MSTORE SWAP1 DUP4 ADD SWAP1 DUP4 ADD PUSH2 0x1E14 JUMP JUMPDEST SWAP1 PUSH1 0x40 PUSH1 0x3 NOT DUP4 ADD SLT PUSH2 0x1C2E JUMPI PUSH1 0x1 PUSH1 0x1 PUSH1 0x40 SHL SUB PUSH1 0x4 CALLDATALOAD DUP2 DUP2 GT PUSH2 0x1C2E JUMPI DUP4 PUSH2 0x1E5D SWAP2 PUSH1 0x4 ADD PUSH2 0x1DD3 JUMP JUMPDEST SWAP3 PUSH1 0x24 CALLDATALOAD SWAP2 DUP3 GT PUSH2 0x1C2E JUMPI PUSH2 0x1E74 SWAP2 PUSH1 0x4 ADD PUSH2 0x1DD3 JUMP JUMPDEST SWAP1 JUMP JUMPDEST SWAP1 PUSH1 0x1 DUP3 DUP2 SHR SWAP3 AND DUP1 ISZERO PUSH2 0x1EA7 JUMPI JUMPDEST PUSH1 0x20 DUP4 LT EQ PUSH2 0x1E91 JUMPI JUMP JUMPDEST PUSH4 0x4E487B71 PUSH1 0xE0 SHL PUSH1 0x0 MSTORE PUSH1 0x22 PUSH1 0x4 MSTORE PUSH1 0x24 PUSH1 0x0 REVERT JUMPDEST SWAP2 PUSH1 0x7F AND SWAP2 PUSH2 0x1E86 JUMP JUMPDEST SWAP1 PUSH1 0x40 MLOAD SWAP2 DUP3 PUSH1 0x0 DUP3 SLOAD SWAP3 PUSH2 0x1EC5 DUP5 PUSH2 0x1E77 JUMP JUMPDEST SWAP1 DUP2 DUP5 MSTORE PUSH1 0x1 SWAP5 DUP6 DUP2 AND SWAP1 DUP2 PUSH1 0x0 EQ PUSH2 0x1F34 JUMPI POP PUSH1 0x1 EQ PUSH2 0x1EF1 JUMPI JUMPDEST POP POP PUSH2 0x1EEF SWAP3 POP SUB DUP4 PUSH2 0x1D64 JUMP JUMPDEST JUMP JUMPDEST SWAP1 SWAP4 SWAP2 POP PUSH1 0x0 MSTORE PUSH1 0x20 SWAP1 DUP2 PUSH1 0x0 KECCAK256 SWAP4 PUSH1 0x0 SWAP2 JUMPDEST DUP2 DUP4 LT PUSH2 0x1F1C JUMPI POP POP PUSH2 0x1EEF SWAP4 POP DUP3 ADD ADD CODESIZE DUP1 PUSH2 0x1EE1 JUMP JUMPDEST DUP6 SLOAD DUP9 DUP5 ADD DUP6 ADD MSTORE SWAP5 DUP6 ADD SWAP5 DUP8 SWAP5 POP SWAP2 DUP4 ADD SWAP2 PUSH2 0x1F04 JUMP JUMPDEST SWAP2 POP POP PUSH2 0x1EEF SWAP5 POP PUSH1 0x20 SWAP3 POP PUSH1 0xFF NOT AND DUP3 DUP5 ADD MSTORE ISZERO ISZERO PUSH1 0x5 SHL DUP3 ADD ADD CODESIZE DUP1 PUSH2 0x1EE1 JUMP JUMPDEST PUSH1 0x0 NOT DUP2 EQ PUSH2 0x1CE4 JUMPI PUSH1 0x1 ADD SWAP1 JUMP JUMPDEST DUP1 MLOAD DUP3 LT ISZERO PUSH2 0x1F7A JUMPI PUSH1 0x20 SWAP2 PUSH1 0x5 SHL ADD ADD SWAP1 JUMP JUMPDEST PUSH4 0x4E487B71 PUSH1 0xE0 SHL PUSH1 0x0 MSTORE PUSH1 0x32 PUSH1 0x4 MSTORE PUSH1 0x24 PUSH1 0x0 REVERT JUMPDEST PUSH1 0x60 SWAP1 PUSH1 0x20 DUP2 MSTORE PUSH1 0x16 PUSH1 0x20 DUP3 ADD MSTORE PUSH22 0x706978656C206973206F7574206F6620626F756E6473 PUSH1 0x50 SHL PUSH1 0x40 DUP3 ADD MSTORE ADD SWAP1 JUMP JUMPDEST SWAP2 SWAP1 SWAP2 DUP3 MLOAD PUSH1 0x1 PUSH1 0x1 PUSH1 0x40 SHL SUB DUP2 GT PUSH2 0x1D33 JUMPI PUSH2 0x1FDE DUP3 SLOAD PUSH2 0x1E77 JUMP JUMPDEST PUSH1 0x1F DUP2 GT PUSH2 0x2088 JUMPI JUMPDEST POP PUSH1 0x20 DUP1 PUSH1 0x1F DUP4 GT PUSH1 0x1 EQ PUSH2 0x2024 JUMPI POP DUP2 SWAP3 SWAP4 SWAP5 PUSH1 0x0 SWAP3 PUSH2 0x2019 JUMPI JUMPDEST POP POP DUP2 PUSH1 0x1 SHL SWAP2 PUSH1 0x0 NOT SWAP1 PUSH1 0x3 SHL SHR NOT AND OR SWAP1 SSTORE JUMP JUMPDEST ADD MLOAD SWAP1 POP CODESIZE DUP1 PUSH2 0x2003 JUMP JUMPDEST SWAP1 PUSH1 0x1F NOT DUP4 AND SWAP6 DUP5 PUSH1 0x0 MSTORE DUP3 PUSH1 0x0 KECCAK256 SWAP3 PUSH1 0x0 SWAP1 JUMPDEST DUP9 DUP3 LT PUSH2 0x2070 JUMPI POP POP DUP4 PUSH1 0x1 SWAP6 SWAP7 SWAP8 LT PUSH2 0x2057 JUMPI JUMPDEST POP POP POP DUP2 SHL ADD SWAP1 SSTORE JUMP JUMPDEST ADD MLOAD PUSH1 0x0 NOT PUSH1 0xF8 DUP5 PUSH1 0x3 SHL AND SHR NOT AND SWAP1 SSTORE CODESIZE DUP1 DUP1 PUSH2 0x204D JUMP JUMPDEST DUP1 PUSH1 0x1 DUP6 SWAP7 DUP3 SWAP5 SWAP7 DUP7 ADD MLOAD DUP2 SSTORE ADD SWAP6 ADD SWAP4 ADD SWAP1 PUSH2 0x2038 JUMP JUMPDEST PUSH1 0x0 DUP4 DUP2 MSTORE PUSH1 0x20 DUP2 KECCAK256 PUSH1 0x1F DUP5 ADD PUSH1 0x5 SHR DUP2 ADD SWAP3 PUSH1 0x20 DUP6 LT PUSH2 0x20C6 JUMPI JUMPDEST PUSH1 0x1F ADD PUSH1 0x5 SHR ADD SWAP2 JUMPDEST DUP3 DUP2 LT PUSH2 0x20BB JUMPI POP POP PUSH2 0x1FE7 JUMP JUMPDEST DUP2 DUP2 SSTORE PUSH1 0x1 ADD PUSH2 0x20AD JUMP JUMPDEST SWAP1 SWAP3 POP DUP3 SWAP1 PUSH2 0x20A4 JUMP JUMPDEST DUP2 DUP2 MUL SWAP3 SWAP2 DUP2 ISZERO SWAP2 DUP5 DIV EQ OR ISZERO PUSH2 0x1CE4 JUMPI JUMP JUMPDEST SWAP2 SWAP1 DUP3 SUB SWAP2 DUP3 GT PUSH2 0x1CE4 JUMPI JUMP JUMPDEST ISZERO PUSH2 0x20F7 JUMPI JUMP JUMPDEST PUSH1 0x40 MLOAD PUSH3 0x461BCD PUSH1 0xE5 SHL DUP2 MSTORE PUSH1 0x20 PUSH1 0x4 DUP3 ADD MSTORE PUSH1 0x2B PUSH1 0x24 DUP3 ADD MSTORE PUSH32 0x7820616E64207920696E7075742061727261797320617265206F662076617269 PUSH1 0x44 DUP3 ADD MSTORE PUSH11 0x6F7573206C656E67746873 PUSH1 0xA8 SHL PUSH1 0x64 DUP3 ADD MSTORE PUSH1 0x84 SWAP1 REVERT JUMPDEST SWAP1 DUP2 PUSH1 0x20 SWAP2 SUB SLT PUSH2 0x1C2E JUMPI MLOAD DUP1 ISZERO ISZERO DUP2 SUB PUSH2 0x1C2E JUMPI SWAP1 JUMP JUMPDEST PUSH1 0x1 PUSH1 0x1 PUSH1 0xA0 SHL SUB SWAP2 DUP3 AND DUP2 MSTORE SWAP2 AND PUSH1 0x20 DUP3 ADD MSTORE PUSH1 0x40 DUP2 ADD SWAP2 SWAP1 SWAP2 MSTORE PUSH1 0x60 ADD SWAP1 JUMP JUMPDEST SWAP2 SWAP1 SWAP2 PUSH2 0x219A DUP2 MLOAD DUP5 MLOAD EQ PUSH2 0x20F0 JUMP JUMPDEST DUP1 MLOAD PUSH1 0x0 SWAP4 JUMPDEST DUP2 DUP6 LT PUSH2 0x21AE JUMPI POP POP POP SWAP1 POP JUMP JUMPDEST PUSH2 0x21B8 DUP6 DUP5 PUSH2 0x1F66 JUMP JUMPDEST MLOAD SWAP5 PUSH2 0x21C4 DUP2 DUP4 PUSH2 0x1F66 JUMP JUMPDEST MLOAD PUSH1 0x40 DUP1 DUP1 SWAP9 LT SWAP2 DUP3 ISZERO SWAP3 PUSH2 0x25E6 JUMPI JUMPDEST POP POP PUSH2 0x25CE JUMPI PUSH2 0x21E4 DUP2 DUP6 PUSH2 0x1F66 JUMP JUMPDEST MLOAD PUSH1 0x0 MSTORE PUSH1 0x5 PUSH1 0x20 SWAP1 DUP1 DUP3 MSTORE DUP8 PUSH1 0x0 KECCAK256 PUSH2 0x21FE DUP5 DUP7 PUSH2 0x1F66 JUMP JUMPDEST MLOAD PUSH1 0x0 MSTORE DUP3 MSTORE PUSH1 0x1 DUP1 PUSH1 0xA0 SHL SUB SWAP8 CALLER DUP10 DUP3 PUSH1 0x0 KECCAK256 SLOAD AND SUB PUSH2 0x2580 JUMPI PUSH2 0x2223 DUP5 DUP9 PUSH2 0x1F66 JUMP JUMPDEST MLOAD PUSH1 0x0 MSTORE DUP2 DUP4 MSTORE DUP1 PUSH1 0x0 KECCAK256 PUSH2 0x2238 DUP6 DUP8 PUSH2 0x1F66 JUMP JUMPDEST MLOAD PUSH1 0x0 MSTORE DUP4 MSTORE PUSH1 0x4 TIMESTAMP DUP2 DUP4 PUSH1 0x0 KECCAK256 ADD SLOAD SUB PUSH2 0x2269 JUMPI JUMPDEST POP POP POP POP PUSH2 0x2260 SWAP2 SWAP3 SWAP4 SWAP5 SWAP6 POP PUSH2 0x1F57 JUMP JUMPDEST SWAP4 SWAP3 SWAP2 SWAP1 PUSH2 0x21A0 JUMP JUMPDEST PUSH2 0x2281 PUSH2 0x2276 DUP7 DUP11 PUSH2 0x1F66 JUMP JUMPDEST MLOAD PUSH2 0xEE6 DUP8 DUP10 PUSH2 0x1F66 JUMP JUMPDEST SWAP10 DUP1 DUP3 SLOAD AND SWAP1 DUP4 MLOAD PUSH4 0x70A08231 PUSH1 0xE0 SHL DUP2 MSTORE CALLER DUP5 DUP3 ADD MSTORE PUSH1 0x24 SWAP1 DUP8 DUP2 DUP4 DUP2 DUP8 GAS STATICCALL SWAP1 DUP2 ISZERO PUSH2 0x24F4 JUMPI SWAP1 DUP15 SWAP2 PUSH1 0x0 SWAP2 PUSH2 0x2550 JUMPI JUMPDEST POP LT PUSH2 0x24FF JUMPI DUP5 MLOAD PUSH4 0x6EB1769F PUSH1 0xE1 SHL DUP2 MSTORE CALLER DUP6 DUP3 ADD SWAP1 DUP2 MSTORE ADDRESS PUSH1 0x20 DUP3 ADD MSTORE DUP9 SWAP1 DUP3 SWAP1 DUP2 SWAP1 PUSH1 0x40 ADD SUB DUP2 DUP8 GAS STATICCALL SWAP1 DUP2 ISZERO PUSH2 0x24F4 JUMPI SWAP1 DUP15 SWAP2 PUSH1 0x0 SWAP2 PUSH2 0x24C4 JUMPI JUMPDEST POP LT PUSH2 0x2473 JUMPI POP DUP6 SWAP2 PUSH2 0x2323 SWAP2 PUSH1 0x1 SLOAD AND SWAP13 PUSH1 0x0 DUP7 MLOAD SWAP15 DUP16 SWAP5 DUP6 SWAP4 DUP5 SWAP3 PUSH4 0x23B872DD PUSH1 0xE0 SHL DUP5 MSTORE CALLER DUP11 DUP6 ADD PUSH2 0x2168 JUMP JUMPDEST SUB SWAP3 GAS CALL SWAP10 DUP11 ISZERO PUSH2 0x2468 JUMPI PUSH2 0x2260 SWAP7 SWAP8 SWAP9 SWAP10 SWAP11 PUSH2 0x244B JUMPI JUMPDEST POP PUSH2 0x2346 DUP6 DUP11 PUSH2 0x1F66 JUMP JUMPDEST MLOAD PUSH1 0x0 MSTORE DUP3 DUP5 MSTORE DUP2 PUSH1 0x0 KECCAK256 PUSH2 0x235B DUP7 DUP10 PUSH2 0x1F66 JUMP JUMPDEST MLOAD PUSH1 0x0 MSTORE DUP5 MSTORE TIMESTAMP SWAP1 DUP3 PUSH1 0x0 KECCAK256 ADD SSTORE PUSH2 0x2373 DUP5 DUP10 PUSH2 0x1F66 JUMP JUMPDEST MLOAD PUSH1 0x0 MSTORE DUP2 DUP4 MSTORE DUP1 PUSH1 0x0 KECCAK256 PUSH2 0x2388 DUP6 DUP9 PUSH2 0x1F66 JUMP JUMPDEST MLOAD PUSH1 0x0 MSTORE DUP4 MSTORE PUSH1 0xFF DUP3 DUP3 PUSH1 0x0 KECCAK256 ADD SLOAD AND PUSH2 0x23E9 JUMPI JUMPDEST POP POP POP PUSH2 0x23AA DUP2 DUP7 PUSH2 0x1F66 JUMP JUMPDEST MLOAD PUSH2 0x23B5 DUP3 DUP6 PUSH2 0x1F66 JUMP JUMPDEST MLOAD SWAP1 PUSH32 0xE61AF2269C9AFBDB69EFCE2B15F2A464F8EE6237F105B3D4024F2E824A9F0AF3 PUSH1 0x0 DUP1 LOG3 DUP6 SWAP5 SWAP4 SWAP3 SWAP2 CODESIZE DUP1 DUP1 PUSH2 0x224E JUMP JUMPDEST PUSH1 0x0 SWAP3 PUSH1 0x6 SWAP3 PUSH2 0x23F9 DUP7 DUP12 PUSH2 0x1F66 JUMP JUMPDEST MLOAD DUP6 MSTORE DUP1 DUP3 MSTORE DUP3 DUP6 KECCAK256 PUSH2 0x240C DUP8 DUP11 PUSH2 0x1F66 JUMP JUMPDEST MLOAD DUP7 MSTORE DUP3 MSTORE DUP3 DUP6 KECCAK256 DUP2 ADD DUP1 SLOAD PUSH1 0xFF NOT AND SWAP1 SSTORE PUSH2 0x2428 DUP7 DUP12 PUSH2 0x1F66 JUMP JUMPDEST MLOAD DUP6 MSTORE DUP2 MSTORE DUP2 DUP5 KECCAK256 SWAP1 PUSH2 0x243B DUP7 DUP10 PUSH2 0x1F66 JUMP JUMPDEST MLOAD DUP6 MSTORE MSTORE DUP3 KECCAK256 ADD SSTORE CODESIZE DUP1 DUP1 PUSH2 0x239D JUMP JUMPDEST PUSH2 0x2461 SWAP1 DUP6 RETURNDATASIZE DUP8 GT PUSH2 0x11D6 JUMPI PUSH2 0x11C7 DUP2 DUP4 PUSH2 0x1D64 JUMP JUMPDEST POP CODESIZE PUSH2 0x233B JUMP JUMPDEST DUP3 MLOAD RETURNDATASIZE PUSH1 0x0 DUP3 RETURNDATACOPY RETURNDATASIZE SWAP1 REVERT JUMPDEST DUP4 PUSH1 0x27 PUSH1 0x84 SWAP3 DUP10 DUP9 MLOAD SWAP4 PUSH3 0x461BCD PUSH1 0xE5 SHL DUP6 MSTORE DUP5 ADD MSTORE DUP3 ADD MSTORE PUSH32 0x696E73756666696369656E7420616C6C6F77616E636520746F2070617920726F PUSH1 0x44 DUP3 ADD MSTORE PUSH7 0x79616C74696573 PUSH1 0xC8 SHL PUSH1 0x64 DUP3 ADD MSTORE REVERT JUMPDEST SWAP2 POP DUP9 DUP3 DUP2 RETURNDATASIZE DUP4 GT PUSH2 0x24ED JUMPI JUMPDEST PUSH2 0x24DB DUP2 DUP4 PUSH2 0x1D64 JUMP JUMPDEST DUP2 ADD SUB SLT PUSH2 0x1B0 JUMPI POP DUP14 SWAP1 MLOAD CODESIZE PUSH2 0x22F3 JUMP JUMPDEST POP RETURNDATASIZE PUSH2 0x24D1 JUMP JUMPDEST DUP7 MLOAD RETURNDATASIZE PUSH1 0x0 DUP3 RETURNDATACOPY RETURNDATASIZE SWAP1 REVERT JUMPDEST DUP4 PUSH1 0x27 PUSH1 0x84 SWAP3 DUP10 DUP9 MLOAD SWAP4 PUSH3 0x461BCD PUSH1 0xE5 SHL DUP6 MSTORE DUP5 ADD MSTORE DUP3 ADD MSTORE PUSH32 0x6E6F742073756666696369656E742062616C616E636520746F2070617920726F PUSH1 0x44 DUP3 ADD MSTORE PUSH7 0x79616C74696573 PUSH1 0xC8 SHL PUSH1 0x64 DUP3 ADD MSTORE REVERT JUMPDEST SWAP2 POP DUP9 DUP3 DUP2 RETURNDATASIZE DUP4 GT PUSH2 0x2579 JUMPI JUMPDEST PUSH2 0x2567 DUP2 DUP4 PUSH2 0x1D64 JUMP JUMPDEST DUP2 ADD SUB SLT PUSH2 0x1B0 JUMPI POP DUP14 SWAP1 MLOAD CODESIZE PUSH2 0x22B4 JUMP JUMPDEST POP RETURNDATASIZE PUSH2 0x255D JUMP JUMPDEST MLOAD PUSH3 0x461BCD PUSH1 0xE5 SHL DUP2 MSTORE PUSH1 0x4 DUP2 ADD DUP4 SWAP1 MSTORE PUSH1 0x22 PUSH1 0x24 DUP3 ADD MSTORE PUSH32 0x6F6E6C7920706978656C206F776E65722063616E2070617920726F79616C7469 PUSH1 0x44 DUP3 ADD MSTORE PUSH2 0x6573 PUSH1 0xF0 SHL PUSH1 0x64 DUP3 ADD MSTORE PUSH1 0x84 SWAP1 REVERT JUMPDEST DUP6 MLOAD PUSH3 0x461BCD PUSH1 0xE5 SHL DUP2 MSTORE DUP1 PUSH2 0x1503 PUSH1 0x4 DUP3 ADD PUSH2 0x1F90 JUMP JUMPDEST LT ISZERO SWAP1 POP DUP7 CODESIZE PUSH2 0x21D4 JUMP JUMPDEST ISZERO PUSH2 0x25F8 JUMPI JUMP JUMPDEST PUSH1 0x40 MLOAD PUSH3 0x461BCD PUSH1 0xE5 SHL DUP2 MSTORE PUSH1 0x20 PUSH1 0x4 DUP3 ADD MSTORE PUSH1 0x23 PUSH1 0x24 DUP3 ADD MSTORE PUSH32 0x6E6F742073756666696369656E742062616C616E636520746F20627579207069 PUSH1 0x44 DUP3 ADD MSTORE PUSH3 0x1E195B PUSH1 0xEA SHL PUSH1 0x64 DUP3 ADD MSTORE PUSH1 0x84 SWAP1 REVERT JUMPDEST ISZERO PUSH2 0x2650 JUMPI JUMP JUMPDEST PUSH1 0x40 MLOAD PUSH3 0x461BCD PUSH1 0xE5 SHL DUP2 MSTORE PUSH1 0x20 PUSH1 0x4 DUP3 ADD MSTORE PUSH1 0x23 PUSH1 0x24 DUP3 ADD MSTORE PUSH32 0x696E73756666696369656E7420616C6C6F77616E636520746F20627579207069 PUSH1 0x44 DUP3 ADD MSTORE PUSH3 0x1E195B PUSH1 0xEA SHL PUSH1 0x64 DUP3 ADD MSTORE PUSH1 0x84 SWAP1 REVERT JUMPDEST ISZERO PUSH2 0x26A8 JUMPI JUMP JUMPDEST PUSH1 0x40 MLOAD PUSH3 0x461BCD PUSH1 0xE5 SHL DUP2 MSTORE PUSH1 0x20 PUSH1 0x4 DUP3 ADD MSTORE PUSH1 0x2C PUSH1 0x24 DUP3 ADD MSTORE PUSH32 0x6F776E65722063757272656E74206D616E616765722063616E2063616C6C2074 PUSH1 0x44 DUP3 ADD MSTORE PUSH12 0x3434B990333AB731BA34B7B7 PUSH1 0xA1 SHL PUSH1 0x64 DUP3 ADD MSTORE PUSH1 0x84 SWAP1 REVERT JUMPDEST PUSH1 0x40 MLOAD SWAP1 PUSH2 0x270F DUP3 PUSH2 0x1D18 JUMP JUMPDEST DUP2 PUSH1 0xC0 PUSH1 0x0 SWAP2 DUP3 DUP2 MSTORE DUP3 PUSH1 0x20 DUP3 ADD MSTORE DUP3 PUSH1 0x40 DUP3 ADD MSTORE PUSH1 0x60 DUP1 DUP3 ADD MSTORE DUP3 PUSH1 0x80 DUP3 ADD MSTORE DUP3 PUSH1 0xA0 DUP3 ADD MSTORE ADD MSTORE JUMP JUMPDEST SWAP1 PUSH2 0x2743 PUSH2 0x2702 JUMP JUMPDEST POP PUSH1 0x40 SWAP2 DUP3 DUP2 LT DUP1 PUSH2 0x2808 JUMPI JUMPDEST ISZERO PUSH2 0x27CE JUMPI PUSH1 0x0 MSTORE PUSH1 0x5 PUSH1 0x20 MSTORE DUP2 PUSH1 0x0 KECCAK256 SWAP1 PUSH1 0x0 MSTORE PUSH1 0x20 MSTORE PUSH1 0x6 DUP2 PUSH1 0x0 KECCAK256 DUP3 MLOAD SWAP3 PUSH2 0x277A DUP5 PUSH2 0x1D18 JUMP JUMPDEST DUP2 SLOAD PUSH1 0x1 PUSH1 0x1 PUSH1 0xA0 SHL SUB AND DUP5 MSTORE PUSH1 0x1 DUP3 ADD SLOAD PUSH1 0x20 DUP6 ADD MSTORE PUSH1 0x2 DUP3 ADD SLOAD SWAP1 DUP5 ADD MSTORE PUSH2 0x27A6 PUSH1 0x3 DUP3 ADD PUSH2 0x1EB1 JUMP JUMPDEST PUSH1 0x60 DUP5 ADD MSTORE PUSH1 0x4 DUP2 ADD SLOAD PUSH1 0x80 DUP5 ADD MSTORE PUSH1 0xFF PUSH1 0x5 DUP3 ADD SLOAD AND ISZERO ISZERO PUSH1 0xA0 DUP5 ADD MSTORE ADD SLOAD PUSH1 0xC0 DUP3 ADD MSTORE SWAP1 JUMP JUMPDEST DUP3 MLOAD PUSH3 0x461BCD PUSH1 0xE5 SHL DUP2 MSTORE PUSH1 0x20 PUSH1 0x4 DUP3 ADD MSTORE PUSH1 0x13 PUSH1 0x24 DUP3 ADD MSTORE PUSH19 0x706978656C206F7574206F6620626F756E6473 PUSH1 0x68 SHL PUSH1 0x44 DUP3 ADD MSTORE PUSH1 0x64 SWAP1 REVERT JUMPDEST POP DUP3 DUP3 LT PUSH2 0x2750 JUMP JUMPDEST PUSH2 0x2861 PUSH2 0x286A SWAP2 PUSH1 0x2 PUSH1 0x40 PUSH5 0x73DF16000 SWAP6 PUSH1 0x0 SWAP1 DUP5 DUP3 MSTORE PUSH1 0x5 PUSH1 0x20 MSTORE DUP3 DUP3 KECCAK256 DUP2 DUP4 MSTORE PUSH1 0x20 MSTORE PUSH2 0x2847 PUSH1 0x4 DUP5 DUP5 KECCAK256 ADD SLOAD TIMESTAMP PUSH2 0x20E3 JUMP JUMPDEST SWAP5 DUP3 MSTORE PUSH1 0x5 PUSH1 0x20 MSTORE DUP3 DUP3 KECCAK256 SWAP1 DUP3 MSTORE PUSH1 0x20 MSTORE KECCAK256 ADD SLOAD SWAP1 PUSH2 0x20D0 JUMP JUMPDEST PUSH1 0x2 SLOAD SWAP1 PUSH2 0x20D0 JUMP JUMPDEST DIV SWAP1 JUMP JUMPDEST SWAP2 SWAP3 SWAP1 SWAP3 DUP3 ISZERO PUSH2 0x2F0F JUMPI PUSH1 0x1 DUP4 EQ PUSH2 0x2E40 JUMPI PUSH1 0x2 DUP4 EQ PUSH2 0x2E16 JUMPI PUSH1 0x3 DUP4 EQ PUSH2 0x2DBA JUMPI PUSH1 0x4 SWAP3 DUP4 DUP2 EQ PUSH2 0x2D66 JUMPI PUSH1 0x5 DUP2 EQ PUSH2 0x2C09 JUMPI PUSH1 0x6 DUP2 EQ PUSH2 0x2BB7 JUMPI PUSH1 0x7 DUP2 EQ PUSH2 0x2B50 JUMPI PUSH1 0x8 DUP2 EQ PUSH2 0x2A6D JUMPI PUSH1 0x9 EQ PUSH2 0x28D8 JUMPI POP POP POP POP PUSH1 0x40 MLOAD PUSH2 0x28D1 DUP2 PUSH2 0x1D49 JUMP JUMPDEST PUSH1 0x0 DUP2 MSTORE SWAP1 JUMP JUMPDEST PUSH2 0x28E1 DUP5 PUSH2 0x304E JUMP JUMPDEST SWAP1 PUSH2 0x28EB DUP2 PUSH2 0x304E JUMP JUMPDEST PUSH1 0x8 DUP7 ADD DUP1 DUP8 GT PUSH2 0x2A58 JUMPI PUSH2 0x28FF SWAP1 PUSH2 0x304E JUMP JUMPDEST SWAP5 PUSH1 0x8 DUP4 ADD DUP1 SWAP4 GT PUSH2 0x2A43 JUMPI POP SWAP2 PUSH2 0x2A27 DUP3 PUSH2 0x1E74 SWAP7 SWAP5 PUSH2 0x2934 PUSH2 0x292E PUSH2 0x2928 PUSH1 0x49 SWAP10 SWAP8 PUSH2 0x304E JUMP JUMPDEST SWAP11 PUSH2 0x304E JUMP JUMPDEST SWAP3 PUSH2 0x304E JUMP JUMPDEST SWAP2 PUSH1 0x40 MLOAD SWAP10 DUP11 SWAP8 PUSH1 0x2A PUSH2 0x2964 DUP11 PUSH1 0x20 SWAP10 PUSH10 0x3C7061746820643D224D PUSH1 0xB0 SHL DUP12 DUP4 ADD MSTORE DUP11 DUP2 MLOAD SWAP5 DUP6 SWAP4 ADD SWAP2 ADD PUSH2 0x1C33 JUMP JUMPDEST DUP10 ADD SWAP4 PUSH1 0x1 PUSH1 0xFD SHL SWAP5 DUP6 PUSH1 0x2A DUP3 ADD MSTORE PUSH2 0x2986 DUP3 MLOAD DUP1 SWAP4 DUP12 PUSH1 0x2B DUP6 ADD SWAP2 ADD PUSH2 0x1C33 JUMP JUMPDEST ADD PUSH12 0x10209C101C1018101810189 PUSH1 0xA5 SHL PUSH1 0x2B DUP3 ADD MSTORE PUSH2 0x29AF DUP3 MLOAD DUP1 SWAP4 DUP11 PUSH1 0x37 DUP6 ADD SWAP2 ADD PUSH2 0x1C33 JUMP JUMPDEST ADD DUP4 PUSH1 0x37 DUP3 ADD MSTORE PUSH2 0x29C9 DUP3 MLOAD DUP1 SWAP4 DUP10 PUSH1 0x38 DUP6 ADD SWAP2 ADD PUSH2 0x1C33 JUMP JUMPDEST ADD PUSH2 0x813 PUSH1 0xF2 SHL PUSH1 0x38 DUP3 ADD MSTORE PUSH2 0x29E8 DUP3 MLOAD DUP1 SWAP4 DUP9 PUSH1 0x3A DUP6 ADD SWAP2 ADD PUSH2 0x1C33 JUMP JUMPDEST ADD SWAP1 PUSH1 0x3A DUP3 ADD MSTORE PUSH2 0x2A02 DUP3 MLOAD DUP1 SWAP4 DUP7 PUSH1 0x3B DUP6 ADD SWAP2 ADD PUSH2 0x1C33 JUMP JUMPDEST ADD SWAP2 PUSH10 0x102D11103334B6361E91 PUSH1 0xB1 SHL PUSH1 0x3B DUP5 ADD MSTORE DUP4 MLOAD SWAP4 DUP5 SWAP2 PUSH1 0x45 DUP6 ADD SWAP2 ADD PUSH2 0x1C33 JUMP JUMPDEST ADD PUSH4 0x1110179F PUSH1 0xE1 SHL PUSH1 0x45 DUP3 ADD MSTORE SUB PUSH1 0x29 DUP2 ADD DUP5 MSTORE ADD DUP3 PUSH2 0x1D64 JUMP JUMPDEST PUSH1 0x11 SWAP1 PUSH4 0x4E487B71 PUSH1 0xE0 SHL PUSH1 0x0 MSTORE MSTORE PUSH1 0x24 PUSH1 0x0 REVERT JUMPDEST PUSH1 0x11 DUP7 PUSH4 0x4E487B71 PUSH1 0xE0 SHL PUSH1 0x0 MSTORE MSTORE PUSH1 0x24 PUSH1 0x0 REVERT JUMPDEST POP SWAP3 PUSH1 0x8 DUP2 ADD SWAP4 DUP5 DUP3 GT PUSH2 0x2B3B JUMPI PUSH2 0x2A84 DUP6 PUSH2 0x304E JUMP JUMPDEST SWAP2 PUSH2 0x2A97 PUSH2 0x2A91 DUP4 PUSH2 0x304E JUMP JUMPDEST SWAP2 PUSH2 0x304E JUMP JUMPDEST SWAP5 PUSH1 0x8 DUP4 ADD DUP1 SWAP4 GT PUSH2 0x2A43 JUMPI POP SWAP2 PUSH2 0x2A27 DUP3 PUSH2 0x1E74 SWAP7 SWAP5 PUSH2 0x2AC0 PUSH2 0x292E PUSH2 0x2928 PUSH1 0x49 SWAP10 SWAP8 PUSH2 0x304E JUMP JUMPDEST SWAP2 PUSH1 0x40 MLOAD SWAP10 DUP11 SWAP8 PUSH1 0x2A PUSH2 0x2AF0 DUP11 PUSH1 0x20 SWAP10 PUSH10 0x3C7061746820643D224D PUSH1 0xB0 SHL DUP12 DUP4 ADD MSTORE DUP11 DUP2 MLOAD SWAP5 DUP6 SWAP4 ADD SWAP2 ADD PUSH2 0x1C33 JUMP JUMPDEST DUP10 ADD SWAP4 PUSH1 0x1 PUSH1 0xFD SHL SWAP5 DUP6 PUSH1 0x2A DUP3 ADD MSTORE PUSH2 0x2B12 DUP3 MLOAD DUP1 SWAP4 DUP12 PUSH1 0x2B DUP6 ADD SWAP2 ADD PUSH2 0x1C33 JUMP JUMPDEST ADD PUSH12 0x10209C101C1018101810181 PUSH1 0xA5 SHL PUSH1 0x2B DUP3 ADD MSTORE PUSH2 0x29AF DUP3 MLOAD DUP1 SWAP4 DUP11 PUSH1 0x37 DUP6 ADD SWAP2 ADD PUSH2 0x1C33 JUMP JUMPDEST PUSH1 0x11 DUP5 PUSH4 0x4E487B71 PUSH1 0xE0 SHL PUSH1 0x0 MSTORE MSTORE PUSH1 0x24 PUSH1 0x0 REVERT JUMPDEST POP PUSH2 0x2B5A DUP5 PUSH2 0x304E JUMP JUMPDEST SWAP1 PUSH2 0x2B64 DUP2 PUSH2 0x304E JUMP JUMPDEST PUSH1 0x8 DUP7 ADD DUP1 SWAP7 GT PUSH2 0x2BA2 JUMPI PUSH2 0x2B78 DUP7 PUSH2 0x304E JUMP JUMPDEST SWAP5 PUSH1 0x8 DUP4 ADD SWAP1 DUP2 DUP5 GT PUSH2 0x2A43 JUMPI POP PUSH1 0x49 SWAP5 SWAP3 PUSH2 0x1E74 SWAP7 SWAP5 SWAP3 PUSH2 0x2AC0 PUSH2 0x292E PUSH2 0x2928 PUSH2 0x2A27 SWAP6 PUSH2 0x304E JUMP JUMPDEST PUSH1 0x11 DUP6 PUSH4 0x4E487B71 PUSH1 0xE0 SHL PUSH1 0x0 MSTORE MSTORE PUSH1 0x24 PUSH1 0x0 REVERT JUMPDEST POP PUSH2 0x2BC1 DUP5 PUSH2 0x304E JUMP JUMPDEST SWAP1 PUSH1 0x8 DUP2 ADD DUP1 DUP3 GT PUSH2 0x2BA2 JUMPI PUSH2 0x2BD6 SWAP1 PUSH2 0x304E JUMP JUMPDEST SWAP4 PUSH1 0x8 DUP7 ADD SWAP1 DUP2 DUP8 GT PUSH2 0x2A43 JUMPI POP SWAP2 PUSH2 0x2A27 PUSH1 0x49 SWAP5 SWAP3 PUSH2 0x2BF9 PUSH2 0x1E74 SWAP8 SWAP6 PUSH2 0x304E JUMP JUMPDEST SWAP5 PUSH2 0x2AC0 PUSH2 0x292E PUSH2 0x2928 DUP5 PUSH2 0x304E JUMP JUMPDEST POP SWAP3 PUSH2 0x2C14 DUP2 PUSH2 0x304E JUMP JUMPDEST SWAP1 PUSH1 0x8 DUP6 ADD SWAP1 DUP2 DUP7 GT PUSH2 0x2BA2 JUMPI PUSH2 0x2C2A DUP3 PUSH2 0x304E JUMP JUMPDEST SWAP1 PUSH2 0x2C3D PUSH2 0x2C37 DUP3 PUSH2 0x304E JUMP JUMPDEST SWAP8 PUSH2 0x304E JUMP JUMPDEST SWAP6 PUSH1 0x8 DUP3 ADD DUP1 SWAP3 GT PUSH2 0x2A43 JUMPI POP PUSH1 0x3F SWAP5 SWAP3 PUSH2 0x1E74 SWAP7 SWAP5 SWAP3 PUSH2 0x2C63 PUSH2 0x292E PUSH2 0x2D4A SWAP5 PUSH2 0x304E JUMP JUMPDEST SWAP2 PUSH1 0x40 MLOAD SWAP10 DUP11 SWAP8 PUSH1 0x2A PUSH2 0x2C93 DUP11 PUSH1 0x20 SWAP10 PUSH10 0x3C7061746820643D224D PUSH1 0xB0 SHL DUP12 DUP4 ADD MSTORE DUP11 DUP2 MLOAD SWAP5 DUP6 SWAP4 ADD SWAP2 ADD PUSH2 0x1C33 JUMP JUMPDEST DUP10 ADD SWAP4 PUSH1 0x1 PUSH1 0xFD SHL SWAP5 DUP6 PUSH1 0x2A DUP3 ADD MSTORE PUSH2 0x2CB5 DUP3 MLOAD DUP1 SWAP4 DUP12 PUSH1 0x2B DUP6 ADD SWAP2 ADD PUSH2 0x1C33 JUMP JUMPDEST ADD SWAP2 PUSH2 0x813 PUSH1 0xF2 SHL SWAP3 DUP4 PUSH1 0x2B DUP3 ADD MSTORE PUSH2 0x2CD7 DUP3 MLOAD DUP1 SWAP4 DUP12 PUSH1 0x2D DUP6 ADD SWAP2 ADD PUSH2 0x1C33 JUMP JUMPDEST ADD DUP5 PUSH1 0x2D DUP3 ADD MSTORE PUSH2 0x2CF1 DUP3 MLOAD DUP1 SWAP4 DUP11 PUSH1 0x2E DUP6 ADD SWAP2 ADD PUSH2 0x1C33 JUMP JUMPDEST ADD SWAP1 PUSH1 0x2E DUP3 ADD MSTORE PUSH2 0x2D0B DUP3 MLOAD DUP1 SWAP4 DUP9 PUSH1 0x30 DUP6 ADD SWAP2 ADD PUSH2 0x1C33 JUMP JUMPDEST ADD SWAP1 PUSH1 0x30 DUP3 ADD MSTORE PUSH2 0x2D25 DUP3 MLOAD DUP1 SWAP4 DUP7 PUSH1 0x31 DUP6 ADD SWAP2 ADD PUSH2 0x1C33 JUMP JUMPDEST ADD SWAP2 PUSH10 0x103D11103334B6361E91 PUSH1 0xB1 SHL PUSH1 0x31 DUP5 ADD MSTORE DUP4 MLOAD SWAP4 DUP5 SWAP2 PUSH1 0x3B DUP6 ADD SWAP2 ADD PUSH2 0x1C33 JUMP JUMPDEST ADD PUSH4 0x1110179F PUSH1 0xE1 SHL PUSH1 0x3B DUP3 ADD MSTORE SUB PUSH1 0x1F DUP2 ADD DUP5 MSTORE ADD DUP3 PUSH2 0x1D64 JUMP JUMPDEST POP SWAP3 SWAP2 PUSH1 0x8 DUP4 ADD SWAP1 DUP2 DUP5 GT PUSH2 0x2A43 JUMPI PUSH2 0x2D7E DUP3 PUSH2 0x304E JUMP JUMPDEST SWAP2 PUSH1 0x8 DUP7 ADD SWAP2 DUP3 DUP8 GT PUSH2 0x2A43 JUMPI POP SWAP2 PUSH2 0x2D4A DUP3 PUSH2 0x1E74 SWAP7 SWAP5 PUSH2 0x2C63 PUSH2 0x292E PUSH2 0x2C37 PUSH2 0x2DB4 PUSH2 0x2DAE PUSH1 0x3F SWAP12 SWAP10 PUSH2 0x304E JUMP JUMPDEST SWAP5 PUSH2 0x304E JUMP JUMPDEST SWAP12 PUSH2 0x304E JUMP JUMPDEST SWAP2 POP PUSH2 0x2DC5 DUP4 PUSH2 0x304E JUMP JUMPDEST SWAP3 PUSH2 0x2DCF DUP4 PUSH2 0x304E JUMP JUMPDEST SWAP2 PUSH1 0x8 DUP3 ADD DUP1 SWAP3 GT PUSH2 0x1CE4 JUMPI PUSH2 0x2DE4 DUP3 PUSH2 0x304E JUMP JUMPDEST SWAP5 PUSH2 0x2DF7 PUSH2 0x2DF1 DUP7 PUSH2 0x304E JUMP JUMPDEST SWAP4 PUSH2 0x304E JUMP JUMPDEST SWAP5 PUSH1 0x8 DUP2 ADD DUP1 SWAP2 GT PUSH2 0x1CE4 JUMPI PUSH2 0x1E74 SWAP6 PUSH1 0x3F SWAP6 PUSH2 0x2C63 PUSH2 0x2D4A SWAP4 PUSH2 0x304E JUMP JUMPDEST SWAP2 POP PUSH2 0x2E21 DUP4 PUSH2 0x304E JUMP JUMPDEST SWAP3 PUSH2 0x2E2B DUP4 PUSH2 0x304E JUMP JUMPDEST SWAP2 PUSH1 0x8 DUP3 ADD DUP1 DUP4 GT PUSH2 0x1CE4 JUMPI PUSH2 0x2DE4 SWAP1 PUSH2 0x304E JUMP JUMPDEST SWAP2 POP SWAP2 PUSH1 0x4 DUP2 ADD DUP1 SWAP2 GT PUSH2 0x1CE4 JUMPI PUSH2 0x2E57 SWAP1 PUSH2 0x304E JUMP JUMPDEST SWAP1 PUSH1 0x4 DUP2 ADD DUP1 SWAP2 GT PUSH2 0x1CE4 JUMPI PUSH2 0x1E74 SWAP2 PUSH2 0x2E72 PUSH1 0x44 SWAP3 PUSH2 0x304E JUMP JUMPDEST SWAP4 PUSH1 0x40 MLOAD SWAP5 DUP6 SWAP3 PUSH12 0x1E31B4B931B6329031BC1E91 PUSH1 0xA1 SHL PUSH1 0x20 DUP6 ADD MSTORE PUSH2 0x2EA2 DUP2 MLOAD DUP1 SWAP3 PUSH1 0x20 PUSH1 0x2C DUP9 ADD SWAP2 ADD PUSH2 0x1C33 JUMP JUMPDEST DUP4 ADD PUSH6 0x111031BC9E91 PUSH1 0xD1 SHL PUSH1 0x2C DUP3 ADD MSTORE PUSH2 0x2EC7 DUP3 MLOAD DUP1 SWAP4 PUSH1 0x20 PUSH1 0x32 DUP6 ADD SWAP2 ADD PUSH2 0x1C33 JUMP JUMPDEST ADD PUSH14 0x1110391E911A11103334B6361E91 PUSH1 0x91 SHL PUSH1 0x32 DUP3 ADD MSTORE PUSH2 0x2EF3 DUP3 MLOAD DUP1 SWAP4 PUSH1 0x20 PUSH1 0x40 DUP6 ADD SWAP2 ADD PUSH2 0x1C33 JUMP JUMPDEST ADD PUSH4 0x1110179F PUSH1 0xE1 SHL PUSH1 0x40 DUP3 ADD MSTORE SUB PUSH1 0x24 DUP2 ADD DUP5 MSTORE ADD DUP3 PUSH2 0x1D64 JUMP JUMPDEST PUSH2 0x1E74 SWAP3 POP PUSH2 0x2F23 PUSH2 0x2A91 PUSH1 0x4F SWAP4 SWAP6 PUSH2 0x304E JUMP JUMPDEST SWAP4 PUSH1 0x40 MLOAD SWAP5 DUP6 SWAP3 PUSH9 0x1E3932B1BA103C1E91 PUSH1 0xB9 SHL PUSH1 0x20 DUP6 ADD MSTORE PUSH2 0x2F50 DUP2 MLOAD DUP1 SWAP3 PUSH1 0x20 PUSH1 0x29 DUP9 ADD SWAP2 ADD PUSH2 0x1C33 JUMP JUMPDEST DUP4 ADD PUSH5 0x11103C9E91 PUSH1 0xD9 SHL PUSH1 0x29 DUP3 ADD MSTORE PUSH2 0x2F74 DUP3 MLOAD DUP1 SWAP4 PUSH1 0x20 PUSH1 0x2E DUP6 ADD SWAP2 ADD PUSH2 0x1C33 JUMP JUMPDEST ADD PUSH32 0x222077696474683D223822206865696768743D2238222066696C6C3D22000000 PUSH1 0x2E DUP3 ADD MSTORE PUSH2 0x2FAF DUP3 MLOAD DUP1 SWAP4 PUSH1 0x20 PUSH1 0x4B DUP6 ADD SWAP2 ADD PUSH2 0x1C33 JUMP JUMPDEST ADD PUSH4 0x1110179F PUSH1 0xE1 SHL PUSH1 0x4B DUP3 ADD MSTORE SUB PUSH1 0x2F DUP2 ADD DUP5 MSTORE ADD DUP3 PUSH2 0x1D64 JUMP JUMPDEST PUSH1 0x0 SWAP3 SWAP2 DUP2 SLOAD PUSH2 0x2FDA DUP2 PUSH2 0x1E77 JUMP JUMPDEST SWAP3 PUSH1 0x1 SWAP2 DUP1 DUP4 AND SWAP1 DUP2 ISZERO PUSH2 0x3033 JUMPI POP PUSH1 0x1 EQ PUSH2 0x2FF7 JUMPI JUMPDEST POP POP POP POP JUMP JUMPDEST SWAP1 SWAP2 SWAP3 SWAP4 SWAP5 POP PUSH1 0x0 MSTORE PUSH1 0x20 SWAP1 DUP2 PUSH1 0x0 KECCAK256 SWAP1 PUSH1 0x0 SWAP2 JUMPDEST DUP6 DUP4 LT PUSH2 0x3022 JUMPI POP POP POP POP ADD SWAP1 CODESIZE DUP1 DUP1 DUP1 PUSH2 0x2FF1 JUMP JUMPDEST DUP1 SLOAD DUP6 DUP5 ADD MSTORE SWAP2 DUP4 ADD SWAP2 DUP2 ADD PUSH2 0x300C JUMP JUMPDEST PUSH1 0xFF NOT AND DUP5 MSTORE POP POP POP DUP2 ISZERO ISZERO SWAP1 SWAP2 MUL ADD SWAP2 POP CODESIZE DUP1 DUP1 DUP1 PUSH2 0x2FF1 JUMP JUMPDEST DUP1 ISZERO PUSH2 0x3110 JUMPI DUP1 DUP2 PUSH1 0x0 SWAP3 JUMPDEST PUSH2 0x30FC JUMPI POP PUSH2 0x3068 DUP3 PUSH2 0x1D9C JUMP JUMPDEST SWAP2 PUSH2 0x3076 PUSH1 0x40 MLOAD SWAP4 DUP5 PUSH2 0x1D64 JUMP JUMPDEST DUP1 DUP4 MSTORE DUP2 PUSH1 0x1F NOT PUSH2 0x3086 DUP4 PUSH2 0x1D9C JUMP JUMPDEST ADD SWAP2 PUSH1 0x20 SWAP3 CALLDATASIZE DUP5 DUP8 ADD CALLDATACOPY SWAP3 JUMPDEST PUSH2 0x309C JUMPI POP POP POP SWAP1 JUMP JUMPDEST PUSH1 0x0 NOT DUP4 ADD SWAP3 DUP4 GT PUSH2 0x1CE4 JUMPI DUP3 PUSH1 0xA DUP1 DUP4 DIV SWAP3 DUP2 DUP5 MUL SWAP2 DUP5 DUP4 DIV EQ DUP5 ISZERO OR ISZERO PUSH2 0x1CE4 JUMPI PUSH2 0x30CC PUSH1 0xFF SWAP3 DUP4 SWAP3 PUSH2 0x20E3 JUMP JUMPDEST AND PUSH1 0x30 ADD SWAP1 DUP2 GT PUSH2 0x1CE4 JUMPI DUP6 MLOAD DUP3 LT ISZERO PUSH2 0x1F7A JUMPI PUSH1 0xF8 SHL PUSH1 0x1 PUSH1 0x1 PUSH1 0xF8 SHL SUB NOT AND PUSH1 0x0 BYTE SWAP1 DUP6 ADD DUP4 ADD MSTORE8 DUP1 PUSH2 0x3092 JUMP JUMPDEST SWAP2 PUSH2 0x3108 PUSH1 0xA SWAP2 PUSH2 0x1F57 JUMP JUMPDEST SWAP3 DIV DUP1 PUSH2 0x305A JUMP JUMPDEST POP PUSH1 0x40 MLOAD PUSH1 0x40 DUP2 ADD DUP2 DUP2 LT PUSH1 0x1 PUSH1 0x1 PUSH1 0x40 SHL SUB DUP3 GT OR PUSH2 0x1D33 JUMPI PUSH1 0x40 MSTORE PUSH1 0x1 DUP2 MSTORE PUSH1 0x3 PUSH1 0xFC SHL PUSH1 0x20 DUP3 ADD MSTORE SWAP1 JUMP INVALID LOG2 PUSH5 0x6970667358 0x22 SLT KECCAK256 MLOAD 0xBE 0xE8 0xD2 0xE3 PUSH7 0x66B5F3F55B5D9A DIV 0x4D CODESIZE MULMOD EXP 0xB6 SWAP16 LT 0x5E 0xB6 0xA8 0xB7 DUP1 SSTORE NOT SHR 0x49 PUSH4 0x5664736F PUSH13 0x63430008140033000000000000 "},"methodIdentifiers":{"ARTISTIC_PERIOD()":"3323a706","CYCLE_PERIOD()":"113bc999","VOTING_PERIOD()":"b1610d7e","balanceOf(address)":"70a08231","buyPixel(uint256[],uint256[])":"6ed958f1","calculateRoyalties(uint256,uint256)":"d08629c1","canvasCreation()":"ff188dca","castVote(bool)":"7ace48e7","checkMultiplePixel(uint256[],uint256[])":"c7eab2ec","checkPixel(uint256,uint256)":"040cdfd8","checkVoteOutcome()":"fe91f6eb","fillPixel(bytes[])":"3bdb693e","generateSVG()":"ad711e9e","getBalance(address)":"f8b2cb4f","getCurrentCycle()":"be26ed7f","hasVoted(address)":"09eef43e","isInArtisticPeriod()":"4882a7ea","isInVotingPeriod()":"b3a1ddf4","manager()":"481c6a75","maxHeight()":"63aa5ce2","maxWidth()":"6006ecc8","nftContract()":"d56d229d","payRoyalties(uint256[],uint256[])":"e50eb5da","pixelSVGs(uint256)":"c4e4b90c","rowSVGs(uint256)":"e1245900","royaltyAskPeriod()":"6e70fcc6","royaltyDenominator()":"fd8d7ed3","royaltyRate()":"c4d1510d","seekRoyaltyPayment(uint256,uint256,uint256)":"85a9473d","setNFTContract(address)":"a7ccabdf","setPixelValue(uint256[],uint256[],uint256[])":"8232b562","updateCurrency(address)":"5e027601","voteRegister(uint256)":"30b5d6d3","window(uint256,uint256)":"c730e65d"}}}}}