{"contracts/Pixelmap.sol":{"Pixelmap":{"abi":[{"inputs":[],"stateMutability":"nonpayable","type":"constructor"},{"inputs":[],"name":"ARTISTIC_PERIOD","outputs":[{"internalType":"uint256","name":"","type":"uint256"}],"stateMutability":"view","type":"function"},{"inputs":[],"name":"CYCLE_PERIOD","outputs":[{"internalType":"uint256","name":"","type":"uint256"}],"stateMutability":"view","type":"function"},{"inputs":[],"name":"VOTING_PERIOD","outputs":[{"internalType":"uint256","name":"","type":"uint256"}],"stateMutability":"view","type":"function"},{"inputs":[{"internalType":"address","name":"","type":"address"}],"name":"balanceOf","outputs":[{"internalType":"uint256","name":"","type":"uint256"}],"stateMutability":"view","type":"function"},{"inputs":[{"internalType":"uint256[]","name":"xValues","type":"uint256[]"},{"internalType":"uint256[]","name":"yValues","type":"uint256[]"}],"name":"buyPixel","outputs":[],"stateMutability":"nonpayable","type":"function"},{"inputs":[{"internalType":"uint256","name":"x","type":"uint256"},{"internalType":"uint256","name":"y","type":"uint256"}],"name":"calculateRoyalties","outputs":[{"internalType":"uint256","name":"","type":"uint256"}],"stateMutability":"view","type":"function"},{"inputs":[],"name":"canvasCreation","outputs":[{"internalType":"uint256","name":"","type":"uint256"}],"stateMutability":"view","type":"function"},{"inputs":[{"internalType":"bool","name":"vote","type":"bool"}],"name":"castVote","outputs":[],"stateMutability":"nonpayable","type":"function"},{"inputs":[{"internalType":"uint256[]","name":"xValues","type":"uint256[]"},{"internalType":"uint256[]","name":"yValues","type":"uint256[]"}],"name":"checkMultiplePixel","outputs":[{"components":[{"internalType":"address","name":"owner","type":"address"},{"internalType":"uint256","name":"shapeID","type":"uint256"},{"internalType":"uint256","name":"price","type":"uint256"},{"internalType":"string","name":"color","type":"string"},{"internalType":"uint256","name":"royaltyLastPaid","type":"uint256"},{"internalType":"bool","name":"askedToPayRoyalties","type":"bool"},{"internalType":"uint256","name":"royaltyAskDate","type":"uint256"}],"internalType":"struct Pixelmap.Pixel[]","name":"","type":"tuple[]"}],"stateMutability":"view","type":"function"},{"inputs":[{"internalType":"uint256","name":"x","type":"uint256"},{"internalType":"uint256","name":"y","type":"uint256"}],"name":"checkPixel","outputs":[{"components":[{"internalType":"address","name":"owner","type":"address"},{"internalType":"uint256","name":"shapeID","type":"uint256"},{"internalType":"uint256","name":"price","type":"uint256"},{"internalType":"string","name":"color","type":"string"},{"internalType":"uint256","name":"royaltyLastPaid","type":"uint256"},{"internalType":"bool","name":"askedToPayRoyalties","type":"bool"},{"internalType":"uint256","name":"royaltyAskDate","type":"uint256"}],"internalType":"struct Pixelmap.Pixel","name":"","type":"tuple"}],"stateMutability":"view","type":"function"},{"inputs":[],"name":"checkVoteOutcome","outputs":[{"internalType":"bool","name":"","type":"bool"}],"stateMutability":"view","type":"function"},{"inputs":[{"internalType":"bytes[]","name":"_pixels","type":"bytes[]"}],"name":"fillPixel","outputs":[],"stateMutability":"nonpayable","type":"function"},{"inputs":[],"name":"generateSVG","outputs":[{"internalType":"string","name":"","type":"string"}],"stateMutability":"view","type":"function"},{"inputs":[{"internalType":"address","name":"_owner","type":"address"}],"name":"getBalance","outputs":[{"internalType":"uint256","name":"","type":"uint256"}],"stateMutability":"view","type":"function"},{"inputs":[],"name":"getCurrentCycle","outputs":[{"internalType":"uint256","name":"","type":"uint256"}],"stateMutability":"view","type":"function"},{"inputs":[],"name":"isInArtisticPeriod","outputs":[{"internalType":"bool","name":"","type":"bool"}],"stateMutability":"view","type":"function"},{"inputs":[],"name":"isInVotingPeriod","outputs":[{"internalType":"bool","name":"","type":"bool"}],"stateMutability":"view","type":"function"},{"inputs":[],"name":"manager","outputs":[{"internalType":"address","name":"","type":"address"}],"stateMutability":"view","type":"function"},{"inputs":[],"name":"maxHeight","outputs":[{"internalType":"uint256","name":"","type":"uint256"}],"stateMutability":"view","type":"function"},{"inputs":[],"name":"maxWidth","outputs":[{"internalType":"uint256","name":"","type":"uint256"}],"stateMutability":"view","type":"function"},{"inputs":[{"internalType":"uint256[]","name":"xValues","type":"uint256[]"},{"internalType":"uint256[]","name":"yValues","type":"uint256[]"}],"name":"payRoyalties","outputs":[],"stateMutability":"nonpayable","type":"function"},{"inputs":[{"internalType":"uint256","name":"","type":"uint256"}],"name":"pixelSVGs","outputs":[{"internalType":"string","name":"","type":"string"}],"stateMutability":"view","type":"function"},{"inputs":[{"internalType":"uint256","name":"","type":"uint256"}],"name":"rowSVGs","outputs":[{"internalType":"string","name":"","type":"string"}],"stateMutability":"view","type":"function"},{"inputs":[],"name":"royaltyAskPeriod","outputs":[{"internalType":"uint256","name":"","type":"uint256"}],"stateMutability":"view","type":"function"},{"inputs":[],"name":"royaltyDenominator","outputs":[{"internalType":"uint256","name":"","type":"uint256"}],"stateMutability":"view","type":"function"},{"inputs":[],"name":"royaltyRate","outputs":[{"internalType":"uint256","name":"","type":"uint256"}],"stateMutability":"view","type":"function"},{"inputs":[{"internalType":"uint256","name":"x","type":"uint256"},{"internalType":"uint256","name":"y","type":"uint256"},{"internalType":"uint256","name":"_price","type":"uint256"}],"name":"seekRoyaltyPayment","outputs":[],"stateMutability":"nonpayable","type":"function"},{"inputs":[{"internalType":"uint256[]","name":"xValues","type":"uint256[]"},{"internalType":"uint256[]","name":"yValues","type":"uint256[]"},{"internalType":"uint256[]","name":"priceValues","type":"uint256[]"}],"name":"setPixelValue","outputs":[],"stateMutability":"nonpayable","type":"function"},{"inputs":[{"internalType":"address","name":"_newToken","type":"address"}],"name":"updateCurrency","outputs":[],"stateMutability":"nonpayable","type":"function"},{"inputs":[{"internalType":"uint256","name":"","type":"uint256"}],"name":"voteRegister","outputs":[{"internalType":"uint256","name":"yesVotes","type":"uint256"},{"internalType":"uint256","name":"noVotes","type":"uint256"}],"stateMutability":"view","type":"function"},{"inputs":[{"internalType":"uint256","name":"","type":"uint256"},{"internalType":"uint256","name":"","type":"uint256"}],"name":"window","outputs":[{"internalType":"address","name":"owner","type":"address"},{"internalType":"uint256","name":"shapeID","type":"uint256"},{"internalType":"uint256","name":"price","type":"uint256"},{"internalType":"string","name":"color","type":"string"},{"internalType":"uint256","name":"royaltyLastPaid","type":"uint256"},{"internalType":"bool","name":"askedToPayRoyalties","type":"bool"},{"internalType":"uint256","name":"royaltyAskDate","type":"uint256"}],"stateMutability":"view","type":"function"}],"evm":{"bytecode":{"linkReferences":{},"object":"6080806040523461004f57603260015560018060a01b031973c02aaa39b223fe8d0a0e5c4f27ead9083c756cc28160035416176003553390600054161760005542600255612e3c90816100558239f35b600080fdfe6080604052600436101561001257600080fd5b60003560e01c8063040cdfd81461193c578063113bc9991461191e57806330b5d6d3146118e85780633323a7061461130d5780633bdb693e146113bd578063481c6a75146113945780634882a7ea146113635780635e027601146113175780636006ecc81461131257806363aa5ce2146113125780636e70fcc61461130d5780636ed958f114610c5557806370a082311461026a5780637ace48e714610a795780638232b5621461083b57806385a9473d146106f2578063ad711e9e14610598578063b1610d7e1461057a578063b3a1ddf414610548578063be26ed7f1461051c578063c4d1510d146104fe578063c4e4b90c146104d1578063c730e65d14610437578063c7eab2ec14610328578063d08629c114610307578063e1245900146102c2578063e50eb5da146102a9578063f8b2cb4f1461026a578063fd8d7ed31461024d578063fe91f6eb146101945763ff188dca1461017157600080fd5b3461018f57600036600319011261018f576020600254604051908152f35b600080fd5b3461018f57600036600319011261018f5760025462054600806101b78342611dee565b04600052611046806020526101ed604060002054836101d68642611dee565b046000528260205260016040600020015490611a24565b9182156102185761020060209442611dee565b0460005282526040600020546040519160011c108152f35b60405162461bcd60e51b815260206004820152600d60248201526c139bc81d9bdd195cc818d85cdd609a1b6044820152606490fd5b3461018f57600036600319011261018f5760206040516103e88152f35b3461018f57602036600319011261018f576004356001600160a01b0381169081900361018f576000526110456020526020604060002054604051908152f35b3461018f576102c06102ba36611b52565b90611e95565b005b3461018f57602036600319011261018f57600435604081101561018f576102ef6103039161100501611bd2565b6040519182916020835260208301906119a3565b0390f35b3461018f57602061032061031a3661196a565b906124d9565b604051908152f35b3461018f5761033636611b52565b6103438251825114611dfb565b81519061034f82611aa6565b9261035d6040519485611a85565b828452601f1961036c84611aa6565b0160005b81811061042057505060005b8381106103e2576040805160208082528751818301819052600093600582901b8401810192808b01929185015b8287106103b65785850386f35b9091929382806103d2600193603f198a820301865288516119c8565b96019201960195929190926103a9565b806104046103f260019385611c87565b516103fd8387611c87565b5190612402565b61040e8288611c87565b526104198187611c87565b500161037c565b60209061042b6123ca565b82828901015201610370565b3461018f576104453661196a565b906000526004602052604060002090600052602052604060002060018060a01b03815416600182015491600281015461048060038301611bd2565b916104bb600482015493600660ff6005850154169301549360405197889788526020880152604087015260e0606087015260e08601906119a3565b926080850152151560a084015260c08301520390f35b3461018f57602036600319011261018f5760043561100081101561018f576102ef61030391600501611bd2565b3461018f57600036600319011261018f576020600154604051908152f35b3461018f57600036600319011261018f5760206205460061053f60025442611dee565b04604051908152f35b3461018f57600036600319011261018f5760206203f4806205460061056f60025442611dee565b061015604051908152f35b3461018f57600036600319011261018f576020604051620151808152f35b3461018f57600036600319011261018f57604051608081018181106001600160401b038211176106dc57604052605781526020907f3c7376672077696474683d2236303022206865696768743d2236303022207669828201527f6577426f783d2230203020363030203630302220786d6c6e733d22687474703a6040820152761797bbbbbb973b999737b933979918181817b9bb33911f60491b60608201529060005b60408110610692575061067e6026604051846106608296518092878086019101611980565b8101651e17b9bb339f60d11b85820152036006810185520183611a85565b6103036040519282849384528301906119a3565b91816106d16106d7926106c360405193826106b68694518092848088019101611980565b8301018761100501612c93565b03601f198101835282611a85565b92611c78565b61063b565b634e487b7160e01b600052604160045260246000fd5b3461018f57606036600319011261018f576004356024359061071f60018060a01b03600054163314612369565b8060005260209060048252604060002083600052825260ff60056040600020015416806107f4575b156107ae578060005260048252604060002083600052825260443560026040600020015580600052600482526040600020836000528252600560406000200160ff198154169055600052600481526040600020916000525260006006604082200155600080f35b806000526004825260406000208360005282526005604060002001600160ff19825416179055600052600481526040600020916000525242600660406000200155600080f35b50806000526004825260406000208360005282526006604060002001546203f4808101809111610825574211610747565b634e487b7160e01b600052601160045260246000fd5b3461018f57606036600319011261018f576001600160401b0360043581811161018f5761086c903690600401611af4565b90602491823582811161018f57610887903690600401611af4565b604492833590811161018f576108a1903690600401611af4565b938251825181149081610a6e575b5015610a1b5782519360005b858110610921575050506108cf8183611e95565b60005b8381106108db57005b806108e860019287611c87565b516108f38286611c87565b5160005260206004815260406000209061090d8487611c87565b5160005252600260406000200155016108d2565b61092b8186611c87565b5160406109388387611c87565b51911090811591610a0f575b506109d1576109538186611c87565b51600052602060048152604060002061096c8387611c87565b5160005281523360018060a01b03604060002054160361098f57506001016108bb565b6064907f6f6e6c79206f776e65722063616e2073657420706978656c2076616c7565000084601e876040519462461bcd60e51b86526004860152840152820152fd5b60405162461bcd60e51b815260206004820152601881850152774120706978656c206973206f7574206f6620626f756e647360401b81840152606490fd5b60409150101588610944565b6084907f696e70757420617272617973206d757374206265206f66207468652073616d658560276040519362461bcd60e51b85526020600486015284015282015266040d8cadccee8d60cb1b6064820152fd5b9050855114866108af565b3461018f5760208060031936011261018f57600435801515810361018f5760025462054600906203f48082610aae8342611dee565b0610610c1457336000526110458452604060002054908115610bbf5782610ad58242611dee565b0460005261104693848652600260406000200133600052865260ff60406000205416610b8a5783919015610b5f5750610b1060025442611dee565b04600052828452610b276040600020918254611a24565b90555b610b3660025442611dee565b04600052815260026040600020019033600052526040600020600160ff19825416179055600080f35b610b699042611dee565b04600052828452610b836001604060002001918254611a24565b9055610b2a565b60405162461bcd60e51b815260048101879052600d60248201526c185b1c9958591e481d9bdd1959609a1b6044820152606490fd5b60405162461bcd60e51b815260048101869052602760248201527f6e6f20706978656c73206f776e6564203d206e6f20766f74657320746f2062656044820152660818d85cdd195960ca1b6064820152608490fd5b60405162461bcd60e51b81526004810185905260196024820152782b37ba34b7339031bab93932b73a363c903737ba1037b832b760391b6044820152606490fd5b3461018f57610c6336611b52565b610c708251825114611dfb565b81519160005b838110610c7f57005b610c898183611c87565b516040610c968386611c87565b51911090811591611301575b506112e457610cb18183611c87565b5160005260046020526040600020610cc98285611c87565b5160005260205260018060a01b036040600020541615600014610d4b57610cf08183611c87565b5160005260046020526040600020610d088285611c87565b5160005260205260406000203360018060a01b03198254161790553360005261104560205260406000209081546001810180911161082557600192555b01610c76565b610d6a610d588284611c87565b51610d638386611c87565b51906124d9565b610d748284611c87565b5160005260046020526040600020610d8c8386611c87565b51600052602052806002604060002001541160001461114b57610daf8284611c87565b5160005260046020526040600020610dc78386611c87565b51600052602052610de081600260406000200154611dee565b6003546040516370a0823160e01b81523360048201526024936001600160a01b039092169291906020818681875afa80156110b857600090611117575b610e5a9150610e2c8789611c87565b5160005260046020526040600020610e44888b611c87565b51600052602052600260406000200154106122b9565b604051636eb1769f60e11b815233600482015230602482015292602084604481845afa9384156110b8576000946110e1575b50610f21602091610ecc600096610ea38a8c611c87565b5188526004855260408820610eb88b8e611c87565b518952855260026040892001541115612311565b610ed6888a611c87565b5186526004835260408620610eeb898c611c87565b518752835260408087205490516323b872dd60e01b80825290979096889485938492906001600160a01b03163360048501611e73565b03925af19182156110b857610f67936020936110c4575b5060035460008054604051938452929586946001600160a01b0393841694869485939291163360048501611e73565b03925af180156110b857611089575b50610f818284611c87565b5160005260046020526040600020610f998386611c87565b5160005260205260018060a01b03604060002054166000526110458060205260406000208054906000198201918211611074575533600052602052604060002080549160018301809311611060575055600190610ff68184611c87565b516000526004602052604060002061100e8286611c87565b51600052602052604060002033838060a01b03198254161790556110328184611c87565b516000526004602052604060002061104a8286611c87565b5160005260205242600460406000200155610d45565b634e487b7160e01b60009081526011600452fd5b83634e487b7160e01b60005260116004526000fd5b6110aa9060203d6020116110b1575b6110a28183611a85565b810190611e5b565b5085610f76565b503d611098565b6040513d6000823e3d90fd5b6110da90843d86116110b1576110a28183611a85565b5089610f38565b93506020843d60201161110f575b816110fc60209383611a85565b8101031261018f57925192610f21610e8c565b3d91506110ef565b506020813d602011611143575b8161113160209383611a85565b8101031261018f57610e5a9051610e1d565b3d9150611124565b506003546040516370a0823160e01b81523360048201526024916001600160a01b0316906020818481855afa80156110b8576000906112b0575b6111ac91506111948587611c87565b5160005260046020526040600020610e448689611c87565b604051636eb1769f60e11b8152336004820152306024820152602081604481855afa9081156110b85760009161127c575b50610f679161121f6020926111f28789611c87565b51600052600484526040600020611209888b611c87565b5160005284526002604060002001541115612311565b6000546001600160a01b0316906112368688611c87565b5160005260048352604060002061124d878a611c87565b5160005283526002604060002001549160006040518096819582946323b872dd60e01b84523360048501611e73565b90506020813d6020116112a8575b8161129760209383611a85565b8101031261018f5751610f676111dd565b3d915061128a565b506020813d6020116112dc575b816112ca60209383611a85565b8101031261018f576111ac9051611185565b3d91506112bd565b60405162461bcd60e51b8152806112fd60048201611c9b565b0390fd5b60409150101585610ca2565b611a31565b611ad8565b3461018f57602036600319011261018f576004356001600160a01b038181169182900361018f5761134d90600054163314612369565b600380546001600160a01b031916919091179055005b3461018f57600036600319011261018f5760206203f4806205460061138a60025442611dee565b0610604051908152f35b3461018f57600036600319011261018f576000546040516001600160a01b039091168152602090f35b3461018f57602036600319011261018f576004356001600160401b03811161018f573660238201121561018f5780600401356113f881611aa6565b916114066040519384611a85565b8183526024602084019260051b8201019036821161018f5760248101925b82841061187e57846203f4806205460061144060025442611dee565b06101561182e5780516040519161082083018381106001600160401b038211176106dc576040526040835261080036602085013760005b828110611551578360005b6040811061148c57005b6114968183611c87565b516114a4575b600101611482565b6040516114b081611a6a565b60008152600682901b6001600160fa1b03831683036108255780604001908160401161082557905b8082106114f9575050906114f26001928261100501611ccc565b905061149c565b909161100083101561153b5760206106d1611535926106c360405193826115298694518092848088019101611980565b83010187600501612c93565b906114d8565b634e487b7160e01b600052603260045260246000fd5b61155b8183611c87565b5190815182018260208201916080918291031261018f57602084015191604085015194606081015192810151906001600160401b03821161018f570181603f8201121561018f5760208101516115b081611abd565b926115be6040519485611a85565b8184526040828401011161018f576115dd916040602085019101611980565b60408310801590611823575b6112e457600a8210156117e55782600052600460205260406000208560005260205260ff60056040600020015416611788578260005260046020526040600020856000526020523360018060a01b036040600020541614611657575b5050506116529150611c78565b611477565b61167d908360005260046020526040600020866000526020526003604060002001611ccc565b8160005260046020526040600020846000526020526001604060002001558083611746575b806000526004602052604060002084600052602052600160406000200154906009908082810204821481151715610825578582810204821486151715610825576117179281600052600460205260406000208760005260205261170b6003604060002001611bd2565b92808802920290612536565b61100082101561153b576116529361173761173d92600194600501611ccc565b87611c87565b52858080611645565b90506117528382611ddb565b6040828103116108255783600019810111610825576117829061177c600019860184604003611ddb565b90611a24565b906116a2565b60405162461bcd60e51b815260206004820152602f60248201527f6f776e6572207761732061736b656420746f20666972737420736574746c652060448201526e1c9bde585b1d1e481c185e5b595b9d608a1b6064820152608490fd5b60405162461bcd60e51b81526020600482015260166024820152757368617065204944206e6f7420617661696c61626c6560501b6044820152606490fd5b5060408510156115e9565b60405162461bcd60e51b815260206004820152602260248201527f417274697374696320706572696f642063757272656e746c79206e6f74206f7060448201526132b760f11b6064820152608490fd5b83356001600160401b03811161018f578201903660438301121561018f576024820135906118ab82611abd565b6118b86040519182611a85565b8281526044933685858301011161018f576020848196958296600094018386013783010152815201930192611424565b3461018f57602036600319011261018f576004356000526110466020526040806000206001815491015482519182526020820152f35b3461018f57600036600319011261018f576020604051620546008152f35b3461018f576103036119566119503661196a565b90612402565b6040519182916020835260208301906119c8565b604090600319011261018f576004359060243590565b60005b8381106119935750506000910152565b8181015183820152602001611983565b906020916119bc81518092818552858086019101611980565b601f01601f1916010190565b9060018060a01b038251168152602082015160208201526040820151604082015260c080611a05606085015160e0606086015260e08501906119a3565b936080810151608085015260a0810151151560a0850152015191015290565b9190820180921161082557565b3461018f57600036600319011261018f5760206040516203f4808152f35b60e081019081106001600160401b038211176106dc57604052565b602081019081106001600160401b038211176106dc57604052565b90601f801991011681019081106001600160401b038211176106dc57604052565b6001600160401b0381116106dc5760051b60200190565b6001600160401b0381116106dc57601f01601f191660200190565b3461018f57600036600319011261018f57602060405160408152f35b81601f8201121561018f57803591611b0b83611aa6565b92611b196040519485611a85565b808452602092838086019260051b82010192831161018f578301905b828210611b43575050505090565b81358152908301908301611b35565b90604060031983011261018f576001600160401b0360043581811161018f5783611b7e91600401611af4565b9260243591821161018f57611b9591600401611af4565b90565b90600182811c92168015611bc8575b6020831014611bb257565b634e487b7160e01b600052602260045260246000fd5b91607f1691611ba7565b9060405191826000825492611be684611b98565b908184526001948581169081600014611c555750600114611c12575b5050611c1092500383611a85565b565b9093915060005260209081600020936000915b818310611c3d575050611c1093508201013880611c02565b85548884018501529485019487945091830191611c25565b915050611c1094506020925060ff191682840152151560051b8201013880611c02565b60001981146108255760010190565b805182101561153b5760209160051b010190565b606090602081526016602082015275706978656c206973206f7574206f6620626f756e647360501b60408201520190565b91909182516001600160401b0381116106dc57611ce98254611b98565b601f8111611d93575b50602080601f8311600114611d2f575081929394600092611d24575b50508160011b916000199060031b1c1916179055565b015190503880611d0e565b90601f198316958460005282600020926000905b888210611d7b57505083600195969710611d62575b505050811b019055565b015160001960f88460031b161c19169055388080611d58565b80600185968294968601518155019501930190611d43565b600083815260208120601f840160051c81019260208510611dd1575b601f0160051c01915b828110611dc6575050611cf2565b818155600101611db8565b9092508290611daf565b8181029291811591840414171561082557565b9190820391821161082557565b15611e0257565b60405162461bcd60e51b815260206004820152602b60248201527f7820616e64207920696e7075742061727261797320617265206f66207661726960448201526a6f7573206c656e6774687360a81b6064820152608490fd5b9081602091031261018f5751801515810361018f5790565b6001600160a01b03918216815291166020820152604081019190915260600190565b9190611ea48351825114611dfb565b82516000935b818510611eb8575050509050565b611ec28582611c87565b5194611ece8185611c87565b51604080809810918215926122ae575b505061229657611eee8183611c87565b516000526004602081815287600020611f078488611c87565b51600052815260018060a01b0333818a60002054160361224857611f2b8486611c87565b5160005282825288600020611f408589611c87565b51600052825242838a600020015403611f6e575b505050611f65919293949550611c78565b93929190611eaa565b611f86611f7b8587611c87565b51610d63868a611c87565b908060035416908a516370a0823160e01b8152338682015260249085818381875afa80156121bc578591600091612218575b50106121c7578b51636eb1769f60e11b8152338782019081523060208201528690829081906040010381875afa80156121bc578591600091612189575b501061213857509183916120259b936000541660008551809e819582946323b872dd60e01b8452338c8501611e73565b03925af198891561212d57611f659596979899612110575b506120488487611c87565b516000528282528060002061205d858a611c87565b51600052825242838260002001556120758487611c87565b516000528282528060002061208a858a611c87565b51600052825260059160ff83836000200154166120ae575b50889796959450611f54565b6000936006936120be878a611c87565b5186528183528386206120d1888d611c87565b518752835283862001805460ff191690556120ec8689611c87565b5185528152818420906120ff868b611c87565b5185525282200155388080806120a2565b61212690833d85116110b1576110a28183611a85565b503861203d565b50513d6000823e3d90fd5b856027608492878f519362461bcd60e51b85528401528201527f696e73756666696369656e7420616c6c6f77616e636520746f2070617920726f60448201526679616c7469657360c81b6064820152fd5b91508682813d83116121b5575b6121a08183611a85565b810103126121b2575084905138611ff5565b80fd5b503d612196565b8d513d6000823e3d90fd5b856027608492878f519362461bcd60e51b85528401528201527f6e6f742073756666696369656e742062616c616e636520746f2070617920726f60448201526679616c7469657360c81b6064820152fd5b91508682813d8311612241575b61222f8183611a85565b810103126121b2575084905138611fb8565b503d612225565b885162461bcd60e51b8152808401839052602260248201527f6f6e6c7920706978656c206f776e65722063616e2070617920726f79616c7469604482015261657360f01b6064820152608490fd5b855162461bcd60e51b8152806112fd60048201611c9b565b101590508638611ede565b156122c057565b60405162461bcd60e51b815260206004820152602360248201527f6e6f742073756666696369656e742062616c616e636520746f206275792070696044820152621e195b60ea1b6064820152608490fd5b1561231857565b60405162461bcd60e51b815260206004820152602360248201527f696e73756666696369656e7420616c6c6f77616e636520746f206275792070696044820152621e195b60ea1b6064820152608490fd5b1561237057565b60405162461bcd60e51b815260206004820152602c60248201527f6f776e65722063757272656e74206d616e616765722063616e2063616c6c207460448201526b3434b990333ab731ba34b7b760a11b6064820152608490fd5b604051906123d782611a4f565b8160c06000918281528260208201528260408201526060808201528260808201528260a08201520152565b9061240b6123ca565b50604091828110806124d0575b15612496576000526004602052816000209060005260205260068160002082519261244284611a4f565b81546001600160a01b031684526001820154602085015260028201549084015261246e60038201611bd2565b60608401526004810154608084015260ff600582015416151560a0840152015460c082015290565b825162461bcd60e51b8152602060048201526013602482015272706978656c206f7574206f6620626f756e647360681b6044820152606490fd5b50828210612418565b612529612532916002604064073df1600095600090848252600460205282822081835260205261250f6004848420015442611dee565b948252600460205282822090825260205220015490611ddb565b60015490611ddb565b0490565b919290928215612bd75760018314612b085760028314612ade5760038314612a8257600492838114612a2e57600581146128d1576006811461287f57600781146128185760088114612735576009146125a0575050505060405161259981611a6a565b6000815290565b6125a984612d16565b906125b381612d16565b60088601808711612720576125c790612d16565b946008830180931161270b5750916126ef82611b9596946125fc6125f66125f060499997612d16565b9a612d16565b92612d16565b91604051998a97602a61262c8a602099693c7061746820643d224d60b01b8b8301528a8151948593019101611980565b890193600160fd1b9485602a82015261264e825180938b602b85019101611980565b016b010209c101c101810181018960a51b602b820152612677825180938a603785019101611980565b018360378201526126918251809389603885019101611980565b0161081360f21b60388201526126b08251809388603a85019101611980565b0190603a8201526126ca8251809386603b85019101611980565b019169102d11103334b6361e9160b11b603b8401528351938491604585019101611980565b01631110179f60e11b6045820152036029810184520182611a85565b601190634e487b7160e01b6000525260246000fd5b601186634e487b7160e01b6000525260246000fd5b509260088101938482116128035761274c85612d16565b9161275f61275983612d16565b91612d16565b946008830180931161270b5750916126ef82611b9596946127886125f66125f060499997612d16565b91604051998a97602a6127b88a602099693c7061746820643d224d60b01b8b8301528a8151948593019101611980565b890193600160fd1b9485602a8201526127da825180938b602b85019101611980565b016b010209c101c101810181018160a51b602b820152612677825180938a603785019101611980565b601184634e487b7160e01b6000525260246000fd5b5061282284612d16565b9061282c81612d16565b6008860180961161286a5761284086612d16565b94600883019081841161270b575060499492611b959694926127886125f66125f06126ef95612d16565b601185634e487b7160e01b6000525260246000fd5b5061288984612d16565b906008810180821161286a5761289e90612d16565b93600886019081871161270b5750916126ef604994926128c1611b959795612d16565b946127886125f66125f084612d16565b50926128dc81612d16565b90600885019081861161286a576128f282612d16565b906129056128ff82612d16565b97612d16565b956008820180921161270b5750603f9492611b9596949261292b6125f6612a1294612d16565b91604051998a97602a61295b8a602099693c7061746820643d224d60b01b8b8301528a8151948593019101611980565b890193600160fd1b9485602a82015261297d825180938b602b85019101611980565b019161081360f21b9283602b82015261299f825180938b602d85019101611980565b0184602d8201526129b9825180938a602e85019101611980565b0190602e8201526129d38251809388603085019101611980565b019060308201526129ed8251809386603185019101611980565b019169103d11103334b6361e9160b11b60318401528351938491603b85019101611980565b01631110179f60e11b603b82015203601f810184520182611a85565b509291600883019081841161270b57612a4682612d16565b91600886019182871161270b575091612a1282611b95969461292b6125f66128ff612a7c612a76603f9b99612d16565b94612d16565b9b612d16565b9150612a8d83612d16565b92612a9783612d16565b916008820180921161082557612aac82612d16565b94612abf612ab986612d16565b93612d16565b946008810180911161082557611b9595603f9561292b612a1293612d16565b9150612ae983612d16565b92612af383612d16565b916008820180831161082557612aac90612d16565b9150916004810180911161082557612b1f90612d16565b906004810180911161082557611b9591612b3a604492612d16565b936040519485926b1e31b4b931b6329031bc1e9160a11b6020850152612b6a815180926020602c88019101611980565b830165111031bc9e9160d11b602c820152612b8f825180936020603285019101611980565b016d1110391e911a11103334b6361e9160911b6032820152612bbb825180936020604085019101611980565b01631110179f60e11b6040820152036024810184520182611a85565b611b959250612beb612759604f9395612d16565b93604051948592681e3932b1ba103c1e9160b91b6020850152612c18815180926020602988019101611980565b83016411103c9e9160d91b6029820152612c3c825180936020602e85019101611980565b017f222077696474683d223822206865696768743d2238222066696c6c3d22000000602e820152612c77825180936020604b85019101611980565b01631110179f60e11b604b82015203602f810184520182611a85565b600092918154612ca281611b98565b92600191808316908115612cfb5750600114612cbf575b50505050565b90919293945060005260209081600020906000915b858310612cea5750505050019038808080612cb9565b805485840152918301918101612cd4565b60ff1916845250505081151590910201915038808080612cb9565b8015612dd85780816000925b612dc45750612d3082611abd565b91612d3e6040519384611a85565b80835281601f19612d4e83611abd565b01916020923684870137925b612d645750505090565b60001983019283116108255782600a8083049281840291848304148415171561082557612d9460ff928392611dee565b1660300190811161082557855182101561153b5760f81b6001600160f81b03191660001a90850183015380612d5a565b91612dd0600a91611c78565b920480612d22565b50604051604081018181106001600160401b038211176106dc5760405260018152600360fc1b60208201529056fea2646970667358221220d8480e9a1b752eff4d461177b5012a098ece94f81ac5f2e98a1819060db9708f64736f6c63430008140033","opcodes":"PUSH1 0x80 DUP1 PUSH1 0x40 MSTORE CALLVALUE PUSH2 0x4F JUMPI PUSH1 0x32 PUSH1 0x1 SSTORE PUSH1 0x1 DUP1 PUSH1 0xA0 SHL SUB NOT PUSH20 0xC02AAA39B223FE8D0A0E5C4F27EAD9083C756CC2 DUP2 PUSH1 0x3 SLOAD AND OR PUSH1 0x3 SSTORE CALLER SWAP1 PUSH1 0x0 SLOAD AND OR PUSH1 0x0 SSTORE TIMESTAMP PUSH1 0x2 SSTORE PUSH2 0x2E3C SWAP1 DUP2 PUSH2 0x55 DUP3 CODECOPY RETURN JUMPDEST PUSH1 0x0 DUP1 REVERT INVALID PUSH1 0x80 PUSH1 0x40 MSTORE PUSH1 0x4 CALLDATASIZE LT ISZERO PUSH2 0x12 JUMPI PUSH1 0x0 DUP1 REVERT JUMPDEST PUSH1 0x0 CALLDATALOAD PUSH1 0xE0 SHR DUP1 PUSH4 0x40CDFD8 EQ PUSH2 0x193C JUMPI DUP1 PUSH4 0x113BC999 EQ PUSH2 0x191E JUMPI DUP1 PUSH4 0x30B5D6D3 EQ PUSH2 0x18E8 JUMPI DUP1 PUSH4 0x3323A706 EQ PUSH2 0x130D JUMPI DUP1 PUSH4 0x3BDB693E EQ PUSH2 0x13BD JUMPI DUP1 PUSH4 0x481C6A75 EQ PUSH2 0x1394 JUMPI DUP1 PUSH4 0x4882A7EA EQ PUSH2 0x1363 JUMPI DUP1 PUSH4 0x5E027601 EQ PUSH2 0x1317 JUMPI DUP1 PUSH4 0x6006ECC8 EQ PUSH2 0x1312 JUMPI DUP1 PUSH4 0x63AA5CE2 EQ PUSH2 0x1312 JUMPI DUP1 PUSH4 0x6E70FCC6 EQ PUSH2 0x130D JUMPI DUP1 PUSH4 0x6ED958F1 EQ PUSH2 0xC55 JUMPI DUP1 PUSH4 0x70A08231 EQ PUSH2 0x26A JUMPI DUP1 PUSH4 0x7ACE48E7 EQ PUSH2 0xA79 JUMPI DUP1 PUSH4 0x8232B562 EQ PUSH2 0x83B JUMPI DUP1 PUSH4 0x85A9473D EQ PUSH2 0x6F2 JUMPI DUP1 PUSH4 0xAD711E9E EQ PUSH2 0x598 JUMPI DUP1 PUSH4 0xB1610D7E EQ PUSH2 0x57A JUMPI DUP1 PUSH4 0xB3A1DDF4 EQ PUSH2 0x548 JUMPI DUP1 PUSH4 0xBE26ED7F EQ PUSH2 0x51C JUMPI DUP1 PUSH4 0xC4D1510D EQ PUSH2 0x4FE JUMPI DUP1 PUSH4 0xC4E4B90C EQ PUSH2 0x4D1 JUMPI DUP1 PUSH4 0xC730E65D EQ PUSH2 0x437 JUMPI DUP1 PUSH4 0xC7EAB2EC EQ PUSH2 0x328 JUMPI DUP1 PUSH4 0xD08629C1 EQ PUSH2 0x307 JUMPI DUP1 PUSH4 0xE1245900 EQ PUSH2 0x2C2 JUMPI DUP1 PUSH4 0xE50EB5DA EQ PUSH2 0x2A9 JUMPI DUP1 PUSH4 0xF8B2CB4F EQ PUSH2 0x26A JUMPI DUP1 PUSH4 0xFD8D7ED3 EQ PUSH2 0x24D JUMPI DUP1 PUSH4 0xFE91F6EB EQ PUSH2 0x194 JUMPI PUSH4 0xFF188DCA EQ PUSH2 0x171 JUMPI PUSH1 0x0 DUP1 REVERT JUMPDEST CALLVALUE PUSH2 0x18F JUMPI PUSH1 0x0 CALLDATASIZE PUSH1 0x3 NOT ADD SLT PUSH2 0x18F JUMPI PUSH1 0x20 PUSH1 0x2 SLOAD PUSH1 0x40 MLOAD SWAP1 DUP2 MSTORE RETURN JUMPDEST PUSH1 0x0 DUP1 REVERT JUMPDEST CALLVALUE PUSH2 0x18F JUMPI PUSH1 0x0 CALLDATASIZE PUSH1 0x3 NOT ADD SLT PUSH2 0x18F JUMPI PUSH1 0x2 SLOAD PUSH3 0x54600 DUP1 PUSH2 0x1B7 DUP4 TIMESTAMP PUSH2 0x1DEE JUMP JUMPDEST DIV PUSH1 0x0 MSTORE PUSH2 0x1046 DUP1 PUSH1 0x20 MSTORE PUSH2 0x1ED PUSH1 0x40 PUSH1 0x0 KECCAK256 SLOAD DUP4 PUSH2 0x1D6 DUP7 TIMESTAMP PUSH2 0x1DEE JUMP JUMPDEST DIV PUSH1 0x0 MSTORE DUP3 PUSH1 0x20 MSTORE PUSH1 0x1 PUSH1 0x40 PUSH1 0x0 KECCAK256 ADD SLOAD SWAP1 PUSH2 0x1A24 JUMP JUMPDEST SWAP2 DUP3 ISZERO PUSH2 0x218 JUMPI PUSH2 0x200 PUSH1 0x20 SWAP5 TIMESTAMP PUSH2 0x1DEE JUMP JUMPDEST DIV PUSH1 0x0 MSTORE DUP3 MSTORE PUSH1 0x40 PUSH1 0x0 KECCAK256 SLOAD PUSH1 0x40 MLOAD SWAP2 PUSH1 0x1 SHR LT DUP2 MSTORE RETURN JUMPDEST PUSH1 0x40 MLOAD PUSH3 0x461BCD PUSH1 0xE5 SHL DUP2 MSTORE PUSH1 0x20 PUSH1 0x4 DUP3 ADD MSTORE PUSH1 0xD PUSH1 0x24 DUP3 ADD MSTORE PUSH13 0x139BC81D9BDD195CC818D85CDD PUSH1 0x9A SHL PUSH1 0x44 DUP3 ADD MSTORE PUSH1 0x64 SWAP1 REVERT JUMPDEST CALLVALUE PUSH2 0x18F JUMPI PUSH1 0x0 CALLDATASIZE PUSH1 0x3 NOT ADD SLT PUSH2 0x18F JUMPI PUSH1 0x20 PUSH1 0x40 MLOAD PUSH2 0x3E8 DUP2 MSTORE RETURN JUMPDEST CALLVALUE PUSH2 0x18F JUMPI PUSH1 0x20 CALLDATASIZE PUSH1 0x3 NOT ADD SLT PUSH2 0x18F JUMPI PUSH1 0x4 CALLDATALOAD PUSH1 0x1 PUSH1 0x1 PUSH1 0xA0 SHL SUB DUP2 AND SWAP1 DUP2 SWAP1 SUB PUSH2 0x18F JUMPI PUSH1 0x0 MSTORE PUSH2 0x1045 PUSH1 0x20 MSTORE PUSH1 0x20 PUSH1 0x40 PUSH1 0x0 KECCAK256 SLOAD PUSH1 0x40 MLOAD SWAP1 DUP2 MSTORE RETURN JUMPDEST CALLVALUE PUSH2 0x18F JUMPI PUSH2 0x2C0 PUSH2 0x2BA CALLDATASIZE PUSH2 0x1B52 JUMP JUMPDEST SWAP1 PUSH2 0x1E95 JUMP JUMPDEST STOP JUMPDEST CALLVALUE PUSH2 0x18F JUMPI PUSH1 0x20 CALLDATASIZE PUSH1 0x3 NOT ADD SLT PUSH2 0x18F JUMPI PUSH1 0x4 CALLDATALOAD PUSH1 0x40 DUP2 LT ISZERO PUSH2 0x18F JUMPI PUSH2 0x2EF PUSH2 0x303 SWAP2 PUSH2 0x1005 ADD PUSH2 0x1BD2 JUMP JUMPDEST PUSH1 0x40 MLOAD SWAP2 DUP3 SWAP2 PUSH1 0x20 DUP4 MSTORE PUSH1 0x20 DUP4 ADD SWAP1 PUSH2 0x19A3 JUMP JUMPDEST SUB SWAP1 RETURN JUMPDEST CALLVALUE PUSH2 0x18F JUMPI PUSH1 0x20 PUSH2 0x320 PUSH2 0x31A CALLDATASIZE PUSH2 0x196A JUMP JUMPDEST SWAP1 PUSH2 0x24D9 JUMP JUMPDEST PUSH1 0x40 MLOAD SWAP1 DUP2 MSTORE RETURN JUMPDEST CALLVALUE PUSH2 0x18F JUMPI PUSH2 0x336 CALLDATASIZE PUSH2 0x1B52 JUMP JUMPDEST PUSH2 0x343 DUP3 MLOAD DUP3 MLOAD EQ PUSH2 0x1DFB JUMP JUMPDEST DUP2 MLOAD SWAP1 PUSH2 0x34F DUP3 PUSH2 0x1AA6 JUMP JUMPDEST SWAP3 PUSH2 0x35D PUSH1 0x40 MLOAD SWAP5 DUP6 PUSH2 0x1A85 JUMP JUMPDEST DUP3 DUP5 MSTORE PUSH1 0x1F NOT PUSH2 0x36C DUP5 PUSH2 0x1AA6 JUMP JUMPDEST ADD PUSH1 0x0 JUMPDEST DUP2 DUP2 LT PUSH2 0x420 JUMPI POP POP PUSH1 0x0 JUMPDEST DUP4 DUP2 LT PUSH2 0x3E2 JUMPI PUSH1 0x40 DUP1 MLOAD PUSH1 0x20 DUP1 DUP3 MSTORE DUP8 MLOAD DUP2 DUP4 ADD DUP2 SWAP1 MSTORE PUSH1 0x0 SWAP4 PUSH1 0x5 DUP3 SWAP1 SHL DUP5 ADD DUP2 ADD SWAP3 DUP1 DUP12 ADD SWAP3 SWAP2 DUP6 ADD JUMPDEST DUP3 DUP8 LT PUSH2 0x3B6 JUMPI DUP6 DUP6 SUB DUP7 RETURN JUMPDEST SWAP1 SWAP2 SWAP3 SWAP4 DUP3 DUP1 PUSH2 0x3D2 PUSH1 0x1 SWAP4 PUSH1 0x3F NOT DUP11 DUP3 SUB ADD DUP7 MSTORE DUP9 MLOAD PUSH2 0x19C8 JUMP JUMPDEST SWAP7 ADD SWAP3 ADD SWAP7 ADD SWAP6 SWAP3 SWAP2 SWAP1 SWAP3 PUSH2 0x3A9 JUMP JUMPDEST DUP1 PUSH2 0x404 PUSH2 0x3F2 PUSH1 0x1 SWAP4 DUP6 PUSH2 0x1C87 JUMP JUMPDEST MLOAD PUSH2 0x3FD DUP4 DUP8 PUSH2 0x1C87 JUMP JUMPDEST MLOAD SWAP1 PUSH2 0x2402 JUMP JUMPDEST PUSH2 0x40E DUP3 DUP9 PUSH2 0x1C87 JUMP JUMPDEST MSTORE PUSH2 0x419 DUP2 DUP8 PUSH2 0x1C87 JUMP JUMPDEST POP ADD PUSH2 0x37C JUMP JUMPDEST PUSH1 0x20 SWAP1 PUSH2 0x42B PUSH2 0x23CA JUMP JUMPDEST DUP3 DUP3 DUP10 ADD ADD MSTORE ADD PUSH2 0x370 JUMP JUMPDEST CALLVALUE PUSH2 0x18F JUMPI PUSH2 0x445 CALLDATASIZE PUSH2 0x196A JUMP JUMPDEST SWAP1 PUSH1 0x0 MSTORE PUSH1 0x4 PUSH1 0x20 MSTORE PUSH1 0x40 PUSH1 0x0 KECCAK256 SWAP1 PUSH1 0x0 MSTORE PUSH1 0x20 MSTORE PUSH1 0x40 PUSH1 0x0 KECCAK256 PUSH1 0x1 DUP1 PUSH1 0xA0 SHL SUB DUP2 SLOAD AND PUSH1 0x1 DUP3 ADD SLOAD SWAP2 PUSH1 0x2 DUP2 ADD SLOAD PUSH2 0x480 PUSH1 0x3 DUP4 ADD PUSH2 0x1BD2 JUMP JUMPDEST SWAP2 PUSH2 0x4BB PUSH1 0x4 DUP3 ADD SLOAD SWAP4 PUSH1 0x6 PUSH1 0xFF PUSH1 0x5 DUP6 ADD SLOAD AND SWAP4 ADD SLOAD SWAP4 PUSH1 0x40 MLOAD SWAP8 DUP9 SWAP8 DUP9 MSTORE PUSH1 0x20 DUP9 ADD MSTORE PUSH1 0x40 DUP8 ADD MSTORE PUSH1 0xE0 PUSH1 0x60 DUP8 ADD MSTORE PUSH1 0xE0 DUP7 ADD SWAP1 PUSH2 0x19A3 JUMP JUMPDEST SWAP3 PUSH1 0x80 DUP6 ADD MSTORE ISZERO ISZERO PUSH1 0xA0 DUP5 ADD MSTORE PUSH1 0xC0 DUP4 ADD MSTORE SUB SWAP1 RETURN JUMPDEST CALLVALUE PUSH2 0x18F JUMPI PUSH1 0x20 CALLDATASIZE PUSH1 0x3 NOT ADD SLT PUSH2 0x18F JUMPI PUSH1 0x4 CALLDATALOAD PUSH2 0x1000 DUP2 LT ISZERO PUSH2 0x18F JUMPI PUSH2 0x2EF PUSH2 0x303 SWAP2 PUSH1 0x5 ADD PUSH2 0x1BD2 JUMP JUMPDEST CALLVALUE PUSH2 0x18F JUMPI PUSH1 0x0 CALLDATASIZE PUSH1 0x3 NOT ADD SLT PUSH2 0x18F JUMPI PUSH1 0x20 PUSH1 0x1 SLOAD PUSH1 0x40 MLOAD SWAP1 DUP2 MSTORE RETURN JUMPDEST CALLVALUE PUSH2 0x18F JUMPI PUSH1 0x0 CALLDATASIZE PUSH1 0x3 NOT ADD SLT PUSH2 0x18F JUMPI PUSH1 0x20 PUSH3 0x54600 PUSH2 0x53F PUSH1 0x2 SLOAD TIMESTAMP PUSH2 0x1DEE JUMP JUMPDEST DIV PUSH1 0x40 MLOAD SWAP1 DUP2 MSTORE RETURN JUMPDEST CALLVALUE PUSH2 0x18F JUMPI PUSH1 0x0 CALLDATASIZE PUSH1 0x3 NOT ADD SLT PUSH2 0x18F JUMPI PUSH1 0x20 PUSH3 0x3F480 PUSH3 0x54600 PUSH2 0x56F PUSH1 0x2 SLOAD TIMESTAMP PUSH2 0x1DEE JUMP JUMPDEST MOD LT ISZERO PUSH1 0x40 MLOAD SWAP1 DUP2 MSTORE RETURN JUMPDEST CALLVALUE PUSH2 0x18F JUMPI PUSH1 0x0 CALLDATASIZE PUSH1 0x3 NOT ADD SLT PUSH2 0x18F JUMPI PUSH1 0x20 PUSH1 0x40 MLOAD PUSH3 0x15180 DUP2 MSTORE RETURN JUMPDEST CALLVALUE PUSH2 0x18F JUMPI PUSH1 0x0 CALLDATASIZE PUSH1 0x3 NOT ADD SLT PUSH2 0x18F JUMPI PUSH1 0x40 MLOAD PUSH1 0x80 DUP2 ADD DUP2 DUP2 LT PUSH1 0x1 PUSH1 0x1 PUSH1 0x40 SHL SUB DUP3 GT OR PUSH2 0x6DC JUMPI PUSH1 0x40 MSTORE PUSH1 0x57 DUP2 MSTORE PUSH1 0x20 SWAP1 PUSH32 0x3C7376672077696474683D2236303022206865696768743D2236303022207669 DUP3 DUP3 ADD MSTORE PUSH32 0x6577426F783D2230203020363030203630302220786D6C6E733D22687474703A PUSH1 0x40 DUP3 ADD MSTORE PUSH23 0x1797BBBBBB973B999737B933979918181817B9BB33911F PUSH1 0x49 SHL PUSH1 0x60 DUP3 ADD MSTORE SWAP1 PUSH1 0x0 JUMPDEST PUSH1 0x40 DUP2 LT PUSH2 0x692 JUMPI POP PUSH2 0x67E PUSH1 0x26 PUSH1 0x40 MLOAD DUP5 PUSH2 0x660 DUP3 SWAP7 MLOAD DUP1 SWAP3 DUP8 DUP1 DUP7 ADD SWAP2 ADD PUSH2 0x1980 JUMP JUMPDEST DUP2 ADD PUSH6 0x1E17B9BB339F PUSH1 0xD1 SHL DUP6 DUP3 ADD MSTORE SUB PUSH1 0x6 DUP2 ADD DUP6 MSTORE ADD DUP4 PUSH2 0x1A85 JUMP JUMPDEST PUSH2 0x303 PUSH1 0x40 MLOAD SWAP3 DUP3 DUP5 SWAP4 DUP5 MSTORE DUP4 ADD SWAP1 PUSH2 0x19A3 JUMP JUMPDEST SWAP2 DUP2 PUSH2 0x6D1 PUSH2 0x6D7 SWAP3 PUSH2 0x6C3 PUSH1 0x40 MLOAD SWAP4 DUP3 PUSH2 0x6B6 DUP7 SWAP5 MLOAD DUP1 SWAP3 DUP5 DUP1 DUP9 ADD SWAP2 ADD PUSH2 0x1980 JUMP JUMPDEST DUP4 ADD ADD DUP8 PUSH2 0x1005 ADD PUSH2 0x2C93 JUMP JUMPDEST SUB PUSH1 0x1F NOT DUP2 ADD DUP4 MSTORE DUP3 PUSH2 0x1A85 JUMP JUMPDEST SWAP3 PUSH2 0x1C78 JUMP JUMPDEST PUSH2 0x63B JUMP JUMPDEST PUSH4 0x4E487B71 PUSH1 0xE0 SHL PUSH1 0x0 MSTORE PUSH1 0x41 PUSH1 0x4 MSTORE PUSH1 0x24 PUSH1 0x0 REVERT JUMPDEST CALLVALUE PUSH2 0x18F JUMPI PUSH1 0x60 CALLDATASIZE PUSH1 0x3 NOT ADD SLT PUSH2 0x18F JUMPI PUSH1 0x4 CALLDATALOAD PUSH1 0x24 CALLDATALOAD SWAP1 PUSH2 0x71F PUSH1 0x1 DUP1 PUSH1 0xA0 SHL SUB PUSH1 0x0 SLOAD AND CALLER EQ PUSH2 0x2369 JUMP JUMPDEST DUP1 PUSH1 0x0 MSTORE PUSH1 0x20 SWAP1 PUSH1 0x4 DUP3 MSTORE PUSH1 0x40 PUSH1 0x0 KECCAK256 DUP4 PUSH1 0x0 MSTORE DUP3 MSTORE PUSH1 0xFF PUSH1 0x5 PUSH1 0x40 PUSH1 0x0 KECCAK256 ADD SLOAD AND DUP1 PUSH2 0x7F4 JUMPI JUMPDEST ISZERO PUSH2 0x7AE JUMPI DUP1 PUSH1 0x0 MSTORE PUSH1 0x4 DUP3 MSTORE PUSH1 0x40 PUSH1 0x0 KECCAK256 DUP4 PUSH1 0x0 MSTORE DUP3 MSTORE PUSH1 0x44 CALLDATALOAD PUSH1 0x2 PUSH1 0x40 PUSH1 0x0 KECCAK256 ADD SSTORE DUP1 PUSH1 0x0 MSTORE PUSH1 0x4 DUP3 MSTORE PUSH1 0x40 PUSH1 0x0 KECCAK256 DUP4 PUSH1 0x0 MSTORE DUP3 MSTORE PUSH1 0x5 PUSH1 0x40 PUSH1 0x0 KECCAK256 ADD PUSH1 0xFF NOT DUP2 SLOAD AND SWAP1 SSTORE PUSH1 0x0 MSTORE PUSH1 0x4 DUP2 MSTORE PUSH1 0x40 PUSH1 0x0 KECCAK256 SWAP2 PUSH1 0x0 MSTORE MSTORE PUSH1 0x0 PUSH1 0x6 PUSH1 0x40 DUP3 KECCAK256 ADD SSTORE PUSH1 0x0 DUP1 RETURN JUMPDEST DUP1 PUSH1 0x0 MSTORE PUSH1 0x4 DUP3 MSTORE PUSH1 0x40 PUSH1 0x0 KECCAK256 DUP4 PUSH1 0x0 MSTORE DUP3 MSTORE PUSH1 0x5 PUSH1 0x40 PUSH1 0x0 KECCAK256 ADD PUSH1 0x1 PUSH1 0xFF NOT DUP3 SLOAD AND OR SWAP1 SSTORE PUSH1 0x0 MSTORE PUSH1 0x4 DUP2 MSTORE PUSH1 0x40 PUSH1 0x0 KECCAK256 SWAP2 PUSH1 0x0 MSTORE MSTORE TIMESTAMP PUSH1 0x6 PUSH1 0x40 PUSH1 0x0 KECCAK256 ADD SSTORE PUSH1 0x0 DUP1 RETURN JUMPDEST POP DUP1 PUSH1 0x0 MSTORE PUSH1 0x4 DUP3 MSTORE PUSH1 0x40 PUSH1 0x0 KECCAK256 DUP4 PUSH1 0x0 MSTORE DUP3 MSTORE PUSH1 0x6 PUSH1 0x40 PUSH1 0x0 KECCAK256 ADD SLOAD PUSH3 0x3F480 DUP2 ADD DUP1 SWAP2 GT PUSH2 0x825 JUMPI TIMESTAMP GT PUSH2 0x747 JUMP JUMPDEST PUSH4 0x4E487B71 PUSH1 0xE0 SHL PUSH1 0x0 MSTORE PUSH1 0x11 PUSH1 0x4 MSTORE PUSH1 0x24 PUSH1 0x0 REVERT JUMPDEST CALLVALUE PUSH2 0x18F JUMPI PUSH1 0x60 CALLDATASIZE PUSH1 0x3 NOT ADD SLT PUSH2 0x18F JUMPI PUSH1 0x1 PUSH1 0x1 PUSH1 0x40 SHL SUB PUSH1 0x4 CALLDATALOAD DUP2 DUP2 GT PUSH2 0x18F JUMPI PUSH2 0x86C SWAP1 CALLDATASIZE SWAP1 PUSH1 0x4 ADD PUSH2 0x1AF4 JUMP JUMPDEST SWAP1 PUSH1 0x24 SWAP2 DUP3 CALLDATALOAD DUP3 DUP2 GT PUSH2 0x18F JUMPI PUSH2 0x887 SWAP1 CALLDATASIZE SWAP1 PUSH1 0x4 ADD PUSH2 0x1AF4 JUMP JUMPDEST PUSH1 0x44 SWAP3 DUP4 CALLDATALOAD SWAP1 DUP2 GT PUSH2 0x18F JUMPI PUSH2 0x8A1 SWAP1 CALLDATASIZE SWAP1 PUSH1 0x4 ADD PUSH2 0x1AF4 JUMP JUMPDEST SWAP4 DUP3 MLOAD DUP3 MLOAD DUP2 EQ SWAP1 DUP2 PUSH2 0xA6E JUMPI JUMPDEST POP ISZERO PUSH2 0xA1B JUMPI DUP3 MLOAD SWAP4 PUSH1 0x0 JUMPDEST DUP6 DUP2 LT PUSH2 0x921 JUMPI POP POP POP PUSH2 0x8CF DUP2 DUP4 PUSH2 0x1E95 JUMP JUMPDEST PUSH1 0x0 JUMPDEST DUP4 DUP2 LT PUSH2 0x8DB JUMPI STOP JUMPDEST DUP1 PUSH2 0x8E8 PUSH1 0x1 SWAP3 DUP8 PUSH2 0x1C87 JUMP JUMPDEST MLOAD PUSH2 0x8F3 DUP3 DUP7 PUSH2 0x1C87 JUMP JUMPDEST MLOAD PUSH1 0x0 MSTORE PUSH1 0x20 PUSH1 0x4 DUP2 MSTORE PUSH1 0x40 PUSH1 0x0 KECCAK256 SWAP1 PUSH2 0x90D DUP5 DUP8 PUSH2 0x1C87 JUMP JUMPDEST MLOAD PUSH1 0x0 MSTORE MSTORE PUSH1 0x2 PUSH1 0x40 PUSH1 0x0 KECCAK256 ADD SSTORE ADD PUSH2 0x8D2 JUMP JUMPDEST PUSH2 0x92B DUP2 DUP7 PUSH2 0x1C87 JUMP JUMPDEST MLOAD PUSH1 0x40 PUSH2 0x938 DUP4 DUP8 PUSH2 0x1C87 JUMP JUMPDEST MLOAD SWAP2 LT SWAP1 DUP2 ISZERO SWAP2 PUSH2 0xA0F JUMPI JUMPDEST POP PUSH2 0x9D1 JUMPI PUSH2 0x953 DUP2 DUP7 PUSH2 0x1C87 JUMP JUMPDEST MLOAD PUSH1 0x0 MSTORE PUSH1 0x20 PUSH1 0x4 DUP2 MSTORE PUSH1 0x40 PUSH1 0x0 KECCAK256 PUSH2 0x96C DUP4 DUP8 PUSH2 0x1C87 JUMP JUMPDEST MLOAD PUSH1 0x0 MSTORE DUP2 MSTORE CALLER PUSH1 0x1 DUP1 PUSH1 0xA0 SHL SUB PUSH1 0x40 PUSH1 0x0 KECCAK256 SLOAD AND SUB PUSH2 0x98F JUMPI POP PUSH1 0x1 ADD PUSH2 0x8BB JUMP JUMPDEST PUSH1 0x64 SWAP1 PUSH32 0x6F6E6C79206F776E65722063616E2073657420706978656C2076616C75650000 DUP5 PUSH1 0x1E DUP8 PUSH1 0x40 MLOAD SWAP5 PUSH3 0x461BCD PUSH1 0xE5 SHL DUP7 MSTORE PUSH1 0x4 DUP7 ADD MSTORE DUP5 ADD MSTORE DUP3 ADD MSTORE REVERT JUMPDEST PUSH1 0x40 MLOAD PUSH3 0x461BCD PUSH1 0xE5 SHL DUP2 MSTORE PUSH1 0x20 PUSH1 0x4 DUP3 ADD MSTORE PUSH1 0x18 DUP2 DUP6 ADD MSTORE PUSH24 0x4120706978656C206973206F7574206F6620626F756E6473 PUSH1 0x40 SHL DUP2 DUP5 ADD MSTORE PUSH1 0x64 SWAP1 REVERT JUMPDEST PUSH1 0x40 SWAP2 POP LT ISZERO DUP9 PUSH2 0x944 JUMP JUMPDEST PUSH1 0x84 SWAP1 PUSH32 0x696E70757420617272617973206D757374206265206F66207468652073616D65 DUP6 PUSH1 0x27 PUSH1 0x40 MLOAD SWAP4 PUSH3 0x461BCD PUSH1 0xE5 SHL DUP6 MSTORE PUSH1 0x20 PUSH1 0x4 DUP7 ADD MSTORE DUP5 ADD MSTORE DUP3 ADD MSTORE PUSH7 0x40D8CADCCEE8D PUSH1 0xCB SHL PUSH1 0x64 DUP3 ADD MSTORE REVERT JUMPDEST SWAP1 POP DUP6 MLOAD EQ DUP7 PUSH2 0x8AF JUMP JUMPDEST CALLVALUE PUSH2 0x18F JUMPI PUSH1 0x20 DUP1 PUSH1 0x3 NOT CALLDATASIZE ADD SLT PUSH2 0x18F JUMPI PUSH1 0x4 CALLDATALOAD DUP1 ISZERO ISZERO DUP2 SUB PUSH2 0x18F JUMPI PUSH1 0x2 SLOAD PUSH3 0x54600 SWAP1 PUSH3 0x3F480 DUP3 PUSH2 0xAAE DUP4 TIMESTAMP PUSH2 0x1DEE JUMP JUMPDEST MOD LT PUSH2 0xC14 JUMPI CALLER PUSH1 0x0 MSTORE PUSH2 0x1045 DUP5 MSTORE PUSH1 0x40 PUSH1 0x0 KECCAK256 SLOAD SWAP1 DUP2 ISZERO PUSH2 0xBBF JUMPI DUP3 PUSH2 0xAD5 DUP3 TIMESTAMP PUSH2 0x1DEE JUMP JUMPDEST DIV PUSH1 0x0 MSTORE PUSH2 0x1046 SWAP4 DUP5 DUP7 MSTORE PUSH1 0x2 PUSH1 0x40 PUSH1 0x0 KECCAK256 ADD CALLER PUSH1 0x0 MSTORE DUP7 MSTORE PUSH1 0xFF PUSH1 0x40 PUSH1 0x0 KECCAK256 SLOAD AND PUSH2 0xB8A JUMPI DUP4 SWAP2 SWAP1 ISZERO PUSH2 0xB5F JUMPI POP PUSH2 0xB10 PUSH1 0x2 SLOAD TIMESTAMP PUSH2 0x1DEE JUMP JUMPDEST DIV PUSH1 0x0 MSTORE DUP3 DUP5 MSTORE PUSH2 0xB27 PUSH1 0x40 PUSH1 0x0 KECCAK256 SWAP2 DUP3 SLOAD PUSH2 0x1A24 JUMP JUMPDEST SWAP1 SSTORE JUMPDEST PUSH2 0xB36 PUSH1 0x2 SLOAD TIMESTAMP PUSH2 0x1DEE JUMP JUMPDEST DIV PUSH1 0x0 MSTORE DUP2 MSTORE PUSH1 0x2 PUSH1 0x40 PUSH1 0x0 KECCAK256 ADD SWAP1 CALLER PUSH1 0x0 MSTORE MSTORE PUSH1 0x40 PUSH1 0x0 KECCAK256 PUSH1 0x1 PUSH1 0xFF NOT DUP3 SLOAD AND OR SWAP1 SSTORE PUSH1 0x0 DUP1 RETURN JUMPDEST PUSH2 0xB69 SWAP1 TIMESTAMP PUSH2 0x1DEE JUMP JUMPDEST DIV PUSH1 0x0 MSTORE DUP3 DUP5 MSTORE PUSH2 0xB83 PUSH1 0x1 PUSH1 0x40 PUSH1 0x0 KECCAK256 ADD SWAP2 DUP3 SLOAD PUSH2 0x1A24 JUMP JUMPDEST SWAP1 SSTORE PUSH2 0xB2A JUMP JUMPDEST PUSH1 0x40 MLOAD PUSH3 0x461BCD PUSH1 0xE5 SHL DUP2 MSTORE PUSH1 0x4 DUP2 ADD DUP8 SWAP1 MSTORE PUSH1 0xD PUSH1 0x24 DUP3 ADD MSTORE PUSH13 0x185B1C9958591E481D9BDD1959 PUSH1 0x9A SHL PUSH1 0x44 DUP3 ADD MSTORE PUSH1 0x64 SWAP1 REVERT JUMPDEST PUSH1 0x40 MLOAD PUSH3 0x461BCD PUSH1 0xE5 SHL DUP2 MSTORE PUSH1 0x4 DUP2 ADD DUP7 SWAP1 MSTORE PUSH1 0x27 PUSH1 0x24 DUP3 ADD MSTORE PUSH32 0x6E6F20706978656C73206F776E6564203D206E6F20766F74657320746F206265 PUSH1 0x44 DUP3 ADD MSTORE PUSH7 0x818D85CDD1959 PUSH1 0xCA SHL PUSH1 0x64 DUP3 ADD MSTORE PUSH1 0x84 SWAP1 REVERT JUMPDEST PUSH1 0x40 MLOAD PUSH3 0x461BCD PUSH1 0xE5 SHL DUP2 MSTORE PUSH1 0x4 DUP2 ADD DUP6 SWAP1 MSTORE PUSH1 0x19 PUSH1 0x24 DUP3 ADD MSTORE PUSH25 0x2B37BA34B7339031BAB93932B73A363C903737BA1037B832B7 PUSH1 0x39 SHL PUSH1 0x44 DUP3 ADD MSTORE PUSH1 0x64 SWAP1 REVERT JUMPDEST CALLVALUE PUSH2 0x18F JUMPI PUSH2 0xC63 CALLDATASIZE PUSH2 0x1B52 JUMP JUMPDEST PUSH2 0xC70 DUP3 MLOAD DUP3 MLOAD EQ PUSH2 0x1DFB JUMP JUMPDEST DUP2 MLOAD SWAP2 PUSH1 0x0 JUMPDEST DUP4 DUP2 LT PUSH2 0xC7F JUMPI STOP JUMPDEST PUSH2 0xC89 DUP2 DUP4 PUSH2 0x1C87 JUMP JUMPDEST MLOAD PUSH1 0x40 PUSH2 0xC96 DUP4 DUP7 PUSH2 0x1C87 JUMP JUMPDEST MLOAD SWAP2 LT SWAP1 DUP2 ISZERO SWAP2 PUSH2 0x1301 JUMPI JUMPDEST POP PUSH2 0x12E4 JUMPI PUSH2 0xCB1 DUP2 DUP4 PUSH2 0x1C87 JUMP JUMPDEST MLOAD PUSH1 0x0 MSTORE PUSH1 0x4 PUSH1 0x20 MSTORE PUSH1 0x40 PUSH1 0x0 KECCAK256 PUSH2 0xCC9 DUP3 DUP6 PUSH2 0x1C87 JUMP JUMPDEST MLOAD PUSH1 0x0 MSTORE PUSH1 0x20 MSTORE PUSH1 0x1 DUP1 PUSH1 0xA0 SHL SUB PUSH1 0x40 PUSH1 0x0 KECCAK256 SLOAD AND ISZERO PUSH1 0x0 EQ PUSH2 0xD4B JUMPI PUSH2 0xCF0 DUP2 DUP4 PUSH2 0x1C87 JUMP JUMPDEST MLOAD PUSH1 0x0 MSTORE PUSH1 0x4 PUSH1 0x20 MSTORE PUSH1 0x40 PUSH1 0x0 KECCAK256 PUSH2 0xD08 DUP3 DUP6 PUSH2 0x1C87 JUMP JUMPDEST MLOAD PUSH1 0x0 MSTORE PUSH1 0x20 MSTORE PUSH1 0x40 PUSH1 0x0 KECCAK256 CALLER PUSH1 0x1 DUP1 PUSH1 0xA0 SHL SUB NOT DUP3 SLOAD AND OR SWAP1 SSTORE CALLER PUSH1 0x0 MSTORE PUSH2 0x1045 PUSH1 0x20 MSTORE PUSH1 0x40 PUSH1 0x0 KECCAK256 SWAP1 DUP2 SLOAD PUSH1 0x1 DUP2 ADD DUP1 SWAP2 GT PUSH2 0x825 JUMPI PUSH1 0x1 SWAP3 SSTORE JUMPDEST ADD PUSH2 0xC76 JUMP JUMPDEST PUSH2 0xD6A PUSH2 0xD58 DUP3 DUP5 PUSH2 0x1C87 JUMP JUMPDEST MLOAD PUSH2 0xD63 DUP4 DUP7 PUSH2 0x1C87 JUMP JUMPDEST MLOAD SWAP1 PUSH2 0x24D9 JUMP JUMPDEST PUSH2 0xD74 DUP3 DUP5 PUSH2 0x1C87 JUMP JUMPDEST MLOAD PUSH1 0x0 MSTORE PUSH1 0x4 PUSH1 0x20 MSTORE PUSH1 0x40 PUSH1 0x0 KECCAK256 PUSH2 0xD8C DUP4 DUP7 PUSH2 0x1C87 JUMP JUMPDEST MLOAD PUSH1 0x0 MSTORE PUSH1 0x20 MSTORE DUP1 PUSH1 0x2 PUSH1 0x40 PUSH1 0x0 KECCAK256 ADD SLOAD GT PUSH1 0x0 EQ PUSH2 0x114B JUMPI PUSH2 0xDAF DUP3 DUP5 PUSH2 0x1C87 JUMP JUMPDEST MLOAD PUSH1 0x0 MSTORE PUSH1 0x4 PUSH1 0x20 MSTORE PUSH1 0x40 PUSH1 0x0 KECCAK256 PUSH2 0xDC7 DUP4 DUP7 PUSH2 0x1C87 JUMP JUMPDEST MLOAD PUSH1 0x0 MSTORE PUSH1 0x20 MSTORE PUSH2 0xDE0 DUP2 PUSH1 0x2 PUSH1 0x40 PUSH1 0x0 KECCAK256 ADD SLOAD PUSH2 0x1DEE JUMP JUMPDEST PUSH1 0x3 SLOAD PUSH1 0x40 MLOAD PUSH4 0x70A08231 PUSH1 0xE0 SHL DUP2 MSTORE CALLER PUSH1 0x4 DUP3 ADD MSTORE PUSH1 0x24 SWAP4 PUSH1 0x1 PUSH1 0x1 PUSH1 0xA0 SHL SUB SWAP1 SWAP3 AND SWAP3 SWAP2 SWAP1 PUSH1 0x20 DUP2 DUP7 DUP2 DUP8 GAS STATICCALL DUP1 ISZERO PUSH2 0x10B8 JUMPI PUSH1 0x0 SWAP1 PUSH2 0x1117 JUMPI JUMPDEST PUSH2 0xE5A SWAP2 POP PUSH2 0xE2C DUP8 DUP10 PUSH2 0x1C87 JUMP JUMPDEST MLOAD PUSH1 0x0 MSTORE PUSH1 0x4 PUSH1 0x20 MSTORE PUSH1 0x40 PUSH1 0x0 KECCAK256 PUSH2 0xE44 DUP9 DUP12 PUSH2 0x1C87 JUMP JUMPDEST MLOAD PUSH1 0x0 MSTORE PUSH1 0x20 MSTORE PUSH1 0x2 PUSH1 0x40 PUSH1 0x0 KECCAK256 ADD SLOAD LT PUSH2 0x22B9 JUMP JUMPDEST PUSH1 0x40 MLOAD PUSH4 0x6EB1769F PUSH1 0xE1 SHL DUP2 MSTORE CALLER PUSH1 0x4 DUP3 ADD MSTORE ADDRESS PUSH1 0x24 DUP3 ADD MSTORE SWAP3 PUSH1 0x20 DUP5 PUSH1 0x44 DUP2 DUP5 GAS STATICCALL SWAP4 DUP5 ISZERO PUSH2 0x10B8 JUMPI PUSH1 0x0 SWAP5 PUSH2 0x10E1 JUMPI JUMPDEST POP PUSH2 0xF21 PUSH1 0x20 SWAP2 PUSH2 0xECC PUSH1 0x0 SWAP7 PUSH2 0xEA3 DUP11 DUP13 PUSH2 0x1C87 JUMP JUMPDEST MLOAD DUP9 MSTORE PUSH1 0x4 DUP6 MSTORE PUSH1 0x40 DUP9 KECCAK256 PUSH2 0xEB8 DUP12 DUP15 PUSH2 0x1C87 JUMP JUMPDEST MLOAD DUP10 MSTORE DUP6 MSTORE PUSH1 0x2 PUSH1 0x40 DUP10 KECCAK256 ADD SLOAD GT ISZERO PUSH2 0x2311 JUMP JUMPDEST PUSH2 0xED6 DUP9 DUP11 PUSH2 0x1C87 JUMP JUMPDEST MLOAD DUP7 MSTORE PUSH1 0x4 DUP4 MSTORE PUSH1 0x40 DUP7 KECCAK256 PUSH2 0xEEB DUP10 DUP13 PUSH2 0x1C87 JUMP JUMPDEST MLOAD DUP8 MSTORE DUP4 MSTORE PUSH1 0x40 DUP1 DUP8 KECCAK256 SLOAD SWAP1 MLOAD PUSH4 0x23B872DD PUSH1 0xE0 SHL DUP1 DUP3 MSTORE SWAP1 SWAP8 SWAP1 SWAP7 DUP9 SWAP5 DUP6 SWAP4 DUP5 SWAP3 SWAP1 PUSH1 0x1 PUSH1 0x1 PUSH1 0xA0 SHL SUB AND CALLER PUSH1 0x4 DUP6 ADD PUSH2 0x1E73 JUMP JUMPDEST SUB SWAP3 GAS CALL SWAP2 DUP3 ISZERO PUSH2 0x10B8 JUMPI PUSH2 0xF67 SWAP4 PUSH1 0x20 SWAP4 PUSH2 0x10C4 JUMPI JUMPDEST POP PUSH1 0x3 SLOAD PUSH1 0x0 DUP1 SLOAD PUSH1 0x40 MLOAD SWAP4 DUP5 MSTORE SWAP3 SWAP6 DUP7 SWAP5 PUSH1 0x1 PUSH1 0x1 PUSH1 0xA0 SHL SUB SWAP4 DUP5 AND SWAP5 DUP7 SWAP5 DUP6 SWAP4 SWAP3 SWAP2 AND CALLER PUSH1 0x4 DUP6 ADD PUSH2 0x1E73 JUMP JUMPDEST SUB SWAP3 GAS CALL DUP1 ISZERO PUSH2 0x10B8 JUMPI PUSH2 0x1089 JUMPI JUMPDEST POP PUSH2 0xF81 DUP3 DUP5 PUSH2 0x1C87 JUMP JUMPDEST MLOAD PUSH1 0x0 MSTORE PUSH1 0x4 PUSH1 0x20 MSTORE PUSH1 0x40 PUSH1 0x0 KECCAK256 PUSH2 0xF99 DUP4 DUP7 PUSH2 0x1C87 JUMP JUMPDEST MLOAD PUSH1 0x0 MSTORE PUSH1 0x20 MSTORE PUSH1 0x1 DUP1 PUSH1 0xA0 SHL SUB PUSH1 0x40 PUSH1 0x0 KECCAK256 SLOAD AND PUSH1 0x0 MSTORE PUSH2 0x1045 DUP1 PUSH1 0x20 MSTORE PUSH1 0x40 PUSH1 0x0 KECCAK256 DUP1 SLOAD SWAP1 PUSH1 0x0 NOT DUP3 ADD SWAP2 DUP3 GT PUSH2 0x1074 JUMPI SSTORE CALLER PUSH1 0x0 MSTORE PUSH1 0x20 MSTORE PUSH1 0x40 PUSH1 0x0 KECCAK256 DUP1 SLOAD SWAP2 PUSH1 0x1 DUP4 ADD DUP1 SWAP4 GT PUSH2 0x1060 JUMPI POP SSTORE PUSH1 0x1 SWAP1 PUSH2 0xFF6 DUP2 DUP5 PUSH2 0x1C87 JUMP JUMPDEST MLOAD PUSH1 0x0 MSTORE PUSH1 0x4 PUSH1 0x20 MSTORE PUSH1 0x40 PUSH1 0x0 KECCAK256 PUSH2 0x100E DUP3 DUP7 PUSH2 0x1C87 JUMP JUMPDEST MLOAD PUSH1 0x0 MSTORE PUSH1 0x20 MSTORE PUSH1 0x40 PUSH1 0x0 KECCAK256 CALLER DUP4 DUP1 PUSH1 0xA0 SHL SUB NOT DUP3 SLOAD AND OR SWAP1 SSTORE PUSH2 0x1032 DUP2 DUP5 PUSH2 0x1C87 JUMP JUMPDEST MLOAD PUSH1 0x0 MSTORE PUSH1 0x4 PUSH1 0x20 MSTORE PUSH1 0x40 PUSH1 0x0 KECCAK256 PUSH2 0x104A DUP3 DUP7 PUSH2 0x1C87 JUMP JUMPDEST MLOAD PUSH1 0x0 MSTORE PUSH1 0x20 MSTORE TIMESTAMP PUSH1 0x4 PUSH1 0x40 PUSH1 0x0 KECCAK256 ADD SSTORE PUSH2 0xD45 JUMP JUMPDEST PUSH4 0x4E487B71 PUSH1 0xE0 SHL PUSH1 0x0 SWAP1 DUP2 MSTORE PUSH1 0x11 PUSH1 0x4 MSTORE REVERT JUMPDEST DUP4 PUSH4 0x4E487B71 PUSH1 0xE0 SHL PUSH1 0x0 MSTORE PUSH1 0x11 PUSH1 0x4 MSTORE PUSH1 0x0 REVERT JUMPDEST PUSH2 0x10AA SWAP1 PUSH1 0x20 RETURNDATASIZE PUSH1 0x20 GT PUSH2 0x10B1 JUMPI JUMPDEST PUSH2 0x10A2 DUP2 DUP4 PUSH2 0x1A85 JUMP JUMPDEST DUP2 ADD SWAP1 PUSH2 0x1E5B JUMP JUMPDEST POP DUP6 PUSH2 0xF76 JUMP JUMPDEST POP RETURNDATASIZE PUSH2 0x1098 JUMP JUMPDEST PUSH1 0x40 MLOAD RETURNDATASIZE PUSH1 0x0 DUP3 RETURNDATACOPY RETURNDATASIZE SWAP1 REVERT JUMPDEST PUSH2 0x10DA SWAP1 DUP5 RETURNDATASIZE DUP7 GT PUSH2 0x10B1 JUMPI PUSH2 0x10A2 DUP2 DUP4 PUSH2 0x1A85 JUMP JUMPDEST POP DUP10 PUSH2 0xF38 JUMP JUMPDEST SWAP4 POP PUSH1 0x20 DUP5 RETURNDATASIZE PUSH1 0x20 GT PUSH2 0x110F JUMPI JUMPDEST DUP2 PUSH2 0x10FC PUSH1 0x20 SWAP4 DUP4 PUSH2 0x1A85 JUMP JUMPDEST DUP2 ADD SUB SLT PUSH2 0x18F JUMPI SWAP3 MLOAD SWAP3 PUSH2 0xF21 PUSH2 0xE8C JUMP JUMPDEST RETURNDATASIZE SWAP2 POP PUSH2 0x10EF JUMP JUMPDEST POP PUSH1 0x20 DUP2 RETURNDATASIZE PUSH1 0x20 GT PUSH2 0x1143 JUMPI JUMPDEST DUP2 PUSH2 0x1131 PUSH1 0x20 SWAP4 DUP4 PUSH2 0x1A85 JUMP JUMPDEST DUP2 ADD SUB SLT PUSH2 0x18F JUMPI PUSH2 0xE5A SWAP1 MLOAD PUSH2 0xE1D JUMP JUMPDEST RETURNDATASIZE SWAP2 POP PUSH2 0x1124 JUMP JUMPDEST POP PUSH1 0x3 SLOAD PUSH1 0x40 MLOAD PUSH4 0x70A08231 PUSH1 0xE0 SHL DUP2 MSTORE CALLER PUSH1 0x4 DUP3 ADD MSTORE PUSH1 0x24 SWAP2 PUSH1 0x1 PUSH1 0x1 PUSH1 0xA0 SHL SUB AND SWAP1 PUSH1 0x20 DUP2 DUP5 DUP2 DUP6 GAS STATICCALL DUP1 ISZERO PUSH2 0x10B8 JUMPI PUSH1 0x0 SWAP1 PUSH2 0x12B0 JUMPI JUMPDEST PUSH2 0x11AC SWAP2 POP PUSH2 0x1194 DUP6 DUP8 PUSH2 0x1C87 JUMP JUMPDEST MLOAD PUSH1 0x0 MSTORE PUSH1 0x4 PUSH1 0x20 MSTORE PUSH1 0x40 PUSH1 0x0 KECCAK256 PUSH2 0xE44 DUP7 DUP10 PUSH2 0x1C87 JUMP JUMPDEST PUSH1 0x40 MLOAD PUSH4 0x6EB1769F PUSH1 0xE1 SHL DUP2 MSTORE CALLER PUSH1 0x4 DUP3 ADD MSTORE ADDRESS PUSH1 0x24 DUP3 ADD MSTORE PUSH1 0x20 DUP2 PUSH1 0x44 DUP2 DUP6 GAS STATICCALL SWAP1 DUP2 ISZERO PUSH2 0x10B8 JUMPI PUSH1 0x0 SWAP2 PUSH2 0x127C JUMPI JUMPDEST POP PUSH2 0xF67 SWAP2 PUSH2 0x121F PUSH1 0x20 SWAP3 PUSH2 0x11F2 DUP8 DUP10 PUSH2 0x1C87 JUMP JUMPDEST MLOAD PUSH1 0x0 MSTORE PUSH1 0x4 DUP5 MSTORE PUSH1 0x40 PUSH1 0x0 KECCAK256 PUSH2 0x1209 DUP9 DUP12 PUSH2 0x1C87 JUMP JUMPDEST MLOAD PUSH1 0x0 MSTORE DUP5 MSTORE PUSH1 0x2 PUSH1 0x40 PUSH1 0x0 KECCAK256 ADD SLOAD GT ISZERO PUSH2 0x2311 JUMP JUMPDEST PUSH1 0x0 SLOAD PUSH1 0x1 PUSH1 0x1 PUSH1 0xA0 SHL SUB AND SWAP1 PUSH2 0x1236 DUP7 DUP9 PUSH2 0x1C87 JUMP JUMPDEST MLOAD PUSH1 0x0 MSTORE PUSH1 0x4 DUP4 MSTORE PUSH1 0x40 PUSH1 0x0 KECCAK256 PUSH2 0x124D DUP8 DUP11 PUSH2 0x1C87 JUMP JUMPDEST MLOAD PUSH1 0x0 MSTORE DUP4 MSTORE PUSH1 0x2 PUSH1 0x40 PUSH1 0x0 KECCAK256 ADD SLOAD SWAP2 PUSH1 0x0 PUSH1 0x40 MLOAD DUP1 SWAP7 DUP2 SWAP6 DUP3 SWAP5 PUSH4 0x23B872DD PUSH1 0xE0 SHL DUP5 MSTORE CALLER PUSH1 0x4 DUP6 ADD PUSH2 0x1E73 JUMP JUMPDEST SWAP1 POP PUSH1 0x20 DUP2 RETURNDATASIZE PUSH1 0x20 GT PUSH2 0x12A8 JUMPI JUMPDEST DUP2 PUSH2 0x1297 PUSH1 0x20 SWAP4 DUP4 PUSH2 0x1A85 JUMP JUMPDEST DUP2 ADD SUB SLT PUSH2 0x18F JUMPI MLOAD PUSH2 0xF67 PUSH2 0x11DD JUMP JUMPDEST RETURNDATASIZE SWAP2 POP PUSH2 0x128A JUMP JUMPDEST POP PUSH1 0x20 DUP2 RETURNDATASIZE PUSH1 0x20 GT PUSH2 0x12DC JUMPI JUMPDEST DUP2 PUSH2 0x12CA PUSH1 0x20 SWAP4 DUP4 PUSH2 0x1A85 JUMP JUMPDEST DUP2 ADD SUB SLT PUSH2 0x18F JUMPI PUSH2 0x11AC SWAP1 MLOAD PUSH2 0x1185 JUMP JUMPDEST RETURNDATASIZE SWAP2 POP PUSH2 0x12BD JUMP JUMPDEST PUSH1 0x40 MLOAD PUSH3 0x461BCD PUSH1 0xE5 SHL DUP2 MSTORE DUP1 PUSH2 0x12FD PUSH1 0x4 DUP3 ADD PUSH2 0x1C9B JUMP JUMPDEST SUB SWAP1 REVERT JUMPDEST PUSH1 0x40 SWAP2 POP LT ISZERO DUP6 PUSH2 0xCA2 JUMP JUMPDEST PUSH2 0x1A31 JUMP JUMPDEST PUSH2 0x1AD8 JUMP JUMPDEST CALLVALUE PUSH2 0x18F JUMPI PUSH1 0x20 CALLDATASIZE PUSH1 0x3 NOT ADD SLT PUSH2 0x18F JUMPI PUSH1 0x4 CALLDATALOAD PUSH1 0x1 PUSH1 0x1 PUSH1 0xA0 SHL SUB DUP2 DUP2 AND SWAP2 DUP3 SWAP1 SUB PUSH2 0x18F JUMPI PUSH2 0x134D SWAP1 PUSH1 0x0 SLOAD AND CALLER EQ PUSH2 0x2369 JUMP JUMPDEST PUSH1 0x3 DUP1 SLOAD PUSH1 0x1 PUSH1 0x1 PUSH1 0xA0 SHL SUB NOT AND SWAP2 SWAP1 SWAP2 OR SWAP1 SSTORE STOP JUMPDEST CALLVALUE PUSH2 0x18F JUMPI PUSH1 0x0 CALLDATASIZE PUSH1 0x3 NOT ADD SLT PUSH2 0x18F JUMPI PUSH1 0x20 PUSH3 0x3F480 PUSH3 0x54600 PUSH2 0x138A PUSH1 0x2 SLOAD TIMESTAMP PUSH2 0x1DEE JUMP JUMPDEST MOD LT PUSH1 0x40 MLOAD SWAP1 DUP2 MSTORE RETURN JUMPDEST CALLVALUE PUSH2 0x18F JUMPI PUSH1 0x0 CALLDATASIZE PUSH1 0x3 NOT ADD SLT PUSH2 0x18F JUMPI PUSH1 0x0 SLOAD PUSH1 0x40 MLOAD PUSH1 0x1 PUSH1 0x1 PUSH1 0xA0 SHL SUB SWAP1 SWAP2 AND DUP2 MSTORE PUSH1 0x20 SWAP1 RETURN JUMPDEST CALLVALUE PUSH2 0x18F JUMPI PUSH1 0x20 CALLDATASIZE PUSH1 0x3 NOT ADD SLT PUSH2 0x18F JUMPI PUSH1 0x4 CALLDATALOAD PUSH1 0x1 PUSH1 0x1 PUSH1 0x40 SHL SUB DUP2 GT PUSH2 0x18F JUMPI CALLDATASIZE PUSH1 0x23 DUP3 ADD SLT ISZERO PUSH2 0x18F JUMPI DUP1 PUSH1 0x4 ADD CALLDATALOAD PUSH2 0x13F8 DUP2 PUSH2 0x1AA6 JUMP JUMPDEST SWAP2 PUSH2 0x1406 PUSH1 0x40 MLOAD SWAP4 DUP5 PUSH2 0x1A85 JUMP JUMPDEST DUP2 DUP4 MSTORE PUSH1 0x24 PUSH1 0x20 DUP5 ADD SWAP3 PUSH1 0x5 SHL DUP3 ADD ADD SWAP1 CALLDATASIZE DUP3 GT PUSH2 0x18F JUMPI PUSH1 0x24 DUP2 ADD SWAP3 JUMPDEST DUP3 DUP5 LT PUSH2 0x187E JUMPI DUP5 PUSH3 0x3F480 PUSH3 0x54600 PUSH2 0x1440 PUSH1 0x2 SLOAD TIMESTAMP PUSH2 0x1DEE JUMP JUMPDEST MOD LT ISZERO PUSH2 0x182E JUMPI DUP1 MLOAD PUSH1 0x40 MLOAD SWAP2 PUSH2 0x820 DUP4 ADD DUP4 DUP2 LT PUSH1 0x1 PUSH1 0x1 PUSH1 0x40 SHL SUB DUP3 GT OR PUSH2 0x6DC JUMPI PUSH1 0x40 MSTORE PUSH1 0x40 DUP4 MSTORE PUSH2 0x800 CALLDATASIZE PUSH1 0x20 DUP6 ADD CALLDATACOPY PUSH1 0x0 JUMPDEST DUP3 DUP2 LT PUSH2 0x1551 JUMPI DUP4 PUSH1 0x0 JUMPDEST PUSH1 0x40 DUP2 LT PUSH2 0x148C JUMPI STOP JUMPDEST PUSH2 0x1496 DUP2 DUP4 PUSH2 0x1C87 JUMP JUMPDEST MLOAD PUSH2 0x14A4 JUMPI JUMPDEST PUSH1 0x1 ADD PUSH2 0x1482 JUMP JUMPDEST PUSH1 0x40 MLOAD PUSH2 0x14B0 DUP2 PUSH2 0x1A6A JUMP JUMPDEST PUSH1 0x0 DUP2 MSTORE PUSH1 0x6 DUP3 SWAP1 SHL PUSH1 0x1 PUSH1 0x1 PUSH1 0xFA SHL SUB DUP4 AND DUP4 SUB PUSH2 0x825 JUMPI DUP1 PUSH1 0x40 ADD SWAP1 DUP2 PUSH1 0x40 GT PUSH2 0x825 JUMPI SWAP1 JUMPDEST DUP1 DUP3 LT PUSH2 0x14F9 JUMPI POP POP SWAP1 PUSH2 0x14F2 PUSH1 0x1 SWAP3 DUP3 PUSH2 0x1005 ADD PUSH2 0x1CCC JUMP JUMPDEST SWAP1 POP PUSH2 0x149C JUMP JUMPDEST SWAP1 SWAP2 PUSH2 0x1000 DUP4 LT ISZERO PUSH2 0x153B JUMPI PUSH1 0x20 PUSH2 0x6D1 PUSH2 0x1535 SWAP3 PUSH2 0x6C3 PUSH1 0x40 MLOAD SWAP4 DUP3 PUSH2 0x1529 DUP7 SWAP5 MLOAD DUP1 SWAP3 DUP5 DUP1 DUP9 ADD SWAP2 ADD PUSH2 0x1980 JUMP JUMPDEST DUP4 ADD ADD DUP8 PUSH1 0x5 ADD PUSH2 0x2C93 JUMP JUMPDEST SWAP1 PUSH2 0x14D8 JUMP JUMPDEST PUSH4 0x4E487B71 PUSH1 0xE0 SHL PUSH1 0x0 MSTORE PUSH1 0x32 PUSH1 0x4 MSTORE PUSH1 0x24 PUSH1 0x0 REVERT JUMPDEST PUSH2 0x155B DUP2 DUP4 PUSH2 0x1C87 JUMP JUMPDEST MLOAD SWAP1 DUP2 MLOAD DUP3 ADD DUP3 PUSH1 0x20 DUP3 ADD SWAP2 PUSH1 0x80 SWAP2 DUP3 SWAP2 SUB SLT PUSH2 0x18F JUMPI PUSH1 0x20 DUP5 ADD MLOAD SWAP2 PUSH1 0x40 DUP6 ADD MLOAD SWAP5 PUSH1 0x60 DUP2 ADD MLOAD SWAP3 DUP2 ADD MLOAD SWAP1 PUSH1 0x1 PUSH1 0x1 PUSH1 0x40 SHL SUB DUP3 GT PUSH2 0x18F JUMPI ADD DUP2 PUSH1 0x3F DUP3 ADD SLT ISZERO PUSH2 0x18F JUMPI PUSH1 0x20 DUP2 ADD MLOAD PUSH2 0x15B0 DUP2 PUSH2 0x1ABD JUMP JUMPDEST SWAP3 PUSH2 0x15BE PUSH1 0x40 MLOAD SWAP5 DUP6 PUSH2 0x1A85 JUMP JUMPDEST DUP2 DUP5 MSTORE PUSH1 0x40 DUP3 DUP5 ADD ADD GT PUSH2 0x18F JUMPI PUSH2 0x15DD SWAP2 PUSH1 0x40 PUSH1 0x20 DUP6 ADD SWAP2 ADD PUSH2 0x1980 JUMP JUMPDEST PUSH1 0x40 DUP4 LT DUP1 ISZERO SWAP1 PUSH2 0x1823 JUMPI JUMPDEST PUSH2 0x12E4 JUMPI PUSH1 0xA DUP3 LT ISZERO PUSH2 0x17E5 JUMPI DUP3 PUSH1 0x0 MSTORE PUSH1 0x4 PUSH1 0x20 MSTORE PUSH1 0x40 PUSH1 0x0 KECCAK256 DUP6 PUSH1 0x0 MSTORE PUSH1 0x20 MSTORE PUSH1 0xFF PUSH1 0x5 PUSH1 0x40 PUSH1 0x0 KECCAK256 ADD SLOAD AND PUSH2 0x1788 JUMPI DUP3 PUSH1 0x0 MSTORE PUSH1 0x4 PUSH1 0x20 MSTORE PUSH1 0x40 PUSH1 0x0 KECCAK256 DUP6 PUSH1 0x0 MSTORE PUSH1 0x20 MSTORE CALLER PUSH1 0x1 DUP1 PUSH1 0xA0 SHL SUB PUSH1 0x40 PUSH1 0x0 KECCAK256 SLOAD AND EQ PUSH2 0x1657 JUMPI JUMPDEST POP POP POP PUSH2 0x1652 SWAP2 POP PUSH2 0x1C78 JUMP JUMPDEST PUSH2 0x1477 JUMP JUMPDEST PUSH2 0x167D SWAP1 DUP4 PUSH1 0x0 MSTORE PUSH1 0x4 PUSH1 0x20 MSTORE PUSH1 0x40 PUSH1 0x0 KECCAK256 DUP7 PUSH1 0x0 MSTORE PUSH1 0x20 MSTORE PUSH1 0x3 PUSH1 0x40 PUSH1 0x0 KECCAK256 ADD PUSH2 0x1CCC JUMP JUMPDEST DUP2 PUSH1 0x0 MSTORE PUSH1 0x4 PUSH1 0x20 MSTORE PUSH1 0x40 PUSH1 0x0 KECCAK256 DUP5 PUSH1 0x0 MSTORE PUSH1 0x20 MSTORE PUSH1 0x1 PUSH1 0x40 PUSH1 0x0 KECCAK256 ADD SSTORE DUP1 DUP4 PUSH2 0x1746 JUMPI JUMPDEST DUP1 PUSH1 0x0 MSTORE PUSH1 0x4 PUSH1 0x20 MSTORE PUSH1 0x40 PUSH1 0x0 KECCAK256 DUP5 PUSH1 0x0 MSTORE PUSH1 0x20 MSTORE PUSH1 0x1 PUSH1 0x40 PUSH1 0x0 KECCAK256 ADD SLOAD SWAP1 PUSH1 0x9 SWAP1 DUP1 DUP3 DUP2 MUL DIV DUP3 EQ DUP2 ISZERO OR ISZERO PUSH2 0x825 JUMPI DUP6 DUP3 DUP2 MUL DIV DUP3 EQ DUP7 ISZERO OR ISZERO PUSH2 0x825 JUMPI PUSH2 0x1717 SWAP3 DUP2 PUSH1 0x0 MSTORE PUSH1 0x4 PUSH1 0x20 MSTORE PUSH1 0x40 PUSH1 0x0 KECCAK256 DUP8 PUSH1 0x0 MSTORE PUSH1 0x20 MSTORE PUSH2 0x170B PUSH1 0x3 PUSH1 0x40 PUSH1 0x0 KECCAK256 ADD PUSH2 0x1BD2 JUMP JUMPDEST SWAP3 DUP1 DUP9 MUL SWAP3 MUL SWAP1 PUSH2 0x2536 JUMP JUMPDEST PUSH2 0x1000 DUP3 LT ISZERO PUSH2 0x153B JUMPI PUSH2 0x1652 SWAP4 PUSH2 0x1737 PUSH2 0x173D SWAP3 PUSH1 0x1 SWAP5 PUSH1 0x5 ADD PUSH2 0x1CCC JUMP JUMPDEST DUP8 PUSH2 0x1C87 JUMP JUMPDEST MSTORE DUP6 DUP1 DUP1 PUSH2 0x1645 JUMP JUMPDEST SWAP1 POP PUSH2 0x1752 DUP4 DUP3 PUSH2 0x1DDB JUMP JUMPDEST PUSH1 0x40 DUP3 DUP2 SUB GT PUSH2 0x825 JUMPI DUP4 PUSH1 0x0 NOT DUP2 ADD GT PUSH2 0x825 JUMPI PUSH2 0x1782 SWAP1 PUSH2 0x177C PUSH1 0x0 NOT DUP7 ADD DUP5 PUSH1 0x40 SUB PUSH2 0x1DDB JUMP JUMPDEST SWAP1 PUSH2 0x1A24 JUMP JUMPDEST SWAP1 PUSH2 0x16A2 JUMP JUMPDEST PUSH1 0x40 MLOAD PUSH3 0x461BCD PUSH1 0xE5 SHL DUP2 MSTORE PUSH1 0x20 PUSH1 0x4 DUP3 ADD MSTORE PUSH1 0x2F PUSH1 0x24 DUP3 ADD MSTORE PUSH32 0x6F776E6572207761732061736B656420746F20666972737420736574746C6520 PUSH1 0x44 DUP3 ADD MSTORE PUSH15 0x1C9BDE585B1D1E481C185E5B595B9D PUSH1 0x8A SHL PUSH1 0x64 DUP3 ADD MSTORE PUSH1 0x84 SWAP1 REVERT JUMPDEST PUSH1 0x40 MLOAD PUSH3 0x461BCD PUSH1 0xE5 SHL DUP2 MSTORE PUSH1 0x20 PUSH1 0x4 DUP3 ADD MSTORE PUSH1 0x16 PUSH1 0x24 DUP3 ADD MSTORE PUSH22 0x7368617065204944206E6F7420617661696C61626C65 PUSH1 0x50 SHL PUSH1 0x44 DUP3 ADD MSTORE PUSH1 0x64 SWAP1 REVERT JUMPDEST POP PUSH1 0x40 DUP6 LT ISZERO PUSH2 0x15E9 JUMP JUMPDEST PUSH1 0x40 MLOAD PUSH3 0x461BCD PUSH1 0xE5 SHL DUP2 MSTORE PUSH1 0x20 PUSH1 0x4 DUP3 ADD MSTORE PUSH1 0x22 PUSH1 0x24 DUP3 ADD MSTORE PUSH32 0x417274697374696320706572696F642063757272656E746C79206E6F74206F70 PUSH1 0x44 DUP3 ADD MSTORE PUSH2 0x32B7 PUSH1 0xF1 SHL PUSH1 0x64 DUP3 ADD MSTORE PUSH1 0x84 SWAP1 REVERT JUMPDEST DUP4 CALLDATALOAD PUSH1 0x1 PUSH1 0x1 PUSH1 0x40 SHL SUB DUP2 GT PUSH2 0x18F JUMPI DUP3 ADD SWAP1 CALLDATASIZE PUSH1 0x43 DUP4 ADD SLT ISZERO PUSH2 0x18F JUMPI PUSH1 0x24 DUP3 ADD CALLDATALOAD SWAP1 PUSH2 0x18AB DUP3 PUSH2 0x1ABD JUMP JUMPDEST PUSH2 0x18B8 PUSH1 0x40 MLOAD SWAP2 DUP3 PUSH2 0x1A85 JUMP JUMPDEST DUP3 DUP2 MSTORE PUSH1 0x44 SWAP4 CALLDATASIZE DUP6 DUP6 DUP4 ADD ADD GT PUSH2 0x18F JUMPI PUSH1 0x20 DUP5 DUP2 SWAP7 SWAP6 DUP3 SWAP7 PUSH1 0x0 SWAP5 ADD DUP4 DUP7 ADD CALLDATACOPY DUP4 ADD ADD MSTORE DUP2 MSTORE ADD SWAP4 ADD SWAP3 PUSH2 0x1424 JUMP JUMPDEST CALLVALUE PUSH2 0x18F JUMPI PUSH1 0x20 CALLDATASIZE PUSH1 0x3 NOT ADD SLT PUSH2 0x18F JUMPI PUSH1 0x4 CALLDATALOAD PUSH1 0x0 MSTORE PUSH2 0x1046 PUSH1 0x20 MSTORE PUSH1 0x40 DUP1 PUSH1 0x0 KECCAK256 PUSH1 0x1 DUP2 SLOAD SWAP2 ADD SLOAD DUP3 MLOAD SWAP2 DUP3 MSTORE PUSH1 0x20 DUP3 ADD MSTORE RETURN JUMPDEST CALLVALUE PUSH2 0x18F JUMPI PUSH1 0x0 CALLDATASIZE PUSH1 0x3 NOT ADD SLT PUSH2 0x18F JUMPI PUSH1 0x20 PUSH1 0x40 MLOAD PUSH3 0x54600 DUP2 MSTORE RETURN JUMPDEST CALLVALUE PUSH2 0x18F JUMPI PUSH2 0x303 PUSH2 0x1956 PUSH2 0x1950 CALLDATASIZE PUSH2 0x196A JUMP JUMPDEST SWAP1 PUSH2 0x2402 JUMP JUMPDEST PUSH1 0x40 MLOAD SWAP2 DUP3 SWAP2 PUSH1 0x20 DUP4 MSTORE PUSH1 0x20 DUP4 ADD SWAP1 PUSH2 0x19C8 JUMP JUMPDEST PUSH1 0x40 SWAP1 PUSH1 0x3 NOT ADD SLT PUSH2 0x18F JUMPI PUSH1 0x4 CALLDATALOAD SWAP1 PUSH1 0x24 CALLDATALOAD SWAP1 JUMP JUMPDEST PUSH1 0x0 JUMPDEST DUP4 DUP2 LT PUSH2 0x1993 JUMPI POP POP PUSH1 0x0 SWAP2 ADD MSTORE JUMP JUMPDEST DUP2 DUP2 ADD MLOAD DUP4 DUP3 ADD MSTORE PUSH1 0x20 ADD PUSH2 0x1983 JUMP JUMPDEST SWAP1 PUSH1 0x20 SWAP2 PUSH2 0x19BC DUP2 MLOAD DUP1 SWAP3 DUP2 DUP6 MSTORE DUP6 DUP1 DUP7 ADD SWAP2 ADD PUSH2 0x1980 JUMP JUMPDEST PUSH1 0x1F ADD PUSH1 0x1F NOT AND ADD ADD SWAP1 JUMP JUMPDEST SWAP1 PUSH1 0x1 DUP1 PUSH1 0xA0 SHL SUB DUP3 MLOAD AND DUP2 MSTORE PUSH1 0x20 DUP3 ADD MLOAD PUSH1 0x20 DUP3 ADD MSTORE PUSH1 0x40 DUP3 ADD MLOAD PUSH1 0x40 DUP3 ADD MSTORE PUSH1 0xC0 DUP1 PUSH2 0x1A05 PUSH1 0x60 DUP6 ADD MLOAD PUSH1 0xE0 PUSH1 0x60 DUP7 ADD MSTORE PUSH1 0xE0 DUP6 ADD SWAP1 PUSH2 0x19A3 JUMP JUMPDEST SWAP4 PUSH1 0x80 DUP2 ADD MLOAD PUSH1 0x80 DUP6 ADD MSTORE PUSH1 0xA0 DUP2 ADD MLOAD ISZERO ISZERO PUSH1 0xA0 DUP6 ADD MSTORE ADD MLOAD SWAP2 ADD MSTORE SWAP1 JUMP JUMPDEST SWAP2 SWAP1 DUP3 ADD DUP1 SWAP3 GT PUSH2 0x825 JUMPI JUMP JUMPDEST CALLVALUE PUSH2 0x18F JUMPI PUSH1 0x0 CALLDATASIZE PUSH1 0x3 NOT ADD SLT PUSH2 0x18F JUMPI PUSH1 0x20 PUSH1 0x40 MLOAD PUSH3 0x3F480 DUP2 MSTORE RETURN JUMPDEST PUSH1 0xE0 DUP2 ADD SWAP1 DUP2 LT PUSH1 0x1 PUSH1 0x1 PUSH1 0x40 SHL SUB DUP3 GT OR PUSH2 0x6DC JUMPI PUSH1 0x40 MSTORE JUMP JUMPDEST PUSH1 0x20 DUP2 ADD SWAP1 DUP2 LT PUSH1 0x1 PUSH1 0x1 PUSH1 0x40 SHL SUB DUP3 GT OR PUSH2 0x6DC JUMPI PUSH1 0x40 MSTORE JUMP JUMPDEST SWAP1 PUSH1 0x1F DUP1 NOT SWAP2 ADD AND DUP2 ADD SWAP1 DUP2 LT PUSH1 0x1 PUSH1 0x1 PUSH1 0x40 SHL SUB DUP3 GT OR PUSH2 0x6DC JUMPI PUSH1 0x40 MSTORE JUMP JUMPDEST PUSH1 0x1 PUSH1 0x1 PUSH1 0x40 SHL SUB DUP2 GT PUSH2 0x6DC JUMPI PUSH1 0x5 SHL PUSH1 0x20 ADD SWAP1 JUMP JUMPDEST PUSH1 0x1 PUSH1 0x1 PUSH1 0x40 SHL SUB DUP2 GT PUSH2 0x6DC JUMPI PUSH1 0x1F ADD PUSH1 0x1F NOT AND PUSH1 0x20 ADD SWAP1 JUMP JUMPDEST CALLVALUE PUSH2 0x18F JUMPI PUSH1 0x0 CALLDATASIZE PUSH1 0x3 NOT ADD SLT PUSH2 0x18F JUMPI PUSH1 0x20 PUSH1 0x40 MLOAD PUSH1 0x40 DUP2 MSTORE RETURN JUMPDEST DUP2 PUSH1 0x1F DUP3 ADD SLT ISZERO PUSH2 0x18F JUMPI DUP1 CALLDATALOAD SWAP2 PUSH2 0x1B0B DUP4 PUSH2 0x1AA6 JUMP JUMPDEST SWAP3 PUSH2 0x1B19 PUSH1 0x40 MLOAD SWAP5 DUP6 PUSH2 0x1A85 JUMP JUMPDEST DUP1 DUP5 MSTORE PUSH1 0x20 SWAP3 DUP4 DUP1 DUP7 ADD SWAP3 PUSH1 0x5 SHL DUP3 ADD ADD SWAP3 DUP4 GT PUSH2 0x18F JUMPI DUP4 ADD SWAP1 JUMPDEST DUP3 DUP3 LT PUSH2 0x1B43 JUMPI POP POP POP POP SWAP1 JUMP JUMPDEST DUP2 CALLDATALOAD DUP2 MSTORE SWAP1 DUP4 ADD SWAP1 DUP4 ADD PUSH2 0x1B35 JUMP JUMPDEST SWAP1 PUSH1 0x40 PUSH1 0x3 NOT DUP4 ADD SLT PUSH2 0x18F JUMPI PUSH1 0x1 PUSH1 0x1 PUSH1 0x40 SHL SUB PUSH1 0x4 CALLDATALOAD DUP2 DUP2 GT PUSH2 0x18F JUMPI DUP4 PUSH2 0x1B7E SWAP2 PUSH1 0x4 ADD PUSH2 0x1AF4 JUMP JUMPDEST SWAP3 PUSH1 0x24 CALLDATALOAD SWAP2 DUP3 GT PUSH2 0x18F JUMPI PUSH2 0x1B95 SWAP2 PUSH1 0x4 ADD PUSH2 0x1AF4 JUMP JUMPDEST SWAP1 JUMP JUMPDEST SWAP1 PUSH1 0x1 DUP3 DUP2 SHR SWAP3 AND DUP1 ISZERO PUSH2 0x1BC8 JUMPI JUMPDEST PUSH1 0x20 DUP4 LT EQ PUSH2 0x1BB2 JUMPI JUMP JUMPDEST PUSH4 0x4E487B71 PUSH1 0xE0 SHL PUSH1 0x0 MSTORE PUSH1 0x22 PUSH1 0x4 MSTORE PUSH1 0x24 PUSH1 0x0 REVERT JUMPDEST SWAP2 PUSH1 0x7F AND SWAP2 PUSH2 0x1BA7 JUMP JUMPDEST SWAP1 PUSH1 0x40 MLOAD SWAP2 DUP3 PUSH1 0x0 DUP3 SLOAD SWAP3 PUSH2 0x1BE6 DUP5 PUSH2 0x1B98 JUMP JUMPDEST SWAP1 DUP2 DUP5 MSTORE PUSH1 0x1 SWAP5 DUP6 DUP2 AND SWAP1 DUP2 PUSH1 0x0 EQ PUSH2 0x1C55 JUMPI POP PUSH1 0x1 EQ PUSH2 0x1C12 JUMPI JUMPDEST POP POP PUSH2 0x1C10 SWAP3 POP SUB DUP4 PUSH2 0x1A85 JUMP JUMPDEST JUMP JUMPDEST SWAP1 SWAP4 SWAP2 POP PUSH1 0x0 MSTORE PUSH1 0x20 SWAP1 DUP2 PUSH1 0x0 KECCAK256 SWAP4 PUSH1 0x0 SWAP2 JUMPDEST DUP2 DUP4 LT PUSH2 0x1C3D JUMPI POP POP PUSH2 0x1C10 SWAP4 POP DUP3 ADD ADD CODESIZE DUP1 PUSH2 0x1C02 JUMP JUMPDEST DUP6 SLOAD DUP9 DUP5 ADD DUP6 ADD MSTORE SWAP5 DUP6 ADD SWAP5 DUP8 SWAP5 POP SWAP2 DUP4 ADD SWAP2 PUSH2 0x1C25 JUMP JUMPDEST SWAP2 POP POP PUSH2 0x1C10 SWAP5 POP PUSH1 0x20 SWAP3 POP PUSH1 0xFF NOT AND DUP3 DUP5 ADD MSTORE ISZERO ISZERO PUSH1 0x5 SHL DUP3 ADD ADD CODESIZE DUP1 PUSH2 0x1C02 JUMP JUMPDEST PUSH1 0x0 NOT DUP2 EQ PUSH2 0x825 JUMPI PUSH1 0x1 ADD SWAP1 JUMP JUMPDEST DUP1 MLOAD DUP3 LT ISZERO PUSH2 0x153B JUMPI PUSH1 0x20 SWAP2 PUSH1 0x5 SHL ADD ADD SWAP1 JUMP JUMPDEST PUSH1 0x60 SWAP1 PUSH1 0x20 DUP2 MSTORE PUSH1 0x16 PUSH1 0x20 DUP3 ADD MSTORE PUSH22 0x706978656C206973206F7574206F6620626F756E6473 PUSH1 0x50 SHL PUSH1 0x40 DUP3 ADD MSTORE ADD SWAP1 JUMP JUMPDEST SWAP2 SWAP1 SWAP2 DUP3 MLOAD PUSH1 0x1 PUSH1 0x1 PUSH1 0x40 SHL SUB DUP2 GT PUSH2 0x6DC JUMPI PUSH2 0x1CE9 DUP3 SLOAD PUSH2 0x1B98 JUMP JUMPDEST PUSH1 0x1F DUP2 GT PUSH2 0x1D93 JUMPI JUMPDEST POP PUSH1 0x20 DUP1 PUSH1 0x1F DUP4 GT PUSH1 0x1 EQ PUSH2 0x1D2F JUMPI POP DUP2 SWAP3 SWAP4 SWAP5 PUSH1 0x0 SWAP3 PUSH2 0x1D24 JUMPI JUMPDEST POP POP DUP2 PUSH1 0x1 SHL SWAP2 PUSH1 0x0 NOT SWAP1 PUSH1 0x3 SHL SHR NOT AND OR SWAP1 SSTORE JUMP JUMPDEST ADD MLOAD SWAP1 POP CODESIZE DUP1 PUSH2 0x1D0E JUMP JUMPDEST SWAP1 PUSH1 0x1F NOT DUP4 AND SWAP6 DUP5 PUSH1 0x0 MSTORE DUP3 PUSH1 0x0 KECCAK256 SWAP3 PUSH1 0x0 SWAP1 JUMPDEST DUP9 DUP3 LT PUSH2 0x1D7B JUMPI POP POP DUP4 PUSH1 0x1 SWAP6 SWAP7 SWAP8 LT PUSH2 0x1D62 JUMPI JUMPDEST POP POP POP DUP2 SHL ADD SWAP1 SSTORE JUMP JUMPDEST ADD MLOAD PUSH1 0x0 NOT PUSH1 0xF8 DUP5 PUSH1 0x3 SHL AND SHR NOT AND SWAP1 SSTORE CODESIZE DUP1 DUP1 PUSH2 0x1D58 JUMP JUMPDEST DUP1 PUSH1 0x1 DUP6 SWAP7 DUP3 SWAP5 SWAP7 DUP7 ADD MLOAD DUP2 SSTORE ADD SWAP6 ADD SWAP4 ADD SWAP1 PUSH2 0x1D43 JUMP JUMPDEST PUSH1 0x0 DUP4 DUP2 MSTORE PUSH1 0x20 DUP2 KECCAK256 PUSH1 0x1F DUP5 ADD PUSH1 0x5 SHR DUP2 ADD SWAP3 PUSH1 0x20 DUP6 LT PUSH2 0x1DD1 JUMPI JUMPDEST PUSH1 0x1F ADD PUSH1 0x5 SHR ADD SWAP2 JUMPDEST DUP3 DUP2 LT PUSH2 0x1DC6 JUMPI POP POP PUSH2 0x1CF2 JUMP JUMPDEST DUP2 DUP2 SSTORE PUSH1 0x1 ADD PUSH2 0x1DB8 JUMP JUMPDEST SWAP1 SWAP3 POP DUP3 SWAP1 PUSH2 0x1DAF JUMP JUMPDEST DUP2 DUP2 MUL SWAP3 SWAP2 DUP2 ISZERO SWAP2 DUP5 DIV EQ OR ISZERO PUSH2 0x825 JUMPI JUMP JUMPDEST SWAP2 SWAP1 DUP3 SUB SWAP2 DUP3 GT PUSH2 0x825 JUMPI JUMP JUMPDEST ISZERO PUSH2 0x1E02 JUMPI JUMP JUMPDEST PUSH1 0x40 MLOAD PUSH3 0x461BCD PUSH1 0xE5 SHL DUP2 MSTORE PUSH1 0x20 PUSH1 0x4 DUP3 ADD MSTORE PUSH1 0x2B PUSH1 0x24 DUP3 ADD MSTORE PUSH32 0x7820616E64207920696E7075742061727261797320617265206F662076617269 PUSH1 0x44 DUP3 ADD MSTORE PUSH11 0x6F7573206C656E67746873 PUSH1 0xA8 SHL PUSH1 0x64 DUP3 ADD MSTORE PUSH1 0x84 SWAP1 REVERT JUMPDEST SWAP1 DUP2 PUSH1 0x20 SWAP2 SUB SLT PUSH2 0x18F JUMPI MLOAD DUP1 ISZERO ISZERO DUP2 SUB PUSH2 0x18F JUMPI SWAP1 JUMP JUMPDEST PUSH1 0x1 PUSH1 0x1 PUSH1 0xA0 SHL SUB SWAP2 DUP3 AND DUP2 MSTORE SWAP2 AND PUSH1 0x20 DUP3 ADD MSTORE PUSH1 0x40 DUP2 ADD SWAP2 SWAP1 SWAP2 MSTORE PUSH1 0x60 ADD SWAP1 JUMP JUMPDEST SWAP2 SWAP1 PUSH2 0x1EA4 DUP4 MLOAD DUP3 MLOAD EQ PUSH2 0x1DFB JUMP JUMPDEST DUP3 MLOAD PUSH1 0x0 SWAP4 JUMPDEST DUP2 DUP6 LT PUSH2 0x1EB8 JUMPI POP POP POP SWAP1 POP JUMP JUMPDEST PUSH2 0x1EC2 DUP6 DUP3 PUSH2 0x1C87 JUMP JUMPDEST MLOAD SWAP5 PUSH2 0x1ECE DUP2 DUP6 PUSH2 0x1C87 JUMP JUMPDEST MLOAD PUSH1 0x40 DUP1 DUP1 SWAP9 LT SWAP2 DUP3 ISZERO SWAP3 PUSH2 0x22AE JUMPI JUMPDEST POP POP PUSH2 0x2296 JUMPI PUSH2 0x1EEE DUP2 DUP4 PUSH2 0x1C87 JUMP JUMPDEST MLOAD PUSH1 0x0 MSTORE PUSH1 0x4 PUSH1 0x20 DUP2 DUP2 MSTORE DUP8 PUSH1 0x0 KECCAK256 PUSH2 0x1F07 DUP5 DUP9 PUSH2 0x1C87 JUMP JUMPDEST MLOAD PUSH1 0x0 MSTORE DUP2 MSTORE PUSH1 0x1 DUP1 PUSH1 0xA0 SHL SUB CALLER DUP2 DUP11 PUSH1 0x0 KECCAK256 SLOAD AND SUB PUSH2 0x2248 JUMPI PUSH2 0x1F2B DUP5 DUP7 PUSH2 0x1C87 JUMP JUMPDEST MLOAD PUSH1 0x0 MSTORE DUP3 DUP3 MSTORE DUP9 PUSH1 0x0 KECCAK256 PUSH2 0x1F40 DUP6 DUP10 PUSH2 0x1C87 JUMP JUMPDEST MLOAD PUSH1 0x0 MSTORE DUP3 MSTORE TIMESTAMP DUP4 DUP11 PUSH1 0x0 KECCAK256 ADD SLOAD SUB PUSH2 0x1F6E JUMPI JUMPDEST POP POP POP PUSH2 0x1F65 SWAP2 SWAP3 SWAP4 SWAP5 SWAP6 POP PUSH2 0x1C78 JUMP JUMPDEST SWAP4 SWAP3 SWAP2 SWAP1 PUSH2 0x1EAA JUMP JUMPDEST PUSH2 0x1F86 PUSH2 0x1F7B DUP6 DUP8 PUSH2 0x1C87 JUMP JUMPDEST MLOAD PUSH2 0xD63 DUP7 DUP11 PUSH2 0x1C87 JUMP JUMPDEST SWAP1 DUP1 PUSH1 0x3 SLOAD AND SWAP1 DUP11 MLOAD PUSH4 0x70A08231 PUSH1 0xE0 SHL DUP2 MSTORE CALLER DUP7 DUP3 ADD MSTORE PUSH1 0x24 SWAP1 DUP6 DUP2 DUP4 DUP2 DUP8 GAS STATICCALL DUP1 ISZERO PUSH2 0x21BC JUMPI DUP6 SWAP2 PUSH1 0x0 SWAP2 PUSH2 0x2218 JUMPI JUMPDEST POP LT PUSH2 0x21C7 JUMPI DUP12 MLOAD PUSH4 0x6EB1769F PUSH1 0xE1 SHL DUP2 MSTORE CALLER DUP8 DUP3 ADD SWAP1 DUP2 MSTORE ADDRESS PUSH1 0x20 DUP3 ADD MSTORE DUP7 SWAP1 DUP3 SWAP1 DUP2 SWAP1 PUSH1 0x40 ADD SUB DUP2 DUP8 GAS STATICCALL DUP1 ISZERO PUSH2 0x21BC JUMPI DUP6 SWAP2 PUSH1 0x0 SWAP2 PUSH2 0x2189 JUMPI JUMPDEST POP LT PUSH2 0x2138 JUMPI POP SWAP2 DUP4 SWAP2 PUSH2 0x2025 SWAP12 SWAP4 PUSH1 0x0 SLOAD AND PUSH1 0x0 DUP6 MLOAD DUP1 SWAP15 DUP2 SWAP6 DUP3 SWAP5 PUSH4 0x23B872DD PUSH1 0xE0 SHL DUP5 MSTORE CALLER DUP13 DUP6 ADD PUSH2 0x1E73 JUMP JUMPDEST SUB SWAP3 GAS CALL SWAP9 DUP10 ISZERO PUSH2 0x212D JUMPI PUSH2 0x1F65 SWAP6 SWAP7 SWAP8 SWAP9 SWAP10 PUSH2 0x2110 JUMPI JUMPDEST POP PUSH2 0x2048 DUP5 DUP8 PUSH2 0x1C87 JUMP JUMPDEST MLOAD PUSH1 0x0 MSTORE DUP3 DUP3 MSTORE DUP1 PUSH1 0x0 KECCAK256 PUSH2 0x205D DUP6 DUP11 PUSH2 0x1C87 JUMP JUMPDEST MLOAD PUSH1 0x0 MSTORE DUP3 MSTORE TIMESTAMP DUP4 DUP3 PUSH1 0x0 KECCAK256 ADD SSTORE PUSH2 0x2075 DUP5 DUP8 PUSH2 0x1C87 JUMP JUMPDEST MLOAD PUSH1 0x0 MSTORE DUP3 DUP3 MSTORE DUP1 PUSH1 0x0 KECCAK256 PUSH2 0x208A DUP6 DUP11 PUSH2 0x1C87 JUMP JUMPDEST MLOAD PUSH1 0x0 MSTORE DUP3 MSTORE PUSH1 0x5 SWAP2 PUSH1 0xFF DUP4 DUP4 PUSH1 0x0 KECCAK256 ADD SLOAD AND PUSH2 0x20AE JUMPI JUMPDEST POP DUP9 SWAP8 SWAP7 SWAP6 SWAP5 POP PUSH2 0x1F54 JUMP JUMPDEST PUSH1 0x0 SWAP4 PUSH1 0x6 SWAP4 PUSH2 0x20BE DUP8 DUP11 PUSH2 0x1C87 JUMP JUMPDEST MLOAD DUP7 MSTORE DUP2 DUP4 MSTORE DUP4 DUP7 KECCAK256 PUSH2 0x20D1 DUP9 DUP14 PUSH2 0x1C87 JUMP JUMPDEST MLOAD DUP8 MSTORE DUP4 MSTORE DUP4 DUP7 KECCAK256 ADD DUP1 SLOAD PUSH1 0xFF NOT AND SWAP1 SSTORE PUSH2 0x20EC DUP7 DUP10 PUSH2 0x1C87 JUMP JUMPDEST MLOAD DUP6 MSTORE DUP2 MSTORE DUP2 DUP5 KECCAK256 SWAP1 PUSH2 0x20FF DUP7 DUP12 PUSH2 0x1C87 JUMP JUMPDEST MLOAD DUP6 MSTORE MSTORE DUP3 KECCAK256 ADD SSTORE CODESIZE DUP1 DUP1 DUP1 PUSH2 0x20A2 JUMP JUMPDEST PUSH2 0x2126 SWAP1 DUP4 RETURNDATASIZE DUP6 GT PUSH2 0x10B1 JUMPI PUSH2 0x10A2 DUP2 DUP4 PUSH2 0x1A85 JUMP JUMPDEST POP CODESIZE PUSH2 0x203D JUMP JUMPDEST POP MLOAD RETURNDATASIZE PUSH1 0x0 DUP3 RETURNDATACOPY RETURNDATASIZE SWAP1 REVERT JUMPDEST DUP6 PUSH1 0x27 PUSH1 0x84 SWAP3 DUP8 DUP16 MLOAD SWAP4 PUSH3 0x461BCD PUSH1 0xE5 SHL DUP6 MSTORE DUP5 ADD MSTORE DUP3 ADD MSTORE PUSH32 0x696E73756666696369656E7420616C6C6F77616E636520746F2070617920726F PUSH1 0x44 DUP3 ADD MSTORE PUSH7 0x79616C74696573 PUSH1 0xC8 SHL PUSH1 0x64 DUP3 ADD MSTORE REVERT JUMPDEST SWAP2 POP DUP7 DUP3 DUP2 RETURNDATASIZE DUP4 GT PUSH2 0x21B5 JUMPI JUMPDEST PUSH2 0x21A0 DUP2 DUP4 PUSH2 0x1A85 JUMP JUMPDEST DUP2 ADD SUB SLT PUSH2 0x21B2 JUMPI POP DUP5 SWAP1 MLOAD CODESIZE PUSH2 0x1FF5 JUMP JUMPDEST DUP1 REVERT JUMPDEST POP RETURNDATASIZE PUSH2 0x2196 JUMP JUMPDEST DUP14 MLOAD RETURNDATASIZE PUSH1 0x0 DUP3 RETURNDATACOPY RETURNDATASIZE SWAP1 REVERT JUMPDEST DUP6 PUSH1 0x27 PUSH1 0x84 SWAP3 DUP8 DUP16 MLOAD SWAP4 PUSH3 0x461BCD PUSH1 0xE5 SHL DUP6 MSTORE DUP5 ADD MSTORE DUP3 ADD MSTORE PUSH32 0x6E6F742073756666696369656E742062616C616E636520746F2070617920726F PUSH1 0x44 DUP3 ADD MSTORE PUSH7 0x79616C74696573 PUSH1 0xC8 SHL PUSH1 0x64 DUP3 ADD MSTORE REVERT JUMPDEST SWAP2 POP DUP7 DUP3 DUP2 RETURNDATASIZE DUP4 GT PUSH2 0x2241 JUMPI JUMPDEST PUSH2 0x222F DUP2 DUP4 PUSH2 0x1A85 JUMP JUMPDEST DUP2 ADD SUB SLT PUSH2 0x21B2 JUMPI POP DUP5 SWAP1 MLOAD CODESIZE PUSH2 0x1FB8 JUMP JUMPDEST POP RETURNDATASIZE PUSH2 0x2225 JUMP JUMPDEST DUP9 MLOAD PUSH3 0x461BCD PUSH1 0xE5 SHL DUP2 MSTORE DUP1 DUP5 ADD DUP4 SWAP1 MSTORE PUSH1 0x22 PUSH1 0x24 DUP3 ADD MSTORE PUSH32 0x6F6E6C7920706978656C206F776E65722063616E2070617920726F79616C7469 PUSH1 0x44 DUP3 ADD MSTORE PUSH2 0x6573 PUSH1 0xF0 SHL PUSH1 0x64 DUP3 ADD MSTORE PUSH1 0x84 SWAP1 REVERT JUMPDEST DUP6 MLOAD PUSH3 0x461BCD PUSH1 0xE5 SHL DUP2 MSTORE DUP1 PUSH2 0x12FD PUSH1 0x4 DUP3 ADD PUSH2 0x1C9B JUMP JUMPDEST LT ISZERO SWAP1 POP DUP7 CODESIZE PUSH2 0x1EDE JUMP JUMPDEST ISZERO PUSH2 0x22C0 JUMPI JUMP JUMPDEST PUSH1 0x40 MLOAD PUSH3 0x461BCD PUSH1 0xE5 SHL DUP2 MSTORE PUSH1 0x20 PUSH1 0x4 DUP3 ADD MSTORE PUSH1 0x23 PUSH1 0x24 DUP3 ADD MSTORE PUSH32 0x6E6F742073756666696369656E742062616C616E636520746F20627579207069 PUSH1 0x44 DUP3 ADD MSTORE PUSH3 0x1E195B PUSH1 0xEA SHL PUSH1 0x64 DUP3 ADD MSTORE PUSH1 0x84 SWAP1 REVERT JUMPDEST ISZERO PUSH2 0x2318 JUMPI JUMP JUMPDEST PUSH1 0x40 MLOAD PUSH3 0x461BCD PUSH1 0xE5 SHL DUP2 MSTORE PUSH1 0x20 PUSH1 0x4 DUP3 ADD MSTORE PUSH1 0x23 PUSH1 0x24 DUP3 ADD MSTORE PUSH32 0x696E73756666696369656E7420616C6C6F77616E636520746F20627579207069 PUSH1 0x44 DUP3 ADD MSTORE PUSH3 0x1E195B PUSH1 0xEA SHL PUSH1 0x64 DUP3 ADD MSTORE PUSH1 0x84 SWAP1 REVERT JUMPDEST ISZERO PUSH2 0x2370 JUMPI JUMP JUMPDEST PUSH1 0x40 MLOAD PUSH3 0x461BCD PUSH1 0xE5 SHL DUP2 MSTORE PUSH1 0x20 PUSH1 0x4 DUP3 ADD MSTORE PUSH1 0x2C PUSH1 0x24 DUP3 ADD MSTORE PUSH32 0x6F776E65722063757272656E74206D616E616765722063616E2063616C6C2074 PUSH1 0x44 DUP3 ADD MSTORE PUSH12 0x3434B990333AB731BA34B7B7 PUSH1 0xA1 SHL PUSH1 0x64 DUP3 ADD MSTORE PUSH1 0x84 SWAP1 REVERT JUMPDEST PUSH1 0x40 MLOAD SWAP1 PUSH2 0x23D7 DUP3 PUSH2 0x1A4F JUMP JUMPDEST DUP2 PUSH1 0xC0 PUSH1 0x0 SWAP2 DUP3 DUP2 MSTORE DUP3 PUSH1 0x20 DUP3 ADD MSTORE DUP3 PUSH1 0x40 DUP3 ADD MSTORE PUSH1 0x60 DUP1 DUP3 ADD MSTORE DUP3 PUSH1 0x80 DUP3 ADD MSTORE DUP3 PUSH1 0xA0 DUP3 ADD MSTORE ADD MSTORE JUMP JUMPDEST SWAP1 PUSH2 0x240B PUSH2 0x23CA JUMP JUMPDEST POP PUSH1 0x40 SWAP2 DUP3 DUP2 LT DUP1 PUSH2 0x24D0 JUMPI JUMPDEST ISZERO PUSH2 0x2496 JUMPI PUSH1 0x0 MSTORE PUSH1 0x4 PUSH1 0x20 MSTORE DUP2 PUSH1 0x0 KECCAK256 SWAP1 PUSH1 0x0 MSTORE PUSH1 0x20 MSTORE PUSH1 0x6 DUP2 PUSH1 0x0 KECCAK256 DUP3 MLOAD SWAP3 PUSH2 0x2442 DUP5 PUSH2 0x1A4F JUMP JUMPDEST DUP2 SLOAD PUSH1 0x1 PUSH1 0x1 PUSH1 0xA0 SHL SUB AND DUP5 MSTORE PUSH1 0x1 DUP3 ADD SLOAD PUSH1 0x20 DUP6 ADD MSTORE PUSH1 0x2 DUP3 ADD SLOAD SWAP1 DUP5 ADD MSTORE PUSH2 0x246E PUSH1 0x3 DUP3 ADD PUSH2 0x1BD2 JUMP JUMPDEST PUSH1 0x60 DUP5 ADD MSTORE PUSH1 0x4 DUP2 ADD SLOAD PUSH1 0x80 DUP5 ADD MSTORE PUSH1 0xFF PUSH1 0x5 DUP3 ADD SLOAD AND ISZERO ISZERO PUSH1 0xA0 DUP5 ADD MSTORE ADD SLOAD PUSH1 0xC0 DUP3 ADD MSTORE SWAP1 JUMP JUMPDEST DUP3 MLOAD PUSH3 0x461BCD PUSH1 0xE5 SHL DUP2 MSTORE PUSH1 0x20 PUSH1 0x4 DUP3 ADD MSTORE PUSH1 0x13 PUSH1 0x24 DUP3 ADD MSTORE PUSH19 0x706978656C206F7574206F6620626F756E6473 PUSH1 0x68 SHL PUSH1 0x44 DUP3 ADD MSTORE PUSH1 0x64 SWAP1 REVERT JUMPDEST POP DUP3 DUP3 LT PUSH2 0x2418 JUMP JUMPDEST PUSH2 0x2529 PUSH2 0x2532 SWAP2 PUSH1 0x2 PUSH1 0x40 PUSH5 0x73DF16000 SWAP6 PUSH1 0x0 SWAP1 DUP5 DUP3 MSTORE PUSH1 0x4 PUSH1 0x20 MSTORE DUP3 DUP3 KECCAK256 DUP2 DUP4 MSTORE PUSH1 0x20 MSTORE PUSH2 0x250F PUSH1 0x4 DUP5 DUP5 KECCAK256 ADD SLOAD TIMESTAMP PUSH2 0x1DEE JUMP JUMPDEST SWAP5 DUP3 MSTORE PUSH1 0x4 PUSH1 0x20 MSTORE DUP3 DUP3 KECCAK256 SWAP1 DUP3 MSTORE PUSH1 0x20 MSTORE KECCAK256 ADD SLOAD SWAP1 PUSH2 0x1DDB JUMP JUMPDEST PUSH1 0x1 SLOAD SWAP1 PUSH2 0x1DDB JUMP JUMPDEST DIV SWAP1 JUMP JUMPDEST SWAP2 SWAP3 SWAP1 SWAP3 DUP3 ISZERO PUSH2 0x2BD7 JUMPI PUSH1 0x1 DUP4 EQ PUSH2 0x2B08 JUMPI PUSH1 0x2 DUP4 EQ PUSH2 0x2ADE JUMPI PUSH1 0x3 DUP4 EQ PUSH2 0x2A82 JUMPI PUSH1 0x4 SWAP3 DUP4 DUP2 EQ PUSH2 0x2A2E JUMPI PUSH1 0x5 DUP2 EQ PUSH2 0x28D1 JUMPI PUSH1 0x6 DUP2 EQ PUSH2 0x287F JUMPI PUSH1 0x7 DUP2 EQ PUSH2 0x2818 JUMPI PUSH1 0x8 DUP2 EQ PUSH2 0x2735 JUMPI PUSH1 0x9 EQ PUSH2 0x25A0 JUMPI POP POP POP POP PUSH1 0x40 MLOAD PUSH2 0x2599 DUP2 PUSH2 0x1A6A JUMP JUMPDEST PUSH1 0x0 DUP2 MSTORE SWAP1 JUMP JUMPDEST PUSH2 0x25A9 DUP5 PUSH2 0x2D16 JUMP JUMPDEST SWAP1 PUSH2 0x25B3 DUP2 PUSH2 0x2D16 JUMP JUMPDEST PUSH1 0x8 DUP7 ADD DUP1 DUP8 GT PUSH2 0x2720 JUMPI PUSH2 0x25C7 SWAP1 PUSH2 0x2D16 JUMP JUMPDEST SWAP5 PUSH1 0x8 DUP4 ADD DUP1 SWAP4 GT PUSH2 0x270B JUMPI POP SWAP2 PUSH2 0x26EF DUP3 PUSH2 0x1B95 SWAP7 SWAP5 PUSH2 0x25FC PUSH2 0x25F6 PUSH2 0x25F0 PUSH1 0x49 SWAP10 SWAP8 PUSH2 0x2D16 JUMP JUMPDEST SWAP11 PUSH2 0x2D16 JUMP JUMPDEST SWAP3 PUSH2 0x2D16 JUMP JUMPDEST SWAP2 PUSH1 0x40 MLOAD SWAP10 DUP11 SWAP8 PUSH1 0x2A PUSH2 0x262C DUP11 PUSH1 0x20 SWAP10 PUSH10 0x3C7061746820643D224D PUSH1 0xB0 SHL DUP12 DUP4 ADD MSTORE DUP11 DUP2 MLOAD SWAP5 DUP6 SWAP4 ADD SWAP2 ADD PUSH2 0x1980 JUMP JUMPDEST DUP10 ADD SWAP4 PUSH1 0x1 PUSH1 0xFD SHL SWAP5 DUP6 PUSH1 0x2A DUP3 ADD MSTORE PUSH2 0x264E DUP3 MLOAD DUP1 SWAP4 DUP12 PUSH1 0x2B DUP6 ADD SWAP2 ADD PUSH2 0x1980 JUMP JUMPDEST ADD PUSH12 0x10209C101C1018101810189 PUSH1 0xA5 SHL PUSH1 0x2B DUP3 ADD MSTORE PUSH2 0x2677 DUP3 MLOAD DUP1 SWAP4 DUP11 PUSH1 0x37 DUP6 ADD SWAP2 ADD PUSH2 0x1980 JUMP JUMPDEST ADD DUP4 PUSH1 0x37 DUP3 ADD MSTORE PUSH2 0x2691 DUP3 MLOAD DUP1 SWAP4 DUP10 PUSH1 0x38 DUP6 ADD SWAP2 ADD PUSH2 0x1980 JUMP JUMPDEST ADD PUSH2 0x813 PUSH1 0xF2 SHL PUSH1 0x38 DUP3 ADD MSTORE PUSH2 0x26B0 DUP3 MLOAD DUP1 SWAP4 DUP9 PUSH1 0x3A DUP6 ADD SWAP2 ADD PUSH2 0x1980 JUMP JUMPDEST ADD SWAP1 PUSH1 0x3A DUP3 ADD MSTORE PUSH2 0x26CA DUP3 MLOAD DUP1 SWAP4 DUP7 PUSH1 0x3B DUP6 ADD SWAP2 ADD PUSH2 0x1980 JUMP JUMPDEST ADD SWAP2 PUSH10 0x102D11103334B6361E91 PUSH1 0xB1 SHL PUSH1 0x3B DUP5 ADD MSTORE DUP4 MLOAD SWAP4 DUP5 SWAP2 PUSH1 0x45 DUP6 ADD SWAP2 ADD PUSH2 0x1980 JUMP JUMPDEST ADD PUSH4 0x1110179F PUSH1 0xE1 SHL PUSH1 0x45 DUP3 ADD MSTORE SUB PUSH1 0x29 DUP2 ADD DUP5 MSTORE ADD DUP3 PUSH2 0x1A85 JUMP JUMPDEST PUSH1 0x11 SWAP1 PUSH4 0x4E487B71 PUSH1 0xE0 SHL PUSH1 0x0 MSTORE MSTORE PUSH1 0x24 PUSH1 0x0 REVERT JUMPDEST PUSH1 0x11 DUP7 PUSH4 0x4E487B71 PUSH1 0xE0 SHL PUSH1 0x0 MSTORE MSTORE PUSH1 0x24 PUSH1 0x0 REVERT JUMPDEST POP SWAP3 PUSH1 0x8 DUP2 ADD SWAP4 DUP5 DUP3 GT PUSH2 0x2803 JUMPI PUSH2 0x274C DUP6 PUSH2 0x2D16 JUMP JUMPDEST SWAP2 PUSH2 0x275F PUSH2 0x2759 DUP4 PUSH2 0x2D16 JUMP JUMPDEST SWAP2 PUSH2 0x2D16 JUMP JUMPDEST SWAP5 PUSH1 0x8 DUP4 ADD DUP1 SWAP4 GT PUSH2 0x270B JUMPI POP SWAP2 PUSH2 0x26EF DUP3 PUSH2 0x1B95 SWAP7 SWAP5 PUSH2 0x2788 PUSH2 0x25F6 PUSH2 0x25F0 PUSH1 0x49 SWAP10 SWAP8 PUSH2 0x2D16 JUMP JUMPDEST SWAP2 PUSH1 0x40 MLOAD SWAP10 DUP11 SWAP8 PUSH1 0x2A PUSH2 0x27B8 DUP11 PUSH1 0x20 SWAP10 PUSH10 0x3C7061746820643D224D PUSH1 0xB0 SHL DUP12 DUP4 ADD MSTORE DUP11 DUP2 MLOAD SWAP5 DUP6 SWAP4 ADD SWAP2 ADD PUSH2 0x1980 JUMP JUMPDEST DUP10 ADD SWAP4 PUSH1 0x1 PUSH1 0xFD SHL SWAP5 DUP6 PUSH1 0x2A DUP3 ADD MSTORE PUSH2 0x27DA DUP3 MLOAD DUP1 SWAP4 DUP12 PUSH1 0x2B DUP6 ADD SWAP2 ADD PUSH2 0x1980 JUMP JUMPDEST ADD PUSH12 0x10209C101C1018101810181 PUSH1 0xA5 SHL PUSH1 0x2B DUP3 ADD MSTORE PUSH2 0x2677 DUP3 MLOAD DUP1 SWAP4 DUP11 PUSH1 0x37 DUP6 ADD SWAP2 ADD PUSH2 0x1980 JUMP JUMPDEST PUSH1 0x11 DUP5 PUSH4 0x4E487B71 PUSH1 0xE0 SHL PUSH1 0x0 MSTORE MSTORE PUSH1 0x24 PUSH1 0x0 REVERT JUMPDEST POP PUSH2 0x2822 DUP5 PUSH2 0x2D16 JUMP JUMPDEST SWAP1 PUSH2 0x282C DUP2 PUSH2 0x2D16 JUMP JUMPDEST PUSH1 0x8 DUP7 ADD DUP1 SWAP7 GT PUSH2 0x286A JUMPI PUSH2 0x2840 DUP7 PUSH2 0x2D16 JUMP JUMPDEST SWAP5 PUSH1 0x8 DUP4 ADD SWAP1 DUP2 DUP5 GT PUSH2 0x270B JUMPI POP PUSH1 0x49 SWAP5 SWAP3 PUSH2 0x1B95 SWAP7 SWAP5 SWAP3 PUSH2 0x2788 PUSH2 0x25F6 PUSH2 0x25F0 PUSH2 0x26EF SWAP6 PUSH2 0x2D16 JUMP JUMPDEST PUSH1 0x11 DUP6 PUSH4 0x4E487B71 PUSH1 0xE0 SHL PUSH1 0x0 MSTORE MSTORE PUSH1 0x24 PUSH1 0x0 REVERT JUMPDEST POP PUSH2 0x2889 DUP5 PUSH2 0x2D16 JUMP JUMPDEST SWAP1 PUSH1 0x8 DUP2 ADD DUP1 DUP3 GT PUSH2 0x286A JUMPI PUSH2 0x289E SWAP1 PUSH2 0x2D16 JUMP JUMPDEST SWAP4 PUSH1 0x8 DUP7 ADD SWAP1 DUP2 DUP8 GT PUSH2 0x270B JUMPI POP SWAP2 PUSH2 0x26EF PUSH1 0x49 SWAP5 SWAP3 PUSH2 0x28C1 PUSH2 0x1B95 SWAP8 SWAP6 PUSH2 0x2D16 JUMP JUMPDEST SWAP5 PUSH2 0x2788 PUSH2 0x25F6 PUSH2 0x25F0 DUP5 PUSH2 0x2D16 JUMP JUMPDEST POP SWAP3 PUSH2 0x28DC DUP2 PUSH2 0x2D16 JUMP JUMPDEST SWAP1 PUSH1 0x8 DUP6 ADD SWAP1 DUP2 DUP7 GT PUSH2 0x286A JUMPI PUSH2 0x28F2 DUP3 PUSH2 0x2D16 JUMP JUMPDEST SWAP1 PUSH2 0x2905 PUSH2 0x28FF DUP3 PUSH2 0x2D16 JUMP JUMPDEST SWAP8 PUSH2 0x2D16 JUMP JUMPDEST SWAP6 PUSH1 0x8 DUP3 ADD DUP1 SWAP3 GT PUSH2 0x270B JUMPI POP PUSH1 0x3F SWAP5 SWAP3 PUSH2 0x1B95 SWAP7 SWAP5 SWAP3 PUSH2 0x292B PUSH2 0x25F6 PUSH2 0x2A12 SWAP5 PUSH2 0x2D16 JUMP JUMPDEST SWAP2 PUSH1 0x40 MLOAD SWAP10 DUP11 SWAP8 PUSH1 0x2A PUSH2 0x295B DUP11 PUSH1 0x20 SWAP10 PUSH10 0x3C7061746820643D224D PUSH1 0xB0 SHL DUP12 DUP4 ADD MSTORE DUP11 DUP2 MLOAD SWAP5 DUP6 SWAP4 ADD SWAP2 ADD PUSH2 0x1980 JUMP JUMPDEST DUP10 ADD SWAP4 PUSH1 0x1 PUSH1 0xFD SHL SWAP5 DUP6 PUSH1 0x2A DUP3 ADD MSTORE PUSH2 0x297D DUP3 MLOAD DUP1 SWAP4 DUP12 PUSH1 0x2B DUP6 ADD SWAP2 ADD PUSH2 0x1980 JUMP JUMPDEST ADD SWAP2 PUSH2 0x813 PUSH1 0xF2 SHL SWAP3 DUP4 PUSH1 0x2B DUP3 ADD MSTORE PUSH2 0x299F DUP3 MLOAD DUP1 SWAP4 DUP12 PUSH1 0x2D DUP6 ADD SWAP2 ADD PUSH2 0x1980 JUMP JUMPDEST ADD DUP5 PUSH1 0x2D DUP3 ADD MSTORE PUSH2 0x29B9 DUP3 MLOAD DUP1 SWAP4 DUP11 PUSH1 0x2E DUP6 ADD SWAP2 ADD PUSH2 0x1980 JUMP JUMPDEST ADD SWAP1 PUSH1 0x2E DUP3 ADD MSTORE PUSH2 0x29D3 DUP3 MLOAD DUP1 SWAP4 DUP9 PUSH1 0x30 DUP6 ADD SWAP2 ADD PUSH2 0x1980 JUMP JUMPDEST ADD SWAP1 PUSH1 0x30 DUP3 ADD MSTORE PUSH2 0x29ED DUP3 MLOAD DUP1 SWAP4 DUP7 PUSH1 0x31 DUP6 ADD SWAP2 ADD PUSH2 0x1980 JUMP JUMPDEST ADD SWAP2 PUSH10 0x103D11103334B6361E91 PUSH1 0xB1 SHL PUSH1 0x31 DUP5 ADD MSTORE DUP4 MLOAD SWAP4 DUP5 SWAP2 PUSH1 0x3B DUP6 ADD SWAP2 ADD PUSH2 0x1980 JUMP JUMPDEST ADD PUSH4 0x1110179F PUSH1 0xE1 SHL PUSH1 0x3B DUP3 ADD MSTORE SUB PUSH1 0x1F DUP2 ADD DUP5 MSTORE ADD DUP3 PUSH2 0x1A85 JUMP JUMPDEST POP SWAP3 SWAP2 PUSH1 0x8 DUP4 ADD SWAP1 DUP2 DUP5 GT PUSH2 0x270B JUMPI PUSH2 0x2A46 DUP3 PUSH2 0x2D16 JUMP JUMPDEST SWAP2 PUSH1 0x8 DUP7 ADD SWAP2 DUP3 DUP8 GT PUSH2 0x270B JUMPI POP SWAP2 PUSH2 0x2A12 DUP3 PUSH2 0x1B95 SWAP7 SWAP5 PUSH2 0x292B PUSH2 0x25F6 PUSH2 0x28FF PUSH2 0x2A7C PUSH2 0x2A76 PUSH1 0x3F SWAP12 SWAP10 PUSH2 0x2D16 JUMP JUMPDEST SWAP5 PUSH2 0x2D16 JUMP JUMPDEST SWAP12 PUSH2 0x2D16 JUMP JUMPDEST SWAP2 POP PUSH2 0x2A8D DUP4 PUSH2 0x2D16 JUMP JUMPDEST SWAP3 PUSH2 0x2A97 DUP4 PUSH2 0x2D16 JUMP JUMPDEST SWAP2 PUSH1 0x8 DUP3 ADD DUP1 SWAP3 GT PUSH2 0x825 JUMPI PUSH2 0x2AAC DUP3 PUSH2 0x2D16 JUMP JUMPDEST SWAP5 PUSH2 0x2ABF PUSH2 0x2AB9 DUP7 PUSH2 0x2D16 JUMP JUMPDEST SWAP4 PUSH2 0x2D16 JUMP JUMPDEST SWAP5 PUSH1 0x8 DUP2 ADD DUP1 SWAP2 GT PUSH2 0x825 JUMPI PUSH2 0x1B95 SWAP6 PUSH1 0x3F SWAP6 PUSH2 0x292B PUSH2 0x2A12 SWAP4 PUSH2 0x2D16 JUMP JUMPDEST SWAP2 POP PUSH2 0x2AE9 DUP4 PUSH2 0x2D16 JUMP JUMPDEST SWAP3 PUSH2 0x2AF3 DUP4 PUSH2 0x2D16 JUMP JUMPDEST SWAP2 PUSH1 0x8 DUP3 ADD DUP1 DUP4 GT PUSH2 0x825 JUMPI PUSH2 0x2AAC SWAP1 PUSH2 0x2D16 JUMP JUMPDEST SWAP2 POP SWAP2 PUSH1 0x4 DUP2 ADD DUP1 SWAP2 GT PUSH2 0x825 JUMPI PUSH2 0x2B1F SWAP1 PUSH2 0x2D16 JUMP JUMPDEST SWAP1 PUSH1 0x4 DUP2 ADD DUP1 SWAP2 GT PUSH2 0x825 JUMPI PUSH2 0x1B95 SWAP2 PUSH2 0x2B3A PUSH1 0x44 SWAP3 PUSH2 0x2D16 JUMP JUMPDEST SWAP4 PUSH1 0x40 MLOAD SWAP5 DUP6 SWAP3 PUSH12 0x1E31B4B931B6329031BC1E91 PUSH1 0xA1 SHL PUSH1 0x20 DUP6 ADD MSTORE PUSH2 0x2B6A DUP2 MLOAD DUP1 SWAP3 PUSH1 0x20 PUSH1 0x2C DUP9 ADD SWAP2 ADD PUSH2 0x1980 JUMP JUMPDEST DUP4 ADD PUSH6 0x111031BC9E91 PUSH1 0xD1 SHL PUSH1 0x2C DUP3 ADD MSTORE PUSH2 0x2B8F DUP3 MLOAD DUP1 SWAP4 PUSH1 0x20 PUSH1 0x32 DUP6 ADD SWAP2 ADD PUSH2 0x1980 JUMP JUMPDEST ADD PUSH14 0x1110391E911A11103334B6361E91 PUSH1 0x91 SHL PUSH1 0x32 DUP3 ADD MSTORE PUSH2 0x2BBB DUP3 MLOAD DUP1 SWAP4 PUSH1 0x20 PUSH1 0x40 DUP6 ADD SWAP2 ADD PUSH2 0x1980 JUMP JUMPDEST ADD PUSH4 0x1110179F PUSH1 0xE1 SHL PUSH1 0x40 DUP3 ADD MSTORE SUB PUSH1 0x24 DUP2 ADD DUP5 MSTORE ADD DUP3 PUSH2 0x1A85 JUMP JUMPDEST PUSH2 0x1B95 SWAP3 POP PUSH2 0x2BEB PUSH2 0x2759 PUSH1 0x4F SWAP4 SWAP6 PUSH2 0x2D16 JUMP JUMPDEST SWAP4 PUSH1 0x40 MLOAD SWAP5 DUP6 SWAP3 PUSH9 0x1E3932B1BA103C1E91 PUSH1 0xB9 SHL PUSH1 0x20 DUP6 ADD MSTORE PUSH2 0x2C18 DUP2 MLOAD DUP1 SWAP3 PUSH1 0x20 PUSH1 0x29 DUP9 ADD SWAP2 ADD PUSH2 0x1980 JUMP JUMPDEST DUP4 ADD PUSH5 0x11103C9E91 PUSH1 0xD9 SHL PUSH1 0x29 DUP3 ADD MSTORE PUSH2 0x2C3C DUP3 MLOAD DUP1 SWAP4 PUSH1 0x20 PUSH1 0x2E DUP6 ADD SWAP2 ADD PUSH2 0x1980 JUMP JUMPDEST ADD PUSH32 0x222077696474683D223822206865696768743D2238222066696C6C3D22000000 PUSH1 0x2E DUP3 ADD MSTORE PUSH2 0x2C77 DUP3 MLOAD DUP1 SWAP4 PUSH1 0x20 PUSH1 0x4B DUP6 ADD SWAP2 ADD PUSH2 0x1980 JUMP JUMPDEST ADD PUSH4 0x1110179F PUSH1 0xE1 SHL PUSH1 0x4B DUP3 ADD MSTORE SUB PUSH1 0x2F DUP2 ADD DUP5 MSTORE ADD DUP3 PUSH2 0x1A85 JUMP JUMPDEST PUSH1 0x0 SWAP3 SWAP2 DUP2 SLOAD PUSH2 0x2CA2 DUP2 PUSH2 0x1B98 JUMP JUMPDEST SWAP3 PUSH1 0x1 SWAP2 DUP1 DUP4 AND SWAP1 DUP2 ISZERO PUSH2 0x2CFB JUMPI POP PUSH1 0x1 EQ PUSH2 0x2CBF JUMPI JUMPDEST POP POP POP POP JUMP JUMPDEST SWAP1 SWAP2 SWAP3 SWAP4 SWAP5 POP PUSH1 0x0 MSTORE PUSH1 0x20 SWAP1 DUP2 PUSH1 0x0 KECCAK256 SWAP1 PUSH1 0x0 SWAP2 JUMPDEST DUP6 DUP4 LT PUSH2 0x2CEA JUMPI POP POP POP POP ADD SWAP1 CODESIZE DUP1 DUP1 DUP1 PUSH2 0x2CB9 JUMP JUMPDEST DUP1 SLOAD DUP6 DUP5 ADD MSTORE SWAP2 DUP4 ADD SWAP2 DUP2 ADD PUSH2 0x2CD4 JUMP JUMPDEST PUSH1 0xFF NOT AND DUP5 MSTORE POP POP POP DUP2 ISZERO ISZERO SWAP1 SWAP2 MUL ADD SWAP2 POP CODESIZE DUP1 DUP1 DUP1 PUSH2 0x2CB9 JUMP JUMPDEST DUP1 ISZERO PUSH2 0x2DD8 JUMPI DUP1 DUP2 PUSH1 0x0 SWAP3 JUMPDEST PUSH2 0x2DC4 JUMPI POP PUSH2 0x2D30 DUP3 PUSH2 0x1ABD JUMP JUMPDEST SWAP2 PUSH2 0x2D3E PUSH1 0x40 MLOAD SWAP4 DUP5 PUSH2 0x1A85 JUMP JUMPDEST DUP1 DUP4 MSTORE DUP2 PUSH1 0x1F NOT PUSH2 0x2D4E DUP4 PUSH2 0x1ABD JUMP JUMPDEST ADD SWAP2 PUSH1 0x20 SWAP3 CALLDATASIZE DUP5 DUP8 ADD CALLDATACOPY SWAP3 JUMPDEST PUSH2 0x2D64 JUMPI POP POP POP SWAP1 JUMP JUMPDEST PUSH1 0x0 NOT DUP4 ADD SWAP3 DUP4 GT PUSH2 0x825 JUMPI DUP3 PUSH1 0xA DUP1 DUP4 DIV SWAP3 DUP2 DUP5 MUL SWAP2 DUP5 DUP4 DIV EQ DUP5 ISZERO OR ISZERO PUSH2 0x825 JUMPI PUSH2 0x2D94 PUSH1 0xFF SWAP3 DUP4 SWAP3 PUSH2 0x1DEE JUMP JUMPDEST AND PUSH1 0x30 ADD SWAP1 DUP2 GT PUSH2 0x825 JUMPI DUP6 MLOAD DUP3 LT ISZERO PUSH2 0x153B JUMPI PUSH1 0xF8 SHL PUSH1 0x1 PUSH1 0x1 PUSH1 0xF8 SHL SUB NOT AND PUSH1 0x0 BYTE SWAP1 DUP6 ADD DUP4 ADD MSTORE8 DUP1 PUSH2 0x2D5A JUMP JUMPDEST SWAP2 PUSH2 0x2DD0 PUSH1 0xA SWAP2 PUSH2 0x1C78 JUMP JUMPDEST SWAP3 DIV DUP1 PUSH2 0x2D22 JUMP JUMPDEST POP PUSH1 0x40 MLOAD PUSH1 0x40 DUP2 ADD DUP2 DUP2 LT PUSH1 0x1 PUSH1 0x1 PUSH1 0x40 SHL SUB DUP3 GT OR PUSH2 0x6DC JUMPI PUSH1 0x40 MSTORE PUSH1 0x1 DUP2 MSTORE PUSH1 0x3 PUSH1 0xFC SHL PUSH1 0x20 DUP3 ADD MSTORE SWAP1 JUMP INVALID LOG2 PUSH5 0x6970667358 0x22 SLT KECCAK256 0xD8 BASEFEE 0xE SWAP11 SHL PUSH22 0x2EFF4D461177B5012A098ECE94F81AC5F2E98A181906 0xD 0xB9 PUSH17 0x8F64736F6C634300081400330000000000 "},"methodIdentifiers":{"ARTISTIC_PERIOD()":"3323a706","CYCLE_PERIOD()":"113bc999","VOTING_PERIOD()":"b1610d7e","balanceOf(address)":"70a08231","buyPixel(uint256[],uint256[])":"6ed958f1","calculateRoyalties(uint256,uint256)":"d08629c1","canvasCreation()":"ff188dca","castVote(bool)":"7ace48e7","checkMultiplePixel(uint256[],uint256[])":"c7eab2ec","checkPixel(uint256,uint256)":"040cdfd8","checkVoteOutcome()":"fe91f6eb","fillPixel(bytes[])":"3bdb693e","generateSVG()":"ad711e9e","getBalance(address)":"f8b2cb4f","getCurrentCycle()":"be26ed7f","isInArtisticPeriod()":"4882a7ea","isInVotingPeriod()":"b3a1ddf4","manager()":"481c6a75","maxHeight()":"63aa5ce2","maxWidth()":"6006ecc8","payRoyalties(uint256[],uint256[])":"e50eb5da","pixelSVGs(uint256)":"c4e4b90c","rowSVGs(uint256)":"e1245900","royaltyAskPeriod()":"6e70fcc6","royaltyDenominator()":"fd8d7ed3","royaltyRate()":"c4d1510d","seekRoyaltyPayment(uint256,uint256,uint256)":"85a9473d","setPixelValue(uint256[],uint256[],uint256[])":"8232b562","updateCurrency(address)":"5e027601","voteRegister(uint256)":"30b5d6d3","window(uint256,uint256)":"c730e65d"}}}}}