{"contracts/Pixelmap.sol":{"Pixelmap":{"abi":[{"inputs":[],"stateMutability":"nonpayable","type":"constructor"},{"inputs":[],"name":"ReentrancyGuardReentrantCall","type":"error"},{"anonymous":false,"inputs":[{"indexed":false,"internalType":"uint256","name":"tokenID","type":"uint256"},{"indexed":false,"internalType":"address","name":"bidder","type":"address"},{"indexed":false,"internalType":"uint256","name":"bid","type":"uint256"}],"name":"AuctionEnded","type":"event"},{"anonymous":false,"inputs":[{"indexed":false,"internalType":"uint256","name":"tokenID","type":"uint256"},{"indexed":false,"internalType":"address","name":"bidder","type":"address"},{"indexed":false,"internalType":"uint256","name":"bid","type":"uint256"}],"name":"BidPlace","type":"event"},{"anonymous":false,"inputs":[{"indexed":false,"internalType":"uint256","name":"tokenID","type":"uint256"},{"indexed":false,"internalType":"address","name":"bidder","type":"address"},{"indexed":false,"internalType":"uint256","name":"bid","type":"uint256"}],"name":"BidWithdrawn","type":"event"},{"anonymous":false,"inputs":[{"indexed":false,"internalType":"uint256","name":"cycle","type":"uint256"}],"name":"NFTMinted","type":"event"},{"anonymous":false,"inputs":[{"indexed":true,"internalType":"uint256","name":"x","type":"uint256"},{"indexed":true,"internalType":"uint256","name":"y","type":"uint256"}],"name":"PixelBought","type":"event"},{"anonymous":false,"inputs":[{"indexed":true,"internalType":"uint256","name":"x","type":"uint256"},{"indexed":true,"internalType":"uint256","name":"y","type":"uint256"}],"name":"PixelFilled","type":"event"},{"anonymous":false,"inputs":[{"indexed":true,"internalType":"uint256","name":"x","type":"uint256"},{"indexed":true,"internalType":"uint256","name":"y","type":"uint256"}],"name":"PixelValueSet","type":"event"},{"anonymous":false,"inputs":[{"indexed":true,"internalType":"uint256","name":"x","type":"uint256"},{"indexed":true,"internalType":"uint256","name":"y","type":"uint256"}],"name":"RoyaltiesPaid","type":"event"},{"anonymous":false,"inputs":[{"indexed":true,"internalType":"address","name":"owner","type":"address"}],"name":"VoteCasted","type":"event"},{"inputs":[],"name":"AUCTION_DURATION","outputs":[{"internalType":"uint256","name":"","type":"uint256"}],"stateMutability":"view","type":"function"},{"inputs":[],"name":"CYCLE_PERIOD","outputs":[{"internalType":"uint256","name":"","type":"uint256"}],"stateMutability":"view","type":"function"},{"inputs":[{"internalType":"uint256","name":"","type":"uint256"},{"internalType":"address","name":"","type":"address"}],"name":"auctionClaims","outputs":[{"internalType":"uint256","name":"","type":"uint256"}],"stateMutability":"view","type":"function"},{"inputs":[{"internalType":"uint256","name":"","type":"uint256"},{"internalType":"address","name":"","type":"address"}],"name":"auctionClaimsFlag","outputs":[{"internalType":"bool","name":"","type":"bool"}],"stateMutability":"view","type":"function"},{"inputs":[{"internalType":"address","name":"","type":"address"}],"name":"balanceOf","outputs":[{"internalType":"uint256","name":"","type":"uint256"}],"stateMutability":"view","type":"function"},{"inputs":[{"internalType":"uint8[]","name":"xValues","type":"uint8[]"},{"internalType":"uint8[]","name":"yValues","type":"uint8[]"}],"name":"buyPixel","outputs":[],"stateMutability":"nonpayable","type":"function"},{"inputs":[{"internalType":"uint8","name":"x","type":"uint8"},{"internalType":"uint8","name":"y","type":"uint8"}],"name":"calculateRoyalties","outputs":[{"internalType":"uint256","name":"","type":"uint256"}],"stateMutability":"view","type":"function"},{"inputs":[],"name":"canvasCreation","outputs":[{"internalType":"uint256","name":"","type":"uint256"}],"stateMutability":"view","type":"function"},{"inputs":[{"internalType":"bool","name":"vote","type":"bool"}],"name":"castVote","outputs":[],"stateMutability":"nonpayable","type":"function"},{"inputs":[{"internalType":"uint8[]","name":"xValues","type":"uint8[]"},{"internalType":"uint8[]","name":"yValues","type":"uint8[]"}],"name":"checkMultiplePixel","outputs":[{"components":[{"internalType":"address","name":"owner","type":"address"},{"internalType":"uint8","name":"shapeID","type":"uint8"},{"internalType":"bool","name":"askedToPayRoyalties","type":"bool"},{"internalType":"uint256","name":"price","type":"uint256"},{"internalType":"uint256","name":"royaltyLastPaid","type":"uint256"},{"internalType":"uint256","name":"royaltyAskDate","type":"uint256"},{"internalType":"string","name":"color","type":"string"}],"internalType":"struct Pixelmap.Pixel[]","name":"results","type":"tuple[]"}],"stateMutability":"view","type":"function"},{"inputs":[{"internalType":"uint8","name":"x","type":"uint8"},{"internalType":"uint8","name":"y","type":"uint8"}],"name":"checkPixel","outputs":[{"components":[{"internalType":"address","name":"owner","type":"address"},{"internalType":"uint8","name":"shapeID","type":"uint8"},{"internalType":"bool","name":"askedToPayRoyalties","type":"bool"},{"internalType":"uint256","name":"price","type":"uint256"},{"internalType":"uint256","name":"royaltyLastPaid","type":"uint256"},{"internalType":"uint256","name":"royaltyAskDate","type":"uint256"},{"internalType":"string","name":"color","type":"string"}],"internalType":"struct Pixelmap.Pixel","name":"","type":"tuple"}],"stateMutability":"view","type":"function"},{"inputs":[{"internalType":"uint256","name":"_cycle","type":"uint256"}],"name":"checkVoteOutcome","outputs":[],"stateMutability":"nonpayable","type":"function"},{"inputs":[{"internalType":"uint256","name":"_tokenID","type":"uint256"}],"name":"closeAuction","outputs":[],"stateMutability":"nonpayable","type":"function"},{"inputs":[{"internalType":"bytes[]","name":"_pixels","type":"bytes[]"}],"name":"fillPixel","outputs":[],"stateMutability":"nonpayable","type":"function"},{"inputs":[],"name":"generateMerkle","outputs":[{"internalType":"bytes32","name":"","type":"bytes32"}],"stateMutability":"view","type":"function"},{"inputs":[],"name":"generateSVG","outputs":[{"internalType":"string","name":"svgString","type":"string"}],"stateMutability":"view","type":"function"},{"inputs":[{"internalType":"uint256","name":"tokenID","type":"uint256"},{"internalType":"address","name":"user","type":"address"}],"name":"getAuctionClaimFlag","outputs":[{"internalType":"bool","name":"","type":"bool"}],"stateMutability":"view","type":"function"},{"inputs":[{"internalType":"uint256","name":"tokenID","type":"uint256"},{"internalType":"address","name":"user","type":"address"}],"name":"getAuctionClaims","outputs":[{"internalType":"uint256","name":"","type":"uint256"}],"stateMutability":"view","type":"function"},{"inputs":[{"internalType":"address","name":"_owner","type":"address"}],"name":"getBalance","outputs":[{"internalType":"uint256","name":"","type":"uint256"}],"stateMutability":"view","type":"function"},{"inputs":[],"name":"getCurrentCycle","outputs":[{"internalType":"uint256","name":"","type":"uint256"}],"stateMutability":"view","type":"function"},{"inputs":[{"internalType":"uint256","name":"_tokenID","type":"uint256"}],"name":"getMintDate","outputs":[{"internalType":"uint256","name":"","type":"uint256"}],"stateMutability":"view","type":"function"},{"inputs":[{"internalType":"address","name":"_owner","type":"address"}],"name":"hasVoted","outputs":[{"internalType":"bool","name":"","type":"bool"}],"stateMutability":"view","type":"function"},{"inputs":[],"name":"isInArtisticPeriod","outputs":[{"internalType":"bool","name":"","type":"bool"}],"stateMutability":"view","type":"function"},{"inputs":[],"name":"isInVotingPeriod","outputs":[{"internalType":"bool","name":"","type":"bool"}],"stateMutability":"view","type":"function"},{"inputs":[],"name":"manager","outputs":[{"internalType":"address","name":"","type":"address"}],"stateMutability":"view","type":"function"},{"inputs":[{"internalType":"uint256","name":"","type":"uint256"}],"name":"mintDates","outputs":[{"internalType":"uint256","name":"","type":"uint256"}],"stateMutability":"view","type":"function"},{"inputs":[{"internalType":"uint256","name":"","type":"uint256"}],"name":"nftAuctions","outputs":[{"internalType":"address","name":"winningAddr","type":"address"},{"internalType":"uint256","name":"winningBid","type":"uint256"},{"internalType":"uint256","name":"auctionStart","type":"uint256"},{"internalType":"uint256","name":"auctionEnd","type":"uint256"},{"internalType":"bool","name":"auctionEnded","type":"bool"}],"stateMutability":"view","type":"function"},{"inputs":[],"name":"nftContract","outputs":[{"internalType":"contract CanvasCollection","name":"","type":"address"}],"stateMutability":"view","type":"function"},{"inputs":[{"internalType":"uint8[]","name":"xValues","type":"uint8[]"},{"internalType":"uint8[]","name":"yValues","type":"uint8[]"}],"name":"payRoyalties","outputs":[],"stateMutability":"nonpayable","type":"function"},{"inputs":[{"internalType":"uint256","name":"_tokenID","type":"uint256"}],"name":"placeBid","outputs":[],"stateMutability":"payable","type":"function"},{"inputs":[],"name":"royaltyDenominator","outputs":[{"internalType":"uint256","name":"","type":"uint256"}],"stateMutability":"view","type":"function"},{"inputs":[],"name":"royaltyRate","outputs":[{"internalType":"uint8","name":"","type":"uint8"}],"stateMutability":"view","type":"function"},{"inputs":[{"internalType":"uint8","name":"x","type":"uint8"},{"internalType":"uint8","name":"y","type":"uint8"},{"internalType":"uint256","name":"_price","type":"uint256"}],"name":"seekRoyaltyPayment","outputs":[],"stateMutability":"nonpayable","type":"function"},{"inputs":[{"internalType":"address","name":"_nftContract","type":"address"}],"name":"setNFTContract","outputs":[],"stateMutability":"nonpayable","type":"function"},{"inputs":[{"internalType":"uint8[]","name":"xValues","type":"uint8[]"},{"internalType":"uint8[]","name":"yValues","type":"uint8[]"},{"internalType":"uint256[]","name":"priceValues","type":"uint256[]"}],"name":"setPixelValue","outputs":[],"stateMutability":"nonpayable","type":"function"},{"inputs":[{"internalType":"address","name":"_newToken","type":"address"}],"name":"updateCurrency","outputs":[],"stateMutability":"nonpayable","type":"function"},{"inputs":[{"internalType":"uint256","name":"","type":"uint256"}],"name":"voteRegister","outputs":[{"internalType":"uint256","name":"yesVotes","type":"uint256"},{"internalType":"uint256","name":"noVotes","type":"uint256"}],"stateMutability":"view","type":"function"},{"inputs":[{"internalType":"uint8","name":"","type":"uint8"},{"internalType":"uint8","name":"","type":"uint8"}],"name":"window","outputs":[{"internalType":"address","name":"owner","type":"address"},{"internalType":"uint8","name":"shapeID","type":"uint8"},{"internalType":"bool","name":"askedToPayRoyalties","type":"bool"},{"internalType":"uint256","name":"price","type":"uint256"},{"internalType":"uint256","name":"royaltyLastPaid","type":"uint256"},{"internalType":"uint256","name":"royaltyAskDate","type":"uint256"},{"internalType":"string","name":"color","type":"string"}],"stateMutability":"view","type":"function"},{"inputs":[{"internalType":"uint256","name":"_tokenID","type":"uint256"}],"name":"withdrawPixelProceeds","outputs":[],"stateMutability":"nonpayable","type":"function"}],"evm":{"bytecode":{"linkReferences":{},"object":"60808060405234620000cb5760016000556002805460ff60a01b1916601960a11b179055600480546001600160a01b031990811673c02aaa39b223fe8d0a0e5c4f27ead9083c756cc217909155906107b58082016001600160401b03811183821017620000b557829162003ed8833903906000f08015620000a95760018060a01b03168160055416176005553390600254161760025542600355604051613e079081620000d18239f35b6040513d6000823e3d90fd5b634e487b7160e01b600052604160045260246000fd5b600080fdfe6080604052600436101561001257600080fd5b6000803560e01c806302d13f021461267e5780630734d1441461257457806309eef43e14612519578063113bc999146124fb578063166db008146124b7578063236ed8f31461212557806330b5d6d3146120f05780633123a62b146120d25780633bdb693e14611ba457806344d6b6d214611b5d578063481c6a7514611b345780634882a7ea14611b035780635c8c6407146118b15780635e027601146118665780637000c3e814610ab557806370a082311461020757806374d3e777146118375780637ace48e714611639578063907e9959146113a757806393cde51a146113435780639979ef4514611177578063a271e5251461115a578063a52f27b514610fdd578063a7ccabdf14610f92578063ad711e9e14610e12578063aeeacbeb14610d67578063b3a1ddf414610d35578063bc5bc2fb14610cde578063be26ed7f14610d09578063c4323fc114610cde578063c4d1510d14610cba578063ccba361714610b2a578063d56d229d14610b01578063d7638d8014610ab5578063d84cd45014610a6f578063ec18fb5f14610241578063f8b2cb4f14610207578063fd8d7ed3146101ea5763ff188dca146101ca57600080fd5b346101e757806003193601126101e7576020600354604051908152f35b80fd5b50346101e757806003193601126101e75760206040516103e88152f35b50346101e75760203660031901126101e7576020906040906001600160a01b0361022f6128ef565b16815261104983522054604051908152f35b50346101e757610250366127fe565b909161025d828214612c10565b845b81811061026a578580f35b61029461028061027b838589612bf2565b612c02565b61028e61027b848789612bf2565b90613372565b610a315760ff6102a861027b838589612bf2565b16865260086020526040862060ff6102c461027b848789612bf2565b1660005260205260018060a01b0360406000205416156000146103ab5760ff6102f161027b838589612bf2565b16865260086020526040862060ff61030d61027b848789612bf2565b166000526020526040600020336001600160601b0360a01b825416179055338652611049602052604086208054906001820180921161039757556001905b61035961027b828589612bf2565b60ff8061036a61027b85898b612bf2565b1691167fee0e9a85d097f632450e6ac08750207c8f039246ee437b10eaf708b397d00ad88980a30161025f565b634e487b7160e01b88526011600452602488fd5b6103d06103bc61027b838589612bf2565b6103ca61027b848789612bf2565b906133a4565b60ff6103e061027b84868a612bf2565b16875260086020526040872060ff6103fc61027b85888a612bf2565b16600052602052806001604060002001541160001461084a5760ff61042561027b84868a612bf2565b16875260086020526040872060ff61044161027b85888a612bf2565b1660005260205261045a816001604060002001546131ed565b600480546040516370a0823160e01b815233928101929092526001600160a01b0316929190602081602481875afa8a81156107fe578881898d8a968e959661080a575b509560ff9360406104cc94866104bd61027b8661027b986104e29e612bf2565b16815260086020522095612bf2565b166000526020526001604060002001541061313d565b604051636eb1769f60e11b815233600482015230602482015292602084604481845afa8a81156107fe578881898d8d958b95906107af575b6105d19a509360408460ff61057761027b8a8860209f9e9d9c98610572869d8f886105859f61027b9f888f8f61055c94866104bd61027b8661027b988f612bf2565b1660005260205260018a60002001541115613195565b612bf2565b16815260088b522095612bf2565b1660009081529084526040908190205490516323b872dd60e01b81523360048201526001600160a01b0390911660248201526044810192909252909384919082908c9082906064820190565b03925af19081156107a45761063292602092610787575b50600480546002546040516323b872dd60e01b815233938101939093526001600160a01b0390811660248401526044830193909352909384929091169082908b9082906064820190565b03925af1801561077c5761074d575b5060ff61065261027b838589612bf2565b16865260086020526040862060ff61066e61027b848789612bf2565b1660005260205260018060a01b0360406000205416865261104960205260408620805480600019810111610397576000190190553386526110496020526040862080549060018201809211610397575560019060ff6106d161027b83868a612bf2565b16875260086020526040872060ff6106ed61027b84888a612bf2565b166000526020526040600020336001600160601b0360a01b82541617905560ff61071b61027b83868a612bf2565b16875260086020526040872060ff61073761027b84888a612bf2565b166000526020524260026040600020015561034b565b61076e9060203d602011610775575b61076681836129ab565b810190612c70565b5038610641565b503d61075c565b6040513d89823e3d90fd5b61079d90833d85116107755761076681836129ab565b50386105e8565b6040513d8a823e3d90fd5b5050505050505092906020823d6020116107f6575b816107d1602093836129ab565b810103126107f15790516105d193908890869089908d908a908e9061051a565b600080fd5b3d91506107c4565b604051903d90823e3d90fd5b96505050505050506020813d602011610842575b8161082b602093836129ab565b810103126107f15751849088888c898d60ff61049d565b3d915061081e565b50600480546040516370a0823160e01b815233928101929092526001600160a01b031690602081602481855afa80156107a45788906109fd575b6108b5915060ff61089961027b86888c612bf2565b16895260086020526040892060ff6104cc61027b878a8c612bf2565b604051636eb1769f60e11b8152336004820152306024820152602081604481855afa908882156107fe578681878b8b958995976109bd575b5061027b856020989560406106329b999660ff61091561027b6109399c839a6109239a612bf2565b16815260088c522095612bf2565b1660005284526001604060002001541115613195565b6002546001600160a01b03169060ff61095661027b87898d612bf2565b168a526008835260408a2060ff61097161027b888b8d612bf2565b1660009081529084526040908190206001015490516323b872dd60e01b81523360048201526001600160a01b0390931660248401526044830152909283919082908b9082906064820190565b96505050505050506020813d6020116109f5575b816109de602093836129ab565b810103126107f157518583868a878b61027b6108ed565b3d91506109d1565b506020813d602011610a29575b81610a17602093836129ab565b810103126107f1576108b59051610884565b3d9150610a0a565b60405162461bcd60e51b8152602060048201526016602482015275706978656c206973206f7574206f6620626f756e647360501b6044820152606490fd5b50346101e75760403660031901126101e757610ab1610a9d610a8f6127a0565b610a976127b0565b90613292565b604051918291602083526020830190612890565b0390f35b50346101e75760403660031901126101e7576040610ad1612905565b9160043581526007602052209060018060a01b0316600052602052602060ff604060002054166040519015158152f35b50346101e757806003193601126101e7576001546040516001600160a01b039091168152602090f35b50346101e757602080600319360112610cb657600435610b486134d8565b808352600782526040832033600052825260ff60406000205416610c655780835261104c8252610b936001604085200154600684526040852033600052845260406000205490613391565b600c1c908115610c2057838080938193825260078652604082203360005286526040600020600160ff19825416179055335af1610bce6134a8565b5015610bdc57506001815580f35b6064906040519062461bcd60e51b82526004820152601760248201527f4661696c656420746f2073656e642070726f63656564730000000000000000006044820152fd5b60405162461bcd60e51b815260048101849052601760248201527f4e6f2070726f636565647320746f2077697468647261770000000000000000006044820152606490fd5b60405162461bcd60e51b8152600481018390526024808201527f616c726561647920636c61696d65642070726f636565647320666f72207468696044820152631cc8125160e21b6064820152608490fd5b5080fd5b50346101e757806003193601126101e757602060ff60025460a01c16604051908152f35b50346101e75760203660031901126101e7576040602091600435815261104b83522054604051908152f35b50346101e757806003193601126101e757602062054600610d2c600354426131ed565b04604051908152f35b50346101e757806003193601126101e75760206203f48062054600610d5c600354426131ed565b061015604051908152f35b50346101e75760403660031901126101e75760ff6040610d856127a0565b9282610d8f6127b0565b94168152600860205220911660005260205260ff6040600020610ab18154916001810154906002810154610dca6004600384015493016129cc565b9260405196879660018060a01b0381168852818160a01c16602089015260a81c16151560408701526060860152608085015260a084015260e060c084015260e083019061286b565b50346101e757806003193601126101e75760405190608082018281106001600160401b03821117610f7c57604052605782526020917f3c7376672077696474683d2236303022206865696768743d2236303022207669838201527f6577426f783d2230203020363030203630302220786d6c6e733d22687474703a60408201527f2f2f7777772e77332e6f72672f323030302f737667223e00000000000000000060608201529181925b60ff9060408286161015610f2d576040851015610f195782610f10600192610f026040519382610ef58694518092848088019101612848565b8301018961100901613c5c565b03601f1981018352826129ab565b94011692610ebc565b634e487b7160e01b84526032600452602484fd5b82610f68602660405184610f4a8296518092878086019101612848565b8101651e17b9bb339f60d11b858201520360068101855201836129ab565b610ab160405192828493845283019061286b565b634e487b7160e01b600052604160045260246000fd5b50346101e75760203660031901126101e757610fac6128ef565b6002546001600160a01b039190610fc690831633146131fa565b166001600160601b0360a01b600154161760015580f35b50346101e757806003193601126101e757604051906202002082018281106001600160401b03821117610f7c576040526110008252602091828082019162020000368437835b604081106110d0575060018060a01b03600554166040519384926317046b0160e11b8452602484019085600486015251809152604484019190875b8181106110b75750505082809103915afa9182156107fe578092611087575b5050604051908152f35b9091508282813d83116110b0575b61109f81836129ab565b810103126101e7575051388061107d565b503d611095565b825184528996889650938401939092019160010161105e565b90929150835b604081106110eb575060010191849192611023565b6001600160fa1b03821682036111465760019061110b8360061b8261291b565b60ff80831688526008895260408820908516600052885261113f6001600160601b031960406000205460601b169187612bc8565b52016110d6565b634e487b7160e01b85526011600452602485fd5b50346101e757806003193601126101e757602060405161fd208152f35b50602080600319360112610cb657600435906111916134d8565b81835261104c908181526111af60ff60046040872001541615613410565b8284528181526111c76002604086200154421161345c565b82845281815242600360408620015411156112ff5782845281815260016040852001543411156112bb5782845281815283808080604081206001808060a01b03825416910154905af16112186134a8565b501561128057828452526040808320346001820181905581546001600160a01b0319163390811790925582519384526020840191909152908201527f8108a40c809d4e4f749358511f7baa90a1259a19024e438f728276ccd4c9368690606090a16001815580f35b6064906040519062461bcd60e51b8252600482015260146024820152732330b4b632b2103a379039b2b7321022ba3432b960611b6044820152fd5b6064906040519062461bcd60e51b82526004820152601b60248201527f6869676865722062696420616c7265616479206578697374696e6700000000006044820152fd5b6064906040519062461bcd60e51b82526004820152601960248201527f61756374696f6e2068617320616c726561647920656e646564000000000000006044820152fd5b50346101e75760203660031901126101e757604060a091600435815261104c60205220600180831b0381541690600181015490600281015460ff60046003840154930154169260405194855260208501526040840152606083015215156080820152f35b50346101e75760603660031901126101e7576001600160401b0390600435828111610cb6576113da9036906004016127ce565b6024908135858111611635576113f49036906004016127ce565b91906044968735908111611631576114109036906004016127ce565b94909784841480611628575b156115d557875b8481106114dc5750505061143983828488612c88565b855b828110611446578680f35b61145181868a612bf2565b359060ff8061146461027b84888c612bf2565b16895260206008815260408a20908261148161027b868b8a612bf2565b1660005252600192836040600020015561149f61027b83878b612bf2565b90806114af61027b858a89612bf2565b1691167f1c362b7fc7c4865e1e7ede89f240549bbd8b5ee43b51383c9c0392687d6d10ec8a80a30161143b565b6114fb6114ed61027b83888c612bf2565b61028e61027b848a89612bf2565b6115925760ff8061151061027b84898d612bf2565b168a526020906008825260408b209061152d61027b858b8a612bf2565b1660005281523360018060a01b0360406000205416036115505750600101611423565b6064907f6f6e6c79206f776e65722063616e2073657420706978656c2076616c7565000084601e876040519462461bcd60e51b86526004860152840152820152fd5b60405162461bcd60e51b8152602060048201526018818501527f4120706978656c206973206f7574206f6620626f756e6473000000000000000081840152606490fd5b907f696e70757420617272617973206d757374206265206f66207468652073616d6560849260276040519362461bcd60e51b85526020600486015284015282015266040d8cadccee8d60cb1b6064820152fd5b5085841461141c565b8680fd5b8480fd5b50346101e757602080600319360112610cb65760043580151581036118335760035462054600906203f4808261166f83426131ed565b06106117ee5733855261104984526040852054908115611799578261169482426131ed565b04865261104a938486526002604088200133600052865260ff60406000205416611764578391901561173b57506116cd600354426131ed565b0485528284526116e26040862091825461291b565b90555b6116f1600354426131ed565b0483528152600260408320019033600052526040600020600160ff19825416179055337f7ce969a18bb6b0fba42c6d9746e7d08eeca4c661809659c91d276456e3153ac08280a280f35b61174590426131ed565b04855282845261175d6001604087200191825461291b565b90556116e5565b60405162461bcd60e51b815260048101879052600d60248201526c185b1c9958591e481d9bdd1959609a1b6044820152606490fd5b60405162461bcd60e51b815260048101869052602760248201527f6e6f20706978656c73206f776e6564203d206e6f20766f74657320746f2062656044820152660818d85cdd195960ca1b6064820152608490fd5b60405162461bcd60e51b815260048101859052601960248201527f566f74696e672063757272656e746c79206e6f74206f70656e000000000000006044820152606490fd5b8280fd5b50346101e75760403660031901126101e757602061185e6118566127a0565b6103ca6127b0565b604051908152f35b50346101e75760203660031901126101e7576118806128ef565b6002546001600160a01b03919061189a90831633146131fa565b166001600160601b0360a01b600454161760045580f35b50346101e757602080600319360112610cb65760043590620546006118d8600354426131ed565b04821015611aa05781835261104a8082526118fd60408520600181549101549061291b565b908115611a6b57838552825260408420549060011c1061191b578280f35b6001546001600160a01b03929084908416803b15610cb6578180916024604051809481936335313c2160e11b83523060048401525af18015611a6057611a48575b50506004927fd9dc24857f317ed9abbbb42e920ede0104231eb1d3d70236a74887ffaf159868838093604051908152a160015416604051938480926318160ddd60e01b82525afa918215611a3d578392611a0e575b5060001982019182116119fa5781835261104b815242604084205561104c9081815242600260408620015561fd2042019283421161114657845252600360408320015538808280f35b634e487b7160e01b83526011600452602483fd5b9080925081813d8311611a36575b611a2681836129ab565b810103126107f1575190386119b1565b503d611a1c565b6040513d85823e3d90fd5b611a5190612962565b611a5c57833861195c565b8380fd5b6040513d84823e3d90fd5b60405162461bcd60e51b815260048101849052600d60248201526c139bc81d9bdd195cc818d85cdd609a1b6044820152606490fd5b6084906040519062461bcd60e51b82526004820152603660248201527f636865636b20766f7465206f7574636f6d6573206f6e6c7920706f737369626c6044820152756520666f7220636f6e636c75646564206379636c657360501b6064820152fd5b50346101e757806003193601126101e75760206203f48062054600611b2a600354426131ed565b0610604051908152f35b50346101e757806003193601126101e7576002546040516001600160a01b039091168152602090f35b50346101e75760403660031901126101e7576040611b79612905565b9160043581526006602052209060018060a01b03166000526020526020604060002054604051908152f35b50346101e75760203660031901126101e7576004356001600160401b038111610cb657611bd59036906004016127ce565b6203f48062054600611bec600395949554426131ed565b061015612082576040519261082084018481106001600160401b03821117610f7c5760405260408452610800366020860137825b828110611d1357505050805b60ff908181166040811015611d0f57611c459085612bc8565b51611c54575b60010116611c2c565b604051611c6081612990565b838152613fc08260061b16806040019081604011611cfb57905b808210611ca45750506040821015610f195790611c9d6001928261100901612aa4565b9050611c4b565b9091611000831015611ce7576020611cdf600192610f026040519382611cd38694518092848088019101612848565b83010187600901613c5c565b920190611c7a565b634e487b7160e01b86526032600452602486fd5b634e487b7160e01b86526011600452602486fd5b8380f35b8060051b820135601e19833603018112156116355782018035906001600160401b03821161207e576020810191803603831361163157819081019260208401936080928391031261207a57611d67906127c0565b92611d74604084016127c0565b92611d81606082016127c0565b92810135906001600160401b038211612072570181603f8201121561207657602081013590611daf82612a89565b92611dbd60405194856129ab565b8284526040838301011161207257818a926040602093018386013783010152611de68385613372565b610a3157600a60ff831610156120345760ff8416885260086020526040882060ff841660005260205260ff60406000205460a81c16611fd75760ff8416885260086020526040882060ff84166000526020523360018060a01b036040600020541614611e59575b50505050600101611c20565b611e839060ff8516895260086020526040892060ff85166000526020526004604060002001612aa4565b60ff8316875260086020526040872060ff83166000526020526040600020805460a09260ff60a01b90841b169060ff60a01b19161790558160061b613fc060c0821691168103611fc15760ff818186160111611fc15760ff80611f4f928187160116928186168a52600860205260408a20828616600052602052604060002054901c16611f0f85612bb3565b611f1885612bb3565b9160ff87168b52600860205260408b2060ff871660005260205260ff80611f4560046040600020016129cc565b94169216906134fb565b90611000811015611fad576001949392611f6f60ff938493600901612aa4565b85611f7c8383168c612bc8565b521691167fa9a418da632d42c446a125f10b007831ba0e348168b6b2474a2383ac5df4c2808780a390388080611e4d565b634e487b7160e01b88526032600452602488fd5b634e487b7160e01b600052601160045260246000fd5b60405162461bcd60e51b815260206004820152602f60248201527f6f776e6572207761732061736b656420746f20666972737420736574746c652060448201526e1c9bde585b1d1e481c185e5b595b9d608a1b6064820152608490fd5b60405162461bcd60e51b81526020600482015260166024820152757368617065204944206e6f7420617661696c61626c6560501b6044820152606490fd5b8980fd5b8880fd5b8780fd5b8580fd5b60405162461bcd60e51b815260206004820152602260248201527f417274697374696320706572696f642063757272656e746c79206e6f74206f7060448201526132b760f11b6064820152608490fd5b50346101e7576120ed6120e4366127fe565b92919091612c88565b80f35b50346101e75760203660031901126101e75760408091600435815261104a602052206001815491015482519182526020820152f35b50346101e757602090816003193601126101e757600435906121456134d8565b81815261104c9182845260ff926121658460046040862001541615613410565b81835280855261217d6002604085200154421161345c565b818352808552426003604085200154101561247a578183528085526040832080546001600160a01b03949190851690816123b057505090604051603f80888301836121e8334442859160549391835260208301526001600160601b03199060601b1660408201520190565b03936121fc601f19958681018352826129ab565b51902016916040516122428a82019282612236334442889160549391835260208301526001600160601b03199060601b1660408201520190565b039081018352826129ab565b5190201691848452875260046040842001600160ff19825416179055846001541681845260088852604084208360005288528560406000205416813b1561163557604051632142170760e11b81523060048201526001600160a01b03919091166024820152604481018690529084908290606490829084905af180156123a557908491612391575b505260088652604082209060005285527fd2aa34a4fdbbc6dff6a3e56f46e0f3ae2a31d7785ff3487aa5c95c642acea501606084604060002054166040519085825288820152836040820152a15b80945b84861693604085101561238957825b8681166040811015612378578685526008845260408086206000928352855280822054841680875261104986528187205488885260068752828820918452908652912055600101861661232a565b50509350946001859101169461231b565b826001815580f35b61239a90612962565b6118335782386122ca565b6040513d86823e3d90fd5b600401600160ff19825416179055846001541690813b1561183357604051632142170760e11b81523060048201526001600160a01b03919091166024820152604481018590529082908290606490829084905af18015611a605761246b575b508281529085526040808220805460019091015482518581529186166001600160a01b03166020830152918101919091527fd2aa34a4fdbbc6dff6a3e56f46e0f3ae2a31d7785ff3487aa5c95c642acea50190606090a1612318565b61247490612962565b3861240f565b60405162461bcd60e51b8152600481018690526015602482015274185d58dd1a5bdb881b9bdd08195b991959081e595d605a1b6044820152606490fd5b50346101e75760403660031901126101e75760406020916124d6612905565b6004358252600684528282206001600160a01b03909116825283522054604051908152f35b50346101e757806003193601126101e7576020604051620546008152f35b50346101e75760203660031901126101e75760ff604060209261253a6128ef565b6205460061254a600354426131ed565b04825261104a85528282206001600160a01b03909116825260020184522054604051911615158152f35b50346101e757612583366127fe565b6125908184959414612c10565b61259984612a72565b936125a760405195866129ab565b808552601f196125b682612a72565b01865b818110612667575050855b8181106126295760408051602080825288518183018190528a93600582901b8401810192808c01929185015b8287106125fd5785850386f35b909192938280612619600193603f198a82030186528851612890565b96019201960195929190926125f0565b8061264b61263d61027b600194868a612bf2565b610a9761027b84888a612bf2565b6126558289612bc8565b526126608188612bc8565b50016125c4565b60209061267261325b565b82828a010152016125b9565b50346101e75760603660031901126101e7576126986127a0565b60ff6126a26127b0565b916126b860018060a01b036002541633146131fa565b16808352600860209181835260ff60408620941693848652835260ff604086205460a81c1680612774575b156127385780855281835260408520848652835260443560016040872001558085528183526040852084865283526040852060ff60a81b19815416905584528152604083209183525280600360408220015580f35b80855281835260408520848652835260408520600160a81b60ff60a81b1982541617905584528152604083209183525242600360408320015580f35b5080855281835260408520848652835260036040862001546203f4808101809111611cfb5742116126e3565b6004359060ff821682036107f157565b6024359060ff821682036107f157565b359060ff821682036107f157565b9181601f840112156107f1578235916001600160401b0383116107f1576020808501948460051b0101116107f157565b60406003198201126107f1576001600160401b03916004358381116107f1578261282a916004016127ce565b939093926024359182116107f157612844916004016127ce565b9091565b60005b83811061285b5750506000910152565b818101518382015260200161284b565b9060209161288481518092818552858086019101612848565b601f01601f1916010190565b9060e060c06128ec9360018060a01b03815116845260ff6020820151166020850152604081015115156040850152606081015160608501526080810151608085015260a081015160a08501520151918160c0820152019061286b565b90565b600435906001600160a01b03821682036107f157565b602435906001600160a01b03821682036107f157565b91908201809211611fc157565b90600182811c92168015612958575b602083101461294257565b634e487b7160e01b600052602260045260246000fd5b91607f1691612937565b6001600160401b038111610f7c57604052565b60e081019081106001600160401b03821117610f7c57604052565b602081019081106001600160401b03821117610f7c57604052565b90601f801991011681019081106001600160401b03821117610f7c57604052565b90604051918260008254926129e084612928565b908184526001948581169081600014612a4f5750600114612a0c575b5050612a0a925003836129ab565b565b9093915060005260209081600020936000915b818310612a37575050612a0a935082010138806129fc565b85548884018501529485019487945091830191612a1f565b915050612a0a94506020925060ff191682840152151560051b82010138806129fc565b6001600160401b038111610f7c5760051b60200190565b6001600160401b038111610f7c57601f01601f191660200190565b91909182516001600160401b038111610f7c57612ac18254612928565b601f8111612b6b575b50602080601f8311600114612b07575081929394600092612afc575b50508160011b916000199060031b1c1916179055565b015190503880612ae6565b90601f198316958460005282600020926000905b888210612b5357505083600195969710612b3a575b505050811b019055565b015160001960f88460031b161c19169055388080612b30565b80600185968294968601518155019501930190612b1b565b600083815260208120601f840160051c81019260208510612ba9575b601f0160051c01915b828110612b9e575050612aca565b818155600101612b90565b9092508290612b87565b60ff60099116029060ff8216918203611fc157565b8051821015612bdc5760209160051b010190565b634e487b7160e01b600052603260045260246000fd5b9190811015612bdc5760051b0190565b3560ff811681036107f15790565b15612c1757565b60405162461bcd60e51b815260206004820152602b60248201527f7820616e64207920696e7075742061727261797320617265206f66207661726960448201526a6f7573206c656e6774687360a81b6064820152608490fd5b908160209103126107f1575180151581036107f15790565b929190612c96838214612c10565b60005b818110612ca7575050505050565b612cc6612cb861027b838589612bf2565b61028e61027b848888612bf2565b610a315760ff80612cdb61027b84868a612bf2565b16600052600860208181526040908160002084612cfc61027b888c8c612bf2565b16600052815260018060a01b033381846000205416036130ef5784612d2561027b888a8e612bf2565b166000528382528260002085612d3f61027b898d8d612bf2565b166000528252600290888a898d428689600020015403612d6c575b50505050505050505050600101612c99565b8a612d8c9493612d8661027b836103ca9661027b96612bf2565b94612bf2565b906004818154169186516370a0823160e01b8152338382015260249087818381885afa908115613063579086916000916130bf575b501061306e578751636eb1769f60e11b8152338482019081523060208201528890829081906040010381885afa90811561306357908691600091613033575b5010612fe25750845487516323b872dd60e01b81523393810193845291166001600160a01b031660208301526040820193909352849183918290600090829060600103925af18015612fd7579286612ead61027b8a8f8f9997908f97918f9260019f9e612e9a819f9d8f8f908f8f96928f87612e8c61027b8f8f8f829a61027b9c612fba575b50612bf2565b166000525260002095612bf2565b16600052885242908a6000200155612bf2565b166000528381528260002086612ec761027b8a8987612bf2565b16600052815285898d8983876000205460a81c16612f3d575b95509250925050612ef6945061027b9350612bf2565b9080612f0661027b858a8a612bf2565b1691167fe61af2269c9afbdb69efce2b15f2a464f8ee6237f105b3d4024f2e824a9f0af3600080a3903880808080888a898d612d5a565b600098600398612fa49461027b948791612f9691879187918e8e8e88612f7e88888e8e85612f6d85858e8e612bf2565b166000528652600088902096612bf2565b166000525260002060ff60a81b198154169055612bf2565b168b528652878a2096612bf2565b1685525282200155853880878185898d89612ee0565b612fd090883d8a116107755761076681836129ab565b5038612e86565b84513d6000823e3d90fd5b826027608492898b519362461bcd60e51b85528401528201527f696e73756666696369656e7420616c6c6f77616e636520746f2070617920726f60448201526679616c7469657360c81b6064820152fd5b91508882813d831161305c575b61304a81836129ab565b810103126101e7575085905138612e00565b503d613040565b89513d6000823e3d90fd5b826027608492898b519362461bcd60e51b85528401528201527f6e6f742073756666696369656e742062616c616e636520746f2070617920726f60448201526679616c7469657360c81b6064820152fd5b91508882813d83116130e8575b6130d681836129ab565b810103126101e7575085905138612dc1565b503d6130cc565b50608491519062461bcd60e51b82526004820152602260248201527f6f6e6c7920706978656c206f776e65722063616e2070617920726f79616c7469604482015261657360f01b6064820152fd5b1561314457565b60405162461bcd60e51b815260206004820152602360248201527f6e6f742073756666696369656e742062616c616e636520746f206275792070696044820152621e195b60ea1b6064820152608490fd5b1561319c57565b60405162461bcd60e51b815260206004820152602360248201527f696e73756666696369656e7420616c6c6f77616e636520746f206275792070696044820152621e195b60ea1b6064820152608490fd5b91908203918211611fc157565b1561320157565b60405162461bcd60e51b815260206004820152602c60248201527f6f776e65722063757272656e74206d616e616765722063616e2063616c6c207460448201526b3434b990333ab731ba34b7b760a11b6064820152608490fd5b6040519061326882612975565b606060c0836000808252806020830152806040830152808483015280608083015260a08201520152565b60ff9061329d61325b565b50169060409182811080613366575b1561332c57600052600860205260ff8260002091166000526020526133246004826000208351936132dc85612975565b60ff825460018060a01b0381168752818160a01c16602088015260a81c161515908501526001810154606085015260028101546080850152600381015460a0850152016129cc565b60c082015290565b825162461bcd60e51b8152602060048201526013602482015272706978656c206f7574206f6620626f756e647360681b6044820152606490fd5b508260ff8316106132ac565b60ff604091161090811591613385575090565b6040915060ff16101590565b81810292918115918404141715611fc157565b6133fd64073df16000926001604060ff61340c951692600090848252600860205260ff8383209116908183526020526133e360028484200154426131ed565b948252600860205282822090825260205220015490613391565b60ff60025460a01c1690613391565b0490565b1561341757565b60405162461bcd60e51b815260206004820152601960248201527f61756374696f6e2068617320656e64656420616c7265616479000000000000006044820152606490fd5b1561346357565b60405162461bcd60e51b815260206004820152601b60248201527f61756374696f6e20686173206e6f7420737461727465642079657400000000006044820152606490fd5b3d156134d3573d906134b982612a89565b916134c760405193846129ab565b82523d6000602084013e565b606090565b6002600054146134e9576002600055565b604051633ee5aeb560e01b8152600490fd5b60ff9093919316918215613ba05760018314613ad15760028314613aa75760038314613a4b576004928381146139f7576005811461389a576006811461384857600781146137e157600881146136fe57600914613569575050505060405161356281612990565b6000815290565b61357284613cdf565b9061357c81613cdf565b600886018087116136e95761359090613cdf565b94600883018093116136d45750916136b8826128ec96946135c56135bf6135b960499997613cdf565b9a613cdf565b92613cdf565b91604051998a97602a6135f58a602099693c7061746820643d224d60b01b8b8301528a8151948593019101612848565b890193600160fd1b9485602a820152613617825180938b602b85019101612848565b016b010209c101c101810181018960a51b602b820152613640825180938a603785019101612848565b0183603782015261365a8251809389603885019101612848565b0161081360f21b60388201526136798251809388603a85019101612848565b0190603a8201526136938251809386603b85019101612848565b019169102d11103334b6361e9160b11b603b8401528351938491604585019101612848565b01631110179f60e11b60458201520360298101845201826129ab565b601190634e487b7160e01b6000525260246000fd5b601186634e487b7160e01b6000525260246000fd5b509260088101938482116137cc5761371585613cdf565b9161372861372283613cdf565b91613cdf565b94600883018093116136d45750916136b8826128ec96946137516135bf6135b960499997613cdf565b91604051998a97602a6137818a602099693c7061746820643d224d60b01b8b8301528a8151948593019101612848565b890193600160fd1b9485602a8201526137a3825180938b602b85019101612848565b016b010209c101c101810181018160a51b602b820152613640825180938a603785019101612848565b601184634e487b7160e01b6000525260246000fd5b506137eb84613cdf565b906137f581613cdf565b600886018096116138335761380986613cdf565b9460088301908184116136d45750604994926128ec9694926137516135bf6135b96136b895613cdf565b601185634e487b7160e01b6000525260246000fd5b5061385284613cdf565b90600881018082116138335761386790613cdf565b9360088601908187116136d45750916136b86049949261388a6128ec9795613cdf565b946137516135bf6135b984613cdf565b50926138a581613cdf565b906008850190818611613833576138bb82613cdf565b906138ce6138c882613cdf565b97613cdf565b95600882018092116136d45750603f94926128ec9694926138f46135bf6139db94613cdf565b91604051998a97602a6139248a602099693c7061746820643d224d60b01b8b8301528a8151948593019101612848565b890193600160fd1b9485602a820152613946825180938b602b85019101612848565b019161081360f21b9283602b820152613968825180938b602d85019101612848565b0184602d820152613982825180938a602e85019101612848565b0190602e82015261399c8251809388603085019101612848565b019060308201526139b68251809386603185019101612848565b019169103d11103334b6361e9160b11b60318401528351938491603b85019101612848565b01631110179f60e11b603b82015203601f8101845201826129ab565b50929160088301908184116136d457613a0f82613cdf565b9160088601918287116136d45750916139db826128ec96946138f46135bf6138c8613a45613a3f603f9b99613cdf565b94613cdf565b9b613cdf565b9150613a5683613cdf565b92613a6083613cdf565b9160088201809211611fc157613a7582613cdf565b94613a88613a8286613cdf565b93613cdf565b9460088101809111611fc1576128ec95603f956138f46139db93613cdf565b9150613ab283613cdf565b92613abc83613cdf565b9160088201808311611fc157613a7590613cdf565b91509160048101809111611fc157613ae890613cdf565b9060048101809111611fc1576128ec91613b03604492613cdf565b936040519485926b1e31b4b931b6329031bc1e9160a11b6020850152613b33815180926020602c88019101612848565b830165111031bc9e9160d11b602c820152613b58825180936020603285019101612848565b016d1110391e911a11103334b6361e9160911b6032820152613b84825180936020604085019101612848565b01631110179f60e11b60408201520360248101845201826129ab565b6128ec9250613bb4613722604f9395613cdf565b93604051948592681e3932b1ba103c1e9160b91b6020850152613be1815180926020602988019101612848565b83016411103c9e9160d91b6029820152613c05825180936020602e85019101612848565b017f222077696474683d223822206865696768743d2238222066696c6c3d22000000602e820152613c40825180936020604b85019101612848565b01631110179f60e11b604b82015203602f8101845201826129ab565b600092918154613c6b81612928565b92600191808316908115613cc45750600114613c88575b50505050565b90919293945060005260209081600020906000915b858310613cb35750505050019038808080613c82565b805485840152918301918101613c9d565b60ff1916845250505081151590910201915038808080613c82565b8015613da35780816000925b613d8b575080613cfa83612a89565b92613d0860405194856129ab565b808452601f19613d1782612a89565b01366020860137915b613d2957505090565b600019820191808311611fc15782600a9081840493828502928584041485151715611fc157613d5b60ff9384926131ed565b16603001918211611fc15785511115612bdc5760f81b6001600160f81b03191660001a908401601f015380613d20565b916000198114611fc1576001600a9101920480613ceb565b50604051604081018181106001600160401b03821117610f7c5760405260018152600360fc1b60208201529056fea2646970667358221220587b7e15c1b408de8936e82a7d562bc986b82ec2bca46d22ca42e90f82178dac64736f6c634300081400336080806040523461001657610799908161001c8239f35b600080fdfe6080604052600436101561001257600080fd5b6000803560e01c9081632e08d6021461007a5750806358161a4214610075578063b861619514610070578063cf06c7b71461006b578063dd1d2599146100665763e27d51531461006157600080fd5b6103f7565b6103d6565b6103b0565b6102bb565b61020d565b346101515760203660031901126101515760043567ffffffffffffffff811161014d576100ab9036906004016101ad565b600180825111156100fc57805b6100de575b6100da6100c98361045a565b516040519081529081906020820190565b0390f35b80825111156100f7576100f18192610511565b916100b8565b6100bd565b60405162461bcd60e51b815260206004820152602360248201527f776f6e27742067656e657261746520726f6f7420666f722073696e676c65206c60448201526232b0b360e91b6064820152608490fd5b5080fd5b80fd5b634e487b7160e01b600052604160045260246000fd5b6040519190601f01601f1916820167ffffffffffffffff81118382101761019057604052565b610154565b67ffffffffffffffff81116101905760051b60200190565b9080601f83011215610208578135906101cd6101c883610195565b61016a565b9182938184526020808095019260051b820101928311610208578301905b8282106101f9575050505090565b813581529083019083016101eb565b600080fd5b346102085760603660031901126102085760243567ffffffffffffffff81116102085761023e9036906004016101ad565b60443581516000925b81841061025d5760405160043584148152602090f35b909161027660019161026f868561047d565b5190610437565b9301929190610247565b6020908160408183019282815285518094520193019160005b8281106102a7575050505090565b835185529381019392810192600101610299565b346102085760403660031901126102085760043567ffffffffffffffff8111610208576102ec9036906004016101ad565b602435906001906102ff82825111610491565b61031161030c8251610632565b6104e9565b92600080845b61032a575b604051806100da8882610280565b8351858111156103aa578584939261036f92828080981614600014610379575061035860001986018861047d565b51610363828b61047d565b525b0192841c94610511565b9392919091610317565b85830190810361039557508361038f828b61047d565b52610365565b61039f908861047d565b5161038f828b61047d565b5061031c565b346102085760203660031901126102085760206103ce600435610632565b604051908152f35b346102085760403660031901126102085760206103ce602435600435610437565b3461020857602036600319011261020857600435806000815b61042a576020925060405191806001811901161490038152f35b600192831c920182610410565b8181101561044e576000526020525b604060002090565b90600052602052610446565b8051156104675760200190565b634e487b7160e01b600052603260045260246000fd5b80518210156104675760209160051b010190565b1561049857565b60405162461bcd60e51b8152602060048201526024808201527f776f6e27742067656e65726174652070726f6f6620666f722073696e676c65206044820152633632b0b360e11b6064820152608490fd5b906104f66101c883610195565b8281528092610507601f1991610195565b0190602036910137565b90815160019081808216146000146105a9576105308282811c016104e9565b916000196105408382018761047d565b516000805260205261055a6040600020918551018561047d565b525b600019909101906000805b8382106105775750929450505050565b82600291610595610588858b61047d565b5161026f8487018c61047d565b61059f828961047d565b5201910190610567565b6105b481831c6104e9565b9161055c565b90604082018092116105c857565b634e487b7160e01b600052601160045260246000fd5b90602082018092116105c857565b90601082018092116105c857565b90600882018092116105c857565b90600482018092116105c857565b90600282018092116105c857565b90600182018092116105c857565b600181111561075d5760009080600160801b811015610752575b8068010000000000000000600292101561073f575b64010000000081101561072c575b62010000811015610719575b610100811015610706575b60108110156106f3575b60048110156106e1575b10156106d1575b806106ac8119610624565b1614806106c8575b156106bc5790565b6106c590610624565b90565b508015156106b4565b906106db90610624565b906106a1565b6106ed90821c93610616565b9261069a565b6107009060041c93610608565b92610690565b6107139060081c936105fa565b92610686565b6107269060101c936105ec565b9261067b565b6107399060201c936105de565b9261066f565b61074c9060401c936105ba565b92610661565b60809250821c61064c565b5060009056fea2646970667358221220e9108dc0087bd88a6ccc6ff1dead96b7393231f78ff7f8bb08482568cd419d2564736f6c63430008140033","opcodes":"PUSH1 0x80 DUP1 PUSH1 0x40 MSTORE CALLVALUE PUSH3 0xCB JUMPI PUSH1 0x1 PUSH1 0x0 SSTORE PUSH1 0x2 DUP1 SLOAD PUSH1 0xFF PUSH1 0xA0 SHL NOT AND PUSH1 0x19 PUSH1 0xA1 SHL OR SWAP1 SSTORE PUSH1 0x4 DUP1 SLOAD PUSH1 0x1 PUSH1 0x1 PUSH1 0xA0 SHL SUB NOT SWAP1 DUP2 AND PUSH20 0xC02AAA39B223FE8D0A0E5C4F27EAD9083C756CC2 OR SWAP1 SWAP2 SSTORE SWAP1 PUSH2 0x7B5 DUP1 DUP3 ADD PUSH1 0x1 PUSH1 0x1 PUSH1 0x40 SHL SUB DUP2 GT DUP4 DUP3 LT OR PUSH3 0xB5 JUMPI DUP3 SWAP2 PUSH3 0x3ED8 DUP4 CODECOPY SUB SWAP1 PUSH1 0x0 CREATE DUP1 ISZERO PUSH3 0xA9 JUMPI PUSH1 0x1 DUP1 PUSH1 0xA0 SHL SUB AND DUP2 PUSH1 0x5 SLOAD AND OR PUSH1 0x5 SSTORE CALLER SWAP1 PUSH1 0x2 SLOAD AND OR PUSH1 0x2 SSTORE TIMESTAMP PUSH1 0x3 SSTORE PUSH1 0x40 MLOAD PUSH2 0x3E07 SWAP1 DUP2 PUSH3 0xD1 DUP3 CODECOPY RETURN JUMPDEST PUSH1 0x40 MLOAD RETURNDATASIZE PUSH1 0x0 DUP3 RETURNDATACOPY RETURNDATASIZE SWAP1 REVERT JUMPDEST PUSH4 0x4E487B71 PUSH1 0xE0 SHL PUSH1 0x0 MSTORE PUSH1 0x41 PUSH1 0x4 MSTORE PUSH1 0x24 PUSH1 0x0 REVERT JUMPDEST PUSH1 0x0 DUP1 REVERT INVALID PUSH1 0x80 PUSH1 0x40 MSTORE PUSH1 0x4 CALLDATASIZE LT ISZERO PUSH2 0x12 JUMPI PUSH1 0x0 DUP1 REVERT JUMPDEST PUSH1 0x0 DUP1 CALLDATALOAD PUSH1 0xE0 SHR DUP1 PUSH4 0x2D13F02 EQ PUSH2 0x267E JUMPI DUP1 PUSH4 0x734D144 EQ PUSH2 0x2574 JUMPI DUP1 PUSH4 0x9EEF43E EQ PUSH2 0x2519 JUMPI DUP1 PUSH4 0x113BC999 EQ PUSH2 0x24FB JUMPI DUP1 PUSH4 0x166DB008 EQ PUSH2 0x24B7 JUMPI DUP1 PUSH4 0x236ED8F3 EQ PUSH2 0x2125 JUMPI DUP1 PUSH4 0x30B5D6D3 EQ PUSH2 0x20F0 JUMPI DUP1 PUSH4 0x3123A62B EQ PUSH2 0x20D2 JUMPI DUP1 PUSH4 0x3BDB693E EQ PUSH2 0x1BA4 JUMPI DUP1 PUSH4 0x44D6B6D2 EQ PUSH2 0x1B5D JUMPI DUP1 PUSH4 0x481C6A75 EQ PUSH2 0x1B34 JUMPI DUP1 PUSH4 0x4882A7EA EQ PUSH2 0x1B03 JUMPI DUP1 PUSH4 0x5C8C6407 EQ PUSH2 0x18B1 JUMPI DUP1 PUSH4 0x5E027601 EQ PUSH2 0x1866 JUMPI DUP1 PUSH4 0x7000C3E8 EQ PUSH2 0xAB5 JUMPI DUP1 PUSH4 0x70A08231 EQ PUSH2 0x207 JUMPI DUP1 PUSH4 0x74D3E777 EQ PUSH2 0x1837 JUMPI DUP1 PUSH4 0x7ACE48E7 EQ PUSH2 0x1639 JUMPI DUP1 PUSH4 0x907E9959 EQ PUSH2 0x13A7 JUMPI DUP1 PUSH4 0x93CDE51A EQ PUSH2 0x1343 JUMPI DUP1 PUSH4 0x9979EF45 EQ PUSH2 0x1177 JUMPI DUP1 PUSH4 0xA271E525 EQ PUSH2 0x115A JUMPI DUP1 PUSH4 0xA52F27B5 EQ PUSH2 0xFDD JUMPI DUP1 PUSH4 0xA7CCABDF EQ PUSH2 0xF92 JUMPI DUP1 PUSH4 0xAD711E9E EQ PUSH2 0xE12 JUMPI DUP1 PUSH4 0xAEEACBEB EQ PUSH2 0xD67 JUMPI DUP1 PUSH4 0xB3A1DDF4 EQ PUSH2 0xD35 JUMPI DUP1 PUSH4 0xBC5BC2FB EQ PUSH2 0xCDE JUMPI DUP1 PUSH4 0xBE26ED7F EQ PUSH2 0xD09 JUMPI DUP1 PUSH4 0xC4323FC1 EQ PUSH2 0xCDE JUMPI DUP1 PUSH4 0xC4D1510D EQ PUSH2 0xCBA JUMPI DUP1 PUSH4 0xCCBA3617 EQ PUSH2 0xB2A JUMPI DUP1 PUSH4 0xD56D229D EQ PUSH2 0xB01 JUMPI DUP1 PUSH4 0xD7638D80 EQ PUSH2 0xAB5 JUMPI DUP1 PUSH4 0xD84CD450 EQ PUSH2 0xA6F JUMPI DUP1 PUSH4 0xEC18FB5F EQ PUSH2 0x241 JUMPI DUP1 PUSH4 0xF8B2CB4F EQ PUSH2 0x207 JUMPI DUP1 PUSH4 0xFD8D7ED3 EQ PUSH2 0x1EA JUMPI PUSH4 0xFF188DCA EQ PUSH2 0x1CA JUMPI PUSH1 0x0 DUP1 REVERT JUMPDEST CALLVALUE PUSH2 0x1E7 JUMPI DUP1 PUSH1 0x3 NOT CALLDATASIZE ADD SLT PUSH2 0x1E7 JUMPI PUSH1 0x20 PUSH1 0x3 SLOAD PUSH1 0x40 MLOAD SWAP1 DUP2 MSTORE RETURN JUMPDEST DUP1 REVERT JUMPDEST POP CALLVALUE PUSH2 0x1E7 JUMPI DUP1 PUSH1 0x3 NOT CALLDATASIZE ADD SLT PUSH2 0x1E7 JUMPI PUSH1 0x20 PUSH1 0x40 MLOAD PUSH2 0x3E8 DUP2 MSTORE RETURN JUMPDEST POP CALLVALUE PUSH2 0x1E7 JUMPI PUSH1 0x20 CALLDATASIZE PUSH1 0x3 NOT ADD SLT PUSH2 0x1E7 JUMPI PUSH1 0x20 SWAP1 PUSH1 0x40 SWAP1 PUSH1 0x1 PUSH1 0x1 PUSH1 0xA0 SHL SUB PUSH2 0x22F PUSH2 0x28EF JUMP JUMPDEST AND DUP2 MSTORE PUSH2 0x1049 DUP4 MSTORE KECCAK256 SLOAD PUSH1 0x40 MLOAD SWAP1 DUP2 MSTORE RETURN JUMPDEST POP CALLVALUE PUSH2 0x1E7 JUMPI PUSH2 0x250 CALLDATASIZE PUSH2 0x27FE JUMP JUMPDEST SWAP1 SWAP2 PUSH2 0x25D DUP3 DUP3 EQ PUSH2 0x2C10 JUMP JUMPDEST DUP5 JUMPDEST DUP2 DUP2 LT PUSH2 0x26A JUMPI DUP6 DUP1 RETURN JUMPDEST PUSH2 0x294 PUSH2 0x280 PUSH2 0x27B DUP4 DUP6 DUP10 PUSH2 0x2BF2 JUMP JUMPDEST PUSH2 0x2C02 JUMP JUMPDEST PUSH2 0x28E PUSH2 0x27B DUP5 DUP8 DUP10 PUSH2 0x2BF2 JUMP JUMPDEST SWAP1 PUSH2 0x3372 JUMP JUMPDEST PUSH2 0xA31 JUMPI PUSH1 0xFF PUSH2 0x2A8 PUSH2 0x27B DUP4 DUP6 DUP10 PUSH2 0x2BF2 JUMP JUMPDEST AND DUP7 MSTORE PUSH1 0x8 PUSH1 0x20 MSTORE PUSH1 0x40 DUP7 KECCAK256 PUSH1 0xFF PUSH2 0x2C4 PUSH2 0x27B DUP5 DUP8 DUP10 PUSH2 0x2BF2 JUMP JUMPDEST AND PUSH1 0x0 MSTORE PUSH1 0x20 MSTORE PUSH1 0x1 DUP1 PUSH1 0xA0 SHL SUB PUSH1 0x40 PUSH1 0x0 KECCAK256 SLOAD AND ISZERO PUSH1 0x0 EQ PUSH2 0x3AB JUMPI PUSH1 0xFF PUSH2 0x2F1 PUSH2 0x27B DUP4 DUP6 DUP10 PUSH2 0x2BF2 JUMP JUMPDEST AND DUP7 MSTORE PUSH1 0x8 PUSH1 0x20 MSTORE PUSH1 0x40 DUP7 KECCAK256 PUSH1 0xFF PUSH2 0x30D PUSH2 0x27B DUP5 DUP8 DUP10 PUSH2 0x2BF2 JUMP JUMPDEST AND PUSH1 0x0 MSTORE PUSH1 0x20 MSTORE PUSH1 0x40 PUSH1 0x0 KECCAK256 CALLER PUSH1 0x1 PUSH1 0x1 PUSH1 0x60 SHL SUB PUSH1 0xA0 SHL DUP3 SLOAD AND OR SWAP1 SSTORE CALLER DUP7 MSTORE PUSH2 0x1049 PUSH1 0x20 MSTORE PUSH1 0x40 DUP7 KECCAK256 DUP1 SLOAD SWAP1 PUSH1 0x1 DUP3 ADD DUP1 SWAP3 GT PUSH2 0x397 JUMPI SSTORE PUSH1 0x1 SWAP1 JUMPDEST PUSH2 0x359 PUSH2 0x27B DUP3 DUP6 DUP10 PUSH2 0x2BF2 JUMP JUMPDEST PUSH1 0xFF DUP1 PUSH2 0x36A PUSH2 0x27B DUP6 DUP10 DUP12 PUSH2 0x2BF2 JUMP JUMPDEST AND SWAP2 AND PUSH32 0xEE0E9A85D097F632450E6AC08750207C8F039246EE437B10EAF708B397D00AD8 DUP10 DUP1 LOG3 ADD PUSH2 0x25F JUMP JUMPDEST PUSH4 0x4E487B71 PUSH1 0xE0 SHL DUP9 MSTORE PUSH1 0x11 PUSH1 0x4 MSTORE PUSH1 0x24 DUP9 REVERT JUMPDEST PUSH2 0x3D0 PUSH2 0x3BC PUSH2 0x27B DUP4 DUP6 DUP10 PUSH2 0x2BF2 JUMP JUMPDEST PUSH2 0x3CA PUSH2 0x27B DUP5 DUP8 DUP10 PUSH2 0x2BF2 JUMP JUMPDEST SWAP1 PUSH2 0x33A4 JUMP JUMPDEST PUSH1 0xFF PUSH2 0x3E0 PUSH2 0x27B DUP5 DUP7 DUP11 PUSH2 0x2BF2 JUMP JUMPDEST AND DUP8 MSTORE PUSH1 0x8 PUSH1 0x20 MSTORE PUSH1 0x40 DUP8 KECCAK256 PUSH1 0xFF PUSH2 0x3FC PUSH2 0x27B DUP6 DUP9 DUP11 PUSH2 0x2BF2 JUMP JUMPDEST AND PUSH1 0x0 MSTORE PUSH1 0x20 MSTORE DUP1 PUSH1 0x1 PUSH1 0x40 PUSH1 0x0 KECCAK256 ADD SLOAD GT PUSH1 0x0 EQ PUSH2 0x84A JUMPI PUSH1 0xFF PUSH2 0x425 PUSH2 0x27B DUP5 DUP7 DUP11 PUSH2 0x2BF2 JUMP JUMPDEST AND DUP8 MSTORE PUSH1 0x8 PUSH1 0x20 MSTORE PUSH1 0x40 DUP8 KECCAK256 PUSH1 0xFF PUSH2 0x441 PUSH2 0x27B DUP6 DUP9 DUP11 PUSH2 0x2BF2 JUMP JUMPDEST AND PUSH1 0x0 MSTORE PUSH1 0x20 MSTORE PUSH2 0x45A DUP2 PUSH1 0x1 PUSH1 0x40 PUSH1 0x0 KECCAK256 ADD SLOAD PUSH2 0x31ED JUMP JUMPDEST PUSH1 0x4 DUP1 SLOAD PUSH1 0x40 MLOAD PUSH4 0x70A08231 PUSH1 0xE0 SHL DUP2 MSTORE CALLER SWAP3 DUP2 ADD SWAP3 SWAP1 SWAP3 MSTORE PUSH1 0x1 PUSH1 0x1 PUSH1 0xA0 SHL SUB AND SWAP3 SWAP2 SWAP1 PUSH1 0x20 DUP2 PUSH1 0x24 DUP2 DUP8 GAS STATICCALL DUP11 DUP2 ISZERO PUSH2 0x7FE JUMPI DUP9 DUP2 DUP10 DUP14 DUP11 SWAP7 DUP15 SWAP6 SWAP7 PUSH2 0x80A JUMPI JUMPDEST POP SWAP6 PUSH1 0xFF SWAP4 PUSH1 0x40 PUSH2 0x4CC SWAP5 DUP7 PUSH2 0x4BD PUSH2 0x27B DUP7 PUSH2 0x27B SWAP9 PUSH2 0x4E2 SWAP15 PUSH2 0x2BF2 JUMP JUMPDEST AND DUP2 MSTORE PUSH1 0x8 PUSH1 0x20 MSTORE KECCAK256 SWAP6 PUSH2 0x2BF2 JUMP JUMPDEST AND PUSH1 0x0 MSTORE PUSH1 0x20 MSTORE PUSH1 0x1 PUSH1 0x40 PUSH1 0x0 KECCAK256 ADD SLOAD LT PUSH2 0x313D JUMP JUMPDEST PUSH1 0x40 MLOAD PUSH4 0x6EB1769F PUSH1 0xE1 SHL DUP2 MSTORE CALLER PUSH1 0x4 DUP3 ADD MSTORE ADDRESS PUSH1 0x24 DUP3 ADD MSTORE SWAP3 PUSH1 0x20 DUP5 PUSH1 0x44 DUP2 DUP5 GAS STATICCALL DUP11 DUP2 ISZERO PUSH2 0x7FE JUMPI DUP9 DUP2 DUP10 DUP14 DUP14 SWAP6 DUP12 SWAP6 SWAP1 PUSH2 0x7AF JUMPI JUMPDEST PUSH2 0x5D1 SWAP11 POP SWAP4 PUSH1 0x40 DUP5 PUSH1 0xFF PUSH2 0x577 PUSH2 0x27B DUP11 DUP9 PUSH1 0x20 SWAP16 SWAP15 SWAP14 SWAP13 SWAP9 PUSH2 0x572 DUP7 SWAP14 DUP16 DUP9 PUSH2 0x585 SWAP16 PUSH2 0x27B SWAP16 DUP9 DUP16 DUP16 PUSH2 0x55C SWAP5 DUP7 PUSH2 0x4BD PUSH2 0x27B DUP7 PUSH2 0x27B SWAP9 DUP16 PUSH2 0x2BF2 JUMP JUMPDEST AND PUSH1 0x0 MSTORE PUSH1 0x20 MSTORE PUSH1 0x1 DUP11 PUSH1 0x0 KECCAK256 ADD SLOAD GT ISZERO PUSH2 0x3195 JUMP JUMPDEST PUSH2 0x2BF2 JUMP JUMPDEST AND DUP2 MSTORE PUSH1 0x8 DUP12 MSTORE KECCAK256 SWAP6 PUSH2 0x2BF2 JUMP JUMPDEST AND PUSH1 0x0 SWAP1 DUP2 MSTORE SWAP1 DUP5 MSTORE PUSH1 0x40 SWAP1 DUP2 SWAP1 KECCAK256 SLOAD SWAP1 MLOAD PUSH4 0x23B872DD PUSH1 0xE0 SHL DUP2 MSTORE CALLER PUSH1 0x4 DUP3 ADD MSTORE PUSH1 0x1 PUSH1 0x1 PUSH1 0xA0 SHL SUB SWAP1 SWAP2 AND PUSH1 0x24 DUP3 ADD MSTORE PUSH1 0x44 DUP2 ADD SWAP3 SWAP1 SWAP3 MSTORE SWAP1 SWAP4 DUP5 SWAP2 SWAP1 DUP3 SWAP1 DUP13 SWAP1 DUP3 SWAP1 PUSH1 0x64 DUP3 ADD SWAP1 JUMP JUMPDEST SUB SWAP3 GAS CALL SWAP1 DUP2 ISZERO PUSH2 0x7A4 JUMPI PUSH2 0x632 SWAP3 PUSH1 0x20 SWAP3 PUSH2 0x787 JUMPI JUMPDEST POP PUSH1 0x4 DUP1 SLOAD PUSH1 0x2 SLOAD PUSH1 0x40 MLOAD PUSH4 0x23B872DD PUSH1 0xE0 SHL DUP2 MSTORE CALLER SWAP4 DUP2 ADD SWAP4 SWAP1 SWAP4 MSTORE PUSH1 0x1 PUSH1 0x1 PUSH1 0xA0 SHL SUB SWAP1 DUP2 AND PUSH1 0x24 DUP5 ADD MSTORE PUSH1 0x44 DUP4 ADD SWAP4 SWAP1 SWAP4 MSTORE SWAP1 SWAP4 DUP5 SWAP3 SWAP1 SWAP2 AND SWAP1 DUP3 SWAP1 DUP12 SWAP1 DUP3 SWAP1 PUSH1 0x64 DUP3 ADD SWAP1 JUMP JUMPDEST SUB SWAP3 GAS CALL DUP1 ISZERO PUSH2 0x77C JUMPI PUSH2 0x74D JUMPI JUMPDEST POP PUSH1 0xFF PUSH2 0x652 PUSH2 0x27B DUP4 DUP6 DUP10 PUSH2 0x2BF2 JUMP JUMPDEST AND DUP7 MSTORE PUSH1 0x8 PUSH1 0x20 MSTORE PUSH1 0x40 DUP7 KECCAK256 PUSH1 0xFF PUSH2 0x66E PUSH2 0x27B DUP5 DUP8 DUP10 PUSH2 0x2BF2 JUMP JUMPDEST AND PUSH1 0x0 MSTORE PUSH1 0x20 MSTORE PUSH1 0x1 DUP1 PUSH1 0xA0 SHL SUB PUSH1 0x40 PUSH1 0x0 KECCAK256 SLOAD AND DUP7 MSTORE PUSH2 0x1049 PUSH1 0x20 MSTORE PUSH1 0x40 DUP7 KECCAK256 DUP1 SLOAD DUP1 PUSH1 0x0 NOT DUP2 ADD GT PUSH2 0x397 JUMPI PUSH1 0x0 NOT ADD SWAP1 SSTORE CALLER DUP7 MSTORE PUSH2 0x1049 PUSH1 0x20 MSTORE PUSH1 0x40 DUP7 KECCAK256 DUP1 SLOAD SWAP1 PUSH1 0x1 DUP3 ADD DUP1 SWAP3 GT PUSH2 0x397 JUMPI SSTORE PUSH1 0x1 SWAP1 PUSH1 0xFF PUSH2 0x6D1 PUSH2 0x27B DUP4 DUP7 DUP11 PUSH2 0x2BF2 JUMP JUMPDEST AND DUP8 MSTORE PUSH1 0x8 PUSH1 0x20 MSTORE PUSH1 0x40 DUP8 KECCAK256 PUSH1 0xFF PUSH2 0x6ED PUSH2 0x27B DUP5 DUP9 DUP11 PUSH2 0x2BF2 JUMP JUMPDEST AND PUSH1 0x0 MSTORE PUSH1 0x20 MSTORE PUSH1 0x40 PUSH1 0x0 KECCAK256 CALLER PUSH1 0x1 PUSH1 0x1 PUSH1 0x60 SHL SUB PUSH1 0xA0 SHL DUP3 SLOAD AND OR SWAP1 SSTORE PUSH1 0xFF PUSH2 0x71B PUSH2 0x27B DUP4 DUP7 DUP11 PUSH2 0x2BF2 JUMP JUMPDEST AND DUP8 MSTORE PUSH1 0x8 PUSH1 0x20 MSTORE PUSH1 0x40 DUP8 KECCAK256 PUSH1 0xFF PUSH2 0x737 PUSH2 0x27B DUP5 DUP9 DUP11 PUSH2 0x2BF2 JUMP JUMPDEST AND PUSH1 0x0 MSTORE PUSH1 0x20 MSTORE TIMESTAMP PUSH1 0x2 PUSH1 0x40 PUSH1 0x0 KECCAK256 ADD SSTORE PUSH2 0x34B JUMP JUMPDEST PUSH2 0x76E SWAP1 PUSH1 0x20 RETURNDATASIZE PUSH1 0x20 GT PUSH2 0x775 JUMPI JUMPDEST PUSH2 0x766 DUP2 DUP4 PUSH2 0x29AB JUMP JUMPDEST DUP2 ADD SWAP1 PUSH2 0x2C70 JUMP JUMPDEST POP CODESIZE PUSH2 0x641 JUMP JUMPDEST POP RETURNDATASIZE PUSH2 0x75C JUMP JUMPDEST PUSH1 0x40 MLOAD RETURNDATASIZE DUP10 DUP3 RETURNDATACOPY RETURNDATASIZE SWAP1 REVERT JUMPDEST PUSH2 0x79D SWAP1 DUP4 RETURNDATASIZE DUP6 GT PUSH2 0x775 JUMPI PUSH2 0x766 DUP2 DUP4 PUSH2 0x29AB JUMP JUMPDEST POP CODESIZE PUSH2 0x5E8 JUMP JUMPDEST PUSH1 0x40 MLOAD RETURNDATASIZE DUP11 DUP3 RETURNDATACOPY RETURNDATASIZE SWAP1 REVERT JUMPDEST POP POP POP POP POP POP POP SWAP3 SWAP1 PUSH1 0x20 DUP3 RETURNDATASIZE PUSH1 0x20 GT PUSH2 0x7F6 JUMPI JUMPDEST DUP2 PUSH2 0x7D1 PUSH1 0x20 SWAP4 DUP4 PUSH2 0x29AB JUMP JUMPDEST DUP2 ADD SUB SLT PUSH2 0x7F1 JUMPI SWAP1 MLOAD PUSH2 0x5D1 SWAP4 SWAP1 DUP9 SWAP1 DUP7 SWAP1 DUP10 SWAP1 DUP14 SWAP1 DUP11 SWAP1 DUP15 SWAP1 PUSH2 0x51A JUMP JUMPDEST PUSH1 0x0 DUP1 REVERT JUMPDEST RETURNDATASIZE SWAP2 POP PUSH2 0x7C4 JUMP JUMPDEST PUSH1 0x40 MLOAD SWAP1 RETURNDATASIZE SWAP1 DUP3 RETURNDATACOPY RETURNDATASIZE SWAP1 REVERT JUMPDEST SWAP7 POP POP POP POP POP POP POP PUSH1 0x20 DUP2 RETURNDATASIZE PUSH1 0x20 GT PUSH2 0x842 JUMPI JUMPDEST DUP2 PUSH2 0x82B PUSH1 0x20 SWAP4 DUP4 PUSH2 0x29AB JUMP JUMPDEST DUP2 ADD SUB SLT PUSH2 0x7F1 JUMPI MLOAD DUP5 SWAP1 DUP9 DUP9 DUP13 DUP10 DUP14 PUSH1 0xFF PUSH2 0x49D JUMP JUMPDEST RETURNDATASIZE SWAP2 POP PUSH2 0x81E JUMP JUMPDEST POP PUSH1 0x4 DUP1 SLOAD PUSH1 0x40 MLOAD PUSH4 0x70A08231 PUSH1 0xE0 SHL DUP2 MSTORE CALLER SWAP3 DUP2 ADD SWAP3 SWAP1 SWAP3 MSTORE PUSH1 0x1 PUSH1 0x1 PUSH1 0xA0 SHL SUB AND SWAP1 PUSH1 0x20 DUP2 PUSH1 0x24 DUP2 DUP6 GAS STATICCALL DUP1 ISZERO PUSH2 0x7A4 JUMPI DUP9 SWAP1 PUSH2 0x9FD JUMPI JUMPDEST PUSH2 0x8B5 SWAP2 POP PUSH1 0xFF PUSH2 0x899 PUSH2 0x27B DUP7 DUP9 DUP13 PUSH2 0x2BF2 JUMP JUMPDEST AND DUP10 MSTORE PUSH1 0x8 PUSH1 0x20 MSTORE PUSH1 0x40 DUP10 KECCAK256 PUSH1 0xFF PUSH2 0x4CC PUSH2 0x27B DUP8 DUP11 DUP13 PUSH2 0x2BF2 JUMP JUMPDEST PUSH1 0x40 MLOAD PUSH4 0x6EB1769F PUSH1 0xE1 SHL DUP2 MSTORE CALLER PUSH1 0x4 DUP3 ADD MSTORE ADDRESS PUSH1 0x24 DUP3 ADD MSTORE PUSH1 0x20 DUP2 PUSH1 0x44 DUP2 DUP6 GAS STATICCALL SWAP1 DUP9 DUP3 ISZERO PUSH2 0x7FE JUMPI DUP7 DUP2 DUP8 DUP12 DUP12 SWAP6 DUP10 SWAP6 SWAP8 PUSH2 0x9BD JUMPI JUMPDEST POP PUSH2 0x27B DUP6 PUSH1 0x20 SWAP9 SWAP6 PUSH1 0x40 PUSH2 0x632 SWAP12 SWAP10 SWAP7 PUSH1 0xFF PUSH2 0x915 PUSH2 0x27B PUSH2 0x939 SWAP13 DUP4 SWAP11 PUSH2 0x923 SWAP11 PUSH2 0x2BF2 JUMP JUMPDEST AND DUP2 MSTORE PUSH1 0x8 DUP13 MSTORE KECCAK256 SWAP6 PUSH2 0x2BF2 JUMP JUMPDEST AND PUSH1 0x0 MSTORE DUP5 MSTORE PUSH1 0x1 PUSH1 0x40 PUSH1 0x0 KECCAK256 ADD SLOAD GT ISZERO PUSH2 0x3195 JUMP JUMPDEST PUSH1 0x2 SLOAD PUSH1 0x1 PUSH1 0x1 PUSH1 0xA0 SHL SUB AND SWAP1 PUSH1 0xFF PUSH2 0x956 PUSH2 0x27B DUP8 DUP10 DUP14 PUSH2 0x2BF2 JUMP JUMPDEST AND DUP11 MSTORE PUSH1 0x8 DUP4 MSTORE PUSH1 0x40 DUP11 KECCAK256 PUSH1 0xFF PUSH2 0x971 PUSH2 0x27B DUP9 DUP12 DUP14 PUSH2 0x2BF2 JUMP JUMPDEST AND PUSH1 0x0 SWAP1 DUP2 MSTORE SWAP1 DUP5 MSTORE PUSH1 0x40 SWAP1 DUP2 SWAP1 KECCAK256 PUSH1 0x1 ADD SLOAD SWAP1 MLOAD PUSH4 0x23B872DD PUSH1 0xE0 SHL DUP2 MSTORE CALLER PUSH1 0x4 DUP3 ADD MSTORE PUSH1 0x1 PUSH1 0x1 PUSH1 0xA0 SHL SUB SWAP1 SWAP4 AND PUSH1 0x24 DUP5 ADD MSTORE PUSH1 0x44 DUP4 ADD MSTORE SWAP1 SWAP3 DUP4 SWAP2 SWAP1 DUP3 SWAP1 DUP12 SWAP1 DUP3 SWAP1 PUSH1 0x64 DUP3 ADD SWAP1 JUMP JUMPDEST SWAP7 POP POP POP POP POP POP POP PUSH1 0x20 DUP2 RETURNDATASIZE PUSH1 0x20 GT PUSH2 0x9F5 JUMPI JUMPDEST DUP2 PUSH2 0x9DE PUSH1 0x20 SWAP4 DUP4 PUSH2 0x29AB JUMP JUMPDEST DUP2 ADD SUB SLT PUSH2 0x7F1 JUMPI MLOAD DUP6 DUP4 DUP7 DUP11 DUP8 DUP12 PUSH2 0x27B PUSH2 0x8ED JUMP JUMPDEST RETURNDATASIZE SWAP2 POP PUSH2 0x9D1 JUMP JUMPDEST POP PUSH1 0x20 DUP2 RETURNDATASIZE PUSH1 0x20 GT PUSH2 0xA29 JUMPI JUMPDEST DUP2 PUSH2 0xA17 PUSH1 0x20 SWAP4 DUP4 PUSH2 0x29AB JUMP JUMPDEST DUP2 ADD SUB SLT PUSH2 0x7F1 JUMPI PUSH2 0x8B5 SWAP1 MLOAD PUSH2 0x884 JUMP JUMPDEST RETURNDATASIZE SWAP2 POP PUSH2 0xA0A JUMP JUMPDEST PUSH1 0x40 MLOAD PUSH3 0x461BCD PUSH1 0xE5 SHL DUP2 MSTORE PUSH1 0x20 PUSH1 0x4 DUP3 ADD MSTORE PUSH1 0x16 PUSH1 0x24 DUP3 ADD MSTORE PUSH22 0x706978656C206973206F7574206F6620626F756E6473 PUSH1 0x50 SHL PUSH1 0x44 DUP3 ADD MSTORE PUSH1 0x64 SWAP1 REVERT JUMPDEST POP CALLVALUE PUSH2 0x1E7 JUMPI PUSH1 0x40 CALLDATASIZE PUSH1 0x3 NOT ADD SLT PUSH2 0x1E7 JUMPI PUSH2 0xAB1 PUSH2 0xA9D PUSH2 0xA8F PUSH2 0x27A0 JUMP JUMPDEST PUSH2 0xA97 PUSH2 0x27B0 JUMP JUMPDEST SWAP1 PUSH2 0x3292 JUMP JUMPDEST PUSH1 0x40 MLOAD SWAP2 DUP3 SWAP2 PUSH1 0x20 DUP4 MSTORE PUSH1 0x20 DUP4 ADD SWAP1 PUSH2 0x2890 JUMP JUMPDEST SUB SWAP1 RETURN JUMPDEST POP CALLVALUE PUSH2 0x1E7 JUMPI PUSH1 0x40 CALLDATASIZE PUSH1 0x3 NOT ADD SLT PUSH2 0x1E7 JUMPI PUSH1 0x40 PUSH2 0xAD1 PUSH2 0x2905 JUMP JUMPDEST SWAP2 PUSH1 0x4 CALLDATALOAD DUP2 MSTORE PUSH1 0x7 PUSH1 0x20 MSTORE KECCAK256 SWAP1 PUSH1 0x1 DUP1 PUSH1 0xA0 SHL SUB AND PUSH1 0x0 MSTORE PUSH1 0x20 MSTORE PUSH1 0x20 PUSH1 0xFF PUSH1 0x40 PUSH1 0x0 KECCAK256 SLOAD AND PUSH1 0x40 MLOAD SWAP1 ISZERO ISZERO DUP2 MSTORE RETURN JUMPDEST POP CALLVALUE PUSH2 0x1E7 JUMPI DUP1 PUSH1 0x3 NOT CALLDATASIZE ADD SLT PUSH2 0x1E7 JUMPI PUSH1 0x1 SLOAD PUSH1 0x40 MLOAD PUSH1 0x1 PUSH1 0x1 PUSH1 0xA0 SHL SUB SWAP1 SWAP2 AND DUP2 MSTORE PUSH1 0x20 SWAP1 RETURN JUMPDEST POP CALLVALUE PUSH2 0x1E7 JUMPI PUSH1 0x20 DUP1 PUSH1 0x3 NOT CALLDATASIZE ADD SLT PUSH2 0xCB6 JUMPI PUSH1 0x4 CALLDATALOAD PUSH2 0xB48 PUSH2 0x34D8 JUMP JUMPDEST DUP1 DUP4 MSTORE PUSH1 0x7 DUP3 MSTORE PUSH1 0x40 DUP4 KECCAK256 CALLER PUSH1 0x0 MSTORE DUP3 MSTORE PUSH1 0xFF PUSH1 0x40 PUSH1 0x0 KECCAK256 SLOAD AND PUSH2 0xC65 JUMPI DUP1 DUP4 MSTORE PUSH2 0x104C DUP3 MSTORE PUSH2 0xB93 PUSH1 0x1 PUSH1 0x40 DUP6 KECCAK256 ADD SLOAD PUSH1 0x6 DUP5 MSTORE PUSH1 0x40 DUP6 KECCAK256 CALLER PUSH1 0x0 MSTORE DUP5 MSTORE PUSH1 0x40 PUSH1 0x0 KECCAK256 SLOAD SWAP1 PUSH2 0x3391 JUMP JUMPDEST PUSH1 0xC SHR SWAP1 DUP2 ISZERO PUSH2 0xC20 JUMPI DUP4 DUP1 DUP1 SWAP4 DUP2 SWAP4 DUP3 MSTORE PUSH1 0x7 DUP7 MSTORE PUSH1 0x40 DUP3 KECCAK256 CALLER PUSH1 0x0 MSTORE DUP7 MSTORE PUSH1 0x40 PUSH1 0x0 KECCAK256 PUSH1 0x1 PUSH1 0xFF NOT DUP3 SLOAD AND OR SWAP1 SSTORE CALLER GAS CALL PUSH2 0xBCE PUSH2 0x34A8 JUMP JUMPDEST POP ISZERO PUSH2 0xBDC JUMPI POP PUSH1 0x1 DUP2 SSTORE DUP1 RETURN JUMPDEST PUSH1 0x64 SWAP1 PUSH1 0x40 MLOAD SWAP1 PUSH3 0x461BCD PUSH1 0xE5 SHL DUP3 MSTORE PUSH1 0x4 DUP3 ADD MSTORE PUSH1 0x17 PUSH1 0x24 DUP3 ADD MSTORE PUSH32 0x4661696C656420746F2073656E642070726F6365656473000000000000000000 PUSH1 0x44 DUP3 ADD MSTORE REVERT JUMPDEST PUSH1 0x40 MLOAD PUSH3 0x461BCD PUSH1 0xE5 SHL DUP2 MSTORE PUSH1 0x4 DUP2 ADD DUP5 SWAP1 MSTORE PUSH1 0x17 PUSH1 0x24 DUP3 ADD MSTORE PUSH32 0x4E6F2070726F636565647320746F207769746864726177000000000000000000 PUSH1 0x44 DUP3 ADD MSTORE PUSH1 0x64 SWAP1 REVERT JUMPDEST PUSH1 0x40 MLOAD PUSH3 0x461BCD PUSH1 0xE5 SHL DUP2 MSTORE PUSH1 0x4 DUP2 ADD DUP4 SWAP1 MSTORE PUSH1 0x24 DUP1 DUP3 ADD MSTORE PUSH32 0x616C726561647920636C61696D65642070726F636565647320666F7220746869 PUSH1 0x44 DUP3 ADD MSTORE PUSH4 0x1CC81251 PUSH1 0xE2 SHL PUSH1 0x64 DUP3 ADD MSTORE PUSH1 0x84 SWAP1 REVERT JUMPDEST POP DUP1 REVERT JUMPDEST POP CALLVALUE PUSH2 0x1E7 JUMPI DUP1 PUSH1 0x3 NOT CALLDATASIZE ADD SLT PUSH2 0x1E7 JUMPI PUSH1 0x20 PUSH1 0xFF PUSH1 0x2 SLOAD PUSH1 0xA0 SHR AND PUSH1 0x40 MLOAD SWAP1 DUP2 MSTORE RETURN JUMPDEST POP CALLVALUE PUSH2 0x1E7 JUMPI PUSH1 0x20 CALLDATASIZE PUSH1 0x3 NOT ADD SLT PUSH2 0x1E7 JUMPI PUSH1 0x40 PUSH1 0x20 SWAP2 PUSH1 0x4 CALLDATALOAD DUP2 MSTORE PUSH2 0x104B DUP4 MSTORE KECCAK256 SLOAD PUSH1 0x40 MLOAD SWAP1 DUP2 MSTORE RETURN JUMPDEST POP CALLVALUE PUSH2 0x1E7 JUMPI DUP1 PUSH1 0x3 NOT CALLDATASIZE ADD SLT PUSH2 0x1E7 JUMPI PUSH1 0x20 PUSH3 0x54600 PUSH2 0xD2C PUSH1 0x3 SLOAD TIMESTAMP PUSH2 0x31ED JUMP JUMPDEST DIV PUSH1 0x40 MLOAD SWAP1 DUP2 MSTORE RETURN JUMPDEST POP CALLVALUE PUSH2 0x1E7 JUMPI DUP1 PUSH1 0x3 NOT CALLDATASIZE ADD SLT PUSH2 0x1E7 JUMPI PUSH1 0x20 PUSH3 0x3F480 PUSH3 0x54600 PUSH2 0xD5C PUSH1 0x3 SLOAD TIMESTAMP PUSH2 0x31ED JUMP JUMPDEST MOD LT ISZERO PUSH1 0x40 MLOAD SWAP1 DUP2 MSTORE RETURN JUMPDEST POP CALLVALUE PUSH2 0x1E7 JUMPI PUSH1 0x40 CALLDATASIZE PUSH1 0x3 NOT ADD SLT PUSH2 0x1E7 JUMPI PUSH1 0xFF PUSH1 0x40 PUSH2 0xD85 PUSH2 0x27A0 JUMP JUMPDEST SWAP3 DUP3 PUSH2 0xD8F PUSH2 0x27B0 JUMP JUMPDEST SWAP5 AND DUP2 MSTORE PUSH1 0x8 PUSH1 0x20 MSTORE KECCAK256 SWAP2 AND PUSH1 0x0 MSTORE PUSH1 0x20 MSTORE PUSH1 0xFF PUSH1 0x40 PUSH1 0x0 KECCAK256 PUSH2 0xAB1 DUP2 SLOAD SWAP2 PUSH1 0x1 DUP2 ADD SLOAD SWAP1 PUSH1 0x2 DUP2 ADD SLOAD PUSH2 0xDCA PUSH1 0x4 PUSH1 0x3 DUP5 ADD SLOAD SWAP4 ADD PUSH2 0x29CC JUMP JUMPDEST SWAP3 PUSH1 0x40 MLOAD SWAP7 DUP8 SWAP7 PUSH1 0x1 DUP1 PUSH1 0xA0 SHL SUB DUP2 AND DUP9 MSTORE DUP2 DUP2 PUSH1 0xA0 SHR AND PUSH1 0x20 DUP10 ADD MSTORE PUSH1 0xA8 SHR AND ISZERO ISZERO PUSH1 0x40 DUP8 ADD MSTORE PUSH1 0x60 DUP7 ADD MSTORE PUSH1 0x80 DUP6 ADD MSTORE PUSH1 0xA0 DUP5 ADD MSTORE PUSH1 0xE0 PUSH1 0xC0 DUP5 ADD MSTORE PUSH1 0xE0 DUP4 ADD SWAP1 PUSH2 0x286B JUMP JUMPDEST POP CALLVALUE PUSH2 0x1E7 JUMPI DUP1 PUSH1 0x3 NOT CALLDATASIZE ADD SLT PUSH2 0x1E7 JUMPI PUSH1 0x40 MLOAD SWAP1 PUSH1 0x80 DUP3 ADD DUP3 DUP2 LT PUSH1 0x1 PUSH1 0x1 PUSH1 0x40 SHL SUB DUP3 GT OR PUSH2 0xF7C JUMPI PUSH1 0x40 MSTORE PUSH1 0x57 DUP3 MSTORE PUSH1 0x20 SWAP2 PUSH32 0x3C7376672077696474683D2236303022206865696768743D2236303022207669 DUP4 DUP3 ADD MSTORE PUSH32 0x6577426F783D2230203020363030203630302220786D6C6E733D22687474703A PUSH1 0x40 DUP3 ADD MSTORE PUSH32 0x2F2F7777772E77332E6F72672F323030302F737667223E000000000000000000 PUSH1 0x60 DUP3 ADD MSTORE SWAP2 DUP2 SWAP3 JUMPDEST PUSH1 0xFF SWAP1 PUSH1 0x40 DUP3 DUP7 AND LT ISZERO PUSH2 0xF2D JUMPI PUSH1 0x40 DUP6 LT ISZERO PUSH2 0xF19 JUMPI DUP3 PUSH2 0xF10 PUSH1 0x1 SWAP3 PUSH2 0xF02 PUSH1 0x40 MLOAD SWAP4 DUP3 PUSH2 0xEF5 DUP7 SWAP5 MLOAD DUP1 SWAP3 DUP5 DUP1 DUP9 ADD SWAP2 ADD PUSH2 0x2848 JUMP JUMPDEST DUP4 ADD ADD DUP10 PUSH2 0x1009 ADD PUSH2 0x3C5C JUMP JUMPDEST SUB PUSH1 0x1F NOT DUP2 ADD DUP4 MSTORE DUP3 PUSH2 0x29AB JUMP JUMPDEST SWAP5 ADD AND SWAP3 PUSH2 0xEBC JUMP JUMPDEST PUSH4 0x4E487B71 PUSH1 0xE0 SHL DUP5 MSTORE PUSH1 0x32 PUSH1 0x4 MSTORE PUSH1 0x24 DUP5 REVERT JUMPDEST DUP3 PUSH2 0xF68 PUSH1 0x26 PUSH1 0x40 MLOAD DUP5 PUSH2 0xF4A DUP3 SWAP7 MLOAD DUP1 SWAP3 DUP8 DUP1 DUP7 ADD SWAP2 ADD PUSH2 0x2848 JUMP JUMPDEST DUP2 ADD PUSH6 0x1E17B9BB339F PUSH1 0xD1 SHL DUP6 DUP3 ADD MSTORE SUB PUSH1 0x6 DUP2 ADD DUP6 MSTORE ADD DUP4 PUSH2 0x29AB JUMP JUMPDEST PUSH2 0xAB1 PUSH1 0x40 MLOAD SWAP3 DUP3 DUP5 SWAP4 DUP5 MSTORE DUP4 ADD SWAP1 PUSH2 0x286B JUMP JUMPDEST PUSH4 0x4E487B71 PUSH1 0xE0 SHL PUSH1 0x0 MSTORE PUSH1 0x41 PUSH1 0x4 MSTORE PUSH1 0x24 PUSH1 0x0 REVERT JUMPDEST POP CALLVALUE PUSH2 0x1E7 JUMPI PUSH1 0x20 CALLDATASIZE PUSH1 0x3 NOT ADD SLT PUSH2 0x1E7 JUMPI PUSH2 0xFAC PUSH2 0x28EF JUMP JUMPDEST PUSH1 0x2 SLOAD PUSH1 0x1 PUSH1 0x1 PUSH1 0xA0 SHL SUB SWAP2 SWAP1 PUSH2 0xFC6 SWAP1 DUP4 AND CALLER EQ PUSH2 0x31FA JUMP JUMPDEST AND PUSH1 0x1 PUSH1 0x1 PUSH1 0x60 SHL SUB PUSH1 0xA0 SHL PUSH1 0x1 SLOAD AND OR PUSH1 0x1 SSTORE DUP1 RETURN JUMPDEST POP CALLVALUE PUSH2 0x1E7 JUMPI DUP1 PUSH1 0x3 NOT CALLDATASIZE ADD SLT PUSH2 0x1E7 JUMPI PUSH1 0x40 MLOAD SWAP1 PUSH3 0x20020 DUP3 ADD DUP3 DUP2 LT PUSH1 0x1 PUSH1 0x1 PUSH1 0x40 SHL SUB DUP3 GT OR PUSH2 0xF7C JUMPI PUSH1 0x40 MSTORE PUSH2 0x1000 DUP3 MSTORE PUSH1 0x20 SWAP2 DUP3 DUP1 DUP3 ADD SWAP2 PUSH3 0x20000 CALLDATASIZE DUP5 CALLDATACOPY DUP4 JUMPDEST PUSH1 0x40 DUP2 LT PUSH2 0x10D0 JUMPI POP PUSH1 0x1 DUP1 PUSH1 0xA0 SHL SUB PUSH1 0x5 SLOAD AND PUSH1 0x40 MLOAD SWAP4 DUP5 SWAP3 PUSH4 0x17046B01 PUSH1 0xE1 SHL DUP5 MSTORE PUSH1 0x24 DUP5 ADD SWAP1 DUP6 PUSH1 0x4 DUP7 ADD MSTORE MLOAD DUP1 SWAP2 MSTORE PUSH1 0x44 DUP5 ADD SWAP2 SWAP1 DUP8 JUMPDEST DUP2 DUP2 LT PUSH2 0x10B7 JUMPI POP POP POP DUP3 DUP1 SWAP2 SUB SWAP2 GAS STATICCALL SWAP2 DUP3 ISZERO PUSH2 0x7FE JUMPI DUP1 SWAP3 PUSH2 0x1087 JUMPI JUMPDEST POP POP PUSH1 0x40 MLOAD SWAP1 DUP2 MSTORE RETURN JUMPDEST SWAP1 SWAP2 POP DUP3 DUP3 DUP2 RETURNDATASIZE DUP4 GT PUSH2 0x10B0 JUMPI JUMPDEST PUSH2 0x109F DUP2 DUP4 PUSH2 0x29AB JUMP JUMPDEST DUP2 ADD SUB SLT PUSH2 0x1E7 JUMPI POP MLOAD CODESIZE DUP1 PUSH2 0x107D JUMP JUMPDEST POP RETURNDATASIZE PUSH2 0x1095 JUMP JUMPDEST DUP3 MLOAD DUP5 MSTORE DUP10 SWAP7 DUP9 SWAP7 POP SWAP4 DUP5 ADD SWAP4 SWAP1 SWAP3 ADD SWAP2 PUSH1 0x1 ADD PUSH2 0x105E JUMP JUMPDEST SWAP1 SWAP3 SWAP2 POP DUP4 JUMPDEST PUSH1 0x40 DUP2 LT PUSH2 0x10EB JUMPI POP PUSH1 0x1 ADD SWAP2 DUP5 SWAP2 SWAP3 PUSH2 0x1023 JUMP JUMPDEST PUSH1 0x1 PUSH1 0x1 PUSH1 0xFA SHL SUB DUP3 AND DUP3 SUB PUSH2 0x1146 JUMPI PUSH1 0x1 SWAP1 PUSH2 0x110B DUP4 PUSH1 0x6 SHL DUP3 PUSH2 0x291B JUMP JUMPDEST PUSH1 0xFF DUP1 DUP4 AND DUP9 MSTORE PUSH1 0x8 DUP10 MSTORE PUSH1 0x40 DUP9 KECCAK256 SWAP1 DUP6 AND PUSH1 0x0 MSTORE DUP9 MSTORE PUSH2 0x113F PUSH1 0x1 PUSH1 0x1 PUSH1 0x60 SHL SUB NOT PUSH1 0x40 PUSH1 0x0 KECCAK256 SLOAD PUSH1 0x60 SHL AND SWAP2 DUP8 PUSH2 0x2BC8 JUMP JUMPDEST MSTORE ADD PUSH2 0x10D6 JUMP JUMPDEST PUSH4 0x4E487B71 PUSH1 0xE0 SHL DUP6 MSTORE PUSH1 0x11 PUSH1 0x4 MSTORE PUSH1 0x24 DUP6 REVERT JUMPDEST POP CALLVALUE PUSH2 0x1E7 JUMPI DUP1 PUSH1 0x3 NOT CALLDATASIZE ADD SLT PUSH2 0x1E7 JUMPI PUSH1 0x20 PUSH1 0x40 MLOAD PUSH2 0xFD20 DUP2 MSTORE RETURN JUMPDEST POP PUSH1 0x20 DUP1 PUSH1 0x3 NOT CALLDATASIZE ADD SLT PUSH2 0xCB6 JUMPI PUSH1 0x4 CALLDATALOAD SWAP1 PUSH2 0x1191 PUSH2 0x34D8 JUMP JUMPDEST DUP2 DUP4 MSTORE PUSH2 0x104C SWAP1 DUP2 DUP2 MSTORE PUSH2 0x11AF PUSH1 0xFF PUSH1 0x4 PUSH1 0x40 DUP8 KECCAK256 ADD SLOAD AND ISZERO PUSH2 0x3410 JUMP JUMPDEST DUP3 DUP5 MSTORE DUP2 DUP2 MSTORE PUSH2 0x11C7 PUSH1 0x2 PUSH1 0x40 DUP7 KECCAK256 ADD SLOAD TIMESTAMP GT PUSH2 0x345C JUMP JUMPDEST DUP3 DUP5 MSTORE DUP2 DUP2 MSTORE TIMESTAMP PUSH1 0x3 PUSH1 0x40 DUP7 KECCAK256 ADD SLOAD GT ISZERO PUSH2 0x12FF JUMPI DUP3 DUP5 MSTORE DUP2 DUP2 MSTORE PUSH1 0x1 PUSH1 0x40 DUP6 KECCAK256 ADD SLOAD CALLVALUE GT ISZERO PUSH2 0x12BB JUMPI DUP3 DUP5 MSTORE DUP2 DUP2 MSTORE DUP4 DUP1 DUP1 DUP1 PUSH1 0x40 DUP2 KECCAK256 PUSH1 0x1 DUP1 DUP1 PUSH1 0xA0 SHL SUB DUP3 SLOAD AND SWAP2 ADD SLOAD SWAP1 GAS CALL PUSH2 0x1218 PUSH2 0x34A8 JUMP JUMPDEST POP ISZERO PUSH2 0x1280 JUMPI DUP3 DUP5 MSTORE MSTORE PUSH1 0x40 DUP1 DUP4 KECCAK256 CALLVALUE PUSH1 0x1 DUP3 ADD DUP2 SWAP1 SSTORE DUP2 SLOAD PUSH1 0x1 PUSH1 0x1 PUSH1 0xA0 SHL SUB NOT AND CALLER SWAP1 DUP2 OR SWAP1 SWAP3 SSTORE DUP3 MLOAD SWAP4 DUP5 MSTORE PUSH1 0x20 DUP5 ADD SWAP2 SWAP1 SWAP2 MSTORE SWAP1 DUP3 ADD MSTORE PUSH32 0x8108A40C809D4E4F749358511F7BAA90A1259A19024E438F728276CCD4C93686 SWAP1 PUSH1 0x60 SWAP1 LOG1 PUSH1 0x1 DUP2 SSTORE DUP1 RETURN JUMPDEST PUSH1 0x64 SWAP1 PUSH1 0x40 MLOAD SWAP1 PUSH3 0x461BCD PUSH1 0xE5 SHL DUP3 MSTORE PUSH1 0x4 DUP3 ADD MSTORE PUSH1 0x14 PUSH1 0x24 DUP3 ADD MSTORE PUSH20 0x2330B4B632B2103A379039B2B7321022BA3432B9 PUSH1 0x61 SHL PUSH1 0x44 DUP3 ADD MSTORE REVERT JUMPDEST PUSH1 0x64 SWAP1 PUSH1 0x40 MLOAD SWAP1 PUSH3 0x461BCD PUSH1 0xE5 SHL DUP3 MSTORE PUSH1 0x4 DUP3 ADD MSTORE PUSH1 0x1B PUSH1 0x24 DUP3 ADD MSTORE PUSH32 0x6869676865722062696420616C7265616479206578697374696E670000000000 PUSH1 0x44 DUP3 ADD MSTORE REVERT JUMPDEST PUSH1 0x64 SWAP1 PUSH1 0x40 MLOAD SWAP1 PUSH3 0x461BCD PUSH1 0xE5 SHL DUP3 MSTORE PUSH1 0x4 DUP3 ADD MSTORE PUSH1 0x19 PUSH1 0x24 DUP3 ADD MSTORE PUSH32 0x61756374696F6E2068617320616C726561647920656E64656400000000000000 PUSH1 0x44 DUP3 ADD MSTORE REVERT JUMPDEST POP CALLVALUE PUSH2 0x1E7 JUMPI PUSH1 0x20 CALLDATASIZE PUSH1 0x3 NOT ADD SLT PUSH2 0x1E7 JUMPI PUSH1 0x40 PUSH1 0xA0 SWAP2 PUSH1 0x4 CALLDATALOAD DUP2 MSTORE PUSH2 0x104C PUSH1 0x20 MSTORE KECCAK256 PUSH1 0x1 DUP1 DUP4 SHL SUB DUP2 SLOAD AND SWAP1 PUSH1 0x1 DUP2 ADD SLOAD SWAP1 PUSH1 0x2 DUP2 ADD SLOAD PUSH1 0xFF PUSH1 0x4 PUSH1 0x3 DUP5 ADD SLOAD SWAP4 ADD SLOAD AND SWAP3 PUSH1 0x40 MLOAD SWAP5 DUP6 MSTORE PUSH1 0x20 DUP6 ADD MSTORE PUSH1 0x40 DUP5 ADD MSTORE PUSH1 0x60 DUP4 ADD MSTORE ISZERO ISZERO PUSH1 0x80 DUP3 ADD MSTORE RETURN JUMPDEST POP CALLVALUE PUSH2 0x1E7 JUMPI PUSH1 0x60 CALLDATASIZE PUSH1 0x3 NOT ADD SLT PUSH2 0x1E7 JUMPI PUSH1 0x1 PUSH1 0x1 PUSH1 0x40 SHL SUB SWAP1 PUSH1 0x4 CALLDATALOAD DUP3 DUP2 GT PUSH2 0xCB6 JUMPI PUSH2 0x13DA SWAP1 CALLDATASIZE SWAP1 PUSH1 0x4 ADD PUSH2 0x27CE JUMP JUMPDEST PUSH1 0x24 SWAP1 DUP2 CALLDATALOAD DUP6 DUP2 GT PUSH2 0x1635 JUMPI PUSH2 0x13F4 SWAP1 CALLDATASIZE SWAP1 PUSH1 0x4 ADD PUSH2 0x27CE JUMP JUMPDEST SWAP2 SWAP1 PUSH1 0x44 SWAP7 DUP8 CALLDATALOAD SWAP1 DUP2 GT PUSH2 0x1631 JUMPI PUSH2 0x1410 SWAP1 CALLDATASIZE SWAP1 PUSH1 0x4 ADD PUSH2 0x27CE JUMP JUMPDEST SWAP5 SWAP1 SWAP8 DUP5 DUP5 EQ DUP1 PUSH2 0x1628 JUMPI JUMPDEST ISZERO PUSH2 0x15D5 JUMPI DUP8 JUMPDEST DUP5 DUP2 LT PUSH2 0x14DC JUMPI POP POP POP PUSH2 0x1439 DUP4 DUP3 DUP5 DUP9 PUSH2 0x2C88 JUMP JUMPDEST DUP6 JUMPDEST DUP3 DUP2 LT PUSH2 0x1446 JUMPI DUP7 DUP1 RETURN JUMPDEST PUSH2 0x1451 DUP2 DUP7 DUP11 PUSH2 0x2BF2 JUMP JUMPDEST CALLDATALOAD SWAP1 PUSH1 0xFF DUP1 PUSH2 0x1464 PUSH2 0x27B DUP5 DUP9 DUP13 PUSH2 0x2BF2 JUMP JUMPDEST AND DUP10 MSTORE PUSH1 0x20 PUSH1 0x8 DUP2 MSTORE PUSH1 0x40 DUP11 KECCAK256 SWAP1 DUP3 PUSH2 0x1481 PUSH2 0x27B DUP7 DUP12 DUP11 PUSH2 0x2BF2 JUMP JUMPDEST AND PUSH1 0x0 MSTORE MSTORE PUSH1 0x1 SWAP3 DUP4 PUSH1 0x40 PUSH1 0x0 KECCAK256 ADD SSTORE PUSH2 0x149F PUSH2 0x27B DUP4 DUP8 DUP12 PUSH2 0x2BF2 JUMP JUMPDEST SWAP1 DUP1 PUSH2 0x14AF PUSH2 0x27B DUP6 DUP11 DUP10 PUSH2 0x2BF2 JUMP JUMPDEST AND SWAP2 AND PUSH32 0x1C362B7FC7C4865E1E7EDE89F240549BBD8B5EE43B51383C9C0392687D6D10EC DUP11 DUP1 LOG3 ADD PUSH2 0x143B JUMP JUMPDEST PUSH2 0x14FB PUSH2 0x14ED PUSH2 0x27B DUP4 DUP9 DUP13 PUSH2 0x2BF2 JUMP JUMPDEST PUSH2 0x28E PUSH2 0x27B DUP5 DUP11 DUP10 PUSH2 0x2BF2 JUMP JUMPDEST PUSH2 0x1592 JUMPI PUSH1 0xFF DUP1 PUSH2 0x1510 PUSH2 0x27B DUP5 DUP10 DUP14 PUSH2 0x2BF2 JUMP JUMPDEST AND DUP11 MSTORE PUSH1 0x20 SWAP1 PUSH1 0x8 DUP3 MSTORE PUSH1 0x40 DUP12 KECCAK256 SWAP1 PUSH2 0x152D PUSH2 0x27B DUP6 DUP12 DUP11 PUSH2 0x2BF2 JUMP JUMPDEST AND PUSH1 0x0 MSTORE DUP2 MSTORE CALLER PUSH1 0x1 DUP1 PUSH1 0xA0 SHL SUB PUSH1 0x40 PUSH1 0x0 KECCAK256 SLOAD AND SUB PUSH2 0x1550 JUMPI POP PUSH1 0x1 ADD PUSH2 0x1423 JUMP JUMPDEST PUSH1 0x64 SWAP1 PUSH32 0x6F6E6C79206F776E65722063616E2073657420706978656C2076616C75650000 DUP5 PUSH1 0x1E DUP8 PUSH1 0x40 MLOAD SWAP5 PUSH3 0x461BCD PUSH1 0xE5 SHL DUP7 MSTORE PUSH1 0x4 DUP7 ADD MSTORE DUP5 ADD MSTORE DUP3 ADD MSTORE REVERT JUMPDEST PUSH1 0x40 MLOAD PUSH3 0x461BCD PUSH1 0xE5 SHL DUP2 MSTORE PUSH1 0x20 PUSH1 0x4 DUP3 ADD MSTORE PUSH1 0x18 DUP2 DUP6 ADD MSTORE PUSH32 0x4120706978656C206973206F7574206F6620626F756E64730000000000000000 DUP2 DUP5 ADD MSTORE PUSH1 0x64 SWAP1 REVERT JUMPDEST SWAP1 PUSH32 0x696E70757420617272617973206D757374206265206F66207468652073616D65 PUSH1 0x84 SWAP3 PUSH1 0x27 PUSH1 0x40 MLOAD SWAP4 PUSH3 0x461BCD PUSH1 0xE5 SHL DUP6 MSTORE PUSH1 0x20 PUSH1 0x4 DUP7 ADD MSTORE DUP5 ADD MSTORE DUP3 ADD MSTORE PUSH7 0x40D8CADCCEE8D PUSH1 0xCB SHL PUSH1 0x64 DUP3 ADD MSTORE REVERT JUMPDEST POP DUP6 DUP5 EQ PUSH2 0x141C JUMP JUMPDEST DUP7 DUP1 REVERT JUMPDEST DUP5 DUP1 REVERT JUMPDEST POP CALLVALUE PUSH2 0x1E7 JUMPI PUSH1 0x20 DUP1 PUSH1 0x3 NOT CALLDATASIZE ADD SLT PUSH2 0xCB6 JUMPI PUSH1 0x4 CALLDATALOAD DUP1 ISZERO ISZERO DUP2 SUB PUSH2 0x1833 JUMPI PUSH1 0x3 SLOAD PUSH3 0x54600 SWAP1 PUSH3 0x3F480 DUP3 PUSH2 0x166F DUP4 TIMESTAMP PUSH2 0x31ED JUMP JUMPDEST MOD LT PUSH2 0x17EE JUMPI CALLER DUP6 MSTORE PUSH2 0x1049 DUP5 MSTORE PUSH1 0x40 DUP6 KECCAK256 SLOAD SWAP1 DUP2 ISZERO PUSH2 0x1799 JUMPI DUP3 PUSH2 0x1694 DUP3 TIMESTAMP PUSH2 0x31ED JUMP JUMPDEST DIV DUP7 MSTORE PUSH2 0x104A SWAP4 DUP5 DUP7 MSTORE PUSH1 0x2 PUSH1 0x40 DUP9 KECCAK256 ADD CALLER PUSH1 0x0 MSTORE DUP7 MSTORE PUSH1 0xFF PUSH1 0x40 PUSH1 0x0 KECCAK256 SLOAD AND PUSH2 0x1764 JUMPI DUP4 SWAP2 SWAP1 ISZERO PUSH2 0x173B JUMPI POP PUSH2 0x16CD PUSH1 0x3 SLOAD TIMESTAMP PUSH2 0x31ED JUMP JUMPDEST DIV DUP6 MSTORE DUP3 DUP5 MSTORE PUSH2 0x16E2 PUSH1 0x40 DUP7 KECCAK256 SWAP2 DUP3 SLOAD PUSH2 0x291B JUMP JUMPDEST SWAP1 SSTORE JUMPDEST PUSH2 0x16F1 PUSH1 0x3 SLOAD TIMESTAMP PUSH2 0x31ED JUMP JUMPDEST DIV DUP4 MSTORE DUP2 MSTORE PUSH1 0x2 PUSH1 0x40 DUP4 KECCAK256 ADD SWAP1 CALLER PUSH1 0x0 MSTORE MSTORE PUSH1 0x40 PUSH1 0x0 KECCAK256 PUSH1 0x1 PUSH1 0xFF NOT DUP3 SLOAD AND OR SWAP1 SSTORE CALLER PUSH32 0x7CE969A18BB6B0FBA42C6D9746E7D08EECA4C661809659C91D276456E3153AC0 DUP3 DUP1 LOG2 DUP1 RETURN JUMPDEST PUSH2 0x1745 SWAP1 TIMESTAMP PUSH2 0x31ED JUMP JUMPDEST DIV DUP6 MSTORE DUP3 DUP5 MSTORE PUSH2 0x175D PUSH1 0x1 PUSH1 0x40 DUP8 KECCAK256 ADD SWAP2 DUP3 SLOAD PUSH2 0x291B JUMP JUMPDEST SWAP1 SSTORE PUSH2 0x16E5 JUMP JUMPDEST PUSH1 0x40 MLOAD PUSH3 0x461BCD PUSH1 0xE5 SHL DUP2 MSTORE PUSH1 0x4 DUP2 ADD DUP8 SWAP1 MSTORE PUSH1 0xD PUSH1 0x24 DUP3 ADD MSTORE PUSH13 0x185B1C9958591E481D9BDD1959 PUSH1 0x9A SHL PUSH1 0x44 DUP3 ADD MSTORE PUSH1 0x64 SWAP1 REVERT JUMPDEST PUSH1 0x40 MLOAD PUSH3 0x461BCD PUSH1 0xE5 SHL DUP2 MSTORE PUSH1 0x4 DUP2 ADD DUP7 SWAP1 MSTORE PUSH1 0x27 PUSH1 0x24 DUP3 ADD MSTORE PUSH32 0x6E6F20706978656C73206F776E6564203D206E6F20766F74657320746F206265 PUSH1 0x44 DUP3 ADD MSTORE PUSH7 0x818D85CDD1959 PUSH1 0xCA SHL PUSH1 0x64 DUP3 ADD MSTORE PUSH1 0x84 SWAP1 REVERT JUMPDEST PUSH1 0x40 MLOAD PUSH3 0x461BCD PUSH1 0xE5 SHL DUP2 MSTORE PUSH1 0x4 DUP2 ADD DUP6 SWAP1 MSTORE PUSH1 0x19 PUSH1 0x24 DUP3 ADD MSTORE PUSH32 0x566F74696E672063757272656E746C79206E6F74206F70656E00000000000000 PUSH1 0x44 DUP3 ADD MSTORE PUSH1 0x64 SWAP1 REVERT JUMPDEST DUP3 DUP1 REVERT JUMPDEST POP CALLVALUE PUSH2 0x1E7 JUMPI PUSH1 0x40 CALLDATASIZE PUSH1 0x3 NOT ADD SLT PUSH2 0x1E7 JUMPI PUSH1 0x20 PUSH2 0x185E PUSH2 0x1856 PUSH2 0x27A0 JUMP JUMPDEST PUSH2 0x3CA PUSH2 0x27B0 JUMP JUMPDEST PUSH1 0x40 MLOAD SWAP1 DUP2 MSTORE RETURN JUMPDEST POP CALLVALUE PUSH2 0x1E7 JUMPI PUSH1 0x20 CALLDATASIZE PUSH1 0x3 NOT ADD SLT PUSH2 0x1E7 JUMPI PUSH2 0x1880 PUSH2 0x28EF JUMP JUMPDEST PUSH1 0x2 SLOAD PUSH1 0x1 PUSH1 0x1 PUSH1 0xA0 SHL SUB SWAP2 SWAP1 PUSH2 0x189A SWAP1 DUP4 AND CALLER EQ PUSH2 0x31FA JUMP JUMPDEST AND PUSH1 0x1 PUSH1 0x1 PUSH1 0x60 SHL SUB PUSH1 0xA0 SHL PUSH1 0x4 SLOAD AND OR PUSH1 0x4 SSTORE DUP1 RETURN JUMPDEST POP CALLVALUE PUSH2 0x1E7 JUMPI PUSH1 0x20 DUP1 PUSH1 0x3 NOT CALLDATASIZE ADD SLT PUSH2 0xCB6 JUMPI PUSH1 0x4 CALLDATALOAD SWAP1 PUSH3 0x54600 PUSH2 0x18D8 PUSH1 0x3 SLOAD TIMESTAMP PUSH2 0x31ED JUMP JUMPDEST DIV DUP3 LT ISZERO PUSH2 0x1AA0 JUMPI DUP2 DUP4 MSTORE PUSH2 0x104A DUP1 DUP3 MSTORE PUSH2 0x18FD PUSH1 0x40 DUP6 KECCAK256 PUSH1 0x1 DUP2 SLOAD SWAP2 ADD SLOAD SWAP1 PUSH2 0x291B JUMP JUMPDEST SWAP1 DUP2 ISZERO PUSH2 0x1A6B JUMPI DUP4 DUP6 MSTORE DUP3 MSTORE PUSH1 0x40 DUP5 KECCAK256 SLOAD SWAP1 PUSH1 0x1 SHR LT PUSH2 0x191B JUMPI DUP3 DUP1 RETURN JUMPDEST PUSH1 0x1 SLOAD PUSH1 0x1 PUSH1 0x1 PUSH1 0xA0 SHL SUB SWAP3 SWAP1 DUP5 SWAP1 DUP5 AND DUP1 EXTCODESIZE ISZERO PUSH2 0xCB6 JUMPI DUP2 DUP1 SWAP2 PUSH1 0x24 PUSH1 0x40 MLOAD DUP1 SWAP5 DUP2 SWAP4 PUSH4 0x35313C21 PUSH1 0xE1 SHL DUP4 MSTORE ADDRESS PUSH1 0x4 DUP5 ADD MSTORE GAS CALL DUP1 ISZERO PUSH2 0x1A60 JUMPI PUSH2 0x1A48 JUMPI JUMPDEST POP POP PUSH1 0x4 SWAP3 PUSH32 0xD9DC24857F317ED9ABBBB42E920EDE0104231EB1D3D70236A74887FFAF159868 DUP4 DUP1 SWAP4 PUSH1 0x40 MLOAD SWAP1 DUP2 MSTORE LOG1 PUSH1 0x1 SLOAD AND PUSH1 0x40 MLOAD SWAP4 DUP5 DUP1 SWAP3 PUSH4 0x18160DDD PUSH1 0xE0 SHL DUP3 MSTORE GAS STATICCALL SWAP2 DUP3 ISZERO PUSH2 0x1A3D JUMPI DUP4 SWAP3 PUSH2 0x1A0E JUMPI JUMPDEST POP PUSH1 0x0 NOT DUP3 ADD SWAP2 DUP3 GT PUSH2 0x19FA JUMPI DUP2 DUP4 MSTORE PUSH2 0x104B DUP2 MSTORE TIMESTAMP PUSH1 0x40 DUP5 KECCAK256 SSTORE PUSH2 0x104C SWAP1 DUP2 DUP2 MSTORE TIMESTAMP PUSH1 0x2 PUSH1 0x40 DUP7 KECCAK256 ADD SSTORE PUSH2 0xFD20 TIMESTAMP ADD SWAP3 DUP4 TIMESTAMP GT PUSH2 0x1146 JUMPI DUP5 MSTORE MSTORE PUSH1 0x3 PUSH1 0x40 DUP4 KECCAK256 ADD SSTORE CODESIZE DUP1 DUP3 DUP1 RETURN JUMPDEST PUSH4 0x4E487B71 PUSH1 0xE0 SHL DUP4 MSTORE PUSH1 0x11 PUSH1 0x4 MSTORE PUSH1 0x24 DUP4 REVERT JUMPDEST SWAP1 DUP1 SWAP3 POP DUP2 DUP2 RETURNDATASIZE DUP4 GT PUSH2 0x1A36 JUMPI JUMPDEST PUSH2 0x1A26 DUP2 DUP4 PUSH2 0x29AB JUMP JUMPDEST DUP2 ADD SUB SLT PUSH2 0x7F1 JUMPI MLOAD SWAP1 CODESIZE PUSH2 0x19B1 JUMP JUMPDEST POP RETURNDATASIZE PUSH2 0x1A1C JUMP JUMPDEST PUSH1 0x40 MLOAD RETURNDATASIZE DUP6 DUP3 RETURNDATACOPY RETURNDATASIZE SWAP1 REVERT JUMPDEST PUSH2 0x1A51 SWAP1 PUSH2 0x2962 JUMP JUMPDEST PUSH2 0x1A5C JUMPI DUP4 CODESIZE PUSH2 0x195C JUMP JUMPDEST DUP4 DUP1 REVERT JUMPDEST PUSH1 0x40 MLOAD RETURNDATASIZE DUP5 DUP3 RETURNDATACOPY RETURNDATASIZE SWAP1 REVERT JUMPDEST PUSH1 0x40 MLOAD PUSH3 0x461BCD PUSH1 0xE5 SHL DUP2 MSTORE PUSH1 0x4 DUP2 ADD DUP5 SWAP1 MSTORE PUSH1 0xD PUSH1 0x24 DUP3 ADD MSTORE PUSH13 0x139BC81D9BDD195CC818D85CDD PUSH1 0x9A SHL PUSH1 0x44 DUP3 ADD MSTORE PUSH1 0x64 SWAP1 REVERT JUMPDEST PUSH1 0x84 SWAP1 PUSH1 0x40 MLOAD SWAP1 PUSH3 0x461BCD PUSH1 0xE5 SHL DUP3 MSTORE PUSH1 0x4 DUP3 ADD MSTORE PUSH1 0x36 PUSH1 0x24 DUP3 ADD MSTORE PUSH32 0x636865636B20766F7465206F7574636F6D6573206F6E6C7920706F737369626C PUSH1 0x44 DUP3 ADD MSTORE PUSH22 0x6520666F7220636F6E636C75646564206379636C6573 PUSH1 0x50 SHL PUSH1 0x64 DUP3 ADD MSTORE REVERT JUMPDEST POP CALLVALUE PUSH2 0x1E7 JUMPI DUP1 PUSH1 0x3 NOT CALLDATASIZE ADD SLT PUSH2 0x1E7 JUMPI PUSH1 0x20 PUSH3 0x3F480 PUSH3 0x54600 PUSH2 0x1B2A PUSH1 0x3 SLOAD TIMESTAMP PUSH2 0x31ED JUMP JUMPDEST MOD LT PUSH1 0x40 MLOAD SWAP1 DUP2 MSTORE RETURN JUMPDEST POP CALLVALUE PUSH2 0x1E7 JUMPI DUP1 PUSH1 0x3 NOT CALLDATASIZE ADD SLT PUSH2 0x1E7 JUMPI PUSH1 0x2 SLOAD PUSH1 0x40 MLOAD PUSH1 0x1 PUSH1 0x1 PUSH1 0xA0 SHL SUB SWAP1 SWAP2 AND DUP2 MSTORE PUSH1 0x20 SWAP1 RETURN JUMPDEST POP CALLVALUE PUSH2 0x1E7 JUMPI PUSH1 0x40 CALLDATASIZE PUSH1 0x3 NOT ADD SLT PUSH2 0x1E7 JUMPI PUSH1 0x40 PUSH2 0x1B79 PUSH2 0x2905 JUMP JUMPDEST SWAP2 PUSH1 0x4 CALLDATALOAD DUP2 MSTORE PUSH1 0x6 PUSH1 0x20 MSTORE KECCAK256 SWAP1 PUSH1 0x1 DUP1 PUSH1 0xA0 SHL SUB AND PUSH1 0x0 MSTORE PUSH1 0x20 MSTORE PUSH1 0x20 PUSH1 0x40 PUSH1 0x0 KECCAK256 SLOAD PUSH1 0x40 MLOAD SWAP1 DUP2 MSTORE RETURN JUMPDEST POP CALLVALUE PUSH2 0x1E7 JUMPI PUSH1 0x20 CALLDATASIZE PUSH1 0x3 NOT ADD SLT PUSH2 0x1E7 JUMPI PUSH1 0x4 CALLDATALOAD PUSH1 0x1 PUSH1 0x1 PUSH1 0x40 SHL SUB DUP2 GT PUSH2 0xCB6 JUMPI PUSH2 0x1BD5 SWAP1 CALLDATASIZE SWAP1 PUSH1 0x4 ADD PUSH2 0x27CE JUMP JUMPDEST PUSH3 0x3F480 PUSH3 0x54600 PUSH2 0x1BEC PUSH1 0x3 SWAP6 SWAP5 SWAP6 SLOAD TIMESTAMP PUSH2 0x31ED JUMP JUMPDEST MOD LT ISZERO PUSH2 0x2082 JUMPI PUSH1 0x40 MLOAD SWAP3 PUSH2 0x820 DUP5 ADD DUP5 DUP2 LT PUSH1 0x1 PUSH1 0x1 PUSH1 0x40 SHL SUB DUP3 GT OR PUSH2 0xF7C JUMPI PUSH1 0x40 MSTORE PUSH1 0x40 DUP5 MSTORE PUSH2 0x800 CALLDATASIZE PUSH1 0x20 DUP7 ADD CALLDATACOPY DUP3 JUMPDEST DUP3 DUP2 LT PUSH2 0x1D13 JUMPI POP POP POP DUP1 JUMPDEST PUSH1 0xFF SWAP1 DUP2 DUP2 AND PUSH1 0x40 DUP2 LT ISZERO PUSH2 0x1D0F JUMPI PUSH2 0x1C45 SWAP1 DUP6 PUSH2 0x2BC8 JUMP JUMPDEST MLOAD PUSH2 0x1C54 JUMPI JUMPDEST PUSH1 0x1 ADD AND PUSH2 0x1C2C JUMP JUMPDEST PUSH1 0x40 MLOAD PUSH2 0x1C60 DUP2 PUSH2 0x2990 JUMP JUMPDEST DUP4 DUP2 MSTORE PUSH2 0x3FC0 DUP3 PUSH1 0x6 SHL AND DUP1 PUSH1 0x40 ADD SWAP1 DUP2 PUSH1 0x40 GT PUSH2 0x1CFB JUMPI SWAP1 JUMPDEST DUP1 DUP3 LT PUSH2 0x1CA4 JUMPI POP POP PUSH1 0x40 DUP3 LT ISZERO PUSH2 0xF19 JUMPI SWAP1 PUSH2 0x1C9D PUSH1 0x1 SWAP3 DUP3 PUSH2 0x1009 ADD PUSH2 0x2AA4 JUMP JUMPDEST SWAP1 POP PUSH2 0x1C4B JUMP JUMPDEST SWAP1 SWAP2 PUSH2 0x1000 DUP4 LT ISZERO PUSH2 0x1CE7 JUMPI PUSH1 0x20 PUSH2 0x1CDF PUSH1 0x1 SWAP3 PUSH2 0xF02 PUSH1 0x40 MLOAD SWAP4 DUP3 PUSH2 0x1CD3 DUP7 SWAP5 MLOAD DUP1 SWAP3 DUP5 DUP1 DUP9 ADD SWAP2 ADD PUSH2 0x2848 JUMP JUMPDEST DUP4 ADD ADD DUP8 PUSH1 0x9 ADD PUSH2 0x3C5C JUMP JUMPDEST SWAP3 ADD SWAP1 PUSH2 0x1C7A JUMP JUMPDEST PUSH4 0x4E487B71 PUSH1 0xE0 SHL DUP7 MSTORE PUSH1 0x32 PUSH1 0x4 MSTORE PUSH1 0x24 DUP7 REVERT JUMPDEST PUSH4 0x4E487B71 PUSH1 0xE0 SHL DUP7 MSTORE PUSH1 0x11 PUSH1 0x4 MSTORE PUSH1 0x24 DUP7 REVERT JUMPDEST DUP4 DUP1 RETURN JUMPDEST DUP1 PUSH1 0x5 SHL DUP3 ADD CALLDATALOAD PUSH1 0x1E NOT DUP4 CALLDATASIZE SUB ADD DUP2 SLT ISZERO PUSH2 0x1635 JUMPI DUP3 ADD DUP1 CALLDATALOAD SWAP1 PUSH1 0x1 PUSH1 0x1 PUSH1 0x40 SHL SUB DUP3 GT PUSH2 0x207E JUMPI PUSH1 0x20 DUP2 ADD SWAP2 DUP1 CALLDATASIZE SUB DUP4 SGT PUSH2 0x1631 JUMPI DUP2 SWAP1 DUP2 ADD SWAP3 PUSH1 0x20 DUP5 ADD SWAP4 PUSH1 0x80 SWAP3 DUP4 SWAP2 SUB SLT PUSH2 0x207A JUMPI PUSH2 0x1D67 SWAP1 PUSH2 0x27C0 JUMP JUMPDEST SWAP3 PUSH2 0x1D74 PUSH1 0x40 DUP5 ADD PUSH2 0x27C0 JUMP JUMPDEST SWAP3 PUSH2 0x1D81 PUSH1 0x60 DUP3 ADD PUSH2 0x27C0 JUMP JUMPDEST SWAP3 DUP2 ADD CALLDATALOAD SWAP1 PUSH1 0x1 PUSH1 0x1 PUSH1 0x40 SHL SUB DUP3 GT PUSH2 0x2072 JUMPI ADD DUP2 PUSH1 0x3F DUP3 ADD SLT ISZERO PUSH2 0x2076 JUMPI PUSH1 0x20 DUP2 ADD CALLDATALOAD SWAP1 PUSH2 0x1DAF DUP3 PUSH2 0x2A89 JUMP JUMPDEST SWAP3 PUSH2 0x1DBD PUSH1 0x40 MLOAD SWAP5 DUP6 PUSH2 0x29AB JUMP JUMPDEST DUP3 DUP5 MSTORE PUSH1 0x40 DUP4 DUP4 ADD ADD GT PUSH2 0x2072 JUMPI DUP2 DUP11 SWAP3 PUSH1 0x40 PUSH1 0x20 SWAP4 ADD DUP4 DUP7 ADD CALLDATACOPY DUP4 ADD ADD MSTORE PUSH2 0x1DE6 DUP4 DUP6 PUSH2 0x3372 JUMP JUMPDEST PUSH2 0xA31 JUMPI PUSH1 0xA PUSH1 0xFF DUP4 AND LT ISZERO PUSH2 0x2034 JUMPI PUSH1 0xFF DUP5 AND DUP9 MSTORE PUSH1 0x8 PUSH1 0x20 MSTORE PUSH1 0x40 DUP9 KECCAK256 PUSH1 0xFF DUP5 AND PUSH1 0x0 MSTORE PUSH1 0x20 MSTORE PUSH1 0xFF PUSH1 0x40 PUSH1 0x0 KECCAK256 SLOAD PUSH1 0xA8 SHR AND PUSH2 0x1FD7 JUMPI PUSH1 0xFF DUP5 AND DUP9 MSTORE PUSH1 0x8 PUSH1 0x20 MSTORE PUSH1 0x40 DUP9 KECCAK256 PUSH1 0xFF DUP5 AND PUSH1 0x0 MSTORE PUSH1 0x20 MSTORE CALLER PUSH1 0x1 DUP1 PUSH1 0xA0 SHL SUB PUSH1 0x40 PUSH1 0x0 KECCAK256 SLOAD AND EQ PUSH2 0x1E59 JUMPI JUMPDEST POP POP POP POP PUSH1 0x1 ADD PUSH2 0x1C20 JUMP JUMPDEST PUSH2 0x1E83 SWAP1 PUSH1 0xFF DUP6 AND DUP10 MSTORE PUSH1 0x8 PUSH1 0x20 MSTORE PUSH1 0x40 DUP10 KECCAK256 PUSH1 0xFF DUP6 AND PUSH1 0x0 MSTORE PUSH1 0x20 MSTORE PUSH1 0x4 PUSH1 0x40 PUSH1 0x0 KECCAK256 ADD PUSH2 0x2AA4 JUMP JUMPDEST PUSH1 0xFF DUP4 AND DUP8 MSTORE PUSH1 0x8 PUSH1 0x20 MSTORE PUSH1 0x40 DUP8 KECCAK256 PUSH1 0xFF DUP4 AND PUSH1 0x0 MSTORE PUSH1 0x20 MSTORE PUSH1 0x40 PUSH1 0x0 KECCAK256 DUP1 SLOAD PUSH1 0xA0 SWAP3 PUSH1 0xFF PUSH1 0xA0 SHL SWAP1 DUP5 SHL AND SWAP1 PUSH1 0xFF PUSH1 0xA0 SHL NOT AND OR SWAP1 SSTORE DUP2 PUSH1 0x6 SHL PUSH2 0x3FC0 PUSH1 0xC0 DUP3 AND SWAP2 AND DUP2 SUB PUSH2 0x1FC1 JUMPI PUSH1 0xFF DUP2 DUP2 DUP7 AND ADD GT PUSH2 0x1FC1 JUMPI PUSH1 0xFF DUP1 PUSH2 0x1F4F SWAP3 DUP2 DUP8 AND ADD AND SWAP3 DUP2 DUP7 AND DUP11 MSTORE PUSH1 0x8 PUSH1 0x20 MSTORE PUSH1 0x40 DUP11 KECCAK256 DUP3 DUP7 AND PUSH1 0x0 MSTORE PUSH1 0x20 MSTORE PUSH1 0x40 PUSH1 0x0 KECCAK256 SLOAD SWAP1 SHR AND PUSH2 0x1F0F DUP6 PUSH2 0x2BB3 JUMP JUMPDEST PUSH2 0x1F18 DUP6 PUSH2 0x2BB3 JUMP JUMPDEST SWAP2 PUSH1 0xFF DUP8 AND DUP12 MSTORE PUSH1 0x8 PUSH1 0x20 MSTORE PUSH1 0x40 DUP12 KECCAK256 PUSH1 0xFF DUP8 AND PUSH1 0x0 MSTORE PUSH1 0x20 MSTORE PUSH1 0xFF DUP1 PUSH2 0x1F45 PUSH1 0x4 PUSH1 0x40 PUSH1 0x0 KECCAK256 ADD PUSH2 0x29CC JUMP JUMPDEST SWAP5 AND SWAP3 AND SWAP1 PUSH2 0x34FB JUMP JUMPDEST SWAP1 PUSH2 0x1000 DUP2 LT ISZERO PUSH2 0x1FAD JUMPI PUSH1 0x1 SWAP5 SWAP4 SWAP3 PUSH2 0x1F6F PUSH1 0xFF SWAP4 DUP5 SWAP4 PUSH1 0x9 ADD PUSH2 0x2AA4 JUMP JUMPDEST DUP6 PUSH2 0x1F7C DUP4 DUP4 AND DUP13 PUSH2 0x2BC8 JUMP JUMPDEST MSTORE AND SWAP2 AND PUSH32 0xA9A418DA632D42C446A125F10B007831BA0E348168B6B2474A2383AC5DF4C280 DUP8 DUP1 LOG3 SWAP1 CODESIZE DUP1 DUP1 PUSH2 0x1E4D JUMP JUMPDEST PUSH4 0x4E487B71 PUSH1 0xE0 SHL DUP9 MSTORE PUSH1 0x32 PUSH1 0x4 MSTORE PUSH1 0x24 DUP9 REVERT JUMPDEST PUSH4 0x4E487B71 PUSH1 0xE0 SHL PUSH1 0x0 MSTORE PUSH1 0x11 PUSH1 0x4 MSTORE PUSH1 0x24 PUSH1 0x0 REVERT JUMPDEST PUSH1 0x40 MLOAD PUSH3 0x461BCD PUSH1 0xE5 SHL DUP2 MSTORE PUSH1 0x20 PUSH1 0x4 DUP3 ADD MSTORE PUSH1 0x2F PUSH1 0x24 DUP3 ADD MSTORE PUSH32 0x6F776E6572207761732061736B656420746F20666972737420736574746C6520 PUSH1 0x44 DUP3 ADD MSTORE PUSH15 0x1C9BDE585B1D1E481C185E5B595B9D PUSH1 0x8A SHL PUSH1 0x64 DUP3 ADD MSTORE PUSH1 0x84 SWAP1 REVERT JUMPDEST PUSH1 0x40 MLOAD PUSH3 0x461BCD PUSH1 0xE5 SHL DUP2 MSTORE PUSH1 0x20 PUSH1 0x4 DUP3 ADD MSTORE PUSH1 0x16 PUSH1 0x24 DUP3 ADD MSTORE PUSH22 0x7368617065204944206E6F7420617661696C61626C65 PUSH1 0x50 SHL PUSH1 0x44 DUP3 ADD MSTORE PUSH1 0x64 SWAP1 REVERT JUMPDEST DUP10 DUP1 REVERT JUMPDEST DUP9 DUP1 REVERT JUMPDEST DUP8 DUP1 REVERT JUMPDEST DUP6 DUP1 REVERT JUMPDEST PUSH1 0x40 MLOAD PUSH3 0x461BCD PUSH1 0xE5 SHL DUP2 MSTORE PUSH1 0x20 PUSH1 0x4 DUP3 ADD MSTORE PUSH1 0x22 PUSH1 0x24 DUP3 ADD MSTORE PUSH32 0x417274697374696320706572696F642063757272656E746C79206E6F74206F70 PUSH1 0x44 DUP3 ADD MSTORE PUSH2 0x32B7 PUSH1 0xF1 SHL PUSH1 0x64 DUP3 ADD MSTORE PUSH1 0x84 SWAP1 REVERT JUMPDEST POP CALLVALUE PUSH2 0x1E7 JUMPI PUSH2 0x20ED PUSH2 0x20E4 CALLDATASIZE PUSH2 0x27FE JUMP JUMPDEST SWAP3 SWAP2 SWAP1 SWAP2 PUSH2 0x2C88 JUMP JUMPDEST DUP1 RETURN JUMPDEST POP CALLVALUE PUSH2 0x1E7 JUMPI PUSH1 0x20 CALLDATASIZE PUSH1 0x3 NOT ADD SLT PUSH2 0x1E7 JUMPI PUSH1 0x40 DUP1 SWAP2 PUSH1 0x4 CALLDATALOAD DUP2 MSTORE PUSH2 0x104A PUSH1 0x20 MSTORE KECCAK256 PUSH1 0x1 DUP2 SLOAD SWAP2 ADD SLOAD DUP3 MLOAD SWAP2 DUP3 MSTORE PUSH1 0x20 DUP3 ADD MSTORE RETURN JUMPDEST POP CALLVALUE PUSH2 0x1E7 JUMPI PUSH1 0x20 SWAP1 DUP2 PUSH1 0x3 NOT CALLDATASIZE ADD SLT PUSH2 0x1E7 JUMPI PUSH1 0x4 CALLDATALOAD SWAP1 PUSH2 0x2145 PUSH2 0x34D8 JUMP JUMPDEST DUP2 DUP2 MSTORE PUSH2 0x104C SWAP2 DUP3 DUP5 MSTORE PUSH1 0xFF SWAP3 PUSH2 0x2165 DUP5 PUSH1 0x4 PUSH1 0x40 DUP7 KECCAK256 ADD SLOAD AND ISZERO PUSH2 0x3410 JUMP JUMPDEST DUP2 DUP4 MSTORE DUP1 DUP6 MSTORE PUSH2 0x217D PUSH1 0x2 PUSH1 0x40 DUP6 KECCAK256 ADD SLOAD TIMESTAMP GT PUSH2 0x345C JUMP JUMPDEST DUP2 DUP4 MSTORE DUP1 DUP6 MSTORE TIMESTAMP PUSH1 0x3 PUSH1 0x40 DUP6 KECCAK256 ADD SLOAD LT ISZERO PUSH2 0x247A JUMPI DUP2 DUP4 MSTORE DUP1 DUP6 MSTORE PUSH1 0x40 DUP4 KECCAK256 DUP1 SLOAD PUSH1 0x1 PUSH1 0x1 PUSH1 0xA0 SHL SUB SWAP5 SWAP2 SWAP1 DUP6 AND SWAP1 DUP2 PUSH2 0x23B0 JUMPI POP POP SWAP1 PUSH1 0x40 MLOAD PUSH1 0x3F DUP1 DUP9 DUP4 ADD DUP4 PUSH2 0x21E8 CALLER PREVRANDAO TIMESTAMP DUP6 SWAP2 PUSH1 0x54 SWAP4 SWAP2 DUP4 MSTORE PUSH1 0x20 DUP4 ADD MSTORE PUSH1 0x1 PUSH1 0x1 PUSH1 0x60 SHL SUB NOT SWAP1 PUSH1 0x60 SHL AND PUSH1 0x40 DUP3 ADD MSTORE ADD SWAP1 JUMP JUMPDEST SUB SWAP4 PUSH2 0x21FC PUSH1 0x1F NOT SWAP6 DUP7 DUP2 ADD DUP4 MSTORE DUP3 PUSH2 0x29AB JUMP JUMPDEST MLOAD SWAP1 KECCAK256 AND SWAP2 PUSH1 0x40 MLOAD PUSH2 0x2242 DUP11 DUP3 ADD SWAP3 DUP3 PUSH2 0x2236 CALLER PREVRANDAO TIMESTAMP DUP9 SWAP2 PUSH1 0x54 SWAP4 SWAP2 DUP4 MSTORE PUSH1 0x20 DUP4 ADD MSTORE PUSH1 0x1 PUSH1 0x1 PUSH1 0x60 SHL SUB NOT SWAP1 PUSH1 0x60 SHL AND PUSH1 0x40 DUP3 ADD MSTORE ADD SWAP1 JUMP JUMPDEST SUB SWAP1 DUP2 ADD DUP4 MSTORE DUP3 PUSH2 0x29AB JUMP JUMPDEST MLOAD SWAP1 KECCAK256 AND SWAP2 DUP5 DUP5 MSTORE DUP8 MSTORE PUSH1 0x4 PUSH1 0x40 DUP5 KECCAK256 ADD PUSH1 0x1 PUSH1 0xFF NOT DUP3 SLOAD AND OR SWAP1 SSTORE DUP5 PUSH1 0x1 SLOAD AND DUP2 DUP5 MSTORE PUSH1 0x8 DUP9 MSTORE PUSH1 0x40 DUP5 KECCAK256 DUP4 PUSH1 0x0 MSTORE DUP9 MSTORE DUP6 PUSH1 0x40 PUSH1 0x0 KECCAK256 SLOAD AND DUP2 EXTCODESIZE ISZERO PUSH2 0x1635 JUMPI PUSH1 0x40 MLOAD PUSH4 0x21421707 PUSH1 0xE1 SHL DUP2 MSTORE ADDRESS PUSH1 0x4 DUP3 ADD MSTORE PUSH1 0x1 PUSH1 0x1 PUSH1 0xA0 SHL SUB SWAP2 SWAP1 SWAP2 AND PUSH1 0x24 DUP3 ADD MSTORE PUSH1 0x44 DUP2 ADD DUP7 SWAP1 MSTORE SWAP1 DUP5 SWAP1 DUP3 SWAP1 PUSH1 0x64 SWAP1 DUP3 SWAP1 DUP5 SWAP1 GAS CALL DUP1 ISZERO PUSH2 0x23A5 JUMPI SWAP1 DUP5 SWAP2 PUSH2 0x2391 JUMPI JUMPDEST POP MSTORE PUSH1 0x8 DUP7 MSTORE PUSH1 0x40 DUP3 KECCAK256 SWAP1 PUSH1 0x0 MSTORE DUP6 MSTORE PUSH32 0xD2AA34A4FDBBC6DFF6A3E56F46E0F3AE2A31D7785FF3487AA5C95C642ACEA501 PUSH1 0x60 DUP5 PUSH1 0x40 PUSH1 0x0 KECCAK256 SLOAD AND PUSH1 0x40 MLOAD SWAP1 DUP6 DUP3 MSTORE DUP9 DUP3 ADD MSTORE DUP4 PUSH1 0x40 DUP3 ADD MSTORE LOG1 JUMPDEST DUP1 SWAP5 JUMPDEST DUP5 DUP7 AND SWAP4 PUSH1 0x40 DUP6 LT ISZERO PUSH2 0x2389 JUMPI DUP3 JUMPDEST DUP7 DUP2 AND PUSH1 0x40 DUP2 LT ISZERO PUSH2 0x2378 JUMPI DUP7 DUP6 MSTORE PUSH1 0x8 DUP5 MSTORE PUSH1 0x40 DUP1 DUP7 KECCAK256 PUSH1 0x0 SWAP3 DUP4 MSTORE DUP6 MSTORE DUP1 DUP3 KECCAK256 SLOAD DUP5 AND DUP1 DUP8 MSTORE PUSH2 0x1049 DUP7 MSTORE DUP2 DUP8 KECCAK256 SLOAD DUP9 DUP9 MSTORE PUSH1 0x6 DUP8 MSTORE DUP3 DUP9 KECCAK256 SWAP2 DUP5 MSTORE SWAP1 DUP7 MSTORE SWAP2 KECCAK256 SSTORE PUSH1 0x1 ADD DUP7 AND PUSH2 0x232A JUMP JUMPDEST POP POP SWAP4 POP SWAP5 PUSH1 0x1 DUP6 SWAP2 ADD AND SWAP5 PUSH2 0x231B JUMP JUMPDEST DUP3 PUSH1 0x1 DUP2 SSTORE DUP1 RETURN JUMPDEST PUSH2 0x239A SWAP1 PUSH2 0x2962 JUMP JUMPDEST PUSH2 0x1833 JUMPI DUP3 CODESIZE PUSH2 0x22CA JUMP JUMPDEST PUSH1 0x40 MLOAD RETURNDATASIZE DUP7 DUP3 RETURNDATACOPY RETURNDATASIZE SWAP1 REVERT JUMPDEST PUSH1 0x4 ADD PUSH1 0x1 PUSH1 0xFF NOT DUP3 SLOAD AND OR SWAP1 SSTORE DUP5 PUSH1 0x1 SLOAD AND SWAP1 DUP2 EXTCODESIZE ISZERO PUSH2 0x1833 JUMPI PUSH1 0x40 MLOAD PUSH4 0x21421707 PUSH1 0xE1 SHL DUP2 MSTORE ADDRESS PUSH1 0x4 DUP3 ADD MSTORE PUSH1 0x1 PUSH1 0x1 PUSH1 0xA0 SHL SUB SWAP2 SWAP1 SWAP2 AND PUSH1 0x24 DUP3 ADD MSTORE PUSH1 0x44 DUP2 ADD DUP6 SWAP1 MSTORE SWAP1 DUP3 SWAP1 DUP3 SWAP1 PUSH1 0x64 SWAP1 DUP3 SWAP1 DUP5 SWAP1 GAS CALL DUP1 ISZERO PUSH2 0x1A60 JUMPI PUSH2 0x246B JUMPI JUMPDEST POP DUP3 DUP2 MSTORE SWAP1 DUP6 MSTORE PUSH1 0x40 DUP1 DUP3 KECCAK256 DUP1 SLOAD PUSH1 0x1 SWAP1 SWAP2 ADD SLOAD DUP3 MLOAD DUP6 DUP2 MSTORE SWAP2 DUP7 AND PUSH1 0x1 PUSH1 0x1 PUSH1 0xA0 SHL SUB AND PUSH1 0x20 DUP4 ADD MSTORE SWAP2 DUP2 ADD SWAP2 SWAP1 SWAP2 MSTORE PUSH32 0xD2AA34A4FDBBC6DFF6A3E56F46E0F3AE2A31D7785FF3487AA5C95C642ACEA501 SWAP1 PUSH1 0x60 SWAP1 LOG1 PUSH2 0x2318 JUMP JUMPDEST PUSH2 0x2474 SWAP1 PUSH2 0x2962 JUMP JUMPDEST CODESIZE PUSH2 0x240F JUMP JUMPDEST PUSH1 0x40 MLOAD PUSH3 0x461BCD PUSH1 0xE5 SHL DUP2 MSTORE PUSH1 0x4 DUP2 ADD DUP7 SWAP1 MSTORE PUSH1 0x15 PUSH1 0x24 DUP3 ADD MSTORE PUSH21 0x185D58DD1A5BDB881B9BDD08195B991959081E595D PUSH1 0x5A SHL PUSH1 0x44 DUP3 ADD MSTORE PUSH1 0x64 SWAP1 REVERT JUMPDEST POP CALLVALUE PUSH2 0x1E7 JUMPI PUSH1 0x40 CALLDATASIZE PUSH1 0x3 NOT ADD SLT PUSH2 0x1E7 JUMPI PUSH1 0x40 PUSH1 0x20 SWAP2 PUSH2 0x24D6 PUSH2 0x2905 JUMP JUMPDEST PUSH1 0x4 CALLDATALOAD DUP3 MSTORE PUSH1 0x6 DUP5 MSTORE DUP3 DUP3 KECCAK256 PUSH1 0x1 PUSH1 0x1 PUSH1 0xA0 SHL SUB SWAP1 SWAP2 AND DUP3 MSTORE DUP4 MSTORE KECCAK256 SLOAD PUSH1 0x40 MLOAD SWAP1 DUP2 MSTORE RETURN JUMPDEST POP CALLVALUE PUSH2 0x1E7 JUMPI DUP1 PUSH1 0x3 NOT CALLDATASIZE ADD SLT PUSH2 0x1E7 JUMPI PUSH1 0x20 PUSH1 0x40 MLOAD PUSH3 0x54600 DUP2 MSTORE RETURN JUMPDEST POP CALLVALUE PUSH2 0x1E7 JUMPI PUSH1 0x20 CALLDATASIZE PUSH1 0x3 NOT ADD SLT PUSH2 0x1E7 JUMPI PUSH1 0xFF PUSH1 0x40 PUSH1 0x20 SWAP3 PUSH2 0x253A PUSH2 0x28EF JUMP JUMPDEST PUSH3 0x54600 PUSH2 0x254A PUSH1 0x3 SLOAD TIMESTAMP PUSH2 0x31ED JUMP JUMPDEST DIV DUP3 MSTORE PUSH2 0x104A DUP6 MSTORE DUP3 DUP3 KECCAK256 PUSH1 0x1 PUSH1 0x1 PUSH1 0xA0 SHL SUB SWAP1 SWAP2 AND DUP3 MSTORE PUSH1 0x2 ADD DUP5 MSTORE KECCAK256 SLOAD PUSH1 0x40 MLOAD SWAP2 AND ISZERO ISZERO DUP2 MSTORE RETURN JUMPDEST POP CALLVALUE PUSH2 0x1E7 JUMPI PUSH2 0x2583 CALLDATASIZE PUSH2 0x27FE JUMP JUMPDEST PUSH2 0x2590 DUP2 DUP5 SWAP6 SWAP5 EQ PUSH2 0x2C10 JUMP JUMPDEST PUSH2 0x2599 DUP5 PUSH2 0x2A72 JUMP JUMPDEST SWAP4 PUSH2 0x25A7 PUSH1 0x40 MLOAD SWAP6 DUP7 PUSH2 0x29AB JUMP JUMPDEST DUP1 DUP6 MSTORE PUSH1 0x1F NOT PUSH2 0x25B6 DUP3 PUSH2 0x2A72 JUMP JUMPDEST ADD DUP7 JUMPDEST DUP2 DUP2 LT PUSH2 0x2667 JUMPI POP POP DUP6 JUMPDEST DUP2 DUP2 LT PUSH2 0x2629 JUMPI PUSH1 0x40 DUP1 MLOAD PUSH1 0x20 DUP1 DUP3 MSTORE DUP9 MLOAD DUP2 DUP4 ADD DUP2 SWAP1 MSTORE DUP11 SWAP4 PUSH1 0x5 DUP3 SWAP1 SHL DUP5 ADD DUP2 ADD SWAP3 DUP1 DUP13 ADD SWAP3 SWAP2 DUP6 ADD JUMPDEST DUP3 DUP8 LT PUSH2 0x25FD JUMPI DUP6 DUP6 SUB DUP7 RETURN JUMPDEST SWAP1 SWAP2 SWAP3 SWAP4 DUP3 DUP1 PUSH2 0x2619 PUSH1 0x1 SWAP4 PUSH1 0x3F NOT DUP11 DUP3 SUB ADD DUP7 MSTORE DUP9 MLOAD PUSH2 0x2890 JUMP JUMPDEST SWAP7 ADD SWAP3 ADD SWAP7 ADD SWAP6 SWAP3 SWAP2 SWAP1 SWAP3 PUSH2 0x25F0 JUMP JUMPDEST DUP1 PUSH2 0x264B PUSH2 0x263D PUSH2 0x27B PUSH1 0x1 SWAP5 DUP7 DUP11 PUSH2 0x2BF2 JUMP JUMPDEST PUSH2 0xA97 PUSH2 0x27B DUP5 DUP9 DUP11 PUSH2 0x2BF2 JUMP JUMPDEST PUSH2 0x2655 DUP3 DUP10 PUSH2 0x2BC8 JUMP JUMPDEST MSTORE PUSH2 0x2660 DUP2 DUP9 PUSH2 0x2BC8 JUMP JUMPDEST POP ADD PUSH2 0x25C4 JUMP JUMPDEST PUSH1 0x20 SWAP1 PUSH2 0x2672 PUSH2 0x325B JUMP JUMPDEST DUP3 DUP3 DUP11 ADD ADD MSTORE ADD PUSH2 0x25B9 JUMP JUMPDEST POP CALLVALUE PUSH2 0x1E7 JUMPI PUSH1 0x60 CALLDATASIZE PUSH1 0x3 NOT ADD SLT PUSH2 0x1E7 JUMPI PUSH2 0x2698 PUSH2 0x27A0 JUMP JUMPDEST PUSH1 0xFF PUSH2 0x26A2 PUSH2 0x27B0 JUMP JUMPDEST SWAP2 PUSH2 0x26B8 PUSH1 0x1 DUP1 PUSH1 0xA0 SHL SUB PUSH1 0x2 SLOAD AND CALLER EQ PUSH2 0x31FA JUMP JUMPDEST AND DUP1 DUP4 MSTORE PUSH1 0x8 PUSH1 0x20 SWAP2 DUP2 DUP4 MSTORE PUSH1 0xFF PUSH1 0x40 DUP7 KECCAK256 SWAP5 AND SWAP4 DUP5 DUP7 MSTORE DUP4 MSTORE PUSH1 0xFF PUSH1 0x40 DUP7 KECCAK256 SLOAD PUSH1 0xA8 SHR AND DUP1 PUSH2 0x2774 JUMPI JUMPDEST ISZERO PUSH2 0x2738 JUMPI DUP1 DUP6 MSTORE DUP2 DUP4 MSTORE PUSH1 0x40 DUP6 KECCAK256 DUP5 DUP7 MSTORE DUP4 MSTORE PUSH1 0x44 CALLDATALOAD PUSH1 0x1 PUSH1 0x40 DUP8 KECCAK256 ADD SSTORE DUP1 DUP6 MSTORE DUP2 DUP4 MSTORE PUSH1 0x40 DUP6 KECCAK256 DUP5 DUP7 MSTORE DUP4 MSTORE PUSH1 0x40 DUP6 KECCAK256 PUSH1 0xFF PUSH1 0xA8 SHL NOT DUP2 SLOAD AND SWAP1 SSTORE DUP5 MSTORE DUP2 MSTORE PUSH1 0x40 DUP4 KECCAK256 SWAP2 DUP4 MSTORE MSTORE DUP1 PUSH1 0x3 PUSH1 0x40 DUP3 KECCAK256 ADD SSTORE DUP1 RETURN JUMPDEST DUP1 DUP6 MSTORE DUP2 DUP4 MSTORE PUSH1 0x40 DUP6 KECCAK256 DUP5 DUP7 MSTORE DUP4 MSTORE PUSH1 0x40 DUP6 KECCAK256 PUSH1 0x1 PUSH1 0xA8 SHL PUSH1 0xFF PUSH1 0xA8 SHL NOT DUP3 SLOAD AND OR SWAP1 SSTORE DUP5 MSTORE DUP2 MSTORE PUSH1 0x40 DUP4 KECCAK256 SWAP2 DUP4 MSTORE MSTORE TIMESTAMP PUSH1 0x3 PUSH1 0x40 DUP4 KECCAK256 ADD SSTORE DUP1 RETURN JUMPDEST POP DUP1 DUP6 MSTORE DUP2 DUP4 MSTORE PUSH1 0x40 DUP6 KECCAK256 DUP5 DUP7 MSTORE DUP4 MSTORE PUSH1 0x3 PUSH1 0x40 DUP7 KECCAK256 ADD SLOAD PUSH3 0x3F480 DUP2 ADD DUP1 SWAP2 GT PUSH2 0x1CFB JUMPI TIMESTAMP GT PUSH2 0x26E3 JUMP JUMPDEST PUSH1 0x4 CALLDATALOAD SWAP1 PUSH1 0xFF DUP3 AND DUP3 SUB PUSH2 0x7F1 JUMPI JUMP JUMPDEST PUSH1 0x24 CALLDATALOAD SWAP1 PUSH1 0xFF DUP3 AND DUP3 SUB PUSH2 0x7F1 JUMPI JUMP JUMPDEST CALLDATALOAD SWAP1 PUSH1 0xFF DUP3 AND DUP3 SUB PUSH2 0x7F1 JUMPI JUMP JUMPDEST SWAP2 DUP2 PUSH1 0x1F DUP5 ADD SLT ISZERO PUSH2 0x7F1 JUMPI DUP3 CALLDATALOAD SWAP2 PUSH1 0x1 PUSH1 0x1 PUSH1 0x40 SHL SUB DUP4 GT PUSH2 0x7F1 JUMPI PUSH1 0x20 DUP1 DUP6 ADD SWAP5 DUP5 PUSH1 0x5 SHL ADD ADD GT PUSH2 0x7F1 JUMPI JUMP JUMPDEST PUSH1 0x40 PUSH1 0x3 NOT DUP3 ADD SLT PUSH2 0x7F1 JUMPI PUSH1 0x1 PUSH1 0x1 PUSH1 0x40 SHL SUB SWAP2 PUSH1 0x4 CALLDATALOAD DUP4 DUP2 GT PUSH2 0x7F1 JUMPI DUP3 PUSH2 0x282A SWAP2 PUSH1 0x4 ADD PUSH2 0x27CE JUMP JUMPDEST SWAP4 SWAP1 SWAP4 SWAP3 PUSH1 0x24 CALLDATALOAD SWAP2 DUP3 GT PUSH2 0x7F1 JUMPI PUSH2 0x2844 SWAP2 PUSH1 0x4 ADD PUSH2 0x27CE JUMP JUMPDEST SWAP1 SWAP2 JUMP JUMPDEST PUSH1 0x0 JUMPDEST DUP4 DUP2 LT PUSH2 0x285B JUMPI POP POP PUSH1 0x0 SWAP2 ADD MSTORE JUMP JUMPDEST DUP2 DUP2 ADD MLOAD DUP4 DUP3 ADD MSTORE PUSH1 0x20 ADD PUSH2 0x284B JUMP JUMPDEST SWAP1 PUSH1 0x20 SWAP2 PUSH2 0x2884 DUP2 MLOAD DUP1 SWAP3 DUP2 DUP6 MSTORE DUP6 DUP1 DUP7 ADD SWAP2 ADD PUSH2 0x2848 JUMP JUMPDEST PUSH1 0x1F ADD PUSH1 0x1F NOT AND ADD ADD SWAP1 JUMP JUMPDEST SWAP1 PUSH1 0xE0 PUSH1 0xC0 PUSH2 0x28EC SWAP4 PUSH1 0x1 DUP1 PUSH1 0xA0 SHL SUB DUP2 MLOAD AND DUP5 MSTORE PUSH1 0xFF PUSH1 0x20 DUP3 ADD MLOAD AND PUSH1 0x20 DUP6 ADD MSTORE PUSH1 0x40 DUP2 ADD MLOAD ISZERO ISZERO PUSH1 0x40 DUP6 ADD MSTORE PUSH1 0x60 DUP2 ADD MLOAD PUSH1 0x60 DUP6 ADD MSTORE PUSH1 0x80 DUP2 ADD MLOAD PUSH1 0x80 DUP6 ADD MSTORE PUSH1 0xA0 DUP2 ADD MLOAD PUSH1 0xA0 DUP6 ADD MSTORE ADD MLOAD SWAP2 DUP2 PUSH1 0xC0 DUP3 ADD MSTORE ADD SWAP1 PUSH2 0x286B JUMP JUMPDEST SWAP1 JUMP JUMPDEST PUSH1 0x4 CALLDATALOAD SWAP1 PUSH1 0x1 PUSH1 0x1 PUSH1 0xA0 SHL SUB DUP3 AND DUP3 SUB PUSH2 0x7F1 JUMPI JUMP JUMPDEST PUSH1 0x24 CALLDATALOAD SWAP1 PUSH1 0x1 PUSH1 0x1 PUSH1 0xA0 SHL SUB DUP3 AND DUP3 SUB PUSH2 0x7F1 JUMPI JUMP JUMPDEST SWAP2 SWAP1 DUP3 ADD DUP1 SWAP3 GT PUSH2 0x1FC1 JUMPI JUMP JUMPDEST SWAP1 PUSH1 0x1 DUP3 DUP2 SHR SWAP3 AND DUP1 ISZERO PUSH2 0x2958 JUMPI JUMPDEST PUSH1 0x20 DUP4 LT EQ PUSH2 0x2942 JUMPI JUMP JUMPDEST PUSH4 0x4E487B71 PUSH1 0xE0 SHL PUSH1 0x0 MSTORE PUSH1 0x22 PUSH1 0x4 MSTORE PUSH1 0x24 PUSH1 0x0 REVERT JUMPDEST SWAP2 PUSH1 0x7F AND SWAP2 PUSH2 0x2937 JUMP JUMPDEST PUSH1 0x1 PUSH1 0x1 PUSH1 0x40 SHL SUB DUP2 GT PUSH2 0xF7C JUMPI PUSH1 0x40 MSTORE JUMP JUMPDEST PUSH1 0xE0 DUP2 ADD SWAP1 DUP2 LT PUSH1 0x1 PUSH1 0x1 PUSH1 0x40 SHL SUB DUP3 GT OR PUSH2 0xF7C JUMPI PUSH1 0x40 MSTORE JUMP JUMPDEST PUSH1 0x20 DUP2 ADD SWAP1 DUP2 LT PUSH1 0x1 PUSH1 0x1 PUSH1 0x40 SHL SUB DUP3 GT OR PUSH2 0xF7C JUMPI PUSH1 0x40 MSTORE JUMP JUMPDEST SWAP1 PUSH1 0x1F DUP1 NOT SWAP2 ADD AND DUP2 ADD SWAP1 DUP2 LT PUSH1 0x1 PUSH1 0x1 PUSH1 0x40 SHL SUB DUP3 GT OR PUSH2 0xF7C JUMPI PUSH1 0x40 MSTORE JUMP JUMPDEST SWAP1 PUSH1 0x40 MLOAD SWAP2 DUP3 PUSH1 0x0 DUP3 SLOAD SWAP3 PUSH2 0x29E0 DUP5 PUSH2 0x2928 JUMP JUMPDEST SWAP1 DUP2 DUP5 MSTORE PUSH1 0x1 SWAP5 DUP6 DUP2 AND SWAP1 DUP2 PUSH1 0x0 EQ PUSH2 0x2A4F JUMPI POP PUSH1 0x1 EQ PUSH2 0x2A0C JUMPI JUMPDEST POP POP PUSH2 0x2A0A SWAP3 POP SUB DUP4 PUSH2 0x29AB JUMP JUMPDEST JUMP JUMPDEST SWAP1 SWAP4 SWAP2 POP PUSH1 0x0 MSTORE PUSH1 0x20 SWAP1 DUP2 PUSH1 0x0 KECCAK256 SWAP4 PUSH1 0x0 SWAP2 JUMPDEST DUP2 DUP4 LT PUSH2 0x2A37 JUMPI POP POP PUSH2 0x2A0A SWAP4 POP DUP3 ADD ADD CODESIZE DUP1 PUSH2 0x29FC JUMP JUMPDEST DUP6 SLOAD DUP9 DUP5 ADD DUP6 ADD MSTORE SWAP5 DUP6 ADD SWAP5 DUP8 SWAP5 POP SWAP2 DUP4 ADD SWAP2 PUSH2 0x2A1F JUMP JUMPDEST SWAP2 POP POP PUSH2 0x2A0A SWAP5 POP PUSH1 0x20 SWAP3 POP PUSH1 0xFF NOT AND DUP3 DUP5 ADD MSTORE ISZERO ISZERO PUSH1 0x5 SHL DUP3 ADD ADD CODESIZE DUP1 PUSH2 0x29FC JUMP JUMPDEST PUSH1 0x1 PUSH1 0x1 PUSH1 0x40 SHL SUB DUP2 GT PUSH2 0xF7C JUMPI PUSH1 0x5 SHL PUSH1 0x20 ADD SWAP1 JUMP JUMPDEST PUSH1 0x1 PUSH1 0x1 PUSH1 0x40 SHL SUB DUP2 GT PUSH2 0xF7C JUMPI PUSH1 0x1F ADD PUSH1 0x1F NOT AND PUSH1 0x20 ADD SWAP1 JUMP JUMPDEST SWAP2 SWAP1 SWAP2 DUP3 MLOAD PUSH1 0x1 PUSH1 0x1 PUSH1 0x40 SHL SUB DUP2 GT PUSH2 0xF7C JUMPI PUSH2 0x2AC1 DUP3 SLOAD PUSH2 0x2928 JUMP JUMPDEST PUSH1 0x1F DUP2 GT PUSH2 0x2B6B JUMPI JUMPDEST POP PUSH1 0x20 DUP1 PUSH1 0x1F DUP4 GT PUSH1 0x1 EQ PUSH2 0x2B07 JUMPI POP DUP2 SWAP3 SWAP4 SWAP5 PUSH1 0x0 SWAP3 PUSH2 0x2AFC JUMPI JUMPDEST POP POP DUP2 PUSH1 0x1 SHL SWAP2 PUSH1 0x0 NOT SWAP1 PUSH1 0x3 SHL SHR NOT AND OR SWAP1 SSTORE JUMP JUMPDEST ADD MLOAD SWAP1 POP CODESIZE DUP1 PUSH2 0x2AE6 JUMP JUMPDEST SWAP1 PUSH1 0x1F NOT DUP4 AND SWAP6 DUP5 PUSH1 0x0 MSTORE DUP3 PUSH1 0x0 KECCAK256 SWAP3 PUSH1 0x0 SWAP1 JUMPDEST DUP9 DUP3 LT PUSH2 0x2B53 JUMPI POP POP DUP4 PUSH1 0x1 SWAP6 SWAP7 SWAP8 LT PUSH2 0x2B3A JUMPI JUMPDEST POP POP POP DUP2 SHL ADD SWAP1 SSTORE JUMP JUMPDEST ADD MLOAD PUSH1 0x0 NOT PUSH1 0xF8 DUP5 PUSH1 0x3 SHL AND SHR NOT AND SWAP1 SSTORE CODESIZE DUP1 DUP1 PUSH2 0x2B30 JUMP JUMPDEST DUP1 PUSH1 0x1 DUP6 SWAP7 DUP3 SWAP5 SWAP7 DUP7 ADD MLOAD DUP2 SSTORE ADD SWAP6 ADD SWAP4 ADD SWAP1 PUSH2 0x2B1B JUMP JUMPDEST PUSH1 0x0 DUP4 DUP2 MSTORE PUSH1 0x20 DUP2 KECCAK256 PUSH1 0x1F DUP5 ADD PUSH1 0x5 SHR DUP2 ADD SWAP3 PUSH1 0x20 DUP6 LT PUSH2 0x2BA9 JUMPI JUMPDEST PUSH1 0x1F ADD PUSH1 0x5 SHR ADD SWAP2 JUMPDEST DUP3 DUP2 LT PUSH2 0x2B9E JUMPI POP POP PUSH2 0x2ACA JUMP JUMPDEST DUP2 DUP2 SSTORE PUSH1 0x1 ADD PUSH2 0x2B90 JUMP JUMPDEST SWAP1 SWAP3 POP DUP3 SWAP1 PUSH2 0x2B87 JUMP JUMPDEST PUSH1 0xFF PUSH1 0x9 SWAP2 AND MUL SWAP1 PUSH1 0xFF DUP3 AND SWAP2 DUP3 SUB PUSH2 0x1FC1 JUMPI JUMP JUMPDEST DUP1 MLOAD DUP3 LT ISZERO PUSH2 0x2BDC JUMPI PUSH1 0x20 SWAP2 PUSH1 0x5 SHL ADD ADD SWAP1 JUMP JUMPDEST PUSH4 0x4E487B71 PUSH1 0xE0 SHL PUSH1 0x0 MSTORE PUSH1 0x32 PUSH1 0x4 MSTORE PUSH1 0x24 PUSH1 0x0 REVERT JUMPDEST SWAP2 SWAP1 DUP2 LT ISZERO PUSH2 0x2BDC JUMPI PUSH1 0x5 SHL ADD SWAP1 JUMP JUMPDEST CALLDATALOAD PUSH1 0xFF DUP2 AND DUP2 SUB PUSH2 0x7F1 JUMPI SWAP1 JUMP JUMPDEST ISZERO PUSH2 0x2C17 JUMPI JUMP JUMPDEST PUSH1 0x40 MLOAD PUSH3 0x461BCD PUSH1 0xE5 SHL DUP2 MSTORE PUSH1 0x20 PUSH1 0x4 DUP3 ADD MSTORE PUSH1 0x2B PUSH1 0x24 DUP3 ADD MSTORE PUSH32 0x7820616E64207920696E7075742061727261797320617265206F662076617269 PUSH1 0x44 DUP3 ADD MSTORE PUSH11 0x6F7573206C656E67746873 PUSH1 0xA8 SHL PUSH1 0x64 DUP3 ADD MSTORE PUSH1 0x84 SWAP1 REVERT JUMPDEST SWAP1 DUP2 PUSH1 0x20 SWAP2 SUB SLT PUSH2 0x7F1 JUMPI MLOAD DUP1 ISZERO ISZERO DUP2 SUB PUSH2 0x7F1 JUMPI SWAP1 JUMP JUMPDEST SWAP3 SWAP2 SWAP1 PUSH2 0x2C96 DUP4 DUP3 EQ PUSH2 0x2C10 JUMP JUMPDEST PUSH1 0x0 JUMPDEST DUP2 DUP2 LT PUSH2 0x2CA7 JUMPI POP POP POP POP POP JUMP JUMPDEST PUSH2 0x2CC6 PUSH2 0x2CB8 PUSH2 0x27B DUP4 DUP6 DUP10 PUSH2 0x2BF2 JUMP JUMPDEST PUSH2 0x28E PUSH2 0x27B DUP5 DUP9 DUP9 PUSH2 0x2BF2 JUMP JUMPDEST PUSH2 0xA31 JUMPI PUSH1 0xFF DUP1 PUSH2 0x2CDB PUSH2 0x27B DUP5 DUP7 DUP11 PUSH2 0x2BF2 JUMP JUMPDEST AND PUSH1 0x0 MSTORE PUSH1 0x8 PUSH1 0x20 DUP2 DUP2 MSTORE PUSH1 0x40 SWAP1 DUP2 PUSH1 0x0 KECCAK256 DUP5 PUSH2 0x2CFC PUSH2 0x27B DUP9 DUP13 DUP13 PUSH2 0x2BF2 JUMP JUMPDEST AND PUSH1 0x0 MSTORE DUP2 MSTORE PUSH1 0x1 DUP1 PUSH1 0xA0 SHL SUB CALLER DUP2 DUP5 PUSH1 0x0 KECCAK256 SLOAD AND SUB PUSH2 0x30EF JUMPI DUP5 PUSH2 0x2D25 PUSH2 0x27B DUP9 DUP11 DUP15 PUSH2 0x2BF2 JUMP JUMPDEST AND PUSH1 0x0 MSTORE DUP4 DUP3 MSTORE DUP3 PUSH1 0x0 KECCAK256 DUP6 PUSH2 0x2D3F PUSH2 0x27B DUP10 DUP14 DUP14 PUSH2 0x2BF2 JUMP JUMPDEST AND PUSH1 0x0 MSTORE DUP3 MSTORE PUSH1 0x2 SWAP1 DUP9 DUP11 DUP10 DUP14 TIMESTAMP DUP7 DUP10 PUSH1 0x0 KECCAK256 ADD SLOAD SUB PUSH2 0x2D6C JUMPI JUMPDEST POP POP POP POP POP POP POP POP POP POP PUSH1 0x1 ADD PUSH2 0x2C99 JUMP JUMPDEST DUP11 PUSH2 0x2D8C SWAP5 SWAP4 PUSH2 0x2D86 PUSH2 0x27B DUP4 PUSH2 0x3CA SWAP7 PUSH2 0x27B SWAP7 PUSH2 0x2BF2 JUMP JUMPDEST SWAP5 PUSH2 0x2BF2 JUMP JUMPDEST SWAP1 PUSH1 0x4 DUP2 DUP2 SLOAD AND SWAP2 DUP7 MLOAD PUSH4 0x70A08231 PUSH1 0xE0 SHL DUP2 MSTORE CALLER DUP4 DUP3 ADD MSTORE PUSH1 0x24 SWAP1 DUP8 DUP2 DUP4 DUP2 DUP9 GAS STATICCALL SWAP1 DUP2 ISZERO PUSH2 0x3063 JUMPI SWAP1 DUP7 SWAP2 PUSH1 0x0 SWAP2 PUSH2 0x30BF JUMPI JUMPDEST POP LT PUSH2 0x306E JUMPI DUP8 MLOAD PUSH4 0x6EB1769F PUSH1 0xE1 SHL DUP2 MSTORE CALLER DUP5 DUP3 ADD SWAP1 DUP2 MSTORE ADDRESS PUSH1 0x20 DUP3 ADD MSTORE DUP9 SWAP1 DUP3 SWAP1 DUP2 SWAP1 PUSH1 0x40 ADD SUB DUP2 DUP9 GAS STATICCALL SWAP1 DUP2 ISZERO PUSH2 0x3063 JUMPI SWAP1 DUP7 SWAP2 PUSH1 0x0 SWAP2 PUSH2 0x3033 JUMPI JUMPDEST POP LT PUSH2 0x2FE2 JUMPI POP DUP5 SLOAD DUP8 MLOAD PUSH4 0x23B872DD PUSH1 0xE0 SHL DUP2 MSTORE CALLER SWAP4 DUP2 ADD SWAP4 DUP5 MSTORE SWAP2 AND PUSH1 0x1 PUSH1 0x1 PUSH1 0xA0 SHL SUB AND PUSH1 0x20 DUP4 ADD MSTORE PUSH1 0x40 DUP3 ADD SWAP4 SWAP1 SWAP4 MSTORE DUP5 SWAP2 DUP4 SWAP2 DUP3 SWAP1 PUSH1 0x0 SWAP1 DUP3 SWAP1 PUSH1 0x60 ADD SUB SWAP3 GAS CALL DUP1 ISZERO PUSH2 0x2FD7 JUMPI SWAP3 DUP7 PUSH2 0x2EAD PUSH2 0x27B DUP11 DUP16 DUP16 SWAP10 SWAP8 SWAP1 DUP16 SWAP8 SWAP2 DUP16 SWAP3 PUSH1 0x1 SWAP16 SWAP15 PUSH2 0x2E9A DUP2 SWAP16 SWAP14 DUP16 DUP16 SWAP1 DUP16 DUP16 SWAP7 SWAP3 DUP16 DUP8 PUSH2 0x2E8C PUSH2 0x27B DUP16 DUP16 DUP16 DUP3 SWAP11 PUSH2 0x27B SWAP13 PUSH2 0x2FBA JUMPI JUMPDEST POP PUSH2 0x2BF2 JUMP JUMPDEST AND PUSH1 0x0 MSTORE MSTORE PUSH1 0x0 KECCAK256 SWAP6 PUSH2 0x2BF2 JUMP JUMPDEST AND PUSH1 0x0 MSTORE DUP9 MSTORE TIMESTAMP SWAP1 DUP11 PUSH1 0x0 KECCAK256 ADD SSTORE PUSH2 0x2BF2 JUMP JUMPDEST AND PUSH1 0x0 MSTORE DUP4 DUP2 MSTORE DUP3 PUSH1 0x0 KECCAK256 DUP7 PUSH2 0x2EC7 PUSH2 0x27B DUP11 DUP10 DUP8 PUSH2 0x2BF2 JUMP JUMPDEST AND PUSH1 0x0 MSTORE DUP2 MSTORE DUP6 DUP10 DUP14 DUP10 DUP4 DUP8 PUSH1 0x0 KECCAK256 SLOAD PUSH1 0xA8 SHR AND PUSH2 0x2F3D JUMPI JUMPDEST SWAP6 POP SWAP3 POP SWAP3 POP POP PUSH2 0x2EF6 SWAP5 POP PUSH2 0x27B SWAP4 POP PUSH2 0x2BF2 JUMP JUMPDEST SWAP1 DUP1 PUSH2 0x2F06 PUSH2 0x27B DUP6 DUP11 DUP11 PUSH2 0x2BF2 JUMP JUMPDEST AND SWAP2 AND PUSH32 0xE61AF2269C9AFBDB69EFCE2B15F2A464F8EE6237F105B3D4024F2E824A9F0AF3 PUSH1 0x0 DUP1 LOG3 SWAP1 CODESIZE DUP1 DUP1 DUP1 DUP1 DUP9 DUP11 DUP10 DUP14 PUSH2 0x2D5A JUMP JUMPDEST PUSH1 0x0 SWAP9 PUSH1 0x3 SWAP9 PUSH2 0x2FA4 SWAP5 PUSH2 0x27B SWAP5 DUP8 SWAP2 PUSH2 0x2F96 SWAP2 DUP8 SWAP2 DUP8 SWAP2 DUP15 DUP15 DUP15 DUP9 PUSH2 0x2F7E DUP9 DUP9 DUP15 DUP15 DUP6 PUSH2 0x2F6D DUP6 DUP6 DUP15 DUP15 PUSH2 0x2BF2 JUMP JUMPDEST AND PUSH1 0x0 MSTORE DUP7 MSTORE PUSH1 0x0 DUP9 SWAP1 KECCAK256 SWAP7 PUSH2 0x2BF2 JUMP JUMPDEST AND PUSH1 0x0 MSTORE MSTORE PUSH1 0x0 KECCAK256 PUSH1 0xFF PUSH1 0xA8 SHL NOT DUP2 SLOAD AND SWAP1 SSTORE PUSH2 0x2BF2 JUMP JUMPDEST AND DUP12 MSTORE DUP7 MSTORE DUP8 DUP11 KECCAK256 SWAP7 PUSH2 0x2BF2 JUMP JUMPDEST AND DUP6 MSTORE MSTORE DUP3 KECCAK256 ADD SSTORE DUP6 CODESIZE DUP1 DUP8 DUP2 DUP6 DUP10 DUP14 DUP10 PUSH2 0x2EE0 JUMP JUMPDEST PUSH2 0x2FD0 SWAP1 DUP9 RETURNDATASIZE DUP11 GT PUSH2 0x775 JUMPI PUSH2 0x766 DUP2 DUP4 PUSH2 0x29AB JUMP JUMPDEST POP CODESIZE PUSH2 0x2E86 JUMP JUMPDEST DUP5 MLOAD RETURNDATASIZE PUSH1 0x0 DUP3 RETURNDATACOPY RETURNDATASIZE SWAP1 REVERT JUMPDEST DUP3 PUSH1 0x27 PUSH1 0x84 SWAP3 DUP10 DUP12 MLOAD SWAP4 PUSH3 0x461BCD PUSH1 0xE5 SHL DUP6 MSTORE DUP5 ADD MSTORE DUP3 ADD MSTORE PUSH32 0x696E73756666696369656E7420616C6C6F77616E636520746F2070617920726F PUSH1 0x44 DUP3 ADD MSTORE PUSH7 0x79616C74696573 PUSH1 0xC8 SHL PUSH1 0x64 DUP3 ADD MSTORE REVERT JUMPDEST SWAP2 POP DUP9 DUP3 DUP2 RETURNDATASIZE DUP4 GT PUSH2 0x305C JUMPI JUMPDEST PUSH2 0x304A DUP2 DUP4 PUSH2 0x29AB JUMP JUMPDEST DUP2 ADD SUB SLT PUSH2 0x1E7 JUMPI POP DUP6 SWAP1 MLOAD CODESIZE PUSH2 0x2E00 JUMP JUMPDEST POP RETURNDATASIZE PUSH2 0x3040 JUMP JUMPDEST DUP10 MLOAD RETURNDATASIZE PUSH1 0x0 DUP3 RETURNDATACOPY RETURNDATASIZE SWAP1 REVERT JUMPDEST DUP3 PUSH1 0x27 PUSH1 0x84 SWAP3 DUP10 DUP12 MLOAD SWAP4 PUSH3 0x461BCD PUSH1 0xE5 SHL DUP6 MSTORE DUP5 ADD MSTORE DUP3 ADD MSTORE PUSH32 0x6E6F742073756666696369656E742062616C616E636520746F2070617920726F PUSH1 0x44 DUP3 ADD MSTORE PUSH7 0x79616C74696573 PUSH1 0xC8 SHL PUSH1 0x64 DUP3 ADD MSTORE REVERT JUMPDEST SWAP2 POP DUP9 DUP3 DUP2 RETURNDATASIZE DUP4 GT PUSH2 0x30E8 JUMPI JUMPDEST PUSH2 0x30D6 DUP2 DUP4 PUSH2 0x29AB JUMP JUMPDEST DUP2 ADD SUB SLT PUSH2 0x1E7 JUMPI POP DUP6 SWAP1 MLOAD CODESIZE PUSH2 0x2DC1 JUMP JUMPDEST POP RETURNDATASIZE PUSH2 0x30CC JUMP JUMPDEST POP PUSH1 0x84 SWAP2 MLOAD SWAP1 PUSH3 0x461BCD PUSH1 0xE5 SHL DUP3 MSTORE PUSH1 0x4 DUP3 ADD MSTORE PUSH1 0x22 PUSH1 0x24 DUP3 ADD MSTORE PUSH32 0x6F6E6C7920706978656C206F776E65722063616E2070617920726F79616C7469 PUSH1 0x44 DUP3 ADD MSTORE PUSH2 0x6573 PUSH1 0xF0 SHL PUSH1 0x64 DUP3 ADD MSTORE REVERT JUMPDEST ISZERO PUSH2 0x3144 JUMPI JUMP JUMPDEST PUSH1 0x40 MLOAD PUSH3 0x461BCD PUSH1 0xE5 SHL DUP2 MSTORE PUSH1 0x20 PUSH1 0x4 DUP3 ADD MSTORE PUSH1 0x23 PUSH1 0x24 DUP3 ADD MSTORE PUSH32 0x6E6F742073756666696369656E742062616C616E636520746F20627579207069 PUSH1 0x44 DUP3 ADD MSTORE PUSH3 0x1E195B PUSH1 0xEA SHL PUSH1 0x64 DUP3 ADD MSTORE PUSH1 0x84 SWAP1 REVERT JUMPDEST ISZERO PUSH2 0x319C JUMPI JUMP JUMPDEST PUSH1 0x40 MLOAD PUSH3 0x461BCD PUSH1 0xE5 SHL DUP2 MSTORE PUSH1 0x20 PUSH1 0x4 DUP3 ADD MSTORE PUSH1 0x23 PUSH1 0x24 DUP3 ADD MSTORE PUSH32 0x696E73756666696369656E7420616C6C6F77616E636520746F20627579207069 PUSH1 0x44 DUP3 ADD MSTORE PUSH3 0x1E195B PUSH1 0xEA SHL PUSH1 0x64 DUP3 ADD MSTORE PUSH1 0x84 SWAP1 REVERT JUMPDEST SWAP2 SWAP1 DUP3 SUB SWAP2 DUP3 GT PUSH2 0x1FC1 JUMPI JUMP JUMPDEST ISZERO PUSH2 0x3201 JUMPI JUMP JUMPDEST PUSH1 0x40 MLOAD PUSH3 0x461BCD PUSH1 0xE5 SHL DUP2 MSTORE PUSH1 0x20 PUSH1 0x4 DUP3 ADD MSTORE PUSH1 0x2C PUSH1 0x24 DUP3 ADD MSTORE PUSH32 0x6F776E65722063757272656E74206D616E616765722063616E2063616C6C2074 PUSH1 0x44 DUP3 ADD MSTORE PUSH12 0x3434B990333AB731BA34B7B7 PUSH1 0xA1 SHL PUSH1 0x64 DUP3 ADD MSTORE PUSH1 0x84 SWAP1 REVERT JUMPDEST PUSH1 0x40 MLOAD SWAP1 PUSH2 0x3268 DUP3 PUSH2 0x2975 JUMP JUMPDEST PUSH1 0x60 PUSH1 0xC0 DUP4 PUSH1 0x0 DUP1 DUP3 MSTORE DUP1 PUSH1 0x20 DUP4 ADD MSTORE DUP1 PUSH1 0x40 DUP4 ADD MSTORE DUP1 DUP5 DUP4 ADD MSTORE DUP1 PUSH1 0x80 DUP4 ADD MSTORE PUSH1 0xA0 DUP3 ADD MSTORE ADD MSTORE JUMP JUMPDEST PUSH1 0xFF SWAP1 PUSH2 0x329D PUSH2 0x325B JUMP JUMPDEST POP AND SWAP1 PUSH1 0x40 SWAP2 DUP3 DUP2 LT DUP1 PUSH2 0x3366 JUMPI JUMPDEST ISZERO PUSH2 0x332C JUMPI PUSH1 0x0 MSTORE PUSH1 0x8 PUSH1 0x20 MSTORE PUSH1 0xFF DUP3 PUSH1 0x0 KECCAK256 SWAP2 AND PUSH1 0x0 MSTORE PUSH1 0x20 MSTORE PUSH2 0x3324 PUSH1 0x4 DUP3 PUSH1 0x0 KECCAK256 DUP4 MLOAD SWAP4 PUSH2 0x32DC DUP6 PUSH2 0x2975 JUMP JUMPDEST PUSH1 0xFF DUP3 SLOAD PUSH1 0x1 DUP1 PUSH1 0xA0 SHL SUB DUP2 AND DUP8 MSTORE DUP2 DUP2 PUSH1 0xA0 SHR AND PUSH1 0x20 DUP9 ADD MSTORE PUSH1 0xA8 SHR AND ISZERO ISZERO SWAP1 DUP6 ADD MSTORE PUSH1 0x1 DUP2 ADD SLOAD PUSH1 0x60 DUP6 ADD MSTORE PUSH1 0x2 DUP2 ADD SLOAD PUSH1 0x80 DUP6 ADD MSTORE PUSH1 0x3 DUP2 ADD SLOAD PUSH1 0xA0 DUP6 ADD MSTORE ADD PUSH2 0x29CC JUMP JUMPDEST PUSH1 0xC0 DUP3 ADD MSTORE SWAP1 JUMP JUMPDEST DUP3 MLOAD PUSH3 0x461BCD PUSH1 0xE5 SHL DUP2 MSTORE PUSH1 0x20 PUSH1 0x4 DUP3 ADD MSTORE PUSH1 0x13 PUSH1 0x24 DUP3 ADD MSTORE PUSH19 0x706978656C206F7574206F6620626F756E6473 PUSH1 0x68 SHL PUSH1 0x44 DUP3 ADD MSTORE PUSH1 0x64 SWAP1 REVERT JUMPDEST POP DUP3 PUSH1 0xFF DUP4 AND LT PUSH2 0x32AC JUMP JUMPDEST PUSH1 0xFF PUSH1 0x40 SWAP2 AND LT SWAP1 DUP2 ISZERO SWAP2 PUSH2 0x3385 JUMPI POP SWAP1 JUMP JUMPDEST PUSH1 0x40 SWAP2 POP PUSH1 0xFF AND LT ISZERO SWAP1 JUMP JUMPDEST DUP2 DUP2 MUL SWAP3 SWAP2 DUP2 ISZERO SWAP2 DUP5 DIV EQ OR ISZERO PUSH2 0x1FC1 JUMPI JUMP JUMPDEST PUSH2 0x33FD PUSH5 0x73DF16000 SWAP3 PUSH1 0x1 PUSH1 0x40 PUSH1 0xFF PUSH2 0x340C SWAP6 AND SWAP3 PUSH1 0x0 SWAP1 DUP5 DUP3 MSTORE PUSH1 0x8 PUSH1 0x20 MSTORE PUSH1 0xFF DUP4 DUP4 KECCAK256 SWAP2 AND SWAP1 DUP2 DUP4 MSTORE PUSH1 0x20 MSTORE PUSH2 0x33E3 PUSH1 0x2 DUP5 DUP5 KECCAK256 ADD SLOAD TIMESTAMP PUSH2 0x31ED JUMP JUMPDEST SWAP5 DUP3 MSTORE PUSH1 0x8 PUSH1 0x20 MSTORE DUP3 DUP3 KECCAK256 SWAP1 DUP3 MSTORE PUSH1 0x20 MSTORE KECCAK256 ADD SLOAD SWAP1 PUSH2 0x3391 JUMP JUMPDEST PUSH1 0xFF PUSH1 0x2 SLOAD PUSH1 0xA0 SHR AND SWAP1 PUSH2 0x3391 JUMP JUMPDEST DIV SWAP1 JUMP JUMPDEST ISZERO PUSH2 0x3417 JUMPI JUMP JUMPDEST PUSH1 0x40 MLOAD PUSH3 0x461BCD PUSH1 0xE5 SHL DUP2 MSTORE PUSH1 0x20 PUSH1 0x4 DUP3 ADD MSTORE PUSH1 0x19 PUSH1 0x24 DUP3 ADD MSTORE PUSH32 0x61756374696F6E2068617320656E64656420616C726561647900000000000000 PUSH1 0x44 DUP3 ADD MSTORE PUSH1 0x64 SWAP1 REVERT JUMPDEST ISZERO PUSH2 0x3463 JUMPI JUMP JUMPDEST PUSH1 0x40 MLOAD PUSH3 0x461BCD PUSH1 0xE5 SHL DUP2 MSTORE PUSH1 0x20 PUSH1 0x4 DUP3 ADD MSTORE PUSH1 0x1B PUSH1 0x24 DUP3 ADD MSTORE PUSH32 0x61756374696F6E20686173206E6F742073746172746564207965740000000000 PUSH1 0x44 DUP3 ADD MSTORE PUSH1 0x64 SWAP1 REVERT JUMPDEST RETURNDATASIZE ISZERO PUSH2 0x34D3 JUMPI RETURNDATASIZE SWAP1 PUSH2 0x34B9 DUP3 PUSH2 0x2A89 JUMP JUMPDEST SWAP2 PUSH2 0x34C7 PUSH1 0x40 MLOAD SWAP4 DUP5 PUSH2 0x29AB JUMP JUMPDEST DUP3 MSTORE RETURNDATASIZE PUSH1 0x0 PUSH1 0x20 DUP5 ADD RETURNDATACOPY JUMP JUMPDEST PUSH1 0x60 SWAP1 JUMP JUMPDEST PUSH1 0x2 PUSH1 0x0 SLOAD EQ PUSH2 0x34E9 JUMPI PUSH1 0x2 PUSH1 0x0 SSTORE JUMP JUMPDEST PUSH1 0x40 MLOAD PUSH4 0x3EE5AEB5 PUSH1 0xE0 SHL DUP2 MSTORE PUSH1 0x4 SWAP1 REVERT JUMPDEST PUSH1 0xFF SWAP1 SWAP4 SWAP2 SWAP4 AND SWAP2 DUP3 ISZERO PUSH2 0x3BA0 JUMPI PUSH1 0x1 DUP4 EQ PUSH2 0x3AD1 JUMPI PUSH1 0x2 DUP4 EQ PUSH2 0x3AA7 JUMPI PUSH1 0x3 DUP4 EQ PUSH2 0x3A4B JUMPI PUSH1 0x4 SWAP3 DUP4 DUP2 EQ PUSH2 0x39F7 JUMPI PUSH1 0x5 DUP2 EQ PUSH2 0x389A JUMPI PUSH1 0x6 DUP2 EQ PUSH2 0x3848 JUMPI PUSH1 0x7 DUP2 EQ PUSH2 0x37E1 JUMPI PUSH1 0x8 DUP2 EQ PUSH2 0x36FE JUMPI PUSH1 0x9 EQ PUSH2 0x3569 JUMPI POP POP POP POP PUSH1 0x40 MLOAD PUSH2 0x3562 DUP2 PUSH2 0x2990 JUMP JUMPDEST PUSH1 0x0 DUP2 MSTORE SWAP1 JUMP JUMPDEST PUSH2 0x3572 DUP5 PUSH2 0x3CDF JUMP JUMPDEST SWAP1 PUSH2 0x357C DUP2 PUSH2 0x3CDF JUMP JUMPDEST PUSH1 0x8 DUP7 ADD DUP1 DUP8 GT PUSH2 0x36E9 JUMPI PUSH2 0x3590 SWAP1 PUSH2 0x3CDF JUMP JUMPDEST SWAP5 PUSH1 0x8 DUP4 ADD DUP1 SWAP4 GT PUSH2 0x36D4 JUMPI POP SWAP2 PUSH2 0x36B8 DUP3 PUSH2 0x28EC SWAP7 SWAP5 PUSH2 0x35C5 PUSH2 0x35BF PUSH2 0x35B9 PUSH1 0x49 SWAP10 SWAP8 PUSH2 0x3CDF JUMP JUMPDEST SWAP11 PUSH2 0x3CDF JUMP JUMPDEST SWAP3 PUSH2 0x3CDF JUMP JUMPDEST SWAP2 PUSH1 0x40 MLOAD SWAP10 DUP11 SWAP8 PUSH1 0x2A PUSH2 0x35F5 DUP11 PUSH1 0x20 SWAP10 PUSH10 0x3C7061746820643D224D PUSH1 0xB0 SHL DUP12 DUP4 ADD MSTORE DUP11 DUP2 MLOAD SWAP5 DUP6 SWAP4 ADD SWAP2 ADD PUSH2 0x2848 JUMP JUMPDEST DUP10 ADD SWAP4 PUSH1 0x1 PUSH1 0xFD SHL SWAP5 DUP6 PUSH1 0x2A DUP3 ADD MSTORE PUSH2 0x3617 DUP3 MLOAD DUP1 SWAP4 DUP12 PUSH1 0x2B DUP6 ADD SWAP2 ADD PUSH2 0x2848 JUMP JUMPDEST ADD PUSH12 0x10209C101C1018101810189 PUSH1 0xA5 SHL PUSH1 0x2B DUP3 ADD MSTORE PUSH2 0x3640 DUP3 MLOAD DUP1 SWAP4 DUP11 PUSH1 0x37 DUP6 ADD SWAP2 ADD PUSH2 0x2848 JUMP JUMPDEST ADD DUP4 PUSH1 0x37 DUP3 ADD MSTORE PUSH2 0x365A DUP3 MLOAD DUP1 SWAP4 DUP10 PUSH1 0x38 DUP6 ADD SWAP2 ADD PUSH2 0x2848 JUMP JUMPDEST ADD PUSH2 0x813 PUSH1 0xF2 SHL PUSH1 0x38 DUP3 ADD MSTORE PUSH2 0x3679 DUP3 MLOAD DUP1 SWAP4 DUP9 PUSH1 0x3A DUP6 ADD SWAP2 ADD PUSH2 0x2848 JUMP JUMPDEST ADD SWAP1 PUSH1 0x3A DUP3 ADD MSTORE PUSH2 0x3693 DUP3 MLOAD DUP1 SWAP4 DUP7 PUSH1 0x3B DUP6 ADD SWAP2 ADD PUSH2 0x2848 JUMP JUMPDEST ADD SWAP2 PUSH10 0x102D11103334B6361E91 PUSH1 0xB1 SHL PUSH1 0x3B DUP5 ADD MSTORE DUP4 MLOAD SWAP4 DUP5 SWAP2 PUSH1 0x45 DUP6 ADD SWAP2 ADD PUSH2 0x2848 JUMP JUMPDEST ADD PUSH4 0x1110179F PUSH1 0xE1 SHL PUSH1 0x45 DUP3 ADD MSTORE SUB PUSH1 0x29 DUP2 ADD DUP5 MSTORE ADD DUP3 PUSH2 0x29AB JUMP JUMPDEST PUSH1 0x11 SWAP1 PUSH4 0x4E487B71 PUSH1 0xE0 SHL PUSH1 0x0 MSTORE MSTORE PUSH1 0x24 PUSH1 0x0 REVERT JUMPDEST PUSH1 0x11 DUP7 PUSH4 0x4E487B71 PUSH1 0xE0 SHL PUSH1 0x0 MSTORE MSTORE PUSH1 0x24 PUSH1 0x0 REVERT JUMPDEST POP SWAP3 PUSH1 0x8 DUP2 ADD SWAP4 DUP5 DUP3 GT PUSH2 0x37CC JUMPI PUSH2 0x3715 DUP6 PUSH2 0x3CDF JUMP JUMPDEST SWAP2 PUSH2 0x3728 PUSH2 0x3722 DUP4 PUSH2 0x3CDF JUMP JUMPDEST SWAP2 PUSH2 0x3CDF JUMP JUMPDEST SWAP5 PUSH1 0x8 DUP4 ADD DUP1 SWAP4 GT PUSH2 0x36D4 JUMPI POP SWAP2 PUSH2 0x36B8 DUP3 PUSH2 0x28EC SWAP7 SWAP5 PUSH2 0x3751 PUSH2 0x35BF PUSH2 0x35B9 PUSH1 0x49 SWAP10 SWAP8 PUSH2 0x3CDF JUMP JUMPDEST SWAP2 PUSH1 0x40 MLOAD SWAP10 DUP11 SWAP8 PUSH1 0x2A PUSH2 0x3781 DUP11 PUSH1 0x20 SWAP10 PUSH10 0x3C7061746820643D224D PUSH1 0xB0 SHL DUP12 DUP4 ADD MSTORE DUP11 DUP2 MLOAD SWAP5 DUP6 SWAP4 ADD SWAP2 ADD PUSH2 0x2848 JUMP JUMPDEST DUP10 ADD SWAP4 PUSH1 0x1 PUSH1 0xFD SHL SWAP5 DUP6 PUSH1 0x2A DUP3 ADD MSTORE PUSH2 0x37A3 DUP3 MLOAD DUP1 SWAP4 DUP12 PUSH1 0x2B DUP6 ADD SWAP2 ADD PUSH2 0x2848 JUMP JUMPDEST ADD PUSH12 0x10209C101C1018101810181 PUSH1 0xA5 SHL PUSH1 0x2B DUP3 ADD MSTORE PUSH2 0x3640 DUP3 MLOAD DUP1 SWAP4 DUP11 PUSH1 0x37 DUP6 ADD SWAP2 ADD PUSH2 0x2848 JUMP JUMPDEST PUSH1 0x11 DUP5 PUSH4 0x4E487B71 PUSH1 0xE0 SHL PUSH1 0x0 MSTORE MSTORE PUSH1 0x24 PUSH1 0x0 REVERT JUMPDEST POP PUSH2 0x37EB DUP5 PUSH2 0x3CDF JUMP JUMPDEST SWAP1 PUSH2 0x37F5 DUP2 PUSH2 0x3CDF JUMP JUMPDEST PUSH1 0x8 DUP7 ADD DUP1 SWAP7 GT PUSH2 0x3833 JUMPI PUSH2 0x3809 DUP7 PUSH2 0x3CDF JUMP JUMPDEST SWAP5 PUSH1 0x8 DUP4 ADD SWAP1 DUP2 DUP5 GT PUSH2 0x36D4 JUMPI POP PUSH1 0x49 SWAP5 SWAP3 PUSH2 0x28EC SWAP7 SWAP5 SWAP3 PUSH2 0x3751 PUSH2 0x35BF PUSH2 0x35B9 PUSH2 0x36B8 SWAP6 PUSH2 0x3CDF JUMP JUMPDEST PUSH1 0x11 DUP6 PUSH4 0x4E487B71 PUSH1 0xE0 SHL PUSH1 0x0 MSTORE MSTORE PUSH1 0x24 PUSH1 0x0 REVERT JUMPDEST POP PUSH2 0x3852 DUP5 PUSH2 0x3CDF JUMP JUMPDEST SWAP1 PUSH1 0x8 DUP2 ADD DUP1 DUP3 GT PUSH2 0x3833 JUMPI PUSH2 0x3867 SWAP1 PUSH2 0x3CDF JUMP JUMPDEST SWAP4 PUSH1 0x8 DUP7 ADD SWAP1 DUP2 DUP8 GT PUSH2 0x36D4 JUMPI POP SWAP2 PUSH2 0x36B8 PUSH1 0x49 SWAP5 SWAP3 PUSH2 0x388A PUSH2 0x28EC SWAP8 SWAP6 PUSH2 0x3CDF JUMP JUMPDEST SWAP5 PUSH2 0x3751 PUSH2 0x35BF PUSH2 0x35B9 DUP5 PUSH2 0x3CDF JUMP JUMPDEST POP SWAP3 PUSH2 0x38A5 DUP2 PUSH2 0x3CDF JUMP JUMPDEST SWAP1 PUSH1 0x8 DUP6 ADD SWAP1 DUP2 DUP7 GT PUSH2 0x3833 JUMPI PUSH2 0x38BB DUP3 PUSH2 0x3CDF JUMP JUMPDEST SWAP1 PUSH2 0x38CE PUSH2 0x38C8 DUP3 PUSH2 0x3CDF JUMP JUMPDEST SWAP8 PUSH2 0x3CDF JUMP JUMPDEST SWAP6 PUSH1 0x8 DUP3 ADD DUP1 SWAP3 GT PUSH2 0x36D4 JUMPI POP PUSH1 0x3F SWAP5 SWAP3 PUSH2 0x28EC SWAP7 SWAP5 SWAP3 PUSH2 0x38F4 PUSH2 0x35BF PUSH2 0x39DB SWAP5 PUSH2 0x3CDF JUMP JUMPDEST SWAP2 PUSH1 0x40 MLOAD SWAP10 DUP11 SWAP8 PUSH1 0x2A PUSH2 0x3924 DUP11 PUSH1 0x20 SWAP10 PUSH10 0x3C7061746820643D224D PUSH1 0xB0 SHL DUP12 DUP4 ADD MSTORE DUP11 DUP2 MLOAD SWAP5 DUP6 SWAP4 ADD SWAP2 ADD PUSH2 0x2848 JUMP JUMPDEST DUP10 ADD SWAP4 PUSH1 0x1 PUSH1 0xFD SHL SWAP5 DUP6 PUSH1 0x2A DUP3 ADD MSTORE PUSH2 0x3946 DUP3 MLOAD DUP1 SWAP4 DUP12 PUSH1 0x2B DUP6 ADD SWAP2 ADD PUSH2 0x2848 JUMP JUMPDEST ADD SWAP2 PUSH2 0x813 PUSH1 0xF2 SHL SWAP3 DUP4 PUSH1 0x2B DUP3 ADD MSTORE PUSH2 0x3968 DUP3 MLOAD DUP1 SWAP4 DUP12 PUSH1 0x2D DUP6 ADD SWAP2 ADD PUSH2 0x2848 JUMP JUMPDEST ADD DUP5 PUSH1 0x2D DUP3 ADD MSTORE PUSH2 0x3982 DUP3 MLOAD DUP1 SWAP4 DUP11 PUSH1 0x2E DUP6 ADD SWAP2 ADD PUSH2 0x2848 JUMP JUMPDEST ADD SWAP1 PUSH1 0x2E DUP3 ADD MSTORE PUSH2 0x399C DUP3 MLOAD DUP1 SWAP4 DUP9 PUSH1 0x30 DUP6 ADD SWAP2 ADD PUSH2 0x2848 JUMP JUMPDEST ADD SWAP1 PUSH1 0x30 DUP3 ADD MSTORE PUSH2 0x39B6 DUP3 MLOAD DUP1 SWAP4 DUP7 PUSH1 0x31 DUP6 ADD SWAP2 ADD PUSH2 0x2848 JUMP JUMPDEST ADD SWAP2 PUSH10 0x103D11103334B6361E91 PUSH1 0xB1 SHL PUSH1 0x31 DUP5 ADD MSTORE DUP4 MLOAD SWAP4 DUP5 SWAP2 PUSH1 0x3B DUP6 ADD SWAP2 ADD PUSH2 0x2848 JUMP JUMPDEST ADD PUSH4 0x1110179F PUSH1 0xE1 SHL PUSH1 0x3B DUP3 ADD MSTORE SUB PUSH1 0x1F DUP2 ADD DUP5 MSTORE ADD DUP3 PUSH2 0x29AB JUMP JUMPDEST POP SWAP3 SWAP2 PUSH1 0x8 DUP4 ADD SWAP1 DUP2 DUP5 GT PUSH2 0x36D4 JUMPI PUSH2 0x3A0F DUP3 PUSH2 0x3CDF JUMP JUMPDEST SWAP2 PUSH1 0x8 DUP7 ADD SWAP2 DUP3 DUP8 GT PUSH2 0x36D4 JUMPI POP SWAP2 PUSH2 0x39DB DUP3 PUSH2 0x28EC SWAP7 SWAP5 PUSH2 0x38F4 PUSH2 0x35BF PUSH2 0x38C8 PUSH2 0x3A45 PUSH2 0x3A3F PUSH1 0x3F SWAP12 SWAP10 PUSH2 0x3CDF JUMP JUMPDEST SWAP5 PUSH2 0x3CDF JUMP JUMPDEST SWAP12 PUSH2 0x3CDF JUMP JUMPDEST SWAP2 POP PUSH2 0x3A56 DUP4 PUSH2 0x3CDF JUMP JUMPDEST SWAP3 PUSH2 0x3A60 DUP4 PUSH2 0x3CDF JUMP JUMPDEST SWAP2 PUSH1 0x8 DUP3 ADD DUP1 SWAP3 GT PUSH2 0x1FC1 JUMPI PUSH2 0x3A75 DUP3 PUSH2 0x3CDF JUMP JUMPDEST SWAP5 PUSH2 0x3A88 PUSH2 0x3A82 DUP7 PUSH2 0x3CDF JUMP JUMPDEST SWAP4 PUSH2 0x3CDF JUMP JUMPDEST SWAP5 PUSH1 0x8 DUP2 ADD DUP1 SWAP2 GT PUSH2 0x1FC1 JUMPI PUSH2 0x28EC SWAP6 PUSH1 0x3F SWAP6 PUSH2 0x38F4 PUSH2 0x39DB SWAP4 PUSH2 0x3CDF JUMP JUMPDEST SWAP2 POP PUSH2 0x3AB2 DUP4 PUSH2 0x3CDF JUMP JUMPDEST SWAP3 PUSH2 0x3ABC DUP4 PUSH2 0x3CDF JUMP JUMPDEST SWAP2 PUSH1 0x8 DUP3 ADD DUP1 DUP4 GT PUSH2 0x1FC1 JUMPI PUSH2 0x3A75 SWAP1 PUSH2 0x3CDF JUMP JUMPDEST SWAP2 POP SWAP2 PUSH1 0x4 DUP2 ADD DUP1 SWAP2 GT PUSH2 0x1FC1 JUMPI PUSH2 0x3AE8 SWAP1 PUSH2 0x3CDF JUMP JUMPDEST SWAP1 PUSH1 0x4 DUP2 ADD DUP1 SWAP2 GT PUSH2 0x1FC1 JUMPI PUSH2 0x28EC SWAP2 PUSH2 0x3B03 PUSH1 0x44 SWAP3 PUSH2 0x3CDF JUMP JUMPDEST SWAP4 PUSH1 0x40 MLOAD SWAP5 DUP6 SWAP3 PUSH12 0x1E31B4B931B6329031BC1E91 PUSH1 0xA1 SHL PUSH1 0x20 DUP6 ADD MSTORE PUSH2 0x3B33 DUP2 MLOAD DUP1 SWAP3 PUSH1 0x20 PUSH1 0x2C DUP9 ADD SWAP2 ADD PUSH2 0x2848 JUMP JUMPDEST DUP4 ADD PUSH6 0x111031BC9E91 PUSH1 0xD1 SHL PUSH1 0x2C DUP3 ADD MSTORE PUSH2 0x3B58 DUP3 MLOAD DUP1 SWAP4 PUSH1 0x20 PUSH1 0x32 DUP6 ADD SWAP2 ADD PUSH2 0x2848 JUMP JUMPDEST ADD PUSH14 0x1110391E911A11103334B6361E91 PUSH1 0x91 SHL PUSH1 0x32 DUP3 ADD MSTORE PUSH2 0x3B84 DUP3 MLOAD DUP1 SWAP4 PUSH1 0x20 PUSH1 0x40 DUP6 ADD SWAP2 ADD PUSH2 0x2848 JUMP JUMPDEST ADD PUSH4 0x1110179F PUSH1 0xE1 SHL PUSH1 0x40 DUP3 ADD MSTORE SUB PUSH1 0x24 DUP2 ADD DUP5 MSTORE ADD DUP3 PUSH2 0x29AB JUMP JUMPDEST PUSH2 0x28EC SWAP3 POP PUSH2 0x3BB4 PUSH2 0x3722 PUSH1 0x4F SWAP4 SWAP6 PUSH2 0x3CDF JUMP JUMPDEST SWAP4 PUSH1 0x40 MLOAD SWAP5 DUP6 SWAP3 PUSH9 0x1E3932B1BA103C1E91 PUSH1 0xB9 SHL PUSH1 0x20 DUP6 ADD MSTORE PUSH2 0x3BE1 DUP2 MLOAD DUP1 SWAP3 PUSH1 0x20 PUSH1 0x29 DUP9 ADD SWAP2 ADD PUSH2 0x2848 JUMP JUMPDEST DUP4 ADD PUSH5 0x11103C9E91 PUSH1 0xD9 SHL PUSH1 0x29 DUP3 ADD MSTORE PUSH2 0x3C05 DUP3 MLOAD DUP1 SWAP4 PUSH1 0x20 PUSH1 0x2E DUP6 ADD SWAP2 ADD PUSH2 0x2848 JUMP JUMPDEST ADD PUSH32 0x222077696474683D223822206865696768743D2238222066696C6C3D22000000 PUSH1 0x2E DUP3 ADD MSTORE PUSH2 0x3C40 DUP3 MLOAD DUP1 SWAP4 PUSH1 0x20 PUSH1 0x4B DUP6 ADD SWAP2 ADD PUSH2 0x2848 JUMP JUMPDEST ADD PUSH4 0x1110179F PUSH1 0xE1 SHL PUSH1 0x4B DUP3 ADD MSTORE SUB PUSH1 0x2F DUP2 ADD DUP5 MSTORE ADD DUP3 PUSH2 0x29AB JUMP JUMPDEST PUSH1 0x0 SWAP3 SWAP2 DUP2 SLOAD PUSH2 0x3C6B DUP2 PUSH2 0x2928 JUMP JUMPDEST SWAP3 PUSH1 0x1 SWAP2 DUP1 DUP4 AND SWAP1 DUP2 ISZERO PUSH2 0x3CC4 JUMPI POP PUSH1 0x1 EQ PUSH2 0x3C88 JUMPI JUMPDEST POP POP POP POP JUMP JUMPDEST SWAP1 SWAP2 SWAP3 SWAP4 SWAP5 POP PUSH1 0x0 MSTORE PUSH1 0x20 SWAP1 DUP2 PUSH1 0x0 KECCAK256 SWAP1 PUSH1 0x0 SWAP2 JUMPDEST DUP6 DUP4 LT PUSH2 0x3CB3 JUMPI POP POP POP POP ADD SWAP1 CODESIZE DUP1 DUP1 DUP1 PUSH2 0x3C82 JUMP JUMPDEST DUP1 SLOAD DUP6 DUP5 ADD MSTORE SWAP2 DUP4 ADD SWAP2 DUP2 ADD PUSH2 0x3C9D JUMP JUMPDEST PUSH1 0xFF NOT AND DUP5 MSTORE POP POP POP DUP2 ISZERO ISZERO SWAP1 SWAP2 MUL ADD SWAP2 POP CODESIZE DUP1 DUP1 DUP1 PUSH2 0x3C82 JUMP JUMPDEST DUP1 ISZERO PUSH2 0x3DA3 JUMPI DUP1 DUP2 PUSH1 0x0 SWAP3 JUMPDEST PUSH2 0x3D8B JUMPI POP DUP1 PUSH2 0x3CFA DUP4 PUSH2 0x2A89 JUMP JUMPDEST SWAP3 PUSH2 0x3D08 PUSH1 0x40 MLOAD SWAP5 DUP6 PUSH2 0x29AB JUMP JUMPDEST DUP1 DUP5 MSTORE PUSH1 0x1F NOT PUSH2 0x3D17 DUP3 PUSH2 0x2A89 JUMP JUMPDEST ADD CALLDATASIZE PUSH1 0x20 DUP7 ADD CALLDATACOPY SWAP2 JUMPDEST PUSH2 0x3D29 JUMPI POP POP SWAP1 JUMP JUMPDEST PUSH1 0x0 NOT DUP3 ADD SWAP2 DUP1 DUP4 GT PUSH2 0x1FC1 JUMPI DUP3 PUSH1 0xA SWAP1 DUP2 DUP5 DIV SWAP4 DUP3 DUP6 MUL SWAP3 DUP6 DUP5 DIV EQ DUP6 ISZERO OR ISZERO PUSH2 0x1FC1 JUMPI PUSH2 0x3D5B PUSH1 0xFF SWAP4 DUP5 SWAP3 PUSH2 0x31ED JUMP JUMPDEST AND PUSH1 0x30 ADD SWAP2 DUP3 GT PUSH2 0x1FC1 JUMPI DUP6 MLOAD GT ISZERO PUSH2 0x2BDC JUMPI PUSH1 0xF8 SHL PUSH1 0x1 PUSH1 0x1 PUSH1 0xF8 SHL SUB NOT AND PUSH1 0x0 BYTE SWAP1 DUP5 ADD PUSH1 0x1F ADD MSTORE8 DUP1 PUSH2 0x3D20 JUMP JUMPDEST SWAP2 PUSH1 0x0 NOT DUP2 EQ PUSH2 0x1FC1 JUMPI PUSH1 0x1 PUSH1 0xA SWAP2 ADD SWAP3 DIV DUP1 PUSH2 0x3CEB JUMP JUMPDEST POP PUSH1 0x40 MLOAD PUSH1 0x40 DUP2 ADD DUP2 DUP2 LT PUSH1 0x1 PUSH1 0x1 PUSH1 0x40 SHL SUB DUP3 GT OR PUSH2 0xF7C JUMPI PUSH1 0x40 MSTORE PUSH1 0x1 DUP2 MSTORE PUSH1 0x3 PUSH1 0xFC SHL PUSH1 0x20 DUP3 ADD MSTORE SWAP1 JUMP INVALID LOG2 PUSH5 0x6970667358 0x22 SLT KECCAK256 PC PUSH28 0x7E15C1B408DE8936E82A7D562BC986B82EC2BCA46D22CA42E90F8217 DUP14 0xAC PUSH5 0x736F6C6343 STOP ADDMOD EQ STOP CALLER PUSH1 0x80 DUP1 PUSH1 0x40 MSTORE CALLVALUE PUSH2 0x16 JUMPI PUSH2 0x799 SWAP1 DUP2 PUSH2 0x1C DUP3 CODECOPY RETURN JUMPDEST PUSH1 0x0 DUP1 REVERT INVALID PUSH1 0x80 PUSH1 0x40 MSTORE PUSH1 0x4 CALLDATASIZE LT ISZERO PUSH2 0x12 JUMPI PUSH1 0x0 DUP1 REVERT JUMPDEST PUSH1 0x0 DUP1 CALLDATALOAD PUSH1 0xE0 SHR SWAP1 DUP2 PUSH4 0x2E08D602 EQ PUSH2 0x7A JUMPI POP DUP1 PUSH4 0x58161A42 EQ PUSH2 0x75 JUMPI DUP1 PUSH4 0xB8616195 EQ PUSH2 0x70 JUMPI DUP1 PUSH4 0xCF06C7B7 EQ PUSH2 0x6B JUMPI DUP1 PUSH4 0xDD1D2599 EQ PUSH2 0x66 JUMPI PUSH4 0xE27D5153 EQ PUSH2 0x61 JUMPI PUSH1 0x0 DUP1 REVERT JUMPDEST PUSH2 0x3F7 JUMP JUMPDEST PUSH2 0x3D6 JUMP JUMPDEST PUSH2 0x3B0 JUMP JUMPDEST PUSH2 0x2BB JUMP JUMPDEST PUSH2 0x20D JUMP JUMPDEST CALLVALUE PUSH2 0x151 JUMPI PUSH1 0x20 CALLDATASIZE PUSH1 0x3 NOT ADD SLT PUSH2 0x151 JUMPI PUSH1 0x4 CALLDATALOAD PUSH8 0xFFFFFFFFFFFFFFFF DUP2 GT PUSH2 0x14D JUMPI PUSH2 0xAB SWAP1 CALLDATASIZE SWAP1 PUSH1 0x4 ADD PUSH2 0x1AD JUMP JUMPDEST PUSH1 0x1 DUP1 DUP3 MLOAD GT ISZERO PUSH2 0xFC JUMPI DUP1 JUMPDEST PUSH2 0xDE JUMPI JUMPDEST PUSH2 0xDA PUSH2 0xC9 DUP4 PUSH2 0x45A JUMP JUMPDEST MLOAD PUSH1 0x40 MLOAD SWAP1 DUP2 MSTORE SWAP1 DUP2 SWAP1 PUSH1 0x20 DUP3 ADD SWAP1 JUMP JUMPDEST SUB SWAP1 RETURN JUMPDEST DUP1 DUP3 MLOAD GT ISZERO PUSH2 0xF7 JUMPI PUSH2 0xF1 DUP2 SWAP3 PUSH2 0x511 JUMP JUMPDEST SWAP2 PUSH2 0xB8 JUMP JUMPDEST PUSH2 0xBD JUMP JUMPDEST PUSH1 0x40 MLOAD PUSH3 0x461BCD PUSH1 0xE5 SHL DUP2 MSTORE PUSH1 0x20 PUSH1 0x4 DUP3 ADD MSTORE PUSH1 0x23 PUSH1 0x24 DUP3 ADD MSTORE PUSH32 0x776F6E27742067656E657261746520726F6F7420666F722073696E676C65206C PUSH1 0x44 DUP3 ADD MSTORE PUSH3 0x32B0B3 PUSH1 0xE9 SHL PUSH1 0x64 DUP3 ADD MSTORE PUSH1 0x84 SWAP1 REVERT JUMPDEST POP DUP1 REVERT JUMPDEST DUP1 REVERT JUMPDEST PUSH4 0x4E487B71 PUSH1 0xE0 SHL PUSH1 0x0 MSTORE PUSH1 0x41 PUSH1 0x4 MSTORE PUSH1 0x24 PUSH1 0x0 REVERT JUMPDEST PUSH1 0x40 MLOAD SWAP2 SWAP1 PUSH1 0x1F ADD PUSH1 0x1F NOT AND DUP3 ADD PUSH8 0xFFFFFFFFFFFFFFFF DUP2 GT DUP4 DUP3 LT OR PUSH2 0x190 JUMPI PUSH1 0x40 MSTORE JUMP JUMPDEST PUSH2 0x154 JUMP JUMPDEST PUSH8 0xFFFFFFFFFFFFFFFF DUP2 GT PUSH2 0x190 JUMPI PUSH1 0x5 SHL PUSH1 0x20 ADD SWAP1 JUMP JUMPDEST SWAP1 DUP1 PUSH1 0x1F DUP4 ADD SLT ISZERO PUSH2 0x208 JUMPI DUP2 CALLDATALOAD SWAP1 PUSH2 0x1CD PUSH2 0x1C8 DUP4 PUSH2 0x195 JUMP JUMPDEST PUSH2 0x16A JUMP JUMPDEST SWAP2 DUP3 SWAP4 DUP2 DUP5 MSTORE PUSH1 0x20 DUP1 DUP1 SWAP6 ADD SWAP3 PUSH1 0x5 SHL DUP3 ADD ADD SWAP3 DUP4 GT PUSH2 0x208 JUMPI DUP4 ADD SWAP1 JUMPDEST DUP3 DUP3 LT PUSH2 0x1F9 JUMPI POP POP POP POP SWAP1 JUMP JUMPDEST DUP2 CALLDATALOAD DUP2 MSTORE SWAP1 DUP4 ADD SWAP1 DUP4 ADD PUSH2 0x1EB JUMP JUMPDEST PUSH1 0x0 DUP1 REVERT JUMPDEST CALLVALUE PUSH2 0x208 JUMPI PUSH1 0x60 CALLDATASIZE PUSH1 0x3 NOT ADD SLT PUSH2 0x208 JUMPI PUSH1 0x24 CALLDATALOAD PUSH8 0xFFFFFFFFFFFFFFFF DUP2 GT PUSH2 0x208 JUMPI PUSH2 0x23E SWAP1 CALLDATASIZE SWAP1 PUSH1 0x4 ADD PUSH2 0x1AD JUMP JUMPDEST PUSH1 0x44 CALLDATALOAD DUP2 MLOAD PUSH1 0x0 SWAP3 JUMPDEST DUP2 DUP5 LT PUSH2 0x25D JUMPI PUSH1 0x40 MLOAD PUSH1 0x4 CALLDATALOAD DUP5 EQ DUP2 MSTORE PUSH1 0x20 SWAP1 RETURN JUMPDEST SWAP1 SWAP2 PUSH2 0x276 PUSH1 0x1 SWAP2 PUSH2 0x26F DUP7 DUP6 PUSH2 0x47D JUMP JUMPDEST MLOAD SWAP1 PUSH2 0x437 JUMP JUMPDEST SWAP4 ADD SWAP3 SWAP2 SWAP1 PUSH2 0x247 JUMP JUMPDEST PUSH1 0x20 SWAP1 DUP2 PUSH1 0x40 DUP2 DUP4 ADD SWAP3 DUP3 DUP2 MSTORE DUP6 MLOAD DUP1 SWAP5 MSTORE ADD SWAP4 ADD SWAP2 PUSH1 0x0 JUMPDEST DUP3 DUP2 LT PUSH2 0x2A7 JUMPI POP POP POP POP SWAP1 JUMP JUMPDEST DUP4 MLOAD DUP6 MSTORE SWAP4 DUP2 ADD SWAP4 SWAP3 DUP2 ADD SWAP3 PUSH1 0x1 ADD PUSH2 0x299 JUMP JUMPDEST CALLVALUE PUSH2 0x208 JUMPI PUSH1 0x40 CALLDATASIZE PUSH1 0x3 NOT ADD SLT PUSH2 0x208 JUMPI PUSH1 0x4 CALLDATALOAD PUSH8 0xFFFFFFFFFFFFFFFF DUP2 GT PUSH2 0x208 JUMPI PUSH2 0x2EC SWAP1 CALLDATASIZE SWAP1 PUSH1 0x4 ADD PUSH2 0x1AD JUMP JUMPDEST PUSH1 0x24 CALLDATALOAD SWAP1 PUSH1 0x1 SWAP1 PUSH2 0x2FF DUP3 DUP3 MLOAD GT PUSH2 0x491 JUMP JUMPDEST PUSH2 0x311 PUSH2 0x30C DUP3 MLOAD PUSH2 0x632 JUMP JUMPDEST PUSH2 0x4E9 JUMP JUMPDEST SWAP3 PUSH1 0x0 DUP1 DUP5 JUMPDEST PUSH2 0x32A JUMPI JUMPDEST PUSH1 0x40 MLOAD DUP1 PUSH2 0xDA DUP9 DUP3 PUSH2 0x280 JUMP JUMPDEST DUP4 MLOAD DUP6 DUP2 GT ISZERO PUSH2 0x3AA JUMPI DUP6 DUP5 SWAP4 SWAP3 PUSH2 0x36F SWAP3 DUP3 DUP1 DUP1 SWAP9 AND EQ PUSH1 0x0 EQ PUSH2 0x379 JUMPI POP PUSH2 0x358 PUSH1 0x0 NOT DUP7 ADD DUP9 PUSH2 0x47D JUMP JUMPDEST MLOAD PUSH2 0x363 DUP3 DUP12 PUSH2 0x47D JUMP JUMPDEST MSTORE JUMPDEST ADD SWAP3 DUP5 SHR SWAP5 PUSH2 0x511 JUMP JUMPDEST SWAP4 SWAP3 SWAP2 SWAP1 SWAP2 PUSH2 0x317 JUMP JUMPDEST DUP6 DUP4 ADD SWAP1 DUP2 SUB PUSH2 0x395 JUMPI POP DUP4 PUSH2 0x38F DUP3 DUP12 PUSH2 0x47D JUMP JUMPDEST MSTORE PUSH2 0x365 JUMP JUMPDEST PUSH2 0x39F SWAP1 DUP9 PUSH2 0x47D JUMP JUMPDEST MLOAD PUSH2 0x38F DUP3 DUP12 PUSH2 0x47D JUMP JUMPDEST POP PUSH2 0x31C JUMP JUMPDEST CALLVALUE PUSH2 0x208 JUMPI PUSH1 0x20 CALLDATASIZE PUSH1 0x3 NOT ADD SLT PUSH2 0x208 JUMPI PUSH1 0x20 PUSH2 0x3CE PUSH1 0x4 CALLDATALOAD PUSH2 0x632 JUMP JUMPDEST PUSH1 0x40 MLOAD SWAP1 DUP2 MSTORE RETURN JUMPDEST CALLVALUE PUSH2 0x208 JUMPI PUSH1 0x40 CALLDATASIZE PUSH1 0x3 NOT ADD SLT PUSH2 0x208 JUMPI PUSH1 0x20 PUSH2 0x3CE PUSH1 0x24 CALLDATALOAD PUSH1 0x4 CALLDATALOAD PUSH2 0x437 JUMP JUMPDEST CALLVALUE PUSH2 0x208 JUMPI PUSH1 0x20 CALLDATASIZE PUSH1 0x3 NOT ADD SLT PUSH2 0x208 JUMPI PUSH1 0x4 CALLDATALOAD DUP1 PUSH1 0x0 DUP2 JUMPDEST PUSH2 0x42A JUMPI PUSH1 0x20 SWAP3 POP PUSH1 0x40 MLOAD SWAP2 DUP1 PUSH1 0x1 DUP2 NOT ADD AND EQ SWAP1 SUB DUP2 MSTORE RETURN JUMPDEST PUSH1 0x1 SWAP3 DUP4 SHR SWAP3 ADD DUP3 PUSH2 0x410 JUMP JUMPDEST DUP2 DUP2 LT ISZERO PUSH2 0x44E JUMPI PUSH1 0x0 MSTORE PUSH1 0x20 MSTORE JUMPDEST PUSH1 0x40 PUSH1 0x0 KECCAK256 SWAP1 JUMP JUMPDEST SWAP1 PUSH1 0x0 MSTORE PUSH1 0x20 MSTORE PUSH2 0x446 JUMP JUMPDEST DUP1 MLOAD ISZERO PUSH2 0x467 JUMPI PUSH1 0x20 ADD SWAP1 JUMP JUMPDEST PUSH4 0x4E487B71 PUSH1 0xE0 SHL PUSH1 0x0 MSTORE PUSH1 0x32 PUSH1 0x4 MSTORE PUSH1 0x24 PUSH1 0x0 REVERT JUMPDEST DUP1 MLOAD DUP3 LT ISZERO PUSH2 0x467 JUMPI PUSH1 0x20 SWAP2 PUSH1 0x5 SHL ADD ADD SWAP1 JUMP JUMPDEST ISZERO PUSH2 0x498 JUMPI JUMP JUMPDEST PUSH1 0x40 MLOAD PUSH3 0x461BCD PUSH1 0xE5 SHL DUP2 MSTORE PUSH1 0x20 PUSH1 0x4 DUP3 ADD MSTORE PUSH1 0x24 DUP1 DUP3 ADD MSTORE PUSH32 0x776F6E27742067656E65726174652070726F6F6620666F722073696E676C6520 PUSH1 0x44 DUP3 ADD MSTORE PUSH4 0x3632B0B3 PUSH1 0xE1 SHL PUSH1 0x64 DUP3 ADD MSTORE PUSH1 0x84 SWAP1 REVERT JUMPDEST SWAP1 PUSH2 0x4F6 PUSH2 0x1C8 DUP4 PUSH2 0x195 JUMP JUMPDEST DUP3 DUP2 MSTORE DUP1 SWAP3 PUSH2 0x507 PUSH1 0x1F NOT SWAP2 PUSH2 0x195 JUMP JUMPDEST ADD SWAP1 PUSH1 0x20 CALLDATASIZE SWAP2 ADD CALLDATACOPY JUMP JUMPDEST SWAP1 DUP2 MLOAD PUSH1 0x1 SWAP1 DUP2 DUP1 DUP3 AND EQ PUSH1 0x0 EQ PUSH2 0x5A9 JUMPI PUSH2 0x530 DUP3 DUP3 DUP2 SHR ADD PUSH2 0x4E9 JUMP JUMPDEST SWAP2 PUSH1 0x0 NOT PUSH2 0x540 DUP4 DUP3 ADD DUP8 PUSH2 0x47D JUMP JUMPDEST MLOAD PUSH1 0x0 DUP1 MSTORE PUSH1 0x20 MSTORE PUSH2 0x55A PUSH1 0x40 PUSH1 0x0 KECCAK256 SWAP2 DUP6 MLOAD ADD DUP6 PUSH2 0x47D JUMP JUMPDEST MSTORE JUMPDEST PUSH1 0x0 NOT SWAP1 SWAP2 ADD SWAP1 PUSH1 0x0 DUP1 JUMPDEST DUP4 DUP3 LT PUSH2 0x577 JUMPI POP SWAP3 SWAP5 POP POP POP POP JUMP JUMPDEST DUP3 PUSH1 0x2 SWAP2 PUSH2 0x595 PUSH2 0x588 DUP6 DUP12 PUSH2 0x47D JUMP JUMPDEST MLOAD PUSH2 0x26F DUP5 DUP8 ADD DUP13 PUSH2 0x47D JUMP JUMPDEST PUSH2 0x59F DUP3 DUP10 PUSH2 0x47D JUMP JUMPDEST MSTORE ADD SWAP2 ADD SWAP1 PUSH2 0x567 JUMP JUMPDEST PUSH2 0x5B4 DUP2 DUP4 SHR PUSH2 0x4E9 JUMP JUMPDEST SWAP2 PUSH2 0x55C JUMP JUMPDEST SWAP1 PUSH1 0x40 DUP3 ADD DUP1 SWAP3 GT PUSH2 0x5C8 JUMPI JUMP JUMPDEST PUSH4 0x4E487B71 PUSH1 0xE0 SHL PUSH1 0x0 MSTORE PUSH1 0x11 PUSH1 0x4 MSTORE PUSH1 0x24 PUSH1 0x0 REVERT JUMPDEST SWAP1 PUSH1 0x20 DUP3 ADD DUP1 SWAP3 GT PUSH2 0x5C8 JUMPI JUMP JUMPDEST SWAP1 PUSH1 0x10 DUP3 ADD DUP1 SWAP3 GT PUSH2 0x5C8 JUMPI JUMP JUMPDEST SWAP1 PUSH1 0x8 DUP3 ADD DUP1 SWAP3 GT PUSH2 0x5C8 JUMPI JUMP JUMPDEST SWAP1 PUSH1 0x4 DUP3 ADD DUP1 SWAP3 GT PUSH2 0x5C8 JUMPI JUMP JUMPDEST SWAP1 PUSH1 0x2 DUP3 ADD DUP1 SWAP3 GT PUSH2 0x5C8 JUMPI JUMP JUMPDEST SWAP1 PUSH1 0x1 DUP3 ADD DUP1 SWAP3 GT PUSH2 0x5C8 JUMPI JUMP JUMPDEST PUSH1 0x1 DUP2 GT ISZERO PUSH2 0x75D JUMPI PUSH1 0x0 SWAP1 DUP1 PUSH1 0x1 PUSH1 0x80 SHL DUP2 LT ISZERO PUSH2 0x752 JUMPI JUMPDEST DUP1 PUSH9 0x10000000000000000 PUSH1 0x2 SWAP3 LT ISZERO PUSH2 0x73F JUMPI JUMPDEST PUSH5 0x100000000 DUP2 LT ISZERO PUSH2 0x72C JUMPI JUMPDEST PUSH3 0x10000 DUP2 LT ISZERO PUSH2 0x719 JUMPI JUMPDEST PUSH2 0x100 DUP2 LT ISZERO PUSH2 0x706 JUMPI JUMPDEST PUSH1 0x10 DUP2 LT ISZERO PUSH2 0x6F3 JUMPI JUMPDEST PUSH1 0x4 DUP2 LT ISZERO PUSH2 0x6E1 JUMPI JUMPDEST LT ISZERO PUSH2 0x6D1 JUMPI JUMPDEST DUP1 PUSH2 0x6AC DUP2 NOT PUSH2 0x624 JUMP JUMPDEST AND EQ DUP1 PUSH2 0x6C8 JUMPI JUMPDEST ISZERO PUSH2 0x6BC JUMPI SWAP1 JUMP JUMPDEST PUSH2 0x6C5 SWAP1 PUSH2 0x624 JUMP JUMPDEST SWAP1 JUMP JUMPDEST POP DUP1 ISZERO ISZERO PUSH2 0x6B4 JUMP JUMPDEST SWAP1 PUSH2 0x6DB SWAP1 PUSH2 0x624 JUMP JUMPDEST SWAP1 PUSH2 0x6A1 JUMP JUMPDEST PUSH2 0x6ED SWAP1 DUP3 SHR SWAP4 PUSH2 0x616 JUMP JUMPDEST SWAP3 PUSH2 0x69A JUMP JUMPDEST PUSH2 0x700 SWAP1 PUSH1 0x4 SHR SWAP4 PUSH2 0x608 JUMP JUMPDEST SWAP3 PUSH2 0x690 JUMP JUMPDEST PUSH2 0x713 SWAP1 PUSH1 0x8 SHR SWAP4 PUSH2 0x5FA JUMP JUMPDEST SWAP3 PUSH2 0x686 JUMP JUMPDEST PUSH2 0x726 SWAP1 PUSH1 0x10 SHR SWAP4 PUSH2 0x5EC JUMP JUMPDEST SWAP3 PUSH2 0x67B JUMP JUMPDEST PUSH2 0x739 SWAP1 PUSH1 0x20 SHR SWAP4 PUSH2 0x5DE JUMP JUMPDEST SWAP3 PUSH2 0x66F JUMP JUMPDEST PUSH2 0x74C SWAP1 PUSH1 0x40 SHR SWAP4 PUSH2 0x5BA JUMP JUMPDEST SWAP3 PUSH2 0x661 JUMP JUMPDEST PUSH1 0x80 SWAP3 POP DUP3 SHR PUSH2 0x64C JUMP JUMPDEST POP PUSH1 0x0 SWAP1 JUMP INVALID LOG2 PUSH5 0x6970667358 0x22 SLT KECCAK256 0xE9 LT DUP14 0xC0 ADDMOD PUSH28 0xD88A6CCC6FF1DEAD96B7393231F78FF7F8BB08482568CD419D256473 PUSH16 0x6C634300081400330000000000000000 "},"methodIdentifiers":{"AUCTION_DURATION()":"a271e525","CYCLE_PERIOD()":"113bc999","auctionClaims(uint256,address)":"44d6b6d2","auctionClaimsFlag(uint256,address)":"7000c3e8","balanceOf(address)":"70a08231","buyPixel(uint8[],uint8[])":"ec18fb5f","calculateRoyalties(uint8,uint8)":"74d3e777","canvasCreation()":"ff188dca","castVote(bool)":"7ace48e7","checkMultiplePixel(uint8[],uint8[])":"0734d144","checkPixel(uint8,uint8)":"d84cd450","checkVoteOutcome(uint256)":"5c8c6407","closeAuction(uint256)":"236ed8f3","fillPixel(bytes[])":"3bdb693e","generateMerkle()":"a52f27b5","generateSVG()":"ad711e9e","getAuctionClaimFlag(uint256,address)":"d7638d80","getAuctionClaims(uint256,address)":"166db008","getBalance(address)":"f8b2cb4f","getCurrentCycle()":"be26ed7f","getMintDate(uint256)":"bc5bc2fb","hasVoted(address)":"09eef43e","isInArtisticPeriod()":"4882a7ea","isInVotingPeriod()":"b3a1ddf4","manager()":"481c6a75","mintDates(uint256)":"c4323fc1","nftAuctions(uint256)":"93cde51a","nftContract()":"d56d229d","payRoyalties(uint8[],uint8[])":"3123a62b","placeBid(uint256)":"9979ef45","royaltyDenominator()":"fd8d7ed3","royaltyRate()":"c4d1510d","seekRoyaltyPayment(uint8,uint8,uint256)":"02d13f02","setNFTContract(address)":"a7ccabdf","setPixelValue(uint8[],uint8[],uint256[])":"907e9959","updateCurrency(address)":"5e027601","voteRegister(uint256)":"30b5d6d3","window(uint8,uint8)":"aeeacbeb","withdrawPixelProceeds(uint256)":"ccba3617"}}}}}