{"contracts/Pixelmap.sol":{"Pixelmap":{"abi":[{"inputs":[],"stateMutability":"nonpayable","type":"constructor"},{"inputs":[],"name":"artisticPeriod","outputs":[{"internalType":"uint256","name":"","type":"uint256"}],"stateMutability":"view","type":"function"},{"inputs":[],"name":"begArtisticPeriod","outputs":[{"internalType":"uint256","name":"","type":"uint256"}],"stateMutability":"view","type":"function"},{"inputs":[{"internalType":"uint256[]","name":"xValues","type":"uint256[]"},{"internalType":"uint256[]","name":"yValues","type":"uint256[]"}],"name":"buyPixel","outputs":[],"stateMutability":"nonpayable","type":"function"},{"inputs":[{"internalType":"uint256","name":"x","type":"uint256"},{"internalType":"uint256","name":"y","type":"uint256"}],"name":"calculateRoyalties","outputs":[{"internalType":"uint256","name":"","type":"uint256"}],"stateMutability":"view","type":"function"},{"inputs":[{"internalType":"uint256[]","name":"xValues","type":"uint256[]"},{"internalType":"uint256[]","name":"yValues","type":"uint256[]"}],"name":"checkMultiplePixel","outputs":[{"components":[{"internalType":"address","name":"owner","type":"address"},{"internalType":"uint256","name":"shapeID","type":"uint256"},{"internalType":"uint256","name":"price","type":"uint256"},{"internalType":"string","name":"color","type":"string"},{"internalType":"uint256","name":"royaltyLastPaid","type":"uint256"},{"internalType":"bool","name":"askedToPayRoyalties","type":"bool"},{"internalType":"uint256","name":"royaltyAskDate","type":"uint256"}],"internalType":"struct Pixelmap.Pixel[]","name":"","type":"tuple[]"}],"stateMutability":"view","type":"function"},{"inputs":[{"internalType":"uint256","name":"x","type":"uint256"},{"internalType":"uint256","name":"y","type":"uint256"}],"name":"checkPixel","outputs":[{"components":[{"internalType":"address","name":"owner","type":"address"},{"internalType":"uint256","name":"shapeID","type":"uint256"},{"internalType":"uint256","name":"price","type":"uint256"},{"internalType":"string","name":"color","type":"string"},{"internalType":"uint256","name":"royaltyLastPaid","type":"uint256"},{"internalType":"bool","name":"askedToPayRoyalties","type":"bool"},{"internalType":"uint256","name":"royaltyAskDate","type":"uint256"}],"internalType":"struct Pixelmap.Pixel","name":"","type":"tuple"}],"stateMutability":"view","type":"function"},{"inputs":[],"name":"endArtisticPeriod","outputs":[{"internalType":"uint256","name":"","type":"uint256"}],"stateMutability":"view","type":"function"},{"inputs":[{"internalType":"bytes[]","name":"_pixels","type":"bytes[]"}],"name":"fillPixel","outputs":[],"stateMutability":"nonpayable","type":"function"},{"inputs":[],"name":"generateSVG","outputs":[{"internalType":"string","name":"","type":"string"}],"stateMutability":"view","type":"function"},{"inputs":[],"name":"manager","outputs":[{"internalType":"address","name":"","type":"address"}],"stateMutability":"view","type":"function"},{"inputs":[],"name":"maxHeight","outputs":[{"internalType":"uint256","name":"","type":"uint256"}],"stateMutability":"view","type":"function"},{"inputs":[],"name":"maxWidth","outputs":[{"internalType":"uint256","name":"","type":"uint256"}],"stateMutability":"view","type":"function"},{"inputs":[{"internalType":"uint256[]","name":"xValues","type":"uint256[]"},{"internalType":"uint256[]","name":"yValues","type":"uint256[]"}],"name":"payRoyalties","outputs":[],"stateMutability":"nonpayable","type":"function"},{"inputs":[{"internalType":"uint256","name":"","type":"uint256"}],"name":"pixelSVGs","outputs":[{"internalType":"string","name":"","type":"string"}],"stateMutability":"view","type":"function"},{"inputs":[{"internalType":"uint256","name":"","type":"uint256"}],"name":"rowSVGs","outputs":[{"internalType":"string","name":"","type":"string"}],"stateMutability":"view","type":"function"},{"inputs":[],"name":"royaltyAskPeriod","outputs":[{"internalType":"uint256","name":"","type":"uint256"}],"stateMutability":"view","type":"function"},{"inputs":[],"name":"royaltyDenominator","outputs":[{"internalType":"uint256","name":"","type":"uint256"}],"stateMutability":"view","type":"function"},{"inputs":[],"name":"royaltyRate","outputs":[{"internalType":"uint256","name":"","type":"uint256"}],"stateMutability":"view","type":"function"},{"inputs":[{"internalType":"uint256","name":"x","type":"uint256"},{"internalType":"uint256","name":"y","type":"uint256"},{"internalType":"uint256","name":"_price","type":"uint256"}],"name":"seekRoyaltyPayment","outputs":[],"stateMutability":"nonpayable","type":"function"},{"inputs":[{"internalType":"uint256[]","name":"xValues","type":"uint256[]"},{"internalType":"uint256[]","name":"yValues","type":"uint256[]"},{"internalType":"uint256[]","name":"priceValues","type":"uint256[]"}],"name":"setPixelValue","outputs":[],"stateMutability":"nonpayable","type":"function"},{"inputs":[{"internalType":"address","name":"_newToken","type":"address"}],"name":"updateCurrency","outputs":[],"stateMutability":"nonpayable","type":"function"},{"inputs":[{"internalType":"uint256","name":"","type":"uint256"},{"internalType":"uint256","name":"","type":"uint256"}],"name":"window","outputs":[{"internalType":"address","name":"owner","type":"address"},{"internalType":"uint256","name":"shapeID","type":"uint256"},{"internalType":"uint256","name":"price","type":"uint256"},{"internalType":"string","name":"color","type":"string"},{"internalType":"uint256","name":"royaltyLastPaid","type":"uint256"},{"internalType":"bool","name":"askedToPayRoyalties","type":"bool"},{"internalType":"uint256","name":"royaltyAskDate","type":"uint256"}],"stateMutability":"view","type":"function"}],"evm":{"bytecode":{"linkReferences":{},"object":"60808060405234610079576032600155620d2f008060025560018060a01b031973c02aaa39b223fe8d0a0e5c4f27ead9083c756cc281600554161760055533906000541617600055426003554201804211610063576004556128fa908161007f8239f35b634e487b7160e01b600052601160045260246000fd5b600080fdfe6080604052600436101561001257600080fd5b60003560e01c8063040cdfd81461141d5780633bdb693e14610f64578063481c6a7514610f3b5780635e02760114610eef5780636006ecc814610eea57806363aa5ce214610eea5780636e70fcc614610ecc5780636ed958f1146108ce5780638232b5621461069057806385a9473d146105575780639140801714610539578063ad711e9e146103df578063bf59b1bc146103c1578063c4d1510d146103a3578063c4e4b90c14610376578063c730e65d146102dc578063c7eab2ec146101cd578063d08629c1146101ac578063d70fbd971461018e578063e124590014610149578063e50eb5da146101305763fd8d7ed31461010e57600080fd5b3461012b57600036600319011261012b5760206040516103e88152f35b600080fd5b3461012b5761014761014136611608565b9061194b565b005b3461012b57602036600319011261012b57600435604081101561012b5761017661018a9161100701611688565b604051918291602083526020830190611484565b0390f35b3461012b57600036600319011261012b576020600454604051908152f35b3461012b5760206101c56101bf3661144b565b90611f99565b604051908152f35b3461012b576101db36611608565b6101e882518251146118b1565b8151906101f48261155c565b92610202604051948561153b565b828452601f196102118461155c565b0160005b8181106102c557505060005b838110610287576040805160208082528751818301819052600093600582901b8401810192808b01929185015b82871061025b5785850386f35b909192938280610277600193603f198a820301865288516114a9565b960192019601959291909261024e565b806102a96102976001938561173d565b516102a2838761173d565b5190611ec2565b6102b3828861173d565b526102be818761173d565b5001610221565b6020906102d0611e8a565b82828901015201610215565b3461012b576102ea3661144b565b906000526006602052604060002090600052602052604060002060018060a01b03815416600182015491600281015461032560038301611688565b91610360600482015493600660ff6005850154169301549360405197889788526020880152604087015260e0606087015260e0860190611484565b926080850152151560a084015260c08301520390f35b3461012b57602036600319011261012b5760043561100081101561012b5761017661018a91600701611688565b3461012b57600036600319011261012b576020600154604051908152f35b3461012b57600036600319011261012b576020600354604051908152f35b3461012b57600036600319011261012b57604051608081018181106001600160401b0382111761052357604052605781526020907f3c7376672077696474683d2236303022206865696768743d2236303022207669828201527f6577426f783d2230203020363030203630302220786d6c6e733d22687474703a6040820152761797bbbbbb973b999737b933979918181817b9bb33911f60491b60608201529060005b604081106104d957506104c56026604051846104a78296518092878086019101611461565b8101651e17b9bb339f60d11b8582015203600681018552018361153b565b61018a604051928284938452830190611484565b918161051861051e9261050a60405193826104fd8694518092848088019101611461565b8301018761100701612753565b03601f19810183528261153b565b9261172e565b610482565b634e487b7160e01b600052604160045260246000fd5b3461012b57600036600319011261012b576020600254604051908152f35b3461012b57606036600319011261012b5760043560243561058360018060a01b03600054163314611e29565b81600052600691602090838252604060002083600052825260ff600560406000200154168061064b575b156106085790816000949392855283825260408520838652825260443560026040872001558085528382526040852083865282526005604086200160ff19815416905584528281526040842091845252604082200155600080f35b8060005283825260406000208360005282526005604060002001600160ff1982541617905560005282815260406000209160005252429060406000200155600080f35b5080600052838252604060002083600052825283604060002001546203f480810180911161067a5742116105ad565b634e487b7160e01b600052601160045260246000fd5b3461012b57606036600319011261012b576001600160401b0360043581811161012b576106c19036906004016115aa565b90602491823582811161012b576106dc9036906004016115aa565b604492833590811161012b576106f69036906004016115aa565b9382518251811490816108c3575b50156108705782519360005b85811061077657505050610724818361194b565b60005b83811061073057005b8061073d6001928761173d565b51610748828661173d565b51600052602060068152604060002090610762848761173d565b516000525260026040600020015501610727565b610780818661173d565b51604061078d838761173d565b51911090811591610864575b50610826576107a8818661173d565b5160005260206006815260406000206107c1838761173d565b5160005281523360018060a01b0360406000205416036107e45750600101610710565b6064907f6f6e6c79206f776e65722063616e2073657420706978656c2076616c7565000084601e876040519462461bcd60e51b86526004860152840152820152fd5b60405162461bcd60e51b815260206004820152601881850152774120706978656c206973206f7574206f6620626f756e647360401b81840152606490fd5b60409150101588610799565b6084907f696e70757420617272617973206d757374206265206f66207468652073616d658560276040519362461bcd60e51b85526020600486015284015282015266040d8cadccee8d60cb1b6064820152fd5b905085511486610704565b3461012b576108dc36611608565b6108e982518251146118b1565b81519060005b8281106108f857005b610902818561173d565b51604061090f838561173d565b51911090811591610ec0575b50610ea35761092a818561173d565b5160005260066020526040600020610942828461173d565b5160005260205260018060a01b0360406000205416156000146109a5578061096c6001928661173d565b5160005260066020526040600020610984828561173d565b51600052602052604060002033838060a01b03198254161790555b016108ef565b6109c46109b2828661173d565b516109bd838561173d565b5190611f99565b906109cf818661173d565b51600052600660205260406000206109e7828561173d565b5160005260205260029180836040600020015411600014610d0957610a0c828761173d565b5160005260066020526040600020610a24838661173d565b51600052602052610a3c8184604060002001546118a4565b9060018060a01b0360055416936040516370a0823160e01b8152336004820152602081602481895afa8015610c7457600090610cd5575b610aaf9150610a82868b61173d565b5160005260066020526040600020610a9a878a61173d565b51600052602052826040600020015410611d79565b604051636eb1769f60e11b815233600482015230602482015290602082604481895afa918215610c74578990600093610c9d575b5095610b22602093610b7793610afb8960009b61173d565b518a526006865260408a20610b108a8d61173d565b518b52865260408a2001541115611dd1565b610b2c868b61173d565b5187526006835260408720610b41878a61173d565b518852835260408088205490516323b872dd60e01b80825290989096899485938492906001600160a01b03163360048501611929565b03925af1918215610c7457610bbd94602093610c80575b5060055460008054604051938452929687946001600160a01b0393841694869485939291163360048501611929565b03925af1918215610c7457600192610c45575b50610bdb818661173d565b5160005260066020526040600020610bf3828561173d565b51600052602052604060002033838060a01b0319825416179055610c17818661173d565b5160005260066020526040600020610c2f828561173d565b516000526020524260046040600020015561099f565b610c669060203d602011610c6d575b610c5e818361153b565b810190611911565b5085610bd0565b503d610c54565b6040513d6000823e3d90fd5b610c9690843d8611610c6d57610c5e818361153b565b5088610b8e565b919250506020813d602011610ccd575b81610cba6020938361153b565b8101031261012b57519088610b22610ae3565b3d9150610cad565b506020813d602011610d01575b81610cef6020938361153b565b8101031261012b57610aaf9051610a73565b3d9150610ce2565b506005546040516370a0823160e01b81523360048201526001600160a01b039091169290602081602481875afa8015610c7457600090610e6f575b610d6b9150610d53848961173d565b5160005260066020526040600020610a9a858861173d565b604051636eb1769f60e11b8152336004820152306024820152602081604481875afa908115610c7457600091610e39575b5090610bbd93610dde602093610db2868b61173d565b51600052600685526040600020610dc9878a61173d565b51600052855283604060002001541115611dd1565b6000546001600160a01b031691610df5858a61173d565b51600052600684526040600020610e0c868961173d565b516000528452604060002001549160006040518097819582946323b872dd60e01b84523360048501611929565b9190506020823d602011610e67575b81610e556020938361153b565b8101031261012b579051610bbd610d9c565b3d9150610e48565b506020813d602011610e9b575b81610e896020938361153b565b8101031261012b57610d6b9051610d44565b3d9150610e7c565b60405162461bcd60e51b815280610ebc60048201611751565b0390fd5b6040915010158561091b565b3461012b57600036600319011261012b5760206040516203f4808152f35b61158e565b3461012b57602036600319011261012b576004356001600160a01b038181169182900361012b57610f2590600054163314611e29565b600580546001600160a01b031916919091179055005b3461012b57600036600319011261012b576000546040516001600160a01b039091168152602090f35b3461012b57602036600319011261012b576004356001600160401b03811161012b573660238201121561012b578060040135610f9f8161155c565b91610fad604051938461153b565b8183526024602084019260051b8201019036821161012b5760248101925b8284106113b3578480516040519161082083018381106001600160401b03821117610523576040526040835261080036602085013760005b8281106110dd578360005b6040811061101857005b611022818361173d565b51611030575b60010161100e565b60405161103c81611520565b60008152600682901b6001600160fa1b038316830361067a5780604001908160401161067a57905b8082106110855750509061107e6001928261100701611782565b9050611028565b90916110008310156110c75760206105186110c19261050a60405193826110b58694518092848088019101611461565b83010187600701612753565b90611064565b634e487b7160e01b600052603260045260246000fd5b6110e7818361173d565b5190815182018260208201916080918291031261012b57602084015191604085015194606081015192810151906001600160401b03821161012b570181603f8201121561012b57602081015161113c81611573565b9261114a604051948561153b565b8184526040828401011161012b57611169916040602085019101611461565b604083108015906113a8575b610ea357600a82101561136a5782600052600660205260406000208560005260205260ff6005604060002001541661130e578260005260066020526040600020856000526020523360018060a01b0360406000205416146111e3575b5050506111de915061172e565b611003565b611209908360005260066020526040600020866000526020526003604060002001611782565b81600052600660205260406000208460005260205260016040600020015580836112d2575b80600052600660205260406000208460005260205260016040600020015490600990808281020482148115171561067a57858281020482148615171561067a576112a3928160005260066020526040600020876000526020526112976003604060002001611688565b92808802920290611ff6565b6110008210156110c7576111de936112c36112c992600194600701611782565b8761173d565b528580806111d1565b90506112de8382611891565b816040036040811161067a57600019850185811161067a576112ff91611891565b810180911161067a579061122e565b60405162461bcd60e51b815260206004820152602e60248201527f75736572207761732061736b656420746f20666972737420736574746c65207260448201526d1bde585b1d1e481c185e5b595b9d60921b6064820152608490fd5b60405162461bcd60e51b81526020600482015260166024820152757368617065204944206e6f7420617661696c61626c6560501b6044820152606490fd5b506040851015611175565b83356001600160401b03811161012b578201903660438301121561012b576024820135906113e082611573565b6113ed604051918261153b565b8281526044933685858301011161012b576020848196958296600094018386013783010152815201930192610fcb565b3461012b5761018a6114376114313661144b565b90611ec2565b6040519182916020835260208301906114a9565b604090600319011261012b576004359060243590565b60005b8381106114745750506000910152565b8181015183820152602001611464565b9060209161149d81518092818552858086019101611461565b601f01601f1916010190565b9060018060a01b038251168152602082015160208201526040820151604082015260c0806114e6606085015160e0606086015260e0850190611484565b936080810151608085015260a0810151151560a0850152015191015290565b60e081019081106001600160401b0382111761052357604052565b602081019081106001600160401b0382111761052357604052565b90601f801991011681019081106001600160401b0382111761052357604052565b6001600160401b0381116105235760051b60200190565b6001600160401b03811161052357601f01601f191660200190565b3461012b57600036600319011261012b57602060405160408152f35b81601f8201121561012b578035916115c18361155c565b926115cf604051948561153b565b808452602092838086019260051b82010192831161012b578301905b8282106115f9575050505090565b813581529083019083016115eb565b90604060031983011261012b576001600160401b0360043581811161012b5783611634916004016115aa565b9260243591821161012b5761164b916004016115aa565b90565b90600182811c9216801561167e575b602083101461166857565b634e487b7160e01b600052602260045260246000fd5b91607f169161165d565b906040519182600082549261169c8461164e565b90818452600194858116908160001461170b57506001146116c8575b50506116c69250038361153b565b565b9093915060005260209081600020936000915b8183106116f35750506116c6935082010138806116b8565b855488840185015294850194879450918301916116db565b9150506116c694506020925060ff191682840152151560051b82010138806116b8565b600019811461067a5760010190565b80518210156110c75760209160051b010190565b606090602081526016602082015275706978656c206973206f7574206f6620626f756e647360501b60408201520190565b91909182516001600160401b0381116105235761179f825461164e565b601f8111611849575b50602080601f83116001146117e55750819293946000926117da575b50508160011b916000199060031b1c1916179055565b0151905038806117c4565b90601f198316958460005282600020926000905b88821061183157505083600195969710611818575b505050811b019055565b015160001960f88460031b161c1916905538808061180e565b806001859682949686015181550195019301906117f9565b600083815260208120601f840160051c81019260208510611887575b601f0160051c01915b82811061187c5750506117a8565b81815560010161186e565b9092508290611865565b8181029291811591840414171561067a57565b9190820391821161067a57565b156118b857565b60405162461bcd60e51b815260206004820152602b60248201527f7820616e64207920696e7075742061727261797320617265206f66207661726960448201526a6f7573206c656e6774687360a81b6064820152608490fd5b9081602091031261012b5751801515810361012b5790565b6001600160a01b03918216815291166020820152604081019190915260600190565b919061195a83518251146118b1565b82516000935b81851061196e575050509050565b611978858261173d565b5194611984818561173d565b5160408080981091821592611d6e575b5050611d56576119a4818361173d565b51600052600695602096808852816000206119bf848861173d565b51600052885260018060a01b0391338382600020541603611d08576119e4848661173d565b51600052818952806000206119f9858961173d565b516000528952600498428a83600020015403611a2b575b50505050611a2291929394955061172e565b93929190611960565b611a43611a38868861173d565b516109bd878b61173d565b99600594808654169084516370a0823160e01b8152338482015260249085818381875afa908115611c7c57908f91600091611cd8575b5010611c87578551636eb1769f60e11b8152338582019081523060208201528690829081906040010381875afa908115611c7c57908f91600091611c49575b5010611bf8575060005485516323b872dd60e01b81529d85938f93909284928392611ae7921633898501611929565b03915a90600091f19a8b15611bed57611a229798999a9b611bd0575b50611b0e868961173d565b5160005283825282600020611b23878c61173d565b5160005282524290836000200155611b3b858861173d565b5160005282815281600020611b50868b61173d565b51600052815260ff8483600020015416611b70575b899897969550611a10565b600093611b7d868961173d565b518552838252828520611b90878c61173d565b518652825282852001805460ff19169055611bab858861173d565b51845282815281842090611bbf868b61173d565b518552528220015538808080611b65565b611be690833d8511610c6d57610c5e818361153b565b5038611b03565b83513d6000823e3d90fd5b8360276084928789519362461bcd60e51b85528401528201527f696e73756666696369656e7420616c6c6f77616e636520746f2070617920726f60448201526679616c7469657360c81b6064820152fd5b91508682813d8311611c75575b611c60818361153b565b81010312611c7257508e905138611ab8565b80fd5b503d611c56565b87513d6000823e3d90fd5b8360276084928789519362461bcd60e51b85528401528201527f6e6f742073756666696369656e742062616c616e636520746f2070617920726f60448201526679616c7469657360c81b6064820152fd5b91508682813d8311611d01575b611cef818361153b565b81010312611c7257508e905138611a79565b503d611ce5565b5162461bcd60e51b815260048101899052602260248201527f6f6e6c7920706978656c206f776e65722063616e2070617920726f79616c7469604482015261657360f01b6064820152608490fd5b855162461bcd60e51b815280610ebc60048201611751565b101590508638611994565b15611d8057565b60405162461bcd60e51b815260206004820152602360248201527f6e6f742073756666696369656e742062616c616e636520746f206275792070696044820152621e195b60ea1b6064820152608490fd5b15611dd857565b60405162461bcd60e51b815260206004820152602360248201527f696e73756666696369656e7420616c6c6f77616e636520746f206275792070696044820152621e195b60ea1b6064820152608490fd5b15611e3057565b60405162461bcd60e51b815260206004820152602c60248201527f6f776e65722063757272656e74206d616e616765722063616e2063616c6c207460448201526b3434b990333ab731ba34b7b760a11b6064820152608490fd5b60405190611e9782611505565b8160c06000918281528260208201528260408201526060808201528260808201528260a08201520152565b90611ecb611e8a565b5060409182811080611f90575b15611f565760005260066020528160002090600052602052600681600020825192611f0284611505565b81546001600160a01b0316845260018201546020850152600282015490840152611f2e60038201611688565b60608401526004810154608084015260ff600582015416151560a0840152015460c082015290565b825162461bcd60e51b8152602060048201526013602482015272706978656c206f7574206f6620626f756e647360681b6044820152606490fd5b50828210611ed8565b611fe9611ff2916002604064073df16000956000908482526006602052828220818352602052611fcf60048484200154426118a4565b948252600660205282822090825260205220015490611891565b60015490611891565b0490565b91929092821561269757600183146125c8576002831461259e5760038314612542576004928381146124ee5760058114612391576006811461233f57600781146122d857600881146121f557600914612060575050505060405161205981611520565b6000815290565b612069846127d6565b90612073816127d6565b600886018087116121e057612087906127d6565b94600883018093116121cb5750916121af8261164b96946120bc6120b66120b0604999976127d6565b9a6127d6565b926127d6565b91604051998a97602a6120ec8a602099693c7061746820643d224d60b01b8b8301528a8151948593019101611461565b890193600160fd1b9485602a82015261210e825180938b602b85019101611461565b016b010209c101c101810181018960a51b602b820152612137825180938a603785019101611461565b018360378201526121518251809389603885019101611461565b0161081360f21b60388201526121708251809388603a85019101611461565b0190603a82015261218a8251809386603b85019101611461565b019169102d11103334b6361e9160b11b603b8401528351938491604585019101611461565b01631110179f60e11b604582015203602981018452018261153b565b601190634e487b7160e01b6000525260246000fd5b601186634e487b7160e01b6000525260246000fd5b509260088101938482116122c35761220c856127d6565b9161221f612219836127d6565b916127d6565b94600883018093116121cb5750916121af8261164b96946122486120b66120b0604999976127d6565b91604051998a97602a6122788a602099693c7061746820643d224d60b01b8b8301528a8151948593019101611461565b890193600160fd1b9485602a82015261229a825180938b602b85019101611461565b016b010209c101c101810181018160a51b602b820152612137825180938a603785019101611461565b601184634e487b7160e01b6000525260246000fd5b506122e2846127d6565b906122ec816127d6565b6008860180961161232a57612300866127d6565b9460088301908184116121cb57506049949261164b9694926122486120b66120b06121af956127d6565b601185634e487b7160e01b6000525260246000fd5b50612349846127d6565b906008810180821161232a5761235e906127d6565b9360088601908187116121cb5750916121af6049949261238161164b97956127d6565b946122486120b66120b0846127d6565b509261239c816127d6565b90600885019081861161232a576123b2826127d6565b906123c56123bf826127d6565b976127d6565b95600882018092116121cb5750603f949261164b9694926123eb6120b66124d2946127d6565b91604051998a97602a61241b8a602099693c7061746820643d224d60b01b8b8301528a8151948593019101611461565b890193600160fd1b9485602a82015261243d825180938b602b85019101611461565b019161081360f21b9283602b82015261245f825180938b602d85019101611461565b0184602d820152612479825180938a602e85019101611461565b0190602e8201526124938251809388603085019101611461565b019060308201526124ad8251809386603185019101611461565b019169103d11103334b6361e9160b11b60318401528351938491603b85019101611461565b01631110179f60e11b603b82015203601f81018452018261153b565b50929160088301908184116121cb57612506826127d6565b9160088601918287116121cb5750916124d28261164b96946123eb6120b66123bf61253c612536603f9b996127d6565b946127d6565b9b6127d6565b915061254d836127d6565b92612557836127d6565b916008820180921161067a5761256c826127d6565b9461257f612579866127d6565b936127d6565b946008810180911161067a5761164b95603f956123eb6124d2936127d6565b91506125a9836127d6565b926125b3836127d6565b916008820180831161067a5761256c906127d6565b9150916004810180911161067a576125df906127d6565b906004810180911161067a5761164b916125fa6044926127d6565b936040519485926b1e31b4b931b6329031bc1e9160a11b602085015261262a815180926020602c88019101611461565b830165111031bc9e9160d11b602c82015261264f825180936020603285019101611461565b016d1110391e911a11103334b6361e9160911b603282015261267b825180936020604085019101611461565b01631110179f60e11b604082015203602481018452018261153b565b61164b92506126ab612219604f93956127d6565b93604051948592681e3932b1ba103c1e9160b91b60208501526126d8815180926020602988019101611461565b83016411103c9e9160d91b60298201526126fc825180936020602e85019101611461565b017f222077696474683d223822206865696768743d2238222066696c6c3d22000000602e820152612737825180936020604b85019101611461565b01631110179f60e11b604b82015203602f81018452018261153b565b6000929181546127628161164e565b926001918083169081156127bb575060011461277f575b50505050565b90919293945060005260209081600020906000915b8583106127aa5750505050019038808080612779565b805485840152918301918101612794565b60ff1916845250505081151590910201915038808080612779565b80156128965780816000925b6128825750806127f183611573565b926127ff604051948561153b565b808452601f1961280e82611573565b01366020860137915b61282057505090565b60001982019180831161067a5782600a908184049382850292858404148515171561067a5761285260ff9384926118a4565b1660300191821161067a57855111156110c75760f81b6001600160f81b03191660001a908401601f015380612817565b9161288e600a9161172e565b9204806127e2565b50604051604081018181106001600160401b038211176105235760405260018152600360fc1b60208201529056fea26469706673582212200993588d21d6c17c8c0c7af951fd206fe858d5848e57c0aebea5b75716a7a28c64736f6c63430008140033","opcodes":"PUSH1 0x80 DUP1 PUSH1 0x40 MSTORE CALLVALUE PUSH2 0x79 JUMPI PUSH1 0x32 PUSH1 0x1 SSTORE PUSH3 0xD2F00 DUP1 PUSH1 0x2 SSTORE PUSH1 0x1 DUP1 PUSH1 0xA0 SHL SUB NOT PUSH20 0xC02AAA39B223FE8D0A0E5C4F27EAD9083C756CC2 DUP2 PUSH1 0x5 SLOAD AND OR PUSH1 0x5 SSTORE CALLER SWAP1 PUSH1 0x0 SLOAD AND OR PUSH1 0x0 SSTORE TIMESTAMP PUSH1 0x3 SSTORE TIMESTAMP ADD DUP1 TIMESTAMP GT PUSH2 0x63 JUMPI PUSH1 0x4 SSTORE PUSH2 0x28FA SWAP1 DUP2 PUSH2 0x7F DUP3 CODECOPY RETURN JUMPDEST PUSH4 0x4E487B71 PUSH1 0xE0 SHL PUSH1 0x0 MSTORE PUSH1 0x11 PUSH1 0x4 MSTORE PUSH1 0x24 PUSH1 0x0 REVERT JUMPDEST PUSH1 0x0 DUP1 REVERT INVALID PUSH1 0x80 PUSH1 0x40 MSTORE PUSH1 0x4 CALLDATASIZE LT ISZERO PUSH2 0x12 JUMPI PUSH1 0x0 DUP1 REVERT JUMPDEST PUSH1 0x0 CALLDATALOAD PUSH1 0xE0 SHR DUP1 PUSH4 0x40CDFD8 EQ PUSH2 0x141D JUMPI DUP1 PUSH4 0x3BDB693E EQ PUSH2 0xF64 JUMPI DUP1 PUSH4 0x481C6A75 EQ PUSH2 0xF3B JUMPI DUP1 PUSH4 0x5E027601 EQ PUSH2 0xEEF JUMPI DUP1 PUSH4 0x6006ECC8 EQ PUSH2 0xEEA JUMPI DUP1 PUSH4 0x63AA5CE2 EQ PUSH2 0xEEA JUMPI DUP1 PUSH4 0x6E70FCC6 EQ PUSH2 0xECC JUMPI DUP1 PUSH4 0x6ED958F1 EQ PUSH2 0x8CE JUMPI DUP1 PUSH4 0x8232B562 EQ PUSH2 0x690 JUMPI DUP1 PUSH4 0x85A9473D EQ PUSH2 0x557 JUMPI DUP1 PUSH4 0x91408017 EQ PUSH2 0x539 JUMPI DUP1 PUSH4 0xAD711E9E EQ PUSH2 0x3DF JUMPI DUP1 PUSH4 0xBF59B1BC EQ PUSH2 0x3C1 JUMPI DUP1 PUSH4 0xC4D1510D EQ PUSH2 0x3A3 JUMPI DUP1 PUSH4 0xC4E4B90C EQ PUSH2 0x376 JUMPI DUP1 PUSH4 0xC730E65D EQ PUSH2 0x2DC JUMPI DUP1 PUSH4 0xC7EAB2EC EQ PUSH2 0x1CD JUMPI DUP1 PUSH4 0xD08629C1 EQ PUSH2 0x1AC JUMPI DUP1 PUSH4 0xD70FBD97 EQ PUSH2 0x18E JUMPI DUP1 PUSH4 0xE1245900 EQ PUSH2 0x149 JUMPI DUP1 PUSH4 0xE50EB5DA EQ PUSH2 0x130 JUMPI PUSH4 0xFD8D7ED3 EQ PUSH2 0x10E JUMPI PUSH1 0x0 DUP1 REVERT JUMPDEST CALLVALUE PUSH2 0x12B JUMPI PUSH1 0x0 CALLDATASIZE PUSH1 0x3 NOT ADD SLT PUSH2 0x12B JUMPI PUSH1 0x20 PUSH1 0x40 MLOAD PUSH2 0x3E8 DUP2 MSTORE RETURN JUMPDEST PUSH1 0x0 DUP1 REVERT JUMPDEST CALLVALUE PUSH2 0x12B JUMPI PUSH2 0x147 PUSH2 0x141 CALLDATASIZE PUSH2 0x1608 JUMP JUMPDEST SWAP1 PUSH2 0x194B JUMP JUMPDEST STOP JUMPDEST CALLVALUE PUSH2 0x12B JUMPI PUSH1 0x20 CALLDATASIZE PUSH1 0x3 NOT ADD SLT PUSH2 0x12B JUMPI PUSH1 0x4 CALLDATALOAD PUSH1 0x40 DUP2 LT ISZERO PUSH2 0x12B JUMPI PUSH2 0x176 PUSH2 0x18A SWAP2 PUSH2 0x1007 ADD PUSH2 0x1688 JUMP JUMPDEST PUSH1 0x40 MLOAD SWAP2 DUP3 SWAP2 PUSH1 0x20 DUP4 MSTORE PUSH1 0x20 DUP4 ADD SWAP1 PUSH2 0x1484 JUMP JUMPDEST SUB SWAP1 RETURN JUMPDEST CALLVALUE PUSH2 0x12B JUMPI PUSH1 0x0 CALLDATASIZE PUSH1 0x3 NOT ADD SLT PUSH2 0x12B JUMPI PUSH1 0x20 PUSH1 0x4 SLOAD PUSH1 0x40 MLOAD SWAP1 DUP2 MSTORE RETURN JUMPDEST CALLVALUE PUSH2 0x12B JUMPI PUSH1 0x20 PUSH2 0x1C5 PUSH2 0x1BF CALLDATASIZE PUSH2 0x144B JUMP JUMPDEST SWAP1 PUSH2 0x1F99 JUMP JUMPDEST PUSH1 0x40 MLOAD SWAP1 DUP2 MSTORE RETURN JUMPDEST CALLVALUE PUSH2 0x12B JUMPI PUSH2 0x1DB CALLDATASIZE PUSH2 0x1608 JUMP JUMPDEST PUSH2 0x1E8 DUP3 MLOAD DUP3 MLOAD EQ PUSH2 0x18B1 JUMP JUMPDEST DUP2 MLOAD SWAP1 PUSH2 0x1F4 DUP3 PUSH2 0x155C JUMP JUMPDEST SWAP3 PUSH2 0x202 PUSH1 0x40 MLOAD SWAP5 DUP6 PUSH2 0x153B JUMP JUMPDEST DUP3 DUP5 MSTORE PUSH1 0x1F NOT PUSH2 0x211 DUP5 PUSH2 0x155C JUMP JUMPDEST ADD PUSH1 0x0 JUMPDEST DUP2 DUP2 LT PUSH2 0x2C5 JUMPI POP POP PUSH1 0x0 JUMPDEST DUP4 DUP2 LT PUSH2 0x287 JUMPI PUSH1 0x40 DUP1 MLOAD PUSH1 0x20 DUP1 DUP3 MSTORE DUP8 MLOAD DUP2 DUP4 ADD DUP2 SWAP1 MSTORE PUSH1 0x0 SWAP4 PUSH1 0x5 DUP3 SWAP1 SHL DUP5 ADD DUP2 ADD SWAP3 DUP1 DUP12 ADD SWAP3 SWAP2 DUP6 ADD JUMPDEST DUP3 DUP8 LT PUSH2 0x25B JUMPI DUP6 DUP6 SUB DUP7 RETURN JUMPDEST SWAP1 SWAP2 SWAP3 SWAP4 DUP3 DUP1 PUSH2 0x277 PUSH1 0x1 SWAP4 PUSH1 0x3F NOT DUP11 DUP3 SUB ADD DUP7 MSTORE DUP9 MLOAD PUSH2 0x14A9 JUMP JUMPDEST SWAP7 ADD SWAP3 ADD SWAP7 ADD SWAP6 SWAP3 SWAP2 SWAP1 SWAP3 PUSH2 0x24E JUMP JUMPDEST DUP1 PUSH2 0x2A9 PUSH2 0x297 PUSH1 0x1 SWAP4 DUP6 PUSH2 0x173D JUMP JUMPDEST MLOAD PUSH2 0x2A2 DUP4 DUP8 PUSH2 0x173D JUMP JUMPDEST MLOAD SWAP1 PUSH2 0x1EC2 JUMP JUMPDEST PUSH2 0x2B3 DUP3 DUP9 PUSH2 0x173D JUMP JUMPDEST MSTORE PUSH2 0x2BE DUP2 DUP8 PUSH2 0x173D JUMP JUMPDEST POP ADD PUSH2 0x221 JUMP JUMPDEST PUSH1 0x20 SWAP1 PUSH2 0x2D0 PUSH2 0x1E8A JUMP JUMPDEST DUP3 DUP3 DUP10 ADD ADD MSTORE ADD PUSH2 0x215 JUMP JUMPDEST CALLVALUE PUSH2 0x12B JUMPI PUSH2 0x2EA CALLDATASIZE PUSH2 0x144B JUMP JUMPDEST SWAP1 PUSH1 0x0 MSTORE PUSH1 0x6 PUSH1 0x20 MSTORE PUSH1 0x40 PUSH1 0x0 KECCAK256 SWAP1 PUSH1 0x0 MSTORE PUSH1 0x20 MSTORE PUSH1 0x40 PUSH1 0x0 KECCAK256 PUSH1 0x1 DUP1 PUSH1 0xA0 SHL SUB DUP2 SLOAD AND PUSH1 0x1 DUP3 ADD SLOAD SWAP2 PUSH1 0x2 DUP2 ADD SLOAD PUSH2 0x325 PUSH1 0x3 DUP4 ADD PUSH2 0x1688 JUMP JUMPDEST SWAP2 PUSH2 0x360 PUSH1 0x4 DUP3 ADD SLOAD SWAP4 PUSH1 0x6 PUSH1 0xFF PUSH1 0x5 DUP6 ADD SLOAD AND SWAP4 ADD SLOAD SWAP4 PUSH1 0x40 MLOAD SWAP8 DUP9 SWAP8 DUP9 MSTORE PUSH1 0x20 DUP9 ADD MSTORE PUSH1 0x40 DUP8 ADD MSTORE PUSH1 0xE0 PUSH1 0x60 DUP8 ADD MSTORE PUSH1 0xE0 DUP7 ADD SWAP1 PUSH2 0x1484 JUMP JUMPDEST SWAP3 PUSH1 0x80 DUP6 ADD MSTORE ISZERO ISZERO PUSH1 0xA0 DUP5 ADD MSTORE PUSH1 0xC0 DUP4 ADD MSTORE SUB SWAP1 RETURN JUMPDEST CALLVALUE PUSH2 0x12B JUMPI PUSH1 0x20 CALLDATASIZE PUSH1 0x3 NOT ADD SLT PUSH2 0x12B JUMPI PUSH1 0x4 CALLDATALOAD PUSH2 0x1000 DUP2 LT ISZERO PUSH2 0x12B JUMPI PUSH2 0x176 PUSH2 0x18A SWAP2 PUSH1 0x7 ADD PUSH2 0x1688 JUMP JUMPDEST CALLVALUE PUSH2 0x12B JUMPI PUSH1 0x0 CALLDATASIZE PUSH1 0x3 NOT ADD SLT PUSH2 0x12B JUMPI PUSH1 0x20 PUSH1 0x1 SLOAD PUSH1 0x40 MLOAD SWAP1 DUP2 MSTORE RETURN JUMPDEST CALLVALUE PUSH2 0x12B JUMPI PUSH1 0x0 CALLDATASIZE PUSH1 0x3 NOT ADD SLT PUSH2 0x12B JUMPI PUSH1 0x20 PUSH1 0x3 SLOAD PUSH1 0x40 MLOAD SWAP1 DUP2 MSTORE RETURN JUMPDEST CALLVALUE PUSH2 0x12B JUMPI PUSH1 0x0 CALLDATASIZE PUSH1 0x3 NOT ADD SLT PUSH2 0x12B JUMPI PUSH1 0x40 MLOAD PUSH1 0x80 DUP2 ADD DUP2 DUP2 LT PUSH1 0x1 PUSH1 0x1 PUSH1 0x40 SHL SUB DUP3 GT OR PUSH2 0x523 JUMPI PUSH1 0x40 MSTORE PUSH1 0x57 DUP2 MSTORE PUSH1 0x20 SWAP1 PUSH32 0x3C7376672077696474683D2236303022206865696768743D2236303022207669 DUP3 DUP3 ADD MSTORE PUSH32 0x6577426F783D2230203020363030203630302220786D6C6E733D22687474703A PUSH1 0x40 DUP3 ADD MSTORE PUSH23 0x1797BBBBBB973B999737B933979918181817B9BB33911F PUSH1 0x49 SHL PUSH1 0x60 DUP3 ADD MSTORE SWAP1 PUSH1 0x0 JUMPDEST PUSH1 0x40 DUP2 LT PUSH2 0x4D9 JUMPI POP PUSH2 0x4C5 PUSH1 0x26 PUSH1 0x40 MLOAD DUP5 PUSH2 0x4A7 DUP3 SWAP7 MLOAD DUP1 SWAP3 DUP8 DUP1 DUP7 ADD SWAP2 ADD PUSH2 0x1461 JUMP JUMPDEST DUP2 ADD PUSH6 0x1E17B9BB339F PUSH1 0xD1 SHL DUP6 DUP3 ADD MSTORE SUB PUSH1 0x6 DUP2 ADD DUP6 MSTORE ADD DUP4 PUSH2 0x153B JUMP JUMPDEST PUSH2 0x18A PUSH1 0x40 MLOAD SWAP3 DUP3 DUP5 SWAP4 DUP5 MSTORE DUP4 ADD SWAP1 PUSH2 0x1484 JUMP JUMPDEST SWAP2 DUP2 PUSH2 0x518 PUSH2 0x51E SWAP3 PUSH2 0x50A PUSH1 0x40 MLOAD SWAP4 DUP3 PUSH2 0x4FD DUP7 SWAP5 MLOAD DUP1 SWAP3 DUP5 DUP1 DUP9 ADD SWAP2 ADD PUSH2 0x1461 JUMP JUMPDEST DUP4 ADD ADD DUP8 PUSH2 0x1007 ADD PUSH2 0x2753 JUMP JUMPDEST SUB PUSH1 0x1F NOT DUP2 ADD DUP4 MSTORE DUP3 PUSH2 0x153B JUMP JUMPDEST SWAP3 PUSH2 0x172E JUMP JUMPDEST PUSH2 0x482 JUMP JUMPDEST PUSH4 0x4E487B71 PUSH1 0xE0 SHL PUSH1 0x0 MSTORE PUSH1 0x41 PUSH1 0x4 MSTORE PUSH1 0x24 PUSH1 0x0 REVERT JUMPDEST CALLVALUE PUSH2 0x12B JUMPI PUSH1 0x0 CALLDATASIZE PUSH1 0x3 NOT ADD SLT PUSH2 0x12B JUMPI PUSH1 0x20 PUSH1 0x2 SLOAD PUSH1 0x40 MLOAD SWAP1 DUP2 MSTORE RETURN JUMPDEST CALLVALUE PUSH2 0x12B JUMPI PUSH1 0x60 CALLDATASIZE PUSH1 0x3 NOT ADD SLT PUSH2 0x12B JUMPI PUSH1 0x4 CALLDATALOAD PUSH1 0x24 CALLDATALOAD PUSH2 0x583 PUSH1 0x1 DUP1 PUSH1 0xA0 SHL SUB PUSH1 0x0 SLOAD AND CALLER EQ PUSH2 0x1E29 JUMP JUMPDEST DUP2 PUSH1 0x0 MSTORE PUSH1 0x6 SWAP2 PUSH1 0x20 SWAP1 DUP4 DUP3 MSTORE PUSH1 0x40 PUSH1 0x0 KECCAK256 DUP4 PUSH1 0x0 MSTORE DUP3 MSTORE PUSH1 0xFF PUSH1 0x5 PUSH1 0x40 PUSH1 0x0 KECCAK256 ADD SLOAD AND DUP1 PUSH2 0x64B JUMPI JUMPDEST ISZERO PUSH2 0x608 JUMPI SWAP1 DUP2 PUSH1 0x0 SWAP5 SWAP4 SWAP3 DUP6 MSTORE DUP4 DUP3 MSTORE PUSH1 0x40 DUP6 KECCAK256 DUP4 DUP7 MSTORE DUP3 MSTORE PUSH1 0x44 CALLDATALOAD PUSH1 0x2 PUSH1 0x40 DUP8 KECCAK256 ADD SSTORE DUP1 DUP6 MSTORE DUP4 DUP3 MSTORE PUSH1 0x40 DUP6 KECCAK256 DUP4 DUP7 MSTORE DUP3 MSTORE PUSH1 0x5 PUSH1 0x40 DUP7 KECCAK256 ADD PUSH1 0xFF NOT DUP2 SLOAD AND SWAP1 SSTORE DUP5 MSTORE DUP3 DUP2 MSTORE PUSH1 0x40 DUP5 KECCAK256 SWAP2 DUP5 MSTORE MSTORE PUSH1 0x40 DUP3 KECCAK256 ADD SSTORE PUSH1 0x0 DUP1 RETURN JUMPDEST DUP1 PUSH1 0x0 MSTORE DUP4 DUP3 MSTORE PUSH1 0x40 PUSH1 0x0 KECCAK256 DUP4 PUSH1 0x0 MSTORE DUP3 MSTORE PUSH1 0x5 PUSH1 0x40 PUSH1 0x0 KECCAK256 ADD PUSH1 0x1 PUSH1 0xFF NOT DUP3 SLOAD AND OR SWAP1 SSTORE PUSH1 0x0 MSTORE DUP3 DUP2 MSTORE PUSH1 0x40 PUSH1 0x0 KECCAK256 SWAP2 PUSH1 0x0 MSTORE MSTORE TIMESTAMP SWAP1 PUSH1 0x40 PUSH1 0x0 KECCAK256 ADD SSTORE PUSH1 0x0 DUP1 RETURN JUMPDEST POP DUP1 PUSH1 0x0 MSTORE DUP4 DUP3 MSTORE PUSH1 0x40 PUSH1 0x0 KECCAK256 DUP4 PUSH1 0x0 MSTORE DUP3 MSTORE DUP4 PUSH1 0x40 PUSH1 0x0 KECCAK256 ADD SLOAD PUSH3 0x3F480 DUP2 ADD DUP1 SWAP2 GT PUSH2 0x67A JUMPI TIMESTAMP GT PUSH2 0x5AD JUMP JUMPDEST PUSH4 0x4E487B71 PUSH1 0xE0 SHL PUSH1 0x0 MSTORE PUSH1 0x11 PUSH1 0x4 MSTORE PUSH1 0x24 PUSH1 0x0 REVERT JUMPDEST CALLVALUE PUSH2 0x12B JUMPI PUSH1 0x60 CALLDATASIZE PUSH1 0x3 NOT ADD SLT PUSH2 0x12B JUMPI PUSH1 0x1 PUSH1 0x1 PUSH1 0x40 SHL SUB PUSH1 0x4 CALLDATALOAD DUP2 DUP2 GT PUSH2 0x12B JUMPI PUSH2 0x6C1 SWAP1 CALLDATASIZE SWAP1 PUSH1 0x4 ADD PUSH2 0x15AA JUMP JUMPDEST SWAP1 PUSH1 0x24 SWAP2 DUP3 CALLDATALOAD DUP3 DUP2 GT PUSH2 0x12B JUMPI PUSH2 0x6DC SWAP1 CALLDATASIZE SWAP1 PUSH1 0x4 ADD PUSH2 0x15AA JUMP JUMPDEST PUSH1 0x44 SWAP3 DUP4 CALLDATALOAD SWAP1 DUP2 GT PUSH2 0x12B JUMPI PUSH2 0x6F6 SWAP1 CALLDATASIZE SWAP1 PUSH1 0x4 ADD PUSH2 0x15AA JUMP JUMPDEST SWAP4 DUP3 MLOAD DUP3 MLOAD DUP2 EQ SWAP1 DUP2 PUSH2 0x8C3 JUMPI JUMPDEST POP ISZERO PUSH2 0x870 JUMPI DUP3 MLOAD SWAP4 PUSH1 0x0 JUMPDEST DUP6 DUP2 LT PUSH2 0x776 JUMPI POP POP POP PUSH2 0x724 DUP2 DUP4 PUSH2 0x194B JUMP JUMPDEST PUSH1 0x0 JUMPDEST DUP4 DUP2 LT PUSH2 0x730 JUMPI STOP JUMPDEST DUP1 PUSH2 0x73D PUSH1 0x1 SWAP3 DUP8 PUSH2 0x173D JUMP JUMPDEST MLOAD PUSH2 0x748 DUP3 DUP7 PUSH2 0x173D JUMP JUMPDEST MLOAD PUSH1 0x0 MSTORE PUSH1 0x20 PUSH1 0x6 DUP2 MSTORE PUSH1 0x40 PUSH1 0x0 KECCAK256 SWAP1 PUSH2 0x762 DUP5 DUP8 PUSH2 0x173D JUMP JUMPDEST MLOAD PUSH1 0x0 MSTORE MSTORE PUSH1 0x2 PUSH1 0x40 PUSH1 0x0 KECCAK256 ADD SSTORE ADD PUSH2 0x727 JUMP JUMPDEST PUSH2 0x780 DUP2 DUP7 PUSH2 0x173D JUMP JUMPDEST MLOAD PUSH1 0x40 PUSH2 0x78D DUP4 DUP8 PUSH2 0x173D JUMP JUMPDEST MLOAD SWAP2 LT SWAP1 DUP2 ISZERO SWAP2 PUSH2 0x864 JUMPI JUMPDEST POP PUSH2 0x826 JUMPI PUSH2 0x7A8 DUP2 DUP7 PUSH2 0x173D JUMP JUMPDEST MLOAD PUSH1 0x0 MSTORE PUSH1 0x20 PUSH1 0x6 DUP2 MSTORE PUSH1 0x40 PUSH1 0x0 KECCAK256 PUSH2 0x7C1 DUP4 DUP8 PUSH2 0x173D JUMP JUMPDEST MLOAD PUSH1 0x0 MSTORE DUP2 MSTORE CALLER PUSH1 0x1 DUP1 PUSH1 0xA0 SHL SUB PUSH1 0x40 PUSH1 0x0 KECCAK256 SLOAD AND SUB PUSH2 0x7E4 JUMPI POP PUSH1 0x1 ADD PUSH2 0x710 JUMP JUMPDEST PUSH1 0x64 SWAP1 PUSH32 0x6F6E6C79206F776E65722063616E2073657420706978656C2076616C75650000 DUP5 PUSH1 0x1E DUP8 PUSH1 0x40 MLOAD SWAP5 PUSH3 0x461BCD PUSH1 0xE5 SHL DUP7 MSTORE PUSH1 0x4 DUP7 ADD MSTORE DUP5 ADD MSTORE DUP3 ADD MSTORE REVERT JUMPDEST PUSH1 0x40 MLOAD PUSH3 0x461BCD PUSH1 0xE5 SHL DUP2 MSTORE PUSH1 0x20 PUSH1 0x4 DUP3 ADD MSTORE PUSH1 0x18 DUP2 DUP6 ADD MSTORE PUSH24 0x4120706978656C206973206F7574206F6620626F756E6473 PUSH1 0x40 SHL DUP2 DUP5 ADD MSTORE PUSH1 0x64 SWAP1 REVERT JUMPDEST PUSH1 0x40 SWAP2 POP LT ISZERO DUP9 PUSH2 0x799 JUMP JUMPDEST PUSH1 0x84 SWAP1 PUSH32 0x696E70757420617272617973206D757374206265206F66207468652073616D65 DUP6 PUSH1 0x27 PUSH1 0x40 MLOAD SWAP4 PUSH3 0x461BCD PUSH1 0xE5 SHL DUP6 MSTORE PUSH1 0x20 PUSH1 0x4 DUP7 ADD MSTORE DUP5 ADD MSTORE DUP3 ADD MSTORE PUSH7 0x40D8CADCCEE8D PUSH1 0xCB SHL PUSH1 0x64 DUP3 ADD MSTORE REVERT JUMPDEST SWAP1 POP DUP6 MLOAD EQ DUP7 PUSH2 0x704 JUMP JUMPDEST CALLVALUE PUSH2 0x12B JUMPI PUSH2 0x8DC CALLDATASIZE PUSH2 0x1608 JUMP JUMPDEST PUSH2 0x8E9 DUP3 MLOAD DUP3 MLOAD EQ PUSH2 0x18B1 JUMP JUMPDEST DUP2 MLOAD SWAP1 PUSH1 0x0 JUMPDEST DUP3 DUP2 LT PUSH2 0x8F8 JUMPI STOP JUMPDEST PUSH2 0x902 DUP2 DUP6 PUSH2 0x173D JUMP JUMPDEST MLOAD PUSH1 0x40 PUSH2 0x90F DUP4 DUP6 PUSH2 0x173D JUMP JUMPDEST MLOAD SWAP2 LT SWAP1 DUP2 ISZERO SWAP2 PUSH2 0xEC0 JUMPI JUMPDEST POP PUSH2 0xEA3 JUMPI PUSH2 0x92A DUP2 DUP6 PUSH2 0x173D JUMP JUMPDEST MLOAD PUSH1 0x0 MSTORE PUSH1 0x6 PUSH1 0x20 MSTORE PUSH1 0x40 PUSH1 0x0 KECCAK256 PUSH2 0x942 DUP3 DUP5 PUSH2 0x173D JUMP JUMPDEST MLOAD PUSH1 0x0 MSTORE PUSH1 0x20 MSTORE PUSH1 0x1 DUP1 PUSH1 0xA0 SHL SUB PUSH1 0x40 PUSH1 0x0 KECCAK256 SLOAD AND ISZERO PUSH1 0x0 EQ PUSH2 0x9A5 JUMPI DUP1 PUSH2 0x96C PUSH1 0x1 SWAP3 DUP7 PUSH2 0x173D JUMP JUMPDEST MLOAD PUSH1 0x0 MSTORE PUSH1 0x6 PUSH1 0x20 MSTORE PUSH1 0x40 PUSH1 0x0 KECCAK256 PUSH2 0x984 DUP3 DUP6 PUSH2 0x173D JUMP JUMPDEST MLOAD PUSH1 0x0 MSTORE PUSH1 0x20 MSTORE PUSH1 0x40 PUSH1 0x0 KECCAK256 CALLER DUP4 DUP1 PUSH1 0xA0 SHL SUB NOT DUP3 SLOAD AND OR SWAP1 SSTORE JUMPDEST ADD PUSH2 0x8EF JUMP JUMPDEST PUSH2 0x9C4 PUSH2 0x9B2 DUP3 DUP7 PUSH2 0x173D JUMP JUMPDEST MLOAD PUSH2 0x9BD DUP4 DUP6 PUSH2 0x173D JUMP JUMPDEST MLOAD SWAP1 PUSH2 0x1F99 JUMP JUMPDEST SWAP1 PUSH2 0x9CF DUP2 DUP7 PUSH2 0x173D JUMP JUMPDEST MLOAD PUSH1 0x0 MSTORE PUSH1 0x6 PUSH1 0x20 MSTORE PUSH1 0x40 PUSH1 0x0 KECCAK256 PUSH2 0x9E7 DUP3 DUP6 PUSH2 0x173D JUMP JUMPDEST MLOAD PUSH1 0x0 MSTORE PUSH1 0x20 MSTORE PUSH1 0x2 SWAP2 DUP1 DUP4 PUSH1 0x40 PUSH1 0x0 KECCAK256 ADD SLOAD GT PUSH1 0x0 EQ PUSH2 0xD09 JUMPI PUSH2 0xA0C DUP3 DUP8 PUSH2 0x173D JUMP JUMPDEST MLOAD PUSH1 0x0 MSTORE PUSH1 0x6 PUSH1 0x20 MSTORE PUSH1 0x40 PUSH1 0x0 KECCAK256 PUSH2 0xA24 DUP4 DUP7 PUSH2 0x173D JUMP JUMPDEST MLOAD PUSH1 0x0 MSTORE PUSH1 0x20 MSTORE PUSH2 0xA3C DUP2 DUP5 PUSH1 0x40 PUSH1 0x0 KECCAK256 ADD SLOAD PUSH2 0x18A4 JUMP JUMPDEST SWAP1 PUSH1 0x1 DUP1 PUSH1 0xA0 SHL SUB PUSH1 0x5 SLOAD AND SWAP4 PUSH1 0x40 MLOAD PUSH4 0x70A08231 PUSH1 0xE0 SHL DUP2 MSTORE CALLER PUSH1 0x4 DUP3 ADD MSTORE PUSH1 0x20 DUP2 PUSH1 0x24 DUP2 DUP10 GAS STATICCALL DUP1 ISZERO PUSH2 0xC74 JUMPI PUSH1 0x0 SWAP1 PUSH2 0xCD5 JUMPI JUMPDEST PUSH2 0xAAF SWAP2 POP PUSH2 0xA82 DUP7 DUP12 PUSH2 0x173D JUMP JUMPDEST MLOAD PUSH1 0x0 MSTORE PUSH1 0x6 PUSH1 0x20 MSTORE PUSH1 0x40 PUSH1 0x0 KECCAK256 PUSH2 0xA9A DUP8 DUP11 PUSH2 0x173D JUMP JUMPDEST MLOAD PUSH1 0x0 MSTORE PUSH1 0x20 MSTORE DUP3 PUSH1 0x40 PUSH1 0x0 KECCAK256 ADD SLOAD LT PUSH2 0x1D79 JUMP JUMPDEST PUSH1 0x40 MLOAD PUSH4 0x6EB1769F PUSH1 0xE1 SHL DUP2 MSTORE CALLER PUSH1 0x4 DUP3 ADD MSTORE ADDRESS PUSH1 0x24 DUP3 ADD MSTORE SWAP1 PUSH1 0x20 DUP3 PUSH1 0x44 DUP2 DUP10 GAS STATICCALL SWAP2 DUP3 ISZERO PUSH2 0xC74 JUMPI DUP10 SWAP1 PUSH1 0x0 SWAP4 PUSH2 0xC9D JUMPI JUMPDEST POP SWAP6 PUSH2 0xB22 PUSH1 0x20 SWAP4 PUSH2 0xB77 SWAP4 PUSH2 0xAFB DUP10 PUSH1 0x0 SWAP12 PUSH2 0x173D JUMP JUMPDEST MLOAD DUP11 MSTORE PUSH1 0x6 DUP7 MSTORE PUSH1 0x40 DUP11 KECCAK256 PUSH2 0xB10 DUP11 DUP14 PUSH2 0x173D JUMP JUMPDEST MLOAD DUP12 MSTORE DUP7 MSTORE PUSH1 0x40 DUP11 KECCAK256 ADD SLOAD GT ISZERO PUSH2 0x1DD1 JUMP JUMPDEST PUSH2 0xB2C DUP7 DUP12 PUSH2 0x173D JUMP JUMPDEST MLOAD DUP8 MSTORE PUSH1 0x6 DUP4 MSTORE PUSH1 0x40 DUP8 KECCAK256 PUSH2 0xB41 DUP8 DUP11 PUSH2 0x173D JUMP JUMPDEST MLOAD DUP9 MSTORE DUP4 MSTORE PUSH1 0x40 DUP1 DUP9 KECCAK256 SLOAD SWAP1 MLOAD PUSH4 0x23B872DD PUSH1 0xE0 SHL DUP1 DUP3 MSTORE SWAP1 SWAP9 SWAP1 SWAP7 DUP10 SWAP5 DUP6 SWAP4 DUP5 SWAP3 SWAP1 PUSH1 0x1 PUSH1 0x1 PUSH1 0xA0 SHL SUB AND CALLER PUSH1 0x4 DUP6 ADD PUSH2 0x1929 JUMP JUMPDEST SUB SWAP3 GAS CALL SWAP2 DUP3 ISZERO PUSH2 0xC74 JUMPI PUSH2 0xBBD SWAP5 PUSH1 0x20 SWAP4 PUSH2 0xC80 JUMPI JUMPDEST POP PUSH1 0x5 SLOAD PUSH1 0x0 DUP1 SLOAD PUSH1 0x40 MLOAD SWAP4 DUP5 MSTORE SWAP3 SWAP7 DUP8 SWAP5 PUSH1 0x1 PUSH1 0x1 PUSH1 0xA0 SHL SUB SWAP4 DUP5 AND SWAP5 DUP7 SWAP5 DUP6 SWAP4 SWAP3 SWAP2 AND CALLER PUSH1 0x4 DUP6 ADD PUSH2 0x1929 JUMP JUMPDEST SUB SWAP3 GAS CALL SWAP2 DUP3 ISZERO PUSH2 0xC74 JUMPI PUSH1 0x1 SWAP3 PUSH2 0xC45 JUMPI JUMPDEST POP PUSH2 0xBDB DUP2 DUP7 PUSH2 0x173D JUMP JUMPDEST MLOAD PUSH1 0x0 MSTORE PUSH1 0x6 PUSH1 0x20 MSTORE PUSH1 0x40 PUSH1 0x0 KECCAK256 PUSH2 0xBF3 DUP3 DUP6 PUSH2 0x173D JUMP JUMPDEST MLOAD PUSH1 0x0 MSTORE PUSH1 0x20 MSTORE PUSH1 0x40 PUSH1 0x0 KECCAK256 CALLER DUP4 DUP1 PUSH1 0xA0 SHL SUB NOT DUP3 SLOAD AND OR SWAP1 SSTORE PUSH2 0xC17 DUP2 DUP7 PUSH2 0x173D JUMP JUMPDEST MLOAD PUSH1 0x0 MSTORE PUSH1 0x6 PUSH1 0x20 MSTORE PUSH1 0x40 PUSH1 0x0 KECCAK256 PUSH2 0xC2F DUP3 DUP6 PUSH2 0x173D JUMP JUMPDEST MLOAD PUSH1 0x0 MSTORE PUSH1 0x20 MSTORE TIMESTAMP PUSH1 0x4 PUSH1 0x40 PUSH1 0x0 KECCAK256 ADD SSTORE PUSH2 0x99F JUMP JUMPDEST PUSH2 0xC66 SWAP1 PUSH1 0x20 RETURNDATASIZE PUSH1 0x20 GT PUSH2 0xC6D JUMPI JUMPDEST PUSH2 0xC5E DUP2 DUP4 PUSH2 0x153B JUMP JUMPDEST DUP2 ADD SWAP1 PUSH2 0x1911 JUMP JUMPDEST POP DUP6 PUSH2 0xBD0 JUMP JUMPDEST POP RETURNDATASIZE PUSH2 0xC54 JUMP JUMPDEST PUSH1 0x40 MLOAD RETURNDATASIZE PUSH1 0x0 DUP3 RETURNDATACOPY RETURNDATASIZE SWAP1 REVERT JUMPDEST PUSH2 0xC96 SWAP1 DUP5 RETURNDATASIZE DUP7 GT PUSH2 0xC6D JUMPI PUSH2 0xC5E DUP2 DUP4 PUSH2 0x153B JUMP JUMPDEST POP DUP9 PUSH2 0xB8E JUMP JUMPDEST SWAP2 SWAP3 POP POP PUSH1 0x20 DUP2 RETURNDATASIZE PUSH1 0x20 GT PUSH2 0xCCD JUMPI JUMPDEST DUP2 PUSH2 0xCBA PUSH1 0x20 SWAP4 DUP4 PUSH2 0x153B JUMP JUMPDEST DUP2 ADD SUB SLT PUSH2 0x12B JUMPI MLOAD SWAP1 DUP9 PUSH2 0xB22 PUSH2 0xAE3 JUMP JUMPDEST RETURNDATASIZE SWAP2 POP PUSH2 0xCAD JUMP JUMPDEST POP PUSH1 0x20 DUP2 RETURNDATASIZE PUSH1 0x20 GT PUSH2 0xD01 JUMPI JUMPDEST DUP2 PUSH2 0xCEF PUSH1 0x20 SWAP4 DUP4 PUSH2 0x153B JUMP JUMPDEST DUP2 ADD SUB SLT PUSH2 0x12B JUMPI PUSH2 0xAAF SWAP1 MLOAD PUSH2 0xA73 JUMP JUMPDEST RETURNDATASIZE SWAP2 POP PUSH2 0xCE2 JUMP JUMPDEST POP PUSH1 0x5 SLOAD PUSH1 0x40 MLOAD PUSH4 0x70A08231 PUSH1 0xE0 SHL DUP2 MSTORE CALLER PUSH1 0x4 DUP3 ADD MSTORE PUSH1 0x1 PUSH1 0x1 PUSH1 0xA0 SHL SUB SWAP1 SWAP2 AND SWAP3 SWAP1 PUSH1 0x20 DUP2 PUSH1 0x24 DUP2 DUP8 GAS STATICCALL DUP1 ISZERO PUSH2 0xC74 JUMPI PUSH1 0x0 SWAP1 PUSH2 0xE6F JUMPI JUMPDEST PUSH2 0xD6B SWAP2 POP PUSH2 0xD53 DUP5 DUP10 PUSH2 0x173D JUMP JUMPDEST MLOAD PUSH1 0x0 MSTORE PUSH1 0x6 PUSH1 0x20 MSTORE PUSH1 0x40 PUSH1 0x0 KECCAK256 PUSH2 0xA9A DUP6 DUP9 PUSH2 0x173D JUMP JUMPDEST PUSH1 0x40 MLOAD PUSH4 0x6EB1769F PUSH1 0xE1 SHL DUP2 MSTORE CALLER PUSH1 0x4 DUP3 ADD MSTORE ADDRESS PUSH1 0x24 DUP3 ADD MSTORE PUSH1 0x20 DUP2 PUSH1 0x44 DUP2 DUP8 GAS STATICCALL SWAP1 DUP2 ISZERO PUSH2 0xC74 JUMPI PUSH1 0x0 SWAP2 PUSH2 0xE39 JUMPI JUMPDEST POP SWAP1 PUSH2 0xBBD SWAP4 PUSH2 0xDDE PUSH1 0x20 SWAP4 PUSH2 0xDB2 DUP7 DUP12 PUSH2 0x173D JUMP JUMPDEST MLOAD PUSH1 0x0 MSTORE PUSH1 0x6 DUP6 MSTORE PUSH1 0x40 PUSH1 0x0 KECCAK256 PUSH2 0xDC9 DUP8 DUP11 PUSH2 0x173D JUMP JUMPDEST MLOAD PUSH1 0x0 MSTORE DUP6 MSTORE DUP4 PUSH1 0x40 PUSH1 0x0 KECCAK256 ADD SLOAD GT ISZERO PUSH2 0x1DD1 JUMP JUMPDEST PUSH1 0x0 SLOAD PUSH1 0x1 PUSH1 0x1 PUSH1 0xA0 SHL SUB AND SWAP2 PUSH2 0xDF5 DUP6 DUP11 PUSH2 0x173D JUMP JUMPDEST MLOAD PUSH1 0x0 MSTORE PUSH1 0x6 DUP5 MSTORE PUSH1 0x40 PUSH1 0x0 KECCAK256 PUSH2 0xE0C DUP7 DUP10 PUSH2 0x173D JUMP JUMPDEST MLOAD PUSH1 0x0 MSTORE DUP5 MSTORE PUSH1 0x40 PUSH1 0x0 KECCAK256 ADD SLOAD SWAP2 PUSH1 0x0 PUSH1 0x40 MLOAD DUP1 SWAP8 DUP2 SWAP6 DUP3 SWAP5 PUSH4 0x23B872DD PUSH1 0xE0 SHL DUP5 MSTORE CALLER PUSH1 0x4 DUP6 ADD PUSH2 0x1929 JUMP JUMPDEST SWAP2 SWAP1 POP PUSH1 0x20 DUP3 RETURNDATASIZE PUSH1 0x20 GT PUSH2 0xE67 JUMPI JUMPDEST DUP2 PUSH2 0xE55 PUSH1 0x20 SWAP4 DUP4 PUSH2 0x153B JUMP JUMPDEST DUP2 ADD SUB SLT PUSH2 0x12B JUMPI SWAP1 MLOAD PUSH2 0xBBD PUSH2 0xD9C JUMP JUMPDEST RETURNDATASIZE SWAP2 POP PUSH2 0xE48 JUMP JUMPDEST POP PUSH1 0x20 DUP2 RETURNDATASIZE PUSH1 0x20 GT PUSH2 0xE9B JUMPI JUMPDEST DUP2 PUSH2 0xE89 PUSH1 0x20 SWAP4 DUP4 PUSH2 0x153B JUMP JUMPDEST DUP2 ADD SUB SLT PUSH2 0x12B JUMPI PUSH2 0xD6B SWAP1 MLOAD PUSH2 0xD44 JUMP JUMPDEST RETURNDATASIZE SWAP2 POP PUSH2 0xE7C JUMP JUMPDEST PUSH1 0x40 MLOAD PUSH3 0x461BCD PUSH1 0xE5 SHL DUP2 MSTORE DUP1 PUSH2 0xEBC PUSH1 0x4 DUP3 ADD PUSH2 0x1751 JUMP JUMPDEST SUB SWAP1 REVERT JUMPDEST PUSH1 0x40 SWAP2 POP LT ISZERO DUP6 PUSH2 0x91B JUMP JUMPDEST CALLVALUE PUSH2 0x12B JUMPI PUSH1 0x0 CALLDATASIZE PUSH1 0x3 NOT ADD SLT PUSH2 0x12B JUMPI PUSH1 0x20 PUSH1 0x40 MLOAD PUSH3 0x3F480 DUP2 MSTORE RETURN JUMPDEST PUSH2 0x158E JUMP JUMPDEST CALLVALUE PUSH2 0x12B JUMPI PUSH1 0x20 CALLDATASIZE PUSH1 0x3 NOT ADD SLT PUSH2 0x12B JUMPI PUSH1 0x4 CALLDATALOAD PUSH1 0x1 PUSH1 0x1 PUSH1 0xA0 SHL SUB DUP2 DUP2 AND SWAP2 DUP3 SWAP1 SUB PUSH2 0x12B JUMPI PUSH2 0xF25 SWAP1 PUSH1 0x0 SLOAD AND CALLER EQ PUSH2 0x1E29 JUMP JUMPDEST PUSH1 0x5 DUP1 SLOAD PUSH1 0x1 PUSH1 0x1 PUSH1 0xA0 SHL SUB NOT AND SWAP2 SWAP1 SWAP2 OR SWAP1 SSTORE STOP JUMPDEST CALLVALUE PUSH2 0x12B JUMPI PUSH1 0x0 CALLDATASIZE PUSH1 0x3 NOT ADD SLT PUSH2 0x12B JUMPI PUSH1 0x0 SLOAD PUSH1 0x40 MLOAD PUSH1 0x1 PUSH1 0x1 PUSH1 0xA0 SHL SUB SWAP1 SWAP2 AND DUP2 MSTORE PUSH1 0x20 SWAP1 RETURN JUMPDEST CALLVALUE PUSH2 0x12B JUMPI PUSH1 0x20 CALLDATASIZE PUSH1 0x3 NOT ADD SLT PUSH2 0x12B JUMPI PUSH1 0x4 CALLDATALOAD PUSH1 0x1 PUSH1 0x1 PUSH1 0x40 SHL SUB DUP2 GT PUSH2 0x12B JUMPI CALLDATASIZE PUSH1 0x23 DUP3 ADD SLT ISZERO PUSH2 0x12B JUMPI DUP1 PUSH1 0x4 ADD CALLDATALOAD PUSH2 0xF9F DUP2 PUSH2 0x155C JUMP JUMPDEST SWAP2 PUSH2 0xFAD PUSH1 0x40 MLOAD SWAP4 DUP5 PUSH2 0x153B JUMP JUMPDEST DUP2 DUP4 MSTORE PUSH1 0x24 PUSH1 0x20 DUP5 ADD SWAP3 PUSH1 0x5 SHL DUP3 ADD ADD SWAP1 CALLDATASIZE DUP3 GT PUSH2 0x12B JUMPI PUSH1 0x24 DUP2 ADD SWAP3 JUMPDEST DUP3 DUP5 LT PUSH2 0x13B3 JUMPI DUP5 DUP1 MLOAD PUSH1 0x40 MLOAD SWAP2 PUSH2 0x820 DUP4 ADD DUP4 DUP2 LT PUSH1 0x1 PUSH1 0x1 PUSH1 0x40 SHL SUB DUP3 GT OR PUSH2 0x523 JUMPI PUSH1 0x40 MSTORE PUSH1 0x40 DUP4 MSTORE PUSH2 0x800 CALLDATASIZE PUSH1 0x20 DUP6 ADD CALLDATACOPY PUSH1 0x0 JUMPDEST DUP3 DUP2 LT PUSH2 0x10DD JUMPI DUP4 PUSH1 0x0 JUMPDEST PUSH1 0x40 DUP2 LT PUSH2 0x1018 JUMPI STOP JUMPDEST PUSH2 0x1022 DUP2 DUP4 PUSH2 0x173D JUMP JUMPDEST MLOAD PUSH2 0x1030 JUMPI JUMPDEST PUSH1 0x1 ADD PUSH2 0x100E JUMP JUMPDEST PUSH1 0x40 MLOAD PUSH2 0x103C DUP2 PUSH2 0x1520 JUMP JUMPDEST PUSH1 0x0 DUP2 MSTORE PUSH1 0x6 DUP3 SWAP1 SHL PUSH1 0x1 PUSH1 0x1 PUSH1 0xFA SHL SUB DUP4 AND DUP4 SUB PUSH2 0x67A JUMPI DUP1 PUSH1 0x40 ADD SWAP1 DUP2 PUSH1 0x40 GT PUSH2 0x67A JUMPI SWAP1 JUMPDEST DUP1 DUP3 LT PUSH2 0x1085 JUMPI POP POP SWAP1 PUSH2 0x107E PUSH1 0x1 SWAP3 DUP3 PUSH2 0x1007 ADD PUSH2 0x1782 JUMP JUMPDEST SWAP1 POP PUSH2 0x1028 JUMP JUMPDEST SWAP1 SWAP2 PUSH2 0x1000 DUP4 LT ISZERO PUSH2 0x10C7 JUMPI PUSH1 0x20 PUSH2 0x518 PUSH2 0x10C1 SWAP3 PUSH2 0x50A PUSH1 0x40 MLOAD SWAP4 DUP3 PUSH2 0x10B5 DUP7 SWAP5 MLOAD DUP1 SWAP3 DUP5 DUP1 DUP9 ADD SWAP2 ADD PUSH2 0x1461 JUMP JUMPDEST DUP4 ADD ADD DUP8 PUSH1 0x7 ADD PUSH2 0x2753 JUMP JUMPDEST SWAP1 PUSH2 0x1064 JUMP JUMPDEST PUSH4 0x4E487B71 PUSH1 0xE0 SHL PUSH1 0x0 MSTORE PUSH1 0x32 PUSH1 0x4 MSTORE PUSH1 0x24 PUSH1 0x0 REVERT JUMPDEST PUSH2 0x10E7 DUP2 DUP4 PUSH2 0x173D JUMP JUMPDEST MLOAD SWAP1 DUP2 MLOAD DUP3 ADD DUP3 PUSH1 0x20 DUP3 ADD SWAP2 PUSH1 0x80 SWAP2 DUP3 SWAP2 SUB SLT PUSH2 0x12B JUMPI PUSH1 0x20 DUP5 ADD MLOAD SWAP2 PUSH1 0x40 DUP6 ADD MLOAD SWAP5 PUSH1 0x60 DUP2 ADD MLOAD SWAP3 DUP2 ADD MLOAD SWAP1 PUSH1 0x1 PUSH1 0x1 PUSH1 0x40 SHL SUB DUP3 GT PUSH2 0x12B JUMPI ADD DUP2 PUSH1 0x3F DUP3 ADD SLT ISZERO PUSH2 0x12B JUMPI PUSH1 0x20 DUP2 ADD MLOAD PUSH2 0x113C DUP2 PUSH2 0x1573 JUMP JUMPDEST SWAP3 PUSH2 0x114A PUSH1 0x40 MLOAD SWAP5 DUP6 PUSH2 0x153B JUMP JUMPDEST DUP2 DUP5 MSTORE PUSH1 0x40 DUP3 DUP5 ADD ADD GT PUSH2 0x12B JUMPI PUSH2 0x1169 SWAP2 PUSH1 0x40 PUSH1 0x20 DUP6 ADD SWAP2 ADD PUSH2 0x1461 JUMP JUMPDEST PUSH1 0x40 DUP4 LT DUP1 ISZERO SWAP1 PUSH2 0x13A8 JUMPI JUMPDEST PUSH2 0xEA3 JUMPI PUSH1 0xA DUP3 LT ISZERO PUSH2 0x136A JUMPI DUP3 PUSH1 0x0 MSTORE PUSH1 0x6 PUSH1 0x20 MSTORE PUSH1 0x40 PUSH1 0x0 KECCAK256 DUP6 PUSH1 0x0 MSTORE PUSH1 0x20 MSTORE PUSH1 0xFF PUSH1 0x5 PUSH1 0x40 PUSH1 0x0 KECCAK256 ADD SLOAD AND PUSH2 0x130E JUMPI DUP3 PUSH1 0x0 MSTORE PUSH1 0x6 PUSH1 0x20 MSTORE PUSH1 0x40 PUSH1 0x0 KECCAK256 DUP6 PUSH1 0x0 MSTORE PUSH1 0x20 MSTORE CALLER PUSH1 0x1 DUP1 PUSH1 0xA0 SHL SUB PUSH1 0x40 PUSH1 0x0 KECCAK256 SLOAD AND EQ PUSH2 0x11E3 JUMPI JUMPDEST POP POP POP PUSH2 0x11DE SWAP2 POP PUSH2 0x172E JUMP JUMPDEST PUSH2 0x1003 JUMP JUMPDEST PUSH2 0x1209 SWAP1 DUP4 PUSH1 0x0 MSTORE PUSH1 0x6 PUSH1 0x20 MSTORE PUSH1 0x40 PUSH1 0x0 KECCAK256 DUP7 PUSH1 0x0 MSTORE PUSH1 0x20 MSTORE PUSH1 0x3 PUSH1 0x40 PUSH1 0x0 KECCAK256 ADD PUSH2 0x1782 JUMP JUMPDEST DUP2 PUSH1 0x0 MSTORE PUSH1 0x6 PUSH1 0x20 MSTORE PUSH1 0x40 PUSH1 0x0 KECCAK256 DUP5 PUSH1 0x0 MSTORE PUSH1 0x20 MSTORE PUSH1 0x1 PUSH1 0x40 PUSH1 0x0 KECCAK256 ADD SSTORE DUP1 DUP4 PUSH2 0x12D2 JUMPI JUMPDEST DUP1 PUSH1 0x0 MSTORE PUSH1 0x6 PUSH1 0x20 MSTORE PUSH1 0x40 PUSH1 0x0 KECCAK256 DUP5 PUSH1 0x0 MSTORE PUSH1 0x20 MSTORE PUSH1 0x1 PUSH1 0x40 PUSH1 0x0 KECCAK256 ADD SLOAD SWAP1 PUSH1 0x9 SWAP1 DUP1 DUP3 DUP2 MUL DIV DUP3 EQ DUP2 ISZERO OR ISZERO PUSH2 0x67A JUMPI DUP6 DUP3 DUP2 MUL DIV DUP3 EQ DUP7 ISZERO OR ISZERO PUSH2 0x67A JUMPI PUSH2 0x12A3 SWAP3 DUP2 PUSH1 0x0 MSTORE PUSH1 0x6 PUSH1 0x20 MSTORE PUSH1 0x40 PUSH1 0x0 KECCAK256 DUP8 PUSH1 0x0 MSTORE PUSH1 0x20 MSTORE PUSH2 0x1297 PUSH1 0x3 PUSH1 0x40 PUSH1 0x0 KECCAK256 ADD PUSH2 0x1688 JUMP JUMPDEST SWAP3 DUP1 DUP9 MUL SWAP3 MUL SWAP1 PUSH2 0x1FF6 JUMP JUMPDEST PUSH2 0x1000 DUP3 LT ISZERO PUSH2 0x10C7 JUMPI PUSH2 0x11DE SWAP4 PUSH2 0x12C3 PUSH2 0x12C9 SWAP3 PUSH1 0x1 SWAP5 PUSH1 0x7 ADD PUSH2 0x1782 JUMP JUMPDEST DUP8 PUSH2 0x173D JUMP JUMPDEST MSTORE DUP6 DUP1 DUP1 PUSH2 0x11D1 JUMP JUMPDEST SWAP1 POP PUSH2 0x12DE DUP4 DUP3 PUSH2 0x1891 JUMP JUMPDEST DUP2 PUSH1 0x40 SUB PUSH1 0x40 DUP2 GT PUSH2 0x67A JUMPI PUSH1 0x0 NOT DUP6 ADD DUP6 DUP2 GT PUSH2 0x67A JUMPI PUSH2 0x12FF SWAP2 PUSH2 0x1891 JUMP JUMPDEST DUP2 ADD DUP1 SWAP2 GT PUSH2 0x67A JUMPI SWAP1 PUSH2 0x122E JUMP JUMPDEST PUSH1 0x40 MLOAD PUSH3 0x461BCD PUSH1 0xE5 SHL DUP2 MSTORE PUSH1 0x20 PUSH1 0x4 DUP3 ADD MSTORE PUSH1 0x2E PUSH1 0x24 DUP3 ADD MSTORE PUSH32 0x75736572207761732061736B656420746F20666972737420736574746C652072 PUSH1 0x44 DUP3 ADD MSTORE PUSH14 0x1BDE585B1D1E481C185E5B595B9D PUSH1 0x92 SHL PUSH1 0x64 DUP3 ADD MSTORE PUSH1 0x84 SWAP1 REVERT JUMPDEST PUSH1 0x40 MLOAD PUSH3 0x461BCD PUSH1 0xE5 SHL DUP2 MSTORE PUSH1 0x20 PUSH1 0x4 DUP3 ADD MSTORE PUSH1 0x16 PUSH1 0x24 DUP3 ADD MSTORE PUSH22 0x7368617065204944206E6F7420617661696C61626C65 PUSH1 0x50 SHL PUSH1 0x44 DUP3 ADD MSTORE PUSH1 0x64 SWAP1 REVERT JUMPDEST POP PUSH1 0x40 DUP6 LT ISZERO PUSH2 0x1175 JUMP JUMPDEST DUP4 CALLDATALOAD PUSH1 0x1 PUSH1 0x1 PUSH1 0x40 SHL SUB DUP2 GT PUSH2 0x12B JUMPI DUP3 ADD SWAP1 CALLDATASIZE PUSH1 0x43 DUP4 ADD SLT ISZERO PUSH2 0x12B JUMPI PUSH1 0x24 DUP3 ADD CALLDATALOAD SWAP1 PUSH2 0x13E0 DUP3 PUSH2 0x1573 JUMP JUMPDEST PUSH2 0x13ED PUSH1 0x40 MLOAD SWAP2 DUP3 PUSH2 0x153B JUMP JUMPDEST DUP3 DUP2 MSTORE PUSH1 0x44 SWAP4 CALLDATASIZE DUP6 DUP6 DUP4 ADD ADD GT PUSH2 0x12B JUMPI PUSH1 0x20 DUP5 DUP2 SWAP7 SWAP6 DUP3 SWAP7 PUSH1 0x0 SWAP5 ADD DUP4 DUP7 ADD CALLDATACOPY DUP4 ADD ADD MSTORE DUP2 MSTORE ADD SWAP4 ADD SWAP3 PUSH2 0xFCB JUMP JUMPDEST CALLVALUE PUSH2 0x12B JUMPI PUSH2 0x18A PUSH2 0x1437 PUSH2 0x1431 CALLDATASIZE PUSH2 0x144B JUMP JUMPDEST SWAP1 PUSH2 0x1EC2 JUMP JUMPDEST PUSH1 0x40 MLOAD SWAP2 DUP3 SWAP2 PUSH1 0x20 DUP4 MSTORE PUSH1 0x20 DUP4 ADD SWAP1 PUSH2 0x14A9 JUMP JUMPDEST PUSH1 0x40 SWAP1 PUSH1 0x3 NOT ADD SLT PUSH2 0x12B JUMPI PUSH1 0x4 CALLDATALOAD SWAP1 PUSH1 0x24 CALLDATALOAD SWAP1 JUMP JUMPDEST PUSH1 0x0 JUMPDEST DUP4 DUP2 LT PUSH2 0x1474 JUMPI POP POP PUSH1 0x0 SWAP2 ADD MSTORE JUMP JUMPDEST DUP2 DUP2 ADD MLOAD DUP4 DUP3 ADD MSTORE PUSH1 0x20 ADD PUSH2 0x1464 JUMP JUMPDEST SWAP1 PUSH1 0x20 SWAP2 PUSH2 0x149D DUP2 MLOAD DUP1 SWAP3 DUP2 DUP6 MSTORE DUP6 DUP1 DUP7 ADD SWAP2 ADD PUSH2 0x1461 JUMP JUMPDEST PUSH1 0x1F ADD PUSH1 0x1F NOT AND ADD ADD SWAP1 JUMP JUMPDEST SWAP1 PUSH1 0x1 DUP1 PUSH1 0xA0 SHL SUB DUP3 MLOAD AND DUP2 MSTORE PUSH1 0x20 DUP3 ADD MLOAD PUSH1 0x20 DUP3 ADD MSTORE PUSH1 0x40 DUP3 ADD MLOAD PUSH1 0x40 DUP3 ADD MSTORE PUSH1 0xC0 DUP1 PUSH2 0x14E6 PUSH1 0x60 DUP6 ADD MLOAD PUSH1 0xE0 PUSH1 0x60 DUP7 ADD MSTORE PUSH1 0xE0 DUP6 ADD SWAP1 PUSH2 0x1484 JUMP JUMPDEST SWAP4 PUSH1 0x80 DUP2 ADD MLOAD PUSH1 0x80 DUP6 ADD MSTORE PUSH1 0xA0 DUP2 ADD MLOAD ISZERO ISZERO PUSH1 0xA0 DUP6 ADD MSTORE ADD MLOAD SWAP2 ADD MSTORE SWAP1 JUMP JUMPDEST PUSH1 0xE0 DUP2 ADD SWAP1 DUP2 LT PUSH1 0x1 PUSH1 0x1 PUSH1 0x40 SHL SUB DUP3 GT OR PUSH2 0x523 JUMPI PUSH1 0x40 MSTORE JUMP JUMPDEST PUSH1 0x20 DUP2 ADD SWAP1 DUP2 LT PUSH1 0x1 PUSH1 0x1 PUSH1 0x40 SHL SUB DUP3 GT OR PUSH2 0x523 JUMPI PUSH1 0x40 MSTORE JUMP JUMPDEST SWAP1 PUSH1 0x1F DUP1 NOT SWAP2 ADD AND DUP2 ADD SWAP1 DUP2 LT PUSH1 0x1 PUSH1 0x1 PUSH1 0x40 SHL SUB DUP3 GT OR PUSH2 0x523 JUMPI PUSH1 0x40 MSTORE JUMP JUMPDEST PUSH1 0x1 PUSH1 0x1 PUSH1 0x40 SHL SUB DUP2 GT PUSH2 0x523 JUMPI PUSH1 0x5 SHL PUSH1 0x20 ADD SWAP1 JUMP JUMPDEST PUSH1 0x1 PUSH1 0x1 PUSH1 0x40 SHL SUB DUP2 GT PUSH2 0x523 JUMPI PUSH1 0x1F ADD PUSH1 0x1F NOT AND PUSH1 0x20 ADD SWAP1 JUMP JUMPDEST CALLVALUE PUSH2 0x12B JUMPI PUSH1 0x0 CALLDATASIZE PUSH1 0x3 NOT ADD SLT PUSH2 0x12B JUMPI PUSH1 0x20 PUSH1 0x40 MLOAD PUSH1 0x40 DUP2 MSTORE RETURN JUMPDEST DUP2 PUSH1 0x1F DUP3 ADD SLT ISZERO PUSH2 0x12B JUMPI DUP1 CALLDATALOAD SWAP2 PUSH2 0x15C1 DUP4 PUSH2 0x155C JUMP JUMPDEST SWAP3 PUSH2 0x15CF PUSH1 0x40 MLOAD SWAP5 DUP6 PUSH2 0x153B JUMP JUMPDEST DUP1 DUP5 MSTORE PUSH1 0x20 SWAP3 DUP4 DUP1 DUP7 ADD SWAP3 PUSH1 0x5 SHL DUP3 ADD ADD SWAP3 DUP4 GT PUSH2 0x12B JUMPI DUP4 ADD SWAP1 JUMPDEST DUP3 DUP3 LT PUSH2 0x15F9 JUMPI POP POP POP POP SWAP1 JUMP JUMPDEST DUP2 CALLDATALOAD DUP2 MSTORE SWAP1 DUP4 ADD SWAP1 DUP4 ADD PUSH2 0x15EB JUMP JUMPDEST SWAP1 PUSH1 0x40 PUSH1 0x3 NOT DUP4 ADD SLT PUSH2 0x12B JUMPI PUSH1 0x1 PUSH1 0x1 PUSH1 0x40 SHL SUB PUSH1 0x4 CALLDATALOAD DUP2 DUP2 GT PUSH2 0x12B JUMPI DUP4 PUSH2 0x1634 SWAP2 PUSH1 0x4 ADD PUSH2 0x15AA JUMP JUMPDEST SWAP3 PUSH1 0x24 CALLDATALOAD SWAP2 DUP3 GT PUSH2 0x12B JUMPI PUSH2 0x164B SWAP2 PUSH1 0x4 ADD PUSH2 0x15AA JUMP JUMPDEST SWAP1 JUMP JUMPDEST SWAP1 PUSH1 0x1 DUP3 DUP2 SHR SWAP3 AND DUP1 ISZERO PUSH2 0x167E JUMPI JUMPDEST PUSH1 0x20 DUP4 LT EQ PUSH2 0x1668 JUMPI JUMP JUMPDEST PUSH4 0x4E487B71 PUSH1 0xE0 SHL PUSH1 0x0 MSTORE PUSH1 0x22 PUSH1 0x4 MSTORE PUSH1 0x24 PUSH1 0x0 REVERT JUMPDEST SWAP2 PUSH1 0x7F AND SWAP2 PUSH2 0x165D JUMP JUMPDEST SWAP1 PUSH1 0x40 MLOAD SWAP2 DUP3 PUSH1 0x0 DUP3 SLOAD SWAP3 PUSH2 0x169C DUP5 PUSH2 0x164E JUMP JUMPDEST SWAP1 DUP2 DUP5 MSTORE PUSH1 0x1 SWAP5 DUP6 DUP2 AND SWAP1 DUP2 PUSH1 0x0 EQ PUSH2 0x170B JUMPI POP PUSH1 0x1 EQ PUSH2 0x16C8 JUMPI JUMPDEST POP POP PUSH2 0x16C6 SWAP3 POP SUB DUP4 PUSH2 0x153B JUMP JUMPDEST JUMP JUMPDEST SWAP1 SWAP4 SWAP2 POP PUSH1 0x0 MSTORE PUSH1 0x20 SWAP1 DUP2 PUSH1 0x0 KECCAK256 SWAP4 PUSH1 0x0 SWAP2 JUMPDEST DUP2 DUP4 LT PUSH2 0x16F3 JUMPI POP POP PUSH2 0x16C6 SWAP4 POP DUP3 ADD ADD CODESIZE DUP1 PUSH2 0x16B8 JUMP JUMPDEST DUP6 SLOAD DUP9 DUP5 ADD DUP6 ADD MSTORE SWAP5 DUP6 ADD SWAP5 DUP8 SWAP5 POP SWAP2 DUP4 ADD SWAP2 PUSH2 0x16DB JUMP JUMPDEST SWAP2 POP POP PUSH2 0x16C6 SWAP5 POP PUSH1 0x20 SWAP3 POP PUSH1 0xFF NOT AND DUP3 DUP5 ADD MSTORE ISZERO ISZERO PUSH1 0x5 SHL DUP3 ADD ADD CODESIZE DUP1 PUSH2 0x16B8 JUMP JUMPDEST PUSH1 0x0 NOT DUP2 EQ PUSH2 0x67A JUMPI PUSH1 0x1 ADD SWAP1 JUMP JUMPDEST DUP1 MLOAD DUP3 LT ISZERO PUSH2 0x10C7 JUMPI PUSH1 0x20 SWAP2 PUSH1 0x5 SHL ADD ADD SWAP1 JUMP JUMPDEST PUSH1 0x60 SWAP1 PUSH1 0x20 DUP2 MSTORE PUSH1 0x16 PUSH1 0x20 DUP3 ADD MSTORE PUSH22 0x706978656C206973206F7574206F6620626F756E6473 PUSH1 0x50 SHL PUSH1 0x40 DUP3 ADD MSTORE ADD SWAP1 JUMP JUMPDEST SWAP2 SWAP1 SWAP2 DUP3 MLOAD PUSH1 0x1 PUSH1 0x1 PUSH1 0x40 SHL SUB DUP2 GT PUSH2 0x523 JUMPI PUSH2 0x179F DUP3 SLOAD PUSH2 0x164E JUMP JUMPDEST PUSH1 0x1F DUP2 GT PUSH2 0x1849 JUMPI JUMPDEST POP PUSH1 0x20 DUP1 PUSH1 0x1F DUP4 GT PUSH1 0x1 EQ PUSH2 0x17E5 JUMPI POP DUP2 SWAP3 SWAP4 SWAP5 PUSH1 0x0 SWAP3 PUSH2 0x17DA JUMPI JUMPDEST POP POP DUP2 PUSH1 0x1 SHL SWAP2 PUSH1 0x0 NOT SWAP1 PUSH1 0x3 SHL SHR NOT AND OR SWAP1 SSTORE JUMP JUMPDEST ADD MLOAD SWAP1 POP CODESIZE DUP1 PUSH2 0x17C4 JUMP JUMPDEST SWAP1 PUSH1 0x1F NOT DUP4 AND SWAP6 DUP5 PUSH1 0x0 MSTORE DUP3 PUSH1 0x0 KECCAK256 SWAP3 PUSH1 0x0 SWAP1 JUMPDEST DUP9 DUP3 LT PUSH2 0x1831 JUMPI POP POP DUP4 PUSH1 0x1 SWAP6 SWAP7 SWAP8 LT PUSH2 0x1818 JUMPI JUMPDEST POP POP POP DUP2 SHL ADD SWAP1 SSTORE JUMP JUMPDEST ADD MLOAD PUSH1 0x0 NOT PUSH1 0xF8 DUP5 PUSH1 0x3 SHL AND SHR NOT AND SWAP1 SSTORE CODESIZE DUP1 DUP1 PUSH2 0x180E JUMP JUMPDEST DUP1 PUSH1 0x1 DUP6 SWAP7 DUP3 SWAP5 SWAP7 DUP7 ADD MLOAD DUP2 SSTORE ADD SWAP6 ADD SWAP4 ADD SWAP1 PUSH2 0x17F9 JUMP JUMPDEST PUSH1 0x0 DUP4 DUP2 MSTORE PUSH1 0x20 DUP2 KECCAK256 PUSH1 0x1F DUP5 ADD PUSH1 0x5 SHR DUP2 ADD SWAP3 PUSH1 0x20 DUP6 LT PUSH2 0x1887 JUMPI JUMPDEST PUSH1 0x1F ADD PUSH1 0x5 SHR ADD SWAP2 JUMPDEST DUP3 DUP2 LT PUSH2 0x187C JUMPI POP POP PUSH2 0x17A8 JUMP JUMPDEST DUP2 DUP2 SSTORE PUSH1 0x1 ADD PUSH2 0x186E JUMP JUMPDEST SWAP1 SWAP3 POP DUP3 SWAP1 PUSH2 0x1865 JUMP JUMPDEST DUP2 DUP2 MUL SWAP3 SWAP2 DUP2 ISZERO SWAP2 DUP5 DIV EQ OR ISZERO PUSH2 0x67A JUMPI JUMP JUMPDEST SWAP2 SWAP1 DUP3 SUB SWAP2 DUP3 GT PUSH2 0x67A JUMPI JUMP JUMPDEST ISZERO PUSH2 0x18B8 JUMPI JUMP JUMPDEST PUSH1 0x40 MLOAD PUSH3 0x461BCD PUSH1 0xE5 SHL DUP2 MSTORE PUSH1 0x20 PUSH1 0x4 DUP3 ADD MSTORE PUSH1 0x2B PUSH1 0x24 DUP3 ADD MSTORE PUSH32 0x7820616E64207920696E7075742061727261797320617265206F662076617269 PUSH1 0x44 DUP3 ADD MSTORE PUSH11 0x6F7573206C656E67746873 PUSH1 0xA8 SHL PUSH1 0x64 DUP3 ADD MSTORE PUSH1 0x84 SWAP1 REVERT JUMPDEST SWAP1 DUP2 PUSH1 0x20 SWAP2 SUB SLT PUSH2 0x12B JUMPI MLOAD DUP1 ISZERO ISZERO DUP2 SUB PUSH2 0x12B JUMPI SWAP1 JUMP JUMPDEST PUSH1 0x1 PUSH1 0x1 PUSH1 0xA0 SHL SUB SWAP2 DUP3 AND DUP2 MSTORE SWAP2 AND PUSH1 0x20 DUP3 ADD MSTORE PUSH1 0x40 DUP2 ADD SWAP2 SWAP1 SWAP2 MSTORE PUSH1 0x60 ADD SWAP1 JUMP JUMPDEST SWAP2 SWAP1 PUSH2 0x195A DUP4 MLOAD DUP3 MLOAD EQ PUSH2 0x18B1 JUMP JUMPDEST DUP3 MLOAD PUSH1 0x0 SWAP4 JUMPDEST DUP2 DUP6 LT PUSH2 0x196E JUMPI POP POP POP SWAP1 POP JUMP JUMPDEST PUSH2 0x1978 DUP6 DUP3 PUSH2 0x173D JUMP JUMPDEST MLOAD SWAP5 PUSH2 0x1984 DUP2 DUP6 PUSH2 0x173D JUMP JUMPDEST MLOAD PUSH1 0x40 DUP1 DUP1 SWAP9 LT SWAP2 DUP3 ISZERO SWAP3 PUSH2 0x1D6E JUMPI JUMPDEST POP POP PUSH2 0x1D56 JUMPI PUSH2 0x19A4 DUP2 DUP4 PUSH2 0x173D JUMP JUMPDEST MLOAD PUSH1 0x0 MSTORE PUSH1 0x6 SWAP6 PUSH1 0x20 SWAP7 DUP1 DUP9 MSTORE DUP2 PUSH1 0x0 KECCAK256 PUSH2 0x19BF DUP5 DUP9 PUSH2 0x173D JUMP JUMPDEST MLOAD PUSH1 0x0 MSTORE DUP9 MSTORE PUSH1 0x1 DUP1 PUSH1 0xA0 SHL SUB SWAP2 CALLER DUP4 DUP3 PUSH1 0x0 KECCAK256 SLOAD AND SUB PUSH2 0x1D08 JUMPI PUSH2 0x19E4 DUP5 DUP7 PUSH2 0x173D JUMP JUMPDEST MLOAD PUSH1 0x0 MSTORE DUP2 DUP10 MSTORE DUP1 PUSH1 0x0 KECCAK256 PUSH2 0x19F9 DUP6 DUP10 PUSH2 0x173D JUMP JUMPDEST MLOAD PUSH1 0x0 MSTORE DUP10 MSTORE PUSH1 0x4 SWAP9 TIMESTAMP DUP11 DUP4 PUSH1 0x0 KECCAK256 ADD SLOAD SUB PUSH2 0x1A2B JUMPI JUMPDEST POP POP POP POP PUSH2 0x1A22 SWAP2 SWAP3 SWAP4 SWAP5 SWAP6 POP PUSH2 0x172E JUMP JUMPDEST SWAP4 SWAP3 SWAP2 SWAP1 PUSH2 0x1960 JUMP JUMPDEST PUSH2 0x1A43 PUSH2 0x1A38 DUP7 DUP9 PUSH2 0x173D JUMP JUMPDEST MLOAD PUSH2 0x9BD DUP8 DUP12 PUSH2 0x173D JUMP JUMPDEST SWAP10 PUSH1 0x5 SWAP5 DUP1 DUP7 SLOAD AND SWAP1 DUP5 MLOAD PUSH4 0x70A08231 PUSH1 0xE0 SHL DUP2 MSTORE CALLER DUP5 DUP3 ADD MSTORE PUSH1 0x24 SWAP1 DUP6 DUP2 DUP4 DUP2 DUP8 GAS STATICCALL SWAP1 DUP2 ISZERO PUSH2 0x1C7C JUMPI SWAP1 DUP16 SWAP2 PUSH1 0x0 SWAP2 PUSH2 0x1CD8 JUMPI JUMPDEST POP LT PUSH2 0x1C87 JUMPI DUP6 MLOAD PUSH4 0x6EB1769F PUSH1 0xE1 SHL DUP2 MSTORE CALLER DUP6 DUP3 ADD SWAP1 DUP2 MSTORE ADDRESS PUSH1 0x20 DUP3 ADD MSTORE DUP7 SWAP1 DUP3 SWAP1 DUP2 SWAP1 PUSH1 0x40 ADD SUB DUP2 DUP8 GAS STATICCALL SWAP1 DUP2 ISZERO PUSH2 0x1C7C JUMPI SWAP1 DUP16 SWAP2 PUSH1 0x0 SWAP2 PUSH2 0x1C49 JUMPI JUMPDEST POP LT PUSH2 0x1BF8 JUMPI POP PUSH1 0x0 SLOAD DUP6 MLOAD PUSH4 0x23B872DD PUSH1 0xE0 SHL DUP2 MSTORE SWAP14 DUP6 SWAP4 DUP16 SWAP4 SWAP1 SWAP3 DUP5 SWAP3 DUP4 SWAP3 PUSH2 0x1AE7 SWAP3 AND CALLER DUP10 DUP6 ADD PUSH2 0x1929 JUMP JUMPDEST SUB SWAP2 GAS SWAP1 PUSH1 0x0 SWAP2 CALL SWAP11 DUP12 ISZERO PUSH2 0x1BED JUMPI PUSH2 0x1A22 SWAP8 SWAP9 SWAP10 SWAP11 SWAP12 PUSH2 0x1BD0 JUMPI JUMPDEST POP PUSH2 0x1B0E DUP7 DUP10 PUSH2 0x173D JUMP JUMPDEST MLOAD PUSH1 0x0 MSTORE DUP4 DUP3 MSTORE DUP3 PUSH1 0x0 KECCAK256 PUSH2 0x1B23 DUP8 DUP13 PUSH2 0x173D JUMP JUMPDEST MLOAD PUSH1 0x0 MSTORE DUP3 MSTORE TIMESTAMP SWAP1 DUP4 PUSH1 0x0 KECCAK256 ADD SSTORE PUSH2 0x1B3B DUP6 DUP9 PUSH2 0x173D JUMP JUMPDEST MLOAD PUSH1 0x0 MSTORE DUP3 DUP2 MSTORE DUP2 PUSH1 0x0 KECCAK256 PUSH2 0x1B50 DUP7 DUP12 PUSH2 0x173D JUMP JUMPDEST MLOAD PUSH1 0x0 MSTORE DUP2 MSTORE PUSH1 0xFF DUP5 DUP4 PUSH1 0x0 KECCAK256 ADD SLOAD AND PUSH2 0x1B70 JUMPI JUMPDEST DUP10 SWAP9 SWAP8 SWAP7 SWAP6 POP PUSH2 0x1A10 JUMP JUMPDEST PUSH1 0x0 SWAP4 PUSH2 0x1B7D DUP7 DUP10 PUSH2 0x173D JUMP JUMPDEST MLOAD DUP6 MSTORE DUP4 DUP3 MSTORE DUP3 DUP6 KECCAK256 PUSH2 0x1B90 DUP8 DUP13 PUSH2 0x173D JUMP JUMPDEST MLOAD DUP7 MSTORE DUP3 MSTORE DUP3 DUP6 KECCAK256 ADD DUP1 SLOAD PUSH1 0xFF NOT AND SWAP1 SSTORE PUSH2 0x1BAB DUP6 DUP9 PUSH2 0x173D JUMP JUMPDEST MLOAD DUP5 MSTORE DUP3 DUP2 MSTORE DUP2 DUP5 KECCAK256 SWAP1 PUSH2 0x1BBF DUP7 DUP12 PUSH2 0x173D JUMP JUMPDEST MLOAD DUP6 MSTORE MSTORE DUP3 KECCAK256 ADD SSTORE CODESIZE DUP1 DUP1 DUP1 PUSH2 0x1B65 JUMP JUMPDEST PUSH2 0x1BE6 SWAP1 DUP4 RETURNDATASIZE DUP6 GT PUSH2 0xC6D JUMPI PUSH2 0xC5E DUP2 DUP4 PUSH2 0x153B JUMP JUMPDEST POP CODESIZE PUSH2 0x1B03 JUMP JUMPDEST DUP4 MLOAD RETURNDATASIZE PUSH1 0x0 DUP3 RETURNDATACOPY RETURNDATASIZE SWAP1 REVERT JUMPDEST DUP4 PUSH1 0x27 PUSH1 0x84 SWAP3 DUP8 DUP10 MLOAD SWAP4 PUSH3 0x461BCD PUSH1 0xE5 SHL DUP6 MSTORE DUP5 ADD MSTORE DUP3 ADD MSTORE PUSH32 0x696E73756666696369656E7420616C6C6F77616E636520746F2070617920726F PUSH1 0x44 DUP3 ADD MSTORE PUSH7 0x79616C74696573 PUSH1 0xC8 SHL PUSH1 0x64 DUP3 ADD MSTORE REVERT JUMPDEST SWAP2 POP DUP7 DUP3 DUP2 RETURNDATASIZE DUP4 GT PUSH2 0x1C75 JUMPI JUMPDEST PUSH2 0x1C60 DUP2 DUP4 PUSH2 0x153B JUMP JUMPDEST DUP2 ADD SUB SLT PUSH2 0x1C72 JUMPI POP DUP15 SWAP1 MLOAD CODESIZE PUSH2 0x1AB8 JUMP JUMPDEST DUP1 REVERT JUMPDEST POP RETURNDATASIZE PUSH2 0x1C56 JUMP JUMPDEST DUP8 MLOAD RETURNDATASIZE PUSH1 0x0 DUP3 RETURNDATACOPY RETURNDATASIZE SWAP1 REVERT JUMPDEST DUP4 PUSH1 0x27 PUSH1 0x84 SWAP3 DUP8 DUP10 MLOAD SWAP4 PUSH3 0x461BCD PUSH1 0xE5 SHL DUP6 MSTORE DUP5 ADD MSTORE DUP3 ADD MSTORE PUSH32 0x6E6F742073756666696369656E742062616C616E636520746F2070617920726F PUSH1 0x44 DUP3 ADD MSTORE PUSH7 0x79616C74696573 PUSH1 0xC8 SHL PUSH1 0x64 DUP3 ADD MSTORE REVERT JUMPDEST SWAP2 POP DUP7 DUP3 DUP2 RETURNDATASIZE DUP4 GT PUSH2 0x1D01 JUMPI JUMPDEST PUSH2 0x1CEF DUP2 DUP4 PUSH2 0x153B JUMP JUMPDEST DUP2 ADD SUB SLT PUSH2 0x1C72 JUMPI POP DUP15 SWAP1 MLOAD CODESIZE PUSH2 0x1A79 JUMP JUMPDEST POP RETURNDATASIZE PUSH2 0x1CE5 JUMP JUMPDEST MLOAD PUSH3 0x461BCD PUSH1 0xE5 SHL DUP2 MSTORE PUSH1 0x4 DUP2 ADD DUP10 SWAP1 MSTORE PUSH1 0x22 PUSH1 0x24 DUP3 ADD MSTORE PUSH32 0x6F6E6C7920706978656C206F776E65722063616E2070617920726F79616C7469 PUSH1 0x44 DUP3 ADD MSTORE PUSH2 0x6573 PUSH1 0xF0 SHL PUSH1 0x64 DUP3 ADD MSTORE PUSH1 0x84 SWAP1 REVERT JUMPDEST DUP6 MLOAD PUSH3 0x461BCD PUSH1 0xE5 SHL DUP2 MSTORE DUP1 PUSH2 0xEBC PUSH1 0x4 DUP3 ADD PUSH2 0x1751 JUMP JUMPDEST LT ISZERO SWAP1 POP DUP7 CODESIZE PUSH2 0x1994 JUMP JUMPDEST ISZERO PUSH2 0x1D80 JUMPI JUMP JUMPDEST PUSH1 0x40 MLOAD PUSH3 0x461BCD PUSH1 0xE5 SHL DUP2 MSTORE PUSH1 0x20 PUSH1 0x4 DUP3 ADD MSTORE PUSH1 0x23 PUSH1 0x24 DUP3 ADD MSTORE PUSH32 0x6E6F742073756666696369656E742062616C616E636520746F20627579207069 PUSH1 0x44 DUP3 ADD MSTORE PUSH3 0x1E195B PUSH1 0xEA SHL PUSH1 0x64 DUP3 ADD MSTORE PUSH1 0x84 SWAP1 REVERT JUMPDEST ISZERO PUSH2 0x1DD8 JUMPI JUMP JUMPDEST PUSH1 0x40 MLOAD PUSH3 0x461BCD PUSH1 0xE5 SHL DUP2 MSTORE PUSH1 0x20 PUSH1 0x4 DUP3 ADD MSTORE PUSH1 0x23 PUSH1 0x24 DUP3 ADD MSTORE PUSH32 0x696E73756666696369656E7420616C6C6F77616E636520746F20627579207069 PUSH1 0x44 DUP3 ADD MSTORE PUSH3 0x1E195B PUSH1 0xEA SHL PUSH1 0x64 DUP3 ADD MSTORE PUSH1 0x84 SWAP1 REVERT JUMPDEST ISZERO PUSH2 0x1E30 JUMPI JUMP JUMPDEST PUSH1 0x40 MLOAD PUSH3 0x461BCD PUSH1 0xE5 SHL DUP2 MSTORE PUSH1 0x20 PUSH1 0x4 DUP3 ADD MSTORE PUSH1 0x2C PUSH1 0x24 DUP3 ADD MSTORE PUSH32 0x6F776E65722063757272656E74206D616E616765722063616E2063616C6C2074 PUSH1 0x44 DUP3 ADD MSTORE PUSH12 0x3434B990333AB731BA34B7B7 PUSH1 0xA1 SHL PUSH1 0x64 DUP3 ADD MSTORE PUSH1 0x84 SWAP1 REVERT JUMPDEST PUSH1 0x40 MLOAD SWAP1 PUSH2 0x1E97 DUP3 PUSH2 0x1505 JUMP JUMPDEST DUP2 PUSH1 0xC0 PUSH1 0x0 SWAP2 DUP3 DUP2 MSTORE DUP3 PUSH1 0x20 DUP3 ADD MSTORE DUP3 PUSH1 0x40 DUP3 ADD MSTORE PUSH1 0x60 DUP1 DUP3 ADD MSTORE DUP3 PUSH1 0x80 DUP3 ADD MSTORE DUP3 PUSH1 0xA0 DUP3 ADD MSTORE ADD MSTORE JUMP JUMPDEST SWAP1 PUSH2 0x1ECB PUSH2 0x1E8A JUMP JUMPDEST POP PUSH1 0x40 SWAP2 DUP3 DUP2 LT DUP1 PUSH2 0x1F90 JUMPI JUMPDEST ISZERO PUSH2 0x1F56 JUMPI PUSH1 0x0 MSTORE PUSH1 0x6 PUSH1 0x20 MSTORE DUP2 PUSH1 0x0 KECCAK256 SWAP1 PUSH1 0x0 MSTORE PUSH1 0x20 MSTORE PUSH1 0x6 DUP2 PUSH1 0x0 KECCAK256 DUP3 MLOAD SWAP3 PUSH2 0x1F02 DUP5 PUSH2 0x1505 JUMP JUMPDEST DUP2 SLOAD PUSH1 0x1 PUSH1 0x1 PUSH1 0xA0 SHL SUB AND DUP5 MSTORE PUSH1 0x1 DUP3 ADD SLOAD PUSH1 0x20 DUP6 ADD MSTORE PUSH1 0x2 DUP3 ADD SLOAD SWAP1 DUP5 ADD MSTORE PUSH2 0x1F2E PUSH1 0x3 DUP3 ADD PUSH2 0x1688 JUMP JUMPDEST PUSH1 0x60 DUP5 ADD MSTORE PUSH1 0x4 DUP2 ADD SLOAD PUSH1 0x80 DUP5 ADD MSTORE PUSH1 0xFF PUSH1 0x5 DUP3 ADD SLOAD AND ISZERO ISZERO PUSH1 0xA0 DUP5 ADD MSTORE ADD SLOAD PUSH1 0xC0 DUP3 ADD MSTORE SWAP1 JUMP JUMPDEST DUP3 MLOAD PUSH3 0x461BCD PUSH1 0xE5 SHL DUP2 MSTORE PUSH1 0x20 PUSH1 0x4 DUP3 ADD MSTORE PUSH1 0x13 PUSH1 0x24 DUP3 ADD MSTORE PUSH19 0x706978656C206F7574206F6620626F756E6473 PUSH1 0x68 SHL PUSH1 0x44 DUP3 ADD MSTORE PUSH1 0x64 SWAP1 REVERT JUMPDEST POP DUP3 DUP3 LT PUSH2 0x1ED8 JUMP JUMPDEST PUSH2 0x1FE9 PUSH2 0x1FF2 SWAP2 PUSH1 0x2 PUSH1 0x40 PUSH5 0x73DF16000 SWAP6 PUSH1 0x0 SWAP1 DUP5 DUP3 MSTORE PUSH1 0x6 PUSH1 0x20 MSTORE DUP3 DUP3 KECCAK256 DUP2 DUP4 MSTORE PUSH1 0x20 MSTORE PUSH2 0x1FCF PUSH1 0x4 DUP5 DUP5 KECCAK256 ADD SLOAD TIMESTAMP PUSH2 0x18A4 JUMP JUMPDEST SWAP5 DUP3 MSTORE PUSH1 0x6 PUSH1 0x20 MSTORE DUP3 DUP3 KECCAK256 SWAP1 DUP3 MSTORE PUSH1 0x20 MSTORE KECCAK256 ADD SLOAD SWAP1 PUSH2 0x1891 JUMP JUMPDEST PUSH1 0x1 SLOAD SWAP1 PUSH2 0x1891 JUMP JUMPDEST DIV SWAP1 JUMP JUMPDEST SWAP2 SWAP3 SWAP1 SWAP3 DUP3 ISZERO PUSH2 0x2697 JUMPI PUSH1 0x1 DUP4 EQ PUSH2 0x25C8 JUMPI PUSH1 0x2 DUP4 EQ PUSH2 0x259E JUMPI PUSH1 0x3 DUP4 EQ PUSH2 0x2542 JUMPI PUSH1 0x4 SWAP3 DUP4 DUP2 EQ PUSH2 0x24EE JUMPI PUSH1 0x5 DUP2 EQ PUSH2 0x2391 JUMPI PUSH1 0x6 DUP2 EQ PUSH2 0x233F JUMPI PUSH1 0x7 DUP2 EQ PUSH2 0x22D8 JUMPI PUSH1 0x8 DUP2 EQ PUSH2 0x21F5 JUMPI PUSH1 0x9 EQ PUSH2 0x2060 JUMPI POP POP POP POP PUSH1 0x40 MLOAD PUSH2 0x2059 DUP2 PUSH2 0x1520 JUMP JUMPDEST PUSH1 0x0 DUP2 MSTORE SWAP1 JUMP JUMPDEST PUSH2 0x2069 DUP5 PUSH2 0x27D6 JUMP JUMPDEST SWAP1 PUSH2 0x2073 DUP2 PUSH2 0x27D6 JUMP JUMPDEST PUSH1 0x8 DUP7 ADD DUP1 DUP8 GT PUSH2 0x21E0 JUMPI PUSH2 0x2087 SWAP1 PUSH2 0x27D6 JUMP JUMPDEST SWAP5 PUSH1 0x8 DUP4 ADD DUP1 SWAP4 GT PUSH2 0x21CB JUMPI POP SWAP2 PUSH2 0x21AF DUP3 PUSH2 0x164B SWAP7 SWAP5 PUSH2 0x20BC PUSH2 0x20B6 PUSH2 0x20B0 PUSH1 0x49 SWAP10 SWAP8 PUSH2 0x27D6 JUMP JUMPDEST SWAP11 PUSH2 0x27D6 JUMP JUMPDEST SWAP3 PUSH2 0x27D6 JUMP JUMPDEST SWAP2 PUSH1 0x40 MLOAD SWAP10 DUP11 SWAP8 PUSH1 0x2A PUSH2 0x20EC DUP11 PUSH1 0x20 SWAP10 PUSH10 0x3C7061746820643D224D PUSH1 0xB0 SHL DUP12 DUP4 ADD MSTORE DUP11 DUP2 MLOAD SWAP5 DUP6 SWAP4 ADD SWAP2 ADD PUSH2 0x1461 JUMP JUMPDEST DUP10 ADD SWAP4 PUSH1 0x1 PUSH1 0xFD SHL SWAP5 DUP6 PUSH1 0x2A DUP3 ADD MSTORE PUSH2 0x210E DUP3 MLOAD DUP1 SWAP4 DUP12 PUSH1 0x2B DUP6 ADD SWAP2 ADD PUSH2 0x1461 JUMP JUMPDEST ADD PUSH12 0x10209C101C1018101810189 PUSH1 0xA5 SHL PUSH1 0x2B DUP3 ADD MSTORE PUSH2 0x2137 DUP3 MLOAD DUP1 SWAP4 DUP11 PUSH1 0x37 DUP6 ADD SWAP2 ADD PUSH2 0x1461 JUMP JUMPDEST ADD DUP4 PUSH1 0x37 DUP3 ADD MSTORE PUSH2 0x2151 DUP3 MLOAD DUP1 SWAP4 DUP10 PUSH1 0x38 DUP6 ADD SWAP2 ADD PUSH2 0x1461 JUMP JUMPDEST ADD PUSH2 0x813 PUSH1 0xF2 SHL PUSH1 0x38 DUP3 ADD MSTORE PUSH2 0x2170 DUP3 MLOAD DUP1 SWAP4 DUP9 PUSH1 0x3A DUP6 ADD SWAP2 ADD PUSH2 0x1461 JUMP JUMPDEST ADD SWAP1 PUSH1 0x3A DUP3 ADD MSTORE PUSH2 0x218A DUP3 MLOAD DUP1 SWAP4 DUP7 PUSH1 0x3B DUP6 ADD SWAP2 ADD PUSH2 0x1461 JUMP JUMPDEST ADD SWAP2 PUSH10 0x102D11103334B6361E91 PUSH1 0xB1 SHL PUSH1 0x3B DUP5 ADD MSTORE DUP4 MLOAD SWAP4 DUP5 SWAP2 PUSH1 0x45 DUP6 ADD SWAP2 ADD PUSH2 0x1461 JUMP JUMPDEST ADD PUSH4 0x1110179F PUSH1 0xE1 SHL PUSH1 0x45 DUP3 ADD MSTORE SUB PUSH1 0x29 DUP2 ADD DUP5 MSTORE ADD DUP3 PUSH2 0x153B JUMP JUMPDEST PUSH1 0x11 SWAP1 PUSH4 0x4E487B71 PUSH1 0xE0 SHL PUSH1 0x0 MSTORE MSTORE PUSH1 0x24 PUSH1 0x0 REVERT JUMPDEST PUSH1 0x11 DUP7 PUSH4 0x4E487B71 PUSH1 0xE0 SHL PUSH1 0x0 MSTORE MSTORE PUSH1 0x24 PUSH1 0x0 REVERT JUMPDEST POP SWAP3 PUSH1 0x8 DUP2 ADD SWAP4 DUP5 DUP3 GT PUSH2 0x22C3 JUMPI PUSH2 0x220C DUP6 PUSH2 0x27D6 JUMP JUMPDEST SWAP2 PUSH2 0x221F PUSH2 0x2219 DUP4 PUSH2 0x27D6 JUMP JUMPDEST SWAP2 PUSH2 0x27D6 JUMP JUMPDEST SWAP5 PUSH1 0x8 DUP4 ADD DUP1 SWAP4 GT PUSH2 0x21CB JUMPI POP SWAP2 PUSH2 0x21AF DUP3 PUSH2 0x164B SWAP7 SWAP5 PUSH2 0x2248 PUSH2 0x20B6 PUSH2 0x20B0 PUSH1 0x49 SWAP10 SWAP8 PUSH2 0x27D6 JUMP JUMPDEST SWAP2 PUSH1 0x40 MLOAD SWAP10 DUP11 SWAP8 PUSH1 0x2A PUSH2 0x2278 DUP11 PUSH1 0x20 SWAP10 PUSH10 0x3C7061746820643D224D PUSH1 0xB0 SHL DUP12 DUP4 ADD MSTORE DUP11 DUP2 MLOAD SWAP5 DUP6 SWAP4 ADD SWAP2 ADD PUSH2 0x1461 JUMP JUMPDEST DUP10 ADD SWAP4 PUSH1 0x1 PUSH1 0xFD SHL SWAP5 DUP6 PUSH1 0x2A DUP3 ADD MSTORE PUSH2 0x229A DUP3 MLOAD DUP1 SWAP4 DUP12 PUSH1 0x2B DUP6 ADD SWAP2 ADD PUSH2 0x1461 JUMP JUMPDEST ADD PUSH12 0x10209C101C1018101810181 PUSH1 0xA5 SHL PUSH1 0x2B DUP3 ADD MSTORE PUSH2 0x2137 DUP3 MLOAD DUP1 SWAP4 DUP11 PUSH1 0x37 DUP6 ADD SWAP2 ADD PUSH2 0x1461 JUMP JUMPDEST PUSH1 0x11 DUP5 PUSH4 0x4E487B71 PUSH1 0xE0 SHL PUSH1 0x0 MSTORE MSTORE PUSH1 0x24 PUSH1 0x0 REVERT JUMPDEST POP PUSH2 0x22E2 DUP5 PUSH2 0x27D6 JUMP JUMPDEST SWAP1 PUSH2 0x22EC DUP2 PUSH2 0x27D6 JUMP JUMPDEST PUSH1 0x8 DUP7 ADD DUP1 SWAP7 GT PUSH2 0x232A JUMPI PUSH2 0x2300 DUP7 PUSH2 0x27D6 JUMP JUMPDEST SWAP5 PUSH1 0x8 DUP4 ADD SWAP1 DUP2 DUP5 GT PUSH2 0x21CB JUMPI POP PUSH1 0x49 SWAP5 SWAP3 PUSH2 0x164B SWAP7 SWAP5 SWAP3 PUSH2 0x2248 PUSH2 0x20B6 PUSH2 0x20B0 PUSH2 0x21AF SWAP6 PUSH2 0x27D6 JUMP JUMPDEST PUSH1 0x11 DUP6 PUSH4 0x4E487B71 PUSH1 0xE0 SHL PUSH1 0x0 MSTORE MSTORE PUSH1 0x24 PUSH1 0x0 REVERT JUMPDEST POP PUSH2 0x2349 DUP5 PUSH2 0x27D6 JUMP JUMPDEST SWAP1 PUSH1 0x8 DUP2 ADD DUP1 DUP3 GT PUSH2 0x232A JUMPI PUSH2 0x235E SWAP1 PUSH2 0x27D6 JUMP JUMPDEST SWAP4 PUSH1 0x8 DUP7 ADD SWAP1 DUP2 DUP8 GT PUSH2 0x21CB JUMPI POP SWAP2 PUSH2 0x21AF PUSH1 0x49 SWAP5 SWAP3 PUSH2 0x2381 PUSH2 0x164B SWAP8 SWAP6 PUSH2 0x27D6 JUMP JUMPDEST SWAP5 PUSH2 0x2248 PUSH2 0x20B6 PUSH2 0x20B0 DUP5 PUSH2 0x27D6 JUMP JUMPDEST POP SWAP3 PUSH2 0x239C DUP2 PUSH2 0x27D6 JUMP JUMPDEST SWAP1 PUSH1 0x8 DUP6 ADD SWAP1 DUP2 DUP7 GT PUSH2 0x232A JUMPI PUSH2 0x23B2 DUP3 PUSH2 0x27D6 JUMP JUMPDEST SWAP1 PUSH2 0x23C5 PUSH2 0x23BF DUP3 PUSH2 0x27D6 JUMP JUMPDEST SWAP8 PUSH2 0x27D6 JUMP JUMPDEST SWAP6 PUSH1 0x8 DUP3 ADD DUP1 SWAP3 GT PUSH2 0x21CB JUMPI POP PUSH1 0x3F SWAP5 SWAP3 PUSH2 0x164B SWAP7 SWAP5 SWAP3 PUSH2 0x23EB PUSH2 0x20B6 PUSH2 0x24D2 SWAP5 PUSH2 0x27D6 JUMP JUMPDEST SWAP2 PUSH1 0x40 MLOAD SWAP10 DUP11 SWAP8 PUSH1 0x2A PUSH2 0x241B DUP11 PUSH1 0x20 SWAP10 PUSH10 0x3C7061746820643D224D PUSH1 0xB0 SHL DUP12 DUP4 ADD MSTORE DUP11 DUP2 MLOAD SWAP5 DUP6 SWAP4 ADD SWAP2 ADD PUSH2 0x1461 JUMP JUMPDEST DUP10 ADD SWAP4 PUSH1 0x1 PUSH1 0xFD SHL SWAP5 DUP6 PUSH1 0x2A DUP3 ADD MSTORE PUSH2 0x243D DUP3 MLOAD DUP1 SWAP4 DUP12 PUSH1 0x2B DUP6 ADD SWAP2 ADD PUSH2 0x1461 JUMP JUMPDEST ADD SWAP2 PUSH2 0x813 PUSH1 0xF2 SHL SWAP3 DUP4 PUSH1 0x2B DUP3 ADD MSTORE PUSH2 0x245F DUP3 MLOAD DUP1 SWAP4 DUP12 PUSH1 0x2D DUP6 ADD SWAP2 ADD PUSH2 0x1461 JUMP JUMPDEST ADD DUP5 PUSH1 0x2D DUP3 ADD MSTORE PUSH2 0x2479 DUP3 MLOAD DUP1 SWAP4 DUP11 PUSH1 0x2E DUP6 ADD SWAP2 ADD PUSH2 0x1461 JUMP JUMPDEST ADD SWAP1 PUSH1 0x2E DUP3 ADD MSTORE PUSH2 0x2493 DUP3 MLOAD DUP1 SWAP4 DUP9 PUSH1 0x30 DUP6 ADD SWAP2 ADD PUSH2 0x1461 JUMP JUMPDEST ADD SWAP1 PUSH1 0x30 DUP3 ADD MSTORE PUSH2 0x24AD DUP3 MLOAD DUP1 SWAP4 DUP7 PUSH1 0x31 DUP6 ADD SWAP2 ADD PUSH2 0x1461 JUMP JUMPDEST ADD SWAP2 PUSH10 0x103D11103334B6361E91 PUSH1 0xB1 SHL PUSH1 0x31 DUP5 ADD MSTORE DUP4 MLOAD SWAP4 DUP5 SWAP2 PUSH1 0x3B DUP6 ADD SWAP2 ADD PUSH2 0x1461 JUMP JUMPDEST ADD PUSH4 0x1110179F PUSH1 0xE1 SHL PUSH1 0x3B DUP3 ADD MSTORE SUB PUSH1 0x1F DUP2 ADD DUP5 MSTORE ADD DUP3 PUSH2 0x153B JUMP JUMPDEST POP SWAP3 SWAP2 PUSH1 0x8 DUP4 ADD SWAP1 DUP2 DUP5 GT PUSH2 0x21CB JUMPI PUSH2 0x2506 DUP3 PUSH2 0x27D6 JUMP JUMPDEST SWAP2 PUSH1 0x8 DUP7 ADD SWAP2 DUP3 DUP8 GT PUSH2 0x21CB JUMPI POP SWAP2 PUSH2 0x24D2 DUP3 PUSH2 0x164B SWAP7 SWAP5 PUSH2 0x23EB PUSH2 0x20B6 PUSH2 0x23BF PUSH2 0x253C PUSH2 0x2536 PUSH1 0x3F SWAP12 SWAP10 PUSH2 0x27D6 JUMP JUMPDEST SWAP5 PUSH2 0x27D6 JUMP JUMPDEST SWAP12 PUSH2 0x27D6 JUMP JUMPDEST SWAP2 POP PUSH2 0x254D DUP4 PUSH2 0x27D6 JUMP JUMPDEST SWAP3 PUSH2 0x2557 DUP4 PUSH2 0x27D6 JUMP JUMPDEST SWAP2 PUSH1 0x8 DUP3 ADD DUP1 SWAP3 GT PUSH2 0x67A JUMPI PUSH2 0x256C DUP3 PUSH2 0x27D6 JUMP JUMPDEST SWAP5 PUSH2 0x257F PUSH2 0x2579 DUP7 PUSH2 0x27D6 JUMP JUMPDEST SWAP4 PUSH2 0x27D6 JUMP JUMPDEST SWAP5 PUSH1 0x8 DUP2 ADD DUP1 SWAP2 GT PUSH2 0x67A JUMPI PUSH2 0x164B SWAP6 PUSH1 0x3F SWAP6 PUSH2 0x23EB PUSH2 0x24D2 SWAP4 PUSH2 0x27D6 JUMP JUMPDEST SWAP2 POP PUSH2 0x25A9 DUP4 PUSH2 0x27D6 JUMP JUMPDEST SWAP3 PUSH2 0x25B3 DUP4 PUSH2 0x27D6 JUMP JUMPDEST SWAP2 PUSH1 0x8 DUP3 ADD DUP1 DUP4 GT PUSH2 0x67A JUMPI PUSH2 0x256C SWAP1 PUSH2 0x27D6 JUMP JUMPDEST SWAP2 POP SWAP2 PUSH1 0x4 DUP2 ADD DUP1 SWAP2 GT PUSH2 0x67A JUMPI PUSH2 0x25DF SWAP1 PUSH2 0x27D6 JUMP JUMPDEST SWAP1 PUSH1 0x4 DUP2 ADD DUP1 SWAP2 GT PUSH2 0x67A JUMPI PUSH2 0x164B SWAP2 PUSH2 0x25FA PUSH1 0x44 SWAP3 PUSH2 0x27D6 JUMP JUMPDEST SWAP4 PUSH1 0x40 MLOAD SWAP5 DUP6 SWAP3 PUSH12 0x1E31B4B931B6329031BC1E91 PUSH1 0xA1 SHL PUSH1 0x20 DUP6 ADD MSTORE PUSH2 0x262A DUP2 MLOAD DUP1 SWAP3 PUSH1 0x20 PUSH1 0x2C DUP9 ADD SWAP2 ADD PUSH2 0x1461 JUMP JUMPDEST DUP4 ADD PUSH6 0x111031BC9E91 PUSH1 0xD1 SHL PUSH1 0x2C DUP3 ADD MSTORE PUSH2 0x264F DUP3 MLOAD DUP1 SWAP4 PUSH1 0x20 PUSH1 0x32 DUP6 ADD SWAP2 ADD PUSH2 0x1461 JUMP JUMPDEST ADD PUSH14 0x1110391E911A11103334B6361E91 PUSH1 0x91 SHL PUSH1 0x32 DUP3 ADD MSTORE PUSH2 0x267B DUP3 MLOAD DUP1 SWAP4 PUSH1 0x20 PUSH1 0x40 DUP6 ADD SWAP2 ADD PUSH2 0x1461 JUMP JUMPDEST ADD PUSH4 0x1110179F PUSH1 0xE1 SHL PUSH1 0x40 DUP3 ADD MSTORE SUB PUSH1 0x24 DUP2 ADD DUP5 MSTORE ADD DUP3 PUSH2 0x153B JUMP JUMPDEST PUSH2 0x164B SWAP3 POP PUSH2 0x26AB PUSH2 0x2219 PUSH1 0x4F SWAP4 SWAP6 PUSH2 0x27D6 JUMP JUMPDEST SWAP4 PUSH1 0x40 MLOAD SWAP5 DUP6 SWAP3 PUSH9 0x1E3932B1BA103C1E91 PUSH1 0xB9 SHL PUSH1 0x20 DUP6 ADD MSTORE PUSH2 0x26D8 DUP2 MLOAD DUP1 SWAP3 PUSH1 0x20 PUSH1 0x29 DUP9 ADD SWAP2 ADD PUSH2 0x1461 JUMP JUMPDEST DUP4 ADD PUSH5 0x11103C9E91 PUSH1 0xD9 SHL PUSH1 0x29 DUP3 ADD MSTORE PUSH2 0x26FC DUP3 MLOAD DUP1 SWAP4 PUSH1 0x20 PUSH1 0x2E DUP6 ADD SWAP2 ADD PUSH2 0x1461 JUMP JUMPDEST ADD PUSH32 0x222077696474683D223822206865696768743D2238222066696C6C3D22000000 PUSH1 0x2E DUP3 ADD MSTORE PUSH2 0x2737 DUP3 MLOAD DUP1 SWAP4 PUSH1 0x20 PUSH1 0x4B DUP6 ADD SWAP2 ADD PUSH2 0x1461 JUMP JUMPDEST ADD PUSH4 0x1110179F PUSH1 0xE1 SHL PUSH1 0x4B DUP3 ADD MSTORE SUB PUSH1 0x2F DUP2 ADD DUP5 MSTORE ADD DUP3 PUSH2 0x153B JUMP JUMPDEST PUSH1 0x0 SWAP3 SWAP2 DUP2 SLOAD PUSH2 0x2762 DUP2 PUSH2 0x164E JUMP JUMPDEST SWAP3 PUSH1 0x1 SWAP2 DUP1 DUP4 AND SWAP1 DUP2 ISZERO PUSH2 0x27BB JUMPI POP PUSH1 0x1 EQ PUSH2 0x277F JUMPI JUMPDEST POP POP POP POP JUMP JUMPDEST SWAP1 SWAP2 SWAP3 SWAP4 SWAP5 POP PUSH1 0x0 MSTORE PUSH1 0x20 SWAP1 DUP2 PUSH1 0x0 KECCAK256 SWAP1 PUSH1 0x0 SWAP2 JUMPDEST DUP6 DUP4 LT PUSH2 0x27AA JUMPI POP POP POP POP ADD SWAP1 CODESIZE DUP1 DUP1 DUP1 PUSH2 0x2779 JUMP JUMPDEST DUP1 SLOAD DUP6 DUP5 ADD MSTORE SWAP2 DUP4 ADD SWAP2 DUP2 ADD PUSH2 0x2794 JUMP JUMPDEST PUSH1 0xFF NOT AND DUP5 MSTORE POP POP POP DUP2 ISZERO ISZERO SWAP1 SWAP2 MUL ADD SWAP2 POP CODESIZE DUP1 DUP1 DUP1 PUSH2 0x2779 JUMP JUMPDEST DUP1 ISZERO PUSH2 0x2896 JUMPI DUP1 DUP2 PUSH1 0x0 SWAP3 JUMPDEST PUSH2 0x2882 JUMPI POP DUP1 PUSH2 0x27F1 DUP4 PUSH2 0x1573 JUMP JUMPDEST SWAP3 PUSH2 0x27FF PUSH1 0x40 MLOAD SWAP5 DUP6 PUSH2 0x153B JUMP JUMPDEST DUP1 DUP5 MSTORE PUSH1 0x1F NOT PUSH2 0x280E DUP3 PUSH2 0x1573 JUMP JUMPDEST ADD CALLDATASIZE PUSH1 0x20 DUP7 ADD CALLDATACOPY SWAP2 JUMPDEST PUSH2 0x2820 JUMPI POP POP SWAP1 JUMP JUMPDEST PUSH1 0x0 NOT DUP3 ADD SWAP2 DUP1 DUP4 GT PUSH2 0x67A JUMPI DUP3 PUSH1 0xA SWAP1 DUP2 DUP5 DIV SWAP4 DUP3 DUP6 MUL SWAP3 DUP6 DUP5 DIV EQ DUP6 ISZERO OR ISZERO PUSH2 0x67A JUMPI PUSH2 0x2852 PUSH1 0xFF SWAP4 DUP5 SWAP3 PUSH2 0x18A4 JUMP JUMPDEST AND PUSH1 0x30 ADD SWAP2 DUP3 GT PUSH2 0x67A JUMPI DUP6 MLOAD GT ISZERO PUSH2 0x10C7 JUMPI PUSH1 0xF8 SHL PUSH1 0x1 PUSH1 0x1 PUSH1 0xF8 SHL SUB NOT AND PUSH1 0x0 BYTE SWAP1 DUP5 ADD PUSH1 0x1F ADD MSTORE8 DUP1 PUSH2 0x2817 JUMP JUMPDEST SWAP2 PUSH2 0x288E PUSH1 0xA SWAP2 PUSH2 0x172E JUMP JUMPDEST SWAP3 DIV DUP1 PUSH2 0x27E2 JUMP JUMPDEST POP PUSH1 0x40 MLOAD PUSH1 0x40 DUP2 ADD DUP2 DUP2 LT PUSH1 0x1 PUSH1 0x1 PUSH1 0x40 SHL SUB DUP3 GT OR PUSH2 0x523 JUMPI PUSH1 0x40 MSTORE PUSH1 0x1 DUP2 MSTORE PUSH1 0x3 PUSH1 0xFC SHL PUSH1 0x20 DUP3 ADD MSTORE SWAP1 JUMP INVALID LOG2 PUSH5 0x6970667358 0x22 SLT KECCAK256 MULMOD SWAP4 PC DUP14 0x21 0xD6 0xC1 PUSH29 0x8C0C7AF951FD206FE858D5848E57C0AEBEA5B75716A7A28C64736F6C63 NUMBER STOP ADDMOD EQ STOP CALLER "},"methodIdentifiers":{"artisticPeriod()":"91408017","begArtisticPeriod()":"bf59b1bc","buyPixel(uint256[],uint256[])":"6ed958f1","calculateRoyalties(uint256,uint256)":"d08629c1","checkMultiplePixel(uint256[],uint256[])":"c7eab2ec","checkPixel(uint256,uint256)":"040cdfd8","endArtisticPeriod()":"d70fbd97","fillPixel(bytes[])":"3bdb693e","generateSVG()":"ad711e9e","manager()":"481c6a75","maxHeight()":"63aa5ce2","maxWidth()":"6006ecc8","payRoyalties(uint256[],uint256[])":"e50eb5da","pixelSVGs(uint256)":"c4e4b90c","rowSVGs(uint256)":"e1245900","royaltyAskPeriod()":"6e70fcc6","royaltyDenominator()":"fd8d7ed3","royaltyRate()":"c4d1510d","seekRoyaltyPayment(uint256,uint256,uint256)":"85a9473d","setPixelValue(uint256[],uint256[],uint256[])":"8232b562","updateCurrency(address)":"5e027601","window(uint256,uint256)":"c730e65d"}}}}}