{"contracts/Pixelmap.sol":{"Pixelmap":{"abi":[{"inputs":[],"stateMutability":"nonpayable","type":"constructor"},{"anonymous":false,"inputs":[{"indexed":true,"internalType":"uint256","name":"x","type":"uint256"},{"indexed":true,"internalType":"uint256","name":"y","type":"uint256"}],"name":"PixelBought","type":"event"},{"anonymous":false,"inputs":[{"indexed":true,"internalType":"uint256","name":"x","type":"uint256"},{"indexed":true,"internalType":"uint256","name":"y","type":"uint256"}],"name":"PixelFilled","type":"event"},{"anonymous":false,"inputs":[{"indexed":true,"internalType":"uint256","name":"x","type":"uint256"},{"indexed":true,"internalType":"uint256","name":"y","type":"uint256"}],"name":"PixelValueSet","type":"event"},{"anonymous":false,"inputs":[{"indexed":true,"internalType":"uint256","name":"x","type":"uint256"},{"indexed":true,"internalType":"uint256","name":"y","type":"uint256"}],"name":"RoyaltiesPaid","type":"event"},{"anonymous":false,"inputs":[{"indexed":true,"internalType":"address","name":"owner","type":"address"}],"name":"VoteCasted","type":"event"},{"inputs":[],"name":"ARTISTIC_PERIOD","outputs":[{"internalType":"uint256","name":"","type":"uint256"}],"stateMutability":"view","type":"function"},{"inputs":[],"name":"CYCLE_PERIOD","outputs":[{"internalType":"uint256","name":"","type":"uint256"}],"stateMutability":"view","type":"function"},{"inputs":[],"name":"VOTING_PERIOD","outputs":[{"internalType":"uint256","name":"","type":"uint256"}],"stateMutability":"view","type":"function"},{"inputs":[{"internalType":"address","name":"","type":"address"}],"name":"balanceOf","outputs":[{"internalType":"uint256","name":"","type":"uint256"}],"stateMutability":"view","type":"function"},{"inputs":[{"internalType":"uint256[]","name":"xValues","type":"uint256[]"},{"internalType":"uint256[]","name":"yValues","type":"uint256[]"}],"name":"buyPixel","outputs":[],"stateMutability":"nonpayable","type":"function"},{"inputs":[{"internalType":"uint256","name":"x","type":"uint256"},{"internalType":"uint256","name":"y","type":"uint256"}],"name":"calculateRoyalties","outputs":[{"internalType":"uint256","name":"","type":"uint256"}],"stateMutability":"view","type":"function"},{"inputs":[],"name":"canvasCreation","outputs":[{"internalType":"uint256","name":"","type":"uint256"}],"stateMutability":"view","type":"function"},{"inputs":[{"internalType":"bool","name":"vote","type":"bool"}],"name":"castVote","outputs":[],"stateMutability":"nonpayable","type":"function"},{"inputs":[{"internalType":"uint256[]","name":"xValues","type":"uint256[]"},{"internalType":"uint256[]","name":"yValues","type":"uint256[]"}],"name":"checkMultiplePixel","outputs":[{"components":[{"internalType":"address","name":"owner","type":"address"},{"internalType":"uint256","name":"shapeID","type":"uint256"},{"internalType":"uint256","name":"price","type":"uint256"},{"internalType":"string","name":"color","type":"string"},{"internalType":"uint256","name":"royaltyLastPaid","type":"uint256"},{"internalType":"bool","name":"askedToPayRoyalties","type":"bool"},{"internalType":"uint256","name":"royaltyAskDate","type":"uint256"}],"internalType":"struct Pixelmap.Pixel[]","name":"","type":"tuple[]"}],"stateMutability":"view","type":"function"},{"inputs":[{"internalType":"uint256","name":"x","type":"uint256"},{"internalType":"uint256","name":"y","type":"uint256"}],"name":"checkPixel","outputs":[{"components":[{"internalType":"address","name":"owner","type":"address"},{"internalType":"uint256","name":"shapeID","type":"uint256"},{"internalType":"uint256","name":"price","type":"uint256"},{"internalType":"string","name":"color","type":"string"},{"internalType":"uint256","name":"royaltyLastPaid","type":"uint256"},{"internalType":"bool","name":"askedToPayRoyalties","type":"bool"},{"internalType":"uint256","name":"royaltyAskDate","type":"uint256"}],"internalType":"struct Pixelmap.Pixel","name":"","type":"tuple"}],"stateMutability":"view","type":"function"},{"inputs":[],"name":"checkVoteOutcome","outputs":[{"internalType":"bool","name":"","type":"bool"}],"stateMutability":"view","type":"function"},{"inputs":[{"internalType":"bytes[]","name":"_pixels","type":"bytes[]"}],"name":"fillPixel","outputs":[],"stateMutability":"nonpayable","type":"function"},{"inputs":[],"name":"generateSVG","outputs":[{"internalType":"string","name":"","type":"string"}],"stateMutability":"view","type":"function"},{"inputs":[{"internalType":"address","name":"_owner","type":"address"}],"name":"getBalance","outputs":[{"internalType":"uint256","name":"","type":"uint256"}],"stateMutability":"view","type":"function"},{"inputs":[],"name":"getCurrentCycle","outputs":[{"internalType":"uint256","name":"","type":"uint256"}],"stateMutability":"view","type":"function"},{"inputs":[{"internalType":"address","name":"_owner","type":"address"}],"name":"hasVoted","outputs":[{"internalType":"bool","name":"","type":"bool"}],"stateMutability":"view","type":"function"},{"inputs":[],"name":"isInArtisticPeriod","outputs":[{"internalType":"bool","name":"","type":"bool"}],"stateMutability":"view","type":"function"},{"inputs":[],"name":"isInVotingPeriod","outputs":[{"internalType":"bool","name":"","type":"bool"}],"stateMutability":"view","type":"function"},{"inputs":[],"name":"manager","outputs":[{"internalType":"address","name":"","type":"address"}],"stateMutability":"view","type":"function"},{"inputs":[],"name":"maxHeight","outputs":[{"internalType":"uint256","name":"","type":"uint256"}],"stateMutability":"view","type":"function"},{"inputs":[],"name":"maxWidth","outputs":[{"internalType":"uint256","name":"","type":"uint256"}],"stateMutability":"view","type":"function"},{"inputs":[{"internalType":"uint256[]","name":"xValues","type":"uint256[]"},{"internalType":"uint256[]","name":"yValues","type":"uint256[]"}],"name":"payRoyalties","outputs":[],"stateMutability":"nonpayable","type":"function"},{"inputs":[{"internalType":"uint256","name":"","type":"uint256"}],"name":"pixelSVGs","outputs":[{"internalType":"string","name":"","type":"string"}],"stateMutability":"view","type":"function"},{"inputs":[{"internalType":"uint256","name":"","type":"uint256"}],"name":"rowSVGs","outputs":[{"internalType":"string","name":"","type":"string"}],"stateMutability":"view","type":"function"},{"inputs":[],"name":"royaltyAskPeriod","outputs":[{"internalType":"uint256","name":"","type":"uint256"}],"stateMutability":"view","type":"function"},{"inputs":[],"name":"royaltyDenominator","outputs":[{"internalType":"uint256","name":"","type":"uint256"}],"stateMutability":"view","type":"function"},{"inputs":[],"name":"royaltyRate","outputs":[{"internalType":"uint256","name":"","type":"uint256"}],"stateMutability":"view","type":"function"},{"inputs":[{"internalType":"uint256","name":"x","type":"uint256"},{"internalType":"uint256","name":"y","type":"uint256"},{"internalType":"uint256","name":"_price","type":"uint256"}],"name":"seekRoyaltyPayment","outputs":[],"stateMutability":"nonpayable","type":"function"},{"inputs":[{"internalType":"uint256[]","name":"xValues","type":"uint256[]"},{"internalType":"uint256[]","name":"yValues","type":"uint256[]"},{"internalType":"uint256[]","name":"priceValues","type":"uint256[]"}],"name":"setPixelValue","outputs":[],"stateMutability":"nonpayable","type":"function"},{"inputs":[{"internalType":"address","name":"_newToken","type":"address"}],"name":"updateCurrency","outputs":[],"stateMutability":"nonpayable","type":"function"},{"inputs":[{"internalType":"uint256","name":"","type":"uint256"}],"name":"voteRegister","outputs":[{"internalType":"uint256","name":"yesVotes","type":"uint256"},{"internalType":"uint256","name":"noVotes","type":"uint256"}],"stateMutability":"view","type":"function"},{"inputs":[{"internalType":"uint256","name":"","type":"uint256"},{"internalType":"uint256","name":"","type":"uint256"}],"name":"window","outputs":[{"internalType":"address","name":"owner","type":"address"},{"internalType":"uint256","name":"shapeID","type":"uint256"},{"internalType":"uint256","name":"price","type":"uint256"},{"internalType":"string","name":"color","type":"string"},{"internalType":"uint256","name":"royaltyLastPaid","type":"uint256"},{"internalType":"bool","name":"askedToPayRoyalties","type":"bool"},{"internalType":"uint256","name":"royaltyAskDate","type":"uint256"}],"stateMutability":"view","type":"function"}],"evm":{"bytecode":{"linkReferences":{},"object":"6080806040523461004f57603260015560018060a01b031973c02aaa39b223fe8d0a0e5c4f27ead9083c756cc28160035416176003553390600054161760005542600255612fbe90816100558239f35b600080fdfe6080604052600436101561001257600080fd5b60003560e01c8063040cdfd814611a7557806309eef43e14611a11578063113bc999146119f357806330b5d6d3146119bd5780633323a706146113bb5780633bdb693e1461146b578063481c6a75146114425780634882a7ea146114115780635e027601146113c55780636006ecc8146113c057806363aa5ce2146113c05780636e70fcc6146113bb5780636ed958f114610cc057806370a08231146102755780637ace48e714610ac15780638232b5621461084657806385a9473d146106fd578063ad711e9e146105a3578063b1610d7e14610585578063b3a1ddf414610553578063be26ed7f14610527578063c4d1510d14610509578063c4e4b90c146104dc578063c730e65d14610442578063c7eab2ec14610333578063d08629c114610312578063e1245900146102cd578063e50eb5da146102b4578063f8b2cb4f14610275578063fd8d7ed314610258578063fe91f6eb1461019f5763ff188dca1461017c57600080fd5b3461019a57600036600319011261019a576020600254604051908152f35b600080fd5b3461019a57600036600319011261019a5760025462054600806101c28342611f27565b04600052611046806020526101f8604060002054836101e18642611f27565b046000528260205260016040600020015490611b5d565b9182156102235761020b60209442611f27565b0460005282526040600020546040519160011c108152f35b60405162461bcd60e51b815260206004820152600d60248201526c139bc81d9bdd195cc818d85cdd609a1b6044820152606490fd5b3461019a57600036600319011261019a5760206040516103e88152f35b3461019a57602036600319011261019a576004356001600160a01b0381169081900361019a576000526110456020526020604060002054604051908152f35b3461019a576102cb6102c536611c8b565b90611fce565b005b3461019a57602036600319011261019a57600435604081101561019a576102fa61030e9161100501611d0b565b604051918291602083526020830190611adc565b0390f35b3461019a57602061032b61032536611aa3565b90612653565b604051908152f35b3461019a5761034136611c8b565b61034e8251825114611f34565b81519061035a82611bdf565b926103686040519485611bbe565b828452601f1961037784611bdf565b0160005b81811061042b57505060005b8381106103ed576040805160208082528751818301819052600093600582901b8401810192808b01929185015b8287106103c15785850386f35b9091929382806103dd600193603f198a82030186528851611b01565b96019201960195929190926103b4565b8061040f6103fd60019385611dc0565b516104088387611dc0565b519061257c565b6104198288611dc0565b526104248187611dc0565b5001610387565b602090610436612544565b8282890101520161037b565b3461019a5761045036611aa3565b906000526004602052604060002090600052602052604060002060018060a01b03815416600182015491600281015461048b60038301611d0b565b916104c6600482015493600660ff6005850154169301549360405197889788526020880152604087015260e0606087015260e0860190611adc565b926080850152151560a084015260c08301520390f35b3461019a57602036600319011261019a5760043561100081101561019a576102fa61030e91600501611d0b565b3461019a57600036600319011261019a576020600154604051908152f35b3461019a57600036600319011261019a5760206205460061054a60025442611f27565b04604051908152f35b3461019a57600036600319011261019a5760206203f4806205460061057a60025442611f27565b061015604051908152f35b3461019a57600036600319011261019a576020604051620151808152f35b3461019a57600036600319011261019a57604051608081018181106001600160401b038211176106e757604052605781526020907f3c7376672077696474683d2236303022206865696768743d2236303022207669828201527f6577426f783d2230203020363030203630302220786d6c6e733d22687474703a6040820152761797bbbbbb973b999737b933979918181817b9bb33911f60491b60608201529060005b6040811061069d575061068960266040518461066b8296518092878086019101611ab9565b8101651e17b9bb339f60d11b85820152036006810185520183611bbe565b61030e604051928284938452830190611adc565b91816106dc6106e2926106ce60405193826106c18694518092848088019101611ab9565b8301018761100501612e0d565b03601f198101835282611bbe565b92611db1565b610646565b634e487b7160e01b600052604160045260246000fd5b3461019a57606036600319011261019a576004356024359061072a60018060a01b036000541633146124e3565b8060005260209060048252604060002083600052825260ff60056040600020015416806107ff575b156107b9578060005260048252604060002083600052825260443560026040600020015580600052600482526040600020836000528252600560406000200160ff198154169055600052600481526040600020916000525260006006604082200155600080f35b806000526004825260406000208360005282526005604060002001600160ff19825416179055600052600481526040600020916000525242600660406000200155600080f35b50806000526004825260406000208360005282526006604060002001546203f4808101809111610830574211610752565b634e487b7160e01b600052601160045260246000fd5b3461019a57606036600319011261019a576001600160401b0360043581811161019a57610877903690600401611c2d565b90602491823582811161019a57610892903690600401611c2d565b90604492833590811161019a576108ad903690600401611c2d565b938151835181149081610ab6575b5015610a635781519360005b858110610969575050506108db8282611fce565b60005b8381106108e757005b806108f460019287611dc0565b516108ff8285611dc0565b516000526020600481526040600020906109198488611dc0565b51600052526002604060002001556109318184611dc0565b5161093c8286611dc0565b51907f1c362b7fc7c4865e1e7ede89f240549bbd8b5ee43b51383c9c0392687d6d10ec600080a3016108de565b6109738185611dc0565b5160406109808388611dc0565b51911090811591610a57575b50610a195761099b8185611dc0565b5160005260206004815260406000206109b48388611dc0565b5160005281523360018060a01b0360406000205416036109d757506001016108c7565b6064907f6f6e6c79206f776e65722063616e2073657420706978656c2076616c7565000084601e876040519462461bcd60e51b86526004860152840152820152fd5b60405162461bcd60e51b815260206004820152601881850152774120706978656c206973206f7574206f6620626f756e647360401b81840152606490fd5b6040915010158861098c565b6084907f696e70757420617272617973206d757374206265206f66207468652073616d658560276040519362461bcd60e51b85526020600486015284015282015266040d8cadccee8d60cb1b6064820152fd5b9050855114866108bb565b3461019a5760208060031936011261019a57600435801515810361019a5760025462054600906203f48082610af68342611f27565b0610610c7f57336000526110458452604060002054908115610c2a5782610b1d8242611f27565b0460005261104693848652600260406000200133600052865260ff60406000205416610bf55783919015610bca5750610b5860025442611f27565b04600052828452610b6f6040600020918254611b5d565b90555b610b7e60025442611f27565b04600052815260026040600020019033600052526040600020600160ff19825416179055337f7ce969a18bb6b0fba42c6d9746e7d08eeca4c661809659c91d276456e3153ac0600080a2005b610bd49042611f27565b04600052828452610bee6001604060002001918254611b5d565b9055610b72565b60405162461bcd60e51b815260048101879052600d60248201526c185b1c9958591e481d9bdd1959609a1b6044820152606490fd5b60405162461bcd60e51b815260048101869052602760248201527f6e6f20706978656c73206f776e6564203d206e6f20766f74657320746f2062656044820152660818d85cdd195960ca1b6064820152608490fd5b60405162461bcd60e51b81526004810185905260196024820152782b37ba34b7339031bab93932b73a363c903737ba1037b832b760391b6044820152606490fd5b3461019a57610cce36611c8b565b610cdb8251825114611f34565b81519060005b828110610cea57005b610cf48185611dc0565b516040610d018385611dc0565b519110908115916113af575b5061139257610d1c8185611dc0565b5160005260046020526040600020610d348284611dc0565b5160005260205260018060a01b036040600020541615600014610df257610d5b8185611dc0565b5160005260046020526040600020610d738284611dc0565b5160005260205260406000203360018060a01b03198254161790553360005261104560205260406000209081546001810180911161083057600192555b610dba8186611dc0565b51610dc58285611dc0565b51907fee0e9a85d097f632450e6ac08750207c8f039246ee437b10eaf708b397d00ad8600080a301610ce1565b610e11610dff8286611dc0565b51610e0a8385611dc0565b5190612653565b610e1b8286611dc0565b5160005260046020526040600020610e338385611dc0565b5160005260205280600260406000200154116000146111f957610e568286611dc0565b5160005260046020526040600020610e6e8385611dc0565b51600052602052610e8781600260406000200154611f27565b6003546040516370a0823160e01b81523360048201526024936001600160a01b039092169291906020818681875afa8015611162576000906111c5575b610f019150610ed3878b611dc0565b5160005260046020526040600020610eeb888a611dc0565b5160005260205260026040600020015410612433565b604051636eb1769f60e11b815233600482015230602482015292602084604481845afa9384156111625789879160009661118b575b5091610f76600096610f4d610fcb94602096611dc0565b5188526004855260408820610f628b8d611dc0565b51895285526002604089200154111561248b565b610f80888c611dc0565b5186526004835260408620610f95898b611dc0565b518752835260408087205490516323b872dd60e01b80825290979096889485938492906001600160a01b03163360048501611fac565b03925af1918215611162576110119360209361116e575b5060035460008054604051938452929586946001600160a01b0393841694869485939291163360048501611fac565b03925af1801561116257611133575b5061102b8286611dc0565b51600052600460205260406000206110438385611dc0565b5160005260205260018060a01b0360406000205416600052611045806020526040600020805490600019820191821161111e57553360005260205260406000208054916001830180931161110a5750556001906110a08186611dc0565b51600052600460205260406000206110b88285611dc0565b51600052602052604060002033838060a01b03198254161790556110dc8186611dc0565b51600052600460205260406000206110f48285611dc0565b5160005260205242600460406000200155610db0565b634e487b7160e01b60009081526011600452fd5b83634e487b7160e01b60005260116004526000fd5b6111549060203d60201161115b575b61114c8183611bbe565b810190611f94565b5085611020565b503d611142565b6040513d6000823e3d90fd5b61118490843d861161115b5761114c8183611bbe565b5089610fe2565b955050506020843d6020116111bd575b816111a860209383611bbe565b8101031261019a579251928589610f76610f36565b3d915061119b565b506020813d6020116111f1575b816111df60209383611bbe565b8101031261019a57610f019051610ec4565b3d91506111d2565b506003546040516370a0823160e01b81523360048201526024916001600160a01b0316906020818481855afa80156111625760009061135e575b61125a91506112428589611dc0565b5160005260046020526040600020610eeb8688611dc0565b604051636eb1769f60e11b8152336004820152306024820152602081604481855afa9081156111625760009161132a575b50611011916112cd6020926112a0878b611dc0565b516000526004845260406000206112b7888a611dc0565b516000528452600260406000200154111561248b565b6000546001600160a01b0316906112e4868a611dc0565b516000526004835260406000206112fb8789611dc0565b5160005283526002604060002001549160006040518096819582946323b872dd60e01b84523360048501611fac565b90506020813d602011611356575b8161134560209383611bbe565b8101031261019a575161101161128b565b3d9150611338565b506020813d60201161138a575b8161137860209383611bbe565b8101031261019a5761125a9051611233565b3d915061136b565b60405162461bcd60e51b8152806113ab60048201611dd4565b0390fd5b60409150101585610d0d565b611b6a565b611c11565b3461019a57602036600319011261019a576004356001600160a01b038181169182900361019a576113fb906000541633146124e3565b600380546001600160a01b031916919091179055005b3461019a57600036600319011261019a5760206203f4806205460061143860025442611f27565b0610604051908152f35b3461019a57600036600319011261019a576000546040516001600160a01b039091168152602090f35b3461019a57602036600319011261019a576004356001600160401b03811161019a573660238201121561019a5780600401356114a681611bdf565b916114b46040519384611bbe565b8183526024602084019260051b8201019036821161019a5760248101925b82841061195357846203f480620546006114ee60025442611f27565b0610156119035780516040519161082083018381106001600160401b038211176106e7576040526040835261080036602085013760005b8281106115ff578360005b6040811061153a57005b6115448183611dc0565b51611552575b600101611530565b60405161155e81611ba3565b60008152600682901b6001600160fa1b03831683036108305780604001908160401161083057905b8082106115a7575050906115a06001928261100501611e05565b905061154a565b90916110008310156115e95760206106dc6115e3926106ce60405193826115d78694518092848088019101611ab9565b83010187600501612e0d565b90611586565b634e487b7160e01b600052603260045260246000fd5b6116098183611dc0565b519081518201918060208401936080918291031261019a57602082015193604083015192606081015192810151906001600160401b03821161019a570181603f8201121561019a57602081015161165f81611bf6565b9261166d6040519485611bbe565b8184526040828401011161019a5761168c916040602085019101611ab9565b604085108015906118f8575b61139257600a8210156118ba5784600052600460205260406000208360005260205260ff6005604060002001541661185d578460005260046020526040600020836000526020523360018060a01b036040600020541614611706575b5050506117019150611db1565b611525565b61172c908560005260046020526040600020846000526020526003604060002001611e05565b836000526004602052604060002082600052602052600160406000200155828161181b575b8060005260046020526040600020826000526020526001604060002001546009908282810204821483151715610830578382810204821484151715610830576117c6918360005260046020526040600020856000526020526117b96003604060002001611d0b565b91818602918502906126b0565b936110008110156115e957611701946117e191600501611e05565b60016117ed8389611dc0565b527fa9a418da632d42c446a125f10b007831ba0e348168b6b2474a2383ac5df4c280600080a38580806116f4565b92506118278184611f14565b60408481031161083057816000198101116108305761185790611851600019840186604003611f14565b90611b5d565b92611751565b60405162461bcd60e51b815260206004820152602f60248201527f6f776e6572207761732061736b656420746f20666972737420736574746c652060448201526e1c9bde585b1d1e481c185e5b595b9d608a1b6064820152608490fd5b60405162461bcd60e51b81526020600482015260166024820152757368617065204944206e6f7420617661696c61626c6560501b6044820152606490fd5b506040831015611698565b60405162461bcd60e51b815260206004820152602260248201527f417274697374696320706572696f642063757272656e746c79206e6f74206f7060448201526132b760f11b6064820152608490fd5b83356001600160401b03811161019a578201903660438301121561019a5760248201359061198082611bf6565b61198d6040519182611bbe565b8281526044933685858301011161019a5760208481969582966000940183860137830101528152019301926114d2565b3461019a57602036600319011261019a576004356000526110466020526040806000206001815491015482519182526020820152f35b3461019a57600036600319011261019a576020604051620546008152f35b3461019a57602036600319011261019a576004356001600160a01b0381169081900361019a5762054600611a4760025442611f27565b04600052611046602052600260406000200190600052602052602060ff604060002054166040519015158152f35b3461019a5761030e611a8f611a8936611aa3565b9061257c565b604051918291602083526020830190611b01565b604090600319011261019a576004359060243590565b60005b838110611acc5750506000910152565b8181015183820152602001611abc565b90602091611af581518092818552858086019101611ab9565b601f01601f1916010190565b9060018060a01b038251168152602082015160208201526040820151604082015260c080611b3e606085015160e0606086015260e0850190611adc565b936080810151608085015260a0810151151560a0850152015191015290565b9190820180921161083057565b3461019a57600036600319011261019a5760206040516203f4808152f35b60e081019081106001600160401b038211176106e757604052565b602081019081106001600160401b038211176106e757604052565b90601f801991011681019081106001600160401b038211176106e757604052565b6001600160401b0381116106e75760051b60200190565b6001600160401b0381116106e757601f01601f191660200190565b3461019a57600036600319011261019a57602060405160408152f35b81601f8201121561019a57803591611c4483611bdf565b92611c526040519485611bbe565b808452602092838086019260051b82010192831161019a578301905b828210611c7c575050505090565b81358152908301908301611c6e565b90604060031983011261019a576001600160401b0360043581811161019a5783611cb791600401611c2d565b9260243591821161019a57611cce91600401611c2d565b90565b90600182811c92168015611d01575b6020831014611ceb57565b634e487b7160e01b600052602260045260246000fd5b91607f1691611ce0565b9060405191826000825492611d1f84611cd1565b908184526001948581169081600014611d8e5750600114611d4b575b5050611d4992500383611bbe565b565b9093915060005260209081600020936000915b818310611d76575050611d4993508201013880611d3b565b85548884018501529485019487945091830191611d5e565b915050611d4994506020925060ff191682840152151560051b8201013880611d3b565b60001981146108305760010190565b80518210156115e95760209160051b010190565b606090602081526016602082015275706978656c206973206f7574206f6620626f756e647360501b60408201520190565b91909182516001600160401b0381116106e757611e228254611cd1565b601f8111611ecc575b50602080601f8311600114611e68575081929394600092611e5d575b50508160011b916000199060031b1c1916179055565b015190503880611e47565b90601f198316958460005282600020926000905b888210611eb457505083600195969710611e9b575b505050811b019055565b015160001960f88460031b161c19169055388080611e91565b80600185968294968601518155019501930190611e7c565b600083815260208120601f840160051c81019260208510611f0a575b601f0160051c01915b828110611eff575050611e2b565b818155600101611ef1565b9092508290611ee8565b8181029291811591840414171561083057565b9190820391821161083057565b15611f3b57565b60405162461bcd60e51b815260206004820152602b60248201527f7820616e64207920696e7075742061727261797320617265206f66207661726960448201526a6f7573206c656e6774687360a81b6064820152608490fd5b9081602091031261019a5751801515810361019a5790565b6001600160a01b03918216815291166020820152604081019190915260600190565b919091611fde8151845114611f34565b80516000935b818510611ff2575050509050565b611ffc8584611dc0565b51946120088183611dc0565b5160408080981091821592612428575b5050612410576120288185611dc0565b5160005260046020818152876000206120418486611dc0565b51600052815260018060a01b0333818a6000205416036123c2576120658488611dc0565b516000528282528860002061207a8587611dc0565b51600052825242838a6000200154036120a8575b50505061209f919293949550611db1565b93929190611fe4565b6120c06120b58589611dc0565b51610e0a8688611dc0565b908060035416908a516370a0823160e01b8152338682015260249085818381875afa8015612336578591600091612392575b5010612341578b51636eb1769f60e11b8152338782019081523060208201528690829081906040010381875afa8015612336578591600091612303575b50106122b2575091839161215f9b936000541660008551809e819582946323b872dd60e01b8452338c8501611fac565b03925af19889156122a75761209f959697989961228a575b506121828489611dc0565b51600052828252806000206121978588611dc0565b51600052825242838260002001556121af8489611dc0565b51600052828252806000206121c48588611dc0565b51600052825260059160ff8383600020015416612228575b505050506121ea8186611dc0565b516121f58285611dc0565b51907fe61af2269c9afbdb69efce2b15f2a464f8ee6237f105b3d4024f2e824a9f0af3600080a38594939291388061208e565b600093600693612238878c611dc0565b51865281835283862061224b888b611dc0565b518752835283862001805460ff19169055612266868b611dc0565b5185528152818420906122798689611dc0565b5185525282200155388080806121dc565b6122a090833d851161115b5761114c8183611bbe565b5038612177565b50513d6000823e3d90fd5b856027608492878f519362461bcd60e51b85528401528201527f696e73756666696369656e7420616c6c6f77616e636520746f2070617920726f60448201526679616c7469657360c81b6064820152fd5b91508682813d831161232f575b61231a8183611bbe565b8101031261232c57508490513861212f565b80fd5b503d612310565b8d513d6000823e3d90fd5b856027608492878f519362461bcd60e51b85528401528201527f6e6f742073756666696369656e742062616c616e636520746f2070617920726f60448201526679616c7469657360c81b6064820152fd5b91508682813d83116123bb575b6123a98183611bbe565b8101031261232c5750849051386120f2565b503d61239f565b885162461bcd60e51b8152808401839052602260248201527f6f6e6c7920706978656c206f776e65722063616e2070617920726f79616c7469604482015261657360f01b6064820152608490fd5b855162461bcd60e51b8152806113ab60048201611dd4565b101590508638612018565b1561243a57565b60405162461bcd60e51b815260206004820152602360248201527f6e6f742073756666696369656e742062616c616e636520746f206275792070696044820152621e195b60ea1b6064820152608490fd5b1561249257565b60405162461bcd60e51b815260206004820152602360248201527f696e73756666696369656e7420616c6c6f77616e636520746f206275792070696044820152621e195b60ea1b6064820152608490fd5b156124ea57565b60405162461bcd60e51b815260206004820152602c60248201527f6f776e65722063757272656e74206d616e616765722063616e2063616c6c207460448201526b3434b990333ab731ba34b7b760a11b6064820152608490fd5b6040519061255182611b88565b8160c06000918281528260208201528260408201526060808201528260808201528260a08201520152565b90612585612544565b506040918281108061264a575b1561261057600052600460205281600020906000526020526006816000208251926125bc84611b88565b81546001600160a01b03168452600182015460208501526002820154908401526125e860038201611d0b565b60608401526004810154608084015260ff600582015416151560a0840152015460c082015290565b825162461bcd60e51b8152602060048201526013602482015272706978656c206f7574206f6620626f756e647360681b6044820152606490fd5b50828210612592565b6126a36126ac916002604064073df160009560009084825260046020528282208183526020526126896004848420015442611f27565b948252600460205282822090825260205220015490611f14565b60015490611f14565b0490565b919290928215612d515760018314612c825760028314612c585760038314612bfc57600492838114612ba85760058114612a4b57600681146129f9576007811461299257600881146128af5760091461271a575050505060405161271381611ba3565b6000815290565b61272384612e90565b9061272d81612e90565b6008860180871161289a5761274190612e90565b946008830180931161288557509161286982611cce969461277661277061276a60499997612e90565b9a612e90565b92612e90565b91604051998a97602a6127a68a602099693c7061746820643d224d60b01b8b8301528a8151948593019101611ab9565b890193600160fd1b9485602a8201526127c8825180938b602b85019101611ab9565b016b010209c101c101810181018960a51b602b8201526127f1825180938a603785019101611ab9565b0183603782015261280b8251809389603885019101611ab9565b0161081360f21b603882015261282a8251809388603a85019101611ab9565b0190603a8201526128448251809386603b85019101611ab9565b019169102d11103334b6361e9160b11b603b8401528351938491604585019101611ab9565b01631110179f60e11b6045820152036029810184520182611bbe565b601190634e487b7160e01b6000525260246000fd5b601186634e487b7160e01b6000525260246000fd5b5092600881019384821161297d576128c685612e90565b916128d96128d383612e90565b91612e90565b946008830180931161288557509161286982611cce969461290261277061276a60499997612e90565b91604051998a97602a6129328a602099693c7061746820643d224d60b01b8b8301528a8151948593019101611ab9565b890193600160fd1b9485602a820152612954825180938b602b85019101611ab9565b016b010209c101c101810181018160a51b602b8201526127f1825180938a603785019101611ab9565b601184634e487b7160e01b6000525260246000fd5b5061299c84612e90565b906129a681612e90565b600886018096116129e4576129ba86612e90565b946008830190818411612885575060499492611cce96949261290261277061276a61286995612e90565b601185634e487b7160e01b6000525260246000fd5b50612a0384612e90565b90600881018082116129e457612a1890612e90565b93600886019081871161288557509161286960499492612a3b611cce9795612e90565b9461290261277061276a84612e90565b5092612a5681612e90565b9060088501908186116129e457612a6c82612e90565b90612a7f612a7982612e90565b97612e90565b95600882018092116128855750603f9492611cce969492612aa5612770612b8c94612e90565b91604051998a97602a612ad58a602099693c7061746820643d224d60b01b8b8301528a8151948593019101611ab9565b890193600160fd1b9485602a820152612af7825180938b602b85019101611ab9565b019161081360f21b9283602b820152612b19825180938b602d85019101611ab9565b0184602d820152612b33825180938a602e85019101611ab9565b0190602e820152612b4d8251809388603085019101611ab9565b01906030820152612b678251809386603185019101611ab9565b019169103d11103334b6361e9160b11b60318401528351938491603b85019101611ab9565b01631110179f60e11b603b82015203601f810184520182611bbe565b509291600883019081841161288557612bc082612e90565b916008860191828711612885575091612b8c82611cce9694612aa5612770612a79612bf6612bf0603f9b99612e90565b94612e90565b9b612e90565b9150612c0783612e90565b92612c1183612e90565b916008820180921161083057612c2682612e90565b94612c39612c3386612e90565b93612e90565b946008810180911161083057611cce95603f95612aa5612b8c93612e90565b9150612c6383612e90565b92612c6d83612e90565b916008820180831161083057612c2690612e90565b9150916004810180911161083057612c9990612e90565b906004810180911161083057611cce91612cb4604492612e90565b936040519485926b1e31b4b931b6329031bc1e9160a11b6020850152612ce4815180926020602c88019101611ab9565b830165111031bc9e9160d11b602c820152612d09825180936020603285019101611ab9565b016d1110391e911a11103334b6361e9160911b6032820152612d35825180936020604085019101611ab9565b01631110179f60e11b6040820152036024810184520182611bbe565b611cce9250612d656128d3604f9395612e90565b93604051948592681e3932b1ba103c1e9160b91b6020850152612d92815180926020602988019101611ab9565b83016411103c9e9160d91b6029820152612db6825180936020602e85019101611ab9565b017f222077696474683d223822206865696768743d2238222066696c6c3d22000000602e820152612df1825180936020604b85019101611ab9565b01631110179f60e11b604b82015203602f810184520182611bbe565b600092918154612e1c81611cd1565b92600191808316908115612e755750600114612e39575b50505050565b90919293945060005260209081600020906000915b858310612e645750505050019038808080612e33565b805485840152918301918101612e4e565b60ff1916845250505081151590910201915038808080612e33565b908115612f59579080816000925b612f3f5750612eac82611bf6565b91612eba6040519384611bbe565b808352601f19612ec982611bf6565b01366020850137905b818115612f395760001983019283116108305782600a908184049382850292858404148515171561083057612f0a60ff938492611f27565b1660300191821161083057855111156115e95760f81b6001600160f81b03191660001a908401601f0153612ed2565b50505090565b91612f4e600a91949294611db1565b920480939193612e9e565b9050604051604081018181106001600160401b038211176106e75760405260018152600360fc1b60208201529056fea2646970667358221220a8e5f43b4714b5e0d05f21ba0958b3f9854d9d2cae7cd5b75f942e0c19bd166464736f6c63430008140033","opcodes":"PUSH1 0x80 DUP1 PUSH1 0x40 MSTORE CALLVALUE PUSH2 0x4F JUMPI PUSH1 0x32 PUSH1 0x1 SSTORE PUSH1 0x1 DUP1 PUSH1 0xA0 SHL SUB NOT PUSH20 0xC02AAA39B223FE8D0A0E5C4F27EAD9083C756CC2 DUP2 PUSH1 0x3 SLOAD AND OR PUSH1 0x3 SSTORE CALLER SWAP1 PUSH1 0x0 SLOAD AND OR PUSH1 0x0 SSTORE TIMESTAMP PUSH1 0x2 SSTORE PUSH2 0x2FBE SWAP1 DUP2 PUSH2 0x55 DUP3 CODECOPY RETURN JUMPDEST PUSH1 0x0 DUP1 REVERT INVALID PUSH1 0x80 PUSH1 0x40 MSTORE PUSH1 0x4 CALLDATASIZE LT ISZERO PUSH2 0x12 JUMPI PUSH1 0x0 DUP1 REVERT JUMPDEST PUSH1 0x0 CALLDATALOAD PUSH1 0xE0 SHR DUP1 PUSH4 0x40CDFD8 EQ PUSH2 0x1A75 JUMPI DUP1 PUSH4 0x9EEF43E EQ PUSH2 0x1A11 JUMPI DUP1 PUSH4 0x113BC999 EQ PUSH2 0x19F3 JUMPI DUP1 PUSH4 0x30B5D6D3 EQ PUSH2 0x19BD JUMPI DUP1 PUSH4 0x3323A706 EQ PUSH2 0x13BB JUMPI DUP1 PUSH4 0x3BDB693E EQ PUSH2 0x146B JUMPI DUP1 PUSH4 0x481C6A75 EQ PUSH2 0x1442 JUMPI DUP1 PUSH4 0x4882A7EA EQ PUSH2 0x1411 JUMPI DUP1 PUSH4 0x5E027601 EQ PUSH2 0x13C5 JUMPI DUP1 PUSH4 0x6006ECC8 EQ PUSH2 0x13C0 JUMPI DUP1 PUSH4 0x63AA5CE2 EQ PUSH2 0x13C0 JUMPI DUP1 PUSH4 0x6E70FCC6 EQ PUSH2 0x13BB JUMPI DUP1 PUSH4 0x6ED958F1 EQ PUSH2 0xCC0 JUMPI DUP1 PUSH4 0x70A08231 EQ PUSH2 0x275 JUMPI DUP1 PUSH4 0x7ACE48E7 EQ PUSH2 0xAC1 JUMPI DUP1 PUSH4 0x8232B562 EQ PUSH2 0x846 JUMPI DUP1 PUSH4 0x85A9473D EQ PUSH2 0x6FD JUMPI DUP1 PUSH4 0xAD711E9E EQ PUSH2 0x5A3 JUMPI DUP1 PUSH4 0xB1610D7E EQ PUSH2 0x585 JUMPI DUP1 PUSH4 0xB3A1DDF4 EQ PUSH2 0x553 JUMPI DUP1 PUSH4 0xBE26ED7F EQ PUSH2 0x527 JUMPI DUP1 PUSH4 0xC4D1510D EQ PUSH2 0x509 JUMPI DUP1 PUSH4 0xC4E4B90C EQ PUSH2 0x4DC JUMPI DUP1 PUSH4 0xC730E65D EQ PUSH2 0x442 JUMPI DUP1 PUSH4 0xC7EAB2EC EQ PUSH2 0x333 JUMPI DUP1 PUSH4 0xD08629C1 EQ PUSH2 0x312 JUMPI DUP1 PUSH4 0xE1245900 EQ PUSH2 0x2CD JUMPI DUP1 PUSH4 0xE50EB5DA EQ PUSH2 0x2B4 JUMPI DUP1 PUSH4 0xF8B2CB4F EQ PUSH2 0x275 JUMPI DUP1 PUSH4 0xFD8D7ED3 EQ PUSH2 0x258 JUMPI DUP1 PUSH4 0xFE91F6EB EQ PUSH2 0x19F JUMPI PUSH4 0xFF188DCA EQ PUSH2 0x17C JUMPI PUSH1 0x0 DUP1 REVERT JUMPDEST CALLVALUE PUSH2 0x19A JUMPI PUSH1 0x0 CALLDATASIZE PUSH1 0x3 NOT ADD SLT PUSH2 0x19A JUMPI PUSH1 0x20 PUSH1 0x2 SLOAD PUSH1 0x40 MLOAD SWAP1 DUP2 MSTORE RETURN JUMPDEST PUSH1 0x0 DUP1 REVERT JUMPDEST CALLVALUE PUSH2 0x19A JUMPI PUSH1 0x0 CALLDATASIZE PUSH1 0x3 NOT ADD SLT PUSH2 0x19A JUMPI PUSH1 0x2 SLOAD PUSH3 0x54600 DUP1 PUSH2 0x1C2 DUP4 TIMESTAMP PUSH2 0x1F27 JUMP JUMPDEST DIV PUSH1 0x0 MSTORE PUSH2 0x1046 DUP1 PUSH1 0x20 MSTORE PUSH2 0x1F8 PUSH1 0x40 PUSH1 0x0 KECCAK256 SLOAD DUP4 PUSH2 0x1E1 DUP7 TIMESTAMP PUSH2 0x1F27 JUMP JUMPDEST DIV PUSH1 0x0 MSTORE DUP3 PUSH1 0x20 MSTORE PUSH1 0x1 PUSH1 0x40 PUSH1 0x0 KECCAK256 ADD SLOAD SWAP1 PUSH2 0x1B5D JUMP JUMPDEST SWAP2 DUP3 ISZERO PUSH2 0x223 JUMPI PUSH2 0x20B PUSH1 0x20 SWAP5 TIMESTAMP PUSH2 0x1F27 JUMP JUMPDEST DIV PUSH1 0x0 MSTORE DUP3 MSTORE PUSH1 0x40 PUSH1 0x0 KECCAK256 SLOAD PUSH1 0x40 MLOAD SWAP2 PUSH1 0x1 SHR LT DUP2 MSTORE RETURN JUMPDEST PUSH1 0x40 MLOAD PUSH3 0x461BCD PUSH1 0xE5 SHL DUP2 MSTORE PUSH1 0x20 PUSH1 0x4 DUP3 ADD MSTORE PUSH1 0xD PUSH1 0x24 DUP3 ADD MSTORE PUSH13 0x139BC81D9BDD195CC818D85CDD PUSH1 0x9A SHL PUSH1 0x44 DUP3 ADD MSTORE PUSH1 0x64 SWAP1 REVERT JUMPDEST CALLVALUE PUSH2 0x19A JUMPI PUSH1 0x0 CALLDATASIZE PUSH1 0x3 NOT ADD SLT PUSH2 0x19A JUMPI PUSH1 0x20 PUSH1 0x40 MLOAD PUSH2 0x3E8 DUP2 MSTORE RETURN JUMPDEST CALLVALUE PUSH2 0x19A JUMPI PUSH1 0x20 CALLDATASIZE PUSH1 0x3 NOT ADD SLT PUSH2 0x19A JUMPI PUSH1 0x4 CALLDATALOAD PUSH1 0x1 PUSH1 0x1 PUSH1 0xA0 SHL SUB DUP2 AND SWAP1 DUP2 SWAP1 SUB PUSH2 0x19A JUMPI PUSH1 0x0 MSTORE PUSH2 0x1045 PUSH1 0x20 MSTORE PUSH1 0x20 PUSH1 0x40 PUSH1 0x0 KECCAK256 SLOAD PUSH1 0x40 MLOAD SWAP1 DUP2 MSTORE RETURN JUMPDEST CALLVALUE PUSH2 0x19A JUMPI PUSH2 0x2CB PUSH2 0x2C5 CALLDATASIZE PUSH2 0x1C8B JUMP JUMPDEST SWAP1 PUSH2 0x1FCE JUMP JUMPDEST STOP JUMPDEST CALLVALUE PUSH2 0x19A JUMPI PUSH1 0x20 CALLDATASIZE PUSH1 0x3 NOT ADD SLT PUSH2 0x19A JUMPI PUSH1 0x4 CALLDATALOAD PUSH1 0x40 DUP2 LT ISZERO PUSH2 0x19A JUMPI PUSH2 0x2FA PUSH2 0x30E SWAP2 PUSH2 0x1005 ADD PUSH2 0x1D0B JUMP JUMPDEST PUSH1 0x40 MLOAD SWAP2 DUP3 SWAP2 PUSH1 0x20 DUP4 MSTORE PUSH1 0x20 DUP4 ADD SWAP1 PUSH2 0x1ADC JUMP JUMPDEST SUB SWAP1 RETURN JUMPDEST CALLVALUE PUSH2 0x19A JUMPI PUSH1 0x20 PUSH2 0x32B PUSH2 0x325 CALLDATASIZE PUSH2 0x1AA3 JUMP JUMPDEST SWAP1 PUSH2 0x2653 JUMP JUMPDEST PUSH1 0x40 MLOAD SWAP1 DUP2 MSTORE RETURN JUMPDEST CALLVALUE PUSH2 0x19A JUMPI PUSH2 0x341 CALLDATASIZE PUSH2 0x1C8B JUMP JUMPDEST PUSH2 0x34E DUP3 MLOAD DUP3 MLOAD EQ PUSH2 0x1F34 JUMP JUMPDEST DUP2 MLOAD SWAP1 PUSH2 0x35A DUP3 PUSH2 0x1BDF JUMP JUMPDEST SWAP3 PUSH2 0x368 PUSH1 0x40 MLOAD SWAP5 DUP6 PUSH2 0x1BBE JUMP JUMPDEST DUP3 DUP5 MSTORE PUSH1 0x1F NOT PUSH2 0x377 DUP5 PUSH2 0x1BDF JUMP JUMPDEST ADD PUSH1 0x0 JUMPDEST DUP2 DUP2 LT PUSH2 0x42B JUMPI POP POP PUSH1 0x0 JUMPDEST DUP4 DUP2 LT PUSH2 0x3ED JUMPI PUSH1 0x40 DUP1 MLOAD PUSH1 0x20 DUP1 DUP3 MSTORE DUP8 MLOAD DUP2 DUP4 ADD DUP2 SWAP1 MSTORE PUSH1 0x0 SWAP4 PUSH1 0x5 DUP3 SWAP1 SHL DUP5 ADD DUP2 ADD SWAP3 DUP1 DUP12 ADD SWAP3 SWAP2 DUP6 ADD JUMPDEST DUP3 DUP8 LT PUSH2 0x3C1 JUMPI DUP6 DUP6 SUB DUP7 RETURN JUMPDEST SWAP1 SWAP2 SWAP3 SWAP4 DUP3 DUP1 PUSH2 0x3DD PUSH1 0x1 SWAP4 PUSH1 0x3F NOT DUP11 DUP3 SUB ADD DUP7 MSTORE DUP9 MLOAD PUSH2 0x1B01 JUMP JUMPDEST SWAP7 ADD SWAP3 ADD SWAP7 ADD SWAP6 SWAP3 SWAP2 SWAP1 SWAP3 PUSH2 0x3B4 JUMP JUMPDEST DUP1 PUSH2 0x40F PUSH2 0x3FD PUSH1 0x1 SWAP4 DUP6 PUSH2 0x1DC0 JUMP JUMPDEST MLOAD PUSH2 0x408 DUP4 DUP8 PUSH2 0x1DC0 JUMP JUMPDEST MLOAD SWAP1 PUSH2 0x257C JUMP JUMPDEST PUSH2 0x419 DUP3 DUP9 PUSH2 0x1DC0 JUMP JUMPDEST MSTORE PUSH2 0x424 DUP2 DUP8 PUSH2 0x1DC0 JUMP JUMPDEST POP ADD PUSH2 0x387 JUMP JUMPDEST PUSH1 0x20 SWAP1 PUSH2 0x436 PUSH2 0x2544 JUMP JUMPDEST DUP3 DUP3 DUP10 ADD ADD MSTORE ADD PUSH2 0x37B JUMP JUMPDEST CALLVALUE PUSH2 0x19A JUMPI PUSH2 0x450 CALLDATASIZE PUSH2 0x1AA3 JUMP JUMPDEST SWAP1 PUSH1 0x0 MSTORE PUSH1 0x4 PUSH1 0x20 MSTORE PUSH1 0x40 PUSH1 0x0 KECCAK256 SWAP1 PUSH1 0x0 MSTORE PUSH1 0x20 MSTORE PUSH1 0x40 PUSH1 0x0 KECCAK256 PUSH1 0x1 DUP1 PUSH1 0xA0 SHL SUB DUP2 SLOAD AND PUSH1 0x1 DUP3 ADD SLOAD SWAP2 PUSH1 0x2 DUP2 ADD SLOAD PUSH2 0x48B PUSH1 0x3 DUP4 ADD PUSH2 0x1D0B JUMP JUMPDEST SWAP2 PUSH2 0x4C6 PUSH1 0x4 DUP3 ADD SLOAD SWAP4 PUSH1 0x6 PUSH1 0xFF PUSH1 0x5 DUP6 ADD SLOAD AND SWAP4 ADD SLOAD SWAP4 PUSH1 0x40 MLOAD SWAP8 DUP9 SWAP8 DUP9 MSTORE PUSH1 0x20 DUP9 ADD MSTORE PUSH1 0x40 DUP8 ADD MSTORE PUSH1 0xE0 PUSH1 0x60 DUP8 ADD MSTORE PUSH1 0xE0 DUP7 ADD SWAP1 PUSH2 0x1ADC JUMP JUMPDEST SWAP3 PUSH1 0x80 DUP6 ADD MSTORE ISZERO ISZERO PUSH1 0xA0 DUP5 ADD MSTORE PUSH1 0xC0 DUP4 ADD MSTORE SUB SWAP1 RETURN JUMPDEST CALLVALUE PUSH2 0x19A JUMPI PUSH1 0x20 CALLDATASIZE PUSH1 0x3 NOT ADD SLT PUSH2 0x19A JUMPI PUSH1 0x4 CALLDATALOAD PUSH2 0x1000 DUP2 LT ISZERO PUSH2 0x19A JUMPI PUSH2 0x2FA PUSH2 0x30E SWAP2 PUSH1 0x5 ADD PUSH2 0x1D0B JUMP JUMPDEST CALLVALUE PUSH2 0x19A JUMPI PUSH1 0x0 CALLDATASIZE PUSH1 0x3 NOT ADD SLT PUSH2 0x19A JUMPI PUSH1 0x20 PUSH1 0x1 SLOAD PUSH1 0x40 MLOAD SWAP1 DUP2 MSTORE RETURN JUMPDEST CALLVALUE PUSH2 0x19A JUMPI PUSH1 0x0 CALLDATASIZE PUSH1 0x3 NOT ADD SLT PUSH2 0x19A JUMPI PUSH1 0x20 PUSH3 0x54600 PUSH2 0x54A PUSH1 0x2 SLOAD TIMESTAMP PUSH2 0x1F27 JUMP JUMPDEST DIV PUSH1 0x40 MLOAD SWAP1 DUP2 MSTORE RETURN JUMPDEST CALLVALUE PUSH2 0x19A JUMPI PUSH1 0x0 CALLDATASIZE PUSH1 0x3 NOT ADD SLT PUSH2 0x19A JUMPI PUSH1 0x20 PUSH3 0x3F480 PUSH3 0x54600 PUSH2 0x57A PUSH1 0x2 SLOAD TIMESTAMP PUSH2 0x1F27 JUMP JUMPDEST MOD LT ISZERO PUSH1 0x40 MLOAD SWAP1 DUP2 MSTORE RETURN JUMPDEST CALLVALUE PUSH2 0x19A JUMPI PUSH1 0x0 CALLDATASIZE PUSH1 0x3 NOT ADD SLT PUSH2 0x19A JUMPI PUSH1 0x20 PUSH1 0x40 MLOAD PUSH3 0x15180 DUP2 MSTORE RETURN JUMPDEST CALLVALUE PUSH2 0x19A JUMPI PUSH1 0x0 CALLDATASIZE PUSH1 0x3 NOT ADD SLT PUSH2 0x19A JUMPI PUSH1 0x40 MLOAD PUSH1 0x80 DUP2 ADD DUP2 DUP2 LT PUSH1 0x1 PUSH1 0x1 PUSH1 0x40 SHL SUB DUP3 GT OR PUSH2 0x6E7 JUMPI PUSH1 0x40 MSTORE PUSH1 0x57 DUP2 MSTORE PUSH1 0x20 SWAP1 PUSH32 0x3C7376672077696474683D2236303022206865696768743D2236303022207669 DUP3 DUP3 ADD MSTORE PUSH32 0x6577426F783D2230203020363030203630302220786D6C6E733D22687474703A PUSH1 0x40 DUP3 ADD MSTORE PUSH23 0x1797BBBBBB973B999737B933979918181817B9BB33911F PUSH1 0x49 SHL PUSH1 0x60 DUP3 ADD MSTORE SWAP1 PUSH1 0x0 JUMPDEST PUSH1 0x40 DUP2 LT PUSH2 0x69D JUMPI POP PUSH2 0x689 PUSH1 0x26 PUSH1 0x40 MLOAD DUP5 PUSH2 0x66B DUP3 SWAP7 MLOAD DUP1 SWAP3 DUP8 DUP1 DUP7 ADD SWAP2 ADD PUSH2 0x1AB9 JUMP JUMPDEST DUP2 ADD PUSH6 0x1E17B9BB339F PUSH1 0xD1 SHL DUP6 DUP3 ADD MSTORE SUB PUSH1 0x6 DUP2 ADD DUP6 MSTORE ADD DUP4 PUSH2 0x1BBE JUMP JUMPDEST PUSH2 0x30E PUSH1 0x40 MLOAD SWAP3 DUP3 DUP5 SWAP4 DUP5 MSTORE DUP4 ADD SWAP1 PUSH2 0x1ADC JUMP JUMPDEST SWAP2 DUP2 PUSH2 0x6DC PUSH2 0x6E2 SWAP3 PUSH2 0x6CE PUSH1 0x40 MLOAD SWAP4 DUP3 PUSH2 0x6C1 DUP7 SWAP5 MLOAD DUP1 SWAP3 DUP5 DUP1 DUP9 ADD SWAP2 ADD PUSH2 0x1AB9 JUMP JUMPDEST DUP4 ADD ADD DUP8 PUSH2 0x1005 ADD PUSH2 0x2E0D JUMP JUMPDEST SUB PUSH1 0x1F NOT DUP2 ADD DUP4 MSTORE DUP3 PUSH2 0x1BBE JUMP JUMPDEST SWAP3 PUSH2 0x1DB1 JUMP JUMPDEST PUSH2 0x646 JUMP JUMPDEST PUSH4 0x4E487B71 PUSH1 0xE0 SHL PUSH1 0x0 MSTORE PUSH1 0x41 PUSH1 0x4 MSTORE PUSH1 0x24 PUSH1 0x0 REVERT JUMPDEST CALLVALUE PUSH2 0x19A JUMPI PUSH1 0x60 CALLDATASIZE PUSH1 0x3 NOT ADD SLT PUSH2 0x19A JUMPI PUSH1 0x4 CALLDATALOAD PUSH1 0x24 CALLDATALOAD SWAP1 PUSH2 0x72A PUSH1 0x1 DUP1 PUSH1 0xA0 SHL SUB PUSH1 0x0 SLOAD AND CALLER EQ PUSH2 0x24E3 JUMP JUMPDEST DUP1 PUSH1 0x0 MSTORE PUSH1 0x20 SWAP1 PUSH1 0x4 DUP3 MSTORE PUSH1 0x40 PUSH1 0x0 KECCAK256 DUP4 PUSH1 0x0 MSTORE DUP3 MSTORE PUSH1 0xFF PUSH1 0x5 PUSH1 0x40 PUSH1 0x0 KECCAK256 ADD SLOAD AND DUP1 PUSH2 0x7FF JUMPI JUMPDEST ISZERO PUSH2 0x7B9 JUMPI DUP1 PUSH1 0x0 MSTORE PUSH1 0x4 DUP3 MSTORE PUSH1 0x40 PUSH1 0x0 KECCAK256 DUP4 PUSH1 0x0 MSTORE DUP3 MSTORE PUSH1 0x44 CALLDATALOAD PUSH1 0x2 PUSH1 0x40 PUSH1 0x0 KECCAK256 ADD SSTORE DUP1 PUSH1 0x0 MSTORE PUSH1 0x4 DUP3 MSTORE PUSH1 0x40 PUSH1 0x0 KECCAK256 DUP4 PUSH1 0x0 MSTORE DUP3 MSTORE PUSH1 0x5 PUSH1 0x40 PUSH1 0x0 KECCAK256 ADD PUSH1 0xFF NOT DUP2 SLOAD AND SWAP1 SSTORE PUSH1 0x0 MSTORE PUSH1 0x4 DUP2 MSTORE PUSH1 0x40 PUSH1 0x0 KECCAK256 SWAP2 PUSH1 0x0 MSTORE MSTORE PUSH1 0x0 PUSH1 0x6 PUSH1 0x40 DUP3 KECCAK256 ADD SSTORE PUSH1 0x0 DUP1 RETURN JUMPDEST DUP1 PUSH1 0x0 MSTORE PUSH1 0x4 DUP3 MSTORE PUSH1 0x40 PUSH1 0x0 KECCAK256 DUP4 PUSH1 0x0 MSTORE DUP3 MSTORE PUSH1 0x5 PUSH1 0x40 PUSH1 0x0 KECCAK256 ADD PUSH1 0x1 PUSH1 0xFF NOT DUP3 SLOAD AND OR SWAP1 SSTORE PUSH1 0x0 MSTORE PUSH1 0x4 DUP2 MSTORE PUSH1 0x40 PUSH1 0x0 KECCAK256 SWAP2 PUSH1 0x0 MSTORE MSTORE TIMESTAMP PUSH1 0x6 PUSH1 0x40 PUSH1 0x0 KECCAK256 ADD SSTORE PUSH1 0x0 DUP1 RETURN JUMPDEST POP DUP1 PUSH1 0x0 MSTORE PUSH1 0x4 DUP3 MSTORE PUSH1 0x40 PUSH1 0x0 KECCAK256 DUP4 PUSH1 0x0 MSTORE DUP3 MSTORE PUSH1 0x6 PUSH1 0x40 PUSH1 0x0 KECCAK256 ADD SLOAD PUSH3 0x3F480 DUP2 ADD DUP1 SWAP2 GT PUSH2 0x830 JUMPI TIMESTAMP GT PUSH2 0x752 JUMP JUMPDEST PUSH4 0x4E487B71 PUSH1 0xE0 SHL PUSH1 0x0 MSTORE PUSH1 0x11 PUSH1 0x4 MSTORE PUSH1 0x24 PUSH1 0x0 REVERT JUMPDEST CALLVALUE PUSH2 0x19A JUMPI PUSH1 0x60 CALLDATASIZE PUSH1 0x3 NOT ADD SLT PUSH2 0x19A JUMPI PUSH1 0x1 PUSH1 0x1 PUSH1 0x40 SHL SUB PUSH1 0x4 CALLDATALOAD DUP2 DUP2 GT PUSH2 0x19A JUMPI PUSH2 0x877 SWAP1 CALLDATASIZE SWAP1 PUSH1 0x4 ADD PUSH2 0x1C2D JUMP JUMPDEST SWAP1 PUSH1 0x24 SWAP2 DUP3 CALLDATALOAD DUP3 DUP2 GT PUSH2 0x19A JUMPI PUSH2 0x892 SWAP1 CALLDATASIZE SWAP1 PUSH1 0x4 ADD PUSH2 0x1C2D JUMP JUMPDEST SWAP1 PUSH1 0x44 SWAP3 DUP4 CALLDATALOAD SWAP1 DUP2 GT PUSH2 0x19A JUMPI PUSH2 0x8AD SWAP1 CALLDATASIZE SWAP1 PUSH1 0x4 ADD PUSH2 0x1C2D JUMP JUMPDEST SWAP4 DUP2 MLOAD DUP4 MLOAD DUP2 EQ SWAP1 DUP2 PUSH2 0xAB6 JUMPI JUMPDEST POP ISZERO PUSH2 0xA63 JUMPI DUP2 MLOAD SWAP4 PUSH1 0x0 JUMPDEST DUP6 DUP2 LT PUSH2 0x969 JUMPI POP POP POP PUSH2 0x8DB DUP3 DUP3 PUSH2 0x1FCE JUMP JUMPDEST PUSH1 0x0 JUMPDEST DUP4 DUP2 LT PUSH2 0x8E7 JUMPI STOP JUMPDEST DUP1 PUSH2 0x8F4 PUSH1 0x1 SWAP3 DUP8 PUSH2 0x1DC0 JUMP JUMPDEST MLOAD PUSH2 0x8FF DUP3 DUP6 PUSH2 0x1DC0 JUMP JUMPDEST MLOAD PUSH1 0x0 MSTORE PUSH1 0x20 PUSH1 0x4 DUP2 MSTORE PUSH1 0x40 PUSH1 0x0 KECCAK256 SWAP1 PUSH2 0x919 DUP5 DUP9 PUSH2 0x1DC0 JUMP JUMPDEST MLOAD PUSH1 0x0 MSTORE MSTORE PUSH1 0x2 PUSH1 0x40 PUSH1 0x0 KECCAK256 ADD SSTORE PUSH2 0x931 DUP2 DUP5 PUSH2 0x1DC0 JUMP JUMPDEST MLOAD PUSH2 0x93C DUP3 DUP7 PUSH2 0x1DC0 JUMP JUMPDEST MLOAD SWAP1 PUSH32 0x1C362B7FC7C4865E1E7EDE89F240549BBD8B5EE43B51383C9C0392687D6D10EC PUSH1 0x0 DUP1 LOG3 ADD PUSH2 0x8DE JUMP JUMPDEST PUSH2 0x973 DUP2 DUP6 PUSH2 0x1DC0 JUMP JUMPDEST MLOAD PUSH1 0x40 PUSH2 0x980 DUP4 DUP9 PUSH2 0x1DC0 JUMP JUMPDEST MLOAD SWAP2 LT SWAP1 DUP2 ISZERO SWAP2 PUSH2 0xA57 JUMPI JUMPDEST POP PUSH2 0xA19 JUMPI PUSH2 0x99B DUP2 DUP6 PUSH2 0x1DC0 JUMP JUMPDEST MLOAD PUSH1 0x0 MSTORE PUSH1 0x20 PUSH1 0x4 DUP2 MSTORE PUSH1 0x40 PUSH1 0x0 KECCAK256 PUSH2 0x9B4 DUP4 DUP9 PUSH2 0x1DC0 JUMP JUMPDEST MLOAD PUSH1 0x0 MSTORE DUP2 MSTORE CALLER PUSH1 0x1 DUP1 PUSH1 0xA0 SHL SUB PUSH1 0x40 PUSH1 0x0 KECCAK256 SLOAD AND SUB PUSH2 0x9D7 JUMPI POP PUSH1 0x1 ADD PUSH2 0x8C7 JUMP JUMPDEST PUSH1 0x64 SWAP1 PUSH32 0x6F6E6C79206F776E65722063616E2073657420706978656C2076616C75650000 DUP5 PUSH1 0x1E DUP8 PUSH1 0x40 MLOAD SWAP5 PUSH3 0x461BCD PUSH1 0xE5 SHL DUP7 MSTORE PUSH1 0x4 DUP7 ADD MSTORE DUP5 ADD MSTORE DUP3 ADD MSTORE REVERT JUMPDEST PUSH1 0x40 MLOAD PUSH3 0x461BCD PUSH1 0xE5 SHL DUP2 MSTORE PUSH1 0x20 PUSH1 0x4 DUP3 ADD MSTORE PUSH1 0x18 DUP2 DUP6 ADD MSTORE PUSH24 0x4120706978656C206973206F7574206F6620626F756E6473 PUSH1 0x40 SHL DUP2 DUP5 ADD MSTORE PUSH1 0x64 SWAP1 REVERT JUMPDEST PUSH1 0x40 SWAP2 POP LT ISZERO DUP9 PUSH2 0x98C JUMP JUMPDEST PUSH1 0x84 SWAP1 PUSH32 0x696E70757420617272617973206D757374206265206F66207468652073616D65 DUP6 PUSH1 0x27 PUSH1 0x40 MLOAD SWAP4 PUSH3 0x461BCD PUSH1 0xE5 SHL DUP6 MSTORE PUSH1 0x20 PUSH1 0x4 DUP7 ADD MSTORE DUP5 ADD MSTORE DUP3 ADD MSTORE PUSH7 0x40D8CADCCEE8D PUSH1 0xCB SHL PUSH1 0x64 DUP3 ADD MSTORE REVERT JUMPDEST SWAP1 POP DUP6 MLOAD EQ DUP7 PUSH2 0x8BB JUMP JUMPDEST CALLVALUE PUSH2 0x19A JUMPI PUSH1 0x20 DUP1 PUSH1 0x3 NOT CALLDATASIZE ADD SLT PUSH2 0x19A JUMPI PUSH1 0x4 CALLDATALOAD DUP1 ISZERO ISZERO DUP2 SUB PUSH2 0x19A JUMPI PUSH1 0x2 SLOAD PUSH3 0x54600 SWAP1 PUSH3 0x3F480 DUP3 PUSH2 0xAF6 DUP4 TIMESTAMP PUSH2 0x1F27 JUMP JUMPDEST MOD LT PUSH2 0xC7F JUMPI CALLER PUSH1 0x0 MSTORE PUSH2 0x1045 DUP5 MSTORE PUSH1 0x40 PUSH1 0x0 KECCAK256 SLOAD SWAP1 DUP2 ISZERO PUSH2 0xC2A JUMPI DUP3 PUSH2 0xB1D DUP3 TIMESTAMP PUSH2 0x1F27 JUMP JUMPDEST DIV PUSH1 0x0 MSTORE PUSH2 0x1046 SWAP4 DUP5 DUP7 MSTORE PUSH1 0x2 PUSH1 0x40 PUSH1 0x0 KECCAK256 ADD CALLER PUSH1 0x0 MSTORE DUP7 MSTORE PUSH1 0xFF PUSH1 0x40 PUSH1 0x0 KECCAK256 SLOAD AND PUSH2 0xBF5 JUMPI DUP4 SWAP2 SWAP1 ISZERO PUSH2 0xBCA JUMPI POP PUSH2 0xB58 PUSH1 0x2 SLOAD TIMESTAMP PUSH2 0x1F27 JUMP JUMPDEST DIV PUSH1 0x0 MSTORE DUP3 DUP5 MSTORE PUSH2 0xB6F PUSH1 0x40 PUSH1 0x0 KECCAK256 SWAP2 DUP3 SLOAD PUSH2 0x1B5D JUMP JUMPDEST SWAP1 SSTORE JUMPDEST PUSH2 0xB7E PUSH1 0x2 SLOAD TIMESTAMP PUSH2 0x1F27 JUMP JUMPDEST DIV PUSH1 0x0 MSTORE DUP2 MSTORE PUSH1 0x2 PUSH1 0x40 PUSH1 0x0 KECCAK256 ADD SWAP1 CALLER PUSH1 0x0 MSTORE MSTORE PUSH1 0x40 PUSH1 0x0 KECCAK256 PUSH1 0x1 PUSH1 0xFF NOT DUP3 SLOAD AND OR SWAP1 SSTORE CALLER PUSH32 0x7CE969A18BB6B0FBA42C6D9746E7D08EECA4C661809659C91D276456E3153AC0 PUSH1 0x0 DUP1 LOG2 STOP JUMPDEST PUSH2 0xBD4 SWAP1 TIMESTAMP PUSH2 0x1F27 JUMP JUMPDEST DIV PUSH1 0x0 MSTORE DUP3 DUP5 MSTORE PUSH2 0xBEE PUSH1 0x1 PUSH1 0x40 PUSH1 0x0 KECCAK256 ADD SWAP2 DUP3 SLOAD PUSH2 0x1B5D JUMP JUMPDEST SWAP1 SSTORE PUSH2 0xB72 JUMP JUMPDEST PUSH1 0x40 MLOAD PUSH3 0x461BCD PUSH1 0xE5 SHL DUP2 MSTORE PUSH1 0x4 DUP2 ADD DUP8 SWAP1 MSTORE PUSH1 0xD PUSH1 0x24 DUP3 ADD MSTORE PUSH13 0x185B1C9958591E481D9BDD1959 PUSH1 0x9A SHL PUSH1 0x44 DUP3 ADD MSTORE PUSH1 0x64 SWAP1 REVERT JUMPDEST PUSH1 0x40 MLOAD PUSH3 0x461BCD PUSH1 0xE5 SHL DUP2 MSTORE PUSH1 0x4 DUP2 ADD DUP7 SWAP1 MSTORE PUSH1 0x27 PUSH1 0x24 DUP3 ADD MSTORE PUSH32 0x6E6F20706978656C73206F776E6564203D206E6F20766F74657320746F206265 PUSH1 0x44 DUP3 ADD MSTORE PUSH7 0x818D85CDD1959 PUSH1 0xCA SHL PUSH1 0x64 DUP3 ADD MSTORE PUSH1 0x84 SWAP1 REVERT JUMPDEST PUSH1 0x40 MLOAD PUSH3 0x461BCD PUSH1 0xE5 SHL DUP2 MSTORE PUSH1 0x4 DUP2 ADD DUP6 SWAP1 MSTORE PUSH1 0x19 PUSH1 0x24 DUP3 ADD MSTORE PUSH25 0x2B37BA34B7339031BAB93932B73A363C903737BA1037B832B7 PUSH1 0x39 SHL PUSH1 0x44 DUP3 ADD MSTORE PUSH1 0x64 SWAP1 REVERT JUMPDEST CALLVALUE PUSH2 0x19A JUMPI PUSH2 0xCCE CALLDATASIZE PUSH2 0x1C8B JUMP JUMPDEST PUSH2 0xCDB DUP3 MLOAD DUP3 MLOAD EQ PUSH2 0x1F34 JUMP JUMPDEST DUP2 MLOAD SWAP1 PUSH1 0x0 JUMPDEST DUP3 DUP2 LT PUSH2 0xCEA JUMPI STOP JUMPDEST PUSH2 0xCF4 DUP2 DUP6 PUSH2 0x1DC0 JUMP JUMPDEST MLOAD PUSH1 0x40 PUSH2 0xD01 DUP4 DUP6 PUSH2 0x1DC0 JUMP JUMPDEST MLOAD SWAP2 LT SWAP1 DUP2 ISZERO SWAP2 PUSH2 0x13AF JUMPI JUMPDEST POP PUSH2 0x1392 JUMPI PUSH2 0xD1C DUP2 DUP6 PUSH2 0x1DC0 JUMP JUMPDEST MLOAD PUSH1 0x0 MSTORE PUSH1 0x4 PUSH1 0x20 MSTORE PUSH1 0x40 PUSH1 0x0 KECCAK256 PUSH2 0xD34 DUP3 DUP5 PUSH2 0x1DC0 JUMP JUMPDEST MLOAD PUSH1 0x0 MSTORE PUSH1 0x20 MSTORE PUSH1 0x1 DUP1 PUSH1 0xA0 SHL SUB PUSH1 0x40 PUSH1 0x0 KECCAK256 SLOAD AND ISZERO PUSH1 0x0 EQ PUSH2 0xDF2 JUMPI PUSH2 0xD5B DUP2 DUP6 PUSH2 0x1DC0 JUMP JUMPDEST MLOAD PUSH1 0x0 MSTORE PUSH1 0x4 PUSH1 0x20 MSTORE PUSH1 0x40 PUSH1 0x0 KECCAK256 PUSH2 0xD73 DUP3 DUP5 PUSH2 0x1DC0 JUMP JUMPDEST MLOAD PUSH1 0x0 MSTORE PUSH1 0x20 MSTORE PUSH1 0x40 PUSH1 0x0 KECCAK256 CALLER PUSH1 0x1 DUP1 PUSH1 0xA0 SHL SUB NOT DUP3 SLOAD AND OR SWAP1 SSTORE CALLER PUSH1 0x0 MSTORE PUSH2 0x1045 PUSH1 0x20 MSTORE PUSH1 0x40 PUSH1 0x0 KECCAK256 SWAP1 DUP2 SLOAD PUSH1 0x1 DUP2 ADD DUP1 SWAP2 GT PUSH2 0x830 JUMPI PUSH1 0x1 SWAP3 SSTORE JUMPDEST PUSH2 0xDBA DUP2 DUP7 PUSH2 0x1DC0 JUMP JUMPDEST MLOAD PUSH2 0xDC5 DUP3 DUP6 PUSH2 0x1DC0 JUMP JUMPDEST MLOAD SWAP1 PUSH32 0xEE0E9A85D097F632450E6AC08750207C8F039246EE437B10EAF708B397D00AD8 PUSH1 0x0 DUP1 LOG3 ADD PUSH2 0xCE1 JUMP JUMPDEST PUSH2 0xE11 PUSH2 0xDFF DUP3 DUP7 PUSH2 0x1DC0 JUMP JUMPDEST MLOAD PUSH2 0xE0A DUP4 DUP6 PUSH2 0x1DC0 JUMP JUMPDEST MLOAD SWAP1 PUSH2 0x2653 JUMP JUMPDEST PUSH2 0xE1B DUP3 DUP7 PUSH2 0x1DC0 JUMP JUMPDEST MLOAD PUSH1 0x0 MSTORE PUSH1 0x4 PUSH1 0x20 MSTORE PUSH1 0x40 PUSH1 0x0 KECCAK256 PUSH2 0xE33 DUP4 DUP6 PUSH2 0x1DC0 JUMP JUMPDEST MLOAD PUSH1 0x0 MSTORE PUSH1 0x20 MSTORE DUP1 PUSH1 0x2 PUSH1 0x40 PUSH1 0x0 KECCAK256 ADD SLOAD GT PUSH1 0x0 EQ PUSH2 0x11F9 JUMPI PUSH2 0xE56 DUP3 DUP7 PUSH2 0x1DC0 JUMP JUMPDEST MLOAD PUSH1 0x0 MSTORE PUSH1 0x4 PUSH1 0x20 MSTORE PUSH1 0x40 PUSH1 0x0 KECCAK256 PUSH2 0xE6E DUP4 DUP6 PUSH2 0x1DC0 JUMP JUMPDEST MLOAD PUSH1 0x0 MSTORE PUSH1 0x20 MSTORE PUSH2 0xE87 DUP2 PUSH1 0x2 PUSH1 0x40 PUSH1 0x0 KECCAK256 ADD SLOAD PUSH2 0x1F27 JUMP JUMPDEST PUSH1 0x3 SLOAD PUSH1 0x40 MLOAD PUSH4 0x70A08231 PUSH1 0xE0 SHL DUP2 MSTORE CALLER PUSH1 0x4 DUP3 ADD MSTORE PUSH1 0x24 SWAP4 PUSH1 0x1 PUSH1 0x1 PUSH1 0xA0 SHL SUB SWAP1 SWAP3 AND SWAP3 SWAP2 SWAP1 PUSH1 0x20 DUP2 DUP7 DUP2 DUP8 GAS STATICCALL DUP1 ISZERO PUSH2 0x1162 JUMPI PUSH1 0x0 SWAP1 PUSH2 0x11C5 JUMPI JUMPDEST PUSH2 0xF01 SWAP2 POP PUSH2 0xED3 DUP8 DUP12 PUSH2 0x1DC0 JUMP JUMPDEST MLOAD PUSH1 0x0 MSTORE PUSH1 0x4 PUSH1 0x20 MSTORE PUSH1 0x40 PUSH1 0x0 KECCAK256 PUSH2 0xEEB DUP9 DUP11 PUSH2 0x1DC0 JUMP JUMPDEST MLOAD PUSH1 0x0 MSTORE PUSH1 0x20 MSTORE PUSH1 0x2 PUSH1 0x40 PUSH1 0x0 KECCAK256 ADD SLOAD LT PUSH2 0x2433 JUMP JUMPDEST PUSH1 0x40 MLOAD PUSH4 0x6EB1769F PUSH1 0xE1 SHL DUP2 MSTORE CALLER PUSH1 0x4 DUP3 ADD MSTORE ADDRESS PUSH1 0x24 DUP3 ADD MSTORE SWAP3 PUSH1 0x20 DUP5 PUSH1 0x44 DUP2 DUP5 GAS STATICCALL SWAP4 DUP5 ISZERO PUSH2 0x1162 JUMPI DUP10 DUP8 SWAP2 PUSH1 0x0 SWAP7 PUSH2 0x118B JUMPI JUMPDEST POP SWAP2 PUSH2 0xF76 PUSH1 0x0 SWAP7 PUSH2 0xF4D PUSH2 0xFCB SWAP5 PUSH1 0x20 SWAP7 PUSH2 0x1DC0 JUMP JUMPDEST MLOAD DUP9 MSTORE PUSH1 0x4 DUP6 MSTORE PUSH1 0x40 DUP9 KECCAK256 PUSH2 0xF62 DUP12 DUP14 PUSH2 0x1DC0 JUMP JUMPDEST MLOAD DUP10 MSTORE DUP6 MSTORE PUSH1 0x2 PUSH1 0x40 DUP10 KECCAK256 ADD SLOAD GT ISZERO PUSH2 0x248B JUMP JUMPDEST PUSH2 0xF80 DUP9 DUP13 PUSH2 0x1DC0 JUMP JUMPDEST MLOAD DUP7 MSTORE PUSH1 0x4 DUP4 MSTORE PUSH1 0x40 DUP7 KECCAK256 PUSH2 0xF95 DUP10 DUP12 PUSH2 0x1DC0 JUMP JUMPDEST MLOAD DUP8 MSTORE DUP4 MSTORE PUSH1 0x40 DUP1 DUP8 KECCAK256 SLOAD SWAP1 MLOAD PUSH4 0x23B872DD PUSH1 0xE0 SHL DUP1 DUP3 MSTORE SWAP1 SWAP8 SWAP1 SWAP7 DUP9 SWAP5 DUP6 SWAP4 DUP5 SWAP3 SWAP1 PUSH1 0x1 PUSH1 0x1 PUSH1 0xA0 SHL SUB AND CALLER PUSH1 0x4 DUP6 ADD PUSH2 0x1FAC JUMP JUMPDEST SUB SWAP3 GAS CALL SWAP2 DUP3 ISZERO PUSH2 0x1162 JUMPI PUSH2 0x1011 SWAP4 PUSH1 0x20 SWAP4 PUSH2 0x116E JUMPI JUMPDEST POP PUSH1 0x3 SLOAD PUSH1 0x0 DUP1 SLOAD PUSH1 0x40 MLOAD SWAP4 DUP5 MSTORE SWAP3 SWAP6 DUP7 SWAP5 PUSH1 0x1 PUSH1 0x1 PUSH1 0xA0 SHL SUB SWAP4 DUP5 AND SWAP5 DUP7 SWAP5 DUP6 SWAP4 SWAP3 SWAP2 AND CALLER PUSH1 0x4 DUP6 ADD PUSH2 0x1FAC JUMP JUMPDEST SUB SWAP3 GAS CALL DUP1 ISZERO PUSH2 0x1162 JUMPI PUSH2 0x1133 JUMPI JUMPDEST POP PUSH2 0x102B DUP3 DUP7 PUSH2 0x1DC0 JUMP JUMPDEST MLOAD PUSH1 0x0 MSTORE PUSH1 0x4 PUSH1 0x20 MSTORE PUSH1 0x40 PUSH1 0x0 KECCAK256 PUSH2 0x1043 DUP4 DUP6 PUSH2 0x1DC0 JUMP JUMPDEST MLOAD PUSH1 0x0 MSTORE PUSH1 0x20 MSTORE PUSH1 0x1 DUP1 PUSH1 0xA0 SHL SUB PUSH1 0x40 PUSH1 0x0 KECCAK256 SLOAD AND PUSH1 0x0 MSTORE PUSH2 0x1045 DUP1 PUSH1 0x20 MSTORE PUSH1 0x40 PUSH1 0x0 KECCAK256 DUP1 SLOAD SWAP1 PUSH1 0x0 NOT DUP3 ADD SWAP2 DUP3 GT PUSH2 0x111E JUMPI SSTORE CALLER PUSH1 0x0 MSTORE PUSH1 0x20 MSTORE PUSH1 0x40 PUSH1 0x0 KECCAK256 DUP1 SLOAD SWAP2 PUSH1 0x1 DUP4 ADD DUP1 SWAP4 GT PUSH2 0x110A JUMPI POP SSTORE PUSH1 0x1 SWAP1 PUSH2 0x10A0 DUP2 DUP7 PUSH2 0x1DC0 JUMP JUMPDEST MLOAD PUSH1 0x0 MSTORE PUSH1 0x4 PUSH1 0x20 MSTORE PUSH1 0x40 PUSH1 0x0 KECCAK256 PUSH2 0x10B8 DUP3 DUP6 PUSH2 0x1DC0 JUMP JUMPDEST MLOAD PUSH1 0x0 MSTORE PUSH1 0x20 MSTORE PUSH1 0x40 PUSH1 0x0 KECCAK256 CALLER DUP4 DUP1 PUSH1 0xA0 SHL SUB NOT DUP3 SLOAD AND OR SWAP1 SSTORE PUSH2 0x10DC DUP2 DUP7 PUSH2 0x1DC0 JUMP JUMPDEST MLOAD PUSH1 0x0 MSTORE PUSH1 0x4 PUSH1 0x20 MSTORE PUSH1 0x40 PUSH1 0x0 KECCAK256 PUSH2 0x10F4 DUP3 DUP6 PUSH2 0x1DC0 JUMP JUMPDEST MLOAD PUSH1 0x0 MSTORE PUSH1 0x20 MSTORE TIMESTAMP PUSH1 0x4 PUSH1 0x40 PUSH1 0x0 KECCAK256 ADD SSTORE PUSH2 0xDB0 JUMP JUMPDEST PUSH4 0x4E487B71 PUSH1 0xE0 SHL PUSH1 0x0 SWAP1 DUP2 MSTORE PUSH1 0x11 PUSH1 0x4 MSTORE REVERT JUMPDEST DUP4 PUSH4 0x4E487B71 PUSH1 0xE0 SHL PUSH1 0x0 MSTORE PUSH1 0x11 PUSH1 0x4 MSTORE PUSH1 0x0 REVERT JUMPDEST PUSH2 0x1154 SWAP1 PUSH1 0x20 RETURNDATASIZE PUSH1 0x20 GT PUSH2 0x115B JUMPI JUMPDEST PUSH2 0x114C DUP2 DUP4 PUSH2 0x1BBE JUMP JUMPDEST DUP2 ADD SWAP1 PUSH2 0x1F94 JUMP JUMPDEST POP DUP6 PUSH2 0x1020 JUMP JUMPDEST POP RETURNDATASIZE PUSH2 0x1142 JUMP JUMPDEST PUSH1 0x40 MLOAD RETURNDATASIZE PUSH1 0x0 DUP3 RETURNDATACOPY RETURNDATASIZE SWAP1 REVERT JUMPDEST PUSH2 0x1184 SWAP1 DUP5 RETURNDATASIZE DUP7 GT PUSH2 0x115B JUMPI PUSH2 0x114C DUP2 DUP4 PUSH2 0x1BBE JUMP JUMPDEST POP DUP10 PUSH2 0xFE2 JUMP JUMPDEST SWAP6 POP POP POP PUSH1 0x20 DUP5 RETURNDATASIZE PUSH1 0x20 GT PUSH2 0x11BD JUMPI JUMPDEST DUP2 PUSH2 0x11A8 PUSH1 0x20 SWAP4 DUP4 PUSH2 0x1BBE JUMP JUMPDEST DUP2 ADD SUB SLT PUSH2 0x19A JUMPI SWAP3 MLOAD SWAP3 DUP6 DUP10 PUSH2 0xF76 PUSH2 0xF36 JUMP JUMPDEST RETURNDATASIZE SWAP2 POP PUSH2 0x119B JUMP JUMPDEST POP PUSH1 0x20 DUP2 RETURNDATASIZE PUSH1 0x20 GT PUSH2 0x11F1 JUMPI JUMPDEST DUP2 PUSH2 0x11DF PUSH1 0x20 SWAP4 DUP4 PUSH2 0x1BBE JUMP JUMPDEST DUP2 ADD SUB SLT PUSH2 0x19A JUMPI PUSH2 0xF01 SWAP1 MLOAD PUSH2 0xEC4 JUMP JUMPDEST RETURNDATASIZE SWAP2 POP PUSH2 0x11D2 JUMP JUMPDEST POP PUSH1 0x3 SLOAD PUSH1 0x40 MLOAD PUSH4 0x70A08231 PUSH1 0xE0 SHL DUP2 MSTORE CALLER PUSH1 0x4 DUP3 ADD MSTORE PUSH1 0x24 SWAP2 PUSH1 0x1 PUSH1 0x1 PUSH1 0xA0 SHL SUB AND SWAP1 PUSH1 0x20 DUP2 DUP5 DUP2 DUP6 GAS STATICCALL DUP1 ISZERO PUSH2 0x1162 JUMPI PUSH1 0x0 SWAP1 PUSH2 0x135E JUMPI JUMPDEST PUSH2 0x125A SWAP2 POP PUSH2 0x1242 DUP6 DUP10 PUSH2 0x1DC0 JUMP JUMPDEST MLOAD PUSH1 0x0 MSTORE PUSH1 0x4 PUSH1 0x20 MSTORE PUSH1 0x40 PUSH1 0x0 KECCAK256 PUSH2 0xEEB DUP7 DUP9 PUSH2 0x1DC0 JUMP JUMPDEST PUSH1 0x40 MLOAD PUSH4 0x6EB1769F PUSH1 0xE1 SHL DUP2 MSTORE CALLER PUSH1 0x4 DUP3 ADD MSTORE ADDRESS PUSH1 0x24 DUP3 ADD MSTORE PUSH1 0x20 DUP2 PUSH1 0x44 DUP2 DUP6 GAS STATICCALL SWAP1 DUP2 ISZERO PUSH2 0x1162 JUMPI PUSH1 0x0 SWAP2 PUSH2 0x132A JUMPI JUMPDEST POP PUSH2 0x1011 SWAP2 PUSH2 0x12CD PUSH1 0x20 SWAP3 PUSH2 0x12A0 DUP8 DUP12 PUSH2 0x1DC0 JUMP JUMPDEST MLOAD PUSH1 0x0 MSTORE PUSH1 0x4 DUP5 MSTORE PUSH1 0x40 PUSH1 0x0 KECCAK256 PUSH2 0x12B7 DUP9 DUP11 PUSH2 0x1DC0 JUMP JUMPDEST MLOAD PUSH1 0x0 MSTORE DUP5 MSTORE PUSH1 0x2 PUSH1 0x40 PUSH1 0x0 KECCAK256 ADD SLOAD GT ISZERO PUSH2 0x248B JUMP JUMPDEST PUSH1 0x0 SLOAD PUSH1 0x1 PUSH1 0x1 PUSH1 0xA0 SHL SUB AND SWAP1 PUSH2 0x12E4 DUP7 DUP11 PUSH2 0x1DC0 JUMP JUMPDEST MLOAD PUSH1 0x0 MSTORE PUSH1 0x4 DUP4 MSTORE PUSH1 0x40 PUSH1 0x0 KECCAK256 PUSH2 0x12FB DUP8 DUP10 PUSH2 0x1DC0 JUMP JUMPDEST MLOAD PUSH1 0x0 MSTORE DUP4 MSTORE PUSH1 0x2 PUSH1 0x40 PUSH1 0x0 KECCAK256 ADD SLOAD SWAP2 PUSH1 0x0 PUSH1 0x40 MLOAD DUP1 SWAP7 DUP2 SWAP6 DUP3 SWAP5 PUSH4 0x23B872DD PUSH1 0xE0 SHL DUP5 MSTORE CALLER PUSH1 0x4 DUP6 ADD PUSH2 0x1FAC JUMP JUMPDEST SWAP1 POP PUSH1 0x20 DUP2 RETURNDATASIZE PUSH1 0x20 GT PUSH2 0x1356 JUMPI JUMPDEST DUP2 PUSH2 0x1345 PUSH1 0x20 SWAP4 DUP4 PUSH2 0x1BBE JUMP JUMPDEST DUP2 ADD SUB SLT PUSH2 0x19A JUMPI MLOAD PUSH2 0x1011 PUSH2 0x128B JUMP JUMPDEST RETURNDATASIZE SWAP2 POP PUSH2 0x1338 JUMP JUMPDEST POP PUSH1 0x20 DUP2 RETURNDATASIZE PUSH1 0x20 GT PUSH2 0x138A JUMPI JUMPDEST DUP2 PUSH2 0x1378 PUSH1 0x20 SWAP4 DUP4 PUSH2 0x1BBE JUMP JUMPDEST DUP2 ADD SUB SLT PUSH2 0x19A JUMPI PUSH2 0x125A SWAP1 MLOAD PUSH2 0x1233 JUMP JUMPDEST RETURNDATASIZE SWAP2 POP PUSH2 0x136B JUMP JUMPDEST PUSH1 0x40 MLOAD PUSH3 0x461BCD PUSH1 0xE5 SHL DUP2 MSTORE DUP1 PUSH2 0x13AB PUSH1 0x4 DUP3 ADD PUSH2 0x1DD4 JUMP JUMPDEST SUB SWAP1 REVERT JUMPDEST PUSH1 0x40 SWAP2 POP LT ISZERO DUP6 PUSH2 0xD0D JUMP JUMPDEST PUSH2 0x1B6A JUMP JUMPDEST PUSH2 0x1C11 JUMP JUMPDEST CALLVALUE PUSH2 0x19A JUMPI PUSH1 0x20 CALLDATASIZE PUSH1 0x3 NOT ADD SLT PUSH2 0x19A JUMPI PUSH1 0x4 CALLDATALOAD PUSH1 0x1 PUSH1 0x1 PUSH1 0xA0 SHL SUB DUP2 DUP2 AND SWAP2 DUP3 SWAP1 SUB PUSH2 0x19A JUMPI PUSH2 0x13FB SWAP1 PUSH1 0x0 SLOAD AND CALLER EQ PUSH2 0x24E3 JUMP JUMPDEST PUSH1 0x3 DUP1 SLOAD PUSH1 0x1 PUSH1 0x1 PUSH1 0xA0 SHL SUB NOT AND SWAP2 SWAP1 SWAP2 OR SWAP1 SSTORE STOP JUMPDEST CALLVALUE PUSH2 0x19A JUMPI PUSH1 0x0 CALLDATASIZE PUSH1 0x3 NOT ADD SLT PUSH2 0x19A JUMPI PUSH1 0x20 PUSH3 0x3F480 PUSH3 0x54600 PUSH2 0x1438 PUSH1 0x2 SLOAD TIMESTAMP PUSH2 0x1F27 JUMP JUMPDEST MOD LT PUSH1 0x40 MLOAD SWAP1 DUP2 MSTORE RETURN JUMPDEST CALLVALUE PUSH2 0x19A JUMPI PUSH1 0x0 CALLDATASIZE PUSH1 0x3 NOT ADD SLT PUSH2 0x19A JUMPI PUSH1 0x0 SLOAD PUSH1 0x40 MLOAD PUSH1 0x1 PUSH1 0x1 PUSH1 0xA0 SHL SUB SWAP1 SWAP2 AND DUP2 MSTORE PUSH1 0x20 SWAP1 RETURN JUMPDEST CALLVALUE PUSH2 0x19A JUMPI PUSH1 0x20 CALLDATASIZE PUSH1 0x3 NOT ADD SLT PUSH2 0x19A JUMPI PUSH1 0x4 CALLDATALOAD PUSH1 0x1 PUSH1 0x1 PUSH1 0x40 SHL SUB DUP2 GT PUSH2 0x19A JUMPI CALLDATASIZE PUSH1 0x23 DUP3 ADD SLT ISZERO PUSH2 0x19A JUMPI DUP1 PUSH1 0x4 ADD CALLDATALOAD PUSH2 0x14A6 DUP2 PUSH2 0x1BDF JUMP JUMPDEST SWAP2 PUSH2 0x14B4 PUSH1 0x40 MLOAD SWAP4 DUP5 PUSH2 0x1BBE JUMP JUMPDEST DUP2 DUP4 MSTORE PUSH1 0x24 PUSH1 0x20 DUP5 ADD SWAP3 PUSH1 0x5 SHL DUP3 ADD ADD SWAP1 CALLDATASIZE DUP3 GT PUSH2 0x19A JUMPI PUSH1 0x24 DUP2 ADD SWAP3 JUMPDEST DUP3 DUP5 LT PUSH2 0x1953 JUMPI DUP5 PUSH3 0x3F480 PUSH3 0x54600 PUSH2 0x14EE PUSH1 0x2 SLOAD TIMESTAMP PUSH2 0x1F27 JUMP JUMPDEST MOD LT ISZERO PUSH2 0x1903 JUMPI DUP1 MLOAD PUSH1 0x40 MLOAD SWAP2 PUSH2 0x820 DUP4 ADD DUP4 DUP2 LT PUSH1 0x1 PUSH1 0x1 PUSH1 0x40 SHL SUB DUP3 GT OR PUSH2 0x6E7 JUMPI PUSH1 0x40 MSTORE PUSH1 0x40 DUP4 MSTORE PUSH2 0x800 CALLDATASIZE PUSH1 0x20 DUP6 ADD CALLDATACOPY PUSH1 0x0 JUMPDEST DUP3 DUP2 LT PUSH2 0x15FF JUMPI DUP4 PUSH1 0x0 JUMPDEST PUSH1 0x40 DUP2 LT PUSH2 0x153A JUMPI STOP JUMPDEST PUSH2 0x1544 DUP2 DUP4 PUSH2 0x1DC0 JUMP JUMPDEST MLOAD PUSH2 0x1552 JUMPI JUMPDEST PUSH1 0x1 ADD PUSH2 0x1530 JUMP JUMPDEST PUSH1 0x40 MLOAD PUSH2 0x155E DUP2 PUSH2 0x1BA3 JUMP JUMPDEST PUSH1 0x0 DUP2 MSTORE PUSH1 0x6 DUP3 SWAP1 SHL PUSH1 0x1 PUSH1 0x1 PUSH1 0xFA SHL SUB DUP4 AND DUP4 SUB PUSH2 0x830 JUMPI DUP1 PUSH1 0x40 ADD SWAP1 DUP2 PUSH1 0x40 GT PUSH2 0x830 JUMPI SWAP1 JUMPDEST DUP1 DUP3 LT PUSH2 0x15A7 JUMPI POP POP SWAP1 PUSH2 0x15A0 PUSH1 0x1 SWAP3 DUP3 PUSH2 0x1005 ADD PUSH2 0x1E05 JUMP JUMPDEST SWAP1 POP PUSH2 0x154A JUMP JUMPDEST SWAP1 SWAP2 PUSH2 0x1000 DUP4 LT ISZERO PUSH2 0x15E9 JUMPI PUSH1 0x20 PUSH2 0x6DC PUSH2 0x15E3 SWAP3 PUSH2 0x6CE PUSH1 0x40 MLOAD SWAP4 DUP3 PUSH2 0x15D7 DUP7 SWAP5 MLOAD DUP1 SWAP3 DUP5 DUP1 DUP9 ADD SWAP2 ADD PUSH2 0x1AB9 JUMP JUMPDEST DUP4 ADD ADD DUP8 PUSH1 0x5 ADD PUSH2 0x2E0D JUMP JUMPDEST SWAP1 PUSH2 0x1586 JUMP JUMPDEST PUSH4 0x4E487B71 PUSH1 0xE0 SHL PUSH1 0x0 MSTORE PUSH1 0x32 PUSH1 0x4 MSTORE PUSH1 0x24 PUSH1 0x0 REVERT JUMPDEST PUSH2 0x1609 DUP2 DUP4 PUSH2 0x1DC0 JUMP JUMPDEST MLOAD SWAP1 DUP2 MLOAD DUP3 ADD SWAP2 DUP1 PUSH1 0x20 DUP5 ADD SWAP4 PUSH1 0x80 SWAP2 DUP3 SWAP2 SUB SLT PUSH2 0x19A JUMPI PUSH1 0x20 DUP3 ADD MLOAD SWAP4 PUSH1 0x40 DUP4 ADD MLOAD SWAP3 PUSH1 0x60 DUP2 ADD MLOAD SWAP3 DUP2 ADD MLOAD SWAP1 PUSH1 0x1 PUSH1 0x1 PUSH1 0x40 SHL SUB DUP3 GT PUSH2 0x19A JUMPI ADD DUP2 PUSH1 0x3F DUP3 ADD SLT ISZERO PUSH2 0x19A JUMPI PUSH1 0x20 DUP2 ADD MLOAD PUSH2 0x165F DUP2 PUSH2 0x1BF6 JUMP JUMPDEST SWAP3 PUSH2 0x166D PUSH1 0x40 MLOAD SWAP5 DUP6 PUSH2 0x1BBE JUMP JUMPDEST DUP2 DUP5 MSTORE PUSH1 0x40 DUP3 DUP5 ADD ADD GT PUSH2 0x19A JUMPI PUSH2 0x168C SWAP2 PUSH1 0x40 PUSH1 0x20 DUP6 ADD SWAP2 ADD PUSH2 0x1AB9 JUMP JUMPDEST PUSH1 0x40 DUP6 LT DUP1 ISZERO SWAP1 PUSH2 0x18F8 JUMPI JUMPDEST PUSH2 0x1392 JUMPI PUSH1 0xA DUP3 LT ISZERO PUSH2 0x18BA JUMPI DUP5 PUSH1 0x0 MSTORE PUSH1 0x4 PUSH1 0x20 MSTORE PUSH1 0x40 PUSH1 0x0 KECCAK256 DUP4 PUSH1 0x0 MSTORE PUSH1 0x20 MSTORE PUSH1 0xFF PUSH1 0x5 PUSH1 0x40 PUSH1 0x0 KECCAK256 ADD SLOAD AND PUSH2 0x185D JUMPI DUP5 PUSH1 0x0 MSTORE PUSH1 0x4 PUSH1 0x20 MSTORE PUSH1 0x40 PUSH1 0x0 KECCAK256 DUP4 PUSH1 0x0 MSTORE PUSH1 0x20 MSTORE CALLER PUSH1 0x1 DUP1 PUSH1 0xA0 SHL SUB PUSH1 0x40 PUSH1 0x0 KECCAK256 SLOAD AND EQ PUSH2 0x1706 JUMPI JUMPDEST POP POP POP PUSH2 0x1701 SWAP2 POP PUSH2 0x1DB1 JUMP JUMPDEST PUSH2 0x1525 JUMP JUMPDEST PUSH2 0x172C SWAP1 DUP6 PUSH1 0x0 MSTORE PUSH1 0x4 PUSH1 0x20 MSTORE PUSH1 0x40 PUSH1 0x0 KECCAK256 DUP5 PUSH1 0x0 MSTORE PUSH1 0x20 MSTORE PUSH1 0x3 PUSH1 0x40 PUSH1 0x0 KECCAK256 ADD PUSH2 0x1E05 JUMP JUMPDEST DUP4 PUSH1 0x0 MSTORE PUSH1 0x4 PUSH1 0x20 MSTORE PUSH1 0x40 PUSH1 0x0 KECCAK256 DUP3 PUSH1 0x0 MSTORE PUSH1 0x20 MSTORE PUSH1 0x1 PUSH1 0x40 PUSH1 0x0 KECCAK256 ADD SSTORE DUP3 DUP2 PUSH2 0x181B JUMPI JUMPDEST DUP1 PUSH1 0x0 MSTORE PUSH1 0x4 PUSH1 0x20 MSTORE PUSH1 0x40 PUSH1 0x0 KECCAK256 DUP3 PUSH1 0x0 MSTORE PUSH1 0x20 MSTORE PUSH1 0x1 PUSH1 0x40 PUSH1 0x0 KECCAK256 ADD SLOAD PUSH1 0x9 SWAP1 DUP3 DUP3 DUP2 MUL DIV DUP3 EQ DUP4 ISZERO OR ISZERO PUSH2 0x830 JUMPI DUP4 DUP3 DUP2 MUL DIV DUP3 EQ DUP5 ISZERO OR ISZERO PUSH2 0x830 JUMPI PUSH2 0x17C6 SWAP2 DUP4 PUSH1 0x0 MSTORE PUSH1 0x4 PUSH1 0x20 MSTORE PUSH1 0x40 PUSH1 0x0 KECCAK256 DUP6 PUSH1 0x0 MSTORE PUSH1 0x20 MSTORE PUSH2 0x17B9 PUSH1 0x3 PUSH1 0x40 PUSH1 0x0 KECCAK256 ADD PUSH2 0x1D0B JUMP JUMPDEST SWAP2 DUP2 DUP7 MUL SWAP2 DUP6 MUL SWAP1 PUSH2 0x26B0 JUMP JUMPDEST SWAP4 PUSH2 0x1000 DUP2 LT ISZERO PUSH2 0x15E9 JUMPI PUSH2 0x1701 SWAP5 PUSH2 0x17E1 SWAP2 PUSH1 0x5 ADD PUSH2 0x1E05 JUMP JUMPDEST PUSH1 0x1 PUSH2 0x17ED DUP4 DUP10 PUSH2 0x1DC0 JUMP JUMPDEST MSTORE PUSH32 0xA9A418DA632D42C446A125F10B007831BA0E348168B6B2474A2383AC5DF4C280 PUSH1 0x0 DUP1 LOG3 DUP6 DUP1 DUP1 PUSH2 0x16F4 JUMP JUMPDEST SWAP3 POP PUSH2 0x1827 DUP2 DUP5 PUSH2 0x1F14 JUMP JUMPDEST PUSH1 0x40 DUP5 DUP2 SUB GT PUSH2 0x830 JUMPI DUP2 PUSH1 0x0 NOT DUP2 ADD GT PUSH2 0x830 JUMPI PUSH2 0x1857 SWAP1 PUSH2 0x1851 PUSH1 0x0 NOT DUP5 ADD DUP7 PUSH1 0x40 SUB PUSH2 0x1F14 JUMP JUMPDEST SWAP1 PUSH2 0x1B5D JUMP JUMPDEST SWAP3 PUSH2 0x1751 JUMP JUMPDEST PUSH1 0x40 MLOAD PUSH3 0x461BCD PUSH1 0xE5 SHL DUP2 MSTORE PUSH1 0x20 PUSH1 0x4 DUP3 ADD MSTORE PUSH1 0x2F PUSH1 0x24 DUP3 ADD MSTORE PUSH32 0x6F776E6572207761732061736B656420746F20666972737420736574746C6520 PUSH1 0x44 DUP3 ADD MSTORE PUSH15 0x1C9BDE585B1D1E481C185E5B595B9D PUSH1 0x8A SHL PUSH1 0x64 DUP3 ADD MSTORE PUSH1 0x84 SWAP1 REVERT JUMPDEST PUSH1 0x40 MLOAD PUSH3 0x461BCD PUSH1 0xE5 SHL DUP2 MSTORE PUSH1 0x20 PUSH1 0x4 DUP3 ADD MSTORE PUSH1 0x16 PUSH1 0x24 DUP3 ADD MSTORE PUSH22 0x7368617065204944206E6F7420617661696C61626C65 PUSH1 0x50 SHL PUSH1 0x44 DUP3 ADD MSTORE PUSH1 0x64 SWAP1 REVERT JUMPDEST POP PUSH1 0x40 DUP4 LT ISZERO PUSH2 0x1698 JUMP JUMPDEST PUSH1 0x40 MLOAD PUSH3 0x461BCD PUSH1 0xE5 SHL DUP2 MSTORE PUSH1 0x20 PUSH1 0x4 DUP3 ADD MSTORE PUSH1 0x22 PUSH1 0x24 DUP3 ADD MSTORE PUSH32 0x417274697374696320706572696F642063757272656E746C79206E6F74206F70 PUSH1 0x44 DUP3 ADD MSTORE PUSH2 0x32B7 PUSH1 0xF1 SHL PUSH1 0x64 DUP3 ADD MSTORE PUSH1 0x84 SWAP1 REVERT JUMPDEST DUP4 CALLDATALOAD PUSH1 0x1 PUSH1 0x1 PUSH1 0x40 SHL SUB DUP2 GT PUSH2 0x19A JUMPI DUP3 ADD SWAP1 CALLDATASIZE PUSH1 0x43 DUP4 ADD SLT ISZERO PUSH2 0x19A JUMPI PUSH1 0x24 DUP3 ADD CALLDATALOAD SWAP1 PUSH2 0x1980 DUP3 PUSH2 0x1BF6 JUMP JUMPDEST PUSH2 0x198D PUSH1 0x40 MLOAD SWAP2 DUP3 PUSH2 0x1BBE JUMP JUMPDEST DUP3 DUP2 MSTORE PUSH1 0x44 SWAP4 CALLDATASIZE DUP6 DUP6 DUP4 ADD ADD GT PUSH2 0x19A JUMPI PUSH1 0x20 DUP5 DUP2 SWAP7 SWAP6 DUP3 SWAP7 PUSH1 0x0 SWAP5 ADD DUP4 DUP7 ADD CALLDATACOPY DUP4 ADD ADD MSTORE DUP2 MSTORE ADD SWAP4 ADD SWAP3 PUSH2 0x14D2 JUMP JUMPDEST CALLVALUE PUSH2 0x19A JUMPI PUSH1 0x20 CALLDATASIZE PUSH1 0x3 NOT ADD SLT PUSH2 0x19A JUMPI PUSH1 0x4 CALLDATALOAD PUSH1 0x0 MSTORE PUSH2 0x1046 PUSH1 0x20 MSTORE PUSH1 0x40 DUP1 PUSH1 0x0 KECCAK256 PUSH1 0x1 DUP2 SLOAD SWAP2 ADD SLOAD DUP3 MLOAD SWAP2 DUP3 MSTORE PUSH1 0x20 DUP3 ADD MSTORE RETURN JUMPDEST CALLVALUE PUSH2 0x19A JUMPI PUSH1 0x0 CALLDATASIZE PUSH1 0x3 NOT ADD SLT PUSH2 0x19A JUMPI PUSH1 0x20 PUSH1 0x40 MLOAD PUSH3 0x54600 DUP2 MSTORE RETURN JUMPDEST CALLVALUE PUSH2 0x19A JUMPI PUSH1 0x20 CALLDATASIZE PUSH1 0x3 NOT ADD SLT PUSH2 0x19A JUMPI PUSH1 0x4 CALLDATALOAD PUSH1 0x1 PUSH1 0x1 PUSH1 0xA0 SHL SUB DUP2 AND SWAP1 DUP2 SWAP1 SUB PUSH2 0x19A JUMPI PUSH3 0x54600 PUSH2 0x1A47 PUSH1 0x2 SLOAD TIMESTAMP PUSH2 0x1F27 JUMP JUMPDEST DIV PUSH1 0x0 MSTORE PUSH2 0x1046 PUSH1 0x20 MSTORE PUSH1 0x2 PUSH1 0x40 PUSH1 0x0 KECCAK256 ADD SWAP1 PUSH1 0x0 MSTORE PUSH1 0x20 MSTORE PUSH1 0x20 PUSH1 0xFF PUSH1 0x40 PUSH1 0x0 KECCAK256 SLOAD AND PUSH1 0x40 MLOAD SWAP1 ISZERO ISZERO DUP2 MSTORE RETURN JUMPDEST CALLVALUE PUSH2 0x19A JUMPI PUSH2 0x30E PUSH2 0x1A8F PUSH2 0x1A89 CALLDATASIZE PUSH2 0x1AA3 JUMP JUMPDEST SWAP1 PUSH2 0x257C JUMP JUMPDEST PUSH1 0x40 MLOAD SWAP2 DUP3 SWAP2 PUSH1 0x20 DUP4 MSTORE PUSH1 0x20 DUP4 ADD SWAP1 PUSH2 0x1B01 JUMP JUMPDEST PUSH1 0x40 SWAP1 PUSH1 0x3 NOT ADD SLT PUSH2 0x19A JUMPI PUSH1 0x4 CALLDATALOAD SWAP1 PUSH1 0x24 CALLDATALOAD SWAP1 JUMP JUMPDEST PUSH1 0x0 JUMPDEST DUP4 DUP2 LT PUSH2 0x1ACC JUMPI POP POP PUSH1 0x0 SWAP2 ADD MSTORE JUMP JUMPDEST DUP2 DUP2 ADD MLOAD DUP4 DUP3 ADD MSTORE PUSH1 0x20 ADD PUSH2 0x1ABC JUMP JUMPDEST SWAP1 PUSH1 0x20 SWAP2 PUSH2 0x1AF5 DUP2 MLOAD DUP1 SWAP3 DUP2 DUP6 MSTORE DUP6 DUP1 DUP7 ADD SWAP2 ADD PUSH2 0x1AB9 JUMP JUMPDEST PUSH1 0x1F ADD PUSH1 0x1F NOT AND ADD ADD SWAP1 JUMP JUMPDEST SWAP1 PUSH1 0x1 DUP1 PUSH1 0xA0 SHL SUB DUP3 MLOAD AND DUP2 MSTORE PUSH1 0x20 DUP3 ADD MLOAD PUSH1 0x20 DUP3 ADD MSTORE PUSH1 0x40 DUP3 ADD MLOAD PUSH1 0x40 DUP3 ADD MSTORE PUSH1 0xC0 DUP1 PUSH2 0x1B3E PUSH1 0x60 DUP6 ADD MLOAD PUSH1 0xE0 PUSH1 0x60 DUP7 ADD MSTORE PUSH1 0xE0 DUP6 ADD SWAP1 PUSH2 0x1ADC JUMP JUMPDEST SWAP4 PUSH1 0x80 DUP2 ADD MLOAD PUSH1 0x80 DUP6 ADD MSTORE PUSH1 0xA0 DUP2 ADD MLOAD ISZERO ISZERO PUSH1 0xA0 DUP6 ADD MSTORE ADD MLOAD SWAP2 ADD MSTORE SWAP1 JUMP JUMPDEST SWAP2 SWAP1 DUP3 ADD DUP1 SWAP3 GT PUSH2 0x830 JUMPI JUMP JUMPDEST CALLVALUE PUSH2 0x19A JUMPI PUSH1 0x0 CALLDATASIZE PUSH1 0x3 NOT ADD SLT PUSH2 0x19A JUMPI PUSH1 0x20 PUSH1 0x40 MLOAD PUSH3 0x3F480 DUP2 MSTORE RETURN JUMPDEST PUSH1 0xE0 DUP2 ADD SWAP1 DUP2 LT PUSH1 0x1 PUSH1 0x1 PUSH1 0x40 SHL SUB DUP3 GT OR PUSH2 0x6E7 JUMPI PUSH1 0x40 MSTORE JUMP JUMPDEST PUSH1 0x20 DUP2 ADD SWAP1 DUP2 LT PUSH1 0x1 PUSH1 0x1 PUSH1 0x40 SHL SUB DUP3 GT OR PUSH2 0x6E7 JUMPI PUSH1 0x40 MSTORE JUMP JUMPDEST SWAP1 PUSH1 0x1F DUP1 NOT SWAP2 ADD AND DUP2 ADD SWAP1 DUP2 LT PUSH1 0x1 PUSH1 0x1 PUSH1 0x40 SHL SUB DUP3 GT OR PUSH2 0x6E7 JUMPI PUSH1 0x40 MSTORE JUMP JUMPDEST PUSH1 0x1 PUSH1 0x1 PUSH1 0x40 SHL SUB DUP2 GT PUSH2 0x6E7 JUMPI PUSH1 0x5 SHL PUSH1 0x20 ADD SWAP1 JUMP JUMPDEST PUSH1 0x1 PUSH1 0x1 PUSH1 0x40 SHL SUB DUP2 GT PUSH2 0x6E7 JUMPI PUSH1 0x1F ADD PUSH1 0x1F NOT AND PUSH1 0x20 ADD SWAP1 JUMP JUMPDEST CALLVALUE PUSH2 0x19A JUMPI PUSH1 0x0 CALLDATASIZE PUSH1 0x3 NOT ADD SLT PUSH2 0x19A JUMPI PUSH1 0x20 PUSH1 0x40 MLOAD PUSH1 0x40 DUP2 MSTORE RETURN JUMPDEST DUP2 PUSH1 0x1F DUP3 ADD SLT ISZERO PUSH2 0x19A JUMPI DUP1 CALLDATALOAD SWAP2 PUSH2 0x1C44 DUP4 PUSH2 0x1BDF JUMP JUMPDEST SWAP3 PUSH2 0x1C52 PUSH1 0x40 MLOAD SWAP5 DUP6 PUSH2 0x1BBE JUMP JUMPDEST DUP1 DUP5 MSTORE PUSH1 0x20 SWAP3 DUP4 DUP1 DUP7 ADD SWAP3 PUSH1 0x5 SHL DUP3 ADD ADD SWAP3 DUP4 GT PUSH2 0x19A JUMPI DUP4 ADD SWAP1 JUMPDEST DUP3 DUP3 LT PUSH2 0x1C7C JUMPI POP POP POP POP SWAP1 JUMP JUMPDEST DUP2 CALLDATALOAD DUP2 MSTORE SWAP1 DUP4 ADD SWAP1 DUP4 ADD PUSH2 0x1C6E JUMP JUMPDEST SWAP1 PUSH1 0x40 PUSH1 0x3 NOT DUP4 ADD SLT PUSH2 0x19A JUMPI PUSH1 0x1 PUSH1 0x1 PUSH1 0x40 SHL SUB PUSH1 0x4 CALLDATALOAD DUP2 DUP2 GT PUSH2 0x19A JUMPI DUP4 PUSH2 0x1CB7 SWAP2 PUSH1 0x4 ADD PUSH2 0x1C2D JUMP JUMPDEST SWAP3 PUSH1 0x24 CALLDATALOAD SWAP2 DUP3 GT PUSH2 0x19A JUMPI PUSH2 0x1CCE SWAP2 PUSH1 0x4 ADD PUSH2 0x1C2D JUMP JUMPDEST SWAP1 JUMP JUMPDEST SWAP1 PUSH1 0x1 DUP3 DUP2 SHR SWAP3 AND DUP1 ISZERO PUSH2 0x1D01 JUMPI JUMPDEST PUSH1 0x20 DUP4 LT EQ PUSH2 0x1CEB JUMPI JUMP JUMPDEST PUSH4 0x4E487B71 PUSH1 0xE0 SHL PUSH1 0x0 MSTORE PUSH1 0x22 PUSH1 0x4 MSTORE PUSH1 0x24 PUSH1 0x0 REVERT JUMPDEST SWAP2 PUSH1 0x7F AND SWAP2 PUSH2 0x1CE0 JUMP JUMPDEST SWAP1 PUSH1 0x40 MLOAD SWAP2 DUP3 PUSH1 0x0 DUP3 SLOAD SWAP3 PUSH2 0x1D1F DUP5 PUSH2 0x1CD1 JUMP JUMPDEST SWAP1 DUP2 DUP5 MSTORE PUSH1 0x1 SWAP5 DUP6 DUP2 AND SWAP1 DUP2 PUSH1 0x0 EQ PUSH2 0x1D8E JUMPI POP PUSH1 0x1 EQ PUSH2 0x1D4B JUMPI JUMPDEST POP POP PUSH2 0x1D49 SWAP3 POP SUB DUP4 PUSH2 0x1BBE JUMP JUMPDEST JUMP JUMPDEST SWAP1 SWAP4 SWAP2 POP PUSH1 0x0 MSTORE PUSH1 0x20 SWAP1 DUP2 PUSH1 0x0 KECCAK256 SWAP4 PUSH1 0x0 SWAP2 JUMPDEST DUP2 DUP4 LT PUSH2 0x1D76 JUMPI POP POP PUSH2 0x1D49 SWAP4 POP DUP3 ADD ADD CODESIZE DUP1 PUSH2 0x1D3B JUMP JUMPDEST DUP6 SLOAD DUP9 DUP5 ADD DUP6 ADD MSTORE SWAP5 DUP6 ADD SWAP5 DUP8 SWAP5 POP SWAP2 DUP4 ADD SWAP2 PUSH2 0x1D5E JUMP JUMPDEST SWAP2 POP POP PUSH2 0x1D49 SWAP5 POP PUSH1 0x20 SWAP3 POP PUSH1 0xFF NOT AND DUP3 DUP5 ADD MSTORE ISZERO ISZERO PUSH1 0x5 SHL DUP3 ADD ADD CODESIZE DUP1 PUSH2 0x1D3B JUMP JUMPDEST PUSH1 0x0 NOT DUP2 EQ PUSH2 0x830 JUMPI PUSH1 0x1 ADD SWAP1 JUMP JUMPDEST DUP1 MLOAD DUP3 LT ISZERO PUSH2 0x15E9 JUMPI PUSH1 0x20 SWAP2 PUSH1 0x5 SHL ADD ADD SWAP1 JUMP JUMPDEST PUSH1 0x60 SWAP1 PUSH1 0x20 DUP2 MSTORE PUSH1 0x16 PUSH1 0x20 DUP3 ADD MSTORE PUSH22 0x706978656C206973206F7574206F6620626F756E6473 PUSH1 0x50 SHL PUSH1 0x40 DUP3 ADD MSTORE ADD SWAP1 JUMP JUMPDEST SWAP2 SWAP1 SWAP2 DUP3 MLOAD PUSH1 0x1 PUSH1 0x1 PUSH1 0x40 SHL SUB DUP2 GT PUSH2 0x6E7 JUMPI PUSH2 0x1E22 DUP3 SLOAD PUSH2 0x1CD1 JUMP JUMPDEST PUSH1 0x1F DUP2 GT PUSH2 0x1ECC JUMPI JUMPDEST POP PUSH1 0x20 DUP1 PUSH1 0x1F DUP4 GT PUSH1 0x1 EQ PUSH2 0x1E68 JUMPI POP DUP2 SWAP3 SWAP4 SWAP5 PUSH1 0x0 SWAP3 PUSH2 0x1E5D JUMPI JUMPDEST POP POP DUP2 PUSH1 0x1 SHL SWAP2 PUSH1 0x0 NOT SWAP1 PUSH1 0x3 SHL SHR NOT AND OR SWAP1 SSTORE JUMP JUMPDEST ADD MLOAD SWAP1 POP CODESIZE DUP1 PUSH2 0x1E47 JUMP JUMPDEST SWAP1 PUSH1 0x1F NOT DUP4 AND SWAP6 DUP5 PUSH1 0x0 MSTORE DUP3 PUSH1 0x0 KECCAK256 SWAP3 PUSH1 0x0 SWAP1 JUMPDEST DUP9 DUP3 LT PUSH2 0x1EB4 JUMPI POP POP DUP4 PUSH1 0x1 SWAP6 SWAP7 SWAP8 LT PUSH2 0x1E9B JUMPI JUMPDEST POP POP POP DUP2 SHL ADD SWAP1 SSTORE JUMP JUMPDEST ADD MLOAD PUSH1 0x0 NOT PUSH1 0xF8 DUP5 PUSH1 0x3 SHL AND SHR NOT AND SWAP1 SSTORE CODESIZE DUP1 DUP1 PUSH2 0x1E91 JUMP JUMPDEST DUP1 PUSH1 0x1 DUP6 SWAP7 DUP3 SWAP5 SWAP7 DUP7 ADD MLOAD DUP2 SSTORE ADD SWAP6 ADD SWAP4 ADD SWAP1 PUSH2 0x1E7C JUMP JUMPDEST PUSH1 0x0 DUP4 DUP2 MSTORE PUSH1 0x20 DUP2 KECCAK256 PUSH1 0x1F DUP5 ADD PUSH1 0x5 SHR DUP2 ADD SWAP3 PUSH1 0x20 DUP6 LT PUSH2 0x1F0A JUMPI JUMPDEST PUSH1 0x1F ADD PUSH1 0x5 SHR ADD SWAP2 JUMPDEST DUP3 DUP2 LT PUSH2 0x1EFF JUMPI POP POP PUSH2 0x1E2B JUMP JUMPDEST DUP2 DUP2 SSTORE PUSH1 0x1 ADD PUSH2 0x1EF1 JUMP JUMPDEST SWAP1 SWAP3 POP DUP3 SWAP1 PUSH2 0x1EE8 JUMP JUMPDEST DUP2 DUP2 MUL SWAP3 SWAP2 DUP2 ISZERO SWAP2 DUP5 DIV EQ OR ISZERO PUSH2 0x830 JUMPI JUMP JUMPDEST SWAP2 SWAP1 DUP3 SUB SWAP2 DUP3 GT PUSH2 0x830 JUMPI JUMP JUMPDEST ISZERO PUSH2 0x1F3B JUMPI JUMP JUMPDEST PUSH1 0x40 MLOAD PUSH3 0x461BCD PUSH1 0xE5 SHL DUP2 MSTORE PUSH1 0x20 PUSH1 0x4 DUP3 ADD MSTORE PUSH1 0x2B PUSH1 0x24 DUP3 ADD MSTORE PUSH32 0x7820616E64207920696E7075742061727261797320617265206F662076617269 PUSH1 0x44 DUP3 ADD MSTORE PUSH11 0x6F7573206C656E67746873 PUSH1 0xA8 SHL PUSH1 0x64 DUP3 ADD MSTORE PUSH1 0x84 SWAP1 REVERT JUMPDEST SWAP1 DUP2 PUSH1 0x20 SWAP2 SUB SLT PUSH2 0x19A JUMPI MLOAD DUP1 ISZERO ISZERO DUP2 SUB PUSH2 0x19A JUMPI SWAP1 JUMP JUMPDEST PUSH1 0x1 PUSH1 0x1 PUSH1 0xA0 SHL SUB SWAP2 DUP3 AND DUP2 MSTORE SWAP2 AND PUSH1 0x20 DUP3 ADD MSTORE PUSH1 0x40 DUP2 ADD SWAP2 SWAP1 SWAP2 MSTORE PUSH1 0x60 ADD SWAP1 JUMP JUMPDEST SWAP2 SWAP1 SWAP2 PUSH2 0x1FDE DUP2 MLOAD DUP5 MLOAD EQ PUSH2 0x1F34 JUMP JUMPDEST DUP1 MLOAD PUSH1 0x0 SWAP4 JUMPDEST DUP2 DUP6 LT PUSH2 0x1FF2 JUMPI POP POP POP SWAP1 POP JUMP JUMPDEST PUSH2 0x1FFC DUP6 DUP5 PUSH2 0x1DC0 JUMP JUMPDEST MLOAD SWAP5 PUSH2 0x2008 DUP2 DUP4 PUSH2 0x1DC0 JUMP JUMPDEST MLOAD PUSH1 0x40 DUP1 DUP1 SWAP9 LT SWAP2 DUP3 ISZERO SWAP3 PUSH2 0x2428 JUMPI JUMPDEST POP POP PUSH2 0x2410 JUMPI PUSH2 0x2028 DUP2 DUP6 PUSH2 0x1DC0 JUMP JUMPDEST MLOAD PUSH1 0x0 MSTORE PUSH1 0x4 PUSH1 0x20 DUP2 DUP2 MSTORE DUP8 PUSH1 0x0 KECCAK256 PUSH2 0x2041 DUP5 DUP7 PUSH2 0x1DC0 JUMP JUMPDEST MLOAD PUSH1 0x0 MSTORE DUP2 MSTORE PUSH1 0x1 DUP1 PUSH1 0xA0 SHL SUB CALLER DUP2 DUP11 PUSH1 0x0 KECCAK256 SLOAD AND SUB PUSH2 0x23C2 JUMPI PUSH2 0x2065 DUP5 DUP9 PUSH2 0x1DC0 JUMP JUMPDEST MLOAD PUSH1 0x0 MSTORE DUP3 DUP3 MSTORE DUP9 PUSH1 0x0 KECCAK256 PUSH2 0x207A DUP6 DUP8 PUSH2 0x1DC0 JUMP JUMPDEST MLOAD PUSH1 0x0 MSTORE DUP3 MSTORE TIMESTAMP DUP4 DUP11 PUSH1 0x0 KECCAK256 ADD SLOAD SUB PUSH2 0x20A8 JUMPI JUMPDEST POP POP POP PUSH2 0x209F SWAP2 SWAP3 SWAP4 SWAP5 SWAP6 POP PUSH2 0x1DB1 JUMP JUMPDEST SWAP4 SWAP3 SWAP2 SWAP1 PUSH2 0x1FE4 JUMP JUMPDEST PUSH2 0x20C0 PUSH2 0x20B5 DUP6 DUP10 PUSH2 0x1DC0 JUMP JUMPDEST MLOAD PUSH2 0xE0A DUP7 DUP9 PUSH2 0x1DC0 JUMP JUMPDEST SWAP1 DUP1 PUSH1 0x3 SLOAD AND SWAP1 DUP11 MLOAD PUSH4 0x70A08231 PUSH1 0xE0 SHL DUP2 MSTORE CALLER DUP7 DUP3 ADD MSTORE PUSH1 0x24 SWAP1 DUP6 DUP2 DUP4 DUP2 DUP8 GAS STATICCALL DUP1 ISZERO PUSH2 0x2336 JUMPI DUP6 SWAP2 PUSH1 0x0 SWAP2 PUSH2 0x2392 JUMPI JUMPDEST POP LT PUSH2 0x2341 JUMPI DUP12 MLOAD PUSH4 0x6EB1769F PUSH1 0xE1 SHL DUP2 MSTORE CALLER DUP8 DUP3 ADD SWAP1 DUP2 MSTORE ADDRESS PUSH1 0x20 DUP3 ADD MSTORE DUP7 SWAP1 DUP3 SWAP1 DUP2 SWAP1 PUSH1 0x40 ADD SUB DUP2 DUP8 GAS STATICCALL DUP1 ISZERO PUSH2 0x2336 JUMPI DUP6 SWAP2 PUSH1 0x0 SWAP2 PUSH2 0x2303 JUMPI JUMPDEST POP LT PUSH2 0x22B2 JUMPI POP SWAP2 DUP4 SWAP2 PUSH2 0x215F SWAP12 SWAP4 PUSH1 0x0 SLOAD AND PUSH1 0x0 DUP6 MLOAD DUP1 SWAP15 DUP2 SWAP6 DUP3 SWAP5 PUSH4 0x23B872DD PUSH1 0xE0 SHL DUP5 MSTORE CALLER DUP13 DUP6 ADD PUSH2 0x1FAC JUMP JUMPDEST SUB SWAP3 GAS CALL SWAP9 DUP10 ISZERO PUSH2 0x22A7 JUMPI PUSH2 0x209F SWAP6 SWAP7 SWAP8 SWAP9 SWAP10 PUSH2 0x228A JUMPI JUMPDEST POP PUSH2 0x2182 DUP5 DUP10 PUSH2 0x1DC0 JUMP JUMPDEST MLOAD PUSH1 0x0 MSTORE DUP3 DUP3 MSTORE DUP1 PUSH1 0x0 KECCAK256 PUSH2 0x2197 DUP6 DUP9 PUSH2 0x1DC0 JUMP JUMPDEST MLOAD PUSH1 0x0 MSTORE DUP3 MSTORE TIMESTAMP DUP4 DUP3 PUSH1 0x0 KECCAK256 ADD SSTORE PUSH2 0x21AF DUP5 DUP10 PUSH2 0x1DC0 JUMP JUMPDEST MLOAD PUSH1 0x0 MSTORE DUP3 DUP3 MSTORE DUP1 PUSH1 0x0 KECCAK256 PUSH2 0x21C4 DUP6 DUP9 PUSH2 0x1DC0 JUMP JUMPDEST MLOAD PUSH1 0x0 MSTORE DUP3 MSTORE PUSH1 0x5 SWAP2 PUSH1 0xFF DUP4 DUP4 PUSH1 0x0 KECCAK256 ADD SLOAD AND PUSH2 0x2228 JUMPI JUMPDEST POP POP POP POP PUSH2 0x21EA DUP2 DUP7 PUSH2 0x1DC0 JUMP JUMPDEST MLOAD PUSH2 0x21F5 DUP3 DUP6 PUSH2 0x1DC0 JUMP JUMPDEST MLOAD SWAP1 PUSH32 0xE61AF2269C9AFBDB69EFCE2B15F2A464F8EE6237F105B3D4024F2E824A9F0AF3 PUSH1 0x0 DUP1 LOG3 DUP6 SWAP5 SWAP4 SWAP3 SWAP2 CODESIZE DUP1 PUSH2 0x208E JUMP JUMPDEST PUSH1 0x0 SWAP4 PUSH1 0x6 SWAP4 PUSH2 0x2238 DUP8 DUP13 PUSH2 0x1DC0 JUMP JUMPDEST MLOAD DUP7 MSTORE DUP2 DUP4 MSTORE DUP4 DUP7 KECCAK256 PUSH2 0x224B DUP9 DUP12 PUSH2 0x1DC0 JUMP JUMPDEST MLOAD DUP8 MSTORE DUP4 MSTORE DUP4 DUP7 KECCAK256 ADD DUP1 SLOAD PUSH1 0xFF NOT AND SWAP1 SSTORE PUSH2 0x2266 DUP7 DUP12 PUSH2 0x1DC0 JUMP JUMPDEST MLOAD DUP6 MSTORE DUP2 MSTORE DUP2 DUP5 KECCAK256 SWAP1 PUSH2 0x2279 DUP7 DUP10 PUSH2 0x1DC0 JUMP JUMPDEST MLOAD DUP6 MSTORE MSTORE DUP3 KECCAK256 ADD SSTORE CODESIZE DUP1 DUP1 DUP1 PUSH2 0x21DC JUMP JUMPDEST PUSH2 0x22A0 SWAP1 DUP4 RETURNDATASIZE DUP6 GT PUSH2 0x115B JUMPI PUSH2 0x114C DUP2 DUP4 PUSH2 0x1BBE JUMP JUMPDEST POP CODESIZE PUSH2 0x2177 JUMP JUMPDEST POP MLOAD RETURNDATASIZE PUSH1 0x0 DUP3 RETURNDATACOPY RETURNDATASIZE SWAP1 REVERT JUMPDEST DUP6 PUSH1 0x27 PUSH1 0x84 SWAP3 DUP8 DUP16 MLOAD SWAP4 PUSH3 0x461BCD PUSH1 0xE5 SHL DUP6 MSTORE DUP5 ADD MSTORE DUP3 ADD MSTORE PUSH32 0x696E73756666696369656E7420616C6C6F77616E636520746F2070617920726F PUSH1 0x44 DUP3 ADD MSTORE PUSH7 0x79616C74696573 PUSH1 0xC8 SHL PUSH1 0x64 DUP3 ADD MSTORE REVERT JUMPDEST SWAP2 POP DUP7 DUP3 DUP2 RETURNDATASIZE DUP4 GT PUSH2 0x232F JUMPI JUMPDEST PUSH2 0x231A DUP2 DUP4 PUSH2 0x1BBE JUMP JUMPDEST DUP2 ADD SUB SLT PUSH2 0x232C JUMPI POP DUP5 SWAP1 MLOAD CODESIZE PUSH2 0x212F JUMP JUMPDEST DUP1 REVERT JUMPDEST POP RETURNDATASIZE PUSH2 0x2310 JUMP JUMPDEST DUP14 MLOAD RETURNDATASIZE PUSH1 0x0 DUP3 RETURNDATACOPY RETURNDATASIZE SWAP1 REVERT JUMPDEST DUP6 PUSH1 0x27 PUSH1 0x84 SWAP3 DUP8 DUP16 MLOAD SWAP4 PUSH3 0x461BCD PUSH1 0xE5 SHL DUP6 MSTORE DUP5 ADD MSTORE DUP3 ADD MSTORE PUSH32 0x6E6F742073756666696369656E742062616C616E636520746F2070617920726F PUSH1 0x44 DUP3 ADD MSTORE PUSH7 0x79616C74696573 PUSH1 0xC8 SHL PUSH1 0x64 DUP3 ADD MSTORE REVERT JUMPDEST SWAP2 POP DUP7 DUP3 DUP2 RETURNDATASIZE DUP4 GT PUSH2 0x23BB JUMPI JUMPDEST PUSH2 0x23A9 DUP2 DUP4 PUSH2 0x1BBE JUMP JUMPDEST DUP2 ADD SUB SLT PUSH2 0x232C JUMPI POP DUP5 SWAP1 MLOAD CODESIZE PUSH2 0x20F2 JUMP JUMPDEST POP RETURNDATASIZE PUSH2 0x239F JUMP JUMPDEST DUP9 MLOAD PUSH3 0x461BCD PUSH1 0xE5 SHL DUP2 MSTORE DUP1 DUP5 ADD DUP4 SWAP1 MSTORE PUSH1 0x22 PUSH1 0x24 DUP3 ADD MSTORE PUSH32 0x6F6E6C7920706978656C206F776E65722063616E2070617920726F79616C7469 PUSH1 0x44 DUP3 ADD MSTORE PUSH2 0x6573 PUSH1 0xF0 SHL PUSH1 0x64 DUP3 ADD MSTORE PUSH1 0x84 SWAP1 REVERT JUMPDEST DUP6 MLOAD PUSH3 0x461BCD PUSH1 0xE5 SHL DUP2 MSTORE DUP1 PUSH2 0x13AB PUSH1 0x4 DUP3 ADD PUSH2 0x1DD4 JUMP JUMPDEST LT ISZERO SWAP1 POP DUP7 CODESIZE PUSH2 0x2018 JUMP JUMPDEST ISZERO PUSH2 0x243A JUMPI JUMP JUMPDEST PUSH1 0x40 MLOAD PUSH3 0x461BCD PUSH1 0xE5 SHL DUP2 MSTORE PUSH1 0x20 PUSH1 0x4 DUP3 ADD MSTORE PUSH1 0x23 PUSH1 0x24 DUP3 ADD MSTORE PUSH32 0x6E6F742073756666696369656E742062616C616E636520746F20627579207069 PUSH1 0x44 DUP3 ADD MSTORE PUSH3 0x1E195B PUSH1 0xEA SHL PUSH1 0x64 DUP3 ADD MSTORE PUSH1 0x84 SWAP1 REVERT JUMPDEST ISZERO PUSH2 0x2492 JUMPI JUMP JUMPDEST PUSH1 0x40 MLOAD PUSH3 0x461BCD PUSH1 0xE5 SHL DUP2 MSTORE PUSH1 0x20 PUSH1 0x4 DUP3 ADD MSTORE PUSH1 0x23 PUSH1 0x24 DUP3 ADD MSTORE PUSH32 0x696E73756666696369656E7420616C6C6F77616E636520746F20627579207069 PUSH1 0x44 DUP3 ADD MSTORE PUSH3 0x1E195B PUSH1 0xEA SHL PUSH1 0x64 DUP3 ADD MSTORE PUSH1 0x84 SWAP1 REVERT JUMPDEST ISZERO PUSH2 0x24EA JUMPI JUMP JUMPDEST PUSH1 0x40 MLOAD PUSH3 0x461BCD PUSH1 0xE5 SHL DUP2 MSTORE PUSH1 0x20 PUSH1 0x4 DUP3 ADD MSTORE PUSH1 0x2C PUSH1 0x24 DUP3 ADD MSTORE PUSH32 0x6F776E65722063757272656E74206D616E616765722063616E2063616C6C2074 PUSH1 0x44 DUP3 ADD MSTORE PUSH12 0x3434B990333AB731BA34B7B7 PUSH1 0xA1 SHL PUSH1 0x64 DUP3 ADD MSTORE PUSH1 0x84 SWAP1 REVERT JUMPDEST PUSH1 0x40 MLOAD SWAP1 PUSH2 0x2551 DUP3 PUSH2 0x1B88 JUMP JUMPDEST DUP2 PUSH1 0xC0 PUSH1 0x0 SWAP2 DUP3 DUP2 MSTORE DUP3 PUSH1 0x20 DUP3 ADD MSTORE DUP3 PUSH1 0x40 DUP3 ADD MSTORE PUSH1 0x60 DUP1 DUP3 ADD MSTORE DUP3 PUSH1 0x80 DUP3 ADD MSTORE DUP3 PUSH1 0xA0 DUP3 ADD MSTORE ADD MSTORE JUMP JUMPDEST SWAP1 PUSH2 0x2585 PUSH2 0x2544 JUMP JUMPDEST POP PUSH1 0x40 SWAP2 DUP3 DUP2 LT DUP1 PUSH2 0x264A JUMPI JUMPDEST ISZERO PUSH2 0x2610 JUMPI PUSH1 0x0 MSTORE PUSH1 0x4 PUSH1 0x20 MSTORE DUP2 PUSH1 0x0 KECCAK256 SWAP1 PUSH1 0x0 MSTORE PUSH1 0x20 MSTORE PUSH1 0x6 DUP2 PUSH1 0x0 KECCAK256 DUP3 MLOAD SWAP3 PUSH2 0x25BC DUP5 PUSH2 0x1B88 JUMP JUMPDEST DUP2 SLOAD PUSH1 0x1 PUSH1 0x1 PUSH1 0xA0 SHL SUB AND DUP5 MSTORE PUSH1 0x1 DUP3 ADD SLOAD PUSH1 0x20 DUP6 ADD MSTORE PUSH1 0x2 DUP3 ADD SLOAD SWAP1 DUP5 ADD MSTORE PUSH2 0x25E8 PUSH1 0x3 DUP3 ADD PUSH2 0x1D0B JUMP JUMPDEST PUSH1 0x60 DUP5 ADD MSTORE PUSH1 0x4 DUP2 ADD SLOAD PUSH1 0x80 DUP5 ADD MSTORE PUSH1 0xFF PUSH1 0x5 DUP3 ADD SLOAD AND ISZERO ISZERO PUSH1 0xA0 DUP5 ADD MSTORE ADD SLOAD PUSH1 0xC0 DUP3 ADD MSTORE SWAP1 JUMP JUMPDEST DUP3 MLOAD PUSH3 0x461BCD PUSH1 0xE5 SHL DUP2 MSTORE PUSH1 0x20 PUSH1 0x4 DUP3 ADD MSTORE PUSH1 0x13 PUSH1 0x24 DUP3 ADD MSTORE PUSH19 0x706978656C206F7574206F6620626F756E6473 PUSH1 0x68 SHL PUSH1 0x44 DUP3 ADD MSTORE PUSH1 0x64 SWAP1 REVERT JUMPDEST POP DUP3 DUP3 LT PUSH2 0x2592 JUMP JUMPDEST PUSH2 0x26A3 PUSH2 0x26AC SWAP2 PUSH1 0x2 PUSH1 0x40 PUSH5 0x73DF16000 SWAP6 PUSH1 0x0 SWAP1 DUP5 DUP3 MSTORE PUSH1 0x4 PUSH1 0x20 MSTORE DUP3 DUP3 KECCAK256 DUP2 DUP4 MSTORE PUSH1 0x20 MSTORE PUSH2 0x2689 PUSH1 0x4 DUP5 DUP5 KECCAK256 ADD SLOAD TIMESTAMP PUSH2 0x1F27 JUMP JUMPDEST SWAP5 DUP3 MSTORE PUSH1 0x4 PUSH1 0x20 MSTORE DUP3 DUP3 KECCAK256 SWAP1 DUP3 MSTORE PUSH1 0x20 MSTORE KECCAK256 ADD SLOAD SWAP1 PUSH2 0x1F14 JUMP JUMPDEST PUSH1 0x1 SLOAD SWAP1 PUSH2 0x1F14 JUMP JUMPDEST DIV SWAP1 JUMP JUMPDEST SWAP2 SWAP3 SWAP1 SWAP3 DUP3 ISZERO PUSH2 0x2D51 JUMPI PUSH1 0x1 DUP4 EQ PUSH2 0x2C82 JUMPI PUSH1 0x2 DUP4 EQ PUSH2 0x2C58 JUMPI PUSH1 0x3 DUP4 EQ PUSH2 0x2BFC JUMPI PUSH1 0x4 SWAP3 DUP4 DUP2 EQ PUSH2 0x2BA8 JUMPI PUSH1 0x5 DUP2 EQ PUSH2 0x2A4B JUMPI PUSH1 0x6 DUP2 EQ PUSH2 0x29F9 JUMPI PUSH1 0x7 DUP2 EQ PUSH2 0x2992 JUMPI PUSH1 0x8 DUP2 EQ PUSH2 0x28AF JUMPI PUSH1 0x9 EQ PUSH2 0x271A JUMPI POP POP POP POP PUSH1 0x40 MLOAD PUSH2 0x2713 DUP2 PUSH2 0x1BA3 JUMP JUMPDEST PUSH1 0x0 DUP2 MSTORE SWAP1 JUMP JUMPDEST PUSH2 0x2723 DUP5 PUSH2 0x2E90 JUMP JUMPDEST SWAP1 PUSH2 0x272D DUP2 PUSH2 0x2E90 JUMP JUMPDEST PUSH1 0x8 DUP7 ADD DUP1 DUP8 GT PUSH2 0x289A JUMPI PUSH2 0x2741 SWAP1 PUSH2 0x2E90 JUMP JUMPDEST SWAP5 PUSH1 0x8 DUP4 ADD DUP1 SWAP4 GT PUSH2 0x2885 JUMPI POP SWAP2 PUSH2 0x2869 DUP3 PUSH2 0x1CCE SWAP7 SWAP5 PUSH2 0x2776 PUSH2 0x2770 PUSH2 0x276A PUSH1 0x49 SWAP10 SWAP8 PUSH2 0x2E90 JUMP JUMPDEST SWAP11 PUSH2 0x2E90 JUMP JUMPDEST SWAP3 PUSH2 0x2E90 JUMP JUMPDEST SWAP2 PUSH1 0x40 MLOAD SWAP10 DUP11 SWAP8 PUSH1 0x2A PUSH2 0x27A6 DUP11 PUSH1 0x20 SWAP10 PUSH10 0x3C7061746820643D224D PUSH1 0xB0 SHL DUP12 DUP4 ADD MSTORE DUP11 DUP2 MLOAD SWAP5 DUP6 SWAP4 ADD SWAP2 ADD PUSH2 0x1AB9 JUMP JUMPDEST DUP10 ADD SWAP4 PUSH1 0x1 PUSH1 0xFD SHL SWAP5 DUP6 PUSH1 0x2A DUP3 ADD MSTORE PUSH2 0x27C8 DUP3 MLOAD DUP1 SWAP4 DUP12 PUSH1 0x2B DUP6 ADD SWAP2 ADD PUSH2 0x1AB9 JUMP JUMPDEST ADD PUSH12 0x10209C101C1018101810189 PUSH1 0xA5 SHL PUSH1 0x2B DUP3 ADD MSTORE PUSH2 0x27F1 DUP3 MLOAD DUP1 SWAP4 DUP11 PUSH1 0x37 DUP6 ADD SWAP2 ADD PUSH2 0x1AB9 JUMP JUMPDEST ADD DUP4 PUSH1 0x37 DUP3 ADD MSTORE PUSH2 0x280B DUP3 MLOAD DUP1 SWAP4 DUP10 PUSH1 0x38 DUP6 ADD SWAP2 ADD PUSH2 0x1AB9 JUMP JUMPDEST ADD PUSH2 0x813 PUSH1 0xF2 SHL PUSH1 0x38 DUP3 ADD MSTORE PUSH2 0x282A DUP3 MLOAD DUP1 SWAP4 DUP9 PUSH1 0x3A DUP6 ADD SWAP2 ADD PUSH2 0x1AB9 JUMP JUMPDEST ADD SWAP1 PUSH1 0x3A DUP3 ADD MSTORE PUSH2 0x2844 DUP3 MLOAD DUP1 SWAP4 DUP7 PUSH1 0x3B DUP6 ADD SWAP2 ADD PUSH2 0x1AB9 JUMP JUMPDEST ADD SWAP2 PUSH10 0x102D11103334B6361E91 PUSH1 0xB1 SHL PUSH1 0x3B DUP5 ADD MSTORE DUP4 MLOAD SWAP4 DUP5 SWAP2 PUSH1 0x45 DUP6 ADD SWAP2 ADD PUSH2 0x1AB9 JUMP JUMPDEST ADD PUSH4 0x1110179F PUSH1 0xE1 SHL PUSH1 0x45 DUP3 ADD MSTORE SUB PUSH1 0x29 DUP2 ADD DUP5 MSTORE ADD DUP3 PUSH2 0x1BBE JUMP JUMPDEST PUSH1 0x11 SWAP1 PUSH4 0x4E487B71 PUSH1 0xE0 SHL PUSH1 0x0 MSTORE MSTORE PUSH1 0x24 PUSH1 0x0 REVERT JUMPDEST PUSH1 0x11 DUP7 PUSH4 0x4E487B71 PUSH1 0xE0 SHL PUSH1 0x0 MSTORE MSTORE PUSH1 0x24 PUSH1 0x0 REVERT JUMPDEST POP SWAP3 PUSH1 0x8 DUP2 ADD SWAP4 DUP5 DUP3 GT PUSH2 0x297D JUMPI PUSH2 0x28C6 DUP6 PUSH2 0x2E90 JUMP JUMPDEST SWAP2 PUSH2 0x28D9 PUSH2 0x28D3 DUP4 PUSH2 0x2E90 JUMP JUMPDEST SWAP2 PUSH2 0x2E90 JUMP JUMPDEST SWAP5 PUSH1 0x8 DUP4 ADD DUP1 SWAP4 GT PUSH2 0x2885 JUMPI POP SWAP2 PUSH2 0x2869 DUP3 PUSH2 0x1CCE SWAP7 SWAP5 PUSH2 0x2902 PUSH2 0x2770 PUSH2 0x276A PUSH1 0x49 SWAP10 SWAP8 PUSH2 0x2E90 JUMP JUMPDEST SWAP2 PUSH1 0x40 MLOAD SWAP10 DUP11 SWAP8 PUSH1 0x2A PUSH2 0x2932 DUP11 PUSH1 0x20 SWAP10 PUSH10 0x3C7061746820643D224D PUSH1 0xB0 SHL DUP12 DUP4 ADD MSTORE DUP11 DUP2 MLOAD SWAP5 DUP6 SWAP4 ADD SWAP2 ADD PUSH2 0x1AB9 JUMP JUMPDEST DUP10 ADD SWAP4 PUSH1 0x1 PUSH1 0xFD SHL SWAP5 DUP6 PUSH1 0x2A DUP3 ADD MSTORE PUSH2 0x2954 DUP3 MLOAD DUP1 SWAP4 DUP12 PUSH1 0x2B DUP6 ADD SWAP2 ADD PUSH2 0x1AB9 JUMP JUMPDEST ADD PUSH12 0x10209C101C1018101810181 PUSH1 0xA5 SHL PUSH1 0x2B DUP3 ADD MSTORE PUSH2 0x27F1 DUP3 MLOAD DUP1 SWAP4 DUP11 PUSH1 0x37 DUP6 ADD SWAP2 ADD PUSH2 0x1AB9 JUMP JUMPDEST PUSH1 0x11 DUP5 PUSH4 0x4E487B71 PUSH1 0xE0 SHL PUSH1 0x0 MSTORE MSTORE PUSH1 0x24 PUSH1 0x0 REVERT JUMPDEST POP PUSH2 0x299C DUP5 PUSH2 0x2E90 JUMP JUMPDEST SWAP1 PUSH2 0x29A6 DUP2 PUSH2 0x2E90 JUMP JUMPDEST PUSH1 0x8 DUP7 ADD DUP1 SWAP7 GT PUSH2 0x29E4 JUMPI PUSH2 0x29BA DUP7 PUSH2 0x2E90 JUMP JUMPDEST SWAP5 PUSH1 0x8 DUP4 ADD SWAP1 DUP2 DUP5 GT PUSH2 0x2885 JUMPI POP PUSH1 0x49 SWAP5 SWAP3 PUSH2 0x1CCE SWAP7 SWAP5 SWAP3 PUSH2 0x2902 PUSH2 0x2770 PUSH2 0x276A PUSH2 0x2869 SWAP6 PUSH2 0x2E90 JUMP JUMPDEST PUSH1 0x11 DUP6 PUSH4 0x4E487B71 PUSH1 0xE0 SHL PUSH1 0x0 MSTORE MSTORE PUSH1 0x24 PUSH1 0x0 REVERT JUMPDEST POP PUSH2 0x2A03 DUP5 PUSH2 0x2E90 JUMP JUMPDEST SWAP1 PUSH1 0x8 DUP2 ADD DUP1 DUP3 GT PUSH2 0x29E4 JUMPI PUSH2 0x2A18 SWAP1 PUSH2 0x2E90 JUMP JUMPDEST SWAP4 PUSH1 0x8 DUP7 ADD SWAP1 DUP2 DUP8 GT PUSH2 0x2885 JUMPI POP SWAP2 PUSH2 0x2869 PUSH1 0x49 SWAP5 SWAP3 PUSH2 0x2A3B PUSH2 0x1CCE SWAP8 SWAP6 PUSH2 0x2E90 JUMP JUMPDEST SWAP5 PUSH2 0x2902 PUSH2 0x2770 PUSH2 0x276A DUP5 PUSH2 0x2E90 JUMP JUMPDEST POP SWAP3 PUSH2 0x2A56 DUP2 PUSH2 0x2E90 JUMP JUMPDEST SWAP1 PUSH1 0x8 DUP6 ADD SWAP1 DUP2 DUP7 GT PUSH2 0x29E4 JUMPI PUSH2 0x2A6C DUP3 PUSH2 0x2E90 JUMP JUMPDEST SWAP1 PUSH2 0x2A7F PUSH2 0x2A79 DUP3 PUSH2 0x2E90 JUMP JUMPDEST SWAP8 PUSH2 0x2E90 JUMP JUMPDEST SWAP6 PUSH1 0x8 DUP3 ADD DUP1 SWAP3 GT PUSH2 0x2885 JUMPI POP PUSH1 0x3F SWAP5 SWAP3 PUSH2 0x1CCE SWAP7 SWAP5 SWAP3 PUSH2 0x2AA5 PUSH2 0x2770 PUSH2 0x2B8C SWAP5 PUSH2 0x2E90 JUMP JUMPDEST SWAP2 PUSH1 0x40 MLOAD SWAP10 DUP11 SWAP8 PUSH1 0x2A PUSH2 0x2AD5 DUP11 PUSH1 0x20 SWAP10 PUSH10 0x3C7061746820643D224D PUSH1 0xB0 SHL DUP12 DUP4 ADD MSTORE DUP11 DUP2 MLOAD SWAP5 DUP6 SWAP4 ADD SWAP2 ADD PUSH2 0x1AB9 JUMP JUMPDEST DUP10 ADD SWAP4 PUSH1 0x1 PUSH1 0xFD SHL SWAP5 DUP6 PUSH1 0x2A DUP3 ADD MSTORE PUSH2 0x2AF7 DUP3 MLOAD DUP1 SWAP4 DUP12 PUSH1 0x2B DUP6 ADD SWAP2 ADD PUSH2 0x1AB9 JUMP JUMPDEST ADD SWAP2 PUSH2 0x813 PUSH1 0xF2 SHL SWAP3 DUP4 PUSH1 0x2B DUP3 ADD MSTORE PUSH2 0x2B19 DUP3 MLOAD DUP1 SWAP4 DUP12 PUSH1 0x2D DUP6 ADD SWAP2 ADD PUSH2 0x1AB9 JUMP JUMPDEST ADD DUP5 PUSH1 0x2D DUP3 ADD MSTORE PUSH2 0x2B33 DUP3 MLOAD DUP1 SWAP4 DUP11 PUSH1 0x2E DUP6 ADD SWAP2 ADD PUSH2 0x1AB9 JUMP JUMPDEST ADD SWAP1 PUSH1 0x2E DUP3 ADD MSTORE PUSH2 0x2B4D DUP3 MLOAD DUP1 SWAP4 DUP9 PUSH1 0x30 DUP6 ADD SWAP2 ADD PUSH2 0x1AB9 JUMP JUMPDEST ADD SWAP1 PUSH1 0x30 DUP3 ADD MSTORE PUSH2 0x2B67 DUP3 MLOAD DUP1 SWAP4 DUP7 PUSH1 0x31 DUP6 ADD SWAP2 ADD PUSH2 0x1AB9 JUMP JUMPDEST ADD SWAP2 PUSH10 0x103D11103334B6361E91 PUSH1 0xB1 SHL PUSH1 0x31 DUP5 ADD MSTORE DUP4 MLOAD SWAP4 DUP5 SWAP2 PUSH1 0x3B DUP6 ADD SWAP2 ADD PUSH2 0x1AB9 JUMP JUMPDEST ADD PUSH4 0x1110179F PUSH1 0xE1 SHL PUSH1 0x3B DUP3 ADD MSTORE SUB PUSH1 0x1F DUP2 ADD DUP5 MSTORE ADD DUP3 PUSH2 0x1BBE JUMP JUMPDEST POP SWAP3 SWAP2 PUSH1 0x8 DUP4 ADD SWAP1 DUP2 DUP5 GT PUSH2 0x2885 JUMPI PUSH2 0x2BC0 DUP3 PUSH2 0x2E90 JUMP JUMPDEST SWAP2 PUSH1 0x8 DUP7 ADD SWAP2 DUP3 DUP8 GT PUSH2 0x2885 JUMPI POP SWAP2 PUSH2 0x2B8C DUP3 PUSH2 0x1CCE SWAP7 SWAP5 PUSH2 0x2AA5 PUSH2 0x2770 PUSH2 0x2A79 PUSH2 0x2BF6 PUSH2 0x2BF0 PUSH1 0x3F SWAP12 SWAP10 PUSH2 0x2E90 JUMP JUMPDEST SWAP5 PUSH2 0x2E90 JUMP JUMPDEST SWAP12 PUSH2 0x2E90 JUMP JUMPDEST SWAP2 POP PUSH2 0x2C07 DUP4 PUSH2 0x2E90 JUMP JUMPDEST SWAP3 PUSH2 0x2C11 DUP4 PUSH2 0x2E90 JUMP JUMPDEST SWAP2 PUSH1 0x8 DUP3 ADD DUP1 SWAP3 GT PUSH2 0x830 JUMPI PUSH2 0x2C26 DUP3 PUSH2 0x2E90 JUMP JUMPDEST SWAP5 PUSH2 0x2C39 PUSH2 0x2C33 DUP7 PUSH2 0x2E90 JUMP JUMPDEST SWAP4 PUSH2 0x2E90 JUMP JUMPDEST SWAP5 PUSH1 0x8 DUP2 ADD DUP1 SWAP2 GT PUSH2 0x830 JUMPI PUSH2 0x1CCE SWAP6 PUSH1 0x3F SWAP6 PUSH2 0x2AA5 PUSH2 0x2B8C SWAP4 PUSH2 0x2E90 JUMP JUMPDEST SWAP2 POP PUSH2 0x2C63 DUP4 PUSH2 0x2E90 JUMP JUMPDEST SWAP3 PUSH2 0x2C6D DUP4 PUSH2 0x2E90 JUMP JUMPDEST SWAP2 PUSH1 0x8 DUP3 ADD DUP1 DUP4 GT PUSH2 0x830 JUMPI PUSH2 0x2C26 SWAP1 PUSH2 0x2E90 JUMP JUMPDEST SWAP2 POP SWAP2 PUSH1 0x4 DUP2 ADD DUP1 SWAP2 GT PUSH2 0x830 JUMPI PUSH2 0x2C99 SWAP1 PUSH2 0x2E90 JUMP JUMPDEST SWAP1 PUSH1 0x4 DUP2 ADD DUP1 SWAP2 GT PUSH2 0x830 JUMPI PUSH2 0x1CCE SWAP2 PUSH2 0x2CB4 PUSH1 0x44 SWAP3 PUSH2 0x2E90 JUMP JUMPDEST SWAP4 PUSH1 0x40 MLOAD SWAP5 DUP6 SWAP3 PUSH12 0x1E31B4B931B6329031BC1E91 PUSH1 0xA1 SHL PUSH1 0x20 DUP6 ADD MSTORE PUSH2 0x2CE4 DUP2 MLOAD DUP1 SWAP3 PUSH1 0x20 PUSH1 0x2C DUP9 ADD SWAP2 ADD PUSH2 0x1AB9 JUMP JUMPDEST DUP4 ADD PUSH6 0x111031BC9E91 PUSH1 0xD1 SHL PUSH1 0x2C DUP3 ADD MSTORE PUSH2 0x2D09 DUP3 MLOAD DUP1 SWAP4 PUSH1 0x20 PUSH1 0x32 DUP6 ADD SWAP2 ADD PUSH2 0x1AB9 JUMP JUMPDEST ADD PUSH14 0x1110391E911A11103334B6361E91 PUSH1 0x91 SHL PUSH1 0x32 DUP3 ADD MSTORE PUSH2 0x2D35 DUP3 MLOAD DUP1 SWAP4 PUSH1 0x20 PUSH1 0x40 DUP6 ADD SWAP2 ADD PUSH2 0x1AB9 JUMP JUMPDEST ADD PUSH4 0x1110179F PUSH1 0xE1 SHL PUSH1 0x40 DUP3 ADD MSTORE SUB PUSH1 0x24 DUP2 ADD DUP5 MSTORE ADD DUP3 PUSH2 0x1BBE JUMP JUMPDEST PUSH2 0x1CCE SWAP3 POP PUSH2 0x2D65 PUSH2 0x28D3 PUSH1 0x4F SWAP4 SWAP6 PUSH2 0x2E90 JUMP JUMPDEST SWAP4 PUSH1 0x40 MLOAD SWAP5 DUP6 SWAP3 PUSH9 0x1E3932B1BA103C1E91 PUSH1 0xB9 SHL PUSH1 0x20 DUP6 ADD MSTORE PUSH2 0x2D92 DUP2 MLOAD DUP1 SWAP3 PUSH1 0x20 PUSH1 0x29 DUP9 ADD SWAP2 ADD PUSH2 0x1AB9 JUMP JUMPDEST DUP4 ADD PUSH5 0x11103C9E91 PUSH1 0xD9 SHL PUSH1 0x29 DUP3 ADD MSTORE PUSH2 0x2DB6 DUP3 MLOAD DUP1 SWAP4 PUSH1 0x20 PUSH1 0x2E DUP6 ADD SWAP2 ADD PUSH2 0x1AB9 JUMP JUMPDEST ADD PUSH32 0x222077696474683D223822206865696768743D2238222066696C6C3D22000000 PUSH1 0x2E DUP3 ADD MSTORE PUSH2 0x2DF1 DUP3 MLOAD DUP1 SWAP4 PUSH1 0x20 PUSH1 0x4B DUP6 ADD SWAP2 ADD PUSH2 0x1AB9 JUMP JUMPDEST ADD PUSH4 0x1110179F PUSH1 0xE1 SHL PUSH1 0x4B DUP3 ADD MSTORE SUB PUSH1 0x2F DUP2 ADD DUP5 MSTORE ADD DUP3 PUSH2 0x1BBE JUMP JUMPDEST PUSH1 0x0 SWAP3 SWAP2 DUP2 SLOAD PUSH2 0x2E1C DUP2 PUSH2 0x1CD1 JUMP JUMPDEST SWAP3 PUSH1 0x1 SWAP2 DUP1 DUP4 AND SWAP1 DUP2 ISZERO PUSH2 0x2E75 JUMPI POP PUSH1 0x1 EQ PUSH2 0x2E39 JUMPI JUMPDEST POP POP POP POP JUMP JUMPDEST SWAP1 SWAP2 SWAP3 SWAP4 SWAP5 POP PUSH1 0x0 MSTORE PUSH1 0x20 SWAP1 DUP2 PUSH1 0x0 KECCAK256 SWAP1 PUSH1 0x0 SWAP2 JUMPDEST DUP6 DUP4 LT PUSH2 0x2E64 JUMPI POP POP POP POP ADD SWAP1 CODESIZE DUP1 DUP1 DUP1 PUSH2 0x2E33 JUMP JUMPDEST DUP1 SLOAD DUP6 DUP5 ADD MSTORE SWAP2 DUP4 ADD SWAP2 DUP2 ADD PUSH2 0x2E4E JUMP JUMPDEST PUSH1 0xFF NOT AND DUP5 MSTORE POP POP POP DUP2 ISZERO ISZERO SWAP1 SWAP2 MUL ADD SWAP2 POP CODESIZE DUP1 DUP1 DUP1 PUSH2 0x2E33 JUMP JUMPDEST SWAP1 DUP2 ISZERO PUSH2 0x2F59 JUMPI SWAP1 DUP1 DUP2 PUSH1 0x0 SWAP3 JUMPDEST PUSH2 0x2F3F JUMPI POP PUSH2 0x2EAC DUP3 PUSH2 0x1BF6 JUMP JUMPDEST SWAP2 PUSH2 0x2EBA PUSH1 0x40 MLOAD SWAP4 DUP5 PUSH2 0x1BBE JUMP JUMPDEST DUP1 DUP4 MSTORE PUSH1 0x1F NOT PUSH2 0x2EC9 DUP3 PUSH2 0x1BF6 JUMP JUMPDEST ADD CALLDATASIZE PUSH1 0x20 DUP6 ADD CALLDATACOPY SWAP1 JUMPDEST DUP2 DUP2 ISZERO PUSH2 0x2F39 JUMPI PUSH1 0x0 NOT DUP4 ADD SWAP3 DUP4 GT PUSH2 0x830 JUMPI DUP3 PUSH1 0xA SWAP1 DUP2 DUP5 DIV SWAP4 DUP3 DUP6 MUL SWAP3 DUP6 DUP5 DIV EQ DUP6 ISZERO OR ISZERO PUSH2 0x830 JUMPI PUSH2 0x2F0A PUSH1 0xFF SWAP4 DUP5 SWAP3 PUSH2 0x1F27 JUMP JUMPDEST AND PUSH1 0x30 ADD SWAP2 DUP3 GT PUSH2 0x830 JUMPI DUP6 MLOAD GT ISZERO PUSH2 0x15E9 JUMPI PUSH1 0xF8 SHL PUSH1 0x1 PUSH1 0x1 PUSH1 0xF8 SHL SUB NOT AND PUSH1 0x0 BYTE SWAP1 DUP5 ADD PUSH1 0x1F ADD MSTORE8 PUSH2 0x2ED2 JUMP JUMPDEST POP POP POP SWAP1 JUMP JUMPDEST SWAP2 PUSH2 0x2F4E PUSH1 0xA SWAP2 SWAP5 SWAP3 SWAP5 PUSH2 0x1DB1 JUMP JUMPDEST SWAP3 DIV DUP1 SWAP4 SWAP2 SWAP4 PUSH2 0x2E9E JUMP JUMPDEST SWAP1 POP PUSH1 0x40 MLOAD PUSH1 0x40 DUP2 ADD DUP2 DUP2 LT PUSH1 0x1 PUSH1 0x1 PUSH1 0x40 SHL SUB DUP3 GT OR PUSH2 0x6E7 JUMPI PUSH1 0x40 MSTORE PUSH1 0x1 DUP2 MSTORE PUSH1 0x3 PUSH1 0xFC SHL PUSH1 0x20 DUP3 ADD MSTORE SWAP1 JUMP INVALID LOG2 PUSH5 0x6970667358 0x22 SLT KECCAK256 0xA8 0xE5 DELEGATECALL EXTCODESIZE SELFBALANCE EQ 0xB5 0xE0 0xD0 PUSH0 0x21 0xBA MULMOD PC 0xB3 0xF9 DUP6 0x4D SWAP14 0x2C 0xAE PUSH29 0xD5B75F942E0C19BD166464736F6C634300081400330000000000000000 "},"methodIdentifiers":{"ARTISTIC_PERIOD()":"3323a706","CYCLE_PERIOD()":"113bc999","VOTING_PERIOD()":"b1610d7e","balanceOf(address)":"70a08231","buyPixel(uint256[],uint256[])":"6ed958f1","calculateRoyalties(uint256,uint256)":"d08629c1","canvasCreation()":"ff188dca","castVote(bool)":"7ace48e7","checkMultiplePixel(uint256[],uint256[])":"c7eab2ec","checkPixel(uint256,uint256)":"040cdfd8","checkVoteOutcome()":"fe91f6eb","fillPixel(bytes[])":"3bdb693e","generateSVG()":"ad711e9e","getBalance(address)":"f8b2cb4f","getCurrentCycle()":"be26ed7f","hasVoted(address)":"09eef43e","isInArtisticPeriod()":"4882a7ea","isInVotingPeriod()":"b3a1ddf4","manager()":"481c6a75","maxHeight()":"63aa5ce2","maxWidth()":"6006ecc8","payRoyalties(uint256[],uint256[])":"e50eb5da","pixelSVGs(uint256)":"c4e4b90c","rowSVGs(uint256)":"e1245900","royaltyAskPeriod()":"6e70fcc6","royaltyDenominator()":"fd8d7ed3","royaltyRate()":"c4d1510d","seekRoyaltyPayment(uint256,uint256,uint256)":"85a9473d","setPixelValue(uint256[],uint256[],uint256[])":"8232b562","updateCurrency(address)":"5e027601","voteRegister(uint256)":"30b5d6d3","window(uint256,uint256)":"c730e65d"}}}}}