{"contracts/CanvasCollection.sol":{"CanvasCollection":{"abi":[{"inputs":[{"internalType":"address","name":"pixelmapAddress","type":"address"}],"stateMutability":"nonpayable","type":"constructor"},{"inputs":[],"name":"ApprovalCallerNotOwnerNorApproved","type":"error"},{"inputs":[],"name":"ApprovalQueryForNonexistentToken","type":"error"},{"inputs":[],"name":"BalanceQueryForZeroAddress","type":"error"},{"inputs":[],"name":"MintERC2309QuantityExceedsLimit","type":"error"},{"inputs":[],"name":"MintToZeroAddress","type":"error"},{"inputs":[],"name":"MintZeroQuantity","type":"error"},{"inputs":[{"internalType":"address","name":"owner","type":"address"}],"name":"OwnableInvalidOwner","type":"error"},{"inputs":[{"internalType":"address","name":"account","type":"address"}],"name":"OwnableUnauthorizedAccount","type":"error"},{"inputs":[],"name":"OwnerQueryForNonexistentToken","type":"error"},{"inputs":[],"name":"OwnershipNotInitializedForExtraData","type":"error"},{"inputs":[{"internalType":"uint256","name":"value","type":"uint256"},{"internalType":"uint256","name":"length","type":"uint256"}],"name":"StringsInsufficientHexLength","type":"error"},{"inputs":[],"name":"TransferCallerNotOwnerNorApproved","type":"error"},{"inputs":[],"name":"TransferFromIncorrectOwner","type":"error"},{"inputs":[],"name":"TransferToNonERC721ReceiverImplementer","type":"error"},{"inputs":[],"name":"TransferToZeroAddress","type":"error"},{"inputs":[],"name":"URIQueryForNonexistentToken","type":"error"},{"anonymous":false,"inputs":[{"indexed":true,"internalType":"address","name":"owner","type":"address"},{"indexed":true,"internalType":"address","name":"approved","type":"address"},{"indexed":true,"internalType":"uint256","name":"tokenId","type":"uint256"}],"name":"Approval","type":"event"},{"anonymous":false,"inputs":[{"indexed":true,"internalType":"address","name":"owner","type":"address"},{"indexed":true,"internalType":"address","name":"operator","type":"address"},{"indexed":false,"internalType":"bool","name":"approved","type":"bool"}],"name":"ApprovalForAll","type":"event"},{"anonymous":false,"inputs":[{"indexed":true,"internalType":"uint256","name":"fromTokenId","type":"uint256"},{"indexed":false,"internalType":"uint256","name":"toTokenId","type":"uint256"},{"indexed":true,"internalType":"address","name":"from","type":"address"},{"indexed":true,"internalType":"address","name":"to","type":"address"}],"name":"ConsecutiveTransfer","type":"event"},{"anonymous":false,"inputs":[{"indexed":true,"internalType":"address","name":"previousOwner","type":"address"},{"indexed":true,"internalType":"address","name":"newOwner","type":"address"}],"name":"OwnershipTransferred","type":"event"},{"anonymous":false,"inputs":[{"indexed":true,"internalType":"address","name":"from","type":"address"},{"indexed":true,"internalType":"address","name":"to","type":"address"},{"indexed":true,"internalType":"uint256","name":"tokenId","type":"uint256"}],"name":"Transfer","type":"event"},{"inputs":[{"internalType":"address","name":"to","type":"address"},{"internalType":"uint256","name":"tokenId","type":"uint256"}],"name":"approve","outputs":[],"stateMutability":"payable","type":"function"},{"inputs":[{"internalType":"address","name":"owner","type":"address"}],"name":"balanceOf","outputs":[{"internalType":"uint256","name":"","type":"uint256"}],"stateMutability":"view","type":"function"},{"inputs":[{"internalType":"uint256","name":"tokenId","type":"uint256"}],"name":"getApproved","outputs":[{"internalType":"address","name":"","type":"address"}],"stateMutability":"view","type":"function"},{"inputs":[{"internalType":"address","name":"owner","type":"address"},{"internalType":"address","name":"operator","type":"address"}],"name":"isApprovedForAll","outputs":[{"internalType":"bool","name":"","type":"bool"}],"stateMutability":"view","type":"function"},{"inputs":[{"internalType":"address","name":"to","type":"address"}],"name":"mint","outputs":[],"stateMutability":"nonpayable","type":"function"},{"inputs":[],"name":"name","outputs":[{"internalType":"string","name":"","type":"string"}],"stateMutability":"view","type":"function"},{"inputs":[],"name":"owner","outputs":[{"internalType":"address","name":"","type":"address"}],"stateMutability":"view","type":"function"},{"inputs":[{"internalType":"uint256","name":"tokenId","type":"uint256"}],"name":"ownerOf","outputs":[{"internalType":"address","name":"","type":"address"}],"stateMutability":"view","type":"function"},{"inputs":[],"name":"pixelmapContract","outputs":[{"internalType":"contract Pixelmap","name":"","type":"address"}],"stateMutability":"view","type":"function"},{"inputs":[],"name":"renounceOwnership","outputs":[],"stateMutability":"nonpayable","type":"function"},{"inputs":[{"internalType":"address","name":"from","type":"address"},{"internalType":"address","name":"to","type":"address"},{"internalType":"uint256","name":"tokenId","type":"uint256"}],"name":"safeTransferFrom","outputs":[],"stateMutability":"payable","type":"function"},{"inputs":[{"internalType":"address","name":"from","type":"address"},{"internalType":"address","name":"to","type":"address"},{"internalType":"uint256","name":"tokenId","type":"uint256"},{"internalType":"bytes","name":"_data","type":"bytes"}],"name":"safeTransferFrom","outputs":[],"stateMutability":"payable","type":"function"},{"inputs":[{"internalType":"address","name":"operator","type":"address"},{"internalType":"bool","name":"approved","type":"bool"}],"name":"setApprovalForAll","outputs":[],"stateMutability":"nonpayable","type":"function"},{"inputs":[{"internalType":"address","name":"pixelmapAddress","type":"address"}],"name":"setPixelmapContract","outputs":[],"stateMutability":"nonpayable","type":"function"},{"inputs":[{"internalType":"bytes4","name":"interfaceId","type":"bytes4"}],"name":"supportsInterface","outputs":[{"internalType":"bool","name":"","type":"bool"}],"stateMutability":"view","type":"function"},{"inputs":[],"name":"symbol","outputs":[{"internalType":"string","name":"","type":"string"}],"stateMutability":"view","type":"function"},{"inputs":[{"internalType":"uint256","name":"tokenId","type":"uint256"}],"name":"tokenURI","outputs":[{"internalType":"string","name":"","type":"string"}],"stateMutability":"view","type":"function"},{"inputs":[],"name":"totalSupply","outputs":[{"internalType":"uint256","name":"","type":"uint256"}],"stateMutability":"view","type":"function"},{"inputs":[{"internalType":"address","name":"from","type":"address"},{"internalType":"address","name":"to","type":"address"},{"internalType":"uint256","name":"tokenId","type":"uint256"}],"name":"transferFrom","outputs":[],"stateMutability":"payable","type":"function"},{"inputs":[{"internalType":"address","name":"newOwner","type":"address"}],"name":"transferOwnership","outputs":[],"stateMutability":"nonpayable","type":"function"}],"evm":{"bytecode":{"linkReferences":{},"object":"608034620003cf576001600160401b0390601f1990601f9062001d89388190038381018516830186811184821017620003d457839282916040528339602092839181010312620003cf57516001600160a01b03948582169491859003620003cf576200006a620003ea565b601181527021b0b73b30b99021b7b63632b1ba34b7b760791b8482015262000091620003ea565b9460049586815263434e565360e01b868201528251848111620003ba57600254936001948581811c91168015620003af575b898210146200039a5790818584931162000343575b508890858311600114620002dd57600092620002d1575b5050600019600383901b1c191690841b176002555b8051938411620002bc5760039586548481811c91168015620002b1575b828210146200029c5783811162000251575b5080928511600114620001e9575083945090839291600094620001dd575b50501b9160001990841b1c19161790555b600080553315620001c5575060088054336001600160a01b03198083168217909355604051949091167f8be0079c531659141344cd1fd0a4f28419497f9722a3daafe3b4186f6b6457e0600080a3600954161760095561197e90816200040b8239f35b602490600060405191631e4fbdf760e01b8352820152fd5b01519250388062000151565b9294849081168760005284600020946000905b888383106200023657505050106200021d575b505050811b01905562000162565b015160001983861b60f8161c191690553880806200020f565b858701518855909601959485019487935090810190620001fc565b87600052816000208480880160051c82019284891062000292575b0160051c019085905b8281106200028557505062000133565b6000815501859062000275565b925081926200026c565b602289634e487b7160e01b6000525260246000fd5b90607f169062000121565b604187634e487b7160e01b6000525260246000fd5b015190503880620000ef565b90888794169160026000528a6000209260005b8c8282106200032c575050841162000312575b505050811b0160025562000104565b015160001960f88460031b161c1916905538808062000303565b8385015186558a97909501949384019301620002f0565b9091506002600052886000208580850160051c8201928b861062000390575b918891869594930160051c01915b82811062000380575050620000d8565b6000815585945088910162000370565b9250819262000362565b60228a634e487b7160e01b6000525260246000fd5b90607f1690620000c3565b604188634e487b7160e01b6000525260246000fd5b600080fd5b634e487b7160e01b600052604160045260246000fd5b60408051919082016001600160401b03811183821017620003d45760405256fe6080604052600436101561001257600080fd5b60003560e01c806301ffc9a71461015757806303d18e071461015257806306fdde031461014d578063081812fc14610148578063095ea7b31461014357806318160ddd1461013e57806323b872dd1461013957806342842e0e146101345780636352211e1461012f5780636a6278421461012a57806370a0823114610125578063715018a6146101205780638da5cb5b1461011b57806395d89b4114610116578063a22cb46514610111578063acd7cbab1461010c578063b88d4fde14610107578063c87b56dd14610102578063e985e9c5146100fd5763f2fde38b146100f857600080fd5b610a96565b610a39565b610911565b61088e565b6107d9565b61074b565b6106a7565b61067e565b610620565b6105c5565b61053b565b61050c565b6104e9565b6104d5565b61047d565b6103c6565b610346565b610266565b6101e1565b610173565b6001600160e01b031981160361016e57565b600080fd5b3461016e57602036600319011261016e5760206004356101928161015c565b63ffffffff60e01b166301ffc9a760e01b81149081156101d0575b81156101bf575b506040519015158152f35b635b5e139f60e01b149050386101b4565b6380ac58cd60e01b811491506101ad565b3461016e57600036600319011261016e576009546040516001600160a01b039091168152602090f35b60005b83811061021d5750506000910152565b818101518382015260200161020d565b906020916102468151809281855285808601910161020a565b601f01601f1916010190565b90602061026392818152019061022d565b90565b3461016e57600080600319360112610343576040518160025461028881610b4a565b8084529060019081811690811561031b57506001146102c2575b6102be846102b281880382610852565b60405191829182610252565b0390f35b60028352602094507f405787fa12a823e0f2b7631cc41b3ba8828b3321ca811111fa75cd3aa3bb5ace5b82841061030857505050816102be936102b292820101936102a2565b80548585018701529285019281016102ec565b6102be96506102b29450602092508593915060ff191682840152151560051b820101936102a2565b80fd5b3461016e57602036600319011261016e5760043561036381611542565b15610388576000526006602052602060018060a01b0360406000205416604051908152f35b6040516333d1c03960e21b8152600490fd5b600435906001600160a01b038216820361016e57565b602435906001600160a01b038216820361016e57565b604036600319011261016e576103da61039a565b6024356001600160a01b03806103ef836114d3565b169081330361044a575b600083815260066020526040812080546001600160a01b0319166001600160a01b0387161790559316907f8c5be1e5ebec7d5bd14f71427d1e84f3dd0314c0f7b2291e5b200ac8c7c3b9258480a480f35b600082815260076020908152604080832033845290915290205460ff166103f9576040516367d9dca160e11b8152600490fd5b3461016e57600036600319011261016e5760206000546001549003604051908152f35b606090600319011261016e576001600160a01b0390600435828116810361016e5791602435908116810361016e579060443590565b6104e76104e1366104a0565b9161156b565b005b6104e76104f5366104a0565b906040519261050384610832565b6000845261173d565b3461016e57602036600319011261016e5760206001600160a01b036105326004356114d3565b16604051908152f35b3461016e57602036600319011261016e5761055461039a565b6009546001600160a01b03163303610580576104e79061057b6000546001549003916118a0565b610ca6565b60405162461bcd60e51b815260206004820152601f60248201527f4f6e6c7920506978656c6d617020636f6e74726163742063616e206d696e74006044820152606490fd5b3461016e57602036600319011261016e576001600160a01b036105e661039a565b16801561060e57600052600560205260206001600160401b0360406000205416604051908152f35b6040516323d3ad8160e21b8152600490fd5b3461016e576000806003193601126103435761063a610b1e565b600880546001600160a01b0319811690915581906001600160a01b03167f8be0079c531659141344cd1fd0a4f28419497f9722a3daafe3b4186f6b6457e08280a380f35b3461016e57600036600319011261016e576008546040516001600160a01b039091168152602090f35b3461016e5760008060031936011261034357604051816003546106c981610b4a565b8084529060019081811690811561031b57506001146106f2576102be846102b281880382610852565b60038352602094507fc2575a0e9e593c00f959f8c92f12db2869c3395a3b0502d05e2516446f71f85b5b82841061073857505050816102be936102b292820101936102a2565b805485850187015292850192810161071c565b3461016e57604036600319011261016e5761076461039a565b6024359081151580920361016e573360009081526007602090815260408083206001600160a01b0385168452909152902060ff1981541660ff841617905560405191825260018060a01b0316907f17307eab39ab6107e8899845ad3d59bd9653f200f220920489ca2b5937696c3160203392a3005b3461016e57602036600319011261016e576107f261039a565b6107fa610b1e565b600980546001600160a01b0319166001600160a01b0392909216919091179055005b634e487b7160e01b600052604160045260246000fd5b602081019081106001600160401b0382111761084d57604052565b61081c565b90601f801991011681019081106001600160401b0382111761084d57604052565b6001600160401b03811161084d57601f01601f191660200190565b608036600319011261016e576108a261039a565b6108aa6103b0565b606435916001600160401b03831161016e573660238401121561016e578260040135916108d683610873565b926108e46040519485610852565b808452366024828701011161016e5760208160009260246104e7980183880137850101526044359161173d565b3461016e5760208060031936011261016e576004359061093082611542565b156109dd576000918252600a81526040822090604051918381549061095482610b4a565b808652926001928084169081156109b9575060011461097e575b6102be866102b2818a0382610852565b9080949650528483205b8284106109a657505050816102be936102b29282010193388061096e565b8054858501870152928501928101610988565b60ff19168787015250505050151560051b82010191506102b2816102be388061096e565b6084906040519062461bcd60e51b82526004820152602f60248201527f4552433732314d657461646174613a2055524920717565727920666f72206e6f60448201526e3732bc34b9ba32b73a103a37b5b2b760891b6064820152fd5b3461016e57604036600319011261016e57602060ff610a8a610a5961039a565b610a616103b0565b6001600160a01b0391821660009081526007865260408082209290931681526020919091522090565b54166040519015158152f35b3461016e57602036600319011261016e57610aaf61039a565b610ab7610b1e565b6001600160a01b03908116908115610b0557600880546001600160a01b031981168417909155167f8be0079c531659141344cd1fd0a4f28419497f9722a3daafe3b4186f6b6457e0600080a3005b604051631e4fbdf760e01b815260006004820152602490fd5b6008546001600160a01b03163303610b3257565b60405163118cdaa760e01b8152336004820152602490fd5b90600182811c92168015610b7a575b6020831014610b6457565b634e487b7160e01b600052602260045260246000fd5b91607f1691610b59565b90601f8111610b9257505050565b600091825260208220906020601f850160051c83019410610bce575b601f0160051c01915b828110610bc357505050565b818155600101610bb7565b9092508290610bae565b91909182516001600160401b03811161084d57610bff81610bf98454610b4a565b84610b84565b602080601f8311600114610c3b575081929394600092610c30575b50508160011b916000199060031b1c1916179055565b015190503880610c1a565b90601f19831695610c5185600052602060002090565b926000905b888210610c8e57505083600195969710610c75575b505050811b019055565b015160001960f88460031b161c19169055388080610c6b565b80600185968294968601518155019501930190610c56565b610caf81611542565b15610fe357600090808072184f03e93ff9f4daa797ed6e38ed64bf6a1f0160401b80821015610fd5575b506d04ee2d6d415b85acef810000000080831015610fc6575b50662386f26fc1000080831015610fb7575b506305f5e10080831015610fa8575b5061271080831015610f99575b506064821015610f89575b600a80921015610f7f575b600190816021610d47828801611142565b96870101905b610f49575b50505050610d5e61125b565b91610d67611379565b604051607b60f81b60208201529384926021840176226e616d65223a2022506978656c2043616e766173202360481b8152601701610da49161103d565b61088b60f21b81526002017f2265787465726e616c5f75726c223a2268747470733a2f2f7777772e676f6f678152681b194b9e1e5e8bc88b60ba1b60208201526029017f226465736372697074696f6e223a202243726561746564206279206120636f6d81527f756e697479206f6620617274697374732c206275696c646572732c207669736960208201527f6f6e61726965732c20696e766573746f727320616e6420646567656e732e222c6040820152606001691134b6b0b3b2911d101160b11b8152600a01610e759161103d565b61088b60f21b8152600201781130ba3a3934b13aba32b9911d2dbd9120b93a34b9ba111d1160391b8152601901610eab9161103d565b62227d5d60e81b8152600301607d60f81b81526001010391601f19928381018252610ed69082610852565b610edf90611174565b6040517f646174613a6170706c69636174696f6e2f6a736f6e3b6261736536342c000000602082015292908390603d8201610f199161103d565b039081018352610f299083610852565b610f3d90600052600a602052604060002090565b90610f4791610bd8565b565b600019019083906f181899199a1a9b1b9c1cb0b131b232b360811b8282061a835304918215610f7a57919082610d4d565b610d52565b9260010192610d36565b9290606460029104910192610d2b565b60049194920491019238610d20565b60089194920491019238610d13565b60109194920491019238610d04565b60209194920491019238610cf2565b604094508304915038610cd9565b60405162461bcd60e51b815260206004820152602c60248201527f4552433732314d657461646174613a2055524920736574206f66206e6f6e657860448201526b34b9ba32b73a103a37b5b2b760a11b6064820152608490fd5b906110506020928281519485920161020a565b0190565b6040519061106182610832565b60008252565b60405190606082018281106001600160401b0382111761084d57604052604082527f6768696a6b6c6d6e6f707172737475767778797a303132333435363738392b2f6040837f4142434445464748494a4b4c4d4e4f505152535455565758595a61626364656660208201520152565b634e487b7160e01b600052601160045260246000fd5b90600282018092116110fa57565b6110d6565b600281901b91906001600160fe1b038116036110fa57565b60405190608082018281106001600160401b0382111761084d57604052604282526060366020840137565b9061114c82610873565b6111596040519182610852565b828152809261116a601f1991610873565b0190602036910137565b80511561124657611183611067565b6111a76111a261119d61119685516110ec565b6003900490565b6110ff565b611142565b9160208301918182518301915b8282106111f4575050506003905106806001146111e1576002146111d6575090565b603d90600019015390565b50603d9081600019820153600119015390565b9091936004906003809401938451600190603f9082828260121c16880101518553828282600c1c16880101518386015382828260061c16880101516002860153168501015190820153019391906111b4565b50610263611054565b6040513d6000823e3d90fd5b6009546040516356b88f4f60e11b81526000918290829060049082906001600160a01b03165afa9182156113745780926112e5575b50506102636112a16112d792611174565b6040517f646174613a696d6167652f7376672b786d6c3b6261736536342c0000000000006020820152928391603a83019061103d565b03601f198101835282610852565b9091503d8082843e6112f78184610852565b82019160208184031261136c578051906001600160401b038211611370570182601f8201121561136c5780519161132d83610873565b9361133b6040519586610852565b83855260208484010111610343575082611365610263936112a1936020806112d79801910161020a565b9250611290565b5080fd5b8280fd5b61124f565b60095460405163a52f27b560e01b81526004916020908290849082906001600160a01b03165afa90811561137457600091611451575b5080916113ba611117565b9260306113c685611498565b5360786113d2856114a5565b5360415b6001811161140b57506113e857505090565b6040805163e22e27eb60e01b815291820192835260208084015290918291010390fd5b90600f811690601082101561144c57611447916f181899199a1a9b1b9c1cb0b131b232b360811b901a61143e84886114b5565b53831c916114c6565b6113d6565b611482565b906020823d821161147a575b8161146a60209383610852565b81010312610343575051386113af565b3d915061145d565b634e487b7160e01b600052603260045260246000fd5b80511561144c5760200190565b80516001101561144c5760210190565b90815181101561144c570160200190565b80156110fa576000190190565b80600090815481106114f2575b604051636f96cda160e11b8152600490fd5b81526004906020918083526040928383205494600160e01b861615611519575050506114e0565b93929190935b851561152d57505050505090565b6000190180835281855283832054955061151f565b60005481109081611551575090565b90506000526004602052600160e01b604060002054161590565b90611575836114d3565b6001600160a01b038381169282821684900361172c576000868152600660205260409020805490926115ba6001600160a01b03881633908114908414171590565b1590565b6116d1575b82169586156116bf57611612936115f0926116b5575b506001600160a01b0316600090815260056020526040902090565b80546000190190556001600160a01b0316600090815260056020526040902090565b80546001019055600160e11b804260a01b85171761163a866000526004602052604060002090565b5581161561166b575b507fddf252ad1be2c89b69c2b068fc378daa952ba7f163c4a11628f55a4df523b3ef600080a4565b60018401611683816000526004602052604060002090565b5415611690575b50611643565b600054811461168a576116ad906000526004602052604060002090565b55388061168a565b60009055386115d5565b604051633a954ecd60e21b8152600490fd5b6117156115b661170e336116f78b60018060a01b03166000526007602052604060002090565b9060018060a01b0316600052602052604060002090565b5460ff1690565b156115bf57604051632ce44b5f60e11b8152600490fd5b60405162a1148160e81b8152600490fd5b92919061174b82828661156b565b803b611758575b50505050565b611761936117f7565b1561176f5738808080611752565b6040516368d2bf6b60e11b8152600490fd5b9081602091031261016e57516102638161015c565b6001600160a01b0391821681529116602082015260408101919091526080606082018190526102639291019061022d565b3d156117f2573d906117d882610873565b916117e66040519384610852565b82523d6000602084013e565b606090565b92602091611820936000604051809681958294630a85bd0160e11b9a8b85523360048601611796565b03926001600160a01b03165af160009181611870575b50611862576118436117c7565b8051908161185d576040516368d2bf6b60e11b8152600490fd5b602001fd5b6001600160e01b0319161490565b61189291925060203d8111611899575b61188a8183610852565b810190611781565b9038611836565b503d611880565b600080546001600160a01b039290921680825260056020908152604080842080546801000000000000000101905584845260049091528220600160e11b4260a01b83171790556001808401937fddf252ad1be2c89b69c2b068fc378daa952ba7f163c4a11628f55a4df523b3ef908385838180a4845b85810361193957505050156119285755565b604051622e076360e81b8152600490fd5b8083918587858180a40161191656fea2646970667358221220639cb42b28fe4678f0564a90259361b879552965a01783fb9fb48a89828af2d264736f6c63430008140033","opcodes":"PUSH1 0x80 CALLVALUE PUSH3 0x3CF JUMPI PUSH1 0x1 PUSH1 0x1 PUSH1 0x40 SHL SUB SWAP1 PUSH1 0x1F NOT SWAP1 PUSH1 0x1F SWAP1 PUSH3 0x1D89 CODESIZE DUP2 SWAP1 SUB DUP4 DUP2 ADD DUP6 AND DUP4 ADD DUP7 DUP2 GT DUP5 DUP3 LT OR PUSH3 0x3D4 JUMPI DUP4 SWAP3 DUP3 SWAP2 PUSH1 0x40 MSTORE DUP4 CODECOPY PUSH1 0x20 SWAP3 DUP4 SWAP2 DUP2 ADD SUB SLT PUSH3 0x3CF JUMPI MLOAD PUSH1 0x1 PUSH1 0x1 PUSH1 0xA0 SHL SUB SWAP5 DUP6 DUP3 AND SWAP5 SWAP2 DUP6 SWAP1 SUB PUSH3 0x3CF JUMPI PUSH3 0x6A PUSH3 0x3EA JUMP JUMPDEST PUSH1 0x11 DUP2 MSTORE PUSH17 0x21B0B73B30B99021B7B63632B1BA34B7B7 PUSH1 0x79 SHL DUP5 DUP3 ADD MSTORE PUSH3 0x91 PUSH3 0x3EA JUMP JUMPDEST SWAP5 PUSH1 0x4 SWAP6 DUP7 DUP2 MSTORE PUSH4 0x434E5653 PUSH1 0xE0 SHL DUP7 DUP3 ADD MSTORE DUP3 MLOAD DUP5 DUP2 GT PUSH3 0x3BA JUMPI PUSH1 0x2 SLOAD SWAP4 PUSH1 0x1 SWAP5 DUP6 DUP2 DUP2 SHR SWAP2 AND DUP1 ISZERO PUSH3 0x3AF JUMPI JUMPDEST DUP10 DUP3 LT EQ PUSH3 0x39A JUMPI SWAP1 DUP2 DUP6 DUP5 SWAP4 GT PUSH3 0x343 JUMPI JUMPDEST POP DUP9 SWAP1 DUP6 DUP4 GT PUSH1 0x1 EQ PUSH3 0x2DD JUMPI PUSH1 0x0 SWAP3 PUSH3 0x2D1 JUMPI JUMPDEST POP POP PUSH1 0x0 NOT PUSH1 0x3 DUP4 SWAP1 SHL SHR NOT AND SWAP1 DUP5 SHL OR PUSH1 0x2 SSTORE JUMPDEST DUP1 MLOAD SWAP4 DUP5 GT PUSH3 0x2BC JUMPI PUSH1 0x3 SWAP6 DUP7 SLOAD DUP5 DUP2 DUP2 SHR SWAP2 AND DUP1 ISZERO PUSH3 0x2B1 JUMPI JUMPDEST DUP3 DUP3 LT EQ PUSH3 0x29C JUMPI DUP4 DUP2 GT PUSH3 0x251 JUMPI JUMPDEST POP DUP1 SWAP3 DUP6 GT PUSH1 0x1 EQ PUSH3 0x1E9 JUMPI POP DUP4 SWAP5 POP SWAP1 DUP4 SWAP3 SWAP2 PUSH1 0x0 SWAP5 PUSH3 0x1DD JUMPI JUMPDEST POP POP SHL SWAP2 PUSH1 0x0 NOT SWAP1 DUP5 SHL SHR NOT AND OR SWAP1 SSTORE JUMPDEST PUSH1 0x0 DUP1 SSTORE CALLER ISZERO PUSH3 0x1C5 JUMPI POP PUSH1 0x8 DUP1 SLOAD CALLER PUSH1 0x1 PUSH1 0x1 PUSH1 0xA0 SHL SUB NOT DUP1 DUP4 AND DUP3 OR SWAP1 SWAP4 SSTORE PUSH1 0x40 MLOAD SWAP5 SWAP1 SWAP2 AND PUSH32 0x8BE0079C531659141344CD1FD0A4F28419497F9722A3DAAFE3B4186F6B6457E0 PUSH1 0x0 DUP1 LOG3 PUSH1 0x9 SLOAD AND OR PUSH1 0x9 SSTORE PUSH2 0x197E SWAP1 DUP2 PUSH3 0x40B DUP3 CODECOPY RETURN JUMPDEST PUSH1 0x24 SWAP1 PUSH1 0x0 PUSH1 0x40 MLOAD SWAP2 PUSH4 0x1E4FBDF7 PUSH1 0xE0 SHL DUP4 MSTORE DUP3 ADD MSTORE REVERT JUMPDEST ADD MLOAD SWAP3 POP CODESIZE DUP1 PUSH3 0x151 JUMP JUMPDEST SWAP3 SWAP5 DUP5 SWAP1 DUP2 AND DUP8 PUSH1 0x0 MSTORE DUP5 PUSH1 0x0 KECCAK256 SWAP5 PUSH1 0x0 SWAP1 JUMPDEST DUP9 DUP4 DUP4 LT PUSH3 0x236 JUMPI POP POP POP LT PUSH3 0x21D JUMPI JUMPDEST POP POP POP DUP2 SHL ADD SWAP1 SSTORE PUSH3 0x162 JUMP JUMPDEST ADD MLOAD PUSH1 0x0 NOT DUP4 DUP7 SHL PUSH1 0xF8 AND SHR NOT AND SWAP1 SSTORE CODESIZE DUP1 DUP1 PUSH3 0x20F JUMP JUMPDEST DUP6 DUP8 ADD MLOAD DUP9 SSTORE SWAP1 SWAP7 ADD SWAP6 SWAP5 DUP6 ADD SWAP5 DUP8 SWAP4 POP SWAP1 DUP2 ADD SWAP1 PUSH3 0x1FC JUMP JUMPDEST DUP8 PUSH1 0x0 MSTORE DUP2 PUSH1 0x0 KECCAK256 DUP5 DUP1 DUP9 ADD PUSH1 0x5 SHR DUP3 ADD SWAP3 DUP5 DUP10 LT PUSH3 0x292 JUMPI JUMPDEST ADD PUSH1 0x5 SHR ADD SWAP1 DUP6 SWAP1 JUMPDEST DUP3 DUP2 LT PUSH3 0x285 JUMPI POP POP PUSH3 0x133 JUMP JUMPDEST PUSH1 0x0 DUP2 SSTORE ADD DUP6 SWAP1 PUSH3 0x275 JUMP JUMPDEST SWAP3 POP DUP2 SWAP3 PUSH3 0x26C JUMP JUMPDEST PUSH1 0x22 DUP10 PUSH4 0x4E487B71 PUSH1 0xE0 SHL PUSH1 0x0 MSTORE MSTORE PUSH1 0x24 PUSH1 0x0 REVERT JUMPDEST SWAP1 PUSH1 0x7F AND SWAP1 PUSH3 0x121 JUMP JUMPDEST PUSH1 0x41 DUP8 PUSH4 0x4E487B71 PUSH1 0xE0 SHL PUSH1 0x0 MSTORE MSTORE PUSH1 0x24 PUSH1 0x0 REVERT JUMPDEST ADD MLOAD SWAP1 POP CODESIZE DUP1 PUSH3 0xEF JUMP JUMPDEST SWAP1 DUP9 DUP8 SWAP5 AND SWAP2 PUSH1 0x2 PUSH1 0x0 MSTORE DUP11 PUSH1 0x0 KECCAK256 SWAP3 PUSH1 0x0 JUMPDEST DUP13 DUP3 DUP3 LT PUSH3 0x32C JUMPI POP POP DUP5 GT PUSH3 0x312 JUMPI JUMPDEST POP POP POP DUP2 SHL ADD PUSH1 0x2 SSTORE PUSH3 0x104 JUMP JUMPDEST ADD MLOAD PUSH1 0x0 NOT PUSH1 0xF8 DUP5 PUSH1 0x3 SHL AND SHR NOT AND SWAP1 SSTORE CODESIZE DUP1 DUP1 PUSH3 0x303 JUMP JUMPDEST DUP4 DUP6 ADD MLOAD DUP7 SSTORE DUP11 SWAP8 SWAP1 SWAP6 ADD SWAP5 SWAP4 DUP5 ADD SWAP4 ADD PUSH3 0x2F0 JUMP JUMPDEST SWAP1 SWAP2 POP PUSH1 0x2 PUSH1 0x0 MSTORE DUP9 PUSH1 0x0 KECCAK256 DUP6 DUP1 DUP6 ADD PUSH1 0x5 SHR DUP3 ADD SWAP3 DUP12 DUP7 LT PUSH3 0x390 JUMPI JUMPDEST SWAP2 DUP9 SWAP2 DUP7 SWAP6 SWAP5 SWAP4 ADD PUSH1 0x5 SHR ADD SWAP2 JUMPDEST DUP3 DUP2 LT PUSH3 0x380 JUMPI POP POP PUSH3 0xD8 JUMP JUMPDEST PUSH1 0x0 DUP2 SSTORE DUP6 SWAP5 POP DUP9 SWAP2 ADD PUSH3 0x370 JUMP JUMPDEST SWAP3 POP DUP2 SWAP3 PUSH3 0x362 JUMP JUMPDEST PUSH1 0x22 DUP11 PUSH4 0x4E487B71 PUSH1 0xE0 SHL PUSH1 0x0 MSTORE MSTORE PUSH1 0x24 PUSH1 0x0 REVERT JUMPDEST SWAP1 PUSH1 0x7F AND SWAP1 PUSH3 0xC3 JUMP JUMPDEST PUSH1 0x41 DUP9 PUSH4 0x4E487B71 PUSH1 0xE0 SHL PUSH1 0x0 MSTORE MSTORE PUSH1 0x24 PUSH1 0x0 REVERT JUMPDEST PUSH1 0x0 DUP1 REVERT JUMPDEST PUSH4 0x4E487B71 PUSH1 0xE0 SHL PUSH1 0x0 MSTORE PUSH1 0x41 PUSH1 0x4 MSTORE PUSH1 0x24 PUSH1 0x0 REVERT JUMPDEST PUSH1 0x40 DUP1 MLOAD SWAP2 SWAP1 DUP3 ADD PUSH1 0x1 PUSH1 0x1 PUSH1 0x40 SHL SUB DUP2 GT DUP4 DUP3 LT OR PUSH3 0x3D4 JUMPI PUSH1 0x40 MSTORE JUMP INVALID PUSH1 0x80 PUSH1 0x40 MSTORE PUSH1 0x4 CALLDATASIZE LT ISZERO PUSH2 0x12 JUMPI PUSH1 0x0 DUP1 REVERT JUMPDEST PUSH1 0x0 CALLDATALOAD PUSH1 0xE0 SHR DUP1 PUSH4 0x1FFC9A7 EQ PUSH2 0x157 JUMPI DUP1 PUSH4 0x3D18E07 EQ PUSH2 0x152 JUMPI DUP1 PUSH4 0x6FDDE03 EQ PUSH2 0x14D JUMPI DUP1 PUSH4 0x81812FC EQ PUSH2 0x148 JUMPI DUP1 PUSH4 0x95EA7B3 EQ PUSH2 0x143 JUMPI DUP1 PUSH4 0x18160DDD EQ PUSH2 0x13E JUMPI DUP1 PUSH4 0x23B872DD EQ PUSH2 0x139 JUMPI DUP1 PUSH4 0x42842E0E EQ PUSH2 0x134 JUMPI DUP1 PUSH4 0x6352211E EQ PUSH2 0x12F JUMPI DUP1 PUSH4 0x6A627842 EQ PUSH2 0x12A JUMPI DUP1 PUSH4 0x70A08231 EQ PUSH2 0x125 JUMPI DUP1 PUSH4 0x715018A6 EQ PUSH2 0x120 JUMPI DUP1 PUSH4 0x8DA5CB5B EQ PUSH2 0x11B JUMPI DUP1 PUSH4 0x95D89B41 EQ PUSH2 0x116 JUMPI DUP1 PUSH4 0xA22CB465 EQ PUSH2 0x111 JUMPI DUP1 PUSH4 0xACD7CBAB EQ PUSH2 0x10C JUMPI DUP1 PUSH4 0xB88D4FDE EQ PUSH2 0x107 JUMPI DUP1 PUSH4 0xC87B56DD EQ PUSH2 0x102 JUMPI DUP1 PUSH4 0xE985E9C5 EQ PUSH2 0xFD JUMPI PUSH4 0xF2FDE38B EQ PUSH2 0xF8 JUMPI PUSH1 0x0 DUP1 REVERT JUMPDEST PUSH2 0xA96 JUMP JUMPDEST PUSH2 0xA39 JUMP JUMPDEST PUSH2 0x911 JUMP JUMPDEST PUSH2 0x88E JUMP JUMPDEST PUSH2 0x7D9 JUMP JUMPDEST PUSH2 0x74B JUMP JUMPDEST PUSH2 0x6A7 JUMP JUMPDEST PUSH2 0x67E JUMP JUMPDEST PUSH2 0x620 JUMP JUMPDEST PUSH2 0x5C5 JUMP JUMPDEST PUSH2 0x53B JUMP JUMPDEST PUSH2 0x50C JUMP JUMPDEST PUSH2 0x4E9 JUMP JUMPDEST PUSH2 0x4D5 JUMP JUMPDEST PUSH2 0x47D JUMP JUMPDEST PUSH2 0x3C6 JUMP JUMPDEST PUSH2 0x346 JUMP JUMPDEST PUSH2 0x266 JUMP JUMPDEST PUSH2 0x1E1 JUMP JUMPDEST PUSH2 0x173 JUMP JUMPDEST PUSH1 0x1 PUSH1 0x1 PUSH1 0xE0 SHL SUB NOT DUP2 AND SUB PUSH2 0x16E JUMPI JUMP JUMPDEST PUSH1 0x0 DUP1 REVERT JUMPDEST CALLVALUE PUSH2 0x16E JUMPI PUSH1 0x20 CALLDATASIZE PUSH1 0x3 NOT ADD SLT PUSH2 0x16E JUMPI PUSH1 0x20 PUSH1 0x4 CALLDATALOAD PUSH2 0x192 DUP2 PUSH2 0x15C JUMP JUMPDEST PUSH4 0xFFFFFFFF PUSH1 0xE0 SHL AND PUSH4 0x1FFC9A7 PUSH1 0xE0 SHL DUP2 EQ SWAP1 DUP2 ISZERO PUSH2 0x1D0 JUMPI JUMPDEST DUP2 ISZERO PUSH2 0x1BF JUMPI JUMPDEST POP PUSH1 0x40 MLOAD SWAP1 ISZERO ISZERO DUP2 MSTORE RETURN JUMPDEST PUSH4 0x5B5E139F PUSH1 0xE0 SHL EQ SWAP1 POP CODESIZE PUSH2 0x1B4 JUMP JUMPDEST PUSH4 0x80AC58CD PUSH1 0xE0 SHL DUP2 EQ SWAP2 POP PUSH2 0x1AD JUMP JUMPDEST CALLVALUE PUSH2 0x16E JUMPI PUSH1 0x0 CALLDATASIZE PUSH1 0x3 NOT ADD SLT PUSH2 0x16E JUMPI PUSH1 0x9 SLOAD PUSH1 0x40 MLOAD PUSH1 0x1 PUSH1 0x1 PUSH1 0xA0 SHL SUB SWAP1 SWAP2 AND DUP2 MSTORE PUSH1 0x20 SWAP1 RETURN JUMPDEST PUSH1 0x0 JUMPDEST DUP4 DUP2 LT PUSH2 0x21D JUMPI POP POP PUSH1 0x0 SWAP2 ADD MSTORE JUMP JUMPDEST DUP2 DUP2 ADD MLOAD DUP4 DUP3 ADD MSTORE PUSH1 0x20 ADD PUSH2 0x20D JUMP JUMPDEST SWAP1 PUSH1 0x20 SWAP2 PUSH2 0x246 DUP2 MLOAD DUP1 SWAP3 DUP2 DUP6 MSTORE DUP6 DUP1 DUP7 ADD SWAP2 ADD PUSH2 0x20A JUMP JUMPDEST PUSH1 0x1F ADD PUSH1 0x1F NOT AND ADD ADD SWAP1 JUMP JUMPDEST SWAP1 PUSH1 0x20 PUSH2 0x263 SWAP3 DUP2 DUP2 MSTORE ADD SWAP1 PUSH2 0x22D JUMP JUMPDEST SWAP1 JUMP JUMPDEST CALLVALUE PUSH2 0x16E JUMPI PUSH1 0x0 DUP1 PUSH1 0x3 NOT CALLDATASIZE ADD SLT PUSH2 0x343 JUMPI PUSH1 0x40 MLOAD DUP2 PUSH1 0x2 SLOAD PUSH2 0x288 DUP2 PUSH2 0xB4A JUMP JUMPDEST DUP1 DUP5 MSTORE SWAP1 PUSH1 0x1 SWAP1 DUP2 DUP2 AND SWAP1 DUP2 ISZERO PUSH2 0x31B JUMPI POP PUSH1 0x1 EQ PUSH2 0x2C2 JUMPI JUMPDEST PUSH2 0x2BE DUP5 PUSH2 0x2B2 DUP2 DUP9 SUB DUP3 PUSH2 0x852 JUMP JUMPDEST PUSH1 0x40 MLOAD SWAP2 DUP3 SWAP2 DUP3 PUSH2 0x252 JUMP JUMPDEST SUB SWAP1 RETURN JUMPDEST PUSH1 0x2 DUP4 MSTORE PUSH1 0x20 SWAP5 POP PUSH32 0x405787FA12A823E0F2B7631CC41B3BA8828B3321CA811111FA75CD3AA3BB5ACE JUMPDEST DUP3 DUP5 LT PUSH2 0x308 JUMPI POP POP POP DUP2 PUSH2 0x2BE SWAP4 PUSH2 0x2B2 SWAP3 DUP3 ADD ADD SWAP4 PUSH2 0x2A2 JUMP JUMPDEST DUP1 SLOAD DUP6 DUP6 ADD DUP8 ADD MSTORE SWAP3 DUP6 ADD SWAP3 DUP2 ADD PUSH2 0x2EC JUMP JUMPDEST PUSH2 0x2BE SWAP7 POP PUSH2 0x2B2 SWAP5 POP PUSH1 0x20 SWAP3 POP DUP6 SWAP4 SWAP2 POP PUSH1 0xFF NOT AND DUP3 DUP5 ADD MSTORE ISZERO ISZERO PUSH1 0x5 SHL DUP3 ADD ADD SWAP4 PUSH2 0x2A2 JUMP JUMPDEST DUP1 REVERT JUMPDEST CALLVALUE PUSH2 0x16E JUMPI PUSH1 0x20 CALLDATASIZE PUSH1 0x3 NOT ADD SLT PUSH2 0x16E JUMPI PUSH1 0x4 CALLDATALOAD PUSH2 0x363 DUP2 PUSH2 0x1542 JUMP JUMPDEST ISZERO PUSH2 0x388 JUMPI PUSH1 0x0 MSTORE PUSH1 0x6 PUSH1 0x20 MSTORE PUSH1 0x20 PUSH1 0x1 DUP1 PUSH1 0xA0 SHL SUB PUSH1 0x40 PUSH1 0x0 KECCAK256 SLOAD AND PUSH1 0x40 MLOAD SWAP1 DUP2 MSTORE RETURN JUMPDEST PUSH1 0x40 MLOAD PUSH4 0x33D1C039 PUSH1 0xE2 SHL DUP2 MSTORE PUSH1 0x4 SWAP1 REVERT JUMPDEST PUSH1 0x4 CALLDATALOAD SWAP1 PUSH1 0x1 PUSH1 0x1 PUSH1 0xA0 SHL SUB DUP3 AND DUP3 SUB PUSH2 0x16E JUMPI JUMP JUMPDEST PUSH1 0x24 CALLDATALOAD SWAP1 PUSH1 0x1 PUSH1 0x1 PUSH1 0xA0 SHL SUB DUP3 AND DUP3 SUB PUSH2 0x16E JUMPI JUMP JUMPDEST PUSH1 0x40 CALLDATASIZE PUSH1 0x3 NOT ADD SLT PUSH2 0x16E JUMPI PUSH2 0x3DA PUSH2 0x39A JUMP JUMPDEST PUSH1 0x24 CALLDATALOAD PUSH1 0x1 PUSH1 0x1 PUSH1 0xA0 SHL SUB DUP1 PUSH2 0x3EF DUP4 PUSH2 0x14D3 JUMP JUMPDEST AND SWAP1 DUP2 CALLER SUB PUSH2 0x44A JUMPI JUMPDEST PUSH1 0x0 DUP4 DUP2 MSTORE PUSH1 0x6 PUSH1 0x20 MSTORE PUSH1 0x40 DUP2 KECCAK256 DUP1 SLOAD PUSH1 0x1 PUSH1 0x1 PUSH1 0xA0 SHL SUB NOT AND PUSH1 0x1 PUSH1 0x1 PUSH1 0xA0 SHL SUB DUP8 AND OR SWAP1 SSTORE SWAP4 AND SWAP1 PUSH32 0x8C5BE1E5EBEC7D5BD14F71427D1E84F3DD0314C0F7B2291E5B200AC8C7C3B925 DUP5 DUP1 LOG4 DUP1 RETURN JUMPDEST PUSH1 0x0 DUP3 DUP2 MSTORE PUSH1 0x7 PUSH1 0x20 SWAP1 DUP2 MSTORE PUSH1 0x40 DUP1 DUP4 KECCAK256 CALLER DUP5 MSTORE SWAP1 SWAP2 MSTORE SWAP1 KECCAK256 SLOAD PUSH1 0xFF AND PUSH2 0x3F9 JUMPI PUSH1 0x40 MLOAD PUSH4 0x67D9DCA1 PUSH1 0xE1 SHL DUP2 MSTORE PUSH1 0x4 SWAP1 REVERT JUMPDEST CALLVALUE PUSH2 0x16E JUMPI PUSH1 0x0 CALLDATASIZE PUSH1 0x3 NOT ADD SLT PUSH2 0x16E JUMPI PUSH1 0x20 PUSH1 0x0 SLOAD PUSH1 0x1 SLOAD SWAP1 SUB PUSH1 0x40 MLOAD SWAP1 DUP2 MSTORE RETURN JUMPDEST PUSH1 0x60 SWAP1 PUSH1 0x3 NOT ADD SLT PUSH2 0x16E JUMPI PUSH1 0x1 PUSH1 0x1 PUSH1 0xA0 SHL SUB SWAP1 PUSH1 0x4 CALLDATALOAD DUP3 DUP2 AND DUP2 SUB PUSH2 0x16E JUMPI SWAP2 PUSH1 0x24 CALLDATALOAD SWAP1 DUP2 AND DUP2 SUB PUSH2 0x16E JUMPI SWAP1 PUSH1 0x44 CALLDATALOAD SWAP1 JUMP JUMPDEST PUSH2 0x4E7 PUSH2 0x4E1 CALLDATASIZE PUSH2 0x4A0 JUMP JUMPDEST SWAP2 PUSH2 0x156B JUMP JUMPDEST STOP JUMPDEST PUSH2 0x4E7 PUSH2 0x4F5 CALLDATASIZE PUSH2 0x4A0 JUMP JUMPDEST SWAP1 PUSH1 0x40 MLOAD SWAP3 PUSH2 0x503 DUP5 PUSH2 0x832 JUMP JUMPDEST PUSH1 0x0 DUP5 MSTORE PUSH2 0x173D JUMP JUMPDEST CALLVALUE PUSH2 0x16E JUMPI PUSH1 0x20 CALLDATASIZE PUSH1 0x3 NOT ADD SLT PUSH2 0x16E JUMPI PUSH1 0x20 PUSH1 0x1 PUSH1 0x1 PUSH1 0xA0 SHL SUB PUSH2 0x532 PUSH1 0x4 CALLDATALOAD PUSH2 0x14D3 JUMP JUMPDEST AND PUSH1 0x40 MLOAD SWAP1 DUP2 MSTORE RETURN JUMPDEST CALLVALUE PUSH2 0x16E JUMPI PUSH1 0x20 CALLDATASIZE PUSH1 0x3 NOT ADD SLT PUSH2 0x16E JUMPI PUSH2 0x554 PUSH2 0x39A JUMP JUMPDEST PUSH1 0x9 SLOAD PUSH1 0x1 PUSH1 0x1 PUSH1 0xA0 SHL SUB AND CALLER SUB PUSH2 0x580 JUMPI PUSH2 0x4E7 SWAP1 PUSH2 0x57B PUSH1 0x0 SLOAD PUSH1 0x1 SLOAD SWAP1 SUB SWAP2 PUSH2 0x18A0 JUMP JUMPDEST PUSH2 0xCA6 JUMP JUMPDEST PUSH1 0x40 MLOAD PUSH3 0x461BCD PUSH1 0xE5 SHL DUP2 MSTORE PUSH1 0x20 PUSH1 0x4 DUP3 ADD MSTORE PUSH1 0x1F PUSH1 0x24 DUP3 ADD MSTORE PUSH32 0x4F6E6C7920506978656C6D617020636F6E74726163742063616E206D696E7400 PUSH1 0x44 DUP3 ADD MSTORE PUSH1 0x64 SWAP1 REVERT JUMPDEST CALLVALUE PUSH2 0x16E JUMPI PUSH1 0x20 CALLDATASIZE PUSH1 0x3 NOT ADD SLT PUSH2 0x16E JUMPI PUSH1 0x1 PUSH1 0x1 PUSH1 0xA0 SHL SUB PUSH2 0x5E6 PUSH2 0x39A JUMP JUMPDEST AND DUP1 ISZERO PUSH2 0x60E JUMPI PUSH1 0x0 MSTORE PUSH1 0x5 PUSH1 0x20 MSTORE PUSH1 0x20 PUSH1 0x1 PUSH1 0x1 PUSH1 0x40 SHL SUB PUSH1 0x40 PUSH1 0x0 KECCAK256 SLOAD AND PUSH1 0x40 MLOAD SWAP1 DUP2 MSTORE RETURN JUMPDEST PUSH1 0x40 MLOAD PUSH4 0x23D3AD81 PUSH1 0xE2 SHL DUP2 MSTORE PUSH1 0x4 SWAP1 REVERT JUMPDEST CALLVALUE PUSH2 0x16E JUMPI PUSH1 0x0 DUP1 PUSH1 0x3 NOT CALLDATASIZE ADD SLT PUSH2 0x343 JUMPI PUSH2 0x63A PUSH2 0xB1E JUMP JUMPDEST PUSH1 0x8 DUP1 SLOAD PUSH1 0x1 PUSH1 0x1 PUSH1 0xA0 SHL SUB NOT DUP2 AND SWAP1 SWAP2 SSTORE DUP2 SWAP1 PUSH1 0x1 PUSH1 0x1 PUSH1 0xA0 SHL SUB AND PUSH32 0x8BE0079C531659141344CD1FD0A4F28419497F9722A3DAAFE3B4186F6B6457E0 DUP3 DUP1 LOG3 DUP1 RETURN JUMPDEST CALLVALUE PUSH2 0x16E JUMPI PUSH1 0x0 CALLDATASIZE PUSH1 0x3 NOT ADD SLT PUSH2 0x16E JUMPI PUSH1 0x8 SLOAD PUSH1 0x40 MLOAD PUSH1 0x1 PUSH1 0x1 PUSH1 0xA0 SHL SUB SWAP1 SWAP2 AND DUP2 MSTORE PUSH1 0x20 SWAP1 RETURN JUMPDEST CALLVALUE PUSH2 0x16E JUMPI PUSH1 0x0 DUP1 PUSH1 0x3 NOT CALLDATASIZE ADD SLT PUSH2 0x343 JUMPI PUSH1 0x40 MLOAD DUP2 PUSH1 0x3 SLOAD PUSH2 0x6C9 DUP2 PUSH2 0xB4A JUMP JUMPDEST DUP1 DUP5 MSTORE SWAP1 PUSH1 0x1 SWAP1 DUP2 DUP2 AND SWAP1 DUP2 ISZERO PUSH2 0x31B JUMPI POP PUSH1 0x1 EQ PUSH2 0x6F2 JUMPI PUSH2 0x2BE DUP5 PUSH2 0x2B2 DUP2 DUP9 SUB DUP3 PUSH2 0x852 JUMP JUMPDEST PUSH1 0x3 DUP4 MSTORE PUSH1 0x20 SWAP5 POP PUSH32 0xC2575A0E9E593C00F959F8C92F12DB2869C3395A3B0502D05E2516446F71F85B JUMPDEST DUP3 DUP5 LT PUSH2 0x738 JUMPI POP POP POP DUP2 PUSH2 0x2BE SWAP4 PUSH2 0x2B2 SWAP3 DUP3 ADD ADD SWAP4 PUSH2 0x2A2 JUMP JUMPDEST DUP1 SLOAD DUP6 DUP6 ADD DUP8 ADD MSTORE SWAP3 DUP6 ADD SWAP3 DUP2 ADD PUSH2 0x71C JUMP JUMPDEST CALLVALUE PUSH2 0x16E JUMPI PUSH1 0x40 CALLDATASIZE PUSH1 0x3 NOT ADD SLT PUSH2 0x16E JUMPI PUSH2 0x764 PUSH2 0x39A JUMP JUMPDEST PUSH1 0x24 CALLDATALOAD SWAP1 DUP2 ISZERO ISZERO DUP1 SWAP3 SUB PUSH2 0x16E JUMPI CALLER PUSH1 0x0 SWAP1 DUP2 MSTORE PUSH1 0x7 PUSH1 0x20 SWAP1 DUP2 MSTORE PUSH1 0x40 DUP1 DUP4 KECCAK256 PUSH1 0x1 PUSH1 0x1 PUSH1 0xA0 SHL SUB DUP6 AND DUP5 MSTORE SWAP1 SWAP2 MSTORE SWAP1 KECCAK256 PUSH1 0xFF NOT DUP2 SLOAD AND PUSH1 0xFF DUP5 AND OR SWAP1 SSTORE PUSH1 0x40 MLOAD SWAP2 DUP3 MSTORE PUSH1 0x1 DUP1 PUSH1 0xA0 SHL SUB AND SWAP1 PUSH32 0x17307EAB39AB6107E8899845AD3D59BD9653F200F220920489CA2B5937696C31 PUSH1 0x20 CALLER SWAP3 LOG3 STOP JUMPDEST CALLVALUE PUSH2 0x16E JUMPI PUSH1 0x20 CALLDATASIZE PUSH1 0x3 NOT ADD SLT PUSH2 0x16E JUMPI PUSH2 0x7F2 PUSH2 0x39A JUMP JUMPDEST PUSH2 0x7FA PUSH2 0xB1E JUMP JUMPDEST PUSH1 0x9 DUP1 SLOAD PUSH1 0x1 PUSH1 0x1 PUSH1 0xA0 SHL SUB NOT AND PUSH1 0x1 PUSH1 0x1 PUSH1 0xA0 SHL SUB SWAP3 SWAP1 SWAP3 AND SWAP2 SWAP1 SWAP2 OR SWAP1 SSTORE STOP JUMPDEST PUSH4 0x4E487B71 PUSH1 0xE0 SHL PUSH1 0x0 MSTORE PUSH1 0x41 PUSH1 0x4 MSTORE PUSH1 0x24 PUSH1 0x0 REVERT JUMPDEST PUSH1 0x20 DUP2 ADD SWAP1 DUP2 LT PUSH1 0x1 PUSH1 0x1 PUSH1 0x40 SHL SUB DUP3 GT OR PUSH2 0x84D JUMPI PUSH1 0x40 MSTORE JUMP JUMPDEST PUSH2 0x81C JUMP JUMPDEST SWAP1 PUSH1 0x1F DUP1 NOT SWAP2 ADD AND DUP2 ADD SWAP1 DUP2 LT PUSH1 0x1 PUSH1 0x1 PUSH1 0x40 SHL SUB DUP3 GT OR PUSH2 0x84D JUMPI PUSH1 0x40 MSTORE JUMP JUMPDEST PUSH1 0x1 PUSH1 0x1 PUSH1 0x40 SHL SUB DUP2 GT PUSH2 0x84D JUMPI PUSH1 0x1F ADD PUSH1 0x1F NOT AND PUSH1 0x20 ADD SWAP1 JUMP JUMPDEST PUSH1 0x80 CALLDATASIZE PUSH1 0x3 NOT ADD SLT PUSH2 0x16E JUMPI PUSH2 0x8A2 PUSH2 0x39A JUMP JUMPDEST PUSH2 0x8AA PUSH2 0x3B0 JUMP JUMPDEST PUSH1 0x64 CALLDATALOAD SWAP2 PUSH1 0x1 PUSH1 0x1 PUSH1 0x40 SHL SUB DUP4 GT PUSH2 0x16E JUMPI CALLDATASIZE PUSH1 0x23 DUP5 ADD SLT ISZERO PUSH2 0x16E JUMPI DUP3 PUSH1 0x4 ADD CALLDATALOAD SWAP2 PUSH2 0x8D6 DUP4 PUSH2 0x873 JUMP JUMPDEST SWAP3 PUSH2 0x8E4 PUSH1 0x40 MLOAD SWAP5 DUP6 PUSH2 0x852 JUMP JUMPDEST DUP1 DUP5 MSTORE CALLDATASIZE PUSH1 0x24 DUP3 DUP8 ADD ADD GT PUSH2 0x16E JUMPI PUSH1 0x20 DUP2 PUSH1 0x0 SWAP3 PUSH1 0x24 PUSH2 0x4E7 SWAP9 ADD DUP4 DUP9 ADD CALLDATACOPY DUP6 ADD ADD MSTORE PUSH1 0x44 CALLDATALOAD SWAP2 PUSH2 0x173D JUMP JUMPDEST CALLVALUE PUSH2 0x16E JUMPI PUSH1 0x20 DUP1 PUSH1 0x3 NOT CALLDATASIZE ADD SLT PUSH2 0x16E JUMPI PUSH1 0x4 CALLDATALOAD SWAP1 PUSH2 0x930 DUP3 PUSH2 0x1542 JUMP JUMPDEST ISZERO PUSH2 0x9DD JUMPI PUSH1 0x0 SWAP2 DUP3 MSTORE PUSH1 0xA DUP2 MSTORE PUSH1 0x40 DUP3 KECCAK256 SWAP1 PUSH1 0x40 MLOAD SWAP2 DUP4 DUP2 SLOAD SWAP1 PUSH2 0x954 DUP3 PUSH2 0xB4A JUMP JUMPDEST DUP1 DUP7 MSTORE SWAP3 PUSH1 0x1 SWAP3 DUP1 DUP5 AND SWAP1 DUP2 ISZERO PUSH2 0x9B9 JUMPI POP PUSH1 0x1 EQ PUSH2 0x97E JUMPI JUMPDEST PUSH2 0x2BE DUP7 PUSH2 0x2B2 DUP2 DUP11 SUB DUP3 PUSH2 0x852 JUMP JUMPDEST SWAP1 DUP1 SWAP5 SWAP7 POP MSTORE DUP5 DUP4 KECCAK256 JUMPDEST DUP3 DUP5 LT PUSH2 0x9A6 JUMPI POP POP POP DUP2 PUSH2 0x2BE SWAP4 PUSH2 0x2B2 SWAP3 DUP3 ADD ADD SWAP4 CODESIZE DUP1 PUSH2 0x96E JUMP JUMPDEST DUP1 SLOAD DUP6 DUP6 ADD DUP8 ADD MSTORE SWAP3 DUP6 ADD SWAP3 DUP2 ADD PUSH2 0x988 JUMP JUMPDEST PUSH1 0xFF NOT AND DUP8 DUP8 ADD MSTORE POP POP POP POP ISZERO ISZERO PUSH1 0x5 SHL DUP3 ADD ADD SWAP2 POP PUSH2 0x2B2 DUP2 PUSH2 0x2BE CODESIZE DUP1 PUSH2 0x96E JUMP JUMPDEST PUSH1 0x84 SWAP1 PUSH1 0x40 MLOAD SWAP1 PUSH3 0x461BCD PUSH1 0xE5 SHL DUP3 MSTORE PUSH1 0x4 DUP3 ADD MSTORE PUSH1 0x2F PUSH1 0x24 DUP3 ADD MSTORE PUSH32 0x4552433732314D657461646174613A2055524920717565727920666F72206E6F PUSH1 0x44 DUP3 ADD MSTORE PUSH15 0x3732BC34B9BA32B73A103A37B5B2B7 PUSH1 0x89 SHL PUSH1 0x64 DUP3 ADD MSTORE REVERT JUMPDEST CALLVALUE PUSH2 0x16E JUMPI PUSH1 0x40 CALLDATASIZE PUSH1 0x3 NOT ADD SLT PUSH2 0x16E JUMPI PUSH1 0x20 PUSH1 0xFF PUSH2 0xA8A PUSH2 0xA59 PUSH2 0x39A JUMP JUMPDEST PUSH2 0xA61 PUSH2 0x3B0 JUMP JUMPDEST PUSH1 0x1 PUSH1 0x1 PUSH1 0xA0 SHL SUB SWAP2 DUP3 AND PUSH1 0x0 SWAP1 DUP2 MSTORE PUSH1 0x7 DUP7 MSTORE PUSH1 0x40 DUP1 DUP3 KECCAK256 SWAP3 SWAP1 SWAP4 AND DUP2 MSTORE PUSH1 0x20 SWAP2 SWAP1 SWAP2 MSTORE KECCAK256 SWAP1 JUMP JUMPDEST SLOAD AND PUSH1 0x40 MLOAD SWAP1 ISZERO ISZERO DUP2 MSTORE RETURN JUMPDEST CALLVALUE PUSH2 0x16E JUMPI PUSH1 0x20 CALLDATASIZE PUSH1 0x3 NOT ADD SLT PUSH2 0x16E JUMPI PUSH2 0xAAF PUSH2 0x39A JUMP JUMPDEST PUSH2 0xAB7 PUSH2 0xB1E JUMP JUMPDEST PUSH1 0x1 PUSH1 0x1 PUSH1 0xA0 SHL SUB SWAP1 DUP2 AND SWAP1 DUP2 ISZERO PUSH2 0xB05 JUMPI PUSH1 0x8 DUP1 SLOAD PUSH1 0x1 PUSH1 0x1 PUSH1 0xA0 SHL SUB NOT DUP2 AND DUP5 OR SWAP1 SWAP2 SSTORE AND PUSH32 0x8BE0079C531659141344CD1FD0A4F28419497F9722A3DAAFE3B4186F6B6457E0 PUSH1 0x0 DUP1 LOG3 STOP JUMPDEST PUSH1 0x40 MLOAD PUSH4 0x1E4FBDF7 PUSH1 0xE0 SHL DUP2 MSTORE PUSH1 0x0 PUSH1 0x4 DUP3 ADD MSTORE PUSH1 0x24 SWAP1 REVERT JUMPDEST PUSH1 0x8 SLOAD PUSH1 0x1 PUSH1 0x1 PUSH1 0xA0 SHL SUB AND CALLER SUB PUSH2 0xB32 JUMPI JUMP JUMPDEST PUSH1 0x40 MLOAD PUSH4 0x118CDAA7 PUSH1 0xE0 SHL DUP2 MSTORE CALLER PUSH1 0x4 DUP3 ADD MSTORE PUSH1 0x24 SWAP1 REVERT JUMPDEST SWAP1 PUSH1 0x1 DUP3 DUP2 SHR SWAP3 AND DUP1 ISZERO PUSH2 0xB7A JUMPI JUMPDEST PUSH1 0x20 DUP4 LT EQ PUSH2 0xB64 JUMPI JUMP JUMPDEST PUSH4 0x4E487B71 PUSH1 0xE0 SHL PUSH1 0x0 MSTORE PUSH1 0x22 PUSH1 0x4 MSTORE PUSH1 0x24 PUSH1 0x0 REVERT JUMPDEST SWAP2 PUSH1 0x7F AND SWAP2 PUSH2 0xB59 JUMP JUMPDEST SWAP1 PUSH1 0x1F DUP2 GT PUSH2 0xB92 JUMPI POP POP POP JUMP JUMPDEST PUSH1 0x0 SWAP2 DUP3 MSTORE PUSH1 0x20 DUP3 KECCAK256 SWAP1 PUSH1 0x20 PUSH1 0x1F DUP6 ADD PUSH1 0x5 SHR DUP4 ADD SWAP5 LT PUSH2 0xBCE JUMPI JUMPDEST PUSH1 0x1F ADD PUSH1 0x5 SHR ADD SWAP2 JUMPDEST DUP3 DUP2 LT PUSH2 0xBC3 JUMPI POP POP POP JUMP JUMPDEST DUP2 DUP2 SSTORE PUSH1 0x1 ADD PUSH2 0xBB7 JUMP JUMPDEST SWAP1 SWAP3 POP DUP3 SWAP1 PUSH2 0xBAE JUMP JUMPDEST SWAP2 SWAP1 SWAP2 DUP3 MLOAD PUSH1 0x1 PUSH1 0x1 PUSH1 0x40 SHL SUB DUP2 GT PUSH2 0x84D JUMPI PUSH2 0xBFF DUP2 PUSH2 0xBF9 DUP5 SLOAD PUSH2 0xB4A JUMP JUMPDEST DUP5 PUSH2 0xB84 JUMP JUMPDEST PUSH1 0x20 DUP1 PUSH1 0x1F DUP4 GT PUSH1 0x1 EQ PUSH2 0xC3B JUMPI POP DUP2 SWAP3 SWAP4 SWAP5 PUSH1 0x0 SWAP3 PUSH2 0xC30 JUMPI JUMPDEST POP POP DUP2 PUSH1 0x1 SHL SWAP2 PUSH1 0x0 NOT SWAP1 PUSH1 0x3 SHL SHR NOT AND OR SWAP1 SSTORE JUMP JUMPDEST ADD MLOAD SWAP1 POP CODESIZE DUP1 PUSH2 0xC1A JUMP JUMPDEST SWAP1 PUSH1 0x1F NOT DUP4 AND SWAP6 PUSH2 0xC51 DUP6 PUSH1 0x0 MSTORE PUSH1 0x20 PUSH1 0x0 KECCAK256 SWAP1 JUMP JUMPDEST SWAP3 PUSH1 0x0 SWAP1 JUMPDEST DUP9 DUP3 LT PUSH2 0xC8E JUMPI POP POP DUP4 PUSH1 0x1 SWAP6 SWAP7 SWAP8 LT PUSH2 0xC75 JUMPI JUMPDEST POP POP POP DUP2 SHL ADD SWAP1 SSTORE JUMP JUMPDEST ADD MLOAD PUSH1 0x0 NOT PUSH1 0xF8 DUP5 PUSH1 0x3 SHL AND SHR NOT AND SWAP1 SSTORE CODESIZE DUP1 DUP1 PUSH2 0xC6B JUMP JUMPDEST DUP1 PUSH1 0x1 DUP6 SWAP7 DUP3 SWAP5 SWAP7 DUP7 ADD MLOAD DUP2 SSTORE ADD SWAP6 ADD SWAP4 ADD SWAP1 PUSH2 0xC56 JUMP JUMPDEST PUSH2 0xCAF DUP2 PUSH2 0x1542 JUMP JUMPDEST ISZERO PUSH2 0xFE3 JUMPI PUSH1 0x0 SWAP1 DUP1 DUP1 PUSH19 0x184F03E93FF9F4DAA797ED6E38ED64BF6A1F01 PUSH1 0x40 SHL DUP1 DUP3 LT ISZERO PUSH2 0xFD5 JUMPI JUMPDEST POP PUSH14 0x4EE2D6D415B85ACEF8100000000 DUP1 DUP4 LT ISZERO PUSH2 0xFC6 JUMPI JUMPDEST POP PUSH7 0x2386F26FC10000 DUP1 DUP4 LT ISZERO PUSH2 0xFB7 JUMPI JUMPDEST POP PUSH4 0x5F5E100 DUP1 DUP4 LT ISZERO PUSH2 0xFA8 JUMPI JUMPDEST POP PUSH2 0x2710 DUP1 DUP4 LT ISZERO PUSH2 0xF99 JUMPI JUMPDEST POP PUSH1 0x64 DUP3 LT ISZERO PUSH2 0xF89 JUMPI JUMPDEST PUSH1 0xA DUP1 SWAP3 LT ISZERO PUSH2 0xF7F JUMPI JUMPDEST PUSH1 0x1 SWAP1 DUP2 PUSH1 0x21 PUSH2 0xD47 DUP3 DUP9 ADD PUSH2 0x1142 JUMP JUMPDEST SWAP7 DUP8 ADD ADD SWAP1 JUMPDEST PUSH2 0xF49 JUMPI JUMPDEST POP POP POP POP PUSH2 0xD5E PUSH2 0x125B JUMP JUMPDEST SWAP2 PUSH2 0xD67 PUSH2 0x1379 JUMP JUMPDEST PUSH1 0x40 MLOAD PUSH1 0x7B PUSH1 0xF8 SHL PUSH1 0x20 DUP3 ADD MSTORE SWAP4 DUP5 SWAP3 PUSH1 0x21 DUP5 ADD PUSH23 0x226E616D65223A2022506978656C2043616E7661732023 PUSH1 0x48 SHL DUP2 MSTORE PUSH1 0x17 ADD PUSH2 0xDA4 SWAP2 PUSH2 0x103D JUMP JUMPDEST PUSH2 0x88B PUSH1 0xF2 SHL DUP2 MSTORE PUSH1 0x2 ADD PUSH32 0x2265787465726E616C5F75726C223A2268747470733A2F2F7777772E676F6F67 DUP2 MSTORE PUSH9 0x1B194B9E1E5E8BC88B PUSH1 0xBA SHL PUSH1 0x20 DUP3 ADD MSTORE PUSH1 0x29 ADD PUSH32 0x226465736372697074696F6E223A202243726561746564206279206120636F6D DUP2 MSTORE PUSH32 0x756E697479206F6620617274697374732C206275696C646572732C2076697369 PUSH1 0x20 DUP3 ADD MSTORE PUSH32 0x6F6E61726965732C20696E766573746F727320616E6420646567656E732E222C PUSH1 0x40 DUP3 ADD MSTORE PUSH1 0x60 ADD PUSH10 0x1134B6B0B3B2911D1011 PUSH1 0xB1 SHL DUP2 MSTORE PUSH1 0xA ADD PUSH2 0xE75 SWAP2 PUSH2 0x103D JUMP JUMPDEST PUSH2 0x88B PUSH1 0xF2 SHL DUP2 MSTORE PUSH1 0x2 ADD PUSH25 0x1130BA3A3934B13ABA32B9911D2DBD9120B93A34B9BA111D11 PUSH1 0x39 SHL DUP2 MSTORE PUSH1 0x19 ADD PUSH2 0xEAB SWAP2 PUSH2 0x103D JUMP JUMPDEST PUSH3 0x227D5D PUSH1 0xE8 SHL DUP2 MSTORE PUSH1 0x3 ADD PUSH1 0x7D PUSH1 0xF8 SHL DUP2 MSTORE PUSH1 0x1 ADD SUB SWAP2 PUSH1 0x1F NOT SWAP3 DUP4 DUP2 ADD DUP3 MSTORE PUSH2 0xED6 SWAP1 DUP3 PUSH2 0x852 JUMP JUMPDEST PUSH2 0xEDF SWAP1 PUSH2 0x1174 JUMP JUMPDEST PUSH1 0x40 MLOAD PUSH32 0x646174613A6170706C69636174696F6E2F6A736F6E3B6261736536342C000000 PUSH1 0x20 DUP3 ADD MSTORE SWAP3 SWAP1 DUP4 SWAP1 PUSH1 0x3D DUP3 ADD PUSH2 0xF19 SWAP2 PUSH2 0x103D JUMP JUMPDEST SUB SWAP1 DUP2 ADD DUP4 MSTORE PUSH2 0xF29 SWAP1 DUP4 PUSH2 0x852 JUMP JUMPDEST PUSH2 0xF3D SWAP1 PUSH1 0x0 MSTORE PUSH1 0xA PUSH1 0x20 MSTORE PUSH1 0x40 PUSH1 0x0 KECCAK256 SWAP1 JUMP JUMPDEST SWAP1 PUSH2 0xF47 SWAP2 PUSH2 0xBD8 JUMP JUMPDEST JUMP JUMPDEST PUSH1 0x0 NOT ADD SWAP1 DUP4 SWAP1 PUSH16 0x181899199A1A9B1B9C1CB0B131B232B3 PUSH1 0x81 SHL DUP3 DUP3 MOD BYTE DUP4 MSTORE8 DIV SWAP2 DUP3 ISZERO PUSH2 0xF7A JUMPI SWAP2 SWAP1 DUP3 PUSH2 0xD4D JUMP JUMPDEST PUSH2 0xD52 JUMP JUMPDEST SWAP3 PUSH1 0x1 ADD SWAP3 PUSH2 0xD36 JUMP JUMPDEST SWAP3 SWAP1 PUSH1 0x64 PUSH1 0x2 SWAP2 DIV SWAP2 ADD SWAP3 PUSH2 0xD2B JUMP JUMPDEST PUSH1 0x4 SWAP2 SWAP5 SWAP3 DIV SWAP2 ADD SWAP3 CODESIZE PUSH2 0xD20 JUMP JUMPDEST PUSH1 0x8 SWAP2 SWAP5 SWAP3 DIV SWAP2 ADD SWAP3 CODESIZE PUSH2 0xD13 JUMP JUMPDEST PUSH1 0x10 SWAP2 SWAP5 SWAP3 DIV SWAP2 ADD SWAP3 CODESIZE PUSH2 0xD04 JUMP JUMPDEST PUSH1 0x20 SWAP2 SWAP5 SWAP3 DIV SWAP2 ADD SWAP3 CODESIZE PUSH2 0xCF2 JUMP JUMPDEST PUSH1 0x40 SWAP5 POP DUP4 DIV SWAP2 POP CODESIZE PUSH2 0xCD9 JUMP JUMPDEST PUSH1 0x40 MLOAD PUSH3 0x461BCD PUSH1 0xE5 SHL DUP2 MSTORE PUSH1 0x20 PUSH1 0x4 DUP3 ADD MSTORE PUSH1 0x2C PUSH1 0x24 DUP3 ADD MSTORE PUSH32 0x4552433732314D657461646174613A2055524920736574206F66206E6F6E6578 PUSH1 0x44 DUP3 ADD MSTORE PUSH12 0x34B9BA32B73A103A37B5B2B7 PUSH1 0xA1 SHL PUSH1 0x64 DUP3 ADD MSTORE PUSH1 0x84 SWAP1 REVERT JUMPDEST SWAP1 PUSH2 0x1050 PUSH1 0x20 SWAP3 DUP3 DUP2 MLOAD SWAP5 DUP6 SWAP3 ADD PUSH2 0x20A JUMP JUMPDEST ADD SWAP1 JUMP JUMPDEST PUSH1 0x40 MLOAD SWAP1 PUSH2 0x1061 DUP3 PUSH2 0x832 JUMP JUMPDEST PUSH1 0x0 DUP3 MSTORE JUMP JUMPDEST PUSH1 0x40 MLOAD SWAP1 PUSH1 0x60 DUP3 ADD DUP3 DUP2 LT PUSH1 0x1 PUSH1 0x1 PUSH1 0x40 SHL SUB DUP3 GT OR PUSH2 0x84D JUMPI PUSH1 0x40 MSTORE PUSH1 0x40 DUP3 MSTORE PUSH32 0x6768696A6B6C6D6E6F707172737475767778797A303132333435363738392B2F PUSH1 0x40 DUP4 PUSH32 0x4142434445464748494A4B4C4D4E4F505152535455565758595A616263646566 PUSH1 0x20 DUP3 ADD MSTORE ADD MSTORE JUMP JUMPDEST PUSH4 0x4E487B71 PUSH1 0xE0 SHL PUSH1 0x0 MSTORE PUSH1 0x11 PUSH1 0x4 MSTORE PUSH1 0x24 PUSH1 0x0 REVERT JUMPDEST SWAP1 PUSH1 0x2 DUP3 ADD DUP1 SWAP3 GT PUSH2 0x10FA JUMPI JUMP JUMPDEST PUSH2 0x10D6 JUMP JUMPDEST PUSH1 0x2 DUP2 SWAP1 SHL SWAP2 SWAP1 PUSH1 0x1 PUSH1 0x1 PUSH1 0xFE SHL SUB DUP2 AND SUB PUSH2 0x10FA JUMPI JUMP JUMPDEST PUSH1 0x40 MLOAD SWAP1 PUSH1 0x80 DUP3 ADD DUP3 DUP2 LT PUSH1 0x1 PUSH1 0x1 PUSH1 0x40 SHL SUB DUP3 GT OR PUSH2 0x84D JUMPI PUSH1 0x40 MSTORE PUSH1 0x42 DUP3 MSTORE PUSH1 0x60 CALLDATASIZE PUSH1 0x20 DUP5 ADD CALLDATACOPY JUMP JUMPDEST SWAP1 PUSH2 0x114C DUP3 PUSH2 0x873 JUMP JUMPDEST PUSH2 0x1159 PUSH1 0x40 MLOAD SWAP2 DUP3 PUSH2 0x852 JUMP JUMPDEST DUP3 DUP2 MSTORE DUP1 SWAP3 PUSH2 0x116A PUSH1 0x1F NOT SWAP2 PUSH2 0x873 JUMP JUMPDEST ADD SWAP1 PUSH1 0x20 CALLDATASIZE SWAP2 ADD CALLDATACOPY JUMP JUMPDEST DUP1 MLOAD ISZERO PUSH2 0x1246 JUMPI PUSH2 0x1183 PUSH2 0x1067 JUMP JUMPDEST PUSH2 0x11A7 PUSH2 0x11A2 PUSH2 0x119D PUSH2 0x1196 DUP6 MLOAD PUSH2 0x10EC JUMP JUMPDEST PUSH1 0x3 SWAP1 DIV SWAP1 JUMP JUMPDEST PUSH2 0x10FF JUMP JUMPDEST PUSH2 0x1142 JUMP JUMPDEST SWAP2 PUSH1 0x20 DUP4 ADD SWAP2 DUP2 DUP3 MLOAD DUP4 ADD SWAP2 JUMPDEST DUP3 DUP3 LT PUSH2 0x11F4 JUMPI POP POP POP PUSH1 0x3 SWAP1 MLOAD MOD DUP1 PUSH1 0x1 EQ PUSH2 0x11E1 JUMPI PUSH1 0x2 EQ PUSH2 0x11D6 JUMPI POP SWAP1 JUMP JUMPDEST PUSH1 0x3D SWAP1 PUSH1 0x0 NOT ADD MSTORE8 SWAP1 JUMP JUMPDEST POP PUSH1 0x3D SWAP1 DUP2 PUSH1 0x0 NOT DUP3 ADD MSTORE8 PUSH1 0x1 NOT ADD MSTORE8 SWAP1 JUMP JUMPDEST SWAP1 SWAP2 SWAP4 PUSH1 0x4 SWAP1 PUSH1 0x3 DUP1 SWAP5 ADD SWAP4 DUP5 MLOAD PUSH1 0x1 SWAP1 PUSH1 0x3F SWAP1 DUP3 DUP3 DUP3 PUSH1 0x12 SHR AND DUP9 ADD ADD MLOAD DUP6 MSTORE8 DUP3 DUP3 DUP3 PUSH1 0xC SHR AND DUP9 ADD ADD MLOAD DUP4 DUP7 ADD MSTORE8 DUP3 DUP3 DUP3 PUSH1 0x6 SHR AND DUP9 ADD ADD MLOAD PUSH1 0x2 DUP7 ADD MSTORE8 AND DUP6 ADD ADD MLOAD SWAP1 DUP3 ADD MSTORE8 ADD SWAP4 SWAP2 SWAP1 PUSH2 0x11B4 JUMP JUMPDEST POP PUSH2 0x263 PUSH2 0x1054 JUMP JUMPDEST PUSH1 0x40 MLOAD RETURNDATASIZE PUSH1 0x0 DUP3 RETURNDATACOPY RETURNDATASIZE SWAP1 REVERT JUMPDEST PUSH1 0x9 SLOAD PUSH1 0x40 MLOAD PUSH4 0x56B88F4F PUSH1 0xE1 SHL DUP2 MSTORE PUSH1 0x0 SWAP2 DUP3 SWAP1 DUP3 SWAP1 PUSH1 0x4 SWAP1 DUP3 SWAP1 PUSH1 0x1 PUSH1 0x1 PUSH1 0xA0 SHL SUB AND GAS STATICCALL SWAP2 DUP3 ISZERO PUSH2 0x1374 JUMPI DUP1 SWAP3 PUSH2 0x12E5 JUMPI JUMPDEST POP POP PUSH2 0x263 PUSH2 0x12A1 PUSH2 0x12D7 SWAP3 PUSH2 0x1174 JUMP JUMPDEST PUSH1 0x40 MLOAD PUSH32 0x646174613A696D6167652F7376672B786D6C3B6261736536342C000000000000 PUSH1 0x20 DUP3 ADD MSTORE SWAP3 DUP4 SWAP2 PUSH1 0x3A DUP4 ADD SWAP1 PUSH2 0x103D JUMP JUMPDEST SUB PUSH1 0x1F NOT DUP2 ADD DUP4 MSTORE DUP3 PUSH2 0x852 JUMP JUMPDEST SWAP1 SWAP2 POP RETURNDATASIZE DUP1 DUP3 DUP5 RETURNDATACOPY PUSH2 0x12F7 DUP2 DUP5 PUSH2 0x852 JUMP JUMPDEST DUP3 ADD SWAP2 PUSH1 0x20 DUP2 DUP5 SUB SLT PUSH2 0x136C JUMPI DUP1 MLOAD SWAP1 PUSH1 0x1 PUSH1 0x1 PUSH1 0x40 SHL SUB DUP3 GT PUSH2 0x1370 JUMPI ADD DUP3 PUSH1 0x1F DUP3 ADD SLT ISZERO PUSH2 0x136C JUMPI DUP1 MLOAD SWAP2 PUSH2 0x132D DUP4 PUSH2 0x873 JUMP JUMPDEST SWAP4 PUSH2 0x133B PUSH1 0x40 MLOAD SWAP6 DUP7 PUSH2 0x852 JUMP JUMPDEST DUP4 DUP6 MSTORE PUSH1 0x20 DUP5 DUP5 ADD ADD GT PUSH2 0x343 JUMPI POP DUP3 PUSH2 0x1365 PUSH2 0x263 SWAP4 PUSH2 0x12A1 SWAP4 PUSH1 0x20 DUP1 PUSH2 0x12D7 SWAP9 ADD SWAP2 ADD PUSH2 0x20A JUMP JUMPDEST SWAP3 POP PUSH2 0x1290 JUMP JUMPDEST POP DUP1 REVERT JUMPDEST DUP3 DUP1 REVERT JUMPDEST PUSH2 0x124F JUMP JUMPDEST PUSH1 0x9 SLOAD PUSH1 0x40 MLOAD PUSH4 0xA52F27B5 PUSH1 0xE0 SHL DUP2 MSTORE PUSH1 0x4 SWAP2 PUSH1 0x20 SWAP1 DUP3 SWAP1 DUP5 SWAP1 DUP3 SWAP1 PUSH1 0x1 PUSH1 0x1 PUSH1 0xA0 SHL SUB AND GAS STATICCALL SWAP1 DUP2 ISZERO PUSH2 0x1374 JUMPI PUSH1 0x0 SWAP2 PUSH2 0x1451 JUMPI JUMPDEST POP DUP1 SWAP2 PUSH2 0x13BA PUSH2 0x1117 JUMP JUMPDEST SWAP3 PUSH1 0x30 PUSH2 0x13C6 DUP6 PUSH2 0x1498 JUMP JUMPDEST MSTORE8 PUSH1 0x78 PUSH2 0x13D2 DUP6 PUSH2 0x14A5 JUMP JUMPDEST MSTORE8 PUSH1 0x41 JUMPDEST PUSH1 0x1 DUP2 GT PUSH2 0x140B JUMPI POP PUSH2 0x13E8 JUMPI POP POP SWAP1 JUMP JUMPDEST PUSH1 0x40 DUP1 MLOAD PUSH4 0xE22E27EB PUSH1 0xE0 SHL DUP2 MSTORE SWAP2 DUP3 ADD SWAP3 DUP4 MSTORE PUSH1 0x20 DUP1 DUP5 ADD MSTORE SWAP1 SWAP2 DUP3 SWAP2 ADD SUB SWAP1 REVERT JUMPDEST SWAP1 PUSH1 0xF DUP2 AND SWAP1 PUSH1 0x10 DUP3 LT ISZERO PUSH2 0x144C JUMPI PUSH2 0x1447 SWAP2 PUSH16 0x181899199A1A9B1B9C1CB0B131B232B3 PUSH1 0x81 SHL SWAP1 BYTE PUSH2 0x143E DUP5 DUP9 PUSH2 0x14B5 JUMP JUMPDEST MSTORE8 DUP4 SHR SWAP2 PUSH2 0x14C6 JUMP JUMPDEST PUSH2 0x13D6 JUMP JUMPDEST PUSH2 0x1482 JUMP JUMPDEST SWAP1 PUSH1 0x20 DUP3 RETURNDATASIZE DUP3 GT PUSH2 0x147A JUMPI JUMPDEST DUP2 PUSH2 0x146A PUSH1 0x20 SWAP4 DUP4 PUSH2 0x852 JUMP JUMPDEST DUP2 ADD SUB SLT PUSH2 0x343 JUMPI POP MLOAD CODESIZE PUSH2 0x13AF JUMP JUMPDEST RETURNDATASIZE SWAP2 POP PUSH2 0x145D JUMP JUMPDEST PUSH4 0x4E487B71 PUSH1 0xE0 SHL PUSH1 0x0 MSTORE PUSH1 0x32 PUSH1 0x4 MSTORE PUSH1 0x24 PUSH1 0x0 REVERT JUMPDEST DUP1 MLOAD ISZERO PUSH2 0x144C JUMPI PUSH1 0x20 ADD SWAP1 JUMP JUMPDEST DUP1 MLOAD PUSH1 0x1 LT ISZERO PUSH2 0x144C JUMPI PUSH1 0x21 ADD SWAP1 JUMP JUMPDEST SWAP1 DUP2 MLOAD DUP2 LT ISZERO PUSH2 0x144C JUMPI ADD PUSH1 0x20 ADD SWAP1 JUMP JUMPDEST DUP1 ISZERO PUSH2 0x10FA JUMPI PUSH1 0x0 NOT ADD SWAP1 JUMP JUMPDEST DUP1 PUSH1 0x0 SWAP1 DUP2 SLOAD DUP2 LT PUSH2 0x14F2 JUMPI JUMPDEST PUSH1 0x40 MLOAD PUSH4 0x6F96CDA1 PUSH1 0xE1 SHL DUP2 MSTORE PUSH1 0x4 SWAP1 REVERT JUMPDEST DUP2 MSTORE PUSH1 0x4 SWAP1 PUSH1 0x20 SWAP2 DUP1 DUP4 MSTORE PUSH1 0x40 SWAP3 DUP4 DUP4 KECCAK256 SLOAD SWAP5 PUSH1 0x1 PUSH1 0xE0 SHL DUP7 AND ISZERO PUSH2 0x1519 JUMPI POP POP POP PUSH2 0x14E0 JUMP JUMPDEST SWAP4 SWAP3 SWAP2 SWAP1 SWAP4 JUMPDEST DUP6 ISZERO PUSH2 0x152D JUMPI POP POP POP POP POP SWAP1 JUMP JUMPDEST PUSH1 0x0 NOT ADD DUP1 DUP4 MSTORE DUP2 DUP6 MSTORE DUP4 DUP4 KECCAK256 SLOAD SWAP6 POP PUSH2 0x151F JUMP JUMPDEST PUSH1 0x0 SLOAD DUP2 LT SWAP1 DUP2 PUSH2 0x1551 JUMPI POP SWAP1 JUMP JUMPDEST SWAP1 POP PUSH1 0x0 MSTORE PUSH1 0x4 PUSH1 0x20 MSTORE PUSH1 0x1 PUSH1 0xE0 SHL PUSH1 0x40 PUSH1 0x0 KECCAK256 SLOAD AND ISZERO SWAP1 JUMP JUMPDEST SWAP1 PUSH2 0x1575 DUP4 PUSH2 0x14D3 JUMP JUMPDEST PUSH1 0x1 PUSH1 0x1 PUSH1 0xA0 SHL SUB DUP4 DUP2 AND SWAP3 DUP3 DUP3 AND DUP5 SWAP1 SUB PUSH2 0x172C JUMPI PUSH1 0x0 DUP7 DUP2 MSTORE PUSH1 0x6 PUSH1 0x20 MSTORE PUSH1 0x40 SWAP1 KECCAK256 DUP1 SLOAD SWAP1 SWAP3 PUSH2 0x15BA PUSH1 0x1 PUSH1 0x1 PUSH1 0xA0 SHL SUB DUP9 AND CALLER SWAP1 DUP2 EQ SWAP1 DUP5 EQ OR ISZERO SWAP1 JUMP JUMPDEST ISZERO SWAP1 JUMP JUMPDEST PUSH2 0x16D1 JUMPI JUMPDEST DUP3 AND SWAP6 DUP7 ISZERO PUSH2 0x16BF JUMPI PUSH2 0x1612 SWAP4 PUSH2 0x15F0 SWAP3 PUSH2 0x16B5 JUMPI JUMPDEST POP PUSH1 0x1 PUSH1 0x1 PUSH1 0xA0 SHL SUB AND PUSH1 0x0 SWAP1 DUP2 MSTORE PUSH1 0x5 PUSH1 0x20 MSTORE PUSH1 0x40 SWAP1 KECCAK256 SWAP1 JUMP JUMPDEST DUP1 SLOAD PUSH1 0x0 NOT ADD SWAP1 SSTORE PUSH1 0x1 PUSH1 0x1 PUSH1 0xA0 SHL SUB AND PUSH1 0x0 SWAP1 DUP2 MSTORE PUSH1 0x5 PUSH1 0x20 MSTORE PUSH1 0x40 SWAP1 KECCAK256 SWAP1 JUMP JUMPDEST DUP1 SLOAD PUSH1 0x1 ADD SWAP1 SSTORE PUSH1 0x1 PUSH1 0xE1 SHL DUP1 TIMESTAMP PUSH1 0xA0 SHL DUP6 OR OR PUSH2 0x163A DUP7 PUSH1 0x0 MSTORE PUSH1 0x4 PUSH1 0x20 MSTORE PUSH1 0x40 PUSH1 0x0 KECCAK256 SWAP1 JUMP JUMPDEST SSTORE DUP2 AND ISZERO PUSH2 0x166B JUMPI JUMPDEST POP PUSH32 0xDDF252AD1BE2C89B69C2B068FC378DAA952BA7F163C4A11628F55A4DF523B3EF PUSH1 0x0 DUP1 LOG4 JUMP JUMPDEST PUSH1 0x1 DUP5 ADD PUSH2 0x1683 DUP2 PUSH1 0x0 MSTORE PUSH1 0x4 PUSH1 0x20 MSTORE PUSH1 0x40 PUSH1 0x0 KECCAK256 SWAP1 JUMP JUMPDEST SLOAD ISZERO PUSH2 0x1690 JUMPI JUMPDEST POP PUSH2 0x1643 JUMP JUMPDEST PUSH1 0x0 SLOAD DUP2 EQ PUSH2 0x168A JUMPI PUSH2 0x16AD SWAP1 PUSH1 0x0 MSTORE PUSH1 0x4 PUSH1 0x20 MSTORE PUSH1 0x40 PUSH1 0x0 KECCAK256 SWAP1 JUMP JUMPDEST SSTORE CODESIZE DUP1 PUSH2 0x168A JUMP JUMPDEST PUSH1 0x0 SWAP1 SSTORE CODESIZE PUSH2 0x15D5 JUMP JUMPDEST PUSH1 0x40 MLOAD PUSH4 0x3A954ECD PUSH1 0xE2 SHL DUP2 MSTORE PUSH1 0x4 SWAP1 REVERT JUMPDEST PUSH2 0x1715 PUSH2 0x15B6 PUSH2 0x170E CALLER PUSH2 0x16F7 DUP12 PUSH1 0x1 DUP1 PUSH1 0xA0 SHL SUB AND PUSH1 0x0 MSTORE PUSH1 0x7 PUSH1 0x20 MSTORE PUSH1 0x40 PUSH1 0x0 KECCAK256 SWAP1 JUMP JUMPDEST SWAP1 PUSH1 0x1 DUP1 PUSH1 0xA0 SHL SUB AND PUSH1 0x0 MSTORE PUSH1 0x20 MSTORE PUSH1 0x40 PUSH1 0x0 KECCAK256 SWAP1 JUMP JUMPDEST SLOAD PUSH1 0xFF AND SWAP1 JUMP JUMPDEST ISZERO PUSH2 0x15BF JUMPI PUSH1 0x40 MLOAD PUSH4 0x2CE44B5F PUSH1 0xE1 SHL DUP2 MSTORE PUSH1 0x4 SWAP1 REVERT JUMPDEST PUSH1 0x40 MLOAD PUSH3 0xA11481 PUSH1 0xE8 SHL DUP2 MSTORE PUSH1 0x4 SWAP1 REVERT JUMPDEST SWAP3 SWAP2 SWAP1 PUSH2 0x174B DUP3 DUP3 DUP7 PUSH2 0x156B JUMP JUMPDEST DUP1 EXTCODESIZE PUSH2 0x1758 JUMPI JUMPDEST POP POP POP POP JUMP JUMPDEST PUSH2 0x1761 SWAP4 PUSH2 0x17F7 JUMP JUMPDEST ISZERO PUSH2 0x176F JUMPI CODESIZE DUP1 DUP1 DUP1 PUSH2 0x1752 JUMP JUMPDEST PUSH1 0x40 MLOAD PUSH4 0x68D2BF6B PUSH1 0xE1 SHL DUP2 MSTORE PUSH1 0x4 SWAP1 REVERT JUMPDEST SWAP1 DUP2 PUSH1 0x20 SWAP2 SUB SLT PUSH2 0x16E JUMPI MLOAD PUSH2 0x263 DUP2 PUSH2 0x15C JUMP JUMPDEST PUSH1 0x1 PUSH1 0x1 PUSH1 0xA0 SHL SUB SWAP2 DUP3 AND DUP2 MSTORE SWAP2 AND PUSH1 0x20 DUP3 ADD MSTORE PUSH1 0x40 DUP2 ADD SWAP2 SWAP1 SWAP2 MSTORE PUSH1 0x80 PUSH1 0x60 DUP3 ADD DUP2 SWAP1 MSTORE PUSH2 0x263 SWAP3 SWAP2 ADD SWAP1 PUSH2 0x22D JUMP JUMPDEST RETURNDATASIZE ISZERO PUSH2 0x17F2 JUMPI RETURNDATASIZE SWAP1 PUSH2 0x17D8 DUP3 PUSH2 0x873 JUMP JUMPDEST SWAP2 PUSH2 0x17E6 PUSH1 0x40 MLOAD SWAP4 DUP5 PUSH2 0x852 JUMP JUMPDEST DUP3 MSTORE RETURNDATASIZE PUSH1 0x0 PUSH1 0x20 DUP5 ADD RETURNDATACOPY JUMP JUMPDEST PUSH1 0x60 SWAP1 JUMP JUMPDEST SWAP3 PUSH1 0x20 SWAP2 PUSH2 0x1820 SWAP4 PUSH1 0x0 PUSH1 0x40 MLOAD DUP1 SWAP7 DUP2 SWAP6 DUP3 SWAP5 PUSH4 0xA85BD01 PUSH1 0xE1 SHL SWAP11 DUP12 DUP6 MSTORE CALLER PUSH1 0x4 DUP7 ADD PUSH2 0x1796 JUMP JUMPDEST SUB SWAP3 PUSH1 0x1 PUSH1 0x1 PUSH1 0xA0 SHL SUB AND GAS CALL PUSH1 0x0 SWAP2 DUP2 PUSH2 0x1870 JUMPI JUMPDEST POP PUSH2 0x1862 JUMPI PUSH2 0x1843 PUSH2 0x17C7 JUMP JUMPDEST DUP1 MLOAD SWAP1 DUP2 PUSH2 0x185D JUMPI PUSH1 0x40 MLOAD PUSH4 0x68D2BF6B PUSH1 0xE1 SHL DUP2 MSTORE PUSH1 0x4 SWAP1 REVERT JUMPDEST PUSH1 0x20 ADD REVERT JUMPDEST PUSH1 0x1 PUSH1 0x1 PUSH1 0xE0 SHL SUB NOT AND EQ SWAP1 JUMP JUMPDEST PUSH2 0x1892 SWAP2 SWAP3 POP PUSH1 0x20 RETURNDATASIZE DUP2 GT PUSH2 0x1899 JUMPI JUMPDEST PUSH2 0x188A DUP2 DUP4 PUSH2 0x852 JUMP JUMPDEST DUP2 ADD SWAP1 PUSH2 0x1781 JUMP JUMPDEST SWAP1 CODESIZE PUSH2 0x1836 JUMP JUMPDEST POP RETURNDATASIZE PUSH2 0x1880 JUMP JUMPDEST PUSH1 0x0 DUP1 SLOAD PUSH1 0x1 PUSH1 0x1 PUSH1 0xA0 SHL SUB SWAP3 SWAP1 SWAP3 AND DUP1 DUP3 MSTORE PUSH1 0x5 PUSH1 0x20 SWAP1 DUP2 MSTORE PUSH1 0x40 DUP1 DUP5 KECCAK256 DUP1 SLOAD PUSH9 0x10000000000000001 ADD SWAP1 SSTORE DUP5 DUP5 MSTORE PUSH1 0x4 SWAP1 SWAP2 MSTORE DUP3 KECCAK256 PUSH1 0x1 PUSH1 0xE1 SHL TIMESTAMP PUSH1 0xA0 SHL DUP4 OR OR SWAP1 SSTORE PUSH1 0x1 DUP1 DUP5 ADD SWAP4 PUSH32 0xDDF252AD1BE2C89B69C2B068FC378DAA952BA7F163C4A11628F55A4DF523B3EF SWAP1 DUP4 DUP6 DUP4 DUP2 DUP1 LOG4 DUP5 JUMPDEST DUP6 DUP2 SUB PUSH2 0x1939 JUMPI POP POP POP ISZERO PUSH2 0x1928 JUMPI SSTORE JUMP JUMPDEST PUSH1 0x40 MLOAD PUSH3 0x2E0763 PUSH1 0xE8 SHL DUP2 MSTORE PUSH1 0x4 SWAP1 REVERT JUMPDEST DUP1 DUP4 SWAP2 DUP6 DUP8 DUP6 DUP2 DUP1 LOG4 ADD PUSH2 0x1916 JUMP INVALID LOG2 PUSH5 0x6970667358 0x22 SLT KECCAK256 PUSH4 0x9CB42B28 INVALID CHAINID PUSH25 0xF0564A90259361B879552965A01783FB9FB48A89828AF2D264 PUSH20 0x6F6C634300081400330000000000000000000000 "},"methodIdentifiers":{"approve(address,uint256)":"095ea7b3","balanceOf(address)":"70a08231","getApproved(uint256)":"081812fc","isApprovedForAll(address,address)":"e985e9c5","mint(address)":"6a627842","name()":"06fdde03","owner()":"8da5cb5b","ownerOf(uint256)":"6352211e","pixelmapContract()":"03d18e07","renounceOwnership()":"715018a6","safeTransferFrom(address,address,uint256)":"42842e0e","safeTransferFrom(address,address,uint256,bytes)":"b88d4fde","setApprovalForAll(address,bool)":"a22cb465","setPixelmapContract(address)":"acd7cbab","supportsInterface(bytes4)":"01ffc9a7","symbol()":"95d89b41","tokenURI(uint256)":"c87b56dd","totalSupply()":"18160ddd","transferFrom(address,address,uint256)":"23b872dd","transferOwnership(address)":"f2fde38b"}}}}}