{"contracts/Pixelmap.sol":{"Pixelmap":{"abi":[{"inputs":[],"stateMutability":"nonpayable","type":"constructor"},{"inputs":[{"internalType":"uint256[]","name":"xValues","type":"uint256[]"},{"internalType":"uint256[]","name":"yValues","type":"uint256[]"}],"name":"buyPixel","outputs":[],"stateMutability":"nonpayable","type":"function"},{"inputs":[{"internalType":"uint256","name":"x","type":"uint256"},{"internalType":"uint256","name":"y","type":"uint256"}],"name":"calculateRoyalties","outputs":[{"internalType":"uint256","name":"","type":"uint256"}],"stateMutability":"view","type":"function"},{"inputs":[{"internalType":"uint256[]","name":"xValues","type":"uint256[]"},{"internalType":"uint256[]","name":"yValues","type":"uint256[]"}],"name":"checkMultiplePixel","outputs":[{"components":[{"internalType":"address","name":"owner","type":"address"},{"internalType":"uint256","name":"price","type":"uint256"},{"internalType":"string","name":"color","type":"string"},{"internalType":"uint256","name":"royaltyLastPaid","type":"uint256"}],"internalType":"struct Pixelmap.Pixel[]","name":"","type":"tuple[]"}],"stateMutability":"view","type":"function"},{"inputs":[{"internalType":"uint256","name":"x","type":"uint256"},{"internalType":"uint256","name":"y","type":"uint256"}],"name":"checkPixel","outputs":[{"components":[{"internalType":"address","name":"owner","type":"address"},{"internalType":"uint256","name":"price","type":"uint256"},{"internalType":"string","name":"color","type":"string"},{"internalType":"uint256","name":"royaltyLastPaid","type":"uint256"}],"internalType":"struct Pixelmap.Pixel","name":"","type":"tuple"}],"stateMutability":"view","type":"function"},{"inputs":[{"internalType":"bytes[]","name":"_pixels","type":"bytes[]"}],"name":"fillPixel","outputs":[],"stateMutability":"nonpayable","type":"function"},{"inputs":[],"name":"manager","outputs":[{"internalType":"address","name":"","type":"address"}],"stateMutability":"view","type":"function"},{"inputs":[{"internalType":"uint256[]","name":"xValues","type":"uint256[]"},{"internalType":"uint256[]","name":"yValues","type":"uint256[]"}],"name":"payRoyalties","outputs":[],"stateMutability":"nonpayable","type":"function"},{"inputs":[{"internalType":"uint256[]","name":"xValues","type":"uint256[]"},{"internalType":"uint256[]","name":"yValues","type":"uint256[]"},{"internalType":"uint256[]","name":"priceValues","type":"uint256[]"}],"name":"setPixelValue","outputs":[],"stateMutability":"nonpayable","type":"function"},{"inputs":[{"internalType":"address","name":"_newToken","type":"address"}],"name":"updateCurrency","outputs":[],"stateMutability":"nonpayable","type":"function"},{"inputs":[{"internalType":"uint256","name":"","type":"uint256"},{"internalType":"uint256","name":"","type":"uint256"}],"name":"window","outputs":[{"internalType":"address","name":"owner","type":"address"},{"internalType":"uint256","name":"price","type":"uint256"},{"internalType":"string","name":"color","type":"string"},{"internalType":"uint256","name":"royaltyLastPaid","type":"uint256"}],"stateMutability":"view","type":"function"}],"evm":{"bytecode":{"linkReferences":{},"object":"6080806040523461008b5760646001556064600255611388600355620f4240600455620d2f008060055560018060a01b031973c02aaa39b223fe8d0a0e5c4f27ead9083c756cc281600854161760085533906000541617600055426006554201804211610075576007556117f790816100918239f35b634e487b7160e01b600052601160045260246000fd5b600080fdfe60406080815260048036101561001457600080fd5b600091823560e01c918263040cdfd814610e7f5782633bdb693e14610b7e578263481c6a7514610b565782635e02760114610ab25782636ed958f11461048d5782638232b5621461025957508163c730e65d146101e9578163c7eab2ec146100d5578163d08629c1146100ae575063e50eb5da1461009157600080fd5b346100ab576100a86100a236611034565b90611274565b80f35b80fd5b9050346100d1576020906100ca6100c436610eb3565b90611723565b9051908152f35b5080fd5b82346100ab576100e436611034565b92906100f381518551146111da565b8051916100ff83610fa4565b9261010c82519485610f83565b80845261011b601f1991610fa4565b01845b8181106101d2575050835b82518110156101755780610155610143610170938661117f565b5161014e838a61117f565b5190611685565b61015f828761117f565b5261016a818661117f565b5061115a565b610129565b508051602080825284518183018190528693600582901b8401810192808801929185015b8287106101a65785850386f35b9091929382806101c2600193603f198a82030186528851610f16565b9601920196019592919092610199565b6020906101dd611660565b8282880101520161011e565b9050346100d15780916101fb36610eb3565b9082526009602052828220908252602052209060018060a01b038254169061024f60018401549360806003610232600284016110b4565b920154938051968796875260208701528501526080840190610ef1565b9060608301520390f35b915034610485576060366003190112610485576001600160401b039082358281116104895761028b9036908501610fd6565b936024918235848111610485576102a59036908701610fd6565b9160449485359081116100d1576102bf9036908801610fd6565b96805184518114908161047a575b501561042957815b81518110156103c6576102fd6102eb828461117f565b516102f6838861117f565b51906116f6565b61038a5761030b818361117f565b518352602060098152848420610321838861117f565b518552815284842054336001600160a01b039091160361034a57506103459061115a565b6102d5565b887f6f6e6c79206f776e65722063616e2073657420706978656c2076616c7565000089601e8a6064958a519562461bcd60e51b8752860152840152820152fd5b835162461bcd60e51b81526020818a0152601881880152774120706978656c206973206f7574206f6620626f756e647360401b81890152606490fd5b50879192846103d58184611274565b845b835181101561042557806103ee610420928761117f565b516103f9828761117f565b51885260206009815285892090610410848761117f565b518a52526001858920015561115a565b6103d7565b8580f35b825162461bcd60e51b81526020818901526027818701527f696e70757420617272617973206d757374206265206f66207468652073616d658188015266040d8cadccee8d60cb1b6064820152608490fd5b9050885114386102cd565b8280fd5b8480fd5b9150346104855761049d36611034565b90926104ac84518351146111da565b845b8451811015610425576104cf6104c4828761117f565b516102f6838661117f565b610a97576104dd818661117f565b51865260096020908082528588206104f5848761117f565b5189528252858820546001600160a01b03908116610552575090829161051e61054d948961117f565b518952815285882090610531838761117f565b5189525284872080546001600160a01b0319163317905561115a565b6104ae565b61057161055f858a61117f565b5161056a868961117f565b5190611723565b9061057c858a61117f565b518a52828452878a2061058f868961117f565b518b52845289600183818b84200154116000146108f8576105b0878c61117f565b5182528486528982206105c3888b61117f565b51835286526105d784828c85200154611653565b60089184835416908c51906370a0823160e01b8252338c8301528982602481865afa918215610891578f8f8f8f928f908f958f90918d92839a61089b575b50928561064c959361063b9361062f846106719e9861117f565b5182528a52209261117f565b518c52855285838c200154106115a3565b51636eb1769f60e11b8152339181019182523060208301529384918291604090910190565b0381865afa91821561089157928f9694918f908f908f9896958f918f978f908b9361082a575b50928c6106dc82948d9e9f94896107199e9f8a8f6106f09b6106bc8a6106e19c61117f565b51845281526106ce898585209361117f565b5183525220015411156115fb565b61117f565b518a528d8752838a209261117f565b51885284528689828220541691518096819582946323b872dd60e01b9c8d855233908501611252565b03925af1801561082057946107519694928194928a97610803575b50541692815416918c519687958694859384528d33908501611252565b03925af180156107f9579061054d949392916107cc575b50610773838961117f565b518952808252868920610786848861117f565b518a52825286892080546001600160a01b031916331790556107a8838961117f565b5189528152858820906107bb838761117f565b51895252426003868920015561115a565b6107eb90833d85116107f2575b6107e38183610f83565b81019061123a565b5038610768565b503d6107d9565b87513d8b823e3d90fd5b61081990883d8a116107f2576107e38183610f83565b5038610734565b8c513d85823e3d90fd5b98969c5050979899505050505082813d831161088a575b61084b8183610f83565b81010312610489578b958f8f908f908e6106e18f978f936106dc6106f0956107199c8f8a908a8f8a98519a50505050509450929550509c9b9a99610697565b503d610841565b8e513d88823e3d90fd5b99505050505050505082813d83116108f1575b6108b88183610f83565b810103126108ed57898f8f8f8f928f9161063b8f93858e61064c9661062f846106719e519e5050509350939550939093610615565b8580fd5b503d6108ae565b9180919350600854169089516370a0823160e01b815233898201528681602481865afa908115610a5957908c89928792610a63575b5061095f9261093b9161117f565b5186528688528b862061094e8a8d61117f565b5187528852848c87200154106115a3565b8951636eb1769f60e11b8152338982019081523060208201528790829081906040010381865afa908115610a5957908b8b8a8f8b989796958a95610a20575b509887926109c7836109b86109d69897956107519e61117f565b5184528d8c528484209261117f565b518252895220015411156115fb565b8c5416916109e4888d61117f565b518d528584528a8d208d6109f88a8d61117f565b51905284528a8d200154918c8b518096819582946323b872dd60e01b84528d33908501611252565b9894505050505084813d8311610a52575b610a3b8183610f83565b810103126104895792518693908b8b8a8f8761099e565b503d610a31565b8b513d87823e3d90fd5b925050508681813d8311610a90575b610a7c8183610f83565b81010312610489575187908c61095f61092d565b503d610a72565b835162461bcd60e51b815280610aae8185016111a9565b0390fd5b909150346104855760203660031901126104855780356001600160a01b038181169391849003610489578454163303610afe575050600880546001600160a01b03191691909117905580f35b906020608492519162461bcd60e51b8352820152602c60248201527f6f776e65722063757272656e74206d616e616765722063616e2063616c6c207460448201526b3434b990333ab731ba34b7b760a11b6064820152fd5b8382346100d157816003193601126100d157905490516001600160a01b039091168152602090f35b9091503461048557602092836003193601126100ab578135926001600160401b03918285116100ab57366023860112156100ab578484013595610bc087610fa4565b95610bcd84519788610f83565b878752818701906024918260059a8b1b830101913683116108ed57838101915b838310610e1c5750505050825b8751811015610e1857610c0d818961117f565b518051810190808583019260609283910312610e145785810151908881015192810151908a8211610e0c570183603f82011215610e10578681015190610c5282610fbb565b94610c5f8b519687610f83565b8286528a8383010111610e0c5790610c7c918a8987019101610ece565b610c8682826116f6565b610df55780875260098087528888208389528752888820549091906001600160a01b03163314610cc3575b50505050610cbe9061115a565b610bfa565b87528552868620908652845260028686200190805190888211610de357610cea835461107a565b90601f91828111610da3575b5086918311600114610d3a57610cbe94939291889183610d2f575b50508160011b916000199060031b1c19161790555b90388080610cb1565b015190503880610d11565b8388528688209190601f198416895b89828210610d8d5750509084610cbe97969594939210610d74575b505050600190811b019055610d26565b015160001960f88460031b161c19169055388080610d64565b6001859682939686015181550195019301610d49565b8489528d888a209084808701821c8301938b8810610dda575b01901c01905b818110610dcf5750610cf6565b898155600101610dc2565b93508293610dbc565b634e487b7160e01b875260418a528487fd5b875162461bcd60e51b815280610aae818d016111a9565b8880fd5b8780fd5b8680fd5b8380f35b8235898111610e1057820136604382011215610e105785810135610e3f81610fbb565b91610e4c8b519384610f83565b81835260449036828483010111610e7b5789838196948296948e94018386013783010152815201920191610bed565b8a80fd5b8382346100d157610eaf90610e9c610e9636610eb3565b90611685565b9051918291602083526020830190610f16565b0390f35b6040906003190112610ec9576004359060243590565b600080fd5b60005b838110610ee15750506000910152565b8181015183820152602001610ed1565b90602091610f0a81518092818552858086019101610ece565b601f01601f1916010190565b9060018060a01b03825116815260208201516020820152606080610f496040850151608060408601526080850190610ef1565b93015191015290565b608081019081106001600160401b03821117610f6d57604052565b634e487b7160e01b600052604160045260246000fd5b90601f801991011681019081106001600160401b03821117610f6d57604052565b6001600160401b038111610f6d5760051b60200190565b6001600160401b038111610f6d57601f01601f191660200190565b81601f82011215610ec957803591610fed83610fa4565b92610ffb6040519485610f83565b808452602092838086019260051b820101928311610ec9578301905b828210611025575050505090565b81358152908301908301611017565b906040600319830112610ec9576001600160401b03600435818111610ec9578361106091600401610fd6565b92602435918211610ec95761107791600401610fd6565b90565b90600182811c921680156110aa575b602083101461109457565b634e487b7160e01b600052602260045260246000fd5b91607f1691611089565b90604051918260008254926110c88461107a565b90818452600194858116908160001461113757506001146110f4575b50506110f292500383610f83565b565b9093915060005260209081600020936000915b81831061111f5750506110f2935082010138806110e4565b85548884018501529485019487945091830191611107565b9150506110f294506020925060ff191682840152151560051b82010138806110e4565b60001981146111695760010190565b634e487b7160e01b600052601160045260246000fd5b80518210156111935760209160051b010190565b634e487b7160e01b600052603260045260246000fd5b606090602081526016602082015275706978656c206973206f7574206f6620626f756e647360501b60408201520190565b156111e157565b60405162461bcd60e51b815260206004820152602b60248201527f7820616e64207920696e7075742061727261797320617265206f66207661726960448201526a6f7573206c656e6774687360a81b6064820152608490fd5b90816020910312610ec957518015158103610ec95790565b6001600160a01b03918216815291166020820152604081019190915260600190565b909161128382518451146111da565b6000925b825184101561159d576112a861129d858561117f565b516102f6868461117f565b611584576112b6848461117f565b516000526009936020858152604090816000206112d3848661117f565b51600052815260018060a01b0396338884600020541603611536576113066112fb858961117f565b5161056a868861117f565b978060085416908451906370a0823160e01b8252600491338382015260249086818381885afa9081156114aa57908d91600091611506575b5011156114b5578651636eb1769f60e11b8152338482019081523060208201528790829081906040010381885afa9081156114aa57908d9160009161147a575b50106114295750916113af9a91600086948154169188519d8e95869485936323b872dd60e01b855233908501611252565b03925af197881561141e576113f995969798611401575b506113d1848961117f565b51600052815281600020906113e6848761117f565b516000525260034291600020015561115a565b929190611287565b61141790833d85116107f2576107e38183610f83565b50386113c6565b83513d6000823e3d90fd5b826027608492888a519362461bcd60e51b85528401528201527f696e73756666696369656e7420616c6c6f77616e636520746f2070617920726f60448201526679616c7469657360c81b6064820152fd5b91508782813d83116114a3575b6114918183610f83565b810103126100ab57508c90513861137e565b503d611487565b88513d6000823e3d90fd5b826027608492888a519362461bcd60e51b85528401528201527f6e6f742073756666696369656e742062616c616e636520746f2070617920726f60448201526679616c7469657360c81b6064820152fd5b91508782813d831161152f575b61151d8183610f83565b810103126100ab57508c90513861133e565b503d611513565b50608491519062461bcd60e51b82526004820152602260248201527f6f6e6c7920706978656c206f776e65722063616e2070617920726f79616c7469604482015261657360f01b6064820152fd5b60405162461bcd60e51b815280610aae600482016111a9565b50915050565b156115aa57565b60405162461bcd60e51b815260206004820152602360248201527f6e6f742073756666696369656e742062616c616e636520746f206275792070696044820152621e195b60ea1b6064820152608490fd5b1561160257565b60405162461bcd60e51b815260206004820152602360248201527f696e73756666696369656e7420616c6c6f77616e636520746f206275792070696044820152621e195b60ea1b6064820152608490fd5b9190820391821161116957565b6040519061166d82610f52565b60006060838281528260208201528160408201520152565b61168d611660565b5061169882826116f6565b61158457600052600960205260406000209060005260205260406000206003604051916116c483610f52565b80546001600160a01b03168352600181015460208401526116e7600282016110b4565b60408401520154606082015290565b6001541190811591611706575090565b9050600254111590565b8181029291811591840414171561116957565b61177061177991600093818552600960205260408520818652602052611750600360408720015442611653565b918552600960205260408520908552602052600160408520015490611710565b60035490611710565b600454916301da9c0092808402938404036117ad57821561179957500490565b634e487b7160e01b81526012600452602490fd5b634e487b7160e01b81526011600452602490fdfea26469706673582212201f3a52b18a04a581f4a1a39e7cea872f0993c0a8af974fabc5145d5d3956ce1464736f6c63430008140033","opcodes":"PUSH1 0x80 DUP1 PUSH1 0x40 MSTORE CALLVALUE PUSH2 0x8B JUMPI PUSH1 0x64 PUSH1 0x1 SSTORE PUSH1 0x64 PUSH1 0x2 SSTORE PUSH2 0x1388 PUSH1 0x3 SSTORE PUSH3 0xF4240 PUSH1 0x4 SSTORE PUSH3 0xD2F00 DUP1 PUSH1 0x5 SSTORE PUSH1 0x1 DUP1 PUSH1 0xA0 SHL SUB NOT PUSH20 0xC02AAA39B223FE8D0A0E5C4F27EAD9083C756CC2 DUP2 PUSH1 0x8 SLOAD AND OR PUSH1 0x8 SSTORE CALLER SWAP1 PUSH1 0x0 SLOAD AND OR PUSH1 0x0 SSTORE TIMESTAMP PUSH1 0x6 SSTORE TIMESTAMP ADD DUP1 TIMESTAMP GT PUSH2 0x75 JUMPI PUSH1 0x7 SSTORE PUSH2 0x17F7 SWAP1 DUP2 PUSH2 0x91 DUP3 CODECOPY RETURN JUMPDEST PUSH4 0x4E487B71 PUSH1 0xE0 SHL PUSH1 0x0 MSTORE PUSH1 0x11 PUSH1 0x4 MSTORE PUSH1 0x24 PUSH1 0x0 REVERT JUMPDEST PUSH1 0x0 DUP1 REVERT INVALID PUSH1 0x40 PUSH1 0x80 DUP2 MSTORE PUSH1 0x4 DUP1 CALLDATASIZE LT ISZERO PUSH2 0x14 JUMPI PUSH1 0x0 DUP1 REVERT JUMPDEST PUSH1 0x0 SWAP2 DUP3 CALLDATALOAD PUSH1 0xE0 SHR SWAP2 DUP3 PUSH4 0x40CDFD8 EQ PUSH2 0xE7F JUMPI DUP3 PUSH4 0x3BDB693E EQ PUSH2 0xB7E JUMPI DUP3 PUSH4 0x481C6A75 EQ PUSH2 0xB56 JUMPI DUP3 PUSH4 0x5E027601 EQ PUSH2 0xAB2 JUMPI DUP3 PUSH4 0x6ED958F1 EQ PUSH2 0x48D JUMPI DUP3 PUSH4 0x8232B562 EQ PUSH2 0x259 JUMPI POP DUP2 PUSH4 0xC730E65D EQ PUSH2 0x1E9 JUMPI DUP2 PUSH4 0xC7EAB2EC EQ PUSH2 0xD5 JUMPI DUP2 PUSH4 0xD08629C1 EQ PUSH2 0xAE JUMPI POP PUSH4 0xE50EB5DA EQ PUSH2 0x91 JUMPI PUSH1 0x0 DUP1 REVERT JUMPDEST CALLVALUE PUSH2 0xAB JUMPI PUSH2 0xA8 PUSH2 0xA2 CALLDATASIZE PUSH2 0x1034 JUMP JUMPDEST SWAP1 PUSH2 0x1274 JUMP JUMPDEST DUP1 RETURN JUMPDEST DUP1 REVERT JUMPDEST SWAP1 POP CALLVALUE PUSH2 0xD1 JUMPI PUSH1 0x20 SWAP1 PUSH2 0xCA PUSH2 0xC4 CALLDATASIZE PUSH2 0xEB3 JUMP JUMPDEST SWAP1 PUSH2 0x1723 JUMP JUMPDEST SWAP1 MLOAD SWAP1 DUP2 MSTORE RETURN JUMPDEST POP DUP1 REVERT JUMPDEST DUP3 CALLVALUE PUSH2 0xAB JUMPI PUSH2 0xE4 CALLDATASIZE PUSH2 0x1034 JUMP JUMPDEST SWAP3 SWAP1 PUSH2 0xF3 DUP2 MLOAD DUP6 MLOAD EQ PUSH2 0x11DA JUMP JUMPDEST DUP1 MLOAD SWAP2 PUSH2 0xFF DUP4 PUSH2 0xFA4 JUMP JUMPDEST SWAP3 PUSH2 0x10C DUP3 MLOAD SWAP5 DUP6 PUSH2 0xF83 JUMP JUMPDEST DUP1 DUP5 MSTORE PUSH2 0x11B PUSH1 0x1F NOT SWAP2 PUSH2 0xFA4 JUMP JUMPDEST ADD DUP5 JUMPDEST DUP2 DUP2 LT PUSH2 0x1D2 JUMPI POP POP DUP4 JUMPDEST DUP3 MLOAD DUP2 LT ISZERO PUSH2 0x175 JUMPI DUP1 PUSH2 0x155 PUSH2 0x143 PUSH2 0x170 SWAP4 DUP7 PUSH2 0x117F JUMP JUMPDEST MLOAD PUSH2 0x14E DUP4 DUP11 PUSH2 0x117F JUMP JUMPDEST MLOAD SWAP1 PUSH2 0x1685 JUMP JUMPDEST PUSH2 0x15F DUP3 DUP8 PUSH2 0x117F JUMP JUMPDEST MSTORE PUSH2 0x16A DUP2 DUP7 PUSH2 0x117F JUMP JUMPDEST POP PUSH2 0x115A JUMP JUMPDEST PUSH2 0x129 JUMP JUMPDEST POP DUP1 MLOAD PUSH1 0x20 DUP1 DUP3 MSTORE DUP5 MLOAD DUP2 DUP4 ADD DUP2 SWAP1 MSTORE DUP7 SWAP4 PUSH1 0x5 DUP3 SWAP1 SHL DUP5 ADD DUP2 ADD SWAP3 DUP1 DUP9 ADD SWAP3 SWAP2 DUP6 ADD JUMPDEST DUP3 DUP8 LT PUSH2 0x1A6 JUMPI DUP6 DUP6 SUB DUP7 RETURN JUMPDEST SWAP1 SWAP2 SWAP3 SWAP4 DUP3 DUP1 PUSH2 0x1C2 PUSH1 0x1 SWAP4 PUSH1 0x3F NOT DUP11 DUP3 SUB ADD DUP7 MSTORE DUP9 MLOAD PUSH2 0xF16 JUMP JUMPDEST SWAP7 ADD SWAP3 ADD SWAP7 ADD SWAP6 SWAP3 SWAP2 SWAP1 SWAP3 PUSH2 0x199 JUMP JUMPDEST PUSH1 0x20 SWAP1 PUSH2 0x1DD PUSH2 0x1660 JUMP JUMPDEST DUP3 DUP3 DUP9 ADD ADD MSTORE ADD PUSH2 0x11E JUMP JUMPDEST SWAP1 POP CALLVALUE PUSH2 0xD1 JUMPI DUP1 SWAP2 PUSH2 0x1FB CALLDATASIZE PUSH2 0xEB3 JUMP JUMPDEST SWAP1 DUP3 MSTORE PUSH1 0x9 PUSH1 0x20 MSTORE DUP3 DUP3 KECCAK256 SWAP1 DUP3 MSTORE PUSH1 0x20 MSTORE KECCAK256 SWAP1 PUSH1 0x1 DUP1 PUSH1 0xA0 SHL SUB DUP3 SLOAD AND SWAP1 PUSH2 0x24F PUSH1 0x1 DUP5 ADD SLOAD SWAP4 PUSH1 0x80 PUSH1 0x3 PUSH2 0x232 PUSH1 0x2 DUP5 ADD PUSH2 0x10B4 JUMP JUMPDEST SWAP3 ADD SLOAD SWAP4 DUP1 MLOAD SWAP7 DUP8 SWAP7 DUP8 MSTORE PUSH1 0x20 DUP8 ADD MSTORE DUP6 ADD MSTORE PUSH1 0x80 DUP5 ADD SWAP1 PUSH2 0xEF1 JUMP JUMPDEST SWAP1 PUSH1 0x60 DUP4 ADD MSTORE SUB SWAP1 RETURN JUMPDEST SWAP2 POP CALLVALUE PUSH2 0x485 JUMPI PUSH1 0x60 CALLDATASIZE PUSH1 0x3 NOT ADD SLT PUSH2 0x485 JUMPI PUSH1 0x1 PUSH1 0x1 PUSH1 0x40 SHL SUB SWAP1 DUP3 CALLDATALOAD DUP3 DUP2 GT PUSH2 0x489 JUMPI PUSH2 0x28B SWAP1 CALLDATASIZE SWAP1 DUP6 ADD PUSH2 0xFD6 JUMP JUMPDEST SWAP4 PUSH1 0x24 SWAP2 DUP3 CALLDATALOAD DUP5 DUP2 GT PUSH2 0x485 JUMPI PUSH2 0x2A5 SWAP1 CALLDATASIZE SWAP1 DUP8 ADD PUSH2 0xFD6 JUMP JUMPDEST SWAP2 PUSH1 0x44 SWAP5 DUP6 CALLDATALOAD SWAP1 DUP2 GT PUSH2 0xD1 JUMPI PUSH2 0x2BF SWAP1 CALLDATASIZE SWAP1 DUP9 ADD PUSH2 0xFD6 JUMP JUMPDEST SWAP7 DUP1 MLOAD DUP5 MLOAD DUP2 EQ SWAP1 DUP2 PUSH2 0x47A JUMPI JUMPDEST POP ISZERO PUSH2 0x429 JUMPI DUP2 JUMPDEST DUP2 MLOAD DUP2 LT ISZERO PUSH2 0x3C6 JUMPI PUSH2 0x2FD PUSH2 0x2EB DUP3 DUP5 PUSH2 0x117F JUMP JUMPDEST MLOAD PUSH2 0x2F6 DUP4 DUP9 PUSH2 0x117F JUMP JUMPDEST MLOAD SWAP1 PUSH2 0x16F6 JUMP JUMPDEST PUSH2 0x38A JUMPI PUSH2 0x30B DUP2 DUP4 PUSH2 0x117F JUMP JUMPDEST MLOAD DUP4 MSTORE PUSH1 0x20 PUSH1 0x9 DUP2 MSTORE DUP5 DUP5 KECCAK256 PUSH2 0x321 DUP4 DUP9 PUSH2 0x117F JUMP JUMPDEST MLOAD DUP6 MSTORE DUP2 MSTORE DUP5 DUP5 KECCAK256 SLOAD CALLER PUSH1 0x1 PUSH1 0x1 PUSH1 0xA0 SHL SUB SWAP1 SWAP2 AND SUB PUSH2 0x34A JUMPI POP PUSH2 0x345 SWAP1 PUSH2 0x115A JUMP JUMPDEST PUSH2 0x2D5 JUMP JUMPDEST DUP9 PUSH32 0x6F6E6C79206F776E65722063616E2073657420706978656C2076616C75650000 DUP10 PUSH1 0x1E DUP11 PUSH1 0x64 SWAP6 DUP11 MLOAD SWAP6 PUSH3 0x461BCD PUSH1 0xE5 SHL DUP8 MSTORE DUP7 ADD MSTORE DUP5 ADD MSTORE DUP3 ADD MSTORE REVERT JUMPDEST DUP4 MLOAD PUSH3 0x461BCD PUSH1 0xE5 SHL DUP2 MSTORE PUSH1 0x20 DUP2 DUP11 ADD MSTORE PUSH1 0x18 DUP2 DUP9 ADD MSTORE PUSH24 0x4120706978656C206973206F7574206F6620626F756E6473 PUSH1 0x40 SHL DUP2 DUP10 ADD MSTORE PUSH1 0x64 SWAP1 REVERT JUMPDEST POP DUP8 SWAP2 SWAP3 DUP5 PUSH2 0x3D5 DUP2 DUP5 PUSH2 0x1274 JUMP JUMPDEST DUP5 JUMPDEST DUP4 MLOAD DUP2 LT ISZERO PUSH2 0x425 JUMPI DUP1 PUSH2 0x3EE PUSH2 0x420 SWAP3 DUP8 PUSH2 0x117F JUMP JUMPDEST MLOAD PUSH2 0x3F9 DUP3 DUP8 PUSH2 0x117F JUMP JUMPDEST MLOAD DUP9 MSTORE PUSH1 0x20 PUSH1 0x9 DUP2 MSTORE DUP6 DUP10 KECCAK256 SWAP1 PUSH2 0x410 DUP5 DUP8 PUSH2 0x117F JUMP JUMPDEST MLOAD DUP11 MSTORE MSTORE PUSH1 0x1 DUP6 DUP10 KECCAK256 ADD SSTORE PUSH2 0x115A JUMP JUMPDEST PUSH2 0x3D7 JUMP JUMPDEST DUP6 DUP1 RETURN JUMPDEST DUP3 MLOAD PUSH3 0x461BCD PUSH1 0xE5 SHL DUP2 MSTORE PUSH1 0x20 DUP2 DUP10 ADD MSTORE PUSH1 0x27 DUP2 DUP8 ADD MSTORE PUSH32 0x696E70757420617272617973206D757374206265206F66207468652073616D65 DUP2 DUP9 ADD MSTORE PUSH7 0x40D8CADCCEE8D PUSH1 0xCB SHL PUSH1 0x64 DUP3 ADD MSTORE PUSH1 0x84 SWAP1 REVERT JUMPDEST SWAP1 POP DUP9 MLOAD EQ CODESIZE PUSH2 0x2CD JUMP JUMPDEST DUP3 DUP1 REVERT JUMPDEST DUP5 DUP1 REVERT JUMPDEST SWAP2 POP CALLVALUE PUSH2 0x485 JUMPI PUSH2 0x49D CALLDATASIZE PUSH2 0x1034 JUMP JUMPDEST SWAP1 SWAP3 PUSH2 0x4AC DUP5 MLOAD DUP4 MLOAD EQ PUSH2 0x11DA JUMP JUMPDEST DUP5 JUMPDEST DUP5 MLOAD DUP2 LT ISZERO PUSH2 0x425 JUMPI PUSH2 0x4CF PUSH2 0x4C4 DUP3 DUP8 PUSH2 0x117F JUMP JUMPDEST MLOAD PUSH2 0x2F6 DUP4 DUP7 PUSH2 0x117F JUMP JUMPDEST PUSH2 0xA97 JUMPI PUSH2 0x4DD DUP2 DUP7 PUSH2 0x117F JUMP JUMPDEST MLOAD DUP7 MSTORE PUSH1 0x9 PUSH1 0x20 SWAP1 DUP1 DUP3 MSTORE DUP6 DUP9 KECCAK256 PUSH2 0x4F5 DUP5 DUP8 PUSH2 0x117F JUMP JUMPDEST MLOAD DUP10 MSTORE DUP3 MSTORE DUP6 DUP9 KECCAK256 SLOAD PUSH1 0x1 PUSH1 0x1 PUSH1 0xA0 SHL SUB SWAP1 DUP2 AND PUSH2 0x552 JUMPI POP SWAP1 DUP3 SWAP2 PUSH2 0x51E PUSH2 0x54D SWAP5 DUP10 PUSH2 0x117F JUMP JUMPDEST MLOAD DUP10 MSTORE DUP2 MSTORE DUP6 DUP9 KECCAK256 SWAP1 PUSH2 0x531 DUP4 DUP8 PUSH2 0x117F JUMP JUMPDEST MLOAD DUP10 MSTORE MSTORE DUP5 DUP8 KECCAK256 DUP1 SLOAD PUSH1 0x1 PUSH1 0x1 PUSH1 0xA0 SHL SUB NOT AND CALLER OR SWAP1 SSTORE PUSH2 0x115A JUMP JUMPDEST PUSH2 0x4AE JUMP JUMPDEST PUSH2 0x571 PUSH2 0x55F DUP6 DUP11 PUSH2 0x117F JUMP JUMPDEST MLOAD PUSH2 0x56A DUP7 DUP10 PUSH2 0x117F JUMP JUMPDEST MLOAD SWAP1 PUSH2 0x1723 JUMP JUMPDEST SWAP1 PUSH2 0x57C DUP6 DUP11 PUSH2 0x117F JUMP JUMPDEST MLOAD DUP11 MSTORE DUP3 DUP5 MSTORE DUP8 DUP11 KECCAK256 PUSH2 0x58F DUP7 DUP10 PUSH2 0x117F JUMP JUMPDEST MLOAD DUP12 MSTORE DUP5 MSTORE DUP10 PUSH1 0x1 DUP4 DUP2 DUP12 DUP5 KECCAK256 ADD SLOAD GT PUSH1 0x0 EQ PUSH2 0x8F8 JUMPI PUSH2 0x5B0 DUP8 DUP13 PUSH2 0x117F JUMP JUMPDEST MLOAD DUP3 MSTORE DUP5 DUP7 MSTORE DUP10 DUP3 KECCAK256 PUSH2 0x5C3 DUP9 DUP12 PUSH2 0x117F JUMP JUMPDEST MLOAD DUP4 MSTORE DUP7 MSTORE PUSH2 0x5D7 DUP5 DUP3 DUP13 DUP6 KECCAK256 ADD SLOAD PUSH2 0x1653 JUMP JUMPDEST PUSH1 0x8 SWAP2 DUP5 DUP4 SLOAD AND SWAP1 DUP13 MLOAD SWAP1 PUSH4 0x70A08231 PUSH1 0xE0 SHL DUP3 MSTORE CALLER DUP13 DUP4 ADD MSTORE DUP10 DUP3 PUSH1 0x24 DUP2 DUP7 GAS STATICCALL SWAP2 DUP3 ISZERO PUSH2 0x891 JUMPI DUP16 DUP16 DUP16 DUP16 SWAP3 DUP16 SWAP1 DUP16 SWAP6 DUP16 SWAP1 SWAP2 DUP14 SWAP3 DUP4 SWAP11 PUSH2 0x89B JUMPI JUMPDEST POP SWAP3 DUP6 PUSH2 0x64C SWAP6 SWAP4 PUSH2 0x63B SWAP4 PUSH2 0x62F DUP5 PUSH2 0x671 SWAP15 SWAP9 PUSH2 0x117F JUMP JUMPDEST MLOAD DUP3 MSTORE DUP11 MSTORE KECCAK256 SWAP3 PUSH2 0x117F JUMP JUMPDEST MLOAD DUP13 MSTORE DUP6 MSTORE DUP6 DUP4 DUP13 KECCAK256 ADD SLOAD LT PUSH2 0x15A3 JUMP JUMPDEST MLOAD PUSH4 0x6EB1769F PUSH1 0xE1 SHL DUP2 MSTORE CALLER SWAP2 DUP2 ADD SWAP2 DUP3 MSTORE ADDRESS PUSH1 0x20 DUP4 ADD MSTORE SWAP4 DUP5 SWAP2 DUP3 SWAP2 PUSH1 0x40 SWAP1 SWAP2 ADD SWAP1 JUMP JUMPDEST SUB DUP2 DUP7 GAS STATICCALL SWAP2 DUP3 ISZERO PUSH2 0x891 JUMPI SWAP3 DUP16 SWAP7 SWAP5 SWAP2 DUP16 SWAP1 DUP16 SWAP1 DUP16 SWAP9 SWAP7 SWAP6 DUP16 SWAP2 DUP16 SWAP8 DUP16 SWAP1 DUP12 SWAP4 PUSH2 0x82A JUMPI JUMPDEST POP SWAP3 DUP13 PUSH2 0x6DC DUP3 SWAP5 DUP14 SWAP15 SWAP16 SWAP5 DUP10 PUSH2 0x719 SWAP15 SWAP16 DUP11 DUP16 PUSH2 0x6F0 SWAP12 PUSH2 0x6BC DUP11 PUSH2 0x6E1 SWAP13 PUSH2 0x117F JUMP JUMPDEST MLOAD DUP5 MSTORE DUP2 MSTORE PUSH2 0x6CE DUP10 DUP6 DUP6 KECCAK256 SWAP4 PUSH2 0x117F JUMP JUMPDEST MLOAD DUP4 MSTORE MSTORE KECCAK256 ADD SLOAD GT ISZERO PUSH2 0x15FB JUMP JUMPDEST PUSH2 0x117F JUMP JUMPDEST MLOAD DUP11 MSTORE DUP14 DUP8 MSTORE DUP4 DUP11 KECCAK256 SWAP3 PUSH2 0x117F JUMP JUMPDEST MLOAD DUP9 MSTORE DUP5 MSTORE DUP7 DUP10 DUP3 DUP3 KECCAK256 SLOAD AND SWAP2 MLOAD DUP1 SWAP7 DUP2 SWAP6 DUP3 SWAP5 PUSH4 0x23B872DD PUSH1 0xE0 SHL SWAP13 DUP14 DUP6 MSTORE CALLER SWAP1 DUP6 ADD PUSH2 0x1252 JUMP JUMPDEST SUB SWAP3 GAS CALL DUP1 ISZERO PUSH2 0x820 JUMPI SWAP5 PUSH2 0x751 SWAP7 SWAP5 SWAP3 DUP2 SWAP5 SWAP3 DUP11 SWAP8 PUSH2 0x803 JUMPI JUMPDEST POP SLOAD AND SWAP3 DUP2 SLOAD AND SWAP2 DUP13 MLOAD SWAP7 DUP8 SWAP6 DUP7 SWAP5 DUP6 SWAP4 DUP5 MSTORE DUP14 CALLER SWAP1 DUP6 ADD PUSH2 0x1252 JUMP JUMPDEST SUB SWAP3 GAS CALL DUP1 ISZERO PUSH2 0x7F9 JUMPI SWAP1 PUSH2 0x54D SWAP5 SWAP4 SWAP3 SWAP2 PUSH2 0x7CC JUMPI JUMPDEST POP PUSH2 0x773 DUP4 DUP10 PUSH2 0x117F JUMP JUMPDEST MLOAD DUP10 MSTORE DUP1 DUP3 MSTORE DUP7 DUP10 KECCAK256 PUSH2 0x786 DUP5 DUP9 PUSH2 0x117F JUMP JUMPDEST MLOAD DUP11 MSTORE DUP3 MSTORE DUP7 DUP10 KECCAK256 DUP1 SLOAD PUSH1 0x1 PUSH1 0x1 PUSH1 0xA0 SHL SUB NOT AND CALLER OR SWAP1 SSTORE PUSH2 0x7A8 DUP4 DUP10 PUSH2 0x117F JUMP JUMPDEST MLOAD DUP10 MSTORE DUP2 MSTORE DUP6 DUP9 KECCAK256 SWAP1 PUSH2 0x7BB DUP4 DUP8 PUSH2 0x117F JUMP JUMPDEST MLOAD DUP10 MSTORE MSTORE TIMESTAMP PUSH1 0x3 DUP7 DUP10 KECCAK256 ADD SSTORE PUSH2 0x115A JUMP JUMPDEST PUSH2 0x7EB SWAP1 DUP4 RETURNDATASIZE DUP6 GT PUSH2 0x7F2 JUMPI JUMPDEST PUSH2 0x7E3 DUP2 DUP4 PUSH2 0xF83 JUMP JUMPDEST DUP2 ADD SWAP1 PUSH2 0x123A JUMP JUMPDEST POP CODESIZE PUSH2 0x768 JUMP JUMPDEST POP RETURNDATASIZE PUSH2 0x7D9 JUMP JUMPDEST DUP8 MLOAD RETURNDATASIZE DUP12 DUP3 RETURNDATACOPY RETURNDATASIZE SWAP1 REVERT JUMPDEST PUSH2 0x819 SWAP1 DUP9 RETURNDATASIZE DUP11 GT PUSH2 0x7F2 JUMPI PUSH2 0x7E3 DUP2 DUP4 PUSH2 0xF83 JUMP JUMPDEST POP CODESIZE PUSH2 0x734 JUMP JUMPDEST DUP13 MLOAD RETURNDATASIZE DUP6 DUP3 RETURNDATACOPY RETURNDATASIZE SWAP1 REVERT JUMPDEST SWAP9 SWAP7 SWAP13 POP POP SWAP8 SWAP9 SWAP10 POP POP POP POP POP DUP3 DUP2 RETURNDATASIZE DUP4 GT PUSH2 0x88A JUMPI JUMPDEST PUSH2 0x84B DUP2 DUP4 PUSH2 0xF83 JUMP JUMPDEST DUP2 ADD SUB SLT PUSH2 0x489 JUMPI DUP12 SWAP6 DUP16 DUP16 SWAP1 DUP16 SWAP1 DUP15 PUSH2 0x6E1 DUP16 SWAP8 DUP16 SWAP4 PUSH2 0x6DC PUSH2 0x6F0 SWAP6 PUSH2 0x719 SWAP13 DUP16 DUP11 SWAP1 DUP11 DUP16 DUP11 SWAP9 MLOAD SWAP11 POP POP POP POP POP SWAP5 POP SWAP3 SWAP6 POP POP SWAP13 SWAP12 SWAP11 SWAP10 PUSH2 0x697 JUMP JUMPDEST POP RETURNDATASIZE PUSH2 0x841 JUMP JUMPDEST DUP15 MLOAD RETURNDATASIZE DUP9 DUP3 RETURNDATACOPY RETURNDATASIZE SWAP1 REVERT JUMPDEST SWAP10 POP POP POP POP POP POP POP POP DUP3 DUP2 RETURNDATASIZE DUP4 GT PUSH2 0x8F1 JUMPI JUMPDEST PUSH2 0x8B8 DUP2 DUP4 PUSH2 0xF83 JUMP JUMPDEST DUP2 ADD SUB SLT PUSH2 0x8ED JUMPI DUP10 DUP16 DUP16 DUP16 DUP16 SWAP3 DUP16 SWAP2 PUSH2 0x63B DUP16 SWAP4 DUP6 DUP15 PUSH2 0x64C SWAP7 PUSH2 0x62F DUP5 PUSH2 0x671 SWAP15 MLOAD SWAP15 POP POP POP SWAP4 POP SWAP4 SWAP6 POP SWAP4 SWAP1 SWAP4 PUSH2 0x615 JUMP JUMPDEST DUP6 DUP1 REVERT JUMPDEST POP RETURNDATASIZE PUSH2 0x8AE JUMP JUMPDEST SWAP2 DUP1 SWAP2 SWAP4 POP PUSH1 0x8 SLOAD AND SWAP1 DUP10 MLOAD PUSH4 0x70A08231 PUSH1 0xE0 SHL DUP2 MSTORE CALLER DUP10 DUP3 ADD MSTORE DUP7 DUP2 PUSH1 0x24 DUP2 DUP7 GAS STATICCALL SWAP1 DUP2 ISZERO PUSH2 0xA59 JUMPI SWAP1 DUP13 DUP10 SWAP3 DUP8 SWAP3 PUSH2 0xA63 JUMPI JUMPDEST POP PUSH2 0x95F SWAP3 PUSH2 0x93B SWAP2 PUSH2 0x117F JUMP JUMPDEST MLOAD DUP7 MSTORE DUP7 DUP9 MSTORE DUP12 DUP7 KECCAK256 PUSH2 0x94E DUP11 DUP14 PUSH2 0x117F JUMP JUMPDEST MLOAD DUP8 MSTORE DUP9 MSTORE DUP5 DUP13 DUP8 KECCAK256 ADD SLOAD LT PUSH2 0x15A3 JUMP JUMPDEST DUP10 MLOAD PUSH4 0x6EB1769F PUSH1 0xE1 SHL DUP2 MSTORE CALLER DUP10 DUP3 ADD SWAP1 DUP2 MSTORE ADDRESS PUSH1 0x20 DUP3 ADD MSTORE DUP8 SWAP1 DUP3 SWAP1 DUP2 SWAP1 PUSH1 0x40 ADD SUB DUP2 DUP7 GAS STATICCALL SWAP1 DUP2 ISZERO PUSH2 0xA59 JUMPI SWAP1 DUP12 DUP12 DUP11 DUP16 DUP12 SWAP9 SWAP8 SWAP7 SWAP6 DUP11 SWAP6 PUSH2 0xA20 JUMPI JUMPDEST POP SWAP9 DUP8 SWAP3 PUSH2 0x9C7 DUP4 PUSH2 0x9B8 PUSH2 0x9D6 SWAP9 SWAP8 SWAP6 PUSH2 0x751 SWAP15 PUSH2 0x117F JUMP JUMPDEST MLOAD DUP5 MSTORE DUP14 DUP13 MSTORE DUP5 DUP5 KECCAK256 SWAP3 PUSH2 0x117F JUMP JUMPDEST MLOAD DUP3 MSTORE DUP10 MSTORE KECCAK256 ADD SLOAD GT ISZERO PUSH2 0x15FB JUMP JUMPDEST DUP13 SLOAD AND SWAP2 PUSH2 0x9E4 DUP9 DUP14 PUSH2 0x117F JUMP JUMPDEST MLOAD DUP14 MSTORE DUP6 DUP5 MSTORE DUP11 DUP14 KECCAK256 DUP14 PUSH2 0x9F8 DUP11 DUP14 PUSH2 0x117F JUMP JUMPDEST MLOAD SWAP1 MSTORE DUP5 MSTORE DUP11 DUP14 KECCAK256 ADD SLOAD SWAP2 DUP13 DUP12 MLOAD DUP1 SWAP7 DUP2 SWAP6 DUP3 SWAP5 PUSH4 0x23B872DD PUSH1 0xE0 SHL DUP5 MSTORE DUP14 CALLER SWAP1 DUP6 ADD PUSH2 0x1252 JUMP JUMPDEST SWAP9 SWAP5 POP POP POP POP POP DUP5 DUP2 RETURNDATASIZE DUP4 GT PUSH2 0xA52 JUMPI JUMPDEST PUSH2 0xA3B DUP2 DUP4 PUSH2 0xF83 JUMP JUMPDEST DUP2 ADD SUB SLT PUSH2 0x489 JUMPI SWAP3 MLOAD DUP7 SWAP4 SWAP1 DUP12 DUP12 DUP11 DUP16 DUP8 PUSH2 0x99E JUMP JUMPDEST POP RETURNDATASIZE PUSH2 0xA31 JUMP JUMPDEST DUP12 MLOAD RETURNDATASIZE DUP8 DUP3 RETURNDATACOPY RETURNDATASIZE SWAP1 REVERT JUMPDEST SWAP3 POP POP POP DUP7 DUP2 DUP2 RETURNDATASIZE DUP4 GT PUSH2 0xA90 JUMPI JUMPDEST PUSH2 0xA7C DUP2 DUP4 PUSH2 0xF83 JUMP JUMPDEST DUP2 ADD SUB SLT PUSH2 0x489 JUMPI MLOAD DUP8 SWAP1 DUP13 PUSH2 0x95F PUSH2 0x92D JUMP JUMPDEST POP RETURNDATASIZE PUSH2 0xA72 JUMP JUMPDEST DUP4 MLOAD PUSH3 0x461BCD PUSH1 0xE5 SHL DUP2 MSTORE DUP1 PUSH2 0xAAE DUP2 DUP6 ADD PUSH2 0x11A9 JUMP JUMPDEST SUB SWAP1 REVERT JUMPDEST SWAP1 SWAP2 POP CALLVALUE PUSH2 0x485 JUMPI PUSH1 0x20 CALLDATASIZE PUSH1 0x3 NOT ADD SLT PUSH2 0x485 JUMPI DUP1 CALLDATALOAD PUSH1 0x1 PUSH1 0x1 PUSH1 0xA0 SHL SUB DUP2 DUP2 AND SWAP4 SWAP2 DUP5 SWAP1 SUB PUSH2 0x489 JUMPI DUP5 SLOAD AND CALLER SUB PUSH2 0xAFE JUMPI POP POP PUSH1 0x8 DUP1 SLOAD PUSH1 0x1 PUSH1 0x1 PUSH1 0xA0 SHL SUB NOT AND SWAP2 SWAP1 SWAP2 OR SWAP1 SSTORE DUP1 RETURN JUMPDEST SWAP1 PUSH1 0x20 PUSH1 0x84 SWAP3 MLOAD SWAP2 PUSH3 0x461BCD PUSH1 0xE5 SHL DUP4 MSTORE DUP3 ADD MSTORE PUSH1 0x2C PUSH1 0x24 DUP3 ADD MSTORE PUSH32 0x6F776E65722063757272656E74206D616E616765722063616E2063616C6C2074 PUSH1 0x44 DUP3 ADD MSTORE PUSH12 0x3434B990333AB731BA34B7B7 PUSH1 0xA1 SHL PUSH1 0x64 DUP3 ADD MSTORE REVERT JUMPDEST DUP4 DUP3 CALLVALUE PUSH2 0xD1 JUMPI DUP2 PUSH1 0x3 NOT CALLDATASIZE ADD SLT PUSH2 0xD1 JUMPI SWAP1 SLOAD SWAP1 MLOAD PUSH1 0x1 PUSH1 0x1 PUSH1 0xA0 SHL SUB SWAP1 SWAP2 AND DUP2 MSTORE PUSH1 0x20 SWAP1 RETURN JUMPDEST SWAP1 SWAP2 POP CALLVALUE PUSH2 0x485 JUMPI PUSH1 0x20 SWAP3 DUP4 PUSH1 0x3 NOT CALLDATASIZE ADD SLT PUSH2 0xAB JUMPI DUP2 CALLDATALOAD SWAP3 PUSH1 0x1 PUSH1 0x1 PUSH1 0x40 SHL SUB SWAP2 DUP3 DUP6 GT PUSH2 0xAB JUMPI CALLDATASIZE PUSH1 0x23 DUP7 ADD SLT ISZERO PUSH2 0xAB JUMPI DUP5 DUP5 ADD CALLDATALOAD SWAP6 PUSH2 0xBC0 DUP8 PUSH2 0xFA4 JUMP JUMPDEST SWAP6 PUSH2 0xBCD DUP5 MLOAD SWAP8 DUP9 PUSH2 0xF83 JUMP JUMPDEST DUP8 DUP8 MSTORE DUP2 DUP8 ADD SWAP1 PUSH1 0x24 SWAP2 DUP3 PUSH1 0x5 SWAP11 DUP12 SHL DUP4 ADD ADD SWAP2 CALLDATASIZE DUP4 GT PUSH2 0x8ED JUMPI DUP4 DUP2 ADD SWAP2 JUMPDEST DUP4 DUP4 LT PUSH2 0xE1C JUMPI POP POP POP POP DUP3 JUMPDEST DUP8 MLOAD DUP2 LT ISZERO PUSH2 0xE18 JUMPI PUSH2 0xC0D DUP2 DUP10 PUSH2 0x117F JUMP JUMPDEST MLOAD DUP1 MLOAD DUP2 ADD SWAP1 DUP1 DUP6 DUP4 ADD SWAP3 PUSH1 0x60 SWAP3 DUP4 SWAP2 SUB SLT PUSH2 0xE14 JUMPI DUP6 DUP2 ADD MLOAD SWAP1 DUP9 DUP2 ADD MLOAD SWAP3 DUP2 ADD MLOAD SWAP1 DUP11 DUP3 GT PUSH2 0xE0C JUMPI ADD DUP4 PUSH1 0x3F DUP3 ADD SLT ISZERO PUSH2 0xE10 JUMPI DUP7 DUP2 ADD MLOAD SWAP1 PUSH2 0xC52 DUP3 PUSH2 0xFBB JUMP JUMPDEST SWAP5 PUSH2 0xC5F DUP12 MLOAD SWAP7 DUP8 PUSH2 0xF83 JUMP JUMPDEST DUP3 DUP7 MSTORE DUP11 DUP4 DUP4 ADD ADD GT PUSH2 0xE0C JUMPI SWAP1 PUSH2 0xC7C SWAP2 DUP11 DUP10 DUP8 ADD SWAP2 ADD PUSH2 0xECE JUMP JUMPDEST PUSH2 0xC86 DUP3 DUP3 PUSH2 0x16F6 JUMP JUMPDEST PUSH2 0xDF5 JUMPI DUP1 DUP8 MSTORE PUSH1 0x9 DUP1 DUP8 MSTORE DUP9 DUP9 KECCAK256 DUP4 DUP10 MSTORE DUP8 MSTORE DUP9 DUP9 KECCAK256 SLOAD SWAP1 SWAP2 SWAP1 PUSH1 0x1 PUSH1 0x1 PUSH1 0xA0 SHL SUB AND CALLER EQ PUSH2 0xCC3 JUMPI JUMPDEST POP POP POP POP PUSH2 0xCBE SWAP1 PUSH2 0x115A JUMP JUMPDEST PUSH2 0xBFA JUMP JUMPDEST DUP8 MSTORE DUP6 MSTORE DUP7 DUP7 KECCAK256 SWAP1 DUP7 MSTORE DUP5 MSTORE PUSH1 0x2 DUP7 DUP7 KECCAK256 ADD SWAP1 DUP1 MLOAD SWAP1 DUP9 DUP3 GT PUSH2 0xDE3 JUMPI PUSH2 0xCEA DUP4 SLOAD PUSH2 0x107A JUMP JUMPDEST SWAP1 PUSH1 0x1F SWAP2 DUP3 DUP2 GT PUSH2 0xDA3 JUMPI JUMPDEST POP DUP7 SWAP2 DUP4 GT PUSH1 0x1 EQ PUSH2 0xD3A JUMPI PUSH2 0xCBE SWAP5 SWAP4 SWAP3 SWAP2 DUP9 SWAP2 DUP4 PUSH2 0xD2F JUMPI JUMPDEST POP POP DUP2 PUSH1 0x1 SHL SWAP2 PUSH1 0x0 NOT SWAP1 PUSH1 0x3 SHL SHR NOT AND OR SWAP1 SSTORE JUMPDEST SWAP1 CODESIZE DUP1 DUP1 PUSH2 0xCB1 JUMP JUMPDEST ADD MLOAD SWAP1 POP CODESIZE DUP1 PUSH2 0xD11 JUMP JUMPDEST DUP4 DUP9 MSTORE DUP7 DUP9 KECCAK256 SWAP2 SWAP1 PUSH1 0x1F NOT DUP5 AND DUP10 JUMPDEST DUP10 DUP3 DUP3 LT PUSH2 0xD8D JUMPI POP POP SWAP1 DUP5 PUSH2 0xCBE SWAP8 SWAP7 SWAP6 SWAP5 SWAP4 SWAP3 LT PUSH2 0xD74 JUMPI JUMPDEST POP POP POP PUSH1 0x1 SWAP1 DUP2 SHL ADD SWAP1 SSTORE PUSH2 0xD26 JUMP JUMPDEST ADD MLOAD PUSH1 0x0 NOT PUSH1 0xF8 DUP5 PUSH1 0x3 SHL AND SHR NOT AND SWAP1 SSTORE CODESIZE DUP1 DUP1 PUSH2 0xD64 JUMP JUMPDEST PUSH1 0x1 DUP6 SWAP7 DUP3 SWAP4 SWAP7 DUP7 ADD MLOAD DUP2 SSTORE ADD SWAP6 ADD SWAP4 ADD PUSH2 0xD49 JUMP JUMPDEST DUP5 DUP10 MSTORE DUP14 DUP9 DUP11 KECCAK256 SWAP1 DUP5 DUP1 DUP8 ADD DUP3 SHR DUP4 ADD SWAP4 DUP12 DUP9 LT PUSH2 0xDDA JUMPI JUMPDEST ADD SWAP1 SHR ADD SWAP1 JUMPDEST DUP2 DUP2 LT PUSH2 0xDCF JUMPI POP PUSH2 0xCF6 JUMP JUMPDEST DUP10 DUP2 SSTORE PUSH1 0x1 ADD PUSH2 0xDC2 JUMP JUMPDEST SWAP4 POP DUP3 SWAP4 PUSH2 0xDBC JUMP JUMPDEST PUSH4 0x4E487B71 PUSH1 0xE0 SHL DUP8 MSTORE PUSH1 0x41 DUP11 MSTORE DUP5 DUP8 REVERT JUMPDEST DUP8 MLOAD PUSH3 0x461BCD PUSH1 0xE5 SHL DUP2 MSTORE DUP1 PUSH2 0xAAE DUP2 DUP14 ADD PUSH2 0x11A9 JUMP JUMPDEST DUP9 DUP1 REVERT JUMPDEST DUP8 DUP1 REVERT JUMPDEST DUP7 DUP1 REVERT JUMPDEST DUP4 DUP1 RETURN JUMPDEST DUP3 CALLDATALOAD DUP10 DUP2 GT PUSH2 0xE10 JUMPI DUP3 ADD CALLDATASIZE PUSH1 0x43 DUP3 ADD SLT ISZERO PUSH2 0xE10 JUMPI DUP6 DUP2 ADD CALLDATALOAD PUSH2 0xE3F DUP2 PUSH2 0xFBB JUMP JUMPDEST SWAP2 PUSH2 0xE4C DUP12 MLOAD SWAP4 DUP5 PUSH2 0xF83 JUMP JUMPDEST DUP2 DUP4 MSTORE PUSH1 0x44 SWAP1 CALLDATASIZE DUP3 DUP5 DUP4 ADD ADD GT PUSH2 0xE7B JUMPI DUP10 DUP4 DUP2 SWAP7 SWAP5 DUP3 SWAP7 SWAP5 DUP15 SWAP5 ADD DUP4 DUP7 ADD CALLDATACOPY DUP4 ADD ADD MSTORE DUP2 MSTORE ADD SWAP3 ADD SWAP2 PUSH2 0xBED JUMP JUMPDEST DUP11 DUP1 REVERT JUMPDEST DUP4 DUP3 CALLVALUE PUSH2 0xD1 JUMPI PUSH2 0xEAF SWAP1 PUSH2 0xE9C PUSH2 0xE96 CALLDATASIZE PUSH2 0xEB3 JUMP JUMPDEST SWAP1 PUSH2 0x1685 JUMP JUMPDEST SWAP1 MLOAD SWAP2 DUP3 SWAP2 PUSH1 0x20 DUP4 MSTORE PUSH1 0x20 DUP4 ADD SWAP1 PUSH2 0xF16 JUMP JUMPDEST SUB SWAP1 RETURN JUMPDEST PUSH1 0x40 SWAP1 PUSH1 0x3 NOT ADD SLT PUSH2 0xEC9 JUMPI PUSH1 0x4 CALLDATALOAD SWAP1 PUSH1 0x24 CALLDATALOAD SWAP1 JUMP JUMPDEST PUSH1 0x0 DUP1 REVERT JUMPDEST PUSH1 0x0 JUMPDEST DUP4 DUP2 LT PUSH2 0xEE1 JUMPI POP POP PUSH1 0x0 SWAP2 ADD MSTORE JUMP JUMPDEST DUP2 DUP2 ADD MLOAD DUP4 DUP3 ADD MSTORE PUSH1 0x20 ADD PUSH2 0xED1 JUMP JUMPDEST SWAP1 PUSH1 0x20 SWAP2 PUSH2 0xF0A DUP2 MLOAD DUP1 SWAP3 DUP2 DUP6 MSTORE DUP6 DUP1 DUP7 ADD SWAP2 ADD PUSH2 0xECE JUMP JUMPDEST PUSH1 0x1F ADD PUSH1 0x1F NOT AND ADD ADD SWAP1 JUMP JUMPDEST SWAP1 PUSH1 0x1 DUP1 PUSH1 0xA0 SHL SUB DUP3 MLOAD AND DUP2 MSTORE PUSH1 0x20 DUP3 ADD MLOAD PUSH1 0x20 DUP3 ADD MSTORE PUSH1 0x60 DUP1 PUSH2 0xF49 PUSH1 0x40 DUP6 ADD MLOAD PUSH1 0x80 PUSH1 0x40 DUP7 ADD MSTORE PUSH1 0x80 DUP6 ADD SWAP1 PUSH2 0xEF1 JUMP JUMPDEST SWAP4 ADD MLOAD SWAP2 ADD MSTORE SWAP1 JUMP JUMPDEST PUSH1 0x80 DUP2 ADD SWAP1 DUP2 LT PUSH1 0x1 PUSH1 0x1 PUSH1 0x40 SHL SUB DUP3 GT OR PUSH2 0xF6D JUMPI PUSH1 0x40 MSTORE JUMP JUMPDEST PUSH4 0x4E487B71 PUSH1 0xE0 SHL PUSH1 0x0 MSTORE PUSH1 0x41 PUSH1 0x4 MSTORE PUSH1 0x24 PUSH1 0x0 REVERT JUMPDEST SWAP1 PUSH1 0x1F DUP1 NOT SWAP2 ADD AND DUP2 ADD SWAP1 DUP2 LT PUSH1 0x1 PUSH1 0x1 PUSH1 0x40 SHL SUB DUP3 GT OR PUSH2 0xF6D JUMPI PUSH1 0x40 MSTORE JUMP JUMPDEST PUSH1 0x1 PUSH1 0x1 PUSH1 0x40 SHL SUB DUP2 GT PUSH2 0xF6D JUMPI PUSH1 0x5 SHL PUSH1 0x20 ADD SWAP1 JUMP JUMPDEST PUSH1 0x1 PUSH1 0x1 PUSH1 0x40 SHL SUB DUP2 GT PUSH2 0xF6D JUMPI PUSH1 0x1F ADD PUSH1 0x1F NOT AND PUSH1 0x20 ADD SWAP1 JUMP JUMPDEST DUP2 PUSH1 0x1F DUP3 ADD SLT ISZERO PUSH2 0xEC9 JUMPI DUP1 CALLDATALOAD SWAP2 PUSH2 0xFED DUP4 PUSH2 0xFA4 JUMP JUMPDEST SWAP3 PUSH2 0xFFB PUSH1 0x40 MLOAD SWAP5 DUP6 PUSH2 0xF83 JUMP JUMPDEST DUP1 DUP5 MSTORE PUSH1 0x20 SWAP3 DUP4 DUP1 DUP7 ADD SWAP3 PUSH1 0x5 SHL DUP3 ADD ADD SWAP3 DUP4 GT PUSH2 0xEC9 JUMPI DUP4 ADD SWAP1 JUMPDEST DUP3 DUP3 LT PUSH2 0x1025 JUMPI POP POP POP POP SWAP1 JUMP JUMPDEST DUP2 CALLDATALOAD DUP2 MSTORE SWAP1 DUP4 ADD SWAP1 DUP4 ADD PUSH2 0x1017 JUMP JUMPDEST SWAP1 PUSH1 0x40 PUSH1 0x3 NOT DUP4 ADD SLT PUSH2 0xEC9 JUMPI PUSH1 0x1 PUSH1 0x1 PUSH1 0x40 SHL SUB PUSH1 0x4 CALLDATALOAD DUP2 DUP2 GT PUSH2 0xEC9 JUMPI DUP4 PUSH2 0x1060 SWAP2 PUSH1 0x4 ADD PUSH2 0xFD6 JUMP JUMPDEST SWAP3 PUSH1 0x24 CALLDATALOAD SWAP2 DUP3 GT PUSH2 0xEC9 JUMPI PUSH2 0x1077 SWAP2 PUSH1 0x4 ADD PUSH2 0xFD6 JUMP JUMPDEST SWAP1 JUMP JUMPDEST SWAP1 PUSH1 0x1 DUP3 DUP2 SHR SWAP3 AND DUP1 ISZERO PUSH2 0x10AA JUMPI JUMPDEST PUSH1 0x20 DUP4 LT EQ PUSH2 0x1094 JUMPI JUMP JUMPDEST PUSH4 0x4E487B71 PUSH1 0xE0 SHL PUSH1 0x0 MSTORE PUSH1 0x22 PUSH1 0x4 MSTORE PUSH1 0x24 PUSH1 0x0 REVERT JUMPDEST SWAP2 PUSH1 0x7F AND SWAP2 PUSH2 0x1089 JUMP JUMPDEST SWAP1 PUSH1 0x40 MLOAD SWAP2 DUP3 PUSH1 0x0 DUP3 SLOAD SWAP3 PUSH2 0x10C8 DUP5 PUSH2 0x107A JUMP JUMPDEST SWAP1 DUP2 DUP5 MSTORE PUSH1 0x1 SWAP5 DUP6 DUP2 AND SWAP1 DUP2 PUSH1 0x0 EQ PUSH2 0x1137 JUMPI POP PUSH1 0x1 EQ PUSH2 0x10F4 JUMPI JUMPDEST POP POP PUSH2 0x10F2 SWAP3 POP SUB DUP4 PUSH2 0xF83 JUMP JUMPDEST JUMP JUMPDEST SWAP1 SWAP4 SWAP2 POP PUSH1 0x0 MSTORE PUSH1 0x20 SWAP1 DUP2 PUSH1 0x0 KECCAK256 SWAP4 PUSH1 0x0 SWAP2 JUMPDEST DUP2 DUP4 LT PUSH2 0x111F JUMPI POP POP PUSH2 0x10F2 SWAP4 POP DUP3 ADD ADD CODESIZE DUP1 PUSH2 0x10E4 JUMP JUMPDEST DUP6 SLOAD DUP9 DUP5 ADD DUP6 ADD MSTORE SWAP5 DUP6 ADD SWAP5 DUP8 SWAP5 POP SWAP2 DUP4 ADD SWAP2 PUSH2 0x1107 JUMP JUMPDEST SWAP2 POP POP PUSH2 0x10F2 SWAP5 POP PUSH1 0x20 SWAP3 POP PUSH1 0xFF NOT AND DUP3 DUP5 ADD MSTORE ISZERO ISZERO PUSH1 0x5 SHL DUP3 ADD ADD CODESIZE DUP1 PUSH2 0x10E4 JUMP JUMPDEST PUSH1 0x0 NOT DUP2 EQ PUSH2 0x1169 JUMPI PUSH1 0x1 ADD SWAP1 JUMP JUMPDEST PUSH4 0x4E487B71 PUSH1 0xE0 SHL PUSH1 0x0 MSTORE PUSH1 0x11 PUSH1 0x4 MSTORE PUSH1 0x24 PUSH1 0x0 REVERT JUMPDEST DUP1 MLOAD DUP3 LT ISZERO PUSH2 0x1193 JUMPI PUSH1 0x20 SWAP2 PUSH1 0x5 SHL ADD ADD SWAP1 JUMP JUMPDEST PUSH4 0x4E487B71 PUSH1 0xE0 SHL PUSH1 0x0 MSTORE PUSH1 0x32 PUSH1 0x4 MSTORE PUSH1 0x24 PUSH1 0x0 REVERT JUMPDEST PUSH1 0x60 SWAP1 PUSH1 0x20 DUP2 MSTORE PUSH1 0x16 PUSH1 0x20 DUP3 ADD MSTORE PUSH22 0x706978656C206973206F7574206F6620626F756E6473 PUSH1 0x50 SHL PUSH1 0x40 DUP3 ADD MSTORE ADD SWAP1 JUMP JUMPDEST ISZERO PUSH2 0x11E1 JUMPI JUMP JUMPDEST PUSH1 0x40 MLOAD PUSH3 0x461BCD PUSH1 0xE5 SHL DUP2 MSTORE PUSH1 0x20 PUSH1 0x4 DUP3 ADD MSTORE PUSH1 0x2B PUSH1 0x24 DUP3 ADD MSTORE PUSH32 0x7820616E64207920696E7075742061727261797320617265206F662076617269 PUSH1 0x44 DUP3 ADD MSTORE PUSH11 0x6F7573206C656E67746873 PUSH1 0xA8 SHL PUSH1 0x64 DUP3 ADD MSTORE PUSH1 0x84 SWAP1 REVERT JUMPDEST SWAP1 DUP2 PUSH1 0x20 SWAP2 SUB SLT PUSH2 0xEC9 JUMPI MLOAD DUP1 ISZERO ISZERO DUP2 SUB PUSH2 0xEC9 JUMPI SWAP1 JUMP JUMPDEST PUSH1 0x1 PUSH1 0x1 PUSH1 0xA0 SHL SUB SWAP2 DUP3 AND DUP2 MSTORE SWAP2 AND PUSH1 0x20 DUP3 ADD MSTORE PUSH1 0x40 DUP2 ADD SWAP2 SWAP1 SWAP2 MSTORE PUSH1 0x60 ADD SWAP1 JUMP JUMPDEST SWAP1 SWAP2 PUSH2 0x1283 DUP3 MLOAD DUP5 MLOAD EQ PUSH2 0x11DA JUMP JUMPDEST PUSH1 0x0 SWAP3 JUMPDEST DUP3 MLOAD DUP5 LT ISZERO PUSH2 0x159D JUMPI PUSH2 0x12A8 PUSH2 0x129D DUP6 DUP6 PUSH2 0x117F JUMP JUMPDEST MLOAD PUSH2 0x2F6 DUP7 DUP5 PUSH2 0x117F JUMP JUMPDEST PUSH2 0x1584 JUMPI PUSH2 0x12B6 DUP5 DUP5 PUSH2 0x117F JUMP JUMPDEST MLOAD PUSH1 0x0 MSTORE PUSH1 0x9 SWAP4 PUSH1 0x20 DUP6 DUP2 MSTORE PUSH1 0x40 SWAP1 DUP2 PUSH1 0x0 KECCAK256 PUSH2 0x12D3 DUP5 DUP7 PUSH2 0x117F JUMP JUMPDEST MLOAD PUSH1 0x0 MSTORE DUP2 MSTORE PUSH1 0x1 DUP1 PUSH1 0xA0 SHL SUB SWAP7 CALLER DUP9 DUP5 PUSH1 0x0 KECCAK256 SLOAD AND SUB PUSH2 0x1536 JUMPI PUSH2 0x1306 PUSH2 0x12FB DUP6 DUP10 PUSH2 0x117F JUMP JUMPDEST MLOAD PUSH2 0x56A DUP7 DUP9 PUSH2 0x117F JUMP JUMPDEST SWAP8 DUP1 PUSH1 0x8 SLOAD AND SWAP1 DUP5 MLOAD SWAP1 PUSH4 0x70A08231 PUSH1 0xE0 SHL DUP3 MSTORE PUSH1 0x4 SWAP2 CALLER DUP4 DUP3 ADD MSTORE PUSH1 0x24 SWAP1 DUP7 DUP2 DUP4 DUP2 DUP9 GAS STATICCALL SWAP1 DUP2 ISZERO PUSH2 0x14AA JUMPI SWAP1 DUP14 SWAP2 PUSH1 0x0 SWAP2 PUSH2 0x1506 JUMPI JUMPDEST POP GT ISZERO PUSH2 0x14B5 JUMPI DUP7 MLOAD PUSH4 0x6EB1769F PUSH1 0xE1 SHL DUP2 MSTORE CALLER DUP5 DUP3 ADD SWAP1 DUP2 MSTORE ADDRESS PUSH1 0x20 DUP3 ADD MSTORE DUP8 SWAP1 DUP3 SWAP1 DUP2 SWAP1 PUSH1 0x40 ADD SUB DUP2 DUP9 GAS STATICCALL SWAP1 DUP2 ISZERO PUSH2 0x14AA JUMPI SWAP1 DUP14 SWAP2 PUSH1 0x0 SWAP2 PUSH2 0x147A JUMPI JUMPDEST POP LT PUSH2 0x1429 JUMPI POP SWAP2 PUSH2 0x13AF SWAP11 SWAP2 PUSH1 0x0 DUP7 SWAP5 DUP2 SLOAD AND SWAP2 DUP9 MLOAD SWAP14 DUP15 SWAP6 DUP7 SWAP5 DUP6 SWAP4 PUSH4 0x23B872DD PUSH1 0xE0 SHL DUP6 MSTORE CALLER SWAP1 DUP6 ADD PUSH2 0x1252 JUMP JUMPDEST SUB SWAP3 GAS CALL SWAP8 DUP9 ISZERO PUSH2 0x141E JUMPI PUSH2 0x13F9 SWAP6 SWAP7 SWAP8 SWAP9 PUSH2 0x1401 JUMPI JUMPDEST POP PUSH2 0x13D1 DUP5 DUP10 PUSH2 0x117F JUMP JUMPDEST MLOAD PUSH1 0x0 MSTORE DUP2 MSTORE DUP2 PUSH1 0x0 KECCAK256 SWAP1 PUSH2 0x13E6 DUP5 DUP8 PUSH2 0x117F JUMP JUMPDEST MLOAD PUSH1 0x0 MSTORE MSTORE PUSH1 0x3 TIMESTAMP SWAP2 PUSH1 0x0 KECCAK256 ADD SSTORE PUSH2 0x115A JUMP JUMPDEST SWAP3 SWAP2 SWAP1 PUSH2 0x1287 JUMP JUMPDEST PUSH2 0x1417 SWAP1 DUP4 RETURNDATASIZE DUP6 GT PUSH2 0x7F2 JUMPI PUSH2 0x7E3 DUP2 DUP4 PUSH2 0xF83 JUMP JUMPDEST POP CODESIZE PUSH2 0x13C6 JUMP JUMPDEST DUP4 MLOAD RETURNDATASIZE PUSH1 0x0 DUP3 RETURNDATACOPY RETURNDATASIZE SWAP1 REVERT JUMPDEST DUP3 PUSH1 0x27 PUSH1 0x84 SWAP3 DUP9 DUP11 MLOAD SWAP4 PUSH3 0x461BCD PUSH1 0xE5 SHL DUP6 MSTORE DUP5 ADD MSTORE DUP3 ADD MSTORE PUSH32 0x696E73756666696369656E7420616C6C6F77616E636520746F2070617920726F PUSH1 0x44 DUP3 ADD MSTORE PUSH7 0x79616C74696573 PUSH1 0xC8 SHL PUSH1 0x64 DUP3 ADD MSTORE REVERT JUMPDEST SWAP2 POP DUP8 DUP3 DUP2 RETURNDATASIZE DUP4 GT PUSH2 0x14A3 JUMPI JUMPDEST PUSH2 0x1491 DUP2 DUP4 PUSH2 0xF83 JUMP JUMPDEST DUP2 ADD SUB SLT PUSH2 0xAB JUMPI POP DUP13 SWAP1 MLOAD CODESIZE PUSH2 0x137E JUMP JUMPDEST POP RETURNDATASIZE PUSH2 0x1487 JUMP JUMPDEST DUP9 MLOAD RETURNDATASIZE PUSH1 0x0 DUP3 RETURNDATACOPY RETURNDATASIZE SWAP1 REVERT JUMPDEST DUP3 PUSH1 0x27 PUSH1 0x84 SWAP3 DUP9 DUP11 MLOAD SWAP4 PUSH3 0x461BCD PUSH1 0xE5 SHL DUP6 MSTORE DUP5 ADD MSTORE DUP3 ADD MSTORE PUSH32 0x6E6F742073756666696369656E742062616C616E636520746F2070617920726F PUSH1 0x44 DUP3 ADD MSTORE PUSH7 0x79616C74696573 PUSH1 0xC8 SHL PUSH1 0x64 DUP3 ADD MSTORE REVERT JUMPDEST SWAP2 POP DUP8 DUP3 DUP2 RETURNDATASIZE DUP4 GT PUSH2 0x152F JUMPI JUMPDEST PUSH2 0x151D DUP2 DUP4 PUSH2 0xF83 JUMP JUMPDEST DUP2 ADD SUB SLT PUSH2 0xAB JUMPI POP DUP13 SWAP1 MLOAD CODESIZE PUSH2 0x133E JUMP JUMPDEST POP RETURNDATASIZE PUSH2 0x1513 JUMP JUMPDEST POP PUSH1 0x84 SWAP2 MLOAD SWAP1 PUSH3 0x461BCD PUSH1 0xE5 SHL DUP3 MSTORE PUSH1 0x4 DUP3 ADD MSTORE PUSH1 0x22 PUSH1 0x24 DUP3 ADD MSTORE PUSH32 0x6F6E6C7920706978656C206F776E65722063616E2070617920726F79616C7469 PUSH1 0x44 DUP3 ADD MSTORE PUSH2 0x6573 PUSH1 0xF0 SHL PUSH1 0x64 DUP3 ADD MSTORE REVERT JUMPDEST PUSH1 0x40 MLOAD PUSH3 0x461BCD PUSH1 0xE5 SHL DUP2 MSTORE DUP1 PUSH2 0xAAE PUSH1 0x4 DUP3 ADD PUSH2 0x11A9 JUMP JUMPDEST POP SWAP2 POP POP JUMP JUMPDEST ISZERO PUSH2 0x15AA JUMPI JUMP JUMPDEST PUSH1 0x40 MLOAD PUSH3 0x461BCD PUSH1 0xE5 SHL DUP2 MSTORE PUSH1 0x20 PUSH1 0x4 DUP3 ADD MSTORE PUSH1 0x23 PUSH1 0x24 DUP3 ADD MSTORE PUSH32 0x6E6F742073756666696369656E742062616C616E636520746F20627579207069 PUSH1 0x44 DUP3 ADD MSTORE PUSH3 0x1E195B PUSH1 0xEA SHL PUSH1 0x64 DUP3 ADD MSTORE PUSH1 0x84 SWAP1 REVERT JUMPDEST ISZERO PUSH2 0x1602 JUMPI JUMP JUMPDEST PUSH1 0x40 MLOAD PUSH3 0x461BCD PUSH1 0xE5 SHL DUP2 MSTORE PUSH1 0x20 PUSH1 0x4 DUP3 ADD MSTORE PUSH1 0x23 PUSH1 0x24 DUP3 ADD MSTORE PUSH32 0x696E73756666696369656E7420616C6C6F77616E636520746F20627579207069 PUSH1 0x44 DUP3 ADD MSTORE PUSH3 0x1E195B PUSH1 0xEA SHL PUSH1 0x64 DUP3 ADD MSTORE PUSH1 0x84 SWAP1 REVERT JUMPDEST SWAP2 SWAP1 DUP3 SUB SWAP2 DUP3 GT PUSH2 0x1169 JUMPI JUMP JUMPDEST PUSH1 0x40 MLOAD SWAP1 PUSH2 0x166D DUP3 PUSH2 0xF52 JUMP JUMPDEST PUSH1 0x0 PUSH1 0x60 DUP4 DUP3 DUP2 MSTORE DUP3 PUSH1 0x20 DUP3 ADD MSTORE DUP2 PUSH1 0x40 DUP3 ADD MSTORE ADD MSTORE JUMP JUMPDEST PUSH2 0x168D PUSH2 0x1660 JUMP JUMPDEST POP PUSH2 0x1698 DUP3 DUP3 PUSH2 0x16F6 JUMP JUMPDEST PUSH2 0x1584 JUMPI PUSH1 0x0 MSTORE PUSH1 0x9 PUSH1 0x20 MSTORE PUSH1 0x40 PUSH1 0x0 KECCAK256 SWAP1 PUSH1 0x0 MSTORE PUSH1 0x20 MSTORE PUSH1 0x40 PUSH1 0x0 KECCAK256 PUSH1 0x3 PUSH1 0x40 MLOAD SWAP2 PUSH2 0x16C4 DUP4 PUSH2 0xF52 JUMP JUMPDEST DUP1 SLOAD PUSH1 0x1 PUSH1 0x1 PUSH1 0xA0 SHL SUB AND DUP4 MSTORE PUSH1 0x1 DUP2 ADD SLOAD PUSH1 0x20 DUP5 ADD MSTORE PUSH2 0x16E7 PUSH1 0x2 DUP3 ADD PUSH2 0x10B4 JUMP JUMPDEST PUSH1 0x40 DUP5 ADD MSTORE ADD SLOAD PUSH1 0x60 DUP3 ADD MSTORE SWAP1 JUMP JUMPDEST PUSH1 0x1 SLOAD GT SWAP1 DUP2 ISZERO SWAP2 PUSH2 0x1706 JUMPI POP SWAP1 JUMP JUMPDEST SWAP1 POP PUSH1 0x2 SLOAD GT ISZERO SWAP1 JUMP JUMPDEST DUP2 DUP2 MUL SWAP3 SWAP2 DUP2 ISZERO SWAP2 DUP5 DIV EQ OR ISZERO PUSH2 0x1169 JUMPI JUMP JUMPDEST PUSH2 0x1770 PUSH2 0x1779 SWAP2 PUSH1 0x0 SWAP4 DUP2 DUP6 MSTORE PUSH1 0x9 PUSH1 0x20 MSTORE PUSH1 0x40 DUP6 KECCAK256 DUP2 DUP7 MSTORE PUSH1 0x20 MSTORE PUSH2 0x1750 PUSH1 0x3 PUSH1 0x40 DUP8 KECCAK256 ADD SLOAD TIMESTAMP PUSH2 0x1653 JUMP JUMPDEST SWAP2 DUP6 MSTORE PUSH1 0x9 PUSH1 0x20 MSTORE PUSH1 0x40 DUP6 KECCAK256 SWAP1 DUP6 MSTORE PUSH1 0x20 MSTORE PUSH1 0x1 PUSH1 0x40 DUP6 KECCAK256 ADD SLOAD SWAP1 PUSH2 0x1710 JUMP JUMPDEST PUSH1 0x3 SLOAD SWAP1 PUSH2 0x1710 JUMP JUMPDEST PUSH1 0x4 SLOAD SWAP2 PUSH4 0x1DA9C00 SWAP3 DUP1 DUP5 MUL SWAP4 DUP5 DIV SUB PUSH2 0x17AD JUMPI DUP3 ISZERO PUSH2 0x1799 JUMPI POP DIV SWAP1 JUMP JUMPDEST PUSH4 0x4E487B71 PUSH1 0xE0 SHL DUP2 MSTORE PUSH1 0x12 PUSH1 0x4 MSTORE PUSH1 0x24 SWAP1 REVERT JUMPDEST PUSH4 0x4E487B71 PUSH1 0xE0 SHL DUP2 MSTORE PUSH1 0x11 PUSH1 0x4 MSTORE PUSH1 0x24 SWAP1 REVERT INVALID LOG2 PUSH5 0x6970667358 0x22 SLT KECCAK256 0x1F GASPRICE MSTORE 0xB1 DUP11 DIV 0xA5 DUP2 DELEGATECALL LOG1 LOG3 SWAP15 PUSH29 0xEA872F0993C0A8AF974FABC5145D5D3956CE1464736F6C634300081400 CALLER "},"methodIdentifiers":{"buyPixel(uint256[],uint256[])":"6ed958f1","calculateRoyalties(uint256,uint256)":"d08629c1","checkMultiplePixel(uint256[],uint256[])":"c7eab2ec","checkPixel(uint256,uint256)":"040cdfd8","fillPixel(bytes[])":"3bdb693e","manager()":"481c6a75","payRoyalties(uint256[],uint256[])":"e50eb5da","setPixelValue(uint256[],uint256[],uint256[])":"8232b562","updateCurrency(address)":"5e027601","window(uint256,uint256)":"c730e65d"}}}}}