{"contracts/Pixelmap.sol":{"Pixelmap":{"abi":[{"inputs":[],"stateMutability":"nonpayable","type":"constructor"},{"inputs":[],"name":"ReentrancyGuardReentrantCall","type":"error"},{"anonymous":false,"inputs":[{"indexed":false,"internalType":"uint256","name":"tokenID","type":"uint256"},{"indexed":false,"internalType":"address","name":"bidder","type":"address"},{"indexed":false,"internalType":"uint256","name":"bid","type":"uint256"}],"name":"AuctionEnded","type":"event"},{"anonymous":false,"inputs":[{"indexed":false,"internalType":"uint256","name":"tokenID","type":"uint256"},{"indexed":false,"internalType":"address","name":"bidder","type":"address"},{"indexed":false,"internalType":"uint256","name":"bid","type":"uint256"}],"name":"BidPlace","type":"event"},{"anonymous":false,"inputs":[{"indexed":false,"internalType":"uint256","name":"tokenID","type":"uint256"},{"indexed":false,"internalType":"address","name":"bidder","type":"address"},{"indexed":false,"internalType":"uint256","name":"bid","type":"uint256"}],"name":"BidWithdrawn","type":"event"},{"anonymous":false,"inputs":[{"indexed":false,"internalType":"uint256","name":"cycle","type":"uint256"}],"name":"NFTMinted","type":"event"},{"anonymous":false,"inputs":[{"indexed":true,"internalType":"uint256","name":"x","type":"uint256"},{"indexed":true,"internalType":"uint256","name":"y","type":"uint256"}],"name":"PixelBought","type":"event"},{"anonymous":false,"inputs":[{"indexed":true,"internalType":"uint256","name":"x","type":"uint256"},{"indexed":true,"internalType":"uint256","name":"y","type":"uint256"}],"name":"PixelFilled","type":"event"},{"anonymous":false,"inputs":[{"indexed":true,"internalType":"uint256","name":"x","type":"uint256"},{"indexed":true,"internalType":"uint256","name":"y","type":"uint256"}],"name":"PixelValueSet","type":"event"},{"anonymous":false,"inputs":[{"indexed":true,"internalType":"uint256","name":"x","type":"uint256"},{"indexed":true,"internalType":"uint256","name":"y","type":"uint256"}],"name":"RoyaltiesPaid","type":"event"},{"anonymous":false,"inputs":[{"indexed":true,"internalType":"address","name":"owner","type":"address"}],"name":"VoteCasted","type":"event"},{"inputs":[],"name":"ARTISTIC_PERIOD","outputs":[{"internalType":"uint256","name":"","type":"uint256"}],"stateMutability":"view","type":"function"},{"inputs":[],"name":"AUCTION_DURATION","outputs":[{"internalType":"uint256","name":"","type":"uint256"}],"stateMutability":"view","type":"function"},{"inputs":[],"name":"CYCLE_PERIOD","outputs":[{"internalType":"uint256","name":"","type":"uint256"}],"stateMutability":"view","type":"function"},{"inputs":[],"name":"VOTING_PERIOD","outputs":[{"internalType":"uint256","name":"","type":"uint256"}],"stateMutability":"view","type":"function"},{"inputs":[{"internalType":"address","name":"","type":"address"}],"name":"balanceOf","outputs":[{"internalType":"uint256","name":"","type":"uint256"}],"stateMutability":"view","type":"function"},{"inputs":[{"internalType":"uint256[]","name":"xValues","type":"uint256[]"},{"internalType":"uint256[]","name":"yValues","type":"uint256[]"}],"name":"buyPixel","outputs":[],"stateMutability":"nonpayable","type":"function"},{"inputs":[{"internalType":"uint256","name":"x","type":"uint256"},{"internalType":"uint256","name":"y","type":"uint256"}],"name":"calculateRoyalties","outputs":[{"internalType":"uint256","name":"","type":"uint256"}],"stateMutability":"view","type":"function"},{"inputs":[],"name":"canvasCreation","outputs":[{"internalType":"uint256","name":"","type":"uint256"}],"stateMutability":"view","type":"function"},{"inputs":[{"internalType":"bool","name":"vote","type":"bool"}],"name":"castVote","outputs":[],"stateMutability":"nonpayable","type":"function"},{"inputs":[{"internalType":"uint256[]","name":"xValues","type":"uint256[]"},{"internalType":"uint256[]","name":"yValues","type":"uint256[]"}],"name":"checkMultiplePixel","outputs":[{"components":[{"internalType":"address","name":"owner","type":"address"},{"internalType":"uint256","name":"shapeID","type":"uint256"},{"internalType":"uint256","name":"price","type":"uint256"},{"internalType":"string","name":"color","type":"string"},{"internalType":"uint256","name":"royaltyLastPaid","type":"uint256"},{"internalType":"bool","name":"askedToPayRoyalties","type":"bool"},{"internalType":"uint256","name":"royaltyAskDate","type":"uint256"}],"internalType":"struct Pixelmap.Pixel[]","name":"","type":"tuple[]"}],"stateMutability":"view","type":"function"},{"inputs":[{"internalType":"uint256","name":"x","type":"uint256"},{"internalType":"uint256","name":"y","type":"uint256"}],"name":"checkPixel","outputs":[{"components":[{"internalType":"address","name":"owner","type":"address"},{"internalType":"uint256","name":"shapeID","type":"uint256"},{"internalType":"uint256","name":"price","type":"uint256"},{"internalType":"string","name":"color","type":"string"},{"internalType":"uint256","name":"royaltyLastPaid","type":"uint256"},{"internalType":"bool","name":"askedToPayRoyalties","type":"bool"},{"internalType":"uint256","name":"royaltyAskDate","type":"uint256"}],"internalType":"struct Pixelmap.Pixel","name":"","type":"tuple"}],"stateMutability":"view","type":"function"},{"inputs":[{"internalType":"uint256","name":"_cycle","type":"uint256"}],"name":"checkVoteOutcome","outputs":[],"stateMutability":"nonpayable","type":"function"},{"inputs":[{"internalType":"uint256","name":"_tokenID","type":"uint256"}],"name":"closeAuction","outputs":[],"stateMutability":"nonpayable","type":"function"},{"inputs":[{"internalType":"bytes[]","name":"_pixels","type":"bytes[]"}],"name":"fillPixel","outputs":[],"stateMutability":"nonpayable","type":"function"},{"inputs":[],"name":"generateSVG","outputs":[{"internalType":"string","name":"","type":"string"}],"stateMutability":"view","type":"function"},{"inputs":[{"internalType":"address","name":"_owner","type":"address"}],"name":"getBalance","outputs":[{"internalType":"uint256","name":"","type":"uint256"}],"stateMutability":"view","type":"function"},{"inputs":[],"name":"getCurrentCycle","outputs":[{"internalType":"uint256","name":"","type":"uint256"}],"stateMutability":"view","type":"function"},{"inputs":[{"internalType":"uint256","name":"_tokenID","type":"uint256"}],"name":"getMintDate","outputs":[{"internalType":"uint256","name":"","type":"uint256"}],"stateMutability":"view","type":"function"},{"inputs":[{"internalType":"address","name":"_owner","type":"address"}],"name":"hasVoted","outputs":[{"internalType":"bool","name":"","type":"bool"}],"stateMutability":"view","type":"function"},{"inputs":[],"name":"isInArtisticPeriod","outputs":[{"internalType":"bool","name":"","type":"bool"}],"stateMutability":"view","type":"function"},{"inputs":[],"name":"isInVotingPeriod","outputs":[{"internalType":"bool","name":"","type":"bool"}],"stateMutability":"view","type":"function"},{"inputs":[],"name":"manager","outputs":[{"internalType":"address","name":"","type":"address"}],"stateMutability":"view","type":"function"},{"inputs":[],"name":"maxHeight","outputs":[{"internalType":"uint256","name":"","type":"uint256"}],"stateMutability":"view","type":"function"},{"inputs":[],"name":"maxWidth","outputs":[{"internalType":"uint256","name":"","type":"uint256"}],"stateMutability":"view","type":"function"},{"inputs":[{"internalType":"uint256","name":"","type":"uint256"}],"name":"mintDates","outputs":[{"internalType":"uint256","name":"","type":"uint256"}],"stateMutability":"view","type":"function"},{"inputs":[{"internalType":"uint256","name":"","type":"uint256"}],"name":"nftAuctions","outputs":[{"internalType":"address","name":"winningAddr","type":"address"},{"internalType":"uint256","name":"winningBid","type":"uint256"},{"internalType":"uint256","name":"auctionStart","type":"uint256"},{"internalType":"uint256","name":"auctionEnd","type":"uint256"},{"internalType":"bool","name":"auctionEnded","type":"bool"}],"stateMutability":"view","type":"function"},{"inputs":[],"name":"nftContract","outputs":[{"internalType":"contract CanvasCollection","name":"","type":"address"}],"stateMutability":"view","type":"function"},{"inputs":[{"internalType":"uint256[]","name":"xValues","type":"uint256[]"},{"internalType":"uint256[]","name":"yValues","type":"uint256[]"}],"name":"payRoyalties","outputs":[],"stateMutability":"nonpayable","type":"function"},{"inputs":[{"internalType":"uint256","name":"","type":"uint256"}],"name":"pixelSVGs","outputs":[{"internalType":"string","name":"","type":"string"}],"stateMutability":"view","type":"function"},{"inputs":[{"internalType":"uint256","name":"_tokenID","type":"uint256"}],"name":"placeBid","outputs":[],"stateMutability":"payable","type":"function"},{"inputs":[{"internalType":"uint256","name":"","type":"uint256"}],"name":"rowSVGs","outputs":[{"internalType":"string","name":"","type":"string"}],"stateMutability":"view","type":"function"},{"inputs":[],"name":"royaltyAskPeriod","outputs":[{"internalType":"uint256","name":"","type":"uint256"}],"stateMutability":"view","type":"function"},{"inputs":[],"name":"royaltyDenominator","outputs":[{"internalType":"uint256","name":"","type":"uint256"}],"stateMutability":"view","type":"function"},{"inputs":[],"name":"royaltyRate","outputs":[{"internalType":"uint256","name":"","type":"uint256"}],"stateMutability":"view","type":"function"},{"inputs":[{"internalType":"uint256","name":"x","type":"uint256"},{"internalType":"uint256","name":"y","type":"uint256"},{"internalType":"uint256","name":"_price","type":"uint256"}],"name":"seekRoyaltyPayment","outputs":[],"stateMutability":"nonpayable","type":"function"},{"inputs":[{"internalType":"address","name":"_nftContract","type":"address"}],"name":"setNFTContract","outputs":[],"stateMutability":"nonpayable","type":"function"},{"inputs":[{"internalType":"uint256[]","name":"xValues","type":"uint256[]"},{"internalType":"uint256[]","name":"yValues","type":"uint256[]"},{"internalType":"uint256[]","name":"priceValues","type":"uint256[]"}],"name":"setPixelValue","outputs":[],"stateMutability":"nonpayable","type":"function"},{"inputs":[{"internalType":"address","name":"_newToken","type":"address"}],"name":"updateCurrency","outputs":[],"stateMutability":"nonpayable","type":"function"},{"inputs":[{"internalType":"uint256","name":"","type":"uint256"}],"name":"voteRegister","outputs":[{"internalType":"uint256","name":"yesVotes","type":"uint256"},{"internalType":"uint256","name":"noVotes","type":"uint256"}],"stateMutability":"view","type":"function"},{"inputs":[{"internalType":"uint256","name":"","type":"uint256"},{"internalType":"uint256","name":"","type":"uint256"}],"name":"window","outputs":[{"internalType":"address","name":"owner","type":"address"},{"internalType":"uint256","name":"shapeID","type":"uint256"},{"internalType":"uint256","name":"price","type":"uint256"},{"internalType":"string","name":"color","type":"string"},{"internalType":"uint256","name":"royaltyLastPaid","type":"uint256"},{"internalType":"bool","name":"askedToPayRoyalties","type":"bool"},{"internalType":"uint256","name":"royaltyAskDate","type":"uint256"}],"stateMutability":"view","type":"function"}],"evm":{"bytecode":{"linkReferences":{},"object":"60808060405234610054576001600055603260035560018060a01b031973c02aaa39b223fe8d0a0e5c4f27ead9083c756cc281600554161760055533906002541617600255426004556137fc908161005a8239f35b600080fdfe6080604052600436101561001257600080fd5b6000803560e01c8063040cdfd8146121bd57806309eef43e1461215e578063113bc99914612140578063236ed8f314611fa657806330b5d6d314611f715780633323a706146117105780633bdb693e14611a14578063481c6a75146119eb5780634882a7ea146119ba5780635c8c6407146117685780635e0276011461171a5780636006ecc81461171557806363aa5ce2146117155780636e70fcc6146117105780636ed958f114610f4b57806370a08231146102125780637ace48e714610d555780638232b56214610ad857806385a9473d146109b357806393cde51a1461094f5780639979ef451461075f578063a271e52514610742578063a7ccabdf146106f0578063ad711e9e14610598578063b1610d7e1461057a578063b3a1ddf414610548578063bc5bc2fb146104f1578063be26ed7f1461051c578063c4323fc1146104f1578063c4d1510d146104d3578063c4e4b90c146104a4578063c730e65d1461040e578063c7eab2ec14610301578063d08629c1146102df578063d56d229d146102b6578063e12459001461026f578063e50eb5da14610254578063f8b2cb4f14610212578063fd8d7ed3146101f55763ff188dca146101d557600080fd5b346101f257806003193601126101f2576020600454604051908152f35b80fd5b50346101f257806003193601126101f25760206040516103e88152f35b50346101f25760203660031901126101f2576004356001600160a01b0381169081900361025057816040916020935261104783522054604051908152f35b5080fd5b50346101f25761026c610266366123fd565b90612749565b80f35b50346101f25760203660031901126101f2576004359060408210156101f2576102b261029e836110070161247d565b604051918291602083526020830190612225565b0390f35b50346101f257806003193601126101f2576001546040516001600160a01b039091168152602090f35b50346101f25760206102f96102f3366121ec565b90612de4565b604051908152f35b50346101f257610310366123fd565b61031d82518251146126af565b81519061032982612351565b926103376040519485612330565b828452601f1961034684612351565b01855b8181106103f7575050845b8381106103b95760408051602080825287518183018190528993600582901b8401810192808b01929185015b82871061038d5785850386f35b9091929382806103a9600193603f198a8203018652885161224a565b9601920196019592919092610380565b806103db6103c960019385612532565b516103d48387612532565b5190612d0d565b6103e58288612532565b526103f08187612532565b5001610354565b602090610402612cd5565b82828901015201610349565b50346101f257604090610420366121ec565b90825260066020528282209082526020522060018060a01b0381541660018201549160028101546104536003830161247d565b9161048e600482015493600660ff6005850154169301549360405197889788526020880152604087015260e0606087015260e0860190612225565b926080850152151560a084015260c08301520390f35b50346101f25760203660031901126101f257600435906110008210156101f2576102b261029e8360070161247d565b50346101f257806003193601126101f2576020600354604051908152f35b50346101f25760203660031901126101f2576040602091600435815261104983522054604051908152f35b50346101f257806003193601126101f25760206205460061053f60045442612c67565b04604051908152f35b50346101f257806003193601126101f25760206203f4806205460061056f60045442612c67565b061015604051908152f35b50346101f257806003193601126101f2576020604051620151808152f35b50346101f257806003193601126101f257604051608081018181106001600160401b038211176106da57604052605781526020907f3c7376672077696474683d2236303022206865696768743d2236303022207669828201527f6577426f783d2230203020363030203630302220786d6c6e733d22687474703a6040820152761797bbbbbb973b999737b933979918181817b9bb33911f60491b6060820152915b60408110610690575061067c60266040518461065e8296518092878086019101612202565b8101651e17b9bb339f60d11b85820152036006810185520183612330565b6102b2604051928284938452830190612225565b91816106cf6106d5926106c160405193826106b48694518092848088019101612202565b8301018761100701613655565b03601f198101835282612330565b92612523565b610639565b634e487b7160e01b600052604160045260246000fd5b50346101f25760203660031901126101f2576004356001600160a01b038181169182900361073e5761072790600254163314612c74565b600180546001600160a01b03191691909117905580f35b8280fd5b50346101f257806003193601126101f257602060405161fd208152f35b506020806003193601126102505760043590610779612ed5565b81835261104a9081815261079760ff60046040872001541615612e41565b8284528181526107af60026040862001544211612e89565b828452818152426003604086200154111561090f5782845281815260016040852001543411156108cb5782845281815283808080604081206001808060a01b03825416910154905af13d156108c6573d61080881612368565b906108166040519283612330565b815285833d92013e5b1561088b57828452526040808320346001820181905581546001600160a01b0319163390811790925582519384526020840191909152908201527f8108a40c809d4e4f749358511f7baa90a1259a19024e438f728276ccd4c936869080606081015b0390a16001815580f35b6064906040519062461bcd60e51b8252600482015260146024820152732330b4b632b2103a379039b2b7321022ba3432b960611b6044820152fd5b61081f565b6064906040519062461bcd60e51b82526004820152601b60248201527f6869676865722062696420616c7265616479206578697374696e6700000000006044820152fd5b6064906040519062461bcd60e51b825260048201526019602482015278185d58dd1a5bdb881a185cc8185b1c9958591e48195b991959603a1b6044820152fd5b50346101f25760203660031901126101f257604060a091600435815261104a60205220600180831b0381541690600181015490600281015460ff60046003840154930154169260405194855260208501526040840152606083015215156080820152f35b50346101f25760603660031901126101f257600435906024356109e160018060a01b03600254163314612c74565b828252600690602082815260408420828552815260ff60056040862001541680610a97575b948495600014610a5e5780855283825260408520838652825260443560026040872001558085528382526040852083865282526005604086200160ff1981541690558452828152604084209184525260408220015580f35b9384905282815260408086208387528252808620600501805460ff19166001179055938552828152838520918552529082204291015580f35b5084845282815260408420828552815282604085200154946203f4808601809611610ac457944211610a06565b634e487b7160e01b85526011600452602485fd5b50346101f25760603660031901126101f2576001600160401b0360043581811161073e57610b0a90369060040161239f565b6024908135838111610d5157610b2490369060040161239f565b916044938435908111610d4d57610b3f90369060040161239f565b908251845181149081610d42575b5015610cef57825194865b868110610bf657505050610b6c8383612749565b845b848110610b79578580f35b80610b8660019284612532565b51610b918286612532565b5188526020600681526040892090610ba98489612532565b518a52526002604089200155610bbf8185612532565b51610bca8287612532565b51907f1c362b7fc7c4865e1e7ede89f240549bbd8b5ee43b51383c9c0392687d6d10ec8980a301610b6e565b610c008186612532565b516040610c0d8389612532565b51911090811591610ce3575b50610ca557610c288186612532565b51885260206006815260408920610c3f8389612532565b518a5281526040892054336001600160a01b0390911603610c635750600101610b58565b6064907f6f6e6c79206f776e65722063616e2073657420706978656c2076616c7565000084601e876040519462461bcd60e51b86526004860152840152820152fd5b60405162461bcd60e51b815260206004820152601881850152774120706978656c206973206f7574206f6620626f756e647360401b81840152606490fd5b60409150101538610c19565b6084907f696e70757420617272617973206d757374206265206f66207468652073616d658660276040519362461bcd60e51b85526020600486015284015282015266040d8cadccee8d60cb1b6064820152fd5b905082511438610b4d565b8580fd5b8480fd5b50346101f25760208060031936011261025057600435801515810361073e5760045462054600906203f48082610d8b8342612c67565b0610610f0a5733855261104784526040852054908115610eb55782610db08242612c67565b048652611048938486526002604088200133600052865260ff60406000205416610e805783919015610e575750610de960045442612c67565b048552828452610dfe604086209182546122a6565b90555b610e0d60045442612c67565b0483528152600260408320019033600052526040600020600160ff19825416179055337f7ce969a18bb6b0fba42c6d9746e7d08eeca4c661809659c91d276456e3153ac08280a280f35b610e619042612c67565b048552828452610e79600160408720019182546122a6565b9055610e01565b60405162461bcd60e51b815260048101879052600d60248201526c185b1c9958591e481d9bdd1959609a1b6044820152606490fd5b60405162461bcd60e51b815260048101869052602760248201527f6e6f20706978656c73206f776e6564203d206e6f20766f74657320746f2062656044820152660818d85cdd195960ca1b6064820152608490fd5b60405162461bcd60e51b81526004810185905260196024820152782b37ba34b7339031bab93932b73a363c903737ba1037b832b760391b6044820152606490fd5b50346101f257610f5a366123fd565b610f6782518251146126af565b815190835b828110610f77578480f35b610f818185612532565b516040610f8e8385612532565b51911090811591611704575b506116e757610fa98185612532565b518552600660205260408520610fbf8284612532565b51865260205260408520546001600160a01b031661108557610fe18185612532565b518552600660205260408520610ff78284612532565b518652602052604085203360018060a01b0319825416179055338552611047602052604085208054906001820180921161107157556001905b61103a8186612532565b516110458285612532565b51907fee0e9a85d097f632450e6ac08750207c8f039246ee437b10eaf708b397d00ad88880a301610f6c565b634e487b7160e01b87526011600452602487fd5b846110a56110938387612532565b5161109e8486612532565b5190612de4565b6110af8387612532565b5182526006602052604082206110c58486612532565b5183526020528060026040842001541160001461146e576110e68387612532565b5182526006602052604082206110fc8486612532565b518352602052611113816002604085200154612c67565b9060018060a01b03600554166040516370a0823160e01b8152336004820152602081602481855afa90811561142b578591611436575b5061118290611158878b612532565b51865260066020526040862061116e888a612532565b518752602052600260408720015410612bb7565b604051636eb1769f60e11b8152336004820152306024820152602081604481855afa90811561142b5785916113ee575b506020916111f0611245926111c7898d612532565b51885260068552604088206111dc8a8c612532565b518952855260026040892001541115612c0f565b6111fa878b612532565b518652600683526040862061120f888a612532565b518752835260408087205490516323b872dd60e01b80825290979096889485938492906001600160a01b03163360048501612727565b03925af19182156113e35761128e936020936113c6575b50600554600254604051928352919485936001600160a01b039283169385938d93859390929091163360048501612727565b03925af180156113bb5761138c575b506112a88185612532565b5185526006602052604085206112be8284612532565b51865260209081526040808720546001600160a01b0316875261104791829052862080546000198101919082116113785755338652602052604085208054906001820180921161107157556001906113168186612532565b51865260066020526040862061132c8285612532565b5187526020526040862033838060a01b031982541617905561134e8186612532565b5186526006602052604086206113648285612532565b518752602052426004604088200155611030565b634e487b7160e01b88526011600452602488fd5b6113ad9060203d6020116113b4575b6113a58183612330565b81019061270f565b503861129d565b503d61139b565b6040513d88823e3d90fd5b6113dc90843d86116113b4576113a58183612330565b503861125c565b6040513d8a823e3d90fd5b9450506020843d602011611423575b8161140a60209383612330565b8101031261141e57925188939060206111b2565b600080fd5b3d91506113fd565b6040513d87823e3d90fd5b9450506020843d602011611466575b8161145260209383612330565b8101031261141e5761118289945190611149565b3d9150611445565b50506005546040516370a0823160e01b81523360048201526024916001600160a01b0316906020818481855afa80156113e35788906116b3575b6114e191506114b78589612532565b5189526006602052604089206114cd8688612532565b518a52602052600260408a20015410612bb7565b604051636eb1769f60e11b8152336004820152306024820152602081604481855afa9081156113e357889161167f575b506115a79161154f602092611526878b612532565b518b526006845260408b2061153b888a612532565b518c528452600260408c2001541115612c0f565b6002546001600160a01b031690611566868a612532565b518a526006835260408a2061157b8789612532565b518b528352600260408b200154918a6040518096819582946323b872dd60e01b84523360048501612727565b03925af1801561167457611655575b506115c18286612532565b5186526006602052604086206115d78385612532565b51875260209081526040808820546001600160a01b031688526110479182905287208054600019810191908211611642575533875260205260408620805491600183018093116116305750556001906113168186612532565b634e487b7160e01b8852601160045287fd5b634e487b7160e01b895260116004528389fd5b61166d9060203d6020116113b4576113a58183612330565b50386115b6565b6040513d89823e3d90fd5b90506020813d6020116116ab575b8161169a60209383612330565b8101031261141e57516115a7611511565b3d915061168d565b506020813d6020116116df575b816116cd60209383612330565b8101031261141e576114e190516114a8565b3d91506116c0565b60405162461bcd60e51b8152806117006004820161255c565b0390fd5b60409150101538610f9a565b6122c9565b612383565b50346101f25760203660031901126101f2576004356001600160a01b038181169182900361073e5761175190600254163314612c74565b600580546001600160a01b03191691909117905580f35b50346101f25760208060031936011261025057600435906205460061178f60045442612c67565b04821015611957578183526110488082526117b46040852060018154910154906122a6565b90811561192257838552825260408420549060011c106117d2578280f35b6001546001600160a01b03929084908416803b15610250578180916024604051809481936335313c2160e11b83523060048401525af18015611917576118ff575b50506004927fd9dc24857f317ed9abbbb42e920ede0104231eb1d3d70236a74887ffaf159868838093604051908152a160015416604051938480926318160ddd60e01b82525afa9182156118f45783926118c5575b5060001982019182116118b157818352611049815242604084205561104a9081815242600260408620015561fd20420192834211610ac457845252600360408320015538808280f35b634e487b7160e01b83526011600452602483fd5b9080925081813d83116118ed575b6118dd8183612330565b8101031261141e57519038611868565b503d6118d3565b6040513d85823e3d90fd5b611908906122e7565b611913578338611813565b8380fd5b6040513d84823e3d90fd5b60405162461bcd60e51b815260048101849052600d60248201526c139bc81d9bdd195cc818d85cdd609a1b6044820152606490fd5b6084906040519062461bcd60e51b82526004820152603660248201527f636865636b20766f7465206f7574636f6d6573206f6e6c7920706f737369626c6044820152756520666f7220636f6e636c75646564206379636c657360501b6064820152fd5b50346101f257806003193601126101f25760206203f480620546006119e160045442612c67565b0610604051908152f35b50346101f257806003193601126101f2576002546040516001600160a01b039091168152602090f35b50346101f25760203660031901126101f2576004356001600160401b038111610250573660238201121561025057806004013590611a5182612351565b91611a5f6040519384612330565b8083526024602084019160051b83010191368311610d515760248101915b838310611f065785856203f48062054600611a9a60045442612c67565b061015611eb6578051906040519061082082018281106001600160401b038211176106da5760405260408252610800366020840137835b838110611bbe578483815b60408110611ae8578280f35b611af28183612532565b51611b00575b600101611adc565b604051611b0c81612315565b838152600682901b6001600160fa1b0383168303610ac457806040019081604011611baa57905b808210611b5457505090611b4d600192826110070161258d565b9050611af8565b9091611000831015611b965760206106cf611b90926106c16040519382611b848694518092848088019101612202565b83010187600701613655565b90611b33565b634e487b7160e01b86526032600452602486fd5b634e487b7160e01b86526011600452602486fd5b611bc88183612532565b518051810181602082019160809182910312611eb257602083015191604084015193606081015192810151906001600160401b038211611eaa570181603f82011215611eae576020810151611c1c81612368565b92611c2a6040519485612330565b81845260408284010111611eaa57611c49916040602085019101612202565b60408310801590611e9f575b6116e757600a821015611e6157828952600660205260408920848a5260205260ff600560408b20015416611e0457828952600660209081526040808b20868c529091528920546001600160a01b03163314611cbd575b50505050611cb890612523565b611ad1565b611cdf90838a52600660205260408a20858b52602052600360408b200161258d565b818852600660209081526040808a20858b529091528820600101556001600160fa1b038216820361107157611d178260061b826122a6565b818852600660205260408820838952602052600160408920015460098381810204811484151715611df0578481810204811485151715611df05790611d8491848b52600660205260408b20868c52602052611d77600360408d200161247d565b9181870291860290612ef8565b90611000811015611ddc57611cb894939291611da29160070161258d565b6001611dae8388612532565b527fa9a418da632d42c446a125f10b007831ba0e348168b6b2474a2383ac5df4c2808880a390868080611cab565b634e487b7160e01b89526032600452602489fd5b634e487b7160e01b8a52601160045260248afd5b60405162461bcd60e51b815260206004820152602f60248201527f6f776e6572207761732061736b656420746f20666972737420736574746c652060448201526e1c9bde585b1d1e481c185e5b595b9d608a1b6064820152608490fd5b60405162461bcd60e51b81526020600482015260166024820152757368617065204944206e6f7420617661696c61626c6560501b6044820152606490fd5b506040841015611c55565b8a80fd5b8980fd5b8780fd5b60405162461bcd60e51b815260206004820152602260248201527f417274697374696320706572696f642063757272656e746c79206e6f74206f7060448201526132b760f11b6064820152608490fd5b82356001600160401b038111611f6d57820136604382011215611f6d57602481013591611f3283612368565b611f3f6040519182612330565b8381528860443681878701011161025057856020968796928793018386013783010152815201920191611a7d565b8680fd5b50346101f25760203660031901126101f257604080916004358152611048602052206001815491015482519182526020820152f35b50346101f257602090816003193601126101f257600435611fc5612ed5565b80825261104a90818452611fe360ff60046040862001541615612e41565b808352818452611ffb60026040852001544211612e89565b8083528184524260036040852001541015612103578083528184526040832060048101805460ff191660019081179091555490546001600160a01b0393918416908416813b15610d4d578361206a92879283604051809681958294632142170760e11b84523060048501612727565b03925af1801561142b576120d2575b5081845290935260408083208054600190910154825195865292166001600160a01b03166020850152830152907fd2aa34a4fdbbc6dff6a3e56f46e0f3ae2a31d7785ff3487aa5c95c642acea501908060608101610881565b936120fd7fd2aa34a4fdbbc6dff6a3e56f46e0f3ae2a31d7785ff3487aa5c95c642acea501956122e7565b93612079565b60405162461bcd60e51b8152600481018590526015602482015274185d58dd1a5bdb881b9bdd08195b991959081e595d605a1b6044820152606490fd5b50346101f257806003193601126101f2576020604051620546008152f35b50346101f25760203660031901126101f2576004356001600160a01b0381169081900361025057604060209260ff926205460061219d60045442612c67565b048252611048855260028383200190825284522054166040519015158152f35b50346101f2576102b26121d86121d2366121ec565b90612d0d565b60405191829160208352602083019061224a565b604090600319011261141e576004359060243590565b60005b8381106122155750506000910152565b8181015183820152602001612205565b9060209161223e81518092818552858086019101612202565b601f01601f1916010190565b9060018060a01b038251168152602082015160208201526040820151604082015260c080612287606085015160e0606086015260e0850190612225565b936080810151608085015260a0810151151560a0850152015191015290565b919082018092116122b357565b634e487b7160e01b600052601160045260246000fd5b3461141e57600036600319011261141e5760206040516203f4808152f35b6001600160401b0381116106da57604052565b60e081019081106001600160401b038211176106da57604052565b602081019081106001600160401b038211176106da57604052565b90601f801991011681019081106001600160401b038211176106da57604052565b6001600160401b0381116106da5760051b60200190565b6001600160401b0381116106da57601f01601f191660200190565b3461141e57600036600319011261141e57602060405160408152f35b81601f8201121561141e578035916123b683612351565b926123c46040519485612330565b808452602092838086019260051b82010192831161141e578301905b8282106123ee575050505090565b813581529083019083016123e0565b90604060031983011261141e576001600160401b0360043581811161141e57836124299160040161239f565b9260243591821161141e576124409160040161239f565b90565b90600182811c92168015612473575b602083101461245d57565b634e487b7160e01b600052602260045260246000fd5b91607f1691612452565b906040519182600082549261249184612443565b90818452600194858116908160001461250057506001146124bd575b50506124bb92500383612330565b565b9093915060005260209081600020936000915b8183106124e85750506124bb935082010138806124ad565b855488840185015294850194879450918301916124d0565b9150506124bb94506020925060ff191682840152151560051b82010138806124ad565b60001981146122b35760010190565b80518210156125465760209160051b010190565b634e487b7160e01b600052603260045260246000fd5b606090602081526016602082015275706978656c206973206f7574206f6620626f756e647360501b60408201520190565b91909182516001600160401b0381116106da576125aa8254612443565b601f8111612654575b50602080601f83116001146125f05750819293946000926125e5575b50508160011b916000199060031b1c1916179055565b0151905038806125cf565b90601f198316958460005282600020926000905b88821061263c57505083600195969710612623575b505050811b019055565b015160001960f88460031b161c19169055388080612619565b80600185968294968601518155019501930190612604565b600083815260208120601f840160051c81019260208510612692575b601f0160051c01915b8281106126875750506125b3565b818155600101612679565b9092508290612670565b818102929181159184041417156122b357565b156126b657565b60405162461bcd60e51b815260206004820152602b60248201527f7820616e64207920696e7075742061727261797320617265206f66207661726960448201526a6f7573206c656e6774687360a81b6064820152608490fd5b9081602091031261141e5751801515810361141e5790565b6001600160a01b03918216815291166020820152604081019190915260600190565b91909161275981518451146126af565b80516000935b81851061276d575050509050565b6127778584612532565b51946127838183612532565b5160408080981091821592612bac575b5050612b94576127a38185612532565b51600052600695602096808852816000206127be8486612532565b51600052885260018060a01b0391338382600020541603612b46576127e38488612532565b51600052818952806000206127f88587612532565b516000528952600498428a8360002001540361282a575b50505050612821919293949550612523565b9392919061275f565b612842612837868a612532565b5161109e8789612532565b99600594808654169084516370a0823160e01b8152338482015260249085818381875afa908115612aba57908f91600091612b16575b5010612ac5578551636eb1769f60e11b8152338582019081523060208201528690829081906040010381875afa908115612aba57908f91600091612a8a575b5010612a39575060025485516323b872dd60e01b81529d85938f939092849283926128e6921633898501612727565b03915a90600091f19a8b15612a2e576128219798999a9b612a11575b5061290d868b612532565b5160005283825282600020612922878a612532565b516000528252429083600020015561293a858a612532565b516000528281528160002061294f8689612532565b51600052815260ff84836000200154166129b1575b505050506129728186612532565b5161297d8285612532565b51907fe61af2269c9afbdb69efce2b15f2a464f8ee6237f105b3d4024f2e824a9f0af3600080a3859493929138808061280f565b6000936129be868b612532565b5185528382528285206129d1878a612532565b518652825282852001805460ff191690556129ec858a612532565b51845282815281842090612a008689612532565b518552528220015538808080612964565b612a2790833d85116113b4576113a58183612330565b5038612902565b83513d6000823e3d90fd5b8360276084928789519362461bcd60e51b85528401528201527f696e73756666696369656e7420616c6c6f77616e636520746f2070617920726f60448201526679616c7469657360c81b6064820152fd5b91508682813d8311612ab3575b612aa18183612330565b810103126101f257508e9051386128b7565b503d612a97565b87513d6000823e3d90fd5b8360276084928789519362461bcd60e51b85528401528201527f6e6f742073756666696369656e742062616c616e636520746f2070617920726f60448201526679616c7469657360c81b6064820152fd5b91508682813d8311612b3f575b612b2d8183612330565b810103126101f257508e905138612878565b503d612b23565b5162461bcd60e51b815260048101899052602260248201527f6f6e6c7920706978656c206f776e65722063616e2070617920726f79616c7469604482015261657360f01b6064820152608490fd5b855162461bcd60e51b8152806117006004820161255c565b101590508638612793565b15612bbe57565b60405162461bcd60e51b815260206004820152602360248201527f6e6f742073756666696369656e742062616c616e636520746f206275792070696044820152621e195b60ea1b6064820152608490fd5b15612c1657565b60405162461bcd60e51b815260206004820152602360248201527f696e73756666696369656e7420616c6c6f77616e636520746f206275792070696044820152621e195b60ea1b6064820152608490fd5b919082039182116122b357565b15612c7b57565b60405162461bcd60e51b815260206004820152602c60248201527f6f776e65722063757272656e74206d616e616765722063616e2063616c6c207460448201526b3434b990333ab731ba34b7b760a11b6064820152608490fd5b60405190612ce2826122fa565b8160c06000918281528260208201528260408201526060808201528260808201528260a08201520152565b90612d16612cd5565b5060409182811080612ddb575b15612da15760005260066020528160002090600052602052600681600020825192612d4d846122fa565b81546001600160a01b0316845260018201546020850152600282015490840152612d796003820161247d565b60608401526004810154608084015260ff600582015416151560a0840152015460c082015290565b825162461bcd60e51b8152602060048201526013602482015272706978656c206f7574206f6620626f756e647360681b6044820152606490fd5b50828210612d23565b612e34612e3d916002604064073df16000956000908482526006602052828220818352602052612e1a6004848420015442612c67565b94825260066020528282209082526020522001549061269c565b6003549061269c565b0490565b15612e4857565b60405162461bcd60e51b815260206004820152601960248201527861756374696f6e2068617320656e64656420616c726561647960381b6044820152606490fd5b15612e9057565b60405162461bcd60e51b815260206004820152601b60248201527f61756374696f6e20686173206e6f7420737461727465642079657400000000006044820152606490fd5b600260005414612ee6576002600055565b604051633ee5aeb560e01b8152600490fd5b91929092821561359957600183146134ca57600283146134a05760038314613444576004928381146133f05760058114613293576006811461324157600781146131da57600881146130f757600914612f625750505050604051612f5b81612315565b6000815290565b612f6b846136d8565b90612f75816136d8565b600886018087116130e257612f89906136d8565b94600883018093116130cd5750916130b1826124409694612fbe612fb8612fb2604999976136d8565b9a6136d8565b926136d8565b91604051998a97602a612fee8a602099693c7061746820643d224d60b01b8b8301528a8151948593019101612202565b890193600160fd1b9485602a820152613010825180938b602b85019101612202565b016b010209c101c101810181018960a51b602b820152613039825180938a603785019101612202565b018360378201526130538251809389603885019101612202565b0161081360f21b60388201526130728251809388603a85019101612202565b0190603a82015261308c8251809386603b85019101612202565b019169102d11103334b6361e9160b11b603b8401528351938491604585019101612202565b01631110179f60e11b6045820152036029810184520182612330565b601190634e487b7160e01b6000525260246000fd5b601186634e487b7160e01b6000525260246000fd5b509260088101938482116131c55761310e856136d8565b9161312161311b836136d8565b916136d8565b94600883018093116130cd5750916130b182612440969461314a612fb8612fb2604999976136d8565b91604051998a97602a61317a8a602099693c7061746820643d224d60b01b8b8301528a8151948593019101612202565b890193600160fd1b9485602a82015261319c825180938b602b85019101612202565b016b010209c101c101810181018160a51b602b820152613039825180938a603785019101612202565b601184634e487b7160e01b6000525260246000fd5b506131e4846136d8565b906131ee816136d8565b6008860180961161322c57613202866136d8565b9460088301908184116130cd57506049949261244096949261314a612fb8612fb26130b1956136d8565b601185634e487b7160e01b6000525260246000fd5b5061324b846136d8565b906008810180821161322c57613260906136d8565b9360088601908187116130cd5750916130b16049949261328361244097956136d8565b9461314a612fb8612fb2846136d8565b509261329e816136d8565b90600885019081861161322c576132b4826136d8565b906132c76132c1826136d8565b976136d8565b95600882018092116130cd5750603f94926124409694926132ed612fb86133d4946136d8565b91604051998a97602a61331d8a602099693c7061746820643d224d60b01b8b8301528a8151948593019101612202565b890193600160fd1b9485602a82015261333f825180938b602b85019101612202565b019161081360f21b9283602b820152613361825180938b602d85019101612202565b0184602d82015261337b825180938a602e85019101612202565b0190602e8201526133958251809388603085019101612202565b019060308201526133af8251809386603185019101612202565b019169103d11103334b6361e9160b11b60318401528351938491603b85019101612202565b01631110179f60e11b603b82015203601f810184520182612330565b50929160088301908184116130cd57613408826136d8565b9160088601918287116130cd5750916133d48261244096946132ed612fb86132c161343e613438603f9b996136d8565b946136d8565b9b6136d8565b915061344f836136d8565b92613459836136d8565b91600882018092116122b35761346e826136d8565b9461348161347b866136d8565b936136d8565b94600881018091116122b35761244095603f956132ed6133d4936136d8565b91506134ab836136d8565b926134b5836136d8565b91600882018083116122b35761346e906136d8565b915091600481018091116122b3576134e1906136d8565b90600481018091116122b357612440916134fc6044926136d8565b936040519485926b1e31b4b931b6329031bc1e9160a11b602085015261352c815180926020602c88019101612202565b830165111031bc9e9160d11b602c820152613551825180936020603285019101612202565b016d1110391e911a11103334b6361e9160911b603282015261357d825180936020604085019101612202565b01631110179f60e11b6040820152036024810184520182612330565b61244092506135ad61311b604f93956136d8565b93604051948592681e3932b1ba103c1e9160b91b60208501526135da815180926020602988019101612202565b83016411103c9e9160d91b60298201526135fe825180936020602e85019101612202565b017f222077696474683d223822206865696768743d2238222066696c6c3d22000000602e820152613639825180936020604b85019101612202565b01631110179f60e11b604b82015203602f810184520182612330565b60009291815461366481612443565b926001918083169081156136bd5750600114613681575b50505050565b90919293945060005260209081600020906000915b8583106136ac575050505001903880808061367b565b805485840152918301918101613696565b60ff191684525050508115159091020191503880808061367b565b80156137985780816000925b6137845750806136f383612368565b926137016040519485612330565b808452601f1961371082612368565b01366020860137915b61372257505090565b6000198201918083116122b35782600a90818404938285029285840414851517156122b35761375460ff938492612c67565b166030019182116122b357855111156125465760f81b6001600160f81b03191660001a908401601f015380613719565b91613790600a91612523565b9204806136e4565b50604051604081018181106001600160401b038211176106da5760405260018152600360fc1b60208201529056fea264697066735822122080241d5a80f5a007ae9a3f5492913c51608843d44428a749b17787fd1ce561ea64736f6c63430008140033","opcodes":"PUSH1 0x80 DUP1 PUSH1 0x40 MSTORE CALLVALUE PUSH2 0x54 JUMPI PUSH1 0x1 PUSH1 0x0 SSTORE PUSH1 0x32 PUSH1 0x3 SSTORE PUSH1 0x1 DUP1 PUSH1 0xA0 SHL SUB NOT PUSH20 0xC02AAA39B223FE8D0A0E5C4F27EAD9083C756CC2 DUP2 PUSH1 0x5 SLOAD AND OR PUSH1 0x5 SSTORE CALLER SWAP1 PUSH1 0x2 SLOAD AND OR PUSH1 0x2 SSTORE TIMESTAMP PUSH1 0x4 SSTORE PUSH2 0x37FC SWAP1 DUP2 PUSH2 0x5A DUP3 CODECOPY RETURN JUMPDEST PUSH1 0x0 DUP1 REVERT INVALID PUSH1 0x80 PUSH1 0x40 MSTORE PUSH1 0x4 CALLDATASIZE LT ISZERO PUSH2 0x12 JUMPI PUSH1 0x0 DUP1 REVERT JUMPDEST PUSH1 0x0 DUP1 CALLDATALOAD PUSH1 0xE0 SHR DUP1 PUSH4 0x40CDFD8 EQ PUSH2 0x21BD JUMPI DUP1 PUSH4 0x9EEF43E EQ PUSH2 0x215E JUMPI DUP1 PUSH4 0x113BC999 EQ PUSH2 0x2140 JUMPI DUP1 PUSH4 0x236ED8F3 EQ PUSH2 0x1FA6 JUMPI DUP1 PUSH4 0x30B5D6D3 EQ PUSH2 0x1F71 JUMPI DUP1 PUSH4 0x3323A706 EQ PUSH2 0x1710 JUMPI DUP1 PUSH4 0x3BDB693E EQ PUSH2 0x1A14 JUMPI DUP1 PUSH4 0x481C6A75 EQ PUSH2 0x19EB JUMPI DUP1 PUSH4 0x4882A7EA EQ PUSH2 0x19BA JUMPI DUP1 PUSH4 0x5C8C6407 EQ PUSH2 0x1768 JUMPI DUP1 PUSH4 0x5E027601 EQ PUSH2 0x171A JUMPI DUP1 PUSH4 0x6006ECC8 EQ PUSH2 0x1715 JUMPI DUP1 PUSH4 0x63AA5CE2 EQ PUSH2 0x1715 JUMPI DUP1 PUSH4 0x6E70FCC6 EQ PUSH2 0x1710 JUMPI DUP1 PUSH4 0x6ED958F1 EQ PUSH2 0xF4B JUMPI DUP1 PUSH4 0x70A08231 EQ PUSH2 0x212 JUMPI DUP1 PUSH4 0x7ACE48E7 EQ PUSH2 0xD55 JUMPI DUP1 PUSH4 0x8232B562 EQ PUSH2 0xAD8 JUMPI DUP1 PUSH4 0x85A9473D EQ PUSH2 0x9B3 JUMPI DUP1 PUSH4 0x93CDE51A EQ PUSH2 0x94F JUMPI DUP1 PUSH4 0x9979EF45 EQ PUSH2 0x75F JUMPI DUP1 PUSH4 0xA271E525 EQ PUSH2 0x742 JUMPI DUP1 PUSH4 0xA7CCABDF EQ PUSH2 0x6F0 JUMPI DUP1 PUSH4 0xAD711E9E EQ PUSH2 0x598 JUMPI DUP1 PUSH4 0xB1610D7E EQ PUSH2 0x57A JUMPI DUP1 PUSH4 0xB3A1DDF4 EQ PUSH2 0x548 JUMPI DUP1 PUSH4 0xBC5BC2FB EQ PUSH2 0x4F1 JUMPI DUP1 PUSH4 0xBE26ED7F EQ PUSH2 0x51C JUMPI DUP1 PUSH4 0xC4323FC1 EQ PUSH2 0x4F1 JUMPI DUP1 PUSH4 0xC4D1510D EQ PUSH2 0x4D3 JUMPI DUP1 PUSH4 0xC4E4B90C EQ PUSH2 0x4A4 JUMPI DUP1 PUSH4 0xC730E65D EQ PUSH2 0x40E JUMPI DUP1 PUSH4 0xC7EAB2EC EQ PUSH2 0x301 JUMPI DUP1 PUSH4 0xD08629C1 EQ PUSH2 0x2DF JUMPI DUP1 PUSH4 0xD56D229D EQ PUSH2 0x2B6 JUMPI DUP1 PUSH4 0xE1245900 EQ PUSH2 0x26F JUMPI DUP1 PUSH4 0xE50EB5DA EQ PUSH2 0x254 JUMPI DUP1 PUSH4 0xF8B2CB4F EQ PUSH2 0x212 JUMPI DUP1 PUSH4 0xFD8D7ED3 EQ PUSH2 0x1F5 JUMPI PUSH4 0xFF188DCA EQ PUSH2 0x1D5 JUMPI PUSH1 0x0 DUP1 REVERT JUMPDEST CALLVALUE PUSH2 0x1F2 JUMPI DUP1 PUSH1 0x3 NOT CALLDATASIZE ADD SLT PUSH2 0x1F2 JUMPI PUSH1 0x20 PUSH1 0x4 SLOAD PUSH1 0x40 MLOAD SWAP1 DUP2 MSTORE RETURN JUMPDEST DUP1 REVERT JUMPDEST POP CALLVALUE PUSH2 0x1F2 JUMPI DUP1 PUSH1 0x3 NOT CALLDATASIZE ADD SLT PUSH2 0x1F2 JUMPI PUSH1 0x20 PUSH1 0x40 MLOAD PUSH2 0x3E8 DUP2 MSTORE RETURN JUMPDEST POP CALLVALUE PUSH2 0x1F2 JUMPI PUSH1 0x20 CALLDATASIZE PUSH1 0x3 NOT ADD SLT PUSH2 0x1F2 JUMPI PUSH1 0x4 CALLDATALOAD PUSH1 0x1 PUSH1 0x1 PUSH1 0xA0 SHL SUB DUP2 AND SWAP1 DUP2 SWAP1 SUB PUSH2 0x250 JUMPI DUP2 PUSH1 0x40 SWAP2 PUSH1 0x20 SWAP4 MSTORE PUSH2 0x1047 DUP4 MSTORE KECCAK256 SLOAD PUSH1 0x40 MLOAD SWAP1 DUP2 MSTORE RETURN JUMPDEST POP DUP1 REVERT JUMPDEST POP CALLVALUE PUSH2 0x1F2 JUMPI PUSH2 0x26C PUSH2 0x266 CALLDATASIZE PUSH2 0x23FD JUMP JUMPDEST SWAP1 PUSH2 0x2749 JUMP JUMPDEST DUP1 RETURN JUMPDEST POP CALLVALUE PUSH2 0x1F2 JUMPI PUSH1 0x20 CALLDATASIZE PUSH1 0x3 NOT ADD SLT PUSH2 0x1F2 JUMPI PUSH1 0x4 CALLDATALOAD SWAP1 PUSH1 0x40 DUP3 LT ISZERO PUSH2 0x1F2 JUMPI PUSH2 0x2B2 PUSH2 0x29E DUP4 PUSH2 0x1007 ADD PUSH2 0x247D JUMP JUMPDEST PUSH1 0x40 MLOAD SWAP2 DUP3 SWAP2 PUSH1 0x20 DUP4 MSTORE PUSH1 0x20 DUP4 ADD SWAP1 PUSH2 0x2225 JUMP JUMPDEST SUB SWAP1 RETURN JUMPDEST POP CALLVALUE PUSH2 0x1F2 JUMPI DUP1 PUSH1 0x3 NOT CALLDATASIZE ADD SLT PUSH2 0x1F2 JUMPI PUSH1 0x1 SLOAD PUSH1 0x40 MLOAD PUSH1 0x1 PUSH1 0x1 PUSH1 0xA0 SHL SUB SWAP1 SWAP2 AND DUP2 MSTORE PUSH1 0x20 SWAP1 RETURN JUMPDEST POP CALLVALUE PUSH2 0x1F2 JUMPI PUSH1 0x20 PUSH2 0x2F9 PUSH2 0x2F3 CALLDATASIZE PUSH2 0x21EC JUMP JUMPDEST SWAP1 PUSH2 0x2DE4 JUMP JUMPDEST PUSH1 0x40 MLOAD SWAP1 DUP2 MSTORE RETURN JUMPDEST POP CALLVALUE PUSH2 0x1F2 JUMPI PUSH2 0x310 CALLDATASIZE PUSH2 0x23FD JUMP JUMPDEST PUSH2 0x31D DUP3 MLOAD DUP3 MLOAD EQ PUSH2 0x26AF JUMP JUMPDEST DUP2 MLOAD SWAP1 PUSH2 0x329 DUP3 PUSH2 0x2351 JUMP JUMPDEST SWAP3 PUSH2 0x337 PUSH1 0x40 MLOAD SWAP5 DUP6 PUSH2 0x2330 JUMP JUMPDEST DUP3 DUP5 MSTORE PUSH1 0x1F NOT PUSH2 0x346 DUP5 PUSH2 0x2351 JUMP JUMPDEST ADD DUP6 JUMPDEST DUP2 DUP2 LT PUSH2 0x3F7 JUMPI POP POP DUP5 JUMPDEST DUP4 DUP2 LT PUSH2 0x3B9 JUMPI PUSH1 0x40 DUP1 MLOAD PUSH1 0x20 DUP1 DUP3 MSTORE DUP8 MLOAD DUP2 DUP4 ADD DUP2 SWAP1 MSTORE DUP10 SWAP4 PUSH1 0x5 DUP3 SWAP1 SHL DUP5 ADD DUP2 ADD SWAP3 DUP1 DUP12 ADD SWAP3 SWAP2 DUP6 ADD JUMPDEST DUP3 DUP8 LT PUSH2 0x38D JUMPI DUP6 DUP6 SUB DUP7 RETURN JUMPDEST SWAP1 SWAP2 SWAP3 SWAP4 DUP3 DUP1 PUSH2 0x3A9 PUSH1 0x1 SWAP4 PUSH1 0x3F NOT DUP11 DUP3 SUB ADD DUP7 MSTORE DUP9 MLOAD PUSH2 0x224A JUMP JUMPDEST SWAP7 ADD SWAP3 ADD SWAP7 ADD SWAP6 SWAP3 SWAP2 SWAP1 SWAP3 PUSH2 0x380 JUMP JUMPDEST DUP1 PUSH2 0x3DB PUSH2 0x3C9 PUSH1 0x1 SWAP4 DUP6 PUSH2 0x2532 JUMP JUMPDEST MLOAD PUSH2 0x3D4 DUP4 DUP8 PUSH2 0x2532 JUMP JUMPDEST MLOAD SWAP1 PUSH2 0x2D0D JUMP JUMPDEST PUSH2 0x3E5 DUP3 DUP9 PUSH2 0x2532 JUMP JUMPDEST MSTORE PUSH2 0x3F0 DUP2 DUP8 PUSH2 0x2532 JUMP JUMPDEST POP ADD PUSH2 0x354 JUMP JUMPDEST PUSH1 0x20 SWAP1 PUSH2 0x402 PUSH2 0x2CD5 JUMP JUMPDEST DUP3 DUP3 DUP10 ADD ADD MSTORE ADD PUSH2 0x349 JUMP JUMPDEST POP CALLVALUE PUSH2 0x1F2 JUMPI PUSH1 0x40 SWAP1 PUSH2 0x420 CALLDATASIZE PUSH2 0x21EC JUMP JUMPDEST SWAP1 DUP3 MSTORE PUSH1 0x6 PUSH1 0x20 MSTORE DUP3 DUP3 KECCAK256 SWAP1 DUP3 MSTORE PUSH1 0x20 MSTORE KECCAK256 PUSH1 0x1 DUP1 PUSH1 0xA0 SHL SUB DUP2 SLOAD AND PUSH1 0x1 DUP3 ADD SLOAD SWAP2 PUSH1 0x2 DUP2 ADD SLOAD PUSH2 0x453 PUSH1 0x3 DUP4 ADD PUSH2 0x247D JUMP JUMPDEST SWAP2 PUSH2 0x48E PUSH1 0x4 DUP3 ADD SLOAD SWAP4 PUSH1 0x6 PUSH1 0xFF PUSH1 0x5 DUP6 ADD SLOAD AND SWAP4 ADD SLOAD SWAP4 PUSH1 0x40 MLOAD SWAP8 DUP9 SWAP8 DUP9 MSTORE PUSH1 0x20 DUP9 ADD MSTORE PUSH1 0x40 DUP8 ADD MSTORE PUSH1 0xE0 PUSH1 0x60 DUP8 ADD MSTORE PUSH1 0xE0 DUP7 ADD SWAP1 PUSH2 0x2225 JUMP JUMPDEST SWAP3 PUSH1 0x80 DUP6 ADD MSTORE ISZERO ISZERO PUSH1 0xA0 DUP5 ADD MSTORE PUSH1 0xC0 DUP4 ADD MSTORE SUB SWAP1 RETURN JUMPDEST POP CALLVALUE PUSH2 0x1F2 JUMPI PUSH1 0x20 CALLDATASIZE PUSH1 0x3 NOT ADD SLT PUSH2 0x1F2 JUMPI PUSH1 0x4 CALLDATALOAD SWAP1 PUSH2 0x1000 DUP3 LT ISZERO PUSH2 0x1F2 JUMPI PUSH2 0x2B2 PUSH2 0x29E DUP4 PUSH1 0x7 ADD PUSH2 0x247D JUMP JUMPDEST POP CALLVALUE PUSH2 0x1F2 JUMPI DUP1 PUSH1 0x3 NOT CALLDATASIZE ADD SLT PUSH2 0x1F2 JUMPI PUSH1 0x20 PUSH1 0x3 SLOAD PUSH1 0x40 MLOAD SWAP1 DUP2 MSTORE RETURN JUMPDEST POP CALLVALUE PUSH2 0x1F2 JUMPI PUSH1 0x20 CALLDATASIZE PUSH1 0x3 NOT ADD SLT PUSH2 0x1F2 JUMPI PUSH1 0x40 PUSH1 0x20 SWAP2 PUSH1 0x4 CALLDATALOAD DUP2 MSTORE PUSH2 0x1049 DUP4 MSTORE KECCAK256 SLOAD PUSH1 0x40 MLOAD SWAP1 DUP2 MSTORE RETURN JUMPDEST POP CALLVALUE PUSH2 0x1F2 JUMPI DUP1 PUSH1 0x3 NOT CALLDATASIZE ADD SLT PUSH2 0x1F2 JUMPI PUSH1 0x20 PUSH3 0x54600 PUSH2 0x53F PUSH1 0x4 SLOAD TIMESTAMP PUSH2 0x2C67 JUMP JUMPDEST DIV PUSH1 0x40 MLOAD SWAP1 DUP2 MSTORE RETURN JUMPDEST POP CALLVALUE PUSH2 0x1F2 JUMPI DUP1 PUSH1 0x3 NOT CALLDATASIZE ADD SLT PUSH2 0x1F2 JUMPI PUSH1 0x20 PUSH3 0x3F480 PUSH3 0x54600 PUSH2 0x56F PUSH1 0x4 SLOAD TIMESTAMP PUSH2 0x2C67 JUMP JUMPDEST MOD LT ISZERO PUSH1 0x40 MLOAD SWAP1 DUP2 MSTORE RETURN JUMPDEST POP CALLVALUE PUSH2 0x1F2 JUMPI DUP1 PUSH1 0x3 NOT CALLDATASIZE ADD SLT PUSH2 0x1F2 JUMPI PUSH1 0x20 PUSH1 0x40 MLOAD PUSH3 0x15180 DUP2 MSTORE RETURN JUMPDEST POP CALLVALUE PUSH2 0x1F2 JUMPI DUP1 PUSH1 0x3 NOT CALLDATASIZE ADD SLT PUSH2 0x1F2 JUMPI PUSH1 0x40 MLOAD PUSH1 0x80 DUP2 ADD DUP2 DUP2 LT PUSH1 0x1 PUSH1 0x1 PUSH1 0x40 SHL SUB DUP3 GT OR PUSH2 0x6DA JUMPI PUSH1 0x40 MSTORE PUSH1 0x57 DUP2 MSTORE PUSH1 0x20 SWAP1 PUSH32 0x3C7376672077696474683D2236303022206865696768743D2236303022207669 DUP3 DUP3 ADD MSTORE PUSH32 0x6577426F783D2230203020363030203630302220786D6C6E733D22687474703A PUSH1 0x40 DUP3 ADD MSTORE PUSH23 0x1797BBBBBB973B999737B933979918181817B9BB33911F PUSH1 0x49 SHL PUSH1 0x60 DUP3 ADD MSTORE SWAP2 JUMPDEST PUSH1 0x40 DUP2 LT PUSH2 0x690 JUMPI POP PUSH2 0x67C PUSH1 0x26 PUSH1 0x40 MLOAD DUP5 PUSH2 0x65E DUP3 SWAP7 MLOAD DUP1 SWAP3 DUP8 DUP1 DUP7 ADD SWAP2 ADD PUSH2 0x2202 JUMP JUMPDEST DUP2 ADD PUSH6 0x1E17B9BB339F PUSH1 0xD1 SHL DUP6 DUP3 ADD MSTORE SUB PUSH1 0x6 DUP2 ADD DUP6 MSTORE ADD DUP4 PUSH2 0x2330 JUMP JUMPDEST PUSH2 0x2B2 PUSH1 0x40 MLOAD SWAP3 DUP3 DUP5 SWAP4 DUP5 MSTORE DUP4 ADD SWAP1 PUSH2 0x2225 JUMP JUMPDEST SWAP2 DUP2 PUSH2 0x6CF PUSH2 0x6D5 SWAP3 PUSH2 0x6C1 PUSH1 0x40 MLOAD SWAP4 DUP3 PUSH2 0x6B4 DUP7 SWAP5 MLOAD DUP1 SWAP3 DUP5 DUP1 DUP9 ADD SWAP2 ADD PUSH2 0x2202 JUMP JUMPDEST DUP4 ADD ADD DUP8 PUSH2 0x1007 ADD PUSH2 0x3655 JUMP JUMPDEST SUB PUSH1 0x1F NOT DUP2 ADD DUP4 MSTORE DUP3 PUSH2 0x2330 JUMP JUMPDEST SWAP3 PUSH2 0x2523 JUMP JUMPDEST PUSH2 0x639 JUMP JUMPDEST PUSH4 0x4E487B71 PUSH1 0xE0 SHL PUSH1 0x0 MSTORE PUSH1 0x41 PUSH1 0x4 MSTORE PUSH1 0x24 PUSH1 0x0 REVERT JUMPDEST POP CALLVALUE PUSH2 0x1F2 JUMPI PUSH1 0x20 CALLDATASIZE PUSH1 0x3 NOT ADD SLT PUSH2 0x1F2 JUMPI PUSH1 0x4 CALLDATALOAD PUSH1 0x1 PUSH1 0x1 PUSH1 0xA0 SHL SUB DUP2 DUP2 AND SWAP2 DUP3 SWAP1 SUB PUSH2 0x73E JUMPI PUSH2 0x727 SWAP1 PUSH1 0x2 SLOAD AND CALLER EQ PUSH2 0x2C74 JUMP JUMPDEST PUSH1 0x1 DUP1 SLOAD PUSH1 0x1 PUSH1 0x1 PUSH1 0xA0 SHL SUB NOT AND SWAP2 SWAP1 SWAP2 OR SWAP1 SSTORE DUP1 RETURN JUMPDEST DUP3 DUP1 REVERT JUMPDEST POP CALLVALUE PUSH2 0x1F2 JUMPI DUP1 PUSH1 0x3 NOT CALLDATASIZE ADD SLT PUSH2 0x1F2 JUMPI PUSH1 0x20 PUSH1 0x40 MLOAD PUSH2 0xFD20 DUP2 MSTORE RETURN JUMPDEST POP PUSH1 0x20 DUP1 PUSH1 0x3 NOT CALLDATASIZE ADD SLT PUSH2 0x250 JUMPI PUSH1 0x4 CALLDATALOAD SWAP1 PUSH2 0x779 PUSH2 0x2ED5 JUMP JUMPDEST DUP2 DUP4 MSTORE PUSH2 0x104A SWAP1 DUP2 DUP2 MSTORE PUSH2 0x797 PUSH1 0xFF PUSH1 0x4 PUSH1 0x40 DUP8 KECCAK256 ADD SLOAD AND ISZERO PUSH2 0x2E41 JUMP JUMPDEST DUP3 DUP5 MSTORE DUP2 DUP2 MSTORE PUSH2 0x7AF PUSH1 0x2 PUSH1 0x40 DUP7 KECCAK256 ADD SLOAD TIMESTAMP GT PUSH2 0x2E89 JUMP JUMPDEST DUP3 DUP5 MSTORE DUP2 DUP2 MSTORE TIMESTAMP PUSH1 0x3 PUSH1 0x40 DUP7 KECCAK256 ADD SLOAD GT ISZERO PUSH2 0x90F JUMPI DUP3 DUP5 MSTORE DUP2 DUP2 MSTORE PUSH1 0x1 PUSH1 0x40 DUP6 KECCAK256 ADD SLOAD CALLVALUE GT ISZERO PUSH2 0x8CB JUMPI DUP3 DUP5 MSTORE DUP2 DUP2 MSTORE DUP4 DUP1 DUP1 DUP1 PUSH1 0x40 DUP2 KECCAK256 PUSH1 0x1 DUP1 DUP1 PUSH1 0xA0 SHL SUB DUP3 SLOAD AND SWAP2 ADD SLOAD SWAP1 GAS CALL RETURNDATASIZE ISZERO PUSH2 0x8C6 JUMPI RETURNDATASIZE PUSH2 0x808 DUP2 PUSH2 0x2368 JUMP JUMPDEST SWAP1 PUSH2 0x816 PUSH1 0x40 MLOAD SWAP3 DUP4 PUSH2 0x2330 JUMP JUMPDEST DUP2 MSTORE DUP6 DUP4 RETURNDATASIZE SWAP3 ADD RETURNDATACOPY JUMPDEST ISZERO PUSH2 0x88B JUMPI DUP3 DUP5 MSTORE MSTORE PUSH1 0x40 DUP1 DUP4 KECCAK256 CALLVALUE PUSH1 0x1 DUP3 ADD DUP2 SWAP1 SSTORE DUP2 SLOAD PUSH1 0x1 PUSH1 0x1 PUSH1 0xA0 SHL SUB NOT AND CALLER SWAP1 DUP2 OR SWAP1 SWAP3 SSTORE DUP3 MLOAD SWAP4 DUP5 MSTORE PUSH1 0x20 DUP5 ADD SWAP2 SWAP1 SWAP2 MSTORE SWAP1 DUP3 ADD MSTORE PUSH32 0x8108A40C809D4E4F749358511F7BAA90A1259A19024E438F728276CCD4C93686 SWAP1 DUP1 PUSH1 0x60 DUP2 ADD JUMPDEST SUB SWAP1 LOG1 PUSH1 0x1 DUP2 SSTORE DUP1 RETURN JUMPDEST PUSH1 0x64 SWAP1 PUSH1 0x40 MLOAD SWAP1 PUSH3 0x461BCD PUSH1 0xE5 SHL DUP3 MSTORE PUSH1 0x4 DUP3 ADD MSTORE PUSH1 0x14 PUSH1 0x24 DUP3 ADD MSTORE PUSH20 0x2330B4B632B2103A379039B2B7321022BA3432B9 PUSH1 0x61 SHL PUSH1 0x44 DUP3 ADD MSTORE REVERT JUMPDEST PUSH2 0x81F JUMP JUMPDEST PUSH1 0x64 SWAP1 PUSH1 0x40 MLOAD SWAP1 PUSH3 0x461BCD PUSH1 0xE5 SHL DUP3 MSTORE PUSH1 0x4 DUP3 ADD MSTORE PUSH1 0x1B PUSH1 0x24 DUP3 ADD MSTORE PUSH32 0x6869676865722062696420616C7265616479206578697374696E670000000000 PUSH1 0x44 DUP3 ADD MSTORE REVERT JUMPDEST PUSH1 0x64 SWAP1 PUSH1 0x40 MLOAD SWAP1 PUSH3 0x461BCD PUSH1 0xE5 SHL DUP3 MSTORE PUSH1 0x4 DUP3 ADD MSTORE PUSH1 0x19 PUSH1 0x24 DUP3 ADD MSTORE PUSH25 0x185D58DD1A5BDB881A185CC8185B1C9958591E48195B991959 PUSH1 0x3A SHL PUSH1 0x44 DUP3 ADD MSTORE REVERT JUMPDEST POP CALLVALUE PUSH2 0x1F2 JUMPI PUSH1 0x20 CALLDATASIZE PUSH1 0x3 NOT ADD SLT PUSH2 0x1F2 JUMPI PUSH1 0x40 PUSH1 0xA0 SWAP2 PUSH1 0x4 CALLDATALOAD DUP2 MSTORE PUSH2 0x104A PUSH1 0x20 MSTORE KECCAK256 PUSH1 0x1 DUP1 DUP4 SHL SUB DUP2 SLOAD AND SWAP1 PUSH1 0x1 DUP2 ADD SLOAD SWAP1 PUSH1 0x2 DUP2 ADD SLOAD PUSH1 0xFF PUSH1 0x4 PUSH1 0x3 DUP5 ADD SLOAD SWAP4 ADD SLOAD AND SWAP3 PUSH1 0x40 MLOAD SWAP5 DUP6 MSTORE PUSH1 0x20 DUP6 ADD MSTORE PUSH1 0x40 DUP5 ADD MSTORE PUSH1 0x60 DUP4 ADD MSTORE ISZERO ISZERO PUSH1 0x80 DUP3 ADD MSTORE RETURN JUMPDEST POP CALLVALUE PUSH2 0x1F2 JUMPI PUSH1 0x60 CALLDATASIZE PUSH1 0x3 NOT ADD SLT PUSH2 0x1F2 JUMPI PUSH1 0x4 CALLDATALOAD SWAP1 PUSH1 0x24 CALLDATALOAD PUSH2 0x9E1 PUSH1 0x1 DUP1 PUSH1 0xA0 SHL SUB PUSH1 0x2 SLOAD AND CALLER EQ PUSH2 0x2C74 JUMP JUMPDEST DUP3 DUP3 MSTORE PUSH1 0x6 SWAP1 PUSH1 0x20 DUP3 DUP2 MSTORE PUSH1 0x40 DUP5 KECCAK256 DUP3 DUP6 MSTORE DUP2 MSTORE PUSH1 0xFF PUSH1 0x5 PUSH1 0x40 DUP7 KECCAK256 ADD SLOAD AND DUP1 PUSH2 0xA97 JUMPI JUMPDEST SWAP5 DUP5 SWAP6 PUSH1 0x0 EQ PUSH2 0xA5E JUMPI DUP1 DUP6 MSTORE DUP4 DUP3 MSTORE PUSH1 0x40 DUP6 KECCAK256 DUP4 DUP7 MSTORE DUP3 MSTORE PUSH1 0x44 CALLDATALOAD PUSH1 0x2 PUSH1 0x40 DUP8 KECCAK256 ADD SSTORE DUP1 DUP6 MSTORE DUP4 DUP3 MSTORE PUSH1 0x40 DUP6 KECCAK256 DUP4 DUP7 MSTORE DUP3 MSTORE PUSH1 0x5 PUSH1 0x40 DUP7 KECCAK256 ADD PUSH1 0xFF NOT DUP2 SLOAD AND SWAP1 SSTORE DUP5 MSTORE DUP3 DUP2 MSTORE PUSH1 0x40 DUP5 KECCAK256 SWAP2 DUP5 MSTORE MSTORE PUSH1 0x40 DUP3 KECCAK256 ADD SSTORE DUP1 RETURN JUMPDEST SWAP4 DUP5 SWAP1 MSTORE DUP3 DUP2 MSTORE PUSH1 0x40 DUP1 DUP7 KECCAK256 DUP4 DUP8 MSTORE DUP3 MSTORE DUP1 DUP7 KECCAK256 PUSH1 0x5 ADD DUP1 SLOAD PUSH1 0xFF NOT AND PUSH1 0x1 OR SWAP1 SSTORE SWAP4 DUP6 MSTORE DUP3 DUP2 MSTORE DUP4 DUP6 KECCAK256 SWAP2 DUP6 MSTORE MSTORE SWAP1 DUP3 KECCAK256 TIMESTAMP SWAP2 ADD SSTORE DUP1 RETURN JUMPDEST POP DUP5 DUP5 MSTORE DUP3 DUP2 MSTORE PUSH1 0x40 DUP5 KECCAK256 DUP3 DUP6 MSTORE DUP2 MSTORE DUP3 PUSH1 0x40 DUP6 KECCAK256 ADD SLOAD SWAP5 PUSH3 0x3F480 DUP7 ADD DUP1 SWAP7 GT PUSH2 0xAC4 JUMPI SWAP5 TIMESTAMP GT PUSH2 0xA06 JUMP JUMPDEST PUSH4 0x4E487B71 PUSH1 0xE0 SHL DUP6 MSTORE PUSH1 0x11 PUSH1 0x4 MSTORE PUSH1 0x24 DUP6 REVERT JUMPDEST POP CALLVALUE PUSH2 0x1F2 JUMPI PUSH1 0x60 CALLDATASIZE PUSH1 0x3 NOT ADD SLT PUSH2 0x1F2 JUMPI PUSH1 0x1 PUSH1 0x1 PUSH1 0x40 SHL SUB PUSH1 0x4 CALLDATALOAD DUP2 DUP2 GT PUSH2 0x73E JUMPI PUSH2 0xB0A SWAP1 CALLDATASIZE SWAP1 PUSH1 0x4 ADD PUSH2 0x239F JUMP JUMPDEST PUSH1 0x24 SWAP1 DUP2 CALLDATALOAD DUP4 DUP2 GT PUSH2 0xD51 JUMPI PUSH2 0xB24 SWAP1 CALLDATASIZE SWAP1 PUSH1 0x4 ADD PUSH2 0x239F JUMP JUMPDEST SWAP2 PUSH1 0x44 SWAP4 DUP5 CALLDATALOAD SWAP1 DUP2 GT PUSH2 0xD4D JUMPI PUSH2 0xB3F SWAP1 CALLDATASIZE SWAP1 PUSH1 0x4 ADD PUSH2 0x239F JUMP JUMPDEST SWAP1 DUP3 MLOAD DUP5 MLOAD DUP2 EQ SWAP1 DUP2 PUSH2 0xD42 JUMPI JUMPDEST POP ISZERO PUSH2 0xCEF JUMPI DUP3 MLOAD SWAP5 DUP7 JUMPDEST DUP7 DUP2 LT PUSH2 0xBF6 JUMPI POP POP POP PUSH2 0xB6C DUP4 DUP4 PUSH2 0x2749 JUMP JUMPDEST DUP5 JUMPDEST DUP5 DUP2 LT PUSH2 0xB79 JUMPI DUP6 DUP1 RETURN JUMPDEST DUP1 PUSH2 0xB86 PUSH1 0x1 SWAP3 DUP5 PUSH2 0x2532 JUMP JUMPDEST MLOAD PUSH2 0xB91 DUP3 DUP7 PUSH2 0x2532 JUMP JUMPDEST MLOAD DUP9 MSTORE PUSH1 0x20 PUSH1 0x6 DUP2 MSTORE PUSH1 0x40 DUP10 KECCAK256 SWAP1 PUSH2 0xBA9 DUP5 DUP10 PUSH2 0x2532 JUMP JUMPDEST MLOAD DUP11 MSTORE MSTORE PUSH1 0x2 PUSH1 0x40 DUP10 KECCAK256 ADD SSTORE PUSH2 0xBBF DUP2 DUP6 PUSH2 0x2532 JUMP JUMPDEST MLOAD PUSH2 0xBCA DUP3 DUP8 PUSH2 0x2532 JUMP JUMPDEST MLOAD SWAP1 PUSH32 0x1C362B7FC7C4865E1E7EDE89F240549BBD8B5EE43B51383C9C0392687D6D10EC DUP10 DUP1 LOG3 ADD PUSH2 0xB6E JUMP JUMPDEST PUSH2 0xC00 DUP2 DUP7 PUSH2 0x2532 JUMP JUMPDEST MLOAD PUSH1 0x40 PUSH2 0xC0D DUP4 DUP10 PUSH2 0x2532 JUMP JUMPDEST MLOAD SWAP2 LT SWAP1 DUP2 ISZERO SWAP2 PUSH2 0xCE3 JUMPI JUMPDEST POP PUSH2 0xCA5 JUMPI PUSH2 0xC28 DUP2 DUP7 PUSH2 0x2532 JUMP JUMPDEST MLOAD DUP9 MSTORE PUSH1 0x20 PUSH1 0x6 DUP2 MSTORE PUSH1 0x40 DUP10 KECCAK256 PUSH2 0xC3F DUP4 DUP10 PUSH2 0x2532 JUMP JUMPDEST MLOAD DUP11 MSTORE DUP2 MSTORE PUSH1 0x40 DUP10 KECCAK256 SLOAD CALLER PUSH1 0x1 PUSH1 0x1 PUSH1 0xA0 SHL SUB SWAP1 SWAP2 AND SUB PUSH2 0xC63 JUMPI POP PUSH1 0x1 ADD PUSH2 0xB58 JUMP JUMPDEST PUSH1 0x64 SWAP1 PUSH32 0x6F6E6C79206F776E65722063616E2073657420706978656C2076616C75650000 DUP5 PUSH1 0x1E DUP8 PUSH1 0x40 MLOAD SWAP5 PUSH3 0x461BCD PUSH1 0xE5 SHL DUP7 MSTORE PUSH1 0x4 DUP7 ADD MSTORE DUP5 ADD MSTORE DUP3 ADD MSTORE REVERT JUMPDEST PUSH1 0x40 MLOAD PUSH3 0x461BCD PUSH1 0xE5 SHL DUP2 MSTORE PUSH1 0x20 PUSH1 0x4 DUP3 ADD MSTORE PUSH1 0x18 DUP2 DUP6 ADD MSTORE PUSH24 0x4120706978656C206973206F7574206F6620626F756E6473 PUSH1 0x40 SHL DUP2 DUP5 ADD MSTORE PUSH1 0x64 SWAP1 REVERT JUMPDEST PUSH1 0x40 SWAP2 POP LT ISZERO CODESIZE PUSH2 0xC19 JUMP JUMPDEST PUSH1 0x84 SWAP1 PUSH32 0x696E70757420617272617973206D757374206265206F66207468652073616D65 DUP7 PUSH1 0x27 PUSH1 0x40 MLOAD SWAP4 PUSH3 0x461BCD PUSH1 0xE5 SHL DUP6 MSTORE PUSH1 0x20 PUSH1 0x4 DUP7 ADD MSTORE DUP5 ADD MSTORE DUP3 ADD MSTORE PUSH7 0x40D8CADCCEE8D PUSH1 0xCB SHL PUSH1 0x64 DUP3 ADD MSTORE REVERT JUMPDEST SWAP1 POP DUP3 MLOAD EQ CODESIZE PUSH2 0xB4D JUMP JUMPDEST DUP6 DUP1 REVERT JUMPDEST DUP5 DUP1 REVERT JUMPDEST POP CALLVALUE PUSH2 0x1F2 JUMPI PUSH1 0x20 DUP1 PUSH1 0x3 NOT CALLDATASIZE ADD SLT PUSH2 0x250 JUMPI PUSH1 0x4 CALLDATALOAD DUP1 ISZERO ISZERO DUP2 SUB PUSH2 0x73E JUMPI PUSH1 0x4 SLOAD PUSH3 0x54600 SWAP1 PUSH3 0x3F480 DUP3 PUSH2 0xD8B DUP4 TIMESTAMP PUSH2 0x2C67 JUMP JUMPDEST MOD LT PUSH2 0xF0A JUMPI CALLER DUP6 MSTORE PUSH2 0x1047 DUP5 MSTORE PUSH1 0x40 DUP6 KECCAK256 SLOAD SWAP1 DUP2 ISZERO PUSH2 0xEB5 JUMPI DUP3 PUSH2 0xDB0 DUP3 TIMESTAMP PUSH2 0x2C67 JUMP JUMPDEST DIV DUP7 MSTORE PUSH2 0x1048 SWAP4 DUP5 DUP7 MSTORE PUSH1 0x2 PUSH1 0x40 DUP9 KECCAK256 ADD CALLER PUSH1 0x0 MSTORE DUP7 MSTORE PUSH1 0xFF PUSH1 0x40 PUSH1 0x0 KECCAK256 SLOAD AND PUSH2 0xE80 JUMPI DUP4 SWAP2 SWAP1 ISZERO PUSH2 0xE57 JUMPI POP PUSH2 0xDE9 PUSH1 0x4 SLOAD TIMESTAMP PUSH2 0x2C67 JUMP JUMPDEST DIV DUP6 MSTORE DUP3 DUP5 MSTORE PUSH2 0xDFE PUSH1 0x40 DUP7 KECCAK256 SWAP2 DUP3 SLOAD PUSH2 0x22A6 JUMP JUMPDEST SWAP1 SSTORE JUMPDEST PUSH2 0xE0D PUSH1 0x4 SLOAD TIMESTAMP PUSH2 0x2C67 JUMP JUMPDEST DIV DUP4 MSTORE DUP2 MSTORE PUSH1 0x2 PUSH1 0x40 DUP4 KECCAK256 ADD SWAP1 CALLER PUSH1 0x0 MSTORE MSTORE PUSH1 0x40 PUSH1 0x0 KECCAK256 PUSH1 0x1 PUSH1 0xFF NOT DUP3 SLOAD AND OR SWAP1 SSTORE CALLER PUSH32 0x7CE969A18BB6B0FBA42C6D9746E7D08EECA4C661809659C91D276456E3153AC0 DUP3 DUP1 LOG2 DUP1 RETURN JUMPDEST PUSH2 0xE61 SWAP1 TIMESTAMP PUSH2 0x2C67 JUMP JUMPDEST DIV DUP6 MSTORE DUP3 DUP5 MSTORE PUSH2 0xE79 PUSH1 0x1 PUSH1 0x40 DUP8 KECCAK256 ADD SWAP2 DUP3 SLOAD PUSH2 0x22A6 JUMP JUMPDEST SWAP1 SSTORE PUSH2 0xE01 JUMP JUMPDEST PUSH1 0x40 MLOAD PUSH3 0x461BCD PUSH1 0xE5 SHL DUP2 MSTORE PUSH1 0x4 DUP2 ADD DUP8 SWAP1 MSTORE PUSH1 0xD PUSH1 0x24 DUP3 ADD MSTORE PUSH13 0x185B1C9958591E481D9BDD1959 PUSH1 0x9A SHL PUSH1 0x44 DUP3 ADD MSTORE PUSH1 0x64 SWAP1 REVERT JUMPDEST PUSH1 0x40 MLOAD PUSH3 0x461BCD PUSH1 0xE5 SHL DUP2 MSTORE PUSH1 0x4 DUP2 ADD DUP7 SWAP1 MSTORE PUSH1 0x27 PUSH1 0x24 DUP3 ADD MSTORE PUSH32 0x6E6F20706978656C73206F776E6564203D206E6F20766F74657320746F206265 PUSH1 0x44 DUP3 ADD MSTORE PUSH7 0x818D85CDD1959 PUSH1 0xCA SHL PUSH1 0x64 DUP3 ADD MSTORE PUSH1 0x84 SWAP1 REVERT JUMPDEST PUSH1 0x40 MLOAD PUSH3 0x461BCD PUSH1 0xE5 SHL DUP2 MSTORE PUSH1 0x4 DUP2 ADD DUP6 SWAP1 MSTORE PUSH1 0x19 PUSH1 0x24 DUP3 ADD MSTORE PUSH25 0x2B37BA34B7339031BAB93932B73A363C903737BA1037B832B7 PUSH1 0x39 SHL PUSH1 0x44 DUP3 ADD MSTORE PUSH1 0x64 SWAP1 REVERT JUMPDEST POP CALLVALUE PUSH2 0x1F2 JUMPI PUSH2 0xF5A CALLDATASIZE PUSH2 0x23FD JUMP JUMPDEST PUSH2 0xF67 DUP3 MLOAD DUP3 MLOAD EQ PUSH2 0x26AF JUMP JUMPDEST DUP2 MLOAD SWAP1 DUP4 JUMPDEST DUP3 DUP2 LT PUSH2 0xF77 JUMPI DUP5 DUP1 RETURN JUMPDEST PUSH2 0xF81 DUP2 DUP6 PUSH2 0x2532 JUMP JUMPDEST MLOAD PUSH1 0x40 PUSH2 0xF8E DUP4 DUP6 PUSH2 0x2532 JUMP JUMPDEST MLOAD SWAP2 LT SWAP1 DUP2 ISZERO SWAP2 PUSH2 0x1704 JUMPI JUMPDEST POP PUSH2 0x16E7 JUMPI PUSH2 0xFA9 DUP2 DUP6 PUSH2 0x2532 JUMP JUMPDEST MLOAD DUP6 MSTORE PUSH1 0x6 PUSH1 0x20 MSTORE PUSH1 0x40 DUP6 KECCAK256 PUSH2 0xFBF DUP3 DUP5 PUSH2 0x2532 JUMP JUMPDEST MLOAD DUP7 MSTORE PUSH1 0x20 MSTORE PUSH1 0x40 DUP6 KECCAK256 SLOAD PUSH1 0x1 PUSH1 0x1 PUSH1 0xA0 SHL SUB AND PUSH2 0x1085 JUMPI PUSH2 0xFE1 DUP2 DUP6 PUSH2 0x2532 JUMP JUMPDEST MLOAD DUP6 MSTORE PUSH1 0x6 PUSH1 0x20 MSTORE PUSH1 0x40 DUP6 KECCAK256 PUSH2 0xFF7 DUP3 DUP5 PUSH2 0x2532 JUMP JUMPDEST MLOAD DUP7 MSTORE PUSH1 0x20 MSTORE PUSH1 0x40 DUP6 KECCAK256 CALLER PUSH1 0x1 DUP1 PUSH1 0xA0 SHL SUB NOT DUP3 SLOAD AND OR SWAP1 SSTORE CALLER DUP6 MSTORE PUSH2 0x1047 PUSH1 0x20 MSTORE PUSH1 0x40 DUP6 KECCAK256 DUP1 SLOAD SWAP1 PUSH1 0x1 DUP3 ADD DUP1 SWAP3 GT PUSH2 0x1071 JUMPI SSTORE PUSH1 0x1 SWAP1 JUMPDEST PUSH2 0x103A DUP2 DUP7 PUSH2 0x2532 JUMP JUMPDEST MLOAD PUSH2 0x1045 DUP3 DUP6 PUSH2 0x2532 JUMP JUMPDEST MLOAD SWAP1 PUSH32 0xEE0E9A85D097F632450E6AC08750207C8F039246EE437B10EAF708B397D00AD8 DUP9 DUP1 LOG3 ADD PUSH2 0xF6C JUMP JUMPDEST PUSH4 0x4E487B71 PUSH1 0xE0 SHL DUP8 MSTORE PUSH1 0x11 PUSH1 0x4 MSTORE PUSH1 0x24 DUP8 REVERT JUMPDEST DUP5 PUSH2 0x10A5 PUSH2 0x1093 DUP4 DUP8 PUSH2 0x2532 JUMP JUMPDEST MLOAD PUSH2 0x109E DUP5 DUP7 PUSH2 0x2532 JUMP JUMPDEST MLOAD SWAP1 PUSH2 0x2DE4 JUMP JUMPDEST PUSH2 0x10AF DUP4 DUP8 PUSH2 0x2532 JUMP JUMPDEST MLOAD DUP3 MSTORE PUSH1 0x6 PUSH1 0x20 MSTORE PUSH1 0x40 DUP3 KECCAK256 PUSH2 0x10C5 DUP5 DUP7 PUSH2 0x2532 JUMP JUMPDEST MLOAD DUP4 MSTORE PUSH1 0x20 MSTORE DUP1 PUSH1 0x2 PUSH1 0x40 DUP5 KECCAK256 ADD SLOAD GT PUSH1 0x0 EQ PUSH2 0x146E JUMPI PUSH2 0x10E6 DUP4 DUP8 PUSH2 0x2532 JUMP JUMPDEST MLOAD DUP3 MSTORE PUSH1 0x6 PUSH1 0x20 MSTORE PUSH1 0x40 DUP3 KECCAK256 PUSH2 0x10FC DUP5 DUP7 PUSH2 0x2532 JUMP JUMPDEST MLOAD DUP4 MSTORE PUSH1 0x20 MSTORE PUSH2 0x1113 DUP2 PUSH1 0x2 PUSH1 0x40 DUP6 KECCAK256 ADD SLOAD PUSH2 0x2C67 JUMP JUMPDEST SWAP1 PUSH1 0x1 DUP1 PUSH1 0xA0 SHL SUB PUSH1 0x5 SLOAD AND PUSH1 0x40 MLOAD PUSH4 0x70A08231 PUSH1 0xE0 SHL DUP2 MSTORE CALLER PUSH1 0x4 DUP3 ADD MSTORE PUSH1 0x20 DUP2 PUSH1 0x24 DUP2 DUP6 GAS STATICCALL SWAP1 DUP2 ISZERO PUSH2 0x142B JUMPI DUP6 SWAP2 PUSH2 0x1436 JUMPI JUMPDEST POP PUSH2 0x1182 SWAP1 PUSH2 0x1158 DUP8 DUP12 PUSH2 0x2532 JUMP JUMPDEST MLOAD DUP7 MSTORE PUSH1 0x6 PUSH1 0x20 MSTORE PUSH1 0x40 DUP7 KECCAK256 PUSH2 0x116E DUP9 DUP11 PUSH2 0x2532 JUMP JUMPDEST MLOAD DUP8 MSTORE PUSH1 0x20 MSTORE PUSH1 0x2 PUSH1 0x40 DUP8 KECCAK256 ADD SLOAD LT PUSH2 0x2BB7 JUMP JUMPDEST PUSH1 0x40 MLOAD PUSH4 0x6EB1769F PUSH1 0xE1 SHL DUP2 MSTORE CALLER PUSH1 0x4 DUP3 ADD MSTORE ADDRESS PUSH1 0x24 DUP3 ADD MSTORE PUSH1 0x20 DUP2 PUSH1 0x44 DUP2 DUP6 GAS STATICCALL SWAP1 DUP2 ISZERO PUSH2 0x142B JUMPI DUP6 SWAP2 PUSH2 0x13EE JUMPI JUMPDEST POP PUSH1 0x20 SWAP2 PUSH2 0x11F0 PUSH2 0x1245 SWAP3 PUSH2 0x11C7 DUP10 DUP14 PUSH2 0x2532 JUMP JUMPDEST MLOAD DUP9 MSTORE PUSH1 0x6 DUP6 MSTORE PUSH1 0x40 DUP9 KECCAK256 PUSH2 0x11DC DUP11 DUP13 PUSH2 0x2532 JUMP JUMPDEST MLOAD DUP10 MSTORE DUP6 MSTORE PUSH1 0x2 PUSH1 0x40 DUP10 KECCAK256 ADD SLOAD GT ISZERO PUSH2 0x2C0F JUMP JUMPDEST PUSH2 0x11FA DUP8 DUP12 PUSH2 0x2532 JUMP JUMPDEST MLOAD DUP7 MSTORE PUSH1 0x6 DUP4 MSTORE PUSH1 0x40 DUP7 KECCAK256 PUSH2 0x120F DUP9 DUP11 PUSH2 0x2532 JUMP JUMPDEST MLOAD DUP8 MSTORE DUP4 MSTORE PUSH1 0x40 DUP1 DUP8 KECCAK256 SLOAD SWAP1 MLOAD PUSH4 0x23B872DD PUSH1 0xE0 SHL DUP1 DUP3 MSTORE SWAP1 SWAP8 SWAP1 SWAP7 DUP9 SWAP5 DUP6 SWAP4 DUP5 SWAP3 SWAP1 PUSH1 0x1 PUSH1 0x1 PUSH1 0xA0 SHL SUB AND CALLER PUSH1 0x4 DUP6 ADD PUSH2 0x2727 JUMP JUMPDEST SUB SWAP3 GAS CALL SWAP2 DUP3 ISZERO PUSH2 0x13E3 JUMPI PUSH2 0x128E SWAP4 PUSH1 0x20 SWAP4 PUSH2 0x13C6 JUMPI JUMPDEST POP PUSH1 0x5 SLOAD PUSH1 0x2 SLOAD PUSH1 0x40 MLOAD SWAP3 DUP4 MSTORE SWAP2 SWAP5 DUP6 SWAP4 PUSH1 0x1 PUSH1 0x1 PUSH1 0xA0 SHL SUB SWAP3 DUP4 AND SWAP4 DUP6 SWAP4 DUP14 SWAP4 DUP6 SWAP4 SWAP1 SWAP3 SWAP1 SWAP2 AND CALLER PUSH1 0x4 DUP6 ADD PUSH2 0x2727 JUMP JUMPDEST SUB SWAP3 GAS CALL DUP1 ISZERO PUSH2 0x13BB JUMPI PUSH2 0x138C JUMPI JUMPDEST POP PUSH2 0x12A8 DUP2 DUP6 PUSH2 0x2532 JUMP JUMPDEST MLOAD DUP6 MSTORE PUSH1 0x6 PUSH1 0x20 MSTORE PUSH1 0x40 DUP6 KECCAK256 PUSH2 0x12BE DUP3 DUP5 PUSH2 0x2532 JUMP JUMPDEST MLOAD DUP7 MSTORE PUSH1 0x20 SWAP1 DUP2 MSTORE PUSH1 0x40 DUP1 DUP8 KECCAK256 SLOAD PUSH1 0x1 PUSH1 0x1 PUSH1 0xA0 SHL SUB AND DUP8 MSTORE PUSH2 0x1047 SWAP2 DUP3 SWAP1 MSTORE DUP7 KECCAK256 DUP1 SLOAD PUSH1 0x0 NOT DUP2 ADD SWAP2 SWAP1 DUP3 GT PUSH2 0x1378 JUMPI SSTORE CALLER DUP7 MSTORE PUSH1 0x20 MSTORE PUSH1 0x40 DUP6 KECCAK256 DUP1 SLOAD SWAP1 PUSH1 0x1 DUP3 ADD DUP1 SWAP3 GT PUSH2 0x1071 JUMPI SSTORE PUSH1 0x1 SWAP1 PUSH2 0x1316 DUP2 DUP7 PUSH2 0x2532 JUMP JUMPDEST MLOAD DUP7 MSTORE PUSH1 0x6 PUSH1 0x20 MSTORE PUSH1 0x40 DUP7 KECCAK256 PUSH2 0x132C DUP3 DUP6 PUSH2 0x2532 JUMP JUMPDEST MLOAD DUP8 MSTORE PUSH1 0x20 MSTORE PUSH1 0x40 DUP7 KECCAK256 CALLER DUP4 DUP1 PUSH1 0xA0 SHL SUB NOT DUP3 SLOAD AND OR SWAP1 SSTORE PUSH2 0x134E DUP2 DUP7 PUSH2 0x2532 JUMP JUMPDEST MLOAD DUP7 MSTORE PUSH1 0x6 PUSH1 0x20 MSTORE PUSH1 0x40 DUP7 KECCAK256 PUSH2 0x1364 DUP3 DUP6 PUSH2 0x2532 JUMP JUMPDEST MLOAD DUP8 MSTORE PUSH1 0x20 MSTORE TIMESTAMP PUSH1 0x4 PUSH1 0x40 DUP9 KECCAK256 ADD SSTORE PUSH2 0x1030 JUMP JUMPDEST PUSH4 0x4E487B71 PUSH1 0xE0 SHL DUP9 MSTORE PUSH1 0x11 PUSH1 0x4 MSTORE PUSH1 0x24 DUP9 REVERT JUMPDEST PUSH2 0x13AD SWAP1 PUSH1 0x20 RETURNDATASIZE PUSH1 0x20 GT PUSH2 0x13B4 JUMPI JUMPDEST PUSH2 0x13A5 DUP2 DUP4 PUSH2 0x2330 JUMP JUMPDEST DUP2 ADD SWAP1 PUSH2 0x270F JUMP JUMPDEST POP CODESIZE PUSH2 0x129D JUMP JUMPDEST POP RETURNDATASIZE PUSH2 0x139B JUMP JUMPDEST PUSH1 0x40 MLOAD RETURNDATASIZE DUP9 DUP3 RETURNDATACOPY RETURNDATASIZE SWAP1 REVERT JUMPDEST PUSH2 0x13DC SWAP1 DUP5 RETURNDATASIZE DUP7 GT PUSH2 0x13B4 JUMPI PUSH2 0x13A5 DUP2 DUP4 PUSH2 0x2330 JUMP JUMPDEST POP CODESIZE PUSH2 0x125C JUMP JUMPDEST PUSH1 0x40 MLOAD RETURNDATASIZE DUP11 DUP3 RETURNDATACOPY RETURNDATASIZE SWAP1 REVERT JUMPDEST SWAP5 POP POP PUSH1 0x20 DUP5 RETURNDATASIZE PUSH1 0x20 GT PUSH2 0x1423 JUMPI JUMPDEST DUP2 PUSH2 0x140A PUSH1 0x20 SWAP4 DUP4 PUSH2 0x2330 JUMP JUMPDEST DUP2 ADD SUB SLT PUSH2 0x141E JUMPI SWAP3 MLOAD DUP9 SWAP4 SWAP1 PUSH1 0x20 PUSH2 0x11B2 JUMP JUMPDEST PUSH1 0x0 DUP1 REVERT JUMPDEST RETURNDATASIZE SWAP2 POP PUSH2 0x13FD JUMP JUMPDEST PUSH1 0x40 MLOAD RETURNDATASIZE DUP8 DUP3 RETURNDATACOPY RETURNDATASIZE SWAP1 REVERT JUMPDEST SWAP5 POP POP PUSH1 0x20 DUP5 RETURNDATASIZE PUSH1 0x20 GT PUSH2 0x1466 JUMPI JUMPDEST DUP2 PUSH2 0x1452 PUSH1 0x20 SWAP4 DUP4 PUSH2 0x2330 JUMP JUMPDEST DUP2 ADD SUB SLT PUSH2 0x141E JUMPI PUSH2 0x1182 DUP10 SWAP5 MLOAD SWAP1 PUSH2 0x1149 JUMP JUMPDEST RETURNDATASIZE SWAP2 POP PUSH2 0x1445 JUMP JUMPDEST POP POP PUSH1 0x5 SLOAD PUSH1 0x40 MLOAD PUSH4 0x70A08231 PUSH1 0xE0 SHL DUP2 MSTORE CALLER PUSH1 0x4 DUP3 ADD MSTORE PUSH1 0x24 SWAP2 PUSH1 0x1 PUSH1 0x1 PUSH1 0xA0 SHL SUB AND SWAP1 PUSH1 0x20 DUP2 DUP5 DUP2 DUP6 GAS STATICCALL DUP1 ISZERO PUSH2 0x13E3 JUMPI DUP9 SWAP1 PUSH2 0x16B3 JUMPI JUMPDEST PUSH2 0x14E1 SWAP2 POP PUSH2 0x14B7 DUP6 DUP10 PUSH2 0x2532 JUMP JUMPDEST MLOAD DUP10 MSTORE PUSH1 0x6 PUSH1 0x20 MSTORE PUSH1 0x40 DUP10 KECCAK256 PUSH2 0x14CD DUP7 DUP9 PUSH2 0x2532 JUMP JUMPDEST MLOAD DUP11 MSTORE PUSH1 0x20 MSTORE PUSH1 0x2 PUSH1 0x40 DUP11 KECCAK256 ADD SLOAD LT PUSH2 0x2BB7 JUMP JUMPDEST PUSH1 0x40 MLOAD PUSH4 0x6EB1769F PUSH1 0xE1 SHL DUP2 MSTORE CALLER PUSH1 0x4 DUP3 ADD MSTORE ADDRESS PUSH1 0x24 DUP3 ADD MSTORE PUSH1 0x20 DUP2 PUSH1 0x44 DUP2 DUP6 GAS STATICCALL SWAP1 DUP2 ISZERO PUSH2 0x13E3 JUMPI DUP9 SWAP2 PUSH2 0x167F JUMPI JUMPDEST POP PUSH2 0x15A7 SWAP2 PUSH2 0x154F PUSH1 0x20 SWAP3 PUSH2 0x1526 DUP8 DUP12 PUSH2 0x2532 JUMP JUMPDEST MLOAD DUP12 MSTORE PUSH1 0x6 DUP5 MSTORE PUSH1 0x40 DUP12 KECCAK256 PUSH2 0x153B DUP9 DUP11 PUSH2 0x2532 JUMP JUMPDEST MLOAD DUP13 MSTORE DUP5 MSTORE PUSH1 0x2 PUSH1 0x40 DUP13 KECCAK256 ADD SLOAD GT ISZERO PUSH2 0x2C0F JUMP JUMPDEST PUSH1 0x2 SLOAD PUSH1 0x1 PUSH1 0x1 PUSH1 0xA0 SHL SUB AND SWAP1 PUSH2 0x1566 DUP7 DUP11 PUSH2 0x2532 JUMP JUMPDEST MLOAD DUP11 MSTORE PUSH1 0x6 DUP4 MSTORE PUSH1 0x40 DUP11 KECCAK256 PUSH2 0x157B DUP8 DUP10 PUSH2 0x2532 JUMP JUMPDEST MLOAD DUP12 MSTORE DUP4 MSTORE PUSH1 0x2 PUSH1 0x40 DUP12 KECCAK256 ADD SLOAD SWAP2 DUP11 PUSH1 0x40 MLOAD DUP1 SWAP7 DUP2 SWAP6 DUP3 SWAP5 PUSH4 0x23B872DD PUSH1 0xE0 SHL DUP5 MSTORE CALLER PUSH1 0x4 DUP6 ADD PUSH2 0x2727 JUMP JUMPDEST SUB SWAP3 GAS CALL DUP1 ISZERO PUSH2 0x1674 JUMPI PUSH2 0x1655 JUMPI JUMPDEST POP PUSH2 0x15C1 DUP3 DUP7 PUSH2 0x2532 JUMP JUMPDEST MLOAD DUP7 MSTORE PUSH1 0x6 PUSH1 0x20 MSTORE PUSH1 0x40 DUP7 KECCAK256 PUSH2 0x15D7 DUP4 DUP6 PUSH2 0x2532 JUMP JUMPDEST MLOAD DUP8 MSTORE PUSH1 0x20 SWAP1 DUP2 MSTORE PUSH1 0x40 DUP1 DUP9 KECCAK256 SLOAD PUSH1 0x1 PUSH1 0x1 PUSH1 0xA0 SHL SUB AND DUP9 MSTORE PUSH2 0x1047 SWAP2 DUP3 SWAP1 MSTORE DUP8 KECCAK256 DUP1 SLOAD PUSH1 0x0 NOT DUP2 ADD SWAP2 SWAP1 DUP3 GT PUSH2 0x1642 JUMPI SSTORE CALLER DUP8 MSTORE PUSH1 0x20 MSTORE PUSH1 0x40 DUP7 KECCAK256 DUP1 SLOAD SWAP2 PUSH1 0x1 DUP4 ADD DUP1 SWAP4 GT PUSH2 0x1630 JUMPI POP SSTORE PUSH1 0x1 SWAP1 PUSH2 0x1316 DUP2 DUP7 PUSH2 0x2532 JUMP JUMPDEST PUSH4 0x4E487B71 PUSH1 0xE0 SHL DUP9 MSTORE PUSH1 0x11 PUSH1 0x4 MSTORE DUP8 REVERT JUMPDEST PUSH4 0x4E487B71 PUSH1 0xE0 SHL DUP10 MSTORE PUSH1 0x11 PUSH1 0x4 MSTORE DUP4 DUP10 REVERT JUMPDEST PUSH2 0x166D SWAP1 PUSH1 0x20 RETURNDATASIZE PUSH1 0x20 GT PUSH2 0x13B4 JUMPI PUSH2 0x13A5 DUP2 DUP4 PUSH2 0x2330 JUMP JUMPDEST POP CODESIZE PUSH2 0x15B6 JUMP JUMPDEST PUSH1 0x40 MLOAD RETURNDATASIZE DUP10 DUP3 RETURNDATACOPY RETURNDATASIZE SWAP1 REVERT JUMPDEST SWAP1 POP PUSH1 0x20 DUP2 RETURNDATASIZE PUSH1 0x20 GT PUSH2 0x16AB JUMPI JUMPDEST DUP2 PUSH2 0x169A PUSH1 0x20 SWAP4 DUP4 PUSH2 0x2330 JUMP JUMPDEST DUP2 ADD SUB SLT PUSH2 0x141E JUMPI MLOAD PUSH2 0x15A7 PUSH2 0x1511 JUMP JUMPDEST RETURNDATASIZE SWAP2 POP PUSH2 0x168D JUMP JUMPDEST POP PUSH1 0x20 DUP2 RETURNDATASIZE PUSH1 0x20 GT PUSH2 0x16DF JUMPI JUMPDEST DUP2 PUSH2 0x16CD PUSH1 0x20 SWAP4 DUP4 PUSH2 0x2330 JUMP JUMPDEST DUP2 ADD SUB SLT PUSH2 0x141E JUMPI PUSH2 0x14E1 SWAP1 MLOAD PUSH2 0x14A8 JUMP JUMPDEST RETURNDATASIZE SWAP2 POP PUSH2 0x16C0 JUMP JUMPDEST PUSH1 0x40 MLOAD PUSH3 0x461BCD PUSH1 0xE5 SHL DUP2 MSTORE DUP1 PUSH2 0x1700 PUSH1 0x4 DUP3 ADD PUSH2 0x255C JUMP JUMPDEST SUB SWAP1 REVERT JUMPDEST PUSH1 0x40 SWAP2 POP LT ISZERO CODESIZE PUSH2 0xF9A JUMP JUMPDEST PUSH2 0x22C9 JUMP JUMPDEST PUSH2 0x2383 JUMP JUMPDEST POP CALLVALUE PUSH2 0x1F2 JUMPI PUSH1 0x20 CALLDATASIZE PUSH1 0x3 NOT ADD SLT PUSH2 0x1F2 JUMPI PUSH1 0x4 CALLDATALOAD PUSH1 0x1 PUSH1 0x1 PUSH1 0xA0 SHL SUB DUP2 DUP2 AND SWAP2 DUP3 SWAP1 SUB PUSH2 0x73E JUMPI PUSH2 0x1751 SWAP1 PUSH1 0x2 SLOAD AND CALLER EQ PUSH2 0x2C74 JUMP JUMPDEST PUSH1 0x5 DUP1 SLOAD PUSH1 0x1 PUSH1 0x1 PUSH1 0xA0 SHL SUB NOT AND SWAP2 SWAP1 SWAP2 OR SWAP1 SSTORE DUP1 RETURN JUMPDEST POP CALLVALUE PUSH2 0x1F2 JUMPI PUSH1 0x20 DUP1 PUSH1 0x3 NOT CALLDATASIZE ADD SLT PUSH2 0x250 JUMPI PUSH1 0x4 CALLDATALOAD SWAP1 PUSH3 0x54600 PUSH2 0x178F PUSH1 0x4 SLOAD TIMESTAMP PUSH2 0x2C67 JUMP JUMPDEST DIV DUP3 LT ISZERO PUSH2 0x1957 JUMPI DUP2 DUP4 MSTORE PUSH2 0x1048 DUP1 DUP3 MSTORE PUSH2 0x17B4 PUSH1 0x40 DUP6 KECCAK256 PUSH1 0x1 DUP2 SLOAD SWAP2 ADD SLOAD SWAP1 PUSH2 0x22A6 JUMP JUMPDEST SWAP1 DUP2 ISZERO PUSH2 0x1922 JUMPI DUP4 DUP6 MSTORE DUP3 MSTORE PUSH1 0x40 DUP5 KECCAK256 SLOAD SWAP1 PUSH1 0x1 SHR LT PUSH2 0x17D2 JUMPI DUP3 DUP1 RETURN JUMPDEST PUSH1 0x1 SLOAD PUSH1 0x1 PUSH1 0x1 PUSH1 0xA0 SHL SUB SWAP3 SWAP1 DUP5 SWAP1 DUP5 AND DUP1 EXTCODESIZE ISZERO PUSH2 0x250 JUMPI DUP2 DUP1 SWAP2 PUSH1 0x24 PUSH1 0x40 MLOAD DUP1 SWAP5 DUP2 SWAP4 PUSH4 0x35313C21 PUSH1 0xE1 SHL DUP4 MSTORE ADDRESS PUSH1 0x4 DUP5 ADD MSTORE GAS CALL DUP1 ISZERO PUSH2 0x1917 JUMPI PUSH2 0x18FF JUMPI JUMPDEST POP POP PUSH1 0x4 SWAP3 PUSH32 0xD9DC24857F317ED9ABBBB42E920EDE0104231EB1D3D70236A74887FFAF159868 DUP4 DUP1 SWAP4 PUSH1 0x40 MLOAD SWAP1 DUP2 MSTORE LOG1 PUSH1 0x1 SLOAD AND PUSH1 0x40 MLOAD SWAP4 DUP5 DUP1 SWAP3 PUSH4 0x18160DDD PUSH1 0xE0 SHL DUP3 MSTORE GAS STATICCALL SWAP2 DUP3 ISZERO PUSH2 0x18F4 JUMPI DUP4 SWAP3 PUSH2 0x18C5 JUMPI JUMPDEST POP PUSH1 0x0 NOT DUP3 ADD SWAP2 DUP3 GT PUSH2 0x18B1 JUMPI DUP2 DUP4 MSTORE PUSH2 0x1049 DUP2 MSTORE TIMESTAMP PUSH1 0x40 DUP5 KECCAK256 SSTORE PUSH2 0x104A SWAP1 DUP2 DUP2 MSTORE TIMESTAMP PUSH1 0x2 PUSH1 0x40 DUP7 KECCAK256 ADD SSTORE PUSH2 0xFD20 TIMESTAMP ADD SWAP3 DUP4 TIMESTAMP GT PUSH2 0xAC4 JUMPI DUP5 MSTORE MSTORE PUSH1 0x3 PUSH1 0x40 DUP4 KECCAK256 ADD SSTORE CODESIZE DUP1 DUP3 DUP1 RETURN JUMPDEST PUSH4 0x4E487B71 PUSH1 0xE0 SHL DUP4 MSTORE PUSH1 0x11 PUSH1 0x4 MSTORE PUSH1 0x24 DUP4 REVERT JUMPDEST SWAP1 DUP1 SWAP3 POP DUP2 DUP2 RETURNDATASIZE DUP4 GT PUSH2 0x18ED JUMPI JUMPDEST PUSH2 0x18DD DUP2 DUP4 PUSH2 0x2330 JUMP JUMPDEST DUP2 ADD SUB SLT PUSH2 0x141E JUMPI MLOAD SWAP1 CODESIZE PUSH2 0x1868 JUMP JUMPDEST POP RETURNDATASIZE PUSH2 0x18D3 JUMP JUMPDEST PUSH1 0x40 MLOAD RETURNDATASIZE DUP6 DUP3 RETURNDATACOPY RETURNDATASIZE SWAP1 REVERT JUMPDEST PUSH2 0x1908 SWAP1 PUSH2 0x22E7 JUMP JUMPDEST PUSH2 0x1913 JUMPI DUP4 CODESIZE PUSH2 0x1813 JUMP JUMPDEST DUP4 DUP1 REVERT JUMPDEST PUSH1 0x40 MLOAD RETURNDATASIZE DUP5 DUP3 RETURNDATACOPY RETURNDATASIZE SWAP1 REVERT JUMPDEST PUSH1 0x40 MLOAD PUSH3 0x461BCD PUSH1 0xE5 SHL DUP2 MSTORE PUSH1 0x4 DUP2 ADD DUP5 SWAP1 MSTORE PUSH1 0xD PUSH1 0x24 DUP3 ADD MSTORE PUSH13 0x139BC81D9BDD195CC818D85CDD PUSH1 0x9A SHL PUSH1 0x44 DUP3 ADD MSTORE PUSH1 0x64 SWAP1 REVERT JUMPDEST PUSH1 0x84 SWAP1 PUSH1 0x40 MLOAD SWAP1 PUSH3 0x461BCD PUSH1 0xE5 SHL DUP3 MSTORE PUSH1 0x4 DUP3 ADD MSTORE PUSH1 0x36 PUSH1 0x24 DUP3 ADD MSTORE PUSH32 0x636865636B20766F7465206F7574636F6D6573206F6E6C7920706F737369626C PUSH1 0x44 DUP3 ADD MSTORE PUSH22 0x6520666F7220636F6E636C75646564206379636C6573 PUSH1 0x50 SHL PUSH1 0x64 DUP3 ADD MSTORE REVERT JUMPDEST POP CALLVALUE PUSH2 0x1F2 JUMPI DUP1 PUSH1 0x3 NOT CALLDATASIZE ADD SLT PUSH2 0x1F2 JUMPI PUSH1 0x20 PUSH3 0x3F480 PUSH3 0x54600 PUSH2 0x19E1 PUSH1 0x4 SLOAD TIMESTAMP PUSH2 0x2C67 JUMP JUMPDEST MOD LT PUSH1 0x40 MLOAD SWAP1 DUP2 MSTORE RETURN JUMPDEST POP CALLVALUE PUSH2 0x1F2 JUMPI DUP1 PUSH1 0x3 NOT CALLDATASIZE ADD SLT PUSH2 0x1F2 JUMPI PUSH1 0x2 SLOAD PUSH1 0x40 MLOAD PUSH1 0x1 PUSH1 0x1 PUSH1 0xA0 SHL SUB SWAP1 SWAP2 AND DUP2 MSTORE PUSH1 0x20 SWAP1 RETURN JUMPDEST POP CALLVALUE PUSH2 0x1F2 JUMPI PUSH1 0x20 CALLDATASIZE PUSH1 0x3 NOT ADD SLT PUSH2 0x1F2 JUMPI PUSH1 0x4 CALLDATALOAD PUSH1 0x1 PUSH1 0x1 PUSH1 0x40 SHL SUB DUP2 GT PUSH2 0x250 JUMPI CALLDATASIZE PUSH1 0x23 DUP3 ADD SLT ISZERO PUSH2 0x250 JUMPI DUP1 PUSH1 0x4 ADD CALLDATALOAD SWAP1 PUSH2 0x1A51 DUP3 PUSH2 0x2351 JUMP JUMPDEST SWAP2 PUSH2 0x1A5F PUSH1 0x40 MLOAD SWAP4 DUP5 PUSH2 0x2330 JUMP JUMPDEST DUP1 DUP4 MSTORE PUSH1 0x24 PUSH1 0x20 DUP5 ADD SWAP2 PUSH1 0x5 SHL DUP4 ADD ADD SWAP2 CALLDATASIZE DUP4 GT PUSH2 0xD51 JUMPI PUSH1 0x24 DUP2 ADD SWAP2 JUMPDEST DUP4 DUP4 LT PUSH2 0x1F06 JUMPI DUP6 DUP6 PUSH3 0x3F480 PUSH3 0x54600 PUSH2 0x1A9A PUSH1 0x4 SLOAD TIMESTAMP PUSH2 0x2C67 JUMP JUMPDEST MOD LT ISZERO PUSH2 0x1EB6 JUMPI DUP1 MLOAD SWAP1 PUSH1 0x40 MLOAD SWAP1 PUSH2 0x820 DUP3 ADD DUP3 DUP2 LT PUSH1 0x1 PUSH1 0x1 PUSH1 0x40 SHL SUB DUP3 GT OR PUSH2 0x6DA JUMPI PUSH1 0x40 MSTORE PUSH1 0x40 DUP3 MSTORE PUSH2 0x800 CALLDATASIZE PUSH1 0x20 DUP5 ADD CALLDATACOPY DUP4 JUMPDEST DUP4 DUP2 LT PUSH2 0x1BBE JUMPI DUP5 DUP4 DUP2 JUMPDEST PUSH1 0x40 DUP2 LT PUSH2 0x1AE8 JUMPI DUP3 DUP1 RETURN JUMPDEST PUSH2 0x1AF2 DUP2 DUP4 PUSH2 0x2532 JUMP JUMPDEST MLOAD PUSH2 0x1B00 JUMPI JUMPDEST PUSH1 0x1 ADD PUSH2 0x1ADC JUMP JUMPDEST PUSH1 0x40 MLOAD PUSH2 0x1B0C DUP2 PUSH2 0x2315 JUMP JUMPDEST DUP4 DUP2 MSTORE PUSH1 0x6 DUP3 SWAP1 SHL PUSH1 0x1 PUSH1 0x1 PUSH1 0xFA SHL SUB DUP4 AND DUP4 SUB PUSH2 0xAC4 JUMPI DUP1 PUSH1 0x40 ADD SWAP1 DUP2 PUSH1 0x40 GT PUSH2 0x1BAA JUMPI SWAP1 JUMPDEST DUP1 DUP3 LT PUSH2 0x1B54 JUMPI POP POP SWAP1 PUSH2 0x1B4D PUSH1 0x1 SWAP3 DUP3 PUSH2 0x1007 ADD PUSH2 0x258D JUMP JUMPDEST SWAP1 POP PUSH2 0x1AF8 JUMP JUMPDEST SWAP1 SWAP2 PUSH2 0x1000 DUP4 LT ISZERO PUSH2 0x1B96 JUMPI PUSH1 0x20 PUSH2 0x6CF PUSH2 0x1B90 SWAP3 PUSH2 0x6C1 PUSH1 0x40 MLOAD SWAP4 DUP3 PUSH2 0x1B84 DUP7 SWAP5 MLOAD DUP1 SWAP3 DUP5 DUP1 DUP9 ADD SWAP2 ADD PUSH2 0x2202 JUMP JUMPDEST DUP4 ADD ADD DUP8 PUSH1 0x7 ADD PUSH2 0x3655 JUMP JUMPDEST SWAP1 PUSH2 0x1B33 JUMP JUMPDEST PUSH4 0x4E487B71 PUSH1 0xE0 SHL DUP7 MSTORE PUSH1 0x32 PUSH1 0x4 MSTORE PUSH1 0x24 DUP7 REVERT JUMPDEST PUSH4 0x4E487B71 PUSH1 0xE0 SHL DUP7 MSTORE PUSH1 0x11 PUSH1 0x4 MSTORE PUSH1 0x24 DUP7 REVERT JUMPDEST PUSH2 0x1BC8 DUP2 DUP4 PUSH2 0x2532 JUMP JUMPDEST MLOAD DUP1 MLOAD DUP2 ADD DUP2 PUSH1 0x20 DUP3 ADD SWAP2 PUSH1 0x80 SWAP2 DUP3 SWAP2 SUB SLT PUSH2 0x1EB2 JUMPI PUSH1 0x20 DUP4 ADD MLOAD SWAP2 PUSH1 0x40 DUP5 ADD MLOAD SWAP4 PUSH1 0x60 DUP2 ADD MLOAD SWAP3 DUP2 ADD MLOAD SWAP1 PUSH1 0x1 PUSH1 0x1 PUSH1 0x40 SHL SUB DUP3 GT PUSH2 0x1EAA JUMPI ADD DUP2 PUSH1 0x3F DUP3 ADD SLT ISZERO PUSH2 0x1EAE JUMPI PUSH1 0x20 DUP2 ADD MLOAD PUSH2 0x1C1C DUP2 PUSH2 0x2368 JUMP JUMPDEST SWAP3 PUSH2 0x1C2A PUSH1 0x40 MLOAD SWAP5 DUP6 PUSH2 0x2330 JUMP JUMPDEST DUP2 DUP5 MSTORE PUSH1 0x40 DUP3 DUP5 ADD ADD GT PUSH2 0x1EAA JUMPI PUSH2 0x1C49 SWAP2 PUSH1 0x40 PUSH1 0x20 DUP6 ADD SWAP2 ADD PUSH2 0x2202 JUMP JUMPDEST PUSH1 0x40 DUP4 LT DUP1 ISZERO SWAP1 PUSH2 0x1E9F JUMPI JUMPDEST PUSH2 0x16E7 JUMPI PUSH1 0xA DUP3 LT ISZERO PUSH2 0x1E61 JUMPI DUP3 DUP10 MSTORE PUSH1 0x6 PUSH1 0x20 MSTORE PUSH1 0x40 DUP10 KECCAK256 DUP5 DUP11 MSTORE PUSH1 0x20 MSTORE PUSH1 0xFF PUSH1 0x5 PUSH1 0x40 DUP12 KECCAK256 ADD SLOAD AND PUSH2 0x1E04 JUMPI DUP3 DUP10 MSTORE PUSH1 0x6 PUSH1 0x20 SWAP1 DUP2 MSTORE PUSH1 0x40 DUP1 DUP12 KECCAK256 DUP7 DUP13 MSTORE SWAP1 SWAP2 MSTORE DUP10 KECCAK256 SLOAD PUSH1 0x1 PUSH1 0x1 PUSH1 0xA0 SHL SUB AND CALLER EQ PUSH2 0x1CBD JUMPI JUMPDEST POP POP POP POP PUSH2 0x1CB8 SWAP1 PUSH2 0x2523 JUMP JUMPDEST PUSH2 0x1AD1 JUMP JUMPDEST PUSH2 0x1CDF SWAP1 DUP4 DUP11 MSTORE PUSH1 0x6 PUSH1 0x20 MSTORE PUSH1 0x40 DUP11 KECCAK256 DUP6 DUP12 MSTORE PUSH1 0x20 MSTORE PUSH1 0x3 PUSH1 0x40 DUP12 KECCAK256 ADD PUSH2 0x258D JUMP JUMPDEST DUP2 DUP9 MSTORE PUSH1 0x6 PUSH1 0x20 SWAP1 DUP2 MSTORE PUSH1 0x40 DUP1 DUP11 KECCAK256 DUP6 DUP12 MSTORE SWAP1 SWAP2 MSTORE DUP9 KECCAK256 PUSH1 0x1 ADD SSTORE PUSH1 0x1 PUSH1 0x1 PUSH1 0xFA SHL SUB DUP3 AND DUP3 SUB PUSH2 0x1071 JUMPI PUSH2 0x1D17 DUP3 PUSH1 0x6 SHL DUP3 PUSH2 0x22A6 JUMP JUMPDEST DUP2 DUP9 MSTORE PUSH1 0x6 PUSH1 0x20 MSTORE PUSH1 0x40 DUP9 KECCAK256 DUP4 DUP10 MSTORE PUSH1 0x20 MSTORE PUSH1 0x1 PUSH1 0x40 DUP10 KECCAK256 ADD SLOAD PUSH1 0x9 DUP4 DUP2 DUP2 MUL DIV DUP2 EQ DUP5 ISZERO OR ISZERO PUSH2 0x1DF0 JUMPI DUP5 DUP2 DUP2 MUL DIV DUP2 EQ DUP6 ISZERO OR ISZERO PUSH2 0x1DF0 JUMPI SWAP1 PUSH2 0x1D84 SWAP2 DUP5 DUP12 MSTORE PUSH1 0x6 PUSH1 0x20 MSTORE PUSH1 0x40 DUP12 KECCAK256 DUP7 DUP13 MSTORE PUSH1 0x20 MSTORE PUSH2 0x1D77 PUSH1 0x3 PUSH1 0x40 DUP14 KECCAK256 ADD PUSH2 0x247D JUMP JUMPDEST SWAP2 DUP2 DUP8 MUL SWAP2 DUP7 MUL SWAP1 PUSH2 0x2EF8 JUMP JUMPDEST SWAP1 PUSH2 0x1000 DUP2 LT ISZERO PUSH2 0x1DDC JUMPI PUSH2 0x1CB8 SWAP5 SWAP4 SWAP3 SWAP2 PUSH2 0x1DA2 SWAP2 PUSH1 0x7 ADD PUSH2 0x258D JUMP JUMPDEST PUSH1 0x1 PUSH2 0x1DAE DUP4 DUP9 PUSH2 0x2532 JUMP JUMPDEST MSTORE PUSH32 0xA9A418DA632D42C446A125F10B007831BA0E348168B6B2474A2383AC5DF4C280 DUP9 DUP1 LOG3 SWAP1 DUP7 DUP1 DUP1 PUSH2 0x1CAB JUMP JUMPDEST PUSH4 0x4E487B71 PUSH1 0xE0 SHL DUP10 MSTORE PUSH1 0x32 PUSH1 0x4 MSTORE PUSH1 0x24 DUP10 REVERT JUMPDEST PUSH4 0x4E487B71 PUSH1 0xE0 SHL DUP11 MSTORE PUSH1 0x11 PUSH1 0x4 MSTORE PUSH1 0x24 DUP11 REVERT JUMPDEST PUSH1 0x40 MLOAD PUSH3 0x461BCD PUSH1 0xE5 SHL DUP2 MSTORE PUSH1 0x20 PUSH1 0x4 DUP3 ADD MSTORE PUSH1 0x2F PUSH1 0x24 DUP3 ADD MSTORE PUSH32 0x6F776E6572207761732061736B656420746F20666972737420736574746C6520 PUSH1 0x44 DUP3 ADD MSTORE PUSH15 0x1C9BDE585B1D1E481C185E5B595B9D PUSH1 0x8A SHL PUSH1 0x64 DUP3 ADD MSTORE PUSH1 0x84 SWAP1 REVERT JUMPDEST PUSH1 0x40 MLOAD PUSH3 0x461BCD PUSH1 0xE5 SHL DUP2 MSTORE PUSH1 0x20 PUSH1 0x4 DUP3 ADD MSTORE PUSH1 0x16 PUSH1 0x24 DUP3 ADD MSTORE PUSH22 0x7368617065204944206E6F7420617661696C61626C65 PUSH1 0x50 SHL PUSH1 0x44 DUP3 ADD MSTORE PUSH1 0x64 SWAP1 REVERT JUMPDEST POP PUSH1 0x40 DUP5 LT ISZERO PUSH2 0x1C55 JUMP JUMPDEST DUP11 DUP1 REVERT JUMPDEST DUP10 DUP1 REVERT JUMPDEST DUP8 DUP1 REVERT JUMPDEST PUSH1 0x40 MLOAD PUSH3 0x461BCD PUSH1 0xE5 SHL DUP2 MSTORE PUSH1 0x20 PUSH1 0x4 DUP3 ADD MSTORE PUSH1 0x22 PUSH1 0x24 DUP3 ADD MSTORE PUSH32 0x417274697374696320706572696F642063757272656E746C79206E6F74206F70 PUSH1 0x44 DUP3 ADD MSTORE PUSH2 0x32B7 PUSH1 0xF1 SHL PUSH1 0x64 DUP3 ADD MSTORE PUSH1 0x84 SWAP1 REVERT JUMPDEST DUP3 CALLDATALOAD PUSH1 0x1 PUSH1 0x1 PUSH1 0x40 SHL SUB DUP2 GT PUSH2 0x1F6D JUMPI DUP3 ADD CALLDATASIZE PUSH1 0x43 DUP3 ADD SLT ISZERO PUSH2 0x1F6D JUMPI PUSH1 0x24 DUP2 ADD CALLDATALOAD SWAP2 PUSH2 0x1F32 DUP4 PUSH2 0x2368 JUMP JUMPDEST PUSH2 0x1F3F PUSH1 0x40 MLOAD SWAP2 DUP3 PUSH2 0x2330 JUMP JUMPDEST DUP4 DUP2 MSTORE DUP9 PUSH1 0x44 CALLDATASIZE DUP2 DUP8 DUP8 ADD ADD GT PUSH2 0x250 JUMPI DUP6 PUSH1 0x20 SWAP7 DUP8 SWAP7 SWAP3 DUP8 SWAP4 ADD DUP4 DUP7 ADD CALLDATACOPY DUP4 ADD ADD MSTORE DUP2 MSTORE ADD SWAP3 ADD SWAP2 PUSH2 0x1A7D JUMP JUMPDEST DUP7 DUP1 REVERT JUMPDEST POP CALLVALUE PUSH2 0x1F2 JUMPI PUSH1 0x20 CALLDATASIZE PUSH1 0x3 NOT ADD SLT PUSH2 0x1F2 JUMPI PUSH1 0x40 DUP1 SWAP2 PUSH1 0x4 CALLDATALOAD DUP2 MSTORE PUSH2 0x1048 PUSH1 0x20 MSTORE KECCAK256 PUSH1 0x1 DUP2 SLOAD SWAP2 ADD SLOAD DUP3 MLOAD SWAP2 DUP3 MSTORE PUSH1 0x20 DUP3 ADD MSTORE RETURN JUMPDEST POP CALLVALUE PUSH2 0x1F2 JUMPI PUSH1 0x20 SWAP1 DUP2 PUSH1 0x3 NOT CALLDATASIZE ADD SLT PUSH2 0x1F2 JUMPI PUSH1 0x4 CALLDATALOAD PUSH2 0x1FC5 PUSH2 0x2ED5 JUMP JUMPDEST DUP1 DUP3 MSTORE PUSH2 0x104A SWAP1 DUP2 DUP5 MSTORE PUSH2 0x1FE3 PUSH1 0xFF PUSH1 0x4 PUSH1 0x40 DUP7 KECCAK256 ADD SLOAD AND ISZERO PUSH2 0x2E41 JUMP JUMPDEST DUP1 DUP4 MSTORE DUP2 DUP5 MSTORE PUSH2 0x1FFB PUSH1 0x2 PUSH1 0x40 DUP6 KECCAK256 ADD SLOAD TIMESTAMP GT PUSH2 0x2E89 JUMP JUMPDEST DUP1 DUP4 MSTORE DUP2 DUP5 MSTORE TIMESTAMP PUSH1 0x3 PUSH1 0x40 DUP6 KECCAK256 ADD SLOAD LT ISZERO PUSH2 0x2103 JUMPI DUP1 DUP4 MSTORE DUP2 DUP5 MSTORE PUSH1 0x40 DUP4 KECCAK256 PUSH1 0x4 DUP2 ADD DUP1 SLOAD PUSH1 0xFF NOT AND PUSH1 0x1 SWAP1 DUP2 OR SWAP1 SWAP2 SSTORE SLOAD SWAP1 SLOAD PUSH1 0x1 PUSH1 0x1 PUSH1 0xA0 SHL SUB SWAP4 SWAP2 DUP5 AND SWAP1 DUP5 AND DUP2 EXTCODESIZE ISZERO PUSH2 0xD4D JUMPI DUP4 PUSH2 0x206A SWAP3 DUP8 SWAP3 DUP4 PUSH1 0x40 MLOAD DUP1 SWAP7 DUP2 SWAP6 DUP3 SWAP5 PUSH4 0x21421707 PUSH1 0xE1 SHL DUP5 MSTORE ADDRESS PUSH1 0x4 DUP6 ADD PUSH2 0x2727 JUMP JUMPDEST SUB SWAP3 GAS CALL DUP1 ISZERO PUSH2 0x142B JUMPI PUSH2 0x20D2 JUMPI JUMPDEST POP DUP2 DUP5 MSTORE SWAP1 SWAP4 MSTORE PUSH1 0x40 DUP1 DUP4 KECCAK256 DUP1 SLOAD PUSH1 0x1 SWAP1 SWAP2 ADD SLOAD DUP3 MLOAD SWAP6 DUP7 MSTORE SWAP3 AND PUSH1 0x1 PUSH1 0x1 PUSH1 0xA0 SHL SUB AND PUSH1 0x20 DUP6 ADD MSTORE DUP4 ADD MSTORE SWAP1 PUSH32 0xD2AA34A4FDBBC6DFF6A3E56F46E0F3AE2A31D7785FF3487AA5C95C642ACEA501 SWAP1 DUP1 PUSH1 0x60 DUP2 ADD PUSH2 0x881 JUMP JUMPDEST SWAP4 PUSH2 0x20FD PUSH32 0xD2AA34A4FDBBC6DFF6A3E56F46E0F3AE2A31D7785FF3487AA5C95C642ACEA501 SWAP6 PUSH2 0x22E7 JUMP JUMPDEST SWAP4 PUSH2 0x2079 JUMP JUMPDEST PUSH1 0x40 MLOAD PUSH3 0x461BCD PUSH1 0xE5 SHL DUP2 MSTORE PUSH1 0x4 DUP2 ADD DUP6 SWAP1 MSTORE PUSH1 0x15 PUSH1 0x24 DUP3 ADD MSTORE PUSH21 0x185D58DD1A5BDB881B9BDD08195B991959081E595D PUSH1 0x5A SHL PUSH1 0x44 DUP3 ADD MSTORE PUSH1 0x64 SWAP1 REVERT JUMPDEST POP CALLVALUE PUSH2 0x1F2 JUMPI DUP1 PUSH1 0x3 NOT CALLDATASIZE ADD SLT PUSH2 0x1F2 JUMPI PUSH1 0x20 PUSH1 0x40 MLOAD PUSH3 0x54600 DUP2 MSTORE RETURN JUMPDEST POP CALLVALUE PUSH2 0x1F2 JUMPI PUSH1 0x20 CALLDATASIZE PUSH1 0x3 NOT ADD SLT PUSH2 0x1F2 JUMPI PUSH1 0x4 CALLDATALOAD PUSH1 0x1 PUSH1 0x1 PUSH1 0xA0 SHL SUB DUP2 AND SWAP1 DUP2 SWAP1 SUB PUSH2 0x250 JUMPI PUSH1 0x40 PUSH1 0x20 SWAP3 PUSH1 0xFF SWAP3 PUSH3 0x54600 PUSH2 0x219D PUSH1 0x4 SLOAD TIMESTAMP PUSH2 0x2C67 JUMP JUMPDEST DIV DUP3 MSTORE PUSH2 0x1048 DUP6 MSTORE PUSH1 0x2 DUP4 DUP4 KECCAK256 ADD SWAP1 DUP3 MSTORE DUP5 MSTORE KECCAK256 SLOAD AND PUSH1 0x40 MLOAD SWAP1 ISZERO ISZERO DUP2 MSTORE RETURN JUMPDEST POP CALLVALUE PUSH2 0x1F2 JUMPI PUSH2 0x2B2 PUSH2 0x21D8 PUSH2 0x21D2 CALLDATASIZE PUSH2 0x21EC JUMP JUMPDEST SWAP1 PUSH2 0x2D0D JUMP JUMPDEST PUSH1 0x40 MLOAD SWAP2 DUP3 SWAP2 PUSH1 0x20 DUP4 MSTORE PUSH1 0x20 DUP4 ADD SWAP1 PUSH2 0x224A JUMP JUMPDEST PUSH1 0x40 SWAP1 PUSH1 0x3 NOT ADD SLT PUSH2 0x141E JUMPI PUSH1 0x4 CALLDATALOAD SWAP1 PUSH1 0x24 CALLDATALOAD SWAP1 JUMP JUMPDEST PUSH1 0x0 JUMPDEST DUP4 DUP2 LT PUSH2 0x2215 JUMPI POP POP PUSH1 0x0 SWAP2 ADD MSTORE JUMP JUMPDEST DUP2 DUP2 ADD MLOAD DUP4 DUP3 ADD MSTORE PUSH1 0x20 ADD PUSH2 0x2205 JUMP JUMPDEST SWAP1 PUSH1 0x20 SWAP2 PUSH2 0x223E DUP2 MLOAD DUP1 SWAP3 DUP2 DUP6 MSTORE DUP6 DUP1 DUP7 ADD SWAP2 ADD PUSH2 0x2202 JUMP JUMPDEST PUSH1 0x1F ADD PUSH1 0x1F NOT AND ADD ADD SWAP1 JUMP JUMPDEST SWAP1 PUSH1 0x1 DUP1 PUSH1 0xA0 SHL SUB DUP3 MLOAD AND DUP2 MSTORE PUSH1 0x20 DUP3 ADD MLOAD PUSH1 0x20 DUP3 ADD MSTORE PUSH1 0x40 DUP3 ADD MLOAD PUSH1 0x40 DUP3 ADD MSTORE PUSH1 0xC0 DUP1 PUSH2 0x2287 PUSH1 0x60 DUP6 ADD MLOAD PUSH1 0xE0 PUSH1 0x60 DUP7 ADD MSTORE PUSH1 0xE0 DUP6 ADD SWAP1 PUSH2 0x2225 JUMP JUMPDEST SWAP4 PUSH1 0x80 DUP2 ADD MLOAD PUSH1 0x80 DUP6 ADD MSTORE PUSH1 0xA0 DUP2 ADD MLOAD ISZERO ISZERO PUSH1 0xA0 DUP6 ADD MSTORE ADD MLOAD SWAP2 ADD MSTORE SWAP1 JUMP JUMPDEST SWAP2 SWAP1 DUP3 ADD DUP1 SWAP3 GT PUSH2 0x22B3 JUMPI JUMP JUMPDEST PUSH4 0x4E487B71 PUSH1 0xE0 SHL PUSH1 0x0 MSTORE PUSH1 0x11 PUSH1 0x4 MSTORE PUSH1 0x24 PUSH1 0x0 REVERT JUMPDEST CALLVALUE PUSH2 0x141E JUMPI PUSH1 0x0 CALLDATASIZE PUSH1 0x3 NOT ADD SLT PUSH2 0x141E JUMPI PUSH1 0x20 PUSH1 0x40 MLOAD PUSH3 0x3F480 DUP2 MSTORE RETURN JUMPDEST PUSH1 0x1 PUSH1 0x1 PUSH1 0x40 SHL SUB DUP2 GT PUSH2 0x6DA JUMPI PUSH1 0x40 MSTORE JUMP JUMPDEST PUSH1 0xE0 DUP2 ADD SWAP1 DUP2 LT PUSH1 0x1 PUSH1 0x1 PUSH1 0x40 SHL SUB DUP3 GT OR PUSH2 0x6DA JUMPI PUSH1 0x40 MSTORE JUMP JUMPDEST PUSH1 0x20 DUP2 ADD SWAP1 DUP2 LT PUSH1 0x1 PUSH1 0x1 PUSH1 0x40 SHL SUB DUP3 GT OR PUSH2 0x6DA JUMPI PUSH1 0x40 MSTORE JUMP JUMPDEST SWAP1 PUSH1 0x1F DUP1 NOT SWAP2 ADD AND DUP2 ADD SWAP1 DUP2 LT PUSH1 0x1 PUSH1 0x1 PUSH1 0x40 SHL SUB DUP3 GT OR PUSH2 0x6DA JUMPI PUSH1 0x40 MSTORE JUMP JUMPDEST PUSH1 0x1 PUSH1 0x1 PUSH1 0x40 SHL SUB DUP2 GT PUSH2 0x6DA JUMPI PUSH1 0x5 SHL PUSH1 0x20 ADD SWAP1 JUMP JUMPDEST PUSH1 0x1 PUSH1 0x1 PUSH1 0x40 SHL SUB DUP2 GT PUSH2 0x6DA JUMPI PUSH1 0x1F ADD PUSH1 0x1F NOT AND PUSH1 0x20 ADD SWAP1 JUMP JUMPDEST CALLVALUE PUSH2 0x141E JUMPI PUSH1 0x0 CALLDATASIZE PUSH1 0x3 NOT ADD SLT PUSH2 0x141E JUMPI PUSH1 0x20 PUSH1 0x40 MLOAD PUSH1 0x40 DUP2 MSTORE RETURN JUMPDEST DUP2 PUSH1 0x1F DUP3 ADD SLT ISZERO PUSH2 0x141E JUMPI DUP1 CALLDATALOAD SWAP2 PUSH2 0x23B6 DUP4 PUSH2 0x2351 JUMP JUMPDEST SWAP3 PUSH2 0x23C4 PUSH1 0x40 MLOAD SWAP5 DUP6 PUSH2 0x2330 JUMP JUMPDEST DUP1 DUP5 MSTORE PUSH1 0x20 SWAP3 DUP4 DUP1 DUP7 ADD SWAP3 PUSH1 0x5 SHL DUP3 ADD ADD SWAP3 DUP4 GT PUSH2 0x141E JUMPI DUP4 ADD SWAP1 JUMPDEST DUP3 DUP3 LT PUSH2 0x23EE JUMPI POP POP POP POP SWAP1 JUMP JUMPDEST DUP2 CALLDATALOAD DUP2 MSTORE SWAP1 DUP4 ADD SWAP1 DUP4 ADD PUSH2 0x23E0 JUMP JUMPDEST SWAP1 PUSH1 0x40 PUSH1 0x3 NOT DUP4 ADD SLT PUSH2 0x141E JUMPI PUSH1 0x1 PUSH1 0x1 PUSH1 0x40 SHL SUB PUSH1 0x4 CALLDATALOAD DUP2 DUP2 GT PUSH2 0x141E JUMPI DUP4 PUSH2 0x2429 SWAP2 PUSH1 0x4 ADD PUSH2 0x239F JUMP JUMPDEST SWAP3 PUSH1 0x24 CALLDATALOAD SWAP2 DUP3 GT PUSH2 0x141E JUMPI PUSH2 0x2440 SWAP2 PUSH1 0x4 ADD PUSH2 0x239F JUMP JUMPDEST SWAP1 JUMP JUMPDEST SWAP1 PUSH1 0x1 DUP3 DUP2 SHR SWAP3 AND DUP1 ISZERO PUSH2 0x2473 JUMPI JUMPDEST PUSH1 0x20 DUP4 LT EQ PUSH2 0x245D JUMPI JUMP JUMPDEST PUSH4 0x4E487B71 PUSH1 0xE0 SHL PUSH1 0x0 MSTORE PUSH1 0x22 PUSH1 0x4 MSTORE PUSH1 0x24 PUSH1 0x0 REVERT JUMPDEST SWAP2 PUSH1 0x7F AND SWAP2 PUSH2 0x2452 JUMP JUMPDEST SWAP1 PUSH1 0x40 MLOAD SWAP2 DUP3 PUSH1 0x0 DUP3 SLOAD SWAP3 PUSH2 0x2491 DUP5 PUSH2 0x2443 JUMP JUMPDEST SWAP1 DUP2 DUP5 MSTORE PUSH1 0x1 SWAP5 DUP6 DUP2 AND SWAP1 DUP2 PUSH1 0x0 EQ PUSH2 0x2500 JUMPI POP PUSH1 0x1 EQ PUSH2 0x24BD JUMPI JUMPDEST POP POP PUSH2 0x24BB SWAP3 POP SUB DUP4 PUSH2 0x2330 JUMP JUMPDEST JUMP JUMPDEST SWAP1 SWAP4 SWAP2 POP PUSH1 0x0 MSTORE PUSH1 0x20 SWAP1 DUP2 PUSH1 0x0 KECCAK256 SWAP4 PUSH1 0x0 SWAP2 JUMPDEST DUP2 DUP4 LT PUSH2 0x24E8 JUMPI POP POP PUSH2 0x24BB SWAP4 POP DUP3 ADD ADD CODESIZE DUP1 PUSH2 0x24AD JUMP JUMPDEST DUP6 SLOAD DUP9 DUP5 ADD DUP6 ADD MSTORE SWAP5 DUP6 ADD SWAP5 DUP8 SWAP5 POP SWAP2 DUP4 ADD SWAP2 PUSH2 0x24D0 JUMP JUMPDEST SWAP2 POP POP PUSH2 0x24BB SWAP5 POP PUSH1 0x20 SWAP3 POP PUSH1 0xFF NOT AND DUP3 DUP5 ADD MSTORE ISZERO ISZERO PUSH1 0x5 SHL DUP3 ADD ADD CODESIZE DUP1 PUSH2 0x24AD JUMP JUMPDEST PUSH1 0x0 NOT DUP2 EQ PUSH2 0x22B3 JUMPI PUSH1 0x1 ADD SWAP1 JUMP JUMPDEST DUP1 MLOAD DUP3 LT ISZERO PUSH2 0x2546 JUMPI PUSH1 0x20 SWAP2 PUSH1 0x5 SHL ADD ADD SWAP1 JUMP JUMPDEST PUSH4 0x4E487B71 PUSH1 0xE0 SHL PUSH1 0x0 MSTORE PUSH1 0x32 PUSH1 0x4 MSTORE PUSH1 0x24 PUSH1 0x0 REVERT JUMPDEST PUSH1 0x60 SWAP1 PUSH1 0x20 DUP2 MSTORE PUSH1 0x16 PUSH1 0x20 DUP3 ADD MSTORE PUSH22 0x706978656C206973206F7574206F6620626F756E6473 PUSH1 0x50 SHL PUSH1 0x40 DUP3 ADD MSTORE ADD SWAP1 JUMP JUMPDEST SWAP2 SWAP1 SWAP2 DUP3 MLOAD PUSH1 0x1 PUSH1 0x1 PUSH1 0x40 SHL SUB DUP2 GT PUSH2 0x6DA JUMPI PUSH2 0x25AA DUP3 SLOAD PUSH2 0x2443 JUMP JUMPDEST PUSH1 0x1F DUP2 GT PUSH2 0x2654 JUMPI JUMPDEST POP PUSH1 0x20 DUP1 PUSH1 0x1F DUP4 GT PUSH1 0x1 EQ PUSH2 0x25F0 JUMPI POP DUP2 SWAP3 SWAP4 SWAP5 PUSH1 0x0 SWAP3 PUSH2 0x25E5 JUMPI JUMPDEST POP POP DUP2 PUSH1 0x1 SHL SWAP2 PUSH1 0x0 NOT SWAP1 PUSH1 0x3 SHL SHR NOT AND OR SWAP1 SSTORE JUMP JUMPDEST ADD MLOAD SWAP1 POP CODESIZE DUP1 PUSH2 0x25CF JUMP JUMPDEST SWAP1 PUSH1 0x1F NOT DUP4 AND SWAP6 DUP5 PUSH1 0x0 MSTORE DUP3 PUSH1 0x0 KECCAK256 SWAP3 PUSH1 0x0 SWAP1 JUMPDEST DUP9 DUP3 LT PUSH2 0x263C JUMPI POP POP DUP4 PUSH1 0x1 SWAP6 SWAP7 SWAP8 LT PUSH2 0x2623 JUMPI JUMPDEST POP POP POP DUP2 SHL ADD SWAP1 SSTORE JUMP JUMPDEST ADD MLOAD PUSH1 0x0 NOT PUSH1 0xF8 DUP5 PUSH1 0x3 SHL AND SHR NOT AND SWAP1 SSTORE CODESIZE DUP1 DUP1 PUSH2 0x2619 JUMP JUMPDEST DUP1 PUSH1 0x1 DUP6 SWAP7 DUP3 SWAP5 SWAP7 DUP7 ADD MLOAD DUP2 SSTORE ADD SWAP6 ADD SWAP4 ADD SWAP1 PUSH2 0x2604 JUMP JUMPDEST PUSH1 0x0 DUP4 DUP2 MSTORE PUSH1 0x20 DUP2 KECCAK256 PUSH1 0x1F DUP5 ADD PUSH1 0x5 SHR DUP2 ADD SWAP3 PUSH1 0x20 DUP6 LT PUSH2 0x2692 JUMPI JUMPDEST PUSH1 0x1F ADD PUSH1 0x5 SHR ADD SWAP2 JUMPDEST DUP3 DUP2 LT PUSH2 0x2687 JUMPI POP POP PUSH2 0x25B3 JUMP JUMPDEST DUP2 DUP2 SSTORE PUSH1 0x1 ADD PUSH2 0x2679 JUMP JUMPDEST SWAP1 SWAP3 POP DUP3 SWAP1 PUSH2 0x2670 JUMP JUMPDEST DUP2 DUP2 MUL SWAP3 SWAP2 DUP2 ISZERO SWAP2 DUP5 DIV EQ OR ISZERO PUSH2 0x22B3 JUMPI JUMP JUMPDEST ISZERO PUSH2 0x26B6 JUMPI JUMP JUMPDEST PUSH1 0x40 MLOAD PUSH3 0x461BCD PUSH1 0xE5 SHL DUP2 MSTORE PUSH1 0x20 PUSH1 0x4 DUP3 ADD MSTORE PUSH1 0x2B PUSH1 0x24 DUP3 ADD MSTORE PUSH32 0x7820616E64207920696E7075742061727261797320617265206F662076617269 PUSH1 0x44 DUP3 ADD MSTORE PUSH11 0x6F7573206C656E67746873 PUSH1 0xA8 SHL PUSH1 0x64 DUP3 ADD MSTORE PUSH1 0x84 SWAP1 REVERT JUMPDEST SWAP1 DUP2 PUSH1 0x20 SWAP2 SUB SLT PUSH2 0x141E JUMPI MLOAD DUP1 ISZERO ISZERO DUP2 SUB PUSH2 0x141E JUMPI SWAP1 JUMP JUMPDEST PUSH1 0x1 PUSH1 0x1 PUSH1 0xA0 SHL SUB SWAP2 DUP3 AND DUP2 MSTORE SWAP2 AND PUSH1 0x20 DUP3 ADD MSTORE PUSH1 0x40 DUP2 ADD SWAP2 SWAP1 SWAP2 MSTORE PUSH1 0x60 ADD SWAP1 JUMP JUMPDEST SWAP2 SWAP1 SWAP2 PUSH2 0x2759 DUP2 MLOAD DUP5 MLOAD EQ PUSH2 0x26AF JUMP JUMPDEST DUP1 MLOAD PUSH1 0x0 SWAP4 JUMPDEST DUP2 DUP6 LT PUSH2 0x276D JUMPI POP POP POP SWAP1 POP JUMP JUMPDEST PUSH2 0x2777 DUP6 DUP5 PUSH2 0x2532 JUMP JUMPDEST MLOAD SWAP5 PUSH2 0x2783 DUP2 DUP4 PUSH2 0x2532 JUMP JUMPDEST MLOAD PUSH1 0x40 DUP1 DUP1 SWAP9 LT SWAP2 DUP3 ISZERO SWAP3 PUSH2 0x2BAC JUMPI JUMPDEST POP POP PUSH2 0x2B94 JUMPI PUSH2 0x27A3 DUP2 DUP6 PUSH2 0x2532 JUMP JUMPDEST MLOAD PUSH1 0x0 MSTORE PUSH1 0x6 SWAP6 PUSH1 0x20 SWAP7 DUP1 DUP9 MSTORE DUP2 PUSH1 0x0 KECCAK256 PUSH2 0x27BE DUP5 DUP7 PUSH2 0x2532 JUMP JUMPDEST MLOAD PUSH1 0x0 MSTORE DUP9 MSTORE PUSH1 0x1 DUP1 PUSH1 0xA0 SHL SUB SWAP2 CALLER DUP4 DUP3 PUSH1 0x0 KECCAK256 SLOAD AND SUB PUSH2 0x2B46 JUMPI PUSH2 0x27E3 DUP5 DUP9 PUSH2 0x2532 JUMP JUMPDEST MLOAD PUSH1 0x0 MSTORE DUP2 DUP10 MSTORE DUP1 PUSH1 0x0 KECCAK256 PUSH2 0x27F8 DUP6 DUP8 PUSH2 0x2532 JUMP JUMPDEST MLOAD PUSH1 0x0 MSTORE DUP10 MSTORE PUSH1 0x4 SWAP9 TIMESTAMP DUP11 DUP4 PUSH1 0x0 KECCAK256 ADD SLOAD SUB PUSH2 0x282A JUMPI JUMPDEST POP POP POP POP PUSH2 0x2821 SWAP2 SWAP3 SWAP4 SWAP5 SWAP6 POP PUSH2 0x2523 JUMP JUMPDEST SWAP4 SWAP3 SWAP2 SWAP1 PUSH2 0x275F JUMP JUMPDEST PUSH2 0x2842 PUSH2 0x2837 DUP7 DUP11 PUSH2 0x2532 JUMP JUMPDEST MLOAD PUSH2 0x109E DUP8 DUP10 PUSH2 0x2532 JUMP JUMPDEST SWAP10 PUSH1 0x5 SWAP5 DUP1 DUP7 SLOAD AND SWAP1 DUP5 MLOAD PUSH4 0x70A08231 PUSH1 0xE0 SHL DUP2 MSTORE CALLER DUP5 DUP3 ADD MSTORE PUSH1 0x24 SWAP1 DUP6 DUP2 DUP4 DUP2 DUP8 GAS STATICCALL SWAP1 DUP2 ISZERO PUSH2 0x2ABA JUMPI SWAP1 DUP16 SWAP2 PUSH1 0x0 SWAP2 PUSH2 0x2B16 JUMPI JUMPDEST POP LT PUSH2 0x2AC5 JUMPI DUP6 MLOAD PUSH4 0x6EB1769F PUSH1 0xE1 SHL DUP2 MSTORE CALLER DUP6 DUP3 ADD SWAP1 DUP2 MSTORE ADDRESS PUSH1 0x20 DUP3 ADD MSTORE DUP7 SWAP1 DUP3 SWAP1 DUP2 SWAP1 PUSH1 0x40 ADD SUB DUP2 DUP8 GAS STATICCALL SWAP1 DUP2 ISZERO PUSH2 0x2ABA JUMPI SWAP1 DUP16 SWAP2 PUSH1 0x0 SWAP2 PUSH2 0x2A8A JUMPI JUMPDEST POP LT PUSH2 0x2A39 JUMPI POP PUSH1 0x2 SLOAD DUP6 MLOAD PUSH4 0x23B872DD PUSH1 0xE0 SHL DUP2 MSTORE SWAP14 DUP6 SWAP4 DUP16 SWAP4 SWAP1 SWAP3 DUP5 SWAP3 DUP4 SWAP3 PUSH2 0x28E6 SWAP3 AND CALLER DUP10 DUP6 ADD PUSH2 0x2727 JUMP JUMPDEST SUB SWAP2 GAS SWAP1 PUSH1 0x0 SWAP2 CALL SWAP11 DUP12 ISZERO PUSH2 0x2A2E JUMPI PUSH2 0x2821 SWAP8 SWAP9 SWAP10 SWAP11 SWAP12 PUSH2 0x2A11 JUMPI JUMPDEST POP PUSH2 0x290D DUP7 DUP12 PUSH2 0x2532 JUMP JUMPDEST MLOAD PUSH1 0x0 MSTORE DUP4 DUP3 MSTORE DUP3 PUSH1 0x0 KECCAK256 PUSH2 0x2922 DUP8 DUP11 PUSH2 0x2532 JUMP JUMPDEST MLOAD PUSH1 0x0 MSTORE DUP3 MSTORE TIMESTAMP SWAP1 DUP4 PUSH1 0x0 KECCAK256 ADD SSTORE PUSH2 0x293A DUP6 DUP11 PUSH2 0x2532 JUMP JUMPDEST MLOAD PUSH1 0x0 MSTORE DUP3 DUP2 MSTORE DUP2 PUSH1 0x0 KECCAK256 PUSH2 0x294F DUP7 DUP10 PUSH2 0x2532 JUMP JUMPDEST MLOAD PUSH1 0x0 MSTORE DUP2 MSTORE PUSH1 0xFF DUP5 DUP4 PUSH1 0x0 KECCAK256 ADD SLOAD AND PUSH2 0x29B1 JUMPI JUMPDEST POP POP POP POP PUSH2 0x2972 DUP2 DUP7 PUSH2 0x2532 JUMP JUMPDEST MLOAD PUSH2 0x297D DUP3 DUP6 PUSH2 0x2532 JUMP JUMPDEST MLOAD SWAP1 PUSH32 0xE61AF2269C9AFBDB69EFCE2B15F2A464F8EE6237F105B3D4024F2E824A9F0AF3 PUSH1 0x0 DUP1 LOG3 DUP6 SWAP5 SWAP4 SWAP3 SWAP2 CODESIZE DUP1 DUP1 PUSH2 0x280F JUMP JUMPDEST PUSH1 0x0 SWAP4 PUSH2 0x29BE DUP7 DUP12 PUSH2 0x2532 JUMP JUMPDEST MLOAD DUP6 MSTORE DUP4 DUP3 MSTORE DUP3 DUP6 KECCAK256 PUSH2 0x29D1 DUP8 DUP11 PUSH2 0x2532 JUMP JUMPDEST MLOAD DUP7 MSTORE DUP3 MSTORE DUP3 DUP6 KECCAK256 ADD DUP1 SLOAD PUSH1 0xFF NOT AND SWAP1 SSTORE PUSH2 0x29EC DUP6 DUP11 PUSH2 0x2532 JUMP JUMPDEST MLOAD DUP5 MSTORE DUP3 DUP2 MSTORE DUP2 DUP5 KECCAK256 SWAP1 PUSH2 0x2A00 DUP7 DUP10 PUSH2 0x2532 JUMP JUMPDEST MLOAD DUP6 MSTORE MSTORE DUP3 KECCAK256 ADD SSTORE CODESIZE DUP1 DUP1 DUP1 PUSH2 0x2964 JUMP JUMPDEST PUSH2 0x2A27 SWAP1 DUP4 RETURNDATASIZE DUP6 GT PUSH2 0x13B4 JUMPI PUSH2 0x13A5 DUP2 DUP4 PUSH2 0x2330 JUMP JUMPDEST POP CODESIZE PUSH2 0x2902 JUMP JUMPDEST DUP4 MLOAD RETURNDATASIZE PUSH1 0x0 DUP3 RETURNDATACOPY RETURNDATASIZE SWAP1 REVERT JUMPDEST DUP4 PUSH1 0x27 PUSH1 0x84 SWAP3 DUP8 DUP10 MLOAD SWAP4 PUSH3 0x461BCD PUSH1 0xE5 SHL DUP6 MSTORE DUP5 ADD MSTORE DUP3 ADD MSTORE PUSH32 0x696E73756666696369656E7420616C6C6F77616E636520746F2070617920726F PUSH1 0x44 DUP3 ADD MSTORE PUSH7 0x79616C74696573 PUSH1 0xC8 SHL PUSH1 0x64 DUP3 ADD MSTORE REVERT JUMPDEST SWAP2 POP DUP7 DUP3 DUP2 RETURNDATASIZE DUP4 GT PUSH2 0x2AB3 JUMPI JUMPDEST PUSH2 0x2AA1 DUP2 DUP4 PUSH2 0x2330 JUMP JUMPDEST DUP2 ADD SUB SLT PUSH2 0x1F2 JUMPI POP DUP15 SWAP1 MLOAD CODESIZE PUSH2 0x28B7 JUMP JUMPDEST POP RETURNDATASIZE PUSH2 0x2A97 JUMP JUMPDEST DUP8 MLOAD RETURNDATASIZE PUSH1 0x0 DUP3 RETURNDATACOPY RETURNDATASIZE SWAP1 REVERT JUMPDEST DUP4 PUSH1 0x27 PUSH1 0x84 SWAP3 DUP8 DUP10 MLOAD SWAP4 PUSH3 0x461BCD PUSH1 0xE5 SHL DUP6 MSTORE DUP5 ADD MSTORE DUP3 ADD MSTORE PUSH32 0x6E6F742073756666696369656E742062616C616E636520746F2070617920726F PUSH1 0x44 DUP3 ADD MSTORE PUSH7 0x79616C74696573 PUSH1 0xC8 SHL PUSH1 0x64 DUP3 ADD MSTORE REVERT JUMPDEST SWAP2 POP DUP7 DUP3 DUP2 RETURNDATASIZE DUP4 GT PUSH2 0x2B3F JUMPI JUMPDEST PUSH2 0x2B2D DUP2 DUP4 PUSH2 0x2330 JUMP JUMPDEST DUP2 ADD SUB SLT PUSH2 0x1F2 JUMPI POP DUP15 SWAP1 MLOAD CODESIZE PUSH2 0x2878 JUMP JUMPDEST POP RETURNDATASIZE PUSH2 0x2B23 JUMP JUMPDEST MLOAD PUSH3 0x461BCD PUSH1 0xE5 SHL DUP2 MSTORE PUSH1 0x4 DUP2 ADD DUP10 SWAP1 MSTORE PUSH1 0x22 PUSH1 0x24 DUP3 ADD MSTORE PUSH32 0x6F6E6C7920706978656C206F776E65722063616E2070617920726F79616C7469 PUSH1 0x44 DUP3 ADD MSTORE PUSH2 0x6573 PUSH1 0xF0 SHL PUSH1 0x64 DUP3 ADD MSTORE PUSH1 0x84 SWAP1 REVERT JUMPDEST DUP6 MLOAD PUSH3 0x461BCD PUSH1 0xE5 SHL DUP2 MSTORE DUP1 PUSH2 0x1700 PUSH1 0x4 DUP3 ADD PUSH2 0x255C JUMP JUMPDEST LT ISZERO SWAP1 POP DUP7 CODESIZE PUSH2 0x2793 JUMP JUMPDEST ISZERO PUSH2 0x2BBE JUMPI JUMP JUMPDEST PUSH1 0x40 MLOAD PUSH3 0x461BCD PUSH1 0xE5 SHL DUP2 MSTORE PUSH1 0x20 PUSH1 0x4 DUP3 ADD MSTORE PUSH1 0x23 PUSH1 0x24 DUP3 ADD MSTORE PUSH32 0x6E6F742073756666696369656E742062616C616E636520746F20627579207069 PUSH1 0x44 DUP3 ADD MSTORE PUSH3 0x1E195B PUSH1 0xEA SHL PUSH1 0x64 DUP3 ADD MSTORE PUSH1 0x84 SWAP1 REVERT JUMPDEST ISZERO PUSH2 0x2C16 JUMPI JUMP JUMPDEST PUSH1 0x40 MLOAD PUSH3 0x461BCD PUSH1 0xE5 SHL DUP2 MSTORE PUSH1 0x20 PUSH1 0x4 DUP3 ADD MSTORE PUSH1 0x23 PUSH1 0x24 DUP3 ADD MSTORE PUSH32 0x696E73756666696369656E7420616C6C6F77616E636520746F20627579207069 PUSH1 0x44 DUP3 ADD MSTORE PUSH3 0x1E195B PUSH1 0xEA SHL PUSH1 0x64 DUP3 ADD MSTORE PUSH1 0x84 SWAP1 REVERT JUMPDEST SWAP2 SWAP1 DUP3 SUB SWAP2 DUP3 GT PUSH2 0x22B3 JUMPI JUMP JUMPDEST ISZERO PUSH2 0x2C7B JUMPI JUMP JUMPDEST PUSH1 0x40 MLOAD PUSH3 0x461BCD PUSH1 0xE5 SHL DUP2 MSTORE PUSH1 0x20 PUSH1 0x4 DUP3 ADD MSTORE PUSH1 0x2C PUSH1 0x24 DUP3 ADD MSTORE PUSH32 0x6F776E65722063757272656E74206D616E616765722063616E2063616C6C2074 PUSH1 0x44 DUP3 ADD MSTORE PUSH12 0x3434B990333AB731BA34B7B7 PUSH1 0xA1 SHL PUSH1 0x64 DUP3 ADD MSTORE PUSH1 0x84 SWAP1 REVERT JUMPDEST PUSH1 0x40 MLOAD SWAP1 PUSH2 0x2CE2 DUP3 PUSH2 0x22FA JUMP JUMPDEST DUP2 PUSH1 0xC0 PUSH1 0x0 SWAP2 DUP3 DUP2 MSTORE DUP3 PUSH1 0x20 DUP3 ADD MSTORE DUP3 PUSH1 0x40 DUP3 ADD MSTORE PUSH1 0x60 DUP1 DUP3 ADD MSTORE DUP3 PUSH1 0x80 DUP3 ADD MSTORE DUP3 PUSH1 0xA0 DUP3 ADD MSTORE ADD MSTORE JUMP JUMPDEST SWAP1 PUSH2 0x2D16 PUSH2 0x2CD5 JUMP JUMPDEST POP PUSH1 0x40 SWAP2 DUP3 DUP2 LT DUP1 PUSH2 0x2DDB JUMPI JUMPDEST ISZERO PUSH2 0x2DA1 JUMPI PUSH1 0x0 MSTORE PUSH1 0x6 PUSH1 0x20 MSTORE DUP2 PUSH1 0x0 KECCAK256 SWAP1 PUSH1 0x0 MSTORE PUSH1 0x20 MSTORE PUSH1 0x6 DUP2 PUSH1 0x0 KECCAK256 DUP3 MLOAD SWAP3 PUSH2 0x2D4D DUP5 PUSH2 0x22FA JUMP JUMPDEST DUP2 SLOAD PUSH1 0x1 PUSH1 0x1 PUSH1 0xA0 SHL SUB AND DUP5 MSTORE PUSH1 0x1 DUP3 ADD SLOAD PUSH1 0x20 DUP6 ADD MSTORE PUSH1 0x2 DUP3 ADD SLOAD SWAP1 DUP5 ADD MSTORE PUSH2 0x2D79 PUSH1 0x3 DUP3 ADD PUSH2 0x247D JUMP JUMPDEST PUSH1 0x60 DUP5 ADD MSTORE PUSH1 0x4 DUP2 ADD SLOAD PUSH1 0x80 DUP5 ADD MSTORE PUSH1 0xFF PUSH1 0x5 DUP3 ADD SLOAD AND ISZERO ISZERO PUSH1 0xA0 DUP5 ADD MSTORE ADD SLOAD PUSH1 0xC0 DUP3 ADD MSTORE SWAP1 JUMP JUMPDEST DUP3 MLOAD PUSH3 0x461BCD PUSH1 0xE5 SHL DUP2 MSTORE PUSH1 0x20 PUSH1 0x4 DUP3 ADD MSTORE PUSH1 0x13 PUSH1 0x24 DUP3 ADD MSTORE PUSH19 0x706978656C206F7574206F6620626F756E6473 PUSH1 0x68 SHL PUSH1 0x44 DUP3 ADD MSTORE PUSH1 0x64 SWAP1 REVERT JUMPDEST POP DUP3 DUP3 LT PUSH2 0x2D23 JUMP JUMPDEST PUSH2 0x2E34 PUSH2 0x2E3D SWAP2 PUSH1 0x2 PUSH1 0x40 PUSH5 0x73DF16000 SWAP6 PUSH1 0x0 SWAP1 DUP5 DUP3 MSTORE PUSH1 0x6 PUSH1 0x20 MSTORE DUP3 DUP3 KECCAK256 DUP2 DUP4 MSTORE PUSH1 0x20 MSTORE PUSH2 0x2E1A PUSH1 0x4 DUP5 DUP5 KECCAK256 ADD SLOAD TIMESTAMP PUSH2 0x2C67 JUMP JUMPDEST SWAP5 DUP3 MSTORE PUSH1 0x6 PUSH1 0x20 MSTORE DUP3 DUP3 KECCAK256 SWAP1 DUP3 MSTORE PUSH1 0x20 MSTORE KECCAK256 ADD SLOAD SWAP1 PUSH2 0x269C JUMP JUMPDEST PUSH1 0x3 SLOAD SWAP1 PUSH2 0x269C JUMP JUMPDEST DIV SWAP1 JUMP JUMPDEST ISZERO PUSH2 0x2E48 JUMPI JUMP JUMPDEST PUSH1 0x40 MLOAD PUSH3 0x461BCD PUSH1 0xE5 SHL DUP2 MSTORE PUSH1 0x20 PUSH1 0x4 DUP3 ADD MSTORE PUSH1 0x19 PUSH1 0x24 DUP3 ADD MSTORE PUSH25 0x61756374696F6E2068617320656E64656420616C7265616479 PUSH1 0x38 SHL PUSH1 0x44 DUP3 ADD MSTORE PUSH1 0x64 SWAP1 REVERT JUMPDEST ISZERO PUSH2 0x2E90 JUMPI JUMP JUMPDEST PUSH1 0x40 MLOAD PUSH3 0x461BCD PUSH1 0xE5 SHL DUP2 MSTORE PUSH1 0x20 PUSH1 0x4 DUP3 ADD MSTORE PUSH1 0x1B PUSH1 0x24 DUP3 ADD MSTORE PUSH32 0x61756374696F6E20686173206E6F742073746172746564207965740000000000 PUSH1 0x44 DUP3 ADD MSTORE PUSH1 0x64 SWAP1 REVERT JUMPDEST PUSH1 0x2 PUSH1 0x0 SLOAD EQ PUSH2 0x2EE6 JUMPI PUSH1 0x2 PUSH1 0x0 SSTORE JUMP JUMPDEST PUSH1 0x40 MLOAD PUSH4 0x3EE5AEB5 PUSH1 0xE0 SHL DUP2 MSTORE PUSH1 0x4 SWAP1 REVERT JUMPDEST SWAP2 SWAP3 SWAP1 SWAP3 DUP3 ISZERO PUSH2 0x3599 JUMPI PUSH1 0x1 DUP4 EQ PUSH2 0x34CA JUMPI PUSH1 0x2 DUP4 EQ PUSH2 0x34A0 JUMPI PUSH1 0x3 DUP4 EQ PUSH2 0x3444 JUMPI PUSH1 0x4 SWAP3 DUP4 DUP2 EQ PUSH2 0x33F0 JUMPI PUSH1 0x5 DUP2 EQ PUSH2 0x3293 JUMPI PUSH1 0x6 DUP2 EQ PUSH2 0x3241 JUMPI PUSH1 0x7 DUP2 EQ PUSH2 0x31DA JUMPI PUSH1 0x8 DUP2 EQ PUSH2 0x30F7 JUMPI PUSH1 0x9 EQ PUSH2 0x2F62 JUMPI POP POP POP POP PUSH1 0x40 MLOAD PUSH2 0x2F5B DUP2 PUSH2 0x2315 JUMP JUMPDEST PUSH1 0x0 DUP2 MSTORE SWAP1 JUMP JUMPDEST PUSH2 0x2F6B DUP5 PUSH2 0x36D8 JUMP JUMPDEST SWAP1 PUSH2 0x2F75 DUP2 PUSH2 0x36D8 JUMP JUMPDEST PUSH1 0x8 DUP7 ADD DUP1 DUP8 GT PUSH2 0x30E2 JUMPI PUSH2 0x2F89 SWAP1 PUSH2 0x36D8 JUMP JUMPDEST SWAP5 PUSH1 0x8 DUP4 ADD DUP1 SWAP4 GT PUSH2 0x30CD JUMPI POP SWAP2 PUSH2 0x30B1 DUP3 PUSH2 0x2440 SWAP7 SWAP5 PUSH2 0x2FBE PUSH2 0x2FB8 PUSH2 0x2FB2 PUSH1 0x49 SWAP10 SWAP8 PUSH2 0x36D8 JUMP JUMPDEST SWAP11 PUSH2 0x36D8 JUMP JUMPDEST SWAP3 PUSH2 0x36D8 JUMP JUMPDEST SWAP2 PUSH1 0x40 MLOAD SWAP10 DUP11 SWAP8 PUSH1 0x2A PUSH2 0x2FEE DUP11 PUSH1 0x20 SWAP10 PUSH10 0x3C7061746820643D224D PUSH1 0xB0 SHL DUP12 DUP4 ADD MSTORE DUP11 DUP2 MLOAD SWAP5 DUP6 SWAP4 ADD SWAP2 ADD PUSH2 0x2202 JUMP JUMPDEST DUP10 ADD SWAP4 PUSH1 0x1 PUSH1 0xFD SHL SWAP5 DUP6 PUSH1 0x2A DUP3 ADD MSTORE PUSH2 0x3010 DUP3 MLOAD DUP1 SWAP4 DUP12 PUSH1 0x2B DUP6 ADD SWAP2 ADD PUSH2 0x2202 JUMP JUMPDEST ADD PUSH12 0x10209C101C1018101810189 PUSH1 0xA5 SHL PUSH1 0x2B DUP3 ADD MSTORE PUSH2 0x3039 DUP3 MLOAD DUP1 SWAP4 DUP11 PUSH1 0x37 DUP6 ADD SWAP2 ADD PUSH2 0x2202 JUMP JUMPDEST ADD DUP4 PUSH1 0x37 DUP3 ADD MSTORE PUSH2 0x3053 DUP3 MLOAD DUP1 SWAP4 DUP10 PUSH1 0x38 DUP6 ADD SWAP2 ADD PUSH2 0x2202 JUMP JUMPDEST ADD PUSH2 0x813 PUSH1 0xF2 SHL PUSH1 0x38 DUP3 ADD MSTORE PUSH2 0x3072 DUP3 MLOAD DUP1 SWAP4 DUP9 PUSH1 0x3A DUP6 ADD SWAP2 ADD PUSH2 0x2202 JUMP JUMPDEST ADD SWAP1 PUSH1 0x3A DUP3 ADD MSTORE PUSH2 0x308C DUP3 MLOAD DUP1 SWAP4 DUP7 PUSH1 0x3B DUP6 ADD SWAP2 ADD PUSH2 0x2202 JUMP JUMPDEST ADD SWAP2 PUSH10 0x102D11103334B6361E91 PUSH1 0xB1 SHL PUSH1 0x3B DUP5 ADD MSTORE DUP4 MLOAD SWAP4 DUP5 SWAP2 PUSH1 0x45 DUP6 ADD SWAP2 ADD PUSH2 0x2202 JUMP JUMPDEST ADD PUSH4 0x1110179F PUSH1 0xE1 SHL PUSH1 0x45 DUP3 ADD MSTORE SUB PUSH1 0x29 DUP2 ADD DUP5 MSTORE ADD DUP3 PUSH2 0x2330 JUMP JUMPDEST PUSH1 0x11 SWAP1 PUSH4 0x4E487B71 PUSH1 0xE0 SHL PUSH1 0x0 MSTORE MSTORE PUSH1 0x24 PUSH1 0x0 REVERT JUMPDEST PUSH1 0x11 DUP7 PUSH4 0x4E487B71 PUSH1 0xE0 SHL PUSH1 0x0 MSTORE MSTORE PUSH1 0x24 PUSH1 0x0 REVERT JUMPDEST POP SWAP3 PUSH1 0x8 DUP2 ADD SWAP4 DUP5 DUP3 GT PUSH2 0x31C5 JUMPI PUSH2 0x310E DUP6 PUSH2 0x36D8 JUMP JUMPDEST SWAP2 PUSH2 0x3121 PUSH2 0x311B DUP4 PUSH2 0x36D8 JUMP JUMPDEST SWAP2 PUSH2 0x36D8 JUMP JUMPDEST SWAP5 PUSH1 0x8 DUP4 ADD DUP1 SWAP4 GT PUSH2 0x30CD JUMPI POP SWAP2 PUSH2 0x30B1 DUP3 PUSH2 0x2440 SWAP7 SWAP5 PUSH2 0x314A PUSH2 0x2FB8 PUSH2 0x2FB2 PUSH1 0x49 SWAP10 SWAP8 PUSH2 0x36D8 JUMP JUMPDEST SWAP2 PUSH1 0x40 MLOAD SWAP10 DUP11 SWAP8 PUSH1 0x2A PUSH2 0x317A DUP11 PUSH1 0x20 SWAP10 PUSH10 0x3C7061746820643D224D PUSH1 0xB0 SHL DUP12 DUP4 ADD MSTORE DUP11 DUP2 MLOAD SWAP5 DUP6 SWAP4 ADD SWAP2 ADD PUSH2 0x2202 JUMP JUMPDEST DUP10 ADD SWAP4 PUSH1 0x1 PUSH1 0xFD SHL SWAP5 DUP6 PUSH1 0x2A DUP3 ADD MSTORE PUSH2 0x319C DUP3 MLOAD DUP1 SWAP4 DUP12 PUSH1 0x2B DUP6 ADD SWAP2 ADD PUSH2 0x2202 JUMP JUMPDEST ADD PUSH12 0x10209C101C1018101810181 PUSH1 0xA5 SHL PUSH1 0x2B DUP3 ADD MSTORE PUSH2 0x3039 DUP3 MLOAD DUP1 SWAP4 DUP11 PUSH1 0x37 DUP6 ADD SWAP2 ADD PUSH2 0x2202 JUMP JUMPDEST PUSH1 0x11 DUP5 PUSH4 0x4E487B71 PUSH1 0xE0 SHL PUSH1 0x0 MSTORE MSTORE PUSH1 0x24 PUSH1 0x0 REVERT JUMPDEST POP PUSH2 0x31E4 DUP5 PUSH2 0x36D8 JUMP JUMPDEST SWAP1 PUSH2 0x31EE DUP2 PUSH2 0x36D8 JUMP JUMPDEST PUSH1 0x8 DUP7 ADD DUP1 SWAP7 GT PUSH2 0x322C JUMPI PUSH2 0x3202 DUP7 PUSH2 0x36D8 JUMP JUMPDEST SWAP5 PUSH1 0x8 DUP4 ADD SWAP1 DUP2 DUP5 GT PUSH2 0x30CD JUMPI POP PUSH1 0x49 SWAP5 SWAP3 PUSH2 0x2440 SWAP7 SWAP5 SWAP3 PUSH2 0x314A PUSH2 0x2FB8 PUSH2 0x2FB2 PUSH2 0x30B1 SWAP6 PUSH2 0x36D8 JUMP JUMPDEST PUSH1 0x11 DUP6 PUSH4 0x4E487B71 PUSH1 0xE0 SHL PUSH1 0x0 MSTORE MSTORE PUSH1 0x24 PUSH1 0x0 REVERT JUMPDEST POP PUSH2 0x324B DUP5 PUSH2 0x36D8 JUMP JUMPDEST SWAP1 PUSH1 0x8 DUP2 ADD DUP1 DUP3 GT PUSH2 0x322C JUMPI PUSH2 0x3260 SWAP1 PUSH2 0x36D8 JUMP JUMPDEST SWAP4 PUSH1 0x8 DUP7 ADD SWAP1 DUP2 DUP8 GT PUSH2 0x30CD JUMPI POP SWAP2 PUSH2 0x30B1 PUSH1 0x49 SWAP5 SWAP3 PUSH2 0x3283 PUSH2 0x2440 SWAP8 SWAP6 PUSH2 0x36D8 JUMP JUMPDEST SWAP5 PUSH2 0x314A PUSH2 0x2FB8 PUSH2 0x2FB2 DUP5 PUSH2 0x36D8 JUMP JUMPDEST POP SWAP3 PUSH2 0x329E DUP2 PUSH2 0x36D8 JUMP JUMPDEST SWAP1 PUSH1 0x8 DUP6 ADD SWAP1 DUP2 DUP7 GT PUSH2 0x322C JUMPI PUSH2 0x32B4 DUP3 PUSH2 0x36D8 JUMP JUMPDEST SWAP1 PUSH2 0x32C7 PUSH2 0x32C1 DUP3 PUSH2 0x36D8 JUMP JUMPDEST SWAP8 PUSH2 0x36D8 JUMP JUMPDEST SWAP6 PUSH1 0x8 DUP3 ADD DUP1 SWAP3 GT PUSH2 0x30CD JUMPI POP PUSH1 0x3F SWAP5 SWAP3 PUSH2 0x2440 SWAP7 SWAP5 SWAP3 PUSH2 0x32ED PUSH2 0x2FB8 PUSH2 0x33D4 SWAP5 PUSH2 0x36D8 JUMP JUMPDEST SWAP2 PUSH1 0x40 MLOAD SWAP10 DUP11 SWAP8 PUSH1 0x2A PUSH2 0x331D DUP11 PUSH1 0x20 SWAP10 PUSH10 0x3C7061746820643D224D PUSH1 0xB0 SHL DUP12 DUP4 ADD MSTORE DUP11 DUP2 MLOAD SWAP5 DUP6 SWAP4 ADD SWAP2 ADD PUSH2 0x2202 JUMP JUMPDEST DUP10 ADD SWAP4 PUSH1 0x1 PUSH1 0xFD SHL SWAP5 DUP6 PUSH1 0x2A DUP3 ADD MSTORE PUSH2 0x333F DUP3 MLOAD DUP1 SWAP4 DUP12 PUSH1 0x2B DUP6 ADD SWAP2 ADD PUSH2 0x2202 JUMP JUMPDEST ADD SWAP2 PUSH2 0x813 PUSH1 0xF2 SHL SWAP3 DUP4 PUSH1 0x2B DUP3 ADD MSTORE PUSH2 0x3361 DUP3 MLOAD DUP1 SWAP4 DUP12 PUSH1 0x2D DUP6 ADD SWAP2 ADD PUSH2 0x2202 JUMP JUMPDEST ADD DUP5 PUSH1 0x2D DUP3 ADD MSTORE PUSH2 0x337B DUP3 MLOAD DUP1 SWAP4 DUP11 PUSH1 0x2E DUP6 ADD SWAP2 ADD PUSH2 0x2202 JUMP JUMPDEST ADD SWAP1 PUSH1 0x2E DUP3 ADD MSTORE PUSH2 0x3395 DUP3 MLOAD DUP1 SWAP4 DUP9 PUSH1 0x30 DUP6 ADD SWAP2 ADD PUSH2 0x2202 JUMP JUMPDEST ADD SWAP1 PUSH1 0x30 DUP3 ADD MSTORE PUSH2 0x33AF DUP3 MLOAD DUP1 SWAP4 DUP7 PUSH1 0x31 DUP6 ADD SWAP2 ADD PUSH2 0x2202 JUMP JUMPDEST ADD SWAP2 PUSH10 0x103D11103334B6361E91 PUSH1 0xB1 SHL PUSH1 0x31 DUP5 ADD MSTORE DUP4 MLOAD SWAP4 DUP5 SWAP2 PUSH1 0x3B DUP6 ADD SWAP2 ADD PUSH2 0x2202 JUMP JUMPDEST ADD PUSH4 0x1110179F PUSH1 0xE1 SHL PUSH1 0x3B DUP3 ADD MSTORE SUB PUSH1 0x1F DUP2 ADD DUP5 MSTORE ADD DUP3 PUSH2 0x2330 JUMP JUMPDEST POP SWAP3 SWAP2 PUSH1 0x8 DUP4 ADD SWAP1 DUP2 DUP5 GT PUSH2 0x30CD JUMPI PUSH2 0x3408 DUP3 PUSH2 0x36D8 JUMP JUMPDEST SWAP2 PUSH1 0x8 DUP7 ADD SWAP2 DUP3 DUP8 GT PUSH2 0x30CD JUMPI POP SWAP2 PUSH2 0x33D4 DUP3 PUSH2 0x2440 SWAP7 SWAP5 PUSH2 0x32ED PUSH2 0x2FB8 PUSH2 0x32C1 PUSH2 0x343E PUSH2 0x3438 PUSH1 0x3F SWAP12 SWAP10 PUSH2 0x36D8 JUMP JUMPDEST SWAP5 PUSH2 0x36D8 JUMP JUMPDEST SWAP12 PUSH2 0x36D8 JUMP JUMPDEST SWAP2 POP PUSH2 0x344F DUP4 PUSH2 0x36D8 JUMP JUMPDEST SWAP3 PUSH2 0x3459 DUP4 PUSH2 0x36D8 JUMP JUMPDEST SWAP2 PUSH1 0x8 DUP3 ADD DUP1 SWAP3 GT PUSH2 0x22B3 JUMPI PUSH2 0x346E DUP3 PUSH2 0x36D8 JUMP JUMPDEST SWAP5 PUSH2 0x3481 PUSH2 0x347B DUP7 PUSH2 0x36D8 JUMP JUMPDEST SWAP4 PUSH2 0x36D8 JUMP JUMPDEST SWAP5 PUSH1 0x8 DUP2 ADD DUP1 SWAP2 GT PUSH2 0x22B3 JUMPI PUSH2 0x2440 SWAP6 PUSH1 0x3F SWAP6 PUSH2 0x32ED PUSH2 0x33D4 SWAP4 PUSH2 0x36D8 JUMP JUMPDEST SWAP2 POP PUSH2 0x34AB DUP4 PUSH2 0x36D8 JUMP JUMPDEST SWAP3 PUSH2 0x34B5 DUP4 PUSH2 0x36D8 JUMP JUMPDEST SWAP2 PUSH1 0x8 DUP3 ADD DUP1 DUP4 GT PUSH2 0x22B3 JUMPI PUSH2 0x346E SWAP1 PUSH2 0x36D8 JUMP JUMPDEST SWAP2 POP SWAP2 PUSH1 0x4 DUP2 ADD DUP1 SWAP2 GT PUSH2 0x22B3 JUMPI PUSH2 0x34E1 SWAP1 PUSH2 0x36D8 JUMP JUMPDEST SWAP1 PUSH1 0x4 DUP2 ADD DUP1 SWAP2 GT PUSH2 0x22B3 JUMPI PUSH2 0x2440 SWAP2 PUSH2 0x34FC PUSH1 0x44 SWAP3 PUSH2 0x36D8 JUMP JUMPDEST SWAP4 PUSH1 0x40 MLOAD SWAP5 DUP6 SWAP3 PUSH12 0x1E31B4B931B6329031BC1E91 PUSH1 0xA1 SHL PUSH1 0x20 DUP6 ADD MSTORE PUSH2 0x352C DUP2 MLOAD DUP1 SWAP3 PUSH1 0x20 PUSH1 0x2C DUP9 ADD SWAP2 ADD PUSH2 0x2202 JUMP JUMPDEST DUP4 ADD PUSH6 0x111031BC9E91 PUSH1 0xD1 SHL PUSH1 0x2C DUP3 ADD MSTORE PUSH2 0x3551 DUP3 MLOAD DUP1 SWAP4 PUSH1 0x20 PUSH1 0x32 DUP6 ADD SWAP2 ADD PUSH2 0x2202 JUMP JUMPDEST ADD PUSH14 0x1110391E911A11103334B6361E91 PUSH1 0x91 SHL PUSH1 0x32 DUP3 ADD MSTORE PUSH2 0x357D DUP3 MLOAD DUP1 SWAP4 PUSH1 0x20 PUSH1 0x40 DUP6 ADD SWAP2 ADD PUSH2 0x2202 JUMP JUMPDEST ADD PUSH4 0x1110179F PUSH1 0xE1 SHL PUSH1 0x40 DUP3 ADD MSTORE SUB PUSH1 0x24 DUP2 ADD DUP5 MSTORE ADD DUP3 PUSH2 0x2330 JUMP JUMPDEST PUSH2 0x2440 SWAP3 POP PUSH2 0x35AD PUSH2 0x311B PUSH1 0x4F SWAP4 SWAP6 PUSH2 0x36D8 JUMP JUMPDEST SWAP4 PUSH1 0x40 MLOAD SWAP5 DUP6 SWAP3 PUSH9 0x1E3932B1BA103C1E91 PUSH1 0xB9 SHL PUSH1 0x20 DUP6 ADD MSTORE PUSH2 0x35DA DUP2 MLOAD DUP1 SWAP3 PUSH1 0x20 PUSH1 0x29 DUP9 ADD SWAP2 ADD PUSH2 0x2202 JUMP JUMPDEST DUP4 ADD PUSH5 0x11103C9E91 PUSH1 0xD9 SHL PUSH1 0x29 DUP3 ADD MSTORE PUSH2 0x35FE DUP3 MLOAD DUP1 SWAP4 PUSH1 0x20 PUSH1 0x2E DUP6 ADD SWAP2 ADD PUSH2 0x2202 JUMP JUMPDEST ADD PUSH32 0x222077696474683D223822206865696768743D2238222066696C6C3D22000000 PUSH1 0x2E DUP3 ADD MSTORE PUSH2 0x3639 DUP3 MLOAD DUP1 SWAP4 PUSH1 0x20 PUSH1 0x4B DUP6 ADD SWAP2 ADD PUSH2 0x2202 JUMP JUMPDEST ADD PUSH4 0x1110179F PUSH1 0xE1 SHL PUSH1 0x4B DUP3 ADD MSTORE SUB PUSH1 0x2F DUP2 ADD DUP5 MSTORE ADD DUP3 PUSH2 0x2330 JUMP JUMPDEST PUSH1 0x0 SWAP3 SWAP2 DUP2 SLOAD PUSH2 0x3664 DUP2 PUSH2 0x2443 JUMP JUMPDEST SWAP3 PUSH1 0x1 SWAP2 DUP1 DUP4 AND SWAP1 DUP2 ISZERO PUSH2 0x36BD JUMPI POP PUSH1 0x1 EQ PUSH2 0x3681 JUMPI JUMPDEST POP POP POP POP JUMP JUMPDEST SWAP1 SWAP2 SWAP3 SWAP4 SWAP5 POP PUSH1 0x0 MSTORE PUSH1 0x20 SWAP1 DUP2 PUSH1 0x0 KECCAK256 SWAP1 PUSH1 0x0 SWAP2 JUMPDEST DUP6 DUP4 LT PUSH2 0x36AC JUMPI POP POP POP POP ADD SWAP1 CODESIZE DUP1 DUP1 DUP1 PUSH2 0x367B JUMP JUMPDEST DUP1 SLOAD DUP6 DUP5 ADD MSTORE SWAP2 DUP4 ADD SWAP2 DUP2 ADD PUSH2 0x3696 JUMP JUMPDEST PUSH1 0xFF NOT AND DUP5 MSTORE POP POP POP DUP2 ISZERO ISZERO SWAP1 SWAP2 MUL ADD SWAP2 POP CODESIZE DUP1 DUP1 DUP1 PUSH2 0x367B JUMP JUMPDEST DUP1 ISZERO PUSH2 0x3798 JUMPI DUP1 DUP2 PUSH1 0x0 SWAP3 JUMPDEST PUSH2 0x3784 JUMPI POP DUP1 PUSH2 0x36F3 DUP4 PUSH2 0x2368 JUMP JUMPDEST SWAP3 PUSH2 0x3701 PUSH1 0x40 MLOAD SWAP5 DUP6 PUSH2 0x2330 JUMP JUMPDEST DUP1 DUP5 MSTORE PUSH1 0x1F NOT PUSH2 0x3710 DUP3 PUSH2 0x2368 JUMP JUMPDEST ADD CALLDATASIZE PUSH1 0x20 DUP7 ADD CALLDATACOPY SWAP2 JUMPDEST PUSH2 0x3722 JUMPI POP POP SWAP1 JUMP JUMPDEST PUSH1 0x0 NOT DUP3 ADD SWAP2 DUP1 DUP4 GT PUSH2 0x22B3 JUMPI DUP3 PUSH1 0xA SWAP1 DUP2 DUP5 DIV SWAP4 DUP3 DUP6 MUL SWAP3 DUP6 DUP5 DIV EQ DUP6 ISZERO OR ISZERO PUSH2 0x22B3 JUMPI PUSH2 0x3754 PUSH1 0xFF SWAP4 DUP5 SWAP3 PUSH2 0x2C67 JUMP JUMPDEST AND PUSH1 0x30 ADD SWAP2 DUP3 GT PUSH2 0x22B3 JUMPI DUP6 MLOAD GT ISZERO PUSH2 0x2546 JUMPI PUSH1 0xF8 SHL PUSH1 0x1 PUSH1 0x1 PUSH1 0xF8 SHL SUB NOT AND PUSH1 0x0 BYTE SWAP1 DUP5 ADD PUSH1 0x1F ADD MSTORE8 DUP1 PUSH2 0x3719 JUMP JUMPDEST SWAP2 PUSH2 0x3790 PUSH1 0xA SWAP2 PUSH2 0x2523 JUMP JUMPDEST SWAP3 DIV DUP1 PUSH2 0x36E4 JUMP JUMPDEST POP PUSH1 0x40 MLOAD PUSH1 0x40 DUP2 ADD DUP2 DUP2 LT PUSH1 0x1 PUSH1 0x1 PUSH1 0x40 SHL SUB DUP3 GT OR PUSH2 0x6DA JUMPI PUSH1 0x40 MSTORE PUSH1 0x1 DUP2 MSTORE PUSH1 0x3 PUSH1 0xFC SHL PUSH1 0x20 DUP3 ADD MSTORE SWAP1 JUMP INVALID LOG2 PUSH5 0x6970667358 0x22 SLT KECCAK256 DUP1 0x24 SAR GAS DUP1 CREATE2 LOG0 SMOD 0xAE SWAP11 EXTCODEHASH SLOAD SWAP3 SWAP2 EXTCODECOPY MLOAD PUSH1 0x88 NUMBER 0xD4 PREVRANDAO 0x28 0xA7 0x49 0xB1 PUSH24 0x87FD1CE561EA64736F6C6343000814003300000000000000 "},"methodIdentifiers":{"ARTISTIC_PERIOD()":"3323a706","AUCTION_DURATION()":"a271e525","CYCLE_PERIOD()":"113bc999","VOTING_PERIOD()":"b1610d7e","balanceOf(address)":"70a08231","buyPixel(uint256[],uint256[])":"6ed958f1","calculateRoyalties(uint256,uint256)":"d08629c1","canvasCreation()":"ff188dca","castVote(bool)":"7ace48e7","checkMultiplePixel(uint256[],uint256[])":"c7eab2ec","checkPixel(uint256,uint256)":"040cdfd8","checkVoteOutcome(uint256)":"5c8c6407","closeAuction(uint256)":"236ed8f3","fillPixel(bytes[])":"3bdb693e","generateSVG()":"ad711e9e","getBalance(address)":"f8b2cb4f","getCurrentCycle()":"be26ed7f","getMintDate(uint256)":"bc5bc2fb","hasVoted(address)":"09eef43e","isInArtisticPeriod()":"4882a7ea","isInVotingPeriod()":"b3a1ddf4","manager()":"481c6a75","maxHeight()":"63aa5ce2","maxWidth()":"6006ecc8","mintDates(uint256)":"c4323fc1","nftAuctions(uint256)":"93cde51a","nftContract()":"d56d229d","payRoyalties(uint256[],uint256[])":"e50eb5da","pixelSVGs(uint256)":"c4e4b90c","placeBid(uint256)":"9979ef45","rowSVGs(uint256)":"e1245900","royaltyAskPeriod()":"6e70fcc6","royaltyDenominator()":"fd8d7ed3","royaltyRate()":"c4d1510d","seekRoyaltyPayment(uint256,uint256,uint256)":"85a9473d","setNFTContract(address)":"a7ccabdf","setPixelValue(uint256[],uint256[],uint256[])":"8232b562","updateCurrency(address)":"5e027601","voteRegister(uint256)":"30b5d6d3","window(uint256,uint256)":"c730e65d"}}}}}