{"contracts/Pixelmap.sol":{"Pixelmap":{"abi":[{"inputs":[],"stateMutability":"nonpayable","type":"constructor"},{"anonymous":false,"inputs":[{"indexed":false,"internalType":"uint32","name":"cycle","type":"uint32"}],"name":"NFTMinted","type":"event"},{"anonymous":false,"inputs":[{"indexed":true,"internalType":"uint8","name":"x","type":"uint8"},{"indexed":true,"internalType":"uint8","name":"y","type":"uint8"}],"name":"PixelBought","type":"event"},{"anonymous":false,"inputs":[{"indexed":true,"internalType":"uint8","name":"x","type":"uint8"},{"indexed":true,"internalType":"uint8","name":"y","type":"uint8"}],"name":"PixelFilled","type":"event"},{"anonymous":false,"inputs":[{"indexed":true,"internalType":"uint8","name":"x","type":"uint8"},{"indexed":true,"internalType":"uint8","name":"y","type":"uint8"}],"name":"PixelValueSet","type":"event"},{"anonymous":false,"inputs":[{"indexed":true,"internalType":"uint8","name":"x","type":"uint8"},{"indexed":true,"internalType":"uint8","name":"y","type":"uint8"}],"name":"RoyaltiesPaid","type":"event"},{"anonymous":false,"inputs":[{"indexed":true,"internalType":"address","name":"owner","type":"address"}],"name":"VoteCasted","type":"event"},{"inputs":[],"name":"ARTISTIC_PERIOD","outputs":[{"internalType":"uint256","name":"","type":"uint256"}],"stateMutability":"view","type":"function"},{"inputs":[],"name":"CYCLE_PERIOD","outputs":[{"internalType":"uint256","name":"","type":"uint256"}],"stateMutability":"view","type":"function"},{"inputs":[],"name":"VOTING_PERIOD","outputs":[{"internalType":"uint256","name":"","type":"uint256"}],"stateMutability":"view","type":"function"},{"inputs":[{"internalType":"address","name":"","type":"address"}],"name":"balanceOf","outputs":[{"internalType":"uint16","name":"","type":"uint16"}],"stateMutability":"view","type":"function"},{"inputs":[{"internalType":"uint8[]","name":"xValues","type":"uint8[]"},{"internalType":"uint8[]","name":"yValues","type":"uint8[]"}],"name":"buyPixel","outputs":[],"stateMutability":"nonpayable","type":"function"},{"inputs":[{"internalType":"uint8","name":"x","type":"uint8"},{"internalType":"uint8","name":"y","type":"uint8"}],"name":"calculateRoyalties","outputs":[{"internalType":"uint256","name":"","type":"uint256"}],"stateMutability":"view","type":"function"},{"inputs":[],"name":"canvasCreation","outputs":[{"internalType":"uint256","name":"","type":"uint256"}],"stateMutability":"view","type":"function"},{"inputs":[{"internalType":"bool","name":"vote","type":"bool"}],"name":"castVote","outputs":[],"stateMutability":"nonpayable","type":"function"},{"inputs":[{"internalType":"uint8[]","name":"xValues","type":"uint8[]"},{"internalType":"uint8[]","name":"yValues","type":"uint8[]"}],"name":"checkMultiplePixel","outputs":[{"components":[{"internalType":"address","name":"owner","type":"address"},{"internalType":"uint8","name":"shapeID","type":"uint8"},{"internalType":"uint256","name":"price","type":"uint256"},{"internalType":"string","name":"color","type":"string"},{"internalType":"uint256","name":"royaltyLastPaid","type":"uint256"},{"internalType":"bool","name":"askedToPayRoyalties","type":"bool"},{"internalType":"uint256","name":"royaltyAskDate","type":"uint256"}],"internalType":"struct Pixelmap.Pixel[]","name":"","type":"tuple[]"}],"stateMutability":"view","type":"function"},{"inputs":[{"internalType":"uint8","name":"x","type":"uint8"},{"internalType":"uint8","name":"y","type":"uint8"}],"name":"checkPixel","outputs":[{"components":[{"internalType":"address","name":"owner","type":"address"},{"internalType":"uint8","name":"shapeID","type":"uint8"},{"internalType":"uint256","name":"price","type":"uint256"},{"internalType":"string","name":"color","type":"string"},{"internalType":"uint256","name":"royaltyLastPaid","type":"uint256"},{"internalType":"bool","name":"askedToPayRoyalties","type":"bool"},{"internalType":"uint256","name":"royaltyAskDate","type":"uint256"}],"internalType":"struct Pixelmap.Pixel","name":"","type":"tuple"}],"stateMutability":"view","type":"function"},{"inputs":[{"internalType":"uint32","name":"_cycle","type":"uint32"}],"name":"checkVoteOutcome","outputs":[],"stateMutability":"nonpayable","type":"function"},{"inputs":[{"internalType":"bytes[]","name":"_pixels","type":"bytes[]"}],"name":"fillPixel","outputs":[],"stateMutability":"nonpayable","type":"function"},{"inputs":[],"name":"generateSVG","outputs":[{"internalType":"string","name":"","type":"string"}],"stateMutability":"view","type":"function"},{"inputs":[{"internalType":"address","name":"_owner","type":"address"}],"name":"getBalance","outputs":[{"internalType":"uint256","name":"","type":"uint256"}],"stateMutability":"view","type":"function"},{"inputs":[],"name":"getCurrentCycle","outputs":[{"internalType":"uint256","name":"","type":"uint256"}],"stateMutability":"view","type":"function"},{"inputs":[{"internalType":"uint256","name":"_tokenID","type":"uint256"}],"name":"getMintDate","outputs":[{"internalType":"uint256","name":"","type":"uint256"}],"stateMutability":"view","type":"function"},{"inputs":[],"name":"getRowSVG","outputs":[{"internalType":"string[64]","name":"","type":"string[64]"}],"stateMutability":"view","type":"function"},{"inputs":[{"internalType":"address","name":"_owner","type":"address"}],"name":"hasVoted","outputs":[{"internalType":"bool","name":"","type":"bool"}],"stateMutability":"view","type":"function"},{"inputs":[],"name":"isInArtisticPeriod","outputs":[{"internalType":"bool","name":"","type":"bool"}],"stateMutability":"view","type":"function"},{"inputs":[],"name":"isInVotingPeriod","outputs":[{"internalType":"bool","name":"","type":"bool"}],"stateMutability":"view","type":"function"},{"inputs":[],"name":"manager","outputs":[{"internalType":"address","name":"","type":"address"}],"stateMutability":"view","type":"function"},{"inputs":[],"name":"maxHeight","outputs":[{"internalType":"uint8","name":"","type":"uint8"}],"stateMutability":"view","type":"function"},{"inputs":[],"name":"maxWidth","outputs":[{"internalType":"uint8","name":"","type":"uint8"}],"stateMutability":"view","type":"function"},{"inputs":[{"internalType":"uint256","name":"","type":"uint256"}],"name":"mintDates","outputs":[{"internalType":"uint256","name":"","type":"uint256"}],"stateMutability":"view","type":"function"},{"inputs":[],"name":"nftContract","outputs":[{"internalType":"contract CanvasCollection","name":"","type":"address"}],"stateMutability":"view","type":"function"},{"inputs":[{"internalType":"uint8[]","name":"xValues","type":"uint8[]"},{"internalType":"uint8[]","name":"yValues","type":"uint8[]"}],"name":"payRoyalties","outputs":[],"stateMutability":"nonpayable","type":"function"},{"inputs":[{"internalType":"uint256","name":"","type":"uint256"}],"name":"pixelSVGs","outputs":[{"internalType":"string","name":"","type":"string"}],"stateMutability":"view","type":"function"},{"inputs":[{"internalType":"uint256","name":"","type":"uint256"}],"name":"rowSVGs","outputs":[{"internalType":"string","name":"","type":"string"}],"stateMutability":"view","type":"function"},{"inputs":[],"name":"royaltyAskPeriod","outputs":[{"internalType":"uint256","name":"","type":"uint256"}],"stateMutability":"view","type":"function"},{"inputs":[],"name":"royaltyDenominator","outputs":[{"internalType":"uint256","name":"","type":"uint256"}],"stateMutability":"view","type":"function"},{"inputs":[],"name":"royaltyRate","outputs":[{"internalType":"uint8","name":"","type":"uint8"}],"stateMutability":"view","type":"function"},{"inputs":[{"internalType":"uint8","name":"x","type":"uint8"},{"internalType":"uint8","name":"y","type":"uint8"},{"internalType":"uint256","name":"_price","type":"uint256"}],"name":"seekRoyaltyPayment","outputs":[],"stateMutability":"nonpayable","type":"function"},{"inputs":[{"internalType":"address","name":"_nftContract","type":"address"}],"name":"setNFTContract","outputs":[],"stateMutability":"nonpayable","type":"function"},{"inputs":[{"internalType":"uint8[]","name":"xValues","type":"uint8[]"},{"internalType":"uint8[]","name":"yValues","type":"uint8[]"},{"internalType":"uint256[]","name":"priceValues","type":"uint256[]"}],"name":"setPixelValue","outputs":[],"stateMutability":"nonpayable","type":"function"},{"inputs":[{"internalType":"address","name":"_newToken","type":"address"}],"name":"updateCurrency","outputs":[],"stateMutability":"nonpayable","type":"function"},{"inputs":[{"internalType":"uint256","name":"","type":"uint256"}],"name":"voteRegister","outputs":[{"internalType":"uint16","name":"yesVotes","type":"uint16"},{"internalType":"uint16","name":"noVotes","type":"uint16"}],"stateMutability":"view","type":"function"},{"inputs":[{"internalType":"uint8","name":"","type":"uint8"},{"internalType":"uint8","name":"","type":"uint8"}],"name":"window","outputs":[{"internalType":"address","name":"owner","type":"address"},{"internalType":"uint8","name":"shapeID","type":"uint8"},{"internalType":"uint256","name":"price","type":"uint256"},{"internalType":"string","name":"color","type":"string"},{"internalType":"uint256","name":"royaltyLastPaid","type":"uint256"},{"internalType":"bool","name":"askedToPayRoyalties","type":"bool"},{"internalType":"uint256","name":"royaltyAskDate","type":"uint256"}],"stateMutability":"view","type":"function"}],"evm":{"bytecode":{"linkReferences":{},"object":"608080604052346100585760018054600380546001600160a01b03191673c02aaa39b223fe8d0a0e5c4f27ead9083c756cc21790556001600160a81b0319163317601960a11b1790554260025561371e908161005e8239f35b600080fdfe6080604052600436101561001257600080fd5b6000803560e01c806302d13f0214611fcd5780630734d14414611eba57806309eef43e14611e5b578063113bc99914611e3d57806330b5d6d314611e035780633123a62b14611de85780633323a706146117695780633bdb693e1461181b578063481c6a75146117f25780634882a7ea146117c15780635e027601146117735780636006ecc81461176e57806363aa5ce21461176e5780636e70fcc61461176957806370a08231146102e057806374d3e777146117345780637ace48e71461151957806384f6fb7f146112ba578063907e995914610fe5578063a7ccabdf14610f98578063ad711e9e14610e56578063aeeacbeb14610da4578063b1610d7e14610d86578063b3a1ddf414610d54578063bc5bc2fb14610cfd578063be26ed7f14610d28578063c4323fc114610cfd578063c4d1510d14610cd9578063c4e4b90c14610caa578063d56d229d14610c83578063d84cd45014610c41578063e124590014610bfa578063ec18fb5f14610326578063f8b2cb4f146102e0578063fd8d7ed3146102c3578063ff188dca146102a55763ff397c6a146101b457600080fd5b346102a257806003193601126102a257604051610800906001600160401b03908281018281118282101761027e57604052835b8381106102945750506040519182019081118282101761027e5760405261100582825b60408210610261575050506040519060209283830184845261082084019291945b604086106102395784840385f35b9091928180610254600193601f198982030187528751612266565b950193019501949061022b565b60016020819261027086612379565b81520193019101909161020a565b634e487b7160e01b600052604160045260246000fd5b6060828201526020016101e7565b80fd5b50346102a257806003193601126102a2576020600254604051908152f35b50346102a257806003193601126102a25760206040516103e88152f35b50346102a25760203660031901126102a2576004356001600160a01b038116908190036103225760408261ffff92602094526110458452205416604051908152f35b5080fd5b50346102a257610335366121fd565b61034282518251146125c9565b815191835b8360ff82161015610bf65761037b60ff61036381841685612446565b511660ff61037381851687612446565b511690612d43565b610bb85760ff61038d81831684612446565b5116855260046020526040852060ff6103a881841686612446565b51166000526020528460018060a01b036040600020541615600014610481575060018160ff6103da8180951686612446565b51168752600460205260408720836103f481841688612446565b5116600052602052604060002033838060a01b031982541617905533875261104560205260408720805461ffff61042c818316612b91565b169061ffff19161790555b8261044481831686612446565b51168361045381841688612446565b5116907f565d87b2ff22fa6d4f6132a14a4c53a75f6e1da460aaeacb6d0a5881840c35518980a30116610347565b906104ab60ff61049381841686612446565b511660ff6104a381851688612446565b511690612d75565b60ff6104b981841686612446565b5116835260046020526040832060ff6104d481851688612446565b511660005260205280600160406000200154116000146108c05760ff6104fc81841686612446565b5116835260046020526040832060ff61051781851688612446565b511660005260205261053181600160406000200154612bba565b9060018060a01b03600354166040516370a0823160e01b8152336004820152602081602481855afa908115610818578691610888575b506105ac9060ff61057a8188168a612446565b5116875260046020526040872060ff6105958189168c612446565b511660005260205260016040600020015410612acd565b604051636eb1769f60e11b8152336004820152306024820152602081604481855afa90811561081857869161084b575b506020916106266106839260ff6105f5818a168c612446565b51168952600485526040892060ff61060f8a82168e612446565b511660005285526001604060002001541115612b25565b60ff6106348188168a612446565b51168752600483526040872060ff61064e8189168c612446565b5116600052835260018060a01b0360406000205416946040519788809481936323b872dd60e01b998a84523360048501612641565b03925af1918215610840576106cc94602093610823575b50600354600154604051928352919586936001600160a01b039283169385938d93859390929091163360048501612641565b03925af19081156108185760ff926001926107e9575b50826106f081831686612446565b511687526004602052604087208361070a81841688612446565b5116600052602052818060a01b03604060002054168752611045806020526040882080549161ffff918261073f818616612b7d565b1661ffff19809516179055338a526020526040892091825491610763818416612b91565b1691161790558261077681831686612446565b511687526004602052604087208361079081841688612446565b5116600052602052604060002033838060a01b0319825416179055826107b881831686612446565b51168752600460205260408720836107d281841688612446565b511660005260205242600360406000200155610437565b61080a9060203d602011610811575b610802818361215d565b810190612629565b50386106e2565b503d6107f8565b6040513d88823e3d90fd5b61083990843d861161081157610802818361215d565b503861069a565b6040513d8a823e3d90fd5b9550506020853d602011610880575b816108676020938361215d565b8101031261087b57935188949060206105dc565b600080fd5b3d915061085a565b9550506020853d6020116108b8575b816108a46020938361215d565b8101031261087b576105ac89955190610567565b3d9150610897565b50600380546040516370a0823160e01b81523360048201526001600160a01b039091169350909190602081602481875afa8015610840578890610b84575b61092c915060ff61091181851688612446565b5116895260046020526040892060ff6105958186168a612446565b604051636eb1769f60e11b8152336004820152306024820152602081604481875afa908115610840578891610b50575b50610a0a936109a660209260ff6109758187168a612446565b51168b526004845260408b2060ff61098f8188168c612446565b511660005284526001604060002001541115612b25565b6001546001600160a01b03169060ff6109c185821689612446565b51168a526004835260408a2060ff6109db8187168b612446565b51166000528352600160406000200154918a6040518098819582946323b872dd60e01b84523360048501612641565b03925af1918215610b455760ff93600193610b26575b5083610a2e81841687612446565b5116885260046020526040882084610a4881851689612446565b5116600052602052828060a01b03604060002054168852611045806020526040892080549161ffff9182610a7d818616612b7d565b1661ffff19809516179055338b5260205260408a2091825491610aa1818416612b91565b16911617905583610ab481841687612446565b5116885260046020526040882084610ace81851689612446565b5116600052602052604060002033848060a01b031982541617905583610af681841687612446565b5116885260046020526040882084610b1081851689612446565b5116600052602052429060406000200155610437565b610b3e9060203d60201161081157610802818361215d565b5038610a20565b6040513d89823e3d90fd5b90506020813d602011610b7c575b81610b6b6020938361215d565b8101031261087b5751610a0a61095c565b3d9150610b5e565b506020813d602011610bb0575b81610b9e6020938361215d565b8101031261087b5761092c90516108fe565b3d9150610b91565b60405162461bcd60e51b8152602060048201526016602482015275706978656c206973206f7574206f6620626f756e647360501b6044820152606490fd5b8480f35b50346102a25760203660031901126102a2576004359060408210156102a257610c3d610c298361100501612379565b604051918291602083526020830190612266565b0390f35b50346102a25760403660031901126102a257610c3d610c6f610c61612107565b610c69612117565b90612c60565b60405191829160208352602083019061228b565b50346102a257806003193601126102a257546040516001600160a01b039091168152602090f35b50346102a25760203660031901126102a257600435906110008210156102a257610c3d610c2983600501612379565b50346102a257806003193601126102a257602060ff60015460a01c16604051908152f35b50346102a25760203660031901126102a2576040602091600435815261104783522054604051908152f35b50346102a257806003193601126102a257602062054600610d4b60025442612bba565b04604051908152f35b50346102a257806003193601126102a25760206203f48062054600610d7b60025442612bba565b061015604051908152f35b50346102a257806003193601126102a2576020604051620151808152f35b50346102a25760403660031901126102a25760ff6040610dc2612107565b9282610dcc612117565b94168152600460205220911660005260205260ff60406000208054906001810154610df960028301612379565b91610e406003820154936005876004850154169301549360405197889760018060a01b038116895260a01c166020880152604087015260e0606087015260e0860190612266565b926080850152151560a084015260c08301520390f35b50346102a257806003193601126102a257604051608081018181106001600160401b0382111761027e57604052605781526020907f3c7376672077696474683d2236303022206865696768743d2236303022207669828201527f6577426f783d2230203020363030203630302220786d6c6e733d22687474703a6040820152761797bbbbbb973b999737b933979918181817b9bb33911f60491b6060820152915b60408110610f4e5750610f3a602660405184610f1c8296518092878086019101612243565b8101651e17b9bb339f60d11b8582015203600681018552018361215d565b610c3d604051928284938452830190612266565b9181610f8d610f9392610f7f6040519382610f728694518092848088019101612243565b8301018761100501613577565b03601f19810183528261215d565b92613568565b610ef7565b50346102a25760203660031901126102a2576004356001600160a01b0381811691829003610fe157610fcf90600154163314612bc7565b81546001600160a01b03191617815580f35b8280fd5b50346102a25760603660031901126102a2576001600160401b039060043582811161032257611018903690600401612195565b9060248035848111610fe157611032903690600401612195565b9060449182359586116112b657366023870112156112b6578560040135936110598561217e565b96611067604051988961215d565b85885260209584878a019160051b830101913683116112b65785889101915b8383106112a65750505050855182518114908161129b575b501561124857855190805b60ff908181168481101561119d576110d2836110c5838d612446565b511684610373848a612446565b61115f57826110e1828c612446565b5116845260048952826110f8604086209288612446565b511660005288523360018060a01b03604060002054160361111c57600101166110a9565b60405162461bcd60e51b815260048101899052601e818801527f6f6e6c79206f776e65722063616e2073657420706978656c2076616c7565000081890152606490fd5b60405162461bcd60e51b8152600481018a9052601881890152774120706978656c206973206f7574206f6620626f756e647360401b818a0152606490fd5b8a898b8689896111ad8285612663565b825b60ff908181169083821015611244576111c8828a612446565b5191836111d5828a612446565b511687526004895260408720846111ec8389612446565b511660005289526001928360406000200155836112168161120d848c612446565b51169288612446565b5116907fb443b1e1f00b07b56c8517c490e3204884a2890c21f2adca9190e395e20bef6e8880a301166111af565b8580f35b60405162461bcd60e51b8152600481018690526027818501527f696e70757420617272617973206d757374206265206f66207468652073616d658186015266040d8cadccee8d60cb1b6064820152608490fd5b90508751143861109e565b8235815291810191889101611086565b8380fd5b50346102a2576020806003193601126103225760043563ffffffff8116809103610fe157620546006112ee60025442612bba565b048110156114b557808352611046808352604084205461131961ffff9182808260101c169116612ba4565b91818316156114805790617fff9184875285526040862054169160011c1610611340578280f35b82546001546001600160a01b03929185918416908416803b15610fe1576024839260405194859384926335313c2160e11b845260048401525af1801561147557611445575b506004917ffefd1234777b4b4bdb59a31f840cf2f33cdb8f57ed79f3a9d4f47d699fee7695848093604051908152a1845416604051928380926318160ddd60e01b82525afa90811561143a57839161140d575b5060001981019081116113f957906110479183525242604082205538808280f35b634e487b7160e01b83526011600452602483fd5b90508181813d8311611433575b611424818361215d565b8101031261087b5751386113d8565b503d61141a565b6040513d85823e3d90fd5b6001600160401b03819592951161146157604052926004611385565b634e487b7160e01b82526041600452602482fd5b6040513d87823e3d90fd5b60405162461bcd60e51b815260048101869052600d60248201526c139bc81d9bdd195cc818d85cdd609a1b6044820152606490fd5b60405162461bcd60e51b815260048101839052603660248201527f636865636b20766f7465206f7574636f6d6573206f6e6c7920706f737369626c6044820152756520666f7220636f6e636c75646564206379636c657360501b6064820152608490fd5b50346102a257602080600319360112610322576004358015158103610fe15760025462054600906203f4808261154f8342612bba565b06106116f357338552611045845261ffff8060408720541691821561169e57836115798242612bba565b0487526110469485875260016040892001338952875260ff604089205416611669578491901561162b57506115b360029392935442612bba565b04865283855260408620916115cc835492828416612ba4565b169061ffff19161790555b6115e360025442612bba565b048352815260016040832001903383525260408120600160ff19825416179055337f7ce969a18bb6b0fba42c6d9746e7d08eeca4c661809659c91d276456e3153ac08280a280f35b6116359042612bba565b04865283855263ffff000061165560408820938454938460101c16612ba4565b60101b169063ffff000019161790556115d7565b60405162461bcd60e51b815260048101889052600d60248201526c185b1c9958591e481d9bdd1959609a1b6044820152606490fd5b60405162461bcd60e51b815260048101879052602760248201527f6e6f20706978656c73206f776e6564203d206e6f20766f74657320746f2062656044820152660818d85cdd195960ca1b6064820152608490fd5b60405162461bcd60e51b81526004810185905260196024820152782b37ba34b7339031bab93932b73a363c903737ba1037b832b760391b6044820152606490fd5b50346102a25760403660031901126102a2576020611761611753612107565b61175b612117565b90612d75565b604051908152f35b6122ea565b612323565b50346102a25760203660031901126102a2576004356001600160a01b0381811691829003610fe1576117aa90600154163314612bc7565b600380546001600160a01b03191691909117905580f35b50346102a257806003193601126102a25760206203f480620546006117e860025442612bba565b0610604051908152f35b50346102a257806003193601126102a2576001546040516001600160a01b039091168152602090f35b50346102a25760203660031901126102a2576004356001600160401b0381116103225736602382011215610322578060040135906118588261217e565b91611866604051938461215d565b8083526024602084019160051b83010191368311611de45760248101915b838310611d795785856203f480620546006118a160025442612bba565b061015611d295780516040519061082082018281106001600160401b03821117611d155760405260408252610800366020840137835b60ff811682811015611c10576118ed9085612446565b51805181019080602083019260809182910312611c0c5761191060208301612470565b9261191d60408401612470565b9261192a60608201612470565b92810151906001600160401b038211611c04570181603f82011215611c0857602081015161195781612308565b92611965604051948561215d565b81845260408284010111611c0457611984916040602085019101612243565b61198e8385612d43565b610bb857600a60ff83161015611bc65760ff8416895260046020526040892060ff84168a5260205260ff600460408b20015416611b695760ff8416895260046020526040892060ff84168a526020523360018060a01b0360408b20541614611a03575b505050506119fe9061241f565b6118d7565b611a2b9060ff85168a52600460205260408a2060ff85168b52602052600260408b200161247e565b60ff8316885260046020526040882060ff83168952602052604088209081549060ff60a01b9060a01b169060ff60a01b191617905560ff611a6b8261258d565b1660ff83160160ff8111611b555760ff1660ff8316885260046020526040882060ff83168952602052611ae160ff60408a205460a01c1689611aac866125a2565b611adb60026040611abc896125a2565b9460ff8b168152600460205281812060ff8b1682526020522001612379565b92612de1565b90611000811015611b41576119fe949392611b0260ff93849360050161247e565b6001611b108383168a612446565b521691167f99111963d0c1a319f038ec181c2ca7254b2eed4a32fd20bf8e0ed407bac8b92b8880a3908680806119f1565b634e487b7160e01b89526032600452602489fd5b634e487b7160e01b88526011600452602488fd5b60405162461bcd60e51b815260206004820152602f60248201527f6f776e6572207761732061736b656420746f20666972737420736574746c652060448201526e1c9bde585b1d1e481c185e5b595b9d608a1b6064820152608490fd5b60405162461bcd60e51b81526020600482015260166024820152757368617065204944206e6f7420617661696c61626c6560501b6044820152606490fd5b8a80fd5b8980fd5b8780fd5b8386805b60ff908181166040811015611d1157611c2d9085612446565b51611c3c575b60010116611c14565b604051611c4881612142565b83815282611c558361258d565b16806040019061ffff90818311611cfd5791165b808210611ca75750506040821015611c935790611c8c600192826110050161247e565b9050611c33565b634e487b7160e01b84526032600452602484fd5b9091611000831015611ce9576020610f8d611ce392610f7f6040519382611cd78694518092848088019101612243565b83010187600501613577565b90611c69565b634e487b7160e01b86526032600452602486fd5b634e487b7160e01b87526011600452602487fd5b8380f35b634e487b7160e01b85526041600452602485fd5b60405162461bcd60e51b815260206004820152602260248201527f417274697374696320706572696f642063757272656e746c79206e6f74206f7060448201526132b760f11b6064820152608490fd5b82356001600160401b038111611de057820136604382011215611de057602481013591611da583612308565b611db2604051918261215d565b8381528860443681878701011161032257856020968796928793018386013783010152815201920191611884565b8680fd5b8480fd5b50346102a257611e00611dfa366121fd565b90612663565b80f35b50346102a25760203660031901126102a257604080916004358152611046602052205481519061ffff90818116835260101c166020820152f35b50346102a257806003193601126102a2576020604051620546008152f35b50346102a25760203660031901126102a2576004356001600160a01b0381169081900361032257604060209260ff9262054600611e9a60025442612bba565b048252611046855260018383200190825284522054166040519015158152f35b50346102a257611ec9366121fd565b611ed682518251146125c9565b815190611ee28261217e565b92611ef0604051948561215d565b828452601f19611eff8461217e565b01855b818110611fb6575050845b838110611f725760408051602080825287518183018190528993600582901b8401810192808b01929185015b828710611f465785850386f35b909192938280611f62600193603f198a8203018652885161228b565b9601920196019592919092611f39565b600190611f9a60ff80611f858487612446565b511690611f928488612446565b511690612c60565b611fa48288612446565b52611faf8187612446565b5001611f0d565b602090611fc1612c28565b82828901015201611f02565b50346102a25760603660031901126102a257611fe7612107565b60ff611ff1612117565b9161200760018060a01b03600154163314612bc7565b168083526020906004825260ff60408520931692838552825260ff600460408620015416806120c6575b1561208a57808452600482526040842083855282526044356001604086200155808452600482526040842083855282526004604085200160ff198154169055835260048152604083209183525280600560408220015580f35b8084526004825260408420838552825260046040852001600160ff19825416179055835260048152604083209183525242600560408320015580f35b508084526004825260408420838552825260056040852001546203f48081018091116120f3574211612031565b634e487b7160e01b85526011600452602485fd5b6004359060ff8216820361087b57565b6024359060ff8216820361087b57565b60e081019081106001600160401b0382111761027e57604052565b602081019081106001600160401b0382111761027e57604052565b90601f801991011681019081106001600160401b0382111761027e57604052565b6001600160401b03811161027e5760051b60200190565b81601f8201121561087b578035916121ac8361217e565b926121ba604051948561215d565b808452602092838086019260051b82010192831161087b578301905b8282106121e4575050505090565b813560ff8116810361087b5781529083019083016121d6565b90604060031983011261087b576001600160401b0360043581811161087b578361222991600401612195565b9260243591821161087b5761224091600401612195565b90565b60005b8381106122565750506000910152565b8181015183820152602001612246565b9060209161227f81518092818552858086019101612243565b601f01601f1916010190565b9060018060a01b03825116815260ff60208301511660208201526040820151604082015260c0806122cb606085015160e0606086015260e0850190612266565b936080810151608085015260a0810151151560a0850152015191015290565b3461087b57600036600319011261087b5760206040516203f4808152f35b6001600160401b03811161027e57601f01601f191660200190565b3461087b57600036600319011261087b57602060405160408152f35b90600182811c9216801561236f575b602083101461235957565b634e487b7160e01b600052602260045260246000fd5b91607f169161234e565b906040519182600082549261238d8461233f565b9081845260019485811690816000146123fc57506001146123b9575b50506123b79250038361215d565b565b9093915060005260209081600020936000915b8183106123e45750506123b7935082010138806123a9565b855488840185015294850194879450918301916123cc565b9150506123b794506020925060ff191682840152151560051b82010138806123a9565b60ff1660ff81146124305760010190565b634e487b7160e01b600052601160045260246000fd5b805182101561245a5760209160051b010190565b634e487b7160e01b600052603260045260246000fd5b519060ff8216820361087b57565b91909182516001600160401b03811161027e5761249b825461233f565b601f8111612545575b50602080601f83116001146124e15750819293946000926124d6575b50508160011b916000199060031b1c1916179055565b0151905038806124c0565b90601f198316958460005282600020926000905b88821061252d57505083600195969710612514575b505050811b019055565b015160001960f88460031b161c1916905538808061250a565b806001859682949686015181550195019301906124f5565b600083815260208120601f840160051c81019260208510612583575b601f0160051c01915b8281106125785750506124a4565b81815560010161256a565b9092508290612561565b60061b90613fc060c083169216820361243057565b60ff60099116029060ff821691820361243057565b60ff60049116019060ff821161243057565b156125d057565b60405162461bcd60e51b815260206004820152602b60248201527f7820616e64207920696e7075742061727261797320617265206f66207661726960448201526a6f7573206c656e6774687360a81b6064820152608490fd5b9081602091031261087b5751801515810361087b5790565b6001600160a01b03918216815291166020820152604081019190915260600190565b919061267283518251146125c9565b82519160005b60ff8082169085821015612ac4576126a181612694848a612446565b5116826103738589612446565b610bb857806126b08389612446565b51166000526004602081815260409182600020846126ce878b612446565b5116600052825260018060a01b03338185600020541603612a7757846126f4878d612446565b5116600052818352836000208561270b888c612446565b51166000528352600390898c42848860002001540361273c575b5050505050505050506127379061241f565b612678565b90876104a38a826127508261275897612446565b511693612446565b90808354169086516370a0823160e01b8152338682015260249087818381875afa9081156129eb57908591600091612a47575b50106129f6578751636eb1769f60e11b8152338782019081523060208201528890829081906040010381875afa9081156129eb579085916000916129bb575b501061296a57509185916127f99360015416600089518096819582946323b872dd60e01b8452338c8501612641565b03925af1801561295f579287969592612737999895928e95612942575b50866128228787612446565b51166000528183528b8761283a888760002093612446565b511660005283524290846000200155856128548686612446565b51166000528082528a8661286c878660002093612446565b51166000528252858b8183866000200154166128d6575b5093905061289792506128a0949150612446565b51169287612446565b5116907f86d6cb594aa6246461b8ce6b17fbd44c5f0e7ab32645d9035da6fed5ba78eb1b600080a390388080808080898c612725565b868661291892846128eb60009b60059b612446565b51168a5285875284612900848a8d2093612446565b51168a5286528689208501805460ff19169055612446565b511685528152818420908561292d888d612446565b5116855252822001558188388080858b612883565b61295890843d861161081157610802818361215d565b5038612816565b85513d6000823e3d90fd5b856027608492898b519362461bcd60e51b85528401528201527f696e73756666696369656e7420616c6c6f77616e636520746f2070617920726f60448201526679616c7469657360c81b6064820152fd5b91508882813d83116129e4575b6129d2818361215d565b810103126102a25750849051386127ca565b503d6129c8565b89513d6000823e3d90fd5b856027608492898b519362461bcd60e51b85528401528201527f6e6f742073756666696369656e742062616c616e636520746f2070617920726f60448201526679616c7469657360c81b6064820152fd5b91508882813d8311612a70575b612a5e818361215d565b810103126102a257508490513861278b565b503d612a54565b50915162461bcd60e51b815291820152602260248201527f6f6e6c7920706978656c206f776e65722063616e2070617920726f79616c7469604482015261657360f01b6064820152608490fd5b50505092505050565b15612ad457565b60405162461bcd60e51b815260206004820152602360248201527f6e6f742073756666696369656e742062616c616e636520746f206275792070696044820152621e195b60ea1b6064820152608490fd5b15612b2c57565b60405162461bcd60e51b815260206004820152602360248201527f696e73756666696369656e7420616c6c6f77616e636520746f206275792070696044820152621e195b60ea1b6064820152608490fd5b61ffff908116600019019190821161243057565b90600161ffff8093160191821161243057565b91909161ffff8080941691160191821161243057565b9190820391821161243057565b15612bce57565b60405162461bcd60e51b815260206004820152602c60248201527f6f776e65722063757272656e74206d616e616765722063616e2063616c6c207460448201526b3434b990333ab731ba34b7b760a11b6064820152608490fd5b60405190612c3582612127565b8160c06000918281528260208201528260408201526060808201528260808201528260a08201520152565b60ff90612c6b612c28565b50169060409182811080612d37575b15612cfd57600052600460205260ff826000209116600052602052600581600020825192612ca784612127565b81546001600160a01b038116855260a01c60ff166020850152600182015490840152612cd560028201612379565b60608401526003810154608084015260ff600482015416151560a0840152015460c082015290565b825162461bcd60e51b8152602060048201526013602482015272706978656c206f7574206f6620626f756e647360681b6044820152606490fd5b508260ff831610612c7a565b60ff604091161090811591612d56575090565b6040915060ff16101590565b8181029291811591840414171561243057565b612dce64073df16000926001604060ff612ddd951692600090848252600460205260ff838320911690818352602052612db46003848420015442612bba565b948252600460205282822090825260205220015490612d62565b60ff60015460a01c1690612d62565b0490565b92909160ff8094169283156134a257600184146133dd57600284146133ac57600384146133495784906004948581146132de576005811461317e576006811461312957600781146130d45760088114612fef57600991925014612e56575050505050604051612e4f81612142565b6000815290565b841693612e62856135fa565b9116612e6d816135fa565b60088601808711612fda57612e81906135fa565b9460088301809311612fc5575091612fa9826122409694612eb6612eb0612eaa604999976135fa565b9a6135fa565b926135fa565b91604051998a97602a612ee68a602099693c7061746820643d224d60b01b8b8301528a8151948593019101612243565b890193600160fd1b9485602a820152612f08825180938b602b85019101612243565b016b010209c101c101810181018960a51b602b820152612f31825180938a603785019101612243565b01836037820152612f4b8251809389603885019101612243565b0161081360f21b6038820152612f6a8251809388603a85019101612243565b0190603a820152612f848251809386603b85019101612243565b019169102d11103334b6361e9160b11b603b8401528351938491604585019101612243565b01631110179f60e11b604582015203602981018452018261215d565b601190634e487b7160e01b6000525260246000fd5b601186634e487b7160e01b6000525260246000fd5b501660088101948582116130bf57613006866135fa565b92169061301b613015836135fa565b916135fa565b9460088301809311612fc5575091612fa9826122409694613044612eb0612eaa604999976135fa565b91604051998a97602a6130748a602099693c7061746820643d224d60b01b8b8301528a8151948593019101612243565b890193600160fd1b9485602a820152613096825180938b602b85019101612243565b016b010209c101c101810181018160a51b602b820152612f31825180938a603785019101612243565b601185634e487b7160e01b6000525260246000fd5b5016936130e0856135fa565b91166130eb816135fa565b600886018096116130bf576130ff866135fa565b946008830190818411612fc5575060499492612240969492613044612eb0612eaa612fa9956135fa565b501693613135856135fa565b9116600881018082116130bf5761314b906135fa565b936008860190818711612fc5575091612fa96049949261316e61224097956135fa565b94613044612eb0612eaa846135fa565b50169361318a856135fa565b91169360088501908186116130bf576131a2826135fa565b906131b56131af826135fa565b976135fa565b9560088201809211612fc55750603f94926122409694926131db612eb06132c2946135fa565b91604051998a97602a61320b8a602099693c7061746820643d224d60b01b8b8301528a8151948593019101612243565b890193600160fd1b9485602a82015261322d825180938b602b85019101612243565b019161081360f21b9283602b82015261324f825180938b602d85019101612243565b0184602d820152613269825180938a602e85019101612243565b0190602e8201526132838251809388603085019101612243565b0190603082015261329d8251809386603185019101612243565b019169103d11103334b6361e9160b11b60318401528351938491603b85019101612243565b01631110179f60e11b603b82015203601f81018452018261215d565b5016926008840194858511613334576132f6866135fa565b9216946008860191828711612fc55750916132c28261224096946131db612eb06131af61332e613328603f9b996135fa565b946135fa565b9b6135fa565b601182634e487b7160e01b6000525260246000fd5b90939081169250613359836135fa565b931691613365836135fa565b91600882018092116124305761337a826135fa565b9461338d613387866135fa565b936135fa565b94600881018091116124305761224095603f956131db6132c2936135fa565b909390811692506133bc836135fa565b9316916133c8836135fa565b91600882018083116124305761337a906135fa565b6122409350846133f96133ff604495976133f9613405956125b7565b166135fa565b936125b7565b936040519485926b1e31b4b931b6329031bc1e9160a11b6020850152613435815180926020602c88019101612243565b830165111031bc9e9160d11b602c82015261345a825180936020603285019101612243565b016d1110391e911a11103334b6361e9160911b6032820152613486825180936020604085019101612243565b01631110179f60e11b604082015203602481018452018261215d565b6122409350846134b9604f94966134c093166135fa565b92166135fa565b93604051948592681e3932b1ba103c1e9160b91b60208501526134ed815180926020602988019101612243565b83016411103c9e9160d91b6029820152613511825180936020602e85019101612243565b017f222077696474683d223822206865696768743d2238222066696c6c3d22000000602e82015261354c825180936020604b85019101612243565b01631110179f60e11b604b82015203602f81018452018261215d565b60001981146124305760010190565b6000929181546135868161233f565b926001918083169081156135df57506001146135a3575b50505050565b90919293945060005260209081600020906000915b8583106135ce575050505001903880808061359d565b8054858401529183019181016135b8565b60ff191684525050508115159091020191503880808061359d565b80156136ba5780816000925b6136a657508061361583612308565b92613623604051948561215d565b808452601f1961363282612308565b01366020860137915b61364457505090565b6000198201918083116124305782600a90818404938285029285840414851517156124305761367660ff938492612bba565b16603001918211612430578551111561245a5760f81b6001600160f81b03191660001a908401601f01538061363b565b916136b2600a91613568565b920480613606565b50604051604081018181106001600160401b0382111761027e5760405260018152600360fc1b60208201529056fea26469706673582212208cc374f249cf296fd3a20fcbebb5c41d50d3d2f2ef17ec986539e438103eb3e664736f6c63430008140033","opcodes":"PUSH1 0x80 DUP1 PUSH1 0x40 MSTORE CALLVALUE PUSH2 0x58 JUMPI PUSH1 0x1 DUP1 SLOAD PUSH1 0x3 DUP1 SLOAD PUSH1 0x1 PUSH1 0x1 PUSH1 0xA0 SHL SUB NOT AND PUSH20 0xC02AAA39B223FE8D0A0E5C4F27EAD9083C756CC2 OR SWAP1 SSTORE PUSH1 0x1 PUSH1 0x1 PUSH1 0xA8 SHL SUB NOT AND CALLER OR PUSH1 0x19 PUSH1 0xA1 SHL OR SWAP1 SSTORE TIMESTAMP PUSH1 0x2 SSTORE PUSH2 0x371E SWAP1 DUP2 PUSH2 0x5E DUP3 CODECOPY RETURN JUMPDEST PUSH1 0x0 DUP1 REVERT INVALID PUSH1 0x80 PUSH1 0x40 MSTORE PUSH1 0x4 CALLDATASIZE LT ISZERO PUSH2 0x12 JUMPI PUSH1 0x0 DUP1 REVERT JUMPDEST PUSH1 0x0 DUP1 CALLDATALOAD PUSH1 0xE0 SHR DUP1 PUSH4 0x2D13F02 EQ PUSH2 0x1FCD JUMPI DUP1 PUSH4 0x734D144 EQ PUSH2 0x1EBA JUMPI DUP1 PUSH4 0x9EEF43E EQ PUSH2 0x1E5B JUMPI DUP1 PUSH4 0x113BC999 EQ PUSH2 0x1E3D JUMPI DUP1 PUSH4 0x30B5D6D3 EQ PUSH2 0x1E03 JUMPI DUP1 PUSH4 0x3123A62B EQ PUSH2 0x1DE8 JUMPI DUP1 PUSH4 0x3323A706 EQ PUSH2 0x1769 JUMPI DUP1 PUSH4 0x3BDB693E EQ PUSH2 0x181B JUMPI DUP1 PUSH4 0x481C6A75 EQ PUSH2 0x17F2 JUMPI DUP1 PUSH4 0x4882A7EA EQ PUSH2 0x17C1 JUMPI DUP1 PUSH4 0x5E027601 EQ PUSH2 0x1773 JUMPI DUP1 PUSH4 0x6006ECC8 EQ PUSH2 0x176E JUMPI DUP1 PUSH4 0x63AA5CE2 EQ PUSH2 0x176E JUMPI DUP1 PUSH4 0x6E70FCC6 EQ PUSH2 0x1769 JUMPI DUP1 PUSH4 0x70A08231 EQ PUSH2 0x2E0 JUMPI DUP1 PUSH4 0x74D3E777 EQ PUSH2 0x1734 JUMPI DUP1 PUSH4 0x7ACE48E7 EQ PUSH2 0x1519 JUMPI DUP1 PUSH4 0x84F6FB7F EQ PUSH2 0x12BA JUMPI DUP1 PUSH4 0x907E9959 EQ PUSH2 0xFE5 JUMPI DUP1 PUSH4 0xA7CCABDF EQ PUSH2 0xF98 JUMPI DUP1 PUSH4 0xAD711E9E EQ PUSH2 0xE56 JUMPI DUP1 PUSH4 0xAEEACBEB EQ PUSH2 0xDA4 JUMPI DUP1 PUSH4 0xB1610D7E EQ PUSH2 0xD86 JUMPI DUP1 PUSH4 0xB3A1DDF4 EQ PUSH2 0xD54 JUMPI DUP1 PUSH4 0xBC5BC2FB EQ PUSH2 0xCFD JUMPI DUP1 PUSH4 0xBE26ED7F EQ PUSH2 0xD28 JUMPI DUP1 PUSH4 0xC4323FC1 EQ PUSH2 0xCFD JUMPI DUP1 PUSH4 0xC4D1510D EQ PUSH2 0xCD9 JUMPI DUP1 PUSH4 0xC4E4B90C EQ PUSH2 0xCAA JUMPI DUP1 PUSH4 0xD56D229D EQ PUSH2 0xC83 JUMPI DUP1 PUSH4 0xD84CD450 EQ PUSH2 0xC41 JUMPI DUP1 PUSH4 0xE1245900 EQ PUSH2 0xBFA JUMPI DUP1 PUSH4 0xEC18FB5F EQ PUSH2 0x326 JUMPI DUP1 PUSH4 0xF8B2CB4F EQ PUSH2 0x2E0 JUMPI DUP1 PUSH4 0xFD8D7ED3 EQ PUSH2 0x2C3 JUMPI DUP1 PUSH4 0xFF188DCA EQ PUSH2 0x2A5 JUMPI PUSH4 0xFF397C6A EQ PUSH2 0x1B4 JUMPI PUSH1 0x0 DUP1 REVERT JUMPDEST CALLVALUE PUSH2 0x2A2 JUMPI DUP1 PUSH1 0x3 NOT CALLDATASIZE ADD SLT PUSH2 0x2A2 JUMPI PUSH1 0x40 MLOAD PUSH2 0x800 SWAP1 PUSH1 0x1 PUSH1 0x1 PUSH1 0x40 SHL SUB SWAP1 DUP3 DUP2 ADD DUP3 DUP2 GT DUP3 DUP3 LT OR PUSH2 0x27E JUMPI PUSH1 0x40 MSTORE DUP4 JUMPDEST DUP4 DUP2 LT PUSH2 0x294 JUMPI POP POP PUSH1 0x40 MLOAD SWAP2 DUP3 ADD SWAP1 DUP2 GT DUP3 DUP3 LT OR PUSH2 0x27E JUMPI PUSH1 0x40 MSTORE PUSH2 0x1005 DUP3 DUP3 JUMPDEST PUSH1 0x40 DUP3 LT PUSH2 0x261 JUMPI POP POP POP PUSH1 0x40 MLOAD SWAP1 PUSH1 0x20 SWAP3 DUP4 DUP4 ADD DUP5 DUP5 MSTORE PUSH2 0x820 DUP5 ADD SWAP3 SWAP2 SWAP5 JUMPDEST PUSH1 0x40 DUP7 LT PUSH2 0x239 JUMPI DUP5 DUP5 SUB DUP6 RETURN JUMPDEST SWAP1 SWAP2 SWAP3 DUP2 DUP1 PUSH2 0x254 PUSH1 0x1 SWAP4 PUSH1 0x1F NOT DUP10 DUP3 SUB ADD DUP8 MSTORE DUP8 MLOAD PUSH2 0x2266 JUMP JUMPDEST SWAP6 ADD SWAP4 ADD SWAP6 ADD SWAP5 SWAP1 PUSH2 0x22B JUMP JUMPDEST PUSH1 0x1 PUSH1 0x20 DUP2 SWAP3 PUSH2 0x270 DUP7 PUSH2 0x2379 JUMP JUMPDEST DUP2 MSTORE ADD SWAP4 ADD SWAP2 ADD SWAP1 SWAP2 PUSH2 0x20A JUMP JUMPDEST PUSH4 0x4E487B71 PUSH1 0xE0 SHL PUSH1 0x0 MSTORE PUSH1 0x41 PUSH1 0x4 MSTORE PUSH1 0x24 PUSH1 0x0 REVERT JUMPDEST PUSH1 0x60 DUP3 DUP3 ADD MSTORE PUSH1 0x20 ADD PUSH2 0x1E7 JUMP JUMPDEST DUP1 REVERT JUMPDEST POP CALLVALUE PUSH2 0x2A2 JUMPI DUP1 PUSH1 0x3 NOT CALLDATASIZE ADD SLT PUSH2 0x2A2 JUMPI PUSH1 0x20 PUSH1 0x2 SLOAD PUSH1 0x40 MLOAD SWAP1 DUP2 MSTORE RETURN JUMPDEST POP CALLVALUE PUSH2 0x2A2 JUMPI DUP1 PUSH1 0x3 NOT CALLDATASIZE ADD SLT PUSH2 0x2A2 JUMPI PUSH1 0x20 PUSH1 0x40 MLOAD PUSH2 0x3E8 DUP2 MSTORE RETURN JUMPDEST POP CALLVALUE PUSH2 0x2A2 JUMPI PUSH1 0x20 CALLDATASIZE PUSH1 0x3 NOT ADD SLT PUSH2 0x2A2 JUMPI PUSH1 0x4 CALLDATALOAD PUSH1 0x1 PUSH1 0x1 PUSH1 0xA0 SHL SUB DUP2 AND SWAP1 DUP2 SWAP1 SUB PUSH2 0x322 JUMPI PUSH1 0x40 DUP3 PUSH2 0xFFFF SWAP3 PUSH1 0x20 SWAP5 MSTORE PUSH2 0x1045 DUP5 MSTORE KECCAK256 SLOAD AND PUSH1 0x40 MLOAD SWAP1 DUP2 MSTORE RETURN JUMPDEST POP DUP1 REVERT JUMPDEST POP CALLVALUE PUSH2 0x2A2 JUMPI PUSH2 0x335 CALLDATASIZE PUSH2 0x21FD JUMP JUMPDEST PUSH2 0x342 DUP3 MLOAD DUP3 MLOAD EQ PUSH2 0x25C9 JUMP JUMPDEST DUP2 MLOAD SWAP2 DUP4 JUMPDEST DUP4 PUSH1 0xFF DUP3 AND LT ISZERO PUSH2 0xBF6 JUMPI PUSH2 0x37B PUSH1 0xFF PUSH2 0x363 DUP2 DUP5 AND DUP6 PUSH2 0x2446 JUMP JUMPDEST MLOAD AND PUSH1 0xFF PUSH2 0x373 DUP2 DUP6 AND DUP8 PUSH2 0x2446 JUMP JUMPDEST MLOAD AND SWAP1 PUSH2 0x2D43 JUMP JUMPDEST PUSH2 0xBB8 JUMPI PUSH1 0xFF PUSH2 0x38D DUP2 DUP4 AND DUP5 PUSH2 0x2446 JUMP JUMPDEST MLOAD AND DUP6 MSTORE PUSH1 0x4 PUSH1 0x20 MSTORE PUSH1 0x40 DUP6 KECCAK256 PUSH1 0xFF PUSH2 0x3A8 DUP2 DUP5 AND DUP7 PUSH2 0x2446 JUMP JUMPDEST MLOAD AND PUSH1 0x0 MSTORE PUSH1 0x20 MSTORE DUP5 PUSH1 0x1 DUP1 PUSH1 0xA0 SHL SUB PUSH1 0x40 PUSH1 0x0 KECCAK256 SLOAD AND ISZERO PUSH1 0x0 EQ PUSH2 0x481 JUMPI POP PUSH1 0x1 DUP2 PUSH1 0xFF PUSH2 0x3DA DUP2 DUP1 SWAP6 AND DUP7 PUSH2 0x2446 JUMP JUMPDEST MLOAD AND DUP8 MSTORE PUSH1 0x4 PUSH1 0x20 MSTORE PUSH1 0x40 DUP8 KECCAK256 DUP4 PUSH2 0x3F4 DUP2 DUP5 AND DUP9 PUSH2 0x2446 JUMP JUMPDEST MLOAD AND PUSH1 0x0 MSTORE PUSH1 0x20 MSTORE PUSH1 0x40 PUSH1 0x0 KECCAK256 CALLER DUP4 DUP1 PUSH1 0xA0 SHL SUB NOT DUP3 SLOAD AND OR SWAP1 SSTORE CALLER DUP8 MSTORE PUSH2 0x1045 PUSH1 0x20 MSTORE PUSH1 0x40 DUP8 KECCAK256 DUP1 SLOAD PUSH2 0xFFFF PUSH2 0x42C DUP2 DUP4 AND PUSH2 0x2B91 JUMP JUMPDEST AND SWAP1 PUSH2 0xFFFF NOT AND OR SWAP1 SSTORE JUMPDEST DUP3 PUSH2 0x444 DUP2 DUP4 AND DUP7 PUSH2 0x2446 JUMP JUMPDEST MLOAD AND DUP4 PUSH2 0x453 DUP2 DUP5 AND DUP9 PUSH2 0x2446 JUMP JUMPDEST MLOAD AND SWAP1 PUSH32 0x565D87B2FF22FA6D4F6132A14A4C53A75F6E1DA460AAEACB6D0A5881840C3551 DUP10 DUP1 LOG3 ADD AND PUSH2 0x347 JUMP JUMPDEST SWAP1 PUSH2 0x4AB PUSH1 0xFF PUSH2 0x493 DUP2 DUP5 AND DUP7 PUSH2 0x2446 JUMP JUMPDEST MLOAD AND PUSH1 0xFF PUSH2 0x4A3 DUP2 DUP6 AND DUP9 PUSH2 0x2446 JUMP JUMPDEST MLOAD AND SWAP1 PUSH2 0x2D75 JUMP JUMPDEST PUSH1 0xFF PUSH2 0x4B9 DUP2 DUP5 AND DUP7 PUSH2 0x2446 JUMP JUMPDEST MLOAD AND DUP4 MSTORE PUSH1 0x4 PUSH1 0x20 MSTORE PUSH1 0x40 DUP4 KECCAK256 PUSH1 0xFF PUSH2 0x4D4 DUP2 DUP6 AND DUP9 PUSH2 0x2446 JUMP JUMPDEST MLOAD AND PUSH1 0x0 MSTORE PUSH1 0x20 MSTORE DUP1 PUSH1 0x1 PUSH1 0x40 PUSH1 0x0 KECCAK256 ADD SLOAD GT PUSH1 0x0 EQ PUSH2 0x8C0 JUMPI PUSH1 0xFF PUSH2 0x4FC DUP2 DUP5 AND DUP7 PUSH2 0x2446 JUMP JUMPDEST MLOAD AND DUP4 MSTORE PUSH1 0x4 PUSH1 0x20 MSTORE PUSH1 0x40 DUP4 KECCAK256 PUSH1 0xFF PUSH2 0x517 DUP2 DUP6 AND DUP9 PUSH2 0x2446 JUMP JUMPDEST MLOAD AND PUSH1 0x0 MSTORE PUSH1 0x20 MSTORE PUSH2 0x531 DUP2 PUSH1 0x1 PUSH1 0x40 PUSH1 0x0 KECCAK256 ADD SLOAD PUSH2 0x2BBA JUMP JUMPDEST SWAP1 PUSH1 0x1 DUP1 PUSH1 0xA0 SHL SUB PUSH1 0x3 SLOAD AND PUSH1 0x40 MLOAD PUSH4 0x70A08231 PUSH1 0xE0 SHL DUP2 MSTORE CALLER PUSH1 0x4 DUP3 ADD MSTORE PUSH1 0x20 DUP2 PUSH1 0x24 DUP2 DUP6 GAS STATICCALL SWAP1 DUP2 ISZERO PUSH2 0x818 JUMPI DUP7 SWAP2 PUSH2 0x888 JUMPI JUMPDEST POP PUSH2 0x5AC SWAP1 PUSH1 0xFF PUSH2 0x57A DUP2 DUP9 AND DUP11 PUSH2 0x2446 JUMP JUMPDEST MLOAD AND DUP8 MSTORE PUSH1 0x4 PUSH1 0x20 MSTORE PUSH1 0x40 DUP8 KECCAK256 PUSH1 0xFF PUSH2 0x595 DUP2 DUP10 AND DUP13 PUSH2 0x2446 JUMP JUMPDEST MLOAD AND PUSH1 0x0 MSTORE PUSH1 0x20 MSTORE PUSH1 0x1 PUSH1 0x40 PUSH1 0x0 KECCAK256 ADD SLOAD LT PUSH2 0x2ACD JUMP JUMPDEST PUSH1 0x40 MLOAD PUSH4 0x6EB1769F PUSH1 0xE1 SHL DUP2 MSTORE CALLER PUSH1 0x4 DUP3 ADD MSTORE ADDRESS PUSH1 0x24 DUP3 ADD MSTORE PUSH1 0x20 DUP2 PUSH1 0x44 DUP2 DUP6 GAS STATICCALL SWAP1 DUP2 ISZERO PUSH2 0x818 JUMPI DUP7 SWAP2 PUSH2 0x84B JUMPI JUMPDEST POP PUSH1 0x20 SWAP2 PUSH2 0x626 PUSH2 0x683 SWAP3 PUSH1 0xFF PUSH2 0x5F5 DUP2 DUP11 AND DUP13 PUSH2 0x2446 JUMP JUMPDEST MLOAD AND DUP10 MSTORE PUSH1 0x4 DUP6 MSTORE PUSH1 0x40 DUP10 KECCAK256 PUSH1 0xFF PUSH2 0x60F DUP11 DUP3 AND DUP15 PUSH2 0x2446 JUMP JUMPDEST MLOAD AND PUSH1 0x0 MSTORE DUP6 MSTORE PUSH1 0x1 PUSH1 0x40 PUSH1 0x0 KECCAK256 ADD SLOAD GT ISZERO PUSH2 0x2B25 JUMP JUMPDEST PUSH1 0xFF PUSH2 0x634 DUP2 DUP9 AND DUP11 PUSH2 0x2446 JUMP JUMPDEST MLOAD AND DUP8 MSTORE PUSH1 0x4 DUP4 MSTORE PUSH1 0x40 DUP8 KECCAK256 PUSH1 0xFF PUSH2 0x64E DUP2 DUP10 AND DUP13 PUSH2 0x2446 JUMP JUMPDEST MLOAD AND PUSH1 0x0 MSTORE DUP4 MSTORE PUSH1 0x1 DUP1 PUSH1 0xA0 SHL SUB PUSH1 0x40 PUSH1 0x0 KECCAK256 SLOAD AND SWAP5 PUSH1 0x40 MLOAD SWAP8 DUP9 DUP1 SWAP5 DUP2 SWAP4 PUSH4 0x23B872DD PUSH1 0xE0 SHL SWAP10 DUP11 DUP5 MSTORE CALLER PUSH1 0x4 DUP6 ADD PUSH2 0x2641 JUMP JUMPDEST SUB SWAP3 GAS CALL SWAP2 DUP3 ISZERO PUSH2 0x840 JUMPI PUSH2 0x6CC SWAP5 PUSH1 0x20 SWAP4 PUSH2 0x823 JUMPI JUMPDEST POP PUSH1 0x3 SLOAD PUSH1 0x1 SLOAD PUSH1 0x40 MLOAD SWAP3 DUP4 MSTORE SWAP2 SWAP6 DUP7 SWAP4 PUSH1 0x1 PUSH1 0x1 PUSH1 0xA0 SHL SUB SWAP3 DUP4 AND SWAP4 DUP6 SWAP4 DUP14 SWAP4 DUP6 SWAP4 SWAP1 SWAP3 SWAP1 SWAP2 AND CALLER PUSH1 0x4 DUP6 ADD PUSH2 0x2641 JUMP JUMPDEST SUB SWAP3 GAS CALL SWAP1 DUP2 ISZERO PUSH2 0x818 JUMPI PUSH1 0xFF SWAP3 PUSH1 0x1 SWAP3 PUSH2 0x7E9 JUMPI JUMPDEST POP DUP3 PUSH2 0x6F0 DUP2 DUP4 AND DUP7 PUSH2 0x2446 JUMP JUMPDEST MLOAD AND DUP8 MSTORE PUSH1 0x4 PUSH1 0x20 MSTORE PUSH1 0x40 DUP8 KECCAK256 DUP4 PUSH2 0x70A DUP2 DUP5 AND DUP9 PUSH2 0x2446 JUMP JUMPDEST MLOAD AND PUSH1 0x0 MSTORE PUSH1 0x20 MSTORE DUP2 DUP1 PUSH1 0xA0 SHL SUB PUSH1 0x40 PUSH1 0x0 KECCAK256 SLOAD AND DUP8 MSTORE PUSH2 0x1045 DUP1 PUSH1 0x20 MSTORE PUSH1 0x40 DUP9 KECCAK256 DUP1 SLOAD SWAP2 PUSH2 0xFFFF SWAP2 DUP3 PUSH2 0x73F DUP2 DUP7 AND PUSH2 0x2B7D JUMP JUMPDEST AND PUSH2 0xFFFF NOT DUP1 SWAP6 AND OR SWAP1 SSTORE CALLER DUP11 MSTORE PUSH1 0x20 MSTORE PUSH1 0x40 DUP10 KECCAK256 SWAP2 DUP3 SLOAD SWAP2 PUSH2 0x763 DUP2 DUP5 AND PUSH2 0x2B91 JUMP JUMPDEST AND SWAP2 AND OR SWAP1 SSTORE DUP3 PUSH2 0x776 DUP2 DUP4 AND DUP7 PUSH2 0x2446 JUMP JUMPDEST MLOAD AND DUP8 MSTORE PUSH1 0x4 PUSH1 0x20 MSTORE PUSH1 0x40 DUP8 KECCAK256 DUP4 PUSH2 0x790 DUP2 DUP5 AND DUP9 PUSH2 0x2446 JUMP JUMPDEST MLOAD AND PUSH1 0x0 MSTORE PUSH1 0x20 MSTORE PUSH1 0x40 PUSH1 0x0 KECCAK256 CALLER DUP4 DUP1 PUSH1 0xA0 SHL SUB NOT DUP3 SLOAD AND OR SWAP1 SSTORE DUP3 PUSH2 0x7B8 DUP2 DUP4 AND DUP7 PUSH2 0x2446 JUMP JUMPDEST MLOAD AND DUP8 MSTORE PUSH1 0x4 PUSH1 0x20 MSTORE PUSH1 0x40 DUP8 KECCAK256 DUP4 PUSH2 0x7D2 DUP2 DUP5 AND DUP9 PUSH2 0x2446 JUMP JUMPDEST MLOAD AND PUSH1 0x0 MSTORE PUSH1 0x20 MSTORE TIMESTAMP PUSH1 0x3 PUSH1 0x40 PUSH1 0x0 KECCAK256 ADD SSTORE PUSH2 0x437 JUMP JUMPDEST PUSH2 0x80A SWAP1 PUSH1 0x20 RETURNDATASIZE PUSH1 0x20 GT PUSH2 0x811 JUMPI JUMPDEST PUSH2 0x802 DUP2 DUP4 PUSH2 0x215D JUMP JUMPDEST DUP2 ADD SWAP1 PUSH2 0x2629 JUMP JUMPDEST POP CODESIZE PUSH2 0x6E2 JUMP JUMPDEST POP RETURNDATASIZE PUSH2 0x7F8 JUMP JUMPDEST PUSH1 0x40 MLOAD RETURNDATASIZE DUP9 DUP3 RETURNDATACOPY RETURNDATASIZE SWAP1 REVERT JUMPDEST PUSH2 0x839 SWAP1 DUP5 RETURNDATASIZE DUP7 GT PUSH2 0x811 JUMPI PUSH2 0x802 DUP2 DUP4 PUSH2 0x215D JUMP JUMPDEST POP CODESIZE PUSH2 0x69A JUMP JUMPDEST PUSH1 0x40 MLOAD RETURNDATASIZE DUP11 DUP3 RETURNDATACOPY RETURNDATASIZE SWAP1 REVERT JUMPDEST SWAP6 POP POP PUSH1 0x20 DUP6 RETURNDATASIZE PUSH1 0x20 GT PUSH2 0x880 JUMPI JUMPDEST DUP2 PUSH2 0x867 PUSH1 0x20 SWAP4 DUP4 PUSH2 0x215D JUMP JUMPDEST DUP2 ADD SUB SLT PUSH2 0x87B JUMPI SWAP4 MLOAD DUP9 SWAP5 SWAP1 PUSH1 0x20 PUSH2 0x5DC JUMP JUMPDEST PUSH1 0x0 DUP1 REVERT JUMPDEST RETURNDATASIZE SWAP2 POP PUSH2 0x85A JUMP JUMPDEST SWAP6 POP POP PUSH1 0x20 DUP6 RETURNDATASIZE PUSH1 0x20 GT PUSH2 0x8B8 JUMPI JUMPDEST DUP2 PUSH2 0x8A4 PUSH1 0x20 SWAP4 DUP4 PUSH2 0x215D JUMP JUMPDEST DUP2 ADD SUB SLT PUSH2 0x87B JUMPI PUSH2 0x5AC DUP10 SWAP6 MLOAD SWAP1 PUSH2 0x567 JUMP JUMPDEST RETURNDATASIZE SWAP2 POP PUSH2 0x897 JUMP JUMPDEST POP PUSH1 0x3 DUP1 SLOAD PUSH1 0x40 MLOAD PUSH4 0x70A08231 PUSH1 0xE0 SHL DUP2 MSTORE CALLER PUSH1 0x4 DUP3 ADD MSTORE PUSH1 0x1 PUSH1 0x1 PUSH1 0xA0 SHL SUB SWAP1 SWAP2 AND SWAP4 POP SWAP1 SWAP2 SWAP1 PUSH1 0x20 DUP2 PUSH1 0x24 DUP2 DUP8 GAS STATICCALL DUP1 ISZERO PUSH2 0x840 JUMPI DUP9 SWAP1 PUSH2 0xB84 JUMPI JUMPDEST PUSH2 0x92C SWAP2 POP PUSH1 0xFF PUSH2 0x911 DUP2 DUP6 AND DUP9 PUSH2 0x2446 JUMP JUMPDEST MLOAD AND DUP10 MSTORE PUSH1 0x4 PUSH1 0x20 MSTORE PUSH1 0x40 DUP10 KECCAK256 PUSH1 0xFF PUSH2 0x595 DUP2 DUP7 AND DUP11 PUSH2 0x2446 JUMP JUMPDEST PUSH1 0x40 MLOAD PUSH4 0x6EB1769F PUSH1 0xE1 SHL DUP2 MSTORE CALLER PUSH1 0x4 DUP3 ADD MSTORE ADDRESS PUSH1 0x24 DUP3 ADD MSTORE PUSH1 0x20 DUP2 PUSH1 0x44 DUP2 DUP8 GAS STATICCALL SWAP1 DUP2 ISZERO PUSH2 0x840 JUMPI DUP9 SWAP2 PUSH2 0xB50 JUMPI JUMPDEST POP PUSH2 0xA0A SWAP4 PUSH2 0x9A6 PUSH1 0x20 SWAP3 PUSH1 0xFF PUSH2 0x975 DUP2 DUP8 AND DUP11 PUSH2 0x2446 JUMP JUMPDEST MLOAD AND DUP12 MSTORE PUSH1 0x4 DUP5 MSTORE PUSH1 0x40 DUP12 KECCAK256 PUSH1 0xFF PUSH2 0x98F DUP2 DUP9 AND DUP13 PUSH2 0x2446 JUMP JUMPDEST MLOAD AND PUSH1 0x0 MSTORE DUP5 MSTORE PUSH1 0x1 PUSH1 0x40 PUSH1 0x0 KECCAK256 ADD SLOAD GT ISZERO PUSH2 0x2B25 JUMP JUMPDEST PUSH1 0x1 SLOAD PUSH1 0x1 PUSH1 0x1 PUSH1 0xA0 SHL SUB AND SWAP1 PUSH1 0xFF PUSH2 0x9C1 DUP6 DUP3 AND DUP10 PUSH2 0x2446 JUMP JUMPDEST MLOAD AND DUP11 MSTORE PUSH1 0x4 DUP4 MSTORE PUSH1 0x40 DUP11 KECCAK256 PUSH1 0xFF PUSH2 0x9DB DUP2 DUP8 AND DUP12 PUSH2 0x2446 JUMP JUMPDEST MLOAD AND PUSH1 0x0 MSTORE DUP4 MSTORE PUSH1 0x1 PUSH1 0x40 PUSH1 0x0 KECCAK256 ADD SLOAD SWAP2 DUP11 PUSH1 0x40 MLOAD DUP1 SWAP9 DUP2 SWAP6 DUP3 SWAP5 PUSH4 0x23B872DD PUSH1 0xE0 SHL DUP5 MSTORE CALLER PUSH1 0x4 DUP6 ADD PUSH2 0x2641 JUMP JUMPDEST SUB SWAP3 GAS CALL SWAP2 DUP3 ISZERO PUSH2 0xB45 JUMPI PUSH1 0xFF SWAP4 PUSH1 0x1 SWAP4 PUSH2 0xB26 JUMPI JUMPDEST POP DUP4 PUSH2 0xA2E DUP2 DUP5 AND DUP8 PUSH2 0x2446 JUMP JUMPDEST MLOAD AND DUP9 MSTORE PUSH1 0x4 PUSH1 0x20 MSTORE PUSH1 0x40 DUP9 KECCAK256 DUP5 PUSH2 0xA48 DUP2 DUP6 AND DUP10 PUSH2 0x2446 JUMP JUMPDEST MLOAD AND PUSH1 0x0 MSTORE PUSH1 0x20 MSTORE DUP3 DUP1 PUSH1 0xA0 SHL SUB PUSH1 0x40 PUSH1 0x0 KECCAK256 SLOAD AND DUP9 MSTORE PUSH2 0x1045 DUP1 PUSH1 0x20 MSTORE PUSH1 0x40 DUP10 KECCAK256 DUP1 SLOAD SWAP2 PUSH2 0xFFFF SWAP2 DUP3 PUSH2 0xA7D DUP2 DUP7 AND PUSH2 0x2B7D JUMP JUMPDEST AND PUSH2 0xFFFF NOT DUP1 SWAP6 AND OR SWAP1 SSTORE CALLER DUP12 MSTORE PUSH1 0x20 MSTORE PUSH1 0x40 DUP11 KECCAK256 SWAP2 DUP3 SLOAD SWAP2 PUSH2 0xAA1 DUP2 DUP5 AND PUSH2 0x2B91 JUMP JUMPDEST AND SWAP2 AND OR SWAP1 SSTORE DUP4 PUSH2 0xAB4 DUP2 DUP5 AND DUP8 PUSH2 0x2446 JUMP JUMPDEST MLOAD AND DUP9 MSTORE PUSH1 0x4 PUSH1 0x20 MSTORE PUSH1 0x40 DUP9 KECCAK256 DUP5 PUSH2 0xACE DUP2 DUP6 AND DUP10 PUSH2 0x2446 JUMP JUMPDEST MLOAD AND PUSH1 0x0 MSTORE PUSH1 0x20 MSTORE PUSH1 0x40 PUSH1 0x0 KECCAK256 CALLER DUP5 DUP1 PUSH1 0xA0 SHL SUB NOT DUP3 SLOAD AND OR SWAP1 SSTORE DUP4 PUSH2 0xAF6 DUP2 DUP5 AND DUP8 PUSH2 0x2446 JUMP JUMPDEST MLOAD AND DUP9 MSTORE PUSH1 0x4 PUSH1 0x20 MSTORE PUSH1 0x40 DUP9 KECCAK256 DUP5 PUSH2 0xB10 DUP2 DUP6 AND DUP10 PUSH2 0x2446 JUMP JUMPDEST MLOAD AND PUSH1 0x0 MSTORE PUSH1 0x20 MSTORE TIMESTAMP SWAP1 PUSH1 0x40 PUSH1 0x0 KECCAK256 ADD SSTORE PUSH2 0x437 JUMP JUMPDEST PUSH2 0xB3E SWAP1 PUSH1 0x20 RETURNDATASIZE PUSH1 0x20 GT PUSH2 0x811 JUMPI PUSH2 0x802 DUP2 DUP4 PUSH2 0x215D JUMP JUMPDEST POP CODESIZE PUSH2 0xA20 JUMP JUMPDEST PUSH1 0x40 MLOAD RETURNDATASIZE DUP10 DUP3 RETURNDATACOPY RETURNDATASIZE SWAP1 REVERT JUMPDEST SWAP1 POP PUSH1 0x20 DUP2 RETURNDATASIZE PUSH1 0x20 GT PUSH2 0xB7C JUMPI JUMPDEST DUP2 PUSH2 0xB6B PUSH1 0x20 SWAP4 DUP4 PUSH2 0x215D JUMP JUMPDEST DUP2 ADD SUB SLT PUSH2 0x87B JUMPI MLOAD PUSH2 0xA0A PUSH2 0x95C JUMP JUMPDEST RETURNDATASIZE SWAP2 POP PUSH2 0xB5E JUMP JUMPDEST POP PUSH1 0x20 DUP2 RETURNDATASIZE PUSH1 0x20 GT PUSH2 0xBB0 JUMPI JUMPDEST DUP2 PUSH2 0xB9E PUSH1 0x20 SWAP4 DUP4 PUSH2 0x215D JUMP JUMPDEST DUP2 ADD SUB SLT PUSH2 0x87B JUMPI PUSH2 0x92C SWAP1 MLOAD PUSH2 0x8FE JUMP JUMPDEST RETURNDATASIZE SWAP2 POP PUSH2 0xB91 JUMP JUMPDEST PUSH1 0x40 MLOAD PUSH3 0x461BCD PUSH1 0xE5 SHL DUP2 MSTORE PUSH1 0x20 PUSH1 0x4 DUP3 ADD MSTORE PUSH1 0x16 PUSH1 0x24 DUP3 ADD MSTORE PUSH22 0x706978656C206973206F7574206F6620626F756E6473 PUSH1 0x50 SHL PUSH1 0x44 DUP3 ADD MSTORE PUSH1 0x64 SWAP1 REVERT JUMPDEST DUP5 DUP1 RETURN JUMPDEST POP CALLVALUE PUSH2 0x2A2 JUMPI PUSH1 0x20 CALLDATASIZE PUSH1 0x3 NOT ADD SLT PUSH2 0x2A2 JUMPI PUSH1 0x4 CALLDATALOAD SWAP1 PUSH1 0x40 DUP3 LT ISZERO PUSH2 0x2A2 JUMPI PUSH2 0xC3D PUSH2 0xC29 DUP4 PUSH2 0x1005 ADD PUSH2 0x2379 JUMP JUMPDEST PUSH1 0x40 MLOAD SWAP2 DUP3 SWAP2 PUSH1 0x20 DUP4 MSTORE PUSH1 0x20 DUP4 ADD SWAP1 PUSH2 0x2266 JUMP JUMPDEST SUB SWAP1 RETURN JUMPDEST POP CALLVALUE PUSH2 0x2A2 JUMPI PUSH1 0x40 CALLDATASIZE PUSH1 0x3 NOT ADD SLT PUSH2 0x2A2 JUMPI PUSH2 0xC3D PUSH2 0xC6F PUSH2 0xC61 PUSH2 0x2107 JUMP JUMPDEST PUSH2 0xC69 PUSH2 0x2117 JUMP JUMPDEST SWAP1 PUSH2 0x2C60 JUMP JUMPDEST PUSH1 0x40 MLOAD SWAP2 DUP3 SWAP2 PUSH1 0x20 DUP4 MSTORE PUSH1 0x20 DUP4 ADD SWAP1 PUSH2 0x228B JUMP JUMPDEST POP CALLVALUE PUSH2 0x2A2 JUMPI DUP1 PUSH1 0x3 NOT CALLDATASIZE ADD SLT PUSH2 0x2A2 JUMPI SLOAD PUSH1 0x40 MLOAD PUSH1 0x1 PUSH1 0x1 PUSH1 0xA0 SHL SUB SWAP1 SWAP2 AND DUP2 MSTORE PUSH1 0x20 SWAP1 RETURN JUMPDEST POP CALLVALUE PUSH2 0x2A2 JUMPI PUSH1 0x20 CALLDATASIZE PUSH1 0x3 NOT ADD SLT PUSH2 0x2A2 JUMPI PUSH1 0x4 CALLDATALOAD SWAP1 PUSH2 0x1000 DUP3 LT ISZERO PUSH2 0x2A2 JUMPI PUSH2 0xC3D PUSH2 0xC29 DUP4 PUSH1 0x5 ADD PUSH2 0x2379 JUMP JUMPDEST POP CALLVALUE PUSH2 0x2A2 JUMPI DUP1 PUSH1 0x3 NOT CALLDATASIZE ADD SLT PUSH2 0x2A2 JUMPI PUSH1 0x20 PUSH1 0xFF PUSH1 0x1 SLOAD PUSH1 0xA0 SHR AND PUSH1 0x40 MLOAD SWAP1 DUP2 MSTORE RETURN JUMPDEST POP CALLVALUE PUSH2 0x2A2 JUMPI PUSH1 0x20 CALLDATASIZE PUSH1 0x3 NOT ADD SLT PUSH2 0x2A2 JUMPI PUSH1 0x40 PUSH1 0x20 SWAP2 PUSH1 0x4 CALLDATALOAD DUP2 MSTORE PUSH2 0x1047 DUP4 MSTORE KECCAK256 SLOAD PUSH1 0x40 MLOAD SWAP1 DUP2 MSTORE RETURN JUMPDEST POP CALLVALUE PUSH2 0x2A2 JUMPI DUP1 PUSH1 0x3 NOT CALLDATASIZE ADD SLT PUSH2 0x2A2 JUMPI PUSH1 0x20 PUSH3 0x54600 PUSH2 0xD4B PUSH1 0x2 SLOAD TIMESTAMP PUSH2 0x2BBA JUMP JUMPDEST DIV PUSH1 0x40 MLOAD SWAP1 DUP2 MSTORE RETURN JUMPDEST POP CALLVALUE PUSH2 0x2A2 JUMPI DUP1 PUSH1 0x3 NOT CALLDATASIZE ADD SLT PUSH2 0x2A2 JUMPI PUSH1 0x20 PUSH3 0x3F480 PUSH3 0x54600 PUSH2 0xD7B PUSH1 0x2 SLOAD TIMESTAMP PUSH2 0x2BBA JUMP JUMPDEST MOD LT ISZERO PUSH1 0x40 MLOAD SWAP1 DUP2 MSTORE RETURN JUMPDEST POP CALLVALUE PUSH2 0x2A2 JUMPI DUP1 PUSH1 0x3 NOT CALLDATASIZE ADD SLT PUSH2 0x2A2 JUMPI PUSH1 0x20 PUSH1 0x40 MLOAD PUSH3 0x15180 DUP2 MSTORE RETURN JUMPDEST POP CALLVALUE PUSH2 0x2A2 JUMPI PUSH1 0x40 CALLDATASIZE PUSH1 0x3 NOT ADD SLT PUSH2 0x2A2 JUMPI PUSH1 0xFF PUSH1 0x40 PUSH2 0xDC2 PUSH2 0x2107 JUMP JUMPDEST SWAP3 DUP3 PUSH2 0xDCC PUSH2 0x2117 JUMP JUMPDEST SWAP5 AND DUP2 MSTORE PUSH1 0x4 PUSH1 0x20 MSTORE KECCAK256 SWAP2 AND PUSH1 0x0 MSTORE PUSH1 0x20 MSTORE PUSH1 0xFF PUSH1 0x40 PUSH1 0x0 KECCAK256 DUP1 SLOAD SWAP1 PUSH1 0x1 DUP2 ADD SLOAD PUSH2 0xDF9 PUSH1 0x2 DUP4 ADD PUSH2 0x2379 JUMP JUMPDEST SWAP2 PUSH2 0xE40 PUSH1 0x3 DUP3 ADD SLOAD SWAP4 PUSH1 0x5 DUP8 PUSH1 0x4 DUP6 ADD SLOAD AND SWAP4 ADD SLOAD SWAP4 PUSH1 0x40 MLOAD SWAP8 DUP9 SWAP8 PUSH1 0x1 DUP1 PUSH1 0xA0 SHL SUB DUP2 AND DUP10 MSTORE PUSH1 0xA0 SHR AND PUSH1 0x20 DUP9 ADD MSTORE PUSH1 0x40 DUP8 ADD MSTORE PUSH1 0xE0 PUSH1 0x60 DUP8 ADD MSTORE PUSH1 0xE0 DUP7 ADD SWAP1 PUSH2 0x2266 JUMP JUMPDEST SWAP3 PUSH1 0x80 DUP6 ADD MSTORE ISZERO ISZERO PUSH1 0xA0 DUP5 ADD MSTORE PUSH1 0xC0 DUP4 ADD MSTORE SUB SWAP1 RETURN JUMPDEST POP CALLVALUE PUSH2 0x2A2 JUMPI DUP1 PUSH1 0x3 NOT CALLDATASIZE ADD SLT PUSH2 0x2A2 JUMPI PUSH1 0x40 MLOAD PUSH1 0x80 DUP2 ADD DUP2 DUP2 LT PUSH1 0x1 PUSH1 0x1 PUSH1 0x40 SHL SUB DUP3 GT OR PUSH2 0x27E JUMPI PUSH1 0x40 MSTORE PUSH1 0x57 DUP2 MSTORE PUSH1 0x20 SWAP1 PUSH32 0x3C7376672077696474683D2236303022206865696768743D2236303022207669 DUP3 DUP3 ADD MSTORE PUSH32 0x6577426F783D2230203020363030203630302220786D6C6E733D22687474703A PUSH1 0x40 DUP3 ADD MSTORE PUSH23 0x1797BBBBBB973B999737B933979918181817B9BB33911F PUSH1 0x49 SHL PUSH1 0x60 DUP3 ADD MSTORE SWAP2 JUMPDEST PUSH1 0x40 DUP2 LT PUSH2 0xF4E JUMPI POP PUSH2 0xF3A PUSH1 0x26 PUSH1 0x40 MLOAD DUP5 PUSH2 0xF1C DUP3 SWAP7 MLOAD DUP1 SWAP3 DUP8 DUP1 DUP7 ADD SWAP2 ADD PUSH2 0x2243 JUMP JUMPDEST DUP2 ADD PUSH6 0x1E17B9BB339F PUSH1 0xD1 SHL DUP6 DUP3 ADD MSTORE SUB PUSH1 0x6 DUP2 ADD DUP6 MSTORE ADD DUP4 PUSH2 0x215D JUMP JUMPDEST PUSH2 0xC3D PUSH1 0x40 MLOAD SWAP3 DUP3 DUP5 SWAP4 DUP5 MSTORE DUP4 ADD SWAP1 PUSH2 0x2266 JUMP JUMPDEST SWAP2 DUP2 PUSH2 0xF8D PUSH2 0xF93 SWAP3 PUSH2 0xF7F PUSH1 0x40 MLOAD SWAP4 DUP3 PUSH2 0xF72 DUP7 SWAP5 MLOAD DUP1 SWAP3 DUP5 DUP1 DUP9 ADD SWAP2 ADD PUSH2 0x2243 JUMP JUMPDEST DUP4 ADD ADD DUP8 PUSH2 0x1005 ADD PUSH2 0x3577 JUMP JUMPDEST SUB PUSH1 0x1F NOT DUP2 ADD DUP4 MSTORE DUP3 PUSH2 0x215D JUMP JUMPDEST SWAP3 PUSH2 0x3568 JUMP JUMPDEST PUSH2 0xEF7 JUMP JUMPDEST POP CALLVALUE PUSH2 0x2A2 JUMPI PUSH1 0x20 CALLDATASIZE PUSH1 0x3 NOT ADD SLT PUSH2 0x2A2 JUMPI PUSH1 0x4 CALLDATALOAD PUSH1 0x1 PUSH1 0x1 PUSH1 0xA0 SHL SUB DUP2 DUP2 AND SWAP2 DUP3 SWAP1 SUB PUSH2 0xFE1 JUMPI PUSH2 0xFCF SWAP1 PUSH1 0x1 SLOAD AND CALLER EQ PUSH2 0x2BC7 JUMP JUMPDEST DUP2 SLOAD PUSH1 0x1 PUSH1 0x1 PUSH1 0xA0 SHL SUB NOT AND OR DUP2 SSTORE DUP1 RETURN JUMPDEST DUP3 DUP1 REVERT JUMPDEST POP CALLVALUE PUSH2 0x2A2 JUMPI PUSH1 0x60 CALLDATASIZE PUSH1 0x3 NOT ADD SLT PUSH2 0x2A2 JUMPI PUSH1 0x1 PUSH1 0x1 PUSH1 0x40 SHL SUB SWAP1 PUSH1 0x4 CALLDATALOAD DUP3 DUP2 GT PUSH2 0x322 JUMPI PUSH2 0x1018 SWAP1 CALLDATASIZE SWAP1 PUSH1 0x4 ADD PUSH2 0x2195 JUMP JUMPDEST SWAP1 PUSH1 0x24 DUP1 CALLDATALOAD DUP5 DUP2 GT PUSH2 0xFE1 JUMPI PUSH2 0x1032 SWAP1 CALLDATASIZE SWAP1 PUSH1 0x4 ADD PUSH2 0x2195 JUMP JUMPDEST SWAP1 PUSH1 0x44 SWAP2 DUP3 CALLDATALOAD SWAP6 DUP7 GT PUSH2 0x12B6 JUMPI CALLDATASIZE PUSH1 0x23 DUP8 ADD SLT ISZERO PUSH2 0x12B6 JUMPI DUP6 PUSH1 0x4 ADD CALLDATALOAD SWAP4 PUSH2 0x1059 DUP6 PUSH2 0x217E JUMP JUMPDEST SWAP7 PUSH2 0x1067 PUSH1 0x40 MLOAD SWAP9 DUP10 PUSH2 0x215D JUMP JUMPDEST DUP6 DUP9 MSTORE PUSH1 0x20 SWAP6 DUP5 DUP8 DUP11 ADD SWAP2 PUSH1 0x5 SHL DUP4 ADD ADD SWAP2 CALLDATASIZE DUP4 GT PUSH2 0x12B6 JUMPI DUP6 DUP9 SWAP2 ADD SWAP2 JUMPDEST DUP4 DUP4 LT PUSH2 0x12A6 JUMPI POP POP POP POP DUP6 MLOAD DUP3 MLOAD DUP2 EQ SWAP1 DUP2 PUSH2 0x129B JUMPI JUMPDEST POP ISZERO PUSH2 0x1248 JUMPI DUP6 MLOAD SWAP1 DUP1 JUMPDEST PUSH1 0xFF SWAP1 DUP2 DUP2 AND DUP5 DUP2 LT ISZERO PUSH2 0x119D JUMPI PUSH2 0x10D2 DUP4 PUSH2 0x10C5 DUP4 DUP14 PUSH2 0x2446 JUMP JUMPDEST MLOAD AND DUP5 PUSH2 0x373 DUP5 DUP11 PUSH2 0x2446 JUMP JUMPDEST PUSH2 0x115F JUMPI DUP3 PUSH2 0x10E1 DUP3 DUP13 PUSH2 0x2446 JUMP JUMPDEST MLOAD AND DUP5 MSTORE PUSH1 0x4 DUP10 MSTORE DUP3 PUSH2 0x10F8 PUSH1 0x40 DUP7 KECCAK256 SWAP3 DUP9 PUSH2 0x2446 JUMP JUMPDEST MLOAD AND PUSH1 0x0 MSTORE DUP9 MSTORE CALLER PUSH1 0x1 DUP1 PUSH1 0xA0 SHL SUB PUSH1 0x40 PUSH1 0x0 KECCAK256 SLOAD AND SUB PUSH2 0x111C JUMPI PUSH1 0x1 ADD AND PUSH2 0x10A9 JUMP JUMPDEST PUSH1 0x40 MLOAD PUSH3 0x461BCD PUSH1 0xE5 SHL DUP2 MSTORE PUSH1 0x4 DUP2 ADD DUP10 SWAP1 MSTORE PUSH1 0x1E DUP2 DUP9 ADD MSTORE PUSH32 0x6F6E6C79206F776E65722063616E2073657420706978656C2076616C75650000 DUP2 DUP10 ADD MSTORE PUSH1 0x64 SWAP1 REVERT JUMPDEST PUSH1 0x40 MLOAD PUSH3 0x461BCD PUSH1 0xE5 SHL DUP2 MSTORE PUSH1 0x4 DUP2 ADD DUP11 SWAP1 MSTORE PUSH1 0x18 DUP2 DUP10 ADD MSTORE PUSH24 0x4120706978656C206973206F7574206F6620626F756E6473 PUSH1 0x40 SHL DUP2 DUP11 ADD MSTORE PUSH1 0x64 SWAP1 REVERT JUMPDEST DUP11 DUP10 DUP12 DUP7 DUP10 DUP10 PUSH2 0x11AD DUP3 DUP6 PUSH2 0x2663 JUMP JUMPDEST DUP3 JUMPDEST PUSH1 0xFF SWAP1 DUP2 DUP2 AND SWAP1 DUP4 DUP3 LT ISZERO PUSH2 0x1244 JUMPI PUSH2 0x11C8 DUP3 DUP11 PUSH2 0x2446 JUMP JUMPDEST MLOAD SWAP2 DUP4 PUSH2 0x11D5 DUP3 DUP11 PUSH2 0x2446 JUMP JUMPDEST MLOAD AND DUP8 MSTORE PUSH1 0x4 DUP10 MSTORE PUSH1 0x40 DUP8 KECCAK256 DUP5 PUSH2 0x11EC DUP4 DUP10 PUSH2 0x2446 JUMP JUMPDEST MLOAD AND PUSH1 0x0 MSTORE DUP10 MSTORE PUSH1 0x1 SWAP3 DUP4 PUSH1 0x40 PUSH1 0x0 KECCAK256 ADD SSTORE DUP4 PUSH2 0x1216 DUP2 PUSH2 0x120D DUP5 DUP13 PUSH2 0x2446 JUMP JUMPDEST MLOAD AND SWAP3 DUP9 PUSH2 0x2446 JUMP JUMPDEST MLOAD AND SWAP1 PUSH32 0xB443B1E1F00B07B56C8517C490E3204884A2890C21F2ADCA9190E395E20BEF6E DUP9 DUP1 LOG3 ADD AND PUSH2 0x11AF JUMP JUMPDEST DUP6 DUP1 RETURN JUMPDEST PUSH1 0x40 MLOAD PUSH3 0x461BCD PUSH1 0xE5 SHL DUP2 MSTORE PUSH1 0x4 DUP2 ADD DUP7 SWAP1 MSTORE PUSH1 0x27 DUP2 DUP6 ADD MSTORE PUSH32 0x696E70757420617272617973206D757374206265206F66207468652073616D65 DUP2 DUP7 ADD MSTORE PUSH7 0x40D8CADCCEE8D PUSH1 0xCB SHL PUSH1 0x64 DUP3 ADD MSTORE PUSH1 0x84 SWAP1 REVERT JUMPDEST SWAP1 POP DUP8 MLOAD EQ CODESIZE PUSH2 0x109E JUMP JUMPDEST DUP3 CALLDATALOAD DUP2 MSTORE SWAP2 DUP2 ADD SWAP2 DUP9 SWAP2 ADD PUSH2 0x1086 JUMP JUMPDEST DUP4 DUP1 REVERT JUMPDEST POP CALLVALUE PUSH2 0x2A2 JUMPI PUSH1 0x20 DUP1 PUSH1 0x3 NOT CALLDATASIZE ADD SLT PUSH2 0x322 JUMPI PUSH1 0x4 CALLDATALOAD PUSH4 0xFFFFFFFF DUP2 AND DUP1 SWAP2 SUB PUSH2 0xFE1 JUMPI PUSH3 0x54600 PUSH2 0x12EE PUSH1 0x2 SLOAD TIMESTAMP PUSH2 0x2BBA JUMP JUMPDEST DIV DUP2 LT ISZERO PUSH2 0x14B5 JUMPI DUP1 DUP4 MSTORE PUSH2 0x1046 DUP1 DUP4 MSTORE PUSH1 0x40 DUP5 KECCAK256 SLOAD PUSH2 0x1319 PUSH2 0xFFFF SWAP2 DUP3 DUP1 DUP3 PUSH1 0x10 SHR AND SWAP2 AND PUSH2 0x2BA4 JUMP JUMPDEST SWAP2 DUP2 DUP4 AND ISZERO PUSH2 0x1480 JUMPI SWAP1 PUSH2 0x7FFF SWAP2 DUP5 DUP8 MSTORE DUP6 MSTORE PUSH1 0x40 DUP7 KECCAK256 SLOAD AND SWAP2 PUSH1 0x1 SHR AND LT PUSH2 0x1340 JUMPI DUP3 DUP1 RETURN JUMPDEST DUP3 SLOAD PUSH1 0x1 SLOAD PUSH1 0x1 PUSH1 0x1 PUSH1 0xA0 SHL SUB SWAP3 SWAP2 DUP6 SWAP2 DUP5 AND SWAP1 DUP5 AND DUP1 EXTCODESIZE ISZERO PUSH2 0xFE1 JUMPI PUSH1 0x24 DUP4 SWAP3 PUSH1 0x40 MLOAD SWAP5 DUP6 SWAP4 DUP5 SWAP3 PUSH4 0x35313C21 PUSH1 0xE1 SHL DUP5 MSTORE PUSH1 0x4 DUP5 ADD MSTORE GAS CALL DUP1 ISZERO PUSH2 0x1475 JUMPI PUSH2 0x1445 JUMPI JUMPDEST POP PUSH1 0x4 SWAP2 PUSH32 0xFEFD1234777B4B4BDB59A31F840CF2F33CDB8F57ED79F3A9D4F47D699FEE7695 DUP5 DUP1 SWAP4 PUSH1 0x40 MLOAD SWAP1 DUP2 MSTORE LOG1 DUP5 SLOAD AND PUSH1 0x40 MLOAD SWAP3 DUP4 DUP1 SWAP3 PUSH4 0x18160DDD PUSH1 0xE0 SHL DUP3 MSTORE GAS STATICCALL SWAP1 DUP2 ISZERO PUSH2 0x143A JUMPI DUP4 SWAP2 PUSH2 0x140D JUMPI JUMPDEST POP PUSH1 0x0 NOT DUP2 ADD SWAP1 DUP2 GT PUSH2 0x13F9 JUMPI SWAP1 PUSH2 0x1047 SWAP2 DUP4 MSTORE MSTORE TIMESTAMP PUSH1 0x40 DUP3 KECCAK256 SSTORE CODESIZE DUP1 DUP3 DUP1 RETURN JUMPDEST PUSH4 0x4E487B71 PUSH1 0xE0 SHL DUP4 MSTORE PUSH1 0x11 PUSH1 0x4 MSTORE PUSH1 0x24 DUP4 REVERT JUMPDEST SWAP1 POP DUP2 DUP2 DUP2 RETURNDATASIZE DUP4 GT PUSH2 0x1433 JUMPI JUMPDEST PUSH2 0x1424 DUP2 DUP4 PUSH2 0x215D JUMP JUMPDEST DUP2 ADD SUB SLT PUSH2 0x87B JUMPI MLOAD CODESIZE PUSH2 0x13D8 JUMP JUMPDEST POP RETURNDATASIZE PUSH2 0x141A JUMP JUMPDEST PUSH1 0x40 MLOAD RETURNDATASIZE DUP6 DUP3 RETURNDATACOPY RETURNDATASIZE SWAP1 REVERT JUMPDEST PUSH1 0x1 PUSH1 0x1 PUSH1 0x40 SHL SUB DUP2 SWAP6 SWAP3 SWAP6 GT PUSH2 0x1461 JUMPI PUSH1 0x40 MSTORE SWAP3 PUSH1 0x4 PUSH2 0x1385 JUMP JUMPDEST PUSH4 0x4E487B71 PUSH1 0xE0 SHL DUP3 MSTORE PUSH1 0x41 PUSH1 0x4 MSTORE PUSH1 0x24 DUP3 REVERT JUMPDEST PUSH1 0x40 MLOAD RETURNDATASIZE DUP8 DUP3 RETURNDATACOPY RETURNDATASIZE SWAP1 REVERT JUMPDEST PUSH1 0x40 MLOAD PUSH3 0x461BCD PUSH1 0xE5 SHL DUP2 MSTORE PUSH1 0x4 DUP2 ADD DUP7 SWAP1 MSTORE PUSH1 0xD PUSH1 0x24 DUP3 ADD MSTORE PUSH13 0x139BC81D9BDD195CC818D85CDD PUSH1 0x9A SHL PUSH1 0x44 DUP3 ADD MSTORE PUSH1 0x64 SWAP1 REVERT JUMPDEST PUSH1 0x40 MLOAD PUSH3 0x461BCD PUSH1 0xE5 SHL DUP2 MSTORE PUSH1 0x4 DUP2 ADD DUP4 SWAP1 MSTORE PUSH1 0x36 PUSH1 0x24 DUP3 ADD MSTORE PUSH32 0x636865636B20766F7465206F7574636F6D6573206F6E6C7920706F737369626C PUSH1 0x44 DUP3 ADD MSTORE PUSH22 0x6520666F7220636F6E636C75646564206379636C6573 PUSH1 0x50 SHL PUSH1 0x64 DUP3 ADD MSTORE PUSH1 0x84 SWAP1 REVERT JUMPDEST POP CALLVALUE PUSH2 0x2A2 JUMPI PUSH1 0x20 DUP1 PUSH1 0x3 NOT CALLDATASIZE ADD SLT PUSH2 0x322 JUMPI PUSH1 0x4 CALLDATALOAD DUP1 ISZERO ISZERO DUP2 SUB PUSH2 0xFE1 JUMPI PUSH1 0x2 SLOAD PUSH3 0x54600 SWAP1 PUSH3 0x3F480 DUP3 PUSH2 0x154F DUP4 TIMESTAMP PUSH2 0x2BBA JUMP JUMPDEST MOD LT PUSH2 0x16F3 JUMPI CALLER DUP6 MSTORE PUSH2 0x1045 DUP5 MSTORE PUSH2 0xFFFF DUP1 PUSH1 0x40 DUP8 KECCAK256 SLOAD AND SWAP2 DUP3 ISZERO PUSH2 0x169E JUMPI DUP4 PUSH2 0x1579 DUP3 TIMESTAMP PUSH2 0x2BBA JUMP JUMPDEST DIV DUP8 MSTORE PUSH2 0x1046 SWAP5 DUP6 DUP8 MSTORE PUSH1 0x1 PUSH1 0x40 DUP10 KECCAK256 ADD CALLER DUP10 MSTORE DUP8 MSTORE PUSH1 0xFF PUSH1 0x40 DUP10 KECCAK256 SLOAD AND PUSH2 0x1669 JUMPI DUP5 SWAP2 SWAP1 ISZERO PUSH2 0x162B JUMPI POP PUSH2 0x15B3 PUSH1 0x2 SWAP4 SWAP3 SWAP4 SLOAD TIMESTAMP PUSH2 0x2BBA JUMP JUMPDEST DIV DUP7 MSTORE DUP4 DUP6 MSTORE PUSH1 0x40 DUP7 KECCAK256 SWAP2 PUSH2 0x15CC DUP4 SLOAD SWAP3 DUP3 DUP5 AND PUSH2 0x2BA4 JUMP JUMPDEST AND SWAP1 PUSH2 0xFFFF NOT AND OR SWAP1 SSTORE JUMPDEST PUSH2 0x15E3 PUSH1 0x2 SLOAD TIMESTAMP PUSH2 0x2BBA JUMP JUMPDEST DIV DUP4 MSTORE DUP2 MSTORE PUSH1 0x1 PUSH1 0x40 DUP4 KECCAK256 ADD SWAP1 CALLER DUP4 MSTORE MSTORE PUSH1 0x40 DUP2 KECCAK256 PUSH1 0x1 PUSH1 0xFF NOT DUP3 SLOAD AND OR SWAP1 SSTORE CALLER PUSH32 0x7CE969A18BB6B0FBA42C6D9746E7D08EECA4C661809659C91D276456E3153AC0 DUP3 DUP1 LOG2 DUP1 RETURN JUMPDEST PUSH2 0x1635 SWAP1 TIMESTAMP PUSH2 0x2BBA JUMP JUMPDEST DIV DUP7 MSTORE DUP4 DUP6 MSTORE PUSH4 0xFFFF0000 PUSH2 0x1655 PUSH1 0x40 DUP9 KECCAK256 SWAP4 DUP5 SLOAD SWAP4 DUP5 PUSH1 0x10 SHR AND PUSH2 0x2BA4 JUMP JUMPDEST PUSH1 0x10 SHL AND SWAP1 PUSH4 0xFFFF0000 NOT AND OR SWAP1 SSTORE PUSH2 0x15D7 JUMP JUMPDEST PUSH1 0x40 MLOAD PUSH3 0x461BCD PUSH1 0xE5 SHL DUP2 MSTORE PUSH1 0x4 DUP2 ADD DUP9 SWAP1 MSTORE PUSH1 0xD PUSH1 0x24 DUP3 ADD MSTORE PUSH13 0x185B1C9958591E481D9BDD1959 PUSH1 0x9A SHL PUSH1 0x44 DUP3 ADD MSTORE PUSH1 0x64 SWAP1 REVERT JUMPDEST PUSH1 0x40 MLOAD PUSH3 0x461BCD PUSH1 0xE5 SHL DUP2 MSTORE PUSH1 0x4 DUP2 ADD DUP8 SWAP1 MSTORE PUSH1 0x27 PUSH1 0x24 DUP3 ADD MSTORE PUSH32 0x6E6F20706978656C73206F776E6564203D206E6F20766F74657320746F206265 PUSH1 0x44 DUP3 ADD MSTORE PUSH7 0x818D85CDD1959 PUSH1 0xCA SHL PUSH1 0x64 DUP3 ADD MSTORE PUSH1 0x84 SWAP1 REVERT JUMPDEST PUSH1 0x40 MLOAD PUSH3 0x461BCD PUSH1 0xE5 SHL DUP2 MSTORE PUSH1 0x4 DUP2 ADD DUP6 SWAP1 MSTORE PUSH1 0x19 PUSH1 0x24 DUP3 ADD MSTORE PUSH25 0x2B37BA34B7339031BAB93932B73A363C903737BA1037B832B7 PUSH1 0x39 SHL PUSH1 0x44 DUP3 ADD MSTORE PUSH1 0x64 SWAP1 REVERT JUMPDEST POP CALLVALUE PUSH2 0x2A2 JUMPI PUSH1 0x40 CALLDATASIZE PUSH1 0x3 NOT ADD SLT PUSH2 0x2A2 JUMPI PUSH1 0x20 PUSH2 0x1761 PUSH2 0x1753 PUSH2 0x2107 JUMP JUMPDEST PUSH2 0x175B PUSH2 0x2117 JUMP JUMPDEST SWAP1 PUSH2 0x2D75 JUMP JUMPDEST PUSH1 0x40 MLOAD SWAP1 DUP2 MSTORE RETURN JUMPDEST PUSH2 0x22EA JUMP JUMPDEST PUSH2 0x2323 JUMP JUMPDEST POP CALLVALUE PUSH2 0x2A2 JUMPI PUSH1 0x20 CALLDATASIZE PUSH1 0x3 NOT ADD SLT PUSH2 0x2A2 JUMPI PUSH1 0x4 CALLDATALOAD PUSH1 0x1 PUSH1 0x1 PUSH1 0xA0 SHL SUB DUP2 DUP2 AND SWAP2 DUP3 SWAP1 SUB PUSH2 0xFE1 JUMPI PUSH2 0x17AA SWAP1 PUSH1 0x1 SLOAD AND CALLER EQ PUSH2 0x2BC7 JUMP JUMPDEST PUSH1 0x3 DUP1 SLOAD PUSH1 0x1 PUSH1 0x1 PUSH1 0xA0 SHL SUB NOT AND SWAP2 SWAP1 SWAP2 OR SWAP1 SSTORE DUP1 RETURN JUMPDEST POP CALLVALUE PUSH2 0x2A2 JUMPI DUP1 PUSH1 0x3 NOT CALLDATASIZE ADD SLT PUSH2 0x2A2 JUMPI PUSH1 0x20 PUSH3 0x3F480 PUSH3 0x54600 PUSH2 0x17E8 PUSH1 0x2 SLOAD TIMESTAMP PUSH2 0x2BBA JUMP JUMPDEST MOD LT PUSH1 0x40 MLOAD SWAP1 DUP2 MSTORE RETURN JUMPDEST POP CALLVALUE PUSH2 0x2A2 JUMPI DUP1 PUSH1 0x3 NOT CALLDATASIZE ADD SLT PUSH2 0x2A2 JUMPI PUSH1 0x1 SLOAD PUSH1 0x40 MLOAD PUSH1 0x1 PUSH1 0x1 PUSH1 0xA0 SHL SUB SWAP1 SWAP2 AND DUP2 MSTORE PUSH1 0x20 SWAP1 RETURN JUMPDEST POP CALLVALUE PUSH2 0x2A2 JUMPI PUSH1 0x20 CALLDATASIZE PUSH1 0x3 NOT ADD SLT PUSH2 0x2A2 JUMPI PUSH1 0x4 CALLDATALOAD PUSH1 0x1 PUSH1 0x1 PUSH1 0x40 SHL SUB DUP2 GT PUSH2 0x322 JUMPI CALLDATASIZE PUSH1 0x23 DUP3 ADD SLT ISZERO PUSH2 0x322 JUMPI DUP1 PUSH1 0x4 ADD CALLDATALOAD SWAP1 PUSH2 0x1858 DUP3 PUSH2 0x217E JUMP JUMPDEST SWAP2 PUSH2 0x1866 PUSH1 0x40 MLOAD SWAP4 DUP5 PUSH2 0x215D JUMP JUMPDEST DUP1 DUP4 MSTORE PUSH1 0x24 PUSH1 0x20 DUP5 ADD SWAP2 PUSH1 0x5 SHL DUP4 ADD ADD SWAP2 CALLDATASIZE DUP4 GT PUSH2 0x1DE4 JUMPI PUSH1 0x24 DUP2 ADD SWAP2 JUMPDEST DUP4 DUP4 LT PUSH2 0x1D79 JUMPI DUP6 DUP6 PUSH3 0x3F480 PUSH3 0x54600 PUSH2 0x18A1 PUSH1 0x2 SLOAD TIMESTAMP PUSH2 0x2BBA JUMP JUMPDEST MOD LT ISZERO PUSH2 0x1D29 JUMPI DUP1 MLOAD PUSH1 0x40 MLOAD SWAP1 PUSH2 0x820 DUP3 ADD DUP3 DUP2 LT PUSH1 0x1 PUSH1 0x1 PUSH1 0x40 SHL SUB DUP3 GT OR PUSH2 0x1D15 JUMPI PUSH1 0x40 MSTORE PUSH1 0x40 DUP3 MSTORE PUSH2 0x800 CALLDATASIZE PUSH1 0x20 DUP5 ADD CALLDATACOPY DUP4 JUMPDEST PUSH1 0xFF DUP2 AND DUP3 DUP2 LT ISZERO PUSH2 0x1C10 JUMPI PUSH2 0x18ED SWAP1 DUP6 PUSH2 0x2446 JUMP JUMPDEST MLOAD DUP1 MLOAD DUP2 ADD SWAP1 DUP1 PUSH1 0x20 DUP4 ADD SWAP3 PUSH1 0x80 SWAP2 DUP3 SWAP2 SUB SLT PUSH2 0x1C0C JUMPI PUSH2 0x1910 PUSH1 0x20 DUP4 ADD PUSH2 0x2470 JUMP JUMPDEST SWAP3 PUSH2 0x191D PUSH1 0x40 DUP5 ADD PUSH2 0x2470 JUMP JUMPDEST SWAP3 PUSH2 0x192A PUSH1 0x60 DUP3 ADD PUSH2 0x2470 JUMP JUMPDEST SWAP3 DUP2 ADD MLOAD SWAP1 PUSH1 0x1 PUSH1 0x1 PUSH1 0x40 SHL SUB DUP3 GT PUSH2 0x1C04 JUMPI ADD DUP2 PUSH1 0x3F DUP3 ADD SLT ISZERO PUSH2 0x1C08 JUMPI PUSH1 0x20 DUP2 ADD MLOAD PUSH2 0x1957 DUP2 PUSH2 0x2308 JUMP JUMPDEST SWAP3 PUSH2 0x1965 PUSH1 0x40 MLOAD SWAP5 DUP6 PUSH2 0x215D JUMP JUMPDEST DUP2 DUP5 MSTORE PUSH1 0x40 DUP3 DUP5 ADD ADD GT PUSH2 0x1C04 JUMPI PUSH2 0x1984 SWAP2 PUSH1 0x40 PUSH1 0x20 DUP6 ADD SWAP2 ADD PUSH2 0x2243 JUMP JUMPDEST PUSH2 0x198E DUP4 DUP6 PUSH2 0x2D43 JUMP JUMPDEST PUSH2 0xBB8 JUMPI PUSH1 0xA PUSH1 0xFF DUP4 AND LT ISZERO PUSH2 0x1BC6 JUMPI PUSH1 0xFF DUP5 AND DUP10 MSTORE PUSH1 0x4 PUSH1 0x20 MSTORE PUSH1 0x40 DUP10 KECCAK256 PUSH1 0xFF DUP5 AND DUP11 MSTORE PUSH1 0x20 MSTORE PUSH1 0xFF PUSH1 0x4 PUSH1 0x40 DUP12 KECCAK256 ADD SLOAD AND PUSH2 0x1B69 JUMPI PUSH1 0xFF DUP5 AND DUP10 MSTORE PUSH1 0x4 PUSH1 0x20 MSTORE PUSH1 0x40 DUP10 KECCAK256 PUSH1 0xFF DUP5 AND DUP11 MSTORE PUSH1 0x20 MSTORE CALLER PUSH1 0x1 DUP1 PUSH1 0xA0 SHL SUB PUSH1 0x40 DUP12 KECCAK256 SLOAD AND EQ PUSH2 0x1A03 JUMPI JUMPDEST POP POP POP POP PUSH2 0x19FE SWAP1 PUSH2 0x241F JUMP JUMPDEST PUSH2 0x18D7 JUMP JUMPDEST PUSH2 0x1A2B SWAP1 PUSH1 0xFF DUP6 AND DUP11 MSTORE PUSH1 0x4 PUSH1 0x20 MSTORE PUSH1 0x40 DUP11 KECCAK256 PUSH1 0xFF DUP6 AND DUP12 MSTORE PUSH1 0x20 MSTORE PUSH1 0x2 PUSH1 0x40 DUP12 KECCAK256 ADD PUSH2 0x247E JUMP JUMPDEST PUSH1 0xFF DUP4 AND DUP9 MSTORE PUSH1 0x4 PUSH1 0x20 MSTORE PUSH1 0x40 DUP9 KECCAK256 PUSH1 0xFF DUP4 AND DUP10 MSTORE PUSH1 0x20 MSTORE PUSH1 0x40 DUP9 KECCAK256 SWAP1 DUP2 SLOAD SWAP1 PUSH1 0xFF PUSH1 0xA0 SHL SWAP1 PUSH1 0xA0 SHL AND SWAP1 PUSH1 0xFF PUSH1 0xA0 SHL NOT AND OR SWAP1 SSTORE PUSH1 0xFF PUSH2 0x1A6B DUP3 PUSH2 0x258D JUMP JUMPDEST AND PUSH1 0xFF DUP4 AND ADD PUSH1 0xFF DUP2 GT PUSH2 0x1B55 JUMPI PUSH1 0xFF AND PUSH1 0xFF DUP4 AND DUP9 MSTORE PUSH1 0x4 PUSH1 0x20 MSTORE PUSH1 0x40 DUP9 KECCAK256 PUSH1 0xFF DUP4 AND DUP10 MSTORE PUSH1 0x20 MSTORE PUSH2 0x1AE1 PUSH1 0xFF PUSH1 0x40 DUP11 KECCAK256 SLOAD PUSH1 0xA0 SHR AND DUP10 PUSH2 0x1AAC DUP7 PUSH2 0x25A2 JUMP JUMPDEST PUSH2 0x1ADB PUSH1 0x2 PUSH1 0x40 PUSH2 0x1ABC DUP10 PUSH2 0x25A2 JUMP JUMPDEST SWAP5 PUSH1 0xFF DUP12 AND DUP2 MSTORE PUSH1 0x4 PUSH1 0x20 MSTORE DUP2 DUP2 KECCAK256 PUSH1 0xFF DUP12 AND DUP3 MSTORE PUSH1 0x20 MSTORE KECCAK256 ADD PUSH2 0x2379 JUMP JUMPDEST SWAP3 PUSH2 0x2DE1 JUMP JUMPDEST SWAP1 PUSH2 0x1000 DUP2 LT ISZERO PUSH2 0x1B41 JUMPI PUSH2 0x19FE SWAP5 SWAP4 SWAP3 PUSH2 0x1B02 PUSH1 0xFF SWAP4 DUP5 SWAP4 PUSH1 0x5 ADD PUSH2 0x247E JUMP JUMPDEST PUSH1 0x1 PUSH2 0x1B10 DUP4 DUP4 AND DUP11 PUSH2 0x2446 JUMP JUMPDEST MSTORE AND SWAP2 AND PUSH32 0x99111963D0C1A319F038EC181C2CA7254B2EED4A32FD20BF8E0ED407BAC8B92B DUP9 DUP1 LOG3 SWAP1 DUP7 DUP1 DUP1 PUSH2 0x19F1 JUMP JUMPDEST PUSH4 0x4E487B71 PUSH1 0xE0 SHL DUP10 MSTORE PUSH1 0x32 PUSH1 0x4 MSTORE PUSH1 0x24 DUP10 REVERT JUMPDEST PUSH4 0x4E487B71 PUSH1 0xE0 SHL DUP9 MSTORE PUSH1 0x11 PUSH1 0x4 MSTORE PUSH1 0x24 DUP9 REVERT JUMPDEST PUSH1 0x40 MLOAD PUSH3 0x461BCD PUSH1 0xE5 SHL DUP2 MSTORE PUSH1 0x20 PUSH1 0x4 DUP3 ADD MSTORE PUSH1 0x2F PUSH1 0x24 DUP3 ADD MSTORE PUSH32 0x6F776E6572207761732061736B656420746F20666972737420736574746C6520 PUSH1 0x44 DUP3 ADD MSTORE PUSH15 0x1C9BDE585B1D1E481C185E5B595B9D PUSH1 0x8A SHL PUSH1 0x64 DUP3 ADD MSTORE PUSH1 0x84 SWAP1 REVERT JUMPDEST PUSH1 0x40 MLOAD PUSH3 0x461BCD PUSH1 0xE5 SHL DUP2 MSTORE PUSH1 0x20 PUSH1 0x4 DUP3 ADD MSTORE PUSH1 0x16 PUSH1 0x24 DUP3 ADD MSTORE PUSH22 0x7368617065204944206E6F7420617661696C61626C65 PUSH1 0x50 SHL PUSH1 0x44 DUP3 ADD MSTORE PUSH1 0x64 SWAP1 REVERT JUMPDEST DUP11 DUP1 REVERT JUMPDEST DUP10 DUP1 REVERT JUMPDEST DUP8 DUP1 REVERT JUMPDEST DUP4 DUP7 DUP1 JUMPDEST PUSH1 0xFF SWAP1 DUP2 DUP2 AND PUSH1 0x40 DUP2 LT ISZERO PUSH2 0x1D11 JUMPI PUSH2 0x1C2D SWAP1 DUP6 PUSH2 0x2446 JUMP JUMPDEST MLOAD PUSH2 0x1C3C JUMPI JUMPDEST PUSH1 0x1 ADD AND PUSH2 0x1C14 JUMP JUMPDEST PUSH1 0x40 MLOAD PUSH2 0x1C48 DUP2 PUSH2 0x2142 JUMP JUMPDEST DUP4 DUP2 MSTORE DUP3 PUSH2 0x1C55 DUP4 PUSH2 0x258D JUMP JUMPDEST AND DUP1 PUSH1 0x40 ADD SWAP1 PUSH2 0xFFFF SWAP1 DUP2 DUP4 GT PUSH2 0x1CFD JUMPI SWAP2 AND JUMPDEST DUP1 DUP3 LT PUSH2 0x1CA7 JUMPI POP POP PUSH1 0x40 DUP3 LT ISZERO PUSH2 0x1C93 JUMPI SWAP1 PUSH2 0x1C8C PUSH1 0x1 SWAP3 DUP3 PUSH2 0x1005 ADD PUSH2 0x247E JUMP JUMPDEST SWAP1 POP PUSH2 0x1C33 JUMP JUMPDEST PUSH4 0x4E487B71 PUSH1 0xE0 SHL DUP5 MSTORE PUSH1 0x32 PUSH1 0x4 MSTORE PUSH1 0x24 DUP5 REVERT JUMPDEST SWAP1 SWAP2 PUSH2 0x1000 DUP4 LT ISZERO PUSH2 0x1CE9 JUMPI PUSH1 0x20 PUSH2 0xF8D PUSH2 0x1CE3 SWAP3 PUSH2 0xF7F PUSH1 0x40 MLOAD SWAP4 DUP3 PUSH2 0x1CD7 DUP7 SWAP5 MLOAD DUP1 SWAP3 DUP5 DUP1 DUP9 ADD SWAP2 ADD PUSH2 0x2243 JUMP JUMPDEST DUP4 ADD ADD DUP8 PUSH1 0x5 ADD PUSH2 0x3577 JUMP JUMPDEST SWAP1 PUSH2 0x1C69 JUMP JUMPDEST PUSH4 0x4E487B71 PUSH1 0xE0 SHL DUP7 MSTORE PUSH1 0x32 PUSH1 0x4 MSTORE PUSH1 0x24 DUP7 REVERT JUMPDEST PUSH4 0x4E487B71 PUSH1 0xE0 SHL DUP8 MSTORE PUSH1 0x11 PUSH1 0x4 MSTORE PUSH1 0x24 DUP8 REVERT JUMPDEST DUP4 DUP1 RETURN JUMPDEST PUSH4 0x4E487B71 PUSH1 0xE0 SHL DUP6 MSTORE PUSH1 0x41 PUSH1 0x4 MSTORE PUSH1 0x24 DUP6 REVERT JUMPDEST PUSH1 0x40 MLOAD PUSH3 0x461BCD PUSH1 0xE5 SHL DUP2 MSTORE PUSH1 0x20 PUSH1 0x4 DUP3 ADD MSTORE PUSH1 0x22 PUSH1 0x24 DUP3 ADD MSTORE PUSH32 0x417274697374696320706572696F642063757272656E746C79206E6F74206F70 PUSH1 0x44 DUP3 ADD MSTORE PUSH2 0x32B7 PUSH1 0xF1 SHL PUSH1 0x64 DUP3 ADD MSTORE PUSH1 0x84 SWAP1 REVERT JUMPDEST DUP3 CALLDATALOAD PUSH1 0x1 PUSH1 0x1 PUSH1 0x40 SHL SUB DUP2 GT PUSH2 0x1DE0 JUMPI DUP3 ADD CALLDATASIZE PUSH1 0x43 DUP3 ADD SLT ISZERO PUSH2 0x1DE0 JUMPI PUSH1 0x24 DUP2 ADD CALLDATALOAD SWAP2 PUSH2 0x1DA5 DUP4 PUSH2 0x2308 JUMP JUMPDEST PUSH2 0x1DB2 PUSH1 0x40 MLOAD SWAP2 DUP3 PUSH2 0x215D JUMP JUMPDEST DUP4 DUP2 MSTORE DUP9 PUSH1 0x44 CALLDATASIZE DUP2 DUP8 DUP8 ADD ADD GT PUSH2 0x322 JUMPI DUP6 PUSH1 0x20 SWAP7 DUP8 SWAP7 SWAP3 DUP8 SWAP4 ADD DUP4 DUP7 ADD CALLDATACOPY DUP4 ADD ADD MSTORE DUP2 MSTORE ADD SWAP3 ADD SWAP2 PUSH2 0x1884 JUMP JUMPDEST DUP7 DUP1 REVERT JUMPDEST DUP5 DUP1 REVERT JUMPDEST POP CALLVALUE PUSH2 0x2A2 JUMPI PUSH2 0x1E00 PUSH2 0x1DFA CALLDATASIZE PUSH2 0x21FD JUMP JUMPDEST SWAP1 PUSH2 0x2663 JUMP JUMPDEST DUP1 RETURN JUMPDEST POP CALLVALUE PUSH2 0x2A2 JUMPI PUSH1 0x20 CALLDATASIZE PUSH1 0x3 NOT ADD SLT PUSH2 0x2A2 JUMPI PUSH1 0x40 DUP1 SWAP2 PUSH1 0x4 CALLDATALOAD DUP2 MSTORE PUSH2 0x1046 PUSH1 0x20 MSTORE KECCAK256 SLOAD DUP2 MLOAD SWAP1 PUSH2 0xFFFF SWAP1 DUP2 DUP2 AND DUP4 MSTORE PUSH1 0x10 SHR AND PUSH1 0x20 DUP3 ADD MSTORE RETURN JUMPDEST POP CALLVALUE PUSH2 0x2A2 JUMPI DUP1 PUSH1 0x3 NOT CALLDATASIZE ADD SLT PUSH2 0x2A2 JUMPI PUSH1 0x20 PUSH1 0x40 MLOAD PUSH3 0x54600 DUP2 MSTORE RETURN JUMPDEST POP CALLVALUE PUSH2 0x2A2 JUMPI PUSH1 0x20 CALLDATASIZE PUSH1 0x3 NOT ADD SLT PUSH2 0x2A2 JUMPI PUSH1 0x4 CALLDATALOAD PUSH1 0x1 PUSH1 0x1 PUSH1 0xA0 SHL SUB DUP2 AND SWAP1 DUP2 SWAP1 SUB PUSH2 0x322 JUMPI PUSH1 0x40 PUSH1 0x20 SWAP3 PUSH1 0xFF SWAP3 PUSH3 0x54600 PUSH2 0x1E9A PUSH1 0x2 SLOAD TIMESTAMP PUSH2 0x2BBA JUMP JUMPDEST DIV DUP3 MSTORE PUSH2 0x1046 DUP6 MSTORE PUSH1 0x1 DUP4 DUP4 KECCAK256 ADD SWAP1 DUP3 MSTORE DUP5 MSTORE KECCAK256 SLOAD AND PUSH1 0x40 MLOAD SWAP1 ISZERO ISZERO DUP2 MSTORE RETURN JUMPDEST POP CALLVALUE PUSH2 0x2A2 JUMPI PUSH2 0x1EC9 CALLDATASIZE PUSH2 0x21FD JUMP JUMPDEST PUSH2 0x1ED6 DUP3 MLOAD DUP3 MLOAD EQ PUSH2 0x25C9 JUMP JUMPDEST DUP2 MLOAD SWAP1 PUSH2 0x1EE2 DUP3 PUSH2 0x217E JUMP JUMPDEST SWAP3 PUSH2 0x1EF0 PUSH1 0x40 MLOAD SWAP5 DUP6 PUSH2 0x215D JUMP JUMPDEST DUP3 DUP5 MSTORE PUSH1 0x1F NOT PUSH2 0x1EFF DUP5 PUSH2 0x217E JUMP JUMPDEST ADD DUP6 JUMPDEST DUP2 DUP2 LT PUSH2 0x1FB6 JUMPI POP POP DUP5 JUMPDEST DUP4 DUP2 LT PUSH2 0x1F72 JUMPI PUSH1 0x40 DUP1 MLOAD PUSH1 0x20 DUP1 DUP3 MSTORE DUP8 MLOAD DUP2 DUP4 ADD DUP2 SWAP1 MSTORE DUP10 SWAP4 PUSH1 0x5 DUP3 SWAP1 SHL DUP5 ADD DUP2 ADD SWAP3 DUP1 DUP12 ADD SWAP3 SWAP2 DUP6 ADD JUMPDEST DUP3 DUP8 LT PUSH2 0x1F46 JUMPI DUP6 DUP6 SUB DUP7 RETURN JUMPDEST SWAP1 SWAP2 SWAP3 SWAP4 DUP3 DUP1 PUSH2 0x1F62 PUSH1 0x1 SWAP4 PUSH1 0x3F NOT DUP11 DUP3 SUB ADD DUP7 MSTORE DUP9 MLOAD PUSH2 0x228B JUMP JUMPDEST SWAP7 ADD SWAP3 ADD SWAP7 ADD SWAP6 SWAP3 SWAP2 SWAP1 SWAP3 PUSH2 0x1F39 JUMP JUMPDEST PUSH1 0x1 SWAP1 PUSH2 0x1F9A PUSH1 0xFF DUP1 PUSH2 0x1F85 DUP5 DUP8 PUSH2 0x2446 JUMP JUMPDEST MLOAD AND SWAP1 PUSH2 0x1F92 DUP5 DUP9 PUSH2 0x2446 JUMP JUMPDEST MLOAD AND SWAP1 PUSH2 0x2C60 JUMP JUMPDEST PUSH2 0x1FA4 DUP3 DUP9 PUSH2 0x2446 JUMP JUMPDEST MSTORE PUSH2 0x1FAF DUP2 DUP8 PUSH2 0x2446 JUMP JUMPDEST POP ADD PUSH2 0x1F0D JUMP JUMPDEST PUSH1 0x20 SWAP1 PUSH2 0x1FC1 PUSH2 0x2C28 JUMP JUMPDEST DUP3 DUP3 DUP10 ADD ADD MSTORE ADD PUSH2 0x1F02 JUMP JUMPDEST POP CALLVALUE PUSH2 0x2A2 JUMPI PUSH1 0x60 CALLDATASIZE PUSH1 0x3 NOT ADD SLT PUSH2 0x2A2 JUMPI PUSH2 0x1FE7 PUSH2 0x2107 JUMP JUMPDEST PUSH1 0xFF PUSH2 0x1FF1 PUSH2 0x2117 JUMP JUMPDEST SWAP2 PUSH2 0x2007 PUSH1 0x1 DUP1 PUSH1 0xA0 SHL SUB PUSH1 0x1 SLOAD AND CALLER EQ PUSH2 0x2BC7 JUMP JUMPDEST AND DUP1 DUP4 MSTORE PUSH1 0x20 SWAP1 PUSH1 0x4 DUP3 MSTORE PUSH1 0xFF PUSH1 0x40 DUP6 KECCAK256 SWAP4 AND SWAP3 DUP4 DUP6 MSTORE DUP3 MSTORE PUSH1 0xFF PUSH1 0x4 PUSH1 0x40 DUP7 KECCAK256 ADD SLOAD AND DUP1 PUSH2 0x20C6 JUMPI JUMPDEST ISZERO PUSH2 0x208A JUMPI DUP1 DUP5 MSTORE PUSH1 0x4 DUP3 MSTORE PUSH1 0x40 DUP5 KECCAK256 DUP4 DUP6 MSTORE DUP3 MSTORE PUSH1 0x44 CALLDATALOAD PUSH1 0x1 PUSH1 0x40 DUP7 KECCAK256 ADD SSTORE DUP1 DUP5 MSTORE PUSH1 0x4 DUP3 MSTORE PUSH1 0x40 DUP5 KECCAK256 DUP4 DUP6 MSTORE DUP3 MSTORE PUSH1 0x4 PUSH1 0x40 DUP6 KECCAK256 ADD PUSH1 0xFF NOT DUP2 SLOAD AND SWAP1 SSTORE DUP4 MSTORE PUSH1 0x4 DUP2 MSTORE PUSH1 0x40 DUP4 KECCAK256 SWAP2 DUP4 MSTORE MSTORE DUP1 PUSH1 0x5 PUSH1 0x40 DUP3 KECCAK256 ADD SSTORE DUP1 RETURN JUMPDEST DUP1 DUP5 MSTORE PUSH1 0x4 DUP3 MSTORE PUSH1 0x40 DUP5 KECCAK256 DUP4 DUP6 MSTORE DUP3 MSTORE PUSH1 0x4 PUSH1 0x40 DUP6 KECCAK256 ADD PUSH1 0x1 PUSH1 0xFF NOT DUP3 SLOAD AND OR SWAP1 SSTORE DUP4 MSTORE PUSH1 0x4 DUP2 MSTORE PUSH1 0x40 DUP4 KECCAK256 SWAP2 DUP4 MSTORE MSTORE TIMESTAMP PUSH1 0x5 PUSH1 0x40 DUP4 KECCAK256 ADD SSTORE DUP1 RETURN JUMPDEST POP DUP1 DUP5 MSTORE PUSH1 0x4 DUP3 MSTORE PUSH1 0x40 DUP5 KECCAK256 DUP4 DUP6 MSTORE DUP3 MSTORE PUSH1 0x5 PUSH1 0x40 DUP6 KECCAK256 ADD SLOAD PUSH3 0x3F480 DUP2 ADD DUP1 SWAP2 GT PUSH2 0x20F3 JUMPI TIMESTAMP GT PUSH2 0x2031 JUMP JUMPDEST PUSH4 0x4E487B71 PUSH1 0xE0 SHL DUP6 MSTORE PUSH1 0x11 PUSH1 0x4 MSTORE PUSH1 0x24 DUP6 REVERT JUMPDEST PUSH1 0x4 CALLDATALOAD SWAP1 PUSH1 0xFF DUP3 AND DUP3 SUB PUSH2 0x87B JUMPI JUMP JUMPDEST PUSH1 0x24 CALLDATALOAD SWAP1 PUSH1 0xFF DUP3 AND DUP3 SUB PUSH2 0x87B JUMPI JUMP JUMPDEST PUSH1 0xE0 DUP2 ADD SWAP1 DUP2 LT PUSH1 0x1 PUSH1 0x1 PUSH1 0x40 SHL SUB DUP3 GT OR PUSH2 0x27E JUMPI PUSH1 0x40 MSTORE JUMP JUMPDEST PUSH1 0x20 DUP2 ADD SWAP1 DUP2 LT PUSH1 0x1 PUSH1 0x1 PUSH1 0x40 SHL SUB DUP3 GT OR PUSH2 0x27E JUMPI PUSH1 0x40 MSTORE JUMP JUMPDEST SWAP1 PUSH1 0x1F DUP1 NOT SWAP2 ADD AND DUP2 ADD SWAP1 DUP2 LT PUSH1 0x1 PUSH1 0x1 PUSH1 0x40 SHL SUB DUP3 GT OR PUSH2 0x27E JUMPI PUSH1 0x40 MSTORE JUMP JUMPDEST PUSH1 0x1 PUSH1 0x1 PUSH1 0x40 SHL SUB DUP2 GT PUSH2 0x27E JUMPI PUSH1 0x5 SHL PUSH1 0x20 ADD SWAP1 JUMP JUMPDEST DUP2 PUSH1 0x1F DUP3 ADD SLT ISZERO PUSH2 0x87B JUMPI DUP1 CALLDATALOAD SWAP2 PUSH2 0x21AC DUP4 PUSH2 0x217E JUMP JUMPDEST SWAP3 PUSH2 0x21BA PUSH1 0x40 MLOAD SWAP5 DUP6 PUSH2 0x215D JUMP JUMPDEST DUP1 DUP5 MSTORE PUSH1 0x20 SWAP3 DUP4 DUP1 DUP7 ADD SWAP3 PUSH1 0x5 SHL DUP3 ADD ADD SWAP3 DUP4 GT PUSH2 0x87B JUMPI DUP4 ADD SWAP1 JUMPDEST DUP3 DUP3 LT PUSH2 0x21E4 JUMPI POP POP POP POP SWAP1 JUMP JUMPDEST DUP2 CALLDATALOAD PUSH1 0xFF DUP2 AND DUP2 SUB PUSH2 0x87B JUMPI DUP2 MSTORE SWAP1 DUP4 ADD SWAP1 DUP4 ADD PUSH2 0x21D6 JUMP JUMPDEST SWAP1 PUSH1 0x40 PUSH1 0x3 NOT DUP4 ADD SLT PUSH2 0x87B JUMPI PUSH1 0x1 PUSH1 0x1 PUSH1 0x40 SHL SUB PUSH1 0x4 CALLDATALOAD DUP2 DUP2 GT PUSH2 0x87B JUMPI DUP4 PUSH2 0x2229 SWAP2 PUSH1 0x4 ADD PUSH2 0x2195 JUMP JUMPDEST SWAP3 PUSH1 0x24 CALLDATALOAD SWAP2 DUP3 GT PUSH2 0x87B JUMPI PUSH2 0x2240 SWAP2 PUSH1 0x4 ADD PUSH2 0x2195 JUMP JUMPDEST SWAP1 JUMP JUMPDEST PUSH1 0x0 JUMPDEST DUP4 DUP2 LT PUSH2 0x2256 JUMPI POP POP PUSH1 0x0 SWAP2 ADD MSTORE JUMP JUMPDEST DUP2 DUP2 ADD MLOAD DUP4 DUP3 ADD MSTORE PUSH1 0x20 ADD PUSH2 0x2246 JUMP JUMPDEST SWAP1 PUSH1 0x20 SWAP2 PUSH2 0x227F DUP2 MLOAD DUP1 SWAP3 DUP2 DUP6 MSTORE DUP6 DUP1 DUP7 ADD SWAP2 ADD PUSH2 0x2243 JUMP JUMPDEST PUSH1 0x1F ADD PUSH1 0x1F NOT AND ADD ADD SWAP1 JUMP JUMPDEST SWAP1 PUSH1 0x1 DUP1 PUSH1 0xA0 SHL SUB DUP3 MLOAD AND DUP2 MSTORE PUSH1 0xFF PUSH1 0x20 DUP4 ADD MLOAD AND PUSH1 0x20 DUP3 ADD MSTORE PUSH1 0x40 DUP3 ADD MLOAD PUSH1 0x40 DUP3 ADD MSTORE PUSH1 0xC0 DUP1 PUSH2 0x22CB PUSH1 0x60 DUP6 ADD MLOAD PUSH1 0xE0 PUSH1 0x60 DUP7 ADD MSTORE PUSH1 0xE0 DUP6 ADD SWAP1 PUSH2 0x2266 JUMP JUMPDEST SWAP4 PUSH1 0x80 DUP2 ADD MLOAD PUSH1 0x80 DUP6 ADD MSTORE PUSH1 0xA0 DUP2 ADD MLOAD ISZERO ISZERO PUSH1 0xA0 DUP6 ADD MSTORE ADD MLOAD SWAP2 ADD MSTORE SWAP1 JUMP JUMPDEST CALLVALUE PUSH2 0x87B JUMPI PUSH1 0x0 CALLDATASIZE PUSH1 0x3 NOT ADD SLT PUSH2 0x87B JUMPI PUSH1 0x20 PUSH1 0x40 MLOAD PUSH3 0x3F480 DUP2 MSTORE RETURN JUMPDEST PUSH1 0x1 PUSH1 0x1 PUSH1 0x40 SHL SUB DUP2 GT PUSH2 0x27E JUMPI PUSH1 0x1F ADD PUSH1 0x1F NOT AND PUSH1 0x20 ADD SWAP1 JUMP JUMPDEST CALLVALUE PUSH2 0x87B JUMPI PUSH1 0x0 CALLDATASIZE PUSH1 0x3 NOT ADD SLT PUSH2 0x87B JUMPI PUSH1 0x20 PUSH1 0x40 MLOAD PUSH1 0x40 DUP2 MSTORE RETURN JUMPDEST SWAP1 PUSH1 0x1 DUP3 DUP2 SHR SWAP3 AND DUP1 ISZERO PUSH2 0x236F JUMPI JUMPDEST PUSH1 0x20 DUP4 LT EQ PUSH2 0x2359 JUMPI JUMP JUMPDEST PUSH4 0x4E487B71 PUSH1 0xE0 SHL PUSH1 0x0 MSTORE PUSH1 0x22 PUSH1 0x4 MSTORE PUSH1 0x24 PUSH1 0x0 REVERT JUMPDEST SWAP2 PUSH1 0x7F AND SWAP2 PUSH2 0x234E JUMP JUMPDEST SWAP1 PUSH1 0x40 MLOAD SWAP2 DUP3 PUSH1 0x0 DUP3 SLOAD SWAP3 PUSH2 0x238D DUP5 PUSH2 0x233F JUMP JUMPDEST SWAP1 DUP2 DUP5 MSTORE PUSH1 0x1 SWAP5 DUP6 DUP2 AND SWAP1 DUP2 PUSH1 0x0 EQ PUSH2 0x23FC JUMPI POP PUSH1 0x1 EQ PUSH2 0x23B9 JUMPI JUMPDEST POP POP PUSH2 0x23B7 SWAP3 POP SUB DUP4 PUSH2 0x215D JUMP JUMPDEST JUMP JUMPDEST SWAP1 SWAP4 SWAP2 POP PUSH1 0x0 MSTORE PUSH1 0x20 SWAP1 DUP2 PUSH1 0x0 KECCAK256 SWAP4 PUSH1 0x0 SWAP2 JUMPDEST DUP2 DUP4 LT PUSH2 0x23E4 JUMPI POP POP PUSH2 0x23B7 SWAP4 POP DUP3 ADD ADD CODESIZE DUP1 PUSH2 0x23A9 JUMP JUMPDEST DUP6 SLOAD DUP9 DUP5 ADD DUP6 ADD MSTORE SWAP5 DUP6 ADD SWAP5 DUP8 SWAP5 POP SWAP2 DUP4 ADD SWAP2 PUSH2 0x23CC JUMP JUMPDEST SWAP2 POP POP PUSH2 0x23B7 SWAP5 POP PUSH1 0x20 SWAP3 POP PUSH1 0xFF NOT AND DUP3 DUP5 ADD MSTORE ISZERO ISZERO PUSH1 0x5 SHL DUP3 ADD ADD CODESIZE DUP1 PUSH2 0x23A9 JUMP JUMPDEST PUSH1 0xFF AND PUSH1 0xFF DUP2 EQ PUSH2 0x2430 JUMPI PUSH1 0x1 ADD SWAP1 JUMP JUMPDEST PUSH4 0x4E487B71 PUSH1 0xE0 SHL PUSH1 0x0 MSTORE PUSH1 0x11 PUSH1 0x4 MSTORE PUSH1 0x24 PUSH1 0x0 REVERT JUMPDEST DUP1 MLOAD DUP3 LT ISZERO PUSH2 0x245A JUMPI PUSH1 0x20 SWAP2 PUSH1 0x5 SHL ADD ADD SWAP1 JUMP JUMPDEST PUSH4 0x4E487B71 PUSH1 0xE0 SHL PUSH1 0x0 MSTORE PUSH1 0x32 PUSH1 0x4 MSTORE PUSH1 0x24 PUSH1 0x0 REVERT JUMPDEST MLOAD SWAP1 PUSH1 0xFF DUP3 AND DUP3 SUB PUSH2 0x87B JUMPI JUMP JUMPDEST SWAP2 SWAP1 SWAP2 DUP3 MLOAD PUSH1 0x1 PUSH1 0x1 PUSH1 0x40 SHL SUB DUP2 GT PUSH2 0x27E JUMPI PUSH2 0x249B DUP3 SLOAD PUSH2 0x233F JUMP JUMPDEST PUSH1 0x1F DUP2 GT PUSH2 0x2545 JUMPI JUMPDEST POP PUSH1 0x20 DUP1 PUSH1 0x1F DUP4 GT PUSH1 0x1 EQ PUSH2 0x24E1 JUMPI POP DUP2 SWAP3 SWAP4 SWAP5 PUSH1 0x0 SWAP3 PUSH2 0x24D6 JUMPI JUMPDEST POP POP DUP2 PUSH1 0x1 SHL SWAP2 PUSH1 0x0 NOT SWAP1 PUSH1 0x3 SHL SHR NOT AND OR SWAP1 SSTORE JUMP JUMPDEST ADD MLOAD SWAP1 POP CODESIZE DUP1 PUSH2 0x24C0 JUMP JUMPDEST SWAP1 PUSH1 0x1F NOT DUP4 AND SWAP6 DUP5 PUSH1 0x0 MSTORE DUP3 PUSH1 0x0 KECCAK256 SWAP3 PUSH1 0x0 SWAP1 JUMPDEST DUP9 DUP3 LT PUSH2 0x252D JUMPI POP POP DUP4 PUSH1 0x1 SWAP6 SWAP7 SWAP8 LT PUSH2 0x2514 JUMPI JUMPDEST POP POP POP DUP2 SHL ADD SWAP1 SSTORE JUMP JUMPDEST ADD MLOAD PUSH1 0x0 NOT PUSH1 0xF8 DUP5 PUSH1 0x3 SHL AND SHR NOT AND SWAP1 SSTORE CODESIZE DUP1 DUP1 PUSH2 0x250A JUMP JUMPDEST DUP1 PUSH1 0x1 DUP6 SWAP7 DUP3 SWAP5 SWAP7 DUP7 ADD MLOAD DUP2 SSTORE ADD SWAP6 ADD SWAP4 ADD SWAP1 PUSH2 0x24F5 JUMP JUMPDEST PUSH1 0x0 DUP4 DUP2 MSTORE PUSH1 0x20 DUP2 KECCAK256 PUSH1 0x1F DUP5 ADD PUSH1 0x5 SHR DUP2 ADD SWAP3 PUSH1 0x20 DUP6 LT PUSH2 0x2583 JUMPI JUMPDEST PUSH1 0x1F ADD PUSH1 0x5 SHR ADD SWAP2 JUMPDEST DUP3 DUP2 LT PUSH2 0x2578 JUMPI POP POP PUSH2 0x24A4 JUMP JUMPDEST DUP2 DUP2 SSTORE PUSH1 0x1 ADD PUSH2 0x256A JUMP JUMPDEST SWAP1 SWAP3 POP DUP3 SWAP1 PUSH2 0x2561 JUMP JUMPDEST PUSH1 0x6 SHL SWAP1 PUSH2 0x3FC0 PUSH1 0xC0 DUP4 AND SWAP3 AND DUP3 SUB PUSH2 0x2430 JUMPI JUMP JUMPDEST PUSH1 0xFF PUSH1 0x9 SWAP2 AND MUL SWAP1 PUSH1 0xFF DUP3 AND SWAP2 DUP3 SUB PUSH2 0x2430 JUMPI JUMP JUMPDEST PUSH1 0xFF PUSH1 0x4 SWAP2 AND ADD SWAP1 PUSH1 0xFF DUP3 GT PUSH2 0x2430 JUMPI JUMP JUMPDEST ISZERO PUSH2 0x25D0 JUMPI JUMP JUMPDEST PUSH1 0x40 MLOAD PUSH3 0x461BCD PUSH1 0xE5 SHL DUP2 MSTORE PUSH1 0x20 PUSH1 0x4 DUP3 ADD MSTORE PUSH1 0x2B PUSH1 0x24 DUP3 ADD MSTORE PUSH32 0x7820616E64207920696E7075742061727261797320617265206F662076617269 PUSH1 0x44 DUP3 ADD MSTORE PUSH11 0x6F7573206C656E67746873 PUSH1 0xA8 SHL PUSH1 0x64 DUP3 ADD MSTORE PUSH1 0x84 SWAP1 REVERT JUMPDEST SWAP1 DUP2 PUSH1 0x20 SWAP2 SUB SLT PUSH2 0x87B JUMPI MLOAD DUP1 ISZERO ISZERO DUP2 SUB PUSH2 0x87B JUMPI SWAP1 JUMP JUMPDEST PUSH1 0x1 PUSH1 0x1 PUSH1 0xA0 SHL SUB SWAP2 DUP3 AND DUP2 MSTORE SWAP2 AND PUSH1 0x20 DUP3 ADD MSTORE PUSH1 0x40 DUP2 ADD SWAP2 SWAP1 SWAP2 MSTORE PUSH1 0x60 ADD SWAP1 JUMP JUMPDEST SWAP2 SWAP1 PUSH2 0x2672 DUP4 MLOAD DUP3 MLOAD EQ PUSH2 0x25C9 JUMP JUMPDEST DUP3 MLOAD SWAP2 PUSH1 0x0 JUMPDEST PUSH1 0xFF DUP1 DUP3 AND SWAP1 DUP6 DUP3 LT ISZERO PUSH2 0x2AC4 JUMPI PUSH2 0x26A1 DUP2 PUSH2 0x2694 DUP5 DUP11 PUSH2 0x2446 JUMP JUMPDEST MLOAD AND DUP3 PUSH2 0x373 DUP6 DUP10 PUSH2 0x2446 JUMP JUMPDEST PUSH2 0xBB8 JUMPI DUP1 PUSH2 0x26B0 DUP4 DUP10 PUSH2 0x2446 JUMP JUMPDEST MLOAD AND PUSH1 0x0 MSTORE PUSH1 0x4 PUSH1 0x20 DUP2 DUP2 MSTORE PUSH1 0x40 SWAP2 DUP3 PUSH1 0x0 KECCAK256 DUP5 PUSH2 0x26CE DUP8 DUP12 PUSH2 0x2446 JUMP JUMPDEST MLOAD AND PUSH1 0x0 MSTORE DUP3 MSTORE PUSH1 0x1 DUP1 PUSH1 0xA0 SHL SUB CALLER DUP2 DUP6 PUSH1 0x0 KECCAK256 SLOAD AND SUB PUSH2 0x2A77 JUMPI DUP5 PUSH2 0x26F4 DUP8 DUP14 PUSH2 0x2446 JUMP JUMPDEST MLOAD AND PUSH1 0x0 MSTORE DUP2 DUP4 MSTORE DUP4 PUSH1 0x0 KECCAK256 DUP6 PUSH2 0x270B DUP9 DUP13 PUSH2 0x2446 JUMP JUMPDEST MLOAD AND PUSH1 0x0 MSTORE DUP4 MSTORE PUSH1 0x3 SWAP1 DUP10 DUP13 TIMESTAMP DUP5 DUP9 PUSH1 0x0 KECCAK256 ADD SLOAD SUB PUSH2 0x273C JUMPI JUMPDEST POP POP POP POP POP POP POP POP POP PUSH2 0x2737 SWAP1 PUSH2 0x241F JUMP JUMPDEST PUSH2 0x2678 JUMP JUMPDEST SWAP1 DUP8 PUSH2 0x4A3 DUP11 DUP3 PUSH2 0x2750 DUP3 PUSH2 0x2758 SWAP8 PUSH2 0x2446 JUMP JUMPDEST MLOAD AND SWAP4 PUSH2 0x2446 JUMP JUMPDEST SWAP1 DUP1 DUP4 SLOAD AND SWAP1 DUP7 MLOAD PUSH4 0x70A08231 PUSH1 0xE0 SHL DUP2 MSTORE CALLER DUP7 DUP3 ADD MSTORE PUSH1 0x24 SWAP1 DUP8 DUP2 DUP4 DUP2 DUP8 GAS STATICCALL SWAP1 DUP2 ISZERO PUSH2 0x29EB JUMPI SWAP1 DUP6 SWAP2 PUSH1 0x0 SWAP2 PUSH2 0x2A47 JUMPI JUMPDEST POP LT PUSH2 0x29F6 JUMPI DUP8 MLOAD PUSH4 0x6EB1769F PUSH1 0xE1 SHL DUP2 MSTORE CALLER DUP8 DUP3 ADD SWAP1 DUP2 MSTORE ADDRESS PUSH1 0x20 DUP3 ADD MSTORE DUP9 SWAP1 DUP3 SWAP1 DUP2 SWAP1 PUSH1 0x40 ADD SUB DUP2 DUP8 GAS STATICCALL SWAP1 DUP2 ISZERO PUSH2 0x29EB JUMPI SWAP1 DUP6 SWAP2 PUSH1 0x0 SWAP2 PUSH2 0x29BB JUMPI JUMPDEST POP LT PUSH2 0x296A JUMPI POP SWAP2 DUP6 SWAP2 PUSH2 0x27F9 SWAP4 PUSH1 0x1 SLOAD AND PUSH1 0x0 DUP10 MLOAD DUP1 SWAP7 DUP2 SWAP6 DUP3 SWAP5 PUSH4 0x23B872DD PUSH1 0xE0 SHL DUP5 MSTORE CALLER DUP13 DUP6 ADD PUSH2 0x2641 JUMP JUMPDEST SUB SWAP3 GAS CALL DUP1 ISZERO PUSH2 0x295F JUMPI SWAP3 DUP8 SWAP7 SWAP6 SWAP3 PUSH2 0x2737 SWAP10 SWAP9 SWAP6 SWAP3 DUP15 SWAP6 PUSH2 0x2942 JUMPI JUMPDEST POP DUP7 PUSH2 0x2822 DUP8 DUP8 PUSH2 0x2446 JUMP JUMPDEST MLOAD AND PUSH1 0x0 MSTORE DUP2 DUP4 MSTORE DUP12 DUP8 PUSH2 0x283A DUP9 DUP8 PUSH1 0x0 KECCAK256 SWAP4 PUSH2 0x2446 JUMP JUMPDEST MLOAD AND PUSH1 0x0 MSTORE DUP4 MSTORE TIMESTAMP SWAP1 DUP5 PUSH1 0x0 KECCAK256 ADD SSTORE DUP6 PUSH2 0x2854 DUP7 DUP7 PUSH2 0x2446 JUMP JUMPDEST MLOAD AND PUSH1 0x0 MSTORE DUP1 DUP3 MSTORE DUP11 DUP7 PUSH2 0x286C DUP8 DUP7 PUSH1 0x0 KECCAK256 SWAP4 PUSH2 0x2446 JUMP JUMPDEST MLOAD AND PUSH1 0x0 MSTORE DUP3 MSTORE DUP6 DUP12 DUP2 DUP4 DUP7 PUSH1 0x0 KECCAK256 ADD SLOAD AND PUSH2 0x28D6 JUMPI JUMPDEST POP SWAP4 SWAP1 POP PUSH2 0x2897 SWAP3 POP PUSH2 0x28A0 SWAP5 SWAP2 POP PUSH2 0x2446 JUMP JUMPDEST MLOAD AND SWAP3 DUP8 PUSH2 0x2446 JUMP JUMPDEST MLOAD AND SWAP1 PUSH32 0x86D6CB594AA6246461B8CE6B17FBD44C5F0E7AB32645D9035DA6FED5BA78EB1B PUSH1 0x0 DUP1 LOG3 SWAP1 CODESIZE DUP1 DUP1 DUP1 DUP1 DUP1 DUP10 DUP13 PUSH2 0x2725 JUMP JUMPDEST DUP7 DUP7 PUSH2 0x2918 SWAP3 DUP5 PUSH2 0x28EB PUSH1 0x0 SWAP12 PUSH1 0x5 SWAP12 PUSH2 0x2446 JUMP JUMPDEST MLOAD AND DUP11 MSTORE DUP6 DUP8 MSTORE DUP5 PUSH2 0x2900 DUP5 DUP11 DUP14 KECCAK256 SWAP4 PUSH2 0x2446 JUMP JUMPDEST MLOAD AND DUP11 MSTORE DUP7 MSTORE DUP7 DUP10 KECCAK256 DUP6 ADD DUP1 SLOAD PUSH1 0xFF NOT AND SWAP1 SSTORE PUSH2 0x2446 JUMP JUMPDEST MLOAD AND DUP6 MSTORE DUP2 MSTORE DUP2 DUP5 KECCAK256 SWAP1 DUP6 PUSH2 0x292D DUP9 DUP14 PUSH2 0x2446 JUMP JUMPDEST MLOAD AND DUP6 MSTORE MSTORE DUP3 KECCAK256 ADD SSTORE DUP2 DUP9 CODESIZE DUP1 DUP1 DUP6 DUP12 PUSH2 0x2883 JUMP JUMPDEST PUSH2 0x2958 SWAP1 DUP5 RETURNDATASIZE DUP7 GT PUSH2 0x811 JUMPI PUSH2 0x802 DUP2 DUP4 PUSH2 0x215D JUMP JUMPDEST POP CODESIZE PUSH2 0x2816 JUMP JUMPDEST DUP6 MLOAD RETURNDATASIZE PUSH1 0x0 DUP3 RETURNDATACOPY RETURNDATASIZE SWAP1 REVERT JUMPDEST DUP6 PUSH1 0x27 PUSH1 0x84 SWAP3 DUP10 DUP12 MLOAD SWAP4 PUSH3 0x461BCD PUSH1 0xE5 SHL DUP6 MSTORE DUP5 ADD MSTORE DUP3 ADD MSTORE PUSH32 0x696E73756666696369656E7420616C6C6F77616E636520746F2070617920726F PUSH1 0x44 DUP3 ADD MSTORE PUSH7 0x79616C74696573 PUSH1 0xC8 SHL PUSH1 0x64 DUP3 ADD MSTORE REVERT JUMPDEST SWAP2 POP DUP9 DUP3 DUP2 RETURNDATASIZE DUP4 GT PUSH2 0x29E4 JUMPI JUMPDEST PUSH2 0x29D2 DUP2 DUP4 PUSH2 0x215D JUMP JUMPDEST DUP2 ADD SUB SLT PUSH2 0x2A2 JUMPI POP DUP5 SWAP1 MLOAD CODESIZE PUSH2 0x27CA JUMP JUMPDEST POP RETURNDATASIZE PUSH2 0x29C8 JUMP JUMPDEST DUP10 MLOAD RETURNDATASIZE PUSH1 0x0 DUP3 RETURNDATACOPY RETURNDATASIZE SWAP1 REVERT JUMPDEST DUP6 PUSH1 0x27 PUSH1 0x84 SWAP3 DUP10 DUP12 MLOAD SWAP4 PUSH3 0x461BCD PUSH1 0xE5 SHL DUP6 MSTORE DUP5 ADD MSTORE DUP3 ADD MSTORE PUSH32 0x6E6F742073756666696369656E742062616C616E636520746F2070617920726F PUSH1 0x44 DUP3 ADD MSTORE PUSH7 0x79616C74696573 PUSH1 0xC8 SHL PUSH1 0x64 DUP3 ADD MSTORE REVERT JUMPDEST SWAP2 POP DUP9 DUP3 DUP2 RETURNDATASIZE DUP4 GT PUSH2 0x2A70 JUMPI JUMPDEST PUSH2 0x2A5E DUP2 DUP4 PUSH2 0x215D JUMP JUMPDEST DUP2 ADD SUB SLT PUSH2 0x2A2 JUMPI POP DUP5 SWAP1 MLOAD CODESIZE PUSH2 0x278B JUMP JUMPDEST POP RETURNDATASIZE PUSH2 0x2A54 JUMP JUMPDEST POP SWAP2 MLOAD PUSH3 0x461BCD PUSH1 0xE5 SHL DUP2 MSTORE SWAP2 DUP3 ADD MSTORE PUSH1 0x22 PUSH1 0x24 DUP3 ADD MSTORE PUSH32 0x6F6E6C7920706978656C206F776E65722063616E2070617920726F79616C7469 PUSH1 0x44 DUP3 ADD MSTORE PUSH2 0x6573 PUSH1 0xF0 SHL PUSH1 0x64 DUP3 ADD MSTORE PUSH1 0x84 SWAP1 REVERT JUMPDEST POP POP POP SWAP3 POP POP POP JUMP JUMPDEST ISZERO PUSH2 0x2AD4 JUMPI JUMP JUMPDEST PUSH1 0x40 MLOAD PUSH3 0x461BCD PUSH1 0xE5 SHL DUP2 MSTORE PUSH1 0x20 PUSH1 0x4 DUP3 ADD MSTORE PUSH1 0x23 PUSH1 0x24 DUP3 ADD MSTORE PUSH32 0x6E6F742073756666696369656E742062616C616E636520746F20627579207069 PUSH1 0x44 DUP3 ADD MSTORE PUSH3 0x1E195B PUSH1 0xEA SHL PUSH1 0x64 DUP3 ADD MSTORE PUSH1 0x84 SWAP1 REVERT JUMPDEST ISZERO PUSH2 0x2B2C JUMPI JUMP JUMPDEST PUSH1 0x40 MLOAD PUSH3 0x461BCD PUSH1 0xE5 SHL DUP2 MSTORE PUSH1 0x20 PUSH1 0x4 DUP3 ADD MSTORE PUSH1 0x23 PUSH1 0x24 DUP3 ADD MSTORE PUSH32 0x696E73756666696369656E7420616C6C6F77616E636520746F20627579207069 PUSH1 0x44 DUP3 ADD MSTORE PUSH3 0x1E195B PUSH1 0xEA SHL PUSH1 0x64 DUP3 ADD MSTORE PUSH1 0x84 SWAP1 REVERT JUMPDEST PUSH2 0xFFFF SWAP1 DUP2 AND PUSH1 0x0 NOT ADD SWAP2 SWAP1 DUP3 GT PUSH2 0x2430 JUMPI JUMP JUMPDEST SWAP1 PUSH1 0x1 PUSH2 0xFFFF DUP1 SWAP4 AND ADD SWAP2 DUP3 GT PUSH2 0x2430 JUMPI JUMP JUMPDEST SWAP2 SWAP1 SWAP2 PUSH2 0xFFFF DUP1 DUP1 SWAP5 AND SWAP2 AND ADD SWAP2 DUP3 GT PUSH2 0x2430 JUMPI JUMP JUMPDEST SWAP2 SWAP1 DUP3 SUB SWAP2 DUP3 GT PUSH2 0x2430 JUMPI JUMP JUMPDEST ISZERO PUSH2 0x2BCE JUMPI JUMP JUMPDEST PUSH1 0x40 MLOAD PUSH3 0x461BCD PUSH1 0xE5 SHL DUP2 MSTORE PUSH1 0x20 PUSH1 0x4 DUP3 ADD MSTORE PUSH1 0x2C PUSH1 0x24 DUP3 ADD MSTORE PUSH32 0x6F776E65722063757272656E74206D616E616765722063616E2063616C6C2074 PUSH1 0x44 DUP3 ADD MSTORE PUSH12 0x3434B990333AB731BA34B7B7 PUSH1 0xA1 SHL PUSH1 0x64 DUP3 ADD MSTORE PUSH1 0x84 SWAP1 REVERT JUMPDEST PUSH1 0x40 MLOAD SWAP1 PUSH2 0x2C35 DUP3 PUSH2 0x2127 JUMP JUMPDEST DUP2 PUSH1 0xC0 PUSH1 0x0 SWAP2 DUP3 DUP2 MSTORE DUP3 PUSH1 0x20 DUP3 ADD MSTORE DUP3 PUSH1 0x40 DUP3 ADD MSTORE PUSH1 0x60 DUP1 DUP3 ADD MSTORE DUP3 PUSH1 0x80 DUP3 ADD MSTORE DUP3 PUSH1 0xA0 DUP3 ADD MSTORE ADD MSTORE JUMP JUMPDEST PUSH1 0xFF SWAP1 PUSH2 0x2C6B PUSH2 0x2C28 JUMP JUMPDEST POP AND SWAP1 PUSH1 0x40 SWAP2 DUP3 DUP2 LT DUP1 PUSH2 0x2D37 JUMPI JUMPDEST ISZERO PUSH2 0x2CFD JUMPI PUSH1 0x0 MSTORE PUSH1 0x4 PUSH1 0x20 MSTORE PUSH1 0xFF DUP3 PUSH1 0x0 KECCAK256 SWAP2 AND PUSH1 0x0 MSTORE PUSH1 0x20 MSTORE PUSH1 0x5 DUP2 PUSH1 0x0 KECCAK256 DUP3 MLOAD SWAP3 PUSH2 0x2CA7 DUP5 PUSH2 0x2127 JUMP JUMPDEST DUP2 SLOAD PUSH1 0x1 PUSH1 0x1 PUSH1 0xA0 SHL SUB DUP2 AND DUP6 MSTORE PUSH1 0xA0 SHR PUSH1 0xFF AND PUSH1 0x20 DUP6 ADD MSTORE PUSH1 0x1 DUP3 ADD SLOAD SWAP1 DUP5 ADD MSTORE PUSH2 0x2CD5 PUSH1 0x2 DUP3 ADD PUSH2 0x2379 JUMP JUMPDEST PUSH1 0x60 DUP5 ADD MSTORE PUSH1 0x3 DUP2 ADD SLOAD PUSH1 0x80 DUP5 ADD MSTORE PUSH1 0xFF PUSH1 0x4 DUP3 ADD SLOAD AND ISZERO ISZERO PUSH1 0xA0 DUP5 ADD MSTORE ADD SLOAD PUSH1 0xC0 DUP3 ADD MSTORE SWAP1 JUMP JUMPDEST DUP3 MLOAD PUSH3 0x461BCD PUSH1 0xE5 SHL DUP2 MSTORE PUSH1 0x20 PUSH1 0x4 DUP3 ADD MSTORE PUSH1 0x13 PUSH1 0x24 DUP3 ADD MSTORE PUSH19 0x706978656C206F7574206F6620626F756E6473 PUSH1 0x68 SHL PUSH1 0x44 DUP3 ADD MSTORE PUSH1 0x64 SWAP1 REVERT JUMPDEST POP DUP3 PUSH1 0xFF DUP4 AND LT PUSH2 0x2C7A JUMP JUMPDEST PUSH1 0xFF PUSH1 0x40 SWAP2 AND LT SWAP1 DUP2 ISZERO SWAP2 PUSH2 0x2D56 JUMPI POP SWAP1 JUMP JUMPDEST PUSH1 0x40 SWAP2 POP PUSH1 0xFF AND LT ISZERO SWAP1 JUMP JUMPDEST DUP2 DUP2 MUL SWAP3 SWAP2 DUP2 ISZERO SWAP2 DUP5 DIV EQ OR ISZERO PUSH2 0x2430 JUMPI JUMP JUMPDEST PUSH2 0x2DCE PUSH5 0x73DF16000 SWAP3 PUSH1 0x1 PUSH1 0x40 PUSH1 0xFF PUSH2 0x2DDD SWAP6 AND SWAP3 PUSH1 0x0 SWAP1 DUP5 DUP3 MSTORE PUSH1 0x4 PUSH1 0x20 MSTORE PUSH1 0xFF DUP4 DUP4 KECCAK256 SWAP2 AND SWAP1 DUP2 DUP4 MSTORE PUSH1 0x20 MSTORE PUSH2 0x2DB4 PUSH1 0x3 DUP5 DUP5 KECCAK256 ADD SLOAD TIMESTAMP PUSH2 0x2BBA JUMP JUMPDEST SWAP5 DUP3 MSTORE PUSH1 0x4 PUSH1 0x20 MSTORE DUP3 DUP3 KECCAK256 SWAP1 DUP3 MSTORE PUSH1 0x20 MSTORE KECCAK256 ADD SLOAD SWAP1 PUSH2 0x2D62 JUMP JUMPDEST PUSH1 0xFF PUSH1 0x1 SLOAD PUSH1 0xA0 SHR AND SWAP1 PUSH2 0x2D62 JUMP JUMPDEST DIV SWAP1 JUMP JUMPDEST SWAP3 SWAP1 SWAP2 PUSH1 0xFF DUP1 SWAP5 AND SWAP3 DUP4 ISZERO PUSH2 0x34A2 JUMPI PUSH1 0x1 DUP5 EQ PUSH2 0x33DD JUMPI PUSH1 0x2 DUP5 EQ PUSH2 0x33AC JUMPI PUSH1 0x3 DUP5 EQ PUSH2 0x3349 JUMPI DUP5 SWAP1 PUSH1 0x4 SWAP5 DUP6 DUP2 EQ PUSH2 0x32DE JUMPI PUSH1 0x5 DUP2 EQ PUSH2 0x317E JUMPI PUSH1 0x6 DUP2 EQ PUSH2 0x3129 JUMPI PUSH1 0x7 DUP2 EQ PUSH2 0x30D4 JUMPI PUSH1 0x8 DUP2 EQ PUSH2 0x2FEF JUMPI PUSH1 0x9 SWAP2 SWAP3 POP EQ PUSH2 0x2E56 JUMPI POP POP POP POP POP PUSH1 0x40 MLOAD PUSH2 0x2E4F DUP2 PUSH2 0x2142 JUMP JUMPDEST PUSH1 0x0 DUP2 MSTORE SWAP1 JUMP JUMPDEST DUP5 AND SWAP4 PUSH2 0x2E62 DUP6 PUSH2 0x35FA JUMP JUMPDEST SWAP2 AND PUSH2 0x2E6D DUP2 PUSH2 0x35FA JUMP JUMPDEST PUSH1 0x8 DUP7 ADD DUP1 DUP8 GT PUSH2 0x2FDA JUMPI PUSH2 0x2E81 SWAP1 PUSH2 0x35FA JUMP JUMPDEST SWAP5 PUSH1 0x8 DUP4 ADD DUP1 SWAP4 GT PUSH2 0x2FC5 JUMPI POP SWAP2 PUSH2 0x2FA9 DUP3 PUSH2 0x2240 SWAP7 SWAP5 PUSH2 0x2EB6 PUSH2 0x2EB0 PUSH2 0x2EAA PUSH1 0x49 SWAP10 SWAP8 PUSH2 0x35FA JUMP JUMPDEST SWAP11 PUSH2 0x35FA JUMP JUMPDEST SWAP3 PUSH2 0x35FA JUMP JUMPDEST SWAP2 PUSH1 0x40 MLOAD SWAP10 DUP11 SWAP8 PUSH1 0x2A PUSH2 0x2EE6 DUP11 PUSH1 0x20 SWAP10 PUSH10 0x3C7061746820643D224D PUSH1 0xB0 SHL DUP12 DUP4 ADD MSTORE DUP11 DUP2 MLOAD SWAP5 DUP6 SWAP4 ADD SWAP2 ADD PUSH2 0x2243 JUMP JUMPDEST DUP10 ADD SWAP4 PUSH1 0x1 PUSH1 0xFD SHL SWAP5 DUP6 PUSH1 0x2A DUP3 ADD MSTORE PUSH2 0x2F08 DUP3 MLOAD DUP1 SWAP4 DUP12 PUSH1 0x2B DUP6 ADD SWAP2 ADD PUSH2 0x2243 JUMP JUMPDEST ADD PUSH12 0x10209C101C1018101810189 PUSH1 0xA5 SHL PUSH1 0x2B DUP3 ADD MSTORE PUSH2 0x2F31 DUP3 MLOAD DUP1 SWAP4 DUP11 PUSH1 0x37 DUP6 ADD SWAP2 ADD PUSH2 0x2243 JUMP JUMPDEST ADD DUP4 PUSH1 0x37 DUP3 ADD MSTORE PUSH2 0x2F4B DUP3 MLOAD DUP1 SWAP4 DUP10 PUSH1 0x38 DUP6 ADD SWAP2 ADD PUSH2 0x2243 JUMP JUMPDEST ADD PUSH2 0x813 PUSH1 0xF2 SHL PUSH1 0x38 DUP3 ADD MSTORE PUSH2 0x2F6A DUP3 MLOAD DUP1 SWAP4 DUP9 PUSH1 0x3A DUP6 ADD SWAP2 ADD PUSH2 0x2243 JUMP JUMPDEST ADD SWAP1 PUSH1 0x3A DUP3 ADD MSTORE PUSH2 0x2F84 DUP3 MLOAD DUP1 SWAP4 DUP7 PUSH1 0x3B DUP6 ADD SWAP2 ADD PUSH2 0x2243 JUMP JUMPDEST ADD SWAP2 PUSH10 0x102D11103334B6361E91 PUSH1 0xB1 SHL PUSH1 0x3B DUP5 ADD MSTORE DUP4 MLOAD SWAP4 DUP5 SWAP2 PUSH1 0x45 DUP6 ADD SWAP2 ADD PUSH2 0x2243 JUMP JUMPDEST ADD PUSH4 0x1110179F PUSH1 0xE1 SHL PUSH1 0x45 DUP3 ADD MSTORE SUB PUSH1 0x29 DUP2 ADD DUP5 MSTORE ADD DUP3 PUSH2 0x215D JUMP JUMPDEST PUSH1 0x11 SWAP1 PUSH4 0x4E487B71 PUSH1 0xE0 SHL PUSH1 0x0 MSTORE MSTORE PUSH1 0x24 PUSH1 0x0 REVERT JUMPDEST PUSH1 0x11 DUP7 PUSH4 0x4E487B71 PUSH1 0xE0 SHL PUSH1 0x0 MSTORE MSTORE PUSH1 0x24 PUSH1 0x0 REVERT JUMPDEST POP AND PUSH1 0x8 DUP2 ADD SWAP5 DUP6 DUP3 GT PUSH2 0x30BF JUMPI PUSH2 0x3006 DUP7 PUSH2 0x35FA JUMP JUMPDEST SWAP3 AND SWAP1 PUSH2 0x301B PUSH2 0x3015 DUP4 PUSH2 0x35FA JUMP JUMPDEST SWAP2 PUSH2 0x35FA JUMP JUMPDEST SWAP5 PUSH1 0x8 DUP4 ADD DUP1 SWAP4 GT PUSH2 0x2FC5 JUMPI POP SWAP2 PUSH2 0x2FA9 DUP3 PUSH2 0x2240 SWAP7 SWAP5 PUSH2 0x3044 PUSH2 0x2EB0 PUSH2 0x2EAA PUSH1 0x49 SWAP10 SWAP8 PUSH2 0x35FA JUMP JUMPDEST SWAP2 PUSH1 0x40 MLOAD SWAP10 DUP11 SWAP8 PUSH1 0x2A PUSH2 0x3074 DUP11 PUSH1 0x20 SWAP10 PUSH10 0x3C7061746820643D224D PUSH1 0xB0 SHL DUP12 DUP4 ADD MSTORE DUP11 DUP2 MLOAD SWAP5 DUP6 SWAP4 ADD SWAP2 ADD PUSH2 0x2243 JUMP JUMPDEST DUP10 ADD SWAP4 PUSH1 0x1 PUSH1 0xFD SHL SWAP5 DUP6 PUSH1 0x2A DUP3 ADD MSTORE PUSH2 0x3096 DUP3 MLOAD DUP1 SWAP4 DUP12 PUSH1 0x2B DUP6 ADD SWAP2 ADD PUSH2 0x2243 JUMP JUMPDEST ADD PUSH12 0x10209C101C1018101810181 PUSH1 0xA5 SHL PUSH1 0x2B DUP3 ADD MSTORE PUSH2 0x2F31 DUP3 MLOAD DUP1 SWAP4 DUP11 PUSH1 0x37 DUP6 ADD SWAP2 ADD PUSH2 0x2243 JUMP JUMPDEST PUSH1 0x11 DUP6 PUSH4 0x4E487B71 PUSH1 0xE0 SHL PUSH1 0x0 MSTORE MSTORE PUSH1 0x24 PUSH1 0x0 REVERT JUMPDEST POP AND SWAP4 PUSH2 0x30E0 DUP6 PUSH2 0x35FA JUMP JUMPDEST SWAP2 AND PUSH2 0x30EB DUP2 PUSH2 0x35FA JUMP JUMPDEST PUSH1 0x8 DUP7 ADD DUP1 SWAP7 GT PUSH2 0x30BF JUMPI PUSH2 0x30FF DUP7 PUSH2 0x35FA JUMP JUMPDEST SWAP5 PUSH1 0x8 DUP4 ADD SWAP1 DUP2 DUP5 GT PUSH2 0x2FC5 JUMPI POP PUSH1 0x49 SWAP5 SWAP3 PUSH2 0x2240 SWAP7 SWAP5 SWAP3 PUSH2 0x3044 PUSH2 0x2EB0 PUSH2 0x2EAA PUSH2 0x2FA9 SWAP6 PUSH2 0x35FA JUMP JUMPDEST POP AND SWAP4 PUSH2 0x3135 DUP6 PUSH2 0x35FA JUMP JUMPDEST SWAP2 AND PUSH1 0x8 DUP2 ADD DUP1 DUP3 GT PUSH2 0x30BF JUMPI PUSH2 0x314B SWAP1 PUSH2 0x35FA JUMP JUMPDEST SWAP4 PUSH1 0x8 DUP7 ADD SWAP1 DUP2 DUP8 GT PUSH2 0x2FC5 JUMPI POP SWAP2 PUSH2 0x2FA9 PUSH1 0x49 SWAP5 SWAP3 PUSH2 0x316E PUSH2 0x2240 SWAP8 SWAP6 PUSH2 0x35FA JUMP JUMPDEST SWAP5 PUSH2 0x3044 PUSH2 0x2EB0 PUSH2 0x2EAA DUP5 PUSH2 0x35FA JUMP JUMPDEST POP AND SWAP4 PUSH2 0x318A DUP6 PUSH2 0x35FA JUMP JUMPDEST SWAP2 AND SWAP4 PUSH1 0x8 DUP6 ADD SWAP1 DUP2 DUP7 GT PUSH2 0x30BF JUMPI PUSH2 0x31A2 DUP3 PUSH2 0x35FA JUMP JUMPDEST SWAP1 PUSH2 0x31B5 PUSH2 0x31AF DUP3 PUSH2 0x35FA JUMP JUMPDEST SWAP8 PUSH2 0x35FA JUMP JUMPDEST SWAP6 PUSH1 0x8 DUP3 ADD DUP1 SWAP3 GT PUSH2 0x2FC5 JUMPI POP PUSH1 0x3F SWAP5 SWAP3 PUSH2 0x2240 SWAP7 SWAP5 SWAP3 PUSH2 0x31DB PUSH2 0x2EB0 PUSH2 0x32C2 SWAP5 PUSH2 0x35FA JUMP JUMPDEST SWAP2 PUSH1 0x40 MLOAD SWAP10 DUP11 SWAP8 PUSH1 0x2A PUSH2 0x320B DUP11 PUSH1 0x20 SWAP10 PUSH10 0x3C7061746820643D224D PUSH1 0xB0 SHL DUP12 DUP4 ADD MSTORE DUP11 DUP2 MLOAD SWAP5 DUP6 SWAP4 ADD SWAP2 ADD PUSH2 0x2243 JUMP JUMPDEST DUP10 ADD SWAP4 PUSH1 0x1 PUSH1 0xFD SHL SWAP5 DUP6 PUSH1 0x2A DUP3 ADD MSTORE PUSH2 0x322D DUP3 MLOAD DUP1 SWAP4 DUP12 PUSH1 0x2B DUP6 ADD SWAP2 ADD PUSH2 0x2243 JUMP JUMPDEST ADD SWAP2 PUSH2 0x813 PUSH1 0xF2 SHL SWAP3 DUP4 PUSH1 0x2B DUP3 ADD MSTORE PUSH2 0x324F DUP3 MLOAD DUP1 SWAP4 DUP12 PUSH1 0x2D DUP6 ADD SWAP2 ADD PUSH2 0x2243 JUMP JUMPDEST ADD DUP5 PUSH1 0x2D DUP3 ADD MSTORE PUSH2 0x3269 DUP3 MLOAD DUP1 SWAP4 DUP11 PUSH1 0x2E DUP6 ADD SWAP2 ADD PUSH2 0x2243 JUMP JUMPDEST ADD SWAP1 PUSH1 0x2E DUP3 ADD MSTORE PUSH2 0x3283 DUP3 MLOAD DUP1 SWAP4 DUP9 PUSH1 0x30 DUP6 ADD SWAP2 ADD PUSH2 0x2243 JUMP JUMPDEST ADD SWAP1 PUSH1 0x30 DUP3 ADD MSTORE PUSH2 0x329D DUP3 MLOAD DUP1 SWAP4 DUP7 PUSH1 0x31 DUP6 ADD SWAP2 ADD PUSH2 0x2243 JUMP JUMPDEST ADD SWAP2 PUSH10 0x103D11103334B6361E91 PUSH1 0xB1 SHL PUSH1 0x31 DUP5 ADD MSTORE DUP4 MLOAD SWAP4 DUP5 SWAP2 PUSH1 0x3B DUP6 ADD SWAP2 ADD PUSH2 0x2243 JUMP JUMPDEST ADD PUSH4 0x1110179F PUSH1 0xE1 SHL PUSH1 0x3B DUP3 ADD MSTORE SUB PUSH1 0x1F DUP2 ADD DUP5 MSTORE ADD DUP3 PUSH2 0x215D JUMP JUMPDEST POP AND SWAP3 PUSH1 0x8 DUP5 ADD SWAP5 DUP6 DUP6 GT PUSH2 0x3334 JUMPI PUSH2 0x32F6 DUP7 PUSH2 0x35FA JUMP JUMPDEST SWAP3 AND SWAP5 PUSH1 0x8 DUP7 ADD SWAP2 DUP3 DUP8 GT PUSH2 0x2FC5 JUMPI POP SWAP2 PUSH2 0x32C2 DUP3 PUSH2 0x2240 SWAP7 SWAP5 PUSH2 0x31DB PUSH2 0x2EB0 PUSH2 0x31AF PUSH2 0x332E PUSH2 0x3328 PUSH1 0x3F SWAP12 SWAP10 PUSH2 0x35FA JUMP JUMPDEST SWAP5 PUSH2 0x35FA JUMP JUMPDEST SWAP12 PUSH2 0x35FA JUMP JUMPDEST PUSH1 0x11 DUP3 PUSH4 0x4E487B71 PUSH1 0xE0 SHL PUSH1 0x0 MSTORE MSTORE PUSH1 0x24 PUSH1 0x0 REVERT JUMPDEST SWAP1 SWAP4 SWAP1 DUP2 AND SWAP3 POP PUSH2 0x3359 DUP4 PUSH2 0x35FA JUMP JUMPDEST SWAP4 AND SWAP2 PUSH2 0x3365 DUP4 PUSH2 0x35FA JUMP JUMPDEST SWAP2 PUSH1 0x8 DUP3 ADD DUP1 SWAP3 GT PUSH2 0x2430 JUMPI PUSH2 0x337A DUP3 PUSH2 0x35FA JUMP JUMPDEST SWAP5 PUSH2 0x338D PUSH2 0x3387 DUP7 PUSH2 0x35FA JUMP JUMPDEST SWAP4 PUSH2 0x35FA JUMP JUMPDEST SWAP5 PUSH1 0x8 DUP2 ADD DUP1 SWAP2 GT PUSH2 0x2430 JUMPI PUSH2 0x2240 SWAP6 PUSH1 0x3F SWAP6 PUSH2 0x31DB PUSH2 0x32C2 SWAP4 PUSH2 0x35FA JUMP JUMPDEST SWAP1 SWAP4 SWAP1 DUP2 AND SWAP3 POP PUSH2 0x33BC DUP4 PUSH2 0x35FA JUMP JUMPDEST SWAP4 AND SWAP2 PUSH2 0x33C8 DUP4 PUSH2 0x35FA JUMP JUMPDEST SWAP2 PUSH1 0x8 DUP3 ADD DUP1 DUP4 GT PUSH2 0x2430 JUMPI PUSH2 0x337A SWAP1 PUSH2 0x35FA JUMP JUMPDEST PUSH2 0x2240 SWAP4 POP DUP5 PUSH2 0x33F9 PUSH2 0x33FF PUSH1 0x44 SWAP6 SWAP8 PUSH2 0x33F9 PUSH2 0x3405 SWAP6 PUSH2 0x25B7 JUMP JUMPDEST AND PUSH2 0x35FA JUMP JUMPDEST SWAP4 PUSH2 0x25B7 JUMP JUMPDEST SWAP4 PUSH1 0x40 MLOAD SWAP5 DUP6 SWAP3 PUSH12 0x1E31B4B931B6329031BC1E91 PUSH1 0xA1 SHL PUSH1 0x20 DUP6 ADD MSTORE PUSH2 0x3435 DUP2 MLOAD DUP1 SWAP3 PUSH1 0x20 PUSH1 0x2C DUP9 ADD SWAP2 ADD PUSH2 0x2243 JUMP JUMPDEST DUP4 ADD PUSH6 0x111031BC9E91 PUSH1 0xD1 SHL PUSH1 0x2C DUP3 ADD MSTORE PUSH2 0x345A DUP3 MLOAD DUP1 SWAP4 PUSH1 0x20 PUSH1 0x32 DUP6 ADD SWAP2 ADD PUSH2 0x2243 JUMP JUMPDEST ADD PUSH14 0x1110391E911A11103334B6361E91 PUSH1 0x91 SHL PUSH1 0x32 DUP3 ADD MSTORE PUSH2 0x3486 DUP3 MLOAD DUP1 SWAP4 PUSH1 0x20 PUSH1 0x40 DUP6 ADD SWAP2 ADD PUSH2 0x2243 JUMP JUMPDEST ADD PUSH4 0x1110179F PUSH1 0xE1 SHL PUSH1 0x40 DUP3 ADD MSTORE SUB PUSH1 0x24 DUP2 ADD DUP5 MSTORE ADD DUP3 PUSH2 0x215D JUMP JUMPDEST PUSH2 0x2240 SWAP4 POP DUP5 PUSH2 0x34B9 PUSH1 0x4F SWAP5 SWAP7 PUSH2 0x34C0 SWAP4 AND PUSH2 0x35FA JUMP JUMPDEST SWAP3 AND PUSH2 0x35FA JUMP JUMPDEST SWAP4 PUSH1 0x40 MLOAD SWAP5 DUP6 SWAP3 PUSH9 0x1E3932B1BA103C1E91 PUSH1 0xB9 SHL PUSH1 0x20 DUP6 ADD MSTORE PUSH2 0x34ED DUP2 MLOAD DUP1 SWAP3 PUSH1 0x20 PUSH1 0x29 DUP9 ADD SWAP2 ADD PUSH2 0x2243 JUMP JUMPDEST DUP4 ADD PUSH5 0x11103C9E91 PUSH1 0xD9 SHL PUSH1 0x29 DUP3 ADD MSTORE PUSH2 0x3511 DUP3 MLOAD DUP1 SWAP4 PUSH1 0x20 PUSH1 0x2E DUP6 ADD SWAP2 ADD PUSH2 0x2243 JUMP JUMPDEST ADD PUSH32 0x222077696474683D223822206865696768743D2238222066696C6C3D22000000 PUSH1 0x2E DUP3 ADD MSTORE PUSH2 0x354C DUP3 MLOAD DUP1 SWAP4 PUSH1 0x20 PUSH1 0x4B DUP6 ADD SWAP2 ADD PUSH2 0x2243 JUMP JUMPDEST ADD PUSH4 0x1110179F PUSH1 0xE1 SHL PUSH1 0x4B DUP3 ADD MSTORE SUB PUSH1 0x2F DUP2 ADD DUP5 MSTORE ADD DUP3 PUSH2 0x215D JUMP JUMPDEST PUSH1 0x0 NOT DUP2 EQ PUSH2 0x2430 JUMPI PUSH1 0x1 ADD SWAP1 JUMP JUMPDEST PUSH1 0x0 SWAP3 SWAP2 DUP2 SLOAD PUSH2 0x3586 DUP2 PUSH2 0x233F JUMP JUMPDEST SWAP3 PUSH1 0x1 SWAP2 DUP1 DUP4 AND SWAP1 DUP2 ISZERO PUSH2 0x35DF JUMPI POP PUSH1 0x1 EQ PUSH2 0x35A3 JUMPI JUMPDEST POP POP POP POP JUMP JUMPDEST SWAP1 SWAP2 SWAP3 SWAP4 SWAP5 POP PUSH1 0x0 MSTORE PUSH1 0x20 SWAP1 DUP2 PUSH1 0x0 KECCAK256 SWAP1 PUSH1 0x0 SWAP2 JUMPDEST DUP6 DUP4 LT PUSH2 0x35CE JUMPI POP POP POP POP ADD SWAP1 CODESIZE DUP1 DUP1 DUP1 PUSH2 0x359D JUMP JUMPDEST DUP1 SLOAD DUP6 DUP5 ADD MSTORE SWAP2 DUP4 ADD SWAP2 DUP2 ADD PUSH2 0x35B8 JUMP JUMPDEST PUSH1 0xFF NOT AND DUP5 MSTORE POP POP POP DUP2 ISZERO ISZERO SWAP1 SWAP2 MUL ADD SWAP2 POP CODESIZE DUP1 DUP1 DUP1 PUSH2 0x359D JUMP JUMPDEST DUP1 ISZERO PUSH2 0x36BA JUMPI DUP1 DUP2 PUSH1 0x0 SWAP3 JUMPDEST PUSH2 0x36A6 JUMPI POP DUP1 PUSH2 0x3615 DUP4 PUSH2 0x2308 JUMP JUMPDEST SWAP3 PUSH2 0x3623 PUSH1 0x40 MLOAD SWAP5 DUP6 PUSH2 0x215D JUMP JUMPDEST DUP1 DUP5 MSTORE PUSH1 0x1F NOT PUSH2 0x3632 DUP3 PUSH2 0x2308 JUMP JUMPDEST ADD CALLDATASIZE PUSH1 0x20 DUP7 ADD CALLDATACOPY SWAP2 JUMPDEST PUSH2 0x3644 JUMPI POP POP SWAP1 JUMP JUMPDEST PUSH1 0x0 NOT DUP3 ADD SWAP2 DUP1 DUP4 GT PUSH2 0x2430 JUMPI DUP3 PUSH1 0xA SWAP1 DUP2 DUP5 DIV SWAP4 DUP3 DUP6 MUL SWAP3 DUP6 DUP5 DIV EQ DUP6 ISZERO OR ISZERO PUSH2 0x2430 JUMPI PUSH2 0x3676 PUSH1 0xFF SWAP4 DUP5 SWAP3 PUSH2 0x2BBA JUMP JUMPDEST AND PUSH1 0x30 ADD SWAP2 DUP3 GT PUSH2 0x2430 JUMPI DUP6 MLOAD GT ISZERO PUSH2 0x245A JUMPI PUSH1 0xF8 SHL PUSH1 0x1 PUSH1 0x1 PUSH1 0xF8 SHL SUB NOT AND PUSH1 0x0 BYTE SWAP1 DUP5 ADD PUSH1 0x1F ADD MSTORE8 DUP1 PUSH2 0x363B JUMP JUMPDEST SWAP2 PUSH2 0x36B2 PUSH1 0xA SWAP2 PUSH2 0x3568 JUMP JUMPDEST SWAP3 DIV DUP1 PUSH2 0x3606 JUMP JUMPDEST POP PUSH1 0x40 MLOAD PUSH1 0x40 DUP2 ADD DUP2 DUP2 LT PUSH1 0x1 PUSH1 0x1 PUSH1 0x40 SHL SUB DUP3 GT OR PUSH2 0x27E JUMPI PUSH1 0x40 MSTORE PUSH1 0x1 DUP2 MSTORE PUSH1 0x3 PUSH1 0xFC SHL PUSH1 0x20 DUP3 ADD MSTORE SWAP1 JUMP INVALID LOG2 PUSH5 0x6970667358 0x22 SLT KECCAK256 DUP13 0xC3 PUSH21 0xF249CF296FD3A20FCBEBB5C41D50D3D2F2EF17EC98 PUSH6 0x39E438103EB3 0xE6 PUSH5 0x736F6C6343 STOP ADDMOD EQ STOP CALLER "},"methodIdentifiers":{"ARTISTIC_PERIOD()":"3323a706","CYCLE_PERIOD()":"113bc999","VOTING_PERIOD()":"b1610d7e","balanceOf(address)":"70a08231","buyPixel(uint8[],uint8[])":"ec18fb5f","calculateRoyalties(uint8,uint8)":"74d3e777","canvasCreation()":"ff188dca","castVote(bool)":"7ace48e7","checkMultiplePixel(uint8[],uint8[])":"0734d144","checkPixel(uint8,uint8)":"d84cd450","checkVoteOutcome(uint32)":"84f6fb7f","fillPixel(bytes[])":"3bdb693e","generateSVG()":"ad711e9e","getBalance(address)":"f8b2cb4f","getCurrentCycle()":"be26ed7f","getMintDate(uint256)":"bc5bc2fb","getRowSVG()":"ff397c6a","hasVoted(address)":"09eef43e","isInArtisticPeriod()":"4882a7ea","isInVotingPeriod()":"b3a1ddf4","manager()":"481c6a75","maxHeight()":"63aa5ce2","maxWidth()":"6006ecc8","mintDates(uint256)":"c4323fc1","nftContract()":"d56d229d","payRoyalties(uint8[],uint8[])":"3123a62b","pixelSVGs(uint256)":"c4e4b90c","rowSVGs(uint256)":"e1245900","royaltyAskPeriod()":"6e70fcc6","royaltyDenominator()":"fd8d7ed3","royaltyRate()":"c4d1510d","seekRoyaltyPayment(uint8,uint8,uint256)":"02d13f02","setNFTContract(address)":"a7ccabdf","setPixelValue(uint8[],uint8[],uint256[])":"907e9959","updateCurrency(address)":"5e027601","voteRegister(uint256)":"30b5d6d3","window(uint8,uint8)":"aeeacbeb"}}}}}