{"contracts/Pixelmap.sol":{"Pixelmap":{"abi":[{"inputs":[],"stateMutability":"nonpayable","type":"constructor"},{"inputs":[],"name":"ReentrancyGuardReentrantCall","type":"error"},{"anonymous":false,"inputs":[{"indexed":false,"internalType":"uint256","name":"tokenID","type":"uint256"},{"indexed":false,"internalType":"address","name":"bidder","type":"address"},{"indexed":false,"internalType":"uint256","name":"bid","type":"uint256"}],"name":"AuctionEnded","type":"event"},{"anonymous":false,"inputs":[{"indexed":false,"internalType":"uint256","name":"tokenID","type":"uint256"},{"indexed":false,"internalType":"address","name":"bidder","type":"address"},{"indexed":false,"internalType":"uint256","name":"bid","type":"uint256"}],"name":"BidPlace","type":"event"},{"anonymous":false,"inputs":[{"indexed":false,"internalType":"uint256","name":"tokenID","type":"uint256"},{"indexed":false,"internalType":"address","name":"bidder","type":"address"},{"indexed":false,"internalType":"uint256","name":"bid","type":"uint256"}],"name":"BidWithdrawn","type":"event"},{"anonymous":false,"inputs":[{"indexed":false,"internalType":"uint256","name":"cycle","type":"uint256"}],"name":"NFTMinted","type":"event"},{"anonymous":false,"inputs":[{"indexed":true,"internalType":"uint256","name":"x","type":"uint256"},{"indexed":true,"internalType":"uint256","name":"y","type":"uint256"}],"name":"PixelBought","type":"event"},{"anonymous":false,"inputs":[{"indexed":true,"internalType":"uint256","name":"x","type":"uint256"},{"indexed":true,"internalType":"uint256","name":"y","type":"uint256"}],"name":"PixelFilled","type":"event"},{"anonymous":false,"inputs":[{"indexed":true,"internalType":"uint256","name":"x","type":"uint256"},{"indexed":true,"internalType":"uint256","name":"y","type":"uint256"}],"name":"PixelValueSet","type":"event"},{"anonymous":false,"inputs":[{"indexed":true,"internalType":"uint256","name":"x","type":"uint256"},{"indexed":true,"internalType":"uint256","name":"y","type":"uint256"}],"name":"RoyaltiesPaid","type":"event"},{"anonymous":false,"inputs":[{"indexed":true,"internalType":"address","name":"owner","type":"address"}],"name":"VoteCasted","type":"event"},{"inputs":[],"name":"ARTISTIC_PERIOD","outputs":[{"internalType":"uint256","name":"","type":"uint256"}],"stateMutability":"view","type":"function"},{"inputs":[],"name":"AUCTION_DURATION","outputs":[{"internalType":"uint256","name":"","type":"uint256"}],"stateMutability":"view","type":"function"},{"inputs":[],"name":"CYCLE_PERIOD","outputs":[{"internalType":"uint256","name":"","type":"uint256"}],"stateMutability":"view","type":"function"},{"inputs":[],"name":"VOTING_PERIOD","outputs":[{"internalType":"uint256","name":"","type":"uint256"}],"stateMutability":"view","type":"function"},{"inputs":[{"internalType":"address","name":"","type":"address"}],"name":"balanceOf","outputs":[{"internalType":"uint256","name":"","type":"uint256"}],"stateMutability":"view","type":"function"},{"inputs":[{"internalType":"uint256[]","name":"xValues","type":"uint256[]"},{"internalType":"uint256[]","name":"yValues","type":"uint256[]"}],"name":"buyPixel","outputs":[],"stateMutability":"nonpayable","type":"function"},{"inputs":[{"internalType":"uint256","name":"x","type":"uint256"},{"internalType":"uint256","name":"y","type":"uint256"}],"name":"calculateRoyalties","outputs":[{"internalType":"uint256","name":"","type":"uint256"}],"stateMutability":"view","type":"function"},{"inputs":[],"name":"canvasCreation","outputs":[{"internalType":"uint256","name":"","type":"uint256"}],"stateMutability":"view","type":"function"},{"inputs":[{"internalType":"bool","name":"vote","type":"bool"}],"name":"castVote","outputs":[],"stateMutability":"nonpayable","type":"function"},{"inputs":[{"internalType":"uint256[]","name":"xValues","type":"uint256[]"},{"internalType":"uint256[]","name":"yValues","type":"uint256[]"}],"name":"checkMultiplePixel","outputs":[{"components":[{"internalType":"address","name":"owner","type":"address"},{"internalType":"uint256","name":"shapeID","type":"uint256"},{"internalType":"uint256","name":"price","type":"uint256"},{"internalType":"string","name":"color","type":"string"},{"internalType":"uint256","name":"royaltyLastPaid","type":"uint256"},{"internalType":"bool","name":"askedToPayRoyalties","type":"bool"},{"internalType":"uint256","name":"royaltyAskDate","type":"uint256"}],"internalType":"struct Pixelmap.Pixel[]","name":"","type":"tuple[]"}],"stateMutability":"view","type":"function"},{"inputs":[{"internalType":"uint256","name":"x","type":"uint256"},{"internalType":"uint256","name":"y","type":"uint256"}],"name":"checkPixel","outputs":[{"components":[{"internalType":"address","name":"owner","type":"address"},{"internalType":"uint256","name":"shapeID","type":"uint256"},{"internalType":"uint256","name":"price","type":"uint256"},{"internalType":"string","name":"color","type":"string"},{"internalType":"uint256","name":"royaltyLastPaid","type":"uint256"},{"internalType":"bool","name":"askedToPayRoyalties","type":"bool"},{"internalType":"uint256","name":"royaltyAskDate","type":"uint256"}],"internalType":"struct Pixelmap.Pixel","name":"","type":"tuple"}],"stateMutability":"view","type":"function"},{"inputs":[{"internalType":"uint256","name":"_cycle","type":"uint256"}],"name":"checkVoteOutcome","outputs":[],"stateMutability":"nonpayable","type":"function"},{"inputs":[{"internalType":"uint256","name":"_tokenID","type":"uint256"}],"name":"closeAuction","outputs":[],"stateMutability":"nonpayable","type":"function"},{"inputs":[{"internalType":"bytes[]","name":"_pixels","type":"bytes[]"}],"name":"fillPixel","outputs":[],"stateMutability":"nonpayable","type":"function"},{"inputs":[],"name":"generateMerkle","outputs":[{"internalType":"bytes32","name":"","type":"bytes32"}],"stateMutability":"view","type":"function"},{"inputs":[],"name":"generateSVG","outputs":[{"internalType":"string","name":"","type":"string"}],"stateMutability":"view","type":"function"},{"inputs":[{"internalType":"address","name":"_owner","type":"address"}],"name":"getBalance","outputs":[{"internalType":"uint256","name":"","type":"uint256"}],"stateMutability":"view","type":"function"},{"inputs":[],"name":"getCurrentCycle","outputs":[{"internalType":"uint256","name":"","type":"uint256"}],"stateMutability":"view","type":"function"},{"inputs":[{"internalType":"uint256","name":"_tokenID","type":"uint256"}],"name":"getMintDate","outputs":[{"internalType":"uint256","name":"","type":"uint256"}],"stateMutability":"view","type":"function"},{"inputs":[{"internalType":"address","name":"_owner","type":"address"}],"name":"hasVoted","outputs":[{"internalType":"bool","name":"","type":"bool"}],"stateMutability":"view","type":"function"},{"inputs":[],"name":"isInArtisticPeriod","outputs":[{"internalType":"bool","name":"","type":"bool"}],"stateMutability":"view","type":"function"},{"inputs":[],"name":"isInVotingPeriod","outputs":[{"internalType":"bool","name":"","type":"bool"}],"stateMutability":"view","type":"function"},{"inputs":[],"name":"manager","outputs":[{"internalType":"address","name":"","type":"address"}],"stateMutability":"view","type":"function"},{"inputs":[],"name":"maxHeight","outputs":[{"internalType":"uint256","name":"","type":"uint256"}],"stateMutability":"view","type":"function"},{"inputs":[],"name":"maxWidth","outputs":[{"internalType":"uint256","name":"","type":"uint256"}],"stateMutability":"view","type":"function"},{"inputs":[{"internalType":"uint256","name":"","type":"uint256"}],"name":"mintDates","outputs":[{"internalType":"uint256","name":"","type":"uint256"}],"stateMutability":"view","type":"function"},{"inputs":[{"internalType":"uint256","name":"","type":"uint256"}],"name":"nftAuctions","outputs":[{"internalType":"address","name":"winningAddr","type":"address"},{"internalType":"uint256","name":"winningBid","type":"uint256"},{"internalType":"uint256","name":"auctionStart","type":"uint256"},{"internalType":"uint256","name":"auctionEnd","type":"uint256"},{"internalType":"bool","name":"auctionEnded","type":"bool"}],"stateMutability":"view","type":"function"},{"inputs":[],"name":"nftContract","outputs":[{"internalType":"contract CanvasCollection","name":"","type":"address"}],"stateMutability":"view","type":"function"},{"inputs":[{"internalType":"uint256[]","name":"xValues","type":"uint256[]"},{"internalType":"uint256[]","name":"yValues","type":"uint256[]"}],"name":"payRoyalties","outputs":[],"stateMutability":"nonpayable","type":"function"},{"inputs":[{"internalType":"uint256","name":"","type":"uint256"}],"name":"pixelSVGs","outputs":[{"internalType":"string","name":"","type":"string"}],"stateMutability":"view","type":"function"},{"inputs":[{"internalType":"uint256","name":"_tokenID","type":"uint256"}],"name":"placeBid","outputs":[],"stateMutability":"payable","type":"function"},{"inputs":[{"internalType":"uint256","name":"","type":"uint256"}],"name":"rowSVGs","outputs":[{"internalType":"string","name":"","type":"string"}],"stateMutability":"view","type":"function"},{"inputs":[],"name":"royaltyAskPeriod","outputs":[{"internalType":"uint256","name":"","type":"uint256"}],"stateMutability":"view","type":"function"},{"inputs":[],"name":"royaltyDenominator","outputs":[{"internalType":"uint256","name":"","type":"uint256"}],"stateMutability":"view","type":"function"},{"inputs":[],"name":"royaltyRate","outputs":[{"internalType":"uint256","name":"","type":"uint256"}],"stateMutability":"view","type":"function"},{"inputs":[{"internalType":"uint256","name":"x","type":"uint256"},{"internalType":"uint256","name":"y","type":"uint256"},{"internalType":"uint256","name":"_price","type":"uint256"}],"name":"seekRoyaltyPayment","outputs":[],"stateMutability":"nonpayable","type":"function"},{"inputs":[{"internalType":"address","name":"_nftContract","type":"address"}],"name":"setNFTContract","outputs":[],"stateMutability":"nonpayable","type":"function"},{"inputs":[{"internalType":"uint256[]","name":"xValues","type":"uint256[]"},{"internalType":"uint256[]","name":"yValues","type":"uint256[]"},{"internalType":"uint256[]","name":"priceValues","type":"uint256[]"}],"name":"setPixelValue","outputs":[],"stateMutability":"nonpayable","type":"function"},{"inputs":[{"internalType":"address","name":"_newToken","type":"address"}],"name":"updateCurrency","outputs":[],"stateMutability":"nonpayable","type":"function"},{"inputs":[{"internalType":"uint256","name":"","type":"uint256"}],"name":"voteRegister","outputs":[{"internalType":"uint256","name":"yesVotes","type":"uint256"},{"internalType":"uint256","name":"noVotes","type":"uint256"}],"stateMutability":"view","type":"function"},{"inputs":[{"internalType":"uint256","name":"","type":"uint256"},{"internalType":"uint256","name":"","type":"uint256"}],"name":"window","outputs":[{"internalType":"address","name":"owner","type":"address"},{"internalType":"uint256","name":"shapeID","type":"uint256"},{"internalType":"uint256","name":"price","type":"uint256"},{"internalType":"string","name":"color","type":"string"},{"internalType":"uint256","name":"royaltyLastPaid","type":"uint256"},{"internalType":"bool","name":"askedToPayRoyalties","type":"bool"},{"internalType":"uint256","name":"royaltyAskDate","type":"uint256"}],"stateMutability":"view","type":"function"}],"evm":{"bytecode":{"linkReferences":{},"object":"60808060405234620000bd5760016000556032600355600580546001600160a01b031990811673c02aaa39b223fe8d0a0e5c4f27ead9083c756cc217909155906107b08082016001600160401b03811183821017620000a757829162003a3d833903906000f080156200009b5760018060a01b0316816006541617600655339060025416176002554260045560405161397a9081620000c38239f35b6040513d6000823e3d90fd5b634e487b7160e01b600052604160045260246000fd5b600080fdfe6080604052600436101561001257600080fd5b6000803560e01c8063040cdfd81461234c57806309eef43e146122ed578063113bc999146122cf578063236ed8f31461212a57806330b5d6d3146120f55780633323a706146118e65780633bdb693e14611bea578063481c6a7514611bc15780634882a7ea14611b905780635c8c64071461193e5780635e027601146118f05780636006ecc8146118eb57806363aa5ce2146118eb5780636e70fcc6146118e65780636ed958f1146110e057806370a082311461021d5780637ace48e714610eea5780638232b56214610c6757806385a9473d14610b4657806393cde51a14610ae25780639979ef45146108f2578063a271e525146108d5578063a52f27b51461074f578063a7ccabdf146106fd578063ad711e9e146105a5578063b1610d7e14610587578063b3a1ddf414610555578063bc5bc2fb146104fe578063be26ed7f14610529578063c4323fc1146104fe578063c4d1510d146104e0578063c4e4b90c146104b1578063c730e65d1461041b578063c7eab2ec1461030f578063d08629c1146102ed578063d56d229d146102c4578063e12459001461027d578063e50eb5da1461025f578063f8b2cb4f1461021d578063fd8d7ed3146102005763ff188dca146101e057600080fd5b346101fd57806003193601126101fd576020600454604051908152f35b80fd5b50346101fd57806003193601126101fd5760206040516103e88152f35b50346101fd5760203660031901126101fd576004356001600160a01b0381169081900361025b57816040916020935261104883522054604051908152f35b5080fd5b50346101fd5761027a610271366124c2565b929190916128be565b80f35b50346101fd5760203660031901126101fd576004359060408210156101fd576102c06102ac83611008016125b0565b6040519182916020835260208301906123b4565b0390f35b50346101fd57806003193601126101fd576001546040516001600160a01b039091168152602090f35b50346101fd5760206103076103013661237b565b90612f5f565b604051908152f35b50346101fd5761031e366124c2565b61032b8184959414612824565b61033484612656565b93610342604051958661258f565b808552601f1961035182612656565b01865b818110610404575050855b8181106103c45760408051602080825288518183018190528a93600582901b8401810192808c01929185015b8287106103985785850386f35b9091929382806103b4600193603f198a820301865288516123d9565b960192019601959291909261038b565b806103e86103d56001938589612814565b356103e1838789612814565b3590612e88565b6103f282896127ea565b526103fd81886127ea565b500161035f565b60209061040f612e50565b82828a01015201610354565b50346101fd5760409061042d3661237b565b90825260076020528282209082526020522060018060a01b038154166001820154916002810154610460600383016125b0565b9161049b600482015493600660ff6005850154169301549360405197889788526020880152604087015260e0606087015260e08601906123b4565b926080850152151560a084015260c08301520390f35b50346101fd5760203660031901126101fd57600435906110008210156101fd576102c06102ac836008016125b0565b50346101fd57806003193601126101fd576020600354604051908152f35b50346101fd5760203660031901126101fd576040602091600435815261104a83522054604051908152f35b50346101fd57806003193601126101fd5760206205460061054c60045442612de2565b04604051908152f35b50346101fd57806003193601126101fd5760206203f4806205460061057c60045442612de2565b061015604051908152f35b50346101fd57806003193601126101fd576020604051620151808152f35b50346101fd57806003193601126101fd57604051608081018181106001600160401b038211176106e757604052605781526020907f3c7376672077696474683d2236303022206865696768743d2236303022207669828201527f6577426f783d2230203020363030203630302220786d6c6e733d22687474703a6040820152761797bbbbbb973b999737b933979918181817b9bb33911f60491b6060820152915b6040811061069d575061068960266040518461066b8296518092878086019101612391565b8101651e17b9bb339f60d11b8582015203600681018552018361258f565b6102c06040519282849384528301906123b4565b91816106dc6106e2926106ce60405193826106c18694518092848088019101612391565b83010187611008016137d3565b03601f19810183528261258f565b9261266d565b610646565b634e487b7160e01b600052604160045260246000fd5b50346101fd5760203660031901126101fd576004356001600160a01b038181169182900361074b5761073490600254163314612def565b600180546001600160a01b03191691909117905580f35b8280fd5b50346101fd57806003193601126101fd57604051906202002082018281106001600160401b038211176106e7576040526110008252602091828082019162020000368437835b6040811061084e575060018060a01b03600654166040519384926317046b0160e11b8452602484019085600486015251809152604484019190875b8181106108355750505082809103915afa9182156108295780926107f9575b5050604051908152f35b9091508282813d8311610822575b610811818361258f565b810103126101fd57505138806107ef565b503d610807565b604051903d90823e3d90fd5b82518452899688965093840193909201916001016107d0565b90929150835b60408110610869575060010191849192610795565b6001600160fa1b03821682036108c1576001906108898360061b82612435565b818752600788526040872084885288526108ba6bffffffffffffffffffffffff19604089205460601b1691876127ea565b5201610854565b634e487b7160e01b85526011600452602485fd5b50346101fd57806003193601126101fd57602060405161fd208152f35b5060208060031936011261025b576004359061090c613050565b81835261104b9081815261092a60ff60046040872001541615612fbc565b82845281815261094260026040862001544211613004565b8284528181524260036040862001541115610aa2578284528181526001604085200154341115610a5e5782845281815283808080604081206001808060a01b03825416910154905af13d15610a59573d61099b8161267c565b906109a9604051928361258f565b815285833d92013e5b15610a1e57828452526040808320346001820181905581546001600160a01b0319163390811790925582519384526020840191909152908201527f8108a40c809d4e4f749358511f7baa90a1259a19024e438f728276ccd4c936869080606081015b0390a16001815580f35b6064906040519062461bcd60e51b8252600482015260146024820152732330b4b632b2103a379039b2b7321022ba3432b960611b6044820152fd5b6109b2565b6064906040519062461bcd60e51b82526004820152601b60248201527f6869676865722062696420616c7265616479206578697374696e6700000000006044820152fd5b6064906040519062461bcd60e51b825260048201526019602482015278185d58dd1a5bdb881a185cc8185b1c9958591e48195b991959603a1b6044820152fd5b50346101fd5760203660031901126101fd57604060a091600435815261104b60205220600180831b0381541690600181015490600281015460ff60046003840154930154169260405194855260208501526040840152606083015215156080820152f35b50346101fd5760603660031901126101fd5760043560243590610b7460018060a01b03600254163314612def565b808352600760209181835260408520848652835260ff60056040872001541680610c27575b15610bee5780855281835260408520848652835260443560026040872001558085528183526040852084865283526005604086200160ff19815416905584528152604083209183525280600660408220015580f35b80855281835260408520848652835260056040862001600160ff1982541617905584528152604083209183525242600660408320015580f35b5080855281835260408520848652835260066040862001546203f4808101809111610c53574211610b99565b634e487b7160e01b86526011600452602486fd5b50346101fd5760603660031901126101fd576001600160401b0360043581811161074b57610c99903690600401612476565b906024918235848111610ee657610cb4903690600401612476565b9290936044958635908111610ee257610cd1903690600401612476565b91909685851480610ed9575b15610e8657885b858110610d8957505050610cfa848685856128be565b865b838110610d07578780f35b80610d15600192848a612814565b35610d21828787612814565b358a5260206007815260408b2090610d3a848a8c612814565b358c5252600260408b200155610d51818686612814565b35610d5d82888a612814565b35907f1c362b7fc7c4865e1e7ede89f240549bbd8b5ee43b51383c9c0392687d6d10ec8b80a301610cfc565b610d94818787612814565b356040610da2838a8c612814565b35911090811591610e7a575b50610e3c57610dbe818787612814565b358a5260206007815260408b20610dd6838a8c612814565b358c52815260408b2054336001600160a01b0390911603610dfa5750600101610ce4565b6064907f6f6e6c79206f776e65722063616e2073657420706978656c2076616c7565000084601e876040519462461bcd60e51b86526004860152840152820152fd5b60405162461bcd60e51b815260206004820152601881850152774120706978656c206973206f7574206f6620626f756e647360401b81840152606490fd5b60409150101538610dae565b907f696e70757420617272617973206d757374206265206f66207468652073616d6560849260276040519362461bcd60e51b85526020600486015284015282015266040d8cadccee8d60cb1b6064820152fd5b50828514610cdd565b8780fd5b8580fd5b50346101fd5760208060031936011261025b57600435801515810361074b5760045462054600906203f48082610f208342612de2565b061061109f573385526110488452604085205490811561104a5782610f458242612de2565b048652611049938486526002604088200133600052865260ff604060002054166110155783919015610fec5750610f7e60045442612de2565b048552828452610f9360408620918254612435565b90555b610fa260045442612de2565b0483528152600260408320019033600052526040600020600160ff19825416179055337f7ce969a18bb6b0fba42c6d9746e7d08eeca4c661809659c91d276456e3153ac08280a280f35b610ff69042612de2565b04855282845261100e60016040872001918254612435565b9055610f96565b60405162461bcd60e51b815260048101879052600d60248201526c185b1c9958591e481d9bdd1959609a1b6044820152606490fd5b60405162461bcd60e51b815260048101869052602760248201527f6e6f20706978656c73206f776e6564203d206e6f20766f74657320746f2062656044820152660818d85cdd195960ca1b6064820152608490fd5b60405162461bcd60e51b81526004810185905260196024820152782b37ba34b7339031bab93932b73a363c903737ba1037b832b760391b6044820152606490fd5b50346101fd576110ef366124c2565b92916110fc848214612824565b845b818110611109578580f35b611114818386612814565b356040611122838887612814565b359110908115916118da575b506118bd5761113e818386612814565b358652600760205260408620611155828786612814565b35875260205260408620546001600160a01b031661121f57611178818386612814565b35865260076020526040862061118f828786612814565b358752602052604086203360018060a01b0319825416179055338652611048602052604086208054906001820180921161120b57556001905b6111d3818487612814565b356111df828887612814565b35907fee0e9a85d097f632450e6ac08750207c8f039246ee437b10eaf708b397d00ad88980a3016110fe565b634e487b7160e01b88526011600452602488fd5b61124061122d828487612814565b35611239838887612814565b3590612f5f565b61124b828487612814565b358752600760205260408720611262838887612814565b3588526020528060026040892001541160001461163c57611284828487612814565b35875260076020526040872061129b838887612814565b3588526020526112b281600260408a200154612de2565b9060018060a01b03600554166040516370a0823160e01b8152336004820152602081602481855afa8015611631578a906115fd575b61132291506112f786888b612814565b358b52600760205260408b2061130e878c8b612814565b358c52602052600260408c20015410612d32565b604051636eb1769f60e11b815233600482015230602482015289602082604481865afa9182156115f057868b898c8c9486976115a5575b509461139a9461138b8560029561137b6113f09e9b9860409760209e9c612814565b35855260078c5285852093612814565b35825288522001541115612d8a565b6113a586888b612814565b358b526007835260408b206113bb878c8b612814565b358c5283526040808c205490516323b872dd60e01b815295869384928e92849290916001600160a01b0316336004850161289c565b03925af190811561159a5761143f9260209261157d575b506005546002546040516323b872dd60e01b81529485936001600160a01b039384169385938e9385939092909116336004850161289c565b03925af1801561157257611543575b5061145a818386612814565b358652600760205260408620611471828786612814565b35875260209081526040808820546001600160a01b03168852611048918290528720805460001981019190821161152f5755338752602052604086208054906001820180921161120b57556001906114ca818487612814565b3587526007602052604087206114e1828887612814565b3588526020526040872033838060a01b0319825416179055611504818487612814565b35875260076020526040872061151b828887612814565b3588526020524260046040892001556111c8565b634e487b7160e01b89526011600452602489fd5b6115649060203d60201161156b575b61155c818361258f565b810190612884565b503861144e565b503d611552565b6040513d89823e3d90fd5b61159390833d851161156b5761155c818361258f565b5038611407565b6040513d8a823e3d90fd5b979996505050505050506020823d6020116115e8575b816115c86020938361258f565b810103126115e35790519092908987868b898c61139a611359565b600080fd5b3d91506115bb565b50604051903d90823e3d90fd5b506020813d602011611629575b816116176020938361258f565b810103126115e35761132290516112e7565b3d915061160a565b6040513d8c823e3d90fd5b506005546040516370a0823160e01b81523360048201526024916001600160a01b0316906020818481855afa801561187e578990611889575b6116b0915061168585878a612814565b358a52600760205260408a2061169c868b8a612814565b358b52602052600260408b20015410612d32565b604051636eb1769f60e11b8152336004820152306024820152602081604481855afa90811561187e57899161184a575b5061177a916117206020926116f687898c612814565b358c526007845260408c2061170c888d8c612814565b358d528452600260408d2001541115612d8a565b6002546001600160a01b03169061173886888b612814565b358b526007835260408b2061174e878c8b612814565b358c528352600260408c200154918b6040518096819582946323b872dd60e01b8452336004850161289c565b03925af1801561159a5761182b575b50611795828487612814565b3587526007602052604087206117ac838887612814565b35885260209081526040808920546001600160a01b031689526110489182905288208054600019810191908211611818575533885260205260408720805491600183018093116118065750556001906114ca818487612814565b634e487b7160e01b8952601160045288fd5b634e487b7160e01b8a526011600452838afd5b6118439060203d60201161156b5761155c818361258f565b5038611789565b90506020813d602011611876575b816118656020938361258f565b810103126115e3575161177a6116e0565b3d9150611858565b6040513d8b823e3d90fd5b506020813d6020116118b5575b816118a36020938361258f565b810103126115e3576116b09051611675565b3d9150611896565b60405162461bcd60e51b8152806118d660048201612697565b0390fd5b6040915010153861112e565b612458565b6124a6565b50346101fd5760203660031901126101fd576004356001600160a01b038181169182900361074b5761192790600254163314612def565b600580546001600160a01b03191691909117905580f35b50346101fd5760208060031936011261025b57600435906205460061196560045442612de2565b04821015611b2d5781835261104980825261198a604085206001815491015490612435565b908115611af857838552825260408420549060011c106119a8578280f35b6001546001600160a01b03929084908416803b1561025b578180916024604051809481936335313c2160e11b83523060048401525af18015611aed57611ad5575b50506004927fd9dc24857f317ed9abbbb42e920ede0104231eb1d3d70236a74887ffaf159868838093604051908152a160015416604051938480926318160ddd60e01b82525afa918215611aca578392611a9b575b506000198201918211611a875781835261104a815242604084205561104b9081815242600260408620015561fd204201928342116108c157845252600360408320015538808280f35b634e487b7160e01b83526011600452602483fd5b9080925081813d8311611ac3575b611ab3818361258f565b810103126115e357519038611a3e565b503d611aa9565b6040513d85823e3d90fd5b611ade90612546565b611ae95783386119e9565b8380fd5b6040513d84823e3d90fd5b60405162461bcd60e51b815260048101849052600d60248201526c139bc81d9bdd195cc818d85cdd609a1b6044820152606490fd5b6084906040519062461bcd60e51b82526004820152603660248201527f636865636b20766f7465206f7574636f6d6573206f6e6c7920706f737369626c6044820152756520666f7220636f6e636c75646564206379636c657360501b6064820152fd5b50346101fd57806003193601126101fd5760206203f48062054600611bb760045442612de2565b0610604051908152f35b50346101fd57806003193601126101fd576002546040516001600160a01b039091168152602090f35b50346101fd5760203660031901126101fd576004356001600160401b03811161025b57611c1b903690600401612476565b6203f48062054600611c2f60045442612de2565b0610156120a5576040519161082083018381106001600160401b038211176106e75760405260408352610800366020850137835b828110611d3d57505050815b60408110611c7b578280f35b611c8581836127ea565b51611c93575b600101611c6f565b604051611c9f81612574565b838152600682901b6001600160fa1b03831683036108c157806040019081604011610c5357905b808210611ce757505090611ce060019282611008016126c8565b9050611c8b565b9091611000831015611d295760206106dc611d23926106ce6040519382611d178694518092848088019101612391565b830101876008016137d3565b90611cc6565b634e487b7160e01b86526032600452602486fd5b600581811b830135601e19843603018112156120a157830180356001600160401b038111610ee2576020820192813603841361209d57829182019060208201916080938491031261209957896060850135938501356001600160401b03811161025b57850183603f8201121561025b576020810135611dbb8161267c565b94611dc9604051968761258f565b8186526040828401011161074b57806040602093018387013784010152604085351080159061208b575b6118bd57600a83101561204d5760ff9085358b52600760205260408b2060408601358c5260205260408b20015416611ff05783358952600760209081526040808b20858201358c529091528920546001600160a01b03163314611e63575b50505050611e5e9061266d565b611c63565b611e8a9084358a52600760205260408a2060408501358b52602052600360408b20016126c8565b82358852600760209081526040808a2084820135808c5292528920600101919091556001600160fa1b0381169003611fdc57611ece604082013560061b8335612435565b8235885260076020526040882060408301358952602052600160408920015460098435818635020481148535151715611fc8576040840135818102819004821490151715611fc85790611f539185358b52600760205260408b2060408601358c52602052611f41600360408d20016125b0565b91816040870135029187350290613073565b90611000811015611fb45791611f73604092611e5e9695946008016126c8565b6001611f82838301358a6127ea565b52013590357fa9a418da632d42c446a125f10b007831ba0e348168b6b2474a2383ac5df4c2808880a390388080611e51565b634e487b7160e01b89526032600452602489fd5b634e487b7160e01b8a52601160045260248afd5b634e487b7160e01b87526011600452602487fd5b60405162461bcd60e51b815260206004820152602f60248201527f6f776e6572207761732061736b656420746f20666972737420736574746c652060448201526e1c9bde585b1d1e481c185e5b595b9d608a1b6064820152608490fd5b60405162461bcd60e51b81526020600482015260166024820152757368617065204944206e6f7420617661696c61626c6560501b6044820152606490fd5b506040808501351015611df3565b8980fd5b8880fd5b8680fd5b60405162461bcd60e51b815260206004820152602260248201527f417274697374696320706572696f642063757272656e746c79206e6f74206f7060448201526132b760f11b6064820152608490fd5b50346101fd5760203660031901126101fd57604080916004358152611049602052206001815491015482519182526020820152f35b50346101fd57602090816003193601126101fd57600435612149613050565b80825261104b9081845261216760ff60046040862001541615612fbc565b80835281845261217f60026040852001544211613004565b8083528184524260036040852001541015612292578083528184526040832060048101805460ff191660019081179091555490546001600160a01b0393918416908416813b15610ee657836121ee92879283604051809681958294632142170760e11b8452306004850161289c565b03925af1801561228757612256575b5081845290935260408083208054600190910154825195865292166001600160a01b03166020850152830152907fd2aa34a4fdbbc6dff6a3e56f46e0f3ae2a31d7785ff3487aa5c95c642acea501908060608101610a14565b936122817fd2aa34a4fdbbc6dff6a3e56f46e0f3ae2a31d7785ff3487aa5c95c642acea50195612546565b936121fd565b6040513d87823e3d90fd5b60405162461bcd60e51b8152600481018590526015602482015274185d58dd1a5bdb881b9bdd08195b991959081e595d605a1b6044820152606490fd5b50346101fd57806003193601126101fd576020604051620546008152f35b50346101fd5760203660031901126101fd576004356001600160a01b0381169081900361025b57604060209260ff926205460061232c60045442612de2565b048252611049855260028383200190825284522054166040519015158152f35b50346101fd576102c06123676123613661237b565b90612e88565b6040519182916020835260208301906123d9565b60409060031901126115e3576004359060243590565b60005b8381106123a45750506000910152565b8181015183820152602001612394565b906020916123cd81518092818552858086019101612391565b601f01601f1916010190565b9060018060a01b038251168152602082015160208201526040820151604082015260c080612416606085015160e0606086015260e08501906123b4565b936080810151608085015260a0810151151560a0850152015191015290565b9190820180921161244257565b634e487b7160e01b600052601160045260246000fd5b346115e35760003660031901126115e35760206040516203f4808152f35b9181601f840112156115e3578235916001600160401b0383116115e3576020808501948460051b0101116115e357565b346115e35760003660031901126115e357602060405160408152f35b60406003198201126115e3576001600160401b03916004358381116115e357826124ee91600401612476565b939093926024359182116115e35761250891600401612476565b9091565b90600182811c9216801561253c575b602083101461252657565b634e487b7160e01b600052602260045260246000fd5b91607f169161251b565b6001600160401b0381116106e757604052565b60e081019081106001600160401b038211176106e757604052565b602081019081106001600160401b038211176106e757604052565b90601f801991011681019081106001600160401b038211176106e757604052565b90604051918260008254926125c48461250c565b90818452600194858116908160001461263357506001146125f0575b50506125ee9250038361258f565b565b9093915060005260209081600020936000915b81831061261b5750506125ee935082010138806125e0565b85548884018501529485019487945091830191612603565b9150506125ee94506020925060ff191682840152151560051b82010138806125e0565b6001600160401b0381116106e75760051b60200190565b60001981146124425760010190565b6001600160401b0381116106e757601f01601f191660200190565b606090602081526016602082015275706978656c206973206f7574206f6620626f756e647360501b60408201520190565b91909182516001600160401b0381116106e7576126e5825461250c565b601f811161278f575b50602080601f831160011461272b575081929394600092612720575b50508160011b916000199060031b1c1916179055565b01519050388061270a565b90601f198316958460005282600020926000905b8882106127775750508360019596971061275e575b505050811b019055565b015160001960f88460031b161c19169055388080612754565b8060018596829496860151815501950193019061273f565b600083815260208120601f840160051c810192602085106127cd575b601f0160051c01915b8281106127c25750506126ee565b8181556001016127b4565b90925082906127ab565b8181029291811591840414171561244257565b80518210156127fe5760209160051b010190565b634e487b7160e01b600052603260045260246000fd5b91908110156127fe5760051b0190565b1561282b57565b60405162461bcd60e51b815260206004820152602b60248201527f7820616e64207920696e7075742061727261797320617265206f66207661726960448201526a6f7573206c656e6774687360a81b6064820152608490fd5b908160209103126115e3575180151581036115e35790565b6001600160a01b03918216815291166020820152604081019190915260600190565b929190916128cd818414612824565b60005b8381106128de575050505050565b6128e9818587612814565b356128f5828486612814565b3560408080931091821592612d27575b5050612d1057612916828688612814565b35600052600760209080825282600020612931858789612814565b35600052825260018060a01b03338185600020541603612cc15761295685898b612814565b356000528183528360002061296c86888a612814565b3560005283526004428186600020015403612995575b50505050506129909061266d565b6128d0565b6129af6129a3878b8d612814565b35611239888a8c612814565b600592808454169087516370a0823160e01b8152338582015260249088818381875afa908115612c3557908591600091612c91575b5010612c40578851636eb1769f60e11b8152338682019081523060208201528990829081906040010381875afa908115612c3557908591600091612c05575b5010612bb45750918691612a52936002541660008a518096819582946323b872dd60e01b8452338b850161289c565b03925af18015612ba95792612aac888c8e829a97968e612a998f9e6129909f869d9a829f9c612b8c575b50612a88828888612814565b356000528a8c528c60002093612814565b3560005288524290896000200155612814565b3560005281835283600020612ac2878b8d612814565b3560005283528b60ff8286600020015416612b25575b92505050612ae893929150612814565b35612af4828587612814565b35907fe61af2269c9afbdb69efce2b15f2a464f8ee6237f105b3d4024f2e824a9f0af3600080a39038808080612982565b600096600696612b3492612814565b358652818352838620612b48888b8d612814565b358752835283862001805460ff19169055612b64868b8d612814565b358552815281842090612b7886898b612814565b35855252822001558085388080808b612ad8565b612ba2908d803d1061156b5761155c818361258f565b5038612a7c565b86513d6000823e3d90fd5b8460276084928a8c519362461bcd60e51b85528401528201527f696e73756666696369656e7420616c6c6f77616e636520746f2070617920726f60448201526679616c7469657360c81b6064820152fd5b91508982813d8311612c2e575b612c1c818361258f565b810103126101fd575084905138612a23565b503d612c12565b8a513d6000823e3d90fd5b8460276084928a8c519362461bcd60e51b85528401528201527f6e6f742073756666696369656e742062616c616e636520746f2070617920726f60448201526679616c7469657360c81b6064820152fd5b91508982813d8311612cba575b612ca8818361258f565b810103126101fd5750849051386129e4565b503d612c9e565b835162461bcd60e51b815260048101849052602260248201527f6f6e6c7920706978656c206f776e65722063616e2070617920726f79616c7469604482015261657360f01b6064820152608490fd5b5162461bcd60e51b8152806118d660048201612697565b101590508138612905565b15612d3957565b60405162461bcd60e51b815260206004820152602360248201527f6e6f742073756666696369656e742062616c616e636520746f206275792070696044820152621e195b60ea1b6064820152608490fd5b15612d9157565b60405162461bcd60e51b815260206004820152602360248201527f696e73756666696369656e7420616c6c6f77616e636520746f206275792070696044820152621e195b60ea1b6064820152608490fd5b9190820391821161244257565b15612df657565b60405162461bcd60e51b815260206004820152602c60248201527f6f776e65722063757272656e74206d616e616765722063616e2063616c6c207460448201526b3434b990333ab731ba34b7b760a11b6064820152608490fd5b60405190612e5d82612559565b8160c06000918281528260208201528260408201526060808201528260808201528260a08201520152565b90612e91612e50565b5060409182811080612f56575b15612f1c5760005260076020528160002090600052602052600681600020825192612ec884612559565b81546001600160a01b0316845260018201546020850152600282015490840152612ef4600382016125b0565b60608401526004810154608084015260ff600582015416151560a0840152015460c082015290565b825162461bcd60e51b8152602060048201526013602482015272706978656c206f7574206f6620626f756e647360681b6044820152606490fd5b50828210612e9e565b612faf612fb8916002604064073df16000956000908482526007602052828220818352602052612f956004848420015442612de2565b9482526007602052828220908252602052200154906127d7565b600354906127d7565b0490565b15612fc357565b60405162461bcd60e51b815260206004820152601960248201527861756374696f6e2068617320656e64656420616c726561647960381b6044820152606490fd5b1561300b57565b60405162461bcd60e51b815260206004820152601b60248201527f61756374696f6e20686173206e6f7420737461727465642079657400000000006044820152606490fd5b600260005414613061576002600055565b604051633ee5aeb560e01b8152600490fd5b9192909282156137175760018314613648576002831461361e57600383146135c25760049283811461356e576005811461341157600681146133bf57600781146133585760088114613275576009146130dd57505050506040516130d681612574565b6000815290565b6130e684613856565b906130f081613856565b600886018087116132605761310490613856565b946008830180931161324b57509161322c82613248969461313961313361312d60499997613856565b9a613856565b92613856565b91604051998a97602a6131698a602099693c7061746820643d224d60b01b8b8301528a8151948593019101612391565b890193600160fd1b9485602a82015261318b825180938b602b85019101612391565b016b010209c101c101810181018960a51b602b8201526131b4825180938a603785019101612391565b018360378201526131ce8251809389603885019101612391565b0161081360f21b60388201526131ed8251809388603a85019101612391565b0190603a8201526132078251809386603b85019101612391565b019169102d11103334b6361e9160b11b603b8401528351938491604585019101612391565b01631110179f60e11b604582015203602981018452018261258f565b90565b601190634e487b7160e01b6000525260246000fd5b601186634e487b7160e01b6000525260246000fd5b509260088101938482116133435761328c85613856565b9161329f61329983613856565b91613856565b946008830180931161324b57509161322c8261324896946132c861313361312d60499997613856565b91604051998a97602a6132f88a602099693c7061746820643d224d60b01b8b8301528a8151948593019101612391565b890193600160fd1b9485602a82015261331a825180938b602b85019101612391565b016b010209c101c101810181018160a51b602b8201526131b4825180938a603785019101612391565b601184634e487b7160e01b6000525260246000fd5b5061336284613856565b9061336c81613856565b600886018096116133aa5761338086613856565b94600883019081841161324b5750604994926132489694926132c861313361312d61322c95613856565b601185634e487b7160e01b6000525260246000fd5b506133c984613856565b90600881018082116133aa576133de90613856565b93600886019081871161324b57509161322c604994926134016132489795613856565b946132c861313361312d84613856565b509261341c81613856565b9060088501908186116133aa5761343282613856565b9061344561343f82613856565b97613856565b956008820180921161324b5750603f949261324896949261346b61313361355294613856565b91604051998a97602a61349b8a602099693c7061746820643d224d60b01b8b8301528a8151948593019101612391565b890193600160fd1b9485602a8201526134bd825180938b602b85019101612391565b019161081360f21b9283602b8201526134df825180938b602d85019101612391565b0184602d8201526134f9825180938a602e85019101612391565b0190602e8201526135138251809388603085019101612391565b0190603082015261352d8251809386603185019101612391565b019169103d11103334b6361e9160b11b60318401528351938491603b85019101612391565b01631110179f60e11b603b82015203601f81018452018261258f565b509291600883019081841161324b5761358682613856565b91600886019182871161324b57509161355282613248969461346b61313361343f6135bc6135b6603f9b99613856565b94613856565b9b613856565b91506135cd83613856565b926135d783613856565b9160088201809211612442576135ec82613856565b946135ff6135f986613856565b93613856565b94600881018091116124425761324895603f9561346b61355293613856565b915061362983613856565b9261363383613856565b9160088201808311612442576135ec90613856565b915091600481018091116124425761365f90613856565b9060048101809111612442576132489161367a604492613856565b936040519485926b1e31b4b931b6329031bc1e9160a11b60208501526136aa815180926020602c88019101612391565b830165111031bc9e9160d11b602c8201526136cf825180936020603285019101612391565b016d1110391e911a11103334b6361e9160911b60328201526136fb825180936020604085019101612391565b01631110179f60e11b604082015203602481018452018261258f565b613248925061372b613299604f9395613856565b93604051948592681e3932b1ba103c1e9160b91b6020850152613758815180926020602988019101612391565b83016411103c9e9160d91b602982015261377c825180936020602e85019101612391565b017f222077696474683d223822206865696768743d2238222066696c6c3d22000000602e8201526137b7825180936020604b85019101612391565b01631110179f60e11b604b82015203602f81018452018261258f565b6000929181546137e28161250c565b9260019180831690811561383b57506001146137ff575b50505050565b90919293945060005260209081600020906000915b85831061382a57505050500190388080806137f9565b805485840152918301918101613814565b60ff19168452505050811515909102019150388080806137f9565b80156139165780816000925b6139025750806138718361267c565b9261387f604051948561258f565b808452601f1961388e8261267c565b01366020860137915b6138a057505090565b6000198201918083116124425782600a9081840493828502928584041485151715612442576138d260ff938492612de2565b1660300191821161244257855111156127fe5760f81b6001600160f81b03191660001a908401601f015380613897565b9161390e600a9161266d565b920480613862565b50604051604081018181106001600160401b038211176106e75760405260018152600360fc1b60208201529056fea264697066735822122038ee52806a729bf3ec4c432a77b1c29996ae83ba94c6605ec480c90d2272e72c64736f6c634300081400336080806040523461001657610794908161001c8239f35b600080fdfe6080604052600436101561001257600080fd5b6000803560e01c9081632e08d6021461007a5750806358161a4214610075578063b861619514610070578063cf06c7b71461006b578063dd1d2599146100665763e27d51531461006157600080fd5b6103f7565b6103d6565b6103b0565b6102bb565b61020d565b346101515760203660031901126101515760043567ffffffffffffffff811161014d576100ab9036906004016101ad565b600180825111156100fc57805b6100de575b6100da6100c98361045a565b516040519081529081906020820190565b0390f35b80825111156100f7576100f18192610511565b916100b8565b6100bd565b60405162461bcd60e51b815260206004820152602360248201527f776f6e27742067656e657261746520726f6f7420666f722073696e676c65206c60448201526232b0b360e91b6064820152608490fd5b5080fd5b80fd5b634e487b7160e01b600052604160045260246000fd5b6040519190601f01601f1916820167ffffffffffffffff81118382101761019057604052565b610154565b67ffffffffffffffff81116101905760051b60200190565b9080601f83011215610208578135906101cd6101c883610195565b61016a565b9182938184526020808095019260051b820101928311610208578301905b8282106101f9575050505090565b813581529083019083016101eb565b600080fd5b346102085760603660031901126102085760243567ffffffffffffffff81116102085761023e9036906004016101ad565b60443581516000925b81841061025d5760405160043584148152602090f35b909161027660019161026f868561047d565b5190610437565b9301929190610247565b6020908160408183019282815285518094520193019160005b8281106102a7575050505090565b835185529381019392810192600101610299565b346102085760403660031901126102085760043567ffffffffffffffff8111610208576102ec9036906004016101ad565b602435906001906102ff82825111610491565b61031161030c8251610632565b6104e9565b92600080845b61032a575b604051806100da8882610280565b8351858111156103aa578584939261036f92828080981614600014610379575061035860001986018861047d565b51610363828b61047d565b525b0192841c94610511565b9392919091610317565b85830190810361039557508361038f828b61047d565b52610365565b61039f908861047d565b5161038f828b61047d565b5061031c565b346102085760203660031901126102085760206103ce600435610632565b604051908152f35b346102085760403660031901126102085760206103ce602435600435610437565b3461020857602036600319011261020857600435806000815b61042a576020925060405191806001811901161490038152f35b600192831c920182610410565b8181101561044e576000526020525b604060002090565b90600052602052610446565b8051156104675760200190565b634e487b7160e01b600052603260045260246000fd5b80518210156104675760209160051b010190565b1561049857565b60405162461bcd60e51b8152602060048201526024808201527f776f6e27742067656e65726174652070726f6f6620666f722073696e676c65206044820152633632b0b360e11b6064820152608490fd5b906104f66101c883610195565b8281528092610507601f1991610195565b0190602036910137565b90815160019081808216146000146105a9576105308282811c016104e9565b916000196105408382018761047d565b516000805260205261055a6040600020918551018561047d565b525b600019909101906000805b8382106105775750929450505050565b82600291610595610588858b61047d565b5161026f8487018c61047d565b61059f828961047d565b5201910190610567565b6105b481831c6104e9565b9161055c565b90604082018092116105c857565b634e487b7160e01b600052601160045260246000fd5b90602082018092116105c857565b90601082018092116105c857565b90600882018092116105c857565b90600482018092116105c857565b90600282018092116105c857565b90600182018092116105c857565b60018111156107585760009080600160801b81101561074d575b600290600160401b81101561073a575b640100000000811015610727575b62010000811015610714575b610100811015610701575b60108110156106ee575b60048110156106dc575b10156106cc575b806106a78119610624565b1614806106c3575b156106b75790565b6106c090610624565b90565b508015156106af565b906106d690610624565b9061069c565b6106e890821c93610616565b92610695565b6106fb9060041c93610608565b9261068b565b61070e9060081c936105fa565b92610681565b6107219060101c936105ec565b92610676565b6107349060201c936105de565b9261066a565b6107479060401c936105ba565b9261065c565b60809250821c61064c565b5060009056fea264697066735822122029596db90313b4fb257efd2fbf9ba954b5a2054bf304a0aa15f5e78439e12f4364736f6c63430008140033","opcodes":"PUSH1 0x80 DUP1 PUSH1 0x40 MSTORE CALLVALUE PUSH3 0xBD JUMPI PUSH1 0x1 PUSH1 0x0 SSTORE PUSH1 0x32 PUSH1 0x3 SSTORE PUSH1 0x5 DUP1 SLOAD PUSH1 0x1 PUSH1 0x1 PUSH1 0xA0 SHL SUB NOT SWAP1 DUP2 AND PUSH20 0xC02AAA39B223FE8D0A0E5C4F27EAD9083C756CC2 OR SWAP1 SWAP2 SSTORE SWAP1 PUSH2 0x7B0 DUP1 DUP3 ADD PUSH1 0x1 PUSH1 0x1 PUSH1 0x40 SHL SUB DUP2 GT DUP4 DUP3 LT OR PUSH3 0xA7 JUMPI DUP3 SWAP2 PUSH3 0x3A3D DUP4 CODECOPY SUB SWAP1 PUSH1 0x0 CREATE DUP1 ISZERO PUSH3 0x9B JUMPI PUSH1 0x1 DUP1 PUSH1 0xA0 SHL SUB AND DUP2 PUSH1 0x6 SLOAD AND OR PUSH1 0x6 SSTORE CALLER SWAP1 PUSH1 0x2 SLOAD AND OR PUSH1 0x2 SSTORE TIMESTAMP PUSH1 0x4 SSTORE PUSH1 0x40 MLOAD PUSH2 0x397A SWAP1 DUP2 PUSH3 0xC3 DUP3 CODECOPY RETURN JUMPDEST PUSH1 0x40 MLOAD RETURNDATASIZE PUSH1 0x0 DUP3 RETURNDATACOPY RETURNDATASIZE SWAP1 REVERT JUMPDEST PUSH4 0x4E487B71 PUSH1 0xE0 SHL PUSH1 0x0 MSTORE PUSH1 0x41 PUSH1 0x4 MSTORE PUSH1 0x24 PUSH1 0x0 REVERT JUMPDEST PUSH1 0x0 DUP1 REVERT INVALID PUSH1 0x80 PUSH1 0x40 MSTORE PUSH1 0x4 CALLDATASIZE LT ISZERO PUSH2 0x12 JUMPI PUSH1 0x0 DUP1 REVERT JUMPDEST PUSH1 0x0 DUP1 CALLDATALOAD PUSH1 0xE0 SHR DUP1 PUSH4 0x40CDFD8 EQ PUSH2 0x234C JUMPI DUP1 PUSH4 0x9EEF43E EQ PUSH2 0x22ED JUMPI DUP1 PUSH4 0x113BC999 EQ PUSH2 0x22CF JUMPI DUP1 PUSH4 0x236ED8F3 EQ PUSH2 0x212A JUMPI DUP1 PUSH4 0x30B5D6D3 EQ PUSH2 0x20F5 JUMPI DUP1 PUSH4 0x3323A706 EQ PUSH2 0x18E6 JUMPI DUP1 PUSH4 0x3BDB693E EQ PUSH2 0x1BEA JUMPI DUP1 PUSH4 0x481C6A75 EQ PUSH2 0x1BC1 JUMPI DUP1 PUSH4 0x4882A7EA EQ PUSH2 0x1B90 JUMPI DUP1 PUSH4 0x5C8C6407 EQ PUSH2 0x193E JUMPI DUP1 PUSH4 0x5E027601 EQ PUSH2 0x18F0 JUMPI DUP1 PUSH4 0x6006ECC8 EQ PUSH2 0x18EB JUMPI DUP1 PUSH4 0x63AA5CE2 EQ PUSH2 0x18EB JUMPI DUP1 PUSH4 0x6E70FCC6 EQ PUSH2 0x18E6 JUMPI DUP1 PUSH4 0x6ED958F1 EQ PUSH2 0x10E0 JUMPI DUP1 PUSH4 0x70A08231 EQ PUSH2 0x21D JUMPI DUP1 PUSH4 0x7ACE48E7 EQ PUSH2 0xEEA JUMPI DUP1 PUSH4 0x8232B562 EQ PUSH2 0xC67 JUMPI DUP1 PUSH4 0x85A9473D EQ PUSH2 0xB46 JUMPI DUP1 PUSH4 0x93CDE51A EQ PUSH2 0xAE2 JUMPI DUP1 PUSH4 0x9979EF45 EQ PUSH2 0x8F2 JUMPI DUP1 PUSH4 0xA271E525 EQ PUSH2 0x8D5 JUMPI DUP1 PUSH4 0xA52F27B5 EQ PUSH2 0x74F JUMPI DUP1 PUSH4 0xA7CCABDF EQ PUSH2 0x6FD JUMPI DUP1 PUSH4 0xAD711E9E EQ PUSH2 0x5A5 JUMPI DUP1 PUSH4 0xB1610D7E EQ PUSH2 0x587 JUMPI DUP1 PUSH4 0xB3A1DDF4 EQ PUSH2 0x555 JUMPI DUP1 PUSH4 0xBC5BC2FB EQ PUSH2 0x4FE JUMPI DUP1 PUSH4 0xBE26ED7F EQ PUSH2 0x529 JUMPI DUP1 PUSH4 0xC4323FC1 EQ PUSH2 0x4FE JUMPI DUP1 PUSH4 0xC4D1510D EQ PUSH2 0x4E0 JUMPI DUP1 PUSH4 0xC4E4B90C EQ PUSH2 0x4B1 JUMPI DUP1 PUSH4 0xC730E65D EQ PUSH2 0x41B JUMPI DUP1 PUSH4 0xC7EAB2EC EQ PUSH2 0x30F JUMPI DUP1 PUSH4 0xD08629C1 EQ PUSH2 0x2ED JUMPI DUP1 PUSH4 0xD56D229D EQ PUSH2 0x2C4 JUMPI DUP1 PUSH4 0xE1245900 EQ PUSH2 0x27D JUMPI DUP1 PUSH4 0xE50EB5DA EQ PUSH2 0x25F JUMPI DUP1 PUSH4 0xF8B2CB4F EQ PUSH2 0x21D JUMPI DUP1 PUSH4 0xFD8D7ED3 EQ PUSH2 0x200 JUMPI PUSH4 0xFF188DCA EQ PUSH2 0x1E0 JUMPI PUSH1 0x0 DUP1 REVERT JUMPDEST CALLVALUE PUSH2 0x1FD JUMPI DUP1 PUSH1 0x3 NOT CALLDATASIZE ADD SLT PUSH2 0x1FD JUMPI PUSH1 0x20 PUSH1 0x4 SLOAD PUSH1 0x40 MLOAD SWAP1 DUP2 MSTORE RETURN JUMPDEST DUP1 REVERT JUMPDEST POP CALLVALUE PUSH2 0x1FD JUMPI DUP1 PUSH1 0x3 NOT CALLDATASIZE ADD SLT PUSH2 0x1FD JUMPI PUSH1 0x20 PUSH1 0x40 MLOAD PUSH2 0x3E8 DUP2 MSTORE RETURN JUMPDEST POP CALLVALUE PUSH2 0x1FD JUMPI PUSH1 0x20 CALLDATASIZE PUSH1 0x3 NOT ADD SLT PUSH2 0x1FD JUMPI PUSH1 0x4 CALLDATALOAD PUSH1 0x1 PUSH1 0x1 PUSH1 0xA0 SHL SUB DUP2 AND SWAP1 DUP2 SWAP1 SUB PUSH2 0x25B JUMPI DUP2 PUSH1 0x40 SWAP2 PUSH1 0x20 SWAP4 MSTORE PUSH2 0x1048 DUP4 MSTORE KECCAK256 SLOAD PUSH1 0x40 MLOAD SWAP1 DUP2 MSTORE RETURN JUMPDEST POP DUP1 REVERT JUMPDEST POP CALLVALUE PUSH2 0x1FD JUMPI PUSH2 0x27A PUSH2 0x271 CALLDATASIZE PUSH2 0x24C2 JUMP JUMPDEST SWAP3 SWAP2 SWAP1 SWAP2 PUSH2 0x28BE JUMP JUMPDEST DUP1 RETURN JUMPDEST POP CALLVALUE PUSH2 0x1FD JUMPI PUSH1 0x20 CALLDATASIZE PUSH1 0x3 NOT ADD SLT PUSH2 0x1FD JUMPI PUSH1 0x4 CALLDATALOAD SWAP1 PUSH1 0x40 DUP3 LT ISZERO PUSH2 0x1FD JUMPI PUSH2 0x2C0 PUSH2 0x2AC DUP4 PUSH2 0x1008 ADD PUSH2 0x25B0 JUMP JUMPDEST PUSH1 0x40 MLOAD SWAP2 DUP3 SWAP2 PUSH1 0x20 DUP4 MSTORE PUSH1 0x20 DUP4 ADD SWAP1 PUSH2 0x23B4 JUMP JUMPDEST SUB SWAP1 RETURN JUMPDEST POP CALLVALUE PUSH2 0x1FD JUMPI DUP1 PUSH1 0x3 NOT CALLDATASIZE ADD SLT PUSH2 0x1FD JUMPI PUSH1 0x1 SLOAD PUSH1 0x40 MLOAD PUSH1 0x1 PUSH1 0x1 PUSH1 0xA0 SHL SUB SWAP1 SWAP2 AND DUP2 MSTORE PUSH1 0x20 SWAP1 RETURN JUMPDEST POP CALLVALUE PUSH2 0x1FD JUMPI PUSH1 0x20 PUSH2 0x307 PUSH2 0x301 CALLDATASIZE PUSH2 0x237B JUMP JUMPDEST SWAP1 PUSH2 0x2F5F JUMP JUMPDEST PUSH1 0x40 MLOAD SWAP1 DUP2 MSTORE RETURN JUMPDEST POP CALLVALUE PUSH2 0x1FD JUMPI PUSH2 0x31E CALLDATASIZE PUSH2 0x24C2 JUMP JUMPDEST PUSH2 0x32B DUP2 DUP5 SWAP6 SWAP5 EQ PUSH2 0x2824 JUMP JUMPDEST PUSH2 0x334 DUP5 PUSH2 0x2656 JUMP JUMPDEST SWAP4 PUSH2 0x342 PUSH1 0x40 MLOAD SWAP6 DUP7 PUSH2 0x258F JUMP JUMPDEST DUP1 DUP6 MSTORE PUSH1 0x1F NOT PUSH2 0x351 DUP3 PUSH2 0x2656 JUMP JUMPDEST ADD DUP7 JUMPDEST DUP2 DUP2 LT PUSH2 0x404 JUMPI POP POP DUP6 JUMPDEST DUP2 DUP2 LT PUSH2 0x3C4 JUMPI PUSH1 0x40 DUP1 MLOAD PUSH1 0x20 DUP1 DUP3 MSTORE DUP9 MLOAD DUP2 DUP4 ADD DUP2 SWAP1 MSTORE DUP11 SWAP4 PUSH1 0x5 DUP3 SWAP1 SHL DUP5 ADD DUP2 ADD SWAP3 DUP1 DUP13 ADD SWAP3 SWAP2 DUP6 ADD JUMPDEST DUP3 DUP8 LT PUSH2 0x398 JUMPI DUP6 DUP6 SUB DUP7 RETURN JUMPDEST SWAP1 SWAP2 SWAP3 SWAP4 DUP3 DUP1 PUSH2 0x3B4 PUSH1 0x1 SWAP4 PUSH1 0x3F NOT DUP11 DUP3 SUB ADD DUP7 MSTORE DUP9 MLOAD PUSH2 0x23D9 JUMP JUMPDEST SWAP7 ADD SWAP3 ADD SWAP7 ADD SWAP6 SWAP3 SWAP2 SWAP1 SWAP3 PUSH2 0x38B JUMP JUMPDEST DUP1 PUSH2 0x3E8 PUSH2 0x3D5 PUSH1 0x1 SWAP4 DUP6 DUP10 PUSH2 0x2814 JUMP JUMPDEST CALLDATALOAD PUSH2 0x3E1 DUP4 DUP8 DUP10 PUSH2 0x2814 JUMP JUMPDEST CALLDATALOAD SWAP1 PUSH2 0x2E88 JUMP JUMPDEST PUSH2 0x3F2 DUP3 DUP10 PUSH2 0x27EA JUMP JUMPDEST MSTORE PUSH2 0x3FD DUP2 DUP9 PUSH2 0x27EA JUMP JUMPDEST POP ADD PUSH2 0x35F JUMP JUMPDEST PUSH1 0x20 SWAP1 PUSH2 0x40F PUSH2 0x2E50 JUMP JUMPDEST DUP3 DUP3 DUP11 ADD ADD MSTORE ADD PUSH2 0x354 JUMP JUMPDEST POP CALLVALUE PUSH2 0x1FD JUMPI PUSH1 0x40 SWAP1 PUSH2 0x42D CALLDATASIZE PUSH2 0x237B JUMP JUMPDEST SWAP1 DUP3 MSTORE PUSH1 0x7 PUSH1 0x20 MSTORE DUP3 DUP3 KECCAK256 SWAP1 DUP3 MSTORE PUSH1 0x20 MSTORE KECCAK256 PUSH1 0x1 DUP1 PUSH1 0xA0 SHL SUB DUP2 SLOAD AND PUSH1 0x1 DUP3 ADD SLOAD SWAP2 PUSH1 0x2 DUP2 ADD SLOAD PUSH2 0x460 PUSH1 0x3 DUP4 ADD PUSH2 0x25B0 JUMP JUMPDEST SWAP2 PUSH2 0x49B PUSH1 0x4 DUP3 ADD SLOAD SWAP4 PUSH1 0x6 PUSH1 0xFF PUSH1 0x5 DUP6 ADD SLOAD AND SWAP4 ADD SLOAD SWAP4 PUSH1 0x40 MLOAD SWAP8 DUP9 SWAP8 DUP9 MSTORE PUSH1 0x20 DUP9 ADD MSTORE PUSH1 0x40 DUP8 ADD MSTORE PUSH1 0xE0 PUSH1 0x60 DUP8 ADD MSTORE PUSH1 0xE0 DUP7 ADD SWAP1 PUSH2 0x23B4 JUMP JUMPDEST SWAP3 PUSH1 0x80 DUP6 ADD MSTORE ISZERO ISZERO PUSH1 0xA0 DUP5 ADD MSTORE PUSH1 0xC0 DUP4 ADD MSTORE SUB SWAP1 RETURN JUMPDEST POP CALLVALUE PUSH2 0x1FD JUMPI PUSH1 0x20 CALLDATASIZE PUSH1 0x3 NOT ADD SLT PUSH2 0x1FD JUMPI PUSH1 0x4 CALLDATALOAD SWAP1 PUSH2 0x1000 DUP3 LT ISZERO PUSH2 0x1FD JUMPI PUSH2 0x2C0 PUSH2 0x2AC DUP4 PUSH1 0x8 ADD PUSH2 0x25B0 JUMP JUMPDEST POP CALLVALUE PUSH2 0x1FD JUMPI DUP1 PUSH1 0x3 NOT CALLDATASIZE ADD SLT PUSH2 0x1FD JUMPI PUSH1 0x20 PUSH1 0x3 SLOAD PUSH1 0x40 MLOAD SWAP1 DUP2 MSTORE RETURN JUMPDEST POP CALLVALUE PUSH2 0x1FD JUMPI PUSH1 0x20 CALLDATASIZE PUSH1 0x3 NOT ADD SLT PUSH2 0x1FD JUMPI PUSH1 0x40 PUSH1 0x20 SWAP2 PUSH1 0x4 CALLDATALOAD DUP2 MSTORE PUSH2 0x104A DUP4 MSTORE KECCAK256 SLOAD PUSH1 0x40 MLOAD SWAP1 DUP2 MSTORE RETURN JUMPDEST POP CALLVALUE PUSH2 0x1FD JUMPI DUP1 PUSH1 0x3 NOT CALLDATASIZE ADD SLT PUSH2 0x1FD JUMPI PUSH1 0x20 PUSH3 0x54600 PUSH2 0x54C PUSH1 0x4 SLOAD TIMESTAMP PUSH2 0x2DE2 JUMP JUMPDEST DIV PUSH1 0x40 MLOAD SWAP1 DUP2 MSTORE RETURN JUMPDEST POP CALLVALUE PUSH2 0x1FD JUMPI DUP1 PUSH1 0x3 NOT CALLDATASIZE ADD SLT PUSH2 0x1FD JUMPI PUSH1 0x20 PUSH3 0x3F480 PUSH3 0x54600 PUSH2 0x57C PUSH1 0x4 SLOAD TIMESTAMP PUSH2 0x2DE2 JUMP JUMPDEST MOD LT ISZERO PUSH1 0x40 MLOAD SWAP1 DUP2 MSTORE RETURN JUMPDEST POP CALLVALUE PUSH2 0x1FD JUMPI DUP1 PUSH1 0x3 NOT CALLDATASIZE ADD SLT PUSH2 0x1FD JUMPI PUSH1 0x20 PUSH1 0x40 MLOAD PUSH3 0x15180 DUP2 MSTORE RETURN JUMPDEST POP CALLVALUE PUSH2 0x1FD JUMPI DUP1 PUSH1 0x3 NOT CALLDATASIZE ADD SLT PUSH2 0x1FD JUMPI PUSH1 0x40 MLOAD PUSH1 0x80 DUP2 ADD DUP2 DUP2 LT PUSH1 0x1 PUSH1 0x1 PUSH1 0x40 SHL SUB DUP3 GT OR PUSH2 0x6E7 JUMPI PUSH1 0x40 MSTORE PUSH1 0x57 DUP2 MSTORE PUSH1 0x20 SWAP1 PUSH32 0x3C7376672077696474683D2236303022206865696768743D2236303022207669 DUP3 DUP3 ADD MSTORE PUSH32 0x6577426F783D2230203020363030203630302220786D6C6E733D22687474703A PUSH1 0x40 DUP3 ADD MSTORE PUSH23 0x1797BBBBBB973B999737B933979918181817B9BB33911F PUSH1 0x49 SHL PUSH1 0x60 DUP3 ADD MSTORE SWAP2 JUMPDEST PUSH1 0x40 DUP2 LT PUSH2 0x69D JUMPI POP PUSH2 0x689 PUSH1 0x26 PUSH1 0x40 MLOAD DUP5 PUSH2 0x66B DUP3 SWAP7 MLOAD DUP1 SWAP3 DUP8 DUP1 DUP7 ADD SWAP2 ADD PUSH2 0x2391 JUMP JUMPDEST DUP2 ADD PUSH6 0x1E17B9BB339F PUSH1 0xD1 SHL DUP6 DUP3 ADD MSTORE SUB PUSH1 0x6 DUP2 ADD DUP6 MSTORE ADD DUP4 PUSH2 0x258F JUMP JUMPDEST PUSH2 0x2C0 PUSH1 0x40 MLOAD SWAP3 DUP3 DUP5 SWAP4 DUP5 MSTORE DUP4 ADD SWAP1 PUSH2 0x23B4 JUMP JUMPDEST SWAP2 DUP2 PUSH2 0x6DC PUSH2 0x6E2 SWAP3 PUSH2 0x6CE PUSH1 0x40 MLOAD SWAP4 DUP3 PUSH2 0x6C1 DUP7 SWAP5 MLOAD DUP1 SWAP3 DUP5 DUP1 DUP9 ADD SWAP2 ADD PUSH2 0x2391 JUMP JUMPDEST DUP4 ADD ADD DUP8 PUSH2 0x1008 ADD PUSH2 0x37D3 JUMP JUMPDEST SUB PUSH1 0x1F NOT DUP2 ADD DUP4 MSTORE DUP3 PUSH2 0x258F JUMP JUMPDEST SWAP3 PUSH2 0x266D JUMP JUMPDEST PUSH2 0x646 JUMP JUMPDEST PUSH4 0x4E487B71 PUSH1 0xE0 SHL PUSH1 0x0 MSTORE PUSH1 0x41 PUSH1 0x4 MSTORE PUSH1 0x24 PUSH1 0x0 REVERT JUMPDEST POP CALLVALUE PUSH2 0x1FD JUMPI PUSH1 0x20 CALLDATASIZE PUSH1 0x3 NOT ADD SLT PUSH2 0x1FD JUMPI PUSH1 0x4 CALLDATALOAD PUSH1 0x1 PUSH1 0x1 PUSH1 0xA0 SHL SUB DUP2 DUP2 AND SWAP2 DUP3 SWAP1 SUB PUSH2 0x74B JUMPI PUSH2 0x734 SWAP1 PUSH1 0x2 SLOAD AND CALLER EQ PUSH2 0x2DEF JUMP JUMPDEST PUSH1 0x1 DUP1 SLOAD PUSH1 0x1 PUSH1 0x1 PUSH1 0xA0 SHL SUB NOT AND SWAP2 SWAP1 SWAP2 OR SWAP1 SSTORE DUP1 RETURN JUMPDEST DUP3 DUP1 REVERT JUMPDEST POP CALLVALUE PUSH2 0x1FD JUMPI DUP1 PUSH1 0x3 NOT CALLDATASIZE ADD SLT PUSH2 0x1FD JUMPI PUSH1 0x40 MLOAD SWAP1 PUSH3 0x20020 DUP3 ADD DUP3 DUP2 LT PUSH1 0x1 PUSH1 0x1 PUSH1 0x40 SHL SUB DUP3 GT OR PUSH2 0x6E7 JUMPI PUSH1 0x40 MSTORE PUSH2 0x1000 DUP3 MSTORE PUSH1 0x20 SWAP2 DUP3 DUP1 DUP3 ADD SWAP2 PUSH3 0x20000 CALLDATASIZE DUP5 CALLDATACOPY DUP4 JUMPDEST PUSH1 0x40 DUP2 LT PUSH2 0x84E JUMPI POP PUSH1 0x1 DUP1 PUSH1 0xA0 SHL SUB PUSH1 0x6 SLOAD AND PUSH1 0x40 MLOAD SWAP4 DUP5 SWAP3 PUSH4 0x17046B01 PUSH1 0xE1 SHL DUP5 MSTORE PUSH1 0x24 DUP5 ADD SWAP1 DUP6 PUSH1 0x4 DUP7 ADD MSTORE MLOAD DUP1 SWAP2 MSTORE PUSH1 0x44 DUP5 ADD SWAP2 SWAP1 DUP8 JUMPDEST DUP2 DUP2 LT PUSH2 0x835 JUMPI POP POP POP DUP3 DUP1 SWAP2 SUB SWAP2 GAS STATICCALL SWAP2 DUP3 ISZERO PUSH2 0x829 JUMPI DUP1 SWAP3 PUSH2 0x7F9 JUMPI JUMPDEST POP POP PUSH1 0x40 MLOAD SWAP1 DUP2 MSTORE RETURN JUMPDEST SWAP1 SWAP2 POP DUP3 DUP3 DUP2 RETURNDATASIZE DUP4 GT PUSH2 0x822 JUMPI JUMPDEST PUSH2 0x811 DUP2 DUP4 PUSH2 0x258F JUMP JUMPDEST DUP2 ADD SUB SLT PUSH2 0x1FD JUMPI POP MLOAD CODESIZE DUP1 PUSH2 0x7EF JUMP JUMPDEST POP RETURNDATASIZE PUSH2 0x807 JUMP JUMPDEST PUSH1 0x40 MLOAD SWAP1 RETURNDATASIZE SWAP1 DUP3 RETURNDATACOPY RETURNDATASIZE SWAP1 REVERT JUMPDEST DUP3 MLOAD DUP5 MSTORE DUP10 SWAP7 DUP9 SWAP7 POP SWAP4 DUP5 ADD SWAP4 SWAP1 SWAP3 ADD SWAP2 PUSH1 0x1 ADD PUSH2 0x7D0 JUMP JUMPDEST SWAP1 SWAP3 SWAP2 POP DUP4 JUMPDEST PUSH1 0x40 DUP2 LT PUSH2 0x869 JUMPI POP PUSH1 0x1 ADD SWAP2 DUP5 SWAP2 SWAP3 PUSH2 0x795 JUMP JUMPDEST PUSH1 0x1 PUSH1 0x1 PUSH1 0xFA SHL SUB DUP3 AND DUP3 SUB PUSH2 0x8C1 JUMPI PUSH1 0x1 SWAP1 PUSH2 0x889 DUP4 PUSH1 0x6 SHL DUP3 PUSH2 0x2435 JUMP JUMPDEST DUP2 DUP8 MSTORE PUSH1 0x7 DUP9 MSTORE PUSH1 0x40 DUP8 KECCAK256 DUP5 DUP9 MSTORE DUP9 MSTORE PUSH2 0x8BA PUSH12 0xFFFFFFFFFFFFFFFFFFFFFFFF NOT PUSH1 0x40 DUP10 KECCAK256 SLOAD PUSH1 0x60 SHL AND SWAP2 DUP8 PUSH2 0x27EA JUMP JUMPDEST MSTORE ADD PUSH2 0x854 JUMP JUMPDEST PUSH4 0x4E487B71 PUSH1 0xE0 SHL DUP6 MSTORE PUSH1 0x11 PUSH1 0x4 MSTORE PUSH1 0x24 DUP6 REVERT JUMPDEST POP CALLVALUE PUSH2 0x1FD JUMPI DUP1 PUSH1 0x3 NOT CALLDATASIZE ADD SLT PUSH2 0x1FD JUMPI PUSH1 0x20 PUSH1 0x40 MLOAD PUSH2 0xFD20 DUP2 MSTORE RETURN JUMPDEST POP PUSH1 0x20 DUP1 PUSH1 0x3 NOT CALLDATASIZE ADD SLT PUSH2 0x25B JUMPI PUSH1 0x4 CALLDATALOAD SWAP1 PUSH2 0x90C PUSH2 0x3050 JUMP JUMPDEST DUP2 DUP4 MSTORE PUSH2 0x104B SWAP1 DUP2 DUP2 MSTORE PUSH2 0x92A PUSH1 0xFF PUSH1 0x4 PUSH1 0x40 DUP8 KECCAK256 ADD SLOAD AND ISZERO PUSH2 0x2FBC JUMP JUMPDEST DUP3 DUP5 MSTORE DUP2 DUP2 MSTORE PUSH2 0x942 PUSH1 0x2 PUSH1 0x40 DUP7 KECCAK256 ADD SLOAD TIMESTAMP GT PUSH2 0x3004 JUMP JUMPDEST DUP3 DUP5 MSTORE DUP2 DUP2 MSTORE TIMESTAMP PUSH1 0x3 PUSH1 0x40 DUP7 KECCAK256 ADD SLOAD GT ISZERO PUSH2 0xAA2 JUMPI DUP3 DUP5 MSTORE DUP2 DUP2 MSTORE PUSH1 0x1 PUSH1 0x40 DUP6 KECCAK256 ADD SLOAD CALLVALUE GT ISZERO PUSH2 0xA5E JUMPI DUP3 DUP5 MSTORE DUP2 DUP2 MSTORE DUP4 DUP1 DUP1 DUP1 PUSH1 0x40 DUP2 KECCAK256 PUSH1 0x1 DUP1 DUP1 PUSH1 0xA0 SHL SUB DUP3 SLOAD AND SWAP2 ADD SLOAD SWAP1 GAS CALL RETURNDATASIZE ISZERO PUSH2 0xA59 JUMPI RETURNDATASIZE PUSH2 0x99B DUP2 PUSH2 0x267C JUMP JUMPDEST SWAP1 PUSH2 0x9A9 PUSH1 0x40 MLOAD SWAP3 DUP4 PUSH2 0x258F JUMP JUMPDEST DUP2 MSTORE DUP6 DUP4 RETURNDATASIZE SWAP3 ADD RETURNDATACOPY JUMPDEST ISZERO PUSH2 0xA1E JUMPI DUP3 DUP5 MSTORE MSTORE PUSH1 0x40 DUP1 DUP4 KECCAK256 CALLVALUE PUSH1 0x1 DUP3 ADD DUP2 SWAP1 SSTORE DUP2 SLOAD PUSH1 0x1 PUSH1 0x1 PUSH1 0xA0 SHL SUB NOT AND CALLER SWAP1 DUP2 OR SWAP1 SWAP3 SSTORE DUP3 MLOAD SWAP4 DUP5 MSTORE PUSH1 0x20 DUP5 ADD SWAP2 SWAP1 SWAP2 MSTORE SWAP1 DUP3 ADD MSTORE PUSH32 0x8108A40C809D4E4F749358511F7BAA90A1259A19024E438F728276CCD4C93686 SWAP1 DUP1 PUSH1 0x60 DUP2 ADD JUMPDEST SUB SWAP1 LOG1 PUSH1 0x1 DUP2 SSTORE DUP1 RETURN JUMPDEST PUSH1 0x64 SWAP1 PUSH1 0x40 MLOAD SWAP1 PUSH3 0x461BCD PUSH1 0xE5 SHL DUP3 MSTORE PUSH1 0x4 DUP3 ADD MSTORE PUSH1 0x14 PUSH1 0x24 DUP3 ADD MSTORE PUSH20 0x2330B4B632B2103A379039B2B7321022BA3432B9 PUSH1 0x61 SHL PUSH1 0x44 DUP3 ADD MSTORE REVERT JUMPDEST PUSH2 0x9B2 JUMP JUMPDEST PUSH1 0x64 SWAP1 PUSH1 0x40 MLOAD SWAP1 PUSH3 0x461BCD PUSH1 0xE5 SHL DUP3 MSTORE PUSH1 0x4 DUP3 ADD MSTORE PUSH1 0x1B PUSH1 0x24 DUP3 ADD MSTORE PUSH32 0x6869676865722062696420616C7265616479206578697374696E670000000000 PUSH1 0x44 DUP3 ADD MSTORE REVERT JUMPDEST PUSH1 0x64 SWAP1 PUSH1 0x40 MLOAD SWAP1 PUSH3 0x461BCD PUSH1 0xE5 SHL DUP3 MSTORE PUSH1 0x4 DUP3 ADD MSTORE PUSH1 0x19 PUSH1 0x24 DUP3 ADD MSTORE PUSH25 0x185D58DD1A5BDB881A185CC8185B1C9958591E48195B991959 PUSH1 0x3A SHL PUSH1 0x44 DUP3 ADD MSTORE REVERT JUMPDEST POP CALLVALUE PUSH2 0x1FD JUMPI PUSH1 0x20 CALLDATASIZE PUSH1 0x3 NOT ADD SLT PUSH2 0x1FD JUMPI PUSH1 0x40 PUSH1 0xA0 SWAP2 PUSH1 0x4 CALLDATALOAD DUP2 MSTORE PUSH2 0x104B PUSH1 0x20 MSTORE KECCAK256 PUSH1 0x1 DUP1 DUP4 SHL SUB DUP2 SLOAD AND SWAP1 PUSH1 0x1 DUP2 ADD SLOAD SWAP1 PUSH1 0x2 DUP2 ADD SLOAD PUSH1 0xFF PUSH1 0x4 PUSH1 0x3 DUP5 ADD SLOAD SWAP4 ADD SLOAD AND SWAP3 PUSH1 0x40 MLOAD SWAP5 DUP6 MSTORE PUSH1 0x20 DUP6 ADD MSTORE PUSH1 0x40 DUP5 ADD MSTORE PUSH1 0x60 DUP4 ADD MSTORE ISZERO ISZERO PUSH1 0x80 DUP3 ADD MSTORE RETURN JUMPDEST POP CALLVALUE PUSH2 0x1FD JUMPI PUSH1 0x60 CALLDATASIZE PUSH1 0x3 NOT ADD SLT PUSH2 0x1FD JUMPI PUSH1 0x4 CALLDATALOAD PUSH1 0x24 CALLDATALOAD SWAP1 PUSH2 0xB74 PUSH1 0x1 DUP1 PUSH1 0xA0 SHL SUB PUSH1 0x2 SLOAD AND CALLER EQ PUSH2 0x2DEF JUMP JUMPDEST DUP1 DUP4 MSTORE PUSH1 0x7 PUSH1 0x20 SWAP2 DUP2 DUP4 MSTORE PUSH1 0x40 DUP6 KECCAK256 DUP5 DUP7 MSTORE DUP4 MSTORE PUSH1 0xFF PUSH1 0x5 PUSH1 0x40 DUP8 KECCAK256 ADD SLOAD AND DUP1 PUSH2 0xC27 JUMPI JUMPDEST ISZERO PUSH2 0xBEE JUMPI DUP1 DUP6 MSTORE DUP2 DUP4 MSTORE PUSH1 0x40 DUP6 KECCAK256 DUP5 DUP7 MSTORE DUP4 MSTORE PUSH1 0x44 CALLDATALOAD PUSH1 0x2 PUSH1 0x40 DUP8 KECCAK256 ADD SSTORE DUP1 DUP6 MSTORE DUP2 DUP4 MSTORE PUSH1 0x40 DUP6 KECCAK256 DUP5 DUP7 MSTORE DUP4 MSTORE PUSH1 0x5 PUSH1 0x40 DUP7 KECCAK256 ADD PUSH1 0xFF NOT DUP2 SLOAD AND SWAP1 SSTORE DUP5 MSTORE DUP2 MSTORE PUSH1 0x40 DUP4 KECCAK256 SWAP2 DUP4 MSTORE MSTORE DUP1 PUSH1 0x6 PUSH1 0x40 DUP3 KECCAK256 ADD SSTORE DUP1 RETURN JUMPDEST DUP1 DUP6 MSTORE DUP2 DUP4 MSTORE PUSH1 0x40 DUP6 KECCAK256 DUP5 DUP7 MSTORE DUP4 MSTORE PUSH1 0x5 PUSH1 0x40 DUP7 KECCAK256 ADD PUSH1 0x1 PUSH1 0xFF NOT DUP3 SLOAD AND OR SWAP1 SSTORE DUP5 MSTORE DUP2 MSTORE PUSH1 0x40 DUP4 KECCAK256 SWAP2 DUP4 MSTORE MSTORE TIMESTAMP PUSH1 0x6 PUSH1 0x40 DUP4 KECCAK256 ADD SSTORE DUP1 RETURN JUMPDEST POP DUP1 DUP6 MSTORE DUP2 DUP4 MSTORE PUSH1 0x40 DUP6 KECCAK256 DUP5 DUP7 MSTORE DUP4 MSTORE PUSH1 0x6 PUSH1 0x40 DUP7 KECCAK256 ADD SLOAD PUSH3 0x3F480 DUP2 ADD DUP1 SWAP2 GT PUSH2 0xC53 JUMPI TIMESTAMP GT PUSH2 0xB99 JUMP JUMPDEST PUSH4 0x4E487B71 PUSH1 0xE0 SHL DUP7 MSTORE PUSH1 0x11 PUSH1 0x4 MSTORE PUSH1 0x24 DUP7 REVERT JUMPDEST POP CALLVALUE PUSH2 0x1FD JUMPI PUSH1 0x60 CALLDATASIZE PUSH1 0x3 NOT ADD SLT PUSH2 0x1FD JUMPI PUSH1 0x1 PUSH1 0x1 PUSH1 0x40 SHL SUB PUSH1 0x4 CALLDATALOAD DUP2 DUP2 GT PUSH2 0x74B JUMPI PUSH2 0xC99 SWAP1 CALLDATASIZE SWAP1 PUSH1 0x4 ADD PUSH2 0x2476 JUMP JUMPDEST SWAP1 PUSH1 0x24 SWAP2 DUP3 CALLDATALOAD DUP5 DUP2 GT PUSH2 0xEE6 JUMPI PUSH2 0xCB4 SWAP1 CALLDATASIZE SWAP1 PUSH1 0x4 ADD PUSH2 0x2476 JUMP JUMPDEST SWAP3 SWAP1 SWAP4 PUSH1 0x44 SWAP6 DUP7 CALLDATALOAD SWAP1 DUP2 GT PUSH2 0xEE2 JUMPI PUSH2 0xCD1 SWAP1 CALLDATASIZE SWAP1 PUSH1 0x4 ADD PUSH2 0x2476 JUMP JUMPDEST SWAP2 SWAP1 SWAP7 DUP6 DUP6 EQ DUP1 PUSH2 0xED9 JUMPI JUMPDEST ISZERO PUSH2 0xE86 JUMPI DUP9 JUMPDEST DUP6 DUP2 LT PUSH2 0xD89 JUMPI POP POP POP PUSH2 0xCFA DUP5 DUP7 DUP6 DUP6 PUSH2 0x28BE JUMP JUMPDEST DUP7 JUMPDEST DUP4 DUP2 LT PUSH2 0xD07 JUMPI DUP8 DUP1 RETURN JUMPDEST DUP1 PUSH2 0xD15 PUSH1 0x1 SWAP3 DUP5 DUP11 PUSH2 0x2814 JUMP JUMPDEST CALLDATALOAD PUSH2 0xD21 DUP3 DUP8 DUP8 PUSH2 0x2814 JUMP JUMPDEST CALLDATALOAD DUP11 MSTORE PUSH1 0x20 PUSH1 0x7 DUP2 MSTORE PUSH1 0x40 DUP12 KECCAK256 SWAP1 PUSH2 0xD3A DUP5 DUP11 DUP13 PUSH2 0x2814 JUMP JUMPDEST CALLDATALOAD DUP13 MSTORE MSTORE PUSH1 0x2 PUSH1 0x40 DUP12 KECCAK256 ADD SSTORE PUSH2 0xD51 DUP2 DUP7 DUP7 PUSH2 0x2814 JUMP JUMPDEST CALLDATALOAD PUSH2 0xD5D DUP3 DUP9 DUP11 PUSH2 0x2814 JUMP JUMPDEST CALLDATALOAD SWAP1 PUSH32 0x1C362B7FC7C4865E1E7EDE89F240549BBD8B5EE43B51383C9C0392687D6D10EC DUP12 DUP1 LOG3 ADD PUSH2 0xCFC JUMP JUMPDEST PUSH2 0xD94 DUP2 DUP8 DUP8 PUSH2 0x2814 JUMP JUMPDEST CALLDATALOAD PUSH1 0x40 PUSH2 0xDA2 DUP4 DUP11 DUP13 PUSH2 0x2814 JUMP JUMPDEST CALLDATALOAD SWAP2 LT SWAP1 DUP2 ISZERO SWAP2 PUSH2 0xE7A JUMPI JUMPDEST POP PUSH2 0xE3C JUMPI PUSH2 0xDBE DUP2 DUP8 DUP8 PUSH2 0x2814 JUMP JUMPDEST CALLDATALOAD DUP11 MSTORE PUSH1 0x20 PUSH1 0x7 DUP2 MSTORE PUSH1 0x40 DUP12 KECCAK256 PUSH2 0xDD6 DUP4 DUP11 DUP13 PUSH2 0x2814 JUMP JUMPDEST CALLDATALOAD DUP13 MSTORE DUP2 MSTORE PUSH1 0x40 DUP12 KECCAK256 SLOAD CALLER PUSH1 0x1 PUSH1 0x1 PUSH1 0xA0 SHL SUB SWAP1 SWAP2 AND SUB PUSH2 0xDFA JUMPI POP PUSH1 0x1 ADD PUSH2 0xCE4 JUMP JUMPDEST PUSH1 0x64 SWAP1 PUSH32 0x6F6E6C79206F776E65722063616E2073657420706978656C2076616C75650000 DUP5 PUSH1 0x1E DUP8 PUSH1 0x40 MLOAD SWAP5 PUSH3 0x461BCD PUSH1 0xE5 SHL DUP7 MSTORE PUSH1 0x4 DUP7 ADD MSTORE DUP5 ADD MSTORE DUP3 ADD MSTORE REVERT JUMPDEST PUSH1 0x40 MLOAD PUSH3 0x461BCD PUSH1 0xE5 SHL DUP2 MSTORE PUSH1 0x20 PUSH1 0x4 DUP3 ADD MSTORE PUSH1 0x18 DUP2 DUP6 ADD MSTORE PUSH24 0x4120706978656C206973206F7574206F6620626F756E6473 PUSH1 0x40 SHL DUP2 DUP5 ADD MSTORE PUSH1 0x64 SWAP1 REVERT JUMPDEST PUSH1 0x40 SWAP2 POP LT ISZERO CODESIZE PUSH2 0xDAE JUMP JUMPDEST SWAP1 PUSH32 0x696E70757420617272617973206D757374206265206F66207468652073616D65 PUSH1 0x84 SWAP3 PUSH1 0x27 PUSH1 0x40 MLOAD SWAP4 PUSH3 0x461BCD PUSH1 0xE5 SHL DUP6 MSTORE PUSH1 0x20 PUSH1 0x4 DUP7 ADD MSTORE DUP5 ADD MSTORE DUP3 ADD MSTORE PUSH7 0x40D8CADCCEE8D PUSH1 0xCB SHL PUSH1 0x64 DUP3 ADD MSTORE REVERT JUMPDEST POP DUP3 DUP6 EQ PUSH2 0xCDD JUMP JUMPDEST DUP8 DUP1 REVERT JUMPDEST DUP6 DUP1 REVERT JUMPDEST POP CALLVALUE PUSH2 0x1FD JUMPI PUSH1 0x20 DUP1 PUSH1 0x3 NOT CALLDATASIZE ADD SLT PUSH2 0x25B JUMPI PUSH1 0x4 CALLDATALOAD DUP1 ISZERO ISZERO DUP2 SUB PUSH2 0x74B JUMPI PUSH1 0x4 SLOAD PUSH3 0x54600 SWAP1 PUSH3 0x3F480 DUP3 PUSH2 0xF20 DUP4 TIMESTAMP PUSH2 0x2DE2 JUMP JUMPDEST MOD LT PUSH2 0x109F JUMPI CALLER DUP6 MSTORE PUSH2 0x1048 DUP5 MSTORE PUSH1 0x40 DUP6 KECCAK256 SLOAD SWAP1 DUP2 ISZERO PUSH2 0x104A JUMPI DUP3 PUSH2 0xF45 DUP3 TIMESTAMP PUSH2 0x2DE2 JUMP JUMPDEST DIV DUP7 MSTORE PUSH2 0x1049 SWAP4 DUP5 DUP7 MSTORE PUSH1 0x2 PUSH1 0x40 DUP9 KECCAK256 ADD CALLER PUSH1 0x0 MSTORE DUP7 MSTORE PUSH1 0xFF PUSH1 0x40 PUSH1 0x0 KECCAK256 SLOAD AND PUSH2 0x1015 JUMPI DUP4 SWAP2 SWAP1 ISZERO PUSH2 0xFEC JUMPI POP PUSH2 0xF7E PUSH1 0x4 SLOAD TIMESTAMP PUSH2 0x2DE2 JUMP JUMPDEST DIV DUP6 MSTORE DUP3 DUP5 MSTORE PUSH2 0xF93 PUSH1 0x40 DUP7 KECCAK256 SWAP2 DUP3 SLOAD PUSH2 0x2435 JUMP JUMPDEST SWAP1 SSTORE JUMPDEST PUSH2 0xFA2 PUSH1 0x4 SLOAD TIMESTAMP PUSH2 0x2DE2 JUMP JUMPDEST DIV DUP4 MSTORE DUP2 MSTORE PUSH1 0x2 PUSH1 0x40 DUP4 KECCAK256 ADD SWAP1 CALLER PUSH1 0x0 MSTORE MSTORE PUSH1 0x40 PUSH1 0x0 KECCAK256 PUSH1 0x1 PUSH1 0xFF NOT DUP3 SLOAD AND OR SWAP1 SSTORE CALLER PUSH32 0x7CE969A18BB6B0FBA42C6D9746E7D08EECA4C661809659C91D276456E3153AC0 DUP3 DUP1 LOG2 DUP1 RETURN JUMPDEST PUSH2 0xFF6 SWAP1 TIMESTAMP PUSH2 0x2DE2 JUMP JUMPDEST DIV DUP6 MSTORE DUP3 DUP5 MSTORE PUSH2 0x100E PUSH1 0x1 PUSH1 0x40 DUP8 KECCAK256 ADD SWAP2 DUP3 SLOAD PUSH2 0x2435 JUMP JUMPDEST SWAP1 SSTORE PUSH2 0xF96 JUMP JUMPDEST PUSH1 0x40 MLOAD PUSH3 0x461BCD PUSH1 0xE5 SHL DUP2 MSTORE PUSH1 0x4 DUP2 ADD DUP8 SWAP1 MSTORE PUSH1 0xD PUSH1 0x24 DUP3 ADD MSTORE PUSH13 0x185B1C9958591E481D9BDD1959 PUSH1 0x9A SHL PUSH1 0x44 DUP3 ADD MSTORE PUSH1 0x64 SWAP1 REVERT JUMPDEST PUSH1 0x40 MLOAD PUSH3 0x461BCD PUSH1 0xE5 SHL DUP2 MSTORE PUSH1 0x4 DUP2 ADD DUP7 SWAP1 MSTORE PUSH1 0x27 PUSH1 0x24 DUP3 ADD MSTORE PUSH32 0x6E6F20706978656C73206F776E6564203D206E6F20766F74657320746F206265 PUSH1 0x44 DUP3 ADD MSTORE PUSH7 0x818D85CDD1959 PUSH1 0xCA SHL PUSH1 0x64 DUP3 ADD MSTORE PUSH1 0x84 SWAP1 REVERT JUMPDEST PUSH1 0x40 MLOAD PUSH3 0x461BCD PUSH1 0xE5 SHL DUP2 MSTORE PUSH1 0x4 DUP2 ADD DUP6 SWAP1 MSTORE PUSH1 0x19 PUSH1 0x24 DUP3 ADD MSTORE PUSH25 0x2B37BA34B7339031BAB93932B73A363C903737BA1037B832B7 PUSH1 0x39 SHL PUSH1 0x44 DUP3 ADD MSTORE PUSH1 0x64 SWAP1 REVERT JUMPDEST POP CALLVALUE PUSH2 0x1FD JUMPI PUSH2 0x10EF CALLDATASIZE PUSH2 0x24C2 JUMP JUMPDEST SWAP3 SWAP2 PUSH2 0x10FC DUP5 DUP3 EQ PUSH2 0x2824 JUMP JUMPDEST DUP5 JUMPDEST DUP2 DUP2 LT PUSH2 0x1109 JUMPI DUP6 DUP1 RETURN JUMPDEST PUSH2 0x1114 DUP2 DUP4 DUP7 PUSH2 0x2814 JUMP JUMPDEST CALLDATALOAD PUSH1 0x40 PUSH2 0x1122 DUP4 DUP9 DUP8 PUSH2 0x2814 JUMP JUMPDEST CALLDATALOAD SWAP2 LT SWAP1 DUP2 ISZERO SWAP2 PUSH2 0x18DA JUMPI JUMPDEST POP PUSH2 0x18BD JUMPI PUSH2 0x113E DUP2 DUP4 DUP7 PUSH2 0x2814 JUMP JUMPDEST CALLDATALOAD DUP7 MSTORE PUSH1 0x7 PUSH1 0x20 MSTORE PUSH1 0x40 DUP7 KECCAK256 PUSH2 0x1155 DUP3 DUP8 DUP7 PUSH2 0x2814 JUMP JUMPDEST CALLDATALOAD DUP8 MSTORE PUSH1 0x20 MSTORE PUSH1 0x40 DUP7 KECCAK256 SLOAD PUSH1 0x1 PUSH1 0x1 PUSH1 0xA0 SHL SUB AND PUSH2 0x121F JUMPI PUSH2 0x1178 DUP2 DUP4 DUP7 PUSH2 0x2814 JUMP JUMPDEST CALLDATALOAD DUP7 MSTORE PUSH1 0x7 PUSH1 0x20 MSTORE PUSH1 0x40 DUP7 KECCAK256 PUSH2 0x118F DUP3 DUP8 DUP7 PUSH2 0x2814 JUMP JUMPDEST CALLDATALOAD DUP8 MSTORE PUSH1 0x20 MSTORE PUSH1 0x40 DUP7 KECCAK256 CALLER PUSH1 0x1 DUP1 PUSH1 0xA0 SHL SUB NOT DUP3 SLOAD AND OR SWAP1 SSTORE CALLER DUP7 MSTORE PUSH2 0x1048 PUSH1 0x20 MSTORE PUSH1 0x40 DUP7 KECCAK256 DUP1 SLOAD SWAP1 PUSH1 0x1 DUP3 ADD DUP1 SWAP3 GT PUSH2 0x120B JUMPI SSTORE PUSH1 0x1 SWAP1 JUMPDEST PUSH2 0x11D3 DUP2 DUP5 DUP8 PUSH2 0x2814 JUMP JUMPDEST CALLDATALOAD PUSH2 0x11DF DUP3 DUP9 DUP8 PUSH2 0x2814 JUMP JUMPDEST CALLDATALOAD SWAP1 PUSH32 0xEE0E9A85D097F632450E6AC08750207C8F039246EE437B10EAF708B397D00AD8 DUP10 DUP1 LOG3 ADD PUSH2 0x10FE JUMP JUMPDEST PUSH4 0x4E487B71 PUSH1 0xE0 SHL DUP9 MSTORE PUSH1 0x11 PUSH1 0x4 MSTORE PUSH1 0x24 DUP9 REVERT JUMPDEST PUSH2 0x1240 PUSH2 0x122D DUP3 DUP5 DUP8 PUSH2 0x2814 JUMP JUMPDEST CALLDATALOAD PUSH2 0x1239 DUP4 DUP9 DUP8 PUSH2 0x2814 JUMP JUMPDEST CALLDATALOAD SWAP1 PUSH2 0x2F5F JUMP JUMPDEST PUSH2 0x124B DUP3 DUP5 DUP8 PUSH2 0x2814 JUMP JUMPDEST CALLDATALOAD DUP8 MSTORE PUSH1 0x7 PUSH1 0x20 MSTORE PUSH1 0x40 DUP8 KECCAK256 PUSH2 0x1262 DUP4 DUP9 DUP8 PUSH2 0x2814 JUMP JUMPDEST CALLDATALOAD DUP9 MSTORE PUSH1 0x20 MSTORE DUP1 PUSH1 0x2 PUSH1 0x40 DUP10 KECCAK256 ADD SLOAD GT PUSH1 0x0 EQ PUSH2 0x163C JUMPI PUSH2 0x1284 DUP3 DUP5 DUP8 PUSH2 0x2814 JUMP JUMPDEST CALLDATALOAD DUP8 MSTORE PUSH1 0x7 PUSH1 0x20 MSTORE PUSH1 0x40 DUP8 KECCAK256 PUSH2 0x129B DUP4 DUP9 DUP8 PUSH2 0x2814 JUMP JUMPDEST CALLDATALOAD DUP9 MSTORE PUSH1 0x20 MSTORE PUSH2 0x12B2 DUP2 PUSH1 0x2 PUSH1 0x40 DUP11 KECCAK256 ADD SLOAD PUSH2 0x2DE2 JUMP JUMPDEST SWAP1 PUSH1 0x1 DUP1 PUSH1 0xA0 SHL SUB PUSH1 0x5 SLOAD AND PUSH1 0x40 MLOAD PUSH4 0x70A08231 PUSH1 0xE0 SHL DUP2 MSTORE CALLER PUSH1 0x4 DUP3 ADD MSTORE PUSH1 0x20 DUP2 PUSH1 0x24 DUP2 DUP6 GAS STATICCALL DUP1 ISZERO PUSH2 0x1631 JUMPI DUP11 SWAP1 PUSH2 0x15FD JUMPI JUMPDEST PUSH2 0x1322 SWAP2 POP PUSH2 0x12F7 DUP7 DUP9 DUP12 PUSH2 0x2814 JUMP JUMPDEST CALLDATALOAD DUP12 MSTORE PUSH1 0x7 PUSH1 0x20 MSTORE PUSH1 0x40 DUP12 KECCAK256 PUSH2 0x130E DUP8 DUP13 DUP12 PUSH2 0x2814 JUMP JUMPDEST CALLDATALOAD DUP13 MSTORE PUSH1 0x20 MSTORE PUSH1 0x2 PUSH1 0x40 DUP13 KECCAK256 ADD SLOAD LT PUSH2 0x2D32 JUMP JUMPDEST PUSH1 0x40 MLOAD PUSH4 0x6EB1769F PUSH1 0xE1 SHL DUP2 MSTORE CALLER PUSH1 0x4 DUP3 ADD MSTORE ADDRESS PUSH1 0x24 DUP3 ADD MSTORE DUP10 PUSH1 0x20 DUP3 PUSH1 0x44 DUP2 DUP7 GAS STATICCALL SWAP2 DUP3 ISZERO PUSH2 0x15F0 JUMPI DUP7 DUP12 DUP10 DUP13 DUP13 SWAP5 DUP7 SWAP8 PUSH2 0x15A5 JUMPI JUMPDEST POP SWAP5 PUSH2 0x139A SWAP5 PUSH2 0x138B DUP6 PUSH1 0x2 SWAP6 PUSH2 0x137B PUSH2 0x13F0 SWAP15 SWAP12 SWAP9 PUSH1 0x40 SWAP8 PUSH1 0x20 SWAP15 SWAP13 PUSH2 0x2814 JUMP JUMPDEST CALLDATALOAD DUP6 MSTORE PUSH1 0x7 DUP13 MSTORE DUP6 DUP6 KECCAK256 SWAP4 PUSH2 0x2814 JUMP JUMPDEST CALLDATALOAD DUP3 MSTORE DUP9 MSTORE KECCAK256 ADD SLOAD GT ISZERO PUSH2 0x2D8A JUMP JUMPDEST PUSH2 0x13A5 DUP7 DUP9 DUP12 PUSH2 0x2814 JUMP JUMPDEST CALLDATALOAD DUP12 MSTORE PUSH1 0x7 DUP4 MSTORE PUSH1 0x40 DUP12 KECCAK256 PUSH2 0x13BB DUP8 DUP13 DUP12 PUSH2 0x2814 JUMP JUMPDEST CALLDATALOAD DUP13 MSTORE DUP4 MSTORE PUSH1 0x40 DUP1 DUP13 KECCAK256 SLOAD SWAP1 MLOAD PUSH4 0x23B872DD PUSH1 0xE0 SHL DUP2 MSTORE SWAP6 DUP7 SWAP4 DUP5 SWAP3 DUP15 SWAP3 DUP5 SWAP3 SWAP1 SWAP2 PUSH1 0x1 PUSH1 0x1 PUSH1 0xA0 SHL SUB AND CALLER PUSH1 0x4 DUP6 ADD PUSH2 0x289C JUMP JUMPDEST SUB SWAP3 GAS CALL SWAP1 DUP2 ISZERO PUSH2 0x159A JUMPI PUSH2 0x143F SWAP3 PUSH1 0x20 SWAP3 PUSH2 0x157D JUMPI JUMPDEST POP PUSH1 0x5 SLOAD PUSH1 0x2 SLOAD PUSH1 0x40 MLOAD PUSH4 0x23B872DD PUSH1 0xE0 SHL DUP2 MSTORE SWAP5 DUP6 SWAP4 PUSH1 0x1 PUSH1 0x1 PUSH1 0xA0 SHL SUB SWAP4 DUP5 AND SWAP4 DUP6 SWAP4 DUP15 SWAP4 DUP6 SWAP4 SWAP1 SWAP3 SWAP1 SWAP2 AND CALLER PUSH1 0x4 DUP6 ADD PUSH2 0x289C JUMP JUMPDEST SUB SWAP3 GAS CALL DUP1 ISZERO PUSH2 0x1572 JUMPI PUSH2 0x1543 JUMPI JUMPDEST POP PUSH2 0x145A DUP2 DUP4 DUP7 PUSH2 0x2814 JUMP JUMPDEST CALLDATALOAD DUP7 MSTORE PUSH1 0x7 PUSH1 0x20 MSTORE PUSH1 0x40 DUP7 KECCAK256 PUSH2 0x1471 DUP3 DUP8 DUP7 PUSH2 0x2814 JUMP JUMPDEST CALLDATALOAD DUP8 MSTORE PUSH1 0x20 SWAP1 DUP2 MSTORE PUSH1 0x40 DUP1 DUP9 KECCAK256 SLOAD PUSH1 0x1 PUSH1 0x1 PUSH1 0xA0 SHL SUB AND DUP9 MSTORE PUSH2 0x1048 SWAP2 DUP3 SWAP1 MSTORE DUP8 KECCAK256 DUP1 SLOAD PUSH1 0x0 NOT DUP2 ADD SWAP2 SWAP1 DUP3 GT PUSH2 0x152F JUMPI SSTORE CALLER DUP8 MSTORE PUSH1 0x20 MSTORE PUSH1 0x40 DUP7 KECCAK256 DUP1 SLOAD SWAP1 PUSH1 0x1 DUP3 ADD DUP1 SWAP3 GT PUSH2 0x120B JUMPI SSTORE PUSH1 0x1 SWAP1 PUSH2 0x14CA DUP2 DUP5 DUP8 PUSH2 0x2814 JUMP JUMPDEST CALLDATALOAD DUP8 MSTORE PUSH1 0x7 PUSH1 0x20 MSTORE PUSH1 0x40 DUP8 KECCAK256 PUSH2 0x14E1 DUP3 DUP9 DUP8 PUSH2 0x2814 JUMP JUMPDEST CALLDATALOAD DUP9 MSTORE PUSH1 0x20 MSTORE PUSH1 0x40 DUP8 KECCAK256 CALLER DUP4 DUP1 PUSH1 0xA0 SHL SUB NOT DUP3 SLOAD AND OR SWAP1 SSTORE PUSH2 0x1504 DUP2 DUP5 DUP8 PUSH2 0x2814 JUMP JUMPDEST CALLDATALOAD DUP8 MSTORE PUSH1 0x7 PUSH1 0x20 MSTORE PUSH1 0x40 DUP8 KECCAK256 PUSH2 0x151B DUP3 DUP9 DUP8 PUSH2 0x2814 JUMP JUMPDEST CALLDATALOAD DUP9 MSTORE PUSH1 0x20 MSTORE TIMESTAMP PUSH1 0x4 PUSH1 0x40 DUP10 KECCAK256 ADD SSTORE PUSH2 0x11C8 JUMP JUMPDEST PUSH4 0x4E487B71 PUSH1 0xE0 SHL DUP10 MSTORE PUSH1 0x11 PUSH1 0x4 MSTORE PUSH1 0x24 DUP10 REVERT JUMPDEST PUSH2 0x1564 SWAP1 PUSH1 0x20 RETURNDATASIZE PUSH1 0x20 GT PUSH2 0x156B JUMPI JUMPDEST PUSH2 0x155C DUP2 DUP4 PUSH2 0x258F JUMP JUMPDEST DUP2 ADD SWAP1 PUSH2 0x2884 JUMP JUMPDEST POP CODESIZE PUSH2 0x144E JUMP JUMPDEST POP RETURNDATASIZE PUSH2 0x1552 JUMP JUMPDEST PUSH1 0x40 MLOAD RETURNDATASIZE DUP10 DUP3 RETURNDATACOPY RETURNDATASIZE SWAP1 REVERT JUMPDEST PUSH2 0x1593 SWAP1 DUP4 RETURNDATASIZE DUP6 GT PUSH2 0x156B JUMPI PUSH2 0x155C DUP2 DUP4 PUSH2 0x258F JUMP JUMPDEST POP CODESIZE PUSH2 0x1407 JUMP JUMPDEST PUSH1 0x40 MLOAD RETURNDATASIZE DUP11 DUP3 RETURNDATACOPY RETURNDATASIZE SWAP1 REVERT JUMPDEST SWAP8 SWAP10 SWAP7 POP POP POP POP POP POP POP PUSH1 0x20 DUP3 RETURNDATASIZE PUSH1 0x20 GT PUSH2 0x15E8 JUMPI JUMPDEST DUP2 PUSH2 0x15C8 PUSH1 0x20 SWAP4 DUP4 PUSH2 0x258F JUMP JUMPDEST DUP2 ADD SUB SLT PUSH2 0x15E3 JUMPI SWAP1 MLOAD SWAP1 SWAP3 SWAP1 DUP10 DUP8 DUP7 DUP12 DUP10 DUP13 PUSH2 0x139A PUSH2 0x1359 JUMP JUMPDEST PUSH1 0x0 DUP1 REVERT JUMPDEST RETURNDATASIZE SWAP2 POP PUSH2 0x15BB JUMP JUMPDEST POP PUSH1 0x40 MLOAD SWAP1 RETURNDATASIZE SWAP1 DUP3 RETURNDATACOPY RETURNDATASIZE SWAP1 REVERT JUMPDEST POP PUSH1 0x20 DUP2 RETURNDATASIZE PUSH1 0x20 GT PUSH2 0x1629 JUMPI JUMPDEST DUP2 PUSH2 0x1617 PUSH1 0x20 SWAP4 DUP4 PUSH2 0x258F JUMP JUMPDEST DUP2 ADD SUB SLT PUSH2 0x15E3 JUMPI PUSH2 0x1322 SWAP1 MLOAD PUSH2 0x12E7 JUMP JUMPDEST RETURNDATASIZE SWAP2 POP PUSH2 0x160A JUMP JUMPDEST PUSH1 0x40 MLOAD RETURNDATASIZE DUP13 DUP3 RETURNDATACOPY RETURNDATASIZE SWAP1 REVERT JUMPDEST POP PUSH1 0x5 SLOAD PUSH1 0x40 MLOAD PUSH4 0x70A08231 PUSH1 0xE0 SHL DUP2 MSTORE CALLER PUSH1 0x4 DUP3 ADD MSTORE PUSH1 0x24 SWAP2 PUSH1 0x1 PUSH1 0x1 PUSH1 0xA0 SHL SUB AND SWAP1 PUSH1 0x20 DUP2 DUP5 DUP2 DUP6 GAS STATICCALL DUP1 ISZERO PUSH2 0x187E JUMPI DUP10 SWAP1 PUSH2 0x1889 JUMPI JUMPDEST PUSH2 0x16B0 SWAP2 POP PUSH2 0x1685 DUP6 DUP8 DUP11 PUSH2 0x2814 JUMP JUMPDEST CALLDATALOAD DUP11 MSTORE PUSH1 0x7 PUSH1 0x20 MSTORE PUSH1 0x40 DUP11 KECCAK256 PUSH2 0x169C DUP7 DUP12 DUP11 PUSH2 0x2814 JUMP JUMPDEST CALLDATALOAD DUP12 MSTORE PUSH1 0x20 MSTORE PUSH1 0x2 PUSH1 0x40 DUP12 KECCAK256 ADD SLOAD LT PUSH2 0x2D32 JUMP JUMPDEST PUSH1 0x40 MLOAD PUSH4 0x6EB1769F PUSH1 0xE1 SHL DUP2 MSTORE CALLER PUSH1 0x4 DUP3 ADD MSTORE ADDRESS PUSH1 0x24 DUP3 ADD MSTORE PUSH1 0x20 DUP2 PUSH1 0x44 DUP2 DUP6 GAS STATICCALL SWAP1 DUP2 ISZERO PUSH2 0x187E JUMPI DUP10 SWAP2 PUSH2 0x184A JUMPI JUMPDEST POP PUSH2 0x177A SWAP2 PUSH2 0x1720 PUSH1 0x20 SWAP3 PUSH2 0x16F6 DUP8 DUP10 DUP13 PUSH2 0x2814 JUMP JUMPDEST CALLDATALOAD DUP13 MSTORE PUSH1 0x7 DUP5 MSTORE PUSH1 0x40 DUP13 KECCAK256 PUSH2 0x170C DUP9 DUP14 DUP13 PUSH2 0x2814 JUMP JUMPDEST CALLDATALOAD DUP14 MSTORE DUP5 MSTORE PUSH1 0x2 PUSH1 0x40 DUP14 KECCAK256 ADD SLOAD GT ISZERO PUSH2 0x2D8A JUMP JUMPDEST PUSH1 0x2 SLOAD PUSH1 0x1 PUSH1 0x1 PUSH1 0xA0 SHL SUB AND SWAP1 PUSH2 0x1738 DUP7 DUP9 DUP12 PUSH2 0x2814 JUMP JUMPDEST CALLDATALOAD DUP12 MSTORE PUSH1 0x7 DUP4 MSTORE PUSH1 0x40 DUP12 KECCAK256 PUSH2 0x174E DUP8 DUP13 DUP12 PUSH2 0x2814 JUMP JUMPDEST CALLDATALOAD DUP13 MSTORE DUP4 MSTORE PUSH1 0x2 PUSH1 0x40 DUP13 KECCAK256 ADD SLOAD SWAP2 DUP12 PUSH1 0x40 MLOAD DUP1 SWAP7 DUP2 SWAP6 DUP3 SWAP5 PUSH4 0x23B872DD PUSH1 0xE0 SHL DUP5 MSTORE CALLER PUSH1 0x4 DUP6 ADD PUSH2 0x289C JUMP JUMPDEST SUB SWAP3 GAS CALL DUP1 ISZERO PUSH2 0x159A JUMPI PUSH2 0x182B JUMPI JUMPDEST POP PUSH2 0x1795 DUP3 DUP5 DUP8 PUSH2 0x2814 JUMP JUMPDEST CALLDATALOAD DUP8 MSTORE PUSH1 0x7 PUSH1 0x20 MSTORE PUSH1 0x40 DUP8 KECCAK256 PUSH2 0x17AC DUP4 DUP9 DUP8 PUSH2 0x2814 JUMP JUMPDEST CALLDATALOAD DUP9 MSTORE PUSH1 0x20 SWAP1 DUP2 MSTORE PUSH1 0x40 DUP1 DUP10 KECCAK256 SLOAD PUSH1 0x1 PUSH1 0x1 PUSH1 0xA0 SHL SUB AND DUP10 MSTORE PUSH2 0x1048 SWAP2 DUP3 SWAP1 MSTORE DUP9 KECCAK256 DUP1 SLOAD PUSH1 0x0 NOT DUP2 ADD SWAP2 SWAP1 DUP3 GT PUSH2 0x1818 JUMPI SSTORE CALLER DUP9 MSTORE PUSH1 0x20 MSTORE PUSH1 0x40 DUP8 KECCAK256 DUP1 SLOAD SWAP2 PUSH1 0x1 DUP4 ADD DUP1 SWAP4 GT PUSH2 0x1806 JUMPI POP SSTORE PUSH1 0x1 SWAP1 PUSH2 0x14CA DUP2 DUP5 DUP8 PUSH2 0x2814 JUMP JUMPDEST PUSH4 0x4E487B71 PUSH1 0xE0 SHL DUP10 MSTORE PUSH1 0x11 PUSH1 0x4 MSTORE DUP9 REVERT JUMPDEST PUSH4 0x4E487B71 PUSH1 0xE0 SHL DUP11 MSTORE PUSH1 0x11 PUSH1 0x4 MSTORE DUP4 DUP11 REVERT JUMPDEST PUSH2 0x1843 SWAP1 PUSH1 0x20 RETURNDATASIZE PUSH1 0x20 GT PUSH2 0x156B JUMPI PUSH2 0x155C DUP2 DUP4 PUSH2 0x258F JUMP JUMPDEST POP CODESIZE PUSH2 0x1789 JUMP JUMPDEST SWAP1 POP PUSH1 0x20 DUP2 RETURNDATASIZE PUSH1 0x20 GT PUSH2 0x1876 JUMPI JUMPDEST DUP2 PUSH2 0x1865 PUSH1 0x20 SWAP4 DUP4 PUSH2 0x258F JUMP JUMPDEST DUP2 ADD SUB SLT PUSH2 0x15E3 JUMPI MLOAD PUSH2 0x177A PUSH2 0x16E0 JUMP JUMPDEST RETURNDATASIZE SWAP2 POP PUSH2 0x1858 JUMP JUMPDEST PUSH1 0x40 MLOAD RETURNDATASIZE DUP12 DUP3 RETURNDATACOPY RETURNDATASIZE SWAP1 REVERT JUMPDEST POP PUSH1 0x20 DUP2 RETURNDATASIZE PUSH1 0x20 GT PUSH2 0x18B5 JUMPI JUMPDEST DUP2 PUSH2 0x18A3 PUSH1 0x20 SWAP4 DUP4 PUSH2 0x258F JUMP JUMPDEST DUP2 ADD SUB SLT PUSH2 0x15E3 JUMPI PUSH2 0x16B0 SWAP1 MLOAD PUSH2 0x1675 JUMP JUMPDEST RETURNDATASIZE SWAP2 POP PUSH2 0x1896 JUMP JUMPDEST PUSH1 0x40 MLOAD PUSH3 0x461BCD PUSH1 0xE5 SHL DUP2 MSTORE DUP1 PUSH2 0x18D6 PUSH1 0x4 DUP3 ADD PUSH2 0x2697 JUMP JUMPDEST SUB SWAP1 REVERT JUMPDEST PUSH1 0x40 SWAP2 POP LT ISZERO CODESIZE PUSH2 0x112E JUMP JUMPDEST PUSH2 0x2458 JUMP JUMPDEST PUSH2 0x24A6 JUMP JUMPDEST POP CALLVALUE PUSH2 0x1FD JUMPI PUSH1 0x20 CALLDATASIZE PUSH1 0x3 NOT ADD SLT PUSH2 0x1FD JUMPI PUSH1 0x4 CALLDATALOAD PUSH1 0x1 PUSH1 0x1 PUSH1 0xA0 SHL SUB DUP2 DUP2 AND SWAP2 DUP3 SWAP1 SUB PUSH2 0x74B JUMPI PUSH2 0x1927 SWAP1 PUSH1 0x2 SLOAD AND CALLER EQ PUSH2 0x2DEF JUMP JUMPDEST PUSH1 0x5 DUP1 SLOAD PUSH1 0x1 PUSH1 0x1 PUSH1 0xA0 SHL SUB NOT AND SWAP2 SWAP1 SWAP2 OR SWAP1 SSTORE DUP1 RETURN JUMPDEST POP CALLVALUE PUSH2 0x1FD JUMPI PUSH1 0x20 DUP1 PUSH1 0x3 NOT CALLDATASIZE ADD SLT PUSH2 0x25B JUMPI PUSH1 0x4 CALLDATALOAD SWAP1 PUSH3 0x54600 PUSH2 0x1965 PUSH1 0x4 SLOAD TIMESTAMP PUSH2 0x2DE2 JUMP JUMPDEST DIV DUP3 LT ISZERO PUSH2 0x1B2D JUMPI DUP2 DUP4 MSTORE PUSH2 0x1049 DUP1 DUP3 MSTORE PUSH2 0x198A PUSH1 0x40 DUP6 KECCAK256 PUSH1 0x1 DUP2 SLOAD SWAP2 ADD SLOAD SWAP1 PUSH2 0x2435 JUMP JUMPDEST SWAP1 DUP2 ISZERO PUSH2 0x1AF8 JUMPI DUP4 DUP6 MSTORE DUP3 MSTORE PUSH1 0x40 DUP5 KECCAK256 SLOAD SWAP1 PUSH1 0x1 SHR LT PUSH2 0x19A8 JUMPI DUP3 DUP1 RETURN JUMPDEST PUSH1 0x1 SLOAD PUSH1 0x1 PUSH1 0x1 PUSH1 0xA0 SHL SUB SWAP3 SWAP1 DUP5 SWAP1 DUP5 AND DUP1 EXTCODESIZE ISZERO PUSH2 0x25B JUMPI DUP2 DUP1 SWAP2 PUSH1 0x24 PUSH1 0x40 MLOAD DUP1 SWAP5 DUP2 SWAP4 PUSH4 0x35313C21 PUSH1 0xE1 SHL DUP4 MSTORE ADDRESS PUSH1 0x4 DUP5 ADD MSTORE GAS CALL DUP1 ISZERO PUSH2 0x1AED JUMPI PUSH2 0x1AD5 JUMPI JUMPDEST POP POP PUSH1 0x4 SWAP3 PUSH32 0xD9DC24857F317ED9ABBBB42E920EDE0104231EB1D3D70236A74887FFAF159868 DUP4 DUP1 SWAP4 PUSH1 0x40 MLOAD SWAP1 DUP2 MSTORE LOG1 PUSH1 0x1 SLOAD AND PUSH1 0x40 MLOAD SWAP4 DUP5 DUP1 SWAP3 PUSH4 0x18160DDD PUSH1 0xE0 SHL DUP3 MSTORE GAS STATICCALL SWAP2 DUP3 ISZERO PUSH2 0x1ACA JUMPI DUP4 SWAP3 PUSH2 0x1A9B JUMPI JUMPDEST POP PUSH1 0x0 NOT DUP3 ADD SWAP2 DUP3 GT PUSH2 0x1A87 JUMPI DUP2 DUP4 MSTORE PUSH2 0x104A DUP2 MSTORE TIMESTAMP PUSH1 0x40 DUP5 KECCAK256 SSTORE PUSH2 0x104B SWAP1 DUP2 DUP2 MSTORE TIMESTAMP PUSH1 0x2 PUSH1 0x40 DUP7 KECCAK256 ADD SSTORE PUSH2 0xFD20 TIMESTAMP ADD SWAP3 DUP4 TIMESTAMP GT PUSH2 0x8C1 JUMPI DUP5 MSTORE MSTORE PUSH1 0x3 PUSH1 0x40 DUP4 KECCAK256 ADD SSTORE CODESIZE DUP1 DUP3 DUP1 RETURN JUMPDEST PUSH4 0x4E487B71 PUSH1 0xE0 SHL DUP4 MSTORE PUSH1 0x11 PUSH1 0x4 MSTORE PUSH1 0x24 DUP4 REVERT JUMPDEST SWAP1 DUP1 SWAP3 POP DUP2 DUP2 RETURNDATASIZE DUP4 GT PUSH2 0x1AC3 JUMPI JUMPDEST PUSH2 0x1AB3 DUP2 DUP4 PUSH2 0x258F JUMP JUMPDEST DUP2 ADD SUB SLT PUSH2 0x15E3 JUMPI MLOAD SWAP1 CODESIZE PUSH2 0x1A3E JUMP JUMPDEST POP RETURNDATASIZE PUSH2 0x1AA9 JUMP JUMPDEST PUSH1 0x40 MLOAD RETURNDATASIZE DUP6 DUP3 RETURNDATACOPY RETURNDATASIZE SWAP1 REVERT JUMPDEST PUSH2 0x1ADE SWAP1 PUSH2 0x2546 JUMP JUMPDEST PUSH2 0x1AE9 JUMPI DUP4 CODESIZE PUSH2 0x19E9 JUMP JUMPDEST DUP4 DUP1 REVERT JUMPDEST PUSH1 0x40 MLOAD RETURNDATASIZE DUP5 DUP3 RETURNDATACOPY RETURNDATASIZE SWAP1 REVERT JUMPDEST PUSH1 0x40 MLOAD PUSH3 0x461BCD PUSH1 0xE5 SHL DUP2 MSTORE PUSH1 0x4 DUP2 ADD DUP5 SWAP1 MSTORE PUSH1 0xD PUSH1 0x24 DUP3 ADD MSTORE PUSH13 0x139BC81D9BDD195CC818D85CDD PUSH1 0x9A SHL PUSH1 0x44 DUP3 ADD MSTORE PUSH1 0x64 SWAP1 REVERT JUMPDEST PUSH1 0x84 SWAP1 PUSH1 0x40 MLOAD SWAP1 PUSH3 0x461BCD PUSH1 0xE5 SHL DUP3 MSTORE PUSH1 0x4 DUP3 ADD MSTORE PUSH1 0x36 PUSH1 0x24 DUP3 ADD MSTORE PUSH32 0x636865636B20766F7465206F7574636F6D6573206F6E6C7920706F737369626C PUSH1 0x44 DUP3 ADD MSTORE PUSH22 0x6520666F7220636F6E636C75646564206379636C6573 PUSH1 0x50 SHL PUSH1 0x64 DUP3 ADD MSTORE REVERT JUMPDEST POP CALLVALUE PUSH2 0x1FD JUMPI DUP1 PUSH1 0x3 NOT CALLDATASIZE ADD SLT PUSH2 0x1FD JUMPI PUSH1 0x20 PUSH3 0x3F480 PUSH3 0x54600 PUSH2 0x1BB7 PUSH1 0x4 SLOAD TIMESTAMP PUSH2 0x2DE2 JUMP JUMPDEST MOD LT PUSH1 0x40 MLOAD SWAP1 DUP2 MSTORE RETURN JUMPDEST POP CALLVALUE PUSH2 0x1FD JUMPI DUP1 PUSH1 0x3 NOT CALLDATASIZE ADD SLT PUSH2 0x1FD JUMPI PUSH1 0x2 SLOAD PUSH1 0x40 MLOAD PUSH1 0x1 PUSH1 0x1 PUSH1 0xA0 SHL SUB SWAP1 SWAP2 AND DUP2 MSTORE PUSH1 0x20 SWAP1 RETURN JUMPDEST POP CALLVALUE PUSH2 0x1FD JUMPI PUSH1 0x20 CALLDATASIZE PUSH1 0x3 NOT ADD SLT PUSH2 0x1FD JUMPI PUSH1 0x4 CALLDATALOAD PUSH1 0x1 PUSH1 0x1 PUSH1 0x40 SHL SUB DUP2 GT PUSH2 0x25B JUMPI PUSH2 0x1C1B SWAP1 CALLDATASIZE SWAP1 PUSH1 0x4 ADD PUSH2 0x2476 JUMP JUMPDEST PUSH3 0x3F480 PUSH3 0x54600 PUSH2 0x1C2F PUSH1 0x4 SLOAD TIMESTAMP PUSH2 0x2DE2 JUMP JUMPDEST MOD LT ISZERO PUSH2 0x20A5 JUMPI PUSH1 0x40 MLOAD SWAP2 PUSH2 0x820 DUP4 ADD DUP4 DUP2 LT PUSH1 0x1 PUSH1 0x1 PUSH1 0x40 SHL SUB DUP3 GT OR PUSH2 0x6E7 JUMPI PUSH1 0x40 MSTORE PUSH1 0x40 DUP4 MSTORE PUSH2 0x800 CALLDATASIZE PUSH1 0x20 DUP6 ADD CALLDATACOPY DUP4 JUMPDEST DUP3 DUP2 LT PUSH2 0x1D3D JUMPI POP POP POP DUP2 JUMPDEST PUSH1 0x40 DUP2 LT PUSH2 0x1C7B JUMPI DUP3 DUP1 RETURN JUMPDEST PUSH2 0x1C85 DUP2 DUP4 PUSH2 0x27EA JUMP JUMPDEST MLOAD PUSH2 0x1C93 JUMPI JUMPDEST PUSH1 0x1 ADD PUSH2 0x1C6F JUMP JUMPDEST PUSH1 0x40 MLOAD PUSH2 0x1C9F DUP2 PUSH2 0x2574 JUMP JUMPDEST DUP4 DUP2 MSTORE PUSH1 0x6 DUP3 SWAP1 SHL PUSH1 0x1 PUSH1 0x1 PUSH1 0xFA SHL SUB DUP4 AND DUP4 SUB PUSH2 0x8C1 JUMPI DUP1 PUSH1 0x40 ADD SWAP1 DUP2 PUSH1 0x40 GT PUSH2 0xC53 JUMPI SWAP1 JUMPDEST DUP1 DUP3 LT PUSH2 0x1CE7 JUMPI POP POP SWAP1 PUSH2 0x1CE0 PUSH1 0x1 SWAP3 DUP3 PUSH2 0x1008 ADD PUSH2 0x26C8 JUMP JUMPDEST SWAP1 POP PUSH2 0x1C8B JUMP JUMPDEST SWAP1 SWAP2 PUSH2 0x1000 DUP4 LT ISZERO PUSH2 0x1D29 JUMPI PUSH1 0x20 PUSH2 0x6DC PUSH2 0x1D23 SWAP3 PUSH2 0x6CE PUSH1 0x40 MLOAD SWAP4 DUP3 PUSH2 0x1D17 DUP7 SWAP5 MLOAD DUP1 SWAP3 DUP5 DUP1 DUP9 ADD SWAP2 ADD PUSH2 0x2391 JUMP JUMPDEST DUP4 ADD ADD DUP8 PUSH1 0x8 ADD PUSH2 0x37D3 JUMP JUMPDEST SWAP1 PUSH2 0x1CC6 JUMP JUMPDEST PUSH4 0x4E487B71 PUSH1 0xE0 SHL DUP7 MSTORE PUSH1 0x32 PUSH1 0x4 MSTORE PUSH1 0x24 DUP7 REVERT JUMPDEST PUSH1 0x5 DUP2 DUP2 SHL DUP4 ADD CALLDATALOAD PUSH1 0x1E NOT DUP5 CALLDATASIZE SUB ADD DUP2 SLT ISZERO PUSH2 0x20A1 JUMPI DUP4 ADD DUP1 CALLDATALOAD PUSH1 0x1 PUSH1 0x1 PUSH1 0x40 SHL SUB DUP2 GT PUSH2 0xEE2 JUMPI PUSH1 0x20 DUP3 ADD SWAP3 DUP2 CALLDATASIZE SUB DUP5 SGT PUSH2 0x209D JUMPI DUP3 SWAP2 DUP3 ADD SWAP1 PUSH1 0x20 DUP3 ADD SWAP2 PUSH1 0x80 SWAP4 DUP5 SWAP2 SUB SLT PUSH2 0x2099 JUMPI DUP10 PUSH1 0x60 DUP6 ADD CALLDATALOAD SWAP4 DUP6 ADD CALLDATALOAD PUSH1 0x1 PUSH1 0x1 PUSH1 0x40 SHL SUB DUP2 GT PUSH2 0x25B JUMPI DUP6 ADD DUP4 PUSH1 0x3F DUP3 ADD SLT ISZERO PUSH2 0x25B JUMPI PUSH1 0x20 DUP2 ADD CALLDATALOAD PUSH2 0x1DBB DUP2 PUSH2 0x267C JUMP JUMPDEST SWAP5 PUSH2 0x1DC9 PUSH1 0x40 MLOAD SWAP7 DUP8 PUSH2 0x258F JUMP JUMPDEST DUP2 DUP7 MSTORE PUSH1 0x40 DUP3 DUP5 ADD ADD GT PUSH2 0x74B JUMPI DUP1 PUSH1 0x40 PUSH1 0x20 SWAP4 ADD DUP4 DUP8 ADD CALLDATACOPY DUP5 ADD ADD MSTORE PUSH1 0x40 DUP6 CALLDATALOAD LT DUP1 ISZERO SWAP1 PUSH2 0x208B JUMPI JUMPDEST PUSH2 0x18BD JUMPI PUSH1 0xA DUP4 LT ISZERO PUSH2 0x204D JUMPI PUSH1 0xFF SWAP1 DUP6 CALLDATALOAD DUP12 MSTORE PUSH1 0x7 PUSH1 0x20 MSTORE PUSH1 0x40 DUP12 KECCAK256 PUSH1 0x40 DUP7 ADD CALLDATALOAD DUP13 MSTORE PUSH1 0x20 MSTORE PUSH1 0x40 DUP12 KECCAK256 ADD SLOAD AND PUSH2 0x1FF0 JUMPI DUP4 CALLDATALOAD DUP10 MSTORE PUSH1 0x7 PUSH1 0x20 SWAP1 DUP2 MSTORE PUSH1 0x40 DUP1 DUP12 KECCAK256 DUP6 DUP3 ADD CALLDATALOAD DUP13 MSTORE SWAP1 SWAP2 MSTORE DUP10 KECCAK256 SLOAD PUSH1 0x1 PUSH1 0x1 PUSH1 0xA0 SHL SUB AND CALLER EQ PUSH2 0x1E63 JUMPI JUMPDEST POP POP POP POP PUSH2 0x1E5E SWAP1 PUSH2 0x266D JUMP JUMPDEST PUSH2 0x1C63 JUMP JUMPDEST PUSH2 0x1E8A SWAP1 DUP5 CALLDATALOAD DUP11 MSTORE PUSH1 0x7 PUSH1 0x20 MSTORE PUSH1 0x40 DUP11 KECCAK256 PUSH1 0x40 DUP6 ADD CALLDATALOAD DUP12 MSTORE PUSH1 0x20 MSTORE PUSH1 0x3 PUSH1 0x40 DUP12 KECCAK256 ADD PUSH2 0x26C8 JUMP JUMPDEST DUP3 CALLDATALOAD DUP9 MSTORE PUSH1 0x7 PUSH1 0x20 SWAP1 DUP2 MSTORE PUSH1 0x40 DUP1 DUP11 KECCAK256 DUP5 DUP3 ADD CALLDATALOAD DUP1 DUP13 MSTORE SWAP3 MSTORE DUP10 KECCAK256 PUSH1 0x1 ADD SWAP2 SWAP1 SWAP2 SSTORE PUSH1 0x1 PUSH1 0x1 PUSH1 0xFA SHL SUB DUP2 AND SWAP1 SUB PUSH2 0x1FDC JUMPI PUSH2 0x1ECE PUSH1 0x40 DUP3 ADD CALLDATALOAD PUSH1 0x6 SHL DUP4 CALLDATALOAD PUSH2 0x2435 JUMP JUMPDEST DUP3 CALLDATALOAD DUP9 MSTORE PUSH1 0x7 PUSH1 0x20 MSTORE PUSH1 0x40 DUP9 KECCAK256 PUSH1 0x40 DUP4 ADD CALLDATALOAD DUP10 MSTORE PUSH1 0x20 MSTORE PUSH1 0x1 PUSH1 0x40 DUP10 KECCAK256 ADD SLOAD PUSH1 0x9 DUP5 CALLDATALOAD DUP2 DUP7 CALLDATALOAD MUL DIV DUP2 EQ DUP6 CALLDATALOAD ISZERO OR ISZERO PUSH2 0x1FC8 JUMPI PUSH1 0x40 DUP5 ADD CALLDATALOAD DUP2 DUP2 MUL DUP2 SWAP1 DIV DUP3 EQ SWAP1 ISZERO OR ISZERO PUSH2 0x1FC8 JUMPI SWAP1 PUSH2 0x1F53 SWAP2 DUP6 CALLDATALOAD DUP12 MSTORE PUSH1 0x7 PUSH1 0x20 MSTORE PUSH1 0x40 DUP12 KECCAK256 PUSH1 0x40 DUP7 ADD CALLDATALOAD DUP13 MSTORE PUSH1 0x20 MSTORE PUSH2 0x1F41 PUSH1 0x3 PUSH1 0x40 DUP14 KECCAK256 ADD PUSH2 0x25B0 JUMP JUMPDEST SWAP2 DUP2 PUSH1 0x40 DUP8 ADD CALLDATALOAD MUL SWAP2 DUP8 CALLDATALOAD MUL SWAP1 PUSH2 0x3073 JUMP JUMPDEST SWAP1 PUSH2 0x1000 DUP2 LT ISZERO PUSH2 0x1FB4 JUMPI SWAP2 PUSH2 0x1F73 PUSH1 0x40 SWAP3 PUSH2 0x1E5E SWAP7 SWAP6 SWAP5 PUSH1 0x8 ADD PUSH2 0x26C8 JUMP JUMPDEST PUSH1 0x1 PUSH2 0x1F82 DUP4 DUP4 ADD CALLDATALOAD DUP11 PUSH2 0x27EA JUMP JUMPDEST MSTORE ADD CALLDATALOAD SWAP1 CALLDATALOAD PUSH32 0xA9A418DA632D42C446A125F10B007831BA0E348168B6B2474A2383AC5DF4C280 DUP9 DUP1 LOG3 SWAP1 CODESIZE DUP1 DUP1 PUSH2 0x1E51 JUMP JUMPDEST PUSH4 0x4E487B71 PUSH1 0xE0 SHL DUP10 MSTORE PUSH1 0x32 PUSH1 0x4 MSTORE PUSH1 0x24 DUP10 REVERT JUMPDEST PUSH4 0x4E487B71 PUSH1 0xE0 SHL DUP11 MSTORE PUSH1 0x11 PUSH1 0x4 MSTORE PUSH1 0x24 DUP11 REVERT JUMPDEST PUSH4 0x4E487B71 PUSH1 0xE0 SHL DUP8 MSTORE PUSH1 0x11 PUSH1 0x4 MSTORE PUSH1 0x24 DUP8 REVERT JUMPDEST PUSH1 0x40 MLOAD PUSH3 0x461BCD PUSH1 0xE5 SHL DUP2 MSTORE PUSH1 0x20 PUSH1 0x4 DUP3 ADD MSTORE PUSH1 0x2F PUSH1 0x24 DUP3 ADD MSTORE PUSH32 0x6F776E6572207761732061736B656420746F20666972737420736574746C6520 PUSH1 0x44 DUP3 ADD MSTORE PUSH15 0x1C9BDE585B1D1E481C185E5B595B9D PUSH1 0x8A SHL PUSH1 0x64 DUP3 ADD MSTORE PUSH1 0x84 SWAP1 REVERT JUMPDEST PUSH1 0x40 MLOAD PUSH3 0x461BCD PUSH1 0xE5 SHL DUP2 MSTORE PUSH1 0x20 PUSH1 0x4 DUP3 ADD MSTORE PUSH1 0x16 PUSH1 0x24 DUP3 ADD MSTORE PUSH22 0x7368617065204944206E6F7420617661696C61626C65 PUSH1 0x50 SHL PUSH1 0x44 DUP3 ADD MSTORE PUSH1 0x64 SWAP1 REVERT JUMPDEST POP PUSH1 0x40 DUP1 DUP6 ADD CALLDATALOAD LT ISZERO PUSH2 0x1DF3 JUMP JUMPDEST DUP10 DUP1 REVERT JUMPDEST DUP9 DUP1 REVERT JUMPDEST DUP7 DUP1 REVERT JUMPDEST PUSH1 0x40 MLOAD PUSH3 0x461BCD PUSH1 0xE5 SHL DUP2 MSTORE PUSH1 0x20 PUSH1 0x4 DUP3 ADD MSTORE PUSH1 0x22 PUSH1 0x24 DUP3 ADD MSTORE PUSH32 0x417274697374696320706572696F642063757272656E746C79206E6F74206F70 PUSH1 0x44 DUP3 ADD MSTORE PUSH2 0x32B7 PUSH1 0xF1 SHL PUSH1 0x64 DUP3 ADD MSTORE PUSH1 0x84 SWAP1 REVERT JUMPDEST POP CALLVALUE PUSH2 0x1FD JUMPI PUSH1 0x20 CALLDATASIZE PUSH1 0x3 NOT ADD SLT PUSH2 0x1FD JUMPI PUSH1 0x40 DUP1 SWAP2 PUSH1 0x4 CALLDATALOAD DUP2 MSTORE PUSH2 0x1049 PUSH1 0x20 MSTORE KECCAK256 PUSH1 0x1 DUP2 SLOAD SWAP2 ADD SLOAD DUP3 MLOAD SWAP2 DUP3 MSTORE PUSH1 0x20 DUP3 ADD MSTORE RETURN JUMPDEST POP CALLVALUE PUSH2 0x1FD JUMPI PUSH1 0x20 SWAP1 DUP2 PUSH1 0x3 NOT CALLDATASIZE ADD SLT PUSH2 0x1FD JUMPI PUSH1 0x4 CALLDATALOAD PUSH2 0x2149 PUSH2 0x3050 JUMP JUMPDEST DUP1 DUP3 MSTORE PUSH2 0x104B SWAP1 DUP2 DUP5 MSTORE PUSH2 0x2167 PUSH1 0xFF PUSH1 0x4 PUSH1 0x40 DUP7 KECCAK256 ADD SLOAD AND ISZERO PUSH2 0x2FBC JUMP JUMPDEST DUP1 DUP4 MSTORE DUP2 DUP5 MSTORE PUSH2 0x217F PUSH1 0x2 PUSH1 0x40 DUP6 KECCAK256 ADD SLOAD TIMESTAMP GT PUSH2 0x3004 JUMP JUMPDEST DUP1 DUP4 MSTORE DUP2 DUP5 MSTORE TIMESTAMP PUSH1 0x3 PUSH1 0x40 DUP6 KECCAK256 ADD SLOAD LT ISZERO PUSH2 0x2292 JUMPI DUP1 DUP4 MSTORE DUP2 DUP5 MSTORE PUSH1 0x40 DUP4 KECCAK256 PUSH1 0x4 DUP2 ADD DUP1 SLOAD PUSH1 0xFF NOT AND PUSH1 0x1 SWAP1 DUP2 OR SWAP1 SWAP2 SSTORE SLOAD SWAP1 SLOAD PUSH1 0x1 PUSH1 0x1 PUSH1 0xA0 SHL SUB SWAP4 SWAP2 DUP5 AND SWAP1 DUP5 AND DUP2 EXTCODESIZE ISZERO PUSH2 0xEE6 JUMPI DUP4 PUSH2 0x21EE SWAP3 DUP8 SWAP3 DUP4 PUSH1 0x40 MLOAD DUP1 SWAP7 DUP2 SWAP6 DUP3 SWAP5 PUSH4 0x21421707 PUSH1 0xE1 SHL DUP5 MSTORE ADDRESS PUSH1 0x4 DUP6 ADD PUSH2 0x289C JUMP JUMPDEST SUB SWAP3 GAS CALL DUP1 ISZERO PUSH2 0x2287 JUMPI PUSH2 0x2256 JUMPI JUMPDEST POP DUP2 DUP5 MSTORE SWAP1 SWAP4 MSTORE PUSH1 0x40 DUP1 DUP4 KECCAK256 DUP1 SLOAD PUSH1 0x1 SWAP1 SWAP2 ADD SLOAD DUP3 MLOAD SWAP6 DUP7 MSTORE SWAP3 AND PUSH1 0x1 PUSH1 0x1 PUSH1 0xA0 SHL SUB AND PUSH1 0x20 DUP6 ADD MSTORE DUP4 ADD MSTORE SWAP1 PUSH32 0xD2AA34A4FDBBC6DFF6A3E56F46E0F3AE2A31D7785FF3487AA5C95C642ACEA501 SWAP1 DUP1 PUSH1 0x60 DUP2 ADD PUSH2 0xA14 JUMP JUMPDEST SWAP4 PUSH2 0x2281 PUSH32 0xD2AA34A4FDBBC6DFF6A3E56F46E0F3AE2A31D7785FF3487AA5C95C642ACEA501 SWAP6 PUSH2 0x2546 JUMP JUMPDEST SWAP4 PUSH2 0x21FD JUMP JUMPDEST PUSH1 0x40 MLOAD RETURNDATASIZE DUP8 DUP3 RETURNDATACOPY RETURNDATASIZE SWAP1 REVERT JUMPDEST PUSH1 0x40 MLOAD PUSH3 0x461BCD PUSH1 0xE5 SHL DUP2 MSTORE PUSH1 0x4 DUP2 ADD DUP6 SWAP1 MSTORE PUSH1 0x15 PUSH1 0x24 DUP3 ADD MSTORE PUSH21 0x185D58DD1A5BDB881B9BDD08195B991959081E595D PUSH1 0x5A SHL PUSH1 0x44 DUP3 ADD MSTORE PUSH1 0x64 SWAP1 REVERT JUMPDEST POP CALLVALUE PUSH2 0x1FD JUMPI DUP1 PUSH1 0x3 NOT CALLDATASIZE ADD SLT PUSH2 0x1FD JUMPI PUSH1 0x20 PUSH1 0x40 MLOAD PUSH3 0x54600 DUP2 MSTORE RETURN JUMPDEST POP CALLVALUE PUSH2 0x1FD JUMPI PUSH1 0x20 CALLDATASIZE PUSH1 0x3 NOT ADD SLT PUSH2 0x1FD JUMPI PUSH1 0x4 CALLDATALOAD PUSH1 0x1 PUSH1 0x1 PUSH1 0xA0 SHL SUB DUP2 AND SWAP1 DUP2 SWAP1 SUB PUSH2 0x25B JUMPI PUSH1 0x40 PUSH1 0x20 SWAP3 PUSH1 0xFF SWAP3 PUSH3 0x54600 PUSH2 0x232C PUSH1 0x4 SLOAD TIMESTAMP PUSH2 0x2DE2 JUMP JUMPDEST DIV DUP3 MSTORE PUSH2 0x1049 DUP6 MSTORE PUSH1 0x2 DUP4 DUP4 KECCAK256 ADD SWAP1 DUP3 MSTORE DUP5 MSTORE KECCAK256 SLOAD AND PUSH1 0x40 MLOAD SWAP1 ISZERO ISZERO DUP2 MSTORE RETURN JUMPDEST POP CALLVALUE PUSH2 0x1FD JUMPI PUSH2 0x2C0 PUSH2 0x2367 PUSH2 0x2361 CALLDATASIZE PUSH2 0x237B JUMP JUMPDEST SWAP1 PUSH2 0x2E88 JUMP JUMPDEST PUSH1 0x40 MLOAD SWAP2 DUP3 SWAP2 PUSH1 0x20 DUP4 MSTORE PUSH1 0x20 DUP4 ADD SWAP1 PUSH2 0x23D9 JUMP JUMPDEST PUSH1 0x40 SWAP1 PUSH1 0x3 NOT ADD SLT PUSH2 0x15E3 JUMPI PUSH1 0x4 CALLDATALOAD SWAP1 PUSH1 0x24 CALLDATALOAD SWAP1 JUMP JUMPDEST PUSH1 0x0 JUMPDEST DUP4 DUP2 LT PUSH2 0x23A4 JUMPI POP POP PUSH1 0x0 SWAP2 ADD MSTORE JUMP JUMPDEST DUP2 DUP2 ADD MLOAD DUP4 DUP3 ADD MSTORE PUSH1 0x20 ADD PUSH2 0x2394 JUMP JUMPDEST SWAP1 PUSH1 0x20 SWAP2 PUSH2 0x23CD DUP2 MLOAD DUP1 SWAP3 DUP2 DUP6 MSTORE DUP6 DUP1 DUP7 ADD SWAP2 ADD PUSH2 0x2391 JUMP JUMPDEST PUSH1 0x1F ADD PUSH1 0x1F NOT AND ADD ADD SWAP1 JUMP JUMPDEST SWAP1 PUSH1 0x1 DUP1 PUSH1 0xA0 SHL SUB DUP3 MLOAD AND DUP2 MSTORE PUSH1 0x20 DUP3 ADD MLOAD PUSH1 0x20 DUP3 ADD MSTORE PUSH1 0x40 DUP3 ADD MLOAD PUSH1 0x40 DUP3 ADD MSTORE PUSH1 0xC0 DUP1 PUSH2 0x2416 PUSH1 0x60 DUP6 ADD MLOAD PUSH1 0xE0 PUSH1 0x60 DUP7 ADD MSTORE PUSH1 0xE0 DUP6 ADD SWAP1 PUSH2 0x23B4 JUMP JUMPDEST SWAP4 PUSH1 0x80 DUP2 ADD MLOAD PUSH1 0x80 DUP6 ADD MSTORE PUSH1 0xA0 DUP2 ADD MLOAD ISZERO ISZERO PUSH1 0xA0 DUP6 ADD MSTORE ADD MLOAD SWAP2 ADD MSTORE SWAP1 JUMP JUMPDEST SWAP2 SWAP1 DUP3 ADD DUP1 SWAP3 GT PUSH2 0x2442 JUMPI JUMP JUMPDEST PUSH4 0x4E487B71 PUSH1 0xE0 SHL PUSH1 0x0 MSTORE PUSH1 0x11 PUSH1 0x4 MSTORE PUSH1 0x24 PUSH1 0x0 REVERT JUMPDEST CALLVALUE PUSH2 0x15E3 JUMPI PUSH1 0x0 CALLDATASIZE PUSH1 0x3 NOT ADD SLT PUSH2 0x15E3 JUMPI PUSH1 0x20 PUSH1 0x40 MLOAD PUSH3 0x3F480 DUP2 MSTORE RETURN JUMPDEST SWAP2 DUP2 PUSH1 0x1F DUP5 ADD SLT ISZERO PUSH2 0x15E3 JUMPI DUP3 CALLDATALOAD SWAP2 PUSH1 0x1 PUSH1 0x1 PUSH1 0x40 SHL SUB DUP4 GT PUSH2 0x15E3 JUMPI PUSH1 0x20 DUP1 DUP6 ADD SWAP5 DUP5 PUSH1 0x5 SHL ADD ADD GT PUSH2 0x15E3 JUMPI JUMP JUMPDEST CALLVALUE PUSH2 0x15E3 JUMPI PUSH1 0x0 CALLDATASIZE PUSH1 0x3 NOT ADD SLT PUSH2 0x15E3 JUMPI PUSH1 0x20 PUSH1 0x40 MLOAD PUSH1 0x40 DUP2 MSTORE RETURN JUMPDEST PUSH1 0x40 PUSH1 0x3 NOT DUP3 ADD SLT PUSH2 0x15E3 JUMPI PUSH1 0x1 PUSH1 0x1 PUSH1 0x40 SHL SUB SWAP2 PUSH1 0x4 CALLDATALOAD DUP4 DUP2 GT PUSH2 0x15E3 JUMPI DUP3 PUSH2 0x24EE SWAP2 PUSH1 0x4 ADD PUSH2 0x2476 JUMP JUMPDEST SWAP4 SWAP1 SWAP4 SWAP3 PUSH1 0x24 CALLDATALOAD SWAP2 DUP3 GT PUSH2 0x15E3 JUMPI PUSH2 0x2508 SWAP2 PUSH1 0x4 ADD PUSH2 0x2476 JUMP JUMPDEST SWAP1 SWAP2 JUMP JUMPDEST SWAP1 PUSH1 0x1 DUP3 DUP2 SHR SWAP3 AND DUP1 ISZERO PUSH2 0x253C JUMPI JUMPDEST PUSH1 0x20 DUP4 LT EQ PUSH2 0x2526 JUMPI JUMP JUMPDEST PUSH4 0x4E487B71 PUSH1 0xE0 SHL PUSH1 0x0 MSTORE PUSH1 0x22 PUSH1 0x4 MSTORE PUSH1 0x24 PUSH1 0x0 REVERT JUMPDEST SWAP2 PUSH1 0x7F AND SWAP2 PUSH2 0x251B JUMP JUMPDEST PUSH1 0x1 PUSH1 0x1 PUSH1 0x40 SHL SUB DUP2 GT PUSH2 0x6E7 JUMPI PUSH1 0x40 MSTORE JUMP JUMPDEST PUSH1 0xE0 DUP2 ADD SWAP1 DUP2 LT PUSH1 0x1 PUSH1 0x1 PUSH1 0x40 SHL SUB DUP3 GT OR PUSH2 0x6E7 JUMPI PUSH1 0x40 MSTORE JUMP JUMPDEST PUSH1 0x20 DUP2 ADD SWAP1 DUP2 LT PUSH1 0x1 PUSH1 0x1 PUSH1 0x40 SHL SUB DUP3 GT OR PUSH2 0x6E7 JUMPI PUSH1 0x40 MSTORE JUMP JUMPDEST SWAP1 PUSH1 0x1F DUP1 NOT SWAP2 ADD AND DUP2 ADD SWAP1 DUP2 LT PUSH1 0x1 PUSH1 0x1 PUSH1 0x40 SHL SUB DUP3 GT OR PUSH2 0x6E7 JUMPI PUSH1 0x40 MSTORE JUMP JUMPDEST SWAP1 PUSH1 0x40 MLOAD SWAP2 DUP3 PUSH1 0x0 DUP3 SLOAD SWAP3 PUSH2 0x25C4 DUP5 PUSH2 0x250C JUMP JUMPDEST SWAP1 DUP2 DUP5 MSTORE PUSH1 0x1 SWAP5 DUP6 DUP2 AND SWAP1 DUP2 PUSH1 0x0 EQ PUSH2 0x2633 JUMPI POP PUSH1 0x1 EQ PUSH2 0x25F0 JUMPI JUMPDEST POP POP PUSH2 0x25EE SWAP3 POP SUB DUP4 PUSH2 0x258F JUMP JUMPDEST JUMP JUMPDEST SWAP1 SWAP4 SWAP2 POP PUSH1 0x0 MSTORE PUSH1 0x20 SWAP1 DUP2 PUSH1 0x0 KECCAK256 SWAP4 PUSH1 0x0 SWAP2 JUMPDEST DUP2 DUP4 LT PUSH2 0x261B JUMPI POP POP PUSH2 0x25EE SWAP4 POP DUP3 ADD ADD CODESIZE DUP1 PUSH2 0x25E0 JUMP JUMPDEST DUP6 SLOAD DUP9 DUP5 ADD DUP6 ADD MSTORE SWAP5 DUP6 ADD SWAP5 DUP8 SWAP5 POP SWAP2 DUP4 ADD SWAP2 PUSH2 0x2603 JUMP JUMPDEST SWAP2 POP POP PUSH2 0x25EE SWAP5 POP PUSH1 0x20 SWAP3 POP PUSH1 0xFF NOT AND DUP3 DUP5 ADD MSTORE ISZERO ISZERO PUSH1 0x5 SHL DUP3 ADD ADD CODESIZE DUP1 PUSH2 0x25E0 JUMP JUMPDEST PUSH1 0x1 PUSH1 0x1 PUSH1 0x40 SHL SUB DUP2 GT PUSH2 0x6E7 JUMPI PUSH1 0x5 SHL PUSH1 0x20 ADD SWAP1 JUMP JUMPDEST PUSH1 0x0 NOT DUP2 EQ PUSH2 0x2442 JUMPI PUSH1 0x1 ADD SWAP1 JUMP JUMPDEST PUSH1 0x1 PUSH1 0x1 PUSH1 0x40 SHL SUB DUP2 GT PUSH2 0x6E7 JUMPI PUSH1 0x1F ADD PUSH1 0x1F NOT AND PUSH1 0x20 ADD SWAP1 JUMP JUMPDEST PUSH1 0x60 SWAP1 PUSH1 0x20 DUP2 MSTORE PUSH1 0x16 PUSH1 0x20 DUP3 ADD MSTORE PUSH22 0x706978656C206973206F7574206F6620626F756E6473 PUSH1 0x50 SHL PUSH1 0x40 DUP3 ADD MSTORE ADD SWAP1 JUMP JUMPDEST SWAP2 SWAP1 SWAP2 DUP3 MLOAD PUSH1 0x1 PUSH1 0x1 PUSH1 0x40 SHL SUB DUP2 GT PUSH2 0x6E7 JUMPI PUSH2 0x26E5 DUP3 SLOAD PUSH2 0x250C JUMP JUMPDEST PUSH1 0x1F DUP2 GT PUSH2 0x278F JUMPI JUMPDEST POP PUSH1 0x20 DUP1 PUSH1 0x1F DUP4 GT PUSH1 0x1 EQ PUSH2 0x272B JUMPI POP DUP2 SWAP3 SWAP4 SWAP5 PUSH1 0x0 SWAP3 PUSH2 0x2720 JUMPI JUMPDEST POP POP DUP2 PUSH1 0x1 SHL SWAP2 PUSH1 0x0 NOT SWAP1 PUSH1 0x3 SHL SHR NOT AND OR SWAP1 SSTORE JUMP JUMPDEST ADD MLOAD SWAP1 POP CODESIZE DUP1 PUSH2 0x270A JUMP JUMPDEST SWAP1 PUSH1 0x1F NOT DUP4 AND SWAP6 DUP5 PUSH1 0x0 MSTORE DUP3 PUSH1 0x0 KECCAK256 SWAP3 PUSH1 0x0 SWAP1 JUMPDEST DUP9 DUP3 LT PUSH2 0x2777 JUMPI POP POP DUP4 PUSH1 0x1 SWAP6 SWAP7 SWAP8 LT PUSH2 0x275E JUMPI JUMPDEST POP POP POP DUP2 SHL ADD SWAP1 SSTORE JUMP JUMPDEST ADD MLOAD PUSH1 0x0 NOT PUSH1 0xF8 DUP5 PUSH1 0x3 SHL AND SHR NOT AND SWAP1 SSTORE CODESIZE DUP1 DUP1 PUSH2 0x2754 JUMP JUMPDEST DUP1 PUSH1 0x1 DUP6 SWAP7 DUP3 SWAP5 SWAP7 DUP7 ADD MLOAD DUP2 SSTORE ADD SWAP6 ADD SWAP4 ADD SWAP1 PUSH2 0x273F JUMP JUMPDEST PUSH1 0x0 DUP4 DUP2 MSTORE PUSH1 0x20 DUP2 KECCAK256 PUSH1 0x1F DUP5 ADD PUSH1 0x5 SHR DUP2 ADD SWAP3 PUSH1 0x20 DUP6 LT PUSH2 0x27CD JUMPI JUMPDEST PUSH1 0x1F ADD PUSH1 0x5 SHR ADD SWAP2 JUMPDEST DUP3 DUP2 LT PUSH2 0x27C2 JUMPI POP POP PUSH2 0x26EE JUMP JUMPDEST DUP2 DUP2 SSTORE PUSH1 0x1 ADD PUSH2 0x27B4 JUMP JUMPDEST SWAP1 SWAP3 POP DUP3 SWAP1 PUSH2 0x27AB JUMP JUMPDEST DUP2 DUP2 MUL SWAP3 SWAP2 DUP2 ISZERO SWAP2 DUP5 DIV EQ OR ISZERO PUSH2 0x2442 JUMPI JUMP JUMPDEST DUP1 MLOAD DUP3 LT ISZERO PUSH2 0x27FE JUMPI PUSH1 0x20 SWAP2 PUSH1 0x5 SHL ADD ADD SWAP1 JUMP JUMPDEST PUSH4 0x4E487B71 PUSH1 0xE0 SHL PUSH1 0x0 MSTORE PUSH1 0x32 PUSH1 0x4 MSTORE PUSH1 0x24 PUSH1 0x0 REVERT JUMPDEST SWAP2 SWAP1 DUP2 LT ISZERO PUSH2 0x27FE JUMPI PUSH1 0x5 SHL ADD SWAP1 JUMP JUMPDEST ISZERO PUSH2 0x282B JUMPI JUMP JUMPDEST PUSH1 0x40 MLOAD PUSH3 0x461BCD PUSH1 0xE5 SHL DUP2 MSTORE PUSH1 0x20 PUSH1 0x4 DUP3 ADD MSTORE PUSH1 0x2B PUSH1 0x24 DUP3 ADD MSTORE PUSH32 0x7820616E64207920696E7075742061727261797320617265206F662076617269 PUSH1 0x44 DUP3 ADD MSTORE PUSH11 0x6F7573206C656E67746873 PUSH1 0xA8 SHL PUSH1 0x64 DUP3 ADD MSTORE PUSH1 0x84 SWAP1 REVERT JUMPDEST SWAP1 DUP2 PUSH1 0x20 SWAP2 SUB SLT PUSH2 0x15E3 JUMPI MLOAD DUP1 ISZERO ISZERO DUP2 SUB PUSH2 0x15E3 JUMPI SWAP1 JUMP JUMPDEST PUSH1 0x1 PUSH1 0x1 PUSH1 0xA0 SHL SUB SWAP2 DUP3 AND DUP2 MSTORE SWAP2 AND PUSH1 0x20 DUP3 ADD MSTORE PUSH1 0x40 DUP2 ADD SWAP2 SWAP1 SWAP2 MSTORE PUSH1 0x60 ADD SWAP1 JUMP JUMPDEST SWAP3 SWAP2 SWAP1 SWAP2 PUSH2 0x28CD DUP2 DUP5 EQ PUSH2 0x2824 JUMP JUMPDEST PUSH1 0x0 JUMPDEST DUP4 DUP2 LT PUSH2 0x28DE JUMPI POP POP POP POP POP JUMP JUMPDEST PUSH2 0x28E9 DUP2 DUP6 DUP8 PUSH2 0x2814 JUMP JUMPDEST CALLDATALOAD PUSH2 0x28F5 DUP3 DUP5 DUP7 PUSH2 0x2814 JUMP JUMPDEST CALLDATALOAD PUSH1 0x40 DUP1 DUP1 SWAP4 LT SWAP2 DUP3 ISZERO SWAP3 PUSH2 0x2D27 JUMPI JUMPDEST POP POP PUSH2 0x2D10 JUMPI PUSH2 0x2916 DUP3 DUP7 DUP9 PUSH2 0x2814 JUMP JUMPDEST CALLDATALOAD PUSH1 0x0 MSTORE PUSH1 0x7 PUSH1 0x20 SWAP1 DUP1 DUP3 MSTORE DUP3 PUSH1 0x0 KECCAK256 PUSH2 0x2931 DUP6 DUP8 DUP10 PUSH2 0x2814 JUMP JUMPDEST CALLDATALOAD PUSH1 0x0 MSTORE DUP3 MSTORE PUSH1 0x1 DUP1 PUSH1 0xA0 SHL SUB CALLER DUP2 DUP6 PUSH1 0x0 KECCAK256 SLOAD AND SUB PUSH2 0x2CC1 JUMPI PUSH2 0x2956 DUP6 DUP10 DUP12 PUSH2 0x2814 JUMP JUMPDEST CALLDATALOAD PUSH1 0x0 MSTORE DUP2 DUP4 MSTORE DUP4 PUSH1 0x0 KECCAK256 PUSH2 0x296C DUP7 DUP9 DUP11 PUSH2 0x2814 JUMP JUMPDEST CALLDATALOAD PUSH1 0x0 MSTORE DUP4 MSTORE PUSH1 0x4 TIMESTAMP DUP2 DUP7 PUSH1 0x0 KECCAK256 ADD SLOAD SUB PUSH2 0x2995 JUMPI JUMPDEST POP POP POP POP POP PUSH2 0x2990 SWAP1 PUSH2 0x266D JUMP JUMPDEST PUSH2 0x28D0 JUMP JUMPDEST PUSH2 0x29AF PUSH2 0x29A3 DUP8 DUP12 DUP14 PUSH2 0x2814 JUMP JUMPDEST CALLDATALOAD PUSH2 0x1239 DUP9 DUP11 DUP13 PUSH2 0x2814 JUMP JUMPDEST PUSH1 0x5 SWAP3 DUP1 DUP5 SLOAD AND SWAP1 DUP8 MLOAD PUSH4 0x70A08231 PUSH1 0xE0 SHL DUP2 MSTORE CALLER DUP6 DUP3 ADD MSTORE PUSH1 0x24 SWAP1 DUP9 DUP2 DUP4 DUP2 DUP8 GAS STATICCALL SWAP1 DUP2 ISZERO PUSH2 0x2C35 JUMPI SWAP1 DUP6 SWAP2 PUSH1 0x0 SWAP2 PUSH2 0x2C91 JUMPI JUMPDEST POP LT PUSH2 0x2C40 JUMPI DUP9 MLOAD PUSH4 0x6EB1769F PUSH1 0xE1 SHL DUP2 MSTORE CALLER DUP7 DUP3 ADD SWAP1 DUP2 MSTORE ADDRESS PUSH1 0x20 DUP3 ADD MSTORE DUP10 SWAP1 DUP3 SWAP1 DUP2 SWAP1 PUSH1 0x40 ADD SUB DUP2 DUP8 GAS STATICCALL SWAP1 DUP2 ISZERO PUSH2 0x2C35 JUMPI SWAP1 DUP6 SWAP2 PUSH1 0x0 SWAP2 PUSH2 0x2C05 JUMPI JUMPDEST POP LT PUSH2 0x2BB4 JUMPI POP SWAP2 DUP7 SWAP2 PUSH2 0x2A52 SWAP4 PUSH1 0x2 SLOAD AND PUSH1 0x0 DUP11 MLOAD DUP1 SWAP7 DUP2 SWAP6 DUP3 SWAP5 PUSH4 0x23B872DD PUSH1 0xE0 SHL DUP5 MSTORE CALLER DUP12 DUP6 ADD PUSH2 0x289C JUMP JUMPDEST SUB SWAP3 GAS CALL DUP1 ISZERO PUSH2 0x2BA9 JUMPI SWAP3 PUSH2 0x2AAC DUP9 DUP13 DUP15 DUP3 SWAP11 SWAP8 SWAP7 DUP15 PUSH2 0x2A99 DUP16 SWAP15 PUSH2 0x2990 SWAP16 DUP7 SWAP14 SWAP11 DUP3 SWAP16 SWAP13 PUSH2 0x2B8C JUMPI JUMPDEST POP PUSH2 0x2A88 DUP3 DUP9 DUP9 PUSH2 0x2814 JUMP JUMPDEST CALLDATALOAD PUSH1 0x0 MSTORE DUP11 DUP13 MSTORE DUP13 PUSH1 0x0 KECCAK256 SWAP4 PUSH2 0x2814 JUMP JUMPDEST CALLDATALOAD PUSH1 0x0 MSTORE DUP9 MSTORE TIMESTAMP SWAP1 DUP10 PUSH1 0x0 KECCAK256 ADD SSTORE PUSH2 0x2814 JUMP JUMPDEST CALLDATALOAD PUSH1 0x0 MSTORE DUP2 DUP4 MSTORE DUP4 PUSH1 0x0 KECCAK256 PUSH2 0x2AC2 DUP8 DUP12 DUP14 PUSH2 0x2814 JUMP JUMPDEST CALLDATALOAD PUSH1 0x0 MSTORE DUP4 MSTORE DUP12 PUSH1 0xFF DUP3 DUP7 PUSH1 0x0 KECCAK256 ADD SLOAD AND PUSH2 0x2B25 JUMPI JUMPDEST SWAP3 POP POP POP PUSH2 0x2AE8 SWAP4 SWAP3 SWAP2 POP PUSH2 0x2814 JUMP JUMPDEST CALLDATALOAD PUSH2 0x2AF4 DUP3 DUP6 DUP8 PUSH2 0x2814 JUMP JUMPDEST CALLDATALOAD SWAP1 PUSH32 0xE61AF2269C9AFBDB69EFCE2B15F2A464F8EE6237F105B3D4024F2E824A9F0AF3 PUSH1 0x0 DUP1 LOG3 SWAP1 CODESIZE DUP1 DUP1 DUP1 PUSH2 0x2982 JUMP JUMPDEST PUSH1 0x0 SWAP7 PUSH1 0x6 SWAP7 PUSH2 0x2B34 SWAP3 PUSH2 0x2814 JUMP JUMPDEST CALLDATALOAD DUP7 MSTORE DUP2 DUP4 MSTORE DUP4 DUP7 KECCAK256 PUSH2 0x2B48 DUP9 DUP12 DUP14 PUSH2 0x2814 JUMP JUMPDEST CALLDATALOAD DUP8 MSTORE DUP4 MSTORE DUP4 DUP7 KECCAK256 ADD DUP1 SLOAD PUSH1 0xFF NOT AND SWAP1 SSTORE PUSH2 0x2B64 DUP7 DUP12 DUP14 PUSH2 0x2814 JUMP JUMPDEST CALLDATALOAD DUP6 MSTORE DUP2 MSTORE DUP2 DUP5 KECCAK256 SWAP1 PUSH2 0x2B78 DUP7 DUP10 DUP12 PUSH2 0x2814 JUMP JUMPDEST CALLDATALOAD DUP6 MSTORE MSTORE DUP3 KECCAK256 ADD SSTORE DUP1 DUP6 CODESIZE DUP1 DUP1 DUP1 DUP12 PUSH2 0x2AD8 JUMP JUMPDEST PUSH2 0x2BA2 SWAP1 DUP14 DUP1 RETURNDATASIZE LT PUSH2 0x156B JUMPI PUSH2 0x155C DUP2 DUP4 PUSH2 0x258F JUMP JUMPDEST POP CODESIZE PUSH2 0x2A7C JUMP JUMPDEST DUP7 MLOAD RETURNDATASIZE PUSH1 0x0 DUP3 RETURNDATACOPY RETURNDATASIZE SWAP1 REVERT JUMPDEST DUP5 PUSH1 0x27 PUSH1 0x84 SWAP3 DUP11 DUP13 MLOAD SWAP4 PUSH3 0x461BCD PUSH1 0xE5 SHL DUP6 MSTORE DUP5 ADD MSTORE DUP3 ADD MSTORE PUSH32 0x696E73756666696369656E7420616C6C6F77616E636520746F2070617920726F PUSH1 0x44 DUP3 ADD MSTORE PUSH7 0x79616C74696573 PUSH1 0xC8 SHL PUSH1 0x64 DUP3 ADD MSTORE REVERT JUMPDEST SWAP2 POP DUP10 DUP3 DUP2 RETURNDATASIZE DUP4 GT PUSH2 0x2C2E JUMPI JUMPDEST PUSH2 0x2C1C DUP2 DUP4 PUSH2 0x258F JUMP JUMPDEST DUP2 ADD SUB SLT PUSH2 0x1FD JUMPI POP DUP5 SWAP1 MLOAD CODESIZE PUSH2 0x2A23 JUMP JUMPDEST POP RETURNDATASIZE PUSH2 0x2C12 JUMP JUMPDEST DUP11 MLOAD RETURNDATASIZE PUSH1 0x0 DUP3 RETURNDATACOPY RETURNDATASIZE SWAP1 REVERT JUMPDEST DUP5 PUSH1 0x27 PUSH1 0x84 SWAP3 DUP11 DUP13 MLOAD SWAP4 PUSH3 0x461BCD PUSH1 0xE5 SHL DUP6 MSTORE DUP5 ADD MSTORE DUP3 ADD MSTORE PUSH32 0x6E6F742073756666696369656E742062616C616E636520746F2070617920726F PUSH1 0x44 DUP3 ADD MSTORE PUSH7 0x79616C74696573 PUSH1 0xC8 SHL PUSH1 0x64 DUP3 ADD MSTORE REVERT JUMPDEST SWAP2 POP DUP10 DUP3 DUP2 RETURNDATASIZE DUP4 GT PUSH2 0x2CBA JUMPI JUMPDEST PUSH2 0x2CA8 DUP2 DUP4 PUSH2 0x258F JUMP JUMPDEST DUP2 ADD SUB SLT PUSH2 0x1FD JUMPI POP DUP5 SWAP1 MLOAD CODESIZE PUSH2 0x29E4 JUMP JUMPDEST POP RETURNDATASIZE PUSH2 0x2C9E JUMP JUMPDEST DUP4 MLOAD PUSH3 0x461BCD PUSH1 0xE5 SHL DUP2 MSTORE PUSH1 0x4 DUP2 ADD DUP5 SWAP1 MSTORE PUSH1 0x22 PUSH1 0x24 DUP3 ADD MSTORE PUSH32 0x6F6E6C7920706978656C206F776E65722063616E2070617920726F79616C7469 PUSH1 0x44 DUP3 ADD MSTORE PUSH2 0x6573 PUSH1 0xF0 SHL PUSH1 0x64 DUP3 ADD MSTORE PUSH1 0x84 SWAP1 REVERT JUMPDEST MLOAD PUSH3 0x461BCD PUSH1 0xE5 SHL DUP2 MSTORE DUP1 PUSH2 0x18D6 PUSH1 0x4 DUP3 ADD PUSH2 0x2697 JUMP JUMPDEST LT ISZERO SWAP1 POP DUP2 CODESIZE PUSH2 0x2905 JUMP JUMPDEST ISZERO PUSH2 0x2D39 JUMPI JUMP JUMPDEST PUSH1 0x40 MLOAD PUSH3 0x461BCD PUSH1 0xE5 SHL DUP2 MSTORE PUSH1 0x20 PUSH1 0x4 DUP3 ADD MSTORE PUSH1 0x23 PUSH1 0x24 DUP3 ADD MSTORE PUSH32 0x6E6F742073756666696369656E742062616C616E636520746F20627579207069 PUSH1 0x44 DUP3 ADD MSTORE PUSH3 0x1E195B PUSH1 0xEA SHL PUSH1 0x64 DUP3 ADD MSTORE PUSH1 0x84 SWAP1 REVERT JUMPDEST ISZERO PUSH2 0x2D91 JUMPI JUMP JUMPDEST PUSH1 0x40 MLOAD PUSH3 0x461BCD PUSH1 0xE5 SHL DUP2 MSTORE PUSH1 0x20 PUSH1 0x4 DUP3 ADD MSTORE PUSH1 0x23 PUSH1 0x24 DUP3 ADD MSTORE PUSH32 0x696E73756666696369656E7420616C6C6F77616E636520746F20627579207069 PUSH1 0x44 DUP3 ADD MSTORE PUSH3 0x1E195B PUSH1 0xEA SHL PUSH1 0x64 DUP3 ADD MSTORE PUSH1 0x84 SWAP1 REVERT JUMPDEST SWAP2 SWAP1 DUP3 SUB SWAP2 DUP3 GT PUSH2 0x2442 JUMPI JUMP JUMPDEST ISZERO PUSH2 0x2DF6 JUMPI JUMP JUMPDEST PUSH1 0x40 MLOAD PUSH3 0x461BCD PUSH1 0xE5 SHL DUP2 MSTORE PUSH1 0x20 PUSH1 0x4 DUP3 ADD MSTORE PUSH1 0x2C PUSH1 0x24 DUP3 ADD MSTORE PUSH32 0x6F776E65722063757272656E74206D616E616765722063616E2063616C6C2074 PUSH1 0x44 DUP3 ADD MSTORE PUSH12 0x3434B990333AB731BA34B7B7 PUSH1 0xA1 SHL PUSH1 0x64 DUP3 ADD MSTORE PUSH1 0x84 SWAP1 REVERT JUMPDEST PUSH1 0x40 MLOAD SWAP1 PUSH2 0x2E5D DUP3 PUSH2 0x2559 JUMP JUMPDEST DUP2 PUSH1 0xC0 PUSH1 0x0 SWAP2 DUP3 DUP2 MSTORE DUP3 PUSH1 0x20 DUP3 ADD MSTORE DUP3 PUSH1 0x40 DUP3 ADD MSTORE PUSH1 0x60 DUP1 DUP3 ADD MSTORE DUP3 PUSH1 0x80 DUP3 ADD MSTORE DUP3 PUSH1 0xA0 DUP3 ADD MSTORE ADD MSTORE JUMP JUMPDEST SWAP1 PUSH2 0x2E91 PUSH2 0x2E50 JUMP JUMPDEST POP PUSH1 0x40 SWAP2 DUP3 DUP2 LT DUP1 PUSH2 0x2F56 JUMPI JUMPDEST ISZERO PUSH2 0x2F1C JUMPI PUSH1 0x0 MSTORE PUSH1 0x7 PUSH1 0x20 MSTORE DUP2 PUSH1 0x0 KECCAK256 SWAP1 PUSH1 0x0 MSTORE PUSH1 0x20 MSTORE PUSH1 0x6 DUP2 PUSH1 0x0 KECCAK256 DUP3 MLOAD SWAP3 PUSH2 0x2EC8 DUP5 PUSH2 0x2559 JUMP JUMPDEST DUP2 SLOAD PUSH1 0x1 PUSH1 0x1 PUSH1 0xA0 SHL SUB AND DUP5 MSTORE PUSH1 0x1 DUP3 ADD SLOAD PUSH1 0x20 DUP6 ADD MSTORE PUSH1 0x2 DUP3 ADD SLOAD SWAP1 DUP5 ADD MSTORE PUSH2 0x2EF4 PUSH1 0x3 DUP3 ADD PUSH2 0x25B0 JUMP JUMPDEST PUSH1 0x60 DUP5 ADD MSTORE PUSH1 0x4 DUP2 ADD SLOAD PUSH1 0x80 DUP5 ADD MSTORE PUSH1 0xFF PUSH1 0x5 DUP3 ADD SLOAD AND ISZERO ISZERO PUSH1 0xA0 DUP5 ADD MSTORE ADD SLOAD PUSH1 0xC0 DUP3 ADD MSTORE SWAP1 JUMP JUMPDEST DUP3 MLOAD PUSH3 0x461BCD PUSH1 0xE5 SHL DUP2 MSTORE PUSH1 0x20 PUSH1 0x4 DUP3 ADD MSTORE PUSH1 0x13 PUSH1 0x24 DUP3 ADD MSTORE PUSH19 0x706978656C206F7574206F6620626F756E6473 PUSH1 0x68 SHL PUSH1 0x44 DUP3 ADD MSTORE PUSH1 0x64 SWAP1 REVERT JUMPDEST POP DUP3 DUP3 LT PUSH2 0x2E9E JUMP JUMPDEST PUSH2 0x2FAF PUSH2 0x2FB8 SWAP2 PUSH1 0x2 PUSH1 0x40 PUSH5 0x73DF16000 SWAP6 PUSH1 0x0 SWAP1 DUP5 DUP3 MSTORE PUSH1 0x7 PUSH1 0x20 MSTORE DUP3 DUP3 KECCAK256 DUP2 DUP4 MSTORE PUSH1 0x20 MSTORE PUSH2 0x2F95 PUSH1 0x4 DUP5 DUP5 KECCAK256 ADD SLOAD TIMESTAMP PUSH2 0x2DE2 JUMP JUMPDEST SWAP5 DUP3 MSTORE PUSH1 0x7 PUSH1 0x20 MSTORE DUP3 DUP3 KECCAK256 SWAP1 DUP3 MSTORE PUSH1 0x20 MSTORE KECCAK256 ADD SLOAD SWAP1 PUSH2 0x27D7 JUMP JUMPDEST PUSH1 0x3 SLOAD SWAP1 PUSH2 0x27D7 JUMP JUMPDEST DIV SWAP1 JUMP JUMPDEST ISZERO PUSH2 0x2FC3 JUMPI JUMP JUMPDEST PUSH1 0x40 MLOAD PUSH3 0x461BCD PUSH1 0xE5 SHL DUP2 MSTORE PUSH1 0x20 PUSH1 0x4 DUP3 ADD MSTORE PUSH1 0x19 PUSH1 0x24 DUP3 ADD MSTORE PUSH25 0x61756374696F6E2068617320656E64656420616C7265616479 PUSH1 0x38 SHL PUSH1 0x44 DUP3 ADD MSTORE PUSH1 0x64 SWAP1 REVERT JUMPDEST ISZERO PUSH2 0x300B JUMPI JUMP JUMPDEST PUSH1 0x40 MLOAD PUSH3 0x461BCD PUSH1 0xE5 SHL DUP2 MSTORE PUSH1 0x20 PUSH1 0x4 DUP3 ADD MSTORE PUSH1 0x1B PUSH1 0x24 DUP3 ADD MSTORE PUSH32 0x61756374696F6E20686173206E6F742073746172746564207965740000000000 PUSH1 0x44 DUP3 ADD MSTORE PUSH1 0x64 SWAP1 REVERT JUMPDEST PUSH1 0x2 PUSH1 0x0 SLOAD EQ PUSH2 0x3061 JUMPI PUSH1 0x2 PUSH1 0x0 SSTORE JUMP JUMPDEST PUSH1 0x40 MLOAD PUSH4 0x3EE5AEB5 PUSH1 0xE0 SHL DUP2 MSTORE PUSH1 0x4 SWAP1 REVERT JUMPDEST SWAP2 SWAP3 SWAP1 SWAP3 DUP3 ISZERO PUSH2 0x3717 JUMPI PUSH1 0x1 DUP4 EQ PUSH2 0x3648 JUMPI PUSH1 0x2 DUP4 EQ PUSH2 0x361E JUMPI PUSH1 0x3 DUP4 EQ PUSH2 0x35C2 JUMPI PUSH1 0x4 SWAP3 DUP4 DUP2 EQ PUSH2 0x356E JUMPI PUSH1 0x5 DUP2 EQ PUSH2 0x3411 JUMPI PUSH1 0x6 DUP2 EQ PUSH2 0x33BF JUMPI PUSH1 0x7 DUP2 EQ PUSH2 0x3358 JUMPI PUSH1 0x8 DUP2 EQ PUSH2 0x3275 JUMPI PUSH1 0x9 EQ PUSH2 0x30DD JUMPI POP POP POP POP PUSH1 0x40 MLOAD PUSH2 0x30D6 DUP2 PUSH2 0x2574 JUMP JUMPDEST PUSH1 0x0 DUP2 MSTORE SWAP1 JUMP JUMPDEST PUSH2 0x30E6 DUP5 PUSH2 0x3856 JUMP JUMPDEST SWAP1 PUSH2 0x30F0 DUP2 PUSH2 0x3856 JUMP JUMPDEST PUSH1 0x8 DUP7 ADD DUP1 DUP8 GT PUSH2 0x3260 JUMPI PUSH2 0x3104 SWAP1 PUSH2 0x3856 JUMP JUMPDEST SWAP5 PUSH1 0x8 DUP4 ADD DUP1 SWAP4 GT PUSH2 0x324B JUMPI POP SWAP2 PUSH2 0x322C DUP3 PUSH2 0x3248 SWAP7 SWAP5 PUSH2 0x3139 PUSH2 0x3133 PUSH2 0x312D PUSH1 0x49 SWAP10 SWAP8 PUSH2 0x3856 JUMP JUMPDEST SWAP11 PUSH2 0x3856 JUMP JUMPDEST SWAP3 PUSH2 0x3856 JUMP JUMPDEST SWAP2 PUSH1 0x40 MLOAD SWAP10 DUP11 SWAP8 PUSH1 0x2A PUSH2 0x3169 DUP11 PUSH1 0x20 SWAP10 PUSH10 0x3C7061746820643D224D PUSH1 0xB0 SHL DUP12 DUP4 ADD MSTORE DUP11 DUP2 MLOAD SWAP5 DUP6 SWAP4 ADD SWAP2 ADD PUSH2 0x2391 JUMP JUMPDEST DUP10 ADD SWAP4 PUSH1 0x1 PUSH1 0xFD SHL SWAP5 DUP6 PUSH1 0x2A DUP3 ADD MSTORE PUSH2 0x318B DUP3 MLOAD DUP1 SWAP4 DUP12 PUSH1 0x2B DUP6 ADD SWAP2 ADD PUSH2 0x2391 JUMP JUMPDEST ADD PUSH12 0x10209C101C1018101810189 PUSH1 0xA5 SHL PUSH1 0x2B DUP3 ADD MSTORE PUSH2 0x31B4 DUP3 MLOAD DUP1 SWAP4 DUP11 PUSH1 0x37 DUP6 ADD SWAP2 ADD PUSH2 0x2391 JUMP JUMPDEST ADD DUP4 PUSH1 0x37 DUP3 ADD MSTORE PUSH2 0x31CE DUP3 MLOAD DUP1 SWAP4 DUP10 PUSH1 0x38 DUP6 ADD SWAP2 ADD PUSH2 0x2391 JUMP JUMPDEST ADD PUSH2 0x813 PUSH1 0xF2 SHL PUSH1 0x38 DUP3 ADD MSTORE PUSH2 0x31ED DUP3 MLOAD DUP1 SWAP4 DUP9 PUSH1 0x3A DUP6 ADD SWAP2 ADD PUSH2 0x2391 JUMP JUMPDEST ADD SWAP1 PUSH1 0x3A DUP3 ADD MSTORE PUSH2 0x3207 DUP3 MLOAD DUP1 SWAP4 DUP7 PUSH1 0x3B DUP6 ADD SWAP2 ADD PUSH2 0x2391 JUMP JUMPDEST ADD SWAP2 PUSH10 0x102D11103334B6361E91 PUSH1 0xB1 SHL PUSH1 0x3B DUP5 ADD MSTORE DUP4 MLOAD SWAP4 DUP5 SWAP2 PUSH1 0x45 DUP6 ADD SWAP2 ADD PUSH2 0x2391 JUMP JUMPDEST ADD PUSH4 0x1110179F PUSH1 0xE1 SHL PUSH1 0x45 DUP3 ADD MSTORE SUB PUSH1 0x29 DUP2 ADD DUP5 MSTORE ADD DUP3 PUSH2 0x258F JUMP JUMPDEST SWAP1 JUMP JUMPDEST PUSH1 0x11 SWAP1 PUSH4 0x4E487B71 PUSH1 0xE0 SHL PUSH1 0x0 MSTORE MSTORE PUSH1 0x24 PUSH1 0x0 REVERT JUMPDEST PUSH1 0x11 DUP7 PUSH4 0x4E487B71 PUSH1 0xE0 SHL PUSH1 0x0 MSTORE MSTORE PUSH1 0x24 PUSH1 0x0 REVERT JUMPDEST POP SWAP3 PUSH1 0x8 DUP2 ADD SWAP4 DUP5 DUP3 GT PUSH2 0x3343 JUMPI PUSH2 0x328C DUP6 PUSH2 0x3856 JUMP JUMPDEST SWAP2 PUSH2 0x329F PUSH2 0x3299 DUP4 PUSH2 0x3856 JUMP JUMPDEST SWAP2 PUSH2 0x3856 JUMP JUMPDEST SWAP5 PUSH1 0x8 DUP4 ADD DUP1 SWAP4 GT PUSH2 0x324B JUMPI POP SWAP2 PUSH2 0x322C DUP3 PUSH2 0x3248 SWAP7 SWAP5 PUSH2 0x32C8 PUSH2 0x3133 PUSH2 0x312D PUSH1 0x49 SWAP10 SWAP8 PUSH2 0x3856 JUMP JUMPDEST SWAP2 PUSH1 0x40 MLOAD SWAP10 DUP11 SWAP8 PUSH1 0x2A PUSH2 0x32F8 DUP11 PUSH1 0x20 SWAP10 PUSH10 0x3C7061746820643D224D PUSH1 0xB0 SHL DUP12 DUP4 ADD MSTORE DUP11 DUP2 MLOAD SWAP5 DUP6 SWAP4 ADD SWAP2 ADD PUSH2 0x2391 JUMP JUMPDEST DUP10 ADD SWAP4 PUSH1 0x1 PUSH1 0xFD SHL SWAP5 DUP6 PUSH1 0x2A DUP3 ADD MSTORE PUSH2 0x331A DUP3 MLOAD DUP1 SWAP4 DUP12 PUSH1 0x2B DUP6 ADD SWAP2 ADD PUSH2 0x2391 JUMP JUMPDEST ADD PUSH12 0x10209C101C1018101810181 PUSH1 0xA5 SHL PUSH1 0x2B DUP3 ADD MSTORE PUSH2 0x31B4 DUP3 MLOAD DUP1 SWAP4 DUP11 PUSH1 0x37 DUP6 ADD SWAP2 ADD PUSH2 0x2391 JUMP JUMPDEST PUSH1 0x11 DUP5 PUSH4 0x4E487B71 PUSH1 0xE0 SHL PUSH1 0x0 MSTORE MSTORE PUSH1 0x24 PUSH1 0x0 REVERT JUMPDEST POP PUSH2 0x3362 DUP5 PUSH2 0x3856 JUMP JUMPDEST SWAP1 PUSH2 0x336C DUP2 PUSH2 0x3856 JUMP JUMPDEST PUSH1 0x8 DUP7 ADD DUP1 SWAP7 GT PUSH2 0x33AA JUMPI PUSH2 0x3380 DUP7 PUSH2 0x3856 JUMP JUMPDEST SWAP5 PUSH1 0x8 DUP4 ADD SWAP1 DUP2 DUP5 GT PUSH2 0x324B JUMPI POP PUSH1 0x49 SWAP5 SWAP3 PUSH2 0x3248 SWAP7 SWAP5 SWAP3 PUSH2 0x32C8 PUSH2 0x3133 PUSH2 0x312D PUSH2 0x322C SWAP6 PUSH2 0x3856 JUMP JUMPDEST PUSH1 0x11 DUP6 PUSH4 0x4E487B71 PUSH1 0xE0 SHL PUSH1 0x0 MSTORE MSTORE PUSH1 0x24 PUSH1 0x0 REVERT JUMPDEST POP PUSH2 0x33C9 DUP5 PUSH2 0x3856 JUMP JUMPDEST SWAP1 PUSH1 0x8 DUP2 ADD DUP1 DUP3 GT PUSH2 0x33AA JUMPI PUSH2 0x33DE SWAP1 PUSH2 0x3856 JUMP JUMPDEST SWAP4 PUSH1 0x8 DUP7 ADD SWAP1 DUP2 DUP8 GT PUSH2 0x324B JUMPI POP SWAP2 PUSH2 0x322C PUSH1 0x49 SWAP5 SWAP3 PUSH2 0x3401 PUSH2 0x3248 SWAP8 SWAP6 PUSH2 0x3856 JUMP JUMPDEST SWAP5 PUSH2 0x32C8 PUSH2 0x3133 PUSH2 0x312D DUP5 PUSH2 0x3856 JUMP JUMPDEST POP SWAP3 PUSH2 0x341C DUP2 PUSH2 0x3856 JUMP JUMPDEST SWAP1 PUSH1 0x8 DUP6 ADD SWAP1 DUP2 DUP7 GT PUSH2 0x33AA JUMPI PUSH2 0x3432 DUP3 PUSH2 0x3856 JUMP JUMPDEST SWAP1 PUSH2 0x3445 PUSH2 0x343F DUP3 PUSH2 0x3856 JUMP JUMPDEST SWAP8 PUSH2 0x3856 JUMP JUMPDEST SWAP6 PUSH1 0x8 DUP3 ADD DUP1 SWAP3 GT PUSH2 0x324B JUMPI POP PUSH1 0x3F SWAP5 SWAP3 PUSH2 0x3248 SWAP7 SWAP5 SWAP3 PUSH2 0x346B PUSH2 0x3133 PUSH2 0x3552 SWAP5 PUSH2 0x3856 JUMP JUMPDEST SWAP2 PUSH1 0x40 MLOAD SWAP10 DUP11 SWAP8 PUSH1 0x2A PUSH2 0x349B DUP11 PUSH1 0x20 SWAP10 PUSH10 0x3C7061746820643D224D PUSH1 0xB0 SHL DUP12 DUP4 ADD MSTORE DUP11 DUP2 MLOAD SWAP5 DUP6 SWAP4 ADD SWAP2 ADD PUSH2 0x2391 JUMP JUMPDEST DUP10 ADD SWAP4 PUSH1 0x1 PUSH1 0xFD SHL SWAP5 DUP6 PUSH1 0x2A DUP3 ADD MSTORE PUSH2 0x34BD DUP3 MLOAD DUP1 SWAP4 DUP12 PUSH1 0x2B DUP6 ADD SWAP2 ADD PUSH2 0x2391 JUMP JUMPDEST ADD SWAP2 PUSH2 0x813 PUSH1 0xF2 SHL SWAP3 DUP4 PUSH1 0x2B DUP3 ADD MSTORE PUSH2 0x34DF DUP3 MLOAD DUP1 SWAP4 DUP12 PUSH1 0x2D DUP6 ADD SWAP2 ADD PUSH2 0x2391 JUMP JUMPDEST ADD DUP5 PUSH1 0x2D DUP3 ADD MSTORE PUSH2 0x34F9 DUP3 MLOAD DUP1 SWAP4 DUP11 PUSH1 0x2E DUP6 ADD SWAP2 ADD PUSH2 0x2391 JUMP JUMPDEST ADD SWAP1 PUSH1 0x2E DUP3 ADD MSTORE PUSH2 0x3513 DUP3 MLOAD DUP1 SWAP4 DUP9 PUSH1 0x30 DUP6 ADD SWAP2 ADD PUSH2 0x2391 JUMP JUMPDEST ADD SWAP1 PUSH1 0x30 DUP3 ADD MSTORE PUSH2 0x352D DUP3 MLOAD DUP1 SWAP4 DUP7 PUSH1 0x31 DUP6 ADD SWAP2 ADD PUSH2 0x2391 JUMP JUMPDEST ADD SWAP2 PUSH10 0x103D11103334B6361E91 PUSH1 0xB1 SHL PUSH1 0x31 DUP5 ADD MSTORE DUP4 MLOAD SWAP4 DUP5 SWAP2 PUSH1 0x3B DUP6 ADD SWAP2 ADD PUSH2 0x2391 JUMP JUMPDEST ADD PUSH4 0x1110179F PUSH1 0xE1 SHL PUSH1 0x3B DUP3 ADD MSTORE SUB PUSH1 0x1F DUP2 ADD DUP5 MSTORE ADD DUP3 PUSH2 0x258F JUMP JUMPDEST POP SWAP3 SWAP2 PUSH1 0x8 DUP4 ADD SWAP1 DUP2 DUP5 GT PUSH2 0x324B JUMPI PUSH2 0x3586 DUP3 PUSH2 0x3856 JUMP JUMPDEST SWAP2 PUSH1 0x8 DUP7 ADD SWAP2 DUP3 DUP8 GT PUSH2 0x324B JUMPI POP SWAP2 PUSH2 0x3552 DUP3 PUSH2 0x3248 SWAP7 SWAP5 PUSH2 0x346B PUSH2 0x3133 PUSH2 0x343F PUSH2 0x35BC PUSH2 0x35B6 PUSH1 0x3F SWAP12 SWAP10 PUSH2 0x3856 JUMP JUMPDEST SWAP5 PUSH2 0x3856 JUMP JUMPDEST SWAP12 PUSH2 0x3856 JUMP JUMPDEST SWAP2 POP PUSH2 0x35CD DUP4 PUSH2 0x3856 JUMP JUMPDEST SWAP3 PUSH2 0x35D7 DUP4 PUSH2 0x3856 JUMP JUMPDEST SWAP2 PUSH1 0x8 DUP3 ADD DUP1 SWAP3 GT PUSH2 0x2442 JUMPI PUSH2 0x35EC DUP3 PUSH2 0x3856 JUMP JUMPDEST SWAP5 PUSH2 0x35FF PUSH2 0x35F9 DUP7 PUSH2 0x3856 JUMP JUMPDEST SWAP4 PUSH2 0x3856 JUMP JUMPDEST SWAP5 PUSH1 0x8 DUP2 ADD DUP1 SWAP2 GT PUSH2 0x2442 JUMPI PUSH2 0x3248 SWAP6 PUSH1 0x3F SWAP6 PUSH2 0x346B PUSH2 0x3552 SWAP4 PUSH2 0x3856 JUMP JUMPDEST SWAP2 POP PUSH2 0x3629 DUP4 PUSH2 0x3856 JUMP JUMPDEST SWAP3 PUSH2 0x3633 DUP4 PUSH2 0x3856 JUMP JUMPDEST SWAP2 PUSH1 0x8 DUP3 ADD DUP1 DUP4 GT PUSH2 0x2442 JUMPI PUSH2 0x35EC SWAP1 PUSH2 0x3856 JUMP JUMPDEST SWAP2 POP SWAP2 PUSH1 0x4 DUP2 ADD DUP1 SWAP2 GT PUSH2 0x2442 JUMPI PUSH2 0x365F SWAP1 PUSH2 0x3856 JUMP JUMPDEST SWAP1 PUSH1 0x4 DUP2 ADD DUP1 SWAP2 GT PUSH2 0x2442 JUMPI PUSH2 0x3248 SWAP2 PUSH2 0x367A PUSH1 0x44 SWAP3 PUSH2 0x3856 JUMP JUMPDEST SWAP4 PUSH1 0x40 MLOAD SWAP5 DUP6 SWAP3 PUSH12 0x1E31B4B931B6329031BC1E91 PUSH1 0xA1 SHL PUSH1 0x20 DUP6 ADD MSTORE PUSH2 0x36AA DUP2 MLOAD DUP1 SWAP3 PUSH1 0x20 PUSH1 0x2C DUP9 ADD SWAP2 ADD PUSH2 0x2391 JUMP JUMPDEST DUP4 ADD PUSH6 0x111031BC9E91 PUSH1 0xD1 SHL PUSH1 0x2C DUP3 ADD MSTORE PUSH2 0x36CF DUP3 MLOAD DUP1 SWAP4 PUSH1 0x20 PUSH1 0x32 DUP6 ADD SWAP2 ADD PUSH2 0x2391 JUMP JUMPDEST ADD PUSH14 0x1110391E911A11103334B6361E91 PUSH1 0x91 SHL PUSH1 0x32 DUP3 ADD MSTORE PUSH2 0x36FB DUP3 MLOAD DUP1 SWAP4 PUSH1 0x20 PUSH1 0x40 DUP6 ADD SWAP2 ADD PUSH2 0x2391 JUMP JUMPDEST ADD PUSH4 0x1110179F PUSH1 0xE1 SHL PUSH1 0x40 DUP3 ADD MSTORE SUB PUSH1 0x24 DUP2 ADD DUP5 MSTORE ADD DUP3 PUSH2 0x258F JUMP JUMPDEST PUSH2 0x3248 SWAP3 POP PUSH2 0x372B PUSH2 0x3299 PUSH1 0x4F SWAP4 SWAP6 PUSH2 0x3856 JUMP JUMPDEST SWAP4 PUSH1 0x40 MLOAD SWAP5 DUP6 SWAP3 PUSH9 0x1E3932B1BA103C1E91 PUSH1 0xB9 SHL PUSH1 0x20 DUP6 ADD MSTORE PUSH2 0x3758 DUP2 MLOAD DUP1 SWAP3 PUSH1 0x20 PUSH1 0x29 DUP9 ADD SWAP2 ADD PUSH2 0x2391 JUMP JUMPDEST DUP4 ADD PUSH5 0x11103C9E91 PUSH1 0xD9 SHL PUSH1 0x29 DUP3 ADD MSTORE PUSH2 0x377C DUP3 MLOAD DUP1 SWAP4 PUSH1 0x20 PUSH1 0x2E DUP6 ADD SWAP2 ADD PUSH2 0x2391 JUMP JUMPDEST ADD PUSH32 0x222077696474683D223822206865696768743D2238222066696C6C3D22000000 PUSH1 0x2E DUP3 ADD MSTORE PUSH2 0x37B7 DUP3 MLOAD DUP1 SWAP4 PUSH1 0x20 PUSH1 0x4B DUP6 ADD SWAP2 ADD PUSH2 0x2391 JUMP JUMPDEST ADD PUSH4 0x1110179F PUSH1 0xE1 SHL PUSH1 0x4B DUP3 ADD MSTORE SUB PUSH1 0x2F DUP2 ADD DUP5 MSTORE ADD DUP3 PUSH2 0x258F JUMP JUMPDEST PUSH1 0x0 SWAP3 SWAP2 DUP2 SLOAD PUSH2 0x37E2 DUP2 PUSH2 0x250C JUMP JUMPDEST SWAP3 PUSH1 0x1 SWAP2 DUP1 DUP4 AND SWAP1 DUP2 ISZERO PUSH2 0x383B JUMPI POP PUSH1 0x1 EQ PUSH2 0x37FF JUMPI JUMPDEST POP POP POP POP JUMP JUMPDEST SWAP1 SWAP2 SWAP3 SWAP4 SWAP5 POP PUSH1 0x0 MSTORE PUSH1 0x20 SWAP1 DUP2 PUSH1 0x0 KECCAK256 SWAP1 PUSH1 0x0 SWAP2 JUMPDEST DUP6 DUP4 LT PUSH2 0x382A JUMPI POP POP POP POP ADD SWAP1 CODESIZE DUP1 DUP1 DUP1 PUSH2 0x37F9 JUMP JUMPDEST DUP1 SLOAD DUP6 DUP5 ADD MSTORE SWAP2 DUP4 ADD SWAP2 DUP2 ADD PUSH2 0x3814 JUMP JUMPDEST PUSH1 0xFF NOT AND DUP5 MSTORE POP POP POP DUP2 ISZERO ISZERO SWAP1 SWAP2 MUL ADD SWAP2 POP CODESIZE DUP1 DUP1 DUP1 PUSH2 0x37F9 JUMP JUMPDEST DUP1 ISZERO PUSH2 0x3916 JUMPI DUP1 DUP2 PUSH1 0x0 SWAP3 JUMPDEST PUSH2 0x3902 JUMPI POP DUP1 PUSH2 0x3871 DUP4 PUSH2 0x267C JUMP JUMPDEST SWAP3 PUSH2 0x387F PUSH1 0x40 MLOAD SWAP5 DUP6 PUSH2 0x258F JUMP JUMPDEST DUP1 DUP5 MSTORE PUSH1 0x1F NOT PUSH2 0x388E DUP3 PUSH2 0x267C JUMP JUMPDEST ADD CALLDATASIZE PUSH1 0x20 DUP7 ADD CALLDATACOPY SWAP2 JUMPDEST PUSH2 0x38A0 JUMPI POP POP SWAP1 JUMP JUMPDEST PUSH1 0x0 NOT DUP3 ADD SWAP2 DUP1 DUP4 GT PUSH2 0x2442 JUMPI DUP3 PUSH1 0xA SWAP1 DUP2 DUP5 DIV SWAP4 DUP3 DUP6 MUL SWAP3 DUP6 DUP5 DIV EQ DUP6 ISZERO OR ISZERO PUSH2 0x2442 JUMPI PUSH2 0x38D2 PUSH1 0xFF SWAP4 DUP5 SWAP3 PUSH2 0x2DE2 JUMP JUMPDEST AND PUSH1 0x30 ADD SWAP2 DUP3 GT PUSH2 0x2442 JUMPI DUP6 MLOAD GT ISZERO PUSH2 0x27FE JUMPI PUSH1 0xF8 SHL PUSH1 0x1 PUSH1 0x1 PUSH1 0xF8 SHL SUB NOT AND PUSH1 0x0 BYTE SWAP1 DUP5 ADD PUSH1 0x1F ADD MSTORE8 DUP1 PUSH2 0x3897 JUMP JUMPDEST SWAP2 PUSH2 0x390E PUSH1 0xA SWAP2 PUSH2 0x266D JUMP JUMPDEST SWAP3 DIV DUP1 PUSH2 0x3862 JUMP JUMPDEST POP PUSH1 0x40 MLOAD PUSH1 0x40 DUP2 ADD DUP2 DUP2 LT PUSH1 0x1 PUSH1 0x1 PUSH1 0x40 SHL SUB DUP3 GT OR PUSH2 0x6E7 JUMPI PUSH1 0x40 MSTORE PUSH1 0x1 DUP2 MSTORE PUSH1 0x3 PUSH1 0xFC SHL PUSH1 0x20 DUP3 ADD MSTORE SWAP1 JUMP INVALID LOG2 PUSH5 0x6970667358 0x22 SLT KECCAK256 CODESIZE 0xEE MSTORE DUP1 PUSH11 0x729BF3EC4C432A77B1C299 SWAP7 0xAE DUP4 0xBA SWAP5 0xC6 PUSH1 0x5E 0xC4 DUP1 0xC9 0xD 0x22 PUSH19 0xE72C64736F6C63430008140033608080604052 CALLVALUE PUSH2 0x16 JUMPI PUSH2 0x794 SWAP1 DUP2 PUSH2 0x1C DUP3 CODECOPY RETURN JUMPDEST PUSH1 0x0 DUP1 REVERT INVALID PUSH1 0x80 PUSH1 0x40 MSTORE PUSH1 0x4 CALLDATASIZE LT ISZERO PUSH2 0x12 JUMPI PUSH1 0x0 DUP1 REVERT JUMPDEST PUSH1 0x0 DUP1 CALLDATALOAD PUSH1 0xE0 SHR SWAP1 DUP2 PUSH4 0x2E08D602 EQ PUSH2 0x7A JUMPI POP DUP1 PUSH4 0x58161A42 EQ PUSH2 0x75 JUMPI DUP1 PUSH4 0xB8616195 EQ PUSH2 0x70 JUMPI DUP1 PUSH4 0xCF06C7B7 EQ PUSH2 0x6B JUMPI DUP1 PUSH4 0xDD1D2599 EQ PUSH2 0x66 JUMPI PUSH4 0xE27D5153 EQ PUSH2 0x61 JUMPI PUSH1 0x0 DUP1 REVERT JUMPDEST PUSH2 0x3F7 JUMP JUMPDEST PUSH2 0x3D6 JUMP JUMPDEST PUSH2 0x3B0 JUMP JUMPDEST PUSH2 0x2BB JUMP JUMPDEST PUSH2 0x20D JUMP JUMPDEST CALLVALUE PUSH2 0x151 JUMPI PUSH1 0x20 CALLDATASIZE PUSH1 0x3 NOT ADD SLT PUSH2 0x151 JUMPI PUSH1 0x4 CALLDATALOAD PUSH8 0xFFFFFFFFFFFFFFFF DUP2 GT PUSH2 0x14D JUMPI PUSH2 0xAB SWAP1 CALLDATASIZE SWAP1 PUSH1 0x4 ADD PUSH2 0x1AD JUMP JUMPDEST PUSH1 0x1 DUP1 DUP3 MLOAD GT ISZERO PUSH2 0xFC JUMPI DUP1 JUMPDEST PUSH2 0xDE JUMPI JUMPDEST PUSH2 0xDA PUSH2 0xC9 DUP4 PUSH2 0x45A JUMP JUMPDEST MLOAD PUSH1 0x40 MLOAD SWAP1 DUP2 MSTORE SWAP1 DUP2 SWAP1 PUSH1 0x20 DUP3 ADD SWAP1 JUMP JUMPDEST SUB SWAP1 RETURN JUMPDEST DUP1 DUP3 MLOAD GT ISZERO PUSH2 0xF7 JUMPI PUSH2 0xF1 DUP2 SWAP3 PUSH2 0x511 JUMP JUMPDEST SWAP2 PUSH2 0xB8 JUMP JUMPDEST PUSH2 0xBD JUMP JUMPDEST PUSH1 0x40 MLOAD PUSH3 0x461BCD PUSH1 0xE5 SHL DUP2 MSTORE PUSH1 0x20 PUSH1 0x4 DUP3 ADD MSTORE PUSH1 0x23 PUSH1 0x24 DUP3 ADD MSTORE PUSH32 0x776F6E27742067656E657261746520726F6F7420666F722073696E676C65206C PUSH1 0x44 DUP3 ADD MSTORE PUSH3 0x32B0B3 PUSH1 0xE9 SHL PUSH1 0x64 DUP3 ADD MSTORE PUSH1 0x84 SWAP1 REVERT JUMPDEST POP DUP1 REVERT JUMPDEST DUP1 REVERT JUMPDEST PUSH4 0x4E487B71 PUSH1 0xE0 SHL PUSH1 0x0 MSTORE PUSH1 0x41 PUSH1 0x4 MSTORE PUSH1 0x24 PUSH1 0x0 REVERT JUMPDEST PUSH1 0x40 MLOAD SWAP2 SWAP1 PUSH1 0x1F ADD PUSH1 0x1F NOT AND DUP3 ADD PUSH8 0xFFFFFFFFFFFFFFFF DUP2 GT DUP4 DUP3 LT OR PUSH2 0x190 JUMPI PUSH1 0x40 MSTORE JUMP JUMPDEST PUSH2 0x154 JUMP JUMPDEST PUSH8 0xFFFFFFFFFFFFFFFF DUP2 GT PUSH2 0x190 JUMPI PUSH1 0x5 SHL PUSH1 0x20 ADD SWAP1 JUMP JUMPDEST SWAP1 DUP1 PUSH1 0x1F DUP4 ADD SLT ISZERO PUSH2 0x208 JUMPI DUP2 CALLDATALOAD SWAP1 PUSH2 0x1CD PUSH2 0x1C8 DUP4 PUSH2 0x195 JUMP JUMPDEST PUSH2 0x16A JUMP JUMPDEST SWAP2 DUP3 SWAP4 DUP2 DUP5 MSTORE PUSH1 0x20 DUP1 DUP1 SWAP6 ADD SWAP3 PUSH1 0x5 SHL DUP3 ADD ADD SWAP3 DUP4 GT PUSH2 0x208 JUMPI DUP4 ADD SWAP1 JUMPDEST DUP3 DUP3 LT PUSH2 0x1F9 JUMPI POP POP POP POP SWAP1 JUMP JUMPDEST DUP2 CALLDATALOAD DUP2 MSTORE SWAP1 DUP4 ADD SWAP1 DUP4 ADD PUSH2 0x1EB JUMP JUMPDEST PUSH1 0x0 DUP1 REVERT JUMPDEST CALLVALUE PUSH2 0x208 JUMPI PUSH1 0x60 CALLDATASIZE PUSH1 0x3 NOT ADD SLT PUSH2 0x208 JUMPI PUSH1 0x24 CALLDATALOAD PUSH8 0xFFFFFFFFFFFFFFFF DUP2 GT PUSH2 0x208 JUMPI PUSH2 0x23E SWAP1 CALLDATASIZE SWAP1 PUSH1 0x4 ADD PUSH2 0x1AD JUMP JUMPDEST PUSH1 0x44 CALLDATALOAD DUP2 MLOAD PUSH1 0x0 SWAP3 JUMPDEST DUP2 DUP5 LT PUSH2 0x25D JUMPI PUSH1 0x40 MLOAD PUSH1 0x4 CALLDATALOAD DUP5 EQ DUP2 MSTORE PUSH1 0x20 SWAP1 RETURN JUMPDEST SWAP1 SWAP2 PUSH2 0x276 PUSH1 0x1 SWAP2 PUSH2 0x26F DUP7 DUP6 PUSH2 0x47D JUMP JUMPDEST MLOAD SWAP1 PUSH2 0x437 JUMP JUMPDEST SWAP4 ADD SWAP3 SWAP2 SWAP1 PUSH2 0x247 JUMP JUMPDEST PUSH1 0x20 SWAP1 DUP2 PUSH1 0x40 DUP2 DUP4 ADD SWAP3 DUP3 DUP2 MSTORE DUP6 MLOAD DUP1 SWAP5 MSTORE ADD SWAP4 ADD SWAP2 PUSH1 0x0 JUMPDEST DUP3 DUP2 LT PUSH2 0x2A7 JUMPI POP POP POP POP SWAP1 JUMP JUMPDEST DUP4 MLOAD DUP6 MSTORE SWAP4 DUP2 ADD SWAP4 SWAP3 DUP2 ADD SWAP3 PUSH1 0x1 ADD PUSH2 0x299 JUMP JUMPDEST CALLVALUE PUSH2 0x208 JUMPI PUSH1 0x40 CALLDATASIZE PUSH1 0x3 NOT ADD SLT PUSH2 0x208 JUMPI PUSH1 0x4 CALLDATALOAD PUSH8 0xFFFFFFFFFFFFFFFF DUP2 GT PUSH2 0x208 JUMPI PUSH2 0x2EC SWAP1 CALLDATASIZE SWAP1 PUSH1 0x4 ADD PUSH2 0x1AD JUMP JUMPDEST PUSH1 0x24 CALLDATALOAD SWAP1 PUSH1 0x1 SWAP1 PUSH2 0x2FF DUP3 DUP3 MLOAD GT PUSH2 0x491 JUMP JUMPDEST PUSH2 0x311 PUSH2 0x30C DUP3 MLOAD PUSH2 0x632 JUMP JUMPDEST PUSH2 0x4E9 JUMP JUMPDEST SWAP3 PUSH1 0x0 DUP1 DUP5 JUMPDEST PUSH2 0x32A JUMPI JUMPDEST PUSH1 0x40 MLOAD DUP1 PUSH2 0xDA DUP9 DUP3 PUSH2 0x280 JUMP JUMPDEST DUP4 MLOAD DUP6 DUP2 GT ISZERO PUSH2 0x3AA JUMPI DUP6 DUP5 SWAP4 SWAP3 PUSH2 0x36F SWAP3 DUP3 DUP1 DUP1 SWAP9 AND EQ PUSH1 0x0 EQ PUSH2 0x379 JUMPI POP PUSH2 0x358 PUSH1 0x0 NOT DUP7 ADD DUP9 PUSH2 0x47D JUMP JUMPDEST MLOAD PUSH2 0x363 DUP3 DUP12 PUSH2 0x47D JUMP JUMPDEST MSTORE JUMPDEST ADD SWAP3 DUP5 SHR SWAP5 PUSH2 0x511 JUMP JUMPDEST SWAP4 SWAP3 SWAP2 SWAP1 SWAP2 PUSH2 0x317 JUMP JUMPDEST DUP6 DUP4 ADD SWAP1 DUP2 SUB PUSH2 0x395 JUMPI POP DUP4 PUSH2 0x38F DUP3 DUP12 PUSH2 0x47D JUMP JUMPDEST MSTORE PUSH2 0x365 JUMP JUMPDEST PUSH2 0x39F SWAP1 DUP9 PUSH2 0x47D JUMP JUMPDEST MLOAD PUSH2 0x38F DUP3 DUP12 PUSH2 0x47D JUMP JUMPDEST POP PUSH2 0x31C JUMP JUMPDEST CALLVALUE PUSH2 0x208 JUMPI PUSH1 0x20 CALLDATASIZE PUSH1 0x3 NOT ADD SLT PUSH2 0x208 JUMPI PUSH1 0x20 PUSH2 0x3CE PUSH1 0x4 CALLDATALOAD PUSH2 0x632 JUMP JUMPDEST PUSH1 0x40 MLOAD SWAP1 DUP2 MSTORE RETURN JUMPDEST CALLVALUE PUSH2 0x208 JUMPI PUSH1 0x40 CALLDATASIZE PUSH1 0x3 NOT ADD SLT PUSH2 0x208 JUMPI PUSH1 0x20 PUSH2 0x3CE PUSH1 0x24 CALLDATALOAD PUSH1 0x4 CALLDATALOAD PUSH2 0x437 JUMP JUMPDEST CALLVALUE PUSH2 0x208 JUMPI PUSH1 0x20 CALLDATASIZE PUSH1 0x3 NOT ADD SLT PUSH2 0x208 JUMPI PUSH1 0x4 CALLDATALOAD DUP1 PUSH1 0x0 DUP2 JUMPDEST PUSH2 0x42A JUMPI PUSH1 0x20 SWAP3 POP PUSH1 0x40 MLOAD SWAP2 DUP1 PUSH1 0x1 DUP2 NOT ADD AND EQ SWAP1 SUB DUP2 MSTORE RETURN JUMPDEST PUSH1 0x1 SWAP3 DUP4 SHR SWAP3 ADD DUP3 PUSH2 0x410 JUMP JUMPDEST DUP2 DUP2 LT ISZERO PUSH2 0x44E JUMPI PUSH1 0x0 MSTORE PUSH1 0x20 MSTORE JUMPDEST PUSH1 0x40 PUSH1 0x0 KECCAK256 SWAP1 JUMP JUMPDEST SWAP1 PUSH1 0x0 MSTORE PUSH1 0x20 MSTORE PUSH2 0x446 JUMP JUMPDEST DUP1 MLOAD ISZERO PUSH2 0x467 JUMPI PUSH1 0x20 ADD SWAP1 JUMP JUMPDEST PUSH4 0x4E487B71 PUSH1 0xE0 SHL PUSH1 0x0 MSTORE PUSH1 0x32 PUSH1 0x4 MSTORE PUSH1 0x24 PUSH1 0x0 REVERT JUMPDEST DUP1 MLOAD DUP3 LT ISZERO PUSH2 0x467 JUMPI PUSH1 0x20 SWAP2 PUSH1 0x5 SHL ADD ADD SWAP1 JUMP JUMPDEST ISZERO PUSH2 0x498 JUMPI JUMP JUMPDEST PUSH1 0x40 MLOAD PUSH3 0x461BCD PUSH1 0xE5 SHL DUP2 MSTORE PUSH1 0x20 PUSH1 0x4 DUP3 ADD MSTORE PUSH1 0x24 DUP1 DUP3 ADD MSTORE PUSH32 0x776F6E27742067656E65726174652070726F6F6620666F722073696E676C6520 PUSH1 0x44 DUP3 ADD MSTORE PUSH4 0x3632B0B3 PUSH1 0xE1 SHL PUSH1 0x64 DUP3 ADD MSTORE PUSH1 0x84 SWAP1 REVERT JUMPDEST SWAP1 PUSH2 0x4F6 PUSH2 0x1C8 DUP4 PUSH2 0x195 JUMP JUMPDEST DUP3 DUP2 MSTORE DUP1 SWAP3 PUSH2 0x507 PUSH1 0x1F NOT SWAP2 PUSH2 0x195 JUMP JUMPDEST ADD SWAP1 PUSH1 0x20 CALLDATASIZE SWAP2 ADD CALLDATACOPY JUMP JUMPDEST SWAP1 DUP2 MLOAD PUSH1 0x1 SWAP1 DUP2 DUP1 DUP3 AND EQ PUSH1 0x0 EQ PUSH2 0x5A9 JUMPI PUSH2 0x530 DUP3 DUP3 DUP2 SHR ADD PUSH2 0x4E9 JUMP JUMPDEST SWAP2 PUSH1 0x0 NOT PUSH2 0x540 DUP4 DUP3 ADD DUP8 PUSH2 0x47D JUMP JUMPDEST MLOAD PUSH1 0x0 DUP1 MSTORE PUSH1 0x20 MSTORE PUSH2 0x55A PUSH1 0x40 PUSH1 0x0 KECCAK256 SWAP2 DUP6 MLOAD ADD DUP6 PUSH2 0x47D JUMP JUMPDEST MSTORE JUMPDEST PUSH1 0x0 NOT SWAP1 SWAP2 ADD SWAP1 PUSH1 0x0 DUP1 JUMPDEST DUP4 DUP3 LT PUSH2 0x577 JUMPI POP SWAP3 SWAP5 POP POP POP POP JUMP JUMPDEST DUP3 PUSH1 0x2 SWAP2 PUSH2 0x595 PUSH2 0x588 DUP6 DUP12 PUSH2 0x47D JUMP JUMPDEST MLOAD PUSH2 0x26F DUP5 DUP8 ADD DUP13 PUSH2 0x47D JUMP JUMPDEST PUSH2 0x59F DUP3 DUP10 PUSH2 0x47D JUMP JUMPDEST MSTORE ADD SWAP2 ADD SWAP1 PUSH2 0x567 JUMP JUMPDEST PUSH2 0x5B4 DUP2 DUP4 SHR PUSH2 0x4E9 JUMP JUMPDEST SWAP2 PUSH2 0x55C JUMP JUMPDEST SWAP1 PUSH1 0x40 DUP3 ADD DUP1 SWAP3 GT PUSH2 0x5C8 JUMPI JUMP JUMPDEST PUSH4 0x4E487B71 PUSH1 0xE0 SHL PUSH1 0x0 MSTORE PUSH1 0x11 PUSH1 0x4 MSTORE PUSH1 0x24 PUSH1 0x0 REVERT JUMPDEST SWAP1 PUSH1 0x20 DUP3 ADD DUP1 SWAP3 GT PUSH2 0x5C8 JUMPI JUMP JUMPDEST SWAP1 PUSH1 0x10 DUP3 ADD DUP1 SWAP3 GT PUSH2 0x5C8 JUMPI JUMP JUMPDEST SWAP1 PUSH1 0x8 DUP3 ADD DUP1 SWAP3 GT PUSH2 0x5C8 JUMPI JUMP JUMPDEST SWAP1 PUSH1 0x4 DUP3 ADD DUP1 SWAP3 GT PUSH2 0x5C8 JUMPI JUMP JUMPDEST SWAP1 PUSH1 0x2 DUP3 ADD DUP1 SWAP3 GT PUSH2 0x5C8 JUMPI JUMP JUMPDEST SWAP1 PUSH1 0x1 DUP3 ADD DUP1 SWAP3 GT PUSH2 0x5C8 JUMPI JUMP JUMPDEST PUSH1 0x1 DUP2 GT ISZERO PUSH2 0x758 JUMPI PUSH1 0x0 SWAP1 DUP1 PUSH1 0x1 PUSH1 0x80 SHL DUP2 LT ISZERO PUSH2 0x74D JUMPI JUMPDEST PUSH1 0x2 SWAP1 PUSH1 0x1 PUSH1 0x40 SHL DUP2 LT ISZERO PUSH2 0x73A JUMPI JUMPDEST PUSH5 0x100000000 DUP2 LT ISZERO PUSH2 0x727 JUMPI JUMPDEST PUSH3 0x10000 DUP2 LT ISZERO PUSH2 0x714 JUMPI JUMPDEST PUSH2 0x100 DUP2 LT ISZERO PUSH2 0x701 JUMPI JUMPDEST PUSH1 0x10 DUP2 LT ISZERO PUSH2 0x6EE JUMPI JUMPDEST PUSH1 0x4 DUP2 LT ISZERO PUSH2 0x6DC JUMPI JUMPDEST LT ISZERO PUSH2 0x6CC JUMPI JUMPDEST DUP1 PUSH2 0x6A7 DUP2 NOT PUSH2 0x624 JUMP JUMPDEST AND EQ DUP1 PUSH2 0x6C3 JUMPI JUMPDEST ISZERO PUSH2 0x6B7 JUMPI SWAP1 JUMP JUMPDEST PUSH2 0x6C0 SWAP1 PUSH2 0x624 JUMP JUMPDEST SWAP1 JUMP JUMPDEST POP DUP1 ISZERO ISZERO PUSH2 0x6AF JUMP JUMPDEST SWAP1 PUSH2 0x6D6 SWAP1 PUSH2 0x624 JUMP JUMPDEST SWAP1 PUSH2 0x69C JUMP JUMPDEST PUSH2 0x6E8 SWAP1 DUP3 SHR SWAP4 PUSH2 0x616 JUMP JUMPDEST SWAP3 PUSH2 0x695 JUMP JUMPDEST PUSH2 0x6FB SWAP1 PUSH1 0x4 SHR SWAP4 PUSH2 0x608 JUMP JUMPDEST SWAP3 PUSH2 0x68B JUMP JUMPDEST PUSH2 0x70E SWAP1 PUSH1 0x8 SHR SWAP4 PUSH2 0x5FA JUMP JUMPDEST SWAP3 PUSH2 0x681 JUMP JUMPDEST PUSH2 0x721 SWAP1 PUSH1 0x10 SHR SWAP4 PUSH2 0x5EC JUMP JUMPDEST SWAP3 PUSH2 0x676 JUMP JUMPDEST PUSH2 0x734 SWAP1 PUSH1 0x20 SHR SWAP4 PUSH2 0x5DE JUMP JUMPDEST SWAP3 PUSH2 0x66A JUMP JUMPDEST PUSH2 0x747 SWAP1 PUSH1 0x40 SHR SWAP4 PUSH2 0x5BA JUMP JUMPDEST SWAP3 PUSH2 0x65C JUMP JUMPDEST PUSH1 0x80 SWAP3 POP DUP3 SHR PUSH2 0x64C JUMP JUMPDEST POP PUSH1 0x0 SWAP1 JUMP INVALID LOG2 PUSH5 0x6970667358 0x22 SLT KECCAK256 0x29 MSIZE PUSH14 0xB90313B4FB257EFD2FBF9BA954B5 LOG2 SDIV 0x4B RETURN DIV LOG0 0xAA ISZERO CREATE2 0xE7 DUP5 CODECOPY 0xE1 0x2F NUMBER PUSH5 0x736F6C6343 STOP ADDMOD EQ STOP CALLER "},"methodIdentifiers":{"ARTISTIC_PERIOD()":"3323a706","AUCTION_DURATION()":"a271e525","CYCLE_PERIOD()":"113bc999","VOTING_PERIOD()":"b1610d7e","balanceOf(address)":"70a08231","buyPixel(uint256[],uint256[])":"6ed958f1","calculateRoyalties(uint256,uint256)":"d08629c1","canvasCreation()":"ff188dca","castVote(bool)":"7ace48e7","checkMultiplePixel(uint256[],uint256[])":"c7eab2ec","checkPixel(uint256,uint256)":"040cdfd8","checkVoteOutcome(uint256)":"5c8c6407","closeAuction(uint256)":"236ed8f3","fillPixel(bytes[])":"3bdb693e","generateMerkle()":"a52f27b5","generateSVG()":"ad711e9e","getBalance(address)":"f8b2cb4f","getCurrentCycle()":"be26ed7f","getMintDate(uint256)":"bc5bc2fb","hasVoted(address)":"09eef43e","isInArtisticPeriod()":"4882a7ea","isInVotingPeriod()":"b3a1ddf4","manager()":"481c6a75","maxHeight()":"63aa5ce2","maxWidth()":"6006ecc8","mintDates(uint256)":"c4323fc1","nftAuctions(uint256)":"93cde51a","nftContract()":"d56d229d","payRoyalties(uint256[],uint256[])":"e50eb5da","pixelSVGs(uint256)":"c4e4b90c","placeBid(uint256)":"9979ef45","rowSVGs(uint256)":"e1245900","royaltyAskPeriod()":"6e70fcc6","royaltyDenominator()":"fd8d7ed3","royaltyRate()":"c4d1510d","seekRoyaltyPayment(uint256,uint256,uint256)":"85a9473d","setNFTContract(address)":"a7ccabdf","setPixelValue(uint256[],uint256[],uint256[])":"8232b562","updateCurrency(address)":"5e027601","voteRegister(uint256)":"30b5d6d3","window(uint256,uint256)":"c730e65d"}}}}}