{"contracts/Pixelmap.sol":{"Pixelmap":{"abi":[{"inputs":[],"stateMutability":"nonpayable","type":"constructor"},{"anonymous":false,"inputs":[{"indexed":false,"internalType":"uint256","name":"cycle","type":"uint256"}],"name":"NFTMinted","type":"event"},{"anonymous":false,"inputs":[{"indexed":true,"internalType":"uint256","name":"x","type":"uint256"},{"indexed":true,"internalType":"uint256","name":"y","type":"uint256"}],"name":"PixelBought","type":"event"},{"anonymous":false,"inputs":[{"indexed":true,"internalType":"uint256","name":"x","type":"uint256"},{"indexed":true,"internalType":"uint256","name":"y","type":"uint256"}],"name":"PixelFilled","type":"event"},{"anonymous":false,"inputs":[{"indexed":true,"internalType":"uint256","name":"x","type":"uint256"},{"indexed":true,"internalType":"uint256","name":"y","type":"uint256"}],"name":"PixelValueSet","type":"event"},{"anonymous":false,"inputs":[{"indexed":true,"internalType":"uint256","name":"x","type":"uint256"},{"indexed":true,"internalType":"uint256","name":"y","type":"uint256"}],"name":"RoyaltiesPaid","type":"event"},{"anonymous":false,"inputs":[{"indexed":true,"internalType":"address","name":"owner","type":"address"}],"name":"VoteCasted","type":"event"},{"inputs":[],"name":"ARTISTIC_PERIOD","outputs":[{"internalType":"uint256","name":"","type":"uint256"}],"stateMutability":"view","type":"function"},{"inputs":[],"name":"CYCLE_PERIOD","outputs":[{"internalType":"uint256","name":"","type":"uint256"}],"stateMutability":"view","type":"function"},{"inputs":[],"name":"VOTING_PERIOD","outputs":[{"internalType":"uint256","name":"","type":"uint256"}],"stateMutability":"view","type":"function"},{"inputs":[{"internalType":"address","name":"","type":"address"}],"name":"balanceOf","outputs":[{"internalType":"uint256","name":"","type":"uint256"}],"stateMutability":"view","type":"function"},{"inputs":[{"internalType":"uint256[]","name":"xValues","type":"uint256[]"},{"internalType":"uint256[]","name":"yValues","type":"uint256[]"}],"name":"buyPixel","outputs":[],"stateMutability":"nonpayable","type":"function"},{"inputs":[{"internalType":"uint256","name":"x","type":"uint256"},{"internalType":"uint256","name":"y","type":"uint256"}],"name":"calculateRoyalties","outputs":[{"internalType":"uint256","name":"","type":"uint256"}],"stateMutability":"view","type":"function"},{"inputs":[],"name":"canvasCreation","outputs":[{"internalType":"uint256","name":"","type":"uint256"}],"stateMutability":"view","type":"function"},{"inputs":[{"internalType":"bool","name":"vote","type":"bool"}],"name":"castVote","outputs":[],"stateMutability":"nonpayable","type":"function"},{"inputs":[{"internalType":"uint256[]","name":"xValues","type":"uint256[]"},{"internalType":"uint256[]","name":"yValues","type":"uint256[]"}],"name":"checkMultiplePixel","outputs":[{"components":[{"internalType":"address","name":"owner","type":"address"},{"internalType":"uint256","name":"shapeID","type":"uint256"},{"internalType":"uint256","name":"price","type":"uint256"},{"internalType":"string","name":"color","type":"string"},{"internalType":"uint256","name":"royaltyLastPaid","type":"uint256"},{"internalType":"bool","name":"askedToPayRoyalties","type":"bool"},{"internalType":"uint256","name":"royaltyAskDate","type":"uint256"}],"internalType":"struct Pixelmap.Pixel[]","name":"","type":"tuple[]"}],"stateMutability":"view","type":"function"},{"inputs":[{"internalType":"uint256","name":"x","type":"uint256"},{"internalType":"uint256","name":"y","type":"uint256"}],"name":"checkPixel","outputs":[{"components":[{"internalType":"address","name":"owner","type":"address"},{"internalType":"uint256","name":"shapeID","type":"uint256"},{"internalType":"uint256","name":"price","type":"uint256"},{"internalType":"string","name":"color","type":"string"},{"internalType":"uint256","name":"royaltyLastPaid","type":"uint256"},{"internalType":"bool","name":"askedToPayRoyalties","type":"bool"},{"internalType":"uint256","name":"royaltyAskDate","type":"uint256"}],"internalType":"struct Pixelmap.Pixel","name":"","type":"tuple"}],"stateMutability":"view","type":"function"},{"inputs":[{"internalType":"uint256","name":"_cycle","type":"uint256"}],"name":"checkVoteOutcome","outputs":[],"stateMutability":"nonpayable","type":"function"},{"inputs":[{"internalType":"bytes[]","name":"_pixels","type":"bytes[]"}],"name":"fillPixel","outputs":[],"stateMutability":"nonpayable","type":"function"},{"inputs":[],"name":"generateSVG","outputs":[{"internalType":"string","name":"","type":"string"}],"stateMutability":"view","type":"function"},{"inputs":[{"internalType":"address","name":"_owner","type":"address"}],"name":"getBalance","outputs":[{"internalType":"uint256","name":"","type":"uint256"}],"stateMutability":"view","type":"function"},{"inputs":[],"name":"getCurrentCycle","outputs":[{"internalType":"uint256","name":"","type":"uint256"}],"stateMutability":"view","type":"function"},{"inputs":[{"internalType":"uint256","name":"_tokenID","type":"uint256"}],"name":"getMintDate","outputs":[{"internalType":"uint256","name":"","type":"uint256"}],"stateMutability":"view","type":"function"},{"inputs":[],"name":"getRowSVG","outputs":[{"internalType":"string[64]","name":"","type":"string[64]"}],"stateMutability":"view","type":"function"},{"inputs":[{"internalType":"address","name":"_owner","type":"address"}],"name":"hasVoted","outputs":[{"internalType":"bool","name":"","type":"bool"}],"stateMutability":"view","type":"function"},{"inputs":[],"name":"isInArtisticPeriod","outputs":[{"internalType":"bool","name":"","type":"bool"}],"stateMutability":"view","type":"function"},{"inputs":[],"name":"isInVotingPeriod","outputs":[{"internalType":"bool","name":"","type":"bool"}],"stateMutability":"view","type":"function"},{"inputs":[],"name":"manager","outputs":[{"internalType":"address","name":"","type":"address"}],"stateMutability":"view","type":"function"},{"inputs":[],"name":"maxHeight","outputs":[{"internalType":"uint256","name":"","type":"uint256"}],"stateMutability":"view","type":"function"},{"inputs":[],"name":"maxWidth","outputs":[{"internalType":"uint256","name":"","type":"uint256"}],"stateMutability":"view","type":"function"},{"inputs":[{"internalType":"uint256","name":"","type":"uint256"}],"name":"mintDates","outputs":[{"internalType":"uint256","name":"","type":"uint256"}],"stateMutability":"view","type":"function"},{"inputs":[],"name":"nftContract","outputs":[{"internalType":"contract CanvasCollection","name":"","type":"address"}],"stateMutability":"view","type":"function"},{"inputs":[{"internalType":"uint256[]","name":"xValues","type":"uint256[]"},{"internalType":"uint256[]","name":"yValues","type":"uint256[]"}],"name":"payRoyalties","outputs":[],"stateMutability":"nonpayable","type":"function"},{"inputs":[{"internalType":"uint256","name":"","type":"uint256"}],"name":"pixelSVGs","outputs":[{"internalType":"string","name":"","type":"string"}],"stateMutability":"view","type":"function"},{"inputs":[{"internalType":"uint256","name":"","type":"uint256"}],"name":"rowSVGs","outputs":[{"internalType":"string","name":"","type":"string"}],"stateMutability":"view","type":"function"},{"inputs":[],"name":"royaltyAskPeriod","outputs":[{"internalType":"uint256","name":"","type":"uint256"}],"stateMutability":"view","type":"function"},{"inputs":[],"name":"royaltyDenominator","outputs":[{"internalType":"uint256","name":"","type":"uint256"}],"stateMutability":"view","type":"function"},{"inputs":[],"name":"royaltyRate","outputs":[{"internalType":"uint256","name":"","type":"uint256"}],"stateMutability":"view","type":"function"},{"inputs":[{"internalType":"uint256","name":"x","type":"uint256"},{"internalType":"uint256","name":"y","type":"uint256"},{"internalType":"uint256","name":"_price","type":"uint256"}],"name":"seekRoyaltyPayment","outputs":[],"stateMutability":"nonpayable","type":"function"},{"inputs":[{"internalType":"address","name":"_nftContract","type":"address"}],"name":"setNFTContract","outputs":[],"stateMutability":"nonpayable","type":"function"},{"inputs":[{"internalType":"uint256[]","name":"xValues","type":"uint256[]"},{"internalType":"uint256[]","name":"yValues","type":"uint256[]"},{"internalType":"uint256[]","name":"priceValues","type":"uint256[]"}],"name":"setPixelValue","outputs":[],"stateMutability":"nonpayable","type":"function"},{"inputs":[{"internalType":"address","name":"_newToken","type":"address"}],"name":"updateCurrency","outputs":[],"stateMutability":"nonpayable","type":"function"},{"inputs":[{"internalType":"uint256","name":"","type":"uint256"}],"name":"voteRegister","outputs":[{"internalType":"uint256","name":"yesVotes","type":"uint256"},{"internalType":"uint256","name":"noVotes","type":"uint256"}],"stateMutability":"view","type":"function"},{"inputs":[{"internalType":"uint256","name":"","type":"uint256"},{"internalType":"uint256","name":"","type":"uint256"}],"name":"window","outputs":[{"internalType":"address","name":"owner","type":"address"},{"internalType":"uint256","name":"shapeID","type":"uint256"},{"internalType":"uint256","name":"price","type":"uint256"},{"internalType":"string","name":"color","type":"string"},{"internalType":"uint256","name":"royaltyLastPaid","type":"uint256"},{"internalType":"bool","name":"askedToPayRoyalties","type":"bool"},{"internalType":"uint256","name":"royaltyAskDate","type":"uint256"}],"stateMutability":"view","type":"function"}],"evm":{"bytecode":{"linkReferences":{},"object":"6080806040523461004f57603260025560018060a01b031973c02aaa39b223fe8d0a0e5c4f27ead9083c756cc2816004541617600455339060015416176001554260035561336790816100558239f35b600080fdfe6080604052600436101561001257600080fd5b6000803560e01c8063040cdfd814611df957806309eef43e14611d9a578063113bc99914611d7c57806330b5d6d314611d475780633323a7061461150b5780633bdb693e146117f5578063481c6a75146117cc5780634882a7ea1461179b5780635c8c6407146115635780635e027601146115155780636006ecc81461151057806363aa5ce2146115105780636e70fcc61461150b5780636ed958f114610d8457806370a08231146102e05780637ace48e714610b8e5780638232b5621461091157806385a9473d146107f3578063a7ccabdf146107a6578063ad711e9e14610664578063b1610d7e14610646578063b3a1ddf414610614578063bc5bc2fb146105bd578063be26ed7f146105e8578063c4323fc1146105bd578063c4d1510d1461059f578063c4e4b90c14610570578063c730e65d146104da578063c7eab2ec146103cd578063d08629c1146103ab578063d56d229d14610384578063e12459001461033d578063e50eb5da14610322578063f8b2cb4f146102e0578063fd8d7ed3146102c3578063ff188dca146102a55763ff397c6a146101b457600080fd5b346102a257806003193601126102a257604051610800906001600160401b03908281018281118282101761027e57604052835b8381106102945750506040519182019081118282101761027e5760405261100682825b60408210610261575050506040519060209283830184845261082084019291945b604086106102395784840385f35b9091928180610254600193601f198982030187528751611e61565b950193019501949061022b565b600160208192610270866120a6565b81520193019101909161020a565b634e487b7160e01b600052604160045260246000fd5b6060828201526020016101e7565b80fd5b50346102a257806003193601126102a2576020600354604051908152f35b50346102a257806003193601126102a25760206040516103e88152f35b50346102a25760203660031901126102a2576004356001600160a01b0381169081900361031e57816040916020935261104683522054604051908152f35b5080fd5b50346102a25761033a61033436612026565b90612372565b80f35b50346102a25760203660031901126102a2576004359060408210156102a25761038061036c83611006016120a6565b604051918291602083526020830190611e61565b0390f35b50346102a257806003193601126102a257546040516001600160a01b039091168152602090f35b50346102a25760206103c56103bf36611e28565b90612a06565b604051908152f35b50346102a2576103dc36612026565b6103e982518251146122d8565b8151906103f582611f7a565b926104036040519485611f59565b828452601f1961041284611f7a565b01855b8181106104c3575050845b8381106104855760408051602080825287518183018190528993600582901b8401810192808b01929185015b8287106104595785850386f35b909192938280610475600193603f198a82030186528851611e86565b960192019601959291909261044c565b806104a76104956001938561215b565b516104a0838761215b565b519061292f565b6104b1828861215b565b526104bc818761215b565b5001610420565b6020906104ce6128f7565b82828901015201610415565b50346102a2576040906104ec36611e28565b90825260056020528282209082526020522060018060a01b03815416600182015491600281015461051f600383016120a6565b9161055a600482015493600660ff6005850154169301549360405197889788526020880152604087015260e0606087015260e0860190611e61565b926080850152151560a084015260c08301520390f35b50346102a25760203660031901126102a257600435906110008210156102a25761038061036c836006016120a6565b50346102a257806003193601126102a2576020600254604051908152f35b50346102a25760203660031901126102a2576040602091600435815261104883522054604051908152f35b50346102a257806003193601126102a25760206205460061060b60035442612889565b04604051908152f35b50346102a257806003193601126102a25760206203f4806205460061063b60035442612889565b061015604051908152f35b50346102a257806003193601126102a2576020604051620151808152f35b50346102a257806003193601126102a257604051608081018181106001600160401b0382111761027e57604052605781526020907f3c7376672077696474683d2236303022206865696768743d2236303022207669828201527f6577426f783d2230203020363030203630302220786d6c6e733d22687474703a6040820152761797bbbbbb973b999737b933979918181817b9bb33911f60491b6060820152915b6040811061075c575061074860266040518461072a8296518092878086019101611e3e565b8101651e17b9bb339f60d11b85820152036006810185520183611f59565b610380604051928284938452830190611e61565b918161079b6107a19261078d60405193826107808694518092848088019101611e3e565b83010187611006016131c0565b03601f198101835282611f59565b9261214c565b610705565b50346102a25760203660031901126102a2576004356001600160a01b03818116918290036107ef576107dd90600154163314612896565b81546001600160a01b03191617815580f35b8280fd5b50346102a25760603660031901126102a2576004356024359061082160018060a01b03600154163314612896565b808352600560209181835260408520848652835260ff8260408720015416806108d1575b1561089957808552818352604085208486528352604435600260408720015580855281835260408520848652835281604086200160ff19815416905584528152604083209183525280600660408220015580f35b808552818352604085208486528352816040862001600160ff1982541617905584528152604083209183525242600660408320015580f35b5080855281835260408520848652835260066040862001546203f48081018091116108fd574211610845565b634e487b7160e01b86526011600452602486fd5b50346102a25760603660031901126102a2576001600160401b036004358181116107ef57610943903690600401611fc8565b6024908135838111610b8a5761095d903690600401611fc8565b916044938435908111610b8657610978903690600401611fc8565b908251845181149081610b7b575b5015610b2857825194865b868110610a2f575050506109a58383612372565b845b8481106109b2578580f35b806109bf6001928461215b565b516109ca828661215b565b51885260206005815260408920906109e2848961215b565b518a525260026040892001556109f8818561215b565b51610a03828761215b565b51907f1c362b7fc7c4865e1e7ede89f240549bbd8b5ee43b51383c9c0392687d6d10ec8980a3016109a7565b610a39818661215b565b516040610a46838961215b565b51911090811591610b1c575b50610ade57610a61818661215b565b51885260206005815260408920610a78838961215b565b518a5281526040892054336001600160a01b0390911603610a9c5750600101610991565b6064907f6f6e6c79206f776e65722063616e2073657420706978656c2076616c7565000084601e876040519462461bcd60e51b86526004860152840152820152fd5b60405162461bcd60e51b815260206004820152601881850152774120706978656c206973206f7574206f6620626f756e647360401b81840152606490fd5b60409150101538610a52565b6084907f696e70757420617272617973206d757374206265206f66207468652073616d658660276040519362461bcd60e51b85526020600486015284015282015266040d8cadccee8d60cb1b6064820152fd5b905082511438610986565b8580fd5b8480fd5b50346102a25760208060031936011261031e5760043580151581036107ef5760035462054600906203f48082610bc48342612889565b0610610d435733855261104684526040852054908115610cee5782610be98242612889565b048652611047938486526002604088200133600052865260ff60406000205416610cb95783919015610c905750610c2260035442612889565b048552828452610c3760408620918254611ee2565b90555b610c4660035442612889565b0483528152600260408320019033600052526040600020600160ff19825416179055337f7ce969a18bb6b0fba42c6d9746e7d08eeca4c661809659c91d276456e3153ac08280a280f35b610c9a9042612889565b048552828452610cb260016040872001918254611ee2565b9055610c3a565b60405162461bcd60e51b815260048101879052600d60248201526c185b1c9958591e481d9bdd1959609a1b6044820152606490fd5b60405162461bcd60e51b815260048101869052602760248201527f6e6f20706978656c73206f776e6564203d206e6f20766f74657320746f2062656044820152660818d85cdd195960ca1b6064820152608490fd5b60405162461bcd60e51b81526004810185905260196024820152782b37ba34b7339031bab93932b73a363c903737ba1037b832b760391b6044820152606490fd5b50346102a257610d9336612026565b610da082518251146122d8565b815190835b828110610db0578480f35b610dba818561215b565b516040610dc7838561215b565b519110908115916114ff575b506114e257610de2818561215b565b518552600560209080825260408720610dfb848661215b565b518852825260408720546001600160a01b03908116610ebf57509061104691610e24848861215b565b518852815260408720610e37848661215b565b5188528152604087203360018060a01b0319825416179055338752526040852080549060018201809211610eab57556001905b610e74818661215b565b51610e7f828561215b565b51907fee0e9a85d097f632450e6ac08750207c8f039246ee437b10eaf708b397d00ad88880a301610da5565b634e487b7160e01b87526011600452602487fd5b610ede610ecc858961215b565b51610ed7868861215b565b5190612a06565b90610ee9858961215b565b51895282845260408920610efd868861215b565b518a52845281600260408b2001541160001461128857610f1d858961215b565b51895282845260408920610f31868861215b565b518a52845288610f48836002604084200154612889565b9282600454166040516370a0823160e01b81523360048201528781602481855afa908115611245578c8a918693611250575b50610fb09291610f899161215b565b51855287895260408520610f9d8b8d61215b565b51865289526002604086200154106127d9565b604051636eb1769f60e11b8152336004820152306024820152908782604481845afa8015611245578c8a918c8b958892611203575b5091611026849261102b94610ffe61106b98978561215b565b518b528d89526110128560408d209261215b565b518b528852600260408b2001541115612831565b61215b565b5185528783526040852061103f8b8d61215b565b518652835285604086205416966040519586809481936323b872dd60e01b9b8c84523360048501612350565b03925af19081156111f8576110a69287926111db575b5083600454166001958d86885416916040519687958694859384523360048501612350565b03925af180156111d0576111a3575b506110c0858961215b565b518952828452604089206110d4868861215b565b518a528452604089205416885261104680845260408920805490600019820191821161118f5755338952835260408820805491820180921161117b57556001929190611120838861215b565b51885280825260408820611134848761215b565b51895282526040882033858060a01b0319825416179055611155838861215b565b51885281526040872090611169838661215b565b51885252426004604088200155610e6a565b634e487b7160e01b89526011600452602489fd5b634e487b7160e01b8b52601160045260248bfd5b6111c290853d87116111c9575b6111ba8183611f59565b810190612338565b50386110b5565b503d6111b0565b6040513d8c823e3d90fd5b6111f190833d85116111c9576111ba8183611f59565b5038611081565b6040513d8d823e3d90fd5b9750505050509083813d831161123e575b61121e8183611f59565b810103126112395791518b92879189908d908c611026610fe5565b600080fd5b503d611214565b6040513d86823e3d90fd5b95505050508683813d8311611281575b61126a8183611f59565b810103126112395791518b9290888c610f89610f7a565b503d611260565b809897969594939291506004541697604051986370a0823160e01b8a523360048b015260249984818c81855afa80156111d0578a906114b3575b6112f891506112d1878b61215b565b518b5284865260408b206112e5888a61215b565b518c528652600260408c200154106127d9565b604051636eb1769f60e11b81523360048201523060248201528481604481855afa9081156111d0578a939286928b92869161147a575b509061136b83926113438b6113ba979661215b565b518852888552604088206113578c8e61215b565b518952855260026040892001541115612831565b600260406001976113808c898b54169661215b565b5181528986528181206113938d8f61215b565b5182528652200154918d6040518096819582946323b872dd60e01b84523360048501612350565b03925af180156111d05761145d575b506113d4858961215b565b518952828452604089206113e8868861215b565b518a528452604089205416885261104680845260408920805490600019820191821161144a5755338952835260408820805491820180921161143757600195969798995055611120838861215b565b634e487b7160e01b895260116004528989fd5b634e487b7160e01b8b5260116004528b8bfd5b61147390853d87116111c9576111ba8183611f59565b50386113c9565b93925050935081813d83116114ac575b6114948183611f59565b810103126112395751899285918a919061136b61132e565b503d61148a565b508481813d83116114db575b6114c98183611f59565b81010312611239576112f890516112c2565b503d6114bf565b60405162461bcd60e51b8152806114fb60048201612185565b0390fd5b60409150101538610dd3565b611f05565b611fac565b50346102a25760203660031901126102a2576004356001600160a01b03818116918290036107ef5761154c90600154163314612896565b600480546001600160a01b03191691909117905580f35b50346102a257602090816003193601126102a257600435916205460061158b60035442612889565b04831015611738578282526110478082526115b0604084206001815491015490611ee2565b90811561170357848452825260408320549060011c106115ce575080f35b81546001546001600160a01b0394918516908516813b15610b8a5784916024839260405194859384926335313c2160e11b845260048401525af18015611245576116d2575b5081600494845416604051958680926318160ddd60e01b82525afa9384156116c7578394611698575b5060001984019384116116845782937fd9dc24857f317ed9abbbb42e920ede0104231eb1d3d70236a74887ffaf15986893526110488252426040852055604051908152a18080f35b634e487b7160e01b83526011600452602483fd5b9093508181813d83116116c0575b6116b08183611f59565b810103126112395751923861163c565b503d6116a6565b6040513d85823e3d90fd5b6001600160401b0381959495116116ef5760405291929181611613565b634e487b7160e01b85526041600452602485fd5b60405162461bcd60e51b815260048101849052600d60248201526c139bc81d9bdd195cc818d85cdd609a1b6044820152606490fd5b6084906040519062461bcd60e51b82526004820152603660248201527f636865636b20766f7465206f7574636f6d6573206f6e6c7920706f737369626c6044820152756520666f7220636f6e636c75646564206379636c657360501b6064820152fd5b50346102a257806003193601126102a25760206203f480620546006117c260035442612889565b0610604051908152f35b50346102a257806003193601126102a2576001546040516001600160a01b039091168152602090f35b50346102a25760203660031901126102a2576004356001600160401b03811161031e573660238201121561031e5780600401359061183282611f7a565b916118406040519384611f59565b8083526024602084019160051b83010191368311610b8a5760248101915b838310611cdc5785856203f4806205460061187b60035442612889565b061015611c8c578051906040519061082082018281106001600160401b038211176116ef5760405260408252610800366020840137835b838110611994578483815b604081106118c9578280f35b6118d3818361215b565b516118e1575b6001016118bd565b6040516118ed81611f3e565b838152600682811b6001600160fa1b03841684036108fd57806040019081604011610eab5791905b808310611937575050509061193060019282611006016121b6565b90506118d9565b9091926110008410156119805760206119736119799261078d60405193826119688694518092848088019101611e3e565b8301018888016131c0565b9361214c565b9190611915565b634e487b7160e01b87526032600452602487fd5b61199e818361215b565b518051810181602082019160809182910312611c8857602083015191604084015193606081015192810151906001600160401b038211611c80570181603f82011215611c845760208101516119f281611f91565b92611a006040519485611f59565b81845260408284010111611c8057611a1f916040602085019101611e3e565b60408310801590611c75575b6114e257600a821015611c3757828952600560205260408920848a5260205260ff600560408b20015416611bda57828952600560209081526040808b20868c529091528920546001600160a01b03163314611a93575b50505050611a8e9061214c565b6118b2565b611ab590838a52600560205260408a20858b52602052600360408b20016121b6565b818852600560209081526040808a20858b529091528820600101556001600160fa1b0382168203610eab57611aed8260061b82611ee2565b818852600560205260408820838952602052600160408920015460098381810204811484151715611bc6578481810204811485151715611bc65790611b5a91848b52600560205260408b20868c52602052611b4d600360408d20016120a6565b9181870291860290612a63565b90611000811015611bb257611a8e94939291611b78916006016121b6565b6001611b84838861215b565b527fa9a418da632d42c446a125f10b007831ba0e348168b6b2474a2383ac5df4c2808880a390868080611a81565b634e487b7160e01b89526032600452602489fd5b634e487b7160e01b8a52601160045260248afd5b60405162461bcd60e51b815260206004820152602f60248201527f6f776e6572207761732061736b656420746f20666972737420736574746c652060448201526e1c9bde585b1d1e481c185e5b595b9d608a1b6064820152608490fd5b60405162461bcd60e51b81526020600482015260166024820152757368617065204944206e6f7420617661696c61626c6560501b6044820152606490fd5b506040841015611a2b565b8a80fd5b8980fd5b8780fd5b60405162461bcd60e51b815260206004820152602260248201527f417274697374696320706572696f642063757272656e746c79206e6f74206f7060448201526132b760f11b6064820152608490fd5b82356001600160401b038111611d4357820136604382011215611d4357602481013591611d0883611f91565b611d156040519182611f59565b8381528860443681878701011161031e5785602096879692879301838601378301015281520192019161185e565b8680fd5b50346102a25760203660031901126102a257604080916004358152611047602052206001815491015482519182526020820152f35b50346102a257806003193601126102a2576020604051620546008152f35b50346102a25760203660031901126102a2576004356001600160a01b0381169081900361031e57604060209260ff9262054600611dd960035442612889565b048252611047855260028383200190825284522054166040519015158152f35b50346102a257610380611e14611e0e36611e28565b9061292f565b604051918291602083526020830190611e86565b6040906003190112611239576004359060243590565b60005b838110611e515750506000910152565b8181015183820152602001611e41565b90602091611e7a81518092818552858086019101611e3e565b601f01601f1916010190565b9060018060a01b038251168152602082015160208201526040820151604082015260c080611ec3606085015160e0606086015260e0850190611e61565b936080810151608085015260a0810151151560a0850152015191015290565b91908201809211611eef57565b634e487b7160e01b600052601160045260246000fd5b346112395760003660031901126112395760206040516203f4808152f35b60e081019081106001600160401b0382111761027e57604052565b602081019081106001600160401b0382111761027e57604052565b90601f801991011681019081106001600160401b0382111761027e57604052565b6001600160401b03811161027e5760051b60200190565b6001600160401b03811161027e57601f01601f191660200190565b3461123957600036600319011261123957602060405160408152f35b81601f8201121561123957803591611fdf83611f7a565b92611fed6040519485611f59565b808452602092838086019260051b820101928311611239578301905b828210612017575050505090565b81358152908301908301612009565b906040600319830112611239576001600160401b03600435818111611239578361205291600401611fc8565b926024359182116112395761206991600401611fc8565b90565b90600182811c9216801561209c575b602083101461208657565b634e487b7160e01b600052602260045260246000fd5b91607f169161207b565b90604051918260008254926120ba8461206c565b90818452600194858116908160001461212957506001146120e6575b50506120e492500383611f59565b565b9093915060005260209081600020936000915b8183106121115750506120e4935082010138806120d6565b855488840185015294850194879450918301916120f9565b9150506120e494506020925060ff191682840152151560051b82010138806120d6565b6000198114611eef5760010190565b805182101561216f5760209160051b010190565b634e487b7160e01b600052603260045260246000fd5b606090602081526016602082015275706978656c206973206f7574206f6620626f756e647360501b60408201520190565b91909182516001600160401b03811161027e576121d3825461206c565b601f811161227d575b50602080601f831160011461221957508192939460009261220e575b50508160011b916000199060031b1c1916179055565b0151905038806121f8565b90601f198316958460005282600020926000905b8882106122655750508360019596971061224c575b505050811b019055565b015160001960f88460031b161c19169055388080612242565b8060018596829496860151815501950193019061222d565b600083815260208120601f840160051c810192602085106122bb575b601f0160051c01915b8281106122b05750506121dc565b8181556001016122a2565b9092508290612299565b81810292918115918404141715611eef57565b156122df57565b60405162461bcd60e51b815260206004820152602b60248201527f7820616e64207920696e7075742061727261797320617265206f66207661726960448201526a6f7573206c656e6774687360a81b6064820152608490fd5b90816020910312611239575180151581036112395790565b6001600160a01b03918216815291166020820152604081019190915260600190565b91909161238281518451146122d8565b80516000935b818510612396575050509050565b6123a0858461215b565b51946123ac818361215b565b51604080809810918215926127ce575b50506127b6576123cc818561215b565b516000526005602090808252876000206123e6848661215b565b51600052825260018060a01b03973389826000205416036127685761240b848861215b565b5160005281835280600020612420858761215b565b5160005283526004428183600020015403612451575b5050505061244891929394955061214c565b93929190612388565b61246961245e868a61215b565b51610ed7878961215b565b99808254169083516370a0823160e01b8152338482015260249087818381875afa9081156126dc57908e91600091612738575b50106126e7578451636eb1769f60e11b8152338582019081523060208201528890829081906040010381875afa9081156126dc57908e916000916126ac575b501061265b5750859161250b91600154169c600086519e8f94859384926323b872dd60e01b8452338a8501612350565b03925af1998a1561265057612448969798999a612633575b5061252e858a61215b565b5160005282845281600020612543868961215b565b516000528452429082600020015561255b848961215b565b5160005281835280600020612570858861215b565b51600052835260ff82826000200154166125d1575b505050612592818661215b565b5161259d828561215b565b51907fe61af2269c9afbdb69efce2b15f2a464f8ee6237f105b3d4024f2e824a9f0af3600080a38594939291388080612436565b6000926006926125e1868b61215b565b5185528082528285206125f4878a61215b565b51865282528285208101805460ff19169055612610868b61215b565b518552815281842090612623868961215b565b5185525282200155388080612585565b61264990853d87116111c9576111ba8183611f59565b5038612523565b82513d6000823e3d90fd5b8360276084928988519362461bcd60e51b85528401528201527f696e73756666696369656e7420616c6c6f77616e636520746f2070617920726f60448201526679616c7469657360c81b6064820152fd5b91508882813d83116126d5575b6126c38183611f59565b810103126102a257508d9051386124db565b503d6126b9565b86513d6000823e3d90fd5b8360276084928988519362461bcd60e51b85528401528201527f6e6f742073756666696369656e742062616c616e636520746f2070617920726f60448201526679616c7469657360c81b6064820152fd5b91508882813d8311612761575b61274f8183611f59565b810103126102a257508d90513861249c565b503d612745565b5162461bcd60e51b815260048101839052602260248201527f6f6e6c7920706978656c206f776e65722063616e2070617920726f79616c7469604482015261657360f01b6064820152608490fd5b855162461bcd60e51b8152806114fb60048201612185565b1015905086386123bc565b156127e057565b60405162461bcd60e51b815260206004820152602360248201527f6e6f742073756666696369656e742062616c616e636520746f206275792070696044820152621e195b60ea1b6064820152608490fd5b1561283857565b60405162461bcd60e51b815260206004820152602360248201527f696e73756666696369656e7420616c6c6f77616e636520746f206275792070696044820152621e195b60ea1b6064820152608490fd5b91908203918211611eef57565b1561289d57565b60405162461bcd60e51b815260206004820152602c60248201527f6f776e65722063757272656e74206d616e616765722063616e2063616c6c207460448201526b3434b990333ab731ba34b7b760a11b6064820152608490fd5b6040519061290482611f23565b8160c06000918281528260208201528260408201526060808201528260808201528260a08201520152565b906129386128f7565b50604091828110806129fd575b156129c3576000526005602052816000209060005260205260068160002082519261296f84611f23565b81546001600160a01b031684526001820154602085015260028201549084015261299b600382016120a6565b60608401526004810154608084015260ff600582015416151560a0840152015460c082015290565b825162461bcd60e51b8152602060048201526013602482015272706978656c206f7574206f6620626f756e647360681b6044820152606490fd5b50828210612945565b612a56612a5f916002604064073df16000956000908482526005602052828220818352602052612a3c6004848420015442612889565b9482526005602052828220908252602052200154906122c5565b600254906122c5565b0490565b9192909282156131045760018314613035576002831461300b5760038314612faf57600492838114612f5b5760058114612dfe5760068114612dac5760078114612d455760088114612c6257600914612acd5750505050604051612ac681611f3e565b6000815290565b612ad684613243565b90612ae081613243565b60088601808711612c4d57612af490613243565b9460088301809311612c38575091612c1c826120699694612b29612b23612b1d60499997613243565b9a613243565b92613243565b91604051998a97602a612b598a602099693c7061746820643d224d60b01b8b8301528a8151948593019101611e3e565b890193600160fd1b9485602a820152612b7b825180938b602b85019101611e3e565b016b010209c101c101810181018960a51b602b820152612ba4825180938a603785019101611e3e565b01836037820152612bbe8251809389603885019101611e3e565b0161081360f21b6038820152612bdd8251809388603a85019101611e3e565b0190603a820152612bf78251809386603b85019101611e3e565b019169102d11103334b6361e9160b11b603b8401528351938491604585019101611e3e565b01631110179f60e11b6045820152036029810184520182611f59565b601190634e487b7160e01b6000525260246000fd5b601186634e487b7160e01b6000525260246000fd5b50926008810193848211612d3057612c7985613243565b91612c8c612c8683613243565b91613243565b9460088301809311612c38575091612c1c826120699694612cb5612b23612b1d60499997613243565b91604051998a97602a612ce58a602099693c7061746820643d224d60b01b8b8301528a8151948593019101611e3e565b890193600160fd1b9485602a820152612d07825180938b602b85019101611e3e565b016b010209c101c101810181018160a51b602b820152612ba4825180938a603785019101611e3e565b601184634e487b7160e01b6000525260246000fd5b50612d4f84613243565b90612d5981613243565b60088601809611612d9757612d6d86613243565b946008830190818411612c38575060499492612069969492612cb5612b23612b1d612c1c95613243565b601185634e487b7160e01b6000525260246000fd5b50612db684613243565b9060088101808211612d9757612dcb90613243565b936008860190818711612c38575091612c1c60499492612dee6120699795613243565b94612cb5612b23612b1d84613243565b5092612e0981613243565b906008850190818611612d9757612e1f82613243565b90612e32612e2c82613243565b97613243565b9560088201809211612c385750603f9492612069969492612e58612b23612f3f94613243565b91604051998a97602a612e888a602099693c7061746820643d224d60b01b8b8301528a8151948593019101611e3e565b890193600160fd1b9485602a820152612eaa825180938b602b85019101611e3e565b019161081360f21b9283602b820152612ecc825180938b602d85019101611e3e565b0184602d820152612ee6825180938a602e85019101611e3e565b0190602e820152612f008251809388603085019101611e3e565b01906030820152612f1a8251809386603185019101611e3e565b019169103d11103334b6361e9160b11b60318401528351938491603b85019101611e3e565b01631110179f60e11b603b82015203601f810184520182611f59565b5092916008830190818411612c3857612f7382613243565b916008860191828711612c38575091612f3f826120699694612e58612b23612e2c612fa9612fa3603f9b99613243565b94613243565b9b613243565b9150612fba83613243565b92612fc483613243565b9160088201809211611eef57612fd982613243565b94612fec612fe686613243565b93613243565b9460088101809111611eef5761206995603f95612e58612f3f93613243565b915061301683613243565b9261302083613243565b9160088201808311611eef57612fd990613243565b91509160048101809111611eef5761304c90613243565b9060048101809111611eef5761206991613067604492613243565b936040519485926b1e31b4b931b6329031bc1e9160a11b6020850152613097815180926020602c88019101611e3e565b830165111031bc9e9160d11b602c8201526130bc825180936020603285019101611e3e565b016d1110391e911a11103334b6361e9160911b60328201526130e8825180936020604085019101611e3e565b01631110179f60e11b6040820152036024810184520182611f59565b6120699250613118612c86604f9395613243565b93604051948592681e3932b1ba103c1e9160b91b6020850152613145815180926020602988019101611e3e565b83016411103c9e9160d91b6029820152613169825180936020602e85019101611e3e565b017f222077696474683d223822206865696768743d2238222066696c6c3d22000000602e8201526131a4825180936020604b85019101611e3e565b01631110179f60e11b604b82015203602f810184520182611f59565b6000929181546131cf8161206c565b9260019180831690811561322857506001146131ec575b50505050565b90919293945060005260209081600020906000915b85831061321757505050500190388080806131e6565b805485840152918301918101613201565b60ff19168452505050811515909102019150388080806131e6565b80156133035780816000925b6132ef57508061325e83611f91565b9261326c6040519485611f59565b808452601f1961327b82611f91565b01366020860137915b61328d57505090565b600019820191808311611eef5782600a9081840493828502928584041485151715611eef576132bf60ff938492612889565b16603001918211611eef578551111561216f5760f81b6001600160f81b03191660001a908401601f015380613284565b916132fb600a9161214c565b92048061324f565b50604051604081018181106001600160401b0382111761027e5760405260018152600360fc1b60208201529056fea264697066735822122056120f066a563f1e8954672661df172c3e7ab4436d8098929200a02818a1f15e64736f6c63430008140033","opcodes":"PUSH1 0x80 DUP1 PUSH1 0x40 MSTORE CALLVALUE PUSH2 0x4F JUMPI PUSH1 0x32 PUSH1 0x2 SSTORE PUSH1 0x1 DUP1 PUSH1 0xA0 SHL SUB NOT PUSH20 0xC02AAA39B223FE8D0A0E5C4F27EAD9083C756CC2 DUP2 PUSH1 0x4 SLOAD AND OR PUSH1 0x4 SSTORE CALLER SWAP1 PUSH1 0x1 SLOAD AND OR PUSH1 0x1 SSTORE TIMESTAMP PUSH1 0x3 SSTORE PUSH2 0x3367 SWAP1 DUP2 PUSH2 0x55 DUP3 CODECOPY RETURN JUMPDEST PUSH1 0x0 DUP1 REVERT INVALID PUSH1 0x80 PUSH1 0x40 MSTORE PUSH1 0x4 CALLDATASIZE LT ISZERO PUSH2 0x12 JUMPI PUSH1 0x0 DUP1 REVERT JUMPDEST PUSH1 0x0 DUP1 CALLDATALOAD PUSH1 0xE0 SHR DUP1 PUSH4 0x40CDFD8 EQ PUSH2 0x1DF9 JUMPI DUP1 PUSH4 0x9EEF43E EQ PUSH2 0x1D9A JUMPI DUP1 PUSH4 0x113BC999 EQ PUSH2 0x1D7C JUMPI DUP1 PUSH4 0x30B5D6D3 EQ PUSH2 0x1D47 JUMPI DUP1 PUSH4 0x3323A706 EQ PUSH2 0x150B JUMPI DUP1 PUSH4 0x3BDB693E EQ PUSH2 0x17F5 JUMPI DUP1 PUSH4 0x481C6A75 EQ PUSH2 0x17CC JUMPI DUP1 PUSH4 0x4882A7EA EQ PUSH2 0x179B JUMPI DUP1 PUSH4 0x5C8C6407 EQ PUSH2 0x1563 JUMPI DUP1 PUSH4 0x5E027601 EQ PUSH2 0x1515 JUMPI DUP1 PUSH4 0x6006ECC8 EQ PUSH2 0x1510 JUMPI DUP1 PUSH4 0x63AA5CE2 EQ PUSH2 0x1510 JUMPI DUP1 PUSH4 0x6E70FCC6 EQ PUSH2 0x150B JUMPI DUP1 PUSH4 0x6ED958F1 EQ PUSH2 0xD84 JUMPI DUP1 PUSH4 0x70A08231 EQ PUSH2 0x2E0 JUMPI DUP1 PUSH4 0x7ACE48E7 EQ PUSH2 0xB8E JUMPI DUP1 PUSH4 0x8232B562 EQ PUSH2 0x911 JUMPI DUP1 PUSH4 0x85A9473D EQ PUSH2 0x7F3 JUMPI DUP1 PUSH4 0xA7CCABDF EQ PUSH2 0x7A6 JUMPI DUP1 PUSH4 0xAD711E9E EQ PUSH2 0x664 JUMPI DUP1 PUSH4 0xB1610D7E EQ PUSH2 0x646 JUMPI DUP1 PUSH4 0xB3A1DDF4 EQ PUSH2 0x614 JUMPI DUP1 PUSH4 0xBC5BC2FB EQ PUSH2 0x5BD JUMPI DUP1 PUSH4 0xBE26ED7F EQ PUSH2 0x5E8 JUMPI DUP1 PUSH4 0xC4323FC1 EQ PUSH2 0x5BD JUMPI DUP1 PUSH4 0xC4D1510D EQ PUSH2 0x59F JUMPI DUP1 PUSH4 0xC4E4B90C EQ PUSH2 0x570 JUMPI DUP1 PUSH4 0xC730E65D EQ PUSH2 0x4DA JUMPI DUP1 PUSH4 0xC7EAB2EC EQ PUSH2 0x3CD JUMPI DUP1 PUSH4 0xD08629C1 EQ PUSH2 0x3AB JUMPI DUP1 PUSH4 0xD56D229D EQ PUSH2 0x384 JUMPI DUP1 PUSH4 0xE1245900 EQ PUSH2 0x33D JUMPI DUP1 PUSH4 0xE50EB5DA EQ PUSH2 0x322 JUMPI DUP1 PUSH4 0xF8B2CB4F EQ PUSH2 0x2E0 JUMPI DUP1 PUSH4 0xFD8D7ED3 EQ PUSH2 0x2C3 JUMPI DUP1 PUSH4 0xFF188DCA EQ PUSH2 0x2A5 JUMPI PUSH4 0xFF397C6A EQ PUSH2 0x1B4 JUMPI PUSH1 0x0 DUP1 REVERT JUMPDEST CALLVALUE PUSH2 0x2A2 JUMPI DUP1 PUSH1 0x3 NOT CALLDATASIZE ADD SLT PUSH2 0x2A2 JUMPI PUSH1 0x40 MLOAD PUSH2 0x800 SWAP1 PUSH1 0x1 PUSH1 0x1 PUSH1 0x40 SHL SUB SWAP1 DUP3 DUP2 ADD DUP3 DUP2 GT DUP3 DUP3 LT OR PUSH2 0x27E JUMPI PUSH1 0x40 MSTORE DUP4 JUMPDEST DUP4 DUP2 LT PUSH2 0x294 JUMPI POP POP PUSH1 0x40 MLOAD SWAP2 DUP3 ADD SWAP1 DUP2 GT DUP3 DUP3 LT OR PUSH2 0x27E JUMPI PUSH1 0x40 MSTORE PUSH2 0x1006 DUP3 DUP3 JUMPDEST PUSH1 0x40 DUP3 LT PUSH2 0x261 JUMPI POP POP POP PUSH1 0x40 MLOAD SWAP1 PUSH1 0x20 SWAP3 DUP4 DUP4 ADD DUP5 DUP5 MSTORE PUSH2 0x820 DUP5 ADD SWAP3 SWAP2 SWAP5 JUMPDEST PUSH1 0x40 DUP7 LT PUSH2 0x239 JUMPI DUP5 DUP5 SUB DUP6 RETURN JUMPDEST SWAP1 SWAP2 SWAP3 DUP2 DUP1 PUSH2 0x254 PUSH1 0x1 SWAP4 PUSH1 0x1F NOT DUP10 DUP3 SUB ADD DUP8 MSTORE DUP8 MLOAD PUSH2 0x1E61 JUMP JUMPDEST SWAP6 ADD SWAP4 ADD SWAP6 ADD SWAP5 SWAP1 PUSH2 0x22B JUMP JUMPDEST PUSH1 0x1 PUSH1 0x20 DUP2 SWAP3 PUSH2 0x270 DUP7 PUSH2 0x20A6 JUMP JUMPDEST DUP2 MSTORE ADD SWAP4 ADD SWAP2 ADD SWAP1 SWAP2 PUSH2 0x20A JUMP JUMPDEST PUSH4 0x4E487B71 PUSH1 0xE0 SHL PUSH1 0x0 MSTORE PUSH1 0x41 PUSH1 0x4 MSTORE PUSH1 0x24 PUSH1 0x0 REVERT JUMPDEST PUSH1 0x60 DUP3 DUP3 ADD MSTORE PUSH1 0x20 ADD PUSH2 0x1E7 JUMP JUMPDEST DUP1 REVERT JUMPDEST POP CALLVALUE PUSH2 0x2A2 JUMPI DUP1 PUSH1 0x3 NOT CALLDATASIZE ADD SLT PUSH2 0x2A2 JUMPI PUSH1 0x20 PUSH1 0x3 SLOAD PUSH1 0x40 MLOAD SWAP1 DUP2 MSTORE RETURN JUMPDEST POP CALLVALUE PUSH2 0x2A2 JUMPI DUP1 PUSH1 0x3 NOT CALLDATASIZE ADD SLT PUSH2 0x2A2 JUMPI PUSH1 0x20 PUSH1 0x40 MLOAD PUSH2 0x3E8 DUP2 MSTORE RETURN JUMPDEST POP CALLVALUE PUSH2 0x2A2 JUMPI PUSH1 0x20 CALLDATASIZE PUSH1 0x3 NOT ADD SLT PUSH2 0x2A2 JUMPI PUSH1 0x4 CALLDATALOAD PUSH1 0x1 PUSH1 0x1 PUSH1 0xA0 SHL SUB DUP2 AND SWAP1 DUP2 SWAP1 SUB PUSH2 0x31E JUMPI DUP2 PUSH1 0x40 SWAP2 PUSH1 0x20 SWAP4 MSTORE PUSH2 0x1046 DUP4 MSTORE KECCAK256 SLOAD PUSH1 0x40 MLOAD SWAP1 DUP2 MSTORE RETURN JUMPDEST POP DUP1 REVERT JUMPDEST POP CALLVALUE PUSH2 0x2A2 JUMPI PUSH2 0x33A PUSH2 0x334 CALLDATASIZE PUSH2 0x2026 JUMP JUMPDEST SWAP1 PUSH2 0x2372 JUMP JUMPDEST DUP1 RETURN JUMPDEST POP CALLVALUE PUSH2 0x2A2 JUMPI PUSH1 0x20 CALLDATASIZE PUSH1 0x3 NOT ADD SLT PUSH2 0x2A2 JUMPI PUSH1 0x4 CALLDATALOAD SWAP1 PUSH1 0x40 DUP3 LT ISZERO PUSH2 0x2A2 JUMPI PUSH2 0x380 PUSH2 0x36C DUP4 PUSH2 0x1006 ADD PUSH2 0x20A6 JUMP JUMPDEST PUSH1 0x40 MLOAD SWAP2 DUP3 SWAP2 PUSH1 0x20 DUP4 MSTORE PUSH1 0x20 DUP4 ADD SWAP1 PUSH2 0x1E61 JUMP JUMPDEST SUB SWAP1 RETURN JUMPDEST POP CALLVALUE PUSH2 0x2A2 JUMPI DUP1 PUSH1 0x3 NOT CALLDATASIZE ADD SLT PUSH2 0x2A2 JUMPI SLOAD PUSH1 0x40 MLOAD PUSH1 0x1 PUSH1 0x1 PUSH1 0xA0 SHL SUB SWAP1 SWAP2 AND DUP2 MSTORE PUSH1 0x20 SWAP1 RETURN JUMPDEST POP CALLVALUE PUSH2 0x2A2 JUMPI PUSH1 0x20 PUSH2 0x3C5 PUSH2 0x3BF CALLDATASIZE PUSH2 0x1E28 JUMP JUMPDEST SWAP1 PUSH2 0x2A06 JUMP JUMPDEST PUSH1 0x40 MLOAD SWAP1 DUP2 MSTORE RETURN JUMPDEST POP CALLVALUE PUSH2 0x2A2 JUMPI PUSH2 0x3DC CALLDATASIZE PUSH2 0x2026 JUMP JUMPDEST PUSH2 0x3E9 DUP3 MLOAD DUP3 MLOAD EQ PUSH2 0x22D8 JUMP JUMPDEST DUP2 MLOAD SWAP1 PUSH2 0x3F5 DUP3 PUSH2 0x1F7A JUMP JUMPDEST SWAP3 PUSH2 0x403 PUSH1 0x40 MLOAD SWAP5 DUP6 PUSH2 0x1F59 JUMP JUMPDEST DUP3 DUP5 MSTORE PUSH1 0x1F NOT PUSH2 0x412 DUP5 PUSH2 0x1F7A JUMP JUMPDEST ADD DUP6 JUMPDEST DUP2 DUP2 LT PUSH2 0x4C3 JUMPI POP POP DUP5 JUMPDEST DUP4 DUP2 LT PUSH2 0x485 JUMPI PUSH1 0x40 DUP1 MLOAD PUSH1 0x20 DUP1 DUP3 MSTORE DUP8 MLOAD DUP2 DUP4 ADD DUP2 SWAP1 MSTORE DUP10 SWAP4 PUSH1 0x5 DUP3 SWAP1 SHL DUP5 ADD DUP2 ADD SWAP3 DUP1 DUP12 ADD SWAP3 SWAP2 DUP6 ADD JUMPDEST DUP3 DUP8 LT PUSH2 0x459 JUMPI DUP6 DUP6 SUB DUP7 RETURN JUMPDEST SWAP1 SWAP2 SWAP3 SWAP4 DUP3 DUP1 PUSH2 0x475 PUSH1 0x1 SWAP4 PUSH1 0x3F NOT DUP11 DUP3 SUB ADD DUP7 MSTORE DUP9 MLOAD PUSH2 0x1E86 JUMP JUMPDEST SWAP7 ADD SWAP3 ADD SWAP7 ADD SWAP6 SWAP3 SWAP2 SWAP1 SWAP3 PUSH2 0x44C JUMP JUMPDEST DUP1 PUSH2 0x4A7 PUSH2 0x495 PUSH1 0x1 SWAP4 DUP6 PUSH2 0x215B JUMP JUMPDEST MLOAD PUSH2 0x4A0 DUP4 DUP8 PUSH2 0x215B JUMP JUMPDEST MLOAD SWAP1 PUSH2 0x292F JUMP JUMPDEST PUSH2 0x4B1 DUP3 DUP9 PUSH2 0x215B JUMP JUMPDEST MSTORE PUSH2 0x4BC DUP2 DUP8 PUSH2 0x215B JUMP JUMPDEST POP ADD PUSH2 0x420 JUMP JUMPDEST PUSH1 0x20 SWAP1 PUSH2 0x4CE PUSH2 0x28F7 JUMP JUMPDEST DUP3 DUP3 DUP10 ADD ADD MSTORE ADD PUSH2 0x415 JUMP JUMPDEST POP CALLVALUE PUSH2 0x2A2 JUMPI PUSH1 0x40 SWAP1 PUSH2 0x4EC CALLDATASIZE PUSH2 0x1E28 JUMP JUMPDEST SWAP1 DUP3 MSTORE PUSH1 0x5 PUSH1 0x20 MSTORE DUP3 DUP3 KECCAK256 SWAP1 DUP3 MSTORE PUSH1 0x20 MSTORE KECCAK256 PUSH1 0x1 DUP1 PUSH1 0xA0 SHL SUB DUP2 SLOAD AND PUSH1 0x1 DUP3 ADD SLOAD SWAP2 PUSH1 0x2 DUP2 ADD SLOAD PUSH2 0x51F PUSH1 0x3 DUP4 ADD PUSH2 0x20A6 JUMP JUMPDEST SWAP2 PUSH2 0x55A PUSH1 0x4 DUP3 ADD SLOAD SWAP4 PUSH1 0x6 PUSH1 0xFF PUSH1 0x5 DUP6 ADD SLOAD AND SWAP4 ADD SLOAD SWAP4 PUSH1 0x40 MLOAD SWAP8 DUP9 SWAP8 DUP9 MSTORE PUSH1 0x20 DUP9 ADD MSTORE PUSH1 0x40 DUP8 ADD MSTORE PUSH1 0xE0 PUSH1 0x60 DUP8 ADD MSTORE PUSH1 0xE0 DUP7 ADD SWAP1 PUSH2 0x1E61 JUMP JUMPDEST SWAP3 PUSH1 0x80 DUP6 ADD MSTORE ISZERO ISZERO PUSH1 0xA0 DUP5 ADD MSTORE PUSH1 0xC0 DUP4 ADD MSTORE SUB SWAP1 RETURN JUMPDEST POP CALLVALUE PUSH2 0x2A2 JUMPI PUSH1 0x20 CALLDATASIZE PUSH1 0x3 NOT ADD SLT PUSH2 0x2A2 JUMPI PUSH1 0x4 CALLDATALOAD SWAP1 PUSH2 0x1000 DUP3 LT ISZERO PUSH2 0x2A2 JUMPI PUSH2 0x380 PUSH2 0x36C DUP4 PUSH1 0x6 ADD PUSH2 0x20A6 JUMP JUMPDEST POP CALLVALUE PUSH2 0x2A2 JUMPI DUP1 PUSH1 0x3 NOT CALLDATASIZE ADD SLT PUSH2 0x2A2 JUMPI PUSH1 0x20 PUSH1 0x2 SLOAD PUSH1 0x40 MLOAD SWAP1 DUP2 MSTORE RETURN JUMPDEST POP CALLVALUE PUSH2 0x2A2 JUMPI PUSH1 0x20 CALLDATASIZE PUSH1 0x3 NOT ADD SLT PUSH2 0x2A2 JUMPI PUSH1 0x40 PUSH1 0x20 SWAP2 PUSH1 0x4 CALLDATALOAD DUP2 MSTORE PUSH2 0x1048 DUP4 MSTORE KECCAK256 SLOAD PUSH1 0x40 MLOAD SWAP1 DUP2 MSTORE RETURN JUMPDEST POP CALLVALUE PUSH2 0x2A2 JUMPI DUP1 PUSH1 0x3 NOT CALLDATASIZE ADD SLT PUSH2 0x2A2 JUMPI PUSH1 0x20 PUSH3 0x54600 PUSH2 0x60B PUSH1 0x3 SLOAD TIMESTAMP PUSH2 0x2889 JUMP JUMPDEST DIV PUSH1 0x40 MLOAD SWAP1 DUP2 MSTORE RETURN JUMPDEST POP CALLVALUE PUSH2 0x2A2 JUMPI DUP1 PUSH1 0x3 NOT CALLDATASIZE ADD SLT PUSH2 0x2A2 JUMPI PUSH1 0x20 PUSH3 0x3F480 PUSH3 0x54600 PUSH2 0x63B PUSH1 0x3 SLOAD TIMESTAMP PUSH2 0x2889 JUMP JUMPDEST MOD LT ISZERO PUSH1 0x40 MLOAD SWAP1 DUP2 MSTORE RETURN JUMPDEST POP CALLVALUE PUSH2 0x2A2 JUMPI DUP1 PUSH1 0x3 NOT CALLDATASIZE ADD SLT PUSH2 0x2A2 JUMPI PUSH1 0x20 PUSH1 0x40 MLOAD PUSH3 0x15180 DUP2 MSTORE RETURN JUMPDEST POP CALLVALUE PUSH2 0x2A2 JUMPI DUP1 PUSH1 0x3 NOT CALLDATASIZE ADD SLT PUSH2 0x2A2 JUMPI PUSH1 0x40 MLOAD PUSH1 0x80 DUP2 ADD DUP2 DUP2 LT PUSH1 0x1 PUSH1 0x1 PUSH1 0x40 SHL SUB DUP3 GT OR PUSH2 0x27E JUMPI PUSH1 0x40 MSTORE PUSH1 0x57 DUP2 MSTORE PUSH1 0x20 SWAP1 PUSH32 0x3C7376672077696474683D2236303022206865696768743D2236303022207669 DUP3 DUP3 ADD MSTORE PUSH32 0x6577426F783D2230203020363030203630302220786D6C6E733D22687474703A PUSH1 0x40 DUP3 ADD MSTORE PUSH23 0x1797BBBBBB973B999737B933979918181817B9BB33911F PUSH1 0x49 SHL PUSH1 0x60 DUP3 ADD MSTORE SWAP2 JUMPDEST PUSH1 0x40 DUP2 LT PUSH2 0x75C JUMPI POP PUSH2 0x748 PUSH1 0x26 PUSH1 0x40 MLOAD DUP5 PUSH2 0x72A DUP3 SWAP7 MLOAD DUP1 SWAP3 DUP8 DUP1 DUP7 ADD SWAP2 ADD PUSH2 0x1E3E JUMP JUMPDEST DUP2 ADD PUSH6 0x1E17B9BB339F PUSH1 0xD1 SHL DUP6 DUP3 ADD MSTORE SUB PUSH1 0x6 DUP2 ADD DUP6 MSTORE ADD DUP4 PUSH2 0x1F59 JUMP JUMPDEST PUSH2 0x380 PUSH1 0x40 MLOAD SWAP3 DUP3 DUP5 SWAP4 DUP5 MSTORE DUP4 ADD SWAP1 PUSH2 0x1E61 JUMP JUMPDEST SWAP2 DUP2 PUSH2 0x79B PUSH2 0x7A1 SWAP3 PUSH2 0x78D PUSH1 0x40 MLOAD SWAP4 DUP3 PUSH2 0x780 DUP7 SWAP5 MLOAD DUP1 SWAP3 DUP5 DUP1 DUP9 ADD SWAP2 ADD PUSH2 0x1E3E JUMP JUMPDEST DUP4 ADD ADD DUP8 PUSH2 0x1006 ADD PUSH2 0x31C0 JUMP JUMPDEST SUB PUSH1 0x1F NOT DUP2 ADD DUP4 MSTORE DUP3 PUSH2 0x1F59 JUMP JUMPDEST SWAP3 PUSH2 0x214C JUMP JUMPDEST PUSH2 0x705 JUMP JUMPDEST POP CALLVALUE PUSH2 0x2A2 JUMPI PUSH1 0x20 CALLDATASIZE PUSH1 0x3 NOT ADD SLT PUSH2 0x2A2 JUMPI PUSH1 0x4 CALLDATALOAD PUSH1 0x1 PUSH1 0x1 PUSH1 0xA0 SHL SUB DUP2 DUP2 AND SWAP2 DUP3 SWAP1 SUB PUSH2 0x7EF JUMPI PUSH2 0x7DD SWAP1 PUSH1 0x1 SLOAD AND CALLER EQ PUSH2 0x2896 JUMP JUMPDEST DUP2 SLOAD PUSH1 0x1 PUSH1 0x1 PUSH1 0xA0 SHL SUB NOT AND OR DUP2 SSTORE DUP1 RETURN JUMPDEST DUP3 DUP1 REVERT JUMPDEST POP CALLVALUE PUSH2 0x2A2 JUMPI PUSH1 0x60 CALLDATASIZE PUSH1 0x3 NOT ADD SLT PUSH2 0x2A2 JUMPI PUSH1 0x4 CALLDATALOAD PUSH1 0x24 CALLDATALOAD SWAP1 PUSH2 0x821 PUSH1 0x1 DUP1 PUSH1 0xA0 SHL SUB PUSH1 0x1 SLOAD AND CALLER EQ PUSH2 0x2896 JUMP JUMPDEST DUP1 DUP4 MSTORE PUSH1 0x5 PUSH1 0x20 SWAP2 DUP2 DUP4 MSTORE PUSH1 0x40 DUP6 KECCAK256 DUP5 DUP7 MSTORE DUP4 MSTORE PUSH1 0xFF DUP3 PUSH1 0x40 DUP8 KECCAK256 ADD SLOAD AND DUP1 PUSH2 0x8D1 JUMPI JUMPDEST ISZERO PUSH2 0x899 JUMPI DUP1 DUP6 MSTORE DUP2 DUP4 MSTORE PUSH1 0x40 DUP6 KECCAK256 DUP5 DUP7 MSTORE DUP4 MSTORE PUSH1 0x44 CALLDATALOAD PUSH1 0x2 PUSH1 0x40 DUP8 KECCAK256 ADD SSTORE DUP1 DUP6 MSTORE DUP2 DUP4 MSTORE PUSH1 0x40 DUP6 KECCAK256 DUP5 DUP7 MSTORE DUP4 MSTORE DUP2 PUSH1 0x40 DUP7 KECCAK256 ADD PUSH1 0xFF NOT DUP2 SLOAD AND SWAP1 SSTORE DUP5 MSTORE DUP2 MSTORE PUSH1 0x40 DUP4 KECCAK256 SWAP2 DUP4 MSTORE MSTORE DUP1 PUSH1 0x6 PUSH1 0x40 DUP3 KECCAK256 ADD SSTORE DUP1 RETURN JUMPDEST DUP1 DUP6 MSTORE DUP2 DUP4 MSTORE PUSH1 0x40 DUP6 KECCAK256 DUP5 DUP7 MSTORE DUP4 MSTORE DUP2 PUSH1 0x40 DUP7 KECCAK256 ADD PUSH1 0x1 PUSH1 0xFF NOT DUP3 SLOAD AND OR SWAP1 SSTORE DUP5 MSTORE DUP2 MSTORE PUSH1 0x40 DUP4 KECCAK256 SWAP2 DUP4 MSTORE MSTORE TIMESTAMP PUSH1 0x6 PUSH1 0x40 DUP4 KECCAK256 ADD SSTORE DUP1 RETURN JUMPDEST POP DUP1 DUP6 MSTORE DUP2 DUP4 MSTORE PUSH1 0x40 DUP6 KECCAK256 DUP5 DUP7 MSTORE DUP4 MSTORE PUSH1 0x6 PUSH1 0x40 DUP7 KECCAK256 ADD SLOAD PUSH3 0x3F480 DUP2 ADD DUP1 SWAP2 GT PUSH2 0x8FD JUMPI TIMESTAMP GT PUSH2 0x845 JUMP JUMPDEST PUSH4 0x4E487B71 PUSH1 0xE0 SHL DUP7 MSTORE PUSH1 0x11 PUSH1 0x4 MSTORE PUSH1 0x24 DUP7 REVERT JUMPDEST POP CALLVALUE PUSH2 0x2A2 JUMPI PUSH1 0x60 CALLDATASIZE PUSH1 0x3 NOT ADD SLT PUSH2 0x2A2 JUMPI PUSH1 0x1 PUSH1 0x1 PUSH1 0x40 SHL SUB PUSH1 0x4 CALLDATALOAD DUP2 DUP2 GT PUSH2 0x7EF JUMPI PUSH2 0x943 SWAP1 CALLDATASIZE SWAP1 PUSH1 0x4 ADD PUSH2 0x1FC8 JUMP JUMPDEST PUSH1 0x24 SWAP1 DUP2 CALLDATALOAD DUP4 DUP2 GT PUSH2 0xB8A JUMPI PUSH2 0x95D SWAP1 CALLDATASIZE SWAP1 PUSH1 0x4 ADD PUSH2 0x1FC8 JUMP JUMPDEST SWAP2 PUSH1 0x44 SWAP4 DUP5 CALLDATALOAD SWAP1 DUP2 GT PUSH2 0xB86 JUMPI PUSH2 0x978 SWAP1 CALLDATASIZE SWAP1 PUSH1 0x4 ADD PUSH2 0x1FC8 JUMP JUMPDEST SWAP1 DUP3 MLOAD DUP5 MLOAD DUP2 EQ SWAP1 DUP2 PUSH2 0xB7B JUMPI JUMPDEST POP ISZERO PUSH2 0xB28 JUMPI DUP3 MLOAD SWAP5 DUP7 JUMPDEST DUP7 DUP2 LT PUSH2 0xA2F JUMPI POP POP POP PUSH2 0x9A5 DUP4 DUP4 PUSH2 0x2372 JUMP JUMPDEST DUP5 JUMPDEST DUP5 DUP2 LT PUSH2 0x9B2 JUMPI DUP6 DUP1 RETURN JUMPDEST DUP1 PUSH2 0x9BF PUSH1 0x1 SWAP3 DUP5 PUSH2 0x215B JUMP JUMPDEST MLOAD PUSH2 0x9CA DUP3 DUP7 PUSH2 0x215B JUMP JUMPDEST MLOAD DUP9 MSTORE PUSH1 0x20 PUSH1 0x5 DUP2 MSTORE PUSH1 0x40 DUP10 KECCAK256 SWAP1 PUSH2 0x9E2 DUP5 DUP10 PUSH2 0x215B JUMP JUMPDEST MLOAD DUP11 MSTORE MSTORE PUSH1 0x2 PUSH1 0x40 DUP10 KECCAK256 ADD SSTORE PUSH2 0x9F8 DUP2 DUP6 PUSH2 0x215B JUMP JUMPDEST MLOAD PUSH2 0xA03 DUP3 DUP8 PUSH2 0x215B JUMP JUMPDEST MLOAD SWAP1 PUSH32 0x1C362B7FC7C4865E1E7EDE89F240549BBD8B5EE43B51383C9C0392687D6D10EC DUP10 DUP1 LOG3 ADD PUSH2 0x9A7 JUMP JUMPDEST PUSH2 0xA39 DUP2 DUP7 PUSH2 0x215B JUMP JUMPDEST MLOAD PUSH1 0x40 PUSH2 0xA46 DUP4 DUP10 PUSH2 0x215B JUMP JUMPDEST MLOAD SWAP2 LT SWAP1 DUP2 ISZERO SWAP2 PUSH2 0xB1C JUMPI JUMPDEST POP PUSH2 0xADE JUMPI PUSH2 0xA61 DUP2 DUP7 PUSH2 0x215B JUMP JUMPDEST MLOAD DUP9 MSTORE PUSH1 0x20 PUSH1 0x5 DUP2 MSTORE PUSH1 0x40 DUP10 KECCAK256 PUSH2 0xA78 DUP4 DUP10 PUSH2 0x215B JUMP JUMPDEST MLOAD DUP11 MSTORE DUP2 MSTORE PUSH1 0x40 DUP10 KECCAK256 SLOAD CALLER PUSH1 0x1 PUSH1 0x1 PUSH1 0xA0 SHL SUB SWAP1 SWAP2 AND SUB PUSH2 0xA9C JUMPI POP PUSH1 0x1 ADD PUSH2 0x991 JUMP JUMPDEST PUSH1 0x64 SWAP1 PUSH32 0x6F6E6C79206F776E65722063616E2073657420706978656C2076616C75650000 DUP5 PUSH1 0x1E DUP8 PUSH1 0x40 MLOAD SWAP5 PUSH3 0x461BCD PUSH1 0xE5 SHL DUP7 MSTORE PUSH1 0x4 DUP7 ADD MSTORE DUP5 ADD MSTORE DUP3 ADD MSTORE REVERT JUMPDEST PUSH1 0x40 MLOAD PUSH3 0x461BCD PUSH1 0xE5 SHL DUP2 MSTORE PUSH1 0x20 PUSH1 0x4 DUP3 ADD MSTORE PUSH1 0x18 DUP2 DUP6 ADD MSTORE PUSH24 0x4120706978656C206973206F7574206F6620626F756E6473 PUSH1 0x40 SHL DUP2 DUP5 ADD MSTORE PUSH1 0x64 SWAP1 REVERT JUMPDEST PUSH1 0x40 SWAP2 POP LT ISZERO CODESIZE PUSH2 0xA52 JUMP JUMPDEST PUSH1 0x84 SWAP1 PUSH32 0x696E70757420617272617973206D757374206265206F66207468652073616D65 DUP7 PUSH1 0x27 PUSH1 0x40 MLOAD SWAP4 PUSH3 0x461BCD PUSH1 0xE5 SHL DUP6 MSTORE PUSH1 0x20 PUSH1 0x4 DUP7 ADD MSTORE DUP5 ADD MSTORE DUP3 ADD MSTORE PUSH7 0x40D8CADCCEE8D PUSH1 0xCB SHL PUSH1 0x64 DUP3 ADD MSTORE REVERT JUMPDEST SWAP1 POP DUP3 MLOAD EQ CODESIZE PUSH2 0x986 JUMP JUMPDEST DUP6 DUP1 REVERT JUMPDEST DUP5 DUP1 REVERT JUMPDEST POP CALLVALUE PUSH2 0x2A2 JUMPI PUSH1 0x20 DUP1 PUSH1 0x3 NOT CALLDATASIZE ADD SLT PUSH2 0x31E JUMPI PUSH1 0x4 CALLDATALOAD DUP1 ISZERO ISZERO DUP2 SUB PUSH2 0x7EF JUMPI PUSH1 0x3 SLOAD PUSH3 0x54600 SWAP1 PUSH3 0x3F480 DUP3 PUSH2 0xBC4 DUP4 TIMESTAMP PUSH2 0x2889 JUMP JUMPDEST MOD LT PUSH2 0xD43 JUMPI CALLER DUP6 MSTORE PUSH2 0x1046 DUP5 MSTORE PUSH1 0x40 DUP6 KECCAK256 SLOAD SWAP1 DUP2 ISZERO PUSH2 0xCEE JUMPI DUP3 PUSH2 0xBE9 DUP3 TIMESTAMP PUSH2 0x2889 JUMP JUMPDEST DIV DUP7 MSTORE PUSH2 0x1047 SWAP4 DUP5 DUP7 MSTORE PUSH1 0x2 PUSH1 0x40 DUP9 KECCAK256 ADD CALLER PUSH1 0x0 MSTORE DUP7 MSTORE PUSH1 0xFF PUSH1 0x40 PUSH1 0x0 KECCAK256 SLOAD AND PUSH2 0xCB9 JUMPI DUP4 SWAP2 SWAP1 ISZERO PUSH2 0xC90 JUMPI POP PUSH2 0xC22 PUSH1 0x3 SLOAD TIMESTAMP PUSH2 0x2889 JUMP JUMPDEST DIV DUP6 MSTORE DUP3 DUP5 MSTORE PUSH2 0xC37 PUSH1 0x40 DUP7 KECCAK256 SWAP2 DUP3 SLOAD PUSH2 0x1EE2 JUMP JUMPDEST SWAP1 SSTORE JUMPDEST PUSH2 0xC46 PUSH1 0x3 SLOAD TIMESTAMP PUSH2 0x2889 JUMP JUMPDEST DIV DUP4 MSTORE DUP2 MSTORE PUSH1 0x2 PUSH1 0x40 DUP4 KECCAK256 ADD SWAP1 CALLER PUSH1 0x0 MSTORE MSTORE PUSH1 0x40 PUSH1 0x0 KECCAK256 PUSH1 0x1 PUSH1 0xFF NOT DUP3 SLOAD AND OR SWAP1 SSTORE CALLER PUSH32 0x7CE969A18BB6B0FBA42C6D9746E7D08EECA4C661809659C91D276456E3153AC0 DUP3 DUP1 LOG2 DUP1 RETURN JUMPDEST PUSH2 0xC9A SWAP1 TIMESTAMP PUSH2 0x2889 JUMP JUMPDEST DIV DUP6 MSTORE DUP3 DUP5 MSTORE PUSH2 0xCB2 PUSH1 0x1 PUSH1 0x40 DUP8 KECCAK256 ADD SWAP2 DUP3 SLOAD PUSH2 0x1EE2 JUMP JUMPDEST SWAP1 SSTORE PUSH2 0xC3A JUMP JUMPDEST PUSH1 0x40 MLOAD PUSH3 0x461BCD PUSH1 0xE5 SHL DUP2 MSTORE PUSH1 0x4 DUP2 ADD DUP8 SWAP1 MSTORE PUSH1 0xD PUSH1 0x24 DUP3 ADD MSTORE PUSH13 0x185B1C9958591E481D9BDD1959 PUSH1 0x9A SHL PUSH1 0x44 DUP3 ADD MSTORE PUSH1 0x64 SWAP1 REVERT JUMPDEST PUSH1 0x40 MLOAD PUSH3 0x461BCD PUSH1 0xE5 SHL DUP2 MSTORE PUSH1 0x4 DUP2 ADD DUP7 SWAP1 MSTORE PUSH1 0x27 PUSH1 0x24 DUP3 ADD MSTORE PUSH32 0x6E6F20706978656C73206F776E6564203D206E6F20766F74657320746F206265 PUSH1 0x44 DUP3 ADD MSTORE PUSH7 0x818D85CDD1959 PUSH1 0xCA SHL PUSH1 0x64 DUP3 ADD MSTORE PUSH1 0x84 SWAP1 REVERT JUMPDEST PUSH1 0x40 MLOAD PUSH3 0x461BCD PUSH1 0xE5 SHL DUP2 MSTORE PUSH1 0x4 DUP2 ADD DUP6 SWAP1 MSTORE PUSH1 0x19 PUSH1 0x24 DUP3 ADD MSTORE PUSH25 0x2B37BA34B7339031BAB93932B73A363C903737BA1037B832B7 PUSH1 0x39 SHL PUSH1 0x44 DUP3 ADD MSTORE PUSH1 0x64 SWAP1 REVERT JUMPDEST POP CALLVALUE PUSH2 0x2A2 JUMPI PUSH2 0xD93 CALLDATASIZE PUSH2 0x2026 JUMP JUMPDEST PUSH2 0xDA0 DUP3 MLOAD DUP3 MLOAD EQ PUSH2 0x22D8 JUMP JUMPDEST DUP2 MLOAD SWAP1 DUP4 JUMPDEST DUP3 DUP2 LT PUSH2 0xDB0 JUMPI DUP5 DUP1 RETURN JUMPDEST PUSH2 0xDBA DUP2 DUP6 PUSH2 0x215B JUMP JUMPDEST MLOAD PUSH1 0x40 PUSH2 0xDC7 DUP4 DUP6 PUSH2 0x215B JUMP JUMPDEST MLOAD SWAP2 LT SWAP1 DUP2 ISZERO SWAP2 PUSH2 0x14FF JUMPI JUMPDEST POP PUSH2 0x14E2 JUMPI PUSH2 0xDE2 DUP2 DUP6 PUSH2 0x215B JUMP JUMPDEST MLOAD DUP6 MSTORE PUSH1 0x5 PUSH1 0x20 SWAP1 DUP1 DUP3 MSTORE PUSH1 0x40 DUP8 KECCAK256 PUSH2 0xDFB DUP5 DUP7 PUSH2 0x215B JUMP JUMPDEST MLOAD DUP9 MSTORE DUP3 MSTORE PUSH1 0x40 DUP8 KECCAK256 SLOAD PUSH1 0x1 PUSH1 0x1 PUSH1 0xA0 SHL SUB SWAP1 DUP2 AND PUSH2 0xEBF JUMPI POP SWAP1 PUSH2 0x1046 SWAP2 PUSH2 0xE24 DUP5 DUP9 PUSH2 0x215B JUMP JUMPDEST MLOAD DUP9 MSTORE DUP2 MSTORE PUSH1 0x40 DUP8 KECCAK256 PUSH2 0xE37 DUP5 DUP7 PUSH2 0x215B JUMP JUMPDEST MLOAD DUP9 MSTORE DUP2 MSTORE PUSH1 0x40 DUP8 KECCAK256 CALLER PUSH1 0x1 DUP1 PUSH1 0xA0 SHL SUB NOT DUP3 SLOAD AND OR SWAP1 SSTORE CALLER DUP8 MSTORE MSTORE PUSH1 0x40 DUP6 KECCAK256 DUP1 SLOAD SWAP1 PUSH1 0x1 DUP3 ADD DUP1 SWAP3 GT PUSH2 0xEAB JUMPI SSTORE PUSH1 0x1 SWAP1 JUMPDEST PUSH2 0xE74 DUP2 DUP7 PUSH2 0x215B JUMP JUMPDEST MLOAD PUSH2 0xE7F DUP3 DUP6 PUSH2 0x215B JUMP JUMPDEST MLOAD SWAP1 PUSH32 0xEE0E9A85D097F632450E6AC08750207C8F039246EE437B10EAF708B397D00AD8 DUP9 DUP1 LOG3 ADD PUSH2 0xDA5 JUMP JUMPDEST PUSH4 0x4E487B71 PUSH1 0xE0 SHL DUP8 MSTORE PUSH1 0x11 PUSH1 0x4 MSTORE PUSH1 0x24 DUP8 REVERT JUMPDEST PUSH2 0xEDE PUSH2 0xECC DUP6 DUP10 PUSH2 0x215B JUMP JUMPDEST MLOAD PUSH2 0xED7 DUP7 DUP9 PUSH2 0x215B JUMP JUMPDEST MLOAD SWAP1 PUSH2 0x2A06 JUMP JUMPDEST SWAP1 PUSH2 0xEE9 DUP6 DUP10 PUSH2 0x215B JUMP JUMPDEST MLOAD DUP10 MSTORE DUP3 DUP5 MSTORE PUSH1 0x40 DUP10 KECCAK256 PUSH2 0xEFD DUP7 DUP9 PUSH2 0x215B JUMP JUMPDEST MLOAD DUP11 MSTORE DUP5 MSTORE DUP2 PUSH1 0x2 PUSH1 0x40 DUP12 KECCAK256 ADD SLOAD GT PUSH1 0x0 EQ PUSH2 0x1288 JUMPI PUSH2 0xF1D DUP6 DUP10 PUSH2 0x215B JUMP JUMPDEST MLOAD DUP10 MSTORE DUP3 DUP5 MSTORE PUSH1 0x40 DUP10 KECCAK256 PUSH2 0xF31 DUP7 DUP9 PUSH2 0x215B JUMP JUMPDEST MLOAD DUP11 MSTORE DUP5 MSTORE DUP9 PUSH2 0xF48 DUP4 PUSH1 0x2 PUSH1 0x40 DUP5 KECCAK256 ADD SLOAD PUSH2 0x2889 JUMP JUMPDEST SWAP3 DUP3 PUSH1 0x4 SLOAD AND PUSH1 0x40 MLOAD PUSH4 0x70A08231 PUSH1 0xE0 SHL DUP2 MSTORE CALLER PUSH1 0x4 DUP3 ADD MSTORE DUP8 DUP2 PUSH1 0x24 DUP2 DUP6 GAS STATICCALL SWAP1 DUP2 ISZERO PUSH2 0x1245 JUMPI DUP13 DUP11 SWAP2 DUP7 SWAP4 PUSH2 0x1250 JUMPI JUMPDEST POP PUSH2 0xFB0 SWAP3 SWAP2 PUSH2 0xF89 SWAP2 PUSH2 0x215B JUMP JUMPDEST MLOAD DUP6 MSTORE DUP8 DUP10 MSTORE PUSH1 0x40 DUP6 KECCAK256 PUSH2 0xF9D DUP12 DUP14 PUSH2 0x215B JUMP JUMPDEST MLOAD DUP7 MSTORE DUP10 MSTORE PUSH1 0x2 PUSH1 0x40 DUP7 KECCAK256 ADD SLOAD LT PUSH2 0x27D9 JUMP JUMPDEST PUSH1 0x40 MLOAD PUSH4 0x6EB1769F PUSH1 0xE1 SHL DUP2 MSTORE CALLER PUSH1 0x4 DUP3 ADD MSTORE ADDRESS PUSH1 0x24 DUP3 ADD MSTORE SWAP1 DUP8 DUP3 PUSH1 0x44 DUP2 DUP5 GAS STATICCALL DUP1 ISZERO PUSH2 0x1245 JUMPI DUP13 DUP11 SWAP2 DUP13 DUP12 SWAP6 DUP9 SWAP3 PUSH2 0x1203 JUMPI JUMPDEST POP SWAP2 PUSH2 0x1026 DUP5 SWAP3 PUSH2 0x102B SWAP5 PUSH2 0xFFE PUSH2 0x106B SWAP9 SWAP8 DUP6 PUSH2 0x215B JUMP JUMPDEST MLOAD DUP12 MSTORE DUP14 DUP10 MSTORE PUSH2 0x1012 DUP6 PUSH1 0x40 DUP14 KECCAK256 SWAP3 PUSH2 0x215B JUMP JUMPDEST MLOAD DUP12 MSTORE DUP9 MSTORE PUSH1 0x2 PUSH1 0x40 DUP12 KECCAK256 ADD SLOAD GT ISZERO PUSH2 0x2831 JUMP JUMPDEST PUSH2 0x215B JUMP JUMPDEST MLOAD DUP6 MSTORE DUP8 DUP4 MSTORE PUSH1 0x40 DUP6 KECCAK256 PUSH2 0x103F DUP12 DUP14 PUSH2 0x215B JUMP JUMPDEST MLOAD DUP7 MSTORE DUP4 MSTORE DUP6 PUSH1 0x40 DUP7 KECCAK256 SLOAD AND SWAP7 PUSH1 0x40 MLOAD SWAP6 DUP7 DUP1 SWAP5 DUP2 SWAP4 PUSH4 0x23B872DD PUSH1 0xE0 SHL SWAP12 DUP13 DUP5 MSTORE CALLER PUSH1 0x4 DUP6 ADD PUSH2 0x2350 JUMP JUMPDEST SUB SWAP3 GAS CALL SWAP1 DUP2 ISZERO PUSH2 0x11F8 JUMPI PUSH2 0x10A6 SWAP3 DUP8 SWAP3 PUSH2 0x11DB JUMPI JUMPDEST POP DUP4 PUSH1 0x4 SLOAD AND PUSH1 0x1 SWAP6 DUP14 DUP7 DUP9 SLOAD AND SWAP2 PUSH1 0x40 MLOAD SWAP7 DUP8 SWAP6 DUP7 SWAP5 DUP6 SWAP4 DUP5 MSTORE CALLER PUSH1 0x4 DUP6 ADD PUSH2 0x2350 JUMP JUMPDEST SUB SWAP3 GAS CALL DUP1 ISZERO PUSH2 0x11D0 JUMPI PUSH2 0x11A3 JUMPI JUMPDEST POP PUSH2 0x10C0 DUP6 DUP10 PUSH2 0x215B JUMP JUMPDEST MLOAD DUP10 MSTORE DUP3 DUP5 MSTORE PUSH1 0x40 DUP10 KECCAK256 PUSH2 0x10D4 DUP7 DUP9 PUSH2 0x215B JUMP JUMPDEST MLOAD DUP11 MSTORE DUP5 MSTORE PUSH1 0x40 DUP10 KECCAK256 SLOAD AND DUP9 MSTORE PUSH2 0x1046 DUP1 DUP5 MSTORE PUSH1 0x40 DUP10 KECCAK256 DUP1 SLOAD SWAP1 PUSH1 0x0 NOT DUP3 ADD SWAP2 DUP3 GT PUSH2 0x118F JUMPI SSTORE CALLER DUP10 MSTORE DUP4 MSTORE PUSH1 0x40 DUP9 KECCAK256 DUP1 SLOAD SWAP2 DUP3 ADD DUP1 SWAP3 GT PUSH2 0x117B JUMPI SSTORE PUSH1 0x1 SWAP3 SWAP2 SWAP1 PUSH2 0x1120 DUP4 DUP9 PUSH2 0x215B JUMP JUMPDEST MLOAD DUP9 MSTORE DUP1 DUP3 MSTORE PUSH1 0x40 DUP9 KECCAK256 PUSH2 0x1134 DUP5 DUP8 PUSH2 0x215B JUMP JUMPDEST MLOAD DUP10 MSTORE DUP3 MSTORE PUSH1 0x40 DUP9 KECCAK256 CALLER DUP6 DUP1 PUSH1 0xA0 SHL SUB NOT DUP3 SLOAD AND OR SWAP1 SSTORE PUSH2 0x1155 DUP4 DUP9 PUSH2 0x215B JUMP JUMPDEST MLOAD DUP9 MSTORE DUP2 MSTORE PUSH1 0x40 DUP8 KECCAK256 SWAP1 PUSH2 0x1169 DUP4 DUP7 PUSH2 0x215B JUMP JUMPDEST MLOAD DUP9 MSTORE MSTORE TIMESTAMP PUSH1 0x4 PUSH1 0x40 DUP9 KECCAK256 ADD SSTORE PUSH2 0xE6A JUMP JUMPDEST PUSH4 0x4E487B71 PUSH1 0xE0 SHL DUP10 MSTORE PUSH1 0x11 PUSH1 0x4 MSTORE PUSH1 0x24 DUP10 REVERT JUMPDEST PUSH4 0x4E487B71 PUSH1 0xE0 SHL DUP12 MSTORE PUSH1 0x11 PUSH1 0x4 MSTORE PUSH1 0x24 DUP12 REVERT JUMPDEST PUSH2 0x11C2 SWAP1 DUP6 RETURNDATASIZE DUP8 GT PUSH2 0x11C9 JUMPI JUMPDEST PUSH2 0x11BA DUP2 DUP4 PUSH2 0x1F59 JUMP JUMPDEST DUP2 ADD SWAP1 PUSH2 0x2338 JUMP JUMPDEST POP CODESIZE PUSH2 0x10B5 JUMP JUMPDEST POP RETURNDATASIZE PUSH2 0x11B0 JUMP JUMPDEST PUSH1 0x40 MLOAD RETURNDATASIZE DUP13 DUP3 RETURNDATACOPY RETURNDATASIZE SWAP1 REVERT JUMPDEST PUSH2 0x11F1 SWAP1 DUP4 RETURNDATASIZE DUP6 GT PUSH2 0x11C9 JUMPI PUSH2 0x11BA DUP2 DUP4 PUSH2 0x1F59 JUMP JUMPDEST POP CODESIZE PUSH2 0x1081 JUMP JUMPDEST PUSH1 0x40 MLOAD RETURNDATASIZE DUP14 DUP3 RETURNDATACOPY RETURNDATASIZE SWAP1 REVERT JUMPDEST SWAP8 POP POP POP POP POP SWAP1 DUP4 DUP2 RETURNDATASIZE DUP4 GT PUSH2 0x123E JUMPI JUMPDEST PUSH2 0x121E DUP2 DUP4 PUSH2 0x1F59 JUMP JUMPDEST DUP2 ADD SUB SLT PUSH2 0x1239 JUMPI SWAP2 MLOAD DUP12 SWAP3 DUP8 SWAP2 DUP10 SWAP1 DUP14 SWAP1 DUP13 PUSH2 0x1026 PUSH2 0xFE5 JUMP JUMPDEST PUSH1 0x0 DUP1 REVERT JUMPDEST POP RETURNDATASIZE PUSH2 0x1214 JUMP JUMPDEST PUSH1 0x40 MLOAD RETURNDATASIZE DUP7 DUP3 RETURNDATACOPY RETURNDATASIZE SWAP1 REVERT JUMPDEST SWAP6 POP POP POP POP DUP7 DUP4 DUP2 RETURNDATASIZE DUP4 GT PUSH2 0x1281 JUMPI JUMPDEST PUSH2 0x126A DUP2 DUP4 PUSH2 0x1F59 JUMP JUMPDEST DUP2 ADD SUB SLT PUSH2 0x1239 JUMPI SWAP2 MLOAD DUP12 SWAP3 SWAP1 DUP9 DUP13 PUSH2 0xF89 PUSH2 0xF7A JUMP JUMPDEST POP RETURNDATASIZE PUSH2 0x1260 JUMP JUMPDEST DUP1 SWAP9 SWAP8 SWAP7 SWAP6 SWAP5 SWAP4 SWAP3 SWAP2 POP PUSH1 0x4 SLOAD AND SWAP8 PUSH1 0x40 MLOAD SWAP9 PUSH4 0x70A08231 PUSH1 0xE0 SHL DUP11 MSTORE CALLER PUSH1 0x4 DUP12 ADD MSTORE PUSH1 0x24 SWAP10 DUP5 DUP2 DUP13 DUP2 DUP6 GAS STATICCALL DUP1 ISZERO PUSH2 0x11D0 JUMPI DUP11 SWAP1 PUSH2 0x14B3 JUMPI JUMPDEST PUSH2 0x12F8 SWAP2 POP PUSH2 0x12D1 DUP8 DUP12 PUSH2 0x215B JUMP JUMPDEST MLOAD DUP12 MSTORE DUP5 DUP7 MSTORE PUSH1 0x40 DUP12 KECCAK256 PUSH2 0x12E5 DUP9 DUP11 PUSH2 0x215B JUMP JUMPDEST MLOAD DUP13 MSTORE DUP7 MSTORE PUSH1 0x2 PUSH1 0x40 DUP13 KECCAK256 ADD SLOAD LT PUSH2 0x27D9 JUMP JUMPDEST PUSH1 0x40 MLOAD PUSH4 0x6EB1769F PUSH1 0xE1 SHL DUP2 MSTORE CALLER PUSH1 0x4 DUP3 ADD MSTORE ADDRESS PUSH1 0x24 DUP3 ADD MSTORE DUP5 DUP2 PUSH1 0x44 DUP2 DUP6 GAS STATICCALL SWAP1 DUP2 ISZERO PUSH2 0x11D0 JUMPI DUP11 SWAP4 SWAP3 DUP7 SWAP3 DUP12 SWAP3 DUP7 SWAP2 PUSH2 0x147A JUMPI JUMPDEST POP SWAP1 PUSH2 0x136B DUP4 SWAP3 PUSH2 0x1343 DUP12 PUSH2 0x13BA SWAP8 SWAP7 PUSH2 0x215B JUMP JUMPDEST MLOAD DUP9 MSTORE DUP9 DUP6 MSTORE PUSH1 0x40 DUP9 KECCAK256 PUSH2 0x1357 DUP13 DUP15 PUSH2 0x215B JUMP JUMPDEST MLOAD DUP10 MSTORE DUP6 MSTORE PUSH1 0x2 PUSH1 0x40 DUP10 KECCAK256 ADD SLOAD GT ISZERO PUSH2 0x2831 JUMP JUMPDEST PUSH1 0x2 PUSH1 0x40 PUSH1 0x1 SWAP8 PUSH2 0x1380 DUP13 DUP10 DUP12 SLOAD AND SWAP7 PUSH2 0x215B JUMP JUMPDEST MLOAD DUP2 MSTORE DUP10 DUP7 MSTORE DUP2 DUP2 KECCAK256 PUSH2 0x1393 DUP14 DUP16 PUSH2 0x215B JUMP JUMPDEST MLOAD DUP3 MSTORE DUP7 MSTORE KECCAK256 ADD SLOAD SWAP2 DUP14 PUSH1 0x40 MLOAD DUP1 SWAP7 DUP2 SWAP6 DUP3 SWAP5 PUSH4 0x23B872DD PUSH1 0xE0 SHL DUP5 MSTORE CALLER PUSH1 0x4 DUP6 ADD PUSH2 0x2350 JUMP JUMPDEST SUB SWAP3 GAS CALL DUP1 ISZERO PUSH2 0x11D0 JUMPI PUSH2 0x145D JUMPI JUMPDEST POP PUSH2 0x13D4 DUP6 DUP10 PUSH2 0x215B JUMP JUMPDEST MLOAD DUP10 MSTORE DUP3 DUP5 MSTORE PUSH1 0x40 DUP10 KECCAK256 PUSH2 0x13E8 DUP7 DUP9 PUSH2 0x215B JUMP JUMPDEST MLOAD DUP11 MSTORE DUP5 MSTORE PUSH1 0x40 DUP10 KECCAK256 SLOAD AND DUP9 MSTORE PUSH2 0x1046 DUP1 DUP5 MSTORE PUSH1 0x40 DUP10 KECCAK256 DUP1 SLOAD SWAP1 PUSH1 0x0 NOT DUP3 ADD SWAP2 DUP3 GT PUSH2 0x144A JUMPI SSTORE CALLER DUP10 MSTORE DUP4 MSTORE PUSH1 0x40 DUP9 KECCAK256 DUP1 SLOAD SWAP2 DUP3 ADD DUP1 SWAP3 GT PUSH2 0x1437 JUMPI PUSH1 0x1 SWAP6 SWAP7 SWAP8 SWAP9 SWAP10 POP SSTORE PUSH2 0x1120 DUP4 DUP9 PUSH2 0x215B JUMP JUMPDEST PUSH4 0x4E487B71 PUSH1 0xE0 SHL DUP10 MSTORE PUSH1 0x11 PUSH1 0x4 MSTORE DUP10 DUP10 REVERT JUMPDEST PUSH4 0x4E487B71 PUSH1 0xE0 SHL DUP12 MSTORE PUSH1 0x11 PUSH1 0x4 MSTORE DUP12 DUP12 REVERT JUMPDEST PUSH2 0x1473 SWAP1 DUP6 RETURNDATASIZE DUP8 GT PUSH2 0x11C9 JUMPI PUSH2 0x11BA DUP2 DUP4 PUSH2 0x1F59 JUMP JUMPDEST POP CODESIZE PUSH2 0x13C9 JUMP JUMPDEST SWAP4 SWAP3 POP POP SWAP4 POP DUP2 DUP2 RETURNDATASIZE DUP4 GT PUSH2 0x14AC JUMPI JUMPDEST PUSH2 0x1494 DUP2 DUP4 PUSH2 0x1F59 JUMP JUMPDEST DUP2 ADD SUB SLT PUSH2 0x1239 JUMPI MLOAD DUP10 SWAP3 DUP6 SWAP2 DUP11 SWAP2 SWAP1 PUSH2 0x136B PUSH2 0x132E JUMP JUMPDEST POP RETURNDATASIZE PUSH2 0x148A JUMP JUMPDEST POP DUP5 DUP2 DUP2 RETURNDATASIZE DUP4 GT PUSH2 0x14DB JUMPI JUMPDEST PUSH2 0x14C9 DUP2 DUP4 PUSH2 0x1F59 JUMP JUMPDEST DUP2 ADD SUB SLT PUSH2 0x1239 JUMPI PUSH2 0x12F8 SWAP1 MLOAD PUSH2 0x12C2 JUMP JUMPDEST POP RETURNDATASIZE PUSH2 0x14BF JUMP JUMPDEST PUSH1 0x40 MLOAD PUSH3 0x461BCD PUSH1 0xE5 SHL DUP2 MSTORE DUP1 PUSH2 0x14FB PUSH1 0x4 DUP3 ADD PUSH2 0x2185 JUMP JUMPDEST SUB SWAP1 REVERT JUMPDEST PUSH1 0x40 SWAP2 POP LT ISZERO CODESIZE PUSH2 0xDD3 JUMP JUMPDEST PUSH2 0x1F05 JUMP JUMPDEST PUSH2 0x1FAC JUMP JUMPDEST POP CALLVALUE PUSH2 0x2A2 JUMPI PUSH1 0x20 CALLDATASIZE PUSH1 0x3 NOT ADD SLT PUSH2 0x2A2 JUMPI PUSH1 0x4 CALLDATALOAD PUSH1 0x1 PUSH1 0x1 PUSH1 0xA0 SHL SUB DUP2 DUP2 AND SWAP2 DUP3 SWAP1 SUB PUSH2 0x7EF JUMPI PUSH2 0x154C SWAP1 PUSH1 0x1 SLOAD AND CALLER EQ PUSH2 0x2896 JUMP JUMPDEST PUSH1 0x4 DUP1 SLOAD PUSH1 0x1 PUSH1 0x1 PUSH1 0xA0 SHL SUB NOT AND SWAP2 SWAP1 SWAP2 OR SWAP1 SSTORE DUP1 RETURN JUMPDEST POP CALLVALUE PUSH2 0x2A2 JUMPI PUSH1 0x20 SWAP1 DUP2 PUSH1 0x3 NOT CALLDATASIZE ADD SLT PUSH2 0x2A2 JUMPI PUSH1 0x4 CALLDATALOAD SWAP2 PUSH3 0x54600 PUSH2 0x158B PUSH1 0x3 SLOAD TIMESTAMP PUSH2 0x2889 JUMP JUMPDEST DIV DUP4 LT ISZERO PUSH2 0x1738 JUMPI DUP3 DUP3 MSTORE PUSH2 0x1047 DUP1 DUP3 MSTORE PUSH2 0x15B0 PUSH1 0x40 DUP5 KECCAK256 PUSH1 0x1 DUP2 SLOAD SWAP2 ADD SLOAD SWAP1 PUSH2 0x1EE2 JUMP JUMPDEST SWAP1 DUP2 ISZERO PUSH2 0x1703 JUMPI DUP5 DUP5 MSTORE DUP3 MSTORE PUSH1 0x40 DUP4 KECCAK256 SLOAD SWAP1 PUSH1 0x1 SHR LT PUSH2 0x15CE JUMPI POP DUP1 RETURN JUMPDEST DUP2 SLOAD PUSH1 0x1 SLOAD PUSH1 0x1 PUSH1 0x1 PUSH1 0xA0 SHL SUB SWAP5 SWAP2 DUP6 AND SWAP1 DUP6 AND DUP2 EXTCODESIZE ISZERO PUSH2 0xB8A JUMPI DUP5 SWAP2 PUSH1 0x24 DUP4 SWAP3 PUSH1 0x40 MLOAD SWAP5 DUP6 SWAP4 DUP5 SWAP3 PUSH4 0x35313C21 PUSH1 0xE1 SHL DUP5 MSTORE PUSH1 0x4 DUP5 ADD MSTORE GAS CALL DUP1 ISZERO PUSH2 0x1245 JUMPI PUSH2 0x16D2 JUMPI JUMPDEST POP DUP2 PUSH1 0x4 SWAP5 DUP5 SLOAD AND PUSH1 0x40 MLOAD SWAP6 DUP7 DUP1 SWAP3 PUSH4 0x18160DDD PUSH1 0xE0 SHL DUP3 MSTORE GAS STATICCALL SWAP4 DUP5 ISZERO PUSH2 0x16C7 JUMPI DUP4 SWAP5 PUSH2 0x1698 JUMPI JUMPDEST POP PUSH1 0x0 NOT DUP5 ADD SWAP4 DUP5 GT PUSH2 0x1684 JUMPI DUP3 SWAP4 PUSH32 0xD9DC24857F317ED9ABBBB42E920EDE0104231EB1D3D70236A74887FFAF159868 SWAP4 MSTORE PUSH2 0x1048 DUP3 MSTORE TIMESTAMP PUSH1 0x40 DUP6 KECCAK256 SSTORE PUSH1 0x40 MLOAD SWAP1 DUP2 MSTORE LOG1 DUP1 DUP1 RETURN JUMPDEST PUSH4 0x4E487B71 PUSH1 0xE0 SHL DUP4 MSTORE PUSH1 0x11 PUSH1 0x4 MSTORE PUSH1 0x24 DUP4 REVERT JUMPDEST SWAP1 SWAP4 POP DUP2 DUP2 DUP2 RETURNDATASIZE DUP4 GT PUSH2 0x16C0 JUMPI JUMPDEST PUSH2 0x16B0 DUP2 DUP4 PUSH2 0x1F59 JUMP JUMPDEST DUP2 ADD SUB SLT PUSH2 0x1239 JUMPI MLOAD SWAP3 CODESIZE PUSH2 0x163C JUMP JUMPDEST POP RETURNDATASIZE PUSH2 0x16A6 JUMP JUMPDEST PUSH1 0x40 MLOAD RETURNDATASIZE DUP6 DUP3 RETURNDATACOPY RETURNDATASIZE SWAP1 REVERT JUMPDEST PUSH1 0x1 PUSH1 0x1 PUSH1 0x40 SHL SUB DUP2 SWAP6 SWAP5 SWAP6 GT PUSH2 0x16EF JUMPI PUSH1 0x40 MSTORE SWAP2 SWAP3 SWAP2 DUP2 PUSH2 0x1613 JUMP JUMPDEST PUSH4 0x4E487B71 PUSH1 0xE0 SHL DUP6 MSTORE PUSH1 0x41 PUSH1 0x4 MSTORE PUSH1 0x24 DUP6 REVERT JUMPDEST PUSH1 0x40 MLOAD PUSH3 0x461BCD PUSH1 0xE5 SHL DUP2 MSTORE PUSH1 0x4 DUP2 ADD DUP5 SWAP1 MSTORE PUSH1 0xD PUSH1 0x24 DUP3 ADD MSTORE PUSH13 0x139BC81D9BDD195CC818D85CDD PUSH1 0x9A SHL PUSH1 0x44 DUP3 ADD MSTORE PUSH1 0x64 SWAP1 REVERT JUMPDEST PUSH1 0x84 SWAP1 PUSH1 0x40 MLOAD SWAP1 PUSH3 0x461BCD PUSH1 0xE5 SHL DUP3 MSTORE PUSH1 0x4 DUP3 ADD MSTORE PUSH1 0x36 PUSH1 0x24 DUP3 ADD MSTORE PUSH32 0x636865636B20766F7465206F7574636F6D6573206F6E6C7920706F737369626C PUSH1 0x44 DUP3 ADD MSTORE PUSH22 0x6520666F7220636F6E636C75646564206379636C6573 PUSH1 0x50 SHL PUSH1 0x64 DUP3 ADD MSTORE REVERT JUMPDEST POP CALLVALUE PUSH2 0x2A2 JUMPI DUP1 PUSH1 0x3 NOT CALLDATASIZE ADD SLT PUSH2 0x2A2 JUMPI PUSH1 0x20 PUSH3 0x3F480 PUSH3 0x54600 PUSH2 0x17C2 PUSH1 0x3 SLOAD TIMESTAMP PUSH2 0x2889 JUMP JUMPDEST MOD LT PUSH1 0x40 MLOAD SWAP1 DUP2 MSTORE RETURN JUMPDEST POP CALLVALUE PUSH2 0x2A2 JUMPI DUP1 PUSH1 0x3 NOT CALLDATASIZE ADD SLT PUSH2 0x2A2 JUMPI PUSH1 0x1 SLOAD PUSH1 0x40 MLOAD PUSH1 0x1 PUSH1 0x1 PUSH1 0xA0 SHL SUB SWAP1 SWAP2 AND DUP2 MSTORE PUSH1 0x20 SWAP1 RETURN JUMPDEST POP CALLVALUE PUSH2 0x2A2 JUMPI PUSH1 0x20 CALLDATASIZE PUSH1 0x3 NOT ADD SLT PUSH2 0x2A2 JUMPI PUSH1 0x4 CALLDATALOAD PUSH1 0x1 PUSH1 0x1 PUSH1 0x40 SHL SUB DUP2 GT PUSH2 0x31E JUMPI CALLDATASIZE PUSH1 0x23 DUP3 ADD SLT ISZERO PUSH2 0x31E JUMPI DUP1 PUSH1 0x4 ADD CALLDATALOAD SWAP1 PUSH2 0x1832 DUP3 PUSH2 0x1F7A JUMP JUMPDEST SWAP2 PUSH2 0x1840 PUSH1 0x40 MLOAD SWAP4 DUP5 PUSH2 0x1F59 JUMP JUMPDEST DUP1 DUP4 MSTORE PUSH1 0x24 PUSH1 0x20 DUP5 ADD SWAP2 PUSH1 0x5 SHL DUP4 ADD ADD SWAP2 CALLDATASIZE DUP4 GT PUSH2 0xB8A JUMPI PUSH1 0x24 DUP2 ADD SWAP2 JUMPDEST DUP4 DUP4 LT PUSH2 0x1CDC JUMPI DUP6 DUP6 PUSH3 0x3F480 PUSH3 0x54600 PUSH2 0x187B PUSH1 0x3 SLOAD TIMESTAMP PUSH2 0x2889 JUMP JUMPDEST MOD LT ISZERO PUSH2 0x1C8C JUMPI DUP1 MLOAD SWAP1 PUSH1 0x40 MLOAD SWAP1 PUSH2 0x820 DUP3 ADD DUP3 DUP2 LT PUSH1 0x1 PUSH1 0x1 PUSH1 0x40 SHL SUB DUP3 GT OR PUSH2 0x16EF JUMPI PUSH1 0x40 MSTORE PUSH1 0x40 DUP3 MSTORE PUSH2 0x800 CALLDATASIZE PUSH1 0x20 DUP5 ADD CALLDATACOPY DUP4 JUMPDEST DUP4 DUP2 LT PUSH2 0x1994 JUMPI DUP5 DUP4 DUP2 JUMPDEST PUSH1 0x40 DUP2 LT PUSH2 0x18C9 JUMPI DUP3 DUP1 RETURN JUMPDEST PUSH2 0x18D3 DUP2 DUP4 PUSH2 0x215B JUMP JUMPDEST MLOAD PUSH2 0x18E1 JUMPI JUMPDEST PUSH1 0x1 ADD PUSH2 0x18BD JUMP JUMPDEST PUSH1 0x40 MLOAD PUSH2 0x18ED DUP2 PUSH2 0x1F3E JUMP JUMPDEST DUP4 DUP2 MSTORE PUSH1 0x6 DUP3 DUP2 SHL PUSH1 0x1 PUSH1 0x1 PUSH1 0xFA SHL SUB DUP5 AND DUP5 SUB PUSH2 0x8FD JUMPI DUP1 PUSH1 0x40 ADD SWAP1 DUP2 PUSH1 0x40 GT PUSH2 0xEAB JUMPI SWAP2 SWAP1 JUMPDEST DUP1 DUP4 LT PUSH2 0x1937 JUMPI POP POP POP SWAP1 PUSH2 0x1930 PUSH1 0x1 SWAP3 DUP3 PUSH2 0x1006 ADD PUSH2 0x21B6 JUMP JUMPDEST SWAP1 POP PUSH2 0x18D9 JUMP JUMPDEST SWAP1 SWAP2 SWAP3 PUSH2 0x1000 DUP5 LT ISZERO PUSH2 0x1980 JUMPI PUSH1 0x20 PUSH2 0x1973 PUSH2 0x1979 SWAP3 PUSH2 0x78D PUSH1 0x40 MLOAD SWAP4 DUP3 PUSH2 0x1968 DUP7 SWAP5 MLOAD DUP1 SWAP3 DUP5 DUP1 DUP9 ADD SWAP2 ADD PUSH2 0x1E3E JUMP JUMPDEST DUP4 ADD ADD DUP9 DUP9 ADD PUSH2 0x31C0 JUMP JUMPDEST SWAP4 PUSH2 0x214C JUMP JUMPDEST SWAP2 SWAP1 PUSH2 0x1915 JUMP JUMPDEST PUSH4 0x4E487B71 PUSH1 0xE0 SHL DUP8 MSTORE PUSH1 0x32 PUSH1 0x4 MSTORE PUSH1 0x24 DUP8 REVERT JUMPDEST PUSH2 0x199E DUP2 DUP4 PUSH2 0x215B JUMP JUMPDEST MLOAD DUP1 MLOAD DUP2 ADD DUP2 PUSH1 0x20 DUP3 ADD SWAP2 PUSH1 0x80 SWAP2 DUP3 SWAP2 SUB SLT PUSH2 0x1C88 JUMPI PUSH1 0x20 DUP4 ADD MLOAD SWAP2 PUSH1 0x40 DUP5 ADD MLOAD SWAP4 PUSH1 0x60 DUP2 ADD MLOAD SWAP3 DUP2 ADD MLOAD SWAP1 PUSH1 0x1 PUSH1 0x1 PUSH1 0x40 SHL SUB DUP3 GT PUSH2 0x1C80 JUMPI ADD DUP2 PUSH1 0x3F DUP3 ADD SLT ISZERO PUSH2 0x1C84 JUMPI PUSH1 0x20 DUP2 ADD MLOAD PUSH2 0x19F2 DUP2 PUSH2 0x1F91 JUMP JUMPDEST SWAP3 PUSH2 0x1A00 PUSH1 0x40 MLOAD SWAP5 DUP6 PUSH2 0x1F59 JUMP JUMPDEST DUP2 DUP5 MSTORE PUSH1 0x40 DUP3 DUP5 ADD ADD GT PUSH2 0x1C80 JUMPI PUSH2 0x1A1F SWAP2 PUSH1 0x40 PUSH1 0x20 DUP6 ADD SWAP2 ADD PUSH2 0x1E3E JUMP JUMPDEST PUSH1 0x40 DUP4 LT DUP1 ISZERO SWAP1 PUSH2 0x1C75 JUMPI JUMPDEST PUSH2 0x14E2 JUMPI PUSH1 0xA DUP3 LT ISZERO PUSH2 0x1C37 JUMPI DUP3 DUP10 MSTORE PUSH1 0x5 PUSH1 0x20 MSTORE PUSH1 0x40 DUP10 KECCAK256 DUP5 DUP11 MSTORE PUSH1 0x20 MSTORE PUSH1 0xFF PUSH1 0x5 PUSH1 0x40 DUP12 KECCAK256 ADD SLOAD AND PUSH2 0x1BDA JUMPI DUP3 DUP10 MSTORE PUSH1 0x5 PUSH1 0x20 SWAP1 DUP2 MSTORE PUSH1 0x40 DUP1 DUP12 KECCAK256 DUP7 DUP13 MSTORE SWAP1 SWAP2 MSTORE DUP10 KECCAK256 SLOAD PUSH1 0x1 PUSH1 0x1 PUSH1 0xA0 SHL SUB AND CALLER EQ PUSH2 0x1A93 JUMPI JUMPDEST POP POP POP POP PUSH2 0x1A8E SWAP1 PUSH2 0x214C JUMP JUMPDEST PUSH2 0x18B2 JUMP JUMPDEST PUSH2 0x1AB5 SWAP1 DUP4 DUP11 MSTORE PUSH1 0x5 PUSH1 0x20 MSTORE PUSH1 0x40 DUP11 KECCAK256 DUP6 DUP12 MSTORE PUSH1 0x20 MSTORE PUSH1 0x3 PUSH1 0x40 DUP12 KECCAK256 ADD PUSH2 0x21B6 JUMP JUMPDEST DUP2 DUP9 MSTORE PUSH1 0x5 PUSH1 0x20 SWAP1 DUP2 MSTORE PUSH1 0x40 DUP1 DUP11 KECCAK256 DUP6 DUP12 MSTORE SWAP1 SWAP2 MSTORE DUP9 KECCAK256 PUSH1 0x1 ADD SSTORE PUSH1 0x1 PUSH1 0x1 PUSH1 0xFA SHL SUB DUP3 AND DUP3 SUB PUSH2 0xEAB JUMPI PUSH2 0x1AED DUP3 PUSH1 0x6 SHL DUP3 PUSH2 0x1EE2 JUMP JUMPDEST DUP2 DUP9 MSTORE PUSH1 0x5 PUSH1 0x20 MSTORE PUSH1 0x40 DUP9 KECCAK256 DUP4 DUP10 MSTORE PUSH1 0x20 MSTORE PUSH1 0x1 PUSH1 0x40 DUP10 KECCAK256 ADD SLOAD PUSH1 0x9 DUP4 DUP2 DUP2 MUL DIV DUP2 EQ DUP5 ISZERO OR ISZERO PUSH2 0x1BC6 JUMPI DUP5 DUP2 DUP2 MUL DIV DUP2 EQ DUP6 ISZERO OR ISZERO PUSH2 0x1BC6 JUMPI SWAP1 PUSH2 0x1B5A SWAP2 DUP5 DUP12 MSTORE PUSH1 0x5 PUSH1 0x20 MSTORE PUSH1 0x40 DUP12 KECCAK256 DUP7 DUP13 MSTORE PUSH1 0x20 MSTORE PUSH2 0x1B4D PUSH1 0x3 PUSH1 0x40 DUP14 KECCAK256 ADD PUSH2 0x20A6 JUMP JUMPDEST SWAP2 DUP2 DUP8 MUL SWAP2 DUP7 MUL SWAP1 PUSH2 0x2A63 JUMP JUMPDEST SWAP1 PUSH2 0x1000 DUP2 LT ISZERO PUSH2 0x1BB2 JUMPI PUSH2 0x1A8E SWAP5 SWAP4 SWAP3 SWAP2 PUSH2 0x1B78 SWAP2 PUSH1 0x6 ADD PUSH2 0x21B6 JUMP JUMPDEST PUSH1 0x1 PUSH2 0x1B84 DUP4 DUP9 PUSH2 0x215B JUMP JUMPDEST MSTORE PUSH32 0xA9A418DA632D42C446A125F10B007831BA0E348168B6B2474A2383AC5DF4C280 DUP9 DUP1 LOG3 SWAP1 DUP7 DUP1 DUP1 PUSH2 0x1A81 JUMP JUMPDEST PUSH4 0x4E487B71 PUSH1 0xE0 SHL DUP10 MSTORE PUSH1 0x32 PUSH1 0x4 MSTORE PUSH1 0x24 DUP10 REVERT JUMPDEST PUSH4 0x4E487B71 PUSH1 0xE0 SHL DUP11 MSTORE PUSH1 0x11 PUSH1 0x4 MSTORE PUSH1 0x24 DUP11 REVERT JUMPDEST PUSH1 0x40 MLOAD PUSH3 0x461BCD PUSH1 0xE5 SHL DUP2 MSTORE PUSH1 0x20 PUSH1 0x4 DUP3 ADD MSTORE PUSH1 0x2F PUSH1 0x24 DUP3 ADD MSTORE PUSH32 0x6F776E6572207761732061736B656420746F20666972737420736574746C6520 PUSH1 0x44 DUP3 ADD MSTORE PUSH15 0x1C9BDE585B1D1E481C185E5B595B9D PUSH1 0x8A SHL PUSH1 0x64 DUP3 ADD MSTORE PUSH1 0x84 SWAP1 REVERT JUMPDEST PUSH1 0x40 MLOAD PUSH3 0x461BCD PUSH1 0xE5 SHL DUP2 MSTORE PUSH1 0x20 PUSH1 0x4 DUP3 ADD MSTORE PUSH1 0x16 PUSH1 0x24 DUP3 ADD MSTORE PUSH22 0x7368617065204944206E6F7420617661696C61626C65 PUSH1 0x50 SHL PUSH1 0x44 DUP3 ADD MSTORE PUSH1 0x64 SWAP1 REVERT JUMPDEST POP PUSH1 0x40 DUP5 LT ISZERO PUSH2 0x1A2B JUMP JUMPDEST DUP11 DUP1 REVERT JUMPDEST DUP10 DUP1 REVERT JUMPDEST DUP8 DUP1 REVERT JUMPDEST PUSH1 0x40 MLOAD PUSH3 0x461BCD PUSH1 0xE5 SHL DUP2 MSTORE PUSH1 0x20 PUSH1 0x4 DUP3 ADD MSTORE PUSH1 0x22 PUSH1 0x24 DUP3 ADD MSTORE PUSH32 0x417274697374696320706572696F642063757272656E746C79206E6F74206F70 PUSH1 0x44 DUP3 ADD MSTORE PUSH2 0x32B7 PUSH1 0xF1 SHL PUSH1 0x64 DUP3 ADD MSTORE PUSH1 0x84 SWAP1 REVERT JUMPDEST DUP3 CALLDATALOAD PUSH1 0x1 PUSH1 0x1 PUSH1 0x40 SHL SUB DUP2 GT PUSH2 0x1D43 JUMPI DUP3 ADD CALLDATASIZE PUSH1 0x43 DUP3 ADD SLT ISZERO PUSH2 0x1D43 JUMPI PUSH1 0x24 DUP2 ADD CALLDATALOAD SWAP2 PUSH2 0x1D08 DUP4 PUSH2 0x1F91 JUMP JUMPDEST PUSH2 0x1D15 PUSH1 0x40 MLOAD SWAP2 DUP3 PUSH2 0x1F59 JUMP JUMPDEST DUP4 DUP2 MSTORE DUP9 PUSH1 0x44 CALLDATASIZE DUP2 DUP8 DUP8 ADD ADD GT PUSH2 0x31E JUMPI DUP6 PUSH1 0x20 SWAP7 DUP8 SWAP7 SWAP3 DUP8 SWAP4 ADD DUP4 DUP7 ADD CALLDATACOPY DUP4 ADD ADD MSTORE DUP2 MSTORE ADD SWAP3 ADD SWAP2 PUSH2 0x185E JUMP JUMPDEST DUP7 DUP1 REVERT JUMPDEST POP CALLVALUE PUSH2 0x2A2 JUMPI PUSH1 0x20 CALLDATASIZE PUSH1 0x3 NOT ADD SLT PUSH2 0x2A2 JUMPI PUSH1 0x40 DUP1 SWAP2 PUSH1 0x4 CALLDATALOAD DUP2 MSTORE PUSH2 0x1047 PUSH1 0x20 MSTORE KECCAK256 PUSH1 0x1 DUP2 SLOAD SWAP2 ADD SLOAD DUP3 MLOAD SWAP2 DUP3 MSTORE PUSH1 0x20 DUP3 ADD MSTORE RETURN JUMPDEST POP CALLVALUE PUSH2 0x2A2 JUMPI DUP1 PUSH1 0x3 NOT CALLDATASIZE ADD SLT PUSH2 0x2A2 JUMPI PUSH1 0x20 PUSH1 0x40 MLOAD PUSH3 0x54600 DUP2 MSTORE RETURN JUMPDEST POP CALLVALUE PUSH2 0x2A2 JUMPI PUSH1 0x20 CALLDATASIZE PUSH1 0x3 NOT ADD SLT PUSH2 0x2A2 JUMPI PUSH1 0x4 CALLDATALOAD PUSH1 0x1 PUSH1 0x1 PUSH1 0xA0 SHL SUB DUP2 AND SWAP1 DUP2 SWAP1 SUB PUSH2 0x31E JUMPI PUSH1 0x40 PUSH1 0x20 SWAP3 PUSH1 0xFF SWAP3 PUSH3 0x54600 PUSH2 0x1DD9 PUSH1 0x3 SLOAD TIMESTAMP PUSH2 0x2889 JUMP JUMPDEST DIV DUP3 MSTORE PUSH2 0x1047 DUP6 MSTORE PUSH1 0x2 DUP4 DUP4 KECCAK256 ADD SWAP1 DUP3 MSTORE DUP5 MSTORE KECCAK256 SLOAD AND PUSH1 0x40 MLOAD SWAP1 ISZERO ISZERO DUP2 MSTORE RETURN JUMPDEST POP CALLVALUE PUSH2 0x2A2 JUMPI PUSH2 0x380 PUSH2 0x1E14 PUSH2 0x1E0E CALLDATASIZE PUSH2 0x1E28 JUMP JUMPDEST SWAP1 PUSH2 0x292F JUMP JUMPDEST PUSH1 0x40 MLOAD SWAP2 DUP3 SWAP2 PUSH1 0x20 DUP4 MSTORE PUSH1 0x20 DUP4 ADD SWAP1 PUSH2 0x1E86 JUMP JUMPDEST PUSH1 0x40 SWAP1 PUSH1 0x3 NOT ADD SLT PUSH2 0x1239 JUMPI PUSH1 0x4 CALLDATALOAD SWAP1 PUSH1 0x24 CALLDATALOAD SWAP1 JUMP JUMPDEST PUSH1 0x0 JUMPDEST DUP4 DUP2 LT PUSH2 0x1E51 JUMPI POP POP PUSH1 0x0 SWAP2 ADD MSTORE JUMP JUMPDEST DUP2 DUP2 ADD MLOAD DUP4 DUP3 ADD MSTORE PUSH1 0x20 ADD PUSH2 0x1E41 JUMP JUMPDEST SWAP1 PUSH1 0x20 SWAP2 PUSH2 0x1E7A DUP2 MLOAD DUP1 SWAP3 DUP2 DUP6 MSTORE DUP6 DUP1 DUP7 ADD SWAP2 ADD PUSH2 0x1E3E JUMP JUMPDEST PUSH1 0x1F ADD PUSH1 0x1F NOT AND ADD ADD SWAP1 JUMP JUMPDEST SWAP1 PUSH1 0x1 DUP1 PUSH1 0xA0 SHL SUB DUP3 MLOAD AND DUP2 MSTORE PUSH1 0x20 DUP3 ADD MLOAD PUSH1 0x20 DUP3 ADD MSTORE PUSH1 0x40 DUP3 ADD MLOAD PUSH1 0x40 DUP3 ADD MSTORE PUSH1 0xC0 DUP1 PUSH2 0x1EC3 PUSH1 0x60 DUP6 ADD MLOAD PUSH1 0xE0 PUSH1 0x60 DUP7 ADD MSTORE PUSH1 0xE0 DUP6 ADD SWAP1 PUSH2 0x1E61 JUMP JUMPDEST SWAP4 PUSH1 0x80 DUP2 ADD MLOAD PUSH1 0x80 DUP6 ADD MSTORE PUSH1 0xA0 DUP2 ADD MLOAD ISZERO ISZERO PUSH1 0xA0 DUP6 ADD MSTORE ADD MLOAD SWAP2 ADD MSTORE SWAP1 JUMP JUMPDEST SWAP2 SWAP1 DUP3 ADD DUP1 SWAP3 GT PUSH2 0x1EEF JUMPI JUMP JUMPDEST PUSH4 0x4E487B71 PUSH1 0xE0 SHL PUSH1 0x0 MSTORE PUSH1 0x11 PUSH1 0x4 MSTORE PUSH1 0x24 PUSH1 0x0 REVERT JUMPDEST CALLVALUE PUSH2 0x1239 JUMPI PUSH1 0x0 CALLDATASIZE PUSH1 0x3 NOT ADD SLT PUSH2 0x1239 JUMPI PUSH1 0x20 PUSH1 0x40 MLOAD PUSH3 0x3F480 DUP2 MSTORE RETURN JUMPDEST PUSH1 0xE0 DUP2 ADD SWAP1 DUP2 LT PUSH1 0x1 PUSH1 0x1 PUSH1 0x40 SHL SUB DUP3 GT OR PUSH2 0x27E JUMPI PUSH1 0x40 MSTORE JUMP JUMPDEST PUSH1 0x20 DUP2 ADD SWAP1 DUP2 LT PUSH1 0x1 PUSH1 0x1 PUSH1 0x40 SHL SUB DUP3 GT OR PUSH2 0x27E JUMPI PUSH1 0x40 MSTORE JUMP JUMPDEST SWAP1 PUSH1 0x1F DUP1 NOT SWAP2 ADD AND DUP2 ADD SWAP1 DUP2 LT PUSH1 0x1 PUSH1 0x1 PUSH1 0x40 SHL SUB DUP3 GT OR PUSH2 0x27E JUMPI PUSH1 0x40 MSTORE JUMP JUMPDEST PUSH1 0x1 PUSH1 0x1 PUSH1 0x40 SHL SUB DUP2 GT PUSH2 0x27E JUMPI PUSH1 0x5 SHL PUSH1 0x20 ADD SWAP1 JUMP JUMPDEST PUSH1 0x1 PUSH1 0x1 PUSH1 0x40 SHL SUB DUP2 GT PUSH2 0x27E JUMPI PUSH1 0x1F ADD PUSH1 0x1F NOT AND PUSH1 0x20 ADD SWAP1 JUMP JUMPDEST CALLVALUE PUSH2 0x1239 JUMPI PUSH1 0x0 CALLDATASIZE PUSH1 0x3 NOT ADD SLT PUSH2 0x1239 JUMPI PUSH1 0x20 PUSH1 0x40 MLOAD PUSH1 0x40 DUP2 MSTORE RETURN JUMPDEST DUP2 PUSH1 0x1F DUP3 ADD SLT ISZERO PUSH2 0x1239 JUMPI DUP1 CALLDATALOAD SWAP2 PUSH2 0x1FDF DUP4 PUSH2 0x1F7A JUMP JUMPDEST SWAP3 PUSH2 0x1FED PUSH1 0x40 MLOAD SWAP5 DUP6 PUSH2 0x1F59 JUMP JUMPDEST DUP1 DUP5 MSTORE PUSH1 0x20 SWAP3 DUP4 DUP1 DUP7 ADD SWAP3 PUSH1 0x5 SHL DUP3 ADD ADD SWAP3 DUP4 GT PUSH2 0x1239 JUMPI DUP4 ADD SWAP1 JUMPDEST DUP3 DUP3 LT PUSH2 0x2017 JUMPI POP POP POP POP SWAP1 JUMP JUMPDEST DUP2 CALLDATALOAD DUP2 MSTORE SWAP1 DUP4 ADD SWAP1 DUP4 ADD PUSH2 0x2009 JUMP JUMPDEST SWAP1 PUSH1 0x40 PUSH1 0x3 NOT DUP4 ADD SLT PUSH2 0x1239 JUMPI PUSH1 0x1 PUSH1 0x1 PUSH1 0x40 SHL SUB PUSH1 0x4 CALLDATALOAD DUP2 DUP2 GT PUSH2 0x1239 JUMPI DUP4 PUSH2 0x2052 SWAP2 PUSH1 0x4 ADD PUSH2 0x1FC8 JUMP JUMPDEST SWAP3 PUSH1 0x24 CALLDATALOAD SWAP2 DUP3 GT PUSH2 0x1239 JUMPI PUSH2 0x2069 SWAP2 PUSH1 0x4 ADD PUSH2 0x1FC8 JUMP JUMPDEST SWAP1 JUMP JUMPDEST SWAP1 PUSH1 0x1 DUP3 DUP2 SHR SWAP3 AND DUP1 ISZERO PUSH2 0x209C JUMPI JUMPDEST PUSH1 0x20 DUP4 LT EQ PUSH2 0x2086 JUMPI JUMP JUMPDEST PUSH4 0x4E487B71 PUSH1 0xE0 SHL PUSH1 0x0 MSTORE PUSH1 0x22 PUSH1 0x4 MSTORE PUSH1 0x24 PUSH1 0x0 REVERT JUMPDEST SWAP2 PUSH1 0x7F AND SWAP2 PUSH2 0x207B JUMP JUMPDEST SWAP1 PUSH1 0x40 MLOAD SWAP2 DUP3 PUSH1 0x0 DUP3 SLOAD SWAP3 PUSH2 0x20BA DUP5 PUSH2 0x206C JUMP JUMPDEST SWAP1 DUP2 DUP5 MSTORE PUSH1 0x1 SWAP5 DUP6 DUP2 AND SWAP1 DUP2 PUSH1 0x0 EQ PUSH2 0x2129 JUMPI POP PUSH1 0x1 EQ PUSH2 0x20E6 JUMPI JUMPDEST POP POP PUSH2 0x20E4 SWAP3 POP SUB DUP4 PUSH2 0x1F59 JUMP JUMPDEST JUMP JUMPDEST SWAP1 SWAP4 SWAP2 POP PUSH1 0x0 MSTORE PUSH1 0x20 SWAP1 DUP2 PUSH1 0x0 KECCAK256 SWAP4 PUSH1 0x0 SWAP2 JUMPDEST DUP2 DUP4 LT PUSH2 0x2111 JUMPI POP POP PUSH2 0x20E4 SWAP4 POP DUP3 ADD ADD CODESIZE DUP1 PUSH2 0x20D6 JUMP JUMPDEST DUP6 SLOAD DUP9 DUP5 ADD DUP6 ADD MSTORE SWAP5 DUP6 ADD SWAP5 DUP8 SWAP5 POP SWAP2 DUP4 ADD SWAP2 PUSH2 0x20F9 JUMP JUMPDEST SWAP2 POP POP PUSH2 0x20E4 SWAP5 POP PUSH1 0x20 SWAP3 POP PUSH1 0xFF NOT AND DUP3 DUP5 ADD MSTORE ISZERO ISZERO PUSH1 0x5 SHL DUP3 ADD ADD CODESIZE DUP1 PUSH2 0x20D6 JUMP JUMPDEST PUSH1 0x0 NOT DUP2 EQ PUSH2 0x1EEF JUMPI PUSH1 0x1 ADD SWAP1 JUMP JUMPDEST DUP1 MLOAD DUP3 LT ISZERO PUSH2 0x216F JUMPI PUSH1 0x20 SWAP2 PUSH1 0x5 SHL ADD ADD SWAP1 JUMP JUMPDEST PUSH4 0x4E487B71 PUSH1 0xE0 SHL PUSH1 0x0 MSTORE PUSH1 0x32 PUSH1 0x4 MSTORE PUSH1 0x24 PUSH1 0x0 REVERT JUMPDEST PUSH1 0x60 SWAP1 PUSH1 0x20 DUP2 MSTORE PUSH1 0x16 PUSH1 0x20 DUP3 ADD MSTORE PUSH22 0x706978656C206973206F7574206F6620626F756E6473 PUSH1 0x50 SHL PUSH1 0x40 DUP3 ADD MSTORE ADD SWAP1 JUMP JUMPDEST SWAP2 SWAP1 SWAP2 DUP3 MLOAD PUSH1 0x1 PUSH1 0x1 PUSH1 0x40 SHL SUB DUP2 GT PUSH2 0x27E JUMPI PUSH2 0x21D3 DUP3 SLOAD PUSH2 0x206C JUMP JUMPDEST PUSH1 0x1F DUP2 GT PUSH2 0x227D JUMPI JUMPDEST POP PUSH1 0x20 DUP1 PUSH1 0x1F DUP4 GT PUSH1 0x1 EQ PUSH2 0x2219 JUMPI POP DUP2 SWAP3 SWAP4 SWAP5 PUSH1 0x0 SWAP3 PUSH2 0x220E JUMPI JUMPDEST POP POP DUP2 PUSH1 0x1 SHL SWAP2 PUSH1 0x0 NOT SWAP1 PUSH1 0x3 SHL SHR NOT AND OR SWAP1 SSTORE JUMP JUMPDEST ADD MLOAD SWAP1 POP CODESIZE DUP1 PUSH2 0x21F8 JUMP JUMPDEST SWAP1 PUSH1 0x1F NOT DUP4 AND SWAP6 DUP5 PUSH1 0x0 MSTORE DUP3 PUSH1 0x0 KECCAK256 SWAP3 PUSH1 0x0 SWAP1 JUMPDEST DUP9 DUP3 LT PUSH2 0x2265 JUMPI POP POP DUP4 PUSH1 0x1 SWAP6 SWAP7 SWAP8 LT PUSH2 0x224C JUMPI JUMPDEST POP POP POP DUP2 SHL ADD SWAP1 SSTORE JUMP JUMPDEST ADD MLOAD PUSH1 0x0 NOT PUSH1 0xF8 DUP5 PUSH1 0x3 SHL AND SHR NOT AND SWAP1 SSTORE CODESIZE DUP1 DUP1 PUSH2 0x2242 JUMP JUMPDEST DUP1 PUSH1 0x1 DUP6 SWAP7 DUP3 SWAP5 SWAP7 DUP7 ADD MLOAD DUP2 SSTORE ADD SWAP6 ADD SWAP4 ADD SWAP1 PUSH2 0x222D JUMP JUMPDEST PUSH1 0x0 DUP4 DUP2 MSTORE PUSH1 0x20 DUP2 KECCAK256 PUSH1 0x1F DUP5 ADD PUSH1 0x5 SHR DUP2 ADD SWAP3 PUSH1 0x20 DUP6 LT PUSH2 0x22BB JUMPI JUMPDEST PUSH1 0x1F ADD PUSH1 0x5 SHR ADD SWAP2 JUMPDEST DUP3 DUP2 LT PUSH2 0x22B0 JUMPI POP POP PUSH2 0x21DC JUMP JUMPDEST DUP2 DUP2 SSTORE PUSH1 0x1 ADD PUSH2 0x22A2 JUMP JUMPDEST SWAP1 SWAP3 POP DUP3 SWAP1 PUSH2 0x2299 JUMP JUMPDEST DUP2 DUP2 MUL SWAP3 SWAP2 DUP2 ISZERO SWAP2 DUP5 DIV EQ OR ISZERO PUSH2 0x1EEF JUMPI JUMP JUMPDEST ISZERO PUSH2 0x22DF JUMPI JUMP JUMPDEST PUSH1 0x40 MLOAD PUSH3 0x461BCD PUSH1 0xE5 SHL DUP2 MSTORE PUSH1 0x20 PUSH1 0x4 DUP3 ADD MSTORE PUSH1 0x2B PUSH1 0x24 DUP3 ADD MSTORE PUSH32 0x7820616E64207920696E7075742061727261797320617265206F662076617269 PUSH1 0x44 DUP3 ADD MSTORE PUSH11 0x6F7573206C656E67746873 PUSH1 0xA8 SHL PUSH1 0x64 DUP3 ADD MSTORE PUSH1 0x84 SWAP1 REVERT JUMPDEST SWAP1 DUP2 PUSH1 0x20 SWAP2 SUB SLT PUSH2 0x1239 JUMPI MLOAD DUP1 ISZERO ISZERO DUP2 SUB PUSH2 0x1239 JUMPI SWAP1 JUMP JUMPDEST PUSH1 0x1 PUSH1 0x1 PUSH1 0xA0 SHL SUB SWAP2 DUP3 AND DUP2 MSTORE SWAP2 AND PUSH1 0x20 DUP3 ADD MSTORE PUSH1 0x40 DUP2 ADD SWAP2 SWAP1 SWAP2 MSTORE PUSH1 0x60 ADD SWAP1 JUMP JUMPDEST SWAP2 SWAP1 SWAP2 PUSH2 0x2382 DUP2 MLOAD DUP5 MLOAD EQ PUSH2 0x22D8 JUMP JUMPDEST DUP1 MLOAD PUSH1 0x0 SWAP4 JUMPDEST DUP2 DUP6 LT PUSH2 0x2396 JUMPI POP POP POP SWAP1 POP JUMP JUMPDEST PUSH2 0x23A0 DUP6 DUP5 PUSH2 0x215B JUMP JUMPDEST MLOAD SWAP5 PUSH2 0x23AC DUP2 DUP4 PUSH2 0x215B JUMP JUMPDEST MLOAD PUSH1 0x40 DUP1 DUP1 SWAP9 LT SWAP2 DUP3 ISZERO SWAP3 PUSH2 0x27CE JUMPI JUMPDEST POP POP PUSH2 0x27B6 JUMPI PUSH2 0x23CC DUP2 DUP6 PUSH2 0x215B JUMP JUMPDEST MLOAD PUSH1 0x0 MSTORE PUSH1 0x5 PUSH1 0x20 SWAP1 DUP1 DUP3 MSTORE DUP8 PUSH1 0x0 KECCAK256 PUSH2 0x23E6 DUP5 DUP7 PUSH2 0x215B JUMP JUMPDEST MLOAD PUSH1 0x0 MSTORE DUP3 MSTORE PUSH1 0x1 DUP1 PUSH1 0xA0 SHL SUB SWAP8 CALLER DUP10 DUP3 PUSH1 0x0 KECCAK256 SLOAD AND SUB PUSH2 0x2768 JUMPI PUSH2 0x240B DUP5 DUP9 PUSH2 0x215B JUMP JUMPDEST MLOAD PUSH1 0x0 MSTORE DUP2 DUP4 MSTORE DUP1 PUSH1 0x0 KECCAK256 PUSH2 0x2420 DUP6 DUP8 PUSH2 0x215B JUMP JUMPDEST MLOAD PUSH1 0x0 MSTORE DUP4 MSTORE PUSH1 0x4 TIMESTAMP DUP2 DUP4 PUSH1 0x0 KECCAK256 ADD SLOAD SUB PUSH2 0x2451 JUMPI JUMPDEST POP POP POP POP PUSH2 0x2448 SWAP2 SWAP3 SWAP4 SWAP5 SWAP6 POP PUSH2 0x214C JUMP JUMPDEST SWAP4 SWAP3 SWAP2 SWAP1 PUSH2 0x2388 JUMP JUMPDEST PUSH2 0x2469 PUSH2 0x245E DUP7 DUP11 PUSH2 0x215B JUMP JUMPDEST MLOAD PUSH2 0xED7 DUP8 DUP10 PUSH2 0x215B JUMP JUMPDEST SWAP10 DUP1 DUP3 SLOAD AND SWAP1 DUP4 MLOAD PUSH4 0x70A08231 PUSH1 0xE0 SHL DUP2 MSTORE CALLER DUP5 DUP3 ADD MSTORE PUSH1 0x24 SWAP1 DUP8 DUP2 DUP4 DUP2 DUP8 GAS STATICCALL SWAP1 DUP2 ISZERO PUSH2 0x26DC JUMPI SWAP1 DUP15 SWAP2 PUSH1 0x0 SWAP2 PUSH2 0x2738 JUMPI JUMPDEST POP LT PUSH2 0x26E7 JUMPI DUP5 MLOAD PUSH4 0x6EB1769F PUSH1 0xE1 SHL DUP2 MSTORE CALLER DUP6 DUP3 ADD SWAP1 DUP2 MSTORE ADDRESS PUSH1 0x20 DUP3 ADD MSTORE DUP9 SWAP1 DUP3 SWAP1 DUP2 SWAP1 PUSH1 0x40 ADD SUB DUP2 DUP8 GAS STATICCALL SWAP1 DUP2 ISZERO PUSH2 0x26DC JUMPI SWAP1 DUP15 SWAP2 PUSH1 0x0 SWAP2 PUSH2 0x26AC JUMPI JUMPDEST POP LT PUSH2 0x265B JUMPI POP DUP6 SWAP2 PUSH2 0x250B SWAP2 PUSH1 0x1 SLOAD AND SWAP13 PUSH1 0x0 DUP7 MLOAD SWAP15 DUP16 SWAP5 DUP6 SWAP4 DUP5 SWAP3 PUSH4 0x23B872DD PUSH1 0xE0 SHL DUP5 MSTORE CALLER DUP11 DUP6 ADD PUSH2 0x2350 JUMP JUMPDEST SUB SWAP3 GAS CALL SWAP10 DUP11 ISZERO PUSH2 0x2650 JUMPI PUSH2 0x2448 SWAP7 SWAP8 SWAP9 SWAP10 SWAP11 PUSH2 0x2633 JUMPI JUMPDEST POP PUSH2 0x252E DUP6 DUP11 PUSH2 0x215B JUMP JUMPDEST MLOAD PUSH1 0x0 MSTORE DUP3 DUP5 MSTORE DUP2 PUSH1 0x0 KECCAK256 PUSH2 0x2543 DUP7 DUP10 PUSH2 0x215B JUMP JUMPDEST MLOAD PUSH1 0x0 MSTORE DUP5 MSTORE TIMESTAMP SWAP1 DUP3 PUSH1 0x0 KECCAK256 ADD SSTORE PUSH2 0x255B DUP5 DUP10 PUSH2 0x215B JUMP JUMPDEST MLOAD PUSH1 0x0 MSTORE DUP2 DUP4 MSTORE DUP1 PUSH1 0x0 KECCAK256 PUSH2 0x2570 DUP6 DUP9 PUSH2 0x215B JUMP JUMPDEST MLOAD PUSH1 0x0 MSTORE DUP4 MSTORE PUSH1 0xFF DUP3 DUP3 PUSH1 0x0 KECCAK256 ADD SLOAD AND PUSH2 0x25D1 JUMPI JUMPDEST POP POP POP PUSH2 0x2592 DUP2 DUP7 PUSH2 0x215B JUMP JUMPDEST MLOAD PUSH2 0x259D DUP3 DUP6 PUSH2 0x215B JUMP JUMPDEST MLOAD SWAP1 PUSH32 0xE61AF2269C9AFBDB69EFCE2B15F2A464F8EE6237F105B3D4024F2E824A9F0AF3 PUSH1 0x0 DUP1 LOG3 DUP6 SWAP5 SWAP4 SWAP3 SWAP2 CODESIZE DUP1 DUP1 PUSH2 0x2436 JUMP JUMPDEST PUSH1 0x0 SWAP3 PUSH1 0x6 SWAP3 PUSH2 0x25E1 DUP7 DUP12 PUSH2 0x215B JUMP JUMPDEST MLOAD DUP6 MSTORE DUP1 DUP3 MSTORE DUP3 DUP6 KECCAK256 PUSH2 0x25F4 DUP8 DUP11 PUSH2 0x215B JUMP JUMPDEST MLOAD DUP7 MSTORE DUP3 MSTORE DUP3 DUP6 KECCAK256 DUP2 ADD DUP1 SLOAD PUSH1 0xFF NOT AND SWAP1 SSTORE PUSH2 0x2610 DUP7 DUP12 PUSH2 0x215B JUMP JUMPDEST MLOAD DUP6 MSTORE DUP2 MSTORE DUP2 DUP5 KECCAK256 SWAP1 PUSH2 0x2623 DUP7 DUP10 PUSH2 0x215B JUMP JUMPDEST MLOAD DUP6 MSTORE MSTORE DUP3 KECCAK256 ADD SSTORE CODESIZE DUP1 DUP1 PUSH2 0x2585 JUMP JUMPDEST PUSH2 0x2649 SWAP1 DUP6 RETURNDATASIZE DUP8 GT PUSH2 0x11C9 JUMPI PUSH2 0x11BA DUP2 DUP4 PUSH2 0x1F59 JUMP JUMPDEST POP CODESIZE PUSH2 0x2523 JUMP JUMPDEST DUP3 MLOAD RETURNDATASIZE PUSH1 0x0 DUP3 RETURNDATACOPY RETURNDATASIZE SWAP1 REVERT JUMPDEST DUP4 PUSH1 0x27 PUSH1 0x84 SWAP3 DUP10 DUP9 MLOAD SWAP4 PUSH3 0x461BCD PUSH1 0xE5 SHL DUP6 MSTORE DUP5 ADD MSTORE DUP3 ADD MSTORE PUSH32 0x696E73756666696369656E7420616C6C6F77616E636520746F2070617920726F PUSH1 0x44 DUP3 ADD MSTORE PUSH7 0x79616C74696573 PUSH1 0xC8 SHL PUSH1 0x64 DUP3 ADD MSTORE REVERT JUMPDEST SWAP2 POP DUP9 DUP3 DUP2 RETURNDATASIZE DUP4 GT PUSH2 0x26D5 JUMPI JUMPDEST PUSH2 0x26C3 DUP2 DUP4 PUSH2 0x1F59 JUMP JUMPDEST DUP2 ADD SUB SLT PUSH2 0x2A2 JUMPI POP DUP14 SWAP1 MLOAD CODESIZE PUSH2 0x24DB JUMP JUMPDEST POP RETURNDATASIZE PUSH2 0x26B9 JUMP JUMPDEST DUP7 MLOAD RETURNDATASIZE PUSH1 0x0 DUP3 RETURNDATACOPY RETURNDATASIZE SWAP1 REVERT JUMPDEST DUP4 PUSH1 0x27 PUSH1 0x84 SWAP3 DUP10 DUP9 MLOAD SWAP4 PUSH3 0x461BCD PUSH1 0xE5 SHL DUP6 MSTORE DUP5 ADD MSTORE DUP3 ADD MSTORE PUSH32 0x6E6F742073756666696369656E742062616C616E636520746F2070617920726F PUSH1 0x44 DUP3 ADD MSTORE PUSH7 0x79616C74696573 PUSH1 0xC8 SHL PUSH1 0x64 DUP3 ADD MSTORE REVERT JUMPDEST SWAP2 POP DUP9 DUP3 DUP2 RETURNDATASIZE DUP4 GT PUSH2 0x2761 JUMPI JUMPDEST PUSH2 0x274F DUP2 DUP4 PUSH2 0x1F59 JUMP JUMPDEST DUP2 ADD SUB SLT PUSH2 0x2A2 JUMPI POP DUP14 SWAP1 MLOAD CODESIZE PUSH2 0x249C JUMP JUMPDEST POP RETURNDATASIZE PUSH2 0x2745 JUMP JUMPDEST MLOAD PUSH3 0x461BCD PUSH1 0xE5 SHL DUP2 MSTORE PUSH1 0x4 DUP2 ADD DUP4 SWAP1 MSTORE PUSH1 0x22 PUSH1 0x24 DUP3 ADD MSTORE PUSH32 0x6F6E6C7920706978656C206F776E65722063616E2070617920726F79616C7469 PUSH1 0x44 DUP3 ADD MSTORE PUSH2 0x6573 PUSH1 0xF0 SHL PUSH1 0x64 DUP3 ADD MSTORE PUSH1 0x84 SWAP1 REVERT JUMPDEST DUP6 MLOAD PUSH3 0x461BCD PUSH1 0xE5 SHL DUP2 MSTORE DUP1 PUSH2 0x14FB PUSH1 0x4 DUP3 ADD PUSH2 0x2185 JUMP JUMPDEST LT ISZERO SWAP1 POP DUP7 CODESIZE PUSH2 0x23BC JUMP JUMPDEST ISZERO PUSH2 0x27E0 JUMPI JUMP JUMPDEST PUSH1 0x40 MLOAD PUSH3 0x461BCD PUSH1 0xE5 SHL DUP2 MSTORE PUSH1 0x20 PUSH1 0x4 DUP3 ADD MSTORE PUSH1 0x23 PUSH1 0x24 DUP3 ADD MSTORE PUSH32 0x6E6F742073756666696369656E742062616C616E636520746F20627579207069 PUSH1 0x44 DUP3 ADD MSTORE PUSH3 0x1E195B PUSH1 0xEA SHL PUSH1 0x64 DUP3 ADD MSTORE PUSH1 0x84 SWAP1 REVERT JUMPDEST ISZERO PUSH2 0x2838 JUMPI JUMP JUMPDEST PUSH1 0x40 MLOAD PUSH3 0x461BCD PUSH1 0xE5 SHL DUP2 MSTORE PUSH1 0x20 PUSH1 0x4 DUP3 ADD MSTORE PUSH1 0x23 PUSH1 0x24 DUP3 ADD MSTORE PUSH32 0x696E73756666696369656E7420616C6C6F77616E636520746F20627579207069 PUSH1 0x44 DUP3 ADD MSTORE PUSH3 0x1E195B PUSH1 0xEA SHL PUSH1 0x64 DUP3 ADD MSTORE PUSH1 0x84 SWAP1 REVERT JUMPDEST SWAP2 SWAP1 DUP3 SUB SWAP2 DUP3 GT PUSH2 0x1EEF JUMPI JUMP JUMPDEST ISZERO PUSH2 0x289D JUMPI JUMP JUMPDEST PUSH1 0x40 MLOAD PUSH3 0x461BCD PUSH1 0xE5 SHL DUP2 MSTORE PUSH1 0x20 PUSH1 0x4 DUP3 ADD MSTORE PUSH1 0x2C PUSH1 0x24 DUP3 ADD MSTORE PUSH32 0x6F776E65722063757272656E74206D616E616765722063616E2063616C6C2074 PUSH1 0x44 DUP3 ADD MSTORE PUSH12 0x3434B990333AB731BA34B7B7 PUSH1 0xA1 SHL PUSH1 0x64 DUP3 ADD MSTORE PUSH1 0x84 SWAP1 REVERT JUMPDEST PUSH1 0x40 MLOAD SWAP1 PUSH2 0x2904 DUP3 PUSH2 0x1F23 JUMP JUMPDEST DUP2 PUSH1 0xC0 PUSH1 0x0 SWAP2 DUP3 DUP2 MSTORE DUP3 PUSH1 0x20 DUP3 ADD MSTORE DUP3 PUSH1 0x40 DUP3 ADD MSTORE PUSH1 0x60 DUP1 DUP3 ADD MSTORE DUP3 PUSH1 0x80 DUP3 ADD MSTORE DUP3 PUSH1 0xA0 DUP3 ADD MSTORE ADD MSTORE JUMP JUMPDEST SWAP1 PUSH2 0x2938 PUSH2 0x28F7 JUMP JUMPDEST POP PUSH1 0x40 SWAP2 DUP3 DUP2 LT DUP1 PUSH2 0x29FD JUMPI JUMPDEST ISZERO PUSH2 0x29C3 JUMPI PUSH1 0x0 MSTORE PUSH1 0x5 PUSH1 0x20 MSTORE DUP2 PUSH1 0x0 KECCAK256 SWAP1 PUSH1 0x0 MSTORE PUSH1 0x20 MSTORE PUSH1 0x6 DUP2 PUSH1 0x0 KECCAK256 DUP3 MLOAD SWAP3 PUSH2 0x296F DUP5 PUSH2 0x1F23 JUMP JUMPDEST DUP2 SLOAD PUSH1 0x1 PUSH1 0x1 PUSH1 0xA0 SHL SUB AND DUP5 MSTORE PUSH1 0x1 DUP3 ADD SLOAD PUSH1 0x20 DUP6 ADD MSTORE PUSH1 0x2 DUP3 ADD SLOAD SWAP1 DUP5 ADD MSTORE PUSH2 0x299B PUSH1 0x3 DUP3 ADD PUSH2 0x20A6 JUMP JUMPDEST PUSH1 0x60 DUP5 ADD MSTORE PUSH1 0x4 DUP2 ADD SLOAD PUSH1 0x80 DUP5 ADD MSTORE PUSH1 0xFF PUSH1 0x5 DUP3 ADD SLOAD AND ISZERO ISZERO PUSH1 0xA0 DUP5 ADD MSTORE ADD SLOAD PUSH1 0xC0 DUP3 ADD MSTORE SWAP1 JUMP JUMPDEST DUP3 MLOAD PUSH3 0x461BCD PUSH1 0xE5 SHL DUP2 MSTORE PUSH1 0x20 PUSH1 0x4 DUP3 ADD MSTORE PUSH1 0x13 PUSH1 0x24 DUP3 ADD MSTORE PUSH19 0x706978656C206F7574206F6620626F756E6473 PUSH1 0x68 SHL PUSH1 0x44 DUP3 ADD MSTORE PUSH1 0x64 SWAP1 REVERT JUMPDEST POP DUP3 DUP3 LT PUSH2 0x2945 JUMP JUMPDEST PUSH2 0x2A56 PUSH2 0x2A5F SWAP2 PUSH1 0x2 PUSH1 0x40 PUSH5 0x73DF16000 SWAP6 PUSH1 0x0 SWAP1 DUP5 DUP3 MSTORE PUSH1 0x5 PUSH1 0x20 MSTORE DUP3 DUP3 KECCAK256 DUP2 DUP4 MSTORE PUSH1 0x20 MSTORE PUSH2 0x2A3C PUSH1 0x4 DUP5 DUP5 KECCAK256 ADD SLOAD TIMESTAMP PUSH2 0x2889 JUMP JUMPDEST SWAP5 DUP3 MSTORE PUSH1 0x5 PUSH1 0x20 MSTORE DUP3 DUP3 KECCAK256 SWAP1 DUP3 MSTORE PUSH1 0x20 MSTORE KECCAK256 ADD SLOAD SWAP1 PUSH2 0x22C5 JUMP JUMPDEST PUSH1 0x2 SLOAD SWAP1 PUSH2 0x22C5 JUMP JUMPDEST DIV SWAP1 JUMP JUMPDEST SWAP2 SWAP3 SWAP1 SWAP3 DUP3 ISZERO PUSH2 0x3104 JUMPI PUSH1 0x1 DUP4 EQ PUSH2 0x3035 JUMPI PUSH1 0x2 DUP4 EQ PUSH2 0x300B JUMPI PUSH1 0x3 DUP4 EQ PUSH2 0x2FAF JUMPI PUSH1 0x4 SWAP3 DUP4 DUP2 EQ PUSH2 0x2F5B JUMPI PUSH1 0x5 DUP2 EQ PUSH2 0x2DFE JUMPI PUSH1 0x6 DUP2 EQ PUSH2 0x2DAC JUMPI PUSH1 0x7 DUP2 EQ PUSH2 0x2D45 JUMPI PUSH1 0x8 DUP2 EQ PUSH2 0x2C62 JUMPI PUSH1 0x9 EQ PUSH2 0x2ACD JUMPI POP POP POP POP PUSH1 0x40 MLOAD PUSH2 0x2AC6 DUP2 PUSH2 0x1F3E JUMP JUMPDEST PUSH1 0x0 DUP2 MSTORE SWAP1 JUMP JUMPDEST PUSH2 0x2AD6 DUP5 PUSH2 0x3243 JUMP JUMPDEST SWAP1 PUSH2 0x2AE0 DUP2 PUSH2 0x3243 JUMP JUMPDEST PUSH1 0x8 DUP7 ADD DUP1 DUP8 GT PUSH2 0x2C4D JUMPI PUSH2 0x2AF4 SWAP1 PUSH2 0x3243 JUMP JUMPDEST SWAP5 PUSH1 0x8 DUP4 ADD DUP1 SWAP4 GT PUSH2 0x2C38 JUMPI POP SWAP2 PUSH2 0x2C1C DUP3 PUSH2 0x2069 SWAP7 SWAP5 PUSH2 0x2B29 PUSH2 0x2B23 PUSH2 0x2B1D PUSH1 0x49 SWAP10 SWAP8 PUSH2 0x3243 JUMP JUMPDEST SWAP11 PUSH2 0x3243 JUMP JUMPDEST SWAP3 PUSH2 0x3243 JUMP JUMPDEST SWAP2 PUSH1 0x40 MLOAD SWAP10 DUP11 SWAP8 PUSH1 0x2A PUSH2 0x2B59 DUP11 PUSH1 0x20 SWAP10 PUSH10 0x3C7061746820643D224D PUSH1 0xB0 SHL DUP12 DUP4 ADD MSTORE DUP11 DUP2 MLOAD SWAP5 DUP6 SWAP4 ADD SWAP2 ADD PUSH2 0x1E3E JUMP JUMPDEST DUP10 ADD SWAP4 PUSH1 0x1 PUSH1 0xFD SHL SWAP5 DUP6 PUSH1 0x2A DUP3 ADD MSTORE PUSH2 0x2B7B DUP3 MLOAD DUP1 SWAP4 DUP12 PUSH1 0x2B DUP6 ADD SWAP2 ADD PUSH2 0x1E3E JUMP JUMPDEST ADD PUSH12 0x10209C101C1018101810189 PUSH1 0xA5 SHL PUSH1 0x2B DUP3 ADD MSTORE PUSH2 0x2BA4 DUP3 MLOAD DUP1 SWAP4 DUP11 PUSH1 0x37 DUP6 ADD SWAP2 ADD PUSH2 0x1E3E JUMP JUMPDEST ADD DUP4 PUSH1 0x37 DUP3 ADD MSTORE PUSH2 0x2BBE DUP3 MLOAD DUP1 SWAP4 DUP10 PUSH1 0x38 DUP6 ADD SWAP2 ADD PUSH2 0x1E3E JUMP JUMPDEST ADD PUSH2 0x813 PUSH1 0xF2 SHL PUSH1 0x38 DUP3 ADD MSTORE PUSH2 0x2BDD DUP3 MLOAD DUP1 SWAP4 DUP9 PUSH1 0x3A DUP6 ADD SWAP2 ADD PUSH2 0x1E3E JUMP JUMPDEST ADD SWAP1 PUSH1 0x3A DUP3 ADD MSTORE PUSH2 0x2BF7 DUP3 MLOAD DUP1 SWAP4 DUP7 PUSH1 0x3B DUP6 ADD SWAP2 ADD PUSH2 0x1E3E JUMP JUMPDEST ADD SWAP2 PUSH10 0x102D11103334B6361E91 PUSH1 0xB1 SHL PUSH1 0x3B DUP5 ADD MSTORE DUP4 MLOAD SWAP4 DUP5 SWAP2 PUSH1 0x45 DUP6 ADD SWAP2 ADD PUSH2 0x1E3E JUMP JUMPDEST ADD PUSH4 0x1110179F PUSH1 0xE1 SHL PUSH1 0x45 DUP3 ADD MSTORE SUB PUSH1 0x29 DUP2 ADD DUP5 MSTORE ADD DUP3 PUSH2 0x1F59 JUMP JUMPDEST PUSH1 0x11 SWAP1 PUSH4 0x4E487B71 PUSH1 0xE0 SHL PUSH1 0x0 MSTORE MSTORE PUSH1 0x24 PUSH1 0x0 REVERT JUMPDEST PUSH1 0x11 DUP7 PUSH4 0x4E487B71 PUSH1 0xE0 SHL PUSH1 0x0 MSTORE MSTORE PUSH1 0x24 PUSH1 0x0 REVERT JUMPDEST POP SWAP3 PUSH1 0x8 DUP2 ADD SWAP4 DUP5 DUP3 GT PUSH2 0x2D30 JUMPI PUSH2 0x2C79 DUP6 PUSH2 0x3243 JUMP JUMPDEST SWAP2 PUSH2 0x2C8C PUSH2 0x2C86 DUP4 PUSH2 0x3243 JUMP JUMPDEST SWAP2 PUSH2 0x3243 JUMP JUMPDEST SWAP5 PUSH1 0x8 DUP4 ADD DUP1 SWAP4 GT PUSH2 0x2C38 JUMPI POP SWAP2 PUSH2 0x2C1C DUP3 PUSH2 0x2069 SWAP7 SWAP5 PUSH2 0x2CB5 PUSH2 0x2B23 PUSH2 0x2B1D PUSH1 0x49 SWAP10 SWAP8 PUSH2 0x3243 JUMP JUMPDEST SWAP2 PUSH1 0x40 MLOAD SWAP10 DUP11 SWAP8 PUSH1 0x2A PUSH2 0x2CE5 DUP11 PUSH1 0x20 SWAP10 PUSH10 0x3C7061746820643D224D PUSH1 0xB0 SHL DUP12 DUP4 ADD MSTORE DUP11 DUP2 MLOAD SWAP5 DUP6 SWAP4 ADD SWAP2 ADD PUSH2 0x1E3E JUMP JUMPDEST DUP10 ADD SWAP4 PUSH1 0x1 PUSH1 0xFD SHL SWAP5 DUP6 PUSH1 0x2A DUP3 ADD MSTORE PUSH2 0x2D07 DUP3 MLOAD DUP1 SWAP4 DUP12 PUSH1 0x2B DUP6 ADD SWAP2 ADD PUSH2 0x1E3E JUMP JUMPDEST ADD PUSH12 0x10209C101C1018101810181 PUSH1 0xA5 SHL PUSH1 0x2B DUP3 ADD MSTORE PUSH2 0x2BA4 DUP3 MLOAD DUP1 SWAP4 DUP11 PUSH1 0x37 DUP6 ADD SWAP2 ADD PUSH2 0x1E3E JUMP JUMPDEST PUSH1 0x11 DUP5 PUSH4 0x4E487B71 PUSH1 0xE0 SHL PUSH1 0x0 MSTORE MSTORE PUSH1 0x24 PUSH1 0x0 REVERT JUMPDEST POP PUSH2 0x2D4F DUP5 PUSH2 0x3243 JUMP JUMPDEST SWAP1 PUSH2 0x2D59 DUP2 PUSH2 0x3243 JUMP JUMPDEST PUSH1 0x8 DUP7 ADD DUP1 SWAP7 GT PUSH2 0x2D97 JUMPI PUSH2 0x2D6D DUP7 PUSH2 0x3243 JUMP JUMPDEST SWAP5 PUSH1 0x8 DUP4 ADD SWAP1 DUP2 DUP5 GT PUSH2 0x2C38 JUMPI POP PUSH1 0x49 SWAP5 SWAP3 PUSH2 0x2069 SWAP7 SWAP5 SWAP3 PUSH2 0x2CB5 PUSH2 0x2B23 PUSH2 0x2B1D PUSH2 0x2C1C SWAP6 PUSH2 0x3243 JUMP JUMPDEST PUSH1 0x11 DUP6 PUSH4 0x4E487B71 PUSH1 0xE0 SHL PUSH1 0x0 MSTORE MSTORE PUSH1 0x24 PUSH1 0x0 REVERT JUMPDEST POP PUSH2 0x2DB6 DUP5 PUSH2 0x3243 JUMP JUMPDEST SWAP1 PUSH1 0x8 DUP2 ADD DUP1 DUP3 GT PUSH2 0x2D97 JUMPI PUSH2 0x2DCB SWAP1 PUSH2 0x3243 JUMP JUMPDEST SWAP4 PUSH1 0x8 DUP7 ADD SWAP1 DUP2 DUP8 GT PUSH2 0x2C38 JUMPI POP SWAP2 PUSH2 0x2C1C PUSH1 0x49 SWAP5 SWAP3 PUSH2 0x2DEE PUSH2 0x2069 SWAP8 SWAP6 PUSH2 0x3243 JUMP JUMPDEST SWAP5 PUSH2 0x2CB5 PUSH2 0x2B23 PUSH2 0x2B1D DUP5 PUSH2 0x3243 JUMP JUMPDEST POP SWAP3 PUSH2 0x2E09 DUP2 PUSH2 0x3243 JUMP JUMPDEST SWAP1 PUSH1 0x8 DUP6 ADD SWAP1 DUP2 DUP7 GT PUSH2 0x2D97 JUMPI PUSH2 0x2E1F DUP3 PUSH2 0x3243 JUMP JUMPDEST SWAP1 PUSH2 0x2E32 PUSH2 0x2E2C DUP3 PUSH2 0x3243 JUMP JUMPDEST SWAP8 PUSH2 0x3243 JUMP JUMPDEST SWAP6 PUSH1 0x8 DUP3 ADD DUP1 SWAP3 GT PUSH2 0x2C38 JUMPI POP PUSH1 0x3F SWAP5 SWAP3 PUSH2 0x2069 SWAP7 SWAP5 SWAP3 PUSH2 0x2E58 PUSH2 0x2B23 PUSH2 0x2F3F SWAP5 PUSH2 0x3243 JUMP JUMPDEST SWAP2 PUSH1 0x40 MLOAD SWAP10 DUP11 SWAP8 PUSH1 0x2A PUSH2 0x2E88 DUP11 PUSH1 0x20 SWAP10 PUSH10 0x3C7061746820643D224D PUSH1 0xB0 SHL DUP12 DUP4 ADD MSTORE DUP11 DUP2 MLOAD SWAP5 DUP6 SWAP4 ADD SWAP2 ADD PUSH2 0x1E3E JUMP JUMPDEST DUP10 ADD SWAP4 PUSH1 0x1 PUSH1 0xFD SHL SWAP5 DUP6 PUSH1 0x2A DUP3 ADD MSTORE PUSH2 0x2EAA DUP3 MLOAD DUP1 SWAP4 DUP12 PUSH1 0x2B DUP6 ADD SWAP2 ADD PUSH2 0x1E3E JUMP JUMPDEST ADD SWAP2 PUSH2 0x813 PUSH1 0xF2 SHL SWAP3 DUP4 PUSH1 0x2B DUP3 ADD MSTORE PUSH2 0x2ECC DUP3 MLOAD DUP1 SWAP4 DUP12 PUSH1 0x2D DUP6 ADD SWAP2 ADD PUSH2 0x1E3E JUMP JUMPDEST ADD DUP5 PUSH1 0x2D DUP3 ADD MSTORE PUSH2 0x2EE6 DUP3 MLOAD DUP1 SWAP4 DUP11 PUSH1 0x2E DUP6 ADD SWAP2 ADD PUSH2 0x1E3E JUMP JUMPDEST ADD SWAP1 PUSH1 0x2E DUP3 ADD MSTORE PUSH2 0x2F00 DUP3 MLOAD DUP1 SWAP4 DUP9 PUSH1 0x30 DUP6 ADD SWAP2 ADD PUSH2 0x1E3E JUMP JUMPDEST ADD SWAP1 PUSH1 0x30 DUP3 ADD MSTORE PUSH2 0x2F1A DUP3 MLOAD DUP1 SWAP4 DUP7 PUSH1 0x31 DUP6 ADD SWAP2 ADD PUSH2 0x1E3E JUMP JUMPDEST ADD SWAP2 PUSH10 0x103D11103334B6361E91 PUSH1 0xB1 SHL PUSH1 0x31 DUP5 ADD MSTORE DUP4 MLOAD SWAP4 DUP5 SWAP2 PUSH1 0x3B DUP6 ADD SWAP2 ADD PUSH2 0x1E3E JUMP JUMPDEST ADD PUSH4 0x1110179F PUSH1 0xE1 SHL PUSH1 0x3B DUP3 ADD MSTORE SUB PUSH1 0x1F DUP2 ADD DUP5 MSTORE ADD DUP3 PUSH2 0x1F59 JUMP JUMPDEST POP SWAP3 SWAP2 PUSH1 0x8 DUP4 ADD SWAP1 DUP2 DUP5 GT PUSH2 0x2C38 JUMPI PUSH2 0x2F73 DUP3 PUSH2 0x3243 JUMP JUMPDEST SWAP2 PUSH1 0x8 DUP7 ADD SWAP2 DUP3 DUP8 GT PUSH2 0x2C38 JUMPI POP SWAP2 PUSH2 0x2F3F DUP3 PUSH2 0x2069 SWAP7 SWAP5 PUSH2 0x2E58 PUSH2 0x2B23 PUSH2 0x2E2C PUSH2 0x2FA9 PUSH2 0x2FA3 PUSH1 0x3F SWAP12 SWAP10 PUSH2 0x3243 JUMP JUMPDEST SWAP5 PUSH2 0x3243 JUMP JUMPDEST SWAP12 PUSH2 0x3243 JUMP JUMPDEST SWAP2 POP PUSH2 0x2FBA DUP4 PUSH2 0x3243 JUMP JUMPDEST SWAP3 PUSH2 0x2FC4 DUP4 PUSH2 0x3243 JUMP JUMPDEST SWAP2 PUSH1 0x8 DUP3 ADD DUP1 SWAP3 GT PUSH2 0x1EEF JUMPI PUSH2 0x2FD9 DUP3 PUSH2 0x3243 JUMP JUMPDEST SWAP5 PUSH2 0x2FEC PUSH2 0x2FE6 DUP7 PUSH2 0x3243 JUMP JUMPDEST SWAP4 PUSH2 0x3243 JUMP JUMPDEST SWAP5 PUSH1 0x8 DUP2 ADD DUP1 SWAP2 GT PUSH2 0x1EEF JUMPI PUSH2 0x2069 SWAP6 PUSH1 0x3F SWAP6 PUSH2 0x2E58 PUSH2 0x2F3F SWAP4 PUSH2 0x3243 JUMP JUMPDEST SWAP2 POP PUSH2 0x3016 DUP4 PUSH2 0x3243 JUMP JUMPDEST SWAP3 PUSH2 0x3020 DUP4 PUSH2 0x3243 JUMP JUMPDEST SWAP2 PUSH1 0x8 DUP3 ADD DUP1 DUP4 GT PUSH2 0x1EEF JUMPI PUSH2 0x2FD9 SWAP1 PUSH2 0x3243 JUMP JUMPDEST SWAP2 POP SWAP2 PUSH1 0x4 DUP2 ADD DUP1 SWAP2 GT PUSH2 0x1EEF JUMPI PUSH2 0x304C SWAP1 PUSH2 0x3243 JUMP JUMPDEST SWAP1 PUSH1 0x4 DUP2 ADD DUP1 SWAP2 GT PUSH2 0x1EEF JUMPI PUSH2 0x2069 SWAP2 PUSH2 0x3067 PUSH1 0x44 SWAP3 PUSH2 0x3243 JUMP JUMPDEST SWAP4 PUSH1 0x40 MLOAD SWAP5 DUP6 SWAP3 PUSH12 0x1E31B4B931B6329031BC1E91 PUSH1 0xA1 SHL PUSH1 0x20 DUP6 ADD MSTORE PUSH2 0x3097 DUP2 MLOAD DUP1 SWAP3 PUSH1 0x20 PUSH1 0x2C DUP9 ADD SWAP2 ADD PUSH2 0x1E3E JUMP JUMPDEST DUP4 ADD PUSH6 0x111031BC9E91 PUSH1 0xD1 SHL PUSH1 0x2C DUP3 ADD MSTORE PUSH2 0x30BC DUP3 MLOAD DUP1 SWAP4 PUSH1 0x20 PUSH1 0x32 DUP6 ADD SWAP2 ADD PUSH2 0x1E3E JUMP JUMPDEST ADD PUSH14 0x1110391E911A11103334B6361E91 PUSH1 0x91 SHL PUSH1 0x32 DUP3 ADD MSTORE PUSH2 0x30E8 DUP3 MLOAD DUP1 SWAP4 PUSH1 0x20 PUSH1 0x40 DUP6 ADD SWAP2 ADD PUSH2 0x1E3E JUMP JUMPDEST ADD PUSH4 0x1110179F PUSH1 0xE1 SHL PUSH1 0x40 DUP3 ADD MSTORE SUB PUSH1 0x24 DUP2 ADD DUP5 MSTORE ADD DUP3 PUSH2 0x1F59 JUMP JUMPDEST PUSH2 0x2069 SWAP3 POP PUSH2 0x3118 PUSH2 0x2C86 PUSH1 0x4F SWAP4 SWAP6 PUSH2 0x3243 JUMP JUMPDEST SWAP4 PUSH1 0x40 MLOAD SWAP5 DUP6 SWAP3 PUSH9 0x1E3932B1BA103C1E91 PUSH1 0xB9 SHL PUSH1 0x20 DUP6 ADD MSTORE PUSH2 0x3145 DUP2 MLOAD DUP1 SWAP3 PUSH1 0x20 PUSH1 0x29 DUP9 ADD SWAP2 ADD PUSH2 0x1E3E JUMP JUMPDEST DUP4 ADD PUSH5 0x11103C9E91 PUSH1 0xD9 SHL PUSH1 0x29 DUP3 ADD MSTORE PUSH2 0x3169 DUP3 MLOAD DUP1 SWAP4 PUSH1 0x20 PUSH1 0x2E DUP6 ADD SWAP2 ADD PUSH2 0x1E3E JUMP JUMPDEST ADD PUSH32 0x222077696474683D223822206865696768743D2238222066696C6C3D22000000 PUSH1 0x2E DUP3 ADD MSTORE PUSH2 0x31A4 DUP3 MLOAD DUP1 SWAP4 PUSH1 0x20 PUSH1 0x4B DUP6 ADD SWAP2 ADD PUSH2 0x1E3E JUMP JUMPDEST ADD PUSH4 0x1110179F PUSH1 0xE1 SHL PUSH1 0x4B DUP3 ADD MSTORE SUB PUSH1 0x2F DUP2 ADD DUP5 MSTORE ADD DUP3 PUSH2 0x1F59 JUMP JUMPDEST PUSH1 0x0 SWAP3 SWAP2 DUP2 SLOAD PUSH2 0x31CF DUP2 PUSH2 0x206C JUMP JUMPDEST SWAP3 PUSH1 0x1 SWAP2 DUP1 DUP4 AND SWAP1 DUP2 ISZERO PUSH2 0x3228 JUMPI POP PUSH1 0x1 EQ PUSH2 0x31EC JUMPI JUMPDEST POP POP POP POP JUMP JUMPDEST SWAP1 SWAP2 SWAP3 SWAP4 SWAP5 POP PUSH1 0x0 MSTORE PUSH1 0x20 SWAP1 DUP2 PUSH1 0x0 KECCAK256 SWAP1 PUSH1 0x0 SWAP2 JUMPDEST DUP6 DUP4 LT PUSH2 0x3217 JUMPI POP POP POP POP ADD SWAP1 CODESIZE DUP1 DUP1 DUP1 PUSH2 0x31E6 JUMP JUMPDEST DUP1 SLOAD DUP6 DUP5 ADD MSTORE SWAP2 DUP4 ADD SWAP2 DUP2 ADD PUSH2 0x3201 JUMP JUMPDEST PUSH1 0xFF NOT AND DUP5 MSTORE POP POP POP DUP2 ISZERO ISZERO SWAP1 SWAP2 MUL ADD SWAP2 POP CODESIZE DUP1 DUP1 DUP1 PUSH2 0x31E6 JUMP JUMPDEST DUP1 ISZERO PUSH2 0x3303 JUMPI DUP1 DUP2 PUSH1 0x0 SWAP3 JUMPDEST PUSH2 0x32EF JUMPI POP DUP1 PUSH2 0x325E DUP4 PUSH2 0x1F91 JUMP JUMPDEST SWAP3 PUSH2 0x326C PUSH1 0x40 MLOAD SWAP5 DUP6 PUSH2 0x1F59 JUMP JUMPDEST DUP1 DUP5 MSTORE PUSH1 0x1F NOT PUSH2 0x327B DUP3 PUSH2 0x1F91 JUMP JUMPDEST ADD CALLDATASIZE PUSH1 0x20 DUP7 ADD CALLDATACOPY SWAP2 JUMPDEST PUSH2 0x328D JUMPI POP POP SWAP1 JUMP JUMPDEST PUSH1 0x0 NOT DUP3 ADD SWAP2 DUP1 DUP4 GT PUSH2 0x1EEF JUMPI DUP3 PUSH1 0xA SWAP1 DUP2 DUP5 DIV SWAP4 DUP3 DUP6 MUL SWAP3 DUP6 DUP5 DIV EQ DUP6 ISZERO OR ISZERO PUSH2 0x1EEF JUMPI PUSH2 0x32BF PUSH1 0xFF SWAP4 DUP5 SWAP3 PUSH2 0x2889 JUMP JUMPDEST AND PUSH1 0x30 ADD SWAP2 DUP3 GT PUSH2 0x1EEF JUMPI DUP6 MLOAD GT ISZERO PUSH2 0x216F JUMPI PUSH1 0xF8 SHL PUSH1 0x1 PUSH1 0x1 PUSH1 0xF8 SHL SUB NOT AND PUSH1 0x0 BYTE SWAP1 DUP5 ADD PUSH1 0x1F ADD MSTORE8 DUP1 PUSH2 0x3284 JUMP JUMPDEST SWAP2 PUSH2 0x32FB PUSH1 0xA SWAP2 PUSH2 0x214C JUMP JUMPDEST SWAP3 DIV DUP1 PUSH2 0x324F JUMP JUMPDEST POP PUSH1 0x40 MLOAD PUSH1 0x40 DUP2 ADD DUP2 DUP2 LT PUSH1 0x1 PUSH1 0x1 PUSH1 0x40 SHL SUB DUP3 GT OR PUSH2 0x27E JUMPI PUSH1 0x40 MSTORE PUSH1 0x1 DUP2 MSTORE PUSH1 0x3 PUSH1 0xFC SHL PUSH1 0x20 DUP3 ADD MSTORE SWAP1 JUMP INVALID LOG2 PUSH5 0x6970667358 0x22 SLT KECCAK256 JUMP SLT 0xF MOD PUSH11 0x563F1E8954672661DF172C RETURNDATACOPY PUSH27 0xB4436D8098929200A02818A1F15E64736F6C634300081400330000 "},"methodIdentifiers":{"ARTISTIC_PERIOD()":"3323a706","CYCLE_PERIOD()":"113bc999","VOTING_PERIOD()":"b1610d7e","balanceOf(address)":"70a08231","buyPixel(uint256[],uint256[])":"6ed958f1","calculateRoyalties(uint256,uint256)":"d08629c1","canvasCreation()":"ff188dca","castVote(bool)":"7ace48e7","checkMultiplePixel(uint256[],uint256[])":"c7eab2ec","checkPixel(uint256,uint256)":"040cdfd8","checkVoteOutcome(uint256)":"5c8c6407","fillPixel(bytes[])":"3bdb693e","generateSVG()":"ad711e9e","getBalance(address)":"f8b2cb4f","getCurrentCycle()":"be26ed7f","getMintDate(uint256)":"bc5bc2fb","getRowSVG()":"ff397c6a","hasVoted(address)":"09eef43e","isInArtisticPeriod()":"4882a7ea","isInVotingPeriod()":"b3a1ddf4","manager()":"481c6a75","maxHeight()":"63aa5ce2","maxWidth()":"6006ecc8","mintDates(uint256)":"c4323fc1","nftContract()":"d56d229d","payRoyalties(uint256[],uint256[])":"e50eb5da","pixelSVGs(uint256)":"c4e4b90c","rowSVGs(uint256)":"e1245900","royaltyAskPeriod()":"6e70fcc6","royaltyDenominator()":"fd8d7ed3","royaltyRate()":"c4d1510d","seekRoyaltyPayment(uint256,uint256,uint256)":"85a9473d","setNFTContract(address)":"a7ccabdf","setPixelValue(uint256[],uint256[],uint256[])":"8232b562","updateCurrency(address)":"5e027601","voteRegister(uint256)":"30b5d6d3","window(uint256,uint256)":"c730e65d"}}}}}