{"contracts/Pixelmap.sol":{"Pixelmap":{"abi":[{"inputs":[],"stateMutability":"nonpayable","type":"constructor"},{"anonymous":false,"inputs":[{"indexed":true,"internalType":"uint256","name":"x","type":"uint256"},{"indexed":true,"internalType":"uint256","name":"y","type":"uint256"}],"name":"PixelBought","type":"event"},{"anonymous":false,"inputs":[{"indexed":true,"internalType":"uint256","name":"x","type":"uint256"},{"indexed":true,"internalType":"uint256","name":"y","type":"uint256"}],"name":"PixelFilled","type":"event"},{"anonymous":false,"inputs":[{"indexed":true,"internalType":"uint256","name":"x","type":"uint256"},{"indexed":true,"internalType":"uint256","name":"y","type":"uint256"}],"name":"PixelValueSet","type":"event"},{"anonymous":false,"inputs":[{"indexed":true,"internalType":"uint256","name":"x","type":"uint256"},{"indexed":true,"internalType":"uint256","name":"y","type":"uint256"}],"name":"RoyaltiesPaid","type":"event"},{"anonymous":false,"inputs":[{"indexed":true,"internalType":"address","name":"owner","type":"address"}],"name":"VoteCasted","type":"event"},{"inputs":[],"name":"ARTISTIC_PERIOD","outputs":[{"internalType":"uint256","name":"","type":"uint256"}],"stateMutability":"view","type":"function"},{"inputs":[],"name":"CYCLE_PERIOD","outputs":[{"internalType":"uint256","name":"","type":"uint256"}],"stateMutability":"view","type":"function"},{"inputs":[],"name":"VOTING_PERIOD","outputs":[{"internalType":"uint256","name":"","type":"uint256"}],"stateMutability":"view","type":"function"},{"inputs":[{"internalType":"address","name":"","type":"address"}],"name":"balanceOf","outputs":[{"internalType":"uint256","name":"","type":"uint256"}],"stateMutability":"view","type":"function"},{"inputs":[{"internalType":"uint256[]","name":"xValues","type":"uint256[]"},{"internalType":"uint256[]","name":"yValues","type":"uint256[]"}],"name":"buyPixel","outputs":[],"stateMutability":"nonpayable","type":"function"},{"inputs":[{"internalType":"uint256","name":"x","type":"uint256"},{"internalType":"uint256","name":"y","type":"uint256"}],"name":"calculateRoyalties","outputs":[{"internalType":"uint256","name":"","type":"uint256"}],"stateMutability":"view","type":"function"},{"inputs":[],"name":"canvasCreation","outputs":[{"internalType":"uint256","name":"","type":"uint256"}],"stateMutability":"view","type":"function"},{"inputs":[{"internalType":"bool","name":"vote","type":"bool"}],"name":"castVote","outputs":[],"stateMutability":"nonpayable","type":"function"},{"inputs":[{"internalType":"uint256[]","name":"xValues","type":"uint256[]"},{"internalType":"uint256[]","name":"yValues","type":"uint256[]"}],"name":"checkMultiplePixel","outputs":[{"components":[{"internalType":"address","name":"owner","type":"address"},{"internalType":"uint256","name":"shapeID","type":"uint256"},{"internalType":"uint256","name":"price","type":"uint256"},{"internalType":"string","name":"color","type":"string"},{"internalType":"uint256","name":"royaltyLastPaid","type":"uint256"},{"internalType":"bool","name":"askedToPayRoyalties","type":"bool"},{"internalType":"uint256","name":"royaltyAskDate","type":"uint256"}],"internalType":"struct Pixelmap.Pixel[]","name":"","type":"tuple[]"}],"stateMutability":"view","type":"function"},{"inputs":[{"internalType":"uint256","name":"x","type":"uint256"},{"internalType":"uint256","name":"y","type":"uint256"}],"name":"checkPixel","outputs":[{"components":[{"internalType":"address","name":"owner","type":"address"},{"internalType":"uint256","name":"shapeID","type":"uint256"},{"internalType":"uint256","name":"price","type":"uint256"},{"internalType":"string","name":"color","type":"string"},{"internalType":"uint256","name":"royaltyLastPaid","type":"uint256"},{"internalType":"bool","name":"askedToPayRoyalties","type":"bool"},{"internalType":"uint256","name":"royaltyAskDate","type":"uint256"}],"internalType":"struct Pixelmap.Pixel","name":"","type":"tuple"}],"stateMutability":"view","type":"function"},{"inputs":[],"name":"checkVoteOutcome","outputs":[],"stateMutability":"nonpayable","type":"function"},{"inputs":[{"internalType":"bytes[]","name":"_pixels","type":"bytes[]"}],"name":"fillPixel","outputs":[],"stateMutability":"nonpayable","type":"function"},{"inputs":[],"name":"generateSVG","outputs":[{"internalType":"string","name":"","type":"string"}],"stateMutability":"view","type":"function"},{"inputs":[{"internalType":"address","name":"_owner","type":"address"}],"name":"getBalance","outputs":[{"internalType":"uint256","name":"","type":"uint256"}],"stateMutability":"view","type":"function"},{"inputs":[],"name":"getCurrentCycle","outputs":[{"internalType":"uint256","name":"","type":"uint256"}],"stateMutability":"view","type":"function"},{"inputs":[{"internalType":"address","name":"_owner","type":"address"}],"name":"hasVoted","outputs":[{"internalType":"bool","name":"","type":"bool"}],"stateMutability":"view","type":"function"},{"inputs":[],"name":"isInArtisticPeriod","outputs":[{"internalType":"bool","name":"","type":"bool"}],"stateMutability":"view","type":"function"},{"inputs":[],"name":"isInVotingPeriod","outputs":[{"internalType":"bool","name":"","type":"bool"}],"stateMutability":"view","type":"function"},{"inputs":[],"name":"manager","outputs":[{"internalType":"address","name":"","type":"address"}],"stateMutability":"view","type":"function"},{"inputs":[],"name":"maxHeight","outputs":[{"internalType":"uint256","name":"","type":"uint256"}],"stateMutability":"view","type":"function"},{"inputs":[],"name":"maxWidth","outputs":[{"internalType":"uint256","name":"","type":"uint256"}],"stateMutability":"view","type":"function"},{"inputs":[],"name":"nftContract","outputs":[{"internalType":"contract CanvasCollection","name":"","type":"address"}],"stateMutability":"view","type":"function"},{"inputs":[{"internalType":"uint256[]","name":"xValues","type":"uint256[]"},{"internalType":"uint256[]","name":"yValues","type":"uint256[]"}],"name":"payRoyalties","outputs":[],"stateMutability":"nonpayable","type":"function"},{"inputs":[{"internalType":"uint256","name":"","type":"uint256"}],"name":"pixelSVGs","outputs":[{"internalType":"string","name":"","type":"string"}],"stateMutability":"view","type":"function"},{"inputs":[{"internalType":"uint256","name":"","type":"uint256"}],"name":"rowSVGs","outputs":[{"internalType":"string","name":"","type":"string"}],"stateMutability":"view","type":"function"},{"inputs":[],"name":"royaltyAskPeriod","outputs":[{"internalType":"uint256","name":"","type":"uint256"}],"stateMutability":"view","type":"function"},{"inputs":[],"name":"royaltyDenominator","outputs":[{"internalType":"uint256","name":"","type":"uint256"}],"stateMutability":"view","type":"function"},{"inputs":[],"name":"royaltyRate","outputs":[{"internalType":"uint256","name":"","type":"uint256"}],"stateMutability":"view","type":"function"},{"inputs":[{"internalType":"uint256","name":"x","type":"uint256"},{"internalType":"uint256","name":"y","type":"uint256"},{"internalType":"uint256","name":"_price","type":"uint256"}],"name":"seekRoyaltyPayment","outputs":[],"stateMutability":"nonpayable","type":"function"},{"inputs":[{"internalType":"address","name":"_nftContract","type":"address"}],"name":"setNFTContract","outputs":[],"stateMutability":"nonpayable","type":"function"},{"inputs":[{"internalType":"uint256[]","name":"xValues","type":"uint256[]"},{"internalType":"uint256[]","name":"yValues","type":"uint256[]"},{"internalType":"uint256[]","name":"priceValues","type":"uint256[]"}],"name":"setPixelValue","outputs":[],"stateMutability":"nonpayable","type":"function"},{"inputs":[{"internalType":"address","name":"_newToken","type":"address"}],"name":"updateCurrency","outputs":[],"stateMutability":"nonpayable","type":"function"},{"inputs":[{"internalType":"uint256","name":"","type":"uint256"}],"name":"voteRegister","outputs":[{"internalType":"uint256","name":"yesVotes","type":"uint256"},{"internalType":"uint256","name":"noVotes","type":"uint256"}],"stateMutability":"view","type":"function"},{"inputs":[{"internalType":"uint256","name":"","type":"uint256"},{"internalType":"uint256","name":"","type":"uint256"}],"name":"window","outputs":[{"internalType":"address","name":"owner","type":"address"},{"internalType":"uint256","name":"shapeID","type":"uint256"},{"internalType":"uint256","name":"price","type":"uint256"},{"internalType":"string","name":"color","type":"string"},{"internalType":"uint256","name":"royaltyLastPaid","type":"uint256"},{"internalType":"bool","name":"askedToPayRoyalties","type":"bool"},{"internalType":"uint256","name":"royaltyAskDate","type":"uint256"}],"stateMutability":"view","type":"function"}],"evm":{"bytecode":{"linkReferences":{},"object":"6080806040523461004f57603260025560018060a01b031973c02aaa39b223fe8d0a0e5c4f27ead9083c756cc2816004541617600455339060015416176001554260035561315990816100558239f35b600080fdfe6080604052600436101561001257600080fd5b6000803560e01c8063040cdfd814611bce57806309eef43e14611b6f578063113bc99914611b5157806330b5d6d314611b1c5780633323a706146114e45780633bdb693e14611596578063481c6a751461156d5780634882a7ea1461153c5780635e027601146114ee5780636006ecc8146114e957806363aa5ce2146114e95780636e70fcc6146114e45780636ed958f114610d6457806370a08231146102db5780637ace48e714610b725780638232b562146108f557806385a9473d146107d7578063a7ccabdf1461078a578063ad711e9e14610634578063b1610d7e14610616578063b3a1ddf4146105e4578063be26ed7f146105b8578063c4d1510d1461059a578063c4e4b90c1461056b578063c730e65d146104d5578063c7eab2ec146103c8578063d08629c1146103a6578063d56d229d1461037f578063e124590014610338578063e50eb5da1461031d578063f8b2cb4f146102db578063fd8d7ed3146102be578063fe91f6eb146101b35763ff188dca1461019357600080fd5b346101b057806003193601126101b0576020600354604051908152f35b80fd5b50346101b057806003193601126101b05761020760035462054600806101d983426120c8565b04845261104790816020526101f3604086205493426120c8565b048452602052600160408420015490611cbc565b1561028957805460015482916001600160a01b039182169116803b15610285576024839260405194859384926335313c2160e11b845260048401525af1801561027a57610252575080f35b6001600160401b0381116102665760405280f35b634e487b7160e01b82526041600452602482fd5b6040513d84823e3d90fd5b5050fd5b60405162461bcd60e51b815260206004820152600d60248201526c139bc81d9bdd195cc818d85cdd609a1b6044820152606490fd5b50346101b057806003193601126101b05760206040516103e88152f35b50346101b05760203660031901126101b0576004356001600160a01b0381169081900361031957816040916020935261104683522054604051908152f35b5080fd5b50346101b05761033561032f36611e16565b9061216f565b80f35b50346101b05760203660031901126101b0576004359060408210156101b05761037b6103678361100601611e96565b604051918291602083526020830190611c3b565b0390f35b50346101b057806003193601126101b057546040516001600160a01b039091168152602090f35b50346101b05760206103c06103ba36611bfd565b906127f6565b604051908152f35b50346101b0576103d736611e16565b6103e482518251146120d5565b8151906103f082611d6a565b926103fe6040519485611d49565b828452601f1961040d84611d6a565b01855b8181106104be575050845b8381106104805760408051602080825287518183018190528993600582901b8401810192808b01929185015b8287106104545785850386f35b909192938280610470600193603f198a82030186528851611c60565b9601920196019592919092610447565b806104a261049060019385611f4b565b5161049b8387611f4b565b519061271f565b6104ac8288611f4b565b526104b78187611f4b565b500161041b565b6020906104c96126e7565b82828901015201610410565b50346101b0576040906104e736611bfd565b90825260056020528282209082526020522060018060a01b03815416600182015491600281015461051a60038301611e96565b91610555600482015493600660ff6005850154169301549360405197889788526020880152604087015260e0606087015260e0860190611c3b565b926080850152151560a084015260c08301520390f35b50346101b05760203660031901126101b057600435906110008210156101b05761037b61036783600601611e96565b50346101b057806003193601126101b0576020600254604051908152f35b50346101b057806003193601126101b0576020620546006105db600354426120c8565b04604051908152f35b50346101b057806003193601126101b05760206203f4806205460061060b600354426120c8565b061015604051908152f35b50346101b057806003193601126101b0576020604051620151808152f35b50346101b057806003193601126101b057604051608081018181106001600160401b0382111761077657604052605781526020907f3c7376672077696474683d2236303022206865696768743d2236303022207669828201527f6577426f783d2230203020363030203630302220786d6c6e733d22687474703a6040820152761797bbbbbb973b999737b933979918181817b9bb33911f60491b6060820152915b6040811061072c57506107186026604051846106fa8296518092878086019101611c18565b8101651e17b9bb339f60d11b85820152036006810185520183611d49565b61037b604051928284938452830190611c3b565b918161076b6107719261075d60405193826107508694518092848088019101611c18565b8301018761100601612fb0565b03601f198101835282611d49565b92611f3c565b6106d5565b634e487b7160e01b83526041600452602483fd5b50346101b05760203660031901126101b0576004356001600160a01b03818116918290036107d3576107c190600154163314612686565b81546001600160a01b03191617815580f35b8280fd5b50346101b05760603660031901126101b0576004356024359061080560018060a01b03600154163314612686565b808352600560209181835260408520848652835260ff8260408720015416806108b5575b1561087d57808552818352604085208486528352604435600260408720015580855281835260408520848652835281604086200160ff19815416905584528152604083209183525280600660408220015580f35b808552818352604085208486528352816040862001600160ff1982541617905584528152604083209183525242600660408320015580f35b5080855281835260408520848652835260066040862001546203f48081018091116108e1574211610829565b634e487b7160e01b86526011600452602486fd5b50346101b05760603660031901126101b0576001600160401b036004358181116107d357610927903690600401611db8565b6024908135838111610b6e57610941903690600401611db8565b916044938435908111610b6a5761095c903690600401611db8565b908251845181149081610b5f575b5015610b0c57825194865b868110610a1357505050610989838361216f565b845b848110610996578580f35b806109a360019284611f4b565b516109ae8286611f4b565b51885260206005815260408920906109c68489611f4b565b518a525260026040892001556109dc8185611f4b565b516109e78287611f4b565b51907f1c362b7fc7c4865e1e7ede89f240549bbd8b5ee43b51383c9c0392687d6d10ec8980a30161098b565b610a1d8186611f4b565b516040610a2a8389611f4b565b51911090811591610b00575b50610ac257610a458186611f4b565b51885260206005815260408920610a5c8389611f4b565b518a5281526040892054336001600160a01b0390911603610a805750600101610975565b6064907f6f6e6c79206f776e65722063616e2073657420706978656c2076616c7565000084601e876040519462461bcd60e51b86526004860152840152820152fd5b60405162461bcd60e51b815260206004820152601881850152774120706978656c206973206f7574206f6620626f756e647360401b81840152606490fd5b60409150101538610a36565b6084907f696e70757420617272617973206d757374206265206f66207468652073616d658660276040519362461bcd60e51b85526020600486015284015282015266040d8cadccee8d60cb1b6064820152fd5b90508251143861096a565b8580fd5b8480fd5b50346101b0576020806003193601126103195760043580151581036107d35760035462054600906203f48082610ba883426120c8565b0610610d235733855261104684526040852054908115610cce5782610bcd82426120c8565b0486526110479384865260026040882001338852865260ff604088205416610c995783919015610c705750610c04600354426120c8565b048552828452610c1960408620918254611cbc565b90555b610c28600354426120c8565b048352815260026040832001903383525260408120600160ff19825416179055337f7ce969a18bb6b0fba42c6d9746e7d08eeca4c661809659c91d276456e3153ac08280a280f35b610c7a90426120c8565b048552828452610c9260016040872001918254611cbc565b9055610c1c565b60405162461bcd60e51b815260048101879052600d60248201526c185b1c9958591e481d9bdd1959609a1b6044820152606490fd5b60405162461bcd60e51b815260048101869052602760248201527f6e6f20706978656c73206f776e6564203d206e6f20766f74657320746f2062656044820152660818d85cdd195960ca1b6064820152608490fd5b60405162461bcd60e51b81526004810185905260196024820152782b37ba34b7339031bab93932b73a363c903737ba1037b832b760391b6044820152606490fd5b50346101b057610d7336611e16565b610d8082518251146120d5565b815190835b828110610d90578480f35b610d9a8185611f4b565b516040610da78385611f4b565b519110908115916114d8575b506114bb57610dc28185611f4b565b518552600560209080825260408720610ddb8486611f4b565b518852825260408720546001600160a01b03908116610e9f57509061104691610e048488611f4b565b518852815260408720610e178486611f4b565b5188528152604087203360018060a01b0319825416179055338752526040852080549060018201809211610e8b57556001905b610e548186611f4b565b51610e5f8285611f4b565b51907fee0e9a85d097f632450e6ac08750207c8f039246ee437b10eaf708b397d00ad88880a301610d85565b634e487b7160e01b87526011600452602487fd5b610ebe610eac8589611f4b565b51610eb78688611f4b565b51906127f6565b90610ec98589611f4b565b51895282845260408920610edd8688611f4b565b518a52845281600260408b2001541160001461125f57610efd8589611f4b565b51895282845260408920610f118688611f4b565b518a52845288610f288360026040842001546120c8565b9282600454166040516370a0823160e01b81523360048201528781602481855afa8015611220578c8a92869261122b575b50610f8e92610f6791611f4b565b51855287895260408520610f7b8b8d611f4b565b51865289526002604086200154106125d6565b604051636eb1769f60e11b8152336004820152306024820152908782604481845afa8015611220578c8a918c8b9588926111e1575b5091611004849261100994610fdc611049989785611f4b565b518b528d8952610ff08560408d2092611f4b565b518b528852600260408b200154111561262e565b611f4b565b5185528783526040852061101d8b8d611f4b565b518652835285604086205416966040519586809481936323b872dd60e01b9b8c8452336004850161214d565b03925af19081156111d6576110849287926111b9575b5083600454166001958d8688541691604051968795869485938452336004850161214d565b03925af180156111ae57611181575b5061109e8589611f4b565b518952828452604089206110b28688611f4b565b518a528452604089205416885261104680845260408920805490600019820191821161116d57553389528352604088208054918201809211611159575560019291906110fe8388611f4b565b518852808252604088206111128487611f4b565b51895282526040882033858060a01b03198254161790556111338388611f4b565b518852815260408720906111478386611f4b565b51885252426004604088200155610e4a565b634e487b7160e01b89526011600452602489fd5b634e487b7160e01b8b52601160045260248bfd5b6111a090853d87116111a7575b6111988183611d49565b810190612135565b5038611093565b503d61118e565b6040513d8c823e3d90fd5b6111cf90833d85116111a7576111988183611d49565b503861105f565b6040513d8d823e3d90fd5b9495935050505081813d8311611219575b6111fc8183611d49565b81010312611215575187919089908d908c611004610fc3565b8380fd5b503d6111f2565b6040513d86823e3d90fd5b925050508781813d8311611258575b6112448183611d49565b81010312611215575188908c610f8e610f59565b503d61123a565b8098979695949392915060045416604051986370a0823160e01b8a523360048b015260249984818c81865afa80156111ae578a9061148c575b6112ce91506112a7878b611f4b565b518b5284865260408b206112bb888a611f4b565b518c528652600260408c200154106125d6565b604051636eb1769f60e11b8152336004820152306024820152918483604481845afa9283156111ae57898b93928792859661144f575b5061134061138f9495966113188b85611f4b565b5188528885526040882061132c8c8e611f4b565b51895285526002604089200154111561262e565b600260406001976113558c898b541696611f4b565b5181528986528181206113688d8f611f4b565b5182528652200154918d6040518096819582946323b872dd60e01b8452336004850161214d565b03925af180156111ae57611432575b506113a98589611f4b565b518952828452604089206113bd8688611f4b565b518a528452604089205416885261104680845260408920805490600019820191821161141f5755338952835260408820805491820180921161140c576001959697989950556110fe8388611f4b565b634e487b7160e01b895260116004528989fd5b634e487b7160e01b8b5260116004528b8bfd5b61144890853d87116111a7576111988183611d49565b503861139e565b93955093505081813d8311611485575b6114698183611d49565b81010312611481575191899185908a90611340611304565b8980fd5b503d61145f565b508481813d83116114b4575b6114a28183611d49565b81010312611481576112ce9051611298565b503d611498565b60405162461bcd60e51b8152806114d460048201611f75565b0390fd5b60409150101538610db3565b611cdf565b611d9c565b50346101b05760203660031901126101b0576004356001600160a01b03818116918290036107d35761152590600154163314612686565b600480546001600160a01b03191691909117905580f35b50346101b057806003193601126101b05760206203f48062054600611563600354426120c8565b0610604051908152f35b50346101b057806003193601126101b0576001546040516001600160a01b039091168152602090f35b50346101b05760203660031901126101b0576004356001600160401b0381116103195736602382011215610319578060040135906115d382611d6a565b916115e16040519384611d49565b8083526024602084019160051b83010191368311610b6e5760248101915b838310611ab15785856203f4806205460061161c600354426120c8565b061015611a61578051906040519061082082018281106001600160401b03821117611a4d5760405260408252610800366020840137835b838110611735578483815b6040811061166a578280f35b6116748183611f4b565b51611682575b60010161165e565b60405161168e81611d2e565b838152600682811b6001600160fa1b03841684036108e157806040019081604011610e8b5791905b8083106116d857505050906116d16001928261100601611fa6565b905061167a565b90919261100084101561172157602061171461171a9261075d60405193826117098694518092848088019101611c18565b830101888801612fb0565b93611f3c565b91906116b6565b634e487b7160e01b87526032600452602487fd5b61173f8183611f4b565b518051810181602082019160809182910312611a4957602083015191604084015193606081015192810151906001600160401b038211611a45570181603f8201121561148157602081015161179381611d81565b926117a16040519485611d49565b81845260408284010111611a45576117c0916040602085019101611c18565b60408310801590611a3a575b6114bb57600a8210156119fc57828952600560205260408920848a5260205260ff600560408b2001541661199f57828952600560209081526040808b20868c529091528920546001600160a01b03163314611834575b5050505061182f90611f3c565b611653565b61185690838a52600560205260408a20858b52602052600360408b2001611fa6565b8188526005602052604088208389526020526001604089200155808261194b575b8188526005602052604088208389526020526001604089200154600980840284810482148515171561116d5781860291868304148615171561116d57906118df92916118d9600360408e89815260056020528181208b82526020522001611e96565b92612853565b906110008110156119375761182f949392916118fd91600601611fa6565b60016119098388611f4b565b527fa9a418da632d42c446a125f10b007831ba0e348168b6b2474a2383ac5df4c2808880a390868080611822565b634e487b7160e01b89526032600452602489fd5b5061195682826120b5565b60408281031161198b578260001981011161198b57611986906119806000198501846040036120b5565b90611cbc565b611877565b634e487b7160e01b88526011600452602488fd5b60405162461bcd60e51b815260206004820152602f60248201527f6f776e6572207761732061736b656420746f20666972737420736574746c652060448201526e1c9bde585b1d1e481c185e5b595b9d608a1b6064820152608490fd5b60405162461bcd60e51b81526020600482015260166024820152757368617065204944206e6f7420617661696c61626c6560501b6044820152606490fd5b5060408410156117cc565b8a80fd5b8780fd5b634e487b7160e01b85526041600452602485fd5b60405162461bcd60e51b815260206004820152602260248201527f417274697374696320706572696f642063757272656e746c79206e6f74206f7060448201526132b760f11b6064820152608490fd5b82356001600160401b038111611b1857820136604382011215611b1857602481013591611add83611d81565b611aea6040519182611d49565b83815288604436818787010111610319578560209687969287930183860137830101528152019201916115ff565b8680fd5b50346101b05760203660031901126101b057604080916004358152611047602052206001815491015482519182526020820152f35b50346101b057806003193601126101b0576020604051620546008152f35b50346101b05760203660031901126101b0576004356001600160a01b0381169081900361031957604060209260ff9262054600611bae600354426120c8565b048252611047855260028383200190825284522054166040519015158152f35b50346101b05761037b611be9611be336611bfd565b9061271f565b604051918291602083526020830190611c60565b6040906003190112611c13576004359060243590565b600080fd5b60005b838110611c2b5750506000910152565b8181015183820152602001611c1b565b90602091611c5481518092818552858086019101611c18565b601f01601f1916010190565b9060018060a01b038251168152602082015160208201526040820151604082015260c080611c9d606085015160e0606086015260e0850190611c3b565b936080810151608085015260a0810151151560a0850152015191015290565b91908201809211611cc957565b634e487b7160e01b600052601160045260246000fd5b34611c13576000366003190112611c135760206040516203f4808152f35b60e081019081106001600160401b03821117611d1857604052565b634e487b7160e01b600052604160045260246000fd5b602081019081106001600160401b03821117611d1857604052565b90601f801991011681019081106001600160401b03821117611d1857604052565b6001600160401b038111611d185760051b60200190565b6001600160401b038111611d1857601f01601f191660200190565b34611c13576000366003190112611c1357602060405160408152f35b81601f82011215611c1357803591611dcf83611d6a565b92611ddd6040519485611d49565b808452602092838086019260051b820101928311611c13578301905b828210611e07575050505090565b81358152908301908301611df9565b906040600319830112611c13576001600160401b03600435818111611c135783611e4291600401611db8565b92602435918211611c1357611e5991600401611db8565b90565b90600182811c92168015611e8c575b6020831014611e7657565b634e487b7160e01b600052602260045260246000fd5b91607f1691611e6b565b9060405191826000825492611eaa84611e5c565b908184526001948581169081600014611f195750600114611ed6575b5050611ed492500383611d49565b565b9093915060005260209081600020936000915b818310611f01575050611ed493508201013880611ec6565b85548884018501529485019487945091830191611ee9565b915050611ed494506020925060ff191682840152151560051b8201013880611ec6565b6000198114611cc95760010190565b8051821015611f5f5760209160051b010190565b634e487b7160e01b600052603260045260246000fd5b606090602081526016602082015275706978656c206973206f7574206f6620626f756e647360501b60408201520190565b91909182516001600160401b038111611d1857611fc38254611e5c565b601f811161206d575b50602080601f8311600114612009575081929394600092611ffe575b50508160011b916000199060031b1c1916179055565b015190503880611fe8565b90601f198316958460005282600020926000905b8882106120555750508360019596971061203c575b505050811b019055565b015160001960f88460031b161c19169055388080612032565b8060018596829496860151815501950193019061201d565b600083815260208120601f840160051c810192602085106120ab575b601f0160051c01915b8281106120a0575050611fcc565b818155600101612092565b9092508290612089565b81810292918115918404141715611cc957565b91908203918211611cc957565b156120dc57565b60405162461bcd60e51b815260206004820152602b60248201527f7820616e64207920696e7075742061727261797320617265206f66207661726960448201526a6f7573206c656e6774687360a81b6064820152608490fd5b90816020910312611c1357518015158103611c135790565b6001600160a01b03918216815291166020820152604081019190915260600190565b91909161217f81518451146120d5565b80516000935b818510612193575050509050565b61219d8584611f4b565b51946121a98183611f4b565b51604080809810918215926125cb575b50506125b3576121c98185611f4b565b516000526005602090808252876000206121e38486611f4b565b51600052825260018060a01b0397338982600020541603612565576122088488611f4b565b516000528183528060002061221d8587611f4b565b516000528352600442818360002001540361224e575b50505050612245919293949550611f3c565b93929190612185565b61226661225b868a611f4b565b51610eb78789611f4b565b99808254169083516370a0823160e01b8152338482015260249087818381875afa9081156124d957908e91600091612535575b50106124e4578451636eb1769f60e11b8152338582019081523060208201528890829081906040010381875afa9081156124d957908e916000916124a9575b50106124585750859161230891600154169c600086519e8f94859384926323b872dd60e01b8452338a850161214d565b03925af1998a1561244d57612245969798999a612430575b5061232b858a611f4b565b51600052828452816000206123408689611f4b565b51600052845242908260002001556123588489611f4b565b516000528183528060002061236d8588611f4b565b51600052835260ff82826000200154166123ce575b50505061238f8186611f4b565b5161239a8285611f4b565b51907fe61af2269c9afbdb69efce2b15f2a464f8ee6237f105b3d4024f2e824a9f0af3600080a38594939291388080612233565b6000926006926123de868b611f4b565b5185528082528285206123f1878a611f4b565b51865282528285208101805460ff1916905561240d868b611f4b565b5185528152818420906124208689611f4b565b5185525282200155388080612382565b61244690853d87116111a7576111988183611d49565b5038612320565b82513d6000823e3d90fd5b8360276084928988519362461bcd60e51b85528401528201527f696e73756666696369656e7420616c6c6f77616e636520746f2070617920726f60448201526679616c7469657360c81b6064820152fd5b91508882813d83116124d2575b6124c08183611d49565b810103126101b057508d9051386122d8565b503d6124b6565b86513d6000823e3d90fd5b8360276084928988519362461bcd60e51b85528401528201527f6e6f742073756666696369656e742062616c616e636520746f2070617920726f60448201526679616c7469657360c81b6064820152fd5b91508882813d831161255e575b61254c8183611d49565b810103126101b057508d905138612299565b503d612542565b5162461bcd60e51b815260048101839052602260248201527f6f6e6c7920706978656c206f776e65722063616e2070617920726f79616c7469604482015261657360f01b6064820152608490fd5b855162461bcd60e51b8152806114d460048201611f75565b1015905086386121b9565b156125dd57565b60405162461bcd60e51b815260206004820152602360248201527f6e6f742073756666696369656e742062616c616e636520746f206275792070696044820152621e195b60ea1b6064820152608490fd5b1561263557565b60405162461bcd60e51b815260206004820152602360248201527f696e73756666696369656e7420616c6c6f77616e636520746f206275792070696044820152621e195b60ea1b6064820152608490fd5b1561268d57565b60405162461bcd60e51b815260206004820152602c60248201527f6f776e65722063757272656e74206d616e616765722063616e2063616c6c207460448201526b3434b990333ab731ba34b7b760a11b6064820152608490fd5b604051906126f482611cfd565b8160c06000918281528260208201528260408201526060808201528260808201528260a08201520152565b906127286126e7565b50604091828110806127ed575b156127b3576000526005602052816000209060005260205260068160002082519261275f84611cfd565b81546001600160a01b031684526001820154602085015260028201549084015261278b60038201611e96565b60608401526004810154608084015260ff600582015416151560a0840152015460c082015290565b825162461bcd60e51b8152602060048201526013602482015272706978656c206f7574206f6620626f756e647360681b6044820152606490fd5b50828210612735565b61284661284f916002604064073df1600095600090848252600560205282822081835260205261282c60048484200154426120c8565b9482526005602052828220908252602052200154906120b5565b600254906120b5565b0490565b919290928215612ef45760018314612e255760028314612dfb5760038314612d9f57600492838114612d4b5760058114612bee5760068114612b9c5760078114612b355760088114612a52576009146128bd57505050506040516128b681611d2e565b6000815290565b6128c684613033565b906128d081613033565b60088601808711612a3d576128e490613033565b9460088301809311612a28575091612a0c82611e59969461291961291361290d60499997613033565b9a613033565b92613033565b91604051998a97602a6129498a602099693c7061746820643d224d60b01b8b8301528a8151948593019101611c18565b890193600160fd1b9485602a82015261296b825180938b602b85019101611c18565b016b010209c101c101810181018960a51b602b820152612994825180938a603785019101611c18565b018360378201526129ae8251809389603885019101611c18565b0161081360f21b60388201526129cd8251809388603a85019101611c18565b0190603a8201526129e78251809386603b85019101611c18565b019169102d11103334b6361e9160b11b603b8401528351938491604585019101611c18565b01631110179f60e11b6045820152036029810184520182611d49565b601190634e487b7160e01b6000525260246000fd5b601186634e487b7160e01b6000525260246000fd5b50926008810193848211612b2057612a6985613033565b91612a7c612a7683613033565b91613033565b9460088301809311612a28575091612a0c82611e599694612aa561291361290d60499997613033565b91604051998a97602a612ad58a602099693c7061746820643d224d60b01b8b8301528a8151948593019101611c18565b890193600160fd1b9485602a820152612af7825180938b602b85019101611c18565b016b010209c101c101810181018160a51b602b820152612994825180938a603785019101611c18565b601184634e487b7160e01b6000525260246000fd5b50612b3f84613033565b90612b4981613033565b60088601809611612b8757612b5d86613033565b946008830190818411612a28575060499492611e59969492612aa561291361290d612a0c95613033565b601185634e487b7160e01b6000525260246000fd5b50612ba684613033565b9060088101808211612b8757612bbb90613033565b936008860190818711612a28575091612a0c60499492612bde611e599795613033565b94612aa561291361290d84613033565b5092612bf981613033565b906008850190818611612b8757612c0f82613033565b90612c22612c1c82613033565b97613033565b9560088201809211612a285750603f9492611e59969492612c48612913612d2f94613033565b91604051998a97602a612c788a602099693c7061746820643d224d60b01b8b8301528a8151948593019101611c18565b890193600160fd1b9485602a820152612c9a825180938b602b85019101611c18565b019161081360f21b9283602b820152612cbc825180938b602d85019101611c18565b0184602d820152612cd6825180938a602e85019101611c18565b0190602e820152612cf08251809388603085019101611c18565b01906030820152612d0a8251809386603185019101611c18565b019169103d11103334b6361e9160b11b60318401528351938491603b85019101611c18565b01631110179f60e11b603b82015203601f810184520182611d49565b5092916008830190818411612a2857612d6382613033565b916008860191828711612a28575091612d2f82611e599694612c48612913612c1c612d99612d93603f9b99613033565b94613033565b9b613033565b9150612daa83613033565b92612db483613033565b9160088201809211611cc957612dc982613033565b94612ddc612dd686613033565b93613033565b9460088101809111611cc957611e5995603f95612c48612d2f93613033565b9150612e0683613033565b92612e1083613033565b9160088201808311611cc957612dc990613033565b91509160048101809111611cc957612e3c90613033565b9060048101809111611cc957611e5991612e57604492613033565b936040519485926b1e31b4b931b6329031bc1e9160a11b6020850152612e87815180926020602c88019101611c18565b830165111031bc9e9160d11b602c820152612eac825180936020603285019101611c18565b016d1110391e911a11103334b6361e9160911b6032820152612ed8825180936020604085019101611c18565b01631110179f60e11b6040820152036024810184520182611d49565b611e599250612f08612a76604f9395613033565b93604051948592681e3932b1ba103c1e9160b91b6020850152612f35815180926020602988019101611c18565b83016411103c9e9160d91b6029820152612f59825180936020602e85019101611c18565b017f222077696474683d223822206865696768743d2238222066696c6c3d22000000602e820152612f94825180936020604b85019101611c18565b01631110179f60e11b604b82015203602f810184520182611d49565b600092918154612fbf81611e5c565b926001918083169081156130185750600114612fdc575b50505050565b90919293945060005260209081600020906000915b8583106130075750505050019038808080612fd6565b805485840152918301918101612ff1565b60ff1916845250505081151590910201915038808080612fd6565b80156130f55780816000925b6130e1575061304d82611d81565b9161305b6040519384611d49565b80835281601f1961306b83611d81565b01916020923684870137925b6130815750505090565b6000198301928311611cc95782600a80830492818402918483041484151715611cc9576130b160ff9283926120c8565b16603001908111611cc9578551821015611f5f5760f81b6001600160f81b03191660001a90850183015380613077565b916130ed600a91611f3c565b92048061303f565b50604051604081018181106001600160401b03821117611d185760405260018152600360fc1b60208201529056fea26469706673582212206291e0a609344b4ffe9b70484df1655a47d03a5b18c6573c58bfe850547a848264736f6c63430008140033","opcodes":"PUSH1 0x80 DUP1 PUSH1 0x40 MSTORE CALLVALUE PUSH2 0x4F JUMPI PUSH1 0x32 PUSH1 0x2 SSTORE PUSH1 0x1 DUP1 PUSH1 0xA0 SHL SUB NOT PUSH20 0xC02AAA39B223FE8D0A0E5C4F27EAD9083C756CC2 DUP2 PUSH1 0x4 SLOAD AND OR PUSH1 0x4 SSTORE CALLER SWAP1 PUSH1 0x1 SLOAD AND OR PUSH1 0x1 SSTORE TIMESTAMP PUSH1 0x3 SSTORE PUSH2 0x3159 SWAP1 DUP2 PUSH2 0x55 DUP3 CODECOPY RETURN JUMPDEST PUSH1 0x0 DUP1 REVERT INVALID PUSH1 0x80 PUSH1 0x40 MSTORE PUSH1 0x4 CALLDATASIZE LT ISZERO PUSH2 0x12 JUMPI PUSH1 0x0 DUP1 REVERT JUMPDEST PUSH1 0x0 DUP1 CALLDATALOAD PUSH1 0xE0 SHR DUP1 PUSH4 0x40CDFD8 EQ PUSH2 0x1BCE JUMPI DUP1 PUSH4 0x9EEF43E EQ PUSH2 0x1B6F JUMPI DUP1 PUSH4 0x113BC999 EQ PUSH2 0x1B51 JUMPI DUP1 PUSH4 0x30B5D6D3 EQ PUSH2 0x1B1C JUMPI DUP1 PUSH4 0x3323A706 EQ PUSH2 0x14E4 JUMPI DUP1 PUSH4 0x3BDB693E EQ PUSH2 0x1596 JUMPI DUP1 PUSH4 0x481C6A75 EQ PUSH2 0x156D JUMPI DUP1 PUSH4 0x4882A7EA EQ PUSH2 0x153C JUMPI DUP1 PUSH4 0x5E027601 EQ PUSH2 0x14EE JUMPI DUP1 PUSH4 0x6006ECC8 EQ PUSH2 0x14E9 JUMPI DUP1 PUSH4 0x63AA5CE2 EQ PUSH2 0x14E9 JUMPI DUP1 PUSH4 0x6E70FCC6 EQ PUSH2 0x14E4 JUMPI DUP1 PUSH4 0x6ED958F1 EQ PUSH2 0xD64 JUMPI DUP1 PUSH4 0x70A08231 EQ PUSH2 0x2DB JUMPI DUP1 PUSH4 0x7ACE48E7 EQ PUSH2 0xB72 JUMPI DUP1 PUSH4 0x8232B562 EQ PUSH2 0x8F5 JUMPI DUP1 PUSH4 0x85A9473D EQ PUSH2 0x7D7 JUMPI DUP1 PUSH4 0xA7CCABDF EQ PUSH2 0x78A JUMPI DUP1 PUSH4 0xAD711E9E EQ PUSH2 0x634 JUMPI DUP1 PUSH4 0xB1610D7E EQ PUSH2 0x616 JUMPI DUP1 PUSH4 0xB3A1DDF4 EQ PUSH2 0x5E4 JUMPI DUP1 PUSH4 0xBE26ED7F EQ PUSH2 0x5B8 JUMPI DUP1 PUSH4 0xC4D1510D EQ PUSH2 0x59A JUMPI DUP1 PUSH4 0xC4E4B90C EQ PUSH2 0x56B JUMPI DUP1 PUSH4 0xC730E65D EQ PUSH2 0x4D5 JUMPI DUP1 PUSH4 0xC7EAB2EC EQ PUSH2 0x3C8 JUMPI DUP1 PUSH4 0xD08629C1 EQ PUSH2 0x3A6 JUMPI DUP1 PUSH4 0xD56D229D EQ PUSH2 0x37F JUMPI DUP1 PUSH4 0xE1245900 EQ PUSH2 0x338 JUMPI DUP1 PUSH4 0xE50EB5DA EQ PUSH2 0x31D JUMPI DUP1 PUSH4 0xF8B2CB4F EQ PUSH2 0x2DB JUMPI DUP1 PUSH4 0xFD8D7ED3 EQ PUSH2 0x2BE JUMPI DUP1 PUSH4 0xFE91F6EB EQ PUSH2 0x1B3 JUMPI PUSH4 0xFF188DCA EQ PUSH2 0x193 JUMPI PUSH1 0x0 DUP1 REVERT JUMPDEST CALLVALUE PUSH2 0x1B0 JUMPI DUP1 PUSH1 0x3 NOT CALLDATASIZE ADD SLT PUSH2 0x1B0 JUMPI PUSH1 0x20 PUSH1 0x3 SLOAD PUSH1 0x40 MLOAD SWAP1 DUP2 MSTORE RETURN JUMPDEST DUP1 REVERT JUMPDEST POP CALLVALUE PUSH2 0x1B0 JUMPI DUP1 PUSH1 0x3 NOT CALLDATASIZE ADD SLT PUSH2 0x1B0 JUMPI PUSH2 0x207 PUSH1 0x3 SLOAD PUSH3 0x54600 DUP1 PUSH2 0x1D9 DUP4 TIMESTAMP PUSH2 0x20C8 JUMP JUMPDEST DIV DUP5 MSTORE PUSH2 0x1047 SWAP1 DUP2 PUSH1 0x20 MSTORE PUSH2 0x1F3 PUSH1 0x40 DUP7 KECCAK256 SLOAD SWAP4 TIMESTAMP PUSH2 0x20C8 JUMP JUMPDEST DIV DUP5 MSTORE PUSH1 0x20 MSTORE PUSH1 0x1 PUSH1 0x40 DUP5 KECCAK256 ADD SLOAD SWAP1 PUSH2 0x1CBC JUMP JUMPDEST ISZERO PUSH2 0x289 JUMPI DUP1 SLOAD PUSH1 0x1 SLOAD DUP3 SWAP2 PUSH1 0x1 PUSH1 0x1 PUSH1 0xA0 SHL SUB SWAP2 DUP3 AND SWAP2 AND DUP1 EXTCODESIZE ISZERO PUSH2 0x285 JUMPI PUSH1 0x24 DUP4 SWAP3 PUSH1 0x40 MLOAD SWAP5 DUP6 SWAP4 DUP5 SWAP3 PUSH4 0x35313C21 PUSH1 0xE1 SHL DUP5 MSTORE PUSH1 0x4 DUP5 ADD MSTORE GAS CALL DUP1 ISZERO PUSH2 0x27A JUMPI PUSH2 0x252 JUMPI POP DUP1 RETURN JUMPDEST PUSH1 0x1 PUSH1 0x1 PUSH1 0x40 SHL SUB DUP2 GT PUSH2 0x266 JUMPI PUSH1 0x40 MSTORE DUP1 RETURN JUMPDEST PUSH4 0x4E487B71 PUSH1 0xE0 SHL DUP3 MSTORE PUSH1 0x41 PUSH1 0x4 MSTORE PUSH1 0x24 DUP3 REVERT JUMPDEST PUSH1 0x40 MLOAD RETURNDATASIZE DUP5 DUP3 RETURNDATACOPY RETURNDATASIZE SWAP1 REVERT JUMPDEST POP POP REVERT JUMPDEST PUSH1 0x40 MLOAD PUSH3 0x461BCD PUSH1 0xE5 SHL DUP2 MSTORE PUSH1 0x20 PUSH1 0x4 DUP3 ADD MSTORE PUSH1 0xD PUSH1 0x24 DUP3 ADD MSTORE PUSH13 0x139BC81D9BDD195CC818D85CDD PUSH1 0x9A SHL PUSH1 0x44 DUP3 ADD MSTORE PUSH1 0x64 SWAP1 REVERT JUMPDEST POP CALLVALUE PUSH2 0x1B0 JUMPI DUP1 PUSH1 0x3 NOT CALLDATASIZE ADD SLT PUSH2 0x1B0 JUMPI PUSH1 0x20 PUSH1 0x40 MLOAD PUSH2 0x3E8 DUP2 MSTORE RETURN JUMPDEST POP CALLVALUE PUSH2 0x1B0 JUMPI PUSH1 0x20 CALLDATASIZE PUSH1 0x3 NOT ADD SLT PUSH2 0x1B0 JUMPI PUSH1 0x4 CALLDATALOAD PUSH1 0x1 PUSH1 0x1 PUSH1 0xA0 SHL SUB DUP2 AND SWAP1 DUP2 SWAP1 SUB PUSH2 0x319 JUMPI DUP2 PUSH1 0x40 SWAP2 PUSH1 0x20 SWAP4 MSTORE PUSH2 0x1046 DUP4 MSTORE KECCAK256 SLOAD PUSH1 0x40 MLOAD SWAP1 DUP2 MSTORE RETURN JUMPDEST POP DUP1 REVERT JUMPDEST POP CALLVALUE PUSH2 0x1B0 JUMPI PUSH2 0x335 PUSH2 0x32F CALLDATASIZE PUSH2 0x1E16 JUMP JUMPDEST SWAP1 PUSH2 0x216F JUMP JUMPDEST DUP1 RETURN JUMPDEST POP CALLVALUE PUSH2 0x1B0 JUMPI PUSH1 0x20 CALLDATASIZE PUSH1 0x3 NOT ADD SLT PUSH2 0x1B0 JUMPI PUSH1 0x4 CALLDATALOAD SWAP1 PUSH1 0x40 DUP3 LT ISZERO PUSH2 0x1B0 JUMPI PUSH2 0x37B PUSH2 0x367 DUP4 PUSH2 0x1006 ADD PUSH2 0x1E96 JUMP JUMPDEST PUSH1 0x40 MLOAD SWAP2 DUP3 SWAP2 PUSH1 0x20 DUP4 MSTORE PUSH1 0x20 DUP4 ADD SWAP1 PUSH2 0x1C3B JUMP JUMPDEST SUB SWAP1 RETURN JUMPDEST POP CALLVALUE PUSH2 0x1B0 JUMPI DUP1 PUSH1 0x3 NOT CALLDATASIZE ADD SLT PUSH2 0x1B0 JUMPI SLOAD PUSH1 0x40 MLOAD PUSH1 0x1 PUSH1 0x1 PUSH1 0xA0 SHL SUB SWAP1 SWAP2 AND DUP2 MSTORE PUSH1 0x20 SWAP1 RETURN JUMPDEST POP CALLVALUE PUSH2 0x1B0 JUMPI PUSH1 0x20 PUSH2 0x3C0 PUSH2 0x3BA CALLDATASIZE PUSH2 0x1BFD JUMP JUMPDEST SWAP1 PUSH2 0x27F6 JUMP JUMPDEST PUSH1 0x40 MLOAD SWAP1 DUP2 MSTORE RETURN JUMPDEST POP CALLVALUE PUSH2 0x1B0 JUMPI PUSH2 0x3D7 CALLDATASIZE PUSH2 0x1E16 JUMP JUMPDEST PUSH2 0x3E4 DUP3 MLOAD DUP3 MLOAD EQ PUSH2 0x20D5 JUMP JUMPDEST DUP2 MLOAD SWAP1 PUSH2 0x3F0 DUP3 PUSH2 0x1D6A JUMP JUMPDEST SWAP3 PUSH2 0x3FE PUSH1 0x40 MLOAD SWAP5 DUP6 PUSH2 0x1D49 JUMP JUMPDEST DUP3 DUP5 MSTORE PUSH1 0x1F NOT PUSH2 0x40D DUP5 PUSH2 0x1D6A JUMP JUMPDEST ADD DUP6 JUMPDEST DUP2 DUP2 LT PUSH2 0x4BE JUMPI POP POP DUP5 JUMPDEST DUP4 DUP2 LT PUSH2 0x480 JUMPI PUSH1 0x40 DUP1 MLOAD PUSH1 0x20 DUP1 DUP3 MSTORE DUP8 MLOAD DUP2 DUP4 ADD DUP2 SWAP1 MSTORE DUP10 SWAP4 PUSH1 0x5 DUP3 SWAP1 SHL DUP5 ADD DUP2 ADD SWAP3 DUP1 DUP12 ADD SWAP3 SWAP2 DUP6 ADD JUMPDEST DUP3 DUP8 LT PUSH2 0x454 JUMPI DUP6 DUP6 SUB DUP7 RETURN JUMPDEST SWAP1 SWAP2 SWAP3 SWAP4 DUP3 DUP1 PUSH2 0x470 PUSH1 0x1 SWAP4 PUSH1 0x3F NOT DUP11 DUP3 SUB ADD DUP7 MSTORE DUP9 MLOAD PUSH2 0x1C60 JUMP JUMPDEST SWAP7 ADD SWAP3 ADD SWAP7 ADD SWAP6 SWAP3 SWAP2 SWAP1 SWAP3 PUSH2 0x447 JUMP JUMPDEST DUP1 PUSH2 0x4A2 PUSH2 0x490 PUSH1 0x1 SWAP4 DUP6 PUSH2 0x1F4B JUMP JUMPDEST MLOAD PUSH2 0x49B DUP4 DUP8 PUSH2 0x1F4B JUMP JUMPDEST MLOAD SWAP1 PUSH2 0x271F JUMP JUMPDEST PUSH2 0x4AC DUP3 DUP9 PUSH2 0x1F4B JUMP JUMPDEST MSTORE PUSH2 0x4B7 DUP2 DUP8 PUSH2 0x1F4B JUMP JUMPDEST POP ADD PUSH2 0x41B JUMP JUMPDEST PUSH1 0x20 SWAP1 PUSH2 0x4C9 PUSH2 0x26E7 JUMP JUMPDEST DUP3 DUP3 DUP10 ADD ADD MSTORE ADD PUSH2 0x410 JUMP JUMPDEST POP CALLVALUE PUSH2 0x1B0 JUMPI PUSH1 0x40 SWAP1 PUSH2 0x4E7 CALLDATASIZE PUSH2 0x1BFD JUMP JUMPDEST SWAP1 DUP3 MSTORE PUSH1 0x5 PUSH1 0x20 MSTORE DUP3 DUP3 KECCAK256 SWAP1 DUP3 MSTORE PUSH1 0x20 MSTORE KECCAK256 PUSH1 0x1 DUP1 PUSH1 0xA0 SHL SUB DUP2 SLOAD AND PUSH1 0x1 DUP3 ADD SLOAD SWAP2 PUSH1 0x2 DUP2 ADD SLOAD PUSH2 0x51A PUSH1 0x3 DUP4 ADD PUSH2 0x1E96 JUMP JUMPDEST SWAP2 PUSH2 0x555 PUSH1 0x4 DUP3 ADD SLOAD SWAP4 PUSH1 0x6 PUSH1 0xFF PUSH1 0x5 DUP6 ADD SLOAD AND SWAP4 ADD SLOAD SWAP4 PUSH1 0x40 MLOAD SWAP8 DUP9 SWAP8 DUP9 MSTORE PUSH1 0x20 DUP9 ADD MSTORE PUSH1 0x40 DUP8 ADD MSTORE PUSH1 0xE0 PUSH1 0x60 DUP8 ADD MSTORE PUSH1 0xE0 DUP7 ADD SWAP1 PUSH2 0x1C3B JUMP JUMPDEST SWAP3 PUSH1 0x80 DUP6 ADD MSTORE ISZERO ISZERO PUSH1 0xA0 DUP5 ADD MSTORE PUSH1 0xC0 DUP4 ADD MSTORE SUB SWAP1 RETURN JUMPDEST POP CALLVALUE PUSH2 0x1B0 JUMPI PUSH1 0x20 CALLDATASIZE PUSH1 0x3 NOT ADD SLT PUSH2 0x1B0 JUMPI PUSH1 0x4 CALLDATALOAD SWAP1 PUSH2 0x1000 DUP3 LT ISZERO PUSH2 0x1B0 JUMPI PUSH2 0x37B PUSH2 0x367 DUP4 PUSH1 0x6 ADD PUSH2 0x1E96 JUMP JUMPDEST POP CALLVALUE PUSH2 0x1B0 JUMPI DUP1 PUSH1 0x3 NOT CALLDATASIZE ADD SLT PUSH2 0x1B0 JUMPI PUSH1 0x20 PUSH1 0x2 SLOAD PUSH1 0x40 MLOAD SWAP1 DUP2 MSTORE RETURN JUMPDEST POP CALLVALUE PUSH2 0x1B0 JUMPI DUP1 PUSH1 0x3 NOT CALLDATASIZE ADD SLT PUSH2 0x1B0 JUMPI PUSH1 0x20 PUSH3 0x54600 PUSH2 0x5DB PUSH1 0x3 SLOAD TIMESTAMP PUSH2 0x20C8 JUMP JUMPDEST DIV PUSH1 0x40 MLOAD SWAP1 DUP2 MSTORE RETURN JUMPDEST POP CALLVALUE PUSH2 0x1B0 JUMPI DUP1 PUSH1 0x3 NOT CALLDATASIZE ADD SLT PUSH2 0x1B0 JUMPI PUSH1 0x20 PUSH3 0x3F480 PUSH3 0x54600 PUSH2 0x60B PUSH1 0x3 SLOAD TIMESTAMP PUSH2 0x20C8 JUMP JUMPDEST MOD LT ISZERO PUSH1 0x40 MLOAD SWAP1 DUP2 MSTORE RETURN JUMPDEST POP CALLVALUE PUSH2 0x1B0 JUMPI DUP1 PUSH1 0x3 NOT CALLDATASIZE ADD SLT PUSH2 0x1B0 JUMPI PUSH1 0x20 PUSH1 0x40 MLOAD PUSH3 0x15180 DUP2 MSTORE RETURN JUMPDEST POP CALLVALUE PUSH2 0x1B0 JUMPI DUP1 PUSH1 0x3 NOT CALLDATASIZE ADD SLT PUSH2 0x1B0 JUMPI PUSH1 0x40 MLOAD PUSH1 0x80 DUP2 ADD DUP2 DUP2 LT PUSH1 0x1 PUSH1 0x1 PUSH1 0x40 SHL SUB DUP3 GT OR PUSH2 0x776 JUMPI PUSH1 0x40 MSTORE PUSH1 0x57 DUP2 MSTORE PUSH1 0x20 SWAP1 PUSH32 0x3C7376672077696474683D2236303022206865696768743D2236303022207669 DUP3 DUP3 ADD MSTORE PUSH32 0x6577426F783D2230203020363030203630302220786D6C6E733D22687474703A PUSH1 0x40 DUP3 ADD MSTORE PUSH23 0x1797BBBBBB973B999737B933979918181817B9BB33911F PUSH1 0x49 SHL PUSH1 0x60 DUP3 ADD MSTORE SWAP2 JUMPDEST PUSH1 0x40 DUP2 LT PUSH2 0x72C JUMPI POP PUSH2 0x718 PUSH1 0x26 PUSH1 0x40 MLOAD DUP5 PUSH2 0x6FA DUP3 SWAP7 MLOAD DUP1 SWAP3 DUP8 DUP1 DUP7 ADD SWAP2 ADD PUSH2 0x1C18 JUMP JUMPDEST DUP2 ADD PUSH6 0x1E17B9BB339F PUSH1 0xD1 SHL DUP6 DUP3 ADD MSTORE SUB PUSH1 0x6 DUP2 ADD DUP6 MSTORE ADD DUP4 PUSH2 0x1D49 JUMP JUMPDEST PUSH2 0x37B PUSH1 0x40 MLOAD SWAP3 DUP3 DUP5 SWAP4 DUP5 MSTORE DUP4 ADD SWAP1 PUSH2 0x1C3B JUMP JUMPDEST SWAP2 DUP2 PUSH2 0x76B PUSH2 0x771 SWAP3 PUSH2 0x75D PUSH1 0x40 MLOAD SWAP4 DUP3 PUSH2 0x750 DUP7 SWAP5 MLOAD DUP1 SWAP3 DUP5 DUP1 DUP9 ADD SWAP2 ADD PUSH2 0x1C18 JUMP JUMPDEST DUP4 ADD ADD DUP8 PUSH2 0x1006 ADD PUSH2 0x2FB0 JUMP JUMPDEST SUB PUSH1 0x1F NOT DUP2 ADD DUP4 MSTORE DUP3 PUSH2 0x1D49 JUMP JUMPDEST SWAP3 PUSH2 0x1F3C JUMP JUMPDEST PUSH2 0x6D5 JUMP JUMPDEST PUSH4 0x4E487B71 PUSH1 0xE0 SHL DUP4 MSTORE PUSH1 0x41 PUSH1 0x4 MSTORE PUSH1 0x24 DUP4 REVERT JUMPDEST POP CALLVALUE PUSH2 0x1B0 JUMPI PUSH1 0x20 CALLDATASIZE PUSH1 0x3 NOT ADD SLT PUSH2 0x1B0 JUMPI PUSH1 0x4 CALLDATALOAD PUSH1 0x1 PUSH1 0x1 PUSH1 0xA0 SHL SUB DUP2 DUP2 AND SWAP2 DUP3 SWAP1 SUB PUSH2 0x7D3 JUMPI PUSH2 0x7C1 SWAP1 PUSH1 0x1 SLOAD AND CALLER EQ PUSH2 0x2686 JUMP JUMPDEST DUP2 SLOAD PUSH1 0x1 PUSH1 0x1 PUSH1 0xA0 SHL SUB NOT AND OR DUP2 SSTORE DUP1 RETURN JUMPDEST DUP3 DUP1 REVERT JUMPDEST POP CALLVALUE PUSH2 0x1B0 JUMPI PUSH1 0x60 CALLDATASIZE PUSH1 0x3 NOT ADD SLT PUSH2 0x1B0 JUMPI PUSH1 0x4 CALLDATALOAD PUSH1 0x24 CALLDATALOAD SWAP1 PUSH2 0x805 PUSH1 0x1 DUP1 PUSH1 0xA0 SHL SUB PUSH1 0x1 SLOAD AND CALLER EQ PUSH2 0x2686 JUMP JUMPDEST DUP1 DUP4 MSTORE PUSH1 0x5 PUSH1 0x20 SWAP2 DUP2 DUP4 MSTORE PUSH1 0x40 DUP6 KECCAK256 DUP5 DUP7 MSTORE DUP4 MSTORE PUSH1 0xFF DUP3 PUSH1 0x40 DUP8 KECCAK256 ADD SLOAD AND DUP1 PUSH2 0x8B5 JUMPI JUMPDEST ISZERO PUSH2 0x87D JUMPI DUP1 DUP6 MSTORE DUP2 DUP4 MSTORE PUSH1 0x40 DUP6 KECCAK256 DUP5 DUP7 MSTORE DUP4 MSTORE PUSH1 0x44 CALLDATALOAD PUSH1 0x2 PUSH1 0x40 DUP8 KECCAK256 ADD SSTORE DUP1 DUP6 MSTORE DUP2 DUP4 MSTORE PUSH1 0x40 DUP6 KECCAK256 DUP5 DUP7 MSTORE DUP4 MSTORE DUP2 PUSH1 0x40 DUP7 KECCAK256 ADD PUSH1 0xFF NOT DUP2 SLOAD AND SWAP1 SSTORE DUP5 MSTORE DUP2 MSTORE PUSH1 0x40 DUP4 KECCAK256 SWAP2 DUP4 MSTORE MSTORE DUP1 PUSH1 0x6 PUSH1 0x40 DUP3 KECCAK256 ADD SSTORE DUP1 RETURN JUMPDEST DUP1 DUP6 MSTORE DUP2 DUP4 MSTORE PUSH1 0x40 DUP6 KECCAK256 DUP5 DUP7 MSTORE DUP4 MSTORE DUP2 PUSH1 0x40 DUP7 KECCAK256 ADD PUSH1 0x1 PUSH1 0xFF NOT DUP3 SLOAD AND OR SWAP1 SSTORE DUP5 MSTORE DUP2 MSTORE PUSH1 0x40 DUP4 KECCAK256 SWAP2 DUP4 MSTORE MSTORE TIMESTAMP PUSH1 0x6 PUSH1 0x40 DUP4 KECCAK256 ADD SSTORE DUP1 RETURN JUMPDEST POP DUP1 DUP6 MSTORE DUP2 DUP4 MSTORE PUSH1 0x40 DUP6 KECCAK256 DUP5 DUP7 MSTORE DUP4 MSTORE PUSH1 0x6 PUSH1 0x40 DUP7 KECCAK256 ADD SLOAD PUSH3 0x3F480 DUP2 ADD DUP1 SWAP2 GT PUSH2 0x8E1 JUMPI TIMESTAMP GT PUSH2 0x829 JUMP JUMPDEST PUSH4 0x4E487B71 PUSH1 0xE0 SHL DUP7 MSTORE PUSH1 0x11 PUSH1 0x4 MSTORE PUSH1 0x24 DUP7 REVERT JUMPDEST POP CALLVALUE PUSH2 0x1B0 JUMPI PUSH1 0x60 CALLDATASIZE PUSH1 0x3 NOT ADD SLT PUSH2 0x1B0 JUMPI PUSH1 0x1 PUSH1 0x1 PUSH1 0x40 SHL SUB PUSH1 0x4 CALLDATALOAD DUP2 DUP2 GT PUSH2 0x7D3 JUMPI PUSH2 0x927 SWAP1 CALLDATASIZE SWAP1 PUSH1 0x4 ADD PUSH2 0x1DB8 JUMP JUMPDEST PUSH1 0x24 SWAP1 DUP2 CALLDATALOAD DUP4 DUP2 GT PUSH2 0xB6E JUMPI PUSH2 0x941 SWAP1 CALLDATASIZE SWAP1 PUSH1 0x4 ADD PUSH2 0x1DB8 JUMP JUMPDEST SWAP2 PUSH1 0x44 SWAP4 DUP5 CALLDATALOAD SWAP1 DUP2 GT PUSH2 0xB6A JUMPI PUSH2 0x95C SWAP1 CALLDATASIZE SWAP1 PUSH1 0x4 ADD PUSH2 0x1DB8 JUMP JUMPDEST SWAP1 DUP3 MLOAD DUP5 MLOAD DUP2 EQ SWAP1 DUP2 PUSH2 0xB5F JUMPI JUMPDEST POP ISZERO PUSH2 0xB0C JUMPI DUP3 MLOAD SWAP5 DUP7 JUMPDEST DUP7 DUP2 LT PUSH2 0xA13 JUMPI POP POP POP PUSH2 0x989 DUP4 DUP4 PUSH2 0x216F JUMP JUMPDEST DUP5 JUMPDEST DUP5 DUP2 LT PUSH2 0x996 JUMPI DUP6 DUP1 RETURN JUMPDEST DUP1 PUSH2 0x9A3 PUSH1 0x1 SWAP3 DUP5 PUSH2 0x1F4B JUMP JUMPDEST MLOAD PUSH2 0x9AE DUP3 DUP7 PUSH2 0x1F4B JUMP JUMPDEST MLOAD DUP9 MSTORE PUSH1 0x20 PUSH1 0x5 DUP2 MSTORE PUSH1 0x40 DUP10 KECCAK256 SWAP1 PUSH2 0x9C6 DUP5 DUP10 PUSH2 0x1F4B JUMP JUMPDEST MLOAD DUP11 MSTORE MSTORE PUSH1 0x2 PUSH1 0x40 DUP10 KECCAK256 ADD SSTORE PUSH2 0x9DC DUP2 DUP6 PUSH2 0x1F4B JUMP JUMPDEST MLOAD PUSH2 0x9E7 DUP3 DUP8 PUSH2 0x1F4B JUMP JUMPDEST MLOAD SWAP1 PUSH32 0x1C362B7FC7C4865E1E7EDE89F240549BBD8B5EE43B51383C9C0392687D6D10EC DUP10 DUP1 LOG3 ADD PUSH2 0x98B JUMP JUMPDEST PUSH2 0xA1D DUP2 DUP7 PUSH2 0x1F4B JUMP JUMPDEST MLOAD PUSH1 0x40 PUSH2 0xA2A DUP4 DUP10 PUSH2 0x1F4B JUMP JUMPDEST MLOAD SWAP2 LT SWAP1 DUP2 ISZERO SWAP2 PUSH2 0xB00 JUMPI JUMPDEST POP PUSH2 0xAC2 JUMPI PUSH2 0xA45 DUP2 DUP7 PUSH2 0x1F4B JUMP JUMPDEST MLOAD DUP9 MSTORE PUSH1 0x20 PUSH1 0x5 DUP2 MSTORE PUSH1 0x40 DUP10 KECCAK256 PUSH2 0xA5C DUP4 DUP10 PUSH2 0x1F4B JUMP JUMPDEST MLOAD DUP11 MSTORE DUP2 MSTORE PUSH1 0x40 DUP10 KECCAK256 SLOAD CALLER PUSH1 0x1 PUSH1 0x1 PUSH1 0xA0 SHL SUB SWAP1 SWAP2 AND SUB PUSH2 0xA80 JUMPI POP PUSH1 0x1 ADD PUSH2 0x975 JUMP JUMPDEST PUSH1 0x64 SWAP1 PUSH32 0x6F6E6C79206F776E65722063616E2073657420706978656C2076616C75650000 DUP5 PUSH1 0x1E DUP8 PUSH1 0x40 MLOAD SWAP5 PUSH3 0x461BCD PUSH1 0xE5 SHL DUP7 MSTORE PUSH1 0x4 DUP7 ADD MSTORE DUP5 ADD MSTORE DUP3 ADD MSTORE REVERT JUMPDEST PUSH1 0x40 MLOAD PUSH3 0x461BCD PUSH1 0xE5 SHL DUP2 MSTORE PUSH1 0x20 PUSH1 0x4 DUP3 ADD MSTORE PUSH1 0x18 DUP2 DUP6 ADD MSTORE PUSH24 0x4120706978656C206973206F7574206F6620626F756E6473 PUSH1 0x40 SHL DUP2 DUP5 ADD MSTORE PUSH1 0x64 SWAP1 REVERT JUMPDEST PUSH1 0x40 SWAP2 POP LT ISZERO CODESIZE PUSH2 0xA36 JUMP JUMPDEST PUSH1 0x84 SWAP1 PUSH32 0x696E70757420617272617973206D757374206265206F66207468652073616D65 DUP7 PUSH1 0x27 PUSH1 0x40 MLOAD SWAP4 PUSH3 0x461BCD PUSH1 0xE5 SHL DUP6 MSTORE PUSH1 0x20 PUSH1 0x4 DUP7 ADD MSTORE DUP5 ADD MSTORE DUP3 ADD MSTORE PUSH7 0x40D8CADCCEE8D PUSH1 0xCB SHL PUSH1 0x64 DUP3 ADD MSTORE REVERT JUMPDEST SWAP1 POP DUP3 MLOAD EQ CODESIZE PUSH2 0x96A JUMP JUMPDEST DUP6 DUP1 REVERT JUMPDEST DUP5 DUP1 REVERT JUMPDEST POP CALLVALUE PUSH2 0x1B0 JUMPI PUSH1 0x20 DUP1 PUSH1 0x3 NOT CALLDATASIZE ADD SLT PUSH2 0x319 JUMPI PUSH1 0x4 CALLDATALOAD DUP1 ISZERO ISZERO DUP2 SUB PUSH2 0x7D3 JUMPI PUSH1 0x3 SLOAD PUSH3 0x54600 SWAP1 PUSH3 0x3F480 DUP3 PUSH2 0xBA8 DUP4 TIMESTAMP PUSH2 0x20C8 JUMP JUMPDEST MOD LT PUSH2 0xD23 JUMPI CALLER DUP6 MSTORE PUSH2 0x1046 DUP5 MSTORE PUSH1 0x40 DUP6 KECCAK256 SLOAD SWAP1 DUP2 ISZERO PUSH2 0xCCE JUMPI DUP3 PUSH2 0xBCD DUP3 TIMESTAMP PUSH2 0x20C8 JUMP JUMPDEST DIV DUP7 MSTORE PUSH2 0x1047 SWAP4 DUP5 DUP7 MSTORE PUSH1 0x2 PUSH1 0x40 DUP9 KECCAK256 ADD CALLER DUP9 MSTORE DUP7 MSTORE PUSH1 0xFF PUSH1 0x40 DUP9 KECCAK256 SLOAD AND PUSH2 0xC99 JUMPI DUP4 SWAP2 SWAP1 ISZERO PUSH2 0xC70 JUMPI POP PUSH2 0xC04 PUSH1 0x3 SLOAD TIMESTAMP PUSH2 0x20C8 JUMP JUMPDEST DIV DUP6 MSTORE DUP3 DUP5 MSTORE PUSH2 0xC19 PUSH1 0x40 DUP7 KECCAK256 SWAP2 DUP3 SLOAD PUSH2 0x1CBC JUMP JUMPDEST SWAP1 SSTORE JUMPDEST PUSH2 0xC28 PUSH1 0x3 SLOAD TIMESTAMP PUSH2 0x20C8 JUMP JUMPDEST DIV DUP4 MSTORE DUP2 MSTORE PUSH1 0x2 PUSH1 0x40 DUP4 KECCAK256 ADD SWAP1 CALLER DUP4 MSTORE MSTORE PUSH1 0x40 DUP2 KECCAK256 PUSH1 0x1 PUSH1 0xFF NOT DUP3 SLOAD AND OR SWAP1 SSTORE CALLER PUSH32 0x7CE969A18BB6B0FBA42C6D9746E7D08EECA4C661809659C91D276456E3153AC0 DUP3 DUP1 LOG2 DUP1 RETURN JUMPDEST PUSH2 0xC7A SWAP1 TIMESTAMP PUSH2 0x20C8 JUMP JUMPDEST DIV DUP6 MSTORE DUP3 DUP5 MSTORE PUSH2 0xC92 PUSH1 0x1 PUSH1 0x40 DUP8 KECCAK256 ADD SWAP2 DUP3 SLOAD PUSH2 0x1CBC JUMP JUMPDEST SWAP1 SSTORE PUSH2 0xC1C JUMP JUMPDEST PUSH1 0x40 MLOAD PUSH3 0x461BCD PUSH1 0xE5 SHL DUP2 MSTORE PUSH1 0x4 DUP2 ADD DUP8 SWAP1 MSTORE PUSH1 0xD PUSH1 0x24 DUP3 ADD MSTORE PUSH13 0x185B1C9958591E481D9BDD1959 PUSH1 0x9A SHL PUSH1 0x44 DUP3 ADD MSTORE PUSH1 0x64 SWAP1 REVERT JUMPDEST PUSH1 0x40 MLOAD PUSH3 0x461BCD PUSH1 0xE5 SHL DUP2 MSTORE PUSH1 0x4 DUP2 ADD DUP7 SWAP1 MSTORE PUSH1 0x27 PUSH1 0x24 DUP3 ADD MSTORE PUSH32 0x6E6F20706978656C73206F776E6564203D206E6F20766F74657320746F206265 PUSH1 0x44 DUP3 ADD MSTORE PUSH7 0x818D85CDD1959 PUSH1 0xCA SHL PUSH1 0x64 DUP3 ADD MSTORE PUSH1 0x84 SWAP1 REVERT JUMPDEST PUSH1 0x40 MLOAD PUSH3 0x461BCD PUSH1 0xE5 SHL DUP2 MSTORE PUSH1 0x4 DUP2 ADD DUP6 SWAP1 MSTORE PUSH1 0x19 PUSH1 0x24 DUP3 ADD MSTORE PUSH25 0x2B37BA34B7339031BAB93932B73A363C903737BA1037B832B7 PUSH1 0x39 SHL PUSH1 0x44 DUP3 ADD MSTORE PUSH1 0x64 SWAP1 REVERT JUMPDEST POP CALLVALUE PUSH2 0x1B0 JUMPI PUSH2 0xD73 CALLDATASIZE PUSH2 0x1E16 JUMP JUMPDEST PUSH2 0xD80 DUP3 MLOAD DUP3 MLOAD EQ PUSH2 0x20D5 JUMP JUMPDEST DUP2 MLOAD SWAP1 DUP4 JUMPDEST DUP3 DUP2 LT PUSH2 0xD90 JUMPI DUP5 DUP1 RETURN JUMPDEST PUSH2 0xD9A DUP2 DUP6 PUSH2 0x1F4B JUMP JUMPDEST MLOAD PUSH1 0x40 PUSH2 0xDA7 DUP4 DUP6 PUSH2 0x1F4B JUMP JUMPDEST MLOAD SWAP2 LT SWAP1 DUP2 ISZERO SWAP2 PUSH2 0x14D8 JUMPI JUMPDEST POP PUSH2 0x14BB JUMPI PUSH2 0xDC2 DUP2 DUP6 PUSH2 0x1F4B JUMP JUMPDEST MLOAD DUP6 MSTORE PUSH1 0x5 PUSH1 0x20 SWAP1 DUP1 DUP3 MSTORE PUSH1 0x40 DUP8 KECCAK256 PUSH2 0xDDB DUP5 DUP7 PUSH2 0x1F4B JUMP JUMPDEST MLOAD DUP9 MSTORE DUP3 MSTORE PUSH1 0x40 DUP8 KECCAK256 SLOAD PUSH1 0x1 PUSH1 0x1 PUSH1 0xA0 SHL SUB SWAP1 DUP2 AND PUSH2 0xE9F JUMPI POP SWAP1 PUSH2 0x1046 SWAP2 PUSH2 0xE04 DUP5 DUP9 PUSH2 0x1F4B JUMP JUMPDEST MLOAD DUP9 MSTORE DUP2 MSTORE PUSH1 0x40 DUP8 KECCAK256 PUSH2 0xE17 DUP5 DUP7 PUSH2 0x1F4B JUMP JUMPDEST MLOAD DUP9 MSTORE DUP2 MSTORE PUSH1 0x40 DUP8 KECCAK256 CALLER PUSH1 0x1 DUP1 PUSH1 0xA0 SHL SUB NOT DUP3 SLOAD AND OR SWAP1 SSTORE CALLER DUP8 MSTORE MSTORE PUSH1 0x40 DUP6 KECCAK256 DUP1 SLOAD SWAP1 PUSH1 0x1 DUP3 ADD DUP1 SWAP3 GT PUSH2 0xE8B JUMPI SSTORE PUSH1 0x1 SWAP1 JUMPDEST PUSH2 0xE54 DUP2 DUP7 PUSH2 0x1F4B JUMP JUMPDEST MLOAD PUSH2 0xE5F DUP3 DUP6 PUSH2 0x1F4B JUMP JUMPDEST MLOAD SWAP1 PUSH32 0xEE0E9A85D097F632450E6AC08750207C8F039246EE437B10EAF708B397D00AD8 DUP9 DUP1 LOG3 ADD PUSH2 0xD85 JUMP JUMPDEST PUSH4 0x4E487B71 PUSH1 0xE0 SHL DUP8 MSTORE PUSH1 0x11 PUSH1 0x4 MSTORE PUSH1 0x24 DUP8 REVERT JUMPDEST PUSH2 0xEBE PUSH2 0xEAC DUP6 DUP10 PUSH2 0x1F4B JUMP JUMPDEST MLOAD PUSH2 0xEB7 DUP7 DUP9 PUSH2 0x1F4B JUMP JUMPDEST MLOAD SWAP1 PUSH2 0x27F6 JUMP JUMPDEST SWAP1 PUSH2 0xEC9 DUP6 DUP10 PUSH2 0x1F4B JUMP JUMPDEST MLOAD DUP10 MSTORE DUP3 DUP5 MSTORE PUSH1 0x40 DUP10 KECCAK256 PUSH2 0xEDD DUP7 DUP9 PUSH2 0x1F4B JUMP JUMPDEST MLOAD DUP11 MSTORE DUP5 MSTORE DUP2 PUSH1 0x2 PUSH1 0x40 DUP12 KECCAK256 ADD SLOAD GT PUSH1 0x0 EQ PUSH2 0x125F JUMPI PUSH2 0xEFD DUP6 DUP10 PUSH2 0x1F4B JUMP JUMPDEST MLOAD DUP10 MSTORE DUP3 DUP5 MSTORE PUSH1 0x40 DUP10 KECCAK256 PUSH2 0xF11 DUP7 DUP9 PUSH2 0x1F4B JUMP JUMPDEST MLOAD DUP11 MSTORE DUP5 MSTORE DUP9 PUSH2 0xF28 DUP4 PUSH1 0x2 PUSH1 0x40 DUP5 KECCAK256 ADD SLOAD PUSH2 0x20C8 JUMP JUMPDEST SWAP3 DUP3 PUSH1 0x4 SLOAD AND PUSH1 0x40 MLOAD PUSH4 0x70A08231 PUSH1 0xE0 SHL DUP2 MSTORE CALLER PUSH1 0x4 DUP3 ADD MSTORE DUP8 DUP2 PUSH1 0x24 DUP2 DUP6 GAS STATICCALL DUP1 ISZERO PUSH2 0x1220 JUMPI DUP13 DUP11 SWAP3 DUP7 SWAP3 PUSH2 0x122B JUMPI JUMPDEST POP PUSH2 0xF8E SWAP3 PUSH2 0xF67 SWAP2 PUSH2 0x1F4B JUMP JUMPDEST MLOAD DUP6 MSTORE DUP8 DUP10 MSTORE PUSH1 0x40 DUP6 KECCAK256 PUSH2 0xF7B DUP12 DUP14 PUSH2 0x1F4B JUMP JUMPDEST MLOAD DUP7 MSTORE DUP10 MSTORE PUSH1 0x2 PUSH1 0x40 DUP7 KECCAK256 ADD SLOAD LT PUSH2 0x25D6 JUMP JUMPDEST PUSH1 0x40 MLOAD PUSH4 0x6EB1769F PUSH1 0xE1 SHL DUP2 MSTORE CALLER PUSH1 0x4 DUP3 ADD MSTORE ADDRESS PUSH1 0x24 DUP3 ADD MSTORE SWAP1 DUP8 DUP3 PUSH1 0x44 DUP2 DUP5 GAS STATICCALL DUP1 ISZERO PUSH2 0x1220 JUMPI DUP13 DUP11 SWAP2 DUP13 DUP12 SWAP6 DUP9 SWAP3 PUSH2 0x11E1 JUMPI JUMPDEST POP SWAP2 PUSH2 0x1004 DUP5 SWAP3 PUSH2 0x1009 SWAP5 PUSH2 0xFDC PUSH2 0x1049 SWAP9 SWAP8 DUP6 PUSH2 0x1F4B JUMP JUMPDEST MLOAD DUP12 MSTORE DUP14 DUP10 MSTORE PUSH2 0xFF0 DUP6 PUSH1 0x40 DUP14 KECCAK256 SWAP3 PUSH2 0x1F4B JUMP JUMPDEST MLOAD DUP12 MSTORE DUP9 MSTORE PUSH1 0x2 PUSH1 0x40 DUP12 KECCAK256 ADD SLOAD GT ISZERO PUSH2 0x262E JUMP JUMPDEST PUSH2 0x1F4B JUMP JUMPDEST MLOAD DUP6 MSTORE DUP8 DUP4 MSTORE PUSH1 0x40 DUP6 KECCAK256 PUSH2 0x101D DUP12 DUP14 PUSH2 0x1F4B JUMP JUMPDEST MLOAD DUP7 MSTORE DUP4 MSTORE DUP6 PUSH1 0x40 DUP7 KECCAK256 SLOAD AND SWAP7 PUSH1 0x40 MLOAD SWAP6 DUP7 DUP1 SWAP5 DUP2 SWAP4 PUSH4 0x23B872DD PUSH1 0xE0 SHL SWAP12 DUP13 DUP5 MSTORE CALLER PUSH1 0x4 DUP6 ADD PUSH2 0x214D JUMP JUMPDEST SUB SWAP3 GAS CALL SWAP1 DUP2 ISZERO PUSH2 0x11D6 JUMPI PUSH2 0x1084 SWAP3 DUP8 SWAP3 PUSH2 0x11B9 JUMPI JUMPDEST POP DUP4 PUSH1 0x4 SLOAD AND PUSH1 0x1 SWAP6 DUP14 DUP7 DUP9 SLOAD AND SWAP2 PUSH1 0x40 MLOAD SWAP7 DUP8 SWAP6 DUP7 SWAP5 DUP6 SWAP4 DUP5 MSTORE CALLER PUSH1 0x4 DUP6 ADD PUSH2 0x214D JUMP JUMPDEST SUB SWAP3 GAS CALL DUP1 ISZERO PUSH2 0x11AE JUMPI PUSH2 0x1181 JUMPI JUMPDEST POP PUSH2 0x109E DUP6 DUP10 PUSH2 0x1F4B JUMP JUMPDEST MLOAD DUP10 MSTORE DUP3 DUP5 MSTORE PUSH1 0x40 DUP10 KECCAK256 PUSH2 0x10B2 DUP7 DUP9 PUSH2 0x1F4B JUMP JUMPDEST MLOAD DUP11 MSTORE DUP5 MSTORE PUSH1 0x40 DUP10 KECCAK256 SLOAD AND DUP9 MSTORE PUSH2 0x1046 DUP1 DUP5 MSTORE PUSH1 0x40 DUP10 KECCAK256 DUP1 SLOAD SWAP1 PUSH1 0x0 NOT DUP3 ADD SWAP2 DUP3 GT PUSH2 0x116D JUMPI SSTORE CALLER DUP10 MSTORE DUP4 MSTORE PUSH1 0x40 DUP9 KECCAK256 DUP1 SLOAD SWAP2 DUP3 ADD DUP1 SWAP3 GT PUSH2 0x1159 JUMPI SSTORE PUSH1 0x1 SWAP3 SWAP2 SWAP1 PUSH2 0x10FE DUP4 DUP9 PUSH2 0x1F4B JUMP JUMPDEST MLOAD DUP9 MSTORE DUP1 DUP3 MSTORE PUSH1 0x40 DUP9 KECCAK256 PUSH2 0x1112 DUP5 DUP8 PUSH2 0x1F4B JUMP JUMPDEST MLOAD DUP10 MSTORE DUP3 MSTORE PUSH1 0x40 DUP9 KECCAK256 CALLER DUP6 DUP1 PUSH1 0xA0 SHL SUB NOT DUP3 SLOAD AND OR SWAP1 SSTORE PUSH2 0x1133 DUP4 DUP9 PUSH2 0x1F4B JUMP JUMPDEST MLOAD DUP9 MSTORE DUP2 MSTORE PUSH1 0x40 DUP8 KECCAK256 SWAP1 PUSH2 0x1147 DUP4 DUP7 PUSH2 0x1F4B JUMP JUMPDEST MLOAD DUP9 MSTORE MSTORE TIMESTAMP PUSH1 0x4 PUSH1 0x40 DUP9 KECCAK256 ADD SSTORE PUSH2 0xE4A JUMP JUMPDEST PUSH4 0x4E487B71 PUSH1 0xE0 SHL DUP10 MSTORE PUSH1 0x11 PUSH1 0x4 MSTORE PUSH1 0x24 DUP10 REVERT JUMPDEST PUSH4 0x4E487B71 PUSH1 0xE0 SHL DUP12 MSTORE PUSH1 0x11 PUSH1 0x4 MSTORE PUSH1 0x24 DUP12 REVERT JUMPDEST PUSH2 0x11A0 SWAP1 DUP6 RETURNDATASIZE DUP8 GT PUSH2 0x11A7 JUMPI JUMPDEST PUSH2 0x1198 DUP2 DUP4 PUSH2 0x1D49 JUMP JUMPDEST DUP2 ADD SWAP1 PUSH2 0x2135 JUMP JUMPDEST POP CODESIZE PUSH2 0x1093 JUMP JUMPDEST POP RETURNDATASIZE PUSH2 0x118E JUMP JUMPDEST PUSH1 0x40 MLOAD RETURNDATASIZE DUP13 DUP3 RETURNDATACOPY RETURNDATASIZE SWAP1 REVERT JUMPDEST PUSH2 0x11CF SWAP1 DUP4 RETURNDATASIZE DUP6 GT PUSH2 0x11A7 JUMPI PUSH2 0x1198 DUP2 DUP4 PUSH2 0x1D49 JUMP JUMPDEST POP CODESIZE PUSH2 0x105F JUMP JUMPDEST PUSH1 0x40 MLOAD RETURNDATASIZE DUP14 DUP3 RETURNDATACOPY RETURNDATASIZE SWAP1 REVERT JUMPDEST SWAP5 SWAP6 SWAP4 POP POP POP POP DUP2 DUP2 RETURNDATASIZE DUP4 GT PUSH2 0x1219 JUMPI JUMPDEST PUSH2 0x11FC DUP2 DUP4 PUSH2 0x1D49 JUMP JUMPDEST DUP2 ADD SUB SLT PUSH2 0x1215 JUMPI MLOAD DUP8 SWAP2 SWAP1 DUP10 SWAP1 DUP14 SWAP1 DUP13 PUSH2 0x1004 PUSH2 0xFC3 JUMP JUMPDEST DUP4 DUP1 REVERT JUMPDEST POP RETURNDATASIZE PUSH2 0x11F2 JUMP JUMPDEST PUSH1 0x40 MLOAD RETURNDATASIZE DUP7 DUP3 RETURNDATACOPY RETURNDATASIZE SWAP1 REVERT JUMPDEST SWAP3 POP POP POP DUP8 DUP2 DUP2 RETURNDATASIZE DUP4 GT PUSH2 0x1258 JUMPI JUMPDEST PUSH2 0x1244 DUP2 DUP4 PUSH2 0x1D49 JUMP JUMPDEST DUP2 ADD SUB SLT PUSH2 0x1215 JUMPI MLOAD DUP9 SWAP1 DUP13 PUSH2 0xF8E PUSH2 0xF59 JUMP JUMPDEST POP RETURNDATASIZE PUSH2 0x123A JUMP JUMPDEST DUP1 SWAP9 SWAP8 SWAP7 SWAP6 SWAP5 SWAP4 SWAP3 SWAP2 POP PUSH1 0x4 SLOAD AND PUSH1 0x40 MLOAD SWAP9 PUSH4 0x70A08231 PUSH1 0xE0 SHL DUP11 MSTORE CALLER PUSH1 0x4 DUP12 ADD MSTORE PUSH1 0x24 SWAP10 DUP5 DUP2 DUP13 DUP2 DUP7 GAS STATICCALL DUP1 ISZERO PUSH2 0x11AE JUMPI DUP11 SWAP1 PUSH2 0x148C JUMPI JUMPDEST PUSH2 0x12CE SWAP2 POP PUSH2 0x12A7 DUP8 DUP12 PUSH2 0x1F4B JUMP JUMPDEST MLOAD DUP12 MSTORE DUP5 DUP7 MSTORE PUSH1 0x40 DUP12 KECCAK256 PUSH2 0x12BB DUP9 DUP11 PUSH2 0x1F4B JUMP JUMPDEST MLOAD DUP13 MSTORE DUP7 MSTORE PUSH1 0x2 PUSH1 0x40 DUP13 KECCAK256 ADD SLOAD LT PUSH2 0x25D6 JUMP JUMPDEST PUSH1 0x40 MLOAD PUSH4 0x6EB1769F PUSH1 0xE1 SHL DUP2 MSTORE CALLER PUSH1 0x4 DUP3 ADD MSTORE ADDRESS PUSH1 0x24 DUP3 ADD MSTORE SWAP2 DUP5 DUP4 PUSH1 0x44 DUP2 DUP5 GAS STATICCALL SWAP3 DUP4 ISZERO PUSH2 0x11AE JUMPI DUP10 DUP12 SWAP4 SWAP3 DUP8 SWAP3 DUP6 SWAP7 PUSH2 0x144F JUMPI JUMPDEST POP PUSH2 0x1340 PUSH2 0x138F SWAP5 SWAP6 SWAP7 PUSH2 0x1318 DUP12 DUP6 PUSH2 0x1F4B JUMP JUMPDEST MLOAD DUP9 MSTORE DUP9 DUP6 MSTORE PUSH1 0x40 DUP9 KECCAK256 PUSH2 0x132C DUP13 DUP15 PUSH2 0x1F4B JUMP JUMPDEST MLOAD DUP10 MSTORE DUP6 MSTORE PUSH1 0x2 PUSH1 0x40 DUP10 KECCAK256 ADD SLOAD GT ISZERO PUSH2 0x262E JUMP JUMPDEST PUSH1 0x2 PUSH1 0x40 PUSH1 0x1 SWAP8 PUSH2 0x1355 DUP13 DUP10 DUP12 SLOAD AND SWAP7 PUSH2 0x1F4B JUMP JUMPDEST MLOAD DUP2 MSTORE DUP10 DUP7 MSTORE DUP2 DUP2 KECCAK256 PUSH2 0x1368 DUP14 DUP16 PUSH2 0x1F4B JUMP JUMPDEST MLOAD DUP3 MSTORE DUP7 MSTORE KECCAK256 ADD SLOAD SWAP2 DUP14 PUSH1 0x40 MLOAD DUP1 SWAP7 DUP2 SWAP6 DUP3 SWAP5 PUSH4 0x23B872DD PUSH1 0xE0 SHL DUP5 MSTORE CALLER PUSH1 0x4 DUP6 ADD PUSH2 0x214D JUMP JUMPDEST SUB SWAP3 GAS CALL DUP1 ISZERO PUSH2 0x11AE JUMPI PUSH2 0x1432 JUMPI JUMPDEST POP PUSH2 0x13A9 DUP6 DUP10 PUSH2 0x1F4B JUMP JUMPDEST MLOAD DUP10 MSTORE DUP3 DUP5 MSTORE PUSH1 0x40 DUP10 KECCAK256 PUSH2 0x13BD DUP7 DUP9 PUSH2 0x1F4B JUMP JUMPDEST MLOAD DUP11 MSTORE DUP5 MSTORE PUSH1 0x40 DUP10 KECCAK256 SLOAD AND DUP9 MSTORE PUSH2 0x1046 DUP1 DUP5 MSTORE PUSH1 0x40 DUP10 KECCAK256 DUP1 SLOAD SWAP1 PUSH1 0x0 NOT DUP3 ADD SWAP2 DUP3 GT PUSH2 0x141F JUMPI SSTORE CALLER DUP10 MSTORE DUP4 MSTORE PUSH1 0x40 DUP9 KECCAK256 DUP1 SLOAD SWAP2 DUP3 ADD DUP1 SWAP3 GT PUSH2 0x140C JUMPI PUSH1 0x1 SWAP6 SWAP7 SWAP8 SWAP9 SWAP10 POP SSTORE PUSH2 0x10FE DUP4 DUP9 PUSH2 0x1F4B JUMP JUMPDEST PUSH4 0x4E487B71 PUSH1 0xE0 SHL DUP10 MSTORE PUSH1 0x11 PUSH1 0x4 MSTORE DUP10 DUP10 REVERT JUMPDEST PUSH4 0x4E487B71 PUSH1 0xE0 SHL DUP12 MSTORE PUSH1 0x11 PUSH1 0x4 MSTORE DUP12 DUP12 REVERT JUMPDEST PUSH2 0x1448 SWAP1 DUP6 RETURNDATASIZE DUP8 GT PUSH2 0x11A7 JUMPI PUSH2 0x1198 DUP2 DUP4 PUSH2 0x1D49 JUMP JUMPDEST POP CODESIZE PUSH2 0x139E JUMP JUMPDEST SWAP4 SWAP6 POP SWAP4 POP POP DUP2 DUP2 RETURNDATASIZE DUP4 GT PUSH2 0x1485 JUMPI JUMPDEST PUSH2 0x1469 DUP2 DUP4 PUSH2 0x1D49 JUMP JUMPDEST DUP2 ADD SUB SLT PUSH2 0x1481 JUMPI MLOAD SWAP2 DUP10 SWAP2 DUP6 SWAP1 DUP11 SWAP1 PUSH2 0x1340 PUSH2 0x1304 JUMP JUMPDEST DUP10 DUP1 REVERT JUMPDEST POP RETURNDATASIZE PUSH2 0x145F JUMP JUMPDEST POP DUP5 DUP2 DUP2 RETURNDATASIZE DUP4 GT PUSH2 0x14B4 JUMPI JUMPDEST PUSH2 0x14A2 DUP2 DUP4 PUSH2 0x1D49 JUMP JUMPDEST DUP2 ADD SUB SLT PUSH2 0x1481 JUMPI PUSH2 0x12CE SWAP1 MLOAD PUSH2 0x1298 JUMP JUMPDEST POP RETURNDATASIZE PUSH2 0x1498 JUMP JUMPDEST PUSH1 0x40 MLOAD PUSH3 0x461BCD PUSH1 0xE5 SHL DUP2 MSTORE DUP1 PUSH2 0x14D4 PUSH1 0x4 DUP3 ADD PUSH2 0x1F75 JUMP JUMPDEST SUB SWAP1 REVERT JUMPDEST PUSH1 0x40 SWAP2 POP LT ISZERO CODESIZE PUSH2 0xDB3 JUMP JUMPDEST PUSH2 0x1CDF JUMP JUMPDEST PUSH2 0x1D9C JUMP JUMPDEST POP CALLVALUE PUSH2 0x1B0 JUMPI PUSH1 0x20 CALLDATASIZE PUSH1 0x3 NOT ADD SLT PUSH2 0x1B0 JUMPI PUSH1 0x4 CALLDATALOAD PUSH1 0x1 PUSH1 0x1 PUSH1 0xA0 SHL SUB DUP2 DUP2 AND SWAP2 DUP3 SWAP1 SUB PUSH2 0x7D3 JUMPI PUSH2 0x1525 SWAP1 PUSH1 0x1 SLOAD AND CALLER EQ PUSH2 0x2686 JUMP JUMPDEST PUSH1 0x4 DUP1 SLOAD PUSH1 0x1 PUSH1 0x1 PUSH1 0xA0 SHL SUB NOT AND SWAP2 SWAP1 SWAP2 OR SWAP1 SSTORE DUP1 RETURN JUMPDEST POP CALLVALUE PUSH2 0x1B0 JUMPI DUP1 PUSH1 0x3 NOT CALLDATASIZE ADD SLT PUSH2 0x1B0 JUMPI PUSH1 0x20 PUSH3 0x3F480 PUSH3 0x54600 PUSH2 0x1563 PUSH1 0x3 SLOAD TIMESTAMP PUSH2 0x20C8 JUMP JUMPDEST MOD LT PUSH1 0x40 MLOAD SWAP1 DUP2 MSTORE RETURN JUMPDEST POP CALLVALUE PUSH2 0x1B0 JUMPI DUP1 PUSH1 0x3 NOT CALLDATASIZE ADD SLT PUSH2 0x1B0 JUMPI PUSH1 0x1 SLOAD PUSH1 0x40 MLOAD PUSH1 0x1 PUSH1 0x1 PUSH1 0xA0 SHL SUB SWAP1 SWAP2 AND DUP2 MSTORE PUSH1 0x20 SWAP1 RETURN JUMPDEST POP CALLVALUE PUSH2 0x1B0 JUMPI PUSH1 0x20 CALLDATASIZE PUSH1 0x3 NOT ADD SLT PUSH2 0x1B0 JUMPI PUSH1 0x4 CALLDATALOAD PUSH1 0x1 PUSH1 0x1 PUSH1 0x40 SHL SUB DUP2 GT PUSH2 0x319 JUMPI CALLDATASIZE PUSH1 0x23 DUP3 ADD SLT ISZERO PUSH2 0x319 JUMPI DUP1 PUSH1 0x4 ADD CALLDATALOAD SWAP1 PUSH2 0x15D3 DUP3 PUSH2 0x1D6A JUMP JUMPDEST SWAP2 PUSH2 0x15E1 PUSH1 0x40 MLOAD SWAP4 DUP5 PUSH2 0x1D49 JUMP JUMPDEST DUP1 DUP4 MSTORE PUSH1 0x24 PUSH1 0x20 DUP5 ADD SWAP2 PUSH1 0x5 SHL DUP4 ADD ADD SWAP2 CALLDATASIZE DUP4 GT PUSH2 0xB6E JUMPI PUSH1 0x24 DUP2 ADD SWAP2 JUMPDEST DUP4 DUP4 LT PUSH2 0x1AB1 JUMPI DUP6 DUP6 PUSH3 0x3F480 PUSH3 0x54600 PUSH2 0x161C PUSH1 0x3 SLOAD TIMESTAMP PUSH2 0x20C8 JUMP JUMPDEST MOD LT ISZERO PUSH2 0x1A61 JUMPI DUP1 MLOAD SWAP1 PUSH1 0x40 MLOAD SWAP1 PUSH2 0x820 DUP3 ADD DUP3 DUP2 LT PUSH1 0x1 PUSH1 0x1 PUSH1 0x40 SHL SUB DUP3 GT OR PUSH2 0x1A4D JUMPI PUSH1 0x40 MSTORE PUSH1 0x40 DUP3 MSTORE PUSH2 0x800 CALLDATASIZE PUSH1 0x20 DUP5 ADD CALLDATACOPY DUP4 JUMPDEST DUP4 DUP2 LT PUSH2 0x1735 JUMPI DUP5 DUP4 DUP2 JUMPDEST PUSH1 0x40 DUP2 LT PUSH2 0x166A JUMPI DUP3 DUP1 RETURN JUMPDEST PUSH2 0x1674 DUP2 DUP4 PUSH2 0x1F4B JUMP JUMPDEST MLOAD PUSH2 0x1682 JUMPI JUMPDEST PUSH1 0x1 ADD PUSH2 0x165E JUMP JUMPDEST PUSH1 0x40 MLOAD PUSH2 0x168E DUP2 PUSH2 0x1D2E JUMP JUMPDEST DUP4 DUP2 MSTORE PUSH1 0x6 DUP3 DUP2 SHL PUSH1 0x1 PUSH1 0x1 PUSH1 0xFA SHL SUB DUP5 AND DUP5 SUB PUSH2 0x8E1 JUMPI DUP1 PUSH1 0x40 ADD SWAP1 DUP2 PUSH1 0x40 GT PUSH2 0xE8B JUMPI SWAP2 SWAP1 JUMPDEST DUP1 DUP4 LT PUSH2 0x16D8 JUMPI POP POP POP SWAP1 PUSH2 0x16D1 PUSH1 0x1 SWAP3 DUP3 PUSH2 0x1006 ADD PUSH2 0x1FA6 JUMP JUMPDEST SWAP1 POP PUSH2 0x167A JUMP JUMPDEST SWAP1 SWAP2 SWAP3 PUSH2 0x1000 DUP5 LT ISZERO PUSH2 0x1721 JUMPI PUSH1 0x20 PUSH2 0x1714 PUSH2 0x171A SWAP3 PUSH2 0x75D PUSH1 0x40 MLOAD SWAP4 DUP3 PUSH2 0x1709 DUP7 SWAP5 MLOAD DUP1 SWAP3 DUP5 DUP1 DUP9 ADD SWAP2 ADD PUSH2 0x1C18 JUMP JUMPDEST DUP4 ADD ADD DUP9 DUP9 ADD PUSH2 0x2FB0 JUMP JUMPDEST SWAP4 PUSH2 0x1F3C JUMP JUMPDEST SWAP2 SWAP1 PUSH2 0x16B6 JUMP JUMPDEST PUSH4 0x4E487B71 PUSH1 0xE0 SHL DUP8 MSTORE PUSH1 0x32 PUSH1 0x4 MSTORE PUSH1 0x24 DUP8 REVERT JUMPDEST PUSH2 0x173F DUP2 DUP4 PUSH2 0x1F4B JUMP JUMPDEST MLOAD DUP1 MLOAD DUP2 ADD DUP2 PUSH1 0x20 DUP3 ADD SWAP2 PUSH1 0x80 SWAP2 DUP3 SWAP2 SUB SLT PUSH2 0x1A49 JUMPI PUSH1 0x20 DUP4 ADD MLOAD SWAP2 PUSH1 0x40 DUP5 ADD MLOAD SWAP4 PUSH1 0x60 DUP2 ADD MLOAD SWAP3 DUP2 ADD MLOAD SWAP1 PUSH1 0x1 PUSH1 0x1 PUSH1 0x40 SHL SUB DUP3 GT PUSH2 0x1A45 JUMPI ADD DUP2 PUSH1 0x3F DUP3 ADD SLT ISZERO PUSH2 0x1481 JUMPI PUSH1 0x20 DUP2 ADD MLOAD PUSH2 0x1793 DUP2 PUSH2 0x1D81 JUMP JUMPDEST SWAP3 PUSH2 0x17A1 PUSH1 0x40 MLOAD SWAP5 DUP6 PUSH2 0x1D49 JUMP JUMPDEST DUP2 DUP5 MSTORE PUSH1 0x40 DUP3 DUP5 ADD ADD GT PUSH2 0x1A45 JUMPI PUSH2 0x17C0 SWAP2 PUSH1 0x40 PUSH1 0x20 DUP6 ADD SWAP2 ADD PUSH2 0x1C18 JUMP JUMPDEST PUSH1 0x40 DUP4 LT DUP1 ISZERO SWAP1 PUSH2 0x1A3A JUMPI JUMPDEST PUSH2 0x14BB JUMPI PUSH1 0xA DUP3 LT ISZERO PUSH2 0x19FC JUMPI DUP3 DUP10 MSTORE PUSH1 0x5 PUSH1 0x20 MSTORE PUSH1 0x40 DUP10 KECCAK256 DUP5 DUP11 MSTORE PUSH1 0x20 MSTORE PUSH1 0xFF PUSH1 0x5 PUSH1 0x40 DUP12 KECCAK256 ADD SLOAD AND PUSH2 0x199F JUMPI DUP3 DUP10 MSTORE PUSH1 0x5 PUSH1 0x20 SWAP1 DUP2 MSTORE PUSH1 0x40 DUP1 DUP12 KECCAK256 DUP7 DUP13 MSTORE SWAP1 SWAP2 MSTORE DUP10 KECCAK256 SLOAD PUSH1 0x1 PUSH1 0x1 PUSH1 0xA0 SHL SUB AND CALLER EQ PUSH2 0x1834 JUMPI JUMPDEST POP POP POP POP PUSH2 0x182F SWAP1 PUSH2 0x1F3C JUMP JUMPDEST PUSH2 0x1653 JUMP JUMPDEST PUSH2 0x1856 SWAP1 DUP4 DUP11 MSTORE PUSH1 0x5 PUSH1 0x20 MSTORE PUSH1 0x40 DUP11 KECCAK256 DUP6 DUP12 MSTORE PUSH1 0x20 MSTORE PUSH1 0x3 PUSH1 0x40 DUP12 KECCAK256 ADD PUSH2 0x1FA6 JUMP JUMPDEST DUP2 DUP9 MSTORE PUSH1 0x5 PUSH1 0x20 MSTORE PUSH1 0x40 DUP9 KECCAK256 DUP4 DUP10 MSTORE PUSH1 0x20 MSTORE PUSH1 0x1 PUSH1 0x40 DUP10 KECCAK256 ADD SSTORE DUP1 DUP3 PUSH2 0x194B JUMPI JUMPDEST DUP2 DUP9 MSTORE PUSH1 0x5 PUSH1 0x20 MSTORE PUSH1 0x40 DUP9 KECCAK256 DUP4 DUP10 MSTORE PUSH1 0x20 MSTORE PUSH1 0x1 PUSH1 0x40 DUP10 KECCAK256 ADD SLOAD PUSH1 0x9 DUP1 DUP5 MUL DUP5 DUP2 DIV DUP3 EQ DUP6 ISZERO OR ISZERO PUSH2 0x116D JUMPI DUP2 DUP7 MUL SWAP2 DUP7 DUP4 DIV EQ DUP7 ISZERO OR ISZERO PUSH2 0x116D JUMPI SWAP1 PUSH2 0x18DF SWAP3 SWAP2 PUSH2 0x18D9 PUSH1 0x3 PUSH1 0x40 DUP15 DUP10 DUP2 MSTORE PUSH1 0x5 PUSH1 0x20 MSTORE DUP2 DUP2 KECCAK256 DUP12 DUP3 MSTORE PUSH1 0x20 MSTORE KECCAK256 ADD PUSH2 0x1E96 JUMP JUMPDEST SWAP3 PUSH2 0x2853 JUMP JUMPDEST SWAP1 PUSH2 0x1000 DUP2 LT ISZERO PUSH2 0x1937 JUMPI PUSH2 0x182F SWAP5 SWAP4 SWAP3 SWAP2 PUSH2 0x18FD SWAP2 PUSH1 0x6 ADD PUSH2 0x1FA6 JUMP JUMPDEST PUSH1 0x1 PUSH2 0x1909 DUP4 DUP9 PUSH2 0x1F4B JUMP JUMPDEST MSTORE PUSH32 0xA9A418DA632D42C446A125F10B007831BA0E348168B6B2474A2383AC5DF4C280 DUP9 DUP1 LOG3 SWAP1 DUP7 DUP1 DUP1 PUSH2 0x1822 JUMP JUMPDEST PUSH4 0x4E487B71 PUSH1 0xE0 SHL DUP10 MSTORE PUSH1 0x32 PUSH1 0x4 MSTORE PUSH1 0x24 DUP10 REVERT JUMPDEST POP PUSH2 0x1956 DUP3 DUP3 PUSH2 0x20B5 JUMP JUMPDEST PUSH1 0x40 DUP3 DUP2 SUB GT PUSH2 0x198B JUMPI DUP3 PUSH1 0x0 NOT DUP2 ADD GT PUSH2 0x198B JUMPI PUSH2 0x1986 SWAP1 PUSH2 0x1980 PUSH1 0x0 NOT DUP6 ADD DUP5 PUSH1 0x40 SUB PUSH2 0x20B5 JUMP JUMPDEST SWAP1 PUSH2 0x1CBC JUMP JUMPDEST PUSH2 0x1877 JUMP JUMPDEST PUSH4 0x4E487B71 PUSH1 0xE0 SHL DUP9 MSTORE PUSH1 0x11 PUSH1 0x4 MSTORE PUSH1 0x24 DUP9 REVERT JUMPDEST PUSH1 0x40 MLOAD PUSH3 0x461BCD PUSH1 0xE5 SHL DUP2 MSTORE PUSH1 0x20 PUSH1 0x4 DUP3 ADD MSTORE PUSH1 0x2F PUSH1 0x24 DUP3 ADD MSTORE PUSH32 0x6F776E6572207761732061736B656420746F20666972737420736574746C6520 PUSH1 0x44 DUP3 ADD MSTORE PUSH15 0x1C9BDE585B1D1E481C185E5B595B9D PUSH1 0x8A SHL PUSH1 0x64 DUP3 ADD MSTORE PUSH1 0x84 SWAP1 REVERT JUMPDEST PUSH1 0x40 MLOAD PUSH3 0x461BCD PUSH1 0xE5 SHL DUP2 MSTORE PUSH1 0x20 PUSH1 0x4 DUP3 ADD MSTORE PUSH1 0x16 PUSH1 0x24 DUP3 ADD MSTORE PUSH22 0x7368617065204944206E6F7420617661696C61626C65 PUSH1 0x50 SHL PUSH1 0x44 DUP3 ADD MSTORE PUSH1 0x64 SWAP1 REVERT JUMPDEST POP PUSH1 0x40 DUP5 LT ISZERO PUSH2 0x17CC JUMP JUMPDEST DUP11 DUP1 REVERT JUMPDEST DUP8 DUP1 REVERT JUMPDEST PUSH4 0x4E487B71 PUSH1 0xE0 SHL DUP6 MSTORE PUSH1 0x41 PUSH1 0x4 MSTORE PUSH1 0x24 DUP6 REVERT JUMPDEST PUSH1 0x40 MLOAD PUSH3 0x461BCD PUSH1 0xE5 SHL DUP2 MSTORE PUSH1 0x20 PUSH1 0x4 DUP3 ADD MSTORE PUSH1 0x22 PUSH1 0x24 DUP3 ADD MSTORE PUSH32 0x417274697374696320706572696F642063757272656E746C79206E6F74206F70 PUSH1 0x44 DUP3 ADD MSTORE PUSH2 0x32B7 PUSH1 0xF1 SHL PUSH1 0x64 DUP3 ADD MSTORE PUSH1 0x84 SWAP1 REVERT JUMPDEST DUP3 CALLDATALOAD PUSH1 0x1 PUSH1 0x1 PUSH1 0x40 SHL SUB DUP2 GT PUSH2 0x1B18 JUMPI DUP3 ADD CALLDATASIZE PUSH1 0x43 DUP3 ADD SLT ISZERO PUSH2 0x1B18 JUMPI PUSH1 0x24 DUP2 ADD CALLDATALOAD SWAP2 PUSH2 0x1ADD DUP4 PUSH2 0x1D81 JUMP JUMPDEST PUSH2 0x1AEA PUSH1 0x40 MLOAD SWAP2 DUP3 PUSH2 0x1D49 JUMP JUMPDEST DUP4 DUP2 MSTORE DUP9 PUSH1 0x44 CALLDATASIZE DUP2 DUP8 DUP8 ADD ADD GT PUSH2 0x319 JUMPI DUP6 PUSH1 0x20 SWAP7 DUP8 SWAP7 SWAP3 DUP8 SWAP4 ADD DUP4 DUP7 ADD CALLDATACOPY DUP4 ADD ADD MSTORE DUP2 MSTORE ADD SWAP3 ADD SWAP2 PUSH2 0x15FF JUMP JUMPDEST DUP7 DUP1 REVERT JUMPDEST POP CALLVALUE PUSH2 0x1B0 JUMPI PUSH1 0x20 CALLDATASIZE PUSH1 0x3 NOT ADD SLT PUSH2 0x1B0 JUMPI PUSH1 0x40 DUP1 SWAP2 PUSH1 0x4 CALLDATALOAD DUP2 MSTORE PUSH2 0x1047 PUSH1 0x20 MSTORE KECCAK256 PUSH1 0x1 DUP2 SLOAD SWAP2 ADD SLOAD DUP3 MLOAD SWAP2 DUP3 MSTORE PUSH1 0x20 DUP3 ADD MSTORE RETURN JUMPDEST POP CALLVALUE PUSH2 0x1B0 JUMPI DUP1 PUSH1 0x3 NOT CALLDATASIZE ADD SLT PUSH2 0x1B0 JUMPI PUSH1 0x20 PUSH1 0x40 MLOAD PUSH3 0x54600 DUP2 MSTORE RETURN JUMPDEST POP CALLVALUE PUSH2 0x1B0 JUMPI PUSH1 0x20 CALLDATASIZE PUSH1 0x3 NOT ADD SLT PUSH2 0x1B0 JUMPI PUSH1 0x4 CALLDATALOAD PUSH1 0x1 PUSH1 0x1 PUSH1 0xA0 SHL SUB DUP2 AND SWAP1 DUP2 SWAP1 SUB PUSH2 0x319 JUMPI PUSH1 0x40 PUSH1 0x20 SWAP3 PUSH1 0xFF SWAP3 PUSH3 0x54600 PUSH2 0x1BAE PUSH1 0x3 SLOAD TIMESTAMP PUSH2 0x20C8 JUMP JUMPDEST DIV DUP3 MSTORE PUSH2 0x1047 DUP6 MSTORE PUSH1 0x2 DUP4 DUP4 KECCAK256 ADD SWAP1 DUP3 MSTORE DUP5 MSTORE KECCAK256 SLOAD AND PUSH1 0x40 MLOAD SWAP1 ISZERO ISZERO DUP2 MSTORE RETURN JUMPDEST POP CALLVALUE PUSH2 0x1B0 JUMPI PUSH2 0x37B PUSH2 0x1BE9 PUSH2 0x1BE3 CALLDATASIZE PUSH2 0x1BFD JUMP JUMPDEST SWAP1 PUSH2 0x271F JUMP JUMPDEST PUSH1 0x40 MLOAD SWAP2 DUP3 SWAP2 PUSH1 0x20 DUP4 MSTORE PUSH1 0x20 DUP4 ADD SWAP1 PUSH2 0x1C60 JUMP JUMPDEST PUSH1 0x40 SWAP1 PUSH1 0x3 NOT ADD SLT PUSH2 0x1C13 JUMPI PUSH1 0x4 CALLDATALOAD SWAP1 PUSH1 0x24 CALLDATALOAD SWAP1 JUMP JUMPDEST PUSH1 0x0 DUP1 REVERT JUMPDEST PUSH1 0x0 JUMPDEST DUP4 DUP2 LT PUSH2 0x1C2B JUMPI POP POP PUSH1 0x0 SWAP2 ADD MSTORE JUMP JUMPDEST DUP2 DUP2 ADD MLOAD DUP4 DUP3 ADD MSTORE PUSH1 0x20 ADD PUSH2 0x1C1B JUMP JUMPDEST SWAP1 PUSH1 0x20 SWAP2 PUSH2 0x1C54 DUP2 MLOAD DUP1 SWAP3 DUP2 DUP6 MSTORE DUP6 DUP1 DUP7 ADD SWAP2 ADD PUSH2 0x1C18 JUMP JUMPDEST PUSH1 0x1F ADD PUSH1 0x1F NOT AND ADD ADD SWAP1 JUMP JUMPDEST SWAP1 PUSH1 0x1 DUP1 PUSH1 0xA0 SHL SUB DUP3 MLOAD AND DUP2 MSTORE PUSH1 0x20 DUP3 ADD MLOAD PUSH1 0x20 DUP3 ADD MSTORE PUSH1 0x40 DUP3 ADD MLOAD PUSH1 0x40 DUP3 ADD MSTORE PUSH1 0xC0 DUP1 PUSH2 0x1C9D PUSH1 0x60 DUP6 ADD MLOAD PUSH1 0xE0 PUSH1 0x60 DUP7 ADD MSTORE PUSH1 0xE0 DUP6 ADD SWAP1 PUSH2 0x1C3B JUMP JUMPDEST SWAP4 PUSH1 0x80 DUP2 ADD MLOAD PUSH1 0x80 DUP6 ADD MSTORE PUSH1 0xA0 DUP2 ADD MLOAD ISZERO ISZERO PUSH1 0xA0 DUP6 ADD MSTORE ADD MLOAD SWAP2 ADD MSTORE SWAP1 JUMP JUMPDEST SWAP2 SWAP1 DUP3 ADD DUP1 SWAP3 GT PUSH2 0x1CC9 JUMPI JUMP JUMPDEST PUSH4 0x4E487B71 PUSH1 0xE0 SHL PUSH1 0x0 MSTORE PUSH1 0x11 PUSH1 0x4 MSTORE PUSH1 0x24 PUSH1 0x0 REVERT JUMPDEST CALLVALUE PUSH2 0x1C13 JUMPI PUSH1 0x0 CALLDATASIZE PUSH1 0x3 NOT ADD SLT PUSH2 0x1C13 JUMPI PUSH1 0x20 PUSH1 0x40 MLOAD PUSH3 0x3F480 DUP2 MSTORE RETURN JUMPDEST PUSH1 0xE0 DUP2 ADD SWAP1 DUP2 LT PUSH1 0x1 PUSH1 0x1 PUSH1 0x40 SHL SUB DUP3 GT OR PUSH2 0x1D18 JUMPI PUSH1 0x40 MSTORE JUMP JUMPDEST PUSH4 0x4E487B71 PUSH1 0xE0 SHL PUSH1 0x0 MSTORE PUSH1 0x41 PUSH1 0x4 MSTORE PUSH1 0x24 PUSH1 0x0 REVERT JUMPDEST PUSH1 0x20 DUP2 ADD SWAP1 DUP2 LT PUSH1 0x1 PUSH1 0x1 PUSH1 0x40 SHL SUB DUP3 GT OR PUSH2 0x1D18 JUMPI PUSH1 0x40 MSTORE JUMP JUMPDEST SWAP1 PUSH1 0x1F DUP1 NOT SWAP2 ADD AND DUP2 ADD SWAP1 DUP2 LT PUSH1 0x1 PUSH1 0x1 PUSH1 0x40 SHL SUB DUP3 GT OR PUSH2 0x1D18 JUMPI PUSH1 0x40 MSTORE JUMP JUMPDEST PUSH1 0x1 PUSH1 0x1 PUSH1 0x40 SHL SUB DUP2 GT PUSH2 0x1D18 JUMPI PUSH1 0x5 SHL PUSH1 0x20 ADD SWAP1 JUMP JUMPDEST PUSH1 0x1 PUSH1 0x1 PUSH1 0x40 SHL SUB DUP2 GT PUSH2 0x1D18 JUMPI PUSH1 0x1F ADD PUSH1 0x1F NOT AND PUSH1 0x20 ADD SWAP1 JUMP JUMPDEST CALLVALUE PUSH2 0x1C13 JUMPI PUSH1 0x0 CALLDATASIZE PUSH1 0x3 NOT ADD SLT PUSH2 0x1C13 JUMPI PUSH1 0x20 PUSH1 0x40 MLOAD PUSH1 0x40 DUP2 MSTORE RETURN JUMPDEST DUP2 PUSH1 0x1F DUP3 ADD SLT ISZERO PUSH2 0x1C13 JUMPI DUP1 CALLDATALOAD SWAP2 PUSH2 0x1DCF DUP4 PUSH2 0x1D6A JUMP JUMPDEST SWAP3 PUSH2 0x1DDD PUSH1 0x40 MLOAD SWAP5 DUP6 PUSH2 0x1D49 JUMP JUMPDEST DUP1 DUP5 MSTORE PUSH1 0x20 SWAP3 DUP4 DUP1 DUP7 ADD SWAP3 PUSH1 0x5 SHL DUP3 ADD ADD SWAP3 DUP4 GT PUSH2 0x1C13 JUMPI DUP4 ADD SWAP1 JUMPDEST DUP3 DUP3 LT PUSH2 0x1E07 JUMPI POP POP POP POP SWAP1 JUMP JUMPDEST DUP2 CALLDATALOAD DUP2 MSTORE SWAP1 DUP4 ADD SWAP1 DUP4 ADD PUSH2 0x1DF9 JUMP JUMPDEST SWAP1 PUSH1 0x40 PUSH1 0x3 NOT DUP4 ADD SLT PUSH2 0x1C13 JUMPI PUSH1 0x1 PUSH1 0x1 PUSH1 0x40 SHL SUB PUSH1 0x4 CALLDATALOAD DUP2 DUP2 GT PUSH2 0x1C13 JUMPI DUP4 PUSH2 0x1E42 SWAP2 PUSH1 0x4 ADD PUSH2 0x1DB8 JUMP JUMPDEST SWAP3 PUSH1 0x24 CALLDATALOAD SWAP2 DUP3 GT PUSH2 0x1C13 JUMPI PUSH2 0x1E59 SWAP2 PUSH1 0x4 ADD PUSH2 0x1DB8 JUMP JUMPDEST SWAP1 JUMP JUMPDEST SWAP1 PUSH1 0x1 DUP3 DUP2 SHR SWAP3 AND DUP1 ISZERO PUSH2 0x1E8C JUMPI JUMPDEST PUSH1 0x20 DUP4 LT EQ PUSH2 0x1E76 JUMPI JUMP JUMPDEST PUSH4 0x4E487B71 PUSH1 0xE0 SHL PUSH1 0x0 MSTORE PUSH1 0x22 PUSH1 0x4 MSTORE PUSH1 0x24 PUSH1 0x0 REVERT JUMPDEST SWAP2 PUSH1 0x7F AND SWAP2 PUSH2 0x1E6B JUMP JUMPDEST SWAP1 PUSH1 0x40 MLOAD SWAP2 DUP3 PUSH1 0x0 DUP3 SLOAD SWAP3 PUSH2 0x1EAA DUP5 PUSH2 0x1E5C JUMP JUMPDEST SWAP1 DUP2 DUP5 MSTORE PUSH1 0x1 SWAP5 DUP6 DUP2 AND SWAP1 DUP2 PUSH1 0x0 EQ PUSH2 0x1F19 JUMPI POP PUSH1 0x1 EQ PUSH2 0x1ED6 JUMPI JUMPDEST POP POP PUSH2 0x1ED4 SWAP3 POP SUB DUP4 PUSH2 0x1D49 JUMP JUMPDEST JUMP JUMPDEST SWAP1 SWAP4 SWAP2 POP PUSH1 0x0 MSTORE PUSH1 0x20 SWAP1 DUP2 PUSH1 0x0 KECCAK256 SWAP4 PUSH1 0x0 SWAP2 JUMPDEST DUP2 DUP4 LT PUSH2 0x1F01 JUMPI POP POP PUSH2 0x1ED4 SWAP4 POP DUP3 ADD ADD CODESIZE DUP1 PUSH2 0x1EC6 JUMP JUMPDEST DUP6 SLOAD DUP9 DUP5 ADD DUP6 ADD MSTORE SWAP5 DUP6 ADD SWAP5 DUP8 SWAP5 POP SWAP2 DUP4 ADD SWAP2 PUSH2 0x1EE9 JUMP JUMPDEST SWAP2 POP POP PUSH2 0x1ED4 SWAP5 POP PUSH1 0x20 SWAP3 POP PUSH1 0xFF NOT AND DUP3 DUP5 ADD MSTORE ISZERO ISZERO PUSH1 0x5 SHL DUP3 ADD ADD CODESIZE DUP1 PUSH2 0x1EC6 JUMP JUMPDEST PUSH1 0x0 NOT DUP2 EQ PUSH2 0x1CC9 JUMPI PUSH1 0x1 ADD SWAP1 JUMP JUMPDEST DUP1 MLOAD DUP3 LT ISZERO PUSH2 0x1F5F JUMPI PUSH1 0x20 SWAP2 PUSH1 0x5 SHL ADD ADD SWAP1 JUMP JUMPDEST PUSH4 0x4E487B71 PUSH1 0xE0 SHL PUSH1 0x0 MSTORE PUSH1 0x32 PUSH1 0x4 MSTORE PUSH1 0x24 PUSH1 0x0 REVERT JUMPDEST PUSH1 0x60 SWAP1 PUSH1 0x20 DUP2 MSTORE PUSH1 0x16 PUSH1 0x20 DUP3 ADD MSTORE PUSH22 0x706978656C206973206F7574206F6620626F756E6473 PUSH1 0x50 SHL PUSH1 0x40 DUP3 ADD MSTORE ADD SWAP1 JUMP JUMPDEST SWAP2 SWAP1 SWAP2 DUP3 MLOAD PUSH1 0x1 PUSH1 0x1 PUSH1 0x40 SHL SUB DUP2 GT PUSH2 0x1D18 JUMPI PUSH2 0x1FC3 DUP3 SLOAD PUSH2 0x1E5C JUMP JUMPDEST PUSH1 0x1F DUP2 GT PUSH2 0x206D JUMPI JUMPDEST POP PUSH1 0x20 DUP1 PUSH1 0x1F DUP4 GT PUSH1 0x1 EQ PUSH2 0x2009 JUMPI POP DUP2 SWAP3 SWAP4 SWAP5 PUSH1 0x0 SWAP3 PUSH2 0x1FFE JUMPI JUMPDEST POP POP DUP2 PUSH1 0x1 SHL SWAP2 PUSH1 0x0 NOT SWAP1 PUSH1 0x3 SHL SHR NOT AND OR SWAP1 SSTORE JUMP JUMPDEST ADD MLOAD SWAP1 POP CODESIZE DUP1 PUSH2 0x1FE8 JUMP JUMPDEST SWAP1 PUSH1 0x1F NOT DUP4 AND SWAP6 DUP5 PUSH1 0x0 MSTORE DUP3 PUSH1 0x0 KECCAK256 SWAP3 PUSH1 0x0 SWAP1 JUMPDEST DUP9 DUP3 LT PUSH2 0x2055 JUMPI POP POP DUP4 PUSH1 0x1 SWAP6 SWAP7 SWAP8 LT PUSH2 0x203C JUMPI JUMPDEST POP POP POP DUP2 SHL ADD SWAP1 SSTORE JUMP JUMPDEST ADD MLOAD PUSH1 0x0 NOT PUSH1 0xF8 DUP5 PUSH1 0x3 SHL AND SHR NOT AND SWAP1 SSTORE CODESIZE DUP1 DUP1 PUSH2 0x2032 JUMP JUMPDEST DUP1 PUSH1 0x1 DUP6 SWAP7 DUP3 SWAP5 SWAP7 DUP7 ADD MLOAD DUP2 SSTORE ADD SWAP6 ADD SWAP4 ADD SWAP1 PUSH2 0x201D JUMP JUMPDEST PUSH1 0x0 DUP4 DUP2 MSTORE PUSH1 0x20 DUP2 KECCAK256 PUSH1 0x1F DUP5 ADD PUSH1 0x5 SHR DUP2 ADD SWAP3 PUSH1 0x20 DUP6 LT PUSH2 0x20AB JUMPI JUMPDEST PUSH1 0x1F ADD PUSH1 0x5 SHR ADD SWAP2 JUMPDEST DUP3 DUP2 LT PUSH2 0x20A0 JUMPI POP POP PUSH2 0x1FCC JUMP JUMPDEST DUP2 DUP2 SSTORE PUSH1 0x1 ADD PUSH2 0x2092 JUMP JUMPDEST SWAP1 SWAP3 POP DUP3 SWAP1 PUSH2 0x2089 JUMP JUMPDEST DUP2 DUP2 MUL SWAP3 SWAP2 DUP2 ISZERO SWAP2 DUP5 DIV EQ OR ISZERO PUSH2 0x1CC9 JUMPI JUMP JUMPDEST SWAP2 SWAP1 DUP3 SUB SWAP2 DUP3 GT PUSH2 0x1CC9 JUMPI JUMP JUMPDEST ISZERO PUSH2 0x20DC JUMPI JUMP JUMPDEST PUSH1 0x40 MLOAD PUSH3 0x461BCD PUSH1 0xE5 SHL DUP2 MSTORE PUSH1 0x20 PUSH1 0x4 DUP3 ADD MSTORE PUSH1 0x2B PUSH1 0x24 DUP3 ADD MSTORE PUSH32 0x7820616E64207920696E7075742061727261797320617265206F662076617269 PUSH1 0x44 DUP3 ADD MSTORE PUSH11 0x6F7573206C656E67746873 PUSH1 0xA8 SHL PUSH1 0x64 DUP3 ADD MSTORE PUSH1 0x84 SWAP1 REVERT JUMPDEST SWAP1 DUP2 PUSH1 0x20 SWAP2 SUB SLT PUSH2 0x1C13 JUMPI MLOAD DUP1 ISZERO ISZERO DUP2 SUB PUSH2 0x1C13 JUMPI SWAP1 JUMP JUMPDEST PUSH1 0x1 PUSH1 0x1 PUSH1 0xA0 SHL SUB SWAP2 DUP3 AND DUP2 MSTORE SWAP2 AND PUSH1 0x20 DUP3 ADD MSTORE PUSH1 0x40 DUP2 ADD SWAP2 SWAP1 SWAP2 MSTORE PUSH1 0x60 ADD SWAP1 JUMP JUMPDEST SWAP2 SWAP1 SWAP2 PUSH2 0x217F DUP2 MLOAD DUP5 MLOAD EQ PUSH2 0x20D5 JUMP JUMPDEST DUP1 MLOAD PUSH1 0x0 SWAP4 JUMPDEST DUP2 DUP6 LT PUSH2 0x2193 JUMPI POP POP POP SWAP1 POP JUMP JUMPDEST PUSH2 0x219D DUP6 DUP5 PUSH2 0x1F4B JUMP JUMPDEST MLOAD SWAP5 PUSH2 0x21A9 DUP2 DUP4 PUSH2 0x1F4B JUMP JUMPDEST MLOAD PUSH1 0x40 DUP1 DUP1 SWAP9 LT SWAP2 DUP3 ISZERO SWAP3 PUSH2 0x25CB JUMPI JUMPDEST POP POP PUSH2 0x25B3 JUMPI PUSH2 0x21C9 DUP2 DUP6 PUSH2 0x1F4B JUMP JUMPDEST MLOAD PUSH1 0x0 MSTORE PUSH1 0x5 PUSH1 0x20 SWAP1 DUP1 DUP3 MSTORE DUP8 PUSH1 0x0 KECCAK256 PUSH2 0x21E3 DUP5 DUP7 PUSH2 0x1F4B JUMP JUMPDEST MLOAD PUSH1 0x0 MSTORE DUP3 MSTORE PUSH1 0x1 DUP1 PUSH1 0xA0 SHL SUB SWAP8 CALLER DUP10 DUP3 PUSH1 0x0 KECCAK256 SLOAD AND SUB PUSH2 0x2565 JUMPI PUSH2 0x2208 DUP5 DUP9 PUSH2 0x1F4B JUMP JUMPDEST MLOAD PUSH1 0x0 MSTORE DUP2 DUP4 MSTORE DUP1 PUSH1 0x0 KECCAK256 PUSH2 0x221D DUP6 DUP8 PUSH2 0x1F4B JUMP JUMPDEST MLOAD PUSH1 0x0 MSTORE DUP4 MSTORE PUSH1 0x4 TIMESTAMP DUP2 DUP4 PUSH1 0x0 KECCAK256 ADD SLOAD SUB PUSH2 0x224E JUMPI JUMPDEST POP POP POP POP PUSH2 0x2245 SWAP2 SWAP3 SWAP4 SWAP5 SWAP6 POP PUSH2 0x1F3C JUMP JUMPDEST SWAP4 SWAP3 SWAP2 SWAP1 PUSH2 0x2185 JUMP JUMPDEST PUSH2 0x2266 PUSH2 0x225B DUP7 DUP11 PUSH2 0x1F4B JUMP JUMPDEST MLOAD PUSH2 0xEB7 DUP8 DUP10 PUSH2 0x1F4B JUMP JUMPDEST SWAP10 DUP1 DUP3 SLOAD AND SWAP1 DUP4 MLOAD PUSH4 0x70A08231 PUSH1 0xE0 SHL DUP2 MSTORE CALLER DUP5 DUP3 ADD MSTORE PUSH1 0x24 SWAP1 DUP8 DUP2 DUP4 DUP2 DUP8 GAS STATICCALL SWAP1 DUP2 ISZERO PUSH2 0x24D9 JUMPI SWAP1 DUP15 SWAP2 PUSH1 0x0 SWAP2 PUSH2 0x2535 JUMPI JUMPDEST POP LT PUSH2 0x24E4 JUMPI DUP5 MLOAD PUSH4 0x6EB1769F PUSH1 0xE1 SHL DUP2 MSTORE CALLER DUP6 DUP3 ADD SWAP1 DUP2 MSTORE ADDRESS PUSH1 0x20 DUP3 ADD MSTORE DUP9 SWAP1 DUP3 SWAP1 DUP2 SWAP1 PUSH1 0x40 ADD SUB DUP2 DUP8 GAS STATICCALL SWAP1 DUP2 ISZERO PUSH2 0x24D9 JUMPI SWAP1 DUP15 SWAP2 PUSH1 0x0 SWAP2 PUSH2 0x24A9 JUMPI JUMPDEST POP LT PUSH2 0x2458 JUMPI POP DUP6 SWAP2 PUSH2 0x2308 SWAP2 PUSH1 0x1 SLOAD AND SWAP13 PUSH1 0x0 DUP7 MLOAD SWAP15 DUP16 SWAP5 DUP6 SWAP4 DUP5 SWAP3 PUSH4 0x23B872DD PUSH1 0xE0 SHL DUP5 MSTORE CALLER DUP11 DUP6 ADD PUSH2 0x214D JUMP JUMPDEST SUB SWAP3 GAS CALL SWAP10 DUP11 ISZERO PUSH2 0x244D JUMPI PUSH2 0x2245 SWAP7 SWAP8 SWAP9 SWAP10 SWAP11 PUSH2 0x2430 JUMPI JUMPDEST POP PUSH2 0x232B DUP6 DUP11 PUSH2 0x1F4B JUMP JUMPDEST MLOAD PUSH1 0x0 MSTORE DUP3 DUP5 MSTORE DUP2 PUSH1 0x0 KECCAK256 PUSH2 0x2340 DUP7 DUP10 PUSH2 0x1F4B JUMP JUMPDEST MLOAD PUSH1 0x0 MSTORE DUP5 MSTORE TIMESTAMP SWAP1 DUP3 PUSH1 0x0 KECCAK256 ADD SSTORE PUSH2 0x2358 DUP5 DUP10 PUSH2 0x1F4B JUMP JUMPDEST MLOAD PUSH1 0x0 MSTORE DUP2 DUP4 MSTORE DUP1 PUSH1 0x0 KECCAK256 PUSH2 0x236D DUP6 DUP9 PUSH2 0x1F4B JUMP JUMPDEST MLOAD PUSH1 0x0 MSTORE DUP4 MSTORE PUSH1 0xFF DUP3 DUP3 PUSH1 0x0 KECCAK256 ADD SLOAD AND PUSH2 0x23CE JUMPI JUMPDEST POP POP POP PUSH2 0x238F DUP2 DUP7 PUSH2 0x1F4B JUMP JUMPDEST MLOAD PUSH2 0x239A DUP3 DUP6 PUSH2 0x1F4B JUMP JUMPDEST MLOAD SWAP1 PUSH32 0xE61AF2269C9AFBDB69EFCE2B15F2A464F8EE6237F105B3D4024F2E824A9F0AF3 PUSH1 0x0 DUP1 LOG3 DUP6 SWAP5 SWAP4 SWAP3 SWAP2 CODESIZE DUP1 DUP1 PUSH2 0x2233 JUMP JUMPDEST PUSH1 0x0 SWAP3 PUSH1 0x6 SWAP3 PUSH2 0x23DE DUP7 DUP12 PUSH2 0x1F4B JUMP JUMPDEST MLOAD DUP6 MSTORE DUP1 DUP3 MSTORE DUP3 DUP6 KECCAK256 PUSH2 0x23F1 DUP8 DUP11 PUSH2 0x1F4B JUMP JUMPDEST MLOAD DUP7 MSTORE DUP3 MSTORE DUP3 DUP6 KECCAK256 DUP2 ADD DUP1 SLOAD PUSH1 0xFF NOT AND SWAP1 SSTORE PUSH2 0x240D DUP7 DUP12 PUSH2 0x1F4B JUMP JUMPDEST MLOAD DUP6 MSTORE DUP2 MSTORE DUP2 DUP5 KECCAK256 SWAP1 PUSH2 0x2420 DUP7 DUP10 PUSH2 0x1F4B JUMP JUMPDEST MLOAD DUP6 MSTORE MSTORE DUP3 KECCAK256 ADD SSTORE CODESIZE DUP1 DUP1 PUSH2 0x2382 JUMP JUMPDEST PUSH2 0x2446 SWAP1 DUP6 RETURNDATASIZE DUP8 GT PUSH2 0x11A7 JUMPI PUSH2 0x1198 DUP2 DUP4 PUSH2 0x1D49 JUMP JUMPDEST POP CODESIZE PUSH2 0x2320 JUMP JUMPDEST DUP3 MLOAD RETURNDATASIZE PUSH1 0x0 DUP3 RETURNDATACOPY RETURNDATASIZE SWAP1 REVERT JUMPDEST DUP4 PUSH1 0x27 PUSH1 0x84 SWAP3 DUP10 DUP9 MLOAD SWAP4 PUSH3 0x461BCD PUSH1 0xE5 SHL DUP6 MSTORE DUP5 ADD MSTORE DUP3 ADD MSTORE PUSH32 0x696E73756666696369656E7420616C6C6F77616E636520746F2070617920726F PUSH1 0x44 DUP3 ADD MSTORE PUSH7 0x79616C74696573 PUSH1 0xC8 SHL PUSH1 0x64 DUP3 ADD MSTORE REVERT JUMPDEST SWAP2 POP DUP9 DUP3 DUP2 RETURNDATASIZE DUP4 GT PUSH2 0x24D2 JUMPI JUMPDEST PUSH2 0x24C0 DUP2 DUP4 PUSH2 0x1D49 JUMP JUMPDEST DUP2 ADD SUB SLT PUSH2 0x1B0 JUMPI POP DUP14 SWAP1 MLOAD CODESIZE PUSH2 0x22D8 JUMP JUMPDEST POP RETURNDATASIZE PUSH2 0x24B6 JUMP JUMPDEST DUP7 MLOAD RETURNDATASIZE PUSH1 0x0 DUP3 RETURNDATACOPY RETURNDATASIZE SWAP1 REVERT JUMPDEST DUP4 PUSH1 0x27 PUSH1 0x84 SWAP3 DUP10 DUP9 MLOAD SWAP4 PUSH3 0x461BCD PUSH1 0xE5 SHL DUP6 MSTORE DUP5 ADD MSTORE DUP3 ADD MSTORE PUSH32 0x6E6F742073756666696369656E742062616C616E636520746F2070617920726F PUSH1 0x44 DUP3 ADD MSTORE PUSH7 0x79616C74696573 PUSH1 0xC8 SHL PUSH1 0x64 DUP3 ADD MSTORE REVERT JUMPDEST SWAP2 POP DUP9 DUP3 DUP2 RETURNDATASIZE DUP4 GT PUSH2 0x255E JUMPI JUMPDEST PUSH2 0x254C DUP2 DUP4 PUSH2 0x1D49 JUMP JUMPDEST DUP2 ADD SUB SLT PUSH2 0x1B0 JUMPI POP DUP14 SWAP1 MLOAD CODESIZE PUSH2 0x2299 JUMP JUMPDEST POP RETURNDATASIZE PUSH2 0x2542 JUMP JUMPDEST MLOAD PUSH3 0x461BCD PUSH1 0xE5 SHL DUP2 MSTORE PUSH1 0x4 DUP2 ADD DUP4 SWAP1 MSTORE PUSH1 0x22 PUSH1 0x24 DUP3 ADD MSTORE PUSH32 0x6F6E6C7920706978656C206F776E65722063616E2070617920726F79616C7469 PUSH1 0x44 DUP3 ADD MSTORE PUSH2 0x6573 PUSH1 0xF0 SHL PUSH1 0x64 DUP3 ADD MSTORE PUSH1 0x84 SWAP1 REVERT JUMPDEST DUP6 MLOAD PUSH3 0x461BCD PUSH1 0xE5 SHL DUP2 MSTORE DUP1 PUSH2 0x14D4 PUSH1 0x4 DUP3 ADD PUSH2 0x1F75 JUMP JUMPDEST LT ISZERO SWAP1 POP DUP7 CODESIZE PUSH2 0x21B9 JUMP JUMPDEST ISZERO PUSH2 0x25DD JUMPI JUMP JUMPDEST PUSH1 0x40 MLOAD PUSH3 0x461BCD PUSH1 0xE5 SHL DUP2 MSTORE PUSH1 0x20 PUSH1 0x4 DUP3 ADD MSTORE PUSH1 0x23 PUSH1 0x24 DUP3 ADD MSTORE PUSH32 0x6E6F742073756666696369656E742062616C616E636520746F20627579207069 PUSH1 0x44 DUP3 ADD MSTORE PUSH3 0x1E195B PUSH1 0xEA SHL PUSH1 0x64 DUP3 ADD MSTORE PUSH1 0x84 SWAP1 REVERT JUMPDEST ISZERO PUSH2 0x2635 JUMPI JUMP JUMPDEST PUSH1 0x40 MLOAD PUSH3 0x461BCD PUSH1 0xE5 SHL DUP2 MSTORE PUSH1 0x20 PUSH1 0x4 DUP3 ADD MSTORE PUSH1 0x23 PUSH1 0x24 DUP3 ADD MSTORE PUSH32 0x696E73756666696369656E7420616C6C6F77616E636520746F20627579207069 PUSH1 0x44 DUP3 ADD MSTORE PUSH3 0x1E195B PUSH1 0xEA SHL PUSH1 0x64 DUP3 ADD MSTORE PUSH1 0x84 SWAP1 REVERT JUMPDEST ISZERO PUSH2 0x268D JUMPI JUMP JUMPDEST PUSH1 0x40 MLOAD PUSH3 0x461BCD PUSH1 0xE5 SHL DUP2 MSTORE PUSH1 0x20 PUSH1 0x4 DUP3 ADD MSTORE PUSH1 0x2C PUSH1 0x24 DUP3 ADD MSTORE PUSH32 0x6F776E65722063757272656E74206D616E616765722063616E2063616C6C2074 PUSH1 0x44 DUP3 ADD MSTORE PUSH12 0x3434B990333AB731BA34B7B7 PUSH1 0xA1 SHL PUSH1 0x64 DUP3 ADD MSTORE PUSH1 0x84 SWAP1 REVERT JUMPDEST PUSH1 0x40 MLOAD SWAP1 PUSH2 0x26F4 DUP3 PUSH2 0x1CFD JUMP JUMPDEST DUP2 PUSH1 0xC0 PUSH1 0x0 SWAP2 DUP3 DUP2 MSTORE DUP3 PUSH1 0x20 DUP3 ADD MSTORE DUP3 PUSH1 0x40 DUP3 ADD MSTORE PUSH1 0x60 DUP1 DUP3 ADD MSTORE DUP3 PUSH1 0x80 DUP3 ADD MSTORE DUP3 PUSH1 0xA0 DUP3 ADD MSTORE ADD MSTORE JUMP JUMPDEST SWAP1 PUSH2 0x2728 PUSH2 0x26E7 JUMP JUMPDEST POP PUSH1 0x40 SWAP2 DUP3 DUP2 LT DUP1 PUSH2 0x27ED JUMPI JUMPDEST ISZERO PUSH2 0x27B3 JUMPI PUSH1 0x0 MSTORE PUSH1 0x5 PUSH1 0x20 MSTORE DUP2 PUSH1 0x0 KECCAK256 SWAP1 PUSH1 0x0 MSTORE PUSH1 0x20 MSTORE PUSH1 0x6 DUP2 PUSH1 0x0 KECCAK256 DUP3 MLOAD SWAP3 PUSH2 0x275F DUP5 PUSH2 0x1CFD JUMP JUMPDEST DUP2 SLOAD PUSH1 0x1 PUSH1 0x1 PUSH1 0xA0 SHL SUB AND DUP5 MSTORE PUSH1 0x1 DUP3 ADD SLOAD PUSH1 0x20 DUP6 ADD MSTORE PUSH1 0x2 DUP3 ADD SLOAD SWAP1 DUP5 ADD MSTORE PUSH2 0x278B PUSH1 0x3 DUP3 ADD PUSH2 0x1E96 JUMP JUMPDEST PUSH1 0x60 DUP5 ADD MSTORE PUSH1 0x4 DUP2 ADD SLOAD PUSH1 0x80 DUP5 ADD MSTORE PUSH1 0xFF PUSH1 0x5 DUP3 ADD SLOAD AND ISZERO ISZERO PUSH1 0xA0 DUP5 ADD MSTORE ADD SLOAD PUSH1 0xC0 DUP3 ADD MSTORE SWAP1 JUMP JUMPDEST DUP3 MLOAD PUSH3 0x461BCD PUSH1 0xE5 SHL DUP2 MSTORE PUSH1 0x20 PUSH1 0x4 DUP3 ADD MSTORE PUSH1 0x13 PUSH1 0x24 DUP3 ADD MSTORE PUSH19 0x706978656C206F7574206F6620626F756E6473 PUSH1 0x68 SHL PUSH1 0x44 DUP3 ADD MSTORE PUSH1 0x64 SWAP1 REVERT JUMPDEST POP DUP3 DUP3 LT PUSH2 0x2735 JUMP JUMPDEST PUSH2 0x2846 PUSH2 0x284F SWAP2 PUSH1 0x2 PUSH1 0x40 PUSH5 0x73DF16000 SWAP6 PUSH1 0x0 SWAP1 DUP5 DUP3 MSTORE PUSH1 0x5 PUSH1 0x20 MSTORE DUP3 DUP3 KECCAK256 DUP2 DUP4 MSTORE PUSH1 0x20 MSTORE PUSH2 0x282C PUSH1 0x4 DUP5 DUP5 KECCAK256 ADD SLOAD TIMESTAMP PUSH2 0x20C8 JUMP JUMPDEST SWAP5 DUP3 MSTORE PUSH1 0x5 PUSH1 0x20 MSTORE DUP3 DUP3 KECCAK256 SWAP1 DUP3 MSTORE PUSH1 0x20 MSTORE KECCAK256 ADD SLOAD SWAP1 PUSH2 0x20B5 JUMP JUMPDEST PUSH1 0x2 SLOAD SWAP1 PUSH2 0x20B5 JUMP JUMPDEST DIV SWAP1 JUMP JUMPDEST SWAP2 SWAP3 SWAP1 SWAP3 DUP3 ISZERO PUSH2 0x2EF4 JUMPI PUSH1 0x1 DUP4 EQ PUSH2 0x2E25 JUMPI PUSH1 0x2 DUP4 EQ PUSH2 0x2DFB JUMPI PUSH1 0x3 DUP4 EQ PUSH2 0x2D9F JUMPI PUSH1 0x4 SWAP3 DUP4 DUP2 EQ PUSH2 0x2D4B JUMPI PUSH1 0x5 DUP2 EQ PUSH2 0x2BEE JUMPI PUSH1 0x6 DUP2 EQ PUSH2 0x2B9C JUMPI PUSH1 0x7 DUP2 EQ PUSH2 0x2B35 JUMPI PUSH1 0x8 DUP2 EQ PUSH2 0x2A52 JUMPI PUSH1 0x9 EQ PUSH2 0x28BD JUMPI POP POP POP POP PUSH1 0x40 MLOAD PUSH2 0x28B6 DUP2 PUSH2 0x1D2E JUMP JUMPDEST PUSH1 0x0 DUP2 MSTORE SWAP1 JUMP JUMPDEST PUSH2 0x28C6 DUP5 PUSH2 0x3033 JUMP JUMPDEST SWAP1 PUSH2 0x28D0 DUP2 PUSH2 0x3033 JUMP JUMPDEST PUSH1 0x8 DUP7 ADD DUP1 DUP8 GT PUSH2 0x2A3D JUMPI PUSH2 0x28E4 SWAP1 PUSH2 0x3033 JUMP JUMPDEST SWAP5 PUSH1 0x8 DUP4 ADD DUP1 SWAP4 GT PUSH2 0x2A28 JUMPI POP SWAP2 PUSH2 0x2A0C DUP3 PUSH2 0x1E59 SWAP7 SWAP5 PUSH2 0x2919 PUSH2 0x2913 PUSH2 0x290D PUSH1 0x49 SWAP10 SWAP8 PUSH2 0x3033 JUMP JUMPDEST SWAP11 PUSH2 0x3033 JUMP JUMPDEST SWAP3 PUSH2 0x3033 JUMP JUMPDEST SWAP2 PUSH1 0x40 MLOAD SWAP10 DUP11 SWAP8 PUSH1 0x2A PUSH2 0x2949 DUP11 PUSH1 0x20 SWAP10 PUSH10 0x3C7061746820643D224D PUSH1 0xB0 SHL DUP12 DUP4 ADD MSTORE DUP11 DUP2 MLOAD SWAP5 DUP6 SWAP4 ADD SWAP2 ADD PUSH2 0x1C18 JUMP JUMPDEST DUP10 ADD SWAP4 PUSH1 0x1 PUSH1 0xFD SHL SWAP5 DUP6 PUSH1 0x2A DUP3 ADD MSTORE PUSH2 0x296B DUP3 MLOAD DUP1 SWAP4 DUP12 PUSH1 0x2B DUP6 ADD SWAP2 ADD PUSH2 0x1C18 JUMP JUMPDEST ADD PUSH12 0x10209C101C1018101810189 PUSH1 0xA5 SHL PUSH1 0x2B DUP3 ADD MSTORE PUSH2 0x2994 DUP3 MLOAD DUP1 SWAP4 DUP11 PUSH1 0x37 DUP6 ADD SWAP2 ADD PUSH2 0x1C18 JUMP JUMPDEST ADD DUP4 PUSH1 0x37 DUP3 ADD MSTORE PUSH2 0x29AE DUP3 MLOAD DUP1 SWAP4 DUP10 PUSH1 0x38 DUP6 ADD SWAP2 ADD PUSH2 0x1C18 JUMP JUMPDEST ADD PUSH2 0x813 PUSH1 0xF2 SHL PUSH1 0x38 DUP3 ADD MSTORE PUSH2 0x29CD DUP3 MLOAD DUP1 SWAP4 DUP9 PUSH1 0x3A DUP6 ADD SWAP2 ADD PUSH2 0x1C18 JUMP JUMPDEST ADD SWAP1 PUSH1 0x3A DUP3 ADD MSTORE PUSH2 0x29E7 DUP3 MLOAD DUP1 SWAP4 DUP7 PUSH1 0x3B DUP6 ADD SWAP2 ADD PUSH2 0x1C18 JUMP JUMPDEST ADD SWAP2 PUSH10 0x102D11103334B6361E91 PUSH1 0xB1 SHL PUSH1 0x3B DUP5 ADD MSTORE DUP4 MLOAD SWAP4 DUP5 SWAP2 PUSH1 0x45 DUP6 ADD SWAP2 ADD PUSH2 0x1C18 JUMP JUMPDEST ADD PUSH4 0x1110179F PUSH1 0xE1 SHL PUSH1 0x45 DUP3 ADD MSTORE SUB PUSH1 0x29 DUP2 ADD DUP5 MSTORE ADD DUP3 PUSH2 0x1D49 JUMP JUMPDEST PUSH1 0x11 SWAP1 PUSH4 0x4E487B71 PUSH1 0xE0 SHL PUSH1 0x0 MSTORE MSTORE PUSH1 0x24 PUSH1 0x0 REVERT JUMPDEST PUSH1 0x11 DUP7 PUSH4 0x4E487B71 PUSH1 0xE0 SHL PUSH1 0x0 MSTORE MSTORE PUSH1 0x24 PUSH1 0x0 REVERT JUMPDEST POP SWAP3 PUSH1 0x8 DUP2 ADD SWAP4 DUP5 DUP3 GT PUSH2 0x2B20 JUMPI PUSH2 0x2A69 DUP6 PUSH2 0x3033 JUMP JUMPDEST SWAP2 PUSH2 0x2A7C PUSH2 0x2A76 DUP4 PUSH2 0x3033 JUMP JUMPDEST SWAP2 PUSH2 0x3033 JUMP JUMPDEST SWAP5 PUSH1 0x8 DUP4 ADD DUP1 SWAP4 GT PUSH2 0x2A28 JUMPI POP SWAP2 PUSH2 0x2A0C DUP3 PUSH2 0x1E59 SWAP7 SWAP5 PUSH2 0x2AA5 PUSH2 0x2913 PUSH2 0x290D PUSH1 0x49 SWAP10 SWAP8 PUSH2 0x3033 JUMP JUMPDEST SWAP2 PUSH1 0x40 MLOAD SWAP10 DUP11 SWAP8 PUSH1 0x2A PUSH2 0x2AD5 DUP11 PUSH1 0x20 SWAP10 PUSH10 0x3C7061746820643D224D PUSH1 0xB0 SHL DUP12 DUP4 ADD MSTORE DUP11 DUP2 MLOAD SWAP5 DUP6 SWAP4 ADD SWAP2 ADD PUSH2 0x1C18 JUMP JUMPDEST DUP10 ADD SWAP4 PUSH1 0x1 PUSH1 0xFD SHL SWAP5 DUP6 PUSH1 0x2A DUP3 ADD MSTORE PUSH2 0x2AF7 DUP3 MLOAD DUP1 SWAP4 DUP12 PUSH1 0x2B DUP6 ADD SWAP2 ADD PUSH2 0x1C18 JUMP JUMPDEST ADD PUSH12 0x10209C101C1018101810181 PUSH1 0xA5 SHL PUSH1 0x2B DUP3 ADD MSTORE PUSH2 0x2994 DUP3 MLOAD DUP1 SWAP4 DUP11 PUSH1 0x37 DUP6 ADD SWAP2 ADD PUSH2 0x1C18 JUMP JUMPDEST PUSH1 0x11 DUP5 PUSH4 0x4E487B71 PUSH1 0xE0 SHL PUSH1 0x0 MSTORE MSTORE PUSH1 0x24 PUSH1 0x0 REVERT JUMPDEST POP PUSH2 0x2B3F DUP5 PUSH2 0x3033 JUMP JUMPDEST SWAP1 PUSH2 0x2B49 DUP2 PUSH2 0x3033 JUMP JUMPDEST PUSH1 0x8 DUP7 ADD DUP1 SWAP7 GT PUSH2 0x2B87 JUMPI PUSH2 0x2B5D DUP7 PUSH2 0x3033 JUMP JUMPDEST SWAP5 PUSH1 0x8 DUP4 ADD SWAP1 DUP2 DUP5 GT PUSH2 0x2A28 JUMPI POP PUSH1 0x49 SWAP5 SWAP3 PUSH2 0x1E59 SWAP7 SWAP5 SWAP3 PUSH2 0x2AA5 PUSH2 0x2913 PUSH2 0x290D PUSH2 0x2A0C SWAP6 PUSH2 0x3033 JUMP JUMPDEST PUSH1 0x11 DUP6 PUSH4 0x4E487B71 PUSH1 0xE0 SHL PUSH1 0x0 MSTORE MSTORE PUSH1 0x24 PUSH1 0x0 REVERT JUMPDEST POP PUSH2 0x2BA6 DUP5 PUSH2 0x3033 JUMP JUMPDEST SWAP1 PUSH1 0x8 DUP2 ADD DUP1 DUP3 GT PUSH2 0x2B87 JUMPI PUSH2 0x2BBB SWAP1 PUSH2 0x3033 JUMP JUMPDEST SWAP4 PUSH1 0x8 DUP7 ADD SWAP1 DUP2 DUP8 GT PUSH2 0x2A28 JUMPI POP SWAP2 PUSH2 0x2A0C PUSH1 0x49 SWAP5 SWAP3 PUSH2 0x2BDE PUSH2 0x1E59 SWAP8 SWAP6 PUSH2 0x3033 JUMP JUMPDEST SWAP5 PUSH2 0x2AA5 PUSH2 0x2913 PUSH2 0x290D DUP5 PUSH2 0x3033 JUMP JUMPDEST POP SWAP3 PUSH2 0x2BF9 DUP2 PUSH2 0x3033 JUMP JUMPDEST SWAP1 PUSH1 0x8 DUP6 ADD SWAP1 DUP2 DUP7 GT PUSH2 0x2B87 JUMPI PUSH2 0x2C0F DUP3 PUSH2 0x3033 JUMP JUMPDEST SWAP1 PUSH2 0x2C22 PUSH2 0x2C1C DUP3 PUSH2 0x3033 JUMP JUMPDEST SWAP8 PUSH2 0x3033 JUMP JUMPDEST SWAP6 PUSH1 0x8 DUP3 ADD DUP1 SWAP3 GT PUSH2 0x2A28 JUMPI POP PUSH1 0x3F SWAP5 SWAP3 PUSH2 0x1E59 SWAP7 SWAP5 SWAP3 PUSH2 0x2C48 PUSH2 0x2913 PUSH2 0x2D2F SWAP5 PUSH2 0x3033 JUMP JUMPDEST SWAP2 PUSH1 0x40 MLOAD SWAP10 DUP11 SWAP8 PUSH1 0x2A PUSH2 0x2C78 DUP11 PUSH1 0x20 SWAP10 PUSH10 0x3C7061746820643D224D PUSH1 0xB0 SHL DUP12 DUP4 ADD MSTORE DUP11 DUP2 MLOAD SWAP5 DUP6 SWAP4 ADD SWAP2 ADD PUSH2 0x1C18 JUMP JUMPDEST DUP10 ADD SWAP4 PUSH1 0x1 PUSH1 0xFD SHL SWAP5 DUP6 PUSH1 0x2A DUP3 ADD MSTORE PUSH2 0x2C9A DUP3 MLOAD DUP1 SWAP4 DUP12 PUSH1 0x2B DUP6 ADD SWAP2 ADD PUSH2 0x1C18 JUMP JUMPDEST ADD SWAP2 PUSH2 0x813 PUSH1 0xF2 SHL SWAP3 DUP4 PUSH1 0x2B DUP3 ADD MSTORE PUSH2 0x2CBC DUP3 MLOAD DUP1 SWAP4 DUP12 PUSH1 0x2D DUP6 ADD SWAP2 ADD PUSH2 0x1C18 JUMP JUMPDEST ADD DUP5 PUSH1 0x2D DUP3 ADD MSTORE PUSH2 0x2CD6 DUP3 MLOAD DUP1 SWAP4 DUP11 PUSH1 0x2E DUP6 ADD SWAP2 ADD PUSH2 0x1C18 JUMP JUMPDEST ADD SWAP1 PUSH1 0x2E DUP3 ADD MSTORE PUSH2 0x2CF0 DUP3 MLOAD DUP1 SWAP4 DUP9 PUSH1 0x30 DUP6 ADD SWAP2 ADD PUSH2 0x1C18 JUMP JUMPDEST ADD SWAP1 PUSH1 0x30 DUP3 ADD MSTORE PUSH2 0x2D0A DUP3 MLOAD DUP1 SWAP4 DUP7 PUSH1 0x31 DUP6 ADD SWAP2 ADD PUSH2 0x1C18 JUMP JUMPDEST ADD SWAP2 PUSH10 0x103D11103334B6361E91 PUSH1 0xB1 SHL PUSH1 0x31 DUP5 ADD MSTORE DUP4 MLOAD SWAP4 DUP5 SWAP2 PUSH1 0x3B DUP6 ADD SWAP2 ADD PUSH2 0x1C18 JUMP JUMPDEST ADD PUSH4 0x1110179F PUSH1 0xE1 SHL PUSH1 0x3B DUP3 ADD MSTORE SUB PUSH1 0x1F DUP2 ADD DUP5 MSTORE ADD DUP3 PUSH2 0x1D49 JUMP JUMPDEST POP SWAP3 SWAP2 PUSH1 0x8 DUP4 ADD SWAP1 DUP2 DUP5 GT PUSH2 0x2A28 JUMPI PUSH2 0x2D63 DUP3 PUSH2 0x3033 JUMP JUMPDEST SWAP2 PUSH1 0x8 DUP7 ADD SWAP2 DUP3 DUP8 GT PUSH2 0x2A28 JUMPI POP SWAP2 PUSH2 0x2D2F DUP3 PUSH2 0x1E59 SWAP7 SWAP5 PUSH2 0x2C48 PUSH2 0x2913 PUSH2 0x2C1C PUSH2 0x2D99 PUSH2 0x2D93 PUSH1 0x3F SWAP12 SWAP10 PUSH2 0x3033 JUMP JUMPDEST SWAP5 PUSH2 0x3033 JUMP JUMPDEST SWAP12 PUSH2 0x3033 JUMP JUMPDEST SWAP2 POP PUSH2 0x2DAA DUP4 PUSH2 0x3033 JUMP JUMPDEST SWAP3 PUSH2 0x2DB4 DUP4 PUSH2 0x3033 JUMP JUMPDEST SWAP2 PUSH1 0x8 DUP3 ADD DUP1 SWAP3 GT PUSH2 0x1CC9 JUMPI PUSH2 0x2DC9 DUP3 PUSH2 0x3033 JUMP JUMPDEST SWAP5 PUSH2 0x2DDC PUSH2 0x2DD6 DUP7 PUSH2 0x3033 JUMP JUMPDEST SWAP4 PUSH2 0x3033 JUMP JUMPDEST SWAP5 PUSH1 0x8 DUP2 ADD DUP1 SWAP2 GT PUSH2 0x1CC9 JUMPI PUSH2 0x1E59 SWAP6 PUSH1 0x3F SWAP6 PUSH2 0x2C48 PUSH2 0x2D2F SWAP4 PUSH2 0x3033 JUMP JUMPDEST SWAP2 POP PUSH2 0x2E06 DUP4 PUSH2 0x3033 JUMP JUMPDEST SWAP3 PUSH2 0x2E10 DUP4 PUSH2 0x3033 JUMP JUMPDEST SWAP2 PUSH1 0x8 DUP3 ADD DUP1 DUP4 GT PUSH2 0x1CC9 JUMPI PUSH2 0x2DC9 SWAP1 PUSH2 0x3033 JUMP JUMPDEST SWAP2 POP SWAP2 PUSH1 0x4 DUP2 ADD DUP1 SWAP2 GT PUSH2 0x1CC9 JUMPI PUSH2 0x2E3C SWAP1 PUSH2 0x3033 JUMP JUMPDEST SWAP1 PUSH1 0x4 DUP2 ADD DUP1 SWAP2 GT PUSH2 0x1CC9 JUMPI PUSH2 0x1E59 SWAP2 PUSH2 0x2E57 PUSH1 0x44 SWAP3 PUSH2 0x3033 JUMP JUMPDEST SWAP4 PUSH1 0x40 MLOAD SWAP5 DUP6 SWAP3 PUSH12 0x1E31B4B931B6329031BC1E91 PUSH1 0xA1 SHL PUSH1 0x20 DUP6 ADD MSTORE PUSH2 0x2E87 DUP2 MLOAD DUP1 SWAP3 PUSH1 0x20 PUSH1 0x2C DUP9 ADD SWAP2 ADD PUSH2 0x1C18 JUMP JUMPDEST DUP4 ADD PUSH6 0x111031BC9E91 PUSH1 0xD1 SHL PUSH1 0x2C DUP3 ADD MSTORE PUSH2 0x2EAC DUP3 MLOAD DUP1 SWAP4 PUSH1 0x20 PUSH1 0x32 DUP6 ADD SWAP2 ADD PUSH2 0x1C18 JUMP JUMPDEST ADD PUSH14 0x1110391E911A11103334B6361E91 PUSH1 0x91 SHL PUSH1 0x32 DUP3 ADD MSTORE PUSH2 0x2ED8 DUP3 MLOAD DUP1 SWAP4 PUSH1 0x20 PUSH1 0x40 DUP6 ADD SWAP2 ADD PUSH2 0x1C18 JUMP JUMPDEST ADD PUSH4 0x1110179F PUSH1 0xE1 SHL PUSH1 0x40 DUP3 ADD MSTORE SUB PUSH1 0x24 DUP2 ADD DUP5 MSTORE ADD DUP3 PUSH2 0x1D49 JUMP JUMPDEST PUSH2 0x1E59 SWAP3 POP PUSH2 0x2F08 PUSH2 0x2A76 PUSH1 0x4F SWAP4 SWAP6 PUSH2 0x3033 JUMP JUMPDEST SWAP4 PUSH1 0x40 MLOAD SWAP5 DUP6 SWAP3 PUSH9 0x1E3932B1BA103C1E91 PUSH1 0xB9 SHL PUSH1 0x20 DUP6 ADD MSTORE PUSH2 0x2F35 DUP2 MLOAD DUP1 SWAP3 PUSH1 0x20 PUSH1 0x29 DUP9 ADD SWAP2 ADD PUSH2 0x1C18 JUMP JUMPDEST DUP4 ADD PUSH5 0x11103C9E91 PUSH1 0xD9 SHL PUSH1 0x29 DUP3 ADD MSTORE PUSH2 0x2F59 DUP3 MLOAD DUP1 SWAP4 PUSH1 0x20 PUSH1 0x2E DUP6 ADD SWAP2 ADD PUSH2 0x1C18 JUMP JUMPDEST ADD PUSH32 0x222077696474683D223822206865696768743D2238222066696C6C3D22000000 PUSH1 0x2E DUP3 ADD MSTORE PUSH2 0x2F94 DUP3 MLOAD DUP1 SWAP4 PUSH1 0x20 PUSH1 0x4B DUP6 ADD SWAP2 ADD PUSH2 0x1C18 JUMP JUMPDEST ADD PUSH4 0x1110179F PUSH1 0xE1 SHL PUSH1 0x4B DUP3 ADD MSTORE SUB PUSH1 0x2F DUP2 ADD DUP5 MSTORE ADD DUP3 PUSH2 0x1D49 JUMP JUMPDEST PUSH1 0x0 SWAP3 SWAP2 DUP2 SLOAD PUSH2 0x2FBF DUP2 PUSH2 0x1E5C JUMP JUMPDEST SWAP3 PUSH1 0x1 SWAP2 DUP1 DUP4 AND SWAP1 DUP2 ISZERO PUSH2 0x3018 JUMPI POP PUSH1 0x1 EQ PUSH2 0x2FDC JUMPI JUMPDEST POP POP POP POP JUMP JUMPDEST SWAP1 SWAP2 SWAP3 SWAP4 SWAP5 POP PUSH1 0x0 MSTORE PUSH1 0x20 SWAP1 DUP2 PUSH1 0x0 KECCAK256 SWAP1 PUSH1 0x0 SWAP2 JUMPDEST DUP6 DUP4 LT PUSH2 0x3007 JUMPI POP POP POP POP ADD SWAP1 CODESIZE DUP1 DUP1 DUP1 PUSH2 0x2FD6 JUMP JUMPDEST DUP1 SLOAD DUP6 DUP5 ADD MSTORE SWAP2 DUP4 ADD SWAP2 DUP2 ADD PUSH2 0x2FF1 JUMP JUMPDEST PUSH1 0xFF NOT AND DUP5 MSTORE POP POP POP DUP2 ISZERO ISZERO SWAP1 SWAP2 MUL ADD SWAP2 POP CODESIZE DUP1 DUP1 DUP1 PUSH2 0x2FD6 JUMP JUMPDEST DUP1 ISZERO PUSH2 0x30F5 JUMPI DUP1 DUP2 PUSH1 0x0 SWAP3 JUMPDEST PUSH2 0x30E1 JUMPI POP PUSH2 0x304D DUP3 PUSH2 0x1D81 JUMP JUMPDEST SWAP2 PUSH2 0x305B PUSH1 0x40 MLOAD SWAP4 DUP5 PUSH2 0x1D49 JUMP JUMPDEST DUP1 DUP4 MSTORE DUP2 PUSH1 0x1F NOT PUSH2 0x306B DUP4 PUSH2 0x1D81 JUMP JUMPDEST ADD SWAP2 PUSH1 0x20 SWAP3 CALLDATASIZE DUP5 DUP8 ADD CALLDATACOPY SWAP3 JUMPDEST PUSH2 0x3081 JUMPI POP POP POP SWAP1 JUMP JUMPDEST PUSH1 0x0 NOT DUP4 ADD SWAP3 DUP4 GT PUSH2 0x1CC9 JUMPI DUP3 PUSH1 0xA DUP1 DUP4 DIV SWAP3 DUP2 DUP5 MUL SWAP2 DUP5 DUP4 DIV EQ DUP5 ISZERO OR ISZERO PUSH2 0x1CC9 JUMPI PUSH2 0x30B1 PUSH1 0xFF SWAP3 DUP4 SWAP3 PUSH2 0x20C8 JUMP JUMPDEST AND PUSH1 0x30 ADD SWAP1 DUP2 GT PUSH2 0x1CC9 JUMPI DUP6 MLOAD DUP3 LT ISZERO PUSH2 0x1F5F JUMPI PUSH1 0xF8 SHL PUSH1 0x1 PUSH1 0x1 PUSH1 0xF8 SHL SUB NOT AND PUSH1 0x0 BYTE SWAP1 DUP6 ADD DUP4 ADD MSTORE8 DUP1 PUSH2 0x3077 JUMP JUMPDEST SWAP2 PUSH2 0x30ED PUSH1 0xA SWAP2 PUSH2 0x1F3C JUMP JUMPDEST SWAP3 DIV DUP1 PUSH2 0x303F JUMP JUMPDEST POP PUSH1 0x40 MLOAD PUSH1 0x40 DUP2 ADD DUP2 DUP2 LT PUSH1 0x1 PUSH1 0x1 PUSH1 0x40 SHL SUB DUP3 GT OR PUSH2 0x1D18 JUMPI PUSH1 0x40 MSTORE PUSH1 0x1 DUP2 MSTORE PUSH1 0x3 PUSH1 0xFC SHL PUSH1 0x20 DUP3 ADD MSTORE SWAP1 JUMP INVALID LOG2 PUSH5 0x6970667358 0x22 SLT KECCAK256 PUSH3 0x91E0A6 MULMOD CALLVALUE 0x4B 0x4F INVALID SWAP12 PUSH17 0x484DF1655A47D03A5B18C6573C58BFE850 SLOAD PUSH27 0x848264736F6C634300081400330000000000000000000000000000 "},"methodIdentifiers":{"ARTISTIC_PERIOD()":"3323a706","CYCLE_PERIOD()":"113bc999","VOTING_PERIOD()":"b1610d7e","balanceOf(address)":"70a08231","buyPixel(uint256[],uint256[])":"6ed958f1","calculateRoyalties(uint256,uint256)":"d08629c1","canvasCreation()":"ff188dca","castVote(bool)":"7ace48e7","checkMultiplePixel(uint256[],uint256[])":"c7eab2ec","checkPixel(uint256,uint256)":"040cdfd8","checkVoteOutcome()":"fe91f6eb","fillPixel(bytes[])":"3bdb693e","generateSVG()":"ad711e9e","getBalance(address)":"f8b2cb4f","getCurrentCycle()":"be26ed7f","hasVoted(address)":"09eef43e","isInArtisticPeriod()":"4882a7ea","isInVotingPeriod()":"b3a1ddf4","manager()":"481c6a75","maxHeight()":"63aa5ce2","maxWidth()":"6006ecc8","nftContract()":"d56d229d","payRoyalties(uint256[],uint256[])":"e50eb5da","pixelSVGs(uint256)":"c4e4b90c","rowSVGs(uint256)":"e1245900","royaltyAskPeriod()":"6e70fcc6","royaltyDenominator()":"fd8d7ed3","royaltyRate()":"c4d1510d","seekRoyaltyPayment(uint256,uint256,uint256)":"85a9473d","setNFTContract(address)":"a7ccabdf","setPixelValue(uint256[],uint256[],uint256[])":"8232b562","updateCurrency(address)":"5e027601","voteRegister(uint256)":"30b5d6d3","window(uint256,uint256)":"c730e65d"}}}}}