{
  "_format": "hh-sol-artifact-1",
  "contractName": "Pixelmap",
  "sourceName": "contracts/Pixelmap.sol",
  "abi": [
    {
      "inputs": [],
      "stateMutability": "nonpayable",
      "type": "constructor"
    },
    {
      "anonymous": false,
      "inputs": [
        {
          "indexed": true,
          "internalType": "uint256",
          "name": "x",
          "type": "uint256"
        },
        {
          "indexed": true,
          "internalType": "uint256",
          "name": "y",
          "type": "uint256"
        }
      ],
      "name": "PixelBought",
      "type": "event"
    },
    {
      "anonymous": false,
      "inputs": [
        {
          "indexed": true,
          "internalType": "uint256",
          "name": "x",
          "type": "uint256"
        },
        {
          "indexed": true,
          "internalType": "uint256",
          "name": "y",
          "type": "uint256"
        }
      ],
      "name": "PixelFilled",
      "type": "event"
    },
    {
      "anonymous": false,
      "inputs": [
        {
          "indexed": true,
          "internalType": "uint256",
          "name": "x",
          "type": "uint256"
        },
        {
          "indexed": true,
          "internalType": "uint256",
          "name": "y",
          "type": "uint256"
        }
      ],
      "name": "PixelValueSet",
      "type": "event"
    },
    {
      "anonymous": false,
      "inputs": [
        {
          "indexed": true,
          "internalType": "uint256",
          "name": "x",
          "type": "uint256"
        },
        {
          "indexed": true,
          "internalType": "uint256",
          "name": "y",
          "type": "uint256"
        }
      ],
      "name": "RoyaltiesPaid",
      "type": "event"
    },
    {
      "anonymous": false,
      "inputs": [
        {
          "indexed": true,
          "internalType": "address",
          "name": "owner",
          "type": "address"
        }
      ],
      "name": "VoteCasted",
      "type": "event"
    },
    {
      "inputs": [],
      "name": "ARTISTIC_PERIOD",
      "outputs": [
        {
          "internalType": "uint256",
          "name": "",
          "type": "uint256"
        }
      ],
      "stateMutability": "view",
      "type": "function"
    },
    {
      "inputs": [],
      "name": "CYCLE_PERIOD",
      "outputs": [
        {
          "internalType": "uint256",
          "name": "",
          "type": "uint256"
        }
      ],
      "stateMutability": "view",
      "type": "function"
    },
    {
      "inputs": [],
      "name": "VOTING_PERIOD",
      "outputs": [
        {
          "internalType": "uint256",
          "name": "",
          "type": "uint256"
        }
      ],
      "stateMutability": "view",
      "type": "function"
    },
    {
      "inputs": [
        {
          "internalType": "address",
          "name": "",
          "type": "address"
        }
      ],
      "name": "balanceOf",
      "outputs": [
        {
          "internalType": "uint256",
          "name": "",
          "type": "uint256"
        }
      ],
      "stateMutability": "view",
      "type": "function"
    },
    {
      "inputs": [
        {
          "internalType": "uint256[]",
          "name": "xValues",
          "type": "uint256[]"
        },
        {
          "internalType": "uint256[]",
          "name": "yValues",
          "type": "uint256[]"
        }
      ],
      "name": "buyPixel",
      "outputs": [],
      "stateMutability": "nonpayable",
      "type": "function"
    },
    {
      "inputs": [
        {
          "internalType": "uint256",
          "name": "x",
          "type": "uint256"
        },
        {
          "internalType": "uint256",
          "name": "y",
          "type": "uint256"
        }
      ],
      "name": "calculateRoyalties",
      "outputs": [
        {
          "internalType": "uint256",
          "name": "",
          "type": "uint256"
        }
      ],
      "stateMutability": "view",
      "type": "function"
    },
    {
      "inputs": [],
      "name": "canvasCreation",
      "outputs": [
        {
          "internalType": "uint256",
          "name": "",
          "type": "uint256"
        }
      ],
      "stateMutability": "view",
      "type": "function"
    },
    {
      "inputs": [
        {
          "internalType": "bool",
          "name": "vote",
          "type": "bool"
        }
      ],
      "name": "castVote",
      "outputs": [],
      "stateMutability": "nonpayable",
      "type": "function"
    },
    {
      "inputs": [
        {
          "internalType": "uint256[]",
          "name": "xValues",
          "type": "uint256[]"
        },
        {
          "internalType": "uint256[]",
          "name": "yValues",
          "type": "uint256[]"
        }
      ],
      "name": "checkMultiplePixel",
      "outputs": [
        {
          "components": [
            {
              "internalType": "address",
              "name": "owner",
              "type": "address"
            },
            {
              "internalType": "uint256",
              "name": "shapeID",
              "type": "uint256"
            },
            {
              "internalType": "uint256",
              "name": "price",
              "type": "uint256"
            },
            {
              "internalType": "string",
              "name": "color",
              "type": "string"
            },
            {
              "internalType": "uint256",
              "name": "royaltyLastPaid",
              "type": "uint256"
            },
            {
              "internalType": "bool",
              "name": "askedToPayRoyalties",
              "type": "bool"
            },
            {
              "internalType": "uint256",
              "name": "royaltyAskDate",
              "type": "uint256"
            }
          ],
          "internalType": "struct Pixelmap.Pixel[]",
          "name": "",
          "type": "tuple[]"
        }
      ],
      "stateMutability": "view",
      "type": "function"
    },
    {
      "inputs": [
        {
          "internalType": "uint256",
          "name": "x",
          "type": "uint256"
        },
        {
          "internalType": "uint256",
          "name": "y",
          "type": "uint256"
        }
      ],
      "name": "checkPixel",
      "outputs": [
        {
          "components": [
            {
              "internalType": "address",
              "name": "owner",
              "type": "address"
            },
            {
              "internalType": "uint256",
              "name": "shapeID",
              "type": "uint256"
            },
            {
              "internalType": "uint256",
              "name": "price",
              "type": "uint256"
            },
            {
              "internalType": "string",
              "name": "color",
              "type": "string"
            },
            {
              "internalType": "uint256",
              "name": "royaltyLastPaid",
              "type": "uint256"
            },
            {
              "internalType": "bool",
              "name": "askedToPayRoyalties",
              "type": "bool"
            },
            {
              "internalType": "uint256",
              "name": "royaltyAskDate",
              "type": "uint256"
            }
          ],
          "internalType": "struct Pixelmap.Pixel",
          "name": "",
          "type": "tuple"
        }
      ],
      "stateMutability": "view",
      "type": "function"
    },
    {
      "inputs": [],
      "name": "checkVoteOutcome",
      "outputs": [
        {
          "internalType": "bool",
          "name": "",
          "type": "bool"
        }
      ],
      "stateMutability": "view",
      "type": "function"
    },
    {
      "inputs": [
        {
          "internalType": "bytes[]",
          "name": "_pixels",
          "type": "bytes[]"
        }
      ],
      "name": "fillPixel",
      "outputs": [],
      "stateMutability": "nonpayable",
      "type": "function"
    },
    {
      "inputs": [],
      "name": "generateSVG",
      "outputs": [
        {
          "internalType": "string",
          "name": "",
          "type": "string"
        }
      ],
      "stateMutability": "view",
      "type": "function"
    },
    {
      "inputs": [
        {
          "internalType": "address",
          "name": "_owner",
          "type": "address"
        }
      ],
      "name": "getBalance",
      "outputs": [
        {
          "internalType": "uint256",
          "name": "",
          "type": "uint256"
        }
      ],
      "stateMutability": "view",
      "type": "function"
    },
    {
      "inputs": [],
      "name": "getCurrentCycle",
      "outputs": [
        {
          "internalType": "uint256",
          "name": "",
          "type": "uint256"
        }
      ],
      "stateMutability": "view",
      "type": "function"
    },
    {
      "inputs": [
        {
          "internalType": "address",
          "name": "_owner",
          "type": "address"
        }
      ],
      "name": "hasVoted",
      "outputs": [
        {
          "internalType": "bool",
          "name": "",
          "type": "bool"
        }
      ],
      "stateMutability": "view",
      "type": "function"
    },
    {
      "inputs": [],
      "name": "isInArtisticPeriod",
      "outputs": [
        {
          "internalType": "bool",
          "name": "",
          "type": "bool"
        }
      ],
      "stateMutability": "view",
      "type": "function"
    },
    {
      "inputs": [],
      "name": "isInVotingPeriod",
      "outputs": [
        {
          "internalType": "bool",
          "name": "",
          "type": "bool"
        }
      ],
      "stateMutability": "view",
      "type": "function"
    },
    {
      "inputs": [],
      "name": "manager",
      "outputs": [
        {
          "internalType": "address",
          "name": "",
          "type": "address"
        }
      ],
      "stateMutability": "view",
      "type": "function"
    },
    {
      "inputs": [],
      "name": "maxHeight",
      "outputs": [
        {
          "internalType": "uint256",
          "name": "",
          "type": "uint256"
        }
      ],
      "stateMutability": "view",
      "type": "function"
    },
    {
      "inputs": [],
      "name": "maxWidth",
      "outputs": [
        {
          "internalType": "uint256",
          "name": "",
          "type": "uint256"
        }
      ],
      "stateMutability": "view",
      "type": "function"
    },
    {
      "inputs": [
        {
          "internalType": "uint256[]",
          "name": "xValues",
          "type": "uint256[]"
        },
        {
          "internalType": "uint256[]",
          "name": "yValues",
          "type": "uint256[]"
        }
      ],
      "name": "payRoyalties",
      "outputs": [],
      "stateMutability": "nonpayable",
      "type": "function"
    },
    {
      "inputs": [
        {
          "internalType": "uint256",
          "name": "",
          "type": "uint256"
        }
      ],
      "name": "pixelSVGs",
      "outputs": [
        {
          "internalType": "string",
          "name": "",
          "type": "string"
        }
      ],
      "stateMutability": "view",
      "type": "function"
    },
    {
      "inputs": [
        {
          "internalType": "uint256",
          "name": "",
          "type": "uint256"
        }
      ],
      "name": "rowSVGs",
      "outputs": [
        {
          "internalType": "string",
          "name": "",
          "type": "string"
        }
      ],
      "stateMutability": "view",
      "type": "function"
    },
    {
      "inputs": [],
      "name": "royaltyAskPeriod",
      "outputs": [
        {
          "internalType": "uint256",
          "name": "",
          "type": "uint256"
        }
      ],
      "stateMutability": "view",
      "type": "function"
    },
    {
      "inputs": [],
      "name": "royaltyDenominator",
      "outputs": [
        {
          "internalType": "uint256",
          "name": "",
          "type": "uint256"
        }
      ],
      "stateMutability": "view",
      "type": "function"
    },
    {
      "inputs": [],
      "name": "royaltyRate",
      "outputs": [
        {
          "internalType": "uint256",
          "name": "",
          "type": "uint256"
        }
      ],
      "stateMutability": "view",
      "type": "function"
    },
    {
      "inputs": [
        {
          "internalType": "uint256",
          "name": "x",
          "type": "uint256"
        },
        {
          "internalType": "uint256",
          "name": "y",
          "type": "uint256"
        },
        {
          "internalType": "uint256",
          "name": "_price",
          "type": "uint256"
        }
      ],
      "name": "seekRoyaltyPayment",
      "outputs": [],
      "stateMutability": "nonpayable",
      "type": "function"
    },
    {
      "inputs": [
        {
          "internalType": "uint256[]",
          "name": "xValues",
          "type": "uint256[]"
        },
        {
          "internalType": "uint256[]",
          "name": "yValues",
          "type": "uint256[]"
        },
        {
          "internalType": "uint256[]",
          "name": "priceValues",
          "type": "uint256[]"
        }
      ],
      "name": "setPixelValue",
      "outputs": [],
      "stateMutability": "nonpayable",
      "type": "function"
    },
    {
      "inputs": [
        {
          "internalType": "address",
          "name": "_newToken",
          "type": "address"
        }
      ],
      "name": "updateCurrency",
      "outputs": [],
      "stateMutability": "nonpayable",
      "type": "function"
    },
    {
      "inputs": [
        {
          "internalType": "uint256",
          "name": "",
          "type": "uint256"
        }
      ],
      "name": "voteRegister",
      "outputs": [
        {
          "internalType": "uint256",
          "name": "yesVotes",
          "type": "uint256"
        },
        {
          "internalType": "uint256",
          "name": "noVotes",
          "type": "uint256"
        }
      ],
      "stateMutability": "view",
      "type": "function"
    },
    {
      "inputs": [
        {
          "internalType": "uint256",
          "name": "",
          "type": "uint256"
        },
        {
          "internalType": "uint256",
          "name": "",
          "type": "uint256"
        }
      ],
      "name": "window",
      "outputs": [
        {
          "internalType": "address",
          "name": "owner",
          "type": "address"
        },
        {
          "internalType": "uint256",
          "name": "shapeID",
          "type": "uint256"
        },
        {
          "internalType": "uint256",
          "name": "price",
          "type": "uint256"
        },
        {
          "internalType": "string",
          "name": "color",
          "type": "string"
        },
        {
          "internalType": "uint256",
          "name": "royaltyLastPaid",
          "type": "uint256"
        },
        {
          "internalType": "bool",
          "name": "askedToPayRoyalties",
          "type": "bool"
        },
        {
          "internalType": "uint256",
          "name": "royaltyAskDate",
          "type": "uint256"
        }
      ],
      "stateMutability": "view",
      "type": "function"
    }
  ],
  "bytecode": "0x6080806040523461004f57603260015560018060a01b031973c02aaa39b223fe8d0a0e5c4f27ead9083c756cc28160035416176003553390600054161760005542600255612fbe90816100558239f35b600080fdfe6080604052600436101561001257600080fd5b60003560e01c8063040cdfd814611a7557806309eef43e14611a11578063113bc999146119f357806330b5d6d3146119bd5780633323a706146113bb5780633bdb693e1461146b578063481c6a75146114425780634882a7ea146114115780635e027601146113c55780636006ecc8146113c057806363aa5ce2146113c05780636e70fcc6146113bb5780636ed958f114610cc057806370a08231146102755780637ace48e714610ac15780638232b5621461084657806385a9473d146106fd578063ad711e9e146105a3578063b1610d7e14610585578063b3a1ddf414610553578063be26ed7f14610527578063c4d1510d14610509578063c4e4b90c146104dc578063c730e65d14610442578063c7eab2ec14610333578063d08629c114610312578063e1245900146102cd578063e50eb5da146102b4578063f8b2cb4f14610275578063fd8d7ed314610258578063fe91f6eb1461019f5763ff188dca1461017c57600080fd5b3461019a57600036600319011261019a576020600254604051908152f35b600080fd5b3461019a57600036600319011261019a5760025462054600806101c28342611f27565b04600052611046806020526101f8604060002054836101e18642611f27565b046000528260205260016040600020015490611b5d565b9182156102235761020b60209442611f27565b0460005282526040600020546040519160011c108152f35b60405162461bcd60e51b815260206004820152600d60248201526c139bc81d9bdd195cc818d85cdd609a1b6044820152606490fd5b3461019a57600036600319011261019a5760206040516103e88152f35b3461019a57602036600319011261019a576004356001600160a01b0381169081900361019a576000526110456020526020604060002054604051908152f35b3461019a576102cb6102c536611c8b565b90611fce565b005b3461019a57602036600319011261019a57600435604081101561019a576102fa61030e9161100501611d0b565b604051918291602083526020830190611adc565b0390f35b3461019a57602061032b61032536611aa3565b90612653565b604051908152f35b3461019a5761034136611c8b565b61034e8251825114611f34565b81519061035a82611bdf565b926103686040519485611bbe565b828452601f1961037784611bdf565b0160005b81811061042b57505060005b8381106103ed576040805160208082528751818301819052600093600582901b8401810192808b01929185015b8287106103c15785850386f35b9091929382806103dd600193603f198a82030186528851611b01565b96019201960195929190926103b4565b8061040f6103fd60019385611dc0565b516104088387611dc0565b519061257c565b6104198288611dc0565b526104248187611dc0565b5001610387565b602090610436612544565b8282890101520161037b565b3461019a5761045036611aa3565b906000526004602052604060002090600052602052604060002060018060a01b03815416600182015491600281015461048b60038301611d0b565b916104c6600482015493600660ff6005850154169301549360405197889788526020880152604087015260e0606087015260e0860190611adc565b926080850152151560a084015260c08301520390f35b3461019a57602036600319011261019a5760043561100081101561019a576102fa61030e91600501611d0b565b3461019a57600036600319011261019a576020600154604051908152f35b3461019a57600036600319011261019a5760206205460061054a60025442611f27565b04604051908152f35b3461019a57600036600319011261019a5760206203f4806205460061057a60025442611f27565b061015604051908152f35b3461019a57600036600319011261019a576020604051620151808152f35b3461019a57600036600319011261019a57604051608081018181106001600160401b038211176106e757604052605781526020907f3c7376672077696474683d2236303022206865696768743d2236303022207669828201527f6577426f783d2230203020363030203630302220786d6c6e733d22687474703a6040820152761797bbbbbb973b999737b933979918181817b9bb33911f60491b60608201529060005b6040811061069d575061068960266040518461066b8296518092878086019101611ab9565b8101651e17b9bb339f60d11b85820152036006810185520183611bbe565b61030e604051928284938452830190611adc565b91816106dc6106e2926106ce60405193826106c18694518092848088019101611ab9565b8301018761100501612e0d565b03601f198101835282611bbe565b92611db1565b610646565b634e487b7160e01b600052604160045260246000fd5b3461019a57606036600319011261019a576004356024359061072a60018060a01b036000541633146124e3565b8060005260209060048252604060002083600052825260ff60056040600020015416806107ff575b156107b9578060005260048252604060002083600052825260443560026040600020015580600052600482526040600020836000528252600560406000200160ff198154169055600052600481526040600020916000525260006006604082200155600080f35b806000526004825260406000208360005282526005604060002001600160ff19825416179055600052600481526040600020916000525242600660406000200155600080f35b50806000526004825260406000208360005282526006604060002001546203f4808101809111610830574211610752565b634e487b7160e01b600052601160045260246000fd5b3461019a57606036600319011261019a576001600160401b0360043581811161019a57610877903690600401611c2d565b90602491823582811161019a57610892903690600401611c2d565b90604492833590811161019a576108ad903690600401611c2d565b938151835181149081610ab6575b5015610a635781519360005b858110610969575050506108db8282611fce565b60005b8381106108e757005b806108f460019287611dc0565b516108ff8285611dc0565b516000526020600481526040600020906109198488611dc0565b51600052526002604060002001556109318184611dc0565b5161093c8286611dc0565b51907f1c362b7fc7c4865e1e7ede89f240549bbd8b5ee43b51383c9c0392687d6d10ec600080a3016108de565b6109738185611dc0565b5160406109808388611dc0565b51911090811591610a57575b50610a195761099b8185611dc0565b5160005260206004815260406000206109b48388611dc0565b5160005281523360018060a01b0360406000205416036109d757506001016108c7565b6064907f6f6e6c79206f776e65722063616e2073657420706978656c2076616c7565000084601e876040519462461bcd60e51b86526004860152840152820152fd5b60405162461bcd60e51b815260206004820152601881850152774120706978656c206973206f7574206f6620626f756e647360401b81840152606490fd5b6040915010158861098c565b6084907f696e70757420617272617973206d757374206265206f66207468652073616d658560276040519362461bcd60e51b85526020600486015284015282015266040d8cadccee8d60cb1b6064820152fd5b9050855114866108bb565b3461019a5760208060031936011261019a57600435801515810361019a5760025462054600906203f48082610af68342611f27565b0610610c7f57336000526110458452604060002054908115610c2a5782610b1d8242611f27565b0460005261104693848652600260406000200133600052865260ff60406000205416610bf55783919015610bca5750610b5860025442611f27565b04600052828452610b6f6040600020918254611b5d565b90555b610b7e60025442611f27565b04600052815260026040600020019033600052526040600020600160ff19825416179055337f7ce969a18bb6b0fba42c6d9746e7d08eeca4c661809659c91d276456e3153ac0600080a2005b610bd49042611f27565b04600052828452610bee6001604060002001918254611b5d565b9055610b72565b60405162461bcd60e51b815260048101879052600d60248201526c185b1c9958591e481d9bdd1959609a1b6044820152606490fd5b60405162461bcd60e51b815260048101869052602760248201527f6e6f20706978656c73206f776e6564203d206e6f20766f74657320746f2062656044820152660818d85cdd195960ca1b6064820152608490fd5b60405162461bcd60e51b81526004810185905260196024820152782b37ba34b7339031bab93932b73a363c903737ba1037b832b760391b6044820152606490fd5b3461019a57610cce36611c8b565b610cdb8251825114611f34565b81519060005b828110610cea57005b610cf48185611dc0565b516040610d018385611dc0565b519110908115916113af575b5061139257610d1c8185611dc0565b5160005260046020526040600020610d348284611dc0565b5160005260205260018060a01b036040600020541615600014610df257610d5b8185611dc0565b5160005260046020526040600020610d738284611dc0565b5160005260205260406000203360018060a01b03198254161790553360005261104560205260406000209081546001810180911161083057600192555b610dba8186611dc0565b51610dc58285611dc0565b51907fee0e9a85d097f632450e6ac08750207c8f039246ee437b10eaf708b397d00ad8600080a301610ce1565b610e11610dff8286611dc0565b51610e0a8385611dc0565b5190612653565b610e1b8286611dc0565b5160005260046020526040600020610e338385611dc0565b5160005260205280600260406000200154116000146111f957610e568286611dc0565b5160005260046020526040600020610e6e8385611dc0565b51600052602052610e8781600260406000200154611f27565b6003546040516370a0823160e01b81523360048201526024936001600160a01b039092169291906020818681875afa8015611162576000906111c5575b610f019150610ed3878b611dc0565b5160005260046020526040600020610eeb888a611dc0565b5160005260205260026040600020015410612433565b604051636eb1769f60e11b815233600482015230602482015292602084604481845afa9384156111625789879160009661118b575b5091610f76600096610f4d610fcb94602096611dc0565b5188526004855260408820610f628b8d611dc0565b51895285526002604089200154111561248b565b610f80888c611dc0565b5186526004835260408620610f95898b611dc0565b518752835260408087205490516323b872dd60e01b80825290979096889485938492906001600160a01b03163360048501611fac565b03925af1918215611162576110119360209361116e575b5060035460008054604051938452929586946001600160a01b0393841694869485939291163360048501611fac565b03925af1801561116257611133575b5061102b8286611dc0565b51600052600460205260406000206110438385611dc0565b5160005260205260018060a01b0360406000205416600052611045806020526040600020805490600019820191821161111e57553360005260205260406000208054916001830180931161110a5750556001906110a08186611dc0565b51600052600460205260406000206110b88285611dc0565b51600052602052604060002033838060a01b03198254161790556110dc8186611dc0565b51600052600460205260406000206110f48285611dc0565b5160005260205242600460406000200155610db0565b634e487b7160e01b60009081526011600452fd5b83634e487b7160e01b60005260116004526000fd5b6111549060203d60201161115b575b61114c8183611bbe565b810190611f94565b5085611020565b503d611142565b6040513d6000823e3d90fd5b61118490843d861161115b5761114c8183611bbe565b5089610fe2565b955050506020843d6020116111bd575b816111a860209383611bbe565b8101031261019a579251928589610f76610f36565b3d915061119b565b506020813d6020116111f1575b816111df60209383611bbe565b8101031261019a57610f019051610ec4565b3d91506111d2565b506003546040516370a0823160e01b81523360048201526024916001600160a01b0316906020818481855afa80156111625760009061135e575b61125a91506112428589611dc0565b5160005260046020526040600020610eeb8688611dc0565b604051636eb1769f60e11b8152336004820152306024820152602081604481855afa9081156111625760009161132a575b50611011916112cd6020926112a0878b611dc0565b516000526004845260406000206112b7888a611dc0565b516000528452600260406000200154111561248b565b6000546001600160a01b0316906112e4868a611dc0565b516000526004835260406000206112fb8789611dc0565b5160005283526002604060002001549160006040518096819582946323b872dd60e01b84523360048501611fac565b90506020813d602011611356575b8161134560209383611bbe565b8101031261019a575161101161128b565b3d9150611338565b506020813d60201161138a575b8161137860209383611bbe565b8101031261019a5761125a9051611233565b3d915061136b565b60405162461bcd60e51b8152806113ab60048201611dd4565b0390fd5b60409150101585610d0d565b611b6a565b611c11565b3461019a57602036600319011261019a576004356001600160a01b038181169182900361019a576113fb906000541633146124e3565b600380546001600160a01b031916919091179055005b3461019a57600036600319011261019a5760206203f4806205460061143860025442611f27565b0610604051908152f35b3461019a57600036600319011261019a576000546040516001600160a01b039091168152602090f35b3461019a57602036600319011261019a576004356001600160401b03811161019a573660238201121561019a5780600401356114a681611bdf565b916114b46040519384611bbe565b8183526024602084019260051b8201019036821161019a5760248101925b82841061195357846203f480620546006114ee60025442611f27565b0610156119035780516040519161082083018381106001600160401b038211176106e7576040526040835261080036602085013760005b8281106115ff578360005b6040811061153a57005b6115448183611dc0565b51611552575b600101611530565b60405161155e81611ba3565b60008152600682901b6001600160fa1b03831683036108305780604001908160401161083057905b8082106115a7575050906115a06001928261100501611e05565b905061154a565b90916110008310156115e95760206106dc6115e3926106ce60405193826115d78694518092848088019101611ab9565b83010187600501612e0d565b90611586565b634e487b7160e01b600052603260045260246000fd5b6116098183611dc0565b519081518201918060208401936080918291031261019a57602082015193604083015192606081015192810151906001600160401b03821161019a570181603f8201121561019a57602081015161165f81611bf6565b9261166d6040519485611bbe565b8184526040828401011161019a5761168c916040602085019101611ab9565b604085108015906118f8575b61139257600a8210156118ba5784600052600460205260406000208360005260205260ff6005604060002001541661185d578460005260046020526040600020836000526020523360018060a01b036040600020541614611706575b5050506117019150611db1565b611525565b61172c908560005260046020526040600020846000526020526003604060002001611e05565b836000526004602052604060002082600052602052600160406000200155828161181b575b8060005260046020526040600020826000526020526001604060002001546009908282810204821483151715610830578382810204821484151715610830576117c6918360005260046020526040600020856000526020526117b96003604060002001611d0b565b91818602918502906126b0565b936110008110156115e957611701946117e191600501611e05565b60016117ed8389611dc0565b527fa9a418da632d42c446a125f10b007831ba0e348168b6b2474a2383ac5df4c280600080a38580806116f4565b92506118278184611f14565b60408481031161083057816000198101116108305761185790611851600019840186604003611f14565b90611b5d565b92611751565b60405162461bcd60e51b815260206004820152602f60248201527f6f776e6572207761732061736b656420746f20666972737420736574746c652060448201526e1c9bde585b1d1e481c185e5b595b9d608a1b6064820152608490fd5b60405162461bcd60e51b81526020600482015260166024820152757368617065204944206e6f7420617661696c61626c6560501b6044820152606490fd5b506040831015611698565b60405162461bcd60e51b815260206004820152602260248201527f417274697374696320706572696f642063757272656e746c79206e6f74206f7060448201526132b760f11b6064820152608490fd5b83356001600160401b03811161019a578201903660438301121561019a5760248201359061198082611bf6565b61198d6040519182611bbe565b8281526044933685858301011161019a5760208481969582966000940183860137830101528152019301926114d2565b3461019a57602036600319011261019a576004356000526110466020526040806000206001815491015482519182526020820152f35b3461019a57600036600319011261019a576020604051620546008152f35b3461019a57602036600319011261019a576004356001600160a01b0381169081900361019a5762054600611a4760025442611f27565b04600052611046602052600260406000200190600052602052602060ff604060002054166040519015158152f35b3461019a5761030e611a8f611a8936611aa3565b9061257c565b604051918291602083526020830190611b01565b604090600319011261019a576004359060243590565b60005b838110611acc5750506000910152565b8181015183820152602001611abc565b90602091611af581518092818552858086019101611ab9565b601f01601f1916010190565b9060018060a01b038251168152602082015160208201526040820151604082015260c080611b3e606085015160e0606086015260e0850190611adc565b936080810151608085015260a0810151151560a0850152015191015290565b9190820180921161083057565b3461019a57600036600319011261019a5760206040516203f4808152f35b60e081019081106001600160401b038211176106e757604052565b602081019081106001600160401b038211176106e757604052565b90601f801991011681019081106001600160401b038211176106e757604052565b6001600160401b0381116106e75760051b60200190565b6001600160401b0381116106e757601f01601f191660200190565b3461019a57600036600319011261019a57602060405160408152f35b81601f8201121561019a57803591611c4483611bdf565b92611c526040519485611bbe565b808452602092838086019260051b82010192831161019a578301905b828210611c7c575050505090565b81358152908301908301611c6e565b90604060031983011261019a576001600160401b0360043581811161019a5783611cb791600401611c2d565b9260243591821161019a57611cce91600401611c2d565b90565b90600182811c92168015611d01575b6020831014611ceb57565b634e487b7160e01b600052602260045260246000fd5b91607f1691611ce0565b9060405191826000825492611d1f84611cd1565b908184526001948581169081600014611d8e5750600114611d4b575b5050611d4992500383611bbe565b565b9093915060005260209081600020936000915b818310611d76575050611d4993508201013880611d3b565b85548884018501529485019487945091830191611d5e565b915050611d4994506020925060ff191682840152151560051b8201013880611d3b565b60001981146108305760010190565b80518210156115e95760209160051b010190565b606090602081526016602082015275706978656c206973206f7574206f6620626f756e647360501b60408201520190565b91909182516001600160401b0381116106e757611e228254611cd1565b601f8111611ecc575b50602080601f8311600114611e68575081929394600092611e5d575b50508160011b916000199060031b1c1916179055565b015190503880611e47565b90601f198316958460005282600020926000905b888210611eb457505083600195969710611e9b575b505050811b019055565b015160001960f88460031b161c19169055388080611e91565b80600185968294968601518155019501930190611e7c565b600083815260208120601f840160051c81019260208510611f0a575b601f0160051c01915b828110611eff575050611e2b565b818155600101611ef1565b9092508290611ee8565b8181029291811591840414171561083057565b9190820391821161083057565b15611f3b57565b60405162461bcd60e51b815260206004820152602b60248201527f7820616e64207920696e7075742061727261797320617265206f66207661726960448201526a6f7573206c656e6774687360a81b6064820152608490fd5b9081602091031261019a5751801515810361019a5790565b6001600160a01b03918216815291166020820152604081019190915260600190565b919091611fde8151845114611f34565b80516000935b818510611ff2575050509050565b611ffc8584611dc0565b51946120088183611dc0565b5160408080981091821592612428575b5050612410576120288185611dc0565b5160005260046020818152876000206120418486611dc0565b51600052815260018060a01b0333818a6000205416036123c2576120658488611dc0565b516000528282528860002061207a8587611dc0565b51600052825242838a6000200154036120a8575b50505061209f919293949550611db1565b93929190611fe4565b6120c06120b58589611dc0565b51610e0a8688611dc0565b908060035416908a516370a0823160e01b8152338682015260249085818381875afa8015612336578591600091612392575b5010612341578b51636eb1769f60e11b8152338782019081523060208201528690829081906040010381875afa8015612336578591600091612303575b50106122b2575091839161215f9b936000541660008551809e819582946323b872dd60e01b8452338c8501611fac565b03925af19889156122a75761209f959697989961228a575b506121828489611dc0565b51600052828252806000206121978588611dc0565b51600052825242838260002001556121af8489611dc0565b51600052828252806000206121c48588611dc0565b51600052825260059160ff8383600020015416612228575b505050506121ea8186611dc0565b516121f58285611dc0565b51907fe61af2269c9afbdb69efce2b15f2a464f8ee6237f105b3d4024f2e824a9f0af3600080a38594939291388061208e565b600093600693612238878c611dc0565b51865281835283862061224b888b611dc0565b518752835283862001805460ff19169055612266868b611dc0565b5185528152818420906122798689611dc0565b5185525282200155388080806121dc565b6122a090833d851161115b5761114c8183611bbe565b5038612177565b50513d6000823e3d90fd5b856027608492878f519362461bcd60e51b85528401528201527f696e73756666696369656e7420616c6c6f77616e636520746f2070617920726f60448201526679616c7469657360c81b6064820152fd5b91508682813d831161232f575b61231a8183611bbe565b8101031261232c57508490513861212f565b80fd5b503d612310565b8d513d6000823e3d90fd5b856027608492878f519362461bcd60e51b85528401528201527f6e6f742073756666696369656e742062616c616e636520746f2070617920726f60448201526679616c7469657360c81b6064820152fd5b91508682813d83116123bb575b6123a98183611bbe565b8101031261232c5750849051386120f2565b503d61239f565b885162461bcd60e51b8152808401839052602260248201527f6f6e6c7920706978656c206f776e65722063616e2070617920726f79616c7469604482015261657360f01b6064820152608490fd5b855162461bcd60e51b8152806113ab60048201611dd4565b101590508638612018565b1561243a57565b60405162461bcd60e51b815260206004820152602360248201527f6e6f742073756666696369656e742062616c616e636520746f206275792070696044820152621e195b60ea1b6064820152608490fd5b1561249257565b60405162461bcd60e51b815260206004820152602360248201527f696e73756666696369656e7420616c6c6f77616e636520746f206275792070696044820152621e195b60ea1b6064820152608490fd5b156124ea57565b60405162461bcd60e51b815260206004820152602c60248201527f6f776e65722063757272656e74206d616e616765722063616e2063616c6c207460448201526b3434b990333ab731ba34b7b760a11b6064820152608490fd5b6040519061255182611b88565b8160c06000918281528260208201528260408201526060808201528260808201528260a08201520152565b90612585612544565b506040918281108061264a575b1561261057600052600460205281600020906000526020526006816000208251926125bc84611b88565b81546001600160a01b03168452600182015460208501526002820154908401526125e860038201611d0b565b60608401526004810154608084015260ff600582015416151560a0840152015460c082015290565b825162461bcd60e51b8152602060048201526013602482015272706978656c206f7574206f6620626f756e647360681b6044820152606490fd5b50828210612592565b6126a36126ac916002604064073df160009560009084825260046020528282208183526020526126896004848420015442611f27565b948252600460205282822090825260205220015490611f14565b60015490611f14565b0490565b919290928215612d515760018314612c825760028314612c585760038314612bfc57600492838114612ba85760058114612a4b57600681146129f9576007811461299257600881146128af5760091461271a575050505060405161271381611ba3565b6000815290565b61272384612e90565b9061272d81612e90565b6008860180871161289a5761274190612e90565b946008830180931161288557509161286982611cce969461277661277061276a60499997612e90565b9a612e90565b92612e90565b91604051998a97602a6127a68a602099693c7061746820643d224d60b01b8b8301528a8151948593019101611ab9565b890193600160fd1b9485602a8201526127c8825180938b602b85019101611ab9565b016b010209c101c101810181018960a51b602b8201526127f1825180938a603785019101611ab9565b0183603782015261280b8251809389603885019101611ab9565b0161081360f21b603882015261282a8251809388603a85019101611ab9565b0190603a8201526128448251809386603b85019101611ab9565b019169102d11103334b6361e9160b11b603b8401528351938491604585019101611ab9565b01631110179f60e11b6045820152036029810184520182611bbe565b601190634e487b7160e01b6000525260246000fd5b601186634e487b7160e01b6000525260246000fd5b5092600881019384821161297d576128c685612e90565b916128d96128d383612e90565b91612e90565b946008830180931161288557509161286982611cce969461290261277061276a60499997612e90565b91604051998a97602a6129328a602099693c7061746820643d224d60b01b8b8301528a8151948593019101611ab9565b890193600160fd1b9485602a820152612954825180938b602b85019101611ab9565b016b010209c101c101810181018160a51b602b8201526127f1825180938a603785019101611ab9565b601184634e487b7160e01b6000525260246000fd5b5061299c84612e90565b906129a681612e90565b600886018096116129e4576129ba86612e90565b946008830190818411612885575060499492611cce96949261290261277061276a61286995612e90565b601185634e487b7160e01b6000525260246000fd5b50612a0384612e90565b90600881018082116129e457612a1890612e90565b93600886019081871161288557509161286960499492612a3b611cce9795612e90565b9461290261277061276a84612e90565b5092612a5681612e90565b9060088501908186116129e457612a6c82612e90565b90612a7f612a7982612e90565b97612e90565b95600882018092116128855750603f9492611cce969492612aa5612770612b8c94612e90565b91604051998a97602a612ad58a602099693c7061746820643d224d60b01b8b8301528a8151948593019101611ab9565b890193600160fd1b9485602a820152612af7825180938b602b85019101611ab9565b019161081360f21b9283602b820152612b19825180938b602d85019101611ab9565b0184602d820152612b33825180938a602e85019101611ab9565b0190602e820152612b4d8251809388603085019101611ab9565b01906030820152612b678251809386603185019101611ab9565b019169103d11103334b6361e9160b11b60318401528351938491603b85019101611ab9565b01631110179f60e11b603b82015203601f810184520182611bbe565b509291600883019081841161288557612bc082612e90565b916008860191828711612885575091612b8c82611cce9694612aa5612770612a79612bf6612bf0603f9b99612e90565b94612e90565b9b612e90565b9150612c0783612e90565b92612c1183612e90565b916008820180921161083057612c2682612e90565b94612c39612c3386612e90565b93612e90565b946008810180911161083057611cce95603f95612aa5612b8c93612e90565b9150612c6383612e90565b92612c6d83612e90565b916008820180831161083057612c2690612e90565b9150916004810180911161083057612c9990612e90565b906004810180911161083057611cce91612cb4604492612e90565b936040519485926b1e31b4b931b6329031bc1e9160a11b6020850152612ce4815180926020602c88019101611ab9565b830165111031bc9e9160d11b602c820152612d09825180936020603285019101611ab9565b016d1110391e911a11103334b6361e9160911b6032820152612d35825180936020604085019101611ab9565b01631110179f60e11b6040820152036024810184520182611bbe565b611cce9250612d656128d3604f9395612e90565b93604051948592681e3932b1ba103c1e9160b91b6020850152612d92815180926020602988019101611ab9565b83016411103c9e9160d91b6029820152612db6825180936020602e85019101611ab9565b017f222077696474683d223822206865696768743d2238222066696c6c3d22000000602e820152612df1825180936020604b85019101611ab9565b01631110179f60e11b604b82015203602f810184520182611bbe565b600092918154612e1c81611cd1565b92600191808316908115612e755750600114612e39575b50505050565b90919293945060005260209081600020906000915b858310612e645750505050019038808080612e33565b805485840152918301918101612e4e565b60ff1916845250505081151590910201915038808080612e33565b908115612f59579080816000925b612f3f5750612eac82611bf6565b91612eba6040519384611bbe565b808352601f19612ec982611bf6565b01366020850137905b818115612f395760001983019283116108305782600a908184049382850292858404148515171561083057612f0a60ff938492611f27565b1660300191821161083057855111156115e95760f81b6001600160f81b03191660001a908401601f0153612ed2565b50505090565b91612f4e600a91949294611db1565b920480939193612e9e565b9050604051604081018181106001600160401b038211176106e75760405260018152600360fc1b60208201529056fea2646970667358221220a8e5f43b4714b5e0d05f21ba0958b3f9854d9d2cae7cd5b75f942e0c19bd166464736f6c63430008140033",
  "linkReferences": {},
  "deployedLinkReferences": {}
}