{
  "_format": "hh-sol-artifact-1",
  "contractName": "Pixelmap",
  "sourceName": "contracts/Pixelmap.sol",
  "abi": [
    {
      "inputs": [],
      "stateMutability": "nonpayable",
      "type": "constructor"
    },
    {
      "inputs": [],
      "name": "ReentrancyGuardReentrantCall",
      "type": "error"
    },
    {
      "anonymous": false,
      "inputs": [
        {
          "indexed": false,
          "internalType": "uint256",
          "name": "tokenID",
          "type": "uint256"
        },
        {
          "indexed": false,
          "internalType": "address",
          "name": "bidder",
          "type": "address"
        },
        {
          "indexed": false,
          "internalType": "uint256",
          "name": "bid",
          "type": "uint256"
        }
      ],
      "name": "AuctionEnded",
      "type": "event"
    },
    {
      "anonymous": false,
      "inputs": [
        {
          "indexed": false,
          "internalType": "uint256",
          "name": "tokenID",
          "type": "uint256"
        },
        {
          "indexed": false,
          "internalType": "address",
          "name": "bidder",
          "type": "address"
        },
        {
          "indexed": false,
          "internalType": "uint256",
          "name": "bid",
          "type": "uint256"
        }
      ],
      "name": "BidPlace",
      "type": "event"
    },
    {
      "anonymous": false,
      "inputs": [
        {
          "indexed": false,
          "internalType": "uint256",
          "name": "tokenID",
          "type": "uint256"
        },
        {
          "indexed": false,
          "internalType": "address",
          "name": "bidder",
          "type": "address"
        },
        {
          "indexed": false,
          "internalType": "uint256",
          "name": "bid",
          "type": "uint256"
        }
      ],
      "name": "BidWithdrawn",
      "type": "event"
    },
    {
      "anonymous": false,
      "inputs": [
        {
          "indexed": false,
          "internalType": "uint256",
          "name": "cycle",
          "type": "uint256"
        }
      ],
      "name": "NFTMinted",
      "type": "event"
    },
    {
      "anonymous": false,
      "inputs": [
        {
          "indexed": true,
          "internalType": "uint256",
          "name": "x",
          "type": "uint256"
        },
        {
          "indexed": true,
          "internalType": "uint256",
          "name": "y",
          "type": "uint256"
        }
      ],
      "name": "PixelBought",
      "type": "event"
    },
    {
      "anonymous": false,
      "inputs": [
        {
          "indexed": true,
          "internalType": "uint256",
          "name": "x",
          "type": "uint256"
        },
        {
          "indexed": true,
          "internalType": "uint256",
          "name": "y",
          "type": "uint256"
        }
      ],
      "name": "PixelFilled",
      "type": "event"
    },
    {
      "anonymous": false,
      "inputs": [
        {
          "indexed": true,
          "internalType": "uint256",
          "name": "x",
          "type": "uint256"
        },
        {
          "indexed": true,
          "internalType": "uint256",
          "name": "y",
          "type": "uint256"
        }
      ],
      "name": "PixelValueSet",
      "type": "event"
    },
    {
      "anonymous": false,
      "inputs": [
        {
          "indexed": true,
          "internalType": "uint256",
          "name": "x",
          "type": "uint256"
        },
        {
          "indexed": true,
          "internalType": "uint256",
          "name": "y",
          "type": "uint256"
        }
      ],
      "name": "RoyaltiesPaid",
      "type": "event"
    },
    {
      "anonymous": false,
      "inputs": [
        {
          "indexed": true,
          "internalType": "address",
          "name": "owner",
          "type": "address"
        }
      ],
      "name": "VoteCasted",
      "type": "event"
    },
    {
      "inputs": [],
      "name": "ARTISTIC_PERIOD",
      "outputs": [
        {
          "internalType": "uint256",
          "name": "",
          "type": "uint256"
        }
      ],
      "stateMutability": "view",
      "type": "function"
    },
    {
      "inputs": [],
      "name": "AUCTION_DURATION",
      "outputs": [
        {
          "internalType": "uint256",
          "name": "",
          "type": "uint256"
        }
      ],
      "stateMutability": "view",
      "type": "function"
    },
    {
      "inputs": [],
      "name": "CYCLE_PERIOD",
      "outputs": [
        {
          "internalType": "uint256",
          "name": "",
          "type": "uint256"
        }
      ],
      "stateMutability": "view",
      "type": "function"
    },
    {
      "inputs": [],
      "name": "VOTING_PERIOD",
      "outputs": [
        {
          "internalType": "uint256",
          "name": "",
          "type": "uint256"
        }
      ],
      "stateMutability": "view",
      "type": "function"
    },
    {
      "inputs": [
        {
          "internalType": "address",
          "name": "",
          "type": "address"
        }
      ],
      "name": "balanceOf",
      "outputs": [
        {
          "internalType": "uint256",
          "name": "",
          "type": "uint256"
        }
      ],
      "stateMutability": "view",
      "type": "function"
    },
    {
      "inputs": [
        {
          "internalType": "uint256[]",
          "name": "xValues",
          "type": "uint256[]"
        },
        {
          "internalType": "uint256[]",
          "name": "yValues",
          "type": "uint256[]"
        }
      ],
      "name": "buyPixel",
      "outputs": [],
      "stateMutability": "nonpayable",
      "type": "function"
    },
    {
      "inputs": [
        {
          "internalType": "uint256",
          "name": "x",
          "type": "uint256"
        },
        {
          "internalType": "uint256",
          "name": "y",
          "type": "uint256"
        }
      ],
      "name": "calculateRoyalties",
      "outputs": [
        {
          "internalType": "uint256",
          "name": "",
          "type": "uint256"
        }
      ],
      "stateMutability": "view",
      "type": "function"
    },
    {
      "inputs": [],
      "name": "canvasCreation",
      "outputs": [
        {
          "internalType": "uint256",
          "name": "",
          "type": "uint256"
        }
      ],
      "stateMutability": "view",
      "type": "function"
    },
    {
      "inputs": [
        {
          "internalType": "bool",
          "name": "vote",
          "type": "bool"
        }
      ],
      "name": "castVote",
      "outputs": [],
      "stateMutability": "nonpayable",
      "type": "function"
    },
    {
      "inputs": [
        {
          "internalType": "uint256[]",
          "name": "xValues",
          "type": "uint256[]"
        },
        {
          "internalType": "uint256[]",
          "name": "yValues",
          "type": "uint256[]"
        }
      ],
      "name": "checkMultiplePixel",
      "outputs": [
        {
          "components": [
            {
              "internalType": "address",
              "name": "owner",
              "type": "address"
            },
            {
              "internalType": "uint256",
              "name": "shapeID",
              "type": "uint256"
            },
            {
              "internalType": "uint256",
              "name": "price",
              "type": "uint256"
            },
            {
              "internalType": "string",
              "name": "color",
              "type": "string"
            },
            {
              "internalType": "uint256",
              "name": "royaltyLastPaid",
              "type": "uint256"
            },
            {
              "internalType": "bool",
              "name": "askedToPayRoyalties",
              "type": "bool"
            },
            {
              "internalType": "uint256",
              "name": "royaltyAskDate",
              "type": "uint256"
            }
          ],
          "internalType": "struct Pixelmap.Pixel[]",
          "name": "",
          "type": "tuple[]"
        }
      ],
      "stateMutability": "view",
      "type": "function"
    },
    {
      "inputs": [
        {
          "internalType": "uint256",
          "name": "x",
          "type": "uint256"
        },
        {
          "internalType": "uint256",
          "name": "y",
          "type": "uint256"
        }
      ],
      "name": "checkPixel",
      "outputs": [
        {
          "components": [
            {
              "internalType": "address",
              "name": "owner",
              "type": "address"
            },
            {
              "internalType": "uint256",
              "name": "shapeID",
              "type": "uint256"
            },
            {
              "internalType": "uint256",
              "name": "price",
              "type": "uint256"
            },
            {
              "internalType": "string",
              "name": "color",
              "type": "string"
            },
            {
              "internalType": "uint256",
              "name": "royaltyLastPaid",
              "type": "uint256"
            },
            {
              "internalType": "bool",
              "name": "askedToPayRoyalties",
              "type": "bool"
            },
            {
              "internalType": "uint256",
              "name": "royaltyAskDate",
              "type": "uint256"
            }
          ],
          "internalType": "struct Pixelmap.Pixel",
          "name": "",
          "type": "tuple"
        }
      ],
      "stateMutability": "view",
      "type": "function"
    },
    {
      "inputs": [
        {
          "internalType": "uint256",
          "name": "_cycle",
          "type": "uint256"
        }
      ],
      "name": "checkVoteOutcome",
      "outputs": [],
      "stateMutability": "nonpayable",
      "type": "function"
    },
    {
      "inputs": [
        {
          "internalType": "uint256",
          "name": "_tokenID",
          "type": "uint256"
        }
      ],
      "name": "closeAuction",
      "outputs": [],
      "stateMutability": "nonpayable",
      "type": "function"
    },
    {
      "inputs": [
        {
          "internalType": "bytes[]",
          "name": "_pixels",
          "type": "bytes[]"
        }
      ],
      "name": "fillPixel",
      "outputs": [],
      "stateMutability": "nonpayable",
      "type": "function"
    },
    {
      "inputs": [],
      "name": "generateSVG",
      "outputs": [
        {
          "internalType": "string",
          "name": "",
          "type": "string"
        }
      ],
      "stateMutability": "view",
      "type": "function"
    },
    {
      "inputs": [
        {
          "internalType": "address",
          "name": "_owner",
          "type": "address"
        }
      ],
      "name": "getBalance",
      "outputs": [
        {
          "internalType": "uint256",
          "name": "",
          "type": "uint256"
        }
      ],
      "stateMutability": "view",
      "type": "function"
    },
    {
      "inputs": [],
      "name": "getCurrentCycle",
      "outputs": [
        {
          "internalType": "uint256",
          "name": "",
          "type": "uint256"
        }
      ],
      "stateMutability": "view",
      "type": "function"
    },
    {
      "inputs": [
        {
          "internalType": "uint256",
          "name": "_tokenID",
          "type": "uint256"
        }
      ],
      "name": "getMintDate",
      "outputs": [
        {
          "internalType": "uint256",
          "name": "",
          "type": "uint256"
        }
      ],
      "stateMutability": "view",
      "type": "function"
    },
    {
      "inputs": [
        {
          "internalType": "address",
          "name": "_owner",
          "type": "address"
        }
      ],
      "name": "hasVoted",
      "outputs": [
        {
          "internalType": "bool",
          "name": "",
          "type": "bool"
        }
      ],
      "stateMutability": "view",
      "type": "function"
    },
    {
      "inputs": [],
      "name": "isInArtisticPeriod",
      "outputs": [
        {
          "internalType": "bool",
          "name": "",
          "type": "bool"
        }
      ],
      "stateMutability": "view",
      "type": "function"
    },
    {
      "inputs": [],
      "name": "isInVotingPeriod",
      "outputs": [
        {
          "internalType": "bool",
          "name": "",
          "type": "bool"
        }
      ],
      "stateMutability": "view",
      "type": "function"
    },
    {
      "inputs": [],
      "name": "manager",
      "outputs": [
        {
          "internalType": "address",
          "name": "",
          "type": "address"
        }
      ],
      "stateMutability": "view",
      "type": "function"
    },
    {
      "inputs": [],
      "name": "maxHeight",
      "outputs": [
        {
          "internalType": "uint256",
          "name": "",
          "type": "uint256"
        }
      ],
      "stateMutability": "view",
      "type": "function"
    },
    {
      "inputs": [],
      "name": "maxWidth",
      "outputs": [
        {
          "internalType": "uint256",
          "name": "",
          "type": "uint256"
        }
      ],
      "stateMutability": "view",
      "type": "function"
    },
    {
      "inputs": [
        {
          "internalType": "uint256",
          "name": "",
          "type": "uint256"
        }
      ],
      "name": "mintDates",
      "outputs": [
        {
          "internalType": "uint256",
          "name": "",
          "type": "uint256"
        }
      ],
      "stateMutability": "view",
      "type": "function"
    },
    {
      "inputs": [
        {
          "internalType": "uint256",
          "name": "",
          "type": "uint256"
        }
      ],
      "name": "nftAuctions",
      "outputs": [
        {
          "internalType": "address",
          "name": "winningAddr",
          "type": "address"
        },
        {
          "internalType": "uint256",
          "name": "winningBid",
          "type": "uint256"
        },
        {
          "internalType": "uint256",
          "name": "auctionStart",
          "type": "uint256"
        },
        {
          "internalType": "uint256",
          "name": "auctionEnd",
          "type": "uint256"
        },
        {
          "internalType": "bool",
          "name": "auctionEnded",
          "type": "bool"
        }
      ],
      "stateMutability": "view",
      "type": "function"
    },
    {
      "inputs": [],
      "name": "nftContract",
      "outputs": [
        {
          "internalType": "contract CanvasCollection",
          "name": "",
          "type": "address"
        }
      ],
      "stateMutability": "view",
      "type": "function"
    },
    {
      "inputs": [
        {
          "internalType": "uint256[]",
          "name": "xValues",
          "type": "uint256[]"
        },
        {
          "internalType": "uint256[]",
          "name": "yValues",
          "type": "uint256[]"
        }
      ],
      "name": "payRoyalties",
      "outputs": [],
      "stateMutability": "nonpayable",
      "type": "function"
    },
    {
      "inputs": [
        {
          "internalType": "uint256",
          "name": "",
          "type": "uint256"
        }
      ],
      "name": "pixelSVGs",
      "outputs": [
        {
          "internalType": "string",
          "name": "",
          "type": "string"
        }
      ],
      "stateMutability": "view",
      "type": "function"
    },
    {
      "inputs": [
        {
          "internalType": "uint256",
          "name": "_tokenID",
          "type": "uint256"
        }
      ],
      "name": "placeBid",
      "outputs": [],
      "stateMutability": "payable",
      "type": "function"
    },
    {
      "inputs": [
        {
          "internalType": "uint256",
          "name": "",
          "type": "uint256"
        }
      ],
      "name": "rowSVGs",
      "outputs": [
        {
          "internalType": "string",
          "name": "",
          "type": "string"
        }
      ],
      "stateMutability": "view",
      "type": "function"
    },
    {
      "inputs": [],
      "name": "royaltyAskPeriod",
      "outputs": [
        {
          "internalType": "uint256",
          "name": "",
          "type": "uint256"
        }
      ],
      "stateMutability": "view",
      "type": "function"
    },
    {
      "inputs": [],
      "name": "royaltyDenominator",
      "outputs": [
        {
          "internalType": "uint256",
          "name": "",
          "type": "uint256"
        }
      ],
      "stateMutability": "view",
      "type": "function"
    },
    {
      "inputs": [],
      "name": "royaltyRate",
      "outputs": [
        {
          "internalType": "uint256",
          "name": "",
          "type": "uint256"
        }
      ],
      "stateMutability": "view",
      "type": "function"
    },
    {
      "inputs": [
        {
          "internalType": "uint256",
          "name": "x",
          "type": "uint256"
        },
        {
          "internalType": "uint256",
          "name": "y",
          "type": "uint256"
        },
        {
          "internalType": "uint256",
          "name": "_price",
          "type": "uint256"
        }
      ],
      "name": "seekRoyaltyPayment",
      "outputs": [],
      "stateMutability": "nonpayable",
      "type": "function"
    },
    {
      "inputs": [
        {
          "internalType": "address",
          "name": "_nftContract",
          "type": "address"
        }
      ],
      "name": "setNFTContract",
      "outputs": [],
      "stateMutability": "nonpayable",
      "type": "function"
    },
    {
      "inputs": [
        {
          "internalType": "uint256[]",
          "name": "xValues",
          "type": "uint256[]"
        },
        {
          "internalType": "uint256[]",
          "name": "yValues",
          "type": "uint256[]"
        },
        {
          "internalType": "uint256[]",
          "name": "priceValues",
          "type": "uint256[]"
        }
      ],
      "name": "setPixelValue",
      "outputs": [],
      "stateMutability": "nonpayable",
      "type": "function"
    },
    {
      "inputs": [
        {
          "internalType": "address",
          "name": "_newToken",
          "type": "address"
        }
      ],
      "name": "updateCurrency",
      "outputs": [],
      "stateMutability": "nonpayable",
      "type": "function"
    },
    {
      "inputs": [
        {
          "internalType": "uint256",
          "name": "",
          "type": "uint256"
        }
      ],
      "name": "voteRegister",
      "outputs": [
        {
          "internalType": "uint256",
          "name": "yesVotes",
          "type": "uint256"
        },
        {
          "internalType": "uint256",
          "name": "noVotes",
          "type": "uint256"
        }
      ],
      "stateMutability": "view",
      "type": "function"
    },
    {
      "inputs": [
        {
          "internalType": "uint256",
          "name": "",
          "type": "uint256"
        },
        {
          "internalType": "uint256",
          "name": "",
          "type": "uint256"
        }
      ],
      "name": "window",
      "outputs": [
        {
          "internalType": "address",
          "name": "owner",
          "type": "address"
        },
        {
          "internalType": "uint256",
          "name": "shapeID",
          "type": "uint256"
        },
        {
          "internalType": "uint256",
          "name": "price",
          "type": "uint256"
        },
        {
          "internalType": "string",
          "name": "color",
          "type": "string"
        },
        {
          "internalType": "uint256",
          "name": "royaltyLastPaid",
          "type": "uint256"
        },
        {
          "internalType": "bool",
          "name": "askedToPayRoyalties",
          "type": "bool"
        },
        {
          "internalType": "uint256",
          "name": "royaltyAskDate",
          "type": "uint256"
        }
      ],
      "stateMutability": "view",
      "type": "function"
    }
  ],
  "bytecode": "0x60808060405234610054576001600055603260035560018060a01b031973c02aaa39b223fe8d0a0e5c4f27ead9083c756cc281600554161760055533906002541617600255426004556137fc908161005a8239f35b600080fdfe6080604052600436101561001257600080fd5b6000803560e01c8063040cdfd8146121bd57806309eef43e1461215e578063113bc99914612140578063236ed8f314611fa657806330b5d6d314611f715780633323a706146117105780633bdb693e14611a14578063481c6a75146119eb5780634882a7ea146119ba5780635c8c6407146117685780635e0276011461171a5780636006ecc81461171557806363aa5ce2146117155780636e70fcc6146117105780636ed958f114610f4b57806370a08231146102125780637ace48e714610d555780638232b56214610ad857806385a9473d146109b357806393cde51a1461094f5780639979ef451461075f578063a271e52514610742578063a7ccabdf146106f0578063ad711e9e14610598578063b1610d7e1461057a578063b3a1ddf414610548578063bc5bc2fb146104f1578063be26ed7f1461051c578063c4323fc1146104f1578063c4d1510d146104d3578063c4e4b90c146104a4578063c730e65d1461040e578063c7eab2ec14610301578063d08629c1146102df578063d56d229d146102b6578063e12459001461026f578063e50eb5da14610254578063f8b2cb4f14610212578063fd8d7ed3146101f55763ff188dca146101d557600080fd5b346101f257806003193601126101f2576020600454604051908152f35b80fd5b50346101f257806003193601126101f25760206040516103e88152f35b50346101f25760203660031901126101f2576004356001600160a01b0381169081900361025057816040916020935261104783522054604051908152f35b5080fd5b50346101f25761026c610266366123fd565b90612749565b80f35b50346101f25760203660031901126101f2576004359060408210156101f2576102b261029e836110070161247d565b604051918291602083526020830190612225565b0390f35b50346101f257806003193601126101f2576001546040516001600160a01b039091168152602090f35b50346101f25760206102f96102f3366121ec565b90612de4565b604051908152f35b50346101f257610310366123fd565b61031d82518251146126af565b81519061032982612351565b926103376040519485612330565b828452601f1961034684612351565b01855b8181106103f7575050845b8381106103b95760408051602080825287518183018190528993600582901b8401810192808b01929185015b82871061038d5785850386f35b9091929382806103a9600193603f198a8203018652885161224a565b9601920196019592919092610380565b806103db6103c960019385612532565b516103d48387612532565b5190612d0d565b6103e58288612532565b526103f08187612532565b5001610354565b602090610402612cd5565b82828901015201610349565b50346101f257604090610420366121ec565b90825260066020528282209082526020522060018060a01b0381541660018201549160028101546104536003830161247d565b9161048e600482015493600660ff6005850154169301549360405197889788526020880152604087015260e0606087015260e0860190612225565b926080850152151560a084015260c08301520390f35b50346101f25760203660031901126101f257600435906110008210156101f2576102b261029e8360070161247d565b50346101f257806003193601126101f2576020600354604051908152f35b50346101f25760203660031901126101f2576040602091600435815261104983522054604051908152f35b50346101f257806003193601126101f25760206205460061053f60045442612c67565b04604051908152f35b50346101f257806003193601126101f25760206203f4806205460061056f60045442612c67565b061015604051908152f35b50346101f257806003193601126101f2576020604051620151808152f35b50346101f257806003193601126101f257604051608081018181106001600160401b038211176106da57604052605781526020907f3c7376672077696474683d2236303022206865696768743d2236303022207669828201527f6577426f783d2230203020363030203630302220786d6c6e733d22687474703a6040820152761797bbbbbb973b999737b933979918181817b9bb33911f60491b6060820152915b60408110610690575061067c60266040518461065e8296518092878086019101612202565b8101651e17b9bb339f60d11b85820152036006810185520183612330565b6102b2604051928284938452830190612225565b91816106cf6106d5926106c160405193826106b48694518092848088019101612202565b8301018761100701613655565b03601f198101835282612330565b92612523565b610639565b634e487b7160e01b600052604160045260246000fd5b50346101f25760203660031901126101f2576004356001600160a01b038181169182900361073e5761072790600254163314612c74565b600180546001600160a01b03191691909117905580f35b8280fd5b50346101f257806003193601126101f257602060405161fd208152f35b506020806003193601126102505760043590610779612ed5565b81835261104a9081815261079760ff60046040872001541615612e41565b8284528181526107af60026040862001544211612e89565b828452818152426003604086200154111561090f5782845281815260016040852001543411156108cb5782845281815283808080604081206001808060a01b03825416910154905af13d156108c6573d61080881612368565b906108166040519283612330565b815285833d92013e5b1561088b57828452526040808320346001820181905581546001600160a01b0319163390811790925582519384526020840191909152908201527f8108a40c809d4e4f749358511f7baa90a1259a19024e438f728276ccd4c936869080606081015b0390a16001815580f35b6064906040519062461bcd60e51b8252600482015260146024820152732330b4b632b2103a379039b2b7321022ba3432b960611b6044820152fd5b61081f565b6064906040519062461bcd60e51b82526004820152601b60248201527f6869676865722062696420616c7265616479206578697374696e6700000000006044820152fd5b6064906040519062461bcd60e51b825260048201526019602482015278185d58dd1a5bdb881a185cc8185b1c9958591e48195b991959603a1b6044820152fd5b50346101f25760203660031901126101f257604060a091600435815261104a60205220600180831b0381541690600181015490600281015460ff60046003840154930154169260405194855260208501526040840152606083015215156080820152f35b50346101f25760603660031901126101f257600435906024356109e160018060a01b03600254163314612c74565b828252600690602082815260408420828552815260ff60056040862001541680610a97575b948495600014610a5e5780855283825260408520838652825260443560026040872001558085528382526040852083865282526005604086200160ff1981541690558452828152604084209184525260408220015580f35b9384905282815260408086208387528252808620600501805460ff19166001179055938552828152838520918552529082204291015580f35b5084845282815260408420828552815282604085200154946203f4808601809611610ac457944211610a06565b634e487b7160e01b85526011600452602485fd5b50346101f25760603660031901126101f2576001600160401b0360043581811161073e57610b0a90369060040161239f565b6024908135838111610d5157610b2490369060040161239f565b916044938435908111610d4d57610b3f90369060040161239f565b908251845181149081610d42575b5015610cef57825194865b868110610bf657505050610b6c8383612749565b845b848110610b79578580f35b80610b8660019284612532565b51610b918286612532565b5188526020600681526040892090610ba98489612532565b518a52526002604089200155610bbf8185612532565b51610bca8287612532565b51907f1c362b7fc7c4865e1e7ede89f240549bbd8b5ee43b51383c9c0392687d6d10ec8980a301610b6e565b610c008186612532565b516040610c0d8389612532565b51911090811591610ce3575b50610ca557610c288186612532565b51885260206006815260408920610c3f8389612532565b518a5281526040892054336001600160a01b0390911603610c635750600101610b58565b6064907f6f6e6c79206f776e65722063616e2073657420706978656c2076616c7565000084601e876040519462461bcd60e51b86526004860152840152820152fd5b60405162461bcd60e51b815260206004820152601881850152774120706978656c206973206f7574206f6620626f756e647360401b81840152606490fd5b60409150101538610c19565b6084907f696e70757420617272617973206d757374206265206f66207468652073616d658660276040519362461bcd60e51b85526020600486015284015282015266040d8cadccee8d60cb1b6064820152fd5b905082511438610b4d565b8580fd5b8480fd5b50346101f25760208060031936011261025057600435801515810361073e5760045462054600906203f48082610d8b8342612c67565b0610610f0a5733855261104784526040852054908115610eb55782610db08242612c67565b048652611048938486526002604088200133600052865260ff60406000205416610e805783919015610e575750610de960045442612c67565b048552828452610dfe604086209182546122a6565b90555b610e0d60045442612c67565b0483528152600260408320019033600052526040600020600160ff19825416179055337f7ce969a18bb6b0fba42c6d9746e7d08eeca4c661809659c91d276456e3153ac08280a280f35b610e619042612c67565b048552828452610e79600160408720019182546122a6565b9055610e01565b60405162461bcd60e51b815260048101879052600d60248201526c185b1c9958591e481d9bdd1959609a1b6044820152606490fd5b60405162461bcd60e51b815260048101869052602760248201527f6e6f20706978656c73206f776e6564203d206e6f20766f74657320746f2062656044820152660818d85cdd195960ca1b6064820152608490fd5b60405162461bcd60e51b81526004810185905260196024820152782b37ba34b7339031bab93932b73a363c903737ba1037b832b760391b6044820152606490fd5b50346101f257610f5a366123fd565b610f6782518251146126af565b815190835b828110610f77578480f35b610f818185612532565b516040610f8e8385612532565b51911090811591611704575b506116e757610fa98185612532565b518552600660205260408520610fbf8284612532565b51865260205260408520546001600160a01b031661108557610fe18185612532565b518552600660205260408520610ff78284612532565b518652602052604085203360018060a01b0319825416179055338552611047602052604085208054906001820180921161107157556001905b61103a8186612532565b516110458285612532565b51907fee0e9a85d097f632450e6ac08750207c8f039246ee437b10eaf708b397d00ad88880a301610f6c565b634e487b7160e01b87526011600452602487fd5b846110a56110938387612532565b5161109e8486612532565b5190612de4565b6110af8387612532565b5182526006602052604082206110c58486612532565b5183526020528060026040842001541160001461146e576110e68387612532565b5182526006602052604082206110fc8486612532565b518352602052611113816002604085200154612c67565b9060018060a01b03600554166040516370a0823160e01b8152336004820152602081602481855afa90811561142b578591611436575b5061118290611158878b612532565b51865260066020526040862061116e888a612532565b518752602052600260408720015410612bb7565b604051636eb1769f60e11b8152336004820152306024820152602081604481855afa90811561142b5785916113ee575b506020916111f0611245926111c7898d612532565b51885260068552604088206111dc8a8c612532565b518952855260026040892001541115612c0f565b6111fa878b612532565b518652600683526040862061120f888a612532565b518752835260408087205490516323b872dd60e01b80825290979096889485938492906001600160a01b03163360048501612727565b03925af19182156113e35761128e936020936113c6575b50600554600254604051928352919485936001600160a01b039283169385938d93859390929091163360048501612727565b03925af180156113bb5761138c575b506112a88185612532565b5185526006602052604085206112be8284612532565b51865260209081526040808720546001600160a01b0316875261104791829052862080546000198101919082116113785755338652602052604085208054906001820180921161107157556001906113168186612532565b51865260066020526040862061132c8285612532565b5187526020526040862033838060a01b031982541617905561134e8186612532565b5186526006602052604086206113648285612532565b518752602052426004604088200155611030565b634e487b7160e01b88526011600452602488fd5b6113ad9060203d6020116113b4575b6113a58183612330565b81019061270f565b503861129d565b503d61139b565b6040513d88823e3d90fd5b6113dc90843d86116113b4576113a58183612330565b503861125c565b6040513d8a823e3d90fd5b9450506020843d602011611423575b8161140a60209383612330565b8101031261141e57925188939060206111b2565b600080fd5b3d91506113fd565b6040513d87823e3d90fd5b9450506020843d602011611466575b8161145260209383612330565b8101031261141e5761118289945190611149565b3d9150611445565b50506005546040516370a0823160e01b81523360048201526024916001600160a01b0316906020818481855afa80156113e35788906116b3575b6114e191506114b78589612532565b5189526006602052604089206114cd8688612532565b518a52602052600260408a20015410612bb7565b604051636eb1769f60e11b8152336004820152306024820152602081604481855afa9081156113e357889161167f575b506115a79161154f602092611526878b612532565b518b526006845260408b2061153b888a612532565b518c528452600260408c2001541115612c0f565b6002546001600160a01b031690611566868a612532565b518a526006835260408a2061157b8789612532565b518b528352600260408b200154918a6040518096819582946323b872dd60e01b84523360048501612727565b03925af1801561167457611655575b506115c18286612532565b5186526006602052604086206115d78385612532565b51875260209081526040808820546001600160a01b031688526110479182905287208054600019810191908211611642575533875260205260408620805491600183018093116116305750556001906113168186612532565b634e487b7160e01b8852601160045287fd5b634e487b7160e01b895260116004528389fd5b61166d9060203d6020116113b4576113a58183612330565b50386115b6565b6040513d89823e3d90fd5b90506020813d6020116116ab575b8161169a60209383612330565b8101031261141e57516115a7611511565b3d915061168d565b506020813d6020116116df575b816116cd60209383612330565b8101031261141e576114e190516114a8565b3d91506116c0565b60405162461bcd60e51b8152806117006004820161255c565b0390fd5b60409150101538610f9a565b6122c9565b612383565b50346101f25760203660031901126101f2576004356001600160a01b038181169182900361073e5761175190600254163314612c74565b600580546001600160a01b03191691909117905580f35b50346101f25760208060031936011261025057600435906205460061178f60045442612c67565b04821015611957578183526110488082526117b46040852060018154910154906122a6565b90811561192257838552825260408420549060011c106117d2578280f35b6001546001600160a01b03929084908416803b15610250578180916024604051809481936335313c2160e11b83523060048401525af18015611917576118ff575b50506004927fd9dc24857f317ed9abbbb42e920ede0104231eb1d3d70236a74887ffaf159868838093604051908152a160015416604051938480926318160ddd60e01b82525afa9182156118f45783926118c5575b5060001982019182116118b157818352611049815242604084205561104a9081815242600260408620015561fd20420192834211610ac457845252600360408320015538808280f35b634e487b7160e01b83526011600452602483fd5b9080925081813d83116118ed575b6118dd8183612330565b8101031261141e57519038611868565b503d6118d3565b6040513d85823e3d90fd5b611908906122e7565b611913578338611813565b8380fd5b6040513d84823e3d90fd5b60405162461bcd60e51b815260048101849052600d60248201526c139bc81d9bdd195cc818d85cdd609a1b6044820152606490fd5b6084906040519062461bcd60e51b82526004820152603660248201527f636865636b20766f7465206f7574636f6d6573206f6e6c7920706f737369626c6044820152756520666f7220636f6e636c75646564206379636c657360501b6064820152fd5b50346101f257806003193601126101f25760206203f480620546006119e160045442612c67565b0610604051908152f35b50346101f257806003193601126101f2576002546040516001600160a01b039091168152602090f35b50346101f25760203660031901126101f2576004356001600160401b038111610250573660238201121561025057806004013590611a5182612351565b91611a5f6040519384612330565b8083526024602084019160051b83010191368311610d515760248101915b838310611f065785856203f48062054600611a9a60045442612c67565b061015611eb6578051906040519061082082018281106001600160401b038211176106da5760405260408252610800366020840137835b838110611bbe578483815b60408110611ae8578280f35b611af28183612532565b51611b00575b600101611adc565b604051611b0c81612315565b838152600682901b6001600160fa1b0383168303610ac457806040019081604011611baa57905b808210611b5457505090611b4d600192826110070161258d565b9050611af8565b9091611000831015611b965760206106cf611b90926106c16040519382611b848694518092848088019101612202565b83010187600701613655565b90611b33565b634e487b7160e01b86526032600452602486fd5b634e487b7160e01b86526011600452602486fd5b611bc88183612532565b518051810181602082019160809182910312611eb257602083015191604084015193606081015192810151906001600160401b038211611eaa570181603f82011215611eae576020810151611c1c81612368565b92611c2a6040519485612330565b81845260408284010111611eaa57611c49916040602085019101612202565b60408310801590611e9f575b6116e757600a821015611e6157828952600660205260408920848a5260205260ff600560408b20015416611e0457828952600660209081526040808b20868c529091528920546001600160a01b03163314611cbd575b50505050611cb890612523565b611ad1565b611cdf90838a52600660205260408a20858b52602052600360408b200161258d565b818852600660209081526040808a20858b529091528820600101556001600160fa1b038216820361107157611d178260061b826122a6565b818852600660205260408820838952602052600160408920015460098381810204811484151715611df0578481810204811485151715611df05790611d8491848b52600660205260408b20868c52602052611d77600360408d200161247d565b9181870291860290612ef8565b90611000811015611ddc57611cb894939291611da29160070161258d565b6001611dae8388612532565b527fa9a418da632d42c446a125f10b007831ba0e348168b6b2474a2383ac5df4c2808880a390868080611cab565b634e487b7160e01b89526032600452602489fd5b634e487b7160e01b8a52601160045260248afd5b60405162461bcd60e51b815260206004820152602f60248201527f6f776e6572207761732061736b656420746f20666972737420736574746c652060448201526e1c9bde585b1d1e481c185e5b595b9d608a1b6064820152608490fd5b60405162461bcd60e51b81526020600482015260166024820152757368617065204944206e6f7420617661696c61626c6560501b6044820152606490fd5b506040841015611c55565b8a80fd5b8980fd5b8780fd5b60405162461bcd60e51b815260206004820152602260248201527f417274697374696320706572696f642063757272656e746c79206e6f74206f7060448201526132b760f11b6064820152608490fd5b82356001600160401b038111611f6d57820136604382011215611f6d57602481013591611f3283612368565b611f3f6040519182612330565b8381528860443681878701011161025057856020968796928793018386013783010152815201920191611a7d565b8680fd5b50346101f25760203660031901126101f257604080916004358152611048602052206001815491015482519182526020820152f35b50346101f257602090816003193601126101f257600435611fc5612ed5565b80825261104a90818452611fe360ff60046040862001541615612e41565b808352818452611ffb60026040852001544211612e89565b8083528184524260036040852001541015612103578083528184526040832060048101805460ff191660019081179091555490546001600160a01b0393918416908416813b15610d4d578361206a92879283604051809681958294632142170760e11b84523060048501612727565b03925af1801561142b576120d2575b5081845290935260408083208054600190910154825195865292166001600160a01b03166020850152830152907fd2aa34a4fdbbc6dff6a3e56f46e0f3ae2a31d7785ff3487aa5c95c642acea501908060608101610881565b936120fd7fd2aa34a4fdbbc6dff6a3e56f46e0f3ae2a31d7785ff3487aa5c95c642acea501956122e7565b93612079565b60405162461bcd60e51b8152600481018590526015602482015274185d58dd1a5bdb881b9bdd08195b991959081e595d605a1b6044820152606490fd5b50346101f257806003193601126101f2576020604051620546008152f35b50346101f25760203660031901126101f2576004356001600160a01b0381169081900361025057604060209260ff926205460061219d60045442612c67565b048252611048855260028383200190825284522054166040519015158152f35b50346101f2576102b26121d86121d2366121ec565b90612d0d565b60405191829160208352602083019061224a565b604090600319011261141e576004359060243590565b60005b8381106122155750506000910152565b8181015183820152602001612205565b9060209161223e81518092818552858086019101612202565b601f01601f1916010190565b9060018060a01b038251168152602082015160208201526040820151604082015260c080612287606085015160e0606086015260e0850190612225565b936080810151608085015260a0810151151560a0850152015191015290565b919082018092116122b357565b634e487b7160e01b600052601160045260246000fd5b3461141e57600036600319011261141e5760206040516203f4808152f35b6001600160401b0381116106da57604052565b60e081019081106001600160401b038211176106da57604052565b602081019081106001600160401b038211176106da57604052565b90601f801991011681019081106001600160401b038211176106da57604052565b6001600160401b0381116106da5760051b60200190565b6001600160401b0381116106da57601f01601f191660200190565b3461141e57600036600319011261141e57602060405160408152f35b81601f8201121561141e578035916123b683612351565b926123c46040519485612330565b808452602092838086019260051b82010192831161141e578301905b8282106123ee575050505090565b813581529083019083016123e0565b90604060031983011261141e576001600160401b0360043581811161141e57836124299160040161239f565b9260243591821161141e576124409160040161239f565b90565b90600182811c92168015612473575b602083101461245d57565b634e487b7160e01b600052602260045260246000fd5b91607f1691612452565b906040519182600082549261249184612443565b90818452600194858116908160001461250057506001146124bd575b50506124bb92500383612330565b565b9093915060005260209081600020936000915b8183106124e85750506124bb935082010138806124ad565b855488840185015294850194879450918301916124d0565b9150506124bb94506020925060ff191682840152151560051b82010138806124ad565b60001981146122b35760010190565b80518210156125465760209160051b010190565b634e487b7160e01b600052603260045260246000fd5b606090602081526016602082015275706978656c206973206f7574206f6620626f756e647360501b60408201520190565b91909182516001600160401b0381116106da576125aa8254612443565b601f8111612654575b50602080601f83116001146125f05750819293946000926125e5575b50508160011b916000199060031b1c1916179055565b0151905038806125cf565b90601f198316958460005282600020926000905b88821061263c57505083600195969710612623575b505050811b019055565b015160001960f88460031b161c19169055388080612619565b80600185968294968601518155019501930190612604565b600083815260208120601f840160051c81019260208510612692575b601f0160051c01915b8281106126875750506125b3565b818155600101612679565b9092508290612670565b818102929181159184041417156122b357565b156126b657565b60405162461bcd60e51b815260206004820152602b60248201527f7820616e64207920696e7075742061727261797320617265206f66207661726960448201526a6f7573206c656e6774687360a81b6064820152608490fd5b9081602091031261141e5751801515810361141e5790565b6001600160a01b03918216815291166020820152604081019190915260600190565b91909161275981518451146126af565b80516000935b81851061276d575050509050565b6127778584612532565b51946127838183612532565b5160408080981091821592612bac575b5050612b94576127a38185612532565b51600052600695602096808852816000206127be8486612532565b51600052885260018060a01b0391338382600020541603612b46576127e38488612532565b51600052818952806000206127f88587612532565b516000528952600498428a8360002001540361282a575b50505050612821919293949550612523565b9392919061275f565b612842612837868a612532565b5161109e8789612532565b99600594808654169084516370a0823160e01b8152338482015260249085818381875afa908115612aba57908f91600091612b16575b5010612ac5578551636eb1769f60e11b8152338582019081523060208201528690829081906040010381875afa908115612aba57908f91600091612a8a575b5010612a39575060025485516323b872dd60e01b81529d85938f939092849283926128e6921633898501612727565b03915a90600091f19a8b15612a2e576128219798999a9b612a11575b5061290d868b612532565b5160005283825282600020612922878a612532565b516000528252429083600020015561293a858a612532565b516000528281528160002061294f8689612532565b51600052815260ff84836000200154166129b1575b505050506129728186612532565b5161297d8285612532565b51907fe61af2269c9afbdb69efce2b15f2a464f8ee6237f105b3d4024f2e824a9f0af3600080a3859493929138808061280f565b6000936129be868b612532565b5185528382528285206129d1878a612532565b518652825282852001805460ff191690556129ec858a612532565b51845282815281842090612a008689612532565b518552528220015538808080612964565b612a2790833d85116113b4576113a58183612330565b5038612902565b83513d6000823e3d90fd5b8360276084928789519362461bcd60e51b85528401528201527f696e73756666696369656e7420616c6c6f77616e636520746f2070617920726f60448201526679616c7469657360c81b6064820152fd5b91508682813d8311612ab3575b612aa18183612330565b810103126101f257508e9051386128b7565b503d612a97565b87513d6000823e3d90fd5b8360276084928789519362461bcd60e51b85528401528201527f6e6f742073756666696369656e742062616c616e636520746f2070617920726f60448201526679616c7469657360c81b6064820152fd5b91508682813d8311612b3f575b612b2d8183612330565b810103126101f257508e905138612878565b503d612b23565b5162461bcd60e51b815260048101899052602260248201527f6f6e6c7920706978656c206f776e65722063616e2070617920726f79616c7469604482015261657360f01b6064820152608490fd5b855162461bcd60e51b8152806117006004820161255c565b101590508638612793565b15612bbe57565b60405162461bcd60e51b815260206004820152602360248201527f6e6f742073756666696369656e742062616c616e636520746f206275792070696044820152621e195b60ea1b6064820152608490fd5b15612c1657565b60405162461bcd60e51b815260206004820152602360248201527f696e73756666696369656e7420616c6c6f77616e636520746f206275792070696044820152621e195b60ea1b6064820152608490fd5b919082039182116122b357565b15612c7b57565b60405162461bcd60e51b815260206004820152602c60248201527f6f776e65722063757272656e74206d616e616765722063616e2063616c6c207460448201526b3434b990333ab731ba34b7b760a11b6064820152608490fd5b60405190612ce2826122fa565b8160c06000918281528260208201528260408201526060808201528260808201528260a08201520152565b90612d16612cd5565b5060409182811080612ddb575b15612da15760005260066020528160002090600052602052600681600020825192612d4d846122fa565b81546001600160a01b0316845260018201546020850152600282015490840152612d796003820161247d565b60608401526004810154608084015260ff600582015416151560a0840152015460c082015290565b825162461bcd60e51b8152602060048201526013602482015272706978656c206f7574206f6620626f756e647360681b6044820152606490fd5b50828210612d23565b612e34612e3d916002604064073df16000956000908482526006602052828220818352602052612e1a6004848420015442612c67565b94825260066020528282209082526020522001549061269c565b6003549061269c565b0490565b15612e4857565b60405162461bcd60e51b815260206004820152601960248201527861756374696f6e2068617320656e64656420616c726561647960381b6044820152606490fd5b15612e9057565b60405162461bcd60e51b815260206004820152601b60248201527f61756374696f6e20686173206e6f7420737461727465642079657400000000006044820152606490fd5b600260005414612ee6576002600055565b604051633ee5aeb560e01b8152600490fd5b91929092821561359957600183146134ca57600283146134a05760038314613444576004928381146133f05760058114613293576006811461324157600781146131da57600881146130f757600914612f625750505050604051612f5b81612315565b6000815290565b612f6b846136d8565b90612f75816136d8565b600886018087116130e257612f89906136d8565b94600883018093116130cd5750916130b1826124409694612fbe612fb8612fb2604999976136d8565b9a6136d8565b926136d8565b91604051998a97602a612fee8a602099693c7061746820643d224d60b01b8b8301528a8151948593019101612202565b890193600160fd1b9485602a820152613010825180938b602b85019101612202565b016b010209c101c101810181018960a51b602b820152613039825180938a603785019101612202565b018360378201526130538251809389603885019101612202565b0161081360f21b60388201526130728251809388603a85019101612202565b0190603a82015261308c8251809386603b85019101612202565b019169102d11103334b6361e9160b11b603b8401528351938491604585019101612202565b01631110179f60e11b6045820152036029810184520182612330565b601190634e487b7160e01b6000525260246000fd5b601186634e487b7160e01b6000525260246000fd5b509260088101938482116131c55761310e856136d8565b9161312161311b836136d8565b916136d8565b94600883018093116130cd5750916130b182612440969461314a612fb8612fb2604999976136d8565b91604051998a97602a61317a8a602099693c7061746820643d224d60b01b8b8301528a8151948593019101612202565b890193600160fd1b9485602a82015261319c825180938b602b85019101612202565b016b010209c101c101810181018160a51b602b820152613039825180938a603785019101612202565b601184634e487b7160e01b6000525260246000fd5b506131e4846136d8565b906131ee816136d8565b6008860180961161322c57613202866136d8565b9460088301908184116130cd57506049949261244096949261314a612fb8612fb26130b1956136d8565b601185634e487b7160e01b6000525260246000fd5b5061324b846136d8565b906008810180821161322c57613260906136d8565b9360088601908187116130cd5750916130b16049949261328361244097956136d8565b9461314a612fb8612fb2846136d8565b509261329e816136d8565b90600885019081861161322c576132b4826136d8565b906132c76132c1826136d8565b976136d8565b95600882018092116130cd5750603f94926124409694926132ed612fb86133d4946136d8565b91604051998a97602a61331d8a602099693c7061746820643d224d60b01b8b8301528a8151948593019101612202565b890193600160fd1b9485602a82015261333f825180938b602b85019101612202565b019161081360f21b9283602b820152613361825180938b602d85019101612202565b0184602d82015261337b825180938a602e85019101612202565b0190602e8201526133958251809388603085019101612202565b019060308201526133af8251809386603185019101612202565b019169103d11103334b6361e9160b11b60318401528351938491603b85019101612202565b01631110179f60e11b603b82015203601f810184520182612330565b50929160088301908184116130cd57613408826136d8565b9160088601918287116130cd5750916133d48261244096946132ed612fb86132c161343e613438603f9b996136d8565b946136d8565b9b6136d8565b915061344f836136d8565b92613459836136d8565b91600882018092116122b35761346e826136d8565b9461348161347b866136d8565b936136d8565b94600881018091116122b35761244095603f956132ed6133d4936136d8565b91506134ab836136d8565b926134b5836136d8565b91600882018083116122b35761346e906136d8565b915091600481018091116122b3576134e1906136d8565b90600481018091116122b357612440916134fc6044926136d8565b936040519485926b1e31b4b931b6329031bc1e9160a11b602085015261352c815180926020602c88019101612202565b830165111031bc9e9160d11b602c820152613551825180936020603285019101612202565b016d1110391e911a11103334b6361e9160911b603282015261357d825180936020604085019101612202565b01631110179f60e11b6040820152036024810184520182612330565b61244092506135ad61311b604f93956136d8565b93604051948592681e3932b1ba103c1e9160b91b60208501526135da815180926020602988019101612202565b83016411103c9e9160d91b60298201526135fe825180936020602e85019101612202565b017f222077696474683d223822206865696768743d2238222066696c6c3d22000000602e820152613639825180936020604b85019101612202565b01631110179f60e11b604b82015203602f810184520182612330565b60009291815461366481612443565b926001918083169081156136bd5750600114613681575b50505050565b90919293945060005260209081600020906000915b8583106136ac575050505001903880808061367b565b805485840152918301918101613696565b60ff191684525050508115159091020191503880808061367b565b80156137985780816000925b6137845750806136f383612368565b926137016040519485612330565b808452601f1961371082612368565b01366020860137915b61372257505090565b6000198201918083116122b35782600a90818404938285029285840414851517156122b35761375460ff938492612c67565b166030019182116122b357855111156125465760f81b6001600160f81b03191660001a908401601f015380613719565b91613790600a91612523565b9204806136e4565b50604051604081018181106001600160401b038211176106da5760405260018152600360fc1b60208201529056fea264697066735822122080241d5a80f5a007ae9a3f5492913c51608843d44428a749b17787fd1ce561ea64736f6c63430008140033",
  "linkReferences": {},
  "deployedLinkReferences": {}
}