{
  "_format": "hh-sol-artifact-1",
  "contractName": "Pixelmap",
  "sourceName": "contracts/Pixelmap.sol",
  "abi": [
    {
      "inputs": [],
      "stateMutability": "nonpayable",
      "type": "constructor"
    },
    {
      "inputs": [],
      "name": "ReentrancyGuardReentrantCall",
      "type": "error"
    },
    {
      "anonymous": false,
      "inputs": [
        {
          "indexed": false,
          "internalType": "uint256",
          "name": "tokenID",
          "type": "uint256"
        },
        {
          "indexed": false,
          "internalType": "address",
          "name": "bidder",
          "type": "address"
        },
        {
          "indexed": false,
          "internalType": "uint256",
          "name": "bid",
          "type": "uint256"
        }
      ],
      "name": "AuctionEnded",
      "type": "event"
    },
    {
      "anonymous": false,
      "inputs": [
        {
          "indexed": false,
          "internalType": "uint256",
          "name": "tokenID",
          "type": "uint256"
        },
        {
          "indexed": false,
          "internalType": "address",
          "name": "bidder",
          "type": "address"
        },
        {
          "indexed": false,
          "internalType": "uint256",
          "name": "bid",
          "type": "uint256"
        }
      ],
      "name": "BidPlace",
      "type": "event"
    },
    {
      "anonymous": false,
      "inputs": [
        {
          "indexed": false,
          "internalType": "uint256",
          "name": "tokenID",
          "type": "uint256"
        },
        {
          "indexed": false,
          "internalType": "address",
          "name": "bidder",
          "type": "address"
        },
        {
          "indexed": false,
          "internalType": "uint256",
          "name": "bid",
          "type": "uint256"
        }
      ],
      "name": "BidWithdrawn",
      "type": "event"
    },
    {
      "anonymous": false,
      "inputs": [
        {
          "indexed": false,
          "internalType": "uint256",
          "name": "cycle",
          "type": "uint256"
        }
      ],
      "name": "NFTMinted",
      "type": "event"
    },
    {
      "anonymous": false,
      "inputs": [
        {
          "indexed": true,
          "internalType": "uint256",
          "name": "x",
          "type": "uint256"
        },
        {
          "indexed": true,
          "internalType": "uint256",
          "name": "y",
          "type": "uint256"
        }
      ],
      "name": "PixelBought",
      "type": "event"
    },
    {
      "anonymous": false,
      "inputs": [
        {
          "indexed": true,
          "internalType": "uint256",
          "name": "x",
          "type": "uint256"
        },
        {
          "indexed": true,
          "internalType": "uint256",
          "name": "y",
          "type": "uint256"
        }
      ],
      "name": "PixelFilled",
      "type": "event"
    },
    {
      "anonymous": false,
      "inputs": [
        {
          "indexed": true,
          "internalType": "uint256",
          "name": "x",
          "type": "uint256"
        },
        {
          "indexed": true,
          "internalType": "uint256",
          "name": "y",
          "type": "uint256"
        }
      ],
      "name": "PixelValueSet",
      "type": "event"
    },
    {
      "anonymous": false,
      "inputs": [
        {
          "indexed": true,
          "internalType": "uint256",
          "name": "x",
          "type": "uint256"
        },
        {
          "indexed": true,
          "internalType": "uint256",
          "name": "y",
          "type": "uint256"
        }
      ],
      "name": "RoyaltiesPaid",
      "type": "event"
    },
    {
      "anonymous": false,
      "inputs": [
        {
          "indexed": true,
          "internalType": "address",
          "name": "owner",
          "type": "address"
        }
      ],
      "name": "VoteCasted",
      "type": "event"
    },
    {
      "inputs": [],
      "name": "ARTISTIC_PERIOD",
      "outputs": [
        {
          "internalType": "uint256",
          "name": "",
          "type": "uint256"
        }
      ],
      "stateMutability": "view",
      "type": "function"
    },
    {
      "inputs": [],
      "name": "AUCTION_DURATION",
      "outputs": [
        {
          "internalType": "uint256",
          "name": "",
          "type": "uint256"
        }
      ],
      "stateMutability": "view",
      "type": "function"
    },
    {
      "inputs": [],
      "name": "CYCLE_PERIOD",
      "outputs": [
        {
          "internalType": "uint256",
          "name": "",
          "type": "uint256"
        }
      ],
      "stateMutability": "view",
      "type": "function"
    },
    {
      "inputs": [],
      "name": "VOTING_PERIOD",
      "outputs": [
        {
          "internalType": "uint256",
          "name": "",
          "type": "uint256"
        }
      ],
      "stateMutability": "view",
      "type": "function"
    },
    {
      "inputs": [
        {
          "internalType": "address",
          "name": "",
          "type": "address"
        }
      ],
      "name": "balanceOf",
      "outputs": [
        {
          "internalType": "uint256",
          "name": "",
          "type": "uint256"
        }
      ],
      "stateMutability": "view",
      "type": "function"
    },
    {
      "inputs": [
        {
          "internalType": "uint256[]",
          "name": "xValues",
          "type": "uint256[]"
        },
        {
          "internalType": "uint256[]",
          "name": "yValues",
          "type": "uint256[]"
        }
      ],
      "name": "buyPixel",
      "outputs": [],
      "stateMutability": "nonpayable",
      "type": "function"
    },
    {
      "inputs": [
        {
          "internalType": "uint256",
          "name": "x",
          "type": "uint256"
        },
        {
          "internalType": "uint256",
          "name": "y",
          "type": "uint256"
        }
      ],
      "name": "calculateRoyalties",
      "outputs": [
        {
          "internalType": "uint256",
          "name": "",
          "type": "uint256"
        }
      ],
      "stateMutability": "view",
      "type": "function"
    },
    {
      "inputs": [],
      "name": "canvasCreation",
      "outputs": [
        {
          "internalType": "uint256",
          "name": "",
          "type": "uint256"
        }
      ],
      "stateMutability": "view",
      "type": "function"
    },
    {
      "inputs": [
        {
          "internalType": "bool",
          "name": "vote",
          "type": "bool"
        }
      ],
      "name": "castVote",
      "outputs": [],
      "stateMutability": "nonpayable",
      "type": "function"
    },
    {
      "inputs": [
        {
          "internalType": "uint256[]",
          "name": "xValues",
          "type": "uint256[]"
        },
        {
          "internalType": "uint256[]",
          "name": "yValues",
          "type": "uint256[]"
        }
      ],
      "name": "checkMultiplePixel",
      "outputs": [
        {
          "components": [
            {
              "internalType": "address",
              "name": "owner",
              "type": "address"
            },
            {
              "internalType": "uint256",
              "name": "shapeID",
              "type": "uint256"
            },
            {
              "internalType": "uint256",
              "name": "price",
              "type": "uint256"
            },
            {
              "internalType": "string",
              "name": "color",
              "type": "string"
            },
            {
              "internalType": "uint256",
              "name": "royaltyLastPaid",
              "type": "uint256"
            },
            {
              "internalType": "bool",
              "name": "askedToPayRoyalties",
              "type": "bool"
            },
            {
              "internalType": "uint256",
              "name": "royaltyAskDate",
              "type": "uint256"
            }
          ],
          "internalType": "struct Pixelmap.Pixel[]",
          "name": "",
          "type": "tuple[]"
        }
      ],
      "stateMutability": "view",
      "type": "function"
    },
    {
      "inputs": [
        {
          "internalType": "uint256",
          "name": "x",
          "type": "uint256"
        },
        {
          "internalType": "uint256",
          "name": "y",
          "type": "uint256"
        }
      ],
      "name": "checkPixel",
      "outputs": [
        {
          "components": [
            {
              "internalType": "address",
              "name": "owner",
              "type": "address"
            },
            {
              "internalType": "uint256",
              "name": "shapeID",
              "type": "uint256"
            },
            {
              "internalType": "uint256",
              "name": "price",
              "type": "uint256"
            },
            {
              "internalType": "string",
              "name": "color",
              "type": "string"
            },
            {
              "internalType": "uint256",
              "name": "royaltyLastPaid",
              "type": "uint256"
            },
            {
              "internalType": "bool",
              "name": "askedToPayRoyalties",
              "type": "bool"
            },
            {
              "internalType": "uint256",
              "name": "royaltyAskDate",
              "type": "uint256"
            }
          ],
          "internalType": "struct Pixelmap.Pixel",
          "name": "",
          "type": "tuple"
        }
      ],
      "stateMutability": "view",
      "type": "function"
    },
    {
      "inputs": [
        {
          "internalType": "uint256",
          "name": "_cycle",
          "type": "uint256"
        }
      ],
      "name": "checkVoteOutcome",
      "outputs": [],
      "stateMutability": "nonpayable",
      "type": "function"
    },
    {
      "inputs": [
        {
          "internalType": "uint256",
          "name": "_tokenID",
          "type": "uint256"
        }
      ],
      "name": "closeAuction",
      "outputs": [],
      "stateMutability": "nonpayable",
      "type": "function"
    },
    {
      "inputs": [
        {
          "internalType": "bytes[]",
          "name": "_pixels",
          "type": "bytes[]"
        }
      ],
      "name": "fillPixel",
      "outputs": [],
      "stateMutability": "nonpayable",
      "type": "function"
    },
    {
      "inputs": [],
      "name": "generateMerkle",
      "outputs": [
        {
          "internalType": "bytes32",
          "name": "",
          "type": "bytes32"
        }
      ],
      "stateMutability": "view",
      "type": "function"
    },
    {
      "inputs": [],
      "name": "generateSVG",
      "outputs": [
        {
          "internalType": "string",
          "name": "",
          "type": "string"
        }
      ],
      "stateMutability": "view",
      "type": "function"
    },
    {
      "inputs": [
        {
          "internalType": "address",
          "name": "_owner",
          "type": "address"
        }
      ],
      "name": "getBalance",
      "outputs": [
        {
          "internalType": "uint256",
          "name": "",
          "type": "uint256"
        }
      ],
      "stateMutability": "view",
      "type": "function"
    },
    {
      "inputs": [],
      "name": "getCurrentCycle",
      "outputs": [
        {
          "internalType": "uint256",
          "name": "",
          "type": "uint256"
        }
      ],
      "stateMutability": "view",
      "type": "function"
    },
    {
      "inputs": [
        {
          "internalType": "uint256",
          "name": "_tokenID",
          "type": "uint256"
        }
      ],
      "name": "getMintDate",
      "outputs": [
        {
          "internalType": "uint256",
          "name": "",
          "type": "uint256"
        }
      ],
      "stateMutability": "view",
      "type": "function"
    },
    {
      "inputs": [
        {
          "internalType": "address",
          "name": "_owner",
          "type": "address"
        }
      ],
      "name": "hasVoted",
      "outputs": [
        {
          "internalType": "bool",
          "name": "",
          "type": "bool"
        }
      ],
      "stateMutability": "view",
      "type": "function"
    },
    {
      "inputs": [],
      "name": "isInArtisticPeriod",
      "outputs": [
        {
          "internalType": "bool",
          "name": "",
          "type": "bool"
        }
      ],
      "stateMutability": "view",
      "type": "function"
    },
    {
      "inputs": [],
      "name": "isInVotingPeriod",
      "outputs": [
        {
          "internalType": "bool",
          "name": "",
          "type": "bool"
        }
      ],
      "stateMutability": "view",
      "type": "function"
    },
    {
      "inputs": [],
      "name": "manager",
      "outputs": [
        {
          "internalType": "address",
          "name": "",
          "type": "address"
        }
      ],
      "stateMutability": "view",
      "type": "function"
    },
    {
      "inputs": [],
      "name": "maxHeight",
      "outputs": [
        {
          "internalType": "uint256",
          "name": "",
          "type": "uint256"
        }
      ],
      "stateMutability": "view",
      "type": "function"
    },
    {
      "inputs": [],
      "name": "maxWidth",
      "outputs": [
        {
          "internalType": "uint256",
          "name": "",
          "type": "uint256"
        }
      ],
      "stateMutability": "view",
      "type": "function"
    },
    {
      "inputs": [
        {
          "internalType": "uint256",
          "name": "",
          "type": "uint256"
        }
      ],
      "name": "mintDates",
      "outputs": [
        {
          "internalType": "uint256",
          "name": "",
          "type": "uint256"
        }
      ],
      "stateMutability": "view",
      "type": "function"
    },
    {
      "inputs": [
        {
          "internalType": "uint256",
          "name": "",
          "type": "uint256"
        }
      ],
      "name": "nftAuctions",
      "outputs": [
        {
          "internalType": "address",
          "name": "winningAddr",
          "type": "address"
        },
        {
          "internalType": "uint256",
          "name": "winningBid",
          "type": "uint256"
        },
        {
          "internalType": "uint256",
          "name": "auctionStart",
          "type": "uint256"
        },
        {
          "internalType": "uint256",
          "name": "auctionEnd",
          "type": "uint256"
        },
        {
          "internalType": "bool",
          "name": "auctionEnded",
          "type": "bool"
        }
      ],
      "stateMutability": "view",
      "type": "function"
    },
    {
      "inputs": [],
      "name": "nftContract",
      "outputs": [
        {
          "internalType": "contract CanvasCollection",
          "name": "",
          "type": "address"
        }
      ],
      "stateMutability": "view",
      "type": "function"
    },
    {
      "inputs": [
        {
          "internalType": "uint256[]",
          "name": "xValues",
          "type": "uint256[]"
        },
        {
          "internalType": "uint256[]",
          "name": "yValues",
          "type": "uint256[]"
        }
      ],
      "name": "payRoyalties",
      "outputs": [],
      "stateMutability": "nonpayable",
      "type": "function"
    },
    {
      "inputs": [
        {
          "internalType": "uint256",
          "name": "",
          "type": "uint256"
        }
      ],
      "name": "pixelSVGs",
      "outputs": [
        {
          "internalType": "string",
          "name": "",
          "type": "string"
        }
      ],
      "stateMutability": "view",
      "type": "function"
    },
    {
      "inputs": [
        {
          "internalType": "uint256",
          "name": "_tokenID",
          "type": "uint256"
        }
      ],
      "name": "placeBid",
      "outputs": [],
      "stateMutability": "payable",
      "type": "function"
    },
    {
      "inputs": [
        {
          "internalType": "uint256",
          "name": "",
          "type": "uint256"
        }
      ],
      "name": "rowSVGs",
      "outputs": [
        {
          "internalType": "string",
          "name": "",
          "type": "string"
        }
      ],
      "stateMutability": "view",
      "type": "function"
    },
    {
      "inputs": [],
      "name": "royaltyAskPeriod",
      "outputs": [
        {
          "internalType": "uint256",
          "name": "",
          "type": "uint256"
        }
      ],
      "stateMutability": "view",
      "type": "function"
    },
    {
      "inputs": [],
      "name": "royaltyDenominator",
      "outputs": [
        {
          "internalType": "uint256",
          "name": "",
          "type": "uint256"
        }
      ],
      "stateMutability": "view",
      "type": "function"
    },
    {
      "inputs": [],
      "name": "royaltyRate",
      "outputs": [
        {
          "internalType": "uint256",
          "name": "",
          "type": "uint256"
        }
      ],
      "stateMutability": "view",
      "type": "function"
    },
    {
      "inputs": [
        {
          "internalType": "uint256",
          "name": "x",
          "type": "uint256"
        },
        {
          "internalType": "uint256",
          "name": "y",
          "type": "uint256"
        },
        {
          "internalType": "uint256",
          "name": "_price",
          "type": "uint256"
        }
      ],
      "name": "seekRoyaltyPayment",
      "outputs": [],
      "stateMutability": "nonpayable",
      "type": "function"
    },
    {
      "inputs": [
        {
          "internalType": "address",
          "name": "_nftContract",
          "type": "address"
        }
      ],
      "name": "setNFTContract",
      "outputs": [],
      "stateMutability": "nonpayable",
      "type": "function"
    },
    {
      "inputs": [
        {
          "internalType": "uint256[]",
          "name": "xValues",
          "type": "uint256[]"
        },
        {
          "internalType": "uint256[]",
          "name": "yValues",
          "type": "uint256[]"
        },
        {
          "internalType": "uint256[]",
          "name": "priceValues",
          "type": "uint256[]"
        }
      ],
      "name": "setPixelValue",
      "outputs": [],
      "stateMutability": "nonpayable",
      "type": "function"
    },
    {
      "inputs": [
        {
          "internalType": "address",
          "name": "_newToken",
          "type": "address"
        }
      ],
      "name": "updateCurrency",
      "outputs": [],
      "stateMutability": "nonpayable",
      "type": "function"
    },
    {
      "inputs": [
        {
          "internalType": "uint256",
          "name": "",
          "type": "uint256"
        }
      ],
      "name": "voteRegister",
      "outputs": [
        {
          "internalType": "uint256",
          "name": "yesVotes",
          "type": "uint256"
        },
        {
          "internalType": "uint256",
          "name": "noVotes",
          "type": "uint256"
        }
      ],
      "stateMutability": "view",
      "type": "function"
    },
    {
      "inputs": [
        {
          "internalType": "uint256",
          "name": "",
          "type": "uint256"
        },
        {
          "internalType": "uint256",
          "name": "",
          "type": "uint256"
        }
      ],
      "name": "window",
      "outputs": [
        {
          "internalType": "address",
          "name": "owner",
          "type": "address"
        },
        {
          "internalType": "uint256",
          "name": "shapeID",
          "type": "uint256"
        },
        {
          "internalType": "uint256",
          "name": "price",
          "type": "uint256"
        },
        {
          "internalType": "string",
          "name": "color",
          "type": "string"
        },
        {
          "internalType": "uint256",
          "name": "royaltyLastPaid",
          "type": "uint256"
        },
        {
          "internalType": "bool",
          "name": "askedToPayRoyalties",
          "type": "bool"
        },
        {
          "internalType": "uint256",
          "name": "royaltyAskDate",
          "type": "uint256"
        }
      ],
      "stateMutability": "view",
      "type": "function"
    }
  ],
  "bytecode": "0x60808060405234620000bd5760016000556032600355600580546001600160a01b031990811673c02aaa39b223fe8d0a0e5c4f27ead9083c756cc217909155906107b08082016001600160401b03811183821017620000a757829162003a3d833903906000f080156200009b5760018060a01b0316816006541617600655339060025416176002554260045560405161397a9081620000c38239f35b6040513d6000823e3d90fd5b634e487b7160e01b600052604160045260246000fd5b600080fdfe6080604052600436101561001257600080fd5b6000803560e01c8063040cdfd81461234c57806309eef43e146122ed578063113bc999146122cf578063236ed8f31461212a57806330b5d6d3146120f55780633323a706146118e65780633bdb693e14611bea578063481c6a7514611bc15780634882a7ea14611b905780635c8c64071461193e5780635e027601146118f05780636006ecc8146118eb57806363aa5ce2146118eb5780636e70fcc6146118e65780636ed958f1146110e057806370a082311461021d5780637ace48e714610eea5780638232b56214610c6757806385a9473d14610b4657806393cde51a14610ae25780639979ef45146108f2578063a271e525146108d5578063a52f27b51461074f578063a7ccabdf146106fd578063ad711e9e146105a5578063b1610d7e14610587578063b3a1ddf414610555578063bc5bc2fb146104fe578063be26ed7f14610529578063c4323fc1146104fe578063c4d1510d146104e0578063c4e4b90c146104b1578063c730e65d1461041b578063c7eab2ec1461030f578063d08629c1146102ed578063d56d229d146102c4578063e12459001461027d578063e50eb5da1461025f578063f8b2cb4f1461021d578063fd8d7ed3146102005763ff188dca146101e057600080fd5b346101fd57806003193601126101fd576020600454604051908152f35b80fd5b50346101fd57806003193601126101fd5760206040516103e88152f35b50346101fd5760203660031901126101fd576004356001600160a01b0381169081900361025b57816040916020935261104883522054604051908152f35b5080fd5b50346101fd5761027a610271366124c2565b929190916128be565b80f35b50346101fd5760203660031901126101fd576004359060408210156101fd576102c06102ac83611008016125b0565b6040519182916020835260208301906123b4565b0390f35b50346101fd57806003193601126101fd576001546040516001600160a01b039091168152602090f35b50346101fd5760206103076103013661237b565b90612f5f565b604051908152f35b50346101fd5761031e366124c2565b61032b8184959414612824565b61033484612656565b93610342604051958661258f565b808552601f1961035182612656565b01865b818110610404575050855b8181106103c45760408051602080825288518183018190528a93600582901b8401810192808c01929185015b8287106103985785850386f35b9091929382806103b4600193603f198a820301865288516123d9565b960192019601959291909261038b565b806103e86103d56001938589612814565b356103e1838789612814565b3590612e88565b6103f282896127ea565b526103fd81886127ea565b500161035f565b60209061040f612e50565b82828a01015201610354565b50346101fd5760409061042d3661237b565b90825260076020528282209082526020522060018060a01b038154166001820154916002810154610460600383016125b0565b9161049b600482015493600660ff6005850154169301549360405197889788526020880152604087015260e0606087015260e08601906123b4565b926080850152151560a084015260c08301520390f35b50346101fd5760203660031901126101fd57600435906110008210156101fd576102c06102ac836008016125b0565b50346101fd57806003193601126101fd576020600354604051908152f35b50346101fd5760203660031901126101fd576040602091600435815261104a83522054604051908152f35b50346101fd57806003193601126101fd5760206205460061054c60045442612de2565b04604051908152f35b50346101fd57806003193601126101fd5760206203f4806205460061057c60045442612de2565b061015604051908152f35b50346101fd57806003193601126101fd576020604051620151808152f35b50346101fd57806003193601126101fd57604051608081018181106001600160401b038211176106e757604052605781526020907f3c7376672077696474683d2236303022206865696768743d2236303022207669828201527f6577426f783d2230203020363030203630302220786d6c6e733d22687474703a6040820152761797bbbbbb973b999737b933979918181817b9bb33911f60491b6060820152915b6040811061069d575061068960266040518461066b8296518092878086019101612391565b8101651e17b9bb339f60d11b8582015203600681018552018361258f565b6102c06040519282849384528301906123b4565b91816106dc6106e2926106ce60405193826106c18694518092848088019101612391565b83010187611008016137d3565b03601f19810183528261258f565b9261266d565b610646565b634e487b7160e01b600052604160045260246000fd5b50346101fd5760203660031901126101fd576004356001600160a01b038181169182900361074b5761073490600254163314612def565b600180546001600160a01b03191691909117905580f35b8280fd5b50346101fd57806003193601126101fd57604051906202002082018281106001600160401b038211176106e7576040526110008252602091828082019162020000368437835b6040811061084e575060018060a01b03600654166040519384926317046b0160e11b8452602484019085600486015251809152604484019190875b8181106108355750505082809103915afa9182156108295780926107f9575b5050604051908152f35b9091508282813d8311610822575b610811818361258f565b810103126101fd57505138806107ef565b503d610807565b604051903d90823e3d90fd5b82518452899688965093840193909201916001016107d0565b90929150835b60408110610869575060010191849192610795565b6001600160fa1b03821682036108c1576001906108898360061b82612435565b818752600788526040872084885288526108ba6bffffffffffffffffffffffff19604089205460601b1691876127ea565b5201610854565b634e487b7160e01b85526011600452602485fd5b50346101fd57806003193601126101fd57602060405161fd208152f35b5060208060031936011261025b576004359061090c613050565b81835261104b9081815261092a60ff60046040872001541615612fbc565b82845281815261094260026040862001544211613004565b8284528181524260036040862001541115610aa2578284528181526001604085200154341115610a5e5782845281815283808080604081206001808060a01b03825416910154905af13d15610a59573d61099b8161267c565b906109a9604051928361258f565b815285833d92013e5b15610a1e57828452526040808320346001820181905581546001600160a01b0319163390811790925582519384526020840191909152908201527f8108a40c809d4e4f749358511f7baa90a1259a19024e438f728276ccd4c936869080606081015b0390a16001815580f35b6064906040519062461bcd60e51b8252600482015260146024820152732330b4b632b2103a379039b2b7321022ba3432b960611b6044820152fd5b6109b2565b6064906040519062461bcd60e51b82526004820152601b60248201527f6869676865722062696420616c7265616479206578697374696e6700000000006044820152fd5b6064906040519062461bcd60e51b825260048201526019602482015278185d58dd1a5bdb881a185cc8185b1c9958591e48195b991959603a1b6044820152fd5b50346101fd5760203660031901126101fd57604060a091600435815261104b60205220600180831b0381541690600181015490600281015460ff60046003840154930154169260405194855260208501526040840152606083015215156080820152f35b50346101fd5760603660031901126101fd5760043560243590610b7460018060a01b03600254163314612def565b808352600760209181835260408520848652835260ff60056040872001541680610c27575b15610bee5780855281835260408520848652835260443560026040872001558085528183526040852084865283526005604086200160ff19815416905584528152604083209183525280600660408220015580f35b80855281835260408520848652835260056040862001600160ff1982541617905584528152604083209183525242600660408320015580f35b5080855281835260408520848652835260066040862001546203f4808101809111610c53574211610b99565b634e487b7160e01b86526011600452602486fd5b50346101fd5760603660031901126101fd576001600160401b0360043581811161074b57610c99903690600401612476565b906024918235848111610ee657610cb4903690600401612476565b9290936044958635908111610ee257610cd1903690600401612476565b91909685851480610ed9575b15610e8657885b858110610d8957505050610cfa848685856128be565b865b838110610d07578780f35b80610d15600192848a612814565b35610d21828787612814565b358a5260206007815260408b2090610d3a848a8c612814565b358c5252600260408b200155610d51818686612814565b35610d5d82888a612814565b35907f1c362b7fc7c4865e1e7ede89f240549bbd8b5ee43b51383c9c0392687d6d10ec8b80a301610cfc565b610d94818787612814565b356040610da2838a8c612814565b35911090811591610e7a575b50610e3c57610dbe818787612814565b358a5260206007815260408b20610dd6838a8c612814565b358c52815260408b2054336001600160a01b0390911603610dfa5750600101610ce4565b6064907f6f6e6c79206f776e65722063616e2073657420706978656c2076616c7565000084601e876040519462461bcd60e51b86526004860152840152820152fd5b60405162461bcd60e51b815260206004820152601881850152774120706978656c206973206f7574206f6620626f756e647360401b81840152606490fd5b60409150101538610dae565b907f696e70757420617272617973206d757374206265206f66207468652073616d6560849260276040519362461bcd60e51b85526020600486015284015282015266040d8cadccee8d60cb1b6064820152fd5b50828514610cdd565b8780fd5b8580fd5b50346101fd5760208060031936011261025b57600435801515810361074b5760045462054600906203f48082610f208342612de2565b061061109f573385526110488452604085205490811561104a5782610f458242612de2565b048652611049938486526002604088200133600052865260ff604060002054166110155783919015610fec5750610f7e60045442612de2565b048552828452610f9360408620918254612435565b90555b610fa260045442612de2565b0483528152600260408320019033600052526040600020600160ff19825416179055337f7ce969a18bb6b0fba42c6d9746e7d08eeca4c661809659c91d276456e3153ac08280a280f35b610ff69042612de2565b04855282845261100e60016040872001918254612435565b9055610f96565b60405162461bcd60e51b815260048101879052600d60248201526c185b1c9958591e481d9bdd1959609a1b6044820152606490fd5b60405162461bcd60e51b815260048101869052602760248201527f6e6f20706978656c73206f776e6564203d206e6f20766f74657320746f2062656044820152660818d85cdd195960ca1b6064820152608490fd5b60405162461bcd60e51b81526004810185905260196024820152782b37ba34b7339031bab93932b73a363c903737ba1037b832b760391b6044820152606490fd5b50346101fd576110ef366124c2565b92916110fc848214612824565b845b818110611109578580f35b611114818386612814565b356040611122838887612814565b359110908115916118da575b506118bd5761113e818386612814565b358652600760205260408620611155828786612814565b35875260205260408620546001600160a01b031661121f57611178818386612814565b35865260076020526040862061118f828786612814565b358752602052604086203360018060a01b0319825416179055338652611048602052604086208054906001820180921161120b57556001905b6111d3818487612814565b356111df828887612814565b35907fee0e9a85d097f632450e6ac08750207c8f039246ee437b10eaf708b397d00ad88980a3016110fe565b634e487b7160e01b88526011600452602488fd5b61124061122d828487612814565b35611239838887612814565b3590612f5f565b61124b828487612814565b358752600760205260408720611262838887612814565b3588526020528060026040892001541160001461163c57611284828487612814565b35875260076020526040872061129b838887612814565b3588526020526112b281600260408a200154612de2565b9060018060a01b03600554166040516370a0823160e01b8152336004820152602081602481855afa8015611631578a906115fd575b61132291506112f786888b612814565b358b52600760205260408b2061130e878c8b612814565b358c52602052600260408c20015410612d32565b604051636eb1769f60e11b815233600482015230602482015289602082604481865afa9182156115f057868b898c8c9486976115a5575b509461139a9461138b8560029561137b6113f09e9b9860409760209e9c612814565b35855260078c5285852093612814565b35825288522001541115612d8a565b6113a586888b612814565b358b526007835260408b206113bb878c8b612814565b358c5283526040808c205490516323b872dd60e01b815295869384928e92849290916001600160a01b0316336004850161289c565b03925af190811561159a5761143f9260209261157d575b506005546002546040516323b872dd60e01b81529485936001600160a01b039384169385938e9385939092909116336004850161289c565b03925af1801561157257611543575b5061145a818386612814565b358652600760205260408620611471828786612814565b35875260209081526040808820546001600160a01b03168852611048918290528720805460001981019190821161152f5755338752602052604086208054906001820180921161120b57556001906114ca818487612814565b3587526007602052604087206114e1828887612814565b3588526020526040872033838060a01b0319825416179055611504818487612814565b35875260076020526040872061151b828887612814565b3588526020524260046040892001556111c8565b634e487b7160e01b89526011600452602489fd5b6115649060203d60201161156b575b61155c818361258f565b810190612884565b503861144e565b503d611552565b6040513d89823e3d90fd5b61159390833d851161156b5761155c818361258f565b5038611407565b6040513d8a823e3d90fd5b979996505050505050506020823d6020116115e8575b816115c86020938361258f565b810103126115e35790519092908987868b898c61139a611359565b600080fd5b3d91506115bb565b50604051903d90823e3d90fd5b506020813d602011611629575b816116176020938361258f565b810103126115e35761132290516112e7565b3d915061160a565b6040513d8c823e3d90fd5b506005546040516370a0823160e01b81523360048201526024916001600160a01b0316906020818481855afa801561187e578990611889575b6116b0915061168585878a612814565b358a52600760205260408a2061169c868b8a612814565b358b52602052600260408b20015410612d32565b604051636eb1769f60e11b8152336004820152306024820152602081604481855afa90811561187e57899161184a575b5061177a916117206020926116f687898c612814565b358c526007845260408c2061170c888d8c612814565b358d528452600260408d2001541115612d8a565b6002546001600160a01b03169061173886888b612814565b358b526007835260408b2061174e878c8b612814565b358c528352600260408c200154918b6040518096819582946323b872dd60e01b8452336004850161289c565b03925af1801561159a5761182b575b50611795828487612814565b3587526007602052604087206117ac838887612814565b35885260209081526040808920546001600160a01b031689526110489182905288208054600019810191908211611818575533885260205260408720805491600183018093116118065750556001906114ca818487612814565b634e487b7160e01b8952601160045288fd5b634e487b7160e01b8a526011600452838afd5b6118439060203d60201161156b5761155c818361258f565b5038611789565b90506020813d602011611876575b816118656020938361258f565b810103126115e3575161177a6116e0565b3d9150611858565b6040513d8b823e3d90fd5b506020813d6020116118b5575b816118a36020938361258f565b810103126115e3576116b09051611675565b3d9150611896565b60405162461bcd60e51b8152806118d660048201612697565b0390fd5b6040915010153861112e565b612458565b6124a6565b50346101fd5760203660031901126101fd576004356001600160a01b038181169182900361074b5761192790600254163314612def565b600580546001600160a01b03191691909117905580f35b50346101fd5760208060031936011261025b57600435906205460061196560045442612de2565b04821015611b2d5781835261104980825261198a604085206001815491015490612435565b908115611af857838552825260408420549060011c106119a8578280f35b6001546001600160a01b03929084908416803b1561025b578180916024604051809481936335313c2160e11b83523060048401525af18015611aed57611ad5575b50506004927fd9dc24857f317ed9abbbb42e920ede0104231eb1d3d70236a74887ffaf159868838093604051908152a160015416604051938480926318160ddd60e01b82525afa918215611aca578392611a9b575b506000198201918211611a875781835261104a815242604084205561104b9081815242600260408620015561fd204201928342116108c157845252600360408320015538808280f35b634e487b7160e01b83526011600452602483fd5b9080925081813d8311611ac3575b611ab3818361258f565b810103126115e357519038611a3e565b503d611aa9565b6040513d85823e3d90fd5b611ade90612546565b611ae95783386119e9565b8380fd5b6040513d84823e3d90fd5b60405162461bcd60e51b815260048101849052600d60248201526c139bc81d9bdd195cc818d85cdd609a1b6044820152606490fd5b6084906040519062461bcd60e51b82526004820152603660248201527f636865636b20766f7465206f7574636f6d6573206f6e6c7920706f737369626c6044820152756520666f7220636f6e636c75646564206379636c657360501b6064820152fd5b50346101fd57806003193601126101fd5760206203f48062054600611bb760045442612de2565b0610604051908152f35b50346101fd57806003193601126101fd576002546040516001600160a01b039091168152602090f35b50346101fd5760203660031901126101fd576004356001600160401b03811161025b57611c1b903690600401612476565b6203f48062054600611c2f60045442612de2565b0610156120a5576040519161082083018381106001600160401b038211176106e75760405260408352610800366020850137835b828110611d3d57505050815b60408110611c7b578280f35b611c8581836127ea565b51611c93575b600101611c6f565b604051611c9f81612574565b838152600682901b6001600160fa1b03831683036108c157806040019081604011610c5357905b808210611ce757505090611ce060019282611008016126c8565b9050611c8b565b9091611000831015611d295760206106dc611d23926106ce6040519382611d178694518092848088019101612391565b830101876008016137d3565b90611cc6565b634e487b7160e01b86526032600452602486fd5b600581811b830135601e19843603018112156120a157830180356001600160401b038111610ee2576020820192813603841361209d57829182019060208201916080938491031261209957896060850135938501356001600160401b03811161025b57850183603f8201121561025b576020810135611dbb8161267c565b94611dc9604051968761258f565b8186526040828401011161074b57806040602093018387013784010152604085351080159061208b575b6118bd57600a83101561204d5760ff9085358b52600760205260408b2060408601358c5260205260408b20015416611ff05783358952600760209081526040808b20858201358c529091528920546001600160a01b03163314611e63575b50505050611e5e9061266d565b611c63565b611e8a9084358a52600760205260408a2060408501358b52602052600360408b20016126c8565b82358852600760209081526040808a2084820135808c5292528920600101919091556001600160fa1b0381169003611fdc57611ece604082013560061b8335612435565b8235885260076020526040882060408301358952602052600160408920015460098435818635020481148535151715611fc8576040840135818102819004821490151715611fc85790611f539185358b52600760205260408b2060408601358c52602052611f41600360408d20016125b0565b91816040870135029187350290613073565b90611000811015611fb45791611f73604092611e5e9695946008016126c8565b6001611f82838301358a6127ea565b52013590357fa9a418da632d42c446a125f10b007831ba0e348168b6b2474a2383ac5df4c2808880a390388080611e51565b634e487b7160e01b89526032600452602489fd5b634e487b7160e01b8a52601160045260248afd5b634e487b7160e01b87526011600452602487fd5b60405162461bcd60e51b815260206004820152602f60248201527f6f776e6572207761732061736b656420746f20666972737420736574746c652060448201526e1c9bde585b1d1e481c185e5b595b9d608a1b6064820152608490fd5b60405162461bcd60e51b81526020600482015260166024820152757368617065204944206e6f7420617661696c61626c6560501b6044820152606490fd5b506040808501351015611df3565b8980fd5b8880fd5b8680fd5b60405162461bcd60e51b815260206004820152602260248201527f417274697374696320706572696f642063757272656e746c79206e6f74206f7060448201526132b760f11b6064820152608490fd5b50346101fd5760203660031901126101fd57604080916004358152611049602052206001815491015482519182526020820152f35b50346101fd57602090816003193601126101fd57600435612149613050565b80825261104b9081845261216760ff60046040862001541615612fbc565b80835281845261217f60026040852001544211613004565b8083528184524260036040852001541015612292578083528184526040832060048101805460ff191660019081179091555490546001600160a01b0393918416908416813b15610ee657836121ee92879283604051809681958294632142170760e11b8452306004850161289c565b03925af1801561228757612256575b5081845290935260408083208054600190910154825195865292166001600160a01b03166020850152830152907fd2aa34a4fdbbc6dff6a3e56f46e0f3ae2a31d7785ff3487aa5c95c642acea501908060608101610a14565b936122817fd2aa34a4fdbbc6dff6a3e56f46e0f3ae2a31d7785ff3487aa5c95c642acea50195612546565b936121fd565b6040513d87823e3d90fd5b60405162461bcd60e51b8152600481018590526015602482015274185d58dd1a5bdb881b9bdd08195b991959081e595d605a1b6044820152606490fd5b50346101fd57806003193601126101fd576020604051620546008152f35b50346101fd5760203660031901126101fd576004356001600160a01b0381169081900361025b57604060209260ff926205460061232c60045442612de2565b048252611049855260028383200190825284522054166040519015158152f35b50346101fd576102c06123676123613661237b565b90612e88565b6040519182916020835260208301906123d9565b60409060031901126115e3576004359060243590565b60005b8381106123a45750506000910152565b8181015183820152602001612394565b906020916123cd81518092818552858086019101612391565b601f01601f1916010190565b9060018060a01b038251168152602082015160208201526040820151604082015260c080612416606085015160e0606086015260e08501906123b4565b936080810151608085015260a0810151151560a0850152015191015290565b9190820180921161244257565b634e487b7160e01b600052601160045260246000fd5b346115e35760003660031901126115e35760206040516203f4808152f35b9181601f840112156115e3578235916001600160401b0383116115e3576020808501948460051b0101116115e357565b346115e35760003660031901126115e357602060405160408152f35b60406003198201126115e3576001600160401b03916004358381116115e357826124ee91600401612476565b939093926024359182116115e35761250891600401612476565b9091565b90600182811c9216801561253c575b602083101461252657565b634e487b7160e01b600052602260045260246000fd5b91607f169161251b565b6001600160401b0381116106e757604052565b60e081019081106001600160401b038211176106e757604052565b602081019081106001600160401b038211176106e757604052565b90601f801991011681019081106001600160401b038211176106e757604052565b90604051918260008254926125c48461250c565b90818452600194858116908160001461263357506001146125f0575b50506125ee9250038361258f565b565b9093915060005260209081600020936000915b81831061261b5750506125ee935082010138806125e0565b85548884018501529485019487945091830191612603565b9150506125ee94506020925060ff191682840152151560051b82010138806125e0565b6001600160401b0381116106e75760051b60200190565b60001981146124425760010190565b6001600160401b0381116106e757601f01601f191660200190565b606090602081526016602082015275706978656c206973206f7574206f6620626f756e647360501b60408201520190565b91909182516001600160401b0381116106e7576126e5825461250c565b601f811161278f575b50602080601f831160011461272b575081929394600092612720575b50508160011b916000199060031b1c1916179055565b01519050388061270a565b90601f198316958460005282600020926000905b8882106127775750508360019596971061275e575b505050811b019055565b015160001960f88460031b161c19169055388080612754565b8060018596829496860151815501950193019061273f565b600083815260208120601f840160051c810192602085106127cd575b601f0160051c01915b8281106127c25750506126ee565b8181556001016127b4565b90925082906127ab565b8181029291811591840414171561244257565b80518210156127fe5760209160051b010190565b634e487b7160e01b600052603260045260246000fd5b91908110156127fe5760051b0190565b1561282b57565b60405162461bcd60e51b815260206004820152602b60248201527f7820616e64207920696e7075742061727261797320617265206f66207661726960448201526a6f7573206c656e6774687360a81b6064820152608490fd5b908160209103126115e3575180151581036115e35790565b6001600160a01b03918216815291166020820152604081019190915260600190565b929190916128cd818414612824565b60005b8381106128de575050505050565b6128e9818587612814565b356128f5828486612814565b3560408080931091821592612d27575b5050612d1057612916828688612814565b35600052600760209080825282600020612931858789612814565b35600052825260018060a01b03338185600020541603612cc15761295685898b612814565b356000528183528360002061296c86888a612814565b3560005283526004428186600020015403612995575b50505050506129909061266d565b6128d0565b6129af6129a3878b8d612814565b35611239888a8c612814565b600592808454169087516370a0823160e01b8152338582015260249088818381875afa908115612c3557908591600091612c91575b5010612c40578851636eb1769f60e11b8152338682019081523060208201528990829081906040010381875afa908115612c3557908591600091612c05575b5010612bb45750918691612a52936002541660008a518096819582946323b872dd60e01b8452338b850161289c565b03925af18015612ba95792612aac888c8e829a97968e612a998f9e6129909f869d9a829f9c612b8c575b50612a88828888612814565b356000528a8c528c60002093612814565b3560005288524290896000200155612814565b3560005281835283600020612ac2878b8d612814565b3560005283528b60ff8286600020015416612b25575b92505050612ae893929150612814565b35612af4828587612814565b35907fe61af2269c9afbdb69efce2b15f2a464f8ee6237f105b3d4024f2e824a9f0af3600080a39038808080612982565b600096600696612b3492612814565b358652818352838620612b48888b8d612814565b358752835283862001805460ff19169055612b64868b8d612814565b358552815281842090612b7886898b612814565b35855252822001558085388080808b612ad8565b612ba2908d803d1061156b5761155c818361258f565b5038612a7c565b86513d6000823e3d90fd5b8460276084928a8c519362461bcd60e51b85528401528201527f696e73756666696369656e7420616c6c6f77616e636520746f2070617920726f60448201526679616c7469657360c81b6064820152fd5b91508982813d8311612c2e575b612c1c818361258f565b810103126101fd575084905138612a23565b503d612c12565b8a513d6000823e3d90fd5b8460276084928a8c519362461bcd60e51b85528401528201527f6e6f742073756666696369656e742062616c616e636520746f2070617920726f60448201526679616c7469657360c81b6064820152fd5b91508982813d8311612cba575b612ca8818361258f565b810103126101fd5750849051386129e4565b503d612c9e565b835162461bcd60e51b815260048101849052602260248201527f6f6e6c7920706978656c206f776e65722063616e2070617920726f79616c7469604482015261657360f01b6064820152608490fd5b5162461bcd60e51b8152806118d660048201612697565b101590508138612905565b15612d3957565b60405162461bcd60e51b815260206004820152602360248201527f6e6f742073756666696369656e742062616c616e636520746f206275792070696044820152621e195b60ea1b6064820152608490fd5b15612d9157565b60405162461bcd60e51b815260206004820152602360248201527f696e73756666696369656e7420616c6c6f77616e636520746f206275792070696044820152621e195b60ea1b6064820152608490fd5b9190820391821161244257565b15612df657565b60405162461bcd60e51b815260206004820152602c60248201527f6f776e65722063757272656e74206d616e616765722063616e2063616c6c207460448201526b3434b990333ab731ba34b7b760a11b6064820152608490fd5b60405190612e5d82612559565b8160c06000918281528260208201528260408201526060808201528260808201528260a08201520152565b90612e91612e50565b5060409182811080612f56575b15612f1c5760005260076020528160002090600052602052600681600020825192612ec884612559565b81546001600160a01b0316845260018201546020850152600282015490840152612ef4600382016125b0565b60608401526004810154608084015260ff600582015416151560a0840152015460c082015290565b825162461bcd60e51b8152602060048201526013602482015272706978656c206f7574206f6620626f756e647360681b6044820152606490fd5b50828210612e9e565b612faf612fb8916002604064073df16000956000908482526007602052828220818352602052612f956004848420015442612de2565b9482526007602052828220908252602052200154906127d7565b600354906127d7565b0490565b15612fc357565b60405162461bcd60e51b815260206004820152601960248201527861756374696f6e2068617320656e64656420616c726561647960381b6044820152606490fd5b1561300b57565b60405162461bcd60e51b815260206004820152601b60248201527f61756374696f6e20686173206e6f7420737461727465642079657400000000006044820152606490fd5b600260005414613061576002600055565b604051633ee5aeb560e01b8152600490fd5b9192909282156137175760018314613648576002831461361e57600383146135c25760049283811461356e576005811461341157600681146133bf57600781146133585760088114613275576009146130dd57505050506040516130d681612574565b6000815290565b6130e684613856565b906130f081613856565b600886018087116132605761310490613856565b946008830180931161324b57509161322c82613248969461313961313361312d60499997613856565b9a613856565b92613856565b91604051998a97602a6131698a602099693c7061746820643d224d60b01b8b8301528a8151948593019101612391565b890193600160fd1b9485602a82015261318b825180938b602b85019101612391565b016b010209c101c101810181018960a51b602b8201526131b4825180938a603785019101612391565b018360378201526131ce8251809389603885019101612391565b0161081360f21b60388201526131ed8251809388603a85019101612391565b0190603a8201526132078251809386603b85019101612391565b019169102d11103334b6361e9160b11b603b8401528351938491604585019101612391565b01631110179f60e11b604582015203602981018452018261258f565b90565b601190634e487b7160e01b6000525260246000fd5b601186634e487b7160e01b6000525260246000fd5b509260088101938482116133435761328c85613856565b9161329f61329983613856565b91613856565b946008830180931161324b57509161322c8261324896946132c861313361312d60499997613856565b91604051998a97602a6132f88a602099693c7061746820643d224d60b01b8b8301528a8151948593019101612391565b890193600160fd1b9485602a82015261331a825180938b602b85019101612391565b016b010209c101c101810181018160a51b602b8201526131b4825180938a603785019101612391565b601184634e487b7160e01b6000525260246000fd5b5061336284613856565b9061336c81613856565b600886018096116133aa5761338086613856565b94600883019081841161324b5750604994926132489694926132c861313361312d61322c95613856565b601185634e487b7160e01b6000525260246000fd5b506133c984613856565b90600881018082116133aa576133de90613856565b93600886019081871161324b57509161322c604994926134016132489795613856565b946132c861313361312d84613856565b509261341c81613856565b9060088501908186116133aa5761343282613856565b9061344561343f82613856565b97613856565b956008820180921161324b5750603f949261324896949261346b61313361355294613856565b91604051998a97602a61349b8a602099693c7061746820643d224d60b01b8b8301528a8151948593019101612391565b890193600160fd1b9485602a8201526134bd825180938b602b85019101612391565b019161081360f21b9283602b8201526134df825180938b602d85019101612391565b0184602d8201526134f9825180938a602e85019101612391565b0190602e8201526135138251809388603085019101612391565b0190603082015261352d8251809386603185019101612391565b019169103d11103334b6361e9160b11b60318401528351938491603b85019101612391565b01631110179f60e11b603b82015203601f81018452018261258f565b509291600883019081841161324b5761358682613856565b91600886019182871161324b57509161355282613248969461346b61313361343f6135bc6135b6603f9b99613856565b94613856565b9b613856565b91506135cd83613856565b926135d783613856565b9160088201809211612442576135ec82613856565b946135ff6135f986613856565b93613856565b94600881018091116124425761324895603f9561346b61355293613856565b915061362983613856565b9261363383613856565b9160088201808311612442576135ec90613856565b915091600481018091116124425761365f90613856565b9060048101809111612442576132489161367a604492613856565b936040519485926b1e31b4b931b6329031bc1e9160a11b60208501526136aa815180926020602c88019101612391565b830165111031bc9e9160d11b602c8201526136cf825180936020603285019101612391565b016d1110391e911a11103334b6361e9160911b60328201526136fb825180936020604085019101612391565b01631110179f60e11b604082015203602481018452018261258f565b613248925061372b613299604f9395613856565b93604051948592681e3932b1ba103c1e9160b91b6020850152613758815180926020602988019101612391565b83016411103c9e9160d91b602982015261377c825180936020602e85019101612391565b017f222077696474683d223822206865696768743d2238222066696c6c3d22000000602e8201526137b7825180936020604b85019101612391565b01631110179f60e11b604b82015203602f81018452018261258f565b6000929181546137e28161250c565b9260019180831690811561383b57506001146137ff575b50505050565b90919293945060005260209081600020906000915b85831061382a57505050500190388080806137f9565b805485840152918301918101613814565b60ff19168452505050811515909102019150388080806137f9565b80156139165780816000925b6139025750806138718361267c565b9261387f604051948561258f565b808452601f1961388e8261267c565b01366020860137915b6138a057505090565b6000198201918083116124425782600a9081840493828502928584041485151715612442576138d260ff938492612de2565b1660300191821161244257855111156127fe5760f81b6001600160f81b03191660001a908401601f015380613897565b9161390e600a9161266d565b920480613862565b50604051604081018181106001600160401b038211176106e75760405260018152600360fc1b60208201529056fea264697066735822122038ee52806a729bf3ec4c432a77b1c29996ae83ba94c6605ec480c90d2272e72c64736f6c634300081400336080806040523461001657610794908161001c8239f35b600080fdfe6080604052600436101561001257600080fd5b6000803560e01c9081632e08d6021461007a5750806358161a4214610075578063b861619514610070578063cf06c7b71461006b578063dd1d2599146100665763e27d51531461006157600080fd5b6103f7565b6103d6565b6103b0565b6102bb565b61020d565b346101515760203660031901126101515760043567ffffffffffffffff811161014d576100ab9036906004016101ad565b600180825111156100fc57805b6100de575b6100da6100c98361045a565b516040519081529081906020820190565b0390f35b80825111156100f7576100f18192610511565b916100b8565b6100bd565b60405162461bcd60e51b815260206004820152602360248201527f776f6e27742067656e657261746520726f6f7420666f722073696e676c65206c60448201526232b0b360e91b6064820152608490fd5b5080fd5b80fd5b634e487b7160e01b600052604160045260246000fd5b6040519190601f01601f1916820167ffffffffffffffff81118382101761019057604052565b610154565b67ffffffffffffffff81116101905760051b60200190565b9080601f83011215610208578135906101cd6101c883610195565b61016a565b9182938184526020808095019260051b820101928311610208578301905b8282106101f9575050505090565b813581529083019083016101eb565b600080fd5b346102085760603660031901126102085760243567ffffffffffffffff81116102085761023e9036906004016101ad565b60443581516000925b81841061025d5760405160043584148152602090f35b909161027660019161026f868561047d565b5190610437565b9301929190610247565b6020908160408183019282815285518094520193019160005b8281106102a7575050505090565b835185529381019392810192600101610299565b346102085760403660031901126102085760043567ffffffffffffffff8111610208576102ec9036906004016101ad565b602435906001906102ff82825111610491565b61031161030c8251610632565b6104e9565b92600080845b61032a575b604051806100da8882610280565b8351858111156103aa578584939261036f92828080981614600014610379575061035860001986018861047d565b51610363828b61047d565b525b0192841c94610511565b9392919091610317565b85830190810361039557508361038f828b61047d565b52610365565b61039f908861047d565b5161038f828b61047d565b5061031c565b346102085760203660031901126102085760206103ce600435610632565b604051908152f35b346102085760403660031901126102085760206103ce602435600435610437565b3461020857602036600319011261020857600435806000815b61042a576020925060405191806001811901161490038152f35b600192831c920182610410565b8181101561044e576000526020525b604060002090565b90600052602052610446565b8051156104675760200190565b634e487b7160e01b600052603260045260246000fd5b80518210156104675760209160051b010190565b1561049857565b60405162461bcd60e51b8152602060048201526024808201527f776f6e27742067656e65726174652070726f6f6620666f722073696e676c65206044820152633632b0b360e11b6064820152608490fd5b906104f66101c883610195565b8281528092610507601f1991610195565b0190602036910137565b90815160019081808216146000146105a9576105308282811c016104e9565b916000196105408382018761047d565b516000805260205261055a6040600020918551018561047d565b525b600019909101906000805b8382106105775750929450505050565b82600291610595610588858b61047d565b5161026f8487018c61047d565b61059f828961047d565b5201910190610567565b6105b481831c6104e9565b9161055c565b90604082018092116105c857565b634e487b7160e01b600052601160045260246000fd5b90602082018092116105c857565b90601082018092116105c857565b90600882018092116105c857565b90600482018092116105c857565b90600282018092116105c857565b90600182018092116105c857565b60018111156107585760009080600160801b81101561074d575b600290600160401b81101561073a575b640100000000811015610727575b62010000811015610714575b610100811015610701575b60108110156106ee575b60048110156106dc575b10156106cc575b806106a78119610624565b1614806106c3575b156106b75790565b6106c090610624565b90565b508015156106af565b906106d690610624565b9061069c565b6106e890821c93610616565b92610695565b6106fb9060041c93610608565b9261068b565b61070e9060081c936105fa565b92610681565b6107219060101c936105ec565b92610676565b6107349060201c936105de565b9261066a565b6107479060401c936105ba565b9261065c565b60809250821c61064c565b5060009056fea264697066735822122029596db90313b4fb257efd2fbf9ba954b5a2054bf304a0aa15f5e78439e12f4364736f6c63430008140033",
  "linkReferences": {},
  "deployedLinkReferences": {}
}