{
  "_format": "hh-sol-artifact-1",
  "contractName": "Pixelmap",
  "sourceName": "contracts/Pixelmap.sol",
  "abi": [
    {
      "inputs": [],
      "stateMutability": "nonpayable",
      "type": "constructor"
    },
    {
      "anonymous": false,
      "inputs": [
        {
          "indexed": false,
          "internalType": "uint256",
          "name": "cycle",
          "type": "uint256"
        }
      ],
      "name": "NFTMinted",
      "type": "event"
    },
    {
      "anonymous": false,
      "inputs": [
        {
          "indexed": true,
          "internalType": "uint256",
          "name": "x",
          "type": "uint256"
        },
        {
          "indexed": true,
          "internalType": "uint256",
          "name": "y",
          "type": "uint256"
        }
      ],
      "name": "PixelBought",
      "type": "event"
    },
    {
      "anonymous": false,
      "inputs": [
        {
          "indexed": true,
          "internalType": "uint256",
          "name": "x",
          "type": "uint256"
        },
        {
          "indexed": true,
          "internalType": "uint256",
          "name": "y",
          "type": "uint256"
        }
      ],
      "name": "PixelFilled",
      "type": "event"
    },
    {
      "anonymous": false,
      "inputs": [
        {
          "indexed": true,
          "internalType": "uint256",
          "name": "x",
          "type": "uint256"
        },
        {
          "indexed": true,
          "internalType": "uint256",
          "name": "y",
          "type": "uint256"
        }
      ],
      "name": "PixelValueSet",
      "type": "event"
    },
    {
      "anonymous": false,
      "inputs": [
        {
          "indexed": true,
          "internalType": "uint256",
          "name": "x",
          "type": "uint256"
        },
        {
          "indexed": true,
          "internalType": "uint256",
          "name": "y",
          "type": "uint256"
        }
      ],
      "name": "RoyaltiesPaid",
      "type": "event"
    },
    {
      "anonymous": false,
      "inputs": [
        {
          "indexed": true,
          "internalType": "address",
          "name": "owner",
          "type": "address"
        }
      ],
      "name": "VoteCasted",
      "type": "event"
    },
    {
      "inputs": [],
      "name": "ARTISTIC_PERIOD",
      "outputs": [
        {
          "internalType": "uint256",
          "name": "",
          "type": "uint256"
        }
      ],
      "stateMutability": "view",
      "type": "function"
    },
    {
      "inputs": [],
      "name": "CYCLE_PERIOD",
      "outputs": [
        {
          "internalType": "uint256",
          "name": "",
          "type": "uint256"
        }
      ],
      "stateMutability": "view",
      "type": "function"
    },
    {
      "inputs": [],
      "name": "VOTING_PERIOD",
      "outputs": [
        {
          "internalType": "uint256",
          "name": "",
          "type": "uint256"
        }
      ],
      "stateMutability": "view",
      "type": "function"
    },
    {
      "inputs": [
        {
          "internalType": "address",
          "name": "",
          "type": "address"
        }
      ],
      "name": "balanceOf",
      "outputs": [
        {
          "internalType": "uint256",
          "name": "",
          "type": "uint256"
        }
      ],
      "stateMutability": "view",
      "type": "function"
    },
    {
      "inputs": [
        {
          "internalType": "uint256[]",
          "name": "xValues",
          "type": "uint256[]"
        },
        {
          "internalType": "uint256[]",
          "name": "yValues",
          "type": "uint256[]"
        }
      ],
      "name": "buyPixel",
      "outputs": [],
      "stateMutability": "nonpayable",
      "type": "function"
    },
    {
      "inputs": [
        {
          "internalType": "uint256",
          "name": "x",
          "type": "uint256"
        },
        {
          "internalType": "uint256",
          "name": "y",
          "type": "uint256"
        }
      ],
      "name": "calculateRoyalties",
      "outputs": [
        {
          "internalType": "uint256",
          "name": "",
          "type": "uint256"
        }
      ],
      "stateMutability": "view",
      "type": "function"
    },
    {
      "inputs": [],
      "name": "canvasCreation",
      "outputs": [
        {
          "internalType": "uint256",
          "name": "",
          "type": "uint256"
        }
      ],
      "stateMutability": "view",
      "type": "function"
    },
    {
      "inputs": [
        {
          "internalType": "bool",
          "name": "vote",
          "type": "bool"
        }
      ],
      "name": "castVote",
      "outputs": [],
      "stateMutability": "nonpayable",
      "type": "function"
    },
    {
      "inputs": [
        {
          "internalType": "uint256[]",
          "name": "xValues",
          "type": "uint256[]"
        },
        {
          "internalType": "uint256[]",
          "name": "yValues",
          "type": "uint256[]"
        }
      ],
      "name": "checkMultiplePixel",
      "outputs": [
        {
          "components": [
            {
              "internalType": "address",
              "name": "owner",
              "type": "address"
            },
            {
              "internalType": "uint256",
              "name": "shapeID",
              "type": "uint256"
            },
            {
              "internalType": "uint256",
              "name": "price",
              "type": "uint256"
            },
            {
              "internalType": "string",
              "name": "color",
              "type": "string"
            },
            {
              "internalType": "uint256",
              "name": "royaltyLastPaid",
              "type": "uint256"
            },
            {
              "internalType": "bool",
              "name": "askedToPayRoyalties",
              "type": "bool"
            },
            {
              "internalType": "uint256",
              "name": "royaltyAskDate",
              "type": "uint256"
            }
          ],
          "internalType": "struct Pixelmap.Pixel[]",
          "name": "",
          "type": "tuple[]"
        }
      ],
      "stateMutability": "view",
      "type": "function"
    },
    {
      "inputs": [
        {
          "internalType": "uint256",
          "name": "x",
          "type": "uint256"
        },
        {
          "internalType": "uint256",
          "name": "y",
          "type": "uint256"
        }
      ],
      "name": "checkPixel",
      "outputs": [
        {
          "components": [
            {
              "internalType": "address",
              "name": "owner",
              "type": "address"
            },
            {
              "internalType": "uint256",
              "name": "shapeID",
              "type": "uint256"
            },
            {
              "internalType": "uint256",
              "name": "price",
              "type": "uint256"
            },
            {
              "internalType": "string",
              "name": "color",
              "type": "string"
            },
            {
              "internalType": "uint256",
              "name": "royaltyLastPaid",
              "type": "uint256"
            },
            {
              "internalType": "bool",
              "name": "askedToPayRoyalties",
              "type": "bool"
            },
            {
              "internalType": "uint256",
              "name": "royaltyAskDate",
              "type": "uint256"
            }
          ],
          "internalType": "struct Pixelmap.Pixel",
          "name": "",
          "type": "tuple"
        }
      ],
      "stateMutability": "view",
      "type": "function"
    },
    {
      "inputs": [
        {
          "internalType": "uint256",
          "name": "_cycle",
          "type": "uint256"
        }
      ],
      "name": "checkVoteOutcome",
      "outputs": [],
      "stateMutability": "nonpayable",
      "type": "function"
    },
    {
      "inputs": [
        {
          "internalType": "bytes[]",
          "name": "_pixels",
          "type": "bytes[]"
        }
      ],
      "name": "fillPixel",
      "outputs": [],
      "stateMutability": "nonpayable",
      "type": "function"
    },
    {
      "inputs": [],
      "name": "generateSVG",
      "outputs": [
        {
          "internalType": "string",
          "name": "",
          "type": "string"
        }
      ],
      "stateMutability": "view",
      "type": "function"
    },
    {
      "inputs": [
        {
          "internalType": "address",
          "name": "_owner",
          "type": "address"
        }
      ],
      "name": "getBalance",
      "outputs": [
        {
          "internalType": "uint256",
          "name": "",
          "type": "uint256"
        }
      ],
      "stateMutability": "view",
      "type": "function"
    },
    {
      "inputs": [],
      "name": "getCurrentCycle",
      "outputs": [
        {
          "internalType": "uint256",
          "name": "",
          "type": "uint256"
        }
      ],
      "stateMutability": "view",
      "type": "function"
    },
    {
      "inputs": [],
      "name": "getRowSVG",
      "outputs": [
        {
          "internalType": "string[64]",
          "name": "",
          "type": "string[64]"
        }
      ],
      "stateMutability": "view",
      "type": "function"
    },
    {
      "inputs": [
        {
          "internalType": "address",
          "name": "_owner",
          "type": "address"
        }
      ],
      "name": "hasVoted",
      "outputs": [
        {
          "internalType": "bool",
          "name": "",
          "type": "bool"
        }
      ],
      "stateMutability": "view",
      "type": "function"
    },
    {
      "inputs": [],
      "name": "isInArtisticPeriod",
      "outputs": [
        {
          "internalType": "bool",
          "name": "",
          "type": "bool"
        }
      ],
      "stateMutability": "view",
      "type": "function"
    },
    {
      "inputs": [],
      "name": "isInVotingPeriod",
      "outputs": [
        {
          "internalType": "bool",
          "name": "",
          "type": "bool"
        }
      ],
      "stateMutability": "view",
      "type": "function"
    },
    {
      "inputs": [],
      "name": "manager",
      "outputs": [
        {
          "internalType": "address",
          "name": "",
          "type": "address"
        }
      ],
      "stateMutability": "view",
      "type": "function"
    },
    {
      "inputs": [],
      "name": "maxHeight",
      "outputs": [
        {
          "internalType": "uint256",
          "name": "",
          "type": "uint256"
        }
      ],
      "stateMutability": "view",
      "type": "function"
    },
    {
      "inputs": [],
      "name": "maxWidth",
      "outputs": [
        {
          "internalType": "uint256",
          "name": "",
          "type": "uint256"
        }
      ],
      "stateMutability": "view",
      "type": "function"
    },
    {
      "inputs": [],
      "name": "nftContract",
      "outputs": [
        {
          "internalType": "contract CanvasCollection",
          "name": "",
          "type": "address"
        }
      ],
      "stateMutability": "view",
      "type": "function"
    },
    {
      "inputs": [
        {
          "internalType": "uint256[]",
          "name": "xValues",
          "type": "uint256[]"
        },
        {
          "internalType": "uint256[]",
          "name": "yValues",
          "type": "uint256[]"
        }
      ],
      "name": "payRoyalties",
      "outputs": [],
      "stateMutability": "nonpayable",
      "type": "function"
    },
    {
      "inputs": [
        {
          "internalType": "uint256",
          "name": "",
          "type": "uint256"
        }
      ],
      "name": "pixelSVGs",
      "outputs": [
        {
          "internalType": "string",
          "name": "",
          "type": "string"
        }
      ],
      "stateMutability": "view",
      "type": "function"
    },
    {
      "inputs": [
        {
          "internalType": "uint256",
          "name": "",
          "type": "uint256"
        }
      ],
      "name": "rowSVGs",
      "outputs": [
        {
          "internalType": "string",
          "name": "",
          "type": "string"
        }
      ],
      "stateMutability": "view",
      "type": "function"
    },
    {
      "inputs": [],
      "name": "royaltyAskPeriod",
      "outputs": [
        {
          "internalType": "uint256",
          "name": "",
          "type": "uint256"
        }
      ],
      "stateMutability": "view",
      "type": "function"
    },
    {
      "inputs": [],
      "name": "royaltyDenominator",
      "outputs": [
        {
          "internalType": "uint256",
          "name": "",
          "type": "uint256"
        }
      ],
      "stateMutability": "view",
      "type": "function"
    },
    {
      "inputs": [],
      "name": "royaltyRate",
      "outputs": [
        {
          "internalType": "uint256",
          "name": "",
          "type": "uint256"
        }
      ],
      "stateMutability": "view",
      "type": "function"
    },
    {
      "inputs": [
        {
          "internalType": "uint256",
          "name": "x",
          "type": "uint256"
        },
        {
          "internalType": "uint256",
          "name": "y",
          "type": "uint256"
        },
        {
          "internalType": "uint256",
          "name": "_price",
          "type": "uint256"
        }
      ],
      "name": "seekRoyaltyPayment",
      "outputs": [],
      "stateMutability": "nonpayable",
      "type": "function"
    },
    {
      "inputs": [
        {
          "internalType": "address",
          "name": "_nftContract",
          "type": "address"
        }
      ],
      "name": "setNFTContract",
      "outputs": [],
      "stateMutability": "nonpayable",
      "type": "function"
    },
    {
      "inputs": [
        {
          "internalType": "uint256[]",
          "name": "xValues",
          "type": "uint256[]"
        },
        {
          "internalType": "uint256[]",
          "name": "yValues",
          "type": "uint256[]"
        },
        {
          "internalType": "uint256[]",
          "name": "priceValues",
          "type": "uint256[]"
        }
      ],
      "name": "setPixelValue",
      "outputs": [],
      "stateMutability": "nonpayable",
      "type": "function"
    },
    {
      "inputs": [
        {
          "internalType": "address",
          "name": "_newToken",
          "type": "address"
        }
      ],
      "name": "updateCurrency",
      "outputs": [],
      "stateMutability": "nonpayable",
      "type": "function"
    },
    {
      "inputs": [
        {
          "internalType": "uint256",
          "name": "",
          "type": "uint256"
        }
      ],
      "name": "voteRegister",
      "outputs": [
        {
          "internalType": "uint256",
          "name": "yesVotes",
          "type": "uint256"
        },
        {
          "internalType": "uint256",
          "name": "noVotes",
          "type": "uint256"
        }
      ],
      "stateMutability": "view",
      "type": "function"
    },
    {
      "inputs": [
        {
          "internalType": "uint256",
          "name": "",
          "type": "uint256"
        },
        {
          "internalType": "uint256",
          "name": "",
          "type": "uint256"
        }
      ],
      "name": "window",
      "outputs": [
        {
          "internalType": "address",
          "name": "owner",
          "type": "address"
        },
        {
          "internalType": "uint256",
          "name": "shapeID",
          "type": "uint256"
        },
        {
          "internalType": "uint256",
          "name": "price",
          "type": "uint256"
        },
        {
          "internalType": "string",
          "name": "color",
          "type": "string"
        },
        {
          "internalType": "uint256",
          "name": "royaltyLastPaid",
          "type": "uint256"
        },
        {
          "internalType": "bool",
          "name": "askedToPayRoyalties",
          "type": "bool"
        },
        {
          "internalType": "uint256",
          "name": "royaltyAskDate",
          "type": "uint256"
        }
      ],
      "stateMutability": "view",
      "type": "function"
    }
  ],
  "bytecode": "0x6080806040523461004f57603260025560018060a01b031973c02aaa39b223fe8d0a0e5c4f27ead9083c756cc281600454161760045533906001541617600155426003556132c490816100558239f35b600080fdfe6080604052600436101561001257600080fd5b6000803560e01c8063040cdfd814611d5457806309eef43e14611cf5578063113bc99914611cd757806330b5d6d314611ca25780633323a706146114ca5780633bdb693e1461173c578063481c6a75146117135780634882a7ea146116e25780635c8c6407146115225780635e027601146114d45780636006ecc8146114cf57806363aa5ce2146114cf5780636e70fcc6146114ca5780636ed958f114610d4357806370a08231146102ca5780637ace48e714610b4d5780638232b562146108d057806385a9473d146107b2578063a7ccabdf14610765578063ad711e9e14610623578063b1610d7e14610605578063b3a1ddf4146105d3578063be26ed7f146105a7578063c4d1510d14610589578063c4e4b90c1461055a578063c730e65d146104c4578063c7eab2ec146103b7578063d08629c114610395578063d56d229d1461036e578063e124590014610327578063e50eb5da1461030c578063f8b2cb4f146102ca578063fd8d7ed3146102ad578063ff188dca1461028f5763ff397c6a1461019e57600080fd5b3461028c578060031936011261028c57604051610800906001600160401b03908281018281118282101761026857604052835b83811061027e575050604051918201908111828210176102685760405261100682825b6040821061024b575050506040519060209283830184845261082084019291945b604086106102235784840385f35b909192818061023e600193601f198982030187528751611dbc565b9501930195019490610215565b60016020819261025a86612001565b8152019301910190916101f4565b634e487b7160e01b600052604160045260246000fd5b6060828201526020016101d1565b80fd5b503461028c578060031936011261028c576020600354604051908152f35b503461028c578060031936011261028c5760206040516103e88152f35b503461028c57602036600319011261028c576004356001600160a01b0381169081900361030857816040916020935261104683522054604051908152f35b5080fd5b503461028c5761032461031e36611f81565b906122cd565b80f35b503461028c57602036600319011261028c5760043590604082101561028c5761036a6103568361100601612001565b604051918291602083526020830190611dbc565b0390f35b503461028c578060031936011261028c57546040516001600160a01b039091168152602090f35b503461028c5760206103af6103a936611d83565b90612961565b604051908152f35b503461028c576103c636611f81565b6103d38251825114612233565b8151906103df82611ed5565b926103ed6040519485611eb4565b828452601f196103fc84611ed5565b01855b8181106104ad575050845b83811061046f5760408051602080825287518183018190528993600582901b8401810192808b01929185015b8287106104435785850386f35b90919293828061045f600193603f198a82030186528851611de1565b9601920196019592919092610436565b8061049161047f600193856120b6565b5161048a83876120b6565b519061288a565b61049b82886120b6565b526104a681876120b6565b500161040a565b6020906104b8612852565b828289010152016103ff565b503461028c576040906104d636611d83565b90825260056020528282209082526020522060018060a01b03815416600182015491600281015461050960038301612001565b91610544600482015493600660ff6005850154169301549360405197889788526020880152604087015260e0606087015260e0860190611dbc565b926080850152151560a084015260c08301520390f35b503461028c57602036600319011261028c576004359061100082101561028c5761036a61035683600601612001565b503461028c578060031936011261028c576020600254604051908152f35b503461028c578060031936011261028c576020620546006105ca600354426127e4565b04604051908152f35b503461028c578060031936011261028c5760206203f480620546006105fa600354426127e4565b061015604051908152f35b503461028c578060031936011261028c576020604051620151808152f35b503461028c578060031936011261028c57604051608081018181106001600160401b0382111761026857604052605781526020907f3c7376672077696474683d2236303022206865696768743d2236303022207669828201527f6577426f783d2230203020363030203630302220786d6c6e733d22687474703a6040820152761797bbbbbb973b999737b933979918181817b9bb33911f60491b6060820152915b6040811061071b57506107076026604051846106e98296518092878086019101611d99565b8101651e17b9bb339f60d11b85820152036006810185520183611eb4565b61036a604051928284938452830190611dbc565b918161075a6107609261074c604051938261073f8694518092848088019101611d99565b830101876110060161311b565b03601f198101835282611eb4565b926120a7565b6106c4565b503461028c57602036600319011261028c576004356001600160a01b03818116918290036107ae5761079c906001541633146127f1565b81546001600160a01b03191617815580f35b8280fd5b503461028c57606036600319011261028c57600435602435906107e060018060a01b036001541633146127f1565b808352600560209181835260408520848652835260ff826040872001541680610890575b1561085857808552818352604085208486528352604435600260408720015580855281835260408520848652835281604086200160ff19815416905584528152604083209183525280600660408220015580f35b808552818352604085208486528352816040862001600160ff1982541617905584528152604083209183525242600660408320015580f35b5080855281835260408520848652835260066040862001546203f48081018091116108bc574211610804565b634e487b7160e01b86526011600452602486fd5b503461028c57606036600319011261028c576001600160401b036004358181116107ae57610902903690600401611f23565b6024908135838111610b495761091c903690600401611f23565b916044938435908111610b4557610937903690600401611f23565b908251845181149081610b3a575b5015610ae757825194865b8681106109ee5750505061096483836122cd565b845b848110610971578580f35b8061097e600192846120b6565b5161098982866120b6565b51885260206005815260408920906109a184896120b6565b518a525260026040892001556109b781856120b6565b516109c282876120b6565b51907f1c362b7fc7c4865e1e7ede89f240549bbd8b5ee43b51383c9c0392687d6d10ec8980a301610966565b6109f881866120b6565b516040610a0583896120b6565b51911090811591610adb575b50610a9d57610a2081866120b6565b51885260206005815260408920610a3783896120b6565b518a5281526040892054336001600160a01b0390911603610a5b5750600101610950565b6064907f6f6e6c79206f776e65722063616e2073657420706978656c2076616c7565000084601e876040519462461bcd60e51b86526004860152840152820152fd5b60405162461bcd60e51b815260206004820152601881850152774120706978656c206973206f7574206f6620626f756e647360401b81840152606490fd5b60409150101538610a11565b6084907f696e70757420617272617973206d757374206265206f66207468652073616d658660276040519362461bcd60e51b85526020600486015284015282015266040d8cadccee8d60cb1b6064820152fd5b905082511438610945565b8580fd5b8480fd5b503461028c576020806003193601126103085760043580151581036107ae5760035462054600906203f48082610b8383426127e4565b0610610d025733855261104684526040852054908115610cad5782610ba882426127e4565b048652611047938486526002604088200133600052865260ff60406000205416610c785783919015610c4f5750610be1600354426127e4565b048552828452610bf660408620918254611e3d565b90555b610c05600354426127e4565b0483528152600260408320019033600052526040600020600160ff19825416179055337f7ce969a18bb6b0fba42c6d9746e7d08eeca4c661809659c91d276456e3153ac08280a280f35b610c5990426127e4565b048552828452610c7160016040872001918254611e3d565b9055610bf9565b60405162461bcd60e51b815260048101879052600d60248201526c185b1c9958591e481d9bdd1959609a1b6044820152606490fd5b60405162461bcd60e51b815260048101869052602760248201527f6e6f20706978656c73206f776e6564203d206e6f20766f74657320746f2062656044820152660818d85cdd195960ca1b6064820152608490fd5b60405162461bcd60e51b81526004810185905260196024820152782b37ba34b7339031bab93932b73a363c903737ba1037b832b760391b6044820152606490fd5b503461028c57610d5236611f81565b610d5f8251825114612233565b815190835b828110610d6f578480f35b610d7981856120b6565b516040610d8683856120b6565b519110908115916114be575b506114a157610da181856120b6565b518552600560209080825260408720610dba84866120b6565b518852825260408720546001600160a01b03908116610e7e57509061104691610de384886120b6565b518852815260408720610df684866120b6565b5188528152604087203360018060a01b0319825416179055338752526040852080549060018201809211610e6a57556001905b610e3381866120b6565b51610e3e82856120b6565b51907fee0e9a85d097f632450e6ac08750207c8f039246ee437b10eaf708b397d00ad88880a301610d64565b634e487b7160e01b87526011600452602487fd5b610e9d610e8b85896120b6565b51610e9686886120b6565b5190612961565b90610ea885896120b6565b51895282845260408920610ebc86886120b6565b518a52845281600260408b2001541160001461124757610edc85896120b6565b51895282845260408920610ef086886120b6565b518a52845288610f078360026040842001546127e4565b9282600454166040516370a0823160e01b81523360048201528781602481855afa908115611204578c8a91869361120f575b50610f6f9291610f48916120b6565b51855287895260408520610f5c8b8d6120b6565b5186528952600260408620015410612734565b604051636eb1769f60e11b8152336004820152306024820152908782604481845afa8015611204578c8a918c8b9588926111c2575b5091610fe58492610fea94610fbd61102a9897856120b6565b518b528d8952610fd18560408d20926120b6565b518b528852600260408b200154111561278c565b6120b6565b51855287835260408520610ffe8b8d6120b6565b518652835285604086205416966040519586809481936323b872dd60e01b9b8c845233600485016122ab565b03925af19081156111b75761106592879261119a575b5083600454166001958d868854169160405196879586948593845233600485016122ab565b03925af1801561118f57611162575b5061107f85896120b6565b5189528284526040892061109386886120b6565b518a528452604089205416885261104680845260408920805490600019820191821161114e5755338952835260408820805491820180921161113a575560019291906110df83886120b6565b518852808252604088206110f384876120b6565b51895282526040882033858060a01b031982541617905561111483886120b6565b5188528152604087209061112883866120b6565b51885252426004604088200155610e29565b634e487b7160e01b89526011600452602489fd5b634e487b7160e01b8b52601160045260248bfd5b61118190853d8711611188575b6111798183611eb4565b810190612293565b5038611074565b503d61116f565b6040513d8c823e3d90fd5b6111b090833d8511611188576111798183611eb4565b5038611040565b6040513d8d823e3d90fd5b9750505050509083813d83116111fd575b6111dd8183611eb4565b810103126111f85791518b92879189908d908c610fe5610fa4565b600080fd5b503d6111d3565b6040513d86823e3d90fd5b95505050508683813d8311611240575b6112298183611eb4565b810103126111f85791518b9290888c610f48610f39565b503d61121f565b809897969594939291506004541697604051986370a0823160e01b8a523360048b015260249984818c81855afa801561118f578a90611472575b6112b79150611290878b6120b6565b518b5284865260408b206112a4888a6120b6565b518c528652600260408c20015410612734565b604051636eb1769f60e11b81523360048201523060248201528481604481855afa90811561118f578a939286928b928691611439575b509061132a83926113028b61137997966120b6565b518852888552604088206113168c8e6120b6565b51895285526002604089200154111561278c565b6002604060019761133f8c898b5416966120b6565b5181528986528181206113528d8f6120b6565b5182528652200154918d6040518096819582946323b872dd60e01b845233600485016122ab565b03925af1801561118f5761141c575b5061139385896120b6565b518952828452604089206113a786886120b6565b518a5284526040892054168852611046808452604089208054906000198201918211611409575533895283526040882080549182018092116113f6576001959697989950556110df83886120b6565b634e487b7160e01b895260116004528989fd5b634e487b7160e01b8b5260116004528b8bfd5b61143290853d8711611188576111798183611eb4565b5038611388565b93925050935081813d831161146b575b6114538183611eb4565b810103126111f85751899285918a919061132a6112ed565b503d611449565b508481813d831161149a575b6114888183611eb4565b810103126111f8576112b79051611281565b503d61147e565b60405162461bcd60e51b8152806114ba600482016120e0565b0390fd5b60409150101538610d92565b611e60565b611f07565b503461028c57602036600319011261028c576004356001600160a01b03818116918290036107ae5761150b906001541633146127f1565b600480546001600160a01b03191691909117905580f35b503461028c57602080600319360112610308576004359062054600611549600354426127e4565b0482101561167f5781835261104780825261156e604085206001815491015490611e3d565b90811561164a57838552825260408420549060011c1061158c578280f35b825460015484916001600160a01b039182169116803b156107ae576024839260405194859384926335313c2160e11b845260048401525af18015611204576115ff575b507fd9dc24857f317ed9abbbb42e920ede0104231eb1d3d70236a74887ffaf15986891604051908152a138808280f35b6001600160401b038111611636576040527fd9dc24857f317ed9abbbb42e920ede0104231eb1d3d70236a74887ffaf1598686115cf565b634e487b7160e01b84526041600452602484fd5b60405162461bcd60e51b815260048101849052600d60248201526c139bc81d9bdd195cc818d85cdd609a1b6044820152606490fd5b6084906040519062461bcd60e51b82526004820152603660248201527f636865636b20766f7465206f7574636f6d6573206f6e6c7920706f737369626c6044820152756520666f7220636f6e636c75646564206379636c657360501b6064820152fd5b503461028c578060031936011261028c5760206203f48062054600611709600354426127e4565b0610604051908152f35b503461028c578060031936011261028c576001546040516001600160a01b039091168152602090f35b503461028c57602036600319011261028c576004356001600160401b03811161030857366023820112156103085780600401359061177982611ed5565b916117876040519384611eb4565b8083526024602084019160051b83010191368311610b495760248101915b838310611c375785856203f480620546006117c2600354426127e4565b061015611be7578051906040519061082082018281106001600160401b03821117611bd35760405260408252610800366020840137835b8381106118db578483815b60408110611810578280f35b61181a81836120b6565b51611828575b600101611804565b60405161183481611e99565b838152600682811b6001600160fa1b03841684036108bc57806040019081604011610e6a5791905b80831061187e57505050906118776001928261100601612111565b9050611820565b9091926110008410156118c75760206118ba6118c09261074c60405193826118af8694518092848088019101611d99565b83010188880161311b565b936120a7565b919061185c565b634e487b7160e01b87526032600452602487fd5b6118e581836120b6565b518051810181602082019160809182910312611bcf57602083015191604084015193606081015192810151906001600160401b038211611bc7570181603f82011215611bcb57602081015161193981611eec565b926119476040519485611eb4565b81845260408284010111611bc757611966916040602085019101611d99565b60408310801590611bbc575b6114a157600a821015611b7e57828952600560205260408920848a5260205260ff600560408b20015416611b2157828952600560209081526040808b20868c529091528920546001600160a01b031633146119da575b505050506119d5906120a7565b6117f9565b6119fc90838a52600560205260408a20858b52602052600360408b2001612111565b818852600560209081526040808a20858b529091528820600101556001600160fa1b0382168203610e6a57611a348260061b82611e3d565b818852600560205260408820838952602052600160408920015460098381810204811484151715611b0d578481810204811485151715611b0d5790611aa191848b52600560205260408b20868c52602052611a94600360408d2001612001565b91818702918602906129be565b90611000811015611af9576119d594939291611abf91600601612111565b6001611acb83886120b6565b527fa9a418da632d42c446a125f10b007831ba0e348168b6b2474a2383ac5df4c2808880a3908680806119c8565b634e487b7160e01b89526032600452602489fd5b634e487b7160e01b8a52601160045260248afd5b60405162461bcd60e51b815260206004820152602f60248201527f6f776e6572207761732061736b656420746f20666972737420736574746c652060448201526e1c9bde585b1d1e481c185e5b595b9d608a1b6064820152608490fd5b60405162461bcd60e51b81526020600482015260166024820152757368617065204944206e6f7420617661696c61626c6560501b6044820152606490fd5b506040841015611972565b8a80fd5b8980fd5b8780fd5b634e487b7160e01b85526041600452602485fd5b60405162461bcd60e51b815260206004820152602260248201527f417274697374696320706572696f642063757272656e746c79206e6f74206f7060448201526132b760f11b6064820152608490fd5b82356001600160401b038111611c9e57820136604382011215611c9e57602481013591611c6383611eec565b611c706040519182611eb4565b83815288604436818787010111610308578560209687969287930183860137830101528152019201916117a5565b8680fd5b503461028c57602036600319011261028c57604080916004358152611047602052206001815491015482519182526020820152f35b503461028c578060031936011261028c576020604051620546008152f35b503461028c57602036600319011261028c576004356001600160a01b0381169081900361030857604060209260ff9262054600611d34600354426127e4565b048252611047855260028383200190825284522054166040519015158152f35b503461028c5761036a611d6f611d6936611d83565b9061288a565b604051918291602083526020830190611de1565b60409060031901126111f8576004359060243590565b60005b838110611dac5750506000910152565b8181015183820152602001611d9c565b90602091611dd581518092818552858086019101611d99565b601f01601f1916010190565b9060018060a01b038251168152602082015160208201526040820151604082015260c080611e1e606085015160e0606086015260e0850190611dbc565b936080810151608085015260a0810151151560a0850152015191015290565b91908201809211611e4a57565b634e487b7160e01b600052601160045260246000fd5b346111f85760003660031901126111f85760206040516203f4808152f35b60e081019081106001600160401b0382111761026857604052565b602081019081106001600160401b0382111761026857604052565b90601f801991011681019081106001600160401b0382111761026857604052565b6001600160401b0381116102685760051b60200190565b6001600160401b03811161026857601f01601f191660200190565b346111f85760003660031901126111f857602060405160408152f35b81601f820112156111f857803591611f3a83611ed5565b92611f486040519485611eb4565b808452602092838086019260051b8201019283116111f8578301905b828210611f72575050505090565b81358152908301908301611f64565b9060406003198301126111f8576001600160401b036004358181116111f85783611fad91600401611f23565b926024359182116111f857611fc491600401611f23565b90565b90600182811c92168015611ff7575b6020831014611fe157565b634e487b7160e01b600052602260045260246000fd5b91607f1691611fd6565b906040519182600082549261201584611fc7565b9081845260019485811690816000146120845750600114612041575b505061203f92500383611eb4565b565b9093915060005260209081600020936000915b81831061206c57505061203f93508201013880612031565b85548884018501529485019487945091830191612054565b91505061203f94506020925060ff191682840152151560051b8201013880612031565b6000198114611e4a5760010190565b80518210156120ca5760209160051b010190565b634e487b7160e01b600052603260045260246000fd5b606090602081526016602082015275706978656c206973206f7574206f6620626f756e647360501b60408201520190565b91909182516001600160401b0381116102685761212e8254611fc7565b601f81116121d8575b50602080601f8311600114612174575081929394600092612169575b50508160011b916000199060031b1c1916179055565b015190503880612153565b90601f198316958460005282600020926000905b8882106121c0575050836001959697106121a7575b505050811b019055565b015160001960f88460031b161c1916905538808061219d565b80600185968294968601518155019501930190612188565b600083815260208120601f840160051c81019260208510612216575b601f0160051c01915b82811061220b575050612137565b8181556001016121fd565b90925082906121f4565b81810292918115918404141715611e4a57565b1561223a57565b60405162461bcd60e51b815260206004820152602b60248201527f7820616e64207920696e7075742061727261797320617265206f66207661726960448201526a6f7573206c656e6774687360a81b6064820152608490fd5b908160209103126111f8575180151581036111f85790565b6001600160a01b03918216815291166020820152604081019190915260600190565b9190916122dd8151845114612233565b80516000935b8185106122f1575050509050565b6122fb85846120b6565b519461230781836120b6565b5160408080981091821592612729575b50506127115761232781856120b6565b5160005260056020908082528760002061234184866120b6565b51600052825260018060a01b03973389826000205416036126c35761236684886120b6565b516000528183528060002061237b85876120b6565b51600052835260044281836000200154036123ac575b505050506123a39192939495506120a7565b939291906122e3565b6123c46123b9868a6120b6565b51610e9687896120b6565b99808254169083516370a0823160e01b8152338482015260249087818381875afa90811561263757908e91600091612693575b5010612642578451636eb1769f60e11b8152338582019081523060208201528890829081906040010381875afa90811561263757908e91600091612607575b50106125b65750859161246691600154169c600086519e8f94859384926323b872dd60e01b8452338a85016122ab565b03925af1998a156125ab576123a3969798999a61258e575b50612489858a6120b6565b516000528284528160002061249e86896120b6565b51600052845242908260002001556124b684896120b6565b51600052818352806000206124cb85886120b6565b51600052835260ff828260002001541661252c575b5050506124ed81866120b6565b516124f882856120b6565b51907fe61af2269c9afbdb69efce2b15f2a464f8ee6237f105b3d4024f2e824a9f0af3600080a38594939291388080612391565b60009260069261253c868b6120b6565b51855280825282852061254f878a6120b6565b51865282528285208101805460ff1916905561256b868b6120b6565b51855281528184209061257e86896120b6565b51855252822001553880806124e0565b6125a490853d8711611188576111798183611eb4565b503861247e565b82513d6000823e3d90fd5b8360276084928988519362461bcd60e51b85528401528201527f696e73756666696369656e7420616c6c6f77616e636520746f2070617920726f60448201526679616c7469657360c81b6064820152fd5b91508882813d8311612630575b61261e8183611eb4565b8101031261028c57508d905138612436565b503d612614565b86513d6000823e3d90fd5b8360276084928988519362461bcd60e51b85528401528201527f6e6f742073756666696369656e742062616c616e636520746f2070617920726f60448201526679616c7469657360c81b6064820152fd5b91508882813d83116126bc575b6126aa8183611eb4565b8101031261028c57508d9051386123f7565b503d6126a0565b5162461bcd60e51b815260048101839052602260248201527f6f6e6c7920706978656c206f776e65722063616e2070617920726f79616c7469604482015261657360f01b6064820152608490fd5b855162461bcd60e51b8152806114ba600482016120e0565b101590508638612317565b1561273b57565b60405162461bcd60e51b815260206004820152602360248201527f6e6f742073756666696369656e742062616c616e636520746f206275792070696044820152621e195b60ea1b6064820152608490fd5b1561279357565b60405162461bcd60e51b815260206004820152602360248201527f696e73756666696369656e7420616c6c6f77616e636520746f206275792070696044820152621e195b60ea1b6064820152608490fd5b91908203918211611e4a57565b156127f857565b60405162461bcd60e51b815260206004820152602c60248201527f6f776e65722063757272656e74206d616e616765722063616e2063616c6c207460448201526b3434b990333ab731ba34b7b760a11b6064820152608490fd5b6040519061285f82611e7e565b8160c06000918281528260208201528260408201526060808201528260808201528260a08201520152565b90612893612852565b5060409182811080612958575b1561291e57600052600560205281600020906000526020526006816000208251926128ca84611e7e565b81546001600160a01b03168452600182015460208501526002820154908401526128f660038201612001565b60608401526004810154608084015260ff600582015416151560a0840152015460c082015290565b825162461bcd60e51b8152602060048201526013602482015272706978656c206f7574206f6620626f756e647360681b6044820152606490fd5b508282106128a0565b6129b16129ba916002604064073df1600095600090848252600560205282822081835260205261299760048484200154426127e4565b948252600560205282822090825260205220015490612220565b60025490612220565b0490565b91929092821561305f5760018314612f905760028314612f665760038314612f0a57600492838114612eb65760058114612d595760068114612d075760078114612ca05760088114612bbd57600914612a285750505050604051612a2181611e99565b6000815290565b612a318461319e565b90612a3b8161319e565b60088601808711612ba857612a4f9061319e565b9460088301809311612b93575091612b7782611fc49694612a84612a7e612a786049999761319e565b9a61319e565b9261319e565b91604051998a97602a612ab48a602099693c7061746820643d224d60b01b8b8301528a8151948593019101611d99565b890193600160fd1b9485602a820152612ad6825180938b602b85019101611d99565b016b010209c101c101810181018960a51b602b820152612aff825180938a603785019101611d99565b01836037820152612b198251809389603885019101611d99565b0161081360f21b6038820152612b388251809388603a85019101611d99565b0190603a820152612b528251809386603b85019101611d99565b019169102d11103334b6361e9160b11b603b8401528351938491604585019101611d99565b01631110179f60e11b6045820152036029810184520182611eb4565b601190634e487b7160e01b6000525260246000fd5b601186634e487b7160e01b6000525260246000fd5b50926008810193848211612c8b57612bd48561319e565b91612be7612be18361319e565b9161319e565b9460088301809311612b93575091612b7782611fc49694612c10612a7e612a786049999761319e565b91604051998a97602a612c408a602099693c7061746820643d224d60b01b8b8301528a8151948593019101611d99565b890193600160fd1b9485602a820152612c62825180938b602b85019101611d99565b016b010209c101c101810181018160a51b602b820152612aff825180938a603785019101611d99565b601184634e487b7160e01b6000525260246000fd5b50612caa8461319e565b90612cb48161319e565b60088601809611612cf257612cc88661319e565b946008830190818411612b93575060499492611fc4969492612c10612a7e612a78612b779561319e565b601185634e487b7160e01b6000525260246000fd5b50612d118461319e565b9060088101808211612cf257612d269061319e565b936008860190818711612b93575091612b7760499492612d49611fc4979561319e565b94612c10612a7e612a788461319e565b5092612d648161319e565b906008850190818611612cf257612d7a8261319e565b90612d8d612d878261319e565b9761319e565b9560088201809211612b935750603f9492611fc4969492612db3612a7e612e9a9461319e565b91604051998a97602a612de38a602099693c7061746820643d224d60b01b8b8301528a8151948593019101611d99565b890193600160fd1b9485602a820152612e05825180938b602b85019101611d99565b019161081360f21b9283602b820152612e27825180938b602d85019101611d99565b0184602d820152612e41825180938a602e85019101611d99565b0190602e820152612e5b8251809388603085019101611d99565b01906030820152612e758251809386603185019101611d99565b019169103d11103334b6361e9160b11b60318401528351938491603b85019101611d99565b01631110179f60e11b603b82015203601f810184520182611eb4565b5092916008830190818411612b9357612ece8261319e565b916008860191828711612b93575091612e9a82611fc49694612db3612a7e612d87612f04612efe603f9b9961319e565b9461319e565b9b61319e565b9150612f158361319e565b92612f1f8361319e565b9160088201809211611e4a57612f348261319e565b94612f47612f418661319e565b9361319e565b9460088101809111611e4a57611fc495603f95612db3612e9a9361319e565b9150612f718361319e565b92612f7b8361319e565b9160088201808311611e4a57612f349061319e565b91509160048101809111611e4a57612fa79061319e565b9060048101809111611e4a57611fc491612fc260449261319e565b936040519485926b1e31b4b931b6329031bc1e9160a11b6020850152612ff2815180926020602c88019101611d99565b830165111031bc9e9160d11b602c820152613017825180936020603285019101611d99565b016d1110391e911a11103334b6361e9160911b6032820152613043825180936020604085019101611d99565b01631110179f60e11b6040820152036024810184520182611eb4565b611fc49250613073612be1604f939561319e565b93604051948592681e3932b1ba103c1e9160b91b60208501526130a0815180926020602988019101611d99565b83016411103c9e9160d91b60298201526130c4825180936020602e85019101611d99565b017f222077696474683d223822206865696768743d2238222066696c6c3d22000000602e8201526130ff825180936020604b85019101611d99565b01631110179f60e11b604b82015203602f810184520182611eb4565b60009291815461312a81611fc7565b926001918083169081156131835750600114613147575b50505050565b90919293945060005260209081600020906000915b8583106131725750505050019038808080613141565b80548584015291830191810161315c565b60ff1916845250505081151590910201915038808080613141565b80156132605780816000925b61324c57506131b882611eec565b916131c66040519384611eb4565b80835281601f196131d683611eec565b01916020923684870137925b6131ec5750505090565b6000198301928311611e4a5782600a80830492818402918483041484151715611e4a5761321c60ff9283926127e4565b16603001908111611e4a5785518210156120ca5760f81b6001600160f81b03191660001a908501830153806131e2565b91613258600a916120a7565b9204806131aa565b50604051604081018181106001600160401b038211176102685760405260018152600360fc1b60208201529056fea26469706673582212208b9675f007ccab2b9b136be7a369c0d203e9baea8d37640c4954a51aca874fe964736f6c63430008140033",
  "linkReferences": {},
  "deployedLinkReferences": {}
}