{
  "_format": "hh-sol-artifact-1",
  "contractName": "Pixelmap",
  "sourceName": "contracts/Pixelmap.sol",
  "abi": [
    {
      "inputs": [],
      "stateMutability": "nonpayable",
      "type": "constructor"
    },
    {
      "inputs": [],
      "name": "ReentrancyGuardReentrantCall",
      "type": "error"
    },
    {
      "anonymous": false,
      "inputs": [
        {
          "indexed": false,
          "internalType": "uint256",
          "name": "tokenID",
          "type": "uint256"
        },
        {
          "indexed": false,
          "internalType": "address",
          "name": "bidder",
          "type": "address"
        },
        {
          "indexed": false,
          "internalType": "uint256",
          "name": "bid",
          "type": "uint256"
        }
      ],
      "name": "AuctionEnded",
      "type": "event"
    },
    {
      "anonymous": false,
      "inputs": [
        {
          "indexed": false,
          "internalType": "uint256",
          "name": "tokenID",
          "type": "uint256"
        },
        {
          "indexed": false,
          "internalType": "address",
          "name": "bidder",
          "type": "address"
        },
        {
          "indexed": false,
          "internalType": "uint256",
          "name": "bid",
          "type": "uint256"
        }
      ],
      "name": "BidPlace",
      "type": "event"
    },
    {
      "anonymous": false,
      "inputs": [
        {
          "indexed": false,
          "internalType": "uint256",
          "name": "tokenID",
          "type": "uint256"
        },
        {
          "indexed": false,
          "internalType": "address",
          "name": "bidder",
          "type": "address"
        },
        {
          "indexed": false,
          "internalType": "uint256",
          "name": "bid",
          "type": "uint256"
        }
      ],
      "name": "BidWithdrawn",
      "type": "event"
    },
    {
      "anonymous": false,
      "inputs": [
        {
          "indexed": false,
          "internalType": "uint256",
          "name": "cycle",
          "type": "uint256"
        }
      ],
      "name": "NFTMinted",
      "type": "event"
    },
    {
      "anonymous": false,
      "inputs": [
        {
          "indexed": true,
          "internalType": "uint256",
          "name": "x",
          "type": "uint256"
        },
        {
          "indexed": true,
          "internalType": "uint256",
          "name": "y",
          "type": "uint256"
        }
      ],
      "name": "PixelBought",
      "type": "event"
    },
    {
      "anonymous": false,
      "inputs": [
        {
          "indexed": true,
          "internalType": "uint256",
          "name": "x",
          "type": "uint256"
        },
        {
          "indexed": true,
          "internalType": "uint256",
          "name": "y",
          "type": "uint256"
        }
      ],
      "name": "PixelFilled",
      "type": "event"
    },
    {
      "anonymous": false,
      "inputs": [
        {
          "indexed": true,
          "internalType": "uint256",
          "name": "x",
          "type": "uint256"
        },
        {
          "indexed": true,
          "internalType": "uint256",
          "name": "y",
          "type": "uint256"
        }
      ],
      "name": "PixelValueSet",
      "type": "event"
    },
    {
      "anonymous": false,
      "inputs": [
        {
          "indexed": true,
          "internalType": "uint256",
          "name": "x",
          "type": "uint256"
        },
        {
          "indexed": true,
          "internalType": "uint256",
          "name": "y",
          "type": "uint256"
        }
      ],
      "name": "RoyaltiesPaid",
      "type": "event"
    },
    {
      "anonymous": false,
      "inputs": [
        {
          "indexed": true,
          "internalType": "address",
          "name": "owner",
          "type": "address"
        }
      ],
      "name": "VoteCasted",
      "type": "event"
    },
    {
      "inputs": [],
      "name": "ARTISTIC_PERIOD",
      "outputs": [
        {
          "internalType": "uint256",
          "name": "",
          "type": "uint256"
        }
      ],
      "stateMutability": "view",
      "type": "function"
    },
    {
      "inputs": [],
      "name": "AUCTION_DURATION",
      "outputs": [
        {
          "internalType": "uint256",
          "name": "",
          "type": "uint256"
        }
      ],
      "stateMutability": "view",
      "type": "function"
    },
    {
      "inputs": [],
      "name": "CYCLE_PERIOD",
      "outputs": [
        {
          "internalType": "uint256",
          "name": "",
          "type": "uint256"
        }
      ],
      "stateMutability": "view",
      "type": "function"
    },
    {
      "inputs": [],
      "name": "VOTING_PERIOD",
      "outputs": [
        {
          "internalType": "uint256",
          "name": "",
          "type": "uint256"
        }
      ],
      "stateMutability": "view",
      "type": "function"
    },
    {
      "inputs": [
        {
          "internalType": "uint256",
          "name": "",
          "type": "uint256"
        },
        {
          "internalType": "address",
          "name": "",
          "type": "address"
        }
      ],
      "name": "auctionClaims",
      "outputs": [
        {
          "internalType": "uint256",
          "name": "",
          "type": "uint256"
        }
      ],
      "stateMutability": "view",
      "type": "function"
    },
    {
      "inputs": [
        {
          "internalType": "uint256",
          "name": "",
          "type": "uint256"
        },
        {
          "internalType": "address",
          "name": "",
          "type": "address"
        }
      ],
      "name": "auctionClaimsFlag",
      "outputs": [
        {
          "internalType": "bool",
          "name": "",
          "type": "bool"
        }
      ],
      "stateMutability": "view",
      "type": "function"
    },
    {
      "inputs": [
        {
          "internalType": "address",
          "name": "",
          "type": "address"
        }
      ],
      "name": "balanceOf",
      "outputs": [
        {
          "internalType": "uint256",
          "name": "",
          "type": "uint256"
        }
      ],
      "stateMutability": "view",
      "type": "function"
    },
    {
      "inputs": [
        {
          "internalType": "uint256[]",
          "name": "xValues",
          "type": "uint256[]"
        },
        {
          "internalType": "uint256[]",
          "name": "yValues",
          "type": "uint256[]"
        }
      ],
      "name": "buyPixel",
      "outputs": [],
      "stateMutability": "nonpayable",
      "type": "function"
    },
    {
      "inputs": [
        {
          "internalType": "uint256",
          "name": "x",
          "type": "uint256"
        },
        {
          "internalType": "uint256",
          "name": "y",
          "type": "uint256"
        }
      ],
      "name": "calculateRoyalties",
      "outputs": [
        {
          "internalType": "uint256",
          "name": "",
          "type": "uint256"
        }
      ],
      "stateMutability": "view",
      "type": "function"
    },
    {
      "inputs": [],
      "name": "canvasCreation",
      "outputs": [
        {
          "internalType": "uint256",
          "name": "",
          "type": "uint256"
        }
      ],
      "stateMutability": "view",
      "type": "function"
    },
    {
      "inputs": [
        {
          "internalType": "bool",
          "name": "vote",
          "type": "bool"
        }
      ],
      "name": "castVote",
      "outputs": [],
      "stateMutability": "nonpayable",
      "type": "function"
    },
    {
      "inputs": [
        {
          "internalType": "uint256[]",
          "name": "xValues",
          "type": "uint256[]"
        },
        {
          "internalType": "uint256[]",
          "name": "yValues",
          "type": "uint256[]"
        }
      ],
      "name": "checkMultiplePixel",
      "outputs": [
        {
          "components": [
            {
              "internalType": "address",
              "name": "owner",
              "type": "address"
            },
            {
              "internalType": "uint256",
              "name": "shapeID",
              "type": "uint256"
            },
            {
              "internalType": "uint256",
              "name": "price",
              "type": "uint256"
            },
            {
              "internalType": "string",
              "name": "color",
              "type": "string"
            },
            {
              "internalType": "uint256",
              "name": "royaltyLastPaid",
              "type": "uint256"
            },
            {
              "internalType": "bool",
              "name": "askedToPayRoyalties",
              "type": "bool"
            },
            {
              "internalType": "uint256",
              "name": "royaltyAskDate",
              "type": "uint256"
            }
          ],
          "internalType": "struct Pixelmap.Pixel[]",
          "name": "",
          "type": "tuple[]"
        }
      ],
      "stateMutability": "view",
      "type": "function"
    },
    {
      "inputs": [
        {
          "internalType": "uint256",
          "name": "x",
          "type": "uint256"
        },
        {
          "internalType": "uint256",
          "name": "y",
          "type": "uint256"
        }
      ],
      "name": "checkPixel",
      "outputs": [
        {
          "components": [
            {
              "internalType": "address",
              "name": "owner",
              "type": "address"
            },
            {
              "internalType": "uint256",
              "name": "shapeID",
              "type": "uint256"
            },
            {
              "internalType": "uint256",
              "name": "price",
              "type": "uint256"
            },
            {
              "internalType": "string",
              "name": "color",
              "type": "string"
            },
            {
              "internalType": "uint256",
              "name": "royaltyLastPaid",
              "type": "uint256"
            },
            {
              "internalType": "bool",
              "name": "askedToPayRoyalties",
              "type": "bool"
            },
            {
              "internalType": "uint256",
              "name": "royaltyAskDate",
              "type": "uint256"
            }
          ],
          "internalType": "struct Pixelmap.Pixel",
          "name": "",
          "type": "tuple"
        }
      ],
      "stateMutability": "view",
      "type": "function"
    },
    {
      "inputs": [
        {
          "internalType": "uint256",
          "name": "_cycle",
          "type": "uint256"
        }
      ],
      "name": "checkVoteOutcome",
      "outputs": [],
      "stateMutability": "nonpayable",
      "type": "function"
    },
    {
      "inputs": [
        {
          "internalType": "uint256",
          "name": "_tokenID",
          "type": "uint256"
        }
      ],
      "name": "closeAuction",
      "outputs": [],
      "stateMutability": "nonpayable",
      "type": "function"
    },
    {
      "inputs": [
        {
          "internalType": "bytes[]",
          "name": "_pixels",
          "type": "bytes[]"
        }
      ],
      "name": "fillPixel",
      "outputs": [],
      "stateMutability": "nonpayable",
      "type": "function"
    },
    {
      "inputs": [],
      "name": "generateMerkle",
      "outputs": [
        {
          "internalType": "bytes32",
          "name": "",
          "type": "bytes32"
        }
      ],
      "stateMutability": "view",
      "type": "function"
    },
    {
      "inputs": [],
      "name": "generateSVG",
      "outputs": [
        {
          "internalType": "string",
          "name": "",
          "type": "string"
        }
      ],
      "stateMutability": "view",
      "type": "function"
    },
    {
      "inputs": [
        {
          "internalType": "uint256",
          "name": "tokenID",
          "type": "uint256"
        },
        {
          "internalType": "address",
          "name": "user",
          "type": "address"
        }
      ],
      "name": "getAuctionClaimFlag",
      "outputs": [
        {
          "internalType": "bool",
          "name": "",
          "type": "bool"
        }
      ],
      "stateMutability": "view",
      "type": "function"
    },
    {
      "inputs": [
        {
          "internalType": "uint256",
          "name": "tokenID",
          "type": "uint256"
        },
        {
          "internalType": "address",
          "name": "user",
          "type": "address"
        }
      ],
      "name": "getAuctionClaims",
      "outputs": [
        {
          "internalType": "uint256",
          "name": "",
          "type": "uint256"
        }
      ],
      "stateMutability": "view",
      "type": "function"
    },
    {
      "inputs": [
        {
          "internalType": "address",
          "name": "_owner",
          "type": "address"
        }
      ],
      "name": "getBalance",
      "outputs": [
        {
          "internalType": "uint256",
          "name": "",
          "type": "uint256"
        }
      ],
      "stateMutability": "view",
      "type": "function"
    },
    {
      "inputs": [],
      "name": "getCurrentCycle",
      "outputs": [
        {
          "internalType": "uint256",
          "name": "",
          "type": "uint256"
        }
      ],
      "stateMutability": "view",
      "type": "function"
    },
    {
      "inputs": [
        {
          "internalType": "uint256",
          "name": "_tokenID",
          "type": "uint256"
        }
      ],
      "name": "getMintDate",
      "outputs": [
        {
          "internalType": "uint256",
          "name": "",
          "type": "uint256"
        }
      ],
      "stateMutability": "view",
      "type": "function"
    },
    {
      "inputs": [
        {
          "internalType": "address",
          "name": "_owner",
          "type": "address"
        }
      ],
      "name": "hasVoted",
      "outputs": [
        {
          "internalType": "bool",
          "name": "",
          "type": "bool"
        }
      ],
      "stateMutability": "view",
      "type": "function"
    },
    {
      "inputs": [],
      "name": "isInArtisticPeriod",
      "outputs": [
        {
          "internalType": "bool",
          "name": "",
          "type": "bool"
        }
      ],
      "stateMutability": "view",
      "type": "function"
    },
    {
      "inputs": [],
      "name": "isInVotingPeriod",
      "outputs": [
        {
          "internalType": "bool",
          "name": "",
          "type": "bool"
        }
      ],
      "stateMutability": "view",
      "type": "function"
    },
    {
      "inputs": [],
      "name": "manager",
      "outputs": [
        {
          "internalType": "address",
          "name": "",
          "type": "address"
        }
      ],
      "stateMutability": "view",
      "type": "function"
    },
    {
      "inputs": [],
      "name": "maxHeight",
      "outputs": [
        {
          "internalType": "uint256",
          "name": "",
          "type": "uint256"
        }
      ],
      "stateMutability": "view",
      "type": "function"
    },
    {
      "inputs": [],
      "name": "maxWidth",
      "outputs": [
        {
          "internalType": "uint256",
          "name": "",
          "type": "uint256"
        }
      ],
      "stateMutability": "view",
      "type": "function"
    },
    {
      "inputs": [
        {
          "internalType": "uint256",
          "name": "",
          "type": "uint256"
        }
      ],
      "name": "mintDates",
      "outputs": [
        {
          "internalType": "uint256",
          "name": "",
          "type": "uint256"
        }
      ],
      "stateMutability": "view",
      "type": "function"
    },
    {
      "inputs": [
        {
          "internalType": "uint256",
          "name": "",
          "type": "uint256"
        }
      ],
      "name": "nftAuctions",
      "outputs": [
        {
          "internalType": "address",
          "name": "winningAddr",
          "type": "address"
        },
        {
          "internalType": "uint256",
          "name": "winningBid",
          "type": "uint256"
        },
        {
          "internalType": "uint256",
          "name": "auctionStart",
          "type": "uint256"
        },
        {
          "internalType": "uint256",
          "name": "auctionEnd",
          "type": "uint256"
        },
        {
          "internalType": "bool",
          "name": "auctionEnded",
          "type": "bool"
        }
      ],
      "stateMutability": "view",
      "type": "function"
    },
    {
      "inputs": [],
      "name": "nftContract",
      "outputs": [
        {
          "internalType": "contract CanvasCollection",
          "name": "",
          "type": "address"
        }
      ],
      "stateMutability": "view",
      "type": "function"
    },
    {
      "inputs": [
        {
          "internalType": "uint256[]",
          "name": "xValues",
          "type": "uint256[]"
        },
        {
          "internalType": "uint256[]",
          "name": "yValues",
          "type": "uint256[]"
        }
      ],
      "name": "payRoyalties",
      "outputs": [],
      "stateMutability": "nonpayable",
      "type": "function"
    },
    {
      "inputs": [
        {
          "internalType": "uint256",
          "name": "",
          "type": "uint256"
        }
      ],
      "name": "pixelSVGs",
      "outputs": [
        {
          "internalType": "string",
          "name": "",
          "type": "string"
        }
      ],
      "stateMutability": "view",
      "type": "function"
    },
    {
      "inputs": [
        {
          "internalType": "uint256",
          "name": "_tokenID",
          "type": "uint256"
        }
      ],
      "name": "placeBid",
      "outputs": [],
      "stateMutability": "payable",
      "type": "function"
    },
    {
      "inputs": [
        {
          "internalType": "uint256",
          "name": "",
          "type": "uint256"
        }
      ],
      "name": "rowSVGs",
      "outputs": [
        {
          "internalType": "string",
          "name": "",
          "type": "string"
        }
      ],
      "stateMutability": "view",
      "type": "function"
    },
    {
      "inputs": [],
      "name": "royaltyAskPeriod",
      "outputs": [
        {
          "internalType": "uint256",
          "name": "",
          "type": "uint256"
        }
      ],
      "stateMutability": "view",
      "type": "function"
    },
    {
      "inputs": [],
      "name": "royaltyDenominator",
      "outputs": [
        {
          "internalType": "uint256",
          "name": "",
          "type": "uint256"
        }
      ],
      "stateMutability": "view",
      "type": "function"
    },
    {
      "inputs": [],
      "name": "royaltyRate",
      "outputs": [
        {
          "internalType": "uint256",
          "name": "",
          "type": "uint256"
        }
      ],
      "stateMutability": "view",
      "type": "function"
    },
    {
      "inputs": [
        {
          "internalType": "uint256",
          "name": "x",
          "type": "uint256"
        },
        {
          "internalType": "uint256",
          "name": "y",
          "type": "uint256"
        },
        {
          "internalType": "uint256",
          "name": "_price",
          "type": "uint256"
        }
      ],
      "name": "seekRoyaltyPayment",
      "outputs": [],
      "stateMutability": "nonpayable",
      "type": "function"
    },
    {
      "inputs": [
        {
          "internalType": "address",
          "name": "_nftContract",
          "type": "address"
        }
      ],
      "name": "setNFTContract",
      "outputs": [],
      "stateMutability": "nonpayable",
      "type": "function"
    },
    {
      "inputs": [
        {
          "internalType": "uint256[]",
          "name": "xValues",
          "type": "uint256[]"
        },
        {
          "internalType": "uint256[]",
          "name": "yValues",
          "type": "uint256[]"
        },
        {
          "internalType": "uint256[]",
          "name": "priceValues",
          "type": "uint256[]"
        }
      ],
      "name": "setPixelValue",
      "outputs": [],
      "stateMutability": "nonpayable",
      "type": "function"
    },
    {
      "inputs": [
        {
          "internalType": "address",
          "name": "_newToken",
          "type": "address"
        }
      ],
      "name": "updateCurrency",
      "outputs": [],
      "stateMutability": "nonpayable",
      "type": "function"
    },
    {
      "inputs": [
        {
          "internalType": "uint256",
          "name": "",
          "type": "uint256"
        }
      ],
      "name": "voteRegister",
      "outputs": [
        {
          "internalType": "uint256",
          "name": "yesVotes",
          "type": "uint256"
        },
        {
          "internalType": "uint256",
          "name": "noVotes",
          "type": "uint256"
        }
      ],
      "stateMutability": "view",
      "type": "function"
    },
    {
      "inputs": [
        {
          "internalType": "uint256",
          "name": "",
          "type": "uint256"
        },
        {
          "internalType": "uint256",
          "name": "",
          "type": "uint256"
        }
      ],
      "name": "window",
      "outputs": [
        {
          "internalType": "address",
          "name": "owner",
          "type": "address"
        },
        {
          "internalType": "uint256",
          "name": "shapeID",
          "type": "uint256"
        },
        {
          "internalType": "uint256",
          "name": "price",
          "type": "uint256"
        },
        {
          "internalType": "string",
          "name": "color",
          "type": "string"
        },
        {
          "internalType": "uint256",
          "name": "royaltyLastPaid",
          "type": "uint256"
        },
        {
          "internalType": "bool",
          "name": "askedToPayRoyalties",
          "type": "bool"
        },
        {
          "internalType": "uint256",
          "name": "royaltyAskDate",
          "type": "uint256"
        }
      ],
      "stateMutability": "view",
      "type": "function"
    },
    {
      "inputs": [
        {
          "internalType": "uint256",
          "name": "_tokenID",
          "type": "uint256"
        }
      ],
      "name": "withdrawPixelProceeds",
      "outputs": [],
      "stateMutability": "nonpayable",
      "type": "function"
    }
  ],
  "bytecode": "0x60808060405234620000bd5760016000556032600355600580546001600160a01b031990811673c02aaa39b223fe8d0a0e5c4f27ead9083c756cc217909155906107b08082016001600160401b03811183821017620000a757829162003e87833903906000f080156200009b5760018060a01b03168160065416176006553390600254161760025542600455604051613dc49081620000c38239f35b6040513d6000823e3d90fd5b634e487b7160e01b600052604160045260246000fd5b600080fdfe6080604052600436101561001257600080fd5b6000803560e01c8063040cdfd81461273a57806309eef43e146126df578063113bc999146126c1578063166db0081461267d578063236ed8f31461232657806330b5d6d3146122f15780633323a70614611ab25780633bdb693e14611df757806344d6b6d214611db0578063481c6a7514611d875780634882a7ea14611d565780635c8c640714611b045780635e02760114611abc5780636006ecc814611ab757806363aa5ce214611ab75780636e70fcc614611ab25780636ed958f1146112ac5780637000c3e8146102f357806370a08231146102545780637ace48e7146110b65780638232b56214610e2f57806385a9473d14610d0e57806393cde51a14610caa5780639979ef4514610ae2578063a271e52514610ac5578063a52f27b514610944578063a7ccabdf146108fc578063ad711e9e146107a4578063b1610d7e14610786578063b3a1ddf414610754578063bc5bc2fb146106fd578063be26ed7f14610728578063c4323fc1146106fd578063c4d1510d146106df578063c4e4b90c146106b0578063c730e65d1461061a578063c7eab2ec1461050e578063ccba36171461038a578063d08629c114610368578063d56d229d1461033f578063d7638d80146102f3578063e1245900146102ac578063e50eb5da1461028e578063f8b2cb4f14610254578063fd8d7ed3146102375763ff188dca1461021757600080fd5b346102345780600319360112610234576020600454604051908152f35b80fd5b503461023457806003193601126102345760206040516103e88152f35b5034610234576020366003190112610234576020906040906001600160a01b0361027c612823565b16815261104a83522054604051908152f35b5034610234576102a96102a0366128dc565b92919091612cd8565b80f35b503461023457602036600319011261023457600435906040821015610234576102ef6102db8361100a016129ca565b6040519182916020835260208301906127a2565b0390f35b503461023457604036600319011261023457604061030f612839565b9160043581526008602052209060018060a01b0316600052602052602060ff604060002054166040519015158152f35b50346102345780600319360112610234576001546040516001600160a01b039091168152602090f35b503461023457602061038261037c36612769565b90613379565b604051908152f35b50346102345760208060031936011261050a576004356103a861349a565b808352600882526040832033600052825260ff604060002054166104b95780835261104d82526103f36001604085200154600784526040852033600052845260406000205490612bf1565b600c1c90811561047a57838080938193825260088652604082203360005286526040600020600160ff19825416179055335af161042e61346a565b501561043c57506001815580f35b6064906040519062461bcd60e51b8252600482015260176024820152764661696c656420746f2073656e642070726f636565647360481b6044820152fd5b60405162461bcd60e51b81526004810184905260176024820152764e6f2070726f636565647320746f20776974686472617760481b6044820152606490fd5b60405162461bcd60e51b8152600481018390526024808201527f616c726561647920636c61696d65642070726f636565647320666f72207468696044820152631cc8125160e21b6064820152608490fd5b5080fd5b50346102345761051d366128dc565b61052a8184959414612c3e565b61053384612a70565b9361054160405195866129a9565b808552601f1961055082612a70565b01865b818110610603575050855b8181106105c35760408051602080825288518183018190528a93600582901b8401810192808c01929185015b8287106105975785850386f35b9091929382806105b3600193603f198a820301865288516127c7565b960192019601959291909261058a565b806105e76105d46001938589612c2e565b356105e0838789612c2e565b35906132a2565b6105f18289612c04565b526105fc8188612c04565b500161055e565b60209061060e61326a565b82828a01015201610553565b50346102345760409061062c36612769565b90825260096020528282209082526020522060018060a01b03815416600182015491600281015461065f600383016129ca565b9161069a600482015493600660ff6005850154169301549360405197889788526020880152604087015260e0606087015260e08601906127a2565b926080850152151560a084015260c08301520390f35b50346102345760203660031901126102345760043590611000821015610234576102ef6102db83600a016129ca565b50346102345780600319360112610234576020600354604051908152f35b5034610234576020366003190112610234576040602091600435815261104c83522054604051908152f35b503461023457806003193601126102345760206205460061074b600454426131fc565b04604051908152f35b503461023457806003193601126102345760206203f4806205460061077b600454426131fc565b061015604051908152f35b50346102345780600319360112610234576020604051620151808152f35b5034610234578060031936011261023457604051608081018181106001600160401b038211176108e657604052605781526020907f3c7376672077696474683d2236303022206865696768743d2236303022207669828201527f6577426f783d2230203020363030203630302220786d6c6e733d22687474703a6040820152761797bbbbbb973b999737b933979918181817b9bb33911f60491b6060820152915b6040811061089c575061088860266040518461086a829651809287808601910161277f565b8101651e17b9bb339f60d11b858201520360068101855201836129a9565b6102ef6040519282849384528301906127a2565b91816108db6108e1926108cd60405193826108c0869451809284808801910161277f565b8301018761100a01613c1d565b03601f1981018352826129a9565b92612a87565b610845565b634e487b7160e01b600052604160045260246000fd5b503461023457602036600319011261023457610916612823565b6002546001600160a01b0391906109309083163314613209565b1660018060a01b0319600154161760015580f35b5034610234578060031936011261023457604051906202002082018281106001600160401b038211176108e6576040526110008252602091828082019162020000368437835b60408110610a43575060018060a01b03600654166040519384926317046b0160e11b8452602484019085600486015251809152604484019190875b818110610a2a5750505082809103915afa918215610a1e5780926109ee575b5050604051908152f35b9091508282813d8311610a17575b610a0681836129a9565b8101031261023457505138806109e4565b503d6109fc565b604051903d90823e3d90fd5b82518452899688965093840193909201916001016109c5565b90929150835b60408110610a5e57506001019184919261098a565b6001600160fa1b0382168203610ab157600190610a7e8360061b8261284f565b81875260098852604087208488528852610aaa6001600160601b0319604089205460601b169187612c04565b5201610a49565b634e487b7160e01b85526011600452602485fd5b5034610234578060031936011261023457602060405161fd208152f35b5060208060031936011261050a5760043590610afc61349a565b81835261104d90818152610b1a60ff600460408720015416156133d6565b828452818152610b326002604086200154421161341e565b8284528181524260036040862001541115610c6a578284528181526001604085200154341115610c265782845281815283808080604081206001808060a01b03825416910154905af1610b8361346a565b5015610beb57828452526040808320346001820181905581546001600160a01b0319163390811790925582519384526020840191909152908201527f8108a40c809d4e4f749358511f7baa90a1259a19024e438f728276ccd4c9368690606090a16001815580f35b6064906040519062461bcd60e51b8252600482015260146024820152732330b4b632b2103a379039b2b7321022ba3432b960611b6044820152fd5b6064906040519062461bcd60e51b82526004820152601b60248201527f6869676865722062696420616c7265616479206578697374696e6700000000006044820152fd5b6064906040519062461bcd60e51b825260048201526019602482015278185d58dd1a5bdb881a185cc8185b1c9958591e48195b991959603a1b6044820152fd5b503461023457602036600319011261023457604060a091600435815261104d60205220600180831b0381541690600181015490600281015460ff60046003840154930154169260405194855260208501526040840152606083015215156080820152f35b50346102345760603660031901126102345760043560243590610d3c60018060a01b03600254163314613209565b808352600960209181835260408520848652835260ff60056040872001541680610def575b15610db65780855281835260408520848652835260443560026040872001558085528183526040852084865283526005604086200160ff19815416905584528152604083209183525280600660408220015580f35b80855281835260408520848652835260056040862001600160ff1982541617905584528152604083209183525242600660408320015580f35b5080855281835260408520848652835260066040862001546203f4808101809111610e1b574211610d61565b634e487b7160e01b86526011600452602486fd5b5034610234576060366003190112610234576001600160401b036004358181116110b257610e61903690600401612890565b9060249182358481116110ae57610e7c903690600401612890565b92909360449586359081116110aa57610e99903690600401612890565b919096858514806110a1575b1561104e57885b858110610f5157505050610ec284868585612cd8565b865b838110610ecf578780f35b80610edd600192848a612c2e565b35610ee9828787612c2e565b358a5260206009815260408b2090610f02848a8c612c2e565b358c5252600260408b200155610f19818686612c2e565b35610f2582888a612c2e565b35907f1c362b7fc7c4865e1e7ede89f240549bbd8b5ee43b51383c9c0392687d6d10ec8b80a301610ec4565b610f5c818787612c2e565b356040610f6a838a8c612c2e565b35911090811591611042575b5061100457610f86818787612c2e565b358a5260206009815260408b20610f9e838a8c612c2e565b358c52815260408b2054336001600160a01b0390911603610fc25750600101610eac565b6064907f6f6e6c79206f776e65722063616e2073657420706978656c2076616c7565000084601e876040519462461bcd60e51b86526004860152840152820152fd5b60405162461bcd60e51b815260206004820152601881850152774120706978656c206973206f7574206f6620626f756e647360401b81840152606490fd5b60409150101538610f76565b907f696e70757420617272617973206d757374206265206f66207468652073616d6560849260276040519362461bcd60e51b85526020600486015284015282015266040d8cadccee8d60cb1b6064820152fd5b50828514610ea5565b8780fd5b8580fd5b8280fd5b50346102345760208060031936011261050a5760043580151581036110b25760045462054600906203f480826110ec83426131fc565b061061126b5733855261104a84526040852054908115611216578261111182426131fc565b04865261104b938486526002604088200133600052865260ff604060002054166111e157839190156111b8575061114a600454426131fc565b04855282845261115f6040862091825461284f565b90555b61116e600454426131fc565b0483528152600260408320019033600052526040600020600160ff19825416179055337f7ce969a18bb6b0fba42c6d9746e7d08eeca4c661809659c91d276456e3153ac08280a280f35b6111c290426131fc565b0485528284526111da6001604087200191825461284f565b9055611162565b60405162461bcd60e51b815260048101879052600d60248201526c185b1c9958591e481d9bdd1959609a1b6044820152606490fd5b60405162461bcd60e51b815260048101869052602760248201527f6e6f20706978656c73206f776e6564203d206e6f20766f74657320746f2062656044820152660818d85cdd195960ca1b6064820152608490fd5b60405162461bcd60e51b81526004810185905260196024820152782b37ba34b7339031bab93932b73a363c903737ba1037b832b760391b6044820152606490fd5b5034610234576112bb366128dc565b92916112c8848214612c3e565b845b8181106112d5578580f35b6112e0818386612c2e565b3560406112ee838887612c2e565b35911090811591611aa6575b50611a895761130a818386612c2e565b358652600960205260408620611321828786612c2e565b35875260205260408620546001600160a01b03166113eb57611344818386612c2e565b35865260096020526040862061135b828786612c2e565b358752602052604086203360018060a01b031982541617905533865261104a60205260408620805490600182018092116113d757556001905b61139f818487612c2e565b356113ab828887612c2e565b35907fee0e9a85d097f632450e6ac08750207c8f039246ee437b10eaf708b397d00ad88980a3016112ca565b634e487b7160e01b88526011600452602488fd5b61140c6113f9828487612c2e565b35611405838887612c2e565b3590613379565b611417828487612c2e565b35875260096020526040872061142e838887612c2e565b3588526020528060026040892001541160001461180857611450828487612c2e565b358752600960205260408720611467838887612c2e565b35885260205261147e81600260408a2001546131fc565b9060018060a01b03600554166040516370a0823160e01b8152336004820152602081602481855afa80156117fd578a906117c9575b6114ee91506114c386888b612c2e565b358b52600960205260408b206114da878c8b612c2e565b358c52602052600260408c2001541061314c565b604051636eb1769f60e11b815233600482015230602482015289602082604481865afa9182156117bc57868b898c8c948697611771575b509461156694611557856002956115476115bc9e9b9860409760209e9c612c2e565b35855260098c5285852093612c2e565b358252885220015411156131a4565b61157186888b612c2e565b358b526009835260408b20611587878c8b612c2e565b358c5283526040808c205490516323b872dd60e01b815295869384928e92849290916001600160a01b03163360048501612cb6565b03925af19081156117665761160b92602092611749575b506005546002546040516323b872dd60e01b81529485936001600160a01b039384169385938e93859390929091163360048501612cb6565b03925af1801561173e5761170f575b50611626818386612c2e565b35865260096020526040862061163d828786612c2e565b35875260209081526040808820546001600160a01b0316885261104a91829052872080546000198101919082116116fb575533875260205260408620805490600182018092116113d75755600190611696818487612c2e565b3587526009602052604087206116ad828887612c2e565b3588526020526040872033838060a01b03198254161790556116d0818487612c2e565b3587526009602052604087206116e7828887612c2e565b358852602052426004604089200155611394565b634e487b7160e01b89526011600452602489fd5b6117309060203d602011611737575b61172881836129a9565b810190612c9e565b503861161a565b503d61171e565b6040513d89823e3d90fd5b61175f90833d85116117375761172881836129a9565b50386115d3565b6040513d8a823e3d90fd5b979996505050505050506020823d6020116117b4575b81611794602093836129a9565b810103126117af5790519092908987868b898c611566611525565b600080fd5b3d9150611787565b50604051903d90823e3d90fd5b506020813d6020116117f5575b816117e3602093836129a9565b810103126117af576114ee90516114b3565b3d91506117d6565b6040513d8c823e3d90fd5b506005546040516370a0823160e01b81523360048201526024916001600160a01b0316906020818481855afa8015611a4a578990611a55575b61187c915061185185878a612c2e565b358a52600960205260408a20611868868b8a612c2e565b358b52602052600260408b2001541061314c565b604051636eb1769f60e11b8152336004820152306024820152602081604481855afa908115611a4a578991611a16575b50611946916118ec6020926118c287898c612c2e565b358c526009845260408c206118d8888d8c612c2e565b358d528452600260408d20015411156131a4565b6002546001600160a01b03169061190486888b612c2e565b358b526009835260408b2061191a878c8b612c2e565b358c528352600260408c200154918b6040518096819582946323b872dd60e01b84523360048501612cb6565b03925af18015611766576119f7575b50611961828487612c2e565b358752600960205260408720611978838887612c2e565b35885260209081526040808920546001600160a01b0316895261104a91829052882080546000198101919082116119e4575533885260205260408720805491600183018093116119d2575055600190611696818487612c2e565b634e487b7160e01b8952601160045288fd5b634e487b7160e01b8a526011600452838afd5b611a0f9060203d6020116117375761172881836129a9565b5038611955565b90506020813d602011611a42575b81611a31602093836129a9565b810103126117af57516119466118ac565b3d9150611a24565b6040513d8b823e3d90fd5b506020813d602011611a81575b81611a6f602093836129a9565b810103126117af5761187c9051611841565b3d9150611a62565b60405162461bcd60e51b815280611aa260048201612ab1565b0390fd5b604091501015386112fa565b612872565b6128c0565b503461023457602036600319011261023457611ad6612823565b6002546001600160a01b039190611af09083163314613209565b1660018060a01b0319600554161760055580f35b50346102345760208060031936011261050a576004359062054600611b2b600454426131fc565b04821015611cf35781835261104b808252611b5060408520600181549101549061284f565b908115611cbe57838552825260408420549060011c10611b6e578280f35b6001546001600160a01b03929084908416803b1561050a578180916024604051809481936335313c2160e11b83523060048401525af18015611cb357611c9b575b50506004927fd9dc24857f317ed9abbbb42e920ede0104231eb1d3d70236a74887ffaf159868838093604051908152a160015416604051938480926318160ddd60e01b82525afa918215611c90578392611c61575b506000198201918211611c4d5781835261104c815242604084205561104d9081815242600260408620015561fd20420192834211610ab157845252600360408320015538808280f35b634e487b7160e01b83526011600452602483fd5b9080925081813d8311611c89575b611c7981836129a9565b810103126117af57519038611c04565b503d611c6f565b6040513d85823e3d90fd5b611ca490612960565b611caf578338611baf565b8380fd5b6040513d84823e3d90fd5b60405162461bcd60e51b815260048101849052600d60248201526c139bc81d9bdd195cc818d85cdd609a1b6044820152606490fd5b6084906040519062461bcd60e51b82526004820152603660248201527f636865636b20766f7465206f7574636f6d6573206f6e6c7920706f737369626c6044820152756520666f7220636f6e636c75646564206379636c657360501b6064820152fd5b503461023457806003193601126102345760206203f48062054600611d7d600454426131fc565b0610604051908152f35b50346102345780600319360112610234576002546040516001600160a01b039091168152602090f35b5034610234576040366003190112610234576040611dcc612839565b9160043581526007602052209060018060a01b03166000526020526020604060002054604051908152f35b5034610234576020366003190112610234576004356001600160401b03811161050a57611e28903690600401612890565b6203f48062054600611e3c600454426131fc565b0610156122a1576040519161082083018381106001600160401b038211176108e65760405260408352610800366020850137835b828110611f4a57505050815b60408110611e88578280f35b611e928183612c04565b51611ea0575b600101611e7c565b604051611eac8161298e565b838152600682901b6001600160fa1b0383168303610ab157806040019081604011610e1b57905b808210611ef457505090611eed6001928261100a01612ae2565b9050611e98565b9091611000831015611f365760206108db611f30926108cd6040519382611f24869451809284808801910161277f565b83010187600a01613c1d565b90611ed3565b634e487b7160e01b86526032600452602486fd5b600581811b830135601e198436030181121561229d57830180356001600160401b0381116110aa576020820192813603841361229957829182019060208201916080938491031261229557896060850135938501356001600160401b03811161050a57850183603f8201121561050a576020810135611fc881612a96565b94611fd660405196876129a9565b818652604082840101116110b2578060406020930183870137840101526040853510801590612287575b611a8957600a8310156122495760ff9085358b52600960205260408b2060408601358c5260205260408b200154166121ec5783358952600960209081526040808b20858201358c529091528920546001600160a01b03163314612070575b5050505061206b90612a87565b611e70565b6120979084358a52600960205260408a2060408501358b52602052600360408b2001612ae2565b82358852600960209081526040808a2084820135808c5292528920600101919091556001600160fa1b03811690036121d8576120db604082013560061b833561284f565b82358852600960205260408820604083013589526020526001604089200154833560098535020460091484351517156116fb576040830135600980820282900414901517156116fb576121639084358a52600960205260408a2060408501358b5260205261214e600360408c20016129ca565b906009604086013502906009873502906134bd565b906110008110156121c4579161218360409261206b969594600a01612ae2565b6001612192838301358a612c04565b52013590357fa9a418da632d42c446a125f10b007831ba0e348168b6b2474a2383ac5df4c2808880a39038808061205e565b634e487b7160e01b89526032600452602489fd5b634e487b7160e01b87526011600452602487fd5b60405162461bcd60e51b815260206004820152602f60248201527f6f776e6572207761732061736b656420746f20666972737420736574746c652060448201526e1c9bde585b1d1e481c185e5b595b9d608a1b6064820152608490fd5b60405162461bcd60e51b81526020600482015260166024820152757368617065204944206e6f7420617661696c61626c6560501b6044820152606490fd5b506040808501351015612000565b8980fd5b8880fd5b8680fd5b60405162461bcd60e51b815260206004820152602260248201527f417274697374696320706572696f642063757272656e746c79206e6f74206f7060448201526132b760f11b6064820152608490fd5b50346102345760203660031901126102345760408091600435815261104b602052206001815491015482519182526020820152f35b50346102345760208060031936011261050a5760043561234461349a565b80835261104d9081835261236260ff600460408720015416156133d6565b80845281835261237a6002604086200154421161341e565b8084528183524260036040862001541015612640578084528183526040842080546001600160a01b0393919084169081612578575050604051603f80868301836123e4334442859160549391835260208301526001600160601b03199060601b1660408201520190565b03936123f8601f19958681018352826129a9565b519020169160405161243e8882019282612432334442889160549391835260208301526001600160601b03199060601b1660408201520190565b039081018352826129a9565b5190201691838752855260046040872001600160ff19825416179055858460015416828252600987526040822084835287528560408320541690803b156110b2578583916124a49383604051809681958294632142170760e11b84523060048501612cb6565b03925af18015611cb357612564575b5052600984526040852090855283527fd2aa34a4fdbbc6dff6a3e56f46e0f3ae2a31d7785ff3487aa5c95c642acea5016060836040872054166040519084825286820152866040820152a15b835b6040811061251157846001815580f35b845b604081106125245750600101612501565b818652600985526040808720828852865280872054851680885261104a875281882054858952600788528289206000928352885291902055600101612513565b61256d90612960565b6110ae5785386124b3565b600401600160ff1982541617905585846001541691823b1561050a576125b892859183604051809681958294632142170760e11b84523060048501612cb6565b03925af1801561263557612622575b5081855283526040808520805460019091015482518481529185166001600160a01b03166020830152918101919091527fd2aa34a4fdbbc6dff6a3e56f46e0f3ae2a31d7785ff3487aa5c95c642acea50190606090a16124ff565b61262e90959195612960565b93386125c7565b6040513d88823e3d90fd5b60405162461bcd60e51b8152600481018490526015602482015274185d58dd1a5bdb881b9bdd08195b991959081e595d605a1b6044820152606490fd5b503461023457604036600319011261023457604060209161269c612839565b6004358252600784528282206001600160a01b03909116825283522054604051908152f35b50346102345780600319360112610234576020604051620546008152f35b50346102345760203660031901126102345760ff6040602092612700612823565b62054600612710600454426131fc565b04825261104b85528282206001600160a01b03909116825260020184522054604051911615158152f35b5034610234576102ef61275561274f36612769565b906132a2565b6040519182916020835260208301906127c7565b60409060031901126117af576004359060243590565b60005b8381106127925750506000910152565b8181015183820152602001612782565b906020916127bb8151809281855285808601910161277f565b601f01601f1916010190565b9060018060a01b038251168152602082015160208201526040820151604082015260c080612804606085015160e0606086015260e08501906127a2565b936080810151608085015260a0810151151560a0850152015191015290565b600435906001600160a01b03821682036117af57565b602435906001600160a01b03821682036117af57565b9190820180921161285c57565b634e487b7160e01b600052601160045260246000fd5b346117af5760003660031901126117af5760206040516203f4808152f35b9181601f840112156117af578235916001600160401b0383116117af576020808501948460051b0101116117af57565b346117af5760003660031901126117af57602060405160408152f35b60406003198201126117af576001600160401b03916004358381116117af578261290891600401612890565b939093926024359182116117af5761292291600401612890565b9091565b90600182811c92168015612956575b602083101461294057565b634e487b7160e01b600052602260045260246000fd5b91607f1691612935565b6001600160401b0381116108e657604052565b60e081019081106001600160401b038211176108e657604052565b602081019081106001600160401b038211176108e657604052565b90601f801991011681019081106001600160401b038211176108e657604052565b90604051918260008254926129de84612926565b908184526001948581169081600014612a4d5750600114612a0a575b5050612a08925003836129a9565b565b9093915060005260209081600020936000915b818310612a35575050612a08935082010138806129fa565b85548884018501529485019487945091830191612a1d565b915050612a0894506020925060ff191682840152151560051b82010138806129fa565b6001600160401b0381116108e65760051b60200190565b600019811461285c5760010190565b6001600160401b0381116108e657601f01601f191660200190565b606090602081526016602082015275706978656c206973206f7574206f6620626f756e647360501b60408201520190565b91909182516001600160401b0381116108e657612aff8254612926565b601f8111612ba9575b50602080601f8311600114612b45575081929394600092612b3a575b50508160011b916000199060031b1c1916179055565b015190503880612b24565b90601f198316958460005282600020926000905b888210612b9157505083600195969710612b78575b505050811b019055565b015160001960f88460031b161c19169055388080612b6e565b80600185968294968601518155019501930190612b59565b600083815260208120601f840160051c81019260208510612be7575b601f0160051c01915b828110612bdc575050612b08565b818155600101612bce565b9092508290612bc5565b8181029291811591840414171561285c57565b8051821015612c185760209160051b010190565b634e487b7160e01b600052603260045260246000fd5b9190811015612c185760051b0190565b15612c4557565b60405162461bcd60e51b815260206004820152602b60248201527f7820616e64207920696e7075742061727261797320617265206f66207661726960448201526a6f7573206c656e6774687360a81b6064820152608490fd5b908160209103126117af575180151581036117af5790565b6001600160a01b03918216815291166020820152604081019190915260600190565b92919091612ce7818414612c3e565b60005b838110612cf8575050505050565b612d03818587612c2e565b35612d0f828486612c2e565b3560408080931091821592613141575b505061312a57612d30828688612c2e565b35600052600960209080825282600020612d4b858789612c2e565b35600052825260018060a01b033381856000205416036130db57612d7085898b612c2e565b3560005281835283600020612d8686888a612c2e565b3560005283526004428186600020015403612daf575b5050505050612daa90612a87565b612cea565b612dc9612dbd878b8d612c2e565b35611405888a8c612c2e565b600592808454169087516370a0823160e01b8152338582015260249088818381875afa90811561304f579085916000916130ab575b501061305a578851636eb1769f60e11b8152338682019081523060208201528990829081906040010381875afa90811561304f5790859160009161301f575b5010612fce5750918691612e6c936002541660008a518096819582946323b872dd60e01b8452338b8501612cb6565b03925af18015612fc35792612ec6888c8e829a97968e612eb38f9e612daa9f869d9a829f9c612fa6575b50612ea2828888612c2e565b356000528a8c528c60002093612c2e565b3560005288524290896000200155612c2e565b3560005281835283600020612edc878b8d612c2e565b3560005283528b60ff8286600020015416612f3f575b92505050612f0293929150612c2e565b35612f0e828587612c2e565b35907fe61af2269c9afbdb69efce2b15f2a464f8ee6237f105b3d4024f2e824a9f0af3600080a39038808080612d9c565b600096600696612f4e92612c2e565b358652818352838620612f62888b8d612c2e565b358752835283862001805460ff19169055612f7e868b8d612c2e565b358552815281842090612f9286898b612c2e565b35855252822001558085388080808b612ef2565b612fbc908d803d106117375761172881836129a9565b5038612e96565b86513d6000823e3d90fd5b8460276084928a8c519362461bcd60e51b85528401528201527f696e73756666696369656e7420616c6c6f77616e636520746f2070617920726f60448201526679616c7469657360c81b6064820152fd5b91508982813d8311613048575b61303681836129a9565b81010312610234575084905138612e3d565b503d61302c565b8a513d6000823e3d90fd5b8460276084928a8c519362461bcd60e51b85528401528201527f6e6f742073756666696369656e742062616c616e636520746f2070617920726f60448201526679616c7469657360c81b6064820152fd5b91508982813d83116130d4575b6130c281836129a9565b81010312610234575084905138612dfe565b503d6130b8565b835162461bcd60e51b815260048101849052602260248201527f6f6e6c7920706978656c206f776e65722063616e2070617920726f79616c7469604482015261657360f01b6064820152608490fd5b5162461bcd60e51b815280611aa260048201612ab1565b101590508138612d1f565b1561315357565b60405162461bcd60e51b815260206004820152602360248201527f6e6f742073756666696369656e742062616c616e636520746f206275792070696044820152621e195b60ea1b6064820152608490fd5b156131ab57565b60405162461bcd60e51b815260206004820152602360248201527f696e73756666696369656e7420616c6c6f77616e636520746f206275792070696044820152621e195b60ea1b6064820152608490fd5b9190820391821161285c57565b1561321057565b60405162461bcd60e51b815260206004820152602c60248201527f6f776e65722063757272656e74206d616e616765722063616e2063616c6c207460448201526b3434b990333ab731ba34b7b760a11b6064820152608490fd5b6040519061327782612973565b8160c06000918281528260208201528260408201526060808201528260808201528260a08201520152565b906132ab61326a565b5060409182811080613370575b1561333657600052600960205281600020906000526020526006816000208251926132e284612973565b81546001600160a01b031684526001820154602085015260028201549084015261330e600382016129ca565b60608401526004810154608084015260ff600582015416151560a0840152015460c082015290565b825162461bcd60e51b8152602060048201526013602482015272706978656c206f7574206f6620626f756e647360681b6044820152606490fd5b508282106132b8565b6133c96133d2916002604064073df160009560009084825260096020528282208183526020526133af60048484200154426131fc565b948252600960205282822090825260205220015490612bf1565b60035490612bf1565b0490565b156133dd57565b60405162461bcd60e51b815260206004820152601960248201527861756374696f6e2068617320656e64656420616c726561647960381b6044820152606490fd5b1561342557565b60405162461bcd60e51b815260206004820152601b60248201527f61756374696f6e20686173206e6f7420737461727465642079657400000000006044820152606490fd5b3d15613495573d9061347b82612a96565b9161348960405193846129a9565b82523d6000602084013e565b606090565b6002600054146134ab576002600055565b604051633ee5aeb560e01b8152600490fd5b919290928215613b615760018314613a925760028314613a685760038314613a0c576004928381146139b8576005811461385b576006811461380957600781146137a257600881146136bf5760091461352757505050506040516135208161298e565b6000815290565b61353084613ca0565b9061353a81613ca0565b600886018087116136aa5761354e90613ca0565b946008830180931161369557509161367682613692969461358361357d61357760499997613ca0565b9a613ca0565b92613ca0565b91604051998a97602a6135b38a602099693c7061746820643d224d60b01b8b8301528a815194859301910161277f565b890193600160fd1b9485602a8201526135d5825180938b602b8501910161277f565b016b010209c101c101810181018960a51b602b8201526135fe825180938a60378501910161277f565b01836037820152613618825180938960388501910161277f565b0161081360f21b60388201526136378251809388603a8501910161277f565b0190603a8201526136518251809386603b8501910161277f565b019169102d11103334b6361e9160b11b603b840152835193849160458501910161277f565b01631110179f60e11b60458201520360298101845201826129a9565b90565b601190634e487b7160e01b6000525260246000fd5b601186634e487b7160e01b6000525260246000fd5b5092600881019384821161378d576136d685613ca0565b916136e96136e383613ca0565b91613ca0565b946008830180931161369557509161367682613692969461371261357d61357760499997613ca0565b91604051998a97602a6137428a602099693c7061746820643d224d60b01b8b8301528a815194859301910161277f565b890193600160fd1b9485602a820152613764825180938b602b8501910161277f565b016b010209c101c101810181018160a51b602b8201526135fe825180938a60378501910161277f565b601184634e487b7160e01b6000525260246000fd5b506137ac84613ca0565b906137b681613ca0565b600886018096116137f4576137ca86613ca0565b94600883019081841161369557506049949261369296949261371261357d61357761367695613ca0565b601185634e487b7160e01b6000525260246000fd5b5061381384613ca0565b90600881018082116137f45761382890613ca0565b9360088601908187116136955750916136766049949261384b6136929795613ca0565b9461371261357d61357784613ca0565b509261386681613ca0565b9060088501908186116137f45761387c82613ca0565b9061388f61388982613ca0565b97613ca0565b95600882018092116136955750603f94926136929694926138b561357d61399c94613ca0565b91604051998a97602a6138e58a602099693c7061746820643d224d60b01b8b8301528a815194859301910161277f565b890193600160fd1b9485602a820152613907825180938b602b8501910161277f565b019161081360f21b9283602b820152613929825180938b602d8501910161277f565b0184602d820152613943825180938a602e8501910161277f565b0190602e82015261395d825180938860308501910161277f565b01906030820152613977825180938660318501910161277f565b019169103d11103334b6361e9160b11b60318401528351938491603b8501910161277f565b01631110179f60e11b603b82015203601f8101845201826129a9565b5092916008830190818411613695576139d082613ca0565b91600886019182871161369557509161399c8261369296946138b561357d613889613a06613a00603f9b99613ca0565b94613ca0565b9b613ca0565b9150613a1783613ca0565b92613a2183613ca0565b916008820180921161285c57613a3682613ca0565b94613a49613a4386613ca0565b93613ca0565b946008810180911161285c5761369295603f956138b561399c93613ca0565b9150613a7383613ca0565b92613a7d83613ca0565b916008820180831161285c57613a3690613ca0565b9150916004810180911161285c57613aa990613ca0565b906004810180911161285c5761369291613ac4604492613ca0565b936040519485926b1e31b4b931b6329031bc1e9160a11b6020850152613af4815180926020602c8801910161277f565b830165111031bc9e9160d11b602c820152613b1982518093602060328501910161277f565b016d1110391e911a11103334b6361e9160911b6032820152613b4582518093602060408501910161277f565b01631110179f60e11b60408201520360248101845201826129a9565b6136929250613b756136e3604f9395613ca0565b93604051948592681e3932b1ba103c1e9160b91b6020850152613ba281518092602060298801910161277f565b83016411103c9e9160d91b6029820152613bc6825180936020602e8501910161277f565b017f222077696474683d223822206865696768743d2238222066696c6c3d22000000602e820152613c01825180936020604b8501910161277f565b01631110179f60e11b604b82015203602f8101845201826129a9565b600092918154613c2c81612926565b92600191808316908115613c855750600114613c49575b50505050565b90919293945060005260209081600020906000915b858310613c745750505050019038808080613c43565b805485840152918301918101613c5e565b60ff1916845250505081151590910201915038808080613c43565b8015613d605780816000925b613d4c575080613cbb83612a96565b92613cc960405194856129a9565b808452601f19613cd882612a96565b01366020860137915b613cea57505090565b60001982019180831161285c5782600a908184049382850292858404148515171561285c57613d1c60ff9384926131fc565b1660300191821161285c5785511115612c185760f81b6001600160f81b03191660001a908401601f015380613ce1565b91613d58600a91612a87565b920480613cac565b50604051604081018181106001600160401b038211176108e65760405260018152600360fc1b60208201529056fea264697066735822122004fb51865f6abaf614ddae3e19c7e6f6346167a9af73d9b0449b675abcec102164736f6c634300081400336080806040523461001657610794908161001c8239f35b600080fdfe6080604052600436101561001257600080fd5b6000803560e01c9081632e08d6021461007a5750806358161a4214610075578063b861619514610070578063cf06c7b71461006b578063dd1d2599146100665763e27d51531461006157600080fd5b6103f7565b6103d6565b6103b0565b6102bb565b61020d565b346101515760203660031901126101515760043567ffffffffffffffff811161014d576100ab9036906004016101ad565b600180825111156100fc57805b6100de575b6100da6100c98361045a565b516040519081529081906020820190565b0390f35b80825111156100f7576100f18192610511565b916100b8565b6100bd565b60405162461bcd60e51b815260206004820152602360248201527f776f6e27742067656e657261746520726f6f7420666f722073696e676c65206c60448201526232b0b360e91b6064820152608490fd5b5080fd5b80fd5b634e487b7160e01b600052604160045260246000fd5b6040519190601f01601f1916820167ffffffffffffffff81118382101761019057604052565b610154565b67ffffffffffffffff81116101905760051b60200190565b9080601f83011215610208578135906101cd6101c883610195565b61016a565b9182938184526020808095019260051b820101928311610208578301905b8282106101f9575050505090565b813581529083019083016101eb565b600080fd5b346102085760603660031901126102085760243567ffffffffffffffff81116102085761023e9036906004016101ad565b60443581516000925b81841061025d5760405160043584148152602090f35b909161027660019161026f868561047d565b5190610437565b9301929190610247565b6020908160408183019282815285518094520193019160005b8281106102a7575050505090565b835185529381019392810192600101610299565b346102085760403660031901126102085760043567ffffffffffffffff8111610208576102ec9036906004016101ad565b602435906001906102ff82825111610491565b61031161030c8251610632565b6104e9565b92600080845b61032a575b604051806100da8882610280565b8351858111156103aa578584939261036f92828080981614600014610379575061035860001986018861047d565b51610363828b61047d565b525b0192841c94610511565b9392919091610317565b85830190810361039557508361038f828b61047d565b52610365565b61039f908861047d565b5161038f828b61047d565b5061031c565b346102085760203660031901126102085760206103ce600435610632565b604051908152f35b346102085760403660031901126102085760206103ce602435600435610437565b3461020857602036600319011261020857600435806000815b61042a576020925060405191806001811901161490038152f35b600192831c920182610410565b8181101561044e576000526020525b604060002090565b90600052602052610446565b8051156104675760200190565b634e487b7160e01b600052603260045260246000fd5b80518210156104675760209160051b010190565b1561049857565b60405162461bcd60e51b8152602060048201526024808201527f776f6e27742067656e65726174652070726f6f6620666f722073696e676c65206044820152633632b0b360e11b6064820152608490fd5b906104f66101c883610195565b8281528092610507601f1991610195565b0190602036910137565b90815160019081808216146000146105a9576105308282811c016104e9565b916000196105408382018761047d565b516000805260205261055a6040600020918551018561047d565b525b600019909101906000805b8382106105775750929450505050565b82600291610595610588858b61047d565b5161026f8487018c61047d565b61059f828961047d565b5201910190610567565b6105b481831c6104e9565b9161055c565b90604082018092116105c857565b634e487b7160e01b600052601160045260246000fd5b90602082018092116105c857565b90601082018092116105c857565b90600882018092116105c857565b90600482018092116105c857565b90600282018092116105c857565b90600182018092116105c857565b60018111156107585760009080600160801b81101561074d575b600290600160401b81101561073a575b640100000000811015610727575b62010000811015610714575b610100811015610701575b60108110156106ee575b60048110156106dc575b10156106cc575b806106a78119610624565b1614806106c3575b156106b75790565b6106c090610624565b90565b508015156106af565b906106d690610624565b9061069c565b6106e890821c93610616565b92610695565b6106fb9060041c93610608565b9261068b565b61070e9060081c936105fa565b92610681565b6107219060101c936105ec565b92610676565b6107349060201c936105de565b9261066a565b6107479060401c936105ba565b9261065c565b60809250821c61064c565b5060009056fea264697066735822122029596db90313b4fb257efd2fbf9ba954b5a2054bf304a0aa15f5e78439e12f4364736f6c63430008140033",
  "linkReferences": {},
  "deployedLinkReferences": {}
}