{
  "_format": "hh-sol-artifact-1",
  "contractName": "Pixelmap",
  "sourceName": "contracts/Pixelmap.sol",
  "abi": [
    {
      "inputs": [],
      "stateMutability": "nonpayable",
      "type": "constructor"
    },
    {
      "inputs": [],
      "name": "ReentrancyGuardReentrantCall",
      "type": "error"
    },
    {
      "anonymous": false,
      "inputs": [
        {
          "indexed": false,
          "internalType": "uint256",
          "name": "tokenID",
          "type": "uint256"
        },
        {
          "indexed": false,
          "internalType": "address",
          "name": "bidder",
          "type": "address"
        },
        {
          "indexed": false,
          "internalType": "uint256",
          "name": "bid",
          "type": "uint256"
        }
      ],
      "name": "AuctionEnded",
      "type": "event"
    },
    {
      "anonymous": false,
      "inputs": [
        {
          "indexed": false,
          "internalType": "uint256",
          "name": "tokenID",
          "type": "uint256"
        },
        {
          "indexed": false,
          "internalType": "address",
          "name": "bidder",
          "type": "address"
        },
        {
          "indexed": false,
          "internalType": "uint256",
          "name": "bid",
          "type": "uint256"
        }
      ],
      "name": "BidPlace",
      "type": "event"
    },
    {
      "anonymous": false,
      "inputs": [
        {
          "indexed": false,
          "internalType": "uint256",
          "name": "tokenID",
          "type": "uint256"
        },
        {
          "indexed": false,
          "internalType": "address",
          "name": "bidder",
          "type": "address"
        },
        {
          "indexed": false,
          "internalType": "uint256",
          "name": "bid",
          "type": "uint256"
        }
      ],
      "name": "BidWithdrawn",
      "type": "event"
    },
    {
      "anonymous": false,
      "inputs": [
        {
          "indexed": false,
          "internalType": "uint256",
          "name": "cycle",
          "type": "uint256"
        }
      ],
      "name": "NFTMinted",
      "type": "event"
    },
    {
      "anonymous": false,
      "inputs": [
        {
          "indexed": true,
          "internalType": "uint256",
          "name": "x",
          "type": "uint256"
        },
        {
          "indexed": true,
          "internalType": "uint256",
          "name": "y",
          "type": "uint256"
        }
      ],
      "name": "PixelBought",
      "type": "event"
    },
    {
      "anonymous": false,
      "inputs": [
        {
          "indexed": true,
          "internalType": "uint256",
          "name": "x",
          "type": "uint256"
        },
        {
          "indexed": true,
          "internalType": "uint256",
          "name": "y",
          "type": "uint256"
        }
      ],
      "name": "PixelFilled",
      "type": "event"
    },
    {
      "anonymous": false,
      "inputs": [
        {
          "indexed": true,
          "internalType": "uint256",
          "name": "x",
          "type": "uint256"
        },
        {
          "indexed": true,
          "internalType": "uint256",
          "name": "y",
          "type": "uint256"
        }
      ],
      "name": "PixelValueSet",
      "type": "event"
    },
    {
      "anonymous": false,
      "inputs": [
        {
          "indexed": true,
          "internalType": "uint256",
          "name": "x",
          "type": "uint256"
        },
        {
          "indexed": true,
          "internalType": "uint256",
          "name": "y",
          "type": "uint256"
        }
      ],
      "name": "RoyaltiesPaid",
      "type": "event"
    },
    {
      "anonymous": false,
      "inputs": [
        {
          "indexed": true,
          "internalType": "address",
          "name": "owner",
          "type": "address"
        }
      ],
      "name": "VoteCasted",
      "type": "event"
    },
    {
      "inputs": [],
      "name": "AUCTION_DURATION",
      "outputs": [
        {
          "internalType": "uint256",
          "name": "",
          "type": "uint256"
        }
      ],
      "stateMutability": "view",
      "type": "function"
    },
    {
      "inputs": [],
      "name": "CYCLE_PERIOD",
      "outputs": [
        {
          "internalType": "uint256",
          "name": "",
          "type": "uint256"
        }
      ],
      "stateMutability": "view",
      "type": "function"
    },
    {
      "inputs": [
        {
          "internalType": "uint256",
          "name": "",
          "type": "uint256"
        },
        {
          "internalType": "address",
          "name": "",
          "type": "address"
        }
      ],
      "name": "auctionClaims",
      "outputs": [
        {
          "internalType": "uint256",
          "name": "",
          "type": "uint256"
        }
      ],
      "stateMutability": "view",
      "type": "function"
    },
    {
      "inputs": [
        {
          "internalType": "uint256",
          "name": "",
          "type": "uint256"
        },
        {
          "internalType": "address",
          "name": "",
          "type": "address"
        }
      ],
      "name": "auctionClaimsFlag",
      "outputs": [
        {
          "internalType": "bool",
          "name": "",
          "type": "bool"
        }
      ],
      "stateMutability": "view",
      "type": "function"
    },
    {
      "inputs": [
        {
          "internalType": "address",
          "name": "",
          "type": "address"
        }
      ],
      "name": "balanceOf",
      "outputs": [
        {
          "internalType": "uint256",
          "name": "",
          "type": "uint256"
        }
      ],
      "stateMutability": "view",
      "type": "function"
    },
    {
      "inputs": [
        {
          "internalType": "uint8[]",
          "name": "xValues",
          "type": "uint8[]"
        },
        {
          "internalType": "uint8[]",
          "name": "yValues",
          "type": "uint8[]"
        }
      ],
      "name": "buyPixel",
      "outputs": [],
      "stateMutability": "nonpayable",
      "type": "function"
    },
    {
      "inputs": [
        {
          "internalType": "uint8",
          "name": "x",
          "type": "uint8"
        },
        {
          "internalType": "uint8",
          "name": "y",
          "type": "uint8"
        }
      ],
      "name": "calculateRoyalties",
      "outputs": [
        {
          "internalType": "uint256",
          "name": "",
          "type": "uint256"
        }
      ],
      "stateMutability": "view",
      "type": "function"
    },
    {
      "inputs": [],
      "name": "canvasCreation",
      "outputs": [
        {
          "internalType": "uint256",
          "name": "",
          "type": "uint256"
        }
      ],
      "stateMutability": "view",
      "type": "function"
    },
    {
      "inputs": [
        {
          "internalType": "bool",
          "name": "vote",
          "type": "bool"
        }
      ],
      "name": "castVote",
      "outputs": [],
      "stateMutability": "nonpayable",
      "type": "function"
    },
    {
      "inputs": [
        {
          "internalType": "uint8[]",
          "name": "xValues",
          "type": "uint8[]"
        },
        {
          "internalType": "uint8[]",
          "name": "yValues",
          "type": "uint8[]"
        }
      ],
      "name": "checkMultiplePixel",
      "outputs": [
        {
          "components": [
            {
              "internalType": "address",
              "name": "owner",
              "type": "address"
            },
            {
              "internalType": "uint8",
              "name": "shapeID",
              "type": "uint8"
            },
            {
              "internalType": "bool",
              "name": "askedToPayRoyalties",
              "type": "bool"
            },
            {
              "internalType": "uint256",
              "name": "price",
              "type": "uint256"
            },
            {
              "internalType": "uint256",
              "name": "royaltyLastPaid",
              "type": "uint256"
            },
            {
              "internalType": "uint256",
              "name": "royaltyAskDate",
              "type": "uint256"
            },
            {
              "internalType": "string",
              "name": "color",
              "type": "string"
            }
          ],
          "internalType": "struct Pixelmap.Pixel[]",
          "name": "results",
          "type": "tuple[]"
        }
      ],
      "stateMutability": "view",
      "type": "function"
    },
    {
      "inputs": [
        {
          "internalType": "uint8",
          "name": "x",
          "type": "uint8"
        },
        {
          "internalType": "uint8",
          "name": "y",
          "type": "uint8"
        }
      ],
      "name": "checkPixel",
      "outputs": [
        {
          "components": [
            {
              "internalType": "address",
              "name": "owner",
              "type": "address"
            },
            {
              "internalType": "uint8",
              "name": "shapeID",
              "type": "uint8"
            },
            {
              "internalType": "bool",
              "name": "askedToPayRoyalties",
              "type": "bool"
            },
            {
              "internalType": "uint256",
              "name": "price",
              "type": "uint256"
            },
            {
              "internalType": "uint256",
              "name": "royaltyLastPaid",
              "type": "uint256"
            },
            {
              "internalType": "uint256",
              "name": "royaltyAskDate",
              "type": "uint256"
            },
            {
              "internalType": "string",
              "name": "color",
              "type": "string"
            }
          ],
          "internalType": "struct Pixelmap.Pixel",
          "name": "",
          "type": "tuple"
        }
      ],
      "stateMutability": "view",
      "type": "function"
    },
    {
      "inputs": [
        {
          "internalType": "uint256",
          "name": "_cycle",
          "type": "uint256"
        }
      ],
      "name": "checkVoteOutcome",
      "outputs": [],
      "stateMutability": "nonpayable",
      "type": "function"
    },
    {
      "inputs": [
        {
          "internalType": "uint256",
          "name": "_tokenID",
          "type": "uint256"
        }
      ],
      "name": "closeAuction",
      "outputs": [],
      "stateMutability": "nonpayable",
      "type": "function"
    },
    {
      "inputs": [
        {
          "internalType": "bytes[]",
          "name": "_pixels",
          "type": "bytes[]"
        }
      ],
      "name": "fillPixel",
      "outputs": [],
      "stateMutability": "nonpayable",
      "type": "function"
    },
    {
      "inputs": [],
      "name": "generateMerkle",
      "outputs": [
        {
          "internalType": "bytes32",
          "name": "",
          "type": "bytes32"
        }
      ],
      "stateMutability": "view",
      "type": "function"
    },
    {
      "inputs": [],
      "name": "generateSVG",
      "outputs": [
        {
          "internalType": "string",
          "name": "svgString",
          "type": "string"
        }
      ],
      "stateMutability": "view",
      "type": "function"
    },
    {
      "inputs": [
        {
          "internalType": "uint256",
          "name": "tokenID",
          "type": "uint256"
        },
        {
          "internalType": "address",
          "name": "user",
          "type": "address"
        }
      ],
      "name": "getAuctionClaimFlag",
      "outputs": [
        {
          "internalType": "bool",
          "name": "",
          "type": "bool"
        }
      ],
      "stateMutability": "view",
      "type": "function"
    },
    {
      "inputs": [
        {
          "internalType": "uint256",
          "name": "tokenID",
          "type": "uint256"
        },
        {
          "internalType": "address",
          "name": "user",
          "type": "address"
        }
      ],
      "name": "getAuctionClaims",
      "outputs": [
        {
          "internalType": "uint256",
          "name": "",
          "type": "uint256"
        }
      ],
      "stateMutability": "view",
      "type": "function"
    },
    {
      "inputs": [
        {
          "internalType": "address",
          "name": "_owner",
          "type": "address"
        }
      ],
      "name": "getBalance",
      "outputs": [
        {
          "internalType": "uint256",
          "name": "",
          "type": "uint256"
        }
      ],
      "stateMutability": "view",
      "type": "function"
    },
    {
      "inputs": [],
      "name": "getCurrentCycle",
      "outputs": [
        {
          "internalType": "uint256",
          "name": "",
          "type": "uint256"
        }
      ],
      "stateMutability": "view",
      "type": "function"
    },
    {
      "inputs": [
        {
          "internalType": "uint256",
          "name": "_tokenID",
          "type": "uint256"
        }
      ],
      "name": "getMintDate",
      "outputs": [
        {
          "internalType": "uint256",
          "name": "",
          "type": "uint256"
        }
      ],
      "stateMutability": "view",
      "type": "function"
    },
    {
      "inputs": [
        {
          "internalType": "address",
          "name": "_owner",
          "type": "address"
        }
      ],
      "name": "hasVoted",
      "outputs": [
        {
          "internalType": "bool",
          "name": "",
          "type": "bool"
        }
      ],
      "stateMutability": "view",
      "type": "function"
    },
    {
      "inputs": [],
      "name": "isInArtisticPeriod",
      "outputs": [
        {
          "internalType": "bool",
          "name": "",
          "type": "bool"
        }
      ],
      "stateMutability": "view",
      "type": "function"
    },
    {
      "inputs": [],
      "name": "isInVotingPeriod",
      "outputs": [
        {
          "internalType": "bool",
          "name": "",
          "type": "bool"
        }
      ],
      "stateMutability": "view",
      "type": "function"
    },
    {
      "inputs": [],
      "name": "manager",
      "outputs": [
        {
          "internalType": "address",
          "name": "",
          "type": "address"
        }
      ],
      "stateMutability": "view",
      "type": "function"
    },
    {
      "inputs": [
        {
          "internalType": "uint256",
          "name": "",
          "type": "uint256"
        }
      ],
      "name": "mintDates",
      "outputs": [
        {
          "internalType": "uint256",
          "name": "",
          "type": "uint256"
        }
      ],
      "stateMutability": "view",
      "type": "function"
    },
    {
      "inputs": [
        {
          "internalType": "uint256",
          "name": "",
          "type": "uint256"
        }
      ],
      "name": "nftAuctions",
      "outputs": [
        {
          "internalType": "address",
          "name": "winningAddr",
          "type": "address"
        },
        {
          "internalType": "uint256",
          "name": "winningBid",
          "type": "uint256"
        },
        {
          "internalType": "uint256",
          "name": "auctionStart",
          "type": "uint256"
        },
        {
          "internalType": "uint256",
          "name": "auctionEnd",
          "type": "uint256"
        },
        {
          "internalType": "bool",
          "name": "auctionEnded",
          "type": "bool"
        }
      ],
      "stateMutability": "view",
      "type": "function"
    },
    {
      "inputs": [],
      "name": "nftContract",
      "outputs": [
        {
          "internalType": "contract CanvasCollection",
          "name": "",
          "type": "address"
        }
      ],
      "stateMutability": "view",
      "type": "function"
    },
    {
      "inputs": [
        {
          "internalType": "uint8[]",
          "name": "xValues",
          "type": "uint8[]"
        },
        {
          "internalType": "uint8[]",
          "name": "yValues",
          "type": "uint8[]"
        }
      ],
      "name": "payRoyalties",
      "outputs": [],
      "stateMutability": "nonpayable",
      "type": "function"
    },
    {
      "inputs": [
        {
          "internalType": "uint256",
          "name": "_tokenID",
          "type": "uint256"
        }
      ],
      "name": "placeBid",
      "outputs": [],
      "stateMutability": "payable",
      "type": "function"
    },
    {
      "inputs": [],
      "name": "royaltyDenominator",
      "outputs": [
        {
          "internalType": "uint256",
          "name": "",
          "type": "uint256"
        }
      ],
      "stateMutability": "view",
      "type": "function"
    },
    {
      "inputs": [],
      "name": "royaltyRate",
      "outputs": [
        {
          "internalType": "uint8",
          "name": "",
          "type": "uint8"
        }
      ],
      "stateMutability": "view",
      "type": "function"
    },
    {
      "inputs": [
        {
          "internalType": "uint8",
          "name": "x",
          "type": "uint8"
        },
        {
          "internalType": "uint8",
          "name": "y",
          "type": "uint8"
        },
        {
          "internalType": "uint256",
          "name": "_price",
          "type": "uint256"
        }
      ],
      "name": "seekRoyaltyPayment",
      "outputs": [],
      "stateMutability": "nonpayable",
      "type": "function"
    },
    {
      "inputs": [
        {
          "internalType": "address",
          "name": "_nftContract",
          "type": "address"
        }
      ],
      "name": "setNFTContract",
      "outputs": [],
      "stateMutability": "nonpayable",
      "type": "function"
    },
    {
      "inputs": [
        {
          "internalType": "uint8[]",
          "name": "xValues",
          "type": "uint8[]"
        },
        {
          "internalType": "uint8[]",
          "name": "yValues",
          "type": "uint8[]"
        },
        {
          "internalType": "uint256[]",
          "name": "priceValues",
          "type": "uint256[]"
        }
      ],
      "name": "setPixelValue",
      "outputs": [],
      "stateMutability": "nonpayable",
      "type": "function"
    },
    {
      "inputs": [
        {
          "internalType": "address",
          "name": "_newToken",
          "type": "address"
        }
      ],
      "name": "updateCurrency",
      "outputs": [],
      "stateMutability": "nonpayable",
      "type": "function"
    },
    {
      "inputs": [
        {
          "internalType": "uint256",
          "name": "",
          "type": "uint256"
        }
      ],
      "name": "voteRegister",
      "outputs": [
        {
          "internalType": "uint256",
          "name": "yesVotes",
          "type": "uint256"
        },
        {
          "internalType": "uint256",
          "name": "noVotes",
          "type": "uint256"
        }
      ],
      "stateMutability": "view",
      "type": "function"
    },
    {
      "inputs": [
        {
          "internalType": "uint8",
          "name": "",
          "type": "uint8"
        },
        {
          "internalType": "uint8",
          "name": "",
          "type": "uint8"
        }
      ],
      "name": "window",
      "outputs": [
        {
          "internalType": "address",
          "name": "owner",
          "type": "address"
        },
        {
          "internalType": "uint8",
          "name": "shapeID",
          "type": "uint8"
        },
        {
          "internalType": "bool",
          "name": "askedToPayRoyalties",
          "type": "bool"
        },
        {
          "internalType": "uint256",
          "name": "price",
          "type": "uint256"
        },
        {
          "internalType": "uint256",
          "name": "royaltyLastPaid",
          "type": "uint256"
        },
        {
          "internalType": "uint256",
          "name": "royaltyAskDate",
          "type": "uint256"
        },
        {
          "internalType": "string",
          "name": "color",
          "type": "string"
        }
      ],
      "stateMutability": "view",
      "type": "function"
    },
    {
      "inputs": [
        {
          "internalType": "uint256",
          "name": "_tokenID",
          "type": "uint256"
        }
      ],
      "name": "withdrawPixelProceeds",
      "outputs": [],
      "stateMutability": "nonpayable",
      "type": "function"
    }
  ],
  "bytecode": "0x60808060405234620000cb5760016000556002805460ff60a01b1916601960a11b179055600480546001600160a01b031990811673c02aaa39b223fe8d0a0e5c4f27ead9083c756cc217909155906107b58082016001600160401b03811183821017620000b557829162003ed8833903906000f08015620000a95760018060a01b03168160055416176005553390600254161760025542600355604051613e079081620000d18239f35b6040513d6000823e3d90fd5b634e487b7160e01b600052604160045260246000fd5b600080fdfe6080604052600436101561001257600080fd5b6000803560e01c806302d13f021461267e5780630734d1441461257457806309eef43e14612519578063113bc999146124fb578063166db008146124b7578063236ed8f31461212557806330b5d6d3146120f05780633123a62b146120d25780633bdb693e14611ba457806344d6b6d214611b5d578063481c6a7514611b345780634882a7ea14611b035780635c8c6407146118b15780635e027601146118665780637000c3e814610ab557806370a082311461020757806374d3e777146118375780637ace48e714611639578063907e9959146113a757806393cde51a146113435780639979ef4514611177578063a271e5251461115a578063a52f27b514610fdd578063a7ccabdf14610f92578063ad711e9e14610e12578063aeeacbeb14610d67578063b3a1ddf414610d35578063bc5bc2fb14610cde578063be26ed7f14610d09578063c4323fc114610cde578063c4d1510d14610cba578063ccba361714610b2a578063d56d229d14610b01578063d7638d8014610ab5578063d84cd45014610a6f578063ec18fb5f14610241578063f8b2cb4f14610207578063fd8d7ed3146101ea5763ff188dca146101ca57600080fd5b346101e757806003193601126101e7576020600354604051908152f35b80fd5b50346101e757806003193601126101e75760206040516103e88152f35b50346101e75760203660031901126101e7576020906040906001600160a01b0361022f6128ef565b16815261104983522054604051908152f35b50346101e757610250366127fe565b909161025d828214612c10565b845b81811061026a578580f35b61029461028061027b838589612bf2565b612c02565b61028e61027b848789612bf2565b90613372565b610a315760ff6102a861027b838589612bf2565b16865260086020526040862060ff6102c461027b848789612bf2565b1660005260205260018060a01b0360406000205416156000146103ab5760ff6102f161027b838589612bf2565b16865260086020526040862060ff61030d61027b848789612bf2565b166000526020526040600020336001600160601b0360a01b825416179055338652611049602052604086208054906001820180921161039757556001905b61035961027b828589612bf2565b60ff8061036a61027b85898b612bf2565b1691167fee0e9a85d097f632450e6ac08750207c8f039246ee437b10eaf708b397d00ad88980a30161025f565b634e487b7160e01b88526011600452602488fd5b6103d06103bc61027b838589612bf2565b6103ca61027b848789612bf2565b906133a4565b60ff6103e061027b84868a612bf2565b16875260086020526040872060ff6103fc61027b85888a612bf2565b16600052602052806001604060002001541160001461084a5760ff61042561027b84868a612bf2565b16875260086020526040872060ff61044161027b85888a612bf2565b1660005260205261045a816001604060002001546131ed565b600480546040516370a0823160e01b815233928101929092526001600160a01b0316929190602081602481875afa8a81156107fe578881898d8a968e959661080a575b509560ff9360406104cc94866104bd61027b8661027b986104e29e612bf2565b16815260086020522095612bf2565b166000526020526001604060002001541061313d565b604051636eb1769f60e11b815233600482015230602482015292602084604481845afa8a81156107fe578881898d8d958b95906107af575b6105d19a509360408460ff61057761027b8a8860209f9e9d9c98610572869d8f886105859f61027b9f888f8f61055c94866104bd61027b8661027b988f612bf2565b1660005260205260018a60002001541115613195565b612bf2565b16815260088b522095612bf2565b1660009081529084526040908190205490516323b872dd60e01b81523360048201526001600160a01b0390911660248201526044810192909252909384919082908c9082906064820190565b03925af19081156107a45761063292602092610787575b50600480546002546040516323b872dd60e01b815233938101939093526001600160a01b0390811660248401526044830193909352909384929091169082908b9082906064820190565b03925af1801561077c5761074d575b5060ff61065261027b838589612bf2565b16865260086020526040862060ff61066e61027b848789612bf2565b1660005260205260018060a01b0360406000205416865261104960205260408620805480600019810111610397576000190190553386526110496020526040862080549060018201809211610397575560019060ff6106d161027b83868a612bf2565b16875260086020526040872060ff6106ed61027b84888a612bf2565b166000526020526040600020336001600160601b0360a01b82541617905560ff61071b61027b83868a612bf2565b16875260086020526040872060ff61073761027b84888a612bf2565b166000526020524260026040600020015561034b565b61076e9060203d602011610775575b61076681836129ab565b810190612c70565b5038610641565b503d61075c565b6040513d89823e3d90fd5b61079d90833d85116107755761076681836129ab565b50386105e8565b6040513d8a823e3d90fd5b5050505050505092906020823d6020116107f6575b816107d1602093836129ab565b810103126107f15790516105d193908890869089908d908a908e9061051a565b600080fd5b3d91506107c4565b604051903d90823e3d90fd5b96505050505050506020813d602011610842575b8161082b602093836129ab565b810103126107f15751849088888c898d60ff61049d565b3d915061081e565b50600480546040516370a0823160e01b815233928101929092526001600160a01b031690602081602481855afa80156107a45788906109fd575b6108b5915060ff61089961027b86888c612bf2565b16895260086020526040892060ff6104cc61027b878a8c612bf2565b604051636eb1769f60e11b8152336004820152306024820152602081604481855afa908882156107fe578681878b8b958995976109bd575b5061027b856020989560406106329b999660ff61091561027b6109399c839a6109239a612bf2565b16815260088c522095612bf2565b1660005284526001604060002001541115613195565b6002546001600160a01b03169060ff61095661027b87898d612bf2565b168a526008835260408a2060ff61097161027b888b8d612bf2565b1660009081529084526040908190206001015490516323b872dd60e01b81523360048201526001600160a01b0390931660248401526044830152909283919082908b9082906064820190565b96505050505050506020813d6020116109f5575b816109de602093836129ab565b810103126107f157518583868a878b61027b6108ed565b3d91506109d1565b506020813d602011610a29575b81610a17602093836129ab565b810103126107f1576108b59051610884565b3d9150610a0a565b60405162461bcd60e51b8152602060048201526016602482015275706978656c206973206f7574206f6620626f756e647360501b6044820152606490fd5b50346101e75760403660031901126101e757610ab1610a9d610a8f6127a0565b610a976127b0565b90613292565b604051918291602083526020830190612890565b0390f35b50346101e75760403660031901126101e7576040610ad1612905565b9160043581526007602052209060018060a01b0316600052602052602060ff604060002054166040519015158152f35b50346101e757806003193601126101e7576001546040516001600160a01b039091168152602090f35b50346101e757602080600319360112610cb657600435610b486134d8565b808352600782526040832033600052825260ff60406000205416610c655780835261104c8252610b936001604085200154600684526040852033600052845260406000205490613391565b600c1c908115610c2057838080938193825260078652604082203360005286526040600020600160ff19825416179055335af1610bce6134a8565b5015610bdc57506001815580f35b6064906040519062461bcd60e51b82526004820152601760248201527f4661696c656420746f2073656e642070726f63656564730000000000000000006044820152fd5b60405162461bcd60e51b815260048101849052601760248201527f4e6f2070726f636565647320746f2077697468647261770000000000000000006044820152606490fd5b60405162461bcd60e51b8152600481018390526024808201527f616c726561647920636c61696d65642070726f636565647320666f72207468696044820152631cc8125160e21b6064820152608490fd5b5080fd5b50346101e757806003193601126101e757602060ff60025460a01c16604051908152f35b50346101e75760203660031901126101e7576040602091600435815261104b83522054604051908152f35b50346101e757806003193601126101e757602062054600610d2c600354426131ed565b04604051908152f35b50346101e757806003193601126101e75760206203f48062054600610d5c600354426131ed565b061015604051908152f35b50346101e75760403660031901126101e75760ff6040610d856127a0565b9282610d8f6127b0565b94168152600860205220911660005260205260ff6040600020610ab18154916001810154906002810154610dca6004600384015493016129cc565b9260405196879660018060a01b0381168852818160a01c16602089015260a81c16151560408701526060860152608085015260a084015260e060c084015260e083019061286b565b50346101e757806003193601126101e75760405190608082018281106001600160401b03821117610f7c57604052605782526020917f3c7376672077696474683d2236303022206865696768743d2236303022207669838201527f6577426f783d2230203020363030203630302220786d6c6e733d22687474703a60408201527f2f2f7777772e77332e6f72672f323030302f737667223e00000000000000000060608201529181925b60ff9060408286161015610f2d576040851015610f195782610f10600192610f026040519382610ef58694518092848088019101612848565b8301018961100901613c5c565b03601f1981018352826129ab565b94011692610ebc565b634e487b7160e01b84526032600452602484fd5b82610f68602660405184610f4a8296518092878086019101612848565b8101651e17b9bb339f60d11b858201520360068101855201836129ab565b610ab160405192828493845283019061286b565b634e487b7160e01b600052604160045260246000fd5b50346101e75760203660031901126101e757610fac6128ef565b6002546001600160a01b039190610fc690831633146131fa565b166001600160601b0360a01b600154161760015580f35b50346101e757806003193601126101e757604051906202002082018281106001600160401b03821117610f7c576040526110008252602091828082019162020000368437835b604081106110d0575060018060a01b03600554166040519384926317046b0160e11b8452602484019085600486015251809152604484019190875b8181106110b75750505082809103915afa9182156107fe578092611087575b5050604051908152f35b9091508282813d83116110b0575b61109f81836129ab565b810103126101e7575051388061107d565b503d611095565b825184528996889650938401939092019160010161105e565b90929150835b604081106110eb575060010191849192611023565b6001600160fa1b03821682036111465760019061110b8360061b8261291b565b60ff80831688526008895260408820908516600052885261113f6001600160601b031960406000205460601b169187612bc8565b52016110d6565b634e487b7160e01b85526011600452602485fd5b50346101e757806003193601126101e757602060405161fd208152f35b50602080600319360112610cb657600435906111916134d8565b81835261104c908181526111af60ff60046040872001541615613410565b8284528181526111c76002604086200154421161345c565b82845281815242600360408620015411156112ff5782845281815260016040852001543411156112bb5782845281815283808080604081206001808060a01b03825416910154905af16112186134a8565b501561128057828452526040808320346001820181905581546001600160a01b0319163390811790925582519384526020840191909152908201527f8108a40c809d4e4f749358511f7baa90a1259a19024e438f728276ccd4c9368690606090a16001815580f35b6064906040519062461bcd60e51b8252600482015260146024820152732330b4b632b2103a379039b2b7321022ba3432b960611b6044820152fd5b6064906040519062461bcd60e51b82526004820152601b60248201527f6869676865722062696420616c7265616479206578697374696e6700000000006044820152fd5b6064906040519062461bcd60e51b82526004820152601960248201527f61756374696f6e2068617320616c726561647920656e646564000000000000006044820152fd5b50346101e75760203660031901126101e757604060a091600435815261104c60205220600180831b0381541690600181015490600281015460ff60046003840154930154169260405194855260208501526040840152606083015215156080820152f35b50346101e75760603660031901126101e7576001600160401b0390600435828111610cb6576113da9036906004016127ce565b6024908135858111611635576113f49036906004016127ce565b91906044968735908111611631576114109036906004016127ce565b94909784841480611628575b156115d557875b8481106114dc5750505061143983828488612c88565b855b828110611446578680f35b61145181868a612bf2565b359060ff8061146461027b84888c612bf2565b16895260206008815260408a20908261148161027b868b8a612bf2565b1660005252600192836040600020015561149f61027b83878b612bf2565b90806114af61027b858a89612bf2565b1691167f1c362b7fc7c4865e1e7ede89f240549bbd8b5ee43b51383c9c0392687d6d10ec8a80a30161143b565b6114fb6114ed61027b83888c612bf2565b61028e61027b848a89612bf2565b6115925760ff8061151061027b84898d612bf2565b168a526020906008825260408b209061152d61027b858b8a612bf2565b1660005281523360018060a01b0360406000205416036115505750600101611423565b6064907f6f6e6c79206f776e65722063616e2073657420706978656c2076616c7565000084601e876040519462461bcd60e51b86526004860152840152820152fd5b60405162461bcd60e51b8152602060048201526018818501527f4120706978656c206973206f7574206f6620626f756e6473000000000000000081840152606490fd5b907f696e70757420617272617973206d757374206265206f66207468652073616d6560849260276040519362461bcd60e51b85526020600486015284015282015266040d8cadccee8d60cb1b6064820152fd5b5085841461141c565b8680fd5b8480fd5b50346101e757602080600319360112610cb65760043580151581036118335760035462054600906203f4808261166f83426131ed565b06106117ee5733855261104984526040852054908115611799578261169482426131ed565b04865261104a938486526002604088200133600052865260ff60406000205416611764578391901561173b57506116cd600354426131ed565b0485528284526116e26040862091825461291b565b90555b6116f1600354426131ed565b0483528152600260408320019033600052526040600020600160ff19825416179055337f7ce969a18bb6b0fba42c6d9746e7d08eeca4c661809659c91d276456e3153ac08280a280f35b61174590426131ed565b04855282845261175d6001604087200191825461291b565b90556116e5565b60405162461bcd60e51b815260048101879052600d60248201526c185b1c9958591e481d9bdd1959609a1b6044820152606490fd5b60405162461bcd60e51b815260048101869052602760248201527f6e6f20706978656c73206f776e6564203d206e6f20766f74657320746f2062656044820152660818d85cdd195960ca1b6064820152608490fd5b60405162461bcd60e51b815260048101859052601960248201527f566f74696e672063757272656e746c79206e6f74206f70656e000000000000006044820152606490fd5b8280fd5b50346101e75760403660031901126101e757602061185e6118566127a0565b6103ca6127b0565b604051908152f35b50346101e75760203660031901126101e7576118806128ef565b6002546001600160a01b03919061189a90831633146131fa565b166001600160601b0360a01b600454161760045580f35b50346101e757602080600319360112610cb65760043590620546006118d8600354426131ed565b04821015611aa05781835261104a8082526118fd60408520600181549101549061291b565b908115611a6b57838552825260408420549060011c1061191b578280f35b6001546001600160a01b03929084908416803b15610cb6578180916024604051809481936335313c2160e11b83523060048401525af18015611a6057611a48575b50506004927fd9dc24857f317ed9abbbb42e920ede0104231eb1d3d70236a74887ffaf159868838093604051908152a160015416604051938480926318160ddd60e01b82525afa918215611a3d578392611a0e575b5060001982019182116119fa5781835261104b815242604084205561104c9081815242600260408620015561fd2042019283421161114657845252600360408320015538808280f35b634e487b7160e01b83526011600452602483fd5b9080925081813d8311611a36575b611a2681836129ab565b810103126107f1575190386119b1565b503d611a1c565b6040513d85823e3d90fd5b611a5190612962565b611a5c57833861195c565b8380fd5b6040513d84823e3d90fd5b60405162461bcd60e51b815260048101849052600d60248201526c139bc81d9bdd195cc818d85cdd609a1b6044820152606490fd5b6084906040519062461bcd60e51b82526004820152603660248201527f636865636b20766f7465206f7574636f6d6573206f6e6c7920706f737369626c6044820152756520666f7220636f6e636c75646564206379636c657360501b6064820152fd5b50346101e757806003193601126101e75760206203f48062054600611b2a600354426131ed565b0610604051908152f35b50346101e757806003193601126101e7576002546040516001600160a01b039091168152602090f35b50346101e75760403660031901126101e7576040611b79612905565b9160043581526006602052209060018060a01b03166000526020526020604060002054604051908152f35b50346101e75760203660031901126101e7576004356001600160401b038111610cb657611bd59036906004016127ce565b6203f48062054600611bec600395949554426131ed565b061015612082576040519261082084018481106001600160401b03821117610f7c5760405260408452610800366020860137825b828110611d1357505050805b60ff908181166040811015611d0f57611c459085612bc8565b51611c54575b60010116611c2c565b604051611c6081612990565b838152613fc08260061b16806040019081604011611cfb57905b808210611ca45750506040821015610f195790611c9d6001928261100901612aa4565b9050611c4b565b9091611000831015611ce7576020611cdf600192610f026040519382611cd38694518092848088019101612848565b83010187600901613c5c565b920190611c7a565b634e487b7160e01b86526032600452602486fd5b634e487b7160e01b86526011600452602486fd5b8380f35b8060051b820135601e19833603018112156116355782018035906001600160401b03821161207e576020810191803603831361163157819081019260208401936080928391031261207a57611d67906127c0565b92611d74604084016127c0565b92611d81606082016127c0565b92810135906001600160401b038211612072570181603f8201121561207657602081013590611daf82612a89565b92611dbd60405194856129ab565b8284526040838301011161207257818a926040602093018386013783010152611de68385613372565b610a3157600a60ff831610156120345760ff8416885260086020526040882060ff841660005260205260ff60406000205460a81c16611fd75760ff8416885260086020526040882060ff84166000526020523360018060a01b036040600020541614611e59575b50505050600101611c20565b611e839060ff8516895260086020526040892060ff85166000526020526004604060002001612aa4565b60ff8316875260086020526040872060ff83166000526020526040600020805460a09260ff60a01b90841b169060ff60a01b19161790558160061b613fc060c0821691168103611fc15760ff818186160111611fc15760ff80611f4f928187160116928186168a52600860205260408a20828616600052602052604060002054901c16611f0f85612bb3565b611f1885612bb3565b9160ff87168b52600860205260408b2060ff871660005260205260ff80611f4560046040600020016129cc565b94169216906134fb565b90611000811015611fad576001949392611f6f60ff938493600901612aa4565b85611f7c8383168c612bc8565b521691167fa9a418da632d42c446a125f10b007831ba0e348168b6b2474a2383ac5df4c2808780a390388080611e4d565b634e487b7160e01b88526032600452602488fd5b634e487b7160e01b600052601160045260246000fd5b60405162461bcd60e51b815260206004820152602f60248201527f6f776e6572207761732061736b656420746f20666972737420736574746c652060448201526e1c9bde585b1d1e481c185e5b595b9d608a1b6064820152608490fd5b60405162461bcd60e51b81526020600482015260166024820152757368617065204944206e6f7420617661696c61626c6560501b6044820152606490fd5b8980fd5b8880fd5b8780fd5b8580fd5b60405162461bcd60e51b815260206004820152602260248201527f417274697374696320706572696f642063757272656e746c79206e6f74206f7060448201526132b760f11b6064820152608490fd5b50346101e7576120ed6120e4366127fe565b92919091612c88565b80f35b50346101e75760203660031901126101e75760408091600435815261104a602052206001815491015482519182526020820152f35b50346101e757602090816003193601126101e757600435906121456134d8565b81815261104c9182845260ff926121658460046040862001541615613410565b81835280855261217d6002604085200154421161345c565b818352808552426003604085200154101561247a578183528085526040832080546001600160a01b03949190851690816123b057505090604051603f80888301836121e8334442859160549391835260208301526001600160601b03199060601b1660408201520190565b03936121fc601f19958681018352826129ab565b51902016916040516122428a82019282612236334442889160549391835260208301526001600160601b03199060601b1660408201520190565b039081018352826129ab565b5190201691848452875260046040842001600160ff19825416179055846001541681845260088852604084208360005288528560406000205416813b1561163557604051632142170760e11b81523060048201526001600160a01b03919091166024820152604481018690529084908290606490829084905af180156123a557908491612391575b505260088652604082209060005285527fd2aa34a4fdbbc6dff6a3e56f46e0f3ae2a31d7785ff3487aa5c95c642acea501606084604060002054166040519085825288820152836040820152a15b80945b84861693604085101561238957825b8681166040811015612378578685526008845260408086206000928352855280822054841680875261104986528187205488885260068752828820918452908652912055600101861661232a565b50509350946001859101169461231b565b826001815580f35b61239a90612962565b6118335782386122ca565b6040513d86823e3d90fd5b600401600160ff19825416179055846001541690813b1561183357604051632142170760e11b81523060048201526001600160a01b03919091166024820152604481018590529082908290606490829084905af18015611a605761246b575b508281529085526040808220805460019091015482518581529186166001600160a01b03166020830152918101919091527fd2aa34a4fdbbc6dff6a3e56f46e0f3ae2a31d7785ff3487aa5c95c642acea50190606090a1612318565b61247490612962565b3861240f565b60405162461bcd60e51b8152600481018690526015602482015274185d58dd1a5bdb881b9bdd08195b991959081e595d605a1b6044820152606490fd5b50346101e75760403660031901126101e75760406020916124d6612905565b6004358252600684528282206001600160a01b03909116825283522054604051908152f35b50346101e757806003193601126101e7576020604051620546008152f35b50346101e75760203660031901126101e75760ff604060209261253a6128ef565b6205460061254a600354426131ed565b04825261104a85528282206001600160a01b03909116825260020184522054604051911615158152f35b50346101e757612583366127fe565b6125908184959414612c10565b61259984612a72565b936125a760405195866129ab565b808552601f196125b682612a72565b01865b818110612667575050855b8181106126295760408051602080825288518183018190528a93600582901b8401810192808c01929185015b8287106125fd5785850386f35b909192938280612619600193603f198a82030186528851612890565b96019201960195929190926125f0565b8061264b61263d61027b600194868a612bf2565b610a9761027b84888a612bf2565b6126558289612bc8565b526126608188612bc8565b50016125c4565b60209061267261325b565b82828a010152016125b9565b50346101e75760603660031901126101e7576126986127a0565b60ff6126a26127b0565b916126b860018060a01b036002541633146131fa565b16808352600860209181835260ff60408620941693848652835260ff604086205460a81c1680612774575b156127385780855281835260408520848652835260443560016040872001558085528183526040852084865283526040852060ff60a81b19815416905584528152604083209183525280600360408220015580f35b80855281835260408520848652835260408520600160a81b60ff60a81b1982541617905584528152604083209183525242600360408320015580f35b5080855281835260408520848652835260036040862001546203f4808101809111611cfb5742116126e3565b6004359060ff821682036107f157565b6024359060ff821682036107f157565b359060ff821682036107f157565b9181601f840112156107f1578235916001600160401b0383116107f1576020808501948460051b0101116107f157565b60406003198201126107f1576001600160401b03916004358381116107f1578261282a916004016127ce565b939093926024359182116107f157612844916004016127ce565b9091565b60005b83811061285b5750506000910152565b818101518382015260200161284b565b9060209161288481518092818552858086019101612848565b601f01601f1916010190565b9060e060c06128ec9360018060a01b03815116845260ff6020820151166020850152604081015115156040850152606081015160608501526080810151608085015260a081015160a08501520151918160c0820152019061286b565b90565b600435906001600160a01b03821682036107f157565b602435906001600160a01b03821682036107f157565b91908201809211611fc157565b90600182811c92168015612958575b602083101461294257565b634e487b7160e01b600052602260045260246000fd5b91607f1691612937565b6001600160401b038111610f7c57604052565b60e081019081106001600160401b03821117610f7c57604052565b602081019081106001600160401b03821117610f7c57604052565b90601f801991011681019081106001600160401b03821117610f7c57604052565b90604051918260008254926129e084612928565b908184526001948581169081600014612a4f5750600114612a0c575b5050612a0a925003836129ab565b565b9093915060005260209081600020936000915b818310612a37575050612a0a935082010138806129fc565b85548884018501529485019487945091830191612a1f565b915050612a0a94506020925060ff191682840152151560051b82010138806129fc565b6001600160401b038111610f7c5760051b60200190565b6001600160401b038111610f7c57601f01601f191660200190565b91909182516001600160401b038111610f7c57612ac18254612928565b601f8111612b6b575b50602080601f8311600114612b07575081929394600092612afc575b50508160011b916000199060031b1c1916179055565b015190503880612ae6565b90601f198316958460005282600020926000905b888210612b5357505083600195969710612b3a575b505050811b019055565b015160001960f88460031b161c19169055388080612b30565b80600185968294968601518155019501930190612b1b565b600083815260208120601f840160051c81019260208510612ba9575b601f0160051c01915b828110612b9e575050612aca565b818155600101612b90565b9092508290612b87565b60ff60099116029060ff8216918203611fc157565b8051821015612bdc5760209160051b010190565b634e487b7160e01b600052603260045260246000fd5b9190811015612bdc5760051b0190565b3560ff811681036107f15790565b15612c1757565b60405162461bcd60e51b815260206004820152602b60248201527f7820616e64207920696e7075742061727261797320617265206f66207661726960448201526a6f7573206c656e6774687360a81b6064820152608490fd5b908160209103126107f1575180151581036107f15790565b929190612c96838214612c10565b60005b818110612ca7575050505050565b612cc6612cb861027b838589612bf2565b61028e61027b848888612bf2565b610a315760ff80612cdb61027b84868a612bf2565b16600052600860208181526040908160002084612cfc61027b888c8c612bf2565b16600052815260018060a01b033381846000205416036130ef5784612d2561027b888a8e612bf2565b166000528382528260002085612d3f61027b898d8d612bf2565b166000528252600290888a898d428689600020015403612d6c575b50505050505050505050600101612c99565b8a612d8c9493612d8661027b836103ca9661027b96612bf2565b94612bf2565b906004818154169186516370a0823160e01b8152338382015260249087818381885afa908115613063579086916000916130bf575b501061306e578751636eb1769f60e11b8152338482019081523060208201528890829081906040010381885afa90811561306357908691600091613033575b5010612fe25750845487516323b872dd60e01b81523393810193845291166001600160a01b031660208301526040820193909352849183918290600090829060600103925af18015612fd7579286612ead61027b8a8f8f9997908f97918f9260019f9e612e9a819f9d8f8f908f8f96928f87612e8c61027b8f8f8f829a61027b9c612fba575b50612bf2565b166000525260002095612bf2565b16600052885242908a6000200155612bf2565b166000528381528260002086612ec761027b8a8987612bf2565b16600052815285898d8983876000205460a81c16612f3d575b95509250925050612ef6945061027b9350612bf2565b9080612f0661027b858a8a612bf2565b1691167fe61af2269c9afbdb69efce2b15f2a464f8ee6237f105b3d4024f2e824a9f0af3600080a3903880808080888a898d612d5a565b600098600398612fa49461027b948791612f9691879187918e8e8e88612f7e88888e8e85612f6d85858e8e612bf2565b166000528652600088902096612bf2565b166000525260002060ff60a81b198154169055612bf2565b168b528652878a2096612bf2565b1685525282200155853880878185898d89612ee0565b612fd090883d8a116107755761076681836129ab565b5038612e86565b84513d6000823e3d90fd5b826027608492898b519362461bcd60e51b85528401528201527f696e73756666696369656e7420616c6c6f77616e636520746f2070617920726f60448201526679616c7469657360c81b6064820152fd5b91508882813d831161305c575b61304a81836129ab565b810103126101e7575085905138612e00565b503d613040565b89513d6000823e3d90fd5b826027608492898b519362461bcd60e51b85528401528201527f6e6f742073756666696369656e742062616c616e636520746f2070617920726f60448201526679616c7469657360c81b6064820152fd5b91508882813d83116130e8575b6130d681836129ab565b810103126101e7575085905138612dc1565b503d6130cc565b50608491519062461bcd60e51b82526004820152602260248201527f6f6e6c7920706978656c206f776e65722063616e2070617920726f79616c7469604482015261657360f01b6064820152fd5b1561314457565b60405162461bcd60e51b815260206004820152602360248201527f6e6f742073756666696369656e742062616c616e636520746f206275792070696044820152621e195b60ea1b6064820152608490fd5b1561319c57565b60405162461bcd60e51b815260206004820152602360248201527f696e73756666696369656e7420616c6c6f77616e636520746f206275792070696044820152621e195b60ea1b6064820152608490fd5b91908203918211611fc157565b1561320157565b60405162461bcd60e51b815260206004820152602c60248201527f6f776e65722063757272656e74206d616e616765722063616e2063616c6c207460448201526b3434b990333ab731ba34b7b760a11b6064820152608490fd5b6040519061326882612975565b606060c0836000808252806020830152806040830152808483015280608083015260a08201520152565b60ff9061329d61325b565b50169060409182811080613366575b1561332c57600052600860205260ff8260002091166000526020526133246004826000208351936132dc85612975565b60ff825460018060a01b0381168752818160a01c16602088015260a81c161515908501526001810154606085015260028101546080850152600381015460a0850152016129cc565b60c082015290565b825162461bcd60e51b8152602060048201526013602482015272706978656c206f7574206f6620626f756e647360681b6044820152606490fd5b508260ff8316106132ac565b60ff604091161090811591613385575090565b6040915060ff16101590565b81810292918115918404141715611fc157565b6133fd64073df16000926001604060ff61340c951692600090848252600860205260ff8383209116908183526020526133e360028484200154426131ed565b948252600860205282822090825260205220015490613391565b60ff60025460a01c1690613391565b0490565b1561341757565b60405162461bcd60e51b815260206004820152601960248201527f61756374696f6e2068617320656e64656420616c7265616479000000000000006044820152606490fd5b1561346357565b60405162461bcd60e51b815260206004820152601b60248201527f61756374696f6e20686173206e6f7420737461727465642079657400000000006044820152606490fd5b3d156134d3573d906134b982612a89565b916134c760405193846129ab565b82523d6000602084013e565b606090565b6002600054146134e9576002600055565b604051633ee5aeb560e01b8152600490fd5b60ff9093919316918215613ba05760018314613ad15760028314613aa75760038314613a4b576004928381146139f7576005811461389a576006811461384857600781146137e157600881146136fe57600914613569575050505060405161356281612990565b6000815290565b61357284613cdf565b9061357c81613cdf565b600886018087116136e95761359090613cdf565b94600883018093116136d45750916136b8826128ec96946135c56135bf6135b960499997613cdf565b9a613cdf565b92613cdf565b91604051998a97602a6135f58a602099693c7061746820643d224d60b01b8b8301528a8151948593019101612848565b890193600160fd1b9485602a820152613617825180938b602b85019101612848565b016b010209c101c101810181018960a51b602b820152613640825180938a603785019101612848565b0183603782015261365a8251809389603885019101612848565b0161081360f21b60388201526136798251809388603a85019101612848565b0190603a8201526136938251809386603b85019101612848565b019169102d11103334b6361e9160b11b603b8401528351938491604585019101612848565b01631110179f60e11b60458201520360298101845201826129ab565b601190634e487b7160e01b6000525260246000fd5b601186634e487b7160e01b6000525260246000fd5b509260088101938482116137cc5761371585613cdf565b9161372861372283613cdf565b91613cdf565b94600883018093116136d45750916136b8826128ec96946137516135bf6135b960499997613cdf565b91604051998a97602a6137818a602099693c7061746820643d224d60b01b8b8301528a8151948593019101612848565b890193600160fd1b9485602a8201526137a3825180938b602b85019101612848565b016b010209c101c101810181018160a51b602b820152613640825180938a603785019101612848565b601184634e487b7160e01b6000525260246000fd5b506137eb84613cdf565b906137f581613cdf565b600886018096116138335761380986613cdf565b9460088301908184116136d45750604994926128ec9694926137516135bf6135b96136b895613cdf565b601185634e487b7160e01b6000525260246000fd5b5061385284613cdf565b90600881018082116138335761386790613cdf565b9360088601908187116136d45750916136b86049949261388a6128ec9795613cdf565b946137516135bf6135b984613cdf565b50926138a581613cdf565b906008850190818611613833576138bb82613cdf565b906138ce6138c882613cdf565b97613cdf565b95600882018092116136d45750603f94926128ec9694926138f46135bf6139db94613cdf565b91604051998a97602a6139248a602099693c7061746820643d224d60b01b8b8301528a8151948593019101612848565b890193600160fd1b9485602a820152613946825180938b602b85019101612848565b019161081360f21b9283602b820152613968825180938b602d85019101612848565b0184602d820152613982825180938a602e85019101612848565b0190602e82015261399c8251809388603085019101612848565b019060308201526139b68251809386603185019101612848565b019169103d11103334b6361e9160b11b60318401528351938491603b85019101612848565b01631110179f60e11b603b82015203601f8101845201826129ab565b50929160088301908184116136d457613a0f82613cdf565b9160088601918287116136d45750916139db826128ec96946138f46135bf6138c8613a45613a3f603f9b99613cdf565b94613cdf565b9b613cdf565b9150613a5683613cdf565b92613a6083613cdf565b9160088201809211611fc157613a7582613cdf565b94613a88613a8286613cdf565b93613cdf565b9460088101809111611fc1576128ec95603f956138f46139db93613cdf565b9150613ab283613cdf565b92613abc83613cdf565b9160088201808311611fc157613a7590613cdf565b91509160048101809111611fc157613ae890613cdf565b9060048101809111611fc1576128ec91613b03604492613cdf565b936040519485926b1e31b4b931b6329031bc1e9160a11b6020850152613b33815180926020602c88019101612848565b830165111031bc9e9160d11b602c820152613b58825180936020603285019101612848565b016d1110391e911a11103334b6361e9160911b6032820152613b84825180936020604085019101612848565b01631110179f60e11b60408201520360248101845201826129ab565b6128ec9250613bb4613722604f9395613cdf565b93604051948592681e3932b1ba103c1e9160b91b6020850152613be1815180926020602988019101612848565b83016411103c9e9160d91b6029820152613c05825180936020602e85019101612848565b017f222077696474683d223822206865696768743d2238222066696c6c3d22000000602e820152613c40825180936020604b85019101612848565b01631110179f60e11b604b82015203602f8101845201826129ab565b600092918154613c6b81612928565b92600191808316908115613cc45750600114613c88575b50505050565b90919293945060005260209081600020906000915b858310613cb35750505050019038808080613c82565b805485840152918301918101613c9d565b60ff1916845250505081151590910201915038808080613c82565b8015613da35780816000925b613d8b575080613cfa83612a89565b92613d0860405194856129ab565b808452601f19613d1782612a89565b01366020860137915b613d2957505090565b600019820191808311611fc15782600a9081840493828502928584041485151715611fc157613d5b60ff9384926131ed565b16603001918211611fc15785511115612bdc5760f81b6001600160f81b03191660001a908401601f015380613d20565b916000198114611fc1576001600a9101920480613ceb565b50604051604081018181106001600160401b03821117610f7c5760405260018152600360fc1b60208201529056fea2646970667358221220587b7e15c1b408de8936e82a7d562bc986b82ec2bca46d22ca42e90f82178dac64736f6c634300081400336080806040523461001657610799908161001c8239f35b600080fdfe6080604052600436101561001257600080fd5b6000803560e01c9081632e08d6021461007a5750806358161a4214610075578063b861619514610070578063cf06c7b71461006b578063dd1d2599146100665763e27d51531461006157600080fd5b6103f7565b6103d6565b6103b0565b6102bb565b61020d565b346101515760203660031901126101515760043567ffffffffffffffff811161014d576100ab9036906004016101ad565b600180825111156100fc57805b6100de575b6100da6100c98361045a565b516040519081529081906020820190565b0390f35b80825111156100f7576100f18192610511565b916100b8565b6100bd565b60405162461bcd60e51b815260206004820152602360248201527f776f6e27742067656e657261746520726f6f7420666f722073696e676c65206c60448201526232b0b360e91b6064820152608490fd5b5080fd5b80fd5b634e487b7160e01b600052604160045260246000fd5b6040519190601f01601f1916820167ffffffffffffffff81118382101761019057604052565b610154565b67ffffffffffffffff81116101905760051b60200190565b9080601f83011215610208578135906101cd6101c883610195565b61016a565b9182938184526020808095019260051b820101928311610208578301905b8282106101f9575050505090565b813581529083019083016101eb565b600080fd5b346102085760603660031901126102085760243567ffffffffffffffff81116102085761023e9036906004016101ad565b60443581516000925b81841061025d5760405160043584148152602090f35b909161027660019161026f868561047d565b5190610437565b9301929190610247565b6020908160408183019282815285518094520193019160005b8281106102a7575050505090565b835185529381019392810192600101610299565b346102085760403660031901126102085760043567ffffffffffffffff8111610208576102ec9036906004016101ad565b602435906001906102ff82825111610491565b61031161030c8251610632565b6104e9565b92600080845b61032a575b604051806100da8882610280565b8351858111156103aa578584939261036f92828080981614600014610379575061035860001986018861047d565b51610363828b61047d565b525b0192841c94610511565b9392919091610317565b85830190810361039557508361038f828b61047d565b52610365565b61039f908861047d565b5161038f828b61047d565b5061031c565b346102085760203660031901126102085760206103ce600435610632565b604051908152f35b346102085760403660031901126102085760206103ce602435600435610437565b3461020857602036600319011261020857600435806000815b61042a576020925060405191806001811901161490038152f35b600192831c920182610410565b8181101561044e576000526020525b604060002090565b90600052602052610446565b8051156104675760200190565b634e487b7160e01b600052603260045260246000fd5b80518210156104675760209160051b010190565b1561049857565b60405162461bcd60e51b8152602060048201526024808201527f776f6e27742067656e65726174652070726f6f6620666f722073696e676c65206044820152633632b0b360e11b6064820152608490fd5b906104f66101c883610195565b8281528092610507601f1991610195565b0190602036910137565b90815160019081808216146000146105a9576105308282811c016104e9565b916000196105408382018761047d565b516000805260205261055a6040600020918551018561047d565b525b600019909101906000805b8382106105775750929450505050565b82600291610595610588858b61047d565b5161026f8487018c61047d565b61059f828961047d565b5201910190610567565b6105b481831c6104e9565b9161055c565b90604082018092116105c857565b634e487b7160e01b600052601160045260246000fd5b90602082018092116105c857565b90601082018092116105c857565b90600882018092116105c857565b90600482018092116105c857565b90600282018092116105c857565b90600182018092116105c857565b600181111561075d5760009080600160801b811015610752575b8068010000000000000000600292101561073f575b64010000000081101561072c575b62010000811015610719575b610100811015610706575b60108110156106f3575b60048110156106e1575b10156106d1575b806106ac8119610624565b1614806106c8575b156106bc5790565b6106c590610624565b90565b508015156106b4565b906106db90610624565b906106a1565b6106ed90821c93610616565b9261069a565b6107009060041c93610608565b92610690565b6107139060081c936105fa565b92610686565b6107269060101c936105ec565b9261067b565b6107399060201c936105de565b9261066f565b61074c9060401c936105ba565b92610661565b60809250821c61064c565b5060009056fea2646970667358221220e9108dc0087bd88a6ccc6ff1dead96b7393231f78ff7f8bb08482568cd419d2564736f6c63430008140033",
  "linkReferences": {},
  "deployedLinkReferences": {}
}