{
  "_format": "hh-sol-artifact-1",
  "contractName": "Pixelmap",
  "sourceName": "contracts/Pixelmap.sol",
  "abi": [
    {
      "inputs": [],
      "stateMutability": "nonpayable",
      "type": "constructor"
    },
    {
      "anonymous": false,
      "inputs": [
        {
          "indexed": false,
          "internalType": "uint32",
          "name": "cycle",
          "type": "uint32"
        }
      ],
      "name": "NFTMinted",
      "type": "event"
    },
    {
      "anonymous": false,
      "inputs": [
        {
          "indexed": true,
          "internalType": "uint8",
          "name": "x",
          "type": "uint8"
        },
        {
          "indexed": true,
          "internalType": "uint8",
          "name": "y",
          "type": "uint8"
        }
      ],
      "name": "PixelBought",
      "type": "event"
    },
    {
      "anonymous": false,
      "inputs": [
        {
          "indexed": true,
          "internalType": "uint8",
          "name": "x",
          "type": "uint8"
        },
        {
          "indexed": true,
          "internalType": "uint8",
          "name": "y",
          "type": "uint8"
        }
      ],
      "name": "PixelFilled",
      "type": "event"
    },
    {
      "anonymous": false,
      "inputs": [
        {
          "indexed": true,
          "internalType": "uint8",
          "name": "x",
          "type": "uint8"
        },
        {
          "indexed": true,
          "internalType": "uint8",
          "name": "y",
          "type": "uint8"
        }
      ],
      "name": "PixelValueSet",
      "type": "event"
    },
    {
      "anonymous": false,
      "inputs": [
        {
          "indexed": true,
          "internalType": "uint8",
          "name": "x",
          "type": "uint8"
        },
        {
          "indexed": true,
          "internalType": "uint8",
          "name": "y",
          "type": "uint8"
        }
      ],
      "name": "RoyaltiesPaid",
      "type": "event"
    },
    {
      "anonymous": false,
      "inputs": [
        {
          "indexed": true,
          "internalType": "address",
          "name": "owner",
          "type": "address"
        }
      ],
      "name": "VoteCasted",
      "type": "event"
    },
    {
      "inputs": [],
      "name": "ARTISTIC_PERIOD",
      "outputs": [
        {
          "internalType": "uint256",
          "name": "",
          "type": "uint256"
        }
      ],
      "stateMutability": "view",
      "type": "function"
    },
    {
      "inputs": [],
      "name": "CYCLE_PERIOD",
      "outputs": [
        {
          "internalType": "uint256",
          "name": "",
          "type": "uint256"
        }
      ],
      "stateMutability": "view",
      "type": "function"
    },
    {
      "inputs": [],
      "name": "VOTING_PERIOD",
      "outputs": [
        {
          "internalType": "uint256",
          "name": "",
          "type": "uint256"
        }
      ],
      "stateMutability": "view",
      "type": "function"
    },
    {
      "inputs": [
        {
          "internalType": "address",
          "name": "",
          "type": "address"
        }
      ],
      "name": "balanceOf",
      "outputs": [
        {
          "internalType": "uint16",
          "name": "",
          "type": "uint16"
        }
      ],
      "stateMutability": "view",
      "type": "function"
    },
    {
      "inputs": [
        {
          "internalType": "uint8[]",
          "name": "xValues",
          "type": "uint8[]"
        },
        {
          "internalType": "uint8[]",
          "name": "yValues",
          "type": "uint8[]"
        }
      ],
      "name": "buyPixel",
      "outputs": [],
      "stateMutability": "nonpayable",
      "type": "function"
    },
    {
      "inputs": [
        {
          "internalType": "uint8",
          "name": "x",
          "type": "uint8"
        },
        {
          "internalType": "uint8",
          "name": "y",
          "type": "uint8"
        }
      ],
      "name": "calculateRoyalties",
      "outputs": [
        {
          "internalType": "uint256",
          "name": "",
          "type": "uint256"
        }
      ],
      "stateMutability": "view",
      "type": "function"
    },
    {
      "inputs": [],
      "name": "canvasCreation",
      "outputs": [
        {
          "internalType": "uint256",
          "name": "",
          "type": "uint256"
        }
      ],
      "stateMutability": "view",
      "type": "function"
    },
    {
      "inputs": [
        {
          "internalType": "bool",
          "name": "vote",
          "type": "bool"
        }
      ],
      "name": "castVote",
      "outputs": [],
      "stateMutability": "nonpayable",
      "type": "function"
    },
    {
      "inputs": [
        {
          "internalType": "uint8[]",
          "name": "xValues",
          "type": "uint8[]"
        },
        {
          "internalType": "uint8[]",
          "name": "yValues",
          "type": "uint8[]"
        }
      ],
      "name": "checkMultiplePixel",
      "outputs": [
        {
          "components": [
            {
              "internalType": "address",
              "name": "owner",
              "type": "address"
            },
            {
              "internalType": "uint8",
              "name": "shapeID",
              "type": "uint8"
            },
            {
              "internalType": "uint256",
              "name": "price",
              "type": "uint256"
            },
            {
              "internalType": "string",
              "name": "color",
              "type": "string"
            },
            {
              "internalType": "uint256",
              "name": "royaltyLastPaid",
              "type": "uint256"
            },
            {
              "internalType": "bool",
              "name": "askedToPayRoyalties",
              "type": "bool"
            },
            {
              "internalType": "uint256",
              "name": "royaltyAskDate",
              "type": "uint256"
            }
          ],
          "internalType": "struct Pixelmap.Pixel[]",
          "name": "",
          "type": "tuple[]"
        }
      ],
      "stateMutability": "view",
      "type": "function"
    },
    {
      "inputs": [
        {
          "internalType": "uint8",
          "name": "x",
          "type": "uint8"
        },
        {
          "internalType": "uint8",
          "name": "y",
          "type": "uint8"
        }
      ],
      "name": "checkPixel",
      "outputs": [
        {
          "components": [
            {
              "internalType": "address",
              "name": "owner",
              "type": "address"
            },
            {
              "internalType": "uint8",
              "name": "shapeID",
              "type": "uint8"
            },
            {
              "internalType": "uint256",
              "name": "price",
              "type": "uint256"
            },
            {
              "internalType": "string",
              "name": "color",
              "type": "string"
            },
            {
              "internalType": "uint256",
              "name": "royaltyLastPaid",
              "type": "uint256"
            },
            {
              "internalType": "bool",
              "name": "askedToPayRoyalties",
              "type": "bool"
            },
            {
              "internalType": "uint256",
              "name": "royaltyAskDate",
              "type": "uint256"
            }
          ],
          "internalType": "struct Pixelmap.Pixel",
          "name": "",
          "type": "tuple"
        }
      ],
      "stateMutability": "view",
      "type": "function"
    },
    {
      "inputs": [
        {
          "internalType": "uint32",
          "name": "_cycle",
          "type": "uint32"
        }
      ],
      "name": "checkVoteOutcome",
      "outputs": [],
      "stateMutability": "nonpayable",
      "type": "function"
    },
    {
      "inputs": [
        {
          "internalType": "bytes[]",
          "name": "_pixels",
          "type": "bytes[]"
        }
      ],
      "name": "fillPixel",
      "outputs": [],
      "stateMutability": "nonpayable",
      "type": "function"
    },
    {
      "inputs": [],
      "name": "generateSVG",
      "outputs": [
        {
          "internalType": "string",
          "name": "",
          "type": "string"
        }
      ],
      "stateMutability": "view",
      "type": "function"
    },
    {
      "inputs": [
        {
          "internalType": "address",
          "name": "_owner",
          "type": "address"
        }
      ],
      "name": "getBalance",
      "outputs": [
        {
          "internalType": "uint256",
          "name": "",
          "type": "uint256"
        }
      ],
      "stateMutability": "view",
      "type": "function"
    },
    {
      "inputs": [],
      "name": "getCurrentCycle",
      "outputs": [
        {
          "internalType": "uint256",
          "name": "",
          "type": "uint256"
        }
      ],
      "stateMutability": "view",
      "type": "function"
    },
    {
      "inputs": [
        {
          "internalType": "uint256",
          "name": "_tokenID",
          "type": "uint256"
        }
      ],
      "name": "getMintDate",
      "outputs": [
        {
          "internalType": "uint256",
          "name": "",
          "type": "uint256"
        }
      ],
      "stateMutability": "view",
      "type": "function"
    },
    {
      "inputs": [],
      "name": "getRowSVG",
      "outputs": [
        {
          "internalType": "string[64]",
          "name": "",
          "type": "string[64]"
        }
      ],
      "stateMutability": "view",
      "type": "function"
    },
    {
      "inputs": [
        {
          "internalType": "address",
          "name": "_owner",
          "type": "address"
        }
      ],
      "name": "hasVoted",
      "outputs": [
        {
          "internalType": "bool",
          "name": "",
          "type": "bool"
        }
      ],
      "stateMutability": "view",
      "type": "function"
    },
    {
      "inputs": [],
      "name": "isInArtisticPeriod",
      "outputs": [
        {
          "internalType": "bool",
          "name": "",
          "type": "bool"
        }
      ],
      "stateMutability": "view",
      "type": "function"
    },
    {
      "inputs": [],
      "name": "isInVotingPeriod",
      "outputs": [
        {
          "internalType": "bool",
          "name": "",
          "type": "bool"
        }
      ],
      "stateMutability": "view",
      "type": "function"
    },
    {
      "inputs": [],
      "name": "manager",
      "outputs": [
        {
          "internalType": "address",
          "name": "",
          "type": "address"
        }
      ],
      "stateMutability": "view",
      "type": "function"
    },
    {
      "inputs": [],
      "name": "maxHeight",
      "outputs": [
        {
          "internalType": "uint8",
          "name": "",
          "type": "uint8"
        }
      ],
      "stateMutability": "view",
      "type": "function"
    },
    {
      "inputs": [],
      "name": "maxWidth",
      "outputs": [
        {
          "internalType": "uint8",
          "name": "",
          "type": "uint8"
        }
      ],
      "stateMutability": "view",
      "type": "function"
    },
    {
      "inputs": [
        {
          "internalType": "uint256",
          "name": "",
          "type": "uint256"
        }
      ],
      "name": "mintDates",
      "outputs": [
        {
          "internalType": "uint256",
          "name": "",
          "type": "uint256"
        }
      ],
      "stateMutability": "view",
      "type": "function"
    },
    {
      "inputs": [],
      "name": "nftContract",
      "outputs": [
        {
          "internalType": "contract CanvasCollection",
          "name": "",
          "type": "address"
        }
      ],
      "stateMutability": "view",
      "type": "function"
    },
    {
      "inputs": [
        {
          "internalType": "uint8[]",
          "name": "xValues",
          "type": "uint8[]"
        },
        {
          "internalType": "uint8[]",
          "name": "yValues",
          "type": "uint8[]"
        }
      ],
      "name": "payRoyalties",
      "outputs": [],
      "stateMutability": "nonpayable",
      "type": "function"
    },
    {
      "inputs": [
        {
          "internalType": "uint256",
          "name": "",
          "type": "uint256"
        }
      ],
      "name": "pixelSVGs",
      "outputs": [
        {
          "internalType": "string",
          "name": "",
          "type": "string"
        }
      ],
      "stateMutability": "view",
      "type": "function"
    },
    {
      "inputs": [
        {
          "internalType": "uint256",
          "name": "",
          "type": "uint256"
        }
      ],
      "name": "rowSVGs",
      "outputs": [
        {
          "internalType": "string",
          "name": "",
          "type": "string"
        }
      ],
      "stateMutability": "view",
      "type": "function"
    },
    {
      "inputs": [],
      "name": "royaltyAskPeriod",
      "outputs": [
        {
          "internalType": "uint256",
          "name": "",
          "type": "uint256"
        }
      ],
      "stateMutability": "view",
      "type": "function"
    },
    {
      "inputs": [],
      "name": "royaltyDenominator",
      "outputs": [
        {
          "internalType": "uint256",
          "name": "",
          "type": "uint256"
        }
      ],
      "stateMutability": "view",
      "type": "function"
    },
    {
      "inputs": [],
      "name": "royaltyRate",
      "outputs": [
        {
          "internalType": "uint8",
          "name": "",
          "type": "uint8"
        }
      ],
      "stateMutability": "view",
      "type": "function"
    },
    {
      "inputs": [
        {
          "internalType": "uint8",
          "name": "x",
          "type": "uint8"
        },
        {
          "internalType": "uint8",
          "name": "y",
          "type": "uint8"
        },
        {
          "internalType": "uint256",
          "name": "_price",
          "type": "uint256"
        }
      ],
      "name": "seekRoyaltyPayment",
      "outputs": [],
      "stateMutability": "nonpayable",
      "type": "function"
    },
    {
      "inputs": [
        {
          "internalType": "address",
          "name": "_nftContract",
          "type": "address"
        }
      ],
      "name": "setNFTContract",
      "outputs": [],
      "stateMutability": "nonpayable",
      "type": "function"
    },
    {
      "inputs": [
        {
          "internalType": "uint8[]",
          "name": "xValues",
          "type": "uint8[]"
        },
        {
          "internalType": "uint8[]",
          "name": "yValues",
          "type": "uint8[]"
        },
        {
          "internalType": "uint256[]",
          "name": "priceValues",
          "type": "uint256[]"
        }
      ],
      "name": "setPixelValue",
      "outputs": [],
      "stateMutability": "nonpayable",
      "type": "function"
    },
    {
      "inputs": [
        {
          "internalType": "address",
          "name": "_newToken",
          "type": "address"
        }
      ],
      "name": "updateCurrency",
      "outputs": [],
      "stateMutability": "nonpayable",
      "type": "function"
    },
    {
      "inputs": [
        {
          "internalType": "uint256",
          "name": "",
          "type": "uint256"
        }
      ],
      "name": "voteRegister",
      "outputs": [
        {
          "internalType": "uint16",
          "name": "yesVotes",
          "type": "uint16"
        },
        {
          "internalType": "uint16",
          "name": "noVotes",
          "type": "uint16"
        }
      ],
      "stateMutability": "view",
      "type": "function"
    },
    {
      "inputs": [
        {
          "internalType": "uint8",
          "name": "",
          "type": "uint8"
        },
        {
          "internalType": "uint8",
          "name": "",
          "type": "uint8"
        }
      ],
      "name": "window",
      "outputs": [
        {
          "internalType": "address",
          "name": "owner",
          "type": "address"
        },
        {
          "internalType": "uint8",
          "name": "shapeID",
          "type": "uint8"
        },
        {
          "internalType": "uint256",
          "name": "price",
          "type": "uint256"
        },
        {
          "internalType": "string",
          "name": "color",
          "type": "string"
        },
        {
          "internalType": "uint256",
          "name": "royaltyLastPaid",
          "type": "uint256"
        },
        {
          "internalType": "bool",
          "name": "askedToPayRoyalties",
          "type": "bool"
        },
        {
          "internalType": "uint256",
          "name": "royaltyAskDate",
          "type": "uint256"
        }
      ],
      "stateMutability": "view",
      "type": "function"
    }
  ],
  "bytecode": "0x608080604052346100585760018054600380546001600160a01b03191673c02aaa39b223fe8d0a0e5c4f27ead9083c756cc21790556001600160a81b0319163317601960a11b1790554260025561371e908161005e8239f35b600080fdfe6080604052600436101561001257600080fd5b6000803560e01c806302d13f0214611fcd5780630734d14414611eba57806309eef43e14611e5b578063113bc99914611e3d57806330b5d6d314611e035780633123a62b14611de85780633323a706146117695780633bdb693e1461181b578063481c6a75146117f25780634882a7ea146117c15780635e027601146117735780636006ecc81461176e57806363aa5ce21461176e5780636e70fcc61461176957806370a08231146102e057806374d3e777146117345780637ace48e71461151957806384f6fb7f146112ba578063907e995914610fe5578063a7ccabdf14610f98578063ad711e9e14610e56578063aeeacbeb14610da4578063b1610d7e14610d86578063b3a1ddf414610d54578063bc5bc2fb14610cfd578063be26ed7f14610d28578063c4323fc114610cfd578063c4d1510d14610cd9578063c4e4b90c14610caa578063d56d229d14610c83578063d84cd45014610c41578063e124590014610bfa578063ec18fb5f14610326578063f8b2cb4f146102e0578063fd8d7ed3146102c3578063ff188dca146102a55763ff397c6a146101b457600080fd5b346102a257806003193601126102a257604051610800906001600160401b03908281018281118282101761027e57604052835b8381106102945750506040519182019081118282101761027e5760405261100582825b60408210610261575050506040519060209283830184845261082084019291945b604086106102395784840385f35b9091928180610254600193601f198982030187528751612266565b950193019501949061022b565b60016020819261027086612379565b81520193019101909161020a565b634e487b7160e01b600052604160045260246000fd5b6060828201526020016101e7565b80fd5b50346102a257806003193601126102a2576020600254604051908152f35b50346102a257806003193601126102a25760206040516103e88152f35b50346102a25760203660031901126102a2576004356001600160a01b038116908190036103225760408261ffff92602094526110458452205416604051908152f35b5080fd5b50346102a257610335366121fd565b61034282518251146125c9565b815191835b8360ff82161015610bf65761037b60ff61036381841685612446565b511660ff61037381851687612446565b511690612d43565b610bb85760ff61038d81831684612446565b5116855260046020526040852060ff6103a881841686612446565b51166000526020528460018060a01b036040600020541615600014610481575060018160ff6103da8180951686612446565b51168752600460205260408720836103f481841688612446565b5116600052602052604060002033838060a01b031982541617905533875261104560205260408720805461ffff61042c818316612b91565b169061ffff19161790555b8261044481831686612446565b51168361045381841688612446565b5116907f565d87b2ff22fa6d4f6132a14a4c53a75f6e1da460aaeacb6d0a5881840c35518980a30116610347565b906104ab60ff61049381841686612446565b511660ff6104a381851688612446565b511690612d75565b60ff6104b981841686612446565b5116835260046020526040832060ff6104d481851688612446565b511660005260205280600160406000200154116000146108c05760ff6104fc81841686612446565b5116835260046020526040832060ff61051781851688612446565b511660005260205261053181600160406000200154612bba565b9060018060a01b03600354166040516370a0823160e01b8152336004820152602081602481855afa908115610818578691610888575b506105ac9060ff61057a8188168a612446565b5116875260046020526040872060ff6105958189168c612446565b511660005260205260016040600020015410612acd565b604051636eb1769f60e11b8152336004820152306024820152602081604481855afa90811561081857869161084b575b506020916106266106839260ff6105f5818a168c612446565b51168952600485526040892060ff61060f8a82168e612446565b511660005285526001604060002001541115612b25565b60ff6106348188168a612446565b51168752600483526040872060ff61064e8189168c612446565b5116600052835260018060a01b0360406000205416946040519788809481936323b872dd60e01b998a84523360048501612641565b03925af1918215610840576106cc94602093610823575b50600354600154604051928352919586936001600160a01b039283169385938d93859390929091163360048501612641565b03925af19081156108185760ff926001926107e9575b50826106f081831686612446565b511687526004602052604087208361070a81841688612446565b5116600052602052818060a01b03604060002054168752611045806020526040882080549161ffff918261073f818616612b7d565b1661ffff19809516179055338a526020526040892091825491610763818416612b91565b1691161790558261077681831686612446565b511687526004602052604087208361079081841688612446565b5116600052602052604060002033838060a01b0319825416179055826107b881831686612446565b51168752600460205260408720836107d281841688612446565b511660005260205242600360406000200155610437565b61080a9060203d602011610811575b610802818361215d565b810190612629565b50386106e2565b503d6107f8565b6040513d88823e3d90fd5b61083990843d861161081157610802818361215d565b503861069a565b6040513d8a823e3d90fd5b9550506020853d602011610880575b816108676020938361215d565b8101031261087b57935188949060206105dc565b600080fd5b3d915061085a565b9550506020853d6020116108b8575b816108a46020938361215d565b8101031261087b576105ac89955190610567565b3d9150610897565b50600380546040516370a0823160e01b81523360048201526001600160a01b039091169350909190602081602481875afa8015610840578890610b84575b61092c915060ff61091181851688612446565b5116895260046020526040892060ff6105958186168a612446565b604051636eb1769f60e11b8152336004820152306024820152602081604481875afa908115610840578891610b50575b50610a0a936109a660209260ff6109758187168a612446565b51168b526004845260408b2060ff61098f8188168c612446565b511660005284526001604060002001541115612b25565b6001546001600160a01b03169060ff6109c185821689612446565b51168a526004835260408a2060ff6109db8187168b612446565b51166000528352600160406000200154918a6040518098819582946323b872dd60e01b84523360048501612641565b03925af1918215610b455760ff93600193610b26575b5083610a2e81841687612446565b5116885260046020526040882084610a4881851689612446565b5116600052602052828060a01b03604060002054168852611045806020526040892080549161ffff9182610a7d818616612b7d565b1661ffff19809516179055338b5260205260408a2091825491610aa1818416612b91565b16911617905583610ab481841687612446565b5116885260046020526040882084610ace81851689612446565b5116600052602052604060002033848060a01b031982541617905583610af681841687612446565b5116885260046020526040882084610b1081851689612446565b5116600052602052429060406000200155610437565b610b3e9060203d60201161081157610802818361215d565b5038610a20565b6040513d89823e3d90fd5b90506020813d602011610b7c575b81610b6b6020938361215d565b8101031261087b5751610a0a61095c565b3d9150610b5e565b506020813d602011610bb0575b81610b9e6020938361215d565b8101031261087b5761092c90516108fe565b3d9150610b91565b60405162461bcd60e51b8152602060048201526016602482015275706978656c206973206f7574206f6620626f756e647360501b6044820152606490fd5b8480f35b50346102a25760203660031901126102a2576004359060408210156102a257610c3d610c298361100501612379565b604051918291602083526020830190612266565b0390f35b50346102a25760403660031901126102a257610c3d610c6f610c61612107565b610c69612117565b90612c60565b60405191829160208352602083019061228b565b50346102a257806003193601126102a257546040516001600160a01b039091168152602090f35b50346102a25760203660031901126102a257600435906110008210156102a257610c3d610c2983600501612379565b50346102a257806003193601126102a257602060ff60015460a01c16604051908152f35b50346102a25760203660031901126102a2576040602091600435815261104783522054604051908152f35b50346102a257806003193601126102a257602062054600610d4b60025442612bba565b04604051908152f35b50346102a257806003193601126102a25760206203f48062054600610d7b60025442612bba565b061015604051908152f35b50346102a257806003193601126102a2576020604051620151808152f35b50346102a25760403660031901126102a25760ff6040610dc2612107565b9282610dcc612117565b94168152600460205220911660005260205260ff60406000208054906001810154610df960028301612379565b91610e406003820154936005876004850154169301549360405197889760018060a01b038116895260a01c166020880152604087015260e0606087015260e0860190612266565b926080850152151560a084015260c08301520390f35b50346102a257806003193601126102a257604051608081018181106001600160401b0382111761027e57604052605781526020907f3c7376672077696474683d2236303022206865696768743d2236303022207669828201527f6577426f783d2230203020363030203630302220786d6c6e733d22687474703a6040820152761797bbbbbb973b999737b933979918181817b9bb33911f60491b6060820152915b60408110610f4e5750610f3a602660405184610f1c8296518092878086019101612243565b8101651e17b9bb339f60d11b8582015203600681018552018361215d565b610c3d604051928284938452830190612266565b9181610f8d610f9392610f7f6040519382610f728694518092848088019101612243565b8301018761100501613577565b03601f19810183528261215d565b92613568565b610ef7565b50346102a25760203660031901126102a2576004356001600160a01b0381811691829003610fe157610fcf90600154163314612bc7565b81546001600160a01b03191617815580f35b8280fd5b50346102a25760603660031901126102a2576001600160401b039060043582811161032257611018903690600401612195565b9060248035848111610fe157611032903690600401612195565b9060449182359586116112b657366023870112156112b6578560040135936110598561217e565b96611067604051988961215d565b85885260209584878a019160051b830101913683116112b65785889101915b8383106112a65750505050855182518114908161129b575b501561124857855190805b60ff908181168481101561119d576110d2836110c5838d612446565b511684610373848a612446565b61115f57826110e1828c612446565b5116845260048952826110f8604086209288612446565b511660005288523360018060a01b03604060002054160361111c57600101166110a9565b60405162461bcd60e51b815260048101899052601e818801527f6f6e6c79206f776e65722063616e2073657420706978656c2076616c7565000081890152606490fd5b60405162461bcd60e51b8152600481018a9052601881890152774120706978656c206973206f7574206f6620626f756e647360401b818a0152606490fd5b8a898b8689896111ad8285612663565b825b60ff908181169083821015611244576111c8828a612446565b5191836111d5828a612446565b511687526004895260408720846111ec8389612446565b511660005289526001928360406000200155836112168161120d848c612446565b51169288612446565b5116907fb443b1e1f00b07b56c8517c490e3204884a2890c21f2adca9190e395e20bef6e8880a301166111af565b8580f35b60405162461bcd60e51b8152600481018690526027818501527f696e70757420617272617973206d757374206265206f66207468652073616d658186015266040d8cadccee8d60cb1b6064820152608490fd5b90508751143861109e565b8235815291810191889101611086565b8380fd5b50346102a2576020806003193601126103225760043563ffffffff8116809103610fe157620546006112ee60025442612bba565b048110156114b557808352611046808352604084205461131961ffff9182808260101c169116612ba4565b91818316156114805790617fff9184875285526040862054169160011c1610611340578280f35b82546001546001600160a01b03929185918416908416803b15610fe1576024839260405194859384926335313c2160e11b845260048401525af1801561147557611445575b506004917ffefd1234777b4b4bdb59a31f840cf2f33cdb8f57ed79f3a9d4f47d699fee7695848093604051908152a1845416604051928380926318160ddd60e01b82525afa90811561143a57839161140d575b5060001981019081116113f957906110479183525242604082205538808280f35b634e487b7160e01b83526011600452602483fd5b90508181813d8311611433575b611424818361215d565b8101031261087b5751386113d8565b503d61141a565b6040513d85823e3d90fd5b6001600160401b03819592951161146157604052926004611385565b634e487b7160e01b82526041600452602482fd5b6040513d87823e3d90fd5b60405162461bcd60e51b815260048101869052600d60248201526c139bc81d9bdd195cc818d85cdd609a1b6044820152606490fd5b60405162461bcd60e51b815260048101839052603660248201527f636865636b20766f7465206f7574636f6d6573206f6e6c7920706f737369626c6044820152756520666f7220636f6e636c75646564206379636c657360501b6064820152608490fd5b50346102a257602080600319360112610322576004358015158103610fe15760025462054600906203f4808261154f8342612bba565b06106116f357338552611045845261ffff8060408720541691821561169e57836115798242612bba565b0487526110469485875260016040892001338952875260ff604089205416611669578491901561162b57506115b360029392935442612bba565b04865283855260408620916115cc835492828416612ba4565b169061ffff19161790555b6115e360025442612bba565b048352815260016040832001903383525260408120600160ff19825416179055337f7ce969a18bb6b0fba42c6d9746e7d08eeca4c661809659c91d276456e3153ac08280a280f35b6116359042612bba565b04865283855263ffff000061165560408820938454938460101c16612ba4565b60101b169063ffff000019161790556115d7565b60405162461bcd60e51b815260048101889052600d60248201526c185b1c9958591e481d9bdd1959609a1b6044820152606490fd5b60405162461bcd60e51b815260048101879052602760248201527f6e6f20706978656c73206f776e6564203d206e6f20766f74657320746f2062656044820152660818d85cdd195960ca1b6064820152608490fd5b60405162461bcd60e51b81526004810185905260196024820152782b37ba34b7339031bab93932b73a363c903737ba1037b832b760391b6044820152606490fd5b50346102a25760403660031901126102a2576020611761611753612107565b61175b612117565b90612d75565b604051908152f35b6122ea565b612323565b50346102a25760203660031901126102a2576004356001600160a01b0381811691829003610fe1576117aa90600154163314612bc7565b600380546001600160a01b03191691909117905580f35b50346102a257806003193601126102a25760206203f480620546006117e860025442612bba565b0610604051908152f35b50346102a257806003193601126102a2576001546040516001600160a01b039091168152602090f35b50346102a25760203660031901126102a2576004356001600160401b0381116103225736602382011215610322578060040135906118588261217e565b91611866604051938461215d565b8083526024602084019160051b83010191368311611de45760248101915b838310611d795785856203f480620546006118a160025442612bba565b061015611d295780516040519061082082018281106001600160401b03821117611d155760405260408252610800366020840137835b60ff811682811015611c10576118ed9085612446565b51805181019080602083019260809182910312611c0c5761191060208301612470565b9261191d60408401612470565b9261192a60608201612470565b92810151906001600160401b038211611c04570181603f82011215611c0857602081015161195781612308565b92611965604051948561215d565b81845260408284010111611c0457611984916040602085019101612243565b61198e8385612d43565b610bb857600a60ff83161015611bc65760ff8416895260046020526040892060ff84168a5260205260ff600460408b20015416611b695760ff8416895260046020526040892060ff84168a526020523360018060a01b0360408b20541614611a03575b505050506119fe9061241f565b6118d7565b611a2b9060ff85168a52600460205260408a2060ff85168b52602052600260408b200161247e565b60ff8316885260046020526040882060ff83168952602052604088209081549060ff60a01b9060a01b169060ff60a01b191617905560ff611a6b8261258d565b1660ff83160160ff8111611b555760ff1660ff8316885260046020526040882060ff83168952602052611ae160ff60408a205460a01c1689611aac866125a2565b611adb60026040611abc896125a2565b9460ff8b168152600460205281812060ff8b1682526020522001612379565b92612de1565b90611000811015611b41576119fe949392611b0260ff93849360050161247e565b6001611b108383168a612446565b521691167f99111963d0c1a319f038ec181c2ca7254b2eed4a32fd20bf8e0ed407bac8b92b8880a3908680806119f1565b634e487b7160e01b89526032600452602489fd5b634e487b7160e01b88526011600452602488fd5b60405162461bcd60e51b815260206004820152602f60248201527f6f776e6572207761732061736b656420746f20666972737420736574746c652060448201526e1c9bde585b1d1e481c185e5b595b9d608a1b6064820152608490fd5b60405162461bcd60e51b81526020600482015260166024820152757368617065204944206e6f7420617661696c61626c6560501b6044820152606490fd5b8a80fd5b8980fd5b8780fd5b8386805b60ff908181166040811015611d1157611c2d9085612446565b51611c3c575b60010116611c14565b604051611c4881612142565b83815282611c558361258d565b16806040019061ffff90818311611cfd5791165b808210611ca75750506040821015611c935790611c8c600192826110050161247e565b9050611c33565b634e487b7160e01b84526032600452602484fd5b9091611000831015611ce9576020610f8d611ce392610f7f6040519382611cd78694518092848088019101612243565b83010187600501613577565b90611c69565b634e487b7160e01b86526032600452602486fd5b634e487b7160e01b87526011600452602487fd5b8380f35b634e487b7160e01b85526041600452602485fd5b60405162461bcd60e51b815260206004820152602260248201527f417274697374696320706572696f642063757272656e746c79206e6f74206f7060448201526132b760f11b6064820152608490fd5b82356001600160401b038111611de057820136604382011215611de057602481013591611da583612308565b611db2604051918261215d565b8381528860443681878701011161032257856020968796928793018386013783010152815201920191611884565b8680fd5b8480fd5b50346102a257611e00611dfa366121fd565b90612663565b80f35b50346102a25760203660031901126102a257604080916004358152611046602052205481519061ffff90818116835260101c166020820152f35b50346102a257806003193601126102a2576020604051620546008152f35b50346102a25760203660031901126102a2576004356001600160a01b0381169081900361032257604060209260ff9262054600611e9a60025442612bba565b048252611046855260018383200190825284522054166040519015158152f35b50346102a257611ec9366121fd565b611ed682518251146125c9565b815190611ee28261217e565b92611ef0604051948561215d565b828452601f19611eff8461217e565b01855b818110611fb6575050845b838110611f725760408051602080825287518183018190528993600582901b8401810192808b01929185015b828710611f465785850386f35b909192938280611f62600193603f198a8203018652885161228b565b9601920196019592919092611f39565b600190611f9a60ff80611f858487612446565b511690611f928488612446565b511690612c60565b611fa48288612446565b52611faf8187612446565b5001611f0d565b602090611fc1612c28565b82828901015201611f02565b50346102a25760603660031901126102a257611fe7612107565b60ff611ff1612117565b9161200760018060a01b03600154163314612bc7565b168083526020906004825260ff60408520931692838552825260ff600460408620015416806120c6575b1561208a57808452600482526040842083855282526044356001604086200155808452600482526040842083855282526004604085200160ff198154169055835260048152604083209183525280600560408220015580f35b8084526004825260408420838552825260046040852001600160ff19825416179055835260048152604083209183525242600560408320015580f35b508084526004825260408420838552825260056040852001546203f48081018091116120f3574211612031565b634e487b7160e01b85526011600452602485fd5b6004359060ff8216820361087b57565b6024359060ff8216820361087b57565b60e081019081106001600160401b0382111761027e57604052565b602081019081106001600160401b0382111761027e57604052565b90601f801991011681019081106001600160401b0382111761027e57604052565b6001600160401b03811161027e5760051b60200190565b81601f8201121561087b578035916121ac8361217e565b926121ba604051948561215d565b808452602092838086019260051b82010192831161087b578301905b8282106121e4575050505090565b813560ff8116810361087b5781529083019083016121d6565b90604060031983011261087b576001600160401b0360043581811161087b578361222991600401612195565b9260243591821161087b5761224091600401612195565b90565b60005b8381106122565750506000910152565b8181015183820152602001612246565b9060209161227f81518092818552858086019101612243565b601f01601f1916010190565b9060018060a01b03825116815260ff60208301511660208201526040820151604082015260c0806122cb606085015160e0606086015260e0850190612266565b936080810151608085015260a0810151151560a0850152015191015290565b3461087b57600036600319011261087b5760206040516203f4808152f35b6001600160401b03811161027e57601f01601f191660200190565b3461087b57600036600319011261087b57602060405160408152f35b90600182811c9216801561236f575b602083101461235957565b634e487b7160e01b600052602260045260246000fd5b91607f169161234e565b906040519182600082549261238d8461233f565b9081845260019485811690816000146123fc57506001146123b9575b50506123b79250038361215d565b565b9093915060005260209081600020936000915b8183106123e45750506123b7935082010138806123a9565b855488840185015294850194879450918301916123cc565b9150506123b794506020925060ff191682840152151560051b82010138806123a9565b60ff1660ff81146124305760010190565b634e487b7160e01b600052601160045260246000fd5b805182101561245a5760209160051b010190565b634e487b7160e01b600052603260045260246000fd5b519060ff8216820361087b57565b91909182516001600160401b03811161027e5761249b825461233f565b601f8111612545575b50602080601f83116001146124e15750819293946000926124d6575b50508160011b916000199060031b1c1916179055565b0151905038806124c0565b90601f198316958460005282600020926000905b88821061252d57505083600195969710612514575b505050811b019055565b015160001960f88460031b161c1916905538808061250a565b806001859682949686015181550195019301906124f5565b600083815260208120601f840160051c81019260208510612583575b601f0160051c01915b8281106125785750506124a4565b81815560010161256a565b9092508290612561565b60061b90613fc060c083169216820361243057565b60ff60099116029060ff821691820361243057565b60ff60049116019060ff821161243057565b156125d057565b60405162461bcd60e51b815260206004820152602b60248201527f7820616e64207920696e7075742061727261797320617265206f66207661726960448201526a6f7573206c656e6774687360a81b6064820152608490fd5b9081602091031261087b5751801515810361087b5790565b6001600160a01b03918216815291166020820152604081019190915260600190565b919061267283518251146125c9565b82519160005b60ff8082169085821015612ac4576126a181612694848a612446565b5116826103738589612446565b610bb857806126b08389612446565b51166000526004602081815260409182600020846126ce878b612446565b5116600052825260018060a01b03338185600020541603612a7757846126f4878d612446565b5116600052818352836000208561270b888c612446565b51166000528352600390898c42848860002001540361273c575b5050505050505050506127379061241f565b612678565b90876104a38a826127508261275897612446565b511693612446565b90808354169086516370a0823160e01b8152338682015260249087818381875afa9081156129eb57908591600091612a47575b50106129f6578751636eb1769f60e11b8152338782019081523060208201528890829081906040010381875afa9081156129eb579085916000916129bb575b501061296a57509185916127f99360015416600089518096819582946323b872dd60e01b8452338c8501612641565b03925af1801561295f579287969592612737999895928e95612942575b50866128228787612446565b51166000528183528b8761283a888760002093612446565b511660005283524290846000200155856128548686612446565b51166000528082528a8661286c878660002093612446565b51166000528252858b8183866000200154166128d6575b5093905061289792506128a0949150612446565b51169287612446565b5116907f86d6cb594aa6246461b8ce6b17fbd44c5f0e7ab32645d9035da6fed5ba78eb1b600080a390388080808080898c612725565b868661291892846128eb60009b60059b612446565b51168a5285875284612900848a8d2093612446565b51168a5286528689208501805460ff19169055612446565b511685528152818420908561292d888d612446565b5116855252822001558188388080858b612883565b61295890843d861161081157610802818361215d565b5038612816565b85513d6000823e3d90fd5b856027608492898b519362461bcd60e51b85528401528201527f696e73756666696369656e7420616c6c6f77616e636520746f2070617920726f60448201526679616c7469657360c81b6064820152fd5b91508882813d83116129e4575b6129d2818361215d565b810103126102a25750849051386127ca565b503d6129c8565b89513d6000823e3d90fd5b856027608492898b519362461bcd60e51b85528401528201527f6e6f742073756666696369656e742062616c616e636520746f2070617920726f60448201526679616c7469657360c81b6064820152fd5b91508882813d8311612a70575b612a5e818361215d565b810103126102a257508490513861278b565b503d612a54565b50915162461bcd60e51b815291820152602260248201527f6f6e6c7920706978656c206f776e65722063616e2070617920726f79616c7469604482015261657360f01b6064820152608490fd5b50505092505050565b15612ad457565b60405162461bcd60e51b815260206004820152602360248201527f6e6f742073756666696369656e742062616c616e636520746f206275792070696044820152621e195b60ea1b6064820152608490fd5b15612b2c57565b60405162461bcd60e51b815260206004820152602360248201527f696e73756666696369656e7420616c6c6f77616e636520746f206275792070696044820152621e195b60ea1b6064820152608490fd5b61ffff908116600019019190821161243057565b90600161ffff8093160191821161243057565b91909161ffff8080941691160191821161243057565b9190820391821161243057565b15612bce57565b60405162461bcd60e51b815260206004820152602c60248201527f6f776e65722063757272656e74206d616e616765722063616e2063616c6c207460448201526b3434b990333ab731ba34b7b760a11b6064820152608490fd5b60405190612c3582612127565b8160c06000918281528260208201528260408201526060808201528260808201528260a08201520152565b60ff90612c6b612c28565b50169060409182811080612d37575b15612cfd57600052600460205260ff826000209116600052602052600581600020825192612ca784612127565b81546001600160a01b038116855260a01c60ff166020850152600182015490840152612cd560028201612379565b60608401526003810154608084015260ff600482015416151560a0840152015460c082015290565b825162461bcd60e51b8152602060048201526013602482015272706978656c206f7574206f6620626f756e647360681b6044820152606490fd5b508260ff831610612c7a565b60ff604091161090811591612d56575090565b6040915060ff16101590565b8181029291811591840414171561243057565b612dce64073df16000926001604060ff612ddd951692600090848252600460205260ff838320911690818352602052612db46003848420015442612bba565b948252600460205282822090825260205220015490612d62565b60ff60015460a01c1690612d62565b0490565b92909160ff8094169283156134a257600184146133dd57600284146133ac57600384146133495784906004948581146132de576005811461317e576006811461312957600781146130d45760088114612fef57600991925014612e56575050505050604051612e4f81612142565b6000815290565b841693612e62856135fa565b9116612e6d816135fa565b60088601808711612fda57612e81906135fa565b9460088301809311612fc5575091612fa9826122409694612eb6612eb0612eaa604999976135fa565b9a6135fa565b926135fa565b91604051998a97602a612ee68a602099693c7061746820643d224d60b01b8b8301528a8151948593019101612243565b890193600160fd1b9485602a820152612f08825180938b602b85019101612243565b016b010209c101c101810181018960a51b602b820152612f31825180938a603785019101612243565b01836037820152612f4b8251809389603885019101612243565b0161081360f21b6038820152612f6a8251809388603a85019101612243565b0190603a820152612f848251809386603b85019101612243565b019169102d11103334b6361e9160b11b603b8401528351938491604585019101612243565b01631110179f60e11b604582015203602981018452018261215d565b601190634e487b7160e01b6000525260246000fd5b601186634e487b7160e01b6000525260246000fd5b501660088101948582116130bf57613006866135fa565b92169061301b613015836135fa565b916135fa565b9460088301809311612fc5575091612fa9826122409694613044612eb0612eaa604999976135fa565b91604051998a97602a6130748a602099693c7061746820643d224d60b01b8b8301528a8151948593019101612243565b890193600160fd1b9485602a820152613096825180938b602b85019101612243565b016b010209c101c101810181018160a51b602b820152612f31825180938a603785019101612243565b601185634e487b7160e01b6000525260246000fd5b5016936130e0856135fa565b91166130eb816135fa565b600886018096116130bf576130ff866135fa565b946008830190818411612fc5575060499492612240969492613044612eb0612eaa612fa9956135fa565b501693613135856135fa565b9116600881018082116130bf5761314b906135fa565b936008860190818711612fc5575091612fa96049949261316e61224097956135fa565b94613044612eb0612eaa846135fa565b50169361318a856135fa565b91169360088501908186116130bf576131a2826135fa565b906131b56131af826135fa565b976135fa565b9560088201809211612fc55750603f94926122409694926131db612eb06132c2946135fa565b91604051998a97602a61320b8a602099693c7061746820643d224d60b01b8b8301528a8151948593019101612243565b890193600160fd1b9485602a82015261322d825180938b602b85019101612243565b019161081360f21b9283602b82015261324f825180938b602d85019101612243565b0184602d820152613269825180938a602e85019101612243565b0190602e8201526132838251809388603085019101612243565b0190603082015261329d8251809386603185019101612243565b019169103d11103334b6361e9160b11b60318401528351938491603b85019101612243565b01631110179f60e11b603b82015203601f81018452018261215d565b5016926008840194858511613334576132f6866135fa565b9216946008860191828711612fc55750916132c28261224096946131db612eb06131af61332e613328603f9b996135fa565b946135fa565b9b6135fa565b601182634e487b7160e01b6000525260246000fd5b90939081169250613359836135fa565b931691613365836135fa565b91600882018092116124305761337a826135fa565b9461338d613387866135fa565b936135fa565b94600881018091116124305761224095603f956131db6132c2936135fa565b909390811692506133bc836135fa565b9316916133c8836135fa565b91600882018083116124305761337a906135fa565b6122409350846133f96133ff604495976133f9613405956125b7565b166135fa565b936125b7565b936040519485926b1e31b4b931b6329031bc1e9160a11b6020850152613435815180926020602c88019101612243565b830165111031bc9e9160d11b602c82015261345a825180936020603285019101612243565b016d1110391e911a11103334b6361e9160911b6032820152613486825180936020604085019101612243565b01631110179f60e11b604082015203602481018452018261215d565b6122409350846134b9604f94966134c093166135fa565b92166135fa565b93604051948592681e3932b1ba103c1e9160b91b60208501526134ed815180926020602988019101612243565b83016411103c9e9160d91b6029820152613511825180936020602e85019101612243565b017f222077696474683d223822206865696768743d2238222066696c6c3d22000000602e82015261354c825180936020604b85019101612243565b01631110179f60e11b604b82015203602f81018452018261215d565b60001981146124305760010190565b6000929181546135868161233f565b926001918083169081156135df57506001146135a3575b50505050565b90919293945060005260209081600020906000915b8583106135ce575050505001903880808061359d565b8054858401529183019181016135b8565b60ff191684525050508115159091020191503880808061359d565b80156136ba5780816000925b6136a657508061361583612308565b92613623604051948561215d565b808452601f1961363282612308565b01366020860137915b61364457505090565b6000198201918083116124305782600a90818404938285029285840414851517156124305761367660ff938492612bba565b16603001918211612430578551111561245a5760f81b6001600160f81b03191660001a908401601f01538061363b565b916136b2600a91613568565b920480613606565b50604051604081018181106001600160401b0382111761027e5760405260018152600360fc1b60208201529056fea26469706673582212208cc374f249cf296fd3a20fcbebb5c41d50d3d2f2ef17ec986539e438103eb3e664736f6c63430008140033",
  "linkReferences": {},
  "deployedLinkReferences": {}
}