{
  "_format": "hh-sol-artifact-1",
  "contractName": "Pixelmap",
  "sourceName": "contracts/Pixelmap.sol",
  "abi": [
    {
      "inputs": [],
      "stateMutability": "nonpayable",
      "type": "constructor"
    },
    {
      "inputs": [],
      "name": "artisticPeriod",
      "outputs": [
        {
          "internalType": "uint256",
          "name": "",
          "type": "uint256"
        }
      ],
      "stateMutability": "view",
      "type": "function"
    },
    {
      "inputs": [],
      "name": "begArtisticPeriod",
      "outputs": [
        {
          "internalType": "uint256",
          "name": "",
          "type": "uint256"
        }
      ],
      "stateMutability": "view",
      "type": "function"
    },
    {
      "inputs": [
        {
          "internalType": "uint256[]",
          "name": "xValues",
          "type": "uint256[]"
        },
        {
          "internalType": "uint256[]",
          "name": "yValues",
          "type": "uint256[]"
        }
      ],
      "name": "buyPixel",
      "outputs": [],
      "stateMutability": "nonpayable",
      "type": "function"
    },
    {
      "inputs": [
        {
          "internalType": "uint256",
          "name": "x",
          "type": "uint256"
        },
        {
          "internalType": "uint256",
          "name": "y",
          "type": "uint256"
        }
      ],
      "name": "calculateRoyalties",
      "outputs": [
        {
          "internalType": "uint256",
          "name": "",
          "type": "uint256"
        }
      ],
      "stateMutability": "view",
      "type": "function"
    },
    {
      "inputs": [
        {
          "internalType": "uint256[]",
          "name": "xValues",
          "type": "uint256[]"
        },
        {
          "internalType": "uint256[]",
          "name": "yValues",
          "type": "uint256[]"
        }
      ],
      "name": "checkMultiplePixel",
      "outputs": [
        {
          "components": [
            {
              "internalType": "address",
              "name": "owner",
              "type": "address"
            },
            {
              "internalType": "uint256",
              "name": "shapeID",
              "type": "uint256"
            },
            {
              "internalType": "uint256",
              "name": "price",
              "type": "uint256"
            },
            {
              "internalType": "string",
              "name": "color",
              "type": "string"
            },
            {
              "internalType": "uint256",
              "name": "royaltyLastPaid",
              "type": "uint256"
            },
            {
              "internalType": "bool",
              "name": "askedToPayRoyalties",
              "type": "bool"
            },
            {
              "internalType": "uint256",
              "name": "royaltyAskDate",
              "type": "uint256"
            }
          ],
          "internalType": "struct Pixelmap.Pixel[]",
          "name": "",
          "type": "tuple[]"
        }
      ],
      "stateMutability": "view",
      "type": "function"
    },
    {
      "inputs": [
        {
          "internalType": "uint256",
          "name": "x",
          "type": "uint256"
        },
        {
          "internalType": "uint256",
          "name": "y",
          "type": "uint256"
        }
      ],
      "name": "checkPixel",
      "outputs": [
        {
          "components": [
            {
              "internalType": "address",
              "name": "owner",
              "type": "address"
            },
            {
              "internalType": "uint256",
              "name": "shapeID",
              "type": "uint256"
            },
            {
              "internalType": "uint256",
              "name": "price",
              "type": "uint256"
            },
            {
              "internalType": "string",
              "name": "color",
              "type": "string"
            },
            {
              "internalType": "uint256",
              "name": "royaltyLastPaid",
              "type": "uint256"
            },
            {
              "internalType": "bool",
              "name": "askedToPayRoyalties",
              "type": "bool"
            },
            {
              "internalType": "uint256",
              "name": "royaltyAskDate",
              "type": "uint256"
            }
          ],
          "internalType": "struct Pixelmap.Pixel",
          "name": "",
          "type": "tuple"
        }
      ],
      "stateMutability": "view",
      "type": "function"
    },
    {
      "inputs": [],
      "name": "endArtisticPeriod",
      "outputs": [
        {
          "internalType": "uint256",
          "name": "",
          "type": "uint256"
        }
      ],
      "stateMutability": "view",
      "type": "function"
    },
    {
      "inputs": [
        {
          "internalType": "bytes[]",
          "name": "_pixels",
          "type": "bytes[]"
        }
      ],
      "name": "fillPixel",
      "outputs": [],
      "stateMutability": "nonpayable",
      "type": "function"
    },
    {
      "inputs": [],
      "name": "generateSVG",
      "outputs": [
        {
          "internalType": "string",
          "name": "",
          "type": "string"
        }
      ],
      "stateMutability": "view",
      "type": "function"
    },
    {
      "inputs": [],
      "name": "manager",
      "outputs": [
        {
          "internalType": "address",
          "name": "",
          "type": "address"
        }
      ],
      "stateMutability": "view",
      "type": "function"
    },
    {
      "inputs": [],
      "name": "maxHeight",
      "outputs": [
        {
          "internalType": "uint256",
          "name": "",
          "type": "uint256"
        }
      ],
      "stateMutability": "view",
      "type": "function"
    },
    {
      "inputs": [],
      "name": "maxWidth",
      "outputs": [
        {
          "internalType": "uint256",
          "name": "",
          "type": "uint256"
        }
      ],
      "stateMutability": "view",
      "type": "function"
    },
    {
      "inputs": [
        {
          "internalType": "uint256[]",
          "name": "xValues",
          "type": "uint256[]"
        },
        {
          "internalType": "uint256[]",
          "name": "yValues",
          "type": "uint256[]"
        }
      ],
      "name": "payRoyalties",
      "outputs": [],
      "stateMutability": "nonpayable",
      "type": "function"
    },
    {
      "inputs": [
        {
          "internalType": "uint256",
          "name": "",
          "type": "uint256"
        }
      ],
      "name": "pixelSVGs",
      "outputs": [
        {
          "internalType": "string",
          "name": "",
          "type": "string"
        }
      ],
      "stateMutability": "view",
      "type": "function"
    },
    {
      "inputs": [
        {
          "internalType": "uint256",
          "name": "",
          "type": "uint256"
        }
      ],
      "name": "rowSVGs",
      "outputs": [
        {
          "internalType": "string",
          "name": "",
          "type": "string"
        }
      ],
      "stateMutability": "view",
      "type": "function"
    },
    {
      "inputs": [],
      "name": "royaltyAskPeriod",
      "outputs": [
        {
          "internalType": "uint256",
          "name": "",
          "type": "uint256"
        }
      ],
      "stateMutability": "view",
      "type": "function"
    },
    {
      "inputs": [],
      "name": "royaltyDenominator",
      "outputs": [
        {
          "internalType": "uint256",
          "name": "",
          "type": "uint256"
        }
      ],
      "stateMutability": "view",
      "type": "function"
    },
    {
      "inputs": [],
      "name": "royaltyRate",
      "outputs": [
        {
          "internalType": "uint256",
          "name": "",
          "type": "uint256"
        }
      ],
      "stateMutability": "view",
      "type": "function"
    },
    {
      "inputs": [
        {
          "internalType": "uint256",
          "name": "x",
          "type": "uint256"
        },
        {
          "internalType": "uint256",
          "name": "y",
          "type": "uint256"
        },
        {
          "internalType": "uint256",
          "name": "_price",
          "type": "uint256"
        }
      ],
      "name": "seekRoyaltyPayment",
      "outputs": [],
      "stateMutability": "nonpayable",
      "type": "function"
    },
    {
      "inputs": [
        {
          "internalType": "uint256[]",
          "name": "xValues",
          "type": "uint256[]"
        },
        {
          "internalType": "uint256[]",
          "name": "yValues",
          "type": "uint256[]"
        },
        {
          "internalType": "uint256[]",
          "name": "priceValues",
          "type": "uint256[]"
        }
      ],
      "name": "setPixelValue",
      "outputs": [],
      "stateMutability": "nonpayable",
      "type": "function"
    },
    {
      "inputs": [
        {
          "internalType": "address",
          "name": "_newToken",
          "type": "address"
        }
      ],
      "name": "updateCurrency",
      "outputs": [],
      "stateMutability": "nonpayable",
      "type": "function"
    },
    {
      "inputs": [
        {
          "internalType": "uint256",
          "name": "",
          "type": "uint256"
        },
        {
          "internalType": "uint256",
          "name": "",
          "type": "uint256"
        }
      ],
      "name": "window",
      "outputs": [
        {
          "internalType": "address",
          "name": "owner",
          "type": "address"
        },
        {
          "internalType": "uint256",
          "name": "shapeID",
          "type": "uint256"
        },
        {
          "internalType": "uint256",
          "name": "price",
          "type": "uint256"
        },
        {
          "internalType": "string",
          "name": "color",
          "type": "string"
        },
        {
          "internalType": "uint256",
          "name": "royaltyLastPaid",
          "type": "uint256"
        },
        {
          "internalType": "bool",
          "name": "askedToPayRoyalties",
          "type": "bool"
        },
        {
          "internalType": "uint256",
          "name": "royaltyAskDate",
          "type": "uint256"
        }
      ],
      "stateMutability": "view",
      "type": "function"
    }
  ],
  "bytecode": "0x60808060405234610079576032600155620d2f008060025560018060a01b031973c02aaa39b223fe8d0a0e5c4f27ead9083c756cc281600554161760055533906000541617600055426003554201804211610063576004556128e4908161007f8239f35b634e487b7160e01b600052601160045260246000fd5b600080fdfe6080604052600436101561001257600080fd5b60003560e01c8063040cdfd8146114075780633bdb693e14610f4e578063481c6a7514610f255780635e02760114610ed95780636006ecc814610ed457806363aa5ce214610ed45780636e70fcc614610eb65780636ed958f1146108b85780638232b5621461067a57806385a9473d146105415780639140801714610523578063ad711e9e146103df578063bf59b1bc146103c1578063c4d1510d146103a3578063c4e4b90c14610376578063c730e65d146102dc578063c7eab2ec146101cd578063d08629c1146101ac578063d70fbd971461018e578063e124590014610149578063e50eb5da146101305763fd8d7ed31461010e57600080fd5b3461012b57600036600319011261012b5760206040516103e88152f35b600080fd5b3461012b57610147610141366115f2565b90611935565b005b3461012b57602036600319011261012b57600435604081101561012b5761017661018a9161100701611672565b60405191829160208352602083019061146e565b0390f35b3461012b57600036600319011261012b576020600454604051908152f35b3461012b5760206101c56101bf36611435565b90611f83565b604051908152f35b3461012b576101db366115f2565b6101e8825182511461189b565b8151906101f482611546565b926102026040519485611525565b828452601f1961021184611546565b0160005b8181106102c557505060005b838110610287576040805160208082528751818301819052600093600582901b8401810192808b01929185015b82871061025b5785850386f35b909192938280610277600193603f198a82030186528851611493565b960192019601959291909261024e565b806102a961029760019385611727565b516102a28387611727565b5190611eac565b6102b38288611727565b526102be8187611727565b5001610221565b6020906102d0611e74565b82828901015201610215565b3461012b576102ea36611435565b906000526006602052604060002090600052602052604060002060018060a01b03815416600182015491600281015461032560038301611672565b91610360600482015493600660ff6005850154169301549360405197889788526020880152604087015260e0606087015260e086019061146e565b926080850152151560a084015260c08301520390f35b3461012b57602036600319011261012b5760043561100081101561012b5761017661018a91600701611672565b3461012b57600036600319011261012b576020600154604051908152f35b3461012b57600036600319011261012b576020600354604051908152f35b3461012b57600036600319011261012b57604051608081018181106001600160401b0382111761050d57604052604181526020907f3c7376672077696474683d2236303022206865696768743d223630302220786d828201527f6c6e733d22687474703a2f2f7777772e77332e6f72672f323030302f737667226040820152601f60f91b60608201529060005b604081106104c357506104af602660405184610491829651809287808601910161144b565b8101651e17b9bb339f60d11b85820152036006810185520183611525565b61018a60405192828493845283019061146e565b9181610502610508926104f460405193826104e7869451809284808801910161144b565b830101876110070161273d565b03601f198101835282611525565b92611718565b61046c565b634e487b7160e01b600052604160045260246000fd5b3461012b57600036600319011261012b576020600254604051908152f35b3461012b57606036600319011261012b5760043560243561056d60018060a01b03600054163314611e13565b81600052600691602090838252604060002083600052825260ff6005604060002001541680610635575b156105f25790816000949392855283825260408520838652825260443560026040872001558085528382526040852083865282526005604086200160ff19815416905584528281526040842091845252604082200155600080f35b8060005283825260406000208360005282526005604060002001600160ff1982541617905560005282815260406000209160005252429060406000200155600080f35b5080600052838252604060002083600052825283604060002001546203f4808101809111610664574211610597565b634e487b7160e01b600052601160045260246000fd5b3461012b57606036600319011261012b576001600160401b0360043581811161012b576106ab903690600401611594565b90602491823582811161012b576106c6903690600401611594565b604492833590811161012b576106e0903690600401611594565b9382518251811490816108ad575b501561085a5782519360005b8581106107605750505061070e8183611935565b60005b83811061071a57005b8061072760019287611727565b516107328286611727565b5160005260206006815260406000209061074c8487611727565b516000525260026040600020015501610711565b61076a8186611727565b5160406107778387611727565b5191109081159161084e575b50610810576107928186611727565b5160005260206006815260406000206107ab8387611727565b5160005281523360018060a01b0360406000205416036107ce57506001016106fa565b6064907f6f6e6c79206f776e65722063616e2073657420706978656c2076616c7565000084601e876040519462461bcd60e51b86526004860152840152820152fd5b60405162461bcd60e51b815260206004820152601881850152774120706978656c206973206f7574206f6620626f756e647360401b81840152606490fd5b60409150101588610783565b6084907f696e70757420617272617973206d757374206265206f66207468652073616d658560276040519362461bcd60e51b85526020600486015284015282015266040d8cadccee8d60cb1b6064820152fd5b9050855114866106ee565b3461012b576108c6366115f2565b6108d3825182511461189b565b81519060005b8281106108e257005b6108ec8185611727565b5160406108f98385611727565b51911090811591610eaa575b50610e8d576109148185611727565b516000526006602052604060002061092c8284611727565b5160005260205260018060a01b03604060002054161560001461098f578061095660019286611727565b516000526006602052604060002061096e8285611727565b51600052602052604060002033838060a01b03198254161790555b016108d9565b6109ae61099c8286611727565b516109a78385611727565b5190611f83565b906109b98186611727565b51600052600660205260406000206109d18285611727565b5160005260205260029180836040600020015411600014610cf3576109f68287611727565b5160005260066020526040600020610a0e8386611727565b51600052602052610a2681846040600020015461188e565b9060018060a01b0360055416936040516370a0823160e01b8152336004820152602081602481895afa8015610c5e57600090610cbf575b610a999150610a6c868b611727565b5160005260066020526040600020610a84878a611727565b51600052602052826040600020015410611d63565b604051636eb1769f60e11b815233600482015230602482015290602082604481895afa918215610c5e578990600093610c87575b5095610b0c602093610b6193610ae58960009b611727565b518a526006865260408a20610afa8a8d611727565b518b52865260408a2001541115611dbb565b610b16868b611727565b5187526006835260408720610b2b878a611727565b518852835260408088205490516323b872dd60e01b80825290989096899485938492906001600160a01b03163360048501611913565b03925af1918215610c5e57610ba794602093610c6a575b5060055460008054604051938452929687946001600160a01b0393841694869485939291163360048501611913565b03925af1918215610c5e57600192610c2f575b50610bc58186611727565b5160005260066020526040600020610bdd8285611727565b51600052602052604060002033838060a01b0319825416179055610c018186611727565b5160005260066020526040600020610c198285611727565b5160005260205242600460406000200155610989565b610c509060203d602011610c57575b610c488183611525565b8101906118fb565b5085610bba565b503d610c3e565b6040513d6000823e3d90fd5b610c8090843d8611610c5757610c488183611525565b5088610b78565b919250506020813d602011610cb7575b81610ca460209383611525565b8101031261012b57519088610b0c610acd565b3d9150610c97565b506020813d602011610ceb575b81610cd960209383611525565b8101031261012b57610a999051610a5d565b3d9150610ccc565b506005546040516370a0823160e01b81523360048201526001600160a01b039091169290602081602481875afa8015610c5e57600090610e59575b610d559150610d3d8489611727565b5160005260066020526040600020610a848588611727565b604051636eb1769f60e11b8152336004820152306024820152602081604481875afa908115610c5e57600091610e23575b5090610ba793610dc8602093610d9c868b611727565b51600052600685526040600020610db3878a611727565b51600052855283604060002001541115611dbb565b6000546001600160a01b031691610ddf858a611727565b51600052600684526040600020610df68689611727565b516000528452604060002001549160006040518097819582946323b872dd60e01b84523360048501611913565b9190506020823d602011610e51575b81610e3f60209383611525565b8101031261012b579051610ba7610d86565b3d9150610e32565b506020813d602011610e85575b81610e7360209383611525565b8101031261012b57610d559051610d2e565b3d9150610e66565b60405162461bcd60e51b815280610ea66004820161173b565b0390fd5b60409150101585610905565b3461012b57600036600319011261012b5760206040516203f4808152f35b611578565b3461012b57602036600319011261012b576004356001600160a01b038181169182900361012b57610f0f90600054163314611e13565b600580546001600160a01b031916919091179055005b3461012b57600036600319011261012b576000546040516001600160a01b039091168152602090f35b3461012b57602036600319011261012b576004356001600160401b03811161012b573660238201121561012b578060040135610f8981611546565b91610f976040519384611525565b8183526024602084019260051b8201019036821161012b5760248101925b82841061139d578480516040519161082083018381106001600160401b0382111761050d576040526040835261080036602085013760005b8281106110c7578360005b6040811061100257005b61100c8183611727565b5161101a575b600101610ff8565b6040516110268161150a565b60008152600682901b6001600160fa1b03831683036106645780604001908160401161066457905b80821061106f57505090611068600192826110070161176c565b9050611012565b90916110008310156110b15760206105026110ab926104f4604051938261109f869451809284808801910161144b565b8301018760070161273d565b9061104e565b634e487b7160e01b600052603260045260246000fd5b6110d18183611727565b5190815182018260208201916080918291031261012b57602084015191604085015194606081015192810151906001600160401b03821161012b570181603f8201121561012b5760208101516111268161155d565b926111346040519485611525565b8184526040828401011161012b5761115391604060208501910161144b565b60408310801590611392575b610e8d57600a8210156113545782600052600660205260406000208560005260205260ff600560406000200154166112f8578260005260066020526040600020856000526020523360018060a01b0360406000205416146111cd575b5050506111c89150611718565b610fed565b6111f390836000526006602052604060002086600052602052600360406000200161176c565b81600052600660205260406000208460005260205260016040600020015580836112bc575b8060005260066020526040600020846000526020526001604060002001549060099080828102048214811517156106645785828102048214861517156106645761128d928160005260066020526040600020876000526020526112816003604060002001611672565b92808802920290611fe0565b6110008210156110b1576111c8936112ad6112b39260019460070161176c565b87611727565b528580806111bb565b90506112c8838261187b565b8160400360408111610664576000198501858111610664576112e99161187b565b81018091116106645790611218565b60405162461bcd60e51b815260206004820152602e60248201527f75736572207761732061736b656420746f20666972737420736574746c65207260448201526d1bde585b1d1e481c185e5b595b9d60921b6064820152608490fd5b60405162461bcd60e51b81526020600482015260166024820152757368617065204944206e6f7420617661696c61626c6560501b6044820152606490fd5b50604085101561115f565b83356001600160401b03811161012b578201903660438301121561012b576024820135906113ca8261155d565b6113d76040519182611525565b8281526044933685858301011161012b576020848196958296600094018386013783010152815201930192610fb5565b3461012b5761018a61142161141b36611435565b90611eac565b604051918291602083526020830190611493565b604090600319011261012b576004359060243590565b60005b83811061145e5750506000910152565b818101518382015260200161144e565b906020916114878151809281855285808601910161144b565b601f01601f1916010190565b9060018060a01b038251168152602082015160208201526040820151604082015260c0806114d0606085015160e0606086015260e085019061146e565b936080810151608085015260a0810151151560a0850152015191015290565b60e081019081106001600160401b0382111761050d57604052565b602081019081106001600160401b0382111761050d57604052565b90601f801991011681019081106001600160401b0382111761050d57604052565b6001600160401b03811161050d5760051b60200190565b6001600160401b03811161050d57601f01601f191660200190565b3461012b57600036600319011261012b57602060405160408152f35b81601f8201121561012b578035916115ab83611546565b926115b96040519485611525565b808452602092838086019260051b82010192831161012b578301905b8282106115e3575050505090565b813581529083019083016115d5565b90604060031983011261012b576001600160401b0360043581811161012b578361161e91600401611594565b9260243591821161012b5761163591600401611594565b90565b90600182811c92168015611668575b602083101461165257565b634e487b7160e01b600052602260045260246000fd5b91607f1691611647565b906040519182600082549261168684611638565b9081845260019485811690816000146116f557506001146116b2575b50506116b092500383611525565b565b9093915060005260209081600020936000915b8183106116dd5750506116b0935082010138806116a2565b855488840185015294850194879450918301916116c5565b9150506116b094506020925060ff191682840152151560051b82010138806116a2565b60001981146106645760010190565b80518210156110b15760209160051b010190565b606090602081526016602082015275706978656c206973206f7574206f6620626f756e647360501b60408201520190565b91909182516001600160401b03811161050d576117898254611638565b601f8111611833575b50602080601f83116001146117cf5750819293946000926117c4575b50508160011b916000199060031b1c1916179055565b0151905038806117ae565b90601f198316958460005282600020926000905b88821061181b57505083600195969710611802575b505050811b019055565b015160001960f88460031b161c191690553880806117f8565b806001859682949686015181550195019301906117e3565b600083815260208120601f840160051c81019260208510611871575b601f0160051c01915b828110611866575050611792565b818155600101611858565b909250829061184f565b8181029291811591840414171561066457565b9190820391821161066457565b156118a257565b60405162461bcd60e51b815260206004820152602b60248201527f7820616e64207920696e7075742061727261797320617265206f66207661726960448201526a6f7573206c656e6774687360a81b6064820152608490fd5b9081602091031261012b5751801515810361012b5790565b6001600160a01b03918216815291166020820152604081019190915260600190565b9190611944835182511461189b565b82516000935b818510611958575050509050565b6119628582611727565b519461196e8185611727565b5160408080981091821592611d58575b5050611d405761198e8183611727565b51600052600695602096808852816000206119a98488611727565b51600052885260018060a01b0391338382600020541603611cf2576119ce8486611727565b51600052818952806000206119e38589611727565b516000528952600498428a83600020015403611a15575b50505050611a0c919293949550611718565b9392919061194a565b611a2d611a228688611727565b516109a7878b611727565b99600594808654169084516370a0823160e01b8152338482015260249085818381875afa908115611c6657908f91600091611cc2575b5010611c71578551636eb1769f60e11b8152338582019081523060208201528690829081906040010381875afa908115611c6657908f91600091611c33575b5010611be2575060005485516323b872dd60e01b81529d85938f93909284928392611ad1921633898501611913565b03915a90600091f19a8b15611bd757611a0c9798999a9b611bba575b50611af88689611727565b5160005283825282600020611b0d878c611727565b5160005282524290836000200155611b258588611727565b5160005282815281600020611b3a868b611727565b51600052815260ff8483600020015416611b5a575b8998979695506119fa565b600093611b678689611727565b518552838252828520611b7a878c611727565b518652825282852001805460ff19169055611b958588611727565b51845282815281842090611ba9868b611727565b518552528220015538808080611b4f565b611bd090833d8511610c5757610c488183611525565b5038611aed565b83513d6000823e3d90fd5b8360276084928789519362461bcd60e51b85528401528201527f696e73756666696369656e7420616c6c6f77616e636520746f2070617920726f60448201526679616c7469657360c81b6064820152fd5b91508682813d8311611c5f575b611c4a8183611525565b81010312611c5c57508e905138611aa2565b80fd5b503d611c40565b87513d6000823e3d90fd5b8360276084928789519362461bcd60e51b85528401528201527f6e6f742073756666696369656e742062616c616e636520746f2070617920726f60448201526679616c7469657360c81b6064820152fd5b91508682813d8311611ceb575b611cd98183611525565b81010312611c5c57508e905138611a63565b503d611ccf565b5162461bcd60e51b815260048101899052602260248201527f6f6e6c7920706978656c206f776e65722063616e2070617920726f79616c7469604482015261657360f01b6064820152608490fd5b855162461bcd60e51b815280610ea66004820161173b565b10159050863861197e565b15611d6a57565b60405162461bcd60e51b815260206004820152602360248201527f6e6f742073756666696369656e742062616c616e636520746f206275792070696044820152621e195b60ea1b6064820152608490fd5b15611dc257565b60405162461bcd60e51b815260206004820152602360248201527f696e73756666696369656e7420616c6c6f77616e636520746f206275792070696044820152621e195b60ea1b6064820152608490fd5b15611e1a57565b60405162461bcd60e51b815260206004820152602c60248201527f6f776e65722063757272656e74206d616e616765722063616e2063616c6c207460448201526b3434b990333ab731ba34b7b760a11b6064820152608490fd5b60405190611e81826114ef565b8160c06000918281528260208201528260408201526060808201528260808201528260a08201520152565b90611eb5611e74565b5060409182811080611f7a575b15611f405760005260066020528160002090600052602052600681600020825192611eec846114ef565b81546001600160a01b0316845260018201546020850152600282015490840152611f1860038201611672565b60608401526004810154608084015260ff600582015416151560a0840152015460c082015290565b825162461bcd60e51b8152602060048201526013602482015272706978656c206f7574206f6620626f756e647360681b6044820152606490fd5b50828210611ec2565b611fd3611fdc916002604064073df16000956000908482526006602052828220818352602052611fb9600484842001544261188e565b94825260066020528282209082526020522001549061187b565b6001549061187b565b0490565b91929092821561268157600183146125b25760028314612588576003831461252c576004928381146124d8576005811461237b576006811461232957600781146122c257600881146121df5760091461204a57505050506040516120438161150a565b6000815290565b612053846127c0565b9061205d816127c0565b600886018087116121ca57612071906127c0565b94600883018093116121b55750916121998261163596946120a66120a061209a604999976127c0565b9a6127c0565b926127c0565b91604051998a97602a6120d68a602099693c7061746820643d224d60b01b8b8301528a815194859301910161144b565b890193600160fd1b9485602a8201526120f8825180938b602b8501910161144b565b016b010209c101c101810181018960a51b602b820152612121825180938a60378501910161144b565b0183603782015261213b825180938960388501910161144b565b0161081360f21b603882015261215a8251809388603a8501910161144b565b0190603a8201526121748251809386603b8501910161144b565b019169102d11103334b6361e9160b11b603b840152835193849160458501910161144b565b01631110179f60e11b6045820152036029810184520182611525565b601190634e487b7160e01b6000525260246000fd5b601186634e487b7160e01b6000525260246000fd5b509260088101938482116122ad576121f6856127c0565b91612209612203836127c0565b916127c0565b94600883018093116121b55750916121998261163596946122326120a061209a604999976127c0565b91604051998a97602a6122628a602099693c7061746820643d224d60b01b8b8301528a815194859301910161144b565b890193600160fd1b9485602a820152612284825180938b602b8501910161144b565b016b010209c101c101810181018160a51b602b820152612121825180938a60378501910161144b565b601184634e487b7160e01b6000525260246000fd5b506122cc846127c0565b906122d6816127c0565b60088601809611612314576122ea866127c0565b9460088301908184116121b55750604994926116359694926122326120a061209a612199956127c0565b601185634e487b7160e01b6000525260246000fd5b50612333846127c0565b906008810180821161231457612348906127c0565b9360088601908187116121b55750916121996049949261236b61163597956127c0565b946122326120a061209a846127c0565b5092612386816127c0565b9060088501908186116123145761239c826127c0565b906123af6123a9826127c0565b976127c0565b95600882018092116121b55750603f94926116359694926123d56120a06124bc946127c0565b91604051998a97602a6124058a602099693c7061746820643d224d60b01b8b8301528a815194859301910161144b565b890193600160fd1b9485602a820152612427825180938b602b8501910161144b565b019161081360f21b9283602b820152612449825180938b602d8501910161144b565b0184602d820152612463825180938a602e8501910161144b565b0190602e82015261247d825180938860308501910161144b565b01906030820152612497825180938660318501910161144b565b019169103d11103334b6361e9160b11b60318401528351938491603b8501910161144b565b01631110179f60e11b603b82015203601f810184520182611525565b50929160088301908184116121b5576124f0826127c0565b9160088601918287116121b55750916124bc8261163596946123d56120a06123a9612526612520603f9b996127c0565b946127c0565b9b6127c0565b9150612537836127c0565b92612541836127c0565b916008820180921161066457612556826127c0565b94612569612563866127c0565b936127c0565b94600881018091116106645761163595603f956123d56124bc936127c0565b9150612593836127c0565b9261259d836127c0565b916008820180831161066457612556906127c0565b91509160048101809111610664576125c9906127c0565b906004810180911161066457611635916125e46044926127c0565b936040519485926b1e31b4b931b6329031bc1e9160a11b6020850152612614815180926020602c8801910161144b565b830165111031bc9e9160d11b602c82015261263982518093602060328501910161144b565b016d1110391e911a11103334b6361e9160911b603282015261266582518093602060408501910161144b565b01631110179f60e11b6040820152036024810184520182611525565b6116359250612695612203604f93956127c0565b93604051948592681e3932b1ba103c1e9160b91b60208501526126c281518092602060298801910161144b565b83016411103c9e9160d91b60298201526126e6825180936020602e8501910161144b565b017f222077696474683d223822206865696768743d2238222066696c6c3d22000000602e820152612721825180936020604b8501910161144b565b01631110179f60e11b604b82015203602f810184520182611525565b60009291815461274c81611638565b926001918083169081156127a55750600114612769575b50505050565b90919293945060005260209081600020906000915b8583106127945750505050019038808080612763565b80548584015291830191810161277e565b60ff1916845250505081151590910201915038808080612763565b80156128805780816000925b61286c5750806127db8361155d565b926127e96040519485611525565b808452601f196127f88261155d565b01366020860137915b61280a57505090565b6000198201918083116106645782600a90818404938285029285840414851517156106645761283c60ff93849261188e565b1660300191821161066457855111156110b15760f81b6001600160f81b03191660001a908401601f015380612801565b91612878600a91611718565b9204806127cc565b50604051604081018181106001600160401b0382111761050d5760405260018152600360fc1b60208201529056fea26469706673582212200c416c79547ef8813aa508dd83e1bc3ac1ee3e1d166f061c70a09495f5947f4c64736f6c63430008140033",
  "linkReferences": {},
  "deployedLinkReferences": {}
}