{
  "_format": "hh-sol-artifact-1",
  "contractName": "Pixelmap",
  "sourceName": "contracts/Pixelmap.sol",
  "abi": [
    {
      "inputs": [],
      "stateMutability": "nonpayable",
      "type": "constructor"
    },
    {
      "inputs": [],
      "name": "ReentrancyGuardReentrantCall",
      "type": "error"
    },
    {
      "anonymous": false,
      "inputs": [
        {
          "indexed": false,
          "internalType": "uint256",
          "name": "tokenID",
          "type": "uint256"
        },
        {
          "indexed": false,
          "internalType": "address",
          "name": "bidder",
          "type": "address"
        },
        {
          "indexed": false,
          "internalType": "uint256",
          "name": "bid",
          "type": "uint256"
        }
      ],
      "name": "AuctionEnded",
      "type": "event"
    },
    {
      "anonymous": false,
      "inputs": [
        {
          "indexed": false,
          "internalType": "uint256",
          "name": "tokenID",
          "type": "uint256"
        },
        {
          "indexed": false,
          "internalType": "address",
          "name": "bidder",
          "type": "address"
        },
        {
          "indexed": false,
          "internalType": "uint256",
          "name": "bid",
          "type": "uint256"
        }
      ],
      "name": "BidPlace",
      "type": "event"
    },
    {
      "anonymous": false,
      "inputs": [
        {
          "indexed": false,
          "internalType": "uint256",
          "name": "tokenID",
          "type": "uint256"
        },
        {
          "indexed": false,
          "internalType": "address",
          "name": "bidder",
          "type": "address"
        },
        {
          "indexed": false,
          "internalType": "uint256",
          "name": "bid",
          "type": "uint256"
        }
      ],
      "name": "BidWithdrawn",
      "type": "event"
    },
    {
      "anonymous": false,
      "inputs": [
        {
          "indexed": false,
          "internalType": "uint256",
          "name": "cycle",
          "type": "uint256"
        }
      ],
      "name": "NFTMinted",
      "type": "event"
    },
    {
      "anonymous": false,
      "inputs": [
        {
          "indexed": true,
          "internalType": "uint256",
          "name": "x",
          "type": "uint256"
        },
        {
          "indexed": true,
          "internalType": "uint256",
          "name": "y",
          "type": "uint256"
        }
      ],
      "name": "PixelBought",
      "type": "event"
    },
    {
      "anonymous": false,
      "inputs": [
        {
          "indexed": true,
          "internalType": "uint256",
          "name": "x",
          "type": "uint256"
        },
        {
          "indexed": true,
          "internalType": "uint256",
          "name": "y",
          "type": "uint256"
        }
      ],
      "name": "PixelFilled",
      "type": "event"
    },
    {
      "anonymous": false,
      "inputs": [
        {
          "indexed": true,
          "internalType": "uint256",
          "name": "x",
          "type": "uint256"
        },
        {
          "indexed": true,
          "internalType": "uint256",
          "name": "y",
          "type": "uint256"
        }
      ],
      "name": "PixelValueSet",
      "type": "event"
    },
    {
      "anonymous": false,
      "inputs": [
        {
          "indexed": true,
          "internalType": "uint256",
          "name": "x",
          "type": "uint256"
        },
        {
          "indexed": true,
          "internalType": "uint256",
          "name": "y",
          "type": "uint256"
        }
      ],
      "name": "RoyaltiesPaid",
      "type": "event"
    },
    {
      "anonymous": false,
      "inputs": [
        {
          "indexed": true,
          "internalType": "address",
          "name": "owner",
          "type": "address"
        }
      ],
      "name": "VoteCasted",
      "type": "event"
    },
    {
      "inputs": [],
      "name": "AUCTION_DURATION",
      "outputs": [
        {
          "internalType": "uint256",
          "name": "",
          "type": "uint256"
        }
      ],
      "stateMutability": "view",
      "type": "function"
    },
    {
      "inputs": [],
      "name": "CYCLE_PERIOD",
      "outputs": [
        {
          "internalType": "uint256",
          "name": "",
          "type": "uint256"
        }
      ],
      "stateMutability": "view",
      "type": "function"
    },
    {
      "inputs": [
        {
          "internalType": "uint256",
          "name": "",
          "type": "uint256"
        },
        {
          "internalType": "address",
          "name": "",
          "type": "address"
        }
      ],
      "name": "auctionClaims",
      "outputs": [
        {
          "internalType": "uint256",
          "name": "",
          "type": "uint256"
        }
      ],
      "stateMutability": "view",
      "type": "function"
    },
    {
      "inputs": [
        {
          "internalType": "uint256",
          "name": "",
          "type": "uint256"
        },
        {
          "internalType": "address",
          "name": "",
          "type": "address"
        }
      ],
      "name": "auctionClaimsFlag",
      "outputs": [
        {
          "internalType": "bool",
          "name": "",
          "type": "bool"
        }
      ],
      "stateMutability": "view",
      "type": "function"
    },
    {
      "inputs": [
        {
          "internalType": "address",
          "name": "",
          "type": "address"
        }
      ],
      "name": "balanceOf",
      "outputs": [
        {
          "internalType": "uint256",
          "name": "",
          "type": "uint256"
        }
      ],
      "stateMutability": "view",
      "type": "function"
    },
    {
      "inputs": [
        {
          "internalType": "uint8[]",
          "name": "xValues",
          "type": "uint8[]"
        },
        {
          "internalType": "uint8[]",
          "name": "yValues",
          "type": "uint8[]"
        }
      ],
      "name": "buyPixel",
      "outputs": [],
      "stateMutability": "nonpayable",
      "type": "function"
    },
    {
      "inputs": [
        {
          "internalType": "uint8",
          "name": "x",
          "type": "uint8"
        },
        {
          "internalType": "uint8",
          "name": "y",
          "type": "uint8"
        }
      ],
      "name": "calculateRoyalties",
      "outputs": [
        {
          "internalType": "uint256",
          "name": "",
          "type": "uint256"
        }
      ],
      "stateMutability": "view",
      "type": "function"
    },
    {
      "inputs": [
        {
          "internalType": "bool",
          "name": "vote",
          "type": "bool"
        }
      ],
      "name": "castVote",
      "outputs": [],
      "stateMutability": "nonpayable",
      "type": "function"
    },
    {
      "inputs": [
        {
          "internalType": "uint8[]",
          "name": "xValues",
          "type": "uint8[]"
        },
        {
          "internalType": "uint8[]",
          "name": "yValues",
          "type": "uint8[]"
        }
      ],
      "name": "checkMultiplePixel",
      "outputs": [
        {
          "components": [
            {
              "internalType": "address",
              "name": "owner",
              "type": "address"
            },
            {
              "internalType": "uint8",
              "name": "shapeID",
              "type": "uint8"
            },
            {
              "internalType": "bool",
              "name": "askedToPayRoyalties",
              "type": "bool"
            },
            {
              "internalType": "uint256",
              "name": "price",
              "type": "uint256"
            },
            {
              "internalType": "uint256",
              "name": "royaltyLastPaid",
              "type": "uint256"
            },
            {
              "internalType": "uint256",
              "name": "royaltyAskDate",
              "type": "uint256"
            },
            {
              "internalType": "string",
              "name": "color",
              "type": "string"
            }
          ],
          "internalType": "struct Pixelmap.Pixel[]",
          "name": "results",
          "type": "tuple[]"
        }
      ],
      "stateMutability": "view",
      "type": "function"
    },
    {
      "inputs": [
        {
          "internalType": "uint8",
          "name": "x",
          "type": "uint8"
        },
        {
          "internalType": "uint8",
          "name": "y",
          "type": "uint8"
        }
      ],
      "name": "checkPixel",
      "outputs": [
        {
          "components": [
            {
              "internalType": "address",
              "name": "owner",
              "type": "address"
            },
            {
              "internalType": "uint8",
              "name": "shapeID",
              "type": "uint8"
            },
            {
              "internalType": "bool",
              "name": "askedToPayRoyalties",
              "type": "bool"
            },
            {
              "internalType": "uint256",
              "name": "price",
              "type": "uint256"
            },
            {
              "internalType": "uint256",
              "name": "royaltyLastPaid",
              "type": "uint256"
            },
            {
              "internalType": "uint256",
              "name": "royaltyAskDate",
              "type": "uint256"
            },
            {
              "internalType": "string",
              "name": "color",
              "type": "string"
            }
          ],
          "internalType": "struct Pixelmap.Pixel",
          "name": "",
          "type": "tuple"
        }
      ],
      "stateMutability": "view",
      "type": "function"
    },
    {
      "inputs": [
        {
          "internalType": "uint256",
          "name": "_cycle",
          "type": "uint256"
        }
      ],
      "name": "checkVoteOutcome",
      "outputs": [],
      "stateMutability": "nonpayable",
      "type": "function"
    },
    {
      "inputs": [
        {
          "internalType": "uint256",
          "name": "_tokenID",
          "type": "uint256"
        }
      ],
      "name": "closeAuction",
      "outputs": [],
      "stateMutability": "nonpayable",
      "type": "function"
    },
    {
      "inputs": [
        {
          "internalType": "bytes[]",
          "name": "_pixels",
          "type": "bytes[]"
        }
      ],
      "name": "fillPixel",
      "outputs": [],
      "stateMutability": "nonpayable",
      "type": "function"
    },
    {
      "inputs": [],
      "name": "generateMerkle",
      "outputs": [
        {
          "internalType": "bytes32",
          "name": "",
          "type": "bytes32"
        }
      ],
      "stateMutability": "view",
      "type": "function"
    },
    {
      "inputs": [],
      "name": "generateSVG",
      "outputs": [
        {
          "internalType": "string",
          "name": "svgString",
          "type": "string"
        }
      ],
      "stateMutability": "view",
      "type": "function"
    },
    {
      "inputs": [
        {
          "internalType": "uint256",
          "name": "tokenID",
          "type": "uint256"
        },
        {
          "internalType": "address",
          "name": "user",
          "type": "address"
        }
      ],
      "name": "getAuctionClaimFlag",
      "outputs": [
        {
          "internalType": "bool",
          "name": "",
          "type": "bool"
        }
      ],
      "stateMutability": "view",
      "type": "function"
    },
    {
      "inputs": [
        {
          "internalType": "uint256",
          "name": "tokenID",
          "type": "uint256"
        },
        {
          "internalType": "address",
          "name": "user",
          "type": "address"
        }
      ],
      "name": "getAuctionClaims",
      "outputs": [
        {
          "internalType": "uint256",
          "name": "",
          "type": "uint256"
        }
      ],
      "stateMutability": "view",
      "type": "function"
    },
    {
      "inputs": [
        {
          "internalType": "address",
          "name": "_owner",
          "type": "address"
        }
      ],
      "name": "getBalance",
      "outputs": [
        {
          "internalType": "uint256",
          "name": "",
          "type": "uint256"
        }
      ],
      "stateMutability": "view",
      "type": "function"
    },
    {
      "inputs": [],
      "name": "getCurrentCycle",
      "outputs": [
        {
          "internalType": "uint256",
          "name": "",
          "type": "uint256"
        }
      ],
      "stateMutability": "view",
      "type": "function"
    },
    {
      "inputs": [
        {
          "internalType": "uint256",
          "name": "_tokenID",
          "type": "uint256"
        }
      ],
      "name": "getMintDate",
      "outputs": [
        {
          "internalType": "uint256",
          "name": "",
          "type": "uint256"
        }
      ],
      "stateMutability": "view",
      "type": "function"
    },
    {
      "inputs": [
        {
          "internalType": "address",
          "name": "_owner",
          "type": "address"
        }
      ],
      "name": "hasVoted",
      "outputs": [
        {
          "internalType": "bool",
          "name": "",
          "type": "bool"
        }
      ],
      "stateMutability": "view",
      "type": "function"
    },
    {
      "inputs": [],
      "name": "isInArtisticPeriod",
      "outputs": [
        {
          "internalType": "bool",
          "name": "",
          "type": "bool"
        }
      ],
      "stateMutability": "view",
      "type": "function"
    },
    {
      "inputs": [],
      "name": "isInVotingPeriod",
      "outputs": [
        {
          "internalType": "bool",
          "name": "",
          "type": "bool"
        }
      ],
      "stateMutability": "view",
      "type": "function"
    },
    {
      "inputs": [],
      "name": "manager",
      "outputs": [
        {
          "internalType": "address",
          "name": "",
          "type": "address"
        }
      ],
      "stateMutability": "view",
      "type": "function"
    },
    {
      "inputs": [
        {
          "internalType": "uint256",
          "name": "",
          "type": "uint256"
        }
      ],
      "name": "mintDates",
      "outputs": [
        {
          "internalType": "uint256",
          "name": "",
          "type": "uint256"
        }
      ],
      "stateMutability": "view",
      "type": "function"
    },
    {
      "inputs": [
        {
          "internalType": "uint256",
          "name": "",
          "type": "uint256"
        }
      ],
      "name": "nftAuctions",
      "outputs": [
        {
          "internalType": "address",
          "name": "winningAddr",
          "type": "address"
        },
        {
          "internalType": "uint256",
          "name": "winningBid",
          "type": "uint256"
        },
        {
          "internalType": "uint256",
          "name": "auctionStart",
          "type": "uint256"
        },
        {
          "internalType": "uint256",
          "name": "auctionEnd",
          "type": "uint256"
        },
        {
          "internalType": "bool",
          "name": "auctionEnded",
          "type": "bool"
        }
      ],
      "stateMutability": "view",
      "type": "function"
    },
    {
      "inputs": [],
      "name": "nftContract",
      "outputs": [
        {
          "internalType": "contract CanvasCollection",
          "name": "",
          "type": "address"
        }
      ],
      "stateMutability": "view",
      "type": "function"
    },
    {
      "inputs": [
        {
          "internalType": "uint8[]",
          "name": "xValues",
          "type": "uint8[]"
        },
        {
          "internalType": "uint8[]",
          "name": "yValues",
          "type": "uint8[]"
        }
      ],
      "name": "payRoyalties",
      "outputs": [],
      "stateMutability": "nonpayable",
      "type": "function"
    },
    {
      "inputs": [
        {
          "internalType": "uint256",
          "name": "_tokenID",
          "type": "uint256"
        }
      ],
      "name": "placeBid",
      "outputs": [],
      "stateMutability": "payable",
      "type": "function"
    },
    {
      "inputs": [],
      "name": "royaltyDenominator",
      "outputs": [
        {
          "internalType": "uint256",
          "name": "",
          "type": "uint256"
        }
      ],
      "stateMutability": "view",
      "type": "function"
    },
    {
      "inputs": [],
      "name": "royaltyRate",
      "outputs": [
        {
          "internalType": "uint8",
          "name": "",
          "type": "uint8"
        }
      ],
      "stateMutability": "view",
      "type": "function"
    },
    {
      "inputs": [
        {
          "internalType": "uint8",
          "name": "x",
          "type": "uint8"
        },
        {
          "internalType": "uint8",
          "name": "y",
          "type": "uint8"
        },
        {
          "internalType": "uint256",
          "name": "_price",
          "type": "uint256"
        }
      ],
      "name": "seekRoyaltyPayment",
      "outputs": [],
      "stateMutability": "nonpayable",
      "type": "function"
    },
    {
      "inputs": [
        {
          "internalType": "address",
          "name": "_nftContract",
          "type": "address"
        }
      ],
      "name": "setNFTContract",
      "outputs": [],
      "stateMutability": "nonpayable",
      "type": "function"
    },
    {
      "inputs": [
        {
          "internalType": "uint8[]",
          "name": "xValues",
          "type": "uint8[]"
        },
        {
          "internalType": "uint8[]",
          "name": "yValues",
          "type": "uint8[]"
        },
        {
          "internalType": "uint256[]",
          "name": "priceValues",
          "type": "uint256[]"
        }
      ],
      "name": "setPixelValue",
      "outputs": [],
      "stateMutability": "nonpayable",
      "type": "function"
    },
    {
      "inputs": [
        {
          "internalType": "address",
          "name": "_newToken",
          "type": "address"
        }
      ],
      "name": "updateCurrency",
      "outputs": [],
      "stateMutability": "nonpayable",
      "type": "function"
    },
    {
      "inputs": [
        {
          "internalType": "uint256",
          "name": "",
          "type": "uint256"
        }
      ],
      "name": "voteRegister",
      "outputs": [
        {
          "internalType": "uint256",
          "name": "yesVotes",
          "type": "uint256"
        },
        {
          "internalType": "uint256",
          "name": "noVotes",
          "type": "uint256"
        }
      ],
      "stateMutability": "view",
      "type": "function"
    },
    {
      "inputs": [
        {
          "internalType": "uint8",
          "name": "",
          "type": "uint8"
        },
        {
          "internalType": "uint8",
          "name": "",
          "type": "uint8"
        }
      ],
      "name": "window",
      "outputs": [
        {
          "internalType": "address",
          "name": "owner",
          "type": "address"
        },
        {
          "internalType": "uint8",
          "name": "shapeID",
          "type": "uint8"
        },
        {
          "internalType": "bool",
          "name": "askedToPayRoyalties",
          "type": "bool"
        },
        {
          "internalType": "uint256",
          "name": "price",
          "type": "uint256"
        },
        {
          "internalType": "uint256",
          "name": "royaltyLastPaid",
          "type": "uint256"
        },
        {
          "internalType": "uint256",
          "name": "royaltyAskDate",
          "type": "uint256"
        },
        {
          "internalType": "string",
          "name": "color",
          "type": "string"
        }
      ],
      "stateMutability": "view",
      "type": "function"
    },
    {
      "inputs": [
        {
          "internalType": "uint256",
          "name": "_tokenID",
          "type": "uint256"
        }
      ],
      "name": "withdrawPixelProceeds",
      "outputs": [],
      "stateMutability": "nonpayable",
      "type": "function"
    }
  ],
  "bytecode": "0x60808060405234620000cb5760016000556002805460ff60a01b1916601960a11b179055600480546001600160a01b031990811673c02aaa39b223fe8d0a0e5c4f27ead9083c756cc217909155906107b58082016001600160401b03811183821017620000b557829162003eaf833903906000f08015620000a95760018060a01b03168160055416176005553390600254161760025542600355604051613dde9081620000d18239f35b6040513d6000823e3d90fd5b634e487b7160e01b600052604160045260246000fd5b600080fdfe6080604052600436101561001257600080fd5b6000803560e01c806302d13f02146126555780630734d1441461254b57806309eef43e146124f0578063113bc999146124d2578063166db0081461248e578063236ed8f3146120fc57806330b5d6d3146120c75780633123a62b146120a95780633bdb693e14611b7b57806344d6b6d214611b34578063481c6a7514611b0b5780634882a7ea14611ada5780635c8c6407146118885780635e0276011461183d5780637000c3e814610a8c57806370a08231146101de57806374d3e7771461180e5780637ace48e714611610578063907e99591461137e57806393cde51a1461131a5780639979ef451461114e578063a271e52514611131578063a52f27b514610fb4578063a7ccabdf14610f69578063ad711e9e14610de9578063aeeacbeb14610d3e578063b3a1ddf414610d0c578063bc5bc2fb14610cb5578063be26ed7f14610ce0578063c4323fc114610cb5578063c4d1510d14610c91578063ccba361714610b01578063d56d229d14610ad8578063d7638d8014610a8c578063d84cd45014610a46578063ec18fb5f14610218578063f8b2cb4f146101de5763fd8d7ed3146101bf57600080fd5b346101db57806003193601126101db5760206040516103e88152f35b80fd5b50346101db5760203660031901126101db576020906040906001600160a01b036102066128c6565b16815261104983522054604051908152f35b50346101db57610227366127d5565b9091610234828214612be7565b845b818110610241578580f35b61026b610257610252838589612bc9565b612bd9565b610265610252848789612bc9565b90613349565b610a085760ff61027f610252838589612bc9565b16865260086020526040862060ff61029b610252848789612bc9565b1660005260205260018060a01b0360406000205416156000146103825760ff6102c8610252838589612bc9565b16865260086020526040862060ff6102e4610252848789612bc9565b166000526020526040600020336001600160601b0360a01b825416179055338652611049602052604086208054906001820180921161036e57556001905b610330610252828589612bc9565b60ff8061034161025285898b612bc9565b1691167fee0e9a85d097f632450e6ac08750207c8f039246ee437b10eaf708b397d00ad88980a301610236565b634e487b7160e01b88526011600452602488fd5b6103a7610393610252838589612bc9565b6103a1610252848789612bc9565b9061337b565b60ff6103b761025284868a612bc9565b16875260086020526040872060ff6103d361025285888a612bc9565b1660005260205280600160406000200154116000146108215760ff6103fc61025284868a612bc9565b16875260086020526040872060ff61041861025285888a612bc9565b16600052602052610431816001604060002001546131c4565b600480546040516370a0823160e01b815233928101929092526001600160a01b0316929190602081602481875afa8a81156107d5578881898d8a968e95966107e1575b509560ff9360406104a3948661049461025286610252986104b99e612bc9565b16815260086020522095612bc9565b1660005260205260016040600020015410613114565b604051636eb1769f60e11b815233600482015230602482015292602084604481845afa8a81156107d5578881898d8d958b9590610786575b6105a89a509360408460ff61054e6102528a8860209f9e9d9c98610549869d8f8861055c9f6102529f888f8f610533948661049461025286610252988f612bc9565b1660005260205260018a6000200154111561316c565b612bc9565b16815260088b522095612bc9565b1660009081529084526040908190205490516323b872dd60e01b81523360048201526001600160a01b0390911660248201526044810192909252909384919082908c9082906064820190565b03925af190811561077b576106099260209261075e575b50600480546002546040516323b872dd60e01b815233938101939093526001600160a01b0390811660248401526044830193909352909384929091169082908b9082906064820190565b03925af1801561075357610724575b5060ff610629610252838589612bc9565b16865260086020526040862060ff610645610252848789612bc9565b1660005260205260018060a01b036040600020541686526110496020526040862080548060001981011161036e57600019019055338652611049602052604086208054906001820180921161036e575560019060ff6106a861025283868a612bc9565b16875260086020526040872060ff6106c461025284888a612bc9565b166000526020526040600020336001600160601b0360a01b82541617905560ff6106f261025283868a612bc9565b16875260086020526040872060ff61070e61025284888a612bc9565b1660005260205242600260406000200155610322565b6107459060203d60201161074c575b61073d8183612982565b810190612c47565b5038610618565b503d610733565b6040513d89823e3d90fd5b61077490833d851161074c5761073d8183612982565b50386105bf565b6040513d8a823e3d90fd5b5050505050505092906020823d6020116107cd575b816107a860209383612982565b810103126107c85790516105a893908890869089908d908a908e906104f1565b600080fd5b3d915061079b565b604051903d90823e3d90fd5b96505050505050506020813d602011610819575b8161080260209383612982565b810103126107c85751849088888c898d60ff610474565b3d91506107f5565b50600480546040516370a0823160e01b815233928101929092526001600160a01b031690602081602481855afa801561077b5788906109d4575b61088c915060ff61087061025286888c612bc9565b16895260086020526040892060ff6104a3610252878a8c612bc9565b604051636eb1769f60e11b8152336004820152306024820152602081604481855afa908882156107d5578681878b8b95899597610994575b50610252856020989560406106099b999660ff6108ec6102526109109c839a6108fa9a612bc9565b16815260088c522095612bc9565b166000528452600160406000200154111561316c565b6002546001600160a01b03169060ff61092d61025287898d612bc9565b168a526008835260408a2060ff610948610252888b8d612bc9565b1660009081529084526040908190206001015490516323b872dd60e01b81523360048201526001600160a01b0390931660248401526044830152909283919082908b9082906064820190565b96505050505050506020813d6020116109cc575b816109b560209383612982565b810103126107c857518583868a878b6102526108c4565b3d91506109a8565b506020813d602011610a00575b816109ee60209383612982565b810103126107c85761088c905161085b565b3d91506109e1565b60405162461bcd60e51b8152602060048201526016602482015275706978656c206973206f7574206f6620626f756e647360501b6044820152606490fd5b50346101db5760403660031901126101db57610a88610a74610a66612777565b610a6e612787565b90613269565b604051918291602083526020830190612867565b0390f35b50346101db5760403660031901126101db576040610aa86128dc565b9160043581526007602052209060018060a01b0316600052602052602060ff604060002054166040519015158152f35b50346101db57806003193601126101db576001546040516001600160a01b039091168152602090f35b50346101db57602080600319360112610c8d57600435610b1f6134af565b808352600782526040832033600052825260ff60406000205416610c3c5780835261104c8252610b6a6001604085200154600684526040852033600052845260406000205490613368565b600c1c908115610bf757838080938193825260078652604082203360005286526040600020600160ff19825416179055335af1610ba561347f565b5015610bb357506001815580f35b6064906040519062461bcd60e51b82526004820152601760248201527f4661696c656420746f2073656e642070726f63656564730000000000000000006044820152fd5b60405162461bcd60e51b815260048101849052601760248201527f4e6f2070726f636565647320746f2077697468647261770000000000000000006044820152606490fd5b60405162461bcd60e51b8152600481018390526024808201527f616c726561647920636c61696d65642070726f636565647320666f72207468696044820152631cc8125160e21b6064820152608490fd5b5080fd5b50346101db57806003193601126101db57602060ff60025460a01c16604051908152f35b50346101db5760203660031901126101db576040602091600435815261104b83522054604051908152f35b50346101db57806003193601126101db57602062054600610d03600354426131c4565b04604051908152f35b50346101db57806003193601126101db5760206203f48062054600610d33600354426131c4565b061015604051908152f35b50346101db5760403660031901126101db5760ff6040610d5c612777565b9282610d66612787565b94168152600860205220911660005260205260ff6040600020610a888154916001810154906002810154610da16004600384015493016129a3565b9260405196879660018060a01b0381168852818160a01c16602089015260a81c16151560408701526060860152608085015260a084015260e060c084015260e0830190612842565b50346101db57806003193601126101db5760405190608082018281106001600160401b03821117610f5357604052605782526020917f3c7376672077696474683d2236303022206865696768743d2236303022207669838201527f6577426f783d2230203020363030203630302220786d6c6e733d22687474703a60408201527f2f2f7777772e77332e6f72672f323030302f737667223e00000000000000000060608201529181925b60ff9060408286161015610f04576040851015610ef05782610ee7600192610ed96040519382610ecc869451809284808801910161281f565b8301018961100901613c33565b03601f198101835282612982565b94011692610e93565b634e487b7160e01b84526032600452602484fd5b82610f3f602660405184610f21829651809287808601910161281f565b8101651e17b9bb339f60d11b85820152036006810185520183612982565b610a88604051928284938452830190612842565b634e487b7160e01b600052604160045260246000fd5b50346101db5760203660031901126101db57610f836128c6565b6002546001600160a01b039190610f9d90831633146131d1565b166001600160601b0360a01b600154161760015580f35b50346101db57806003193601126101db57604051906202002082018281106001600160401b03821117610f53576040526110008252602091828082019162020000368437835b604081106110a7575060018060a01b03600554166040519384926317046b0160e11b8452602484019085600486015251809152604484019190875b81811061108e5750505082809103915afa9182156107d557809261105e575b5050604051908152f35b9091508282813d8311611087575b6110768183612982565b810103126101db5750513880611054565b503d61106c565b8251845289968896509384019390920191600101611035565b90929150835b604081106110c2575060010191849192610ffa565b6001600160fa1b038216820361111d576001906110e28360061b826128f2565b60ff8083168852600889526040882090851660005288526111166001600160601b031960406000205460601b169187612b9f565b52016110ad565b634e487b7160e01b85526011600452602485fd5b50346101db57806003193601126101db57602060405161fd208152f35b50602080600319360112610c8d57600435906111686134af565b81835261104c9081815261118660ff600460408720015416156133e7565b82845281815261119e60026040862001544211613433565b82845281815242600360408620015411156112d65782845281815260016040852001543411156112925782845281815283808080604081206001808060a01b03825416910154905af16111ef61347f565b501561125757828452526040808320346001820181905581546001600160a01b0319163390811790925582519384526020840191909152908201527f8108a40c809d4e4f749358511f7baa90a1259a19024e438f728276ccd4c9368690606090a16001815580f35b6064906040519062461bcd60e51b8252600482015260146024820152732330b4b632b2103a379039b2b7321022ba3432b960611b6044820152fd5b6064906040519062461bcd60e51b82526004820152601b60248201527f6869676865722062696420616c7265616479206578697374696e6700000000006044820152fd5b6064906040519062461bcd60e51b82526004820152601960248201527f61756374696f6e2068617320616c726561647920656e646564000000000000006044820152fd5b50346101db5760203660031901126101db57604060a091600435815261104c60205220600180831b0381541690600181015490600281015460ff60046003840154930154169260405194855260208501526040840152606083015215156080820152f35b50346101db5760603660031901126101db576001600160401b0390600435828111610c8d576113b19036906004016127a5565b602490813585811161160c576113cb9036906004016127a5565b91906044968735908111611608576113e79036906004016127a5565b949097848414806115ff575b156115ac57875b8481106114b35750505061141083828488612c5f565b855b82811061141d578680f35b61142881868a612bc9565b359060ff8061143b61025284888c612bc9565b16895260206008815260408a209082611458610252868b8a612bc9565b1660005252600192836040600020015561147661025283878b612bc9565b9080611486610252858a89612bc9565b1691167f1c362b7fc7c4865e1e7ede89f240549bbd8b5ee43b51383c9c0392687d6d10ec8a80a301611412565b6114d26114c461025283888c612bc9565b610265610252848a89612bc9565b6115695760ff806114e761025284898d612bc9565b168a526020906008825260408b2090611504610252858b8a612bc9565b1660005281523360018060a01b03604060002054160361152757506001016113fa565b6064907f6f6e6c79206f776e65722063616e2073657420706978656c2076616c7565000084601e876040519462461bcd60e51b86526004860152840152820152fd5b60405162461bcd60e51b8152602060048201526018818501527f4120706978656c206973206f7574206f6620626f756e6473000000000000000081840152606490fd5b907f696e70757420617272617973206d757374206265206f66207468652073616d6560849260276040519362461bcd60e51b85526020600486015284015282015266040d8cadccee8d60cb1b6064820152fd5b508584146113f3565b8680fd5b8480fd5b50346101db57602080600319360112610c8d57600435801515810361180a5760035462054600906203f4808261164683426131c4565b06106117c55733855261104984526040852054908115611770578261166b82426131c4565b04865261104a938486526002604088200133600052865260ff6040600020541661173b578391901561171257506116a4600354426131c4565b0485528284526116b9604086209182546128f2565b90555b6116c8600354426131c4565b0483528152600260408320019033600052526040600020600160ff19825416179055337f7ce969a18bb6b0fba42c6d9746e7d08eeca4c661809659c91d276456e3153ac08280a280f35b61171c90426131c4565b048552828452611734600160408720019182546128f2565b90556116bc565b60405162461bcd60e51b815260048101879052600d60248201526c185b1c9958591e481d9bdd1959609a1b6044820152606490fd5b60405162461bcd60e51b815260048101869052602760248201527f6e6f20706978656c73206f776e6564203d206e6f20766f74657320746f2062656044820152660818d85cdd195960ca1b6064820152608490fd5b60405162461bcd60e51b815260048101859052601960248201527f566f74696e672063757272656e746c79206e6f74206f70656e000000000000006044820152606490fd5b8280fd5b50346101db5760403660031901126101db57602061183561182d612777565b6103a1612787565b604051908152f35b50346101db5760203660031901126101db576118576128c6565b6002546001600160a01b03919061187190831633146131d1565b166001600160601b0360a01b600454161760045580f35b50346101db57602080600319360112610c8d5760043590620546006118af600354426131c4565b04821015611a775781835261104a8082526118d46040852060018154910154906128f2565b908115611a4257838552825260408420549060011c106118f2578280f35b6001546001600160a01b03929084908416803b15610c8d578180916024604051809481936335313c2160e11b83523060048401525af18015611a3757611a1f575b50506004927fd9dc24857f317ed9abbbb42e920ede0104231eb1d3d70236a74887ffaf159868838093604051908152a160015416604051938480926318160ddd60e01b82525afa918215611a145783926119e5575b5060001982019182116119d15781835261104b815242604084205561104c9081815242600260408620015561fd2042019283421161111d57845252600360408320015538808280f35b634e487b7160e01b83526011600452602483fd5b9080925081813d8311611a0d575b6119fd8183612982565b810103126107c857519038611988565b503d6119f3565b6040513d85823e3d90fd5b611a2890612939565b611a33578338611933565b8380fd5b6040513d84823e3d90fd5b60405162461bcd60e51b815260048101849052600d60248201526c139bc81d9bdd195cc818d85cdd609a1b6044820152606490fd5b6084906040519062461bcd60e51b82526004820152603660248201527f636865636b20766f7465206f7574636f6d6573206f6e6c7920706f737369626c6044820152756520666f7220636f6e636c75646564206379636c657360501b6064820152fd5b50346101db57806003193601126101db5760206203f48062054600611b01600354426131c4565b0610604051908152f35b50346101db57806003193601126101db576002546040516001600160a01b039091168152602090f35b50346101db5760403660031901126101db576040611b506128dc565b9160043581526006602052209060018060a01b03166000526020526020604060002054604051908152f35b50346101db5760203660031901126101db576004356001600160401b038111610c8d57611bac9036906004016127a5565b6203f48062054600611bc3600395949554426131c4565b061015612059576040519261082084018481106001600160401b03821117610f535760405260408452610800366020860137825b828110611cea57505050805b60ff908181166040811015611ce657611c1c9085612b9f565b51611c2b575b60010116611c03565b604051611c3781612967565b838152613fc08260061b16806040019081604011611cd257905b808210611c7b5750506040821015610ef05790611c746001928261100901612a7b565b9050611c22565b9091611000831015611cbe576020611cb6600192610ed96040519382611caa869451809284808801910161281f565b83010187600901613c33565b920190611c51565b634e487b7160e01b86526032600452602486fd5b634e487b7160e01b86526011600452602486fd5b8380f35b8060051b820135601e198336030181121561160c5782018035906001600160401b038211612055576020810191803603831361160857819081019260208401936080928391031261205157611d3e90612797565b92611d4b60408401612797565b92611d5860608201612797565b92810135906001600160401b038211612049570181603f8201121561204d57602081013590611d8682612a60565b92611d946040519485612982565b8284526040838301011161204957818a926040602093018386013783010152611dbd8385613349565b610a0857600a60ff8316101561200b5760ff8416885260086020526040882060ff841660005260205260ff60406000205460a81c16611fae5760ff8416885260086020526040882060ff84166000526020523360018060a01b036040600020541614611e30575b50505050600101611bf7565b611e5a9060ff8516895260086020526040892060ff85166000526020526004604060002001612a7b565b60ff8316875260086020526040872060ff83166000526020526040600020805460a09260ff60a01b90841b169060ff60a01b19161790558160061b613fc060c0821691168103611f985760ff818186160111611f985760ff80611f26928187160116928186168a52600860205260408a20828616600052602052604060002054901c16611ee685612b8a565b611eef85612b8a565b9160ff87168b52600860205260408b2060ff871660005260205260ff80611f1c60046040600020016129a3565b94169216906134d2565b90611000811015611f84576001949392611f4660ff938493600901612a7b565b85611f538383168c612b9f565b521691167fa9a418da632d42c446a125f10b007831ba0e348168b6b2474a2383ac5df4c2808780a390388080611e24565b634e487b7160e01b88526032600452602488fd5b634e487b7160e01b600052601160045260246000fd5b60405162461bcd60e51b815260206004820152602f60248201527f6f776e6572207761732061736b656420746f20666972737420736574746c652060448201526e1c9bde585b1d1e481c185e5b595b9d608a1b6064820152608490fd5b60405162461bcd60e51b81526020600482015260166024820152757368617065204944206e6f7420617661696c61626c6560501b6044820152606490fd5b8980fd5b8880fd5b8780fd5b8580fd5b60405162461bcd60e51b815260206004820152602260248201527f417274697374696320706572696f642063757272656e746c79206e6f74206f7060448201526132b760f11b6064820152608490fd5b50346101db576120c46120bb366127d5565b92919091612c5f565b80f35b50346101db5760203660031901126101db5760408091600435815261104a602052206001815491015482519182526020820152f35b50346101db57602090816003193601126101db576004359061211c6134af565b81815261104c9182845260ff9261213c84600460408620015416156133e7565b81835280855261215460026040852001544211613433565b8183528085524260036040852001541015612451578183528085526040832080546001600160a01b039491908516908161238757505090604051603f80888301836121bf334442859160549391835260208301526001600160601b03199060601b1660408201520190565b03936121d3601f1995868101835282612982565b51902016916040516122198a8201928261220d334442889160549391835260208301526001600160601b03199060601b1660408201520190565b03908101835282612982565b5190201691848452875260046040842001600160ff19825416179055846001541681845260088852604084208360005288528560406000205416813b1561160c57604051632142170760e11b81523060048201526001600160a01b03919091166024820152604481018690529084908290606490829084905af1801561237c57908491612368575b505260088652604082209060005285527fd2aa34a4fdbbc6dff6a3e56f46e0f3ae2a31d7785ff3487aa5c95c642acea501606084604060002054166040519085825288820152836040820152a15b80945b84861693604085101561236057825b868116604081101561234f5786855260088452604080862060009283528552808220548416808752611049865281872054888852600687528288209184529086529120556001018616612301565b5050935094600185910116946122f2565b826001815580f35b61237190612939565b61180a5782386122a1565b6040513d86823e3d90fd5b600401600160ff19825416179055846001541690813b1561180a57604051632142170760e11b81523060048201526001600160a01b03919091166024820152604481018590529082908290606490829084905af18015611a3757612442575b508281529085526040808220805460019091015482518581529186166001600160a01b03166020830152918101919091527fd2aa34a4fdbbc6dff6a3e56f46e0f3ae2a31d7785ff3487aa5c95c642acea50190606090a16122ef565b61244b90612939565b386123e6565b60405162461bcd60e51b8152600481018690526015602482015274185d58dd1a5bdb881b9bdd08195b991959081e595d605a1b6044820152606490fd5b50346101db5760403660031901126101db5760406020916124ad6128dc565b6004358252600684528282206001600160a01b03909116825283522054604051908152f35b50346101db57806003193601126101db576020604051620546008152f35b50346101db5760203660031901126101db5760ff60406020926125116128c6565b62054600612521600354426131c4565b04825261104a85528282206001600160a01b03909116825260020184522054604051911615158152f35b50346101db5761255a366127d5565b6125678184959414612be7565b61257084612a49565b9361257e6040519586612982565b808552601f1961258d82612a49565b01865b81811061263e575050855b8181106126005760408051602080825288518183018190528a93600582901b8401810192808c01929185015b8287106125d45785850386f35b9091929382806125f0600193603f198a82030186528851612867565b96019201960195929190926125c7565b80612622612614610252600194868a612bc9565b610a6e61025284888a612bc9565b61262c8289612b9f565b526126378188612b9f565b500161259b565b602090612649613232565b82828a01015201612590565b50346101db5760603660031901126101db5761266f612777565b60ff612679612787565b9161268f60018060a01b036002541633146131d1565b16808352600860209181835260ff60408620941693848652835260ff604086205460a81c168061274b575b1561270f5780855281835260408520848652835260443560016040872001558085528183526040852084865283526040852060ff60a81b19815416905584528152604083209183525280600360408220015580f35b80855281835260408520848652835260408520600160a81b60ff60a81b1982541617905584528152604083209183525242600360408320015580f35b5080855281835260408520848652835260036040862001546203f4808101809111611cd25742116126ba565b6004359060ff821682036107c857565b6024359060ff821682036107c857565b359060ff821682036107c857565b9181601f840112156107c8578235916001600160401b0383116107c8576020808501948460051b0101116107c857565b60406003198201126107c8576001600160401b03916004358381116107c85782612801916004016127a5565b939093926024359182116107c85761281b916004016127a5565b9091565b60005b8381106128325750506000910152565b8181015183820152602001612822565b9060209161285b8151809281855285808601910161281f565b601f01601f1916010190565b9060e060c06128c39360018060a01b03815116845260ff6020820151166020850152604081015115156040850152606081015160608501526080810151608085015260a081015160a08501520151918160c08201520190612842565b90565b600435906001600160a01b03821682036107c857565b602435906001600160a01b03821682036107c857565b91908201809211611f9857565b90600182811c9216801561292f575b602083101461291957565b634e487b7160e01b600052602260045260246000fd5b91607f169161290e565b6001600160401b038111610f5357604052565b60e081019081106001600160401b03821117610f5357604052565b602081019081106001600160401b03821117610f5357604052565b90601f801991011681019081106001600160401b03821117610f5357604052565b90604051918260008254926129b7846128ff565b908184526001948581169081600014612a2657506001146129e3575b50506129e192500383612982565b565b9093915060005260209081600020936000915b818310612a0e5750506129e1935082010138806129d3565b855488840185015294850194879450918301916129f6565b9150506129e194506020925060ff191682840152151560051b82010138806129d3565b6001600160401b038111610f535760051b60200190565b6001600160401b038111610f5357601f01601f191660200190565b91909182516001600160401b038111610f5357612a9882546128ff565b601f8111612b42575b50602080601f8311600114612ade575081929394600092612ad3575b50508160011b916000199060031b1c1916179055565b015190503880612abd565b90601f198316958460005282600020926000905b888210612b2a57505083600195969710612b11575b505050811b019055565b015160001960f88460031b161c19169055388080612b07565b80600185968294968601518155019501930190612af2565b600083815260208120601f840160051c81019260208510612b80575b601f0160051c01915b828110612b75575050612aa1565b818155600101612b67565b9092508290612b5e565b60ff60099116029060ff8216918203611f9857565b8051821015612bb35760209160051b010190565b634e487b7160e01b600052603260045260246000fd5b9190811015612bb35760051b0190565b3560ff811681036107c85790565b15612bee57565b60405162461bcd60e51b815260206004820152602b60248201527f7820616e64207920696e7075742061727261797320617265206f66207661726960448201526a6f7573206c656e6774687360a81b6064820152608490fd5b908160209103126107c8575180151581036107c85790565b929190612c6d838214612be7565b60005b818110612c7e575050505050565b612c9d612c8f610252838589612bc9565b610265610252848888612bc9565b610a085760ff80612cb261025284868a612bc9565b16600052600860208181526040908160002084612cd3610252888c8c612bc9565b16600052815260018060a01b033381846000205416036130c65784612cfc610252888a8e612bc9565b166000528382528260002085612d16610252898d8d612bc9565b166000528252600290888a898d428689600020015403612d43575b50505050505050505050600101612c70565b8a612d639493612d5d610252836103a19661025296612bc9565b94612bc9565b906004818154169186516370a0823160e01b8152338382015260249087818381885afa90811561303a57908691600091613096575b5010613045578751636eb1769f60e11b8152338482019081523060208201528890829081906040010381885afa90811561303a5790869160009161300a575b5010612fb95750845487516323b872dd60e01b81523393810193845291166001600160a01b031660208301526040820193909352849183918290600090829060600103925af18015612fae579286612e846102528a8f8f9997908f97918f9260019f9e612e71819f9d8f8f908f8f96928f87612e636102528f8f8f829a6102529c612f91575b50612bc9565b166000525260002095612bc9565b16600052885242908a6000200155612bc9565b166000528381528260002086612e9e6102528a8987612bc9565b16600052815285898d8983876000205460a81c16612f14575b95509250925050612ecd94506102529350612bc9565b9080612edd610252858a8a612bc9565b1691167fe61af2269c9afbdb69efce2b15f2a464f8ee6237f105b3d4024f2e824a9f0af3600080a3903880808080888a898d612d31565b600098600398612f7b94610252948791612f6d91879187918e8e8e88612f5588888e8e85612f4485858e8e612bc9565b166000528652600088902096612bc9565b166000525260002060ff60a81b198154169055612bc9565b168b528652878a2096612bc9565b1685525282200155853880878185898d89612eb7565b612fa790883d8a1161074c5761073d8183612982565b5038612e5d565b84513d6000823e3d90fd5b826027608492898b519362461bcd60e51b85528401528201527f696e73756666696369656e7420616c6c6f77616e636520746f2070617920726f60448201526679616c7469657360c81b6064820152fd5b91508882813d8311613033575b6130218183612982565b810103126101db575085905138612dd7565b503d613017565b89513d6000823e3d90fd5b826027608492898b519362461bcd60e51b85528401528201527f6e6f742073756666696369656e742062616c616e636520746f2070617920726f60448201526679616c7469657360c81b6064820152fd5b91508882813d83116130bf575b6130ad8183612982565b810103126101db575085905138612d98565b503d6130a3565b50608491519062461bcd60e51b82526004820152602260248201527f6f6e6c7920706978656c206f776e65722063616e2070617920726f79616c7469604482015261657360f01b6064820152fd5b1561311b57565b60405162461bcd60e51b815260206004820152602360248201527f6e6f742073756666696369656e742062616c616e636520746f206275792070696044820152621e195b60ea1b6064820152608490fd5b1561317357565b60405162461bcd60e51b815260206004820152602360248201527f696e73756666696369656e7420616c6c6f77616e636520746f206275792070696044820152621e195b60ea1b6064820152608490fd5b91908203918211611f9857565b156131d857565b60405162461bcd60e51b815260206004820152602c60248201527f6f776e65722063757272656e74206d616e616765722063616e2063616c6c207460448201526b3434b990333ab731ba34b7b760a11b6064820152608490fd5b6040519061323f8261294c565b606060c0836000808252806020830152806040830152808483015280608083015260a08201520152565b60ff90613274613232565b5016906040918281108061333d575b1561330357600052600860205260ff8260002091166000526020526132fb6004826000208351936132b38561294c565b60ff825460018060a01b0381168752818160a01c16602088015260a81c161515908501526001810154606085015260028101546080850152600381015460a0850152016129a3565b60c082015290565b825162461bcd60e51b8152602060048201526013602482015272706978656c206f7574206f6620626f756e647360681b6044820152606490fd5b508260ff831610613283565b60ff60409116109081159161335c575090565b6040915060ff16101590565b81810292918115918404141715611f9857565b6133d464073df16000926001604060ff6133e3951692600090848252600860205260ff8383209116908183526020526133ba60028484200154426131c4565b948252600860205282822090825260205220015490613368565b60ff60025460a01c1690613368565b0490565b156133ee57565b60405162461bcd60e51b815260206004820152601960248201527f61756374696f6e2068617320656e64656420616c7265616479000000000000006044820152606490fd5b1561343a57565b60405162461bcd60e51b815260206004820152601b60248201527f61756374696f6e20686173206e6f7420737461727465642079657400000000006044820152606490fd5b3d156134aa573d9061349082612a60565b9161349e6040519384612982565b82523d6000602084013e565b606090565b6002600054146134c0576002600055565b604051633ee5aeb560e01b8152600490fd5b60ff9093919316918215613b775760018314613aa85760028314613a7e5760038314613a22576004928381146139ce5760058114613871576006811461381f57600781146137b857600881146136d557600914613540575050505060405161353981612967565b6000815290565b61354984613cb6565b9061355381613cb6565b600886018087116136c05761356790613cb6565b94600883018093116136ab57509161368f826128c3969461359c61359661359060499997613cb6565b9a613cb6565b92613cb6565b91604051998a97602a6135cc8a602099693c7061746820643d224d60b01b8b8301528a815194859301910161281f565b890193600160fd1b9485602a8201526135ee825180938b602b8501910161281f565b016b010209c101c101810181018960a51b602b820152613617825180938a60378501910161281f565b01836037820152613631825180938960388501910161281f565b0161081360f21b60388201526136508251809388603a8501910161281f565b0190603a82015261366a8251809386603b8501910161281f565b019169102d11103334b6361e9160b11b603b840152835193849160458501910161281f565b01631110179f60e11b6045820152036029810184520182612982565b601190634e487b7160e01b6000525260246000fd5b601186634e487b7160e01b6000525260246000fd5b509260088101938482116137a3576136ec85613cb6565b916136ff6136f983613cb6565b91613cb6565b94600883018093116136ab57509161368f826128c3969461372861359661359060499997613cb6565b91604051998a97602a6137588a602099693c7061746820643d224d60b01b8b8301528a815194859301910161281f565b890193600160fd1b9485602a82015261377a825180938b602b8501910161281f565b016b010209c101c101810181018160a51b602b820152613617825180938a60378501910161281f565b601184634e487b7160e01b6000525260246000fd5b506137c284613cb6565b906137cc81613cb6565b6008860180961161380a576137e086613cb6565b9460088301908184116136ab5750604994926128c396949261372861359661359061368f95613cb6565b601185634e487b7160e01b6000525260246000fd5b5061382984613cb6565b906008810180821161380a5761383e90613cb6565b9360088601908187116136ab57509161368f604994926138616128c39795613cb6565b9461372861359661359084613cb6565b509261387c81613cb6565b90600885019081861161380a5761389282613cb6565b906138a561389f82613cb6565b97613cb6565b95600882018092116136ab5750603f94926128c39694926138cb6135966139b294613cb6565b91604051998a97602a6138fb8a602099693c7061746820643d224d60b01b8b8301528a815194859301910161281f565b890193600160fd1b9485602a82015261391d825180938b602b8501910161281f565b019161081360f21b9283602b82015261393f825180938b602d8501910161281f565b0184602d820152613959825180938a602e8501910161281f565b0190602e820152613973825180938860308501910161281f565b0190603082015261398d825180938660318501910161281f565b019169103d11103334b6361e9160b11b60318401528351938491603b8501910161281f565b01631110179f60e11b603b82015203601f810184520182612982565b50929160088301908184116136ab576139e682613cb6565b9160088601918287116136ab5750916139b2826128c396946138cb61359661389f613a1c613a16603f9b99613cb6565b94613cb6565b9b613cb6565b9150613a2d83613cb6565b92613a3783613cb6565b9160088201809211611f9857613a4c82613cb6565b94613a5f613a5986613cb6565b93613cb6565b9460088101809111611f98576128c395603f956138cb6139b293613cb6565b9150613a8983613cb6565b92613a9383613cb6565b9160088201808311611f9857613a4c90613cb6565b91509160048101809111611f9857613abf90613cb6565b9060048101809111611f98576128c391613ada604492613cb6565b936040519485926b1e31b4b931b6329031bc1e9160a11b6020850152613b0a815180926020602c8801910161281f565b830165111031bc9e9160d11b602c820152613b2f82518093602060328501910161281f565b016d1110391e911a11103334b6361e9160911b6032820152613b5b82518093602060408501910161281f565b01631110179f60e11b6040820152036024810184520182612982565b6128c39250613b8b6136f9604f9395613cb6565b93604051948592681e3932b1ba103c1e9160b91b6020850152613bb881518092602060298801910161281f565b83016411103c9e9160d91b6029820152613bdc825180936020602e8501910161281f565b017f222077696474683d223822206865696768743d2238222066696c6c3d22000000602e820152613c17825180936020604b8501910161281f565b01631110179f60e11b604b82015203602f810184520182612982565b600092918154613c42816128ff565b92600191808316908115613c9b5750600114613c5f575b50505050565b90919293945060005260209081600020906000915b858310613c8a5750505050019038808080613c59565b805485840152918301918101613c74565b60ff1916845250505081151590910201915038808080613c59565b8015613d7a5780816000925b613d62575080613cd183612a60565b92613cdf6040519485612982565b808452601f19613cee82612a60565b01366020860137915b613d0057505090565b600019820191808311611f985782600a9081840493828502928584041485151715611f9857613d3260ff9384926131c4565b16603001918211611f985785511115612bb35760f81b6001600160f81b03191660001a908401601f015380613cf7565b916000198114611f98576001600a9101920480613cc2565b50604051604081018181106001600160401b03821117610f535760405260018152600360fc1b60208201529056fea26469706673582212200612e74202efc67bf6b424a4727cbc4090d92222a047ed096b428f58f377766364736f6c634300081400336080806040523461001657610799908161001c8239f35b600080fdfe6080604052600436101561001257600080fd5b6000803560e01c9081632e08d6021461007a5750806358161a4214610075578063b861619514610070578063cf06c7b71461006b578063dd1d2599146100665763e27d51531461006157600080fd5b6103f7565b6103d6565b6103b0565b6102bb565b61020d565b346101515760203660031901126101515760043567ffffffffffffffff811161014d576100ab9036906004016101ad565b600180825111156100fc57805b6100de575b6100da6100c98361045a565b516040519081529081906020820190565b0390f35b80825111156100f7576100f18192610511565b916100b8565b6100bd565b60405162461bcd60e51b815260206004820152602360248201527f776f6e27742067656e657261746520726f6f7420666f722073696e676c65206c60448201526232b0b360e91b6064820152608490fd5b5080fd5b80fd5b634e487b7160e01b600052604160045260246000fd5b6040519190601f01601f1916820167ffffffffffffffff81118382101761019057604052565b610154565b67ffffffffffffffff81116101905760051b60200190565b9080601f83011215610208578135906101cd6101c883610195565b61016a565b9182938184526020808095019260051b820101928311610208578301905b8282106101f9575050505090565b813581529083019083016101eb565b600080fd5b346102085760603660031901126102085760243567ffffffffffffffff81116102085761023e9036906004016101ad565b60443581516000925b81841061025d5760405160043584148152602090f35b909161027660019161026f868561047d565b5190610437565b9301929190610247565b6020908160408183019282815285518094520193019160005b8281106102a7575050505090565b835185529381019392810192600101610299565b346102085760403660031901126102085760043567ffffffffffffffff8111610208576102ec9036906004016101ad565b602435906001906102ff82825111610491565b61031161030c8251610632565b6104e9565b92600080845b61032a575b604051806100da8882610280565b8351858111156103aa578584939261036f92828080981614600014610379575061035860001986018861047d565b51610363828b61047d565b525b0192841c94610511565b9392919091610317565b85830190810361039557508361038f828b61047d565b52610365565b61039f908861047d565b5161038f828b61047d565b5061031c565b346102085760203660031901126102085760206103ce600435610632565b604051908152f35b346102085760403660031901126102085760206103ce602435600435610437565b3461020857602036600319011261020857600435806000815b61042a576020925060405191806001811901161490038152f35b600192831c920182610410565b8181101561044e576000526020525b604060002090565b90600052602052610446565b8051156104675760200190565b634e487b7160e01b600052603260045260246000fd5b80518210156104675760209160051b010190565b1561049857565b60405162461bcd60e51b8152602060048201526024808201527f776f6e27742067656e65726174652070726f6f6620666f722073696e676c65206044820152633632b0b360e11b6064820152608490fd5b906104f66101c883610195565b8281528092610507601f1991610195565b0190602036910137565b90815160019081808216146000146105a9576105308282811c016104e9565b916000196105408382018761047d565b516000805260205261055a6040600020918551018561047d565b525b600019909101906000805b8382106105775750929450505050565b82600291610595610588858b61047d565b5161026f8487018c61047d565b61059f828961047d565b5201910190610567565b6105b481831c6104e9565b9161055c565b90604082018092116105c857565b634e487b7160e01b600052601160045260246000fd5b90602082018092116105c857565b90601082018092116105c857565b90600882018092116105c857565b90600482018092116105c857565b90600282018092116105c857565b90600182018092116105c857565b600181111561075d5760009080600160801b811015610752575b8068010000000000000000600292101561073f575b64010000000081101561072c575b62010000811015610719575b610100811015610706575b60108110156106f3575b60048110156106e1575b10156106d1575b806106ac8119610624565b1614806106c8575b156106bc5790565b6106c590610624565b90565b508015156106b4565b906106db90610624565b906106a1565b6106ed90821c93610616565b9261069a565b6107009060041c93610608565b92610690565b6107139060081c936105fa565b92610686565b6107269060101c936105ec565b9261067b565b6107399060201c936105de565b9261066f565b61074c9060401c936105ba565b92610661565b60809250821c61064c565b5060009056fea2646970667358221220e9108dc0087bd88a6ccc6ff1dead96b7393231f78ff7f8bb08482568cd419d2564736f6c63430008140033",
  "linkReferences": {},
  "deployedLinkReferences": {}
}