{
  "_format": "hh-sol-artifact-1",
  "contractName": "Pixelmap",
  "sourceName": "contracts/Pixelmap.sol",
  "abi": [
    {
      "inputs": [],
      "stateMutability": "nonpayable",
      "type": "constructor"
    },
    {
      "inputs": [],
      "name": "ARTISTIC_PERIOD",
      "outputs": [
        {
          "internalType": "uint256",
          "name": "",
          "type": "uint256"
        }
      ],
      "stateMutability": "view",
      "type": "function"
    },
    {
      "inputs": [],
      "name": "CYCLE_PERIOD",
      "outputs": [
        {
          "internalType": "uint256",
          "name": "",
          "type": "uint256"
        }
      ],
      "stateMutability": "view",
      "type": "function"
    },
    {
      "inputs": [],
      "name": "VOTING_PERIOD",
      "outputs": [
        {
          "internalType": "uint256",
          "name": "",
          "type": "uint256"
        }
      ],
      "stateMutability": "view",
      "type": "function"
    },
    {
      "inputs": [
        {
          "internalType": "address",
          "name": "",
          "type": "address"
        }
      ],
      "name": "balanceOf",
      "outputs": [
        {
          "internalType": "uint256",
          "name": "",
          "type": "uint256"
        }
      ],
      "stateMutability": "view",
      "type": "function"
    },
    {
      "inputs": [
        {
          "internalType": "uint256[]",
          "name": "xValues",
          "type": "uint256[]"
        },
        {
          "internalType": "uint256[]",
          "name": "yValues",
          "type": "uint256[]"
        }
      ],
      "name": "buyPixel",
      "outputs": [],
      "stateMutability": "nonpayable",
      "type": "function"
    },
    {
      "inputs": [
        {
          "internalType": "uint256",
          "name": "x",
          "type": "uint256"
        },
        {
          "internalType": "uint256",
          "name": "y",
          "type": "uint256"
        }
      ],
      "name": "calculateRoyalties",
      "outputs": [
        {
          "internalType": "uint256",
          "name": "",
          "type": "uint256"
        }
      ],
      "stateMutability": "view",
      "type": "function"
    },
    {
      "inputs": [],
      "name": "canvasCreation",
      "outputs": [
        {
          "internalType": "uint256",
          "name": "",
          "type": "uint256"
        }
      ],
      "stateMutability": "view",
      "type": "function"
    },
    {
      "inputs": [
        {
          "internalType": "bool",
          "name": "vote",
          "type": "bool"
        }
      ],
      "name": "castVote",
      "outputs": [],
      "stateMutability": "nonpayable",
      "type": "function"
    },
    {
      "inputs": [
        {
          "internalType": "uint256[]",
          "name": "xValues",
          "type": "uint256[]"
        },
        {
          "internalType": "uint256[]",
          "name": "yValues",
          "type": "uint256[]"
        }
      ],
      "name": "checkMultiplePixel",
      "outputs": [
        {
          "components": [
            {
              "internalType": "address",
              "name": "owner",
              "type": "address"
            },
            {
              "internalType": "uint256",
              "name": "shapeID",
              "type": "uint256"
            },
            {
              "internalType": "uint256",
              "name": "price",
              "type": "uint256"
            },
            {
              "internalType": "string",
              "name": "color",
              "type": "string"
            },
            {
              "internalType": "uint256",
              "name": "royaltyLastPaid",
              "type": "uint256"
            },
            {
              "internalType": "bool",
              "name": "askedToPayRoyalties",
              "type": "bool"
            },
            {
              "internalType": "uint256",
              "name": "royaltyAskDate",
              "type": "uint256"
            }
          ],
          "internalType": "struct Pixelmap.Pixel[]",
          "name": "",
          "type": "tuple[]"
        }
      ],
      "stateMutability": "view",
      "type": "function"
    },
    {
      "inputs": [
        {
          "internalType": "uint256",
          "name": "x",
          "type": "uint256"
        },
        {
          "internalType": "uint256",
          "name": "y",
          "type": "uint256"
        }
      ],
      "name": "checkPixel",
      "outputs": [
        {
          "components": [
            {
              "internalType": "address",
              "name": "owner",
              "type": "address"
            },
            {
              "internalType": "uint256",
              "name": "shapeID",
              "type": "uint256"
            },
            {
              "internalType": "uint256",
              "name": "price",
              "type": "uint256"
            },
            {
              "internalType": "string",
              "name": "color",
              "type": "string"
            },
            {
              "internalType": "uint256",
              "name": "royaltyLastPaid",
              "type": "uint256"
            },
            {
              "internalType": "bool",
              "name": "askedToPayRoyalties",
              "type": "bool"
            },
            {
              "internalType": "uint256",
              "name": "royaltyAskDate",
              "type": "uint256"
            }
          ],
          "internalType": "struct Pixelmap.Pixel",
          "name": "",
          "type": "tuple"
        }
      ],
      "stateMutability": "view",
      "type": "function"
    },
    {
      "inputs": [],
      "name": "checkVoteOutcome",
      "outputs": [
        {
          "internalType": "bool",
          "name": "",
          "type": "bool"
        }
      ],
      "stateMutability": "view",
      "type": "function"
    },
    {
      "inputs": [
        {
          "internalType": "bytes[]",
          "name": "_pixels",
          "type": "bytes[]"
        }
      ],
      "name": "fillPixel",
      "outputs": [],
      "stateMutability": "nonpayable",
      "type": "function"
    },
    {
      "inputs": [],
      "name": "generateSVG",
      "outputs": [
        {
          "internalType": "string",
          "name": "",
          "type": "string"
        }
      ],
      "stateMutability": "view",
      "type": "function"
    },
    {
      "inputs": [
        {
          "internalType": "address",
          "name": "_owner",
          "type": "address"
        }
      ],
      "name": "getBalance",
      "outputs": [
        {
          "internalType": "uint256",
          "name": "",
          "type": "uint256"
        }
      ],
      "stateMutability": "view",
      "type": "function"
    },
    {
      "inputs": [],
      "name": "getCurrentCycle",
      "outputs": [
        {
          "internalType": "uint256",
          "name": "",
          "type": "uint256"
        }
      ],
      "stateMutability": "view",
      "type": "function"
    },
    {
      "inputs": [],
      "name": "isInArtisticPeriod",
      "outputs": [
        {
          "internalType": "bool",
          "name": "",
          "type": "bool"
        }
      ],
      "stateMutability": "view",
      "type": "function"
    },
    {
      "inputs": [],
      "name": "isInVotingPeriod",
      "outputs": [
        {
          "internalType": "bool",
          "name": "",
          "type": "bool"
        }
      ],
      "stateMutability": "view",
      "type": "function"
    },
    {
      "inputs": [],
      "name": "manager",
      "outputs": [
        {
          "internalType": "address",
          "name": "",
          "type": "address"
        }
      ],
      "stateMutability": "view",
      "type": "function"
    },
    {
      "inputs": [],
      "name": "maxHeight",
      "outputs": [
        {
          "internalType": "uint256",
          "name": "",
          "type": "uint256"
        }
      ],
      "stateMutability": "view",
      "type": "function"
    },
    {
      "inputs": [],
      "name": "maxWidth",
      "outputs": [
        {
          "internalType": "uint256",
          "name": "",
          "type": "uint256"
        }
      ],
      "stateMutability": "view",
      "type": "function"
    },
    {
      "inputs": [
        {
          "internalType": "uint256[]",
          "name": "xValues",
          "type": "uint256[]"
        },
        {
          "internalType": "uint256[]",
          "name": "yValues",
          "type": "uint256[]"
        }
      ],
      "name": "payRoyalties",
      "outputs": [],
      "stateMutability": "nonpayable",
      "type": "function"
    },
    {
      "inputs": [
        {
          "internalType": "uint256",
          "name": "",
          "type": "uint256"
        }
      ],
      "name": "pixelSVGs",
      "outputs": [
        {
          "internalType": "string",
          "name": "",
          "type": "string"
        }
      ],
      "stateMutability": "view",
      "type": "function"
    },
    {
      "inputs": [
        {
          "internalType": "uint256",
          "name": "",
          "type": "uint256"
        }
      ],
      "name": "rowSVGs",
      "outputs": [
        {
          "internalType": "string",
          "name": "",
          "type": "string"
        }
      ],
      "stateMutability": "view",
      "type": "function"
    },
    {
      "inputs": [],
      "name": "royaltyAskPeriod",
      "outputs": [
        {
          "internalType": "uint256",
          "name": "",
          "type": "uint256"
        }
      ],
      "stateMutability": "view",
      "type": "function"
    },
    {
      "inputs": [],
      "name": "royaltyDenominator",
      "outputs": [
        {
          "internalType": "uint256",
          "name": "",
          "type": "uint256"
        }
      ],
      "stateMutability": "view",
      "type": "function"
    },
    {
      "inputs": [],
      "name": "royaltyRate",
      "outputs": [
        {
          "internalType": "uint256",
          "name": "",
          "type": "uint256"
        }
      ],
      "stateMutability": "view",
      "type": "function"
    },
    {
      "inputs": [
        {
          "internalType": "uint256",
          "name": "x",
          "type": "uint256"
        },
        {
          "internalType": "uint256",
          "name": "y",
          "type": "uint256"
        },
        {
          "internalType": "uint256",
          "name": "_price",
          "type": "uint256"
        }
      ],
      "name": "seekRoyaltyPayment",
      "outputs": [],
      "stateMutability": "nonpayable",
      "type": "function"
    },
    {
      "inputs": [
        {
          "internalType": "uint256[]",
          "name": "xValues",
          "type": "uint256[]"
        },
        {
          "internalType": "uint256[]",
          "name": "yValues",
          "type": "uint256[]"
        },
        {
          "internalType": "uint256[]",
          "name": "priceValues",
          "type": "uint256[]"
        }
      ],
      "name": "setPixelValue",
      "outputs": [],
      "stateMutability": "nonpayable",
      "type": "function"
    },
    {
      "inputs": [
        {
          "internalType": "address",
          "name": "_newToken",
          "type": "address"
        }
      ],
      "name": "updateCurrency",
      "outputs": [],
      "stateMutability": "nonpayable",
      "type": "function"
    },
    {
      "inputs": [
        {
          "internalType": "uint256",
          "name": "",
          "type": "uint256"
        }
      ],
      "name": "voteRegister",
      "outputs": [
        {
          "internalType": "uint256",
          "name": "yesVotes",
          "type": "uint256"
        },
        {
          "internalType": "uint256",
          "name": "noVotes",
          "type": "uint256"
        }
      ],
      "stateMutability": "view",
      "type": "function"
    },
    {
      "inputs": [
        {
          "internalType": "uint256",
          "name": "",
          "type": "uint256"
        },
        {
          "internalType": "uint256",
          "name": "",
          "type": "uint256"
        }
      ],
      "name": "window",
      "outputs": [
        {
          "internalType": "address",
          "name": "owner",
          "type": "address"
        },
        {
          "internalType": "uint256",
          "name": "shapeID",
          "type": "uint256"
        },
        {
          "internalType": "uint256",
          "name": "price",
          "type": "uint256"
        },
        {
          "internalType": "string",
          "name": "color",
          "type": "string"
        },
        {
          "internalType": "uint256",
          "name": "royaltyLastPaid",
          "type": "uint256"
        },
        {
          "internalType": "bool",
          "name": "askedToPayRoyalties",
          "type": "bool"
        },
        {
          "internalType": "uint256",
          "name": "royaltyAskDate",
          "type": "uint256"
        }
      ],
      "stateMutability": "view",
      "type": "function"
    }
  ],
  "bytecode": "0x6080806040523461004f57603260015560018060a01b031973c02aaa39b223fe8d0a0e5c4f27ead9083c756cc28160035416176003553390600054161760005542600255612e3c90816100558239f35b600080fdfe6080604052600436101561001257600080fd5b60003560e01c8063040cdfd81461193c578063113bc9991461191e57806330b5d6d3146118e85780633323a7061461130d5780633bdb693e146113bd578063481c6a75146113945780634882a7ea146113635780635e027601146113175780636006ecc81461131257806363aa5ce2146113125780636e70fcc61461130d5780636ed958f114610c5557806370a082311461026a5780637ace48e714610a795780638232b5621461083b57806385a9473d146106f2578063ad711e9e14610598578063b1610d7e1461057a578063b3a1ddf414610548578063be26ed7f1461051c578063c4d1510d146104fe578063c4e4b90c146104d1578063c730e65d14610437578063c7eab2ec14610328578063d08629c114610307578063e1245900146102c2578063e50eb5da146102a9578063f8b2cb4f1461026a578063fd8d7ed31461024d578063fe91f6eb146101945763ff188dca1461017157600080fd5b3461018f57600036600319011261018f576020600254604051908152f35b600080fd5b3461018f57600036600319011261018f5760025462054600806101b78342611dee565b04600052611046806020526101ed604060002054836101d68642611dee565b046000528260205260016040600020015490611a24565b9182156102185761020060209442611dee565b0460005282526040600020546040519160011c108152f35b60405162461bcd60e51b815260206004820152600d60248201526c139bc81d9bdd195cc818d85cdd609a1b6044820152606490fd5b3461018f57600036600319011261018f5760206040516103e88152f35b3461018f57602036600319011261018f576004356001600160a01b0381169081900361018f576000526110456020526020604060002054604051908152f35b3461018f576102c06102ba36611b52565b90611e95565b005b3461018f57602036600319011261018f57600435604081101561018f576102ef6103039161100501611bd2565b6040519182916020835260208301906119a3565b0390f35b3461018f57602061032061031a3661196a565b906124d9565b604051908152f35b3461018f5761033636611b52565b6103438251825114611dfb565b81519061034f82611aa6565b9261035d6040519485611a85565b828452601f1961036c84611aa6565b0160005b81811061042057505060005b8381106103e2576040805160208082528751818301819052600093600582901b8401810192808b01929185015b8287106103b65785850386f35b9091929382806103d2600193603f198a820301865288516119c8565b96019201960195929190926103a9565b806104046103f260019385611c87565b516103fd8387611c87565b5190612402565b61040e8288611c87565b526104198187611c87565b500161037c565b60209061042b6123ca565b82828901015201610370565b3461018f576104453661196a565b906000526004602052604060002090600052602052604060002060018060a01b03815416600182015491600281015461048060038301611bd2565b916104bb600482015493600660ff6005850154169301549360405197889788526020880152604087015260e0606087015260e08601906119a3565b926080850152151560a084015260c08301520390f35b3461018f57602036600319011261018f5760043561100081101561018f576102ef61030391600501611bd2565b3461018f57600036600319011261018f576020600154604051908152f35b3461018f57600036600319011261018f5760206205460061053f60025442611dee565b04604051908152f35b3461018f57600036600319011261018f5760206203f4806205460061056f60025442611dee565b061015604051908152f35b3461018f57600036600319011261018f576020604051620151808152f35b3461018f57600036600319011261018f57604051608081018181106001600160401b038211176106dc57604052605781526020907f3c7376672077696474683d2236303022206865696768743d2236303022207669828201527f6577426f783d2230203020363030203630302220786d6c6e733d22687474703a6040820152761797bbbbbb973b999737b933979918181817b9bb33911f60491b60608201529060005b60408110610692575061067e6026604051846106608296518092878086019101611980565b8101651e17b9bb339f60d11b85820152036006810185520183611a85565b6103036040519282849384528301906119a3565b91816106d16106d7926106c360405193826106b68694518092848088019101611980565b8301018761100501612c93565b03601f198101835282611a85565b92611c78565b61063b565b634e487b7160e01b600052604160045260246000fd5b3461018f57606036600319011261018f576004356024359061071f60018060a01b03600054163314612369565b8060005260209060048252604060002083600052825260ff60056040600020015416806107f4575b156107ae578060005260048252604060002083600052825260443560026040600020015580600052600482526040600020836000528252600560406000200160ff198154169055600052600481526040600020916000525260006006604082200155600080f35b806000526004825260406000208360005282526005604060002001600160ff19825416179055600052600481526040600020916000525242600660406000200155600080f35b50806000526004825260406000208360005282526006604060002001546203f4808101809111610825574211610747565b634e487b7160e01b600052601160045260246000fd5b3461018f57606036600319011261018f576001600160401b0360043581811161018f5761086c903690600401611af4565b90602491823582811161018f57610887903690600401611af4565b604492833590811161018f576108a1903690600401611af4565b938251825181149081610a6e575b5015610a1b5782519360005b858110610921575050506108cf8183611e95565b60005b8381106108db57005b806108e860019287611c87565b516108f38286611c87565b5160005260206004815260406000209061090d8487611c87565b5160005252600260406000200155016108d2565b61092b8186611c87565b5160406109388387611c87565b51911090811591610a0f575b506109d1576109538186611c87565b51600052602060048152604060002061096c8387611c87565b5160005281523360018060a01b03604060002054160361098f57506001016108bb565b6064907f6f6e6c79206f776e65722063616e2073657420706978656c2076616c7565000084601e876040519462461bcd60e51b86526004860152840152820152fd5b60405162461bcd60e51b815260206004820152601881850152774120706978656c206973206f7574206f6620626f756e647360401b81840152606490fd5b60409150101588610944565b6084907f696e70757420617272617973206d757374206265206f66207468652073616d658560276040519362461bcd60e51b85526020600486015284015282015266040d8cadccee8d60cb1b6064820152fd5b9050855114866108af565b3461018f5760208060031936011261018f57600435801515810361018f5760025462054600906203f48082610aae8342611dee565b0610610c1457336000526110458452604060002054908115610bbf5782610ad58242611dee565b0460005261104693848652600260406000200133600052865260ff60406000205416610b8a5783919015610b5f5750610b1060025442611dee565b04600052828452610b276040600020918254611a24565b90555b610b3660025442611dee565b04600052815260026040600020019033600052526040600020600160ff19825416179055600080f35b610b699042611dee565b04600052828452610b836001604060002001918254611a24565b9055610b2a565b60405162461bcd60e51b815260048101879052600d60248201526c185b1c9958591e481d9bdd1959609a1b6044820152606490fd5b60405162461bcd60e51b815260048101869052602760248201527f6e6f20706978656c73206f776e6564203d206e6f20766f74657320746f2062656044820152660818d85cdd195960ca1b6064820152608490fd5b60405162461bcd60e51b81526004810185905260196024820152782b37ba34b7339031bab93932b73a363c903737ba1037b832b760391b6044820152606490fd5b3461018f57610c6336611b52565b610c708251825114611dfb565b81519160005b838110610c7f57005b610c898183611c87565b516040610c968386611c87565b51911090811591611301575b506112e457610cb18183611c87565b5160005260046020526040600020610cc98285611c87565b5160005260205260018060a01b036040600020541615600014610d4b57610cf08183611c87565b5160005260046020526040600020610d088285611c87565b5160005260205260406000203360018060a01b03198254161790553360005261104560205260406000209081546001810180911161082557600192555b01610c76565b610d6a610d588284611c87565b51610d638386611c87565b51906124d9565b610d748284611c87565b5160005260046020526040600020610d8c8386611c87565b51600052602052806002604060002001541160001461114b57610daf8284611c87565b5160005260046020526040600020610dc78386611c87565b51600052602052610de081600260406000200154611dee565b6003546040516370a0823160e01b81523360048201526024936001600160a01b039092169291906020818681875afa80156110b857600090611117575b610e5a9150610e2c8789611c87565b5160005260046020526040600020610e44888b611c87565b51600052602052600260406000200154106122b9565b604051636eb1769f60e11b815233600482015230602482015292602084604481845afa9384156110b8576000946110e1575b50610f21602091610ecc600096610ea38a8c611c87565b5188526004855260408820610eb88b8e611c87565b518952855260026040892001541115612311565b610ed6888a611c87565b5186526004835260408620610eeb898c611c87565b518752835260408087205490516323b872dd60e01b80825290979096889485938492906001600160a01b03163360048501611e73565b03925af19182156110b857610f67936020936110c4575b5060035460008054604051938452929586946001600160a01b0393841694869485939291163360048501611e73565b03925af180156110b857611089575b50610f818284611c87565b5160005260046020526040600020610f998386611c87565b5160005260205260018060a01b03604060002054166000526110458060205260406000208054906000198201918211611074575533600052602052604060002080549160018301809311611060575055600190610ff68184611c87565b516000526004602052604060002061100e8286611c87565b51600052602052604060002033838060a01b03198254161790556110328184611c87565b516000526004602052604060002061104a8286611c87565b5160005260205242600460406000200155610d45565b634e487b7160e01b60009081526011600452fd5b83634e487b7160e01b60005260116004526000fd5b6110aa9060203d6020116110b1575b6110a28183611a85565b810190611e5b565b5085610f76565b503d611098565b6040513d6000823e3d90fd5b6110da90843d86116110b1576110a28183611a85565b5089610f38565b93506020843d60201161110f575b816110fc60209383611a85565b8101031261018f57925192610f21610e8c565b3d91506110ef565b506020813d602011611143575b8161113160209383611a85565b8101031261018f57610e5a9051610e1d565b3d9150611124565b506003546040516370a0823160e01b81523360048201526024916001600160a01b0316906020818481855afa80156110b8576000906112b0575b6111ac91506111948587611c87565b5160005260046020526040600020610e448689611c87565b604051636eb1769f60e11b8152336004820152306024820152602081604481855afa9081156110b85760009161127c575b50610f679161121f6020926111f28789611c87565b51600052600484526040600020611209888b611c87565b5160005284526002604060002001541115612311565b6000546001600160a01b0316906112368688611c87565b5160005260048352604060002061124d878a611c87565b5160005283526002604060002001549160006040518096819582946323b872dd60e01b84523360048501611e73565b90506020813d6020116112a8575b8161129760209383611a85565b8101031261018f5751610f676111dd565b3d915061128a565b506020813d6020116112dc575b816112ca60209383611a85565b8101031261018f576111ac9051611185565b3d91506112bd565b60405162461bcd60e51b8152806112fd60048201611c9b565b0390fd5b60409150101585610ca2565b611a31565b611ad8565b3461018f57602036600319011261018f576004356001600160a01b038181169182900361018f5761134d90600054163314612369565b600380546001600160a01b031916919091179055005b3461018f57600036600319011261018f5760206203f4806205460061138a60025442611dee565b0610604051908152f35b3461018f57600036600319011261018f576000546040516001600160a01b039091168152602090f35b3461018f57602036600319011261018f576004356001600160401b03811161018f573660238201121561018f5780600401356113f881611aa6565b916114066040519384611a85565b8183526024602084019260051b8201019036821161018f5760248101925b82841061187e57846203f4806205460061144060025442611dee565b06101561182e5780516040519161082083018381106001600160401b038211176106dc576040526040835261080036602085013760005b828110611551578360005b6040811061148c57005b6114968183611c87565b516114a4575b600101611482565b6040516114b081611a6a565b60008152600682901b6001600160fa1b03831683036108255780604001908160401161082557905b8082106114f9575050906114f26001928261100501611ccc565b905061149c565b909161100083101561153b5760206106d1611535926106c360405193826115298694518092848088019101611980565b83010187600501612c93565b906114d8565b634e487b7160e01b600052603260045260246000fd5b61155b8183611c87565b5190815182018260208201916080918291031261018f57602084015191604085015194606081015192810151906001600160401b03821161018f570181603f8201121561018f5760208101516115b081611abd565b926115be6040519485611a85565b8184526040828401011161018f576115dd916040602085019101611980565b60408310801590611823575b6112e457600a8210156117e55782600052600460205260406000208560005260205260ff60056040600020015416611788578260005260046020526040600020856000526020523360018060a01b036040600020541614611657575b5050506116529150611c78565b611477565b61167d908360005260046020526040600020866000526020526003604060002001611ccc565b8160005260046020526040600020846000526020526001604060002001558083611746575b806000526004602052604060002084600052602052600160406000200154906009908082810204821481151715610825578582810204821486151715610825576117179281600052600460205260406000208760005260205261170b6003604060002001611bd2565b92808802920290612536565b61100082101561153b576116529361173761173d92600194600501611ccc565b87611c87565b52858080611645565b90506117528382611ddb565b6040828103116108255783600019810111610825576117829061177c600019860184604003611ddb565b90611a24565b906116a2565b60405162461bcd60e51b815260206004820152602f60248201527f6f776e6572207761732061736b656420746f20666972737420736574746c652060448201526e1c9bde585b1d1e481c185e5b595b9d608a1b6064820152608490fd5b60405162461bcd60e51b81526020600482015260166024820152757368617065204944206e6f7420617661696c61626c6560501b6044820152606490fd5b5060408510156115e9565b60405162461bcd60e51b815260206004820152602260248201527f417274697374696320706572696f642063757272656e746c79206e6f74206f7060448201526132b760f11b6064820152608490fd5b83356001600160401b03811161018f578201903660438301121561018f576024820135906118ab82611abd565b6118b86040519182611a85565b8281526044933685858301011161018f576020848196958296600094018386013783010152815201930192611424565b3461018f57602036600319011261018f576004356000526110466020526040806000206001815491015482519182526020820152f35b3461018f57600036600319011261018f576020604051620546008152f35b3461018f576103036119566119503661196a565b90612402565b6040519182916020835260208301906119c8565b604090600319011261018f576004359060243590565b60005b8381106119935750506000910152565b8181015183820152602001611983565b906020916119bc81518092818552858086019101611980565b601f01601f1916010190565b9060018060a01b038251168152602082015160208201526040820151604082015260c080611a05606085015160e0606086015260e08501906119a3565b936080810151608085015260a0810151151560a0850152015191015290565b9190820180921161082557565b3461018f57600036600319011261018f5760206040516203f4808152f35b60e081019081106001600160401b038211176106dc57604052565b602081019081106001600160401b038211176106dc57604052565b90601f801991011681019081106001600160401b038211176106dc57604052565b6001600160401b0381116106dc5760051b60200190565b6001600160401b0381116106dc57601f01601f191660200190565b3461018f57600036600319011261018f57602060405160408152f35b81601f8201121561018f57803591611b0b83611aa6565b92611b196040519485611a85565b808452602092838086019260051b82010192831161018f578301905b828210611b43575050505090565b81358152908301908301611b35565b90604060031983011261018f576001600160401b0360043581811161018f5783611b7e91600401611af4565b9260243591821161018f57611b9591600401611af4565b90565b90600182811c92168015611bc8575b6020831014611bb257565b634e487b7160e01b600052602260045260246000fd5b91607f1691611ba7565b9060405191826000825492611be684611b98565b908184526001948581169081600014611c555750600114611c12575b5050611c1092500383611a85565b565b9093915060005260209081600020936000915b818310611c3d575050611c1093508201013880611c02565b85548884018501529485019487945091830191611c25565b915050611c1094506020925060ff191682840152151560051b8201013880611c02565b60001981146108255760010190565b805182101561153b5760209160051b010190565b606090602081526016602082015275706978656c206973206f7574206f6620626f756e647360501b60408201520190565b91909182516001600160401b0381116106dc57611ce98254611b98565b601f8111611d93575b50602080601f8311600114611d2f575081929394600092611d24575b50508160011b916000199060031b1c1916179055565b015190503880611d0e565b90601f198316958460005282600020926000905b888210611d7b57505083600195969710611d62575b505050811b019055565b015160001960f88460031b161c19169055388080611d58565b80600185968294968601518155019501930190611d43565b600083815260208120601f840160051c81019260208510611dd1575b601f0160051c01915b828110611dc6575050611cf2565b818155600101611db8565b9092508290611daf565b8181029291811591840414171561082557565b9190820391821161082557565b15611e0257565b60405162461bcd60e51b815260206004820152602b60248201527f7820616e64207920696e7075742061727261797320617265206f66207661726960448201526a6f7573206c656e6774687360a81b6064820152608490fd5b9081602091031261018f5751801515810361018f5790565b6001600160a01b03918216815291166020820152604081019190915260600190565b9190611ea48351825114611dfb565b82516000935b818510611eb8575050509050565b611ec28582611c87565b5194611ece8185611c87565b51604080809810918215926122ae575b505061229657611eee8183611c87565b516000526004602081815287600020611f078488611c87565b51600052815260018060a01b0333818a60002054160361224857611f2b8486611c87565b5160005282825288600020611f408589611c87565b51600052825242838a600020015403611f6e575b505050611f65919293949550611c78565b93929190611eaa565b611f86611f7b8587611c87565b51610d63868a611c87565b908060035416908a516370a0823160e01b8152338682015260249085818381875afa80156121bc578591600091612218575b50106121c7578b51636eb1769f60e11b8152338782019081523060208201528690829081906040010381875afa80156121bc578591600091612189575b501061213857509183916120259b936000541660008551809e819582946323b872dd60e01b8452338c8501611e73565b03925af198891561212d57611f659596979899612110575b506120488487611c87565b516000528282528060002061205d858a611c87565b51600052825242838260002001556120758487611c87565b516000528282528060002061208a858a611c87565b51600052825260059160ff83836000200154166120ae575b50889796959450611f54565b6000936006936120be878a611c87565b5186528183528386206120d1888d611c87565b518752835283862001805460ff191690556120ec8689611c87565b5185528152818420906120ff868b611c87565b5185525282200155388080806120a2565b61212690833d85116110b1576110a28183611a85565b503861203d565b50513d6000823e3d90fd5b856027608492878f519362461bcd60e51b85528401528201527f696e73756666696369656e7420616c6c6f77616e636520746f2070617920726f60448201526679616c7469657360c81b6064820152fd5b91508682813d83116121b5575b6121a08183611a85565b810103126121b2575084905138611ff5565b80fd5b503d612196565b8d513d6000823e3d90fd5b856027608492878f519362461bcd60e51b85528401528201527f6e6f742073756666696369656e742062616c616e636520746f2070617920726f60448201526679616c7469657360c81b6064820152fd5b91508682813d8311612241575b61222f8183611a85565b810103126121b2575084905138611fb8565b503d612225565b885162461bcd60e51b8152808401839052602260248201527f6f6e6c7920706978656c206f776e65722063616e2070617920726f79616c7469604482015261657360f01b6064820152608490fd5b855162461bcd60e51b8152806112fd60048201611c9b565b101590508638611ede565b156122c057565b60405162461bcd60e51b815260206004820152602360248201527f6e6f742073756666696369656e742062616c616e636520746f206275792070696044820152621e195b60ea1b6064820152608490fd5b1561231857565b60405162461bcd60e51b815260206004820152602360248201527f696e73756666696369656e7420616c6c6f77616e636520746f206275792070696044820152621e195b60ea1b6064820152608490fd5b1561237057565b60405162461bcd60e51b815260206004820152602c60248201527f6f776e65722063757272656e74206d616e616765722063616e2063616c6c207460448201526b3434b990333ab731ba34b7b760a11b6064820152608490fd5b604051906123d782611a4f565b8160c06000918281528260208201528260408201526060808201528260808201528260a08201520152565b9061240b6123ca565b50604091828110806124d0575b15612496576000526004602052816000209060005260205260068160002082519261244284611a4f565b81546001600160a01b031684526001820154602085015260028201549084015261246e60038201611bd2565b60608401526004810154608084015260ff600582015416151560a0840152015460c082015290565b825162461bcd60e51b8152602060048201526013602482015272706978656c206f7574206f6620626f756e647360681b6044820152606490fd5b50828210612418565b612529612532916002604064073df1600095600090848252600460205282822081835260205261250f6004848420015442611dee565b948252600460205282822090825260205220015490611ddb565b60015490611ddb565b0490565b919290928215612bd75760018314612b085760028314612ade5760038314612a8257600492838114612a2e57600581146128d1576006811461287f57600781146128185760088114612735576009146125a0575050505060405161259981611a6a565b6000815290565b6125a984612d16565b906125b381612d16565b60088601808711612720576125c790612d16565b946008830180931161270b5750916126ef82611b9596946125fc6125f66125f060499997612d16565b9a612d16565b92612d16565b91604051998a97602a61262c8a602099693c7061746820643d224d60b01b8b8301528a8151948593019101611980565b890193600160fd1b9485602a82015261264e825180938b602b85019101611980565b016b010209c101c101810181018960a51b602b820152612677825180938a603785019101611980565b018360378201526126918251809389603885019101611980565b0161081360f21b60388201526126b08251809388603a85019101611980565b0190603a8201526126ca8251809386603b85019101611980565b019169102d11103334b6361e9160b11b603b8401528351938491604585019101611980565b01631110179f60e11b6045820152036029810184520182611a85565b601190634e487b7160e01b6000525260246000fd5b601186634e487b7160e01b6000525260246000fd5b509260088101938482116128035761274c85612d16565b9161275f61275983612d16565b91612d16565b946008830180931161270b5750916126ef82611b9596946127886125f66125f060499997612d16565b91604051998a97602a6127b88a602099693c7061746820643d224d60b01b8b8301528a8151948593019101611980565b890193600160fd1b9485602a8201526127da825180938b602b85019101611980565b016b010209c101c101810181018160a51b602b820152612677825180938a603785019101611980565b601184634e487b7160e01b6000525260246000fd5b5061282284612d16565b9061282c81612d16565b6008860180961161286a5761284086612d16565b94600883019081841161270b575060499492611b959694926127886125f66125f06126ef95612d16565b601185634e487b7160e01b6000525260246000fd5b5061288984612d16565b906008810180821161286a5761289e90612d16565b93600886019081871161270b5750916126ef604994926128c1611b959795612d16565b946127886125f66125f084612d16565b50926128dc81612d16565b90600885019081861161286a576128f282612d16565b906129056128ff82612d16565b97612d16565b956008820180921161270b5750603f9492611b9596949261292b6125f6612a1294612d16565b91604051998a97602a61295b8a602099693c7061746820643d224d60b01b8b8301528a8151948593019101611980565b890193600160fd1b9485602a82015261297d825180938b602b85019101611980565b019161081360f21b9283602b82015261299f825180938b602d85019101611980565b0184602d8201526129b9825180938a602e85019101611980565b0190602e8201526129d38251809388603085019101611980565b019060308201526129ed8251809386603185019101611980565b019169103d11103334b6361e9160b11b60318401528351938491603b85019101611980565b01631110179f60e11b603b82015203601f810184520182611a85565b509291600883019081841161270b57612a4682612d16565b91600886019182871161270b575091612a1282611b95969461292b6125f66128ff612a7c612a76603f9b99612d16565b94612d16565b9b612d16565b9150612a8d83612d16565b92612a9783612d16565b916008820180921161082557612aac82612d16565b94612abf612ab986612d16565b93612d16565b946008810180911161082557611b9595603f9561292b612a1293612d16565b9150612ae983612d16565b92612af383612d16565b916008820180831161082557612aac90612d16565b9150916004810180911161082557612b1f90612d16565b906004810180911161082557611b9591612b3a604492612d16565b936040519485926b1e31b4b931b6329031bc1e9160a11b6020850152612b6a815180926020602c88019101611980565b830165111031bc9e9160d11b602c820152612b8f825180936020603285019101611980565b016d1110391e911a11103334b6361e9160911b6032820152612bbb825180936020604085019101611980565b01631110179f60e11b6040820152036024810184520182611a85565b611b959250612beb612759604f9395612d16565b93604051948592681e3932b1ba103c1e9160b91b6020850152612c18815180926020602988019101611980565b83016411103c9e9160d91b6029820152612c3c825180936020602e85019101611980565b017f222077696474683d223822206865696768743d2238222066696c6c3d22000000602e820152612c77825180936020604b85019101611980565b01631110179f60e11b604b82015203602f810184520182611a85565b600092918154612ca281611b98565b92600191808316908115612cfb5750600114612cbf575b50505050565b90919293945060005260209081600020906000915b858310612cea5750505050019038808080612cb9565b805485840152918301918101612cd4565b60ff1916845250505081151590910201915038808080612cb9565b8015612dd85780816000925b612dc45750612d3082611abd565b91612d3e6040519384611a85565b80835281601f19612d4e83611abd565b01916020923684870137925b612d645750505090565b60001983019283116108255782600a8083049281840291848304148415171561082557612d9460ff928392611dee565b1660300190811161082557855182101561153b5760f81b6001600160f81b03191660001a90850183015380612d5a565b91612dd0600a91611c78565b920480612d22565b50604051604081018181106001600160401b038211176106dc5760405260018152600360fc1b60208201529056fea264697066735822122072f4485ce7f3e8eb368060710d04b0f60acc3452682b76ae465c4f4fa62aec4564736f6c63430008140033",
  "linkReferences": {},
  "deployedLinkReferences": {}
}