{
  "_format": "hh-sol-artifact-1",
  "contractName": "Pixelmap",
  "sourceName": "contracts/Pixelmap.sol",
  "abi": [
    {
      "inputs": [],
      "stateMutability": "nonpayable",
      "type": "constructor"
    },
    {
      "inputs": [],
      "name": "ReentrancyGuardReentrantCall",
      "type": "error"
    },
    {
      "anonymous": false,
      "inputs": [
        {
          "indexed": false,
          "internalType": "uint256",
          "name": "tokenID",
          "type": "uint256"
        },
        {
          "indexed": false,
          "internalType": "address",
          "name": "bidder",
          "type": "address"
        },
        {
          "indexed": false,
          "internalType": "uint256",
          "name": "bid",
          "type": "uint256"
        }
      ],
      "name": "AuctionEnded",
      "type": "event"
    },
    {
      "anonymous": false,
      "inputs": [
        {
          "indexed": false,
          "internalType": "uint256",
          "name": "tokenID",
          "type": "uint256"
        },
        {
          "indexed": false,
          "internalType": "address",
          "name": "bidder",
          "type": "address"
        },
        {
          "indexed": false,
          "internalType": "uint256",
          "name": "bid",
          "type": "uint256"
        }
      ],
      "name": "BidPlace",
      "type": "event"
    },
    {
      "anonymous": false,
      "inputs": [
        {
          "indexed": false,
          "internalType": "uint256",
          "name": "tokenID",
          "type": "uint256"
        },
        {
          "indexed": false,
          "internalType": "address",
          "name": "bidder",
          "type": "address"
        },
        {
          "indexed": false,
          "internalType": "uint256",
          "name": "bid",
          "type": "uint256"
        }
      ],
      "name": "BidWithdrawn",
      "type": "event"
    },
    {
      "anonymous": false,
      "inputs": [
        {
          "indexed": false,
          "internalType": "uint256",
          "name": "cycle",
          "type": "uint256"
        }
      ],
      "name": "NFTMinted",
      "type": "event"
    },
    {
      "anonymous": false,
      "inputs": [
        {
          "indexed": true,
          "internalType": "uint256",
          "name": "x",
          "type": "uint256"
        },
        {
          "indexed": true,
          "internalType": "uint256",
          "name": "y",
          "type": "uint256"
        }
      ],
      "name": "PixelBought",
      "type": "event"
    },
    {
      "anonymous": false,
      "inputs": [
        {
          "indexed": true,
          "internalType": "uint256",
          "name": "x",
          "type": "uint256"
        },
        {
          "indexed": true,
          "internalType": "uint256",
          "name": "y",
          "type": "uint256"
        }
      ],
      "name": "PixelFilled",
      "type": "event"
    },
    {
      "anonymous": false,
      "inputs": [
        {
          "indexed": true,
          "internalType": "uint256",
          "name": "x",
          "type": "uint256"
        },
        {
          "indexed": true,
          "internalType": "uint256",
          "name": "y",
          "type": "uint256"
        }
      ],
      "name": "PixelValueSet",
      "type": "event"
    },
    {
      "anonymous": false,
      "inputs": [
        {
          "indexed": true,
          "internalType": "uint256",
          "name": "x",
          "type": "uint256"
        },
        {
          "indexed": true,
          "internalType": "uint256",
          "name": "y",
          "type": "uint256"
        }
      ],
      "name": "RoyaltiesPaid",
      "type": "event"
    },
    {
      "anonymous": false,
      "inputs": [
        {
          "indexed": true,
          "internalType": "address",
          "name": "owner",
          "type": "address"
        }
      ],
      "name": "VoteCasted",
      "type": "event"
    },
    {
      "inputs": [],
      "name": "ARTISTIC_PERIOD",
      "outputs": [
        {
          "internalType": "uint256",
          "name": "",
          "type": "uint256"
        }
      ],
      "stateMutability": "view",
      "type": "function"
    },
    {
      "inputs": [],
      "name": "AUCTION_DURATION",
      "outputs": [
        {
          "internalType": "uint256",
          "name": "",
          "type": "uint256"
        }
      ],
      "stateMutability": "view",
      "type": "function"
    },
    {
      "inputs": [],
      "name": "CYCLE_PERIOD",
      "outputs": [
        {
          "internalType": "uint256",
          "name": "",
          "type": "uint256"
        }
      ],
      "stateMutability": "view",
      "type": "function"
    },
    {
      "inputs": [],
      "name": "VOTING_PERIOD",
      "outputs": [
        {
          "internalType": "uint256",
          "name": "",
          "type": "uint256"
        }
      ],
      "stateMutability": "view",
      "type": "function"
    },
    {
      "inputs": [
        {
          "internalType": "uint256",
          "name": "",
          "type": "uint256"
        },
        {
          "internalType": "address",
          "name": "",
          "type": "address"
        }
      ],
      "name": "auctionClaims",
      "outputs": [
        {
          "internalType": "uint256",
          "name": "",
          "type": "uint256"
        }
      ],
      "stateMutability": "view",
      "type": "function"
    },
    {
      "inputs": [
        {
          "internalType": "uint256",
          "name": "",
          "type": "uint256"
        },
        {
          "internalType": "address",
          "name": "",
          "type": "address"
        }
      ],
      "name": "auctionClaimsFlag",
      "outputs": [
        {
          "internalType": "bool",
          "name": "",
          "type": "bool"
        }
      ],
      "stateMutability": "view",
      "type": "function"
    },
    {
      "inputs": [
        {
          "internalType": "address",
          "name": "",
          "type": "address"
        }
      ],
      "name": "balanceOf",
      "outputs": [
        {
          "internalType": "uint256",
          "name": "",
          "type": "uint256"
        }
      ],
      "stateMutability": "view",
      "type": "function"
    },
    {
      "inputs": [
        {
          "internalType": "uint8[]",
          "name": "xValues",
          "type": "uint8[]"
        },
        {
          "internalType": "uint8[]",
          "name": "yValues",
          "type": "uint8[]"
        }
      ],
      "name": "buyPixel",
      "outputs": [],
      "stateMutability": "nonpayable",
      "type": "function"
    },
    {
      "inputs": [
        {
          "internalType": "uint8",
          "name": "x",
          "type": "uint8"
        },
        {
          "internalType": "uint8",
          "name": "y",
          "type": "uint8"
        }
      ],
      "name": "calculateRoyalties",
      "outputs": [
        {
          "internalType": "uint256",
          "name": "",
          "type": "uint256"
        }
      ],
      "stateMutability": "view",
      "type": "function"
    },
    {
      "inputs": [],
      "name": "canvasCreation",
      "outputs": [
        {
          "internalType": "uint256",
          "name": "",
          "type": "uint256"
        }
      ],
      "stateMutability": "view",
      "type": "function"
    },
    {
      "inputs": [
        {
          "internalType": "bool",
          "name": "vote",
          "type": "bool"
        }
      ],
      "name": "castVote",
      "outputs": [],
      "stateMutability": "nonpayable",
      "type": "function"
    },
    {
      "inputs": [
        {
          "internalType": "uint8[]",
          "name": "xValues",
          "type": "uint8[]"
        },
        {
          "internalType": "uint8[]",
          "name": "yValues",
          "type": "uint8[]"
        }
      ],
      "name": "checkMultiplePixel",
      "outputs": [
        {
          "components": [
            {
              "internalType": "address",
              "name": "owner",
              "type": "address"
            },
            {
              "internalType": "uint8",
              "name": "shapeID",
              "type": "uint8"
            },
            {
              "internalType": "uint256",
              "name": "price",
              "type": "uint256"
            },
            {
              "internalType": "string",
              "name": "color",
              "type": "string"
            },
            {
              "internalType": "uint256",
              "name": "royaltyLastPaid",
              "type": "uint256"
            },
            {
              "internalType": "bool",
              "name": "askedToPayRoyalties",
              "type": "bool"
            },
            {
              "internalType": "uint256",
              "name": "royaltyAskDate",
              "type": "uint256"
            }
          ],
          "internalType": "struct Pixelmap.Pixel[]",
          "name": "",
          "type": "tuple[]"
        }
      ],
      "stateMutability": "view",
      "type": "function"
    },
    {
      "inputs": [
        {
          "internalType": "uint8",
          "name": "x",
          "type": "uint8"
        },
        {
          "internalType": "uint8",
          "name": "y",
          "type": "uint8"
        }
      ],
      "name": "checkPixel",
      "outputs": [
        {
          "components": [
            {
              "internalType": "address",
              "name": "owner",
              "type": "address"
            },
            {
              "internalType": "uint8",
              "name": "shapeID",
              "type": "uint8"
            },
            {
              "internalType": "uint256",
              "name": "price",
              "type": "uint256"
            },
            {
              "internalType": "string",
              "name": "color",
              "type": "string"
            },
            {
              "internalType": "uint256",
              "name": "royaltyLastPaid",
              "type": "uint256"
            },
            {
              "internalType": "bool",
              "name": "askedToPayRoyalties",
              "type": "bool"
            },
            {
              "internalType": "uint256",
              "name": "royaltyAskDate",
              "type": "uint256"
            }
          ],
          "internalType": "struct Pixelmap.Pixel",
          "name": "",
          "type": "tuple"
        }
      ],
      "stateMutability": "view",
      "type": "function"
    },
    {
      "inputs": [
        {
          "internalType": "uint256",
          "name": "_cycle",
          "type": "uint256"
        }
      ],
      "name": "checkVoteOutcome",
      "outputs": [],
      "stateMutability": "nonpayable",
      "type": "function"
    },
    {
      "inputs": [
        {
          "internalType": "uint256",
          "name": "_tokenID",
          "type": "uint256"
        }
      ],
      "name": "closeAuction",
      "outputs": [],
      "stateMutability": "nonpayable",
      "type": "function"
    },
    {
      "inputs": [
        {
          "internalType": "bytes[]",
          "name": "_pixels",
          "type": "bytes[]"
        }
      ],
      "name": "fillPixel",
      "outputs": [],
      "stateMutability": "nonpayable",
      "type": "function"
    },
    {
      "inputs": [],
      "name": "generateMerkle",
      "outputs": [
        {
          "internalType": "bytes32",
          "name": "",
          "type": "bytes32"
        }
      ],
      "stateMutability": "view",
      "type": "function"
    },
    {
      "inputs": [],
      "name": "generateSVG",
      "outputs": [
        {
          "internalType": "string",
          "name": "",
          "type": "string"
        }
      ],
      "stateMutability": "view",
      "type": "function"
    },
    {
      "inputs": [
        {
          "internalType": "uint256",
          "name": "tokenID",
          "type": "uint256"
        },
        {
          "internalType": "address",
          "name": "user",
          "type": "address"
        }
      ],
      "name": "getAuctionClaimFlag",
      "outputs": [
        {
          "internalType": "bool",
          "name": "",
          "type": "bool"
        }
      ],
      "stateMutability": "view",
      "type": "function"
    },
    {
      "inputs": [
        {
          "internalType": "uint256",
          "name": "tokenID",
          "type": "uint256"
        },
        {
          "internalType": "address",
          "name": "user",
          "type": "address"
        }
      ],
      "name": "getAuctionClaims",
      "outputs": [
        {
          "internalType": "uint256",
          "name": "",
          "type": "uint256"
        }
      ],
      "stateMutability": "view",
      "type": "function"
    },
    {
      "inputs": [
        {
          "internalType": "address",
          "name": "_owner",
          "type": "address"
        }
      ],
      "name": "getBalance",
      "outputs": [
        {
          "internalType": "uint256",
          "name": "",
          "type": "uint256"
        }
      ],
      "stateMutability": "view",
      "type": "function"
    },
    {
      "inputs": [],
      "name": "getCurrentCycle",
      "outputs": [
        {
          "internalType": "uint256",
          "name": "",
          "type": "uint256"
        }
      ],
      "stateMutability": "view",
      "type": "function"
    },
    {
      "inputs": [
        {
          "internalType": "uint256",
          "name": "_tokenID",
          "type": "uint256"
        }
      ],
      "name": "getMintDate",
      "outputs": [
        {
          "internalType": "uint256",
          "name": "",
          "type": "uint256"
        }
      ],
      "stateMutability": "view",
      "type": "function"
    },
    {
      "inputs": [
        {
          "internalType": "address",
          "name": "_owner",
          "type": "address"
        }
      ],
      "name": "hasVoted",
      "outputs": [
        {
          "internalType": "bool",
          "name": "",
          "type": "bool"
        }
      ],
      "stateMutability": "view",
      "type": "function"
    },
    {
      "inputs": [],
      "name": "isInArtisticPeriod",
      "outputs": [
        {
          "internalType": "bool",
          "name": "",
          "type": "bool"
        }
      ],
      "stateMutability": "view",
      "type": "function"
    },
    {
      "inputs": [],
      "name": "isInVotingPeriod",
      "outputs": [
        {
          "internalType": "bool",
          "name": "",
          "type": "bool"
        }
      ],
      "stateMutability": "view",
      "type": "function"
    },
    {
      "inputs": [],
      "name": "manager",
      "outputs": [
        {
          "internalType": "address",
          "name": "",
          "type": "address"
        }
      ],
      "stateMutability": "view",
      "type": "function"
    },
    {
      "inputs": [],
      "name": "maxHeight",
      "outputs": [
        {
          "internalType": "uint8",
          "name": "",
          "type": "uint8"
        }
      ],
      "stateMutability": "view",
      "type": "function"
    },
    {
      "inputs": [],
      "name": "maxWidth",
      "outputs": [
        {
          "internalType": "uint8",
          "name": "",
          "type": "uint8"
        }
      ],
      "stateMutability": "view",
      "type": "function"
    },
    {
      "inputs": [
        {
          "internalType": "uint256",
          "name": "",
          "type": "uint256"
        }
      ],
      "name": "mintDates",
      "outputs": [
        {
          "internalType": "uint256",
          "name": "",
          "type": "uint256"
        }
      ],
      "stateMutability": "view",
      "type": "function"
    },
    {
      "inputs": [
        {
          "internalType": "uint256",
          "name": "",
          "type": "uint256"
        }
      ],
      "name": "nftAuctions",
      "outputs": [
        {
          "internalType": "address",
          "name": "winningAddr",
          "type": "address"
        },
        {
          "internalType": "uint256",
          "name": "winningBid",
          "type": "uint256"
        },
        {
          "internalType": "uint256",
          "name": "auctionStart",
          "type": "uint256"
        },
        {
          "internalType": "uint256",
          "name": "auctionEnd",
          "type": "uint256"
        },
        {
          "internalType": "bool",
          "name": "auctionEnded",
          "type": "bool"
        }
      ],
      "stateMutability": "view",
      "type": "function"
    },
    {
      "inputs": [],
      "name": "nftContract",
      "outputs": [
        {
          "internalType": "contract CanvasCollection",
          "name": "",
          "type": "address"
        }
      ],
      "stateMutability": "view",
      "type": "function"
    },
    {
      "inputs": [
        {
          "internalType": "uint8[]",
          "name": "xValues",
          "type": "uint8[]"
        },
        {
          "internalType": "uint8[]",
          "name": "yValues",
          "type": "uint8[]"
        }
      ],
      "name": "payRoyalties",
      "outputs": [],
      "stateMutability": "nonpayable",
      "type": "function"
    },
    {
      "inputs": [
        {
          "internalType": "uint256",
          "name": "",
          "type": "uint256"
        }
      ],
      "name": "pixelSVGs",
      "outputs": [
        {
          "internalType": "string",
          "name": "",
          "type": "string"
        }
      ],
      "stateMutability": "view",
      "type": "function"
    },
    {
      "inputs": [
        {
          "internalType": "uint256",
          "name": "_tokenID",
          "type": "uint256"
        }
      ],
      "name": "placeBid",
      "outputs": [],
      "stateMutability": "payable",
      "type": "function"
    },
    {
      "inputs": [
        {
          "internalType": "uint256",
          "name": "",
          "type": "uint256"
        }
      ],
      "name": "rowSVGs",
      "outputs": [
        {
          "internalType": "string",
          "name": "",
          "type": "string"
        }
      ],
      "stateMutability": "view",
      "type": "function"
    },
    {
      "inputs": [],
      "name": "royaltyAskPeriod",
      "outputs": [
        {
          "internalType": "uint256",
          "name": "",
          "type": "uint256"
        }
      ],
      "stateMutability": "view",
      "type": "function"
    },
    {
      "inputs": [],
      "name": "royaltyDenominator",
      "outputs": [
        {
          "internalType": "uint256",
          "name": "",
          "type": "uint256"
        }
      ],
      "stateMutability": "view",
      "type": "function"
    },
    {
      "inputs": [],
      "name": "royaltyRate",
      "outputs": [
        {
          "internalType": "uint8",
          "name": "",
          "type": "uint8"
        }
      ],
      "stateMutability": "view",
      "type": "function"
    },
    {
      "inputs": [
        {
          "internalType": "uint8",
          "name": "x",
          "type": "uint8"
        },
        {
          "internalType": "uint8",
          "name": "y",
          "type": "uint8"
        },
        {
          "internalType": "uint256",
          "name": "_price",
          "type": "uint256"
        }
      ],
      "name": "seekRoyaltyPayment",
      "outputs": [],
      "stateMutability": "nonpayable",
      "type": "function"
    },
    {
      "inputs": [
        {
          "internalType": "address",
          "name": "_nftContract",
          "type": "address"
        }
      ],
      "name": "setNFTContract",
      "outputs": [],
      "stateMutability": "nonpayable",
      "type": "function"
    },
    {
      "inputs": [
        {
          "internalType": "uint8[]",
          "name": "xValues",
          "type": "uint8[]"
        },
        {
          "internalType": "uint8[]",
          "name": "yValues",
          "type": "uint8[]"
        },
        {
          "internalType": "uint256[]",
          "name": "priceValues",
          "type": "uint256[]"
        }
      ],
      "name": "setPixelValue",
      "outputs": [],
      "stateMutability": "nonpayable",
      "type": "function"
    },
    {
      "inputs": [
        {
          "internalType": "address",
          "name": "_newToken",
          "type": "address"
        }
      ],
      "name": "updateCurrency",
      "outputs": [],
      "stateMutability": "nonpayable",
      "type": "function"
    },
    {
      "inputs": [
        {
          "internalType": "uint256",
          "name": "",
          "type": "uint256"
        }
      ],
      "name": "voteRegister",
      "outputs": [
        {
          "internalType": "uint256",
          "name": "yesVotes",
          "type": "uint256"
        },
        {
          "internalType": "uint256",
          "name": "noVotes",
          "type": "uint256"
        }
      ],
      "stateMutability": "view",
      "type": "function"
    },
    {
      "inputs": [
        {
          "internalType": "uint8",
          "name": "",
          "type": "uint8"
        },
        {
          "internalType": "uint8",
          "name": "",
          "type": "uint8"
        }
      ],
      "name": "window",
      "outputs": [
        {
          "internalType": "address",
          "name": "owner",
          "type": "address"
        },
        {
          "internalType": "uint8",
          "name": "shapeID",
          "type": "uint8"
        },
        {
          "internalType": "uint256",
          "name": "price",
          "type": "uint256"
        },
        {
          "internalType": "string",
          "name": "color",
          "type": "string"
        },
        {
          "internalType": "uint256",
          "name": "royaltyLastPaid",
          "type": "uint256"
        },
        {
          "internalType": "bool",
          "name": "askedToPayRoyalties",
          "type": "bool"
        },
        {
          "internalType": "uint256",
          "name": "royaltyAskDate",
          "type": "uint256"
        }
      ],
      "stateMutability": "view",
      "type": "function"
    },
    {
      "inputs": [
        {
          "internalType": "uint256",
          "name": "_tokenID",
          "type": "uint256"
        }
      ],
      "name": "withdrawPixelProceeds",
      "outputs": [],
      "stateMutability": "nonpayable",
      "type": "function"
    }
  ],
  "bytecode": "0x60808060405234620000cb5760016000556002805460ff60a01b1916601960a11b179055600480546001600160a01b031990811673c02aaa39b223fe8d0a0e5c4f27ead9083c756cc217909155906107b08082016001600160401b03811183821017620000b557829162003fab833903906000f08015620000a95760018060a01b03168160055416176005553390600254161760025542600355604051613eda9081620000d18239f35b6040513d6000823e3d90fd5b634e487b7160e01b600052604160045260246000fd5b600080fdfe6080604052600436101561001257600080fd5b6000803560e01c806302d13f02146126e65780630734d144146125dc57806309eef43e14612581578063113bc99914612563578063166db0081461251f578063236ed8f3146121ad57806330b5d6d3146121785780633123a62b1461215a5780633323a706146119035780633bdb693e14611c4857806344d6b6d214611c01578063481c6a7514611bd85780634882a7ea14611ba75780635c8c6407146119555780635e0276011461190d5780636006ecc81461190857806363aa5ce2146119085780636e70fcc6146119035780637000c3e814610b0357806370a082311461025457806374d3e777146118d45780637ace48e7146116da578063907e99591461144d57806393cde51a146113e95780639979ef4514611221578063a271e52514611204578063a52f27b514611087578063a7ccabdf1461103f578063ad711e9e14610ea8578063aeeacbeb14610df6578063b1610d7e14610dd8578063b3a1ddf414610da6578063bc5bc2fb14610d4f578063be26ed7f14610d7a578063c4323fc114610d4f578063c4d1510d14610d2b578063c4e4b90c14610cfc578063ccba361714610b78578063d56d229d14610b4f578063d7638d8014610b03578063d84cd45014610ac1578063e124590014610a7a578063ec18fb5f1461028e578063f8b2cb4f14610254578063fd8d7ed3146102375763ff188dca1461021757600080fd5b346102345780600319360112610234576020600354604051908152f35b80fd5b503461023457806003193601126102345760206040516103e88152f35b5034610234576020366003190112610234576020906040906001600160a01b0361027c612968565b16815261104983522054604051908152f35b50346102345761029d36612877565b90916102aa828214612cd2565b845b8181106102b7578580f35b6102e16102cd6102c8838589612cb4565b612cc4565b6102db6102c8848789612cb4565b9061344a565b610a3c5760ff6102f56102c8838589612cb4565b16865260086020526040862060ff6103116102c8848789612cb4565b1660005260205260018060a01b0360406000205416156000146103f55760ff61033e6102c8838589612cb4565b16865260086020526040862060ff61035a6102c8848789612cb4565b1660005260205260406000203360018060a01b031982541617905533865261104960205260408620805490600182018092116103e157556001905b6103a36102c8828589612cb4565b60ff806103b46102c885898b612cb4565b1691167fee0e9a85d097f632450e6ac08750207c8f039246ee437b10eaf708b397d00ad88980a3016102ac565b634e487b7160e01b88526011600452602488fd5b61041a6104066102c8838589612cb4565b6104146102c8848789612cb4565b9061347c565b60ff61042a6102c884868a612cb4565b16875260086020526040872060ff6104466102c885888a612cb4565b1660005260205280600160406000200154116000146108735760ff61046f6102c884868a612cb4565b16875260086020526040872060ff61048b6102c885888a612cb4565b166000526020526104a4816001604060002001546132c1565b600480546040516370a0823160e01b815233928101929092526001600160a01b0316929190602081602481875afa8a8115610827578881898d8a968e9596610833575b509560ff93604061051694866105076102c8866102c89861052c9e612cb4565b16815260086020522095612cb4565b1660005260205260016040600020015410613211565b604051636eb1769f60e11b815233600482015230602482015292602084604481845afa8a8115610827578881898d8d958b95906107d8575b6106019a509360408460ff6105c16102c88a8860209f9e9d9c986105bc869d8f886105cf9f6102c89f888f8f6105a694866105076102c8866102c8988f612cb4565b1660005260205260018a60002001541115613269565b612cb4565b16815260088b522095612cb4565b16600052835260018060a01b03604060002054168b6040518097819582946323b872dd60e01b84523360048501612d4a565b03925af19081156107cd57610650926020926107b0575b50600480546002546040516323b872dd60e01b81529586946001600160a01b039384169486948f948694939291169033908501612d4a565b03925af180156107a557610776575b5060ff6106706102c8838589612cb4565b16865260086020526040862060ff61068c6102c8848789612cb4565b1660005260205260018060a01b0360406000205416865261104980602052604087208054906000198201918211610762575533875260205260408620805490600182018092116103e1575560019060ff6106ea6102c883868a612cb4565b16875260086020526040872060ff6107066102c884888a612cb4565b16600052602052604060002033838060a01b031982541617905560ff6107306102c883868a612cb4565b16875260086020526040872060ff61074c6102c884888a612cb4565b1660005260205242600360406000200155610395565b634e487b7160e01b89526011600452602489fd5b6107979060203d60201161079e575b61078f8183612a5e565b810190612d32565b503861065f565b503d610785565b6040513d89823e3d90fd5b6107c690833d851161079e5761078f8183612a5e565b5038610618565b6040513d8a823e3d90fd5b5050505050505092906020823d60201161081f575b816107fa60209383612a5e565b8101031261081a57905161060193908890869089908d908a908e90610564565b600080fd5b3d91506107ed565b604051903d90823e3d90fd5b96505050505050506020813d60201161086b575b8161085460209383612a5e565b8101031261081a5751849088888c898d60ff6104e7565b3d9150610847565b50600480546040516370a0823160e01b815233928101929092526001600160a01b031690602081602481855afa80156107cd578890610a08575b6108de915060ff6108c26102c886888c612cb4565b16895260086020526040892060ff6105166102c8878a8c612cb4565b604051636eb1769f60e11b8152336004820152306024820152602081604481855afa90888215610827578681878b8b958995976109c8575b506102c8856020989560406106509b999660ff61093e6102c86109629c839a61094c9a612cb4565b16815260088c522095612cb4565b1660005284526001604060002001541115613269565b6002546001600160a01b03169060ff61097f6102c887898d612cb4565b168a526008835260408a2060ff61099a6102c8888b8d612cb4565b166000528352600160406000200154918a6040518096819582946323b872dd60e01b84523360048501612d4a565b96505050505050506020813d602011610a00575b816109e960209383612a5e565b8101031261081a57518583868a878b6102c8610916565b3d91506109dc565b506020813d602011610a34575b81610a2260209383612a5e565b8101031261081a576108de90516108ad565b3d9150610a15565b60405162461bcd60e51b8152602060048201526016602482015275706978656c206973206f7574206f6620626f756e647360501b6044820152606490fd5b50346102345760203660031901126102345760043590604082101561023457610abd610aa98361100901612a7f565b6040519182916020835260208301906128e4565b0390f35b503461023457604036600319011261023457610abd610aef610ae1612819565b610ae9612829565b90613367565b604051918291602083526020830190612909565b5034610234576040366003190112610234576040610b1f61297e565b9160043581526007602052209060018060a01b0316600052602052602060ff604060002054166040519015158152f35b50346102345780600319360112610234576001546040516001600160a01b039091168152602090f35b503461023457602080600319360112610cf857600435610b966135ac565b808352600782526040832033600052825260ff60406000205416610ca75780835261104c8252610be16001604085200154600684526040852033600052845260406000205490613469565b600c1c908115610c6857838080938193825260078652604082203360005286526040600020600160ff19825416179055335af1610c1c61357c565b5015610c2a57506001815580f35b6064906040519062461bcd60e51b8252600482015260176024820152764661696c656420746f2073656e642070726f636565647360481b6044820152fd5b60405162461bcd60e51b81526004810184905260176024820152764e6f2070726f636565647320746f20776974686472617760481b6044820152606490fd5b60405162461bcd60e51b8152600481018390526024808201527f616c726561647920636c61696d65642070726f636565647320666f72207468696044820152631cc8125160e21b6064820152608490fd5b5080fd5b5034610234576020366003190112610234576004359061100082101561023457610abd610aa983600901612a7f565b5034610234578060031936011261023457602060ff60025460a01c16604051908152f35b5034610234576020366003190112610234576040602091600435815261104b83522054604051908152f35b5034610234578060031936011261023457602062054600610d9d600354426132c1565b04604051908152f35b503461023457806003193601126102345760206203f48062054600610dcd600354426132c1565b061015604051908152f35b50346102345780600319360112610234576020604051620151808152f35b50346102345760403660031901126102345760ff6040610e14612819565b9282610e1e612829565b94168152600860205220911660005260205260ff60406000208054906001810154610e4b60028301612a7f565b91610e926003820154936005876004850154169301549360405197889760018060a01b038116895260a01c166020880152604087015260e0606087015260e08601906128e4565b926080850152151560a084015260c08301520390f35b5034610234578060031936011261023457604051608081018181106001600160401b0382111761102957604052605781526020907f3c7376672077696474683d2236303022206865696768743d2236303022207669828201527f6577426f783d2230203020363030203630302220786d6c6e733d22687474703a6040820152761797bbbbbb973b999737b933979918181817b9bb33911f60491b606082015291805b604060ff831610610fa5575050610f91602660405184610f7382965180928780860191016128c1565b8101651e17b9bb339f60d11b85820152036006810185520183612a5e565b610abd6040519282849384528301906128e4565b9092604084101561101557610feb8391610fdd6040519382610fd086945180928480880191016128c1565b8301018761100901613d33565b03601f198101835282612a5e565b9260ff8091169081146110015760010190610f4a565b634e487b7160e01b82526011600452602482fd5b634e487b7160e01b82526032600452602482fd5b634e487b7160e01b600052604160045260246000fd5b503461023457602036600319011261023457611059612968565b6002546001600160a01b03919061107390831633146132ce565b1660018060a01b0319600154161760015580f35b5034610234578060031936011261023457604051906202002082018281106001600160401b03821117611029576040526110008252602091828082019162020000368437835b6040811061117a575060018060a01b03600554166040519384926317046b0160e11b8452602484019085600486015251809152604484019190875b8181106111615750505082809103915afa918215610827578092611131575b5050604051908152f35b9091508282813d831161115a575b6111498183612a5e565b810103126102345750513880611127565b503d61113f565b8251845289968896509384019390920191600101611108565b90929150835b604081106111955750600101918491926110cd565b6001600160fa1b03821682036111f0576001906111b58360061b82612994565b60ff8083168852600889526040882090851660005288526111e96001600160601b031960406000205460601b169187612c8a565b5201611180565b634e487b7160e01b85526011600452602485fd5b5034610234578060031936011261023457602060405161fd208152f35b50602080600319360112610cf8576004359061123b6135ac565b81835261104c9081815261125960ff600460408720015416156134e8565b82845281815261127160026040862001544211613530565b82845281815242600360408620015411156113a95782845281815260016040852001543411156113655782845281815283808080604081206001808060a01b03825416910154905af16112c261357c565b501561132a57828452526040808320346001820181905581546001600160a01b0319163390811790925582519384526020840191909152908201527f8108a40c809d4e4f749358511f7baa90a1259a19024e438f728276ccd4c9368690606090a16001815580f35b6064906040519062461bcd60e51b8252600482015260146024820152732330b4b632b2103a379039b2b7321022ba3432b960611b6044820152fd5b6064906040519062461bcd60e51b82526004820152601b60248201527f6869676865722062696420616c7265616479206578697374696e6700000000006044820152fd5b6064906040519062461bcd60e51b825260048201526019602482015278185d58dd1a5bdb881a185cc8185b1c9958591e48195b991959603a1b6044820152fd5b503461023457602036600319011261023457604060a091600435815261104c60205220600180831b0381541690600181015490600281015460ff60046003840154930154169260405194855260208501526040840152606083015215156080820152f35b5034610234576060366003190112610234576001600160401b0390600435828111610cf857611480903690600401612847565b60249081358581116116d65761149a903690600401612847565b919060449687359081116116d2576114b6903690600401612847565b949097848414806116c9575b1561167657875b848110611582575050506114df83828488612d6c565b855b8281106114ec578680f35b6114f781868a612cb4565b359060ff8061150a6102c884888c612cb4565b16895260206008815260408a2090826115276102c8868b8a612cb4565b166000525260019283604060002001556115456102c883878b612cb4565b90806115556102c8858a89612cb4565b1691167f1c362b7fc7c4865e1e7ede89f240549bbd8b5ee43b51383c9c0392687d6d10ec8a80a3016114e1565b6115a16115936102c883888c612cb4565b6102db6102c8848a89612cb4565b6116385760ff806115b66102c884898d612cb4565b168a526020906008825260408b20906115d36102c8858b8a612cb4565b1660005281523360018060a01b0360406000205416036115f657506001016114c9565b6064907f6f6e6c79206f776e65722063616e2073657420706978656c2076616c7565000084601e876040519462461bcd60e51b86526004860152840152820152fd5b60405162461bcd60e51b815260206004820152601881850152774120706978656c206973206f7574206f6620626f756e647360401b81840152606490fd5b907f696e70757420617272617973206d757374206265206f66207468652073616d6560849260276040519362461bcd60e51b85526020600486015284015282015266040d8cadccee8d60cb1b6064820152fd5b508584146114c2565b8680fd5b8480fd5b503461023457602080600319360112610cf85760043580151581036118d05760035462054600906203f4808261171083426132c1565b061061188f573385526110498452604085205490811561183a578261173582426132c1565b04865261104a938486526002604088200133600052865260ff6040600020541661180557839190156117dc575061176e600354426132c1565b04855282845261178360408620918254612994565b90555b611792600354426132c1565b0483528152600260408320019033600052526040600020600160ff19825416179055337f7ce969a18bb6b0fba42c6d9746e7d08eeca4c661809659c91d276456e3153ac08280a280f35b6117e690426132c1565b0485528284526117fe60016040872001918254612994565b9055611786565b60405162461bcd60e51b815260048101879052600d60248201526c185b1c9958591e481d9bdd1959609a1b6044820152606490fd5b60405162461bcd60e51b815260048101869052602760248201527f6e6f20706978656c73206f776e6564203d206e6f20766f74657320746f2062656044820152660818d85cdd195960ca1b6064820152608490fd5b60405162461bcd60e51b81526004810185905260196024820152782b37ba34b7339031bab93932b73a363c903737ba1037b832b760391b6044820152606490fd5b8280fd5b50346102345760403660031901126102345760206118fb6118f3612819565b610414612829565b604051908152f35b6129a1565b6129bf565b503461023457602036600319011261023457611927612968565b6002546001600160a01b03919061194190831633146132ce565b1660018060a01b0319600454161760045580f35b503461023457602080600319360112610cf857600435906205460061197c600354426132c1565b04821015611b445781835261104a8082526119a1604085206001815491015490612994565b908115611b0f57838552825260408420549060011c106119bf578280f35b6001546001600160a01b03929084908416803b15610cf8578180916024604051809481936335313c2160e11b83523060048401525af18015611b0457611aec575b50506004927fd9dc24857f317ed9abbbb42e920ede0104231eb1d3d70236a74887ffaf159868838093604051908152a160015416604051938480926318160ddd60e01b82525afa918215611ae1578392611ab2575b506000198201918211611a9e5781835261104b815242604084205561104c9081815242600260408620015561fd204201928342116111f057845252600360408320015538808280f35b634e487b7160e01b83526011600452602483fd5b9080925081813d8311611ada575b611aca8183612a5e565b8101031261081a57519038611a55565b503d611ac0565b6040513d85823e3d90fd5b611af590612a15565b611b00578338611a00565b8380fd5b6040513d84823e3d90fd5b60405162461bcd60e51b815260048101849052600d60248201526c139bc81d9bdd195cc818d85cdd609a1b6044820152606490fd5b6084906040519062461bcd60e51b82526004820152603660248201527f636865636b20766f7465206f7574636f6d6573206f6e6c7920706f737369626c6044820152756520666f7220636f6e636c75646564206379636c657360501b6064820152fd5b503461023457806003193601126102345760206203f48062054600611bce600354426132c1565b0610604051908152f35b50346102345780600319360112610234576002546040516001600160a01b039091168152602090f35b5034610234576040366003190112610234576040611c1d61297e565b9160043581526006602052209060018060a01b03166000526020526020604060002054604051908152f35b50346102345760209081600319360112610234576001600160401b03916004358381116118d057611c7d903690600401612847565b90936203f48062054600611c93600354426132c1565b06101561210a576040519461082086018681108382111761102957604052604086526108003685880137845b838110611dcb5750505050815b60ff908181166040811015611dc757611ce59086612c8a565b51611cf4575b60010116611ccc565b604051611d0081612a43565b848152613fc08260061b16806040019081604011611db357905b808210611d585750506040821015611d445790611d3d6001928261100901612b66565b9050611ceb565b634e487b7160e01b85526032600452602485fd5b9091611000831015611d9f5785611d93611d9992610fdd6040519382611d8786945180928480880191016128c1565b83010187600901613d33565b92612b3c565b90611d1a565b634e487b7160e01b87526032600452602487fd5b634e487b7160e01b87526011600452602487fd5b8480f35b8060051b820135601e19833603018112156116d2578201803590848211612106578681019180360383136121025781018781019260809183900382136120fe57611e1490612839565b611e2060408401612839565b92611e2d60608201612839565b92810135908882116120f6570184603f820112156120fa578981013590611e5382612b4b565b95611e616040519788612a5e565b828752604083830101116120f657818c9260408d93018389013786010152611e89838261344a565b610a3c5760ff600a81841610156120b85780821693848c52600891828c5260408d209681831697886000528d52816004604060002001541661205b57868e52838d526040808f2060008a8152908f5220548e908e906001600160a01b03163314611f06575b50505050505050505050611f0190612b3c565b611cbf565b90856040928a83528181528383208c6000528152611f2b600295868660002001612b66565b8a835252206000898152908e5260409020805460ff60a01b191660a097881b60ff60a01b1617905560c0600684901b90811690613fc016810361204557870190828211612045578d8f8480809516998b8352888452604083208d6000528452604060002054901c1697611f9d90612c75565b95611fa790612c75565b968a8252825260409020908a60005252604060002001611fc690612a7f565b93169116611fd3936135cf565b9061100081101561203157611f0194939291611ff191600901612b66565b6001611ffd838c612c8a565b527fa9a418da632d42c446a125f10b007831ba0e348168b6b2474a2383ac5df4c2808980a390388080808080808d8d611eee565b634e487b7160e01b8a52603260045260248afd5b634e487b7160e01b600052601160045260246000fd5b60405162461bcd60e51b8152600481018e9052602f60248201527f6f776e6572207761732061736b656420746f20666972737420736574746c652060448201526e1c9bde585b1d1e481c185e5b595b9d608a1b6064820152608490fd5b60405162461bcd60e51b8152600481018b905260166024820152757368617065204944206e6f7420617661696c61626c6560501b6044820152606490fd5b8b80fd5b8a80fd5b8980fd5b8880fd5b8780fd5b60405162461bcd60e51b815260048101849052602260248201527f417274697374696320706572696f642063757272656e746c79206e6f74206f7060448201526132b760f11b6064820152608490fd5b50346102345761217561216c36612877565b92919091612d6c565b80f35b50346102345760203660031901126102345760408091600435815261104a602052206001815491015482519182526020820152f35b5034610234576020908160031936011261023457600435906121cd6135ac565b81815261104c9182845260ff926121ed84600460408620015416156134e8565b81835280855261220560026040852001544211613530565b81835280855242600360408520015410156124e2578183528085526040832080546001600160a01b039491908516908161242857505090604051603f8088830183612270334442859160549391835260208301526001600160601b03199060601b1660408201520190565b0393612284601f1995868101835282612a5e565b51902016916040516122ca8a820192826122be334442889160549391835260208301526001600160601b03199060601b1660408201520190565b03908101835282612a5e565b5190201691848452875260046040842001600160ff19825416179055846001541681845260088852604084208360005288528560406000205416813b156116d6578561233092869283604051809681958294632142170760e11b84523060048501612d4a565b03925af1801561241d57908491612409575b505260088652604082209060005285527fd2aa34a4fdbbc6dff6a3e56f46e0f3ae2a31d7785ff3487aa5c95c642acea501606084604060002054166040519085825288820152836040820152a15b80945b84861693604085101561240157825b86811660408110156123f057868552600884526040808620600092835285528082205484168087526110498652818720548888526006875282882091845290865291205560010186166123a2565b505093509460018591011694612393565b826001815580f35b61241290612a15565b6118d0578238612342565b6040513d86823e3d90fd5b600401600160ff19825416179055846001541690813b156118d0578461246892849283604051809681958294632142170760e11b84523060048501612d4a565b03925af18015611b04576124d3575b508281529085526040808220805460019091015482518581529186166001600160a01b03166020830152918101919091527fd2aa34a4fdbbc6dff6a3e56f46e0f3ae2a31d7785ff3487aa5c95c642acea50190606090a1612390565b6124dc90612a15565b38612477565b60405162461bcd60e51b8152600481018690526015602482015274185d58dd1a5bdb881b9bdd08195b991959081e595d605a1b6044820152606490fd5b503461023457604036600319011261023457604060209161253e61297e565b6004358252600684528282206001600160a01b03909116825283522054604051908152f35b50346102345780600319360112610234576020604051620546008152f35b50346102345760203660031901126102345760ff60406020926125a2612968565b620546006125b2600354426132c1565b04825261104a85528282206001600160a01b03909116825260020184522054604051911615158152f35b5034610234576125eb36612877565b6125f88184959414612cd2565b61260184612b25565b9361260f6040519586612a5e565b808552601f1961261e82612b25565b01865b8181106126cf575050855b8181106126915760408051602080825288518183018190528a93600582901b8401810192808c01929185015b8287106126655785850386f35b909192938280612681600193603f198a82030186528851612909565b9601920196019592919092612658565b806126b36126a56102c8600194868a612cb4565b610ae96102c884888a612cb4565b6126bd8289612c8a565b526126c88188612c8a565b500161262c565b6020906126da61332f565b82828a01015201612621565b503461023457606036600319011261023457612700612819565b60ff61270a612829565b9161272060018060a01b036002541633146132ce565b16808352600860209181835260ff60408620941693848652835260ff600460408720015416806127d9575b156127a05780855281835260408520848652835260443560016040872001558085528183526040852084865283526004604086200160ff19815416905584528152604083209183525280600560408220015580f35b80855281835260408520848652835260046040862001600160ff1982541617905584528152604083209183525242600560408320015580f35b5080855281835260408520848652835260056040862001546203f480810180911161280557421161274b565b634e487b7160e01b86526011600452602486fd5b6004359060ff8216820361081a57565b6024359060ff8216820361081a57565b359060ff8216820361081a57565b9181601f8401121561081a578235916001600160401b03831161081a576020808501948460051b01011161081a57565b604060031982011261081a576001600160401b039160043583811161081a57826128a391600401612847565b9390939260243591821161081a576128bd91600401612847565b9091565b60005b8381106128d45750506000910152565b81810151838201526020016128c4565b906020916128fd815180928185528580860191016128c1565b601f01601f1916010190565b9060018060a01b03825116815260ff60208301511660208201526040820151604082015260c080612949606085015160e0606086015260e08501906128e4565b936080810151608085015260a0810151151560a0850152015191015290565b600435906001600160a01b038216820361081a57565b602435906001600160a01b038216820361081a57565b9190820180921161204557565b3461081a57600036600319011261081a5760206040516203f4808152f35b3461081a57600036600319011261081a57602060405160408152f35b90600182811c92168015612a0b575b60208310146129f557565b634e487b7160e01b600052602260045260246000fd5b91607f16916129ea565b6001600160401b03811161102957604052565b60e081019081106001600160401b0382111761102957604052565b602081019081106001600160401b0382111761102957604052565b90601f801991011681019081106001600160401b0382111761102957604052565b9060405191826000825492612a93846129db565b908184526001948581169081600014612b025750600114612abf575b5050612abd92500383612a5e565b565b9093915060005260209081600020936000915b818310612aea575050612abd93508201013880612aaf565b85548884018501529485019487945091830191612ad2565b915050612abd94506020925060ff191682840152151560051b8201013880612aaf565b6001600160401b0381116110295760051b60200190565b60001981146120455760010190565b6001600160401b03811161102957601f01601f191660200190565b91909182516001600160401b03811161102957612b8382546129db565b601f8111612c2d575b50602080601f8311600114612bc9575081929394600092612bbe575b50508160011b916000199060031b1c1916179055565b015190503880612ba8565b90601f198316958460005282600020926000905b888210612c1557505083600195969710612bfc575b505050811b019055565b015160001960f88460031b161c19169055388080612bf2565b80600185968294968601518155019501930190612bdd565b600083815260208120601f840160051c81019260208510612c6b575b601f0160051c01915b828110612c60575050612b8c565b818155600101612c52565b9092508290612c49565b60ff60099116029060ff821691820361204557565b8051821015612c9e5760209160051b010190565b634e487b7160e01b600052603260045260246000fd5b9190811015612c9e5760051b0190565b3560ff8116810361081a5790565b15612cd957565b60405162461bcd60e51b815260206004820152602b60248201527f7820616e64207920696e7075742061727261797320617265206f66207661726960448201526a6f7573206c656e6774687360a81b6064820152608490fd5b9081602091031261081a5751801515810361081a5790565b6001600160a01b03918216815291166020820152604081019190915260600190565b919091612d7a848414612cd2565b60005b838110612d8b575050505050565b612daa612d9c6102c8838786612cb4565b6102db6102c8848988612cb4565b610a3c5760ff80612dbf6102c8848887612cb4565b166000526008602081815260408060002084612ddf6102c8888d8c612cb4565b16600052825260018060a01b03913383836000205416036131c45784612e096102c8888c8b612cb4565b166000528381528985612e246102c88986600020948d612cb4565b1660005281526003888b8b8a428588600020015403612e56575b50505050505050505050612e5190612b3c565b612d7d565b8a612e769493612e706102c883610414966102c896612cb4565b94612cb4565b600494808654169085516370a0823160e01b8152338882015260249086818381875afa90811561313857908591600091613194575b5010613143578651636eb1769f60e11b8152338982019081523060208201528790829081906040010381875afa90811561313857908591600091613108575b50106130b75750918491612f1a9360025416600088518096819582946323b872dd60e01b84528d33908501612d4a565b03925af180156130ac57968b8a8a8f8e96859b9a999896612e519e9d61308f575b5085612f4b6102c8858888612cb4565b166000528a87528860002086612f656102c886868d612cb4565b166000528752429089600020015584612f826102c8848787612cb4565b166000528986528760002085612f9c6102c885858c612cb4565b16600052865284898960002001541661300e575b5095509250925050612fc794506102c89350612cb4565b9080612fd76102c8858b8a612cb4565b1691167fe61af2269c9afbdb69efce2b15f2a464f8ee6237f105b3d4024f2e824a9f0af3600080a3903880808080888b8b8a612e3e565b898561306a6102c8858860009f9860059f8f8f8f896130789f6102c89f898f6102c892856130436102c885613054988f612cb4565b166000528652600088902096612cb4565b16600052526000200160ff198154169055612cb4565b168b528652878a2096612cb4565b16855252822001553880808781858b8a898f612fb0565b6130a590883d8a1161079e5761078f8183612a5e565b5038612f3b565b84513d6000823e3d90fd5b876027608492888a519362461bcd60e51b85528401528201527f696e73756666696369656e7420616c6c6f77616e636520746f2070617920726f60448201526679616c7469657360c81b6064820152fd5b91508782813d8311613131575b61311f8183612a5e565b81010312610234575084905138612eea565b503d613115565b88513d6000823e3d90fd5b876027608492888a519362461bcd60e51b85528401528201527f6e6f742073756666696369656e742062616c616e636520746f2070617920726f60448201526679616c7469657360c81b6064820152fd5b91508782813d83116131bd575b6131ab8183612a5e565b81010312610234575084905138612eab565b503d6131a1565b608491519062461bcd60e51b82526004820152602260248201527f6f6e6c7920706978656c206f776e65722063616e2070617920726f79616c7469604482015261657360f01b6064820152fd5b1561321857565b60405162461bcd60e51b815260206004820152602360248201527f6e6f742073756666696369656e742062616c616e636520746f206275792070696044820152621e195b60ea1b6064820152608490fd5b1561327057565b60405162461bcd60e51b815260206004820152602360248201527f696e73756666696369656e7420616c6c6f77616e636520746f206275792070696044820152621e195b60ea1b6064820152608490fd5b9190820391821161204557565b156132d557565b60405162461bcd60e51b815260206004820152602c60248201527f6f776e65722063757272656e74206d616e616765722063616e2063616c6c207460448201526b3434b990333ab731ba34b7b760a11b6064820152608490fd5b6040519061333c82612a28565b8160c06000918281528260208201528260408201526060808201528260808201528260a08201520152565b60ff9061337261332f565b5016906040918281108061343e575b1561340457600052600860205260ff8260002091166000526020526005816000208251926133ae84612a28565b81546001600160a01b038116855260a01c60ff1660208501526001820154908401526133dc60028201612a7f565b60608401526003810154608084015260ff600482015416151560a0840152015460c082015290565b825162461bcd60e51b8152602060048201526013602482015272706978656c206f7574206f6620626f756e647360681b6044820152606490fd5b508260ff831610613381565b60ff60409116109081159161345d575090565b6040915060ff16101590565b8181029291811591840414171561204557565b6134d564073df16000926001604060ff6134e4951692600090848252600860205260ff8383209116908183526020526134bb60038484200154426132c1565b948252600860205282822090825260205220015490613469565b60ff60025460a01c1690613469565b0490565b156134ef57565b60405162461bcd60e51b815260206004820152601960248201527861756374696f6e2068617320656e64656420616c726561647960381b6044820152606490fd5b1561353757565b60405162461bcd60e51b815260206004820152601b60248201527f61756374696f6e20686173206e6f7420737461727465642079657400000000006044820152606490fd5b3d156135a7573d9061358d82612b4b565b9161359b6040519384612a5e565b82523d6000602084013e565b606090565b6002600054146135bd576002600055565b604051633ee5aeb560e01b8152600490fd5b60ff9093919316918215613c775760018314613ba85760028314613b7e5760038314613b2257600492838114613ace5760058114613971576006811461391f57600781146138b857600881146137d55760091461363d575050505060405161363681612a43565b6000815290565b61364684613db6565b9061365081613db6565b600886018087116137c05761366490613db6565b94600883018093116137ab57509161378c826137a8969461369961369361368d60499997613db6565b9a613db6565b92613db6565b91604051998a97602a6136c98a602099693c7061746820643d224d60b01b8b8301528a81519485930191016128c1565b890193600160fd1b9485602a8201526136eb825180938b602b850191016128c1565b016b010209c101c101810181018960a51b602b820152613714825180938a6037850191016128c1565b0183603782015261372e82518093896038850191016128c1565b0161081360f21b603882015261374d8251809388603a850191016128c1565b0190603a8201526137678251809386603b850191016128c1565b019169102d11103334b6361e9160b11b603b84015283519384916045850191016128c1565b01631110179f60e11b6045820152036029810184520182612a5e565b90565b601190634e487b7160e01b6000525260246000fd5b601186634e487b7160e01b6000525260246000fd5b509260088101938482116138a3576137ec85613db6565b916137ff6137f983613db6565b91613db6565b94600883018093116137ab57509161378c826137a8969461382861369361368d60499997613db6565b91604051998a97602a6138588a602099693c7061746820643d224d60b01b8b8301528a81519485930191016128c1565b890193600160fd1b9485602a82015261387a825180938b602b850191016128c1565b016b010209c101c101810181018160a51b602b820152613714825180938a6037850191016128c1565b601184634e487b7160e01b6000525260246000fd5b506138c284613db6565b906138cc81613db6565b6008860180961161390a576138e086613db6565b9460088301908184116137ab5750604994926137a896949261382861369361368d61378c95613db6565b601185634e487b7160e01b6000525260246000fd5b5061392984613db6565b906008810180821161390a5761393e90613db6565b9360088601908187116137ab57509161378c604994926139616137a89795613db6565b9461382861369361368d84613db6565b509261397c81613db6565b90600885019081861161390a5761399282613db6565b906139a561399f82613db6565b97613db6565b95600882018092116137ab5750603f94926137a89694926139cb613693613ab294613db6565b91604051998a97602a6139fb8a602099693c7061746820643d224d60b01b8b8301528a81519485930191016128c1565b890193600160fd1b9485602a820152613a1d825180938b602b850191016128c1565b019161081360f21b9283602b820152613a3f825180938b602d850191016128c1565b0184602d820152613a59825180938a602e850191016128c1565b0190602e820152613a7382518093886030850191016128c1565b01906030820152613a8d82518093866031850191016128c1565b019169103d11103334b6361e9160b11b60318401528351938491603b850191016128c1565b01631110179f60e11b603b82015203601f810184520182612a5e565b50929160088301908184116137ab57613ae682613db6565b9160088601918287116137ab575091613ab2826137a896946139cb61369361399f613b1c613b16603f9b99613db6565b94613db6565b9b613db6565b9150613b2d83613db6565b92613b3783613db6565b916008820180921161204557613b4c82613db6565b94613b5f613b5986613db6565b93613db6565b9460088101809111612045576137a895603f956139cb613ab293613db6565b9150613b8983613db6565b92613b9383613db6565b916008820180831161204557613b4c90613db6565b9150916004810180911161204557613bbf90613db6565b9060048101809111612045576137a891613bda604492613db6565b936040519485926b1e31b4b931b6329031bc1e9160a11b6020850152613c0a815180926020602c880191016128c1565b830165111031bc9e9160d11b602c820152613c2f8251809360206032850191016128c1565b016d1110391e911a11103334b6361e9160911b6032820152613c5b8251809360206040850191016128c1565b01631110179f60e11b6040820152036024810184520182612a5e565b6137a89250613c8b6137f9604f9395613db6565b93604051948592681e3932b1ba103c1e9160b91b6020850152613cb88151809260206029880191016128c1565b83016411103c9e9160d91b6029820152613cdc825180936020602e850191016128c1565b017f222077696474683d223822206865696768743d2238222066696c6c3d22000000602e820152613d17825180936020604b850191016128c1565b01631110179f60e11b604b82015203602f810184520182612a5e565b600092918154613d42816129db565b92600191808316908115613d9b5750600114613d5f575b50505050565b90919293945060005260209081600020906000915b858310613d8a5750505050019038808080613d59565b805485840152918301918101613d74565b60ff1916845250505081151590910201915038808080613d59565b8015613e765780816000925b613e62575080613dd183612b4b565b92613ddf6040519485612a5e565b808452601f19613dee82612b4b565b01366020860137915b613e0057505090565b6000198201918083116120455782600a908184049382850292858404148515171561204557613e3260ff9384926132c1565b166030019182116120455785511115612c9e5760f81b6001600160f81b03191660001a908401601f015380613df7565b91613e6e600a91612b3c565b920480613dc2565b50604051604081018181106001600160401b038211176110295760405260018152600360fc1b60208201529056fea26469706673582212206053c1ed8a669095460c86e1ab3922b1b09b00d357b6b9aac97ce6c5cc60478b64736f6c634300081400336080806040523461001657610794908161001c8239f35b600080fdfe6080604052600436101561001257600080fd5b6000803560e01c9081632e08d6021461007a5750806358161a4214610075578063b861619514610070578063cf06c7b71461006b578063dd1d2599146100665763e27d51531461006157600080fd5b6103f7565b6103d6565b6103b0565b6102bb565b61020d565b346101515760203660031901126101515760043567ffffffffffffffff811161014d576100ab9036906004016101ad565b600180825111156100fc57805b6100de575b6100da6100c98361045a565b516040519081529081906020820190565b0390f35b80825111156100f7576100f18192610511565b916100b8565b6100bd565b60405162461bcd60e51b815260206004820152602360248201527f776f6e27742067656e657261746520726f6f7420666f722073696e676c65206c60448201526232b0b360e91b6064820152608490fd5b5080fd5b80fd5b634e487b7160e01b600052604160045260246000fd5b6040519190601f01601f1916820167ffffffffffffffff81118382101761019057604052565b610154565b67ffffffffffffffff81116101905760051b60200190565b9080601f83011215610208578135906101cd6101c883610195565b61016a565b9182938184526020808095019260051b820101928311610208578301905b8282106101f9575050505090565b813581529083019083016101eb565b600080fd5b346102085760603660031901126102085760243567ffffffffffffffff81116102085761023e9036906004016101ad565b60443581516000925b81841061025d5760405160043584148152602090f35b909161027660019161026f868561047d565b5190610437565b9301929190610247565b6020908160408183019282815285518094520193019160005b8281106102a7575050505090565b835185529381019392810192600101610299565b346102085760403660031901126102085760043567ffffffffffffffff8111610208576102ec9036906004016101ad565b602435906001906102ff82825111610491565b61031161030c8251610632565b6104e9565b92600080845b61032a575b604051806100da8882610280565b8351858111156103aa578584939261036f92828080981614600014610379575061035860001986018861047d565b51610363828b61047d565b525b0192841c94610511565b9392919091610317565b85830190810361039557508361038f828b61047d565b52610365565b61039f908861047d565b5161038f828b61047d565b5061031c565b346102085760203660031901126102085760206103ce600435610632565b604051908152f35b346102085760403660031901126102085760206103ce602435600435610437565b3461020857602036600319011261020857600435806000815b61042a576020925060405191806001811901161490038152f35b600192831c920182610410565b8181101561044e576000526020525b604060002090565b90600052602052610446565b8051156104675760200190565b634e487b7160e01b600052603260045260246000fd5b80518210156104675760209160051b010190565b1561049857565b60405162461bcd60e51b8152602060048201526024808201527f776f6e27742067656e65726174652070726f6f6620666f722073696e676c65206044820152633632b0b360e11b6064820152608490fd5b906104f66101c883610195565b8281528092610507601f1991610195565b0190602036910137565b90815160019081808216146000146105a9576105308282811c016104e9565b916000196105408382018761047d565b516000805260205261055a6040600020918551018561047d565b525b600019909101906000805b8382106105775750929450505050565b82600291610595610588858b61047d565b5161026f8487018c61047d565b61059f828961047d565b5201910190610567565b6105b481831c6104e9565b9161055c565b90604082018092116105c857565b634e487b7160e01b600052601160045260246000fd5b90602082018092116105c857565b90601082018092116105c857565b90600882018092116105c857565b90600482018092116105c857565b90600282018092116105c857565b90600182018092116105c857565b60018111156107585760009080600160801b81101561074d575b600290600160401b81101561073a575b640100000000811015610727575b62010000811015610714575b610100811015610701575b60108110156106ee575b60048110156106dc575b10156106cc575b806106a78119610624565b1614806106c3575b156106b75790565b6106c090610624565b90565b508015156106af565b906106d690610624565b9061069c565b6106e890821c93610616565b92610695565b6106fb9060041c93610608565b9261068b565b61070e9060081c936105fa565b92610681565b6107219060101c936105ec565b92610676565b6107349060201c936105de565b9261066a565b6107479060401c936105ba565b9261065c565b60809250821c61064c565b5060009056fea264697066735822122029596db90313b4fb257efd2fbf9ba954b5a2054bf304a0aa15f5e78439e12f4364736f6c63430008140033",
  "linkReferences": {},
  "deployedLinkReferences": {}
}