{
  "_format": "hh-sol-artifact-1",
  "contractName": "Pixelmap",
  "sourceName": "contracts/Pixelmap.sol",
  "abi": [
    {
      "inputs": [],
      "stateMutability": "nonpayable",
      "type": "constructor"
    },
    {
      "inputs": [],
      "name": "ReentrancyGuardReentrantCall",
      "type": "error"
    },
    {
      "anonymous": false,
      "inputs": [
        {
          "indexed": false,
          "internalType": "uint256",
          "name": "tokenID",
          "type": "uint256"
        },
        {
          "indexed": false,
          "internalType": "address",
          "name": "bidder",
          "type": "address"
        },
        {
          "indexed": false,
          "internalType": "uint256",
          "name": "bid",
          "type": "uint256"
        }
      ],
      "name": "AuctionEnded",
      "type": "event"
    },
    {
      "anonymous": false,
      "inputs": [
        {
          "indexed": false,
          "internalType": "uint256",
          "name": "tokenID",
          "type": "uint256"
        },
        {
          "indexed": false,
          "internalType": "address",
          "name": "bidder",
          "type": "address"
        },
        {
          "indexed": false,
          "internalType": "uint256",
          "name": "bid",
          "type": "uint256"
        }
      ],
      "name": "BidPlace",
      "type": "event"
    },
    {
      "anonymous": false,
      "inputs": [
        {
          "indexed": false,
          "internalType": "uint256",
          "name": "tokenID",
          "type": "uint256"
        },
        {
          "indexed": false,
          "internalType": "address",
          "name": "bidder",
          "type": "address"
        },
        {
          "indexed": false,
          "internalType": "uint256",
          "name": "bid",
          "type": "uint256"
        }
      ],
      "name": "BidWithdrawn",
      "type": "event"
    },
    {
      "anonymous": false,
      "inputs": [
        {
          "indexed": false,
          "internalType": "uint32",
          "name": "cycle",
          "type": "uint32"
        }
      ],
      "name": "NFTMinted",
      "type": "event"
    },
    {
      "anonymous": false,
      "inputs": [
        {
          "indexed": true,
          "internalType": "uint8",
          "name": "x",
          "type": "uint8"
        },
        {
          "indexed": true,
          "internalType": "uint8",
          "name": "y",
          "type": "uint8"
        }
      ],
      "name": "PixelBought",
      "type": "event"
    },
    {
      "anonymous": false,
      "inputs": [
        {
          "indexed": true,
          "internalType": "uint8",
          "name": "x",
          "type": "uint8"
        },
        {
          "indexed": true,
          "internalType": "uint8",
          "name": "y",
          "type": "uint8"
        }
      ],
      "name": "PixelFilled",
      "type": "event"
    },
    {
      "anonymous": false,
      "inputs": [
        {
          "indexed": true,
          "internalType": "uint8",
          "name": "x",
          "type": "uint8"
        },
        {
          "indexed": true,
          "internalType": "uint8",
          "name": "y",
          "type": "uint8"
        }
      ],
      "name": "PixelValueSet",
      "type": "event"
    },
    {
      "anonymous": false,
      "inputs": [
        {
          "indexed": true,
          "internalType": "uint8",
          "name": "x",
          "type": "uint8"
        },
        {
          "indexed": true,
          "internalType": "uint8",
          "name": "y",
          "type": "uint8"
        }
      ],
      "name": "RoyaltiesPaid",
      "type": "event"
    },
    {
      "anonymous": false,
      "inputs": [
        {
          "indexed": true,
          "internalType": "address",
          "name": "owner",
          "type": "address"
        }
      ],
      "name": "VoteCasted",
      "type": "event"
    },
    {
      "inputs": [],
      "name": "ARTISTIC_PERIOD",
      "outputs": [
        {
          "internalType": "uint256",
          "name": "",
          "type": "uint256"
        }
      ],
      "stateMutability": "view",
      "type": "function"
    },
    {
      "inputs": [],
      "name": "AUCTION_DURATION",
      "outputs": [
        {
          "internalType": "uint256",
          "name": "",
          "type": "uint256"
        }
      ],
      "stateMutability": "view",
      "type": "function"
    },
    {
      "inputs": [],
      "name": "CYCLE_PERIOD",
      "outputs": [
        {
          "internalType": "uint256",
          "name": "",
          "type": "uint256"
        }
      ],
      "stateMutability": "view",
      "type": "function"
    },
    {
      "inputs": [],
      "name": "VOTING_PERIOD",
      "outputs": [
        {
          "internalType": "uint256",
          "name": "",
          "type": "uint256"
        }
      ],
      "stateMutability": "view",
      "type": "function"
    },
    {
      "inputs": [
        {
          "internalType": "address",
          "name": "",
          "type": "address"
        }
      ],
      "name": "balanceOf",
      "outputs": [
        {
          "internalType": "uint16",
          "name": "",
          "type": "uint16"
        }
      ],
      "stateMutability": "view",
      "type": "function"
    },
    {
      "inputs": [
        {
          "internalType": "uint8[]",
          "name": "xValues",
          "type": "uint8[]"
        },
        {
          "internalType": "uint8[]",
          "name": "yValues",
          "type": "uint8[]"
        }
      ],
      "name": "buyPixel",
      "outputs": [],
      "stateMutability": "nonpayable",
      "type": "function"
    },
    {
      "inputs": [
        {
          "internalType": "uint8",
          "name": "x",
          "type": "uint8"
        },
        {
          "internalType": "uint8",
          "name": "y",
          "type": "uint8"
        }
      ],
      "name": "calculateRoyalties",
      "outputs": [
        {
          "internalType": "uint256",
          "name": "",
          "type": "uint256"
        }
      ],
      "stateMutability": "view",
      "type": "function"
    },
    {
      "inputs": [],
      "name": "canvasCreation",
      "outputs": [
        {
          "internalType": "uint256",
          "name": "",
          "type": "uint256"
        }
      ],
      "stateMutability": "view",
      "type": "function"
    },
    {
      "inputs": [
        {
          "internalType": "bool",
          "name": "vote",
          "type": "bool"
        }
      ],
      "name": "castVote",
      "outputs": [],
      "stateMutability": "nonpayable",
      "type": "function"
    },
    {
      "inputs": [
        {
          "internalType": "uint8[]",
          "name": "xValues",
          "type": "uint8[]"
        },
        {
          "internalType": "uint8[]",
          "name": "yValues",
          "type": "uint8[]"
        }
      ],
      "name": "checkMultiplePixel",
      "outputs": [
        {
          "components": [
            {
              "internalType": "address",
              "name": "owner",
              "type": "address"
            },
            {
              "internalType": "uint8",
              "name": "shapeID",
              "type": "uint8"
            },
            {
              "internalType": "uint256",
              "name": "price",
              "type": "uint256"
            },
            {
              "internalType": "string",
              "name": "color",
              "type": "string"
            },
            {
              "internalType": "uint256",
              "name": "royaltyLastPaid",
              "type": "uint256"
            },
            {
              "internalType": "bool",
              "name": "askedToPayRoyalties",
              "type": "bool"
            },
            {
              "internalType": "uint256",
              "name": "royaltyAskDate",
              "type": "uint256"
            }
          ],
          "internalType": "struct Pixelmap.Pixel[]",
          "name": "",
          "type": "tuple[]"
        }
      ],
      "stateMutability": "view",
      "type": "function"
    },
    {
      "inputs": [
        {
          "internalType": "uint8",
          "name": "x",
          "type": "uint8"
        },
        {
          "internalType": "uint8",
          "name": "y",
          "type": "uint8"
        }
      ],
      "name": "checkPixel",
      "outputs": [
        {
          "components": [
            {
              "internalType": "address",
              "name": "owner",
              "type": "address"
            },
            {
              "internalType": "uint8",
              "name": "shapeID",
              "type": "uint8"
            },
            {
              "internalType": "uint256",
              "name": "price",
              "type": "uint256"
            },
            {
              "internalType": "string",
              "name": "color",
              "type": "string"
            },
            {
              "internalType": "uint256",
              "name": "royaltyLastPaid",
              "type": "uint256"
            },
            {
              "internalType": "bool",
              "name": "askedToPayRoyalties",
              "type": "bool"
            },
            {
              "internalType": "uint256",
              "name": "royaltyAskDate",
              "type": "uint256"
            }
          ],
          "internalType": "struct Pixelmap.Pixel",
          "name": "",
          "type": "tuple"
        }
      ],
      "stateMutability": "view",
      "type": "function"
    },
    {
      "inputs": [
        {
          "internalType": "uint32",
          "name": "_cycle",
          "type": "uint32"
        }
      ],
      "name": "checkVoteOutcome",
      "outputs": [],
      "stateMutability": "nonpayable",
      "type": "function"
    },
    {
      "inputs": [
        {
          "internalType": "uint256",
          "name": "_tokenID",
          "type": "uint256"
        }
      ],
      "name": "closeAuction",
      "outputs": [],
      "stateMutability": "nonpayable",
      "type": "function"
    },
    {
      "inputs": [
        {
          "internalType": "bytes[]",
          "name": "_pixels",
          "type": "bytes[]"
        }
      ],
      "name": "fillPixel",
      "outputs": [],
      "stateMutability": "nonpayable",
      "type": "function"
    },
    {
      "inputs": [],
      "name": "generateSVG",
      "outputs": [
        {
          "internalType": "string",
          "name": "",
          "type": "string"
        }
      ],
      "stateMutability": "view",
      "type": "function"
    },
    {
      "inputs": [
        {
          "internalType": "address",
          "name": "_owner",
          "type": "address"
        }
      ],
      "name": "getBalance",
      "outputs": [
        {
          "internalType": "uint256",
          "name": "",
          "type": "uint256"
        }
      ],
      "stateMutability": "view",
      "type": "function"
    },
    {
      "inputs": [],
      "name": "getCurrentCycle",
      "outputs": [
        {
          "internalType": "uint256",
          "name": "",
          "type": "uint256"
        }
      ],
      "stateMutability": "view",
      "type": "function"
    },
    {
      "inputs": [
        {
          "internalType": "uint256",
          "name": "_tokenID",
          "type": "uint256"
        }
      ],
      "name": "getMintDate",
      "outputs": [
        {
          "internalType": "uint256",
          "name": "",
          "type": "uint256"
        }
      ],
      "stateMutability": "view",
      "type": "function"
    },
    {
      "inputs": [
        {
          "internalType": "address",
          "name": "_owner",
          "type": "address"
        }
      ],
      "name": "hasVoted",
      "outputs": [
        {
          "internalType": "bool",
          "name": "",
          "type": "bool"
        }
      ],
      "stateMutability": "view",
      "type": "function"
    },
    {
      "inputs": [],
      "name": "isInArtisticPeriod",
      "outputs": [
        {
          "internalType": "bool",
          "name": "",
          "type": "bool"
        }
      ],
      "stateMutability": "view",
      "type": "function"
    },
    {
      "inputs": [],
      "name": "isInVotingPeriod",
      "outputs": [
        {
          "internalType": "bool",
          "name": "",
          "type": "bool"
        }
      ],
      "stateMutability": "view",
      "type": "function"
    },
    {
      "inputs": [],
      "name": "manager",
      "outputs": [
        {
          "internalType": "address",
          "name": "",
          "type": "address"
        }
      ],
      "stateMutability": "view",
      "type": "function"
    },
    {
      "inputs": [],
      "name": "maxHeight",
      "outputs": [
        {
          "internalType": "uint8",
          "name": "",
          "type": "uint8"
        }
      ],
      "stateMutability": "view",
      "type": "function"
    },
    {
      "inputs": [],
      "name": "maxWidth",
      "outputs": [
        {
          "internalType": "uint8",
          "name": "",
          "type": "uint8"
        }
      ],
      "stateMutability": "view",
      "type": "function"
    },
    {
      "inputs": [
        {
          "internalType": "uint256",
          "name": "",
          "type": "uint256"
        }
      ],
      "name": "mintDates",
      "outputs": [
        {
          "internalType": "uint256",
          "name": "",
          "type": "uint256"
        }
      ],
      "stateMutability": "view",
      "type": "function"
    },
    {
      "inputs": [
        {
          "internalType": "uint256",
          "name": "",
          "type": "uint256"
        }
      ],
      "name": "nftAuctions",
      "outputs": [
        {
          "internalType": "address",
          "name": "winningAddr",
          "type": "address"
        },
        {
          "internalType": "uint256",
          "name": "winningBid",
          "type": "uint256"
        },
        {
          "internalType": "uint256",
          "name": "auctionStart",
          "type": "uint256"
        },
        {
          "internalType": "uint256",
          "name": "auctionEnd",
          "type": "uint256"
        },
        {
          "internalType": "bool",
          "name": "auctionEnded",
          "type": "bool"
        }
      ],
      "stateMutability": "view",
      "type": "function"
    },
    {
      "inputs": [],
      "name": "nftContract",
      "outputs": [
        {
          "internalType": "contract CanvasCollection",
          "name": "",
          "type": "address"
        }
      ],
      "stateMutability": "view",
      "type": "function"
    },
    {
      "inputs": [
        {
          "internalType": "uint8[]",
          "name": "xValues",
          "type": "uint8[]"
        },
        {
          "internalType": "uint8[]",
          "name": "yValues",
          "type": "uint8[]"
        }
      ],
      "name": "payRoyalties",
      "outputs": [],
      "stateMutability": "nonpayable",
      "type": "function"
    },
    {
      "inputs": [
        {
          "internalType": "uint256",
          "name": "",
          "type": "uint256"
        }
      ],
      "name": "pixelSVGs",
      "outputs": [
        {
          "internalType": "string",
          "name": "",
          "type": "string"
        }
      ],
      "stateMutability": "view",
      "type": "function"
    },
    {
      "inputs": [
        {
          "internalType": "uint256",
          "name": "_tokenID",
          "type": "uint256"
        }
      ],
      "name": "placeBid",
      "outputs": [],
      "stateMutability": "payable",
      "type": "function"
    },
    {
      "inputs": [
        {
          "internalType": "uint256",
          "name": "",
          "type": "uint256"
        }
      ],
      "name": "rowSVGs",
      "outputs": [
        {
          "internalType": "string",
          "name": "",
          "type": "string"
        }
      ],
      "stateMutability": "view",
      "type": "function"
    },
    {
      "inputs": [],
      "name": "royaltyAskPeriod",
      "outputs": [
        {
          "internalType": "uint256",
          "name": "",
          "type": "uint256"
        }
      ],
      "stateMutability": "view",
      "type": "function"
    },
    {
      "inputs": [],
      "name": "royaltyDenominator",
      "outputs": [
        {
          "internalType": "uint256",
          "name": "",
          "type": "uint256"
        }
      ],
      "stateMutability": "view",
      "type": "function"
    },
    {
      "inputs": [],
      "name": "royaltyRate",
      "outputs": [
        {
          "internalType": "uint8",
          "name": "",
          "type": "uint8"
        }
      ],
      "stateMutability": "view",
      "type": "function"
    },
    {
      "inputs": [
        {
          "internalType": "uint8",
          "name": "x",
          "type": "uint8"
        },
        {
          "internalType": "uint8",
          "name": "y",
          "type": "uint8"
        },
        {
          "internalType": "uint256",
          "name": "_price",
          "type": "uint256"
        }
      ],
      "name": "seekRoyaltyPayment",
      "outputs": [],
      "stateMutability": "nonpayable",
      "type": "function"
    },
    {
      "inputs": [
        {
          "internalType": "address",
          "name": "_nftContract",
          "type": "address"
        }
      ],
      "name": "setNFTContract",
      "outputs": [],
      "stateMutability": "nonpayable",
      "type": "function"
    },
    {
      "inputs": [
        {
          "internalType": "uint8[]",
          "name": "xValues",
          "type": "uint8[]"
        },
        {
          "internalType": "uint8[]",
          "name": "yValues",
          "type": "uint8[]"
        },
        {
          "internalType": "uint256[]",
          "name": "priceValues",
          "type": "uint256[]"
        }
      ],
      "name": "setPixelValue",
      "outputs": [],
      "stateMutability": "nonpayable",
      "type": "function"
    },
    {
      "inputs": [
        {
          "internalType": "address",
          "name": "_newToken",
          "type": "address"
        }
      ],
      "name": "updateCurrency",
      "outputs": [],
      "stateMutability": "nonpayable",
      "type": "function"
    },
    {
      "inputs": [
        {
          "internalType": "uint256",
          "name": "",
          "type": "uint256"
        }
      ],
      "name": "voteRegister",
      "outputs": [
        {
          "internalType": "uint16",
          "name": "yesVotes",
          "type": "uint16"
        },
        {
          "internalType": "uint16",
          "name": "noVotes",
          "type": "uint16"
        }
      ],
      "stateMutability": "view",
      "type": "function"
    },
    {
      "inputs": [
        {
          "internalType": "uint8",
          "name": "",
          "type": "uint8"
        },
        {
          "internalType": "uint8",
          "name": "",
          "type": "uint8"
        }
      ],
      "name": "window",
      "outputs": [
        {
          "internalType": "address",
          "name": "owner",
          "type": "address"
        },
        {
          "internalType": "uint8",
          "name": "shapeID",
          "type": "uint8"
        },
        {
          "internalType": "uint256",
          "name": "price",
          "type": "uint256"
        },
        {
          "internalType": "string",
          "name": "color",
          "type": "string"
        },
        {
          "internalType": "uint256",
          "name": "royaltyLastPaid",
          "type": "uint256"
        },
        {
          "internalType": "bool",
          "name": "askedToPayRoyalties",
          "type": "bool"
        },
        {
          "internalType": "uint256",
          "name": "royaltyAskDate",
          "type": "uint256"
        }
      ],
      "stateMutability": "view",
      "type": "function"
    }
  ],
  "bytecode": "0x6080806040523461005d57600160005560028054600480546001600160a01b03191673c02aaa39b223fe8d0a0e5c4f27ead9083c756cc21790556001600160a81b0319163317601960a11b179055426003556139f890816100638239f35b600080fdfe6080604052600436101561001257600080fd5b6000803560e01c806302d13f02146122015780630734d144146120ee57806309eef43e1461208f578063113bc99914612071578063236ed8f314611ecc57806330b5d6d314611e925780633123a62b14611e775780633323a706146118155780633bdb693e146118c7578063481c6a751461189e5780634882a7ea1461186d5780635e0276011461181f5780636006ecc81461181a57806363aa5ce21461181a5780636e70fcc61461181557806370a082311461021257806374d3e777146117e05780637ace48e7146115c157806384f6fb7f14611342578063907e99591461106657806393cde51a146110025780639979ef4514610e12578063a271e52514610df5578063a7ccabdf14610da3578063ad711e9e14610c4b578063aeeacbeb14610b99578063b1610d7e14610b7b578063b3a1ddf414610b49578063bc5bc2fb14610af2578063be26ed7f14610b1d578063c4323fc114610af2578063c4d1510d14610ace578063c4e4b90c14610a9f578063d56d229d14610a76578063d84cd45014610a34578063e1245900146109ed578063ec18fb5f14610258578063f8b2cb4f14610212578063fd8d7ed3146101f55763ff188dca146101d557600080fd5b346101f257806003193601126101f2576020600354604051908152f35b80fd5b50346101f257806003193601126101f25760206040516103e88152f35b50346101f25760203660031901126101f2576004356001600160a01b038116908190036102545760408261ffff92602094526110468452205416604051908152f35b5080fd5b50346101f2576102673661242f565b61027482518251146127e5565b815191835b8360ff821610156109e9576102ad60ff61029581841685612662565b511660ff6102a581851687612662565b511690612f66565b6109ab5760ff6102bf81831684612662565b5116855260056020526040852060ff6102da81841686612662565b51166000526020528460018060a01b0360406000205416156000146103b3575060018160ff61030c8180951686612662565b511687526005602052604087208361032681841688612662565b5116600052602052604060002033838060a01b031982541617905533875261104660205260408720805461ffff61035e818316612db4565b169061ffff19161790555b8261037681831686612662565b51168361038581841688612662565b5116907f565d87b2ff22fa6d4f6132a14a4c53a75f6e1da460aaeacb6d0a5881840c35518980a30116610279565b906103dd60ff6103c581841686612662565b511660ff6103d581851688612662565b511690612f98565b60ff6103eb81841686612662565b5116835260056020526040832060ff61040681851688612662565b511660005260205280600160406000200154116000146107f15760ff61042e81841686612662565b5116835260056020526040832060ff61044981851688612662565b511660005260205261046381600160406000200154612ddd565b9060018060a01b03600454166040516370a0823160e01b8152336004820152602081602481855afa9081156107495786916107b9575b506104de9060ff6104ac8188168a612662565b5116875260056020526040872060ff6104c78189168c612662565b511660005260205260016040600020015410612cf0565b604051636eb1769f60e11b8152336004820152306024820152602081604481855afa90811561074957869161077c575b506020916105586105b59260ff610527818a168c612662565b51168952600585526040892060ff6105418a82168e612662565b511660005285526001604060002001541115612d48565b60ff6105668188168a612662565b51168752600583526040872060ff6105808189168c612662565b5116600052835260018060a01b0360406000205416946040519788809481936323b872dd60e01b998a8452336004850161285d565b03925af1918215610771576105fd94602093610754575b5060048054600254604051938452929687946001600160a01b039283169486948e948694939216903390850161285d565b03925af19081156107495760ff9260019261071a575b508261062181831686612662565b511687526005602052604087208361063b81841688612662565b5116600052602052818060a01b03604060002054168752611046806020526040882080549161ffff9182610670818616612da0565b1661ffff19809516179055338a526020526040892091825491610694818416612db4565b169116179055826106a781831686612662565b51168752600560205260408720836106c181841688612662565b5116600052602052604060002033838060a01b0319825416179055826106e981831686612662565b511687526005602052604087208361070381841688612662565b511660005260205242600360406000200155610369565b61073b9060203d602011610742575b610733818361238f565b810190612845565b5038610613565b503d610729565b6040513d88823e3d90fd5b61076a90843d861161074257610733818361238f565b50386105cc565b6040513d8a823e3d90fd5b9550506020853d6020116107b1575b816107986020938361238f565b810103126107ac579351889490602061050e565b600080fd5b3d915061078b565b9550506020853d6020116107e9575b816107d56020938361238f565b810103126107ac576104de89955190610499565b3d91506107c8565b50600480546040516370a0823160e01b815233928101929092526001600160a01b03169250602081602481865afa801561096c578790610977575b61085a915060ff61083f81851687612662565b5116885260056020526040882060ff6104c781861689612662565b604051636eb1769f60e11b8152336004820152306024820152602081604481865afa90811561096c578791610938575b506105fd926108d460209260ff6108a381871689612662565b51168a526005845260408a2060ff6108bd8188168b612662565b511660005284526001604060002001541115612d48565b6002546001600160a01b03169060ff6108ef85821688612662565b51168952600583526040892060ff6109098187168a612662565b5116600052835260016040600020015491896040518097819582946323b872dd60e01b8452336004850161285d565b90506020813d602011610964575b816109536020938361238f565b810103126107ac57516105fd61088a565b3d9150610946565b6040513d89823e3d90fd5b506020813d6020116109a3575b816109916020938361238f565b810103126107ac5761085a905161082c565b3d9150610984565b60405162461bcd60e51b8152602060048201526016602482015275706978656c206973206f7574206f6620626f756e647360501b6044820152606490fd5b8480f35b50346101f25760203660031901126101f2576004359060408210156101f257610a30610a1c83611006016125ab565b604051918291602083526020830190612498565b0390f35b50346101f25760403660031901126101f257610a30610a62610a54612326565b610a5c612336565b90612e83565b6040519182916020835260208301906124bd565b50346101f257806003193601126101f2576001546040516001600160a01b039091168152602090f35b50346101f25760203660031901126101f257600435906110008210156101f257610a30610a1c836006016125ab565b50346101f257806003193601126101f257602060ff60025460a01c16604051908152f35b50346101f25760203660031901126101f2576040602091600435815261104883522054604051908152f35b50346101f257806003193601126101f257602062054600610b4060035442612ddd565b04604051908152f35b50346101f257806003193601126101f25760206203f48062054600610b7060035442612ddd565b061015604051908152f35b50346101f257806003193601126101f2576020604051620151808152f35b50346101f25760403660031901126101f25760ff6040610bb7612326565b9282610bc1612336565b94168152600560205220911660005260205260ff60406000208054906001810154610bee600283016125ab565b91610c356003820154936005876004850154169301549360405197889760018060a01b038116895260a01c166020880152604087015260e0606087015260e0860190612498565b926080850152151560a084015260c08301520390f35b50346101f257806003193601126101f257604051608081018181106001600160401b03821117610d8d57604052605781526020907f3c7376672077696474683d2236303022206865696768743d2236303022207669828201527f6577426f783d2230203020363030203630302220786d6c6e733d22687474703a6040820152761797bbbbbb973b999737b933979918181817b9bb33911f60491b6060820152915b60408110610d435750610d2f602660405184610d118296518092878086019101612475565b8101651e17b9bb339f60d11b8582015203600681018552018361238f565b610a30604051928284938452830190612498565b9181610d82610d8892610d746040519382610d678694518092848088019101612475565b8301018761100601613851565b03601f19810183528261238f565b92613842565b610cec565b634e487b7160e01b600052604160045260246000fd5b50346101f25760203660031901126101f2576004356001600160a01b0381811691829003610df157610dda90600254163314612dea565b600180546001600160a01b03191691909117905580f35b8280fd5b50346101f257806003193601126101f257602060405161fd208152f35b506020806003193601126102545760043590610e2c613098565b81835261104990818152610e4a60ff60046040872001541615613004565b828452818152610e626002604086200154421161304c565b8284528181524260036040862001541115610fc2578284528181526001604085200154341115610f7e5782845281815283808080604081206001808060a01b03825416910154905af13d15610f79573d610ebb8161253a565b90610ec9604051928361238f565b815285833d92013e5b15610f3e57828452526040808320346001820181905581546001600160a01b0319163390811790925582519384526020840191909152908201527f8108a40c809d4e4f749358511f7baa90a1259a19024e438f728276ccd4c936869080606081015b0390a16001815580f35b6064906040519062461bcd60e51b8252600482015260146024820152732330b4b632b2103a379039b2b7321022ba3432b960611b6044820152fd5b610ed2565b6064906040519062461bcd60e51b82526004820152601b60248201527f6869676865722062696420616c7265616479206578697374696e6700000000006044820152fd5b6064906040519062461bcd60e51b825260048201526019602482015278185d58dd1a5bdb881a185cc8185b1c9958591e48195b991959603a1b6044820152fd5b50346101f25760203660031901126101f257604060a091600435815261104960205220600180831b0381541690600181015490600281015460ff60046003840154930154169260405194855260208501526040840152606083015215156080820152f35b50346101f25760603660031901126101f2576001600160401b03600435818111610df1576110989036906004016123c7565b906024803582811161133e576110b29036906004016123c7565b90604491823593841161133a573660238501121561133a5783600401356110d8816123b0565b966110e6604051988961238f565b81885260209586890185600594851b830101913683116113365786899101915b8383106113265750505050865183518114908161131b575b50156112c857865191815b60ff908181168581101561121c5761115283611145838e612662565b5116846102a5848b612662565b6111de5782611161828d612662565b51168552838a5282611177604087209289612662565b511660005289523360018060a01b03604060002054160361119b5760010116611129565b60405162461bcd60e51b8152600481018a9052601e818901527f6f6e6c79206f776e65722063616e2073657420706978656c2076616c75650000818a0152606490fd5b60405162461bcd60e51b8152600481018b90526018818a0152774120706978656c206973206f7574206f6620626f756e647360401b818b0152606490fd5b508a838a8689898f61122e838261287f565b835b60ff9081811690848210156112c457611249828b612662565b5191836112568287612662565b51168852898952604088208461126c838a612662565b511660005289526001928360406000200155836112968161128d8489612662565b51169289612662565b5116907fb443b1e1f00b07b56c8517c490e3204884a2890c21f2adca9190e395e20bef6e8980a30116611230565b8680f35b60405162461bcd60e51b8152600481018790526027818601527f696e70757420617272617973206d757374206265206f66207468652073616d658187015266040d8cadccee8d60cb1b6064820152608490fd5b90508851143861111e565b8235815291810191899101611106565b8380fd5b8580fd5b8480fd5b50346101f257602080600319360112610254576004359063ffffffff8216809203610df1576205460061137760035442612ddd565b0482101561155e5781835261104780825260408420546113a261ffff9182808260101c169116612dc7565b91818316156115295790617fff9185875284526040862054169160011c16106113c9578280f35b6001546001600160a01b03929084908416803b15610254578180916024604051809481936335313c2160e11b83523060048401525af1801561151e5761150a575b50506004927ffefd1234777b4b4bdb59a31f840cf2f33cdb8f57ed79f3a9d4f47d699fee7695838093604051908152a160015416604051938480926318160ddd60e01b82525afa9182156114ff5783926114d0575b5060001982019182116114bc5781835261104881524260408420556110499081815242600260408620015561fd204201928342116114a857845252600360408320015538808280f35b634e487b7160e01b85526011600452602485fd5b634e487b7160e01b83526011600452602483fd5b9080925081813d83116114f8575b6114e8818361238f565b810103126107ac5751903861145f565b503d6114de565b6040513d85823e3d90fd5b61151390612346565b61133657833861140a565b6040513d84823e3d90fd5b60405162461bcd60e51b815260048101859052600d60248201526c139bc81d9bdd195cc818d85cdd609a1b6044820152606490fd5b6084906040519062461bcd60e51b82526004820152603660248201527f636865636b20766f7465206f7574636f6d6573206f6e6c7920706f737369626c6044820152756520666f7220636f6e636c75646564206379636c657360501b6064820152fd5b50346101f257602080600319360112610254576004358015158103610df15760035462054600906203f480826115f78342612ddd565b061061179f57338552611046845261ffff8060408720541691821561174a57836116218242612ddd565b048752611047948587526001604089200133600052875260ff6040600020541661171557849190156116d7575061165d60039392935442612ddd565b0486528385526040862091611676835492828416612dc7565b169061ffff19161790555b61168d60035442612ddd565b0483528152600160408320019033600052526040600020600160ff19825416179055337f7ce969a18bb6b0fba42c6d9746e7d08eeca4c661809659c91d276456e3153ac08280a280f35b6116e19042612ddd565b04865283855263ffff000061170160408820938454938460101c16612dc7565b60101b169063ffff00001916179055611681565b60405162461bcd60e51b815260048101889052600d60248201526c185b1c9958591e481d9bdd1959609a1b6044820152606490fd5b60405162461bcd60e51b815260048101879052602760248201527f6e6f20706978656c73206f776e6564203d206e6f20766f74657320746f2062656044820152660818d85cdd195960ca1b6064820152608490fd5b60405162461bcd60e51b81526004810185905260196024820152782b37ba34b7339031bab93932b73a363c903737ba1037b832b760391b6044820152606490fd5b50346101f25760403660031901126101f257602061180d6117ff612326565b611807612336565b90612f98565b604051908152f35b61251c565b612555565b50346101f25760203660031901126101f2576004356001600160a01b0381811691829003610df15761185690600254163314612dea565b600480546001600160a01b03191691909117905580f35b50346101f257806003193601126101f25760206203f4806205460061189460035442612ddd565b0610604051908152f35b50346101f257806003193601126101f2576002546040516001600160a01b039091168152602090f35b50346101f25760203660031901126101f2576004356001600160401b038111610254573660238201121561025457806004013590611904826123b0565b91611912604051938461238f565b8083526024602084019160051b8301019136831161133e5760248101915b838310611e0c5785856203f4806205460061194d60035442612ddd565b061015611dbc5780516040519061082082018281106001600160401b03821117610d8d5760405260408252610800366020840137835b60ff811682811015611ccb576119999085612662565b51805181019080602083019260809182910312611cc7576119bc6020830161268c565b926119c96040840161268c565b926119d66060820161268c565b92810151906001600160401b038211611cbf570181603f82011215611cc3576020810151611a038161253a565b92611a11604051948561238f565b81845260408284010111611cbf57611a30916040602085019101612475565b611a3a8385612f66565b6109ab57600a60ff83161015611c815760ff8416895260056020526040892060ff841660005260205260ff60046040600020015416611c245760ff8416895260056020526040892060ff84166000526020523360018060a01b036040600020541614611ab3575b50505050611aae90612651565b611983565b611add9060ff85168a52600560205260408a2060ff8516600052602052600260406000200161269a565b60ff8316885260056020526040882060ff831660005260205260406000209081549060ff60a01b9060a01b169060ff60a01b191617905560ff611b1f826127a9565b1660ff83160160ff8111611c0e5760ff1660ff8316885260056020526040882060ff8316600052602052611b9a60ff60406000205460a01c16611b61856127be565b611b6a856127be565b9060ff87168c52600560205260408c2060ff8716600052602052611b9460026040600020016125ab565b926130bb565b90611000811015611bfa57611aae949392611bbb60ff93849360060161269a565b6001611bc98383168a612662565b521691167f99111963d0c1a319f038ec181c2ca7254b2eed4a32fd20bf8e0ed407bac8b92b8880a390868080611aa1565b634e487b7160e01b89526032600452602489fd5b634e487b7160e01b600052601160045260246000fd5b60405162461bcd60e51b815260206004820152602f60248201527f6f776e6572207761732061736b656420746f20666972737420736574746c652060448201526e1c9bde585b1d1e481c185e5b595b9d608a1b6064820152608490fd5b60405162461bcd60e51b81526020600482015260166024820152757368617065204944206e6f7420617661696c61626c6560501b6044820152606490fd5b8a80fd5b8980fd5b8780fd5b8386805b60ff908181166040811015611db857611ce89085612662565b51611cf7575b60010116611ccf565b604051611d0381612374565b83815282611d10836127a9565b16806040019061ffff90818311611c0e5791165b808210611d625750506040821015611d4e5790611d47600192826110060161269a565b9050611cee565b634e487b7160e01b84526032600452602484fd5b9091611000831015611da4576020610d82611d9e92610d746040519382611d928694518092848088019101612475565b83010187600601613851565b90611d24565b634e487b7160e01b86526032600452602486fd5b8380f35b60405162461bcd60e51b815260206004820152602260248201527f417274697374696320706572696f642063757272656e746c79206e6f74206f7060448201526132b760f11b6064820152608490fd5b82356001600160401b038111611e7357820136604382011215611e7357602481013591611e388361253a565b611e45604051918261238f565b8381528860443681878701011161025457856020968796928793018386013783010152815201920191611930565b8680fd5b50346101f257611e8f611e893661242f565b9061287f565b80f35b50346101f25760203660031901126101f257604080916004358152611047602052205481519061ffff90818116835260101c166020820152f35b50346101f257602090816003193601126101f257600435611eeb613098565b80825261104990818452611f0960ff60046040862001541615613004565b808352818452611f216002604085200154421161304c565b8083528184524260036040852001541015612034578083528184526040832060048101805460ff191660019081179091555490546001600160a01b0393918416908416813b1561133a5783611f9092879283604051809681958294632142170760e11b8452306004850161285d565b03925af1801561202957611ff8575b5081845290935260408083208054600190910154825195865292166001600160a01b03166020850152830152907fd2aa34a4fdbbc6dff6a3e56f46e0f3ae2a31d7785ff3487aa5c95c642acea501908060608101610f34565b936120237fd2aa34a4fdbbc6dff6a3e56f46e0f3ae2a31d7785ff3487aa5c95c642acea50195612346565b93611f9f565b6040513d87823e3d90fd5b60405162461bcd60e51b8152600481018590526015602482015274185d58dd1a5bdb881b9bdd08195b991959081e595d605a1b6044820152606490fd5b50346101f257806003193601126101f2576020604051620546008152f35b50346101f25760203660031901126101f2576004356001600160a01b0381169081900361025457604060209260ff92620546006120ce60035442612ddd565b048252611047855260018383200190825284522054166040519015158152f35b50346101f2576120fd3661242f565b61210a82518251146127e5565b815190612116826123b0565b92612124604051948561238f565b828452601f19612133846123b0565b01855b8181106121ea575050845b8381106121a65760408051602080825287518183018190528993600582901b8401810192808b01929185015b82871061217a5785850386f35b909192938280612196600193603f198a820301865288516124bd565b960192019601959291909261216d565b6001906121ce60ff806121b98487612662565b5116906121c68488612662565b511690612e83565b6121d88288612662565b526121e38187612662565b5001612141565b6020906121f5612e4b565b82828901015201612136565b50346101f25760603660031901126101f25761221b612326565b9060ff612226612336565b9261223c60018060a01b03600254163314612dea565b1691828252600590602082815260ff60408520921691828552815260ff600460408620015416806122f9575b9484956000146122c05780855283825260408520838652825260443560016040872001558085528382526040852083865282526004604086200160ff1981541690558452828152604084209184525260408220015580f35b9384905282815260408086208387528252808620600401805460ff19166001179055938552828152838520918552529082204291015580f35b5084845282815260408420828552815282604085200154946203f48086018096116114a857944211612268565b6004359060ff821682036107ac57565b6024359060ff821682036107ac57565b6001600160401b038111610d8d57604052565b60e081019081106001600160401b03821117610d8d57604052565b602081019081106001600160401b03821117610d8d57604052565b90601f801991011681019081106001600160401b03821117610d8d57604052565b6001600160401b038111610d8d5760051b60200190565b81601f820112156107ac578035916123de836123b0565b926123ec604051948561238f565b808452602092838086019260051b8201019283116107ac578301905b828210612416575050505090565b813560ff811681036107ac578152908301908301612408565b9060406003198301126107ac576001600160401b036004358181116107ac578361245b916004016123c7565b926024359182116107ac57612472916004016123c7565b90565b60005b8381106124885750506000910152565b8181015183820152602001612478565b906020916124b181518092818552858086019101612475565b601f01601f1916010190565b9060018060a01b03825116815260ff60208301511660208201526040820151604082015260c0806124fd606085015160e0606086015260e0850190612498565b936080810151608085015260a0810151151560a0850152015191015290565b346107ac5760003660031901126107ac5760206040516203f4808152f35b6001600160401b038111610d8d57601f01601f191660200190565b346107ac5760003660031901126107ac57602060405160408152f35b90600182811c921680156125a1575b602083101461258b57565b634e487b7160e01b600052602260045260246000fd5b91607f1691612580565b90604051918260008254926125bf84612571565b90818452600194858116908160001461262e57506001146125eb575b50506125e99250038361238f565b565b9093915060005260209081600020936000915b8183106126165750506125e9935082010138806125db565b855488840185015294850194879450918301916125fe565b9150506125e994506020925060ff191682840152151560051b82010138806125db565b60ff1660ff8114611c0e5760010190565b80518210156126765760209160051b010190565b634e487b7160e01b600052603260045260246000fd5b519060ff821682036107ac57565b91909182516001600160401b038111610d8d576126b78254612571565b601f8111612761575b50602080601f83116001146126fd5750819293946000926126f2575b50508160011b916000199060031b1c1916179055565b0151905038806126dc565b90601f198316958460005282600020926000905b88821061274957505083600195969710612730575b505050811b019055565b015160001960f88460031b161c19169055388080612726565b80600185968294968601518155019501930190612711565b600083815260208120601f840160051c8101926020851061279f575b601f0160051c01915b8281106127945750506126c0565b818155600101612786565b909250829061277d565b60061b90613fc060c0831692168203611c0e57565b60ff60099116029060ff8216918203611c0e57565b60ff60049116019060ff8211611c0e57565b156127ec57565b60405162461bcd60e51b815260206004820152602b60248201527f7820616e64207920696e7075742061727261797320617265206f66207661726960448201526a6f7573206c656e6774687360a81b6064820152608490fd5b908160209103126107ac575180151581036107ac5790565b6001600160a01b03918216815291166020820152604081019190915260600190565b9061288d82518251146127e5565b8151906000935b60ff9485811684811015612ce7576128bd876128b08389612662565b5116886102a58488612662565b6109ab57866128cc8288612662565b511660005260059660209780895260409081600020836128ec868a612662565b51166000528a5260018060a01b0391338382600020541603612c995783612913868c612662565b5116600052818b52806000208461292a878b612662565b51166000528b5260039a428c8360002001540361295f575b505050505050612956919293949550612651565b93929190612894565b61297a8561296d888e612662565b5116866103d5898d612662565b600494808654169084516370a0823160e01b8152338882015260249085818381875afa908115612c0d57908591600091612c69575b5010612c18578551636eb1769f60e11b8152338982019081523060208201528690829081906040010381875afa908115612c0d57908591600091612bdd575b5010612b8c5750918391612a1e9360025416600087518096819582946323b872dd60e01b84528d3390850161285d565b03925af18015612b815799878d9e9d829d9e89946129569d9e612b64575b5084612a488484612662565b51166000528786528660002085612a5f8587612662565b51166000528652429087600020015583612a798383612662565b51166000528685528560002084612a908486612662565b51166000528552838887600020015416612afa575b929550925050612ac39450612aba9250612662565b51169287612662565b5116907f86d6cb594aa6246461b8ce6b17fbd44c5f0e7ab32645d9035da6fed5ba78eb1b600080a385949392913880808080612942565b600097612b389385612b0c8585612662565b51168a5288875285612b21858a8d2093612662565b51168a52865286892001805460ff19169055612662565b511684528281528184209085612b4e888d612662565b51168552528220015538808080848a878e612aa5565b612b7a90873d891161074257610733818361238f565b5038612a3c565b83513d6000823e3d90fd5b8760276084928789519362461bcd60e51b85528401528201527f696e73756666696369656e7420616c6c6f77616e636520746f2070617920726f60448201526679616c7469657360c81b6064820152fd5b91508682813d8311612c06575b612bf4818361238f565b810103126101f25750849051386129ee565b503d612bea565b87513d6000823e3d90fd5b8760276084928789519362461bcd60e51b85528401528201527f6e6f742073756666696369656e742062616c616e636520746f2070617920726f60448201526679616c7469657360c81b6064820152fd5b91508682813d8311612c92575b612c80818361238f565b810103126101f25750849051386129af565b503d612c76565b5162461bcd60e51b8152600481018b9052602260248201527f6f6e6c7920706978656c206f776e65722063616e2070617920726f79616c7469604482015261657360f01b6064820152608490fd5b50509350505050565b15612cf757565b60405162461bcd60e51b815260206004820152602360248201527f6e6f742073756666696369656e742062616c616e636520746f206275792070696044820152621e195b60ea1b6064820152608490fd5b15612d4f57565b60405162461bcd60e51b815260206004820152602360248201527f696e73756666696369656e7420616c6c6f77616e636520746f206275792070696044820152621e195b60ea1b6064820152608490fd5b61ffff9081166000190191908211611c0e57565b90600161ffff80931601918211611c0e57565b91909161ffff80809416911601918211611c0e57565b91908203918211611c0e57565b15612df157565b60405162461bcd60e51b815260206004820152602c60248201527f6f776e65722063757272656e74206d616e616765722063616e2063616c6c207460448201526b3434b990333ab731ba34b7b760a11b6064820152608490fd5b60405190612e5882612359565b8160c06000918281528260208201528260408201526060808201528260808201528260a08201520152565b60ff90612e8e612e4b565b50169060409182811080612f5a575b15612f2057600052600560205260ff826000209116600052602052600581600020825192612eca84612359565b81546001600160a01b038116855260a01c60ff166020850152600182015490840152612ef8600282016125ab565b60608401526003810154608084015260ff600482015416151560a0840152015460c082015290565b825162461bcd60e51b8152602060048201526013602482015272706978656c206f7574206f6620626f756e647360681b6044820152606490fd5b508260ff831610612e9d565b60ff604091161090811591612f79575090565b6040915060ff16101590565b81810292918115918404141715611c0e57565b612ff164073df16000926001604060ff613000951692600090848252600560205260ff838320911690818352602052612fd76003848420015442612ddd565b948252600560205282822090825260205220015490612f85565b60ff60025460a01c1690612f85565b0490565b1561300b57565b60405162461bcd60e51b815260206004820152601960248201527861756374696f6e2068617320656e64656420616c726561647960381b6044820152606490fd5b1561305357565b60405162461bcd60e51b815260206004820152601b60248201527f61756374696f6e20686173206e6f7420737461727465642079657400000000006044820152606490fd5b6002600054146130a9576002600055565b604051633ee5aeb560e01b8152600490fd5b92909160ff80941692831561377c57600184146136b7576002841461368657600384146136235784906004948581146135b85760058114613458576006811461340357600781146133ae57600881146132c95760099192501461313057505050505060405161312981612374565b6000815290565b84169361313c856138d4565b9116613147816138d4565b600886018087116132b45761315b906138d4565b946008830180931161329f57509161328382612472969461319061318a613184604999976138d4565b9a6138d4565b926138d4565b91604051998a97602a6131c08a602099693c7061746820643d224d60b01b8b8301528a8151948593019101612475565b890193600160fd1b9485602a8201526131e2825180938b602b85019101612475565b016b010209c101c101810181018960a51b602b82015261320b825180938a603785019101612475565b018360378201526132258251809389603885019101612475565b0161081360f21b60388201526132448251809388603a85019101612475565b0190603a82015261325e8251809386603b85019101612475565b019169102d11103334b6361e9160b11b603b8401528351938491604585019101612475565b01631110179f60e11b604582015203602981018452018261238f565b601190634e487b7160e01b6000525260246000fd5b601186634e487b7160e01b6000525260246000fd5b50166008810194858211613399576132e0866138d4565b9216906132f56132ef836138d4565b916138d4565b946008830180931161329f57509161328382612472969461331e61318a613184604999976138d4565b91604051998a97602a61334e8a602099693c7061746820643d224d60b01b8b8301528a8151948593019101612475565b890193600160fd1b9485602a820152613370825180938b602b85019101612475565b016b010209c101c101810181018160a51b602b82015261320b825180938a603785019101612475565b601185634e487b7160e01b6000525260246000fd5b5016936133ba856138d4565b91166133c5816138d4565b60088601809611613399576133d9866138d4565b94600883019081841161329f57506049949261247296949261331e61318a613184613283956138d4565b50169361340f856138d4565b91166008810180821161339957613425906138d4565b93600886019081871161329f5750916132836049949261344861247297956138d4565b9461331e61318a613184846138d4565b501693613464856138d4565b91169360088501908186116133995761347c826138d4565b9061348f613489826138d4565b976138d4565b956008820180921161329f5750603f94926124729694926134b561318a61359c946138d4565b91604051998a97602a6134e58a602099693c7061746820643d224d60b01b8b8301528a8151948593019101612475565b890193600160fd1b9485602a820152613507825180938b602b85019101612475565b019161081360f21b9283602b820152613529825180938b602d85019101612475565b0184602d820152613543825180938a602e85019101612475565b0190602e82015261355d8251809388603085019101612475565b019060308201526135778251809386603185019101612475565b019169103d11103334b6361e9160b11b60318401528351938491603b85019101612475565b01631110179f60e11b603b82015203601f81018452018261238f565b501692600884019485851161360e576135d0866138d4565b921694600886019182871161329f57509161359c8261247296946134b561318a613489613608613602603f9b996138d4565b946138d4565b9b6138d4565b601182634e487b7160e01b6000525260246000fd5b90939081169250613633836138d4565b93169161363f836138d4565b9160088201809211611c0e57613654826138d4565b94613667613661866138d4565b936138d4565b9460088101809111611c0e5761247295603f956134b561359c936138d4565b90939081169250613696836138d4565b9316916136a2836138d4565b9160088201808311611c0e57613654906138d4565b6124729350846136d36136d9604495976136d36136df956127d3565b166138d4565b936127d3565b936040519485926b1e31b4b931b6329031bc1e9160a11b602085015261370f815180926020602c88019101612475565b830165111031bc9e9160d11b602c820152613734825180936020603285019101612475565b016d1110391e911a11103334b6361e9160911b6032820152613760825180936020604085019101612475565b01631110179f60e11b604082015203602481018452018261238f565b612472935084613793604f949661379a93166138d4565b92166138d4565b93604051948592681e3932b1ba103c1e9160b91b60208501526137c7815180926020602988019101612475565b83016411103c9e9160d91b60298201526137eb825180936020602e85019101612475565b017f222077696474683d223822206865696768743d2238222066696c6c3d22000000602e820152613826825180936020604b85019101612475565b01631110179f60e11b604b82015203602f81018452018261238f565b6000198114611c0e5760010190565b60009291815461386081612571565b926001918083169081156138b9575060011461387d575b50505050565b90919293945060005260209081600020906000915b8583106138a85750505050019038808080613877565b805485840152918301918101613892565b60ff1916845250505081151590910201915038808080613877565b80156139945780816000925b6139805750806138ef8361253a565b926138fd604051948561238f565b808452601f1961390c8261253a565b01366020860137915b61391e57505090565b600019820191808311611c0e5782600a9081840493828502928584041485151715611c0e5761395060ff938492612ddd565b16603001918211611c0e57855111156126765760f81b6001600160f81b03191660001a908401601f015380613915565b9161398c600a91613842565b9204806138e0565b50604051604081018181106001600160401b03821117610d8d5760405260018152600360fc1b60208201529056fea264697066735822122080d5a3cd54feacbc9f5ab5f97c216449f32f8f85008affa39481384f5f49ed2a64736f6c63430008140033",
  "linkReferences": {},
  "deployedLinkReferences": {}
}